ARM GAS  C:\Users\anashi\AppData\Local\Temp\ccfFJDB3.s 			page 1


   1              		.cpu cortex-m0
   2              		.eabi_attribute 20, 1
   3              		.eabi_attribute 21, 1
   4              		.eabi_attribute 23, 3
   5              		.eabi_attribute 24, 1
   6              		.eabi_attribute 25, 1
   7              		.eabi_attribute 26, 1
   8              		.eabi_attribute 30, 2
   9              		.eabi_attribute 34, 0
  10              		.eabi_attribute 18, 4
  11              		.file	"stm32f0xx_hal_i2c_ex.c"
  12              		.text
  13              	.Ltext0:
  14              		.cfi_sections	.debug_frame
  15              		.section	.text.HAL_I2CEx_ConfigAnalogFilter,"ax",%progbits
  16              		.align	1
  17              		.p2align 2,,3
  18              		.global	HAL_I2CEx_ConfigAnalogFilter
  19              		.syntax unified
  20              		.code	16
  21              		.thumb_func
  22              		.fpu softvfp
  23              		.type	HAL_I2CEx_ConfigAnalogFilter, %function
  24              	HAL_I2CEx_ConfigAnalogFilter:
  25              	.LFB37:
  26              		.file 1 "C:/repos/rs2all/board/Drivers/STM32F0xx_HAL_Driver/Src/stm32f0xx_hal_i2c_ex.c"
  27              		.loc 1 112 0
  28              		.cfi_startproc
  29              		@ args = 0, pretend = 0, frame = 0
  30              		@ frame_needed = 0, uses_anonymous_args = 0
  31              	.LVL0:
  32 0000 F0B5     		push	{r4, r5, r6, r7, lr}
  33              		.cfi_def_cfa_offset 20
  34              		.cfi_offset 4, -20
  35              		.cfi_offset 5, -16
  36              		.cfi_offset 6, -12
  37              		.cfi_offset 7, -8
  38              		.cfi_offset 14, -4
  39 0002 CE46     		mov	lr, r9
  40 0004 4746     		mov	r7, r8
  41              		.loc 1 117 0
  42 0006 4124     		movs	r4, #65
  43              		.loc 1 112 0
  44 0008 80B5     		push	{r7, lr}
  45              		.cfi_def_cfa_offset 28
  46              		.cfi_offset 8, -28
  47              		.cfi_offset 9, -24
  48              		.loc 1 117 0
  49 000a 035D     		ldrb	r3, [r0, r4]
  50              		.loc 1 144 0
  51 000c 0222     		movs	r2, #2
  52              		.loc 1 117 0
  53 000e DBB2     		uxtb	r3, r3
  54 0010 202B     		cmp	r3, #32
  55 0012 1CD1     		bne	.L2
  56              		.loc 1 120 0
  57 0014 4026     		movs	r6, #64
ARM GAS  C:\Users\anashi\AppData\Local\Temp\ccfFJDB3.s 			page 2


  58 0016 855D     		ldrb	r5, [r0, r6]
  59 0018 012D     		cmp	r5, #1
  60 001a 18D0     		beq	.L2
  61              		.loc 1 125 0 discriminator 2
  62 001c 0127     		movs	r7, #1
  63              		.loc 1 122 0 discriminator 2
  64 001e 2232     		adds	r2, r2, #34
  65 0020 0255     		strb	r2, [r0, r4]
  66              		.loc 1 125 0 discriminator 2
  67 0022 0268     		ldr	r2, [r0]
  68 0024 B946     		mov	r9, r7
  69 0026 1568     		ldr	r5, [r2]
  70 0028 BD43     		bics	r5, r7
  71 002a 1560     		str	r5, [r2]
  72              		.loc 1 128 0 discriminator 2
  73 002c 1568     		ldr	r5, [r2]
  74 002e A846     		mov	r8, r5
  75 0030 4746     		mov	r7, r8
  76 0032 094D     		ldr	r5, .L6
  77 0034 2F40     		ands	r7, r5
  78 0036 1760     		str	r7, [r2]
  79              		.loc 1 131 0 discriminator 2
  80 0038 1568     		ldr	r5, [r2]
  81 003a 2943     		orrs	r1, r5
  82              	.LVL1:
  83              		.loc 1 133 0 discriminator 2
  84 003c 4D46     		mov	r5, r9
  85              		.loc 1 131 0 discriminator 2
  86 003e 1160     		str	r1, [r2]
  87              		.loc 1 133 0 discriminator 2
  88 0040 1168     		ldr	r1, [r2]
  89 0042 2943     		orrs	r1, r5
  90 0044 1160     		str	r1, [r2]
  91              		.loc 1 135 0 discriminator 2
  92 0046 0355     		strb	r3, [r0, r4]
  93              		.loc 1 138 0 discriminator 2
  94 0048 0023     		movs	r3, #0
  95              		.loc 1 140 0 discriminator 2
  96 004a 0022     		movs	r2, #0
  97              		.loc 1 138 0 discriminator 2
  98 004c 8355     		strb	r3, [r0, r6]
  99              	.L2:
 100              		.loc 1 146 0
 101 004e 1000     		movs	r0, r2
 102              	.LVL2:
 103              		@ sp needed
 104 0050 0CBC     		pop	{r2, r3}
 105 0052 9046     		mov	r8, r2
 106 0054 9946     		mov	r9, r3
 107 0056 F0BD     		pop	{r4, r5, r6, r7, pc}
 108              	.L7:
 109              		.align	2
 110              	.L6:
 111 0058 FFEFFFFF 		.word	-4097
 112              		.cfi_endproc
 113              	.LFE37:
 114              		.size	HAL_I2CEx_ConfigAnalogFilter, .-HAL_I2CEx_ConfigAnalogFilter
ARM GAS  C:\Users\anashi\AppData\Local\Temp\ccfFJDB3.s 			page 3


 115              		.section	.text.HAL_I2CEx_ConfigDigitalFilter,"ax",%progbits
 116              		.align	1
 117              		.p2align 2,,3
 118              		.global	HAL_I2CEx_ConfigDigitalFilter
 119              		.syntax unified
 120              		.code	16
 121              		.thumb_func
 122              		.fpu softvfp
 123              		.type	HAL_I2CEx_ConfigDigitalFilter, %function
 124              	HAL_I2CEx_ConfigDigitalFilter:
 125              	.LFB38:
 126              		.loc 1 156 0
 127              		.cfi_startproc
 128              		@ args = 0, pretend = 0, frame = 0
 129              		@ frame_needed = 0, uses_anonymous_args = 0
 130              	.LVL3:
 131 0000 F0B5     		push	{r4, r5, r6, r7, lr}
 132              		.cfi_def_cfa_offset 20
 133              		.cfi_offset 4, -20
 134              		.cfi_offset 5, -16
 135              		.cfi_offset 6, -12
 136              		.cfi_offset 7, -8
 137              		.cfi_offset 14, -4
 138 0002 CE46     		mov	lr, r9
 139 0004 4746     		mov	r7, r8
 140              		.loc 1 163 0
 141 0006 4124     		movs	r4, #65
 142              		.loc 1 156 0
 143 0008 80B5     		push	{r7, lr}
 144              		.cfi_def_cfa_offset 28
 145              		.cfi_offset 8, -28
 146              		.cfi_offset 9, -24
 147              		.loc 1 163 0
 148 000a 035D     		ldrb	r3, [r0, r4]
 149              		.loc 1 196 0
 150 000c 0222     		movs	r2, #2
 151              		.loc 1 163 0
 152 000e DBB2     		uxtb	r3, r3
 153 0010 202B     		cmp	r3, #32
 154 0012 1BD1     		bne	.L9
 155              		.loc 1 166 0
 156 0014 4026     		movs	r6, #64
 157 0016 855D     		ldrb	r5, [r0, r6]
 158 0018 012D     		cmp	r5, #1
 159 001a 17D0     		beq	.L9
 160              		.loc 1 171 0 discriminator 2
 161 001c 0127     		movs	r7, #1
 162              		.loc 1 168 0 discriminator 2
 163 001e 2232     		adds	r2, r2, #34
 164 0020 0255     		strb	r2, [r0, r4]
 165              		.loc 1 171 0 discriminator 2
 166 0022 0268     		ldr	r2, [r0]
 167 0024 B946     		mov	r9, r7
 168 0026 1568     		ldr	r5, [r2]
 169              		.loc 1 180 0 discriminator 2
 170 0028 0902     		lsls	r1, r1, #8
 171              	.LVL4:
ARM GAS  C:\Users\anashi\AppData\Local\Temp\ccfFJDB3.s 			page 4


 172              		.loc 1 171 0 discriminator 2
 173 002a BD43     		bics	r5, r7
 174 002c 1560     		str	r5, [r2]
 175              		.loc 1 174 0 discriminator 2
 176 002e 1568     		ldr	r5, [r2]
 177              	.LVL5:
 178 0030 A846     		mov	r8, r5
 179              	.LVL6:
 180              		.loc 1 177 0 discriminator 2
 181 0032 4746     		mov	r7, r8
 182 0034 084D     		ldr	r5, .L12
 183              	.LVL7:
 184 0036 2F40     		ands	r7, r5
 185              	.LVL8:
 186              		.loc 1 185 0 discriminator 2
 187 0038 4D46     		mov	r5, r9
 188              		.loc 1 180 0 discriminator 2
 189 003a 3943     		orrs	r1, r7
 190              	.LVL9:
 191              		.loc 1 183 0 discriminator 2
 192 003c 1160     		str	r1, [r2]
 193              		.loc 1 185 0 discriminator 2
 194 003e 1168     		ldr	r1, [r2]
 195              	.LVL10:
 196 0040 2943     		orrs	r1, r5
 197 0042 1160     		str	r1, [r2]
 198              	.LVL11:
 199              		.loc 1 187 0 discriminator 2
 200 0044 0355     		strb	r3, [r0, r4]
 201              		.loc 1 190 0 discriminator 2
 202 0046 0023     		movs	r3, #0
 203              		.loc 1 192 0 discriminator 2
 204 0048 0022     		movs	r2, #0
 205              		.loc 1 190 0 discriminator 2
 206 004a 8355     		strb	r3, [r0, r6]
 207              	.LVL12:
 208              	.L9:
 209              		.loc 1 198 0
 210 004c 1000     		movs	r0, r2
 211              	.LVL13:
 212              		@ sp needed
 213 004e 0CBC     		pop	{r2, r3}
 214 0050 9046     		mov	r8, r2
 215 0052 9946     		mov	r9, r3
 216 0054 F0BD     		pop	{r4, r5, r6, r7, pc}
 217              	.L13:
 218 0056 C046     		.align	2
 219              	.L12:
 220 0058 FFF0FFFF 		.word	-3841
 221              		.cfi_endproc
 222              	.LFE38:
 223              		.size	HAL_I2CEx_ConfigDigitalFilter, .-HAL_I2CEx_ConfigDigitalFilter
 224              		.section	.text.HAL_I2CEx_EnableFastModePlus,"ax",%progbits
 225              		.align	1
 226              		.p2align 2,,3
 227              		.global	HAL_I2CEx_EnableFastModePlus
 228              		.syntax unified
ARM GAS  C:\Users\anashi\AppData\Local\Temp\ccfFJDB3.s 			page 5


 229              		.code	16
 230              		.thumb_func
 231              		.fpu softvfp
 232              		.type	HAL_I2CEx_EnableFastModePlus, %function
 233              	HAL_I2CEx_EnableFastModePlus:
 234              	.LFB39:
 235              		.loc 1 294 0
 236              		.cfi_startproc
 237              		@ args = 0, pretend = 0, frame = 8
 238              		@ frame_needed = 0, uses_anonymous_args = 0
 239              		@ link register save eliminated.
 240              	.LVL14:
 241              	.LBB2:
 242              		.loc 1 299 0
 243 0000 0123     		movs	r3, #1
 244 0002 074A     		ldr	r2, .L15
 245              	.LBE2:
 246              		.loc 1 294 0
 247 0004 82B0     		sub	sp, sp, #8
 248              		.cfi_def_cfa_offset 8
 249              	.LBB3:
 250              		.loc 1 299 0
 251 0006 9169     		ldr	r1, [r2, #24]
 252 0008 1943     		orrs	r1, r3
 253 000a 9161     		str	r1, [r2, #24]
 254 000c 9269     		ldr	r2, [r2, #24]
 255 000e 1340     		ands	r3, r2
 256              	.LBE3:
 257              		.loc 1 302 0
 258 0010 044A     		ldr	r2, .L15+4
 259              	.LBB4:
 260              		.loc 1 299 0
 261 0012 0193     		str	r3, [sp, #4]
 262 0014 019B     		ldr	r3, [sp, #4]
 263              	.LBE4:
 264              		.loc 1 302 0
 265 0016 1368     		ldr	r3, [r2]
 266 0018 1843     		orrs	r0, r3
 267              	.LVL15:
 268 001a 1060     		str	r0, [r2]
 269              		.loc 1 303 0
 270 001c 02B0     		add	sp, sp, #8
 271              		@ sp needed
 272 001e 7047     		bx	lr
 273              	.L16:
 274              		.align	2
 275              	.L15:
 276 0020 00100240 		.word	1073876992
 277 0024 00000140 		.word	1073807360
 278              		.cfi_endproc
 279              	.LFE39:
 280              		.size	HAL_I2CEx_EnableFastModePlus, .-HAL_I2CEx_EnableFastModePlus
 281              		.section	.text.HAL_I2CEx_DisableFastModePlus,"ax",%progbits
 282              		.align	1
 283              		.p2align 2,,3
 284              		.global	HAL_I2CEx_DisableFastModePlus
 285              		.syntax unified
ARM GAS  C:\Users\anashi\AppData\Local\Temp\ccfFJDB3.s 			page 6


 286              		.code	16
 287              		.thumb_func
 288              		.fpu softvfp
 289              		.type	HAL_I2CEx_DisableFastModePlus, %function
 290              	HAL_I2CEx_DisableFastModePlus:
 291              	.LFB40:
 292              		.loc 1 319 0
 293              		.cfi_startproc
 294              		@ args = 0, pretend = 0, frame = 8
 295              		@ frame_needed = 0, uses_anonymous_args = 0
 296              		@ link register save eliminated.
 297              	.LVL16:
 298              	.LBB5:
 299              		.loc 1 324 0
 300 0000 0123     		movs	r3, #1
 301 0002 074A     		ldr	r2, .L18
 302              	.LBE5:
 303              		.loc 1 319 0
 304 0004 82B0     		sub	sp, sp, #8
 305              		.cfi_def_cfa_offset 8
 306              	.LBB6:
 307              		.loc 1 324 0
 308 0006 9169     		ldr	r1, [r2, #24]
 309 0008 1943     		orrs	r1, r3
 310 000a 9161     		str	r1, [r2, #24]
 311 000c 9269     		ldr	r2, [r2, #24]
 312 000e 1340     		ands	r3, r2
 313              	.LBE6:
 314              		.loc 1 327 0
 315 0010 044A     		ldr	r2, .L18+4
 316              	.LBB7:
 317              		.loc 1 324 0
 318 0012 0193     		str	r3, [sp, #4]
 319 0014 019B     		ldr	r3, [sp, #4]
 320              	.LBE7:
 321              		.loc 1 327 0
 322 0016 1368     		ldr	r3, [r2]
 323 0018 8343     		bics	r3, r0
 324 001a 1360     		str	r3, [r2]
 325              		.loc 1 328 0
 326 001c 02B0     		add	sp, sp, #8
 327              		@ sp needed
 328 001e 7047     		bx	lr
 329              	.L19:
 330              		.align	2
 331              	.L18:
 332 0020 00100240 		.word	1073876992
 333 0024 00000140 		.word	1073807360
 334              		.cfi_endproc
 335              	.LFE40:
 336              		.size	HAL_I2CEx_DisableFastModePlus, .-HAL_I2CEx_DisableFastModePlus
 337              		.text
 338              	.Letext0:
 339              		.file 2 "c:\\st\\stm32cubeide_1.1.0\\stm32cubeide\\plugins\\com.st.stm32cube.ide.mcu.externaltools
 340              		.file 3 "c:\\st\\stm32cubeide_1.1.0\\stm32cubeide\\plugins\\com.st.stm32cube.ide.mcu.externaltools
 341              		.file 4 "C:/repos/rs2all/board/Drivers/CMSIS/Device/ST/STM32F0xx/Include/system_stm32f0xx.h"
 342              		.file 5 "C:/repos/rs2all/board/Drivers/CMSIS/Device/ST/STM32F0xx/Include/stm32f030x6.h"
ARM GAS  C:\Users\anashi\AppData\Local\Temp\ccfFJDB3.s 			page 7


 343              		.file 6 "c:\\st\\stm32cubeide_1.1.0\\stm32cubeide\\plugins\\com.st.stm32cube.ide.mcu.externaltools
 344              		.file 7 "c:\\st\\stm32cubeide_1.1.0\\stm32cubeide\\plugins\\com.st.stm32cube.ide.mcu.externaltools
 345              		.file 8 "c:\\st\\stm32cubeide_1.1.0\\stm32cubeide\\plugins\\com.st.stm32cube.ide.mcu.externaltools
 346              		.file 9 "c:\\st\\stm32cubeide_1.1.0\\stm32cubeide\\plugins\\com.st.stm32cube.ide.mcu.externaltools
 347              		.file 10 "C:/repos/rs2all/board/Drivers/STM32F0xx_HAL_Driver/Inc/stm32f0xx_hal_def.h"
 348              		.file 11 "C:/repos/rs2all/board/Drivers/STM32F0xx_HAL_Driver/Inc/stm32f0xx_hal_dma.h"
 349              		.file 12 "C:/repos/rs2all/board/Drivers/STM32F0xx_HAL_Driver/Inc/stm32f0xx_hal_i2c.h"
