ARM GAS  C:\Users\anashi\AppData\Local\Temp\ccFEbQrI.s 			page 1


   1              		.cpu cortex-m0
   2              		.eabi_attribute 20, 1
   3              		.eabi_attribute 21, 1
   4              		.eabi_attribute 23, 3
   5              		.eabi_attribute 24, 1
   6              		.eabi_attribute 25, 1
   7              		.eabi_attribute 26, 1
   8              		.eabi_attribute 30, 2
   9              		.eabi_attribute 34, 0
  10              		.eabi_attribute 18, 4
  11              		.file	"stm32f0xx_hal_i2c.c"
  12              		.text
  13              	.Ltext0:
  14              		.cfi_sections	.debug_frame
  15              		.section	.text.I2C_DMASlaveTransmitCplt,"ax",%progbits
  16              		.align	1
  17              		.p2align 2,,3
  18              		.syntax unified
  19              		.code	16
  20              		.thumb_func
  21              		.fpu softvfp
  22              		.type	I2C_DMASlaveTransmitCplt, %function
  23              	I2C_DMASlaveTransmitCplt:
  24              	.LFB97:
  25              		.file 1 "C:/repos/rs2all/board/Drivers/STM32F0xx_HAL_Driver/Src/stm32f0xx_hal_i2c.c"
  26              		.loc 1 4350 0
  27              		.cfi_startproc
  28              		@ args = 0, pretend = 0, frame = 0
  29              		@ frame_needed = 0, uses_anonymous_args = 0
  30              		@ link register save eliminated.
  31              	.LVL0:
  32              		.loc 1 4357 0
  33              		@ sp needed
  34 0000 7047     		bx	lr
  35              		.cfi_endproc
  36              	.LFE97:
  37              		.size	I2C_DMASlaveTransmitCplt, .-I2C_DMASlaveTransmitCplt
  38 0002 C046     		.section	.text.I2C_DMAMasterTransmitCplt,"ax",%progbits
  39              		.align	1
  40              		.p2align 2,,3
  41              		.syntax unified
  42              		.code	16
  43              		.thumb_func
  44              		.fpu softvfp
  45              		.type	I2C_DMAMasterTransmitCplt, %function
  46              	I2C_DMAMasterTransmitCplt:
  47              	.LFB96:
  48              		.loc 1 4308 0
  49              		.cfi_startproc
  50              		@ args = 0, pretend = 0, frame = 0
  51              		@ frame_needed = 0, uses_anonymous_args = 0
  52              	.LVL1:
  53 0000 10B5     		push	{r4, lr}
  54              		.cfi_def_cfa_offset 8
  55              		.cfi_offset 4, -8
  56              		.cfi_offset 14, -4
  57              		.loc 1 4309 0
ARM GAS  C:\Users\anashi\AppData\Local\Temp\ccFEbQrI.s 			page 2


  58 0002 446A     		ldr	r4, [r0, #36]
  59              	.LVL2:
  60              		.loc 1 4312 0
  61 0004 1F49     		ldr	r1, .L14
  62 0006 2268     		ldr	r2, [r4]
  63 0008 1368     		ldr	r3, [r2]
  64 000a 0B40     		ands	r3, r1
  65 000c 1360     		str	r3, [r2]
  66              		.loc 1 4315 0
  67 000e 638D     		ldrh	r3, [r4, #42]
  68 0010 002B     		cmp	r3, #0
  69 0012 0FD1     		bne	.L4
  70              	.LVL3:
  71              	.LBB158:
  72              	.LBB159:
  73              		.loc 1 4726 0
  74 0014 636B     		ldr	r3, [r4, #52]
  75 0016 1C49     		ldr	r1, .L14+4
  76 0018 8B42     		cmp	r3, r1
  77 001a 2FD0     		beq	.L9
  78 001c 1B49     		ldr	r1, .L14+8
  79              		.loc 1 4750 0
  80 001e 5B1A     		subs	r3, r3, r1
  81 0020 591E     		subs	r1, r3, #1
  82 0022 8B41     		sbcs	r3, r3, r1
  83 0024 9421     		movs	r1, #148
  84 0026 5B42     		rsbs	r3, r3, #0
  85 0028 0B40     		ands	r3, r1
  86 002a 6033     		adds	r3, r3, #96
  87              	.L5:
  88              	.LVL4:
  89              		.loc 1 4783 0
  90 002c 1168     		ldr	r1, [r2]
  91 002e 0B43     		orrs	r3, r1
  92              	.LVL5:
  93 0030 1360     		str	r3, [r2]
  94              	.LVL6:
  95              	.L3:
  96              	.LBE159:
  97              	.LBE158:
  98              		.loc 1 4342 0
  99              		@ sp needed
 100              	.LVL7:
 101 0032 10BD     		pop	{r4, pc}
 102              	.LVL8:
 103              	.L4:
 104              		.loc 1 4324 0
 105 0034 636A     		ldr	r3, [r4, #36]
 106 0036 218D     		ldrh	r1, [r4, #40]
 107 0038 9C46     		mov	ip, r3
 108              		.loc 1 4327 0
 109 003a 638D     		ldrh	r3, [r4, #42]
 110              		.loc 1 4324 0
 111 003c 6144     		add	r1, r1, ip
 112 003e 6162     		str	r1, [r4, #36]
 113              		.loc 1 4327 0
 114 0040 FF2B     		cmp	r3, #255
ARM GAS  C:\Users\anashi\AppData\Local\Temp\ccFEbQrI.s 			page 3


 115 0042 18D8     		bhi	.L11
 116              		.loc 1 4333 0
 117 0044 608D     		ldrh	r0, [r4, #42]
 118              	.LVL9:
 119 0046 80B2     		uxth	r0, r0
 120 0048 0300     		movs	r3, r0
 121              	.L7:
 122 004a 2085     		strh	r0, [r4, #40]
 123              		.loc 1 4337 0
 124 004c 2832     		adds	r2, r2, #40
 125 004e A06B     		ldr	r0, [r4, #56]
 126 0050 FFF7FEFF 		bl	HAL_DMA_Start_IT
 127              	.LVL10:
 128              	.LBB161:
 129              	.LBB162:
 130              		.loc 1 4726 0
 131 0054 636B     		ldr	r3, [r4, #52]
 132 0056 0C4A     		ldr	r2, .L14+4
 133 0058 9342     		cmp	r3, r2
 134 005a 11D0     		beq	.L12
 135 005c 0B4A     		ldr	r2, .L14+8
 136              		.loc 1 4750 0
 137 005e 9B1A     		subs	r3, r3, r2
 138 0060 5A1E     		subs	r2, r3, #1
 139 0062 9341     		sbcs	r3, r3, r2
 140 0064 9422     		movs	r2, #148
 141 0066 5B42     		rsbs	r3, r3, #0
 142 0068 1340     		ands	r3, r2
 143 006a 6033     		adds	r3, r3, #96
 144              	.L8:
 145              	.LVL11:
 146              		.loc 1 4783 0
 147 006c 2168     		ldr	r1, [r4]
 148 006e 0A68     		ldr	r2, [r1]
 149 0070 1343     		orrs	r3, r2
 150              	.LVL12:
 151 0072 0B60     		str	r3, [r1]
 152              	.LBE162:
 153              	.LBE161:
 154              		.loc 1 4342 0
 155 0074 DDE7     		b	.L3
 156              	.LVL13:
 157              	.L11:
 158 0076 FF23     		movs	r3, #255
 159              		.loc 1 4329 0
 160 0078 FF20     		movs	r0, #255
 161              	.LVL14:
 162 007a E6E7     		b	.L7
 163              	.LVL15:
 164              	.L9:
 165              	.LBB164:
 166              	.LBB160:
 167              		.loc 1 4750 0
 168 007c 6023     		movs	r3, #96
 169 007e D5E7     		b	.L5
 170              	.LVL16:
 171              	.L12:
ARM GAS  C:\Users\anashi\AppData\Local\Temp\ccFEbQrI.s 			page 4


 172              	.LBE160:
 173              	.LBE164:
 174              	.LBB165:
 175              	.LBB163:
 176 0080 6023     		movs	r3, #96
 177 0082 F3E7     		b	.L8
 178              	.L15:
 179              		.align	2
 180              	.L14:
 181 0084 FFBFFFFF 		.word	-16385
 182 0088 00000000 		.word	I2C_Master_ISR_DMA
 183 008c 00000000 		.word	I2C_Slave_ISR_DMA
 184              	.LBE163:
 185              	.LBE165:
 186              		.cfi_endproc
 187              	.LFE96:
 188              		.size	I2C_DMAMasterTransmitCplt, .-I2C_DMAMasterTransmitCplt
 189              		.section	.text.I2C_DMAMasterReceiveCplt,"ax",%progbits
 190              		.align	1
 191              		.p2align 2,,3
 192              		.syntax unified
 193              		.code	16
 194              		.thumb_func
 195              		.fpu softvfp
 196              		.type	I2C_DMAMasterReceiveCplt, %function
 197              	I2C_DMAMasterReceiveCplt:
 198              	.LFB98:
 199              		.loc 1 4365 0
 200              		.cfi_startproc
 201              		@ args = 0, pretend = 0, frame = 0
 202              		@ frame_needed = 0, uses_anonymous_args = 0
 203              	.LVL17:
 204 0000 10B5     		push	{r4, lr}
 205              		.cfi_def_cfa_offset 8
 206              		.cfi_offset 4, -8
 207              		.cfi_offset 14, -4
 208              		.loc 1 4366 0
 209 0002 446A     		ldr	r4, [r0, #36]
 210              	.LVL18:
 211              		.loc 1 4369 0
 212 0004 1E4A     		ldr	r2, .L28
 213 0006 2168     		ldr	r1, [r4]
 214 0008 0B68     		ldr	r3, [r1]
 215 000a 1340     		ands	r3, r2
 216 000c 0B60     		str	r3, [r1]
 217              		.loc 1 4372 0
 218 000e 638D     		ldrh	r3, [r4, #42]
 219 0010 002B     		cmp	r3, #0
 220 0012 0FD1     		bne	.L17
 221              	.LVL19:
 222              	.LBB166:
 223              	.LBB167:
 224              		.loc 1 4726 0
 225 0014 636B     		ldr	r3, [r4, #52]
 226 0016 1B4A     		ldr	r2, .L28+4
 227 0018 9342     		cmp	r3, r2
 228 001a 2CD0     		beq	.L22
ARM GAS  C:\Users\anashi\AppData\Local\Temp\ccFEbQrI.s 			page 5


 229 001c 1A4A     		ldr	r2, .L28+8
 230              		.loc 1 4750 0
 231 001e 9B1A     		subs	r3, r3, r2
 232 0020 5A1E     		subs	r2, r3, #1
 233 0022 9341     		sbcs	r3, r3, r2
 234 0024 9422     		movs	r2, #148
 235 0026 5B42     		rsbs	r3, r3, #0
 236 0028 1340     		ands	r3, r2
 237 002a 6033     		adds	r3, r3, #96
 238              	.LVL20:
 239              	.L27:
 240              	.LBE167:
 241              	.LBE166:
 242              	.LBB169:
 243              	.LBB170:
 244              		.loc 1 4783 0
 245 002c 0A68     		ldr	r2, [r1]
 246              	.LBE170:
 247              	.LBE169:
 248              		.loc 1 4399 0
 249              		@ sp needed
 250              	.LBB174:
 251              	.LBB171:
 252              		.loc 1 4783 0
 253 002e 1343     		orrs	r3, r2
 254 0030 0B60     		str	r3, [r1]
 255              	.LVL21:
 256              	.LBE171:
 257              	.LBE174:
 258              		.loc 1 4399 0
 259 0032 10BD     		pop	{r4, pc}
 260              	.LVL22:
 261              	.L17:
 262              		.loc 1 4381 0
 263 0034 636A     		ldr	r3, [r4, #36]
 264 0036 228D     		ldrh	r2, [r4, #40]
 265 0038 9C46     		mov	ip, r3
 266              		.loc 1 4384 0
 267 003a 638D     		ldrh	r3, [r4, #42]
 268              		.loc 1 4381 0
 269 003c 6244     		add	r2, r2, ip
 270 003e 6262     		str	r2, [r4, #36]
 271              		.loc 1 4384 0
 272 0040 FF2B     		cmp	r3, #255
 273 0042 15D8     		bhi	.L24
 274              		.loc 1 4390 0
 275 0044 608D     		ldrh	r0, [r4, #42]
 276              	.LVL23:
 277 0046 80B2     		uxth	r0, r0
 278 0048 0300     		movs	r3, r0
 279              	.L20:
 280 004a 2085     		strh	r0, [r4, #40]
 281              		.loc 1 4394 0
 282 004c 2431     		adds	r1, r1, #36
 283 004e E06B     		ldr	r0, [r4, #60]
 284 0050 FFF7FEFF 		bl	HAL_DMA_Start_IT
 285              	.LVL24:
ARM GAS  C:\Users\anashi\AppData\Local\Temp\ccFEbQrI.s 			page 6


 286              	.LBB175:
 287              	.LBB172:
 288              		.loc 1 4726 0
 289 0054 636B     		ldr	r3, [r4, #52]
 290 0056 0B4A     		ldr	r2, .L28+4
 291 0058 9342     		cmp	r3, r2
 292 005a 0ED0     		beq	.L25
 293 005c 0A4A     		ldr	r2, .L28+8
 294              		.loc 1 4783 0
 295 005e 2168     		ldr	r1, [r4]
 296              		.loc 1 4750 0
 297 0060 9B1A     		subs	r3, r3, r2
 298 0062 5A1E     		subs	r2, r3, #1
 299 0064 9341     		sbcs	r3, r3, r2
 300 0066 9422     		movs	r2, #148
 301 0068 5B42     		rsbs	r3, r3, #0
 302 006a 1340     		ands	r3, r2
 303 006c 6033     		adds	r3, r3, #96
 304              	.LVL25:
 305 006e DDE7     		b	.L27
 306              	.LVL26:
 307              	.L24:
 308              	.LBE172:
 309              	.LBE175:
 310 0070 FF23     		movs	r3, #255
 311              		.loc 1 4386 0
 312 0072 FF20     		movs	r0, #255
 313              	.LVL27:
 314 0074 E9E7     		b	.L20
 315              	.LVL28:
 316              	.L22:
 317              	.LBB176:
 318              	.LBB168:
 319              		.loc 1 4750 0
 320 0076 6023     		movs	r3, #96
 321              	.LVL29:
 322 0078 D8E7     		b	.L27
 323              	.LVL30:
 324              	.L25:
 325              	.LBE168:
 326              	.LBE176:
 327              	.LBB177:
 328              	.LBB173:
 329 007a 6023     		movs	r3, #96
 330              	.LVL31:
 331              		.loc 1 4783 0
 332 007c 2168     		ldr	r1, [r4]
 333 007e D5E7     		b	.L27
 334              	.L29:
 335              		.align	2
 336              	.L28:
 337 0080 FF7FFFFF 		.word	-32769
 338 0084 00000000 		.word	I2C_Master_ISR_DMA
 339 0088 00000000 		.word	I2C_Slave_ISR_DMA
 340              	.LBE173:
 341              	.LBE177:
 342              		.cfi_endproc
ARM GAS  C:\Users\anashi\AppData\Local\Temp\ccFEbQrI.s 			page 7


 343              	.LFE98:
 344              		.size	I2C_DMAMasterReceiveCplt, .-I2C_DMAMasterReceiveCplt
 345              		.section	.text.I2C_DMASlaveReceiveCplt,"ax",%progbits
 346              		.align	1
 347              		.p2align 2,,3
 348              		.syntax unified
 349              		.code	16
 350              		.thumb_func
 351              		.fpu softvfp
 352              		.type	I2C_DMASlaveReceiveCplt, %function
 353              	I2C_DMASlaveReceiveCplt:
 354              	.LFB139:
 355              		.cfi_startproc
 356              		@ args = 0, pretend = 0, frame = 0
 357              		@ frame_needed = 0, uses_anonymous_args = 0
 358              		@ link register save eliminated.
 359              		@ sp needed
 360 0000 7047     		bx	lr
 361              		.cfi_endproc
 362              	.LFE139:
 363              		.size	I2C_DMASlaveReceiveCplt, .-I2C_DMASlaveReceiveCplt
 364 0002 C046     		.section	.text.I2C_WaitOnTXISFlagUntilTimeout,"ax",%progbits
 365              		.align	1
 366              		.p2align 2,,3
 367              		.syntax unified
 368              		.code	16
 369              		.thumb_func
 370              		.fpu softvfp
 371              		.type	I2C_WaitOnTXISFlagUntilTimeout, %function
 372              	I2C_WaitOnTXISFlagUntilTimeout:
 373              	.LFB103:
 374              		.loc 1 4504 0
 375              		.cfi_startproc
 376              		@ args = 0, pretend = 0, frame = 0
 377              		@ frame_needed = 0, uses_anonymous_args = 0
 378              	.LVL32:
 379              	.LBB190:
 380              	.LBB191:
 381              		.loc 1 4628 0
 382 0000 1023     		movs	r3, #16
 383              	.LBE191:
 384              	.LBE190:
 385              		.loc 1 4504 0
 386 0002 F0B5     		push	{r4, r5, r6, r7, lr}
 387              		.cfi_def_cfa_offset 20
 388              		.cfi_offset 4, -20
 389              		.cfi_offset 5, -16
 390              		.cfi_offset 6, -12
 391              		.cfi_offset 7, -8
 392              		.cfi_offset 14, -4
 393 0004 C646     		mov	lr, r8
 394 0006 0400     		movs	r4, r0
 395 0008 0D00     		movs	r5, r1
 396 000a 1600     		movs	r6, r2
 397              		.loc 1 4505 0
 398 000c 0227     		movs	r7, #2
 399              	.LBB206:
ARM GAS  C:\Users\anashi\AppData\Local\Temp\ccFEbQrI.s 			page 8


 400              	.LBB200:
 401              		.loc 1 4628 0
 402 000e 9846     		mov	r8, r3
 403              	.LBE200:
 404              	.LBE206:
 405              		.loc 1 4504 0
 406 0010 00B5     		push	{lr}
 407              		.cfi_def_cfa_offset 24
 408              		.cfi_offset 8, -24
 409              	.LVL33:
 410              	.L32:
 411              		.loc 1 4505 0
 412 0012 2368     		ldr	r3, [r4]
 413 0014 6A1C     		adds	r2, r5, #1
 414 0016 2FD1     		bne	.L44
 415 0018 0221     		movs	r1, #2
 416              	.LBB207:
 417              	.LBB201:
 418              		.loc 1 4628 0
 419 001a 1020     		movs	r0, #16
 420              	.L45:
 421              	.LBE201:
 422              	.LBE207:
 423              		.loc 1 4505 0
 424 001c 9A69     		ldr	r2, [r3, #24]
 425 001e 1142     		tst	r1, r2
 426 0020 28D1     		bne	.L47
 427              	.LVL34:
 428              	.LBB208:
 429              	.LBB202:
 430              		.loc 1 4628 0
 431 0022 9A69     		ldr	r2, [r3, #24]
 432 0024 1042     		tst	r0, r2
 433 0026 F9D0     		beq	.L45
 434              	.LBB192:
 435              	.LBB193:
 436              		.loc 1 4632 0
 437 0028 2021     		movs	r1, #32
 438              	.L37:
 439 002a 9A69     		ldr	r2, [r3, #24]
 440 002c 1142     		tst	r1, r2
 441 002e FCD0     		beq	.L37
 442              	.LVL35:
 443              	.L38:
 444              		.loc 1 4650 0
 445 0030 1022     		movs	r2, #16
 446 0032 DA61     		str	r2, [r3, #28]
 447              		.loc 1 4653 0
 448 0034 1032     		adds	r2, r2, #16
 449 0036 DA61     		str	r2, [r3, #28]
 450              	.LVL36:
 451              	.LBB194:
 452              	.LBB195:
 453              		.loc 1 4290 0
 454 0038 9A69     		ldr	r2, [r3, #24]
 455 003a 9207     		lsls	r2, r2, #30
 456 003c 01D5     		bpl	.L40
ARM GAS  C:\Users\anashi\AppData\Local\Temp\ccFEbQrI.s 			page 9


 457              		.loc 1 4292 0
 458 003e 0022     		movs	r2, #0
 459 0040 9A62     		str	r2, [r3, #40]
 460              	.L40:
 461              		.loc 1 4296 0
 462 0042 0122     		movs	r2, #1
 463 0044 9969     		ldr	r1, [r3, #24]
 464 0046 0A42     		tst	r2, r1
 465 0048 02D1     		bne	.L41
 466              		.loc 1 4298 0
 467 004a 9969     		ldr	r1, [r3, #24]
 468 004c 0A43     		orrs	r2, r1
 469 004e 9A61     		str	r2, [r3, #24]
 470              	.L41:
 471              	.LVL37:
 472              	.LBE195:
 473              	.LBE194:
 474              		.loc 1 4659 0
 475 0050 5A68     		ldr	r2, [r3, #4]
 476 0052 1E49     		ldr	r1, .L60
 477 0054 0A40     		ands	r2, r1
 478 0056 5A60     		str	r2, [r3, #4]
 479              		.loc 1 4661 0
 480 0058 0423     		movs	r3, #4
 481 005a 6364     		str	r3, [r4, #68]
 482              	.L35:
 483              		.loc 1 4639 0
 484 005c 4123     		movs	r3, #65
 485 005e 2022     		movs	r2, #32
 486 0060 E254     		strb	r2, [r4, r3]
 487              		.loc 1 4640 0
 488 0062 0023     		movs	r3, #0
 489              	.LBE193:
 490              	.LBE192:
 491              	.LBE202:
 492              	.LBE208:
 493              		.loc 1 4510 0
 494 0064 0120     		movs	r0, #1
 495              	.LBB209:
 496              	.LBB203:
 497              	.LBB198:
 498              	.LBB196:
 499              		.loc 1 4640 0
 500 0066 2232     		adds	r2, r2, #34
 501 0068 A354     		strb	r3, [r4, r2]
 502              		.loc 1 4643 0
 503 006a 023A     		subs	r2, r2, #2
 504 006c A354     		strb	r3, [r4, r2]
 505              	.LVL38:
 506              	.L36:
 507              	.LBE196:
 508              	.LBE198:
 509              	.LBE203:
 510              	.LBE209:
 511              		.loc 1 4530 0
 512              		@ sp needed
 513              	.LVL39:
ARM GAS  C:\Users\anashi\AppData\Local\Temp\ccFEbQrI.s 			page 10


 514              	.LVL40:
 515              	.LVL41:
 516 006e 04BC     		pop	{r2}
 517 0070 9046     		mov	r8, r2
 518 0072 F0BD     		pop	{r4, r5, r6, r7, pc}
 519              	.LVL42:
 520              	.L47:
 521              		.loc 1 4529 0
 522 0074 0020     		movs	r0, #0
 523 0076 FAE7     		b	.L36
 524              	.L44:
 525              		.loc 1 4505 0
 526 0078 9A69     		ldr	r2, [r3, #24]
 527 007a 1742     		tst	r7, r2
 528 007c FAD1     		bne	.L47
 529              	.LVL43:
 530              	.LBB210:
 531              	.LBB204:
 532              		.loc 1 4628 0
 533 007e 4146     		mov	r1, r8
 534 0080 9A69     		ldr	r2, [r3, #24]
 535 0082 1142     		tst	r1, r2
 536 0084 13D1     		bne	.L59
 537              	.LBE204:
 538              	.LBE210:
 539              		.loc 1 4516 0
 540 0086 002D     		cmp	r5, #0
 541 0088 04D0     		beq	.L43
 542              		.loc 1 4516 0 is_stmt 0 discriminator 1
 543 008a FFF7FEFF 		bl	HAL_GetTick
 544              	.LVL44:
 545 008e 801B     		subs	r0, r0, r6
 546 0090 A842     		cmp	r0, r5
 547 0092 BED9     		bls	.L32
 548              	.L43:
 549              	.LVL45:
 550              	.LBB211:
 551              	.LBB212:
 552              		.loc 1 4518 0 is_stmt 1
 553 0094 2022     		movs	r2, #32
 554 0096 636C     		ldr	r3, [r4, #68]
 555              		.loc 1 4523 0
 556 0098 0320     		movs	r0, #3
 557              		.loc 1 4518 0
 558 009a 1343     		orrs	r3, r2
 559 009c 6364     		str	r3, [r4, #68]
 560              		.loc 1 4519 0
 561 009e 4123     		movs	r3, #65
 562 00a0 E254     		strb	r2, [r4, r3]
 563              		.loc 1 4520 0
 564 00a2 0023     		movs	r3, #0
 565 00a4 2232     		adds	r2, r2, #34
 566 00a6 A354     		strb	r3, [r4, r2]
 567              		.loc 1 4523 0
 568 00a8 023A     		subs	r2, r2, #2
 569 00aa A354     		strb	r3, [r4, r2]
 570              	.LVL46:
ARM GAS  C:\Users\anashi\AppData\Local\Temp\ccFEbQrI.s 			page 11


 571 00ac DFE7     		b	.L36
 572              	.L59:
 573              	.LBE212:
 574              	.LBE211:
 575              	.LBB213:
 576              	.LBB205:
 577              	.LBB199:
 578              	.LBB197:
 579              		.loc 1 4632 0
 580 00ae 2027     		movs	r7, #32
 581 00b0 07E0     		b	.L33
 582              	.L39:
 583              		.loc 1 4637 0
 584 00b2 002D     		cmp	r5, #0
 585 00b4 D2D0     		beq	.L35
 586 00b6 FFF7FEFF 		bl	HAL_GetTick
 587              	.LVL47:
 588 00ba 801B     		subs	r0, r0, r6
 589 00bc 8542     		cmp	r5, r0
 590 00be CDD3     		bcc	.L35
 591 00c0 2368     		ldr	r3, [r4]
 592              	.L33:
 593              		.loc 1 4632 0
 594 00c2 9A69     		ldr	r2, [r3, #24]
 595 00c4 1742     		tst	r7, r2
 596 00c6 F4D0     		beq	.L39
 597 00c8 B2E7     		b	.L38
 598              	.L61:
 599 00ca C046     		.align	2
 600              	.L60:
 601 00cc 00E800FE 		.word	-33495040
 602              	.LBE197:
 603              	.LBE199:
 604              	.LBE205:
 605              	.LBE213:
 606              		.cfi_endproc
 607              	.LFE103:
 608              		.size	I2C_WaitOnTXISFlagUntilTimeout, .-I2C_WaitOnTXISFlagUntilTimeout
 609              		.section	.text.I2C_WaitOnSTOPFlagUntilTimeout,"ax",%progbits
 610              		.align	1
 611              		.p2align 2,,3
 612              		.syntax unified
 613              		.code	16
 614              		.thumb_func
 615              		.fpu softvfp
 616              		.type	I2C_WaitOnSTOPFlagUntilTimeout, %function
 617              	I2C_WaitOnSTOPFlagUntilTimeout:
 618              	.LFB104:
 619              		.loc 1 4541 0
 620              		.cfi_startproc
 621              		@ args = 0, pretend = 0, frame = 0
 622              		@ frame_needed = 0, uses_anonymous_args = 0
 623              	.LVL48:
 624 0000 F0B5     		push	{r4, r5, r6, r7, lr}
 625              		.cfi_def_cfa_offset 20
 626              		.cfi_offset 4, -20
 627              		.cfi_offset 5, -16
ARM GAS  C:\Users\anashi\AppData\Local\Temp\ccFEbQrI.s 			page 12


 628              		.cfi_offset 6, -12
 629              		.cfi_offset 7, -8
 630              		.cfi_offset 14, -4
 631 0002 C646     		mov	lr, r8
 632 0004 0400     		movs	r4, r0
 633 0006 00B5     		push	{lr}
 634              		.cfi_def_cfa_offset 24
 635              		.cfi_offset 8, -24
 636              		.loc 1 4541 0
 637 0008 0D00     		movs	r5, r1
 638 000a 1600     		movs	r6, r2
 639 000c 0029     		cmp	r1, #0
 640 000e 45D0     		beq	.L63
 641              	.LBB224:
 642              	.LBB225:
 643              		.loc 1 4628 0
 644 0010 1023     		movs	r3, #16
 645              	.LBE225:
 646              	.LBE224:
 647              		.loc 1 4542 0
 648 0012 2027     		movs	r7, #32
 649              	.LBB239:
 650              	.LBB234:
 651              		.loc 1 4628 0
 652 0014 9846     		mov	r8, r3
 653 0016 04E0     		b	.L67
 654              	.LVL49:
 655              	.L89:
 656              	.LBE234:
 657              	.LBE239:
 658              		.loc 1 4551 0
 659 0018 FFF7FEFF 		bl	HAL_GetTick
 660              	.LVL50:
 661 001c 801B     		subs	r0, r0, r6
 662 001e 8542     		cmp	r5, r0
 663 0020 43D3     		bcc	.L66
 664              	.LVL51:
 665              	.L67:
 666              		.loc 1 4542 0
 667 0022 2368     		ldr	r3, [r4]
 668 0024 9A69     		ldr	r2, [r3, #24]
 669 0026 1742     		tst	r7, r2
 670 0028 4CD1     		bne	.L64
 671              	.LVL52:
 672              	.LBB240:
 673              	.LBB235:
 674              		.loc 1 4628 0
 675 002a 4146     		mov	r1, r8
 676 002c 9A69     		ldr	r2, [r3, #24]
 677 002e 1142     		tst	r1, r2
 678 0030 F2D0     		beq	.L89
 679              	.LVL53:
 680              	.L65:
 681              	.LBB226:
 682              	.LBB227:
 683              		.loc 1 4632 0
 684 0032 2027     		movs	r7, #32
ARM GAS  C:\Users\anashi\AppData\Local\Temp\ccFEbQrI.s 			page 13


 685              	.L68:
 686 0034 6A1C     		adds	r2, r5, #1
 687 0036 25D1     		bne	.L71
 688 0038 2021     		movs	r1, #32
 689              	.L72:
 690 003a 9A69     		ldr	r2, [r3, #24]
 691 003c 1142     		tst	r1, r2
 692 003e FCD0     		beq	.L72
 693              	.L73:
 694              		.loc 1 4650 0
 695 0040 1022     		movs	r2, #16
 696 0042 DA61     		str	r2, [r3, #28]
 697              		.loc 1 4653 0
 698 0044 1032     		adds	r2, r2, #16
 699 0046 DA61     		str	r2, [r3, #28]
 700              	.LVL54:
 701              	.LBB228:
 702              	.LBB229:
 703              		.loc 1 4290 0
 704 0048 9A69     		ldr	r2, [r3, #24]
 705 004a 9207     		lsls	r2, r2, #30
 706 004c 01D5     		bpl	.L75
 707              		.loc 1 4292 0
 708 004e 0022     		movs	r2, #0
 709 0050 9A62     		str	r2, [r3, #40]
 710              	.L75:
 711              		.loc 1 4296 0
 712 0052 0122     		movs	r2, #1
 713 0054 9969     		ldr	r1, [r3, #24]
 714 0056 0A42     		tst	r2, r1
 715 0058 02D1     		bne	.L76
 716              		.loc 1 4298 0
 717 005a 9969     		ldr	r1, [r3, #24]
 718 005c 0A43     		orrs	r2, r1
 719 005e 9A61     		str	r2, [r3, #24]
 720              	.L76:
 721              	.LVL55:
 722              	.LBE229:
 723              	.LBE228:
 724              		.loc 1 4659 0
 725 0060 5A68     		ldr	r2, [r3, #4]
 726 0062 1949     		ldr	r1, .L90
 727 0064 0A40     		ands	r2, r1
 728 0066 5A60     		str	r2, [r3, #4]
 729              		.loc 1 4661 0
 730 0068 0423     		movs	r3, #4
 731 006a 6364     		str	r3, [r4, #68]
 732              	.L69:
 733              		.loc 1 4639 0
 734 006c 4123     		movs	r3, #65
 735 006e 2022     		movs	r2, #32
 736 0070 E254     		strb	r2, [r4, r3]
 737              		.loc 1 4640 0
 738 0072 0023     		movs	r3, #0
 739              	.LBE227:
 740              	.LBE226:
 741              	.LBE235:
ARM GAS  C:\Users\anashi\AppData\Local\Temp\ccFEbQrI.s 			page 14


 742              	.LBE240:
 743              		.loc 1 4547 0
 744 0074 0120     		movs	r0, #1
 745              	.LBB241:
 746              	.LBB236:
 747              	.LBB232:
 748              	.LBB230:
 749              		.loc 1 4640 0
 750 0076 2232     		adds	r2, r2, #34
 751 0078 A354     		strb	r3, [r4, r2]
 752              		.loc 1 4643 0
 753 007a 023A     		subs	r2, r2, #2
 754 007c A354     		strb	r3, [r4, r2]
 755              	.LVL56:
 756              	.L70:
 757              	.LBE230:
 758              	.LBE232:
 759              	.LBE236:
 760              	.LBE241:
 761              		.loc 1 4564 0
 762              		@ sp needed
 763              	.LVL57:
 764              	.LVL58:
 765              	.LVL59:
 766 007e 04BC     		pop	{r2}
 767 0080 9046     		mov	r8, r2
 768 0082 F0BD     		pop	{r4, r5, r6, r7, pc}
 769              	.LVL60:
 770              	.L71:
 771              	.LBB242:
 772              	.LBB237:
 773              	.LBB233:
 774              	.LBB231:
 775              		.loc 1 4632 0
 776 0084 9A69     		ldr	r2, [r3, #24]
 777 0086 1742     		tst	r7, r2
 778 0088 DAD1     		bne	.L73
 779              		.loc 1 4637 0
 780 008a 002D     		cmp	r5, #0
 781 008c EED0     		beq	.L69
 782 008e FFF7FEFF 		bl	HAL_GetTick
 783              	.LVL61:
 784 0092 801B     		subs	r0, r0, r6
 785 0094 8542     		cmp	r5, r0
 786 0096 E9D3     		bcc	.L69
 787 0098 2368     		ldr	r3, [r4]
 788 009a CBE7     		b	.L68
 789              	.LVL62:
 790              	.L63:
 791              	.LBE231:
 792              	.LBE233:
 793              	.LBE237:
 794              	.LBE242:
 795              		.loc 1 4542 0
 796 009c 0368     		ldr	r3, [r0]
 797 009e 9A69     		ldr	r2, [r3, #24]
 798              	.LVL63:
ARM GAS  C:\Users\anashi\AppData\Local\Temp\ccFEbQrI.s 			page 15


 799 00a0 9206     		lsls	r2, r2, #26
 800 00a2 0FD4     		bmi	.L64
 801              	.LVL64:
 802              	.LBB243:
 803              	.LBB238:
 804              		.loc 1 4628 0
 805 00a4 9A69     		ldr	r2, [r3, #24]
 806 00a6 D206     		lsls	r2, r2, #27
 807 00a8 C3D4     		bmi	.L65
 808              	.LVL65:
 809              	.L66:
 810              	.LBE238:
 811              	.LBE243:
 812              	.LBB244:
 813              	.LBB245:
 814              		.loc 1 4518 0
 815 00aa 2022     		movs	r2, #32
 816 00ac 636C     		ldr	r3, [r4, #68]
 817              		.loc 1 4523 0
 818 00ae 0320     		movs	r0, #3
 819              		.loc 1 4518 0
 820 00b0 1343     		orrs	r3, r2
 821 00b2 6364     		str	r3, [r4, #68]
 822              		.loc 1 4519 0
 823 00b4 4123     		movs	r3, #65
 824 00b6 E254     		strb	r2, [r4, r3]
 825              		.loc 1 4520 0
 826 00b8 0023     		movs	r3, #0
 827 00ba 2232     		adds	r2, r2, #34
 828 00bc A354     		strb	r3, [r4, r2]
 829              		.loc 1 4523 0
 830 00be 023A     		subs	r2, r2, #2
 831 00c0 A354     		strb	r3, [r4, r2]
 832              	.LVL66:
 833 00c2 DCE7     		b	.L70
 834              	.LVL67:
 835              	.L64:
 836              	.LBE245:
 837              	.LBE244:
 838              		.loc 1 4563 0
 839 00c4 0020     		movs	r0, #0
 840 00c6 DAE7     		b	.L70
 841              	.L91:
 842              		.align	2
 843              	.L90:
 844 00c8 00E800FE 		.word	-33495040
 845              		.cfi_endproc
 846              	.LFE104:
 847              		.size	I2C_WaitOnSTOPFlagUntilTimeout, .-I2C_WaitOnSTOPFlagUntilTimeout
 848              		.section	.text.HAL_I2C_MspInit,"ax",%progbits
 849              		.align	1
 850              		.p2align 2,,3
 851              		.weak	HAL_I2C_MspInit
 852              		.syntax unified
 853              		.code	16
 854              		.thumb_func
 855              		.fpu softvfp
ARM GAS  C:\Users\anashi\AppData\Local\Temp\ccFEbQrI.s 			page 16


 856              		.type	HAL_I2C_MspInit, %function
 857              	HAL_I2C_MspInit:
 858              	.LFB39:
 859              		.loc 1 528 0
 860              		.cfi_startproc
 861              		@ args = 0, pretend = 0, frame = 0
 862              		@ frame_needed = 0, uses_anonymous_args = 0
 863              		@ link register save eliminated.
 864              	.LVL68:
 865              		.loc 1 535 0
 866              		@ sp needed
 867 0000 7047     		bx	lr
 868              		.cfi_endproc
 869              	.LFE39:
 870              		.size	HAL_I2C_MspInit, .-HAL_I2C_MspInit
 871 0002 C046     		.section	.text.HAL_I2C_Init,"ax",%progbits
 872              		.align	1
 873              		.p2align 2,,3
 874              		.global	HAL_I2C_Init
 875              		.syntax unified
 876              		.code	16
 877              		.thumb_func
 878              		.fpu softvfp
 879              		.type	HAL_I2C_Init, %function
 880              	HAL_I2C_Init:
 881              	.LFB37:
 882              		.loc 1 405 0
 883              		.cfi_startproc
 884              		@ args = 0, pretend = 0, frame = 0
 885              		@ frame_needed = 0, uses_anonymous_args = 0
 886              	.LVL69:
 887 0000 10B5     		push	{r4, lr}
 888              		.cfi_def_cfa_offset 8
 889              		.cfi_offset 4, -8
 890              		.cfi_offset 14, -4
 891              		.loc 1 405 0
 892 0002 041E     		subs	r4, r0, #0
 893              		.loc 1 407 0
 894 0004 4CD0     		beq	.L98
 895              		.loc 1 422 0
 896 0006 4123     		movs	r3, #65
 897 0008 C35C     		ldrb	r3, [r0, r3]
 898 000a DBB2     		uxtb	r3, r3
 899 000c 002B     		cmp	r3, #0
 900 000e 42D0     		beq	.L99
 901              	.LVL70:
 902              	.L95:
 903              		.loc 1 431 0
 904 0010 4123     		movs	r3, #65
 905 0012 2422     		movs	r2, #36
 906              		.loc 1 434 0
 907 0014 0121     		movs	r1, #1
 908              		.loc 1 431 0
 909 0016 E254     		strb	r2, [r4, r3]
 910              		.loc 1 434 0
 911 0018 2368     		ldr	r3, [r4]
 912 001a A068     		ldr	r0, [r4, #8]
ARM GAS  C:\Users\anashi\AppData\Local\Temp\ccFEbQrI.s 			page 17


 913 001c 1A68     		ldr	r2, [r3]
 914 001e 8A43     		bics	r2, r1
 915 0020 1A60     		str	r2, [r3]
 916              		.loc 1 438 0
 917 0022 6168     		ldr	r1, [r4, #4]
 918 0024 1F4A     		ldr	r2, .L101
 919 0026 0A40     		ands	r2, r1
 920 0028 1A61     		str	r2, [r3, #16]
 921              		.loc 1 442 0
 922 002a 9A68     		ldr	r2, [r3, #8]
 923 002c 1E49     		ldr	r1, .L101+4
 924 002e 0A40     		ands	r2, r1
 925 0030 9A60     		str	r2, [r3, #8]
 926              		.loc 1 445 0
 927 0032 E268     		ldr	r2, [r4, #12]
 928 0034 012A     		cmp	r2, #1
 929 0036 29D0     		beq	.L100
 930              		.loc 1 451 0
 931 0038 8421     		movs	r1, #132
 932 003a 0902     		lsls	r1, r1, #8
 933 003c 0143     		orrs	r1, r0
 934 003e 9960     		str	r1, [r3, #8]
 935              		.loc 1 456 0
 936 0040 022A     		cmp	r2, #2
 937 0042 02D1     		bne	.L97
 938              		.loc 1 458 0
 939 0044 8022     		movs	r2, #128
 940 0046 1201     		lsls	r2, r2, #4
 941 0048 5A60     		str	r2, [r3, #4]
 942              	.L97:
 943              		.loc 1 461 0
 944 004a 5968     		ldr	r1, [r3, #4]
 945 004c 174A     		ldr	r2, .L101+8
 946              		.loc 1 482 0
 947 004e 0020     		movs	r0, #0
 948              		.loc 1 461 0
 949 0050 0A43     		orrs	r2, r1
 950 0052 5A60     		str	r2, [r3, #4]
 951              		.loc 1 465 0
 952 0054 DA68     		ldr	r2, [r3, #12]
 953 0056 1449     		ldr	r1, .L101+4
 954 0058 0A40     		ands	r2, r1
 955 005a DA60     		str	r2, [r3, #12]
 956              		.loc 1 468 0
 957 005c 6169     		ldr	r1, [r4, #20]
 958 005e 2269     		ldr	r2, [r4, #16]
 959 0060 0A43     		orrs	r2, r1
 960 0062 A169     		ldr	r1, [r4, #24]
 961 0064 0902     		lsls	r1, r1, #8
 962 0066 0A43     		orrs	r2, r1
 963 0068 DA60     		str	r2, [r3, #12]
 964              		.loc 1 472 0
 965 006a 216A     		ldr	r1, [r4, #32]
 966 006c E269     		ldr	r2, [r4, #28]
 967 006e 0A43     		orrs	r2, r1
 968              		.loc 1 475 0
 969 0070 0121     		movs	r1, #1
ARM GAS  C:\Users\anashi\AppData\Local\Temp\ccFEbQrI.s 			page 18


 970              		.loc 1 472 0
 971 0072 1A60     		str	r2, [r3]
 972              		.loc 1 475 0
 973 0074 1A68     		ldr	r2, [r3]
 974 0076 0A43     		orrs	r2, r1
 975 0078 1A60     		str	r2, [r3]
 976              		.loc 1 477 0
 977 007a 0023     		movs	r3, #0
 978              		.loc 1 478 0
 979 007c 4122     		movs	r2, #65
 980 007e 1F31     		adds	r1, r1, #31
 981              		.loc 1 477 0
 982 0080 6364     		str	r3, [r4, #68]
 983              		.loc 1 478 0
 984 0082 A154     		strb	r1, [r4, r2]
 985              		.loc 1 480 0
 986 0084 0132     		adds	r2, r2, #1
 987              		.loc 1 479 0
 988 0086 2363     		str	r3, [r4, #48]
 989              		.loc 1 480 0
 990 0088 A354     		strb	r3, [r4, r2]
 991              	.L94:
 992              		.loc 1 483 0
 993              		@ sp needed
 994              	.LVL71:
 995 008a 10BD     		pop	{r4, pc}
 996              	.LVL72:
 997              	.L100:
 998              		.loc 1 447 0
 999 008c 8021     		movs	r1, #128
 1000 008e 0902     		lsls	r1, r1, #8
 1001 0090 0143     		orrs	r1, r0
 1002 0092 9960     		str	r1, [r3, #8]
 1003 0094 D9E7     		b	.L97
 1004              	.LVL73:
 1005              	.L99:
 1006              		.loc 1 425 0
 1007 0096 4022     		movs	r2, #64
 1008 0098 8354     		strb	r3, [r0, r2]
 1009              		.loc 1 428 0
 1010 009a FFF7FEFF 		bl	HAL_I2C_MspInit
 1011              	.LVL74:
 1012 009e B7E7     		b	.L95
 1013              	.LVL75:
 1014              	.L98:
 1015              		.loc 1 409 0
 1016 00a0 0120     		movs	r0, #1
 1017              	.LVL76:
 1018 00a2 F2E7     		b	.L94
 1019              	.L102:
 1020              		.align	2
 1021              	.L101:
 1022 00a4 FFFFFFF0 		.word	-251658241
 1023 00a8 FF7FFFFF 		.word	-32769
 1024 00ac 00800002 		.word	33587200
 1025              		.cfi_endproc
 1026              	.LFE37:
ARM GAS  C:\Users\anashi\AppData\Local\Temp\ccFEbQrI.s 			page 19


 1027              		.size	HAL_I2C_Init, .-HAL_I2C_Init
 1028              		.section	.text.HAL_I2C_MspDeInit,"ax",%progbits
 1029              		.align	1
 1030              		.p2align 2,,3
 1031              		.weak	HAL_I2C_MspDeInit
 1032              		.syntax unified
 1033              		.code	16
 1034              		.thumb_func
 1035              		.fpu softvfp
 1036              		.type	HAL_I2C_MspDeInit, %function
 1037              	HAL_I2C_MspDeInit:
 1038              	.LFB119:
 1039              		.cfi_startproc
 1040              		@ args = 0, pretend = 0, frame = 0
 1041              		@ frame_needed = 0, uses_anonymous_args = 0
 1042              		@ link register save eliminated.
 1043              		@ sp needed
 1044 0000 7047     		bx	lr
 1045              		.cfi_endproc
 1046              	.LFE119:
 1047              		.size	HAL_I2C_MspDeInit, .-HAL_I2C_MspDeInit
 1048 0002 C046     		.section	.text.HAL_I2C_DeInit,"ax",%progbits
 1049              		.align	1
 1050              		.p2align 2,,3
 1051              		.global	HAL_I2C_DeInit
 1052              		.syntax unified
 1053              		.code	16
 1054              		.thumb_func
 1055              		.fpu softvfp
 1056              		.type	HAL_I2C_DeInit, %function
 1057              	HAL_I2C_DeInit:
 1058              	.LFB38:
 1059              		.loc 1 492 0
 1060              		.cfi_startproc
 1061              		@ args = 0, pretend = 0, frame = 0
 1062              		@ frame_needed = 0, uses_anonymous_args = 0
 1063              	.LVL77:
 1064              		.loc 1 492 0
 1065 0000 70B5     		push	{r4, r5, r6, lr}
 1066              		.cfi_def_cfa_offset 16
 1067              		.cfi_offset 4, -16
 1068              		.cfi_offset 5, -12
 1069              		.cfi_offset 6, -8
 1070              		.cfi_offset 14, -4
 1071              		.loc 1 492 0
 1072 0002 0400     		movs	r4, r0
 1073              		.loc 1 496 0
 1074 0004 0120     		movs	r0, #1
 1075              	.LVL78:
 1076              		.loc 1 494 0
 1077 0006 002C     		cmp	r4, #0
 1078 0008 12D0     		beq	.L105
 1079              		.loc 1 502 0
 1080 000a 4125     		movs	r5, #65
 1081 000c 2423     		movs	r3, #36
 1082              		.loc 1 505 0
 1083 000e 2268     		ldr	r2, [r4]
ARM GAS  C:\Users\anashi\AppData\Local\Temp\ccFEbQrI.s 			page 20


 1084              		.loc 1 502 0
 1085 0010 6355     		strb	r3, [r4, r5]
 1086              		.loc 1 505 0
 1087 0012 1368     		ldr	r3, [r2]
 1088 0014 8343     		bics	r3, r0
 1089 0016 1360     		str	r3, [r2]
 1090              		.loc 1 508 0
 1091 0018 2000     		movs	r0, r4
 1092 001a FFF7FEFF 		bl	HAL_I2C_MspDeInit
 1093              	.LVL79:
 1094              		.loc 1 510 0
 1095 001e 0023     		movs	r3, #0
 1096              		.loc 1 513 0
 1097 0020 4222     		movs	r2, #66
 1098              		.loc 1 518 0
 1099 0022 0020     		movs	r0, #0
 1100              		.loc 1 510 0
 1101 0024 6364     		str	r3, [r4, #68]
 1102              		.loc 1 511 0
 1103 0026 6355     		strb	r3, [r4, r5]
 1104              		.loc 1 512 0
 1105 0028 2363     		str	r3, [r4, #48]
 1106              		.loc 1 513 0
 1107 002a A354     		strb	r3, [r4, r2]
 1108              		.loc 1 516 0
 1109 002c 023A     		subs	r2, r2, #2
 1110 002e A354     		strb	r3, [r4, r2]
 1111              	.L105:
 1112              		.loc 1 519 0
 1113              		@ sp needed
 1114              	.LVL80:
 1115 0030 70BD     		pop	{r4, r5, r6, pc}
 1116              		.cfi_endproc
 1117              	.LFE38:
 1118              		.size	HAL_I2C_DeInit, .-HAL_I2C_DeInit
 1119 0032 C046     		.section	.text.HAL_I2C_Master_Transmit,"ax",%progbits
 1120              		.align	1
 1121              		.p2align 2,,3
 1122              		.global	HAL_I2C_Master_Transmit
 1123              		.syntax unified
 1124              		.code	16
 1125              		.thumb_func
 1126              		.fpu softvfp
 1127              		.type	HAL_I2C_Master_Transmit, %function
 1128              	HAL_I2C_Master_Transmit:
 1129              	.LFB41:
 1130              		.loc 1 628 0
 1131              		.cfi_startproc
 1132              		@ args = 4, pretend = 0, frame = 0
 1133              		@ frame_needed = 0, uses_anonymous_args = 0
 1134              	.LVL81:
 1135 0000 F8B5     		push	{r3, r4, r5, r6, r7, lr}
 1136              		.cfi_def_cfa_offset 24
 1137              		.cfi_offset 3, -24
 1138              		.cfi_offset 4, -20
 1139              		.cfi_offset 5, -16
 1140              		.cfi_offset 6, -12
ARM GAS  C:\Users\anashi\AppData\Local\Temp\ccFEbQrI.s 			page 21


 1141              		.cfi_offset 7, -8
 1142              		.cfi_offset 14, -4
 1143 0002 4746     		mov	r7, r8
 1144 0004 CE46     		mov	lr, r9
 1145 0006 9846     		mov	r8, r3
 1146              		.loc 1 631 0
 1147 0008 4123     		movs	r3, #65
 1148              	.LVL82:
 1149              		.loc 1 628 0
 1150 000a 80B5     		push	{r7, lr}
 1151              		.cfi_def_cfa_offset 32
 1152              		.cfi_offset 8, -32
 1153              		.cfi_offset 9, -28
 1154              		.loc 1 631 0
 1155 000c C35C     		ldrb	r3, [r0, r3]
 1156              		.loc 1 628 0
 1157 000e 0400     		movs	r4, r0
 1158              	.LVL83:
 1159 0010 0F00     		movs	r7, r1
 1160 0012 9146     		mov	r9, r2
 1161              		.loc 1 736 0
 1162 0014 0220     		movs	r0, #2
 1163              	.LVL84:
 1164              		.loc 1 631 0
 1165 0016 202B     		cmp	r3, #32
 1166 0018 76D1     		bne	.L109
 1167              		.loc 1 634 0
 1168 001a 2033     		adds	r3, r3, #32
 1169 001c E25C     		ldrb	r2, [r4, r3]
 1170              	.LVL85:
 1171 001e 012A     		cmp	r2, #1
 1172 0020 72D0     		beq	.L109
 1173              		.loc 1 634 0 is_stmt 0 discriminator 2
 1174 0022 0122     		movs	r2, #1
 1175 0024 E254     		strb	r2, [r4, r3]
 1176              		.loc 1 637 0 is_stmt 1 discriminator 2
 1177 0026 FFF7FEFF 		bl	HAL_GetTick
 1178              	.LVL86:
 1179              	.LBB258:
 1180              	.LBB259:
 1181              		.loc 1 4476 0 discriminator 2
 1182 002a 8026     		movs	r6, #128
 1183              	.LBE259:
 1184              	.LBE258:
 1185              		.loc 1 637 0 discriminator 2
 1186 002c 0500     		movs	r5, r0
 1187              	.LVL87:
 1188              	.LBB261:
 1189              	.LBB260:
 1190              		.loc 1 4476 0 discriminator 2
 1191 002e 3602     		lsls	r6, r6, #8
 1192 0030 05E0     		b	.L110
 1193              	.LVL88:
 1194              	.L111:
 1195              		.loc 1 4481 0
 1196 0032 FFF7FEFF 		bl	HAL_GetTick
 1197              	.LVL89:
ARM GAS  C:\Users\anashi\AppData\Local\Temp\ccFEbQrI.s 			page 22


 1198 0036 401B     		subs	r0, r0, r5
 1199 0038 1928     		cmp	r0, #25
 1200 003a 00D9     		bls	.LCB1154
 1201 003c 76E0     		b	.L119	@long jump
 1202              	.LCB1154:
 1203              	.L110:
 1204              		.loc 1 4476 0
 1205 003e 2268     		ldr	r2, [r4]
 1206 0040 9369     		ldr	r3, [r2, #24]
 1207 0042 3340     		ands	r3, r6
 1208 0044 F5D1     		bne	.L111
 1209              	.LVL90:
 1210              	.LBE260:
 1211              	.LBE261:
 1212              		.loc 1 644 0
 1213 0046 4121     		movs	r1, #65
 1214 0048 2120     		movs	r0, #33
 1215 004a 6054     		strb	r0, [r4, r1]
 1216              		.loc 1 645 0
 1217 004c 0131     		adds	r1, r1, #1
 1218 004e 1138     		subs	r0, r0, #17
 1219 0050 6054     		strb	r0, [r4, r1]
 1220              		.loc 1 649 0
 1221 0052 4946     		mov	r1, r9
 1222 0054 6162     		str	r1, [r4, #36]
 1223              		.loc 1 650 0
 1224 0056 4146     		mov	r1, r8
 1225              		.loc 1 646 0
 1226 0058 6364     		str	r3, [r4, #68]
 1227              		.loc 1 650 0
 1228 005a 6185     		strh	r1, [r4, #42]
 1229              		.loc 1 651 0
 1230 005c 6363     		str	r3, [r4, #52]
 1231              		.loc 1 655 0
 1232 005e 638D     		ldrh	r3, [r4, #42]
 1233 0060 BF05     		lsls	r7, r7, #22
 1234 0062 BF0D     		lsrs	r7, r7, #22
 1235 0064 FF2B     		cmp	r3, #255
 1236 0066 00D8     		bhi	.LCB1190
 1237 0068 7CE0     		b	.L112	@long jump
 1238              	.LCB1190:
 1239              		.loc 1 657 0
 1240 006a FF23     		movs	r3, #255
 1241              	.LBB262:
 1242              	.LBB263:
 1243              		.loc 1 4705 0
 1244 006c 4449     		ldr	r1, .L143
 1245              	.LBE263:
 1246              	.LBE262:
 1247              		.loc 1 657 0
 1248 006e 2385     		strh	r3, [r4, #40]
 1249              	.LVL91:
 1250              	.LBB265:
 1251              	.LBB264:
 1252              		.loc 1 4702 0
 1253 0070 5368     		ldr	r3, [r2, #4]
 1254              	.LVL92:
ARM GAS  C:\Users\anashi\AppData\Local\Temp\ccFEbQrI.s 			page 23


 1255              		.loc 1 4705 0
 1256 0072 1940     		ands	r1, r3
 1257              	.LVL93:
 1258              		.loc 1 4708 0
 1259 0074 434B     		ldr	r3, .L143+4
 1260 0076 3B43     		orrs	r3, r7
 1261 0078 0B43     		orrs	r3, r1
 1262              	.LVL94:
 1263              		.loc 1 4712 0
 1264 007a 5360     		str	r3, [r2, #4]
 1265              	.LVL95:
 1266              	.L113:
 1267              	.LBE264:
 1268              	.LBE265:
 1269              	.LBB266:
 1270              	.LBB267:
 1271              		.loc 1 4708 0
 1272 007c 8023     		movs	r3, #128
 1273 007e 9B04     		lsls	r3, r3, #18
 1274 0080 3B43     		orrs	r3, r7
 1275              	.LBE267:
 1276              	.LBE266:
 1277              	.LBB272:
 1278              	.LBB273:
 1279              		.loc 1 4476 0
 1280 0082 8026     		movs	r6, #128
 1281              	.LBE273:
 1282              	.LBE272:
 1283              	.LBB276:
 1284              	.LBB268:
 1285              		.loc 1 4708 0
 1286 0084 9846     		mov	r8, r3
 1287              	.L114:
 1288              	.LBE268:
 1289              	.LBE276:
 1290              		.loc 1 666 0
 1291 0086 638D     		ldrh	r3, [r4, #42]
 1292              		.loc 1 669 0
 1293 0088 2A00     		movs	r2, r5
 1294 008a 0899     		ldr	r1, [sp, #32]
 1295 008c 2000     		movs	r0, r4
 1296              		.loc 1 666 0
 1297 008e 002B     		cmp	r3, #0
 1298 0090 29D0     		beq	.L142
 1299              	.LVL96:
 1300              		.loc 1 669 0
 1301 0092 FFF7FEFF 		bl	I2C_WaitOnTXISFlagUntilTimeout
 1302              	.LVL97:
 1303 0096 0028     		cmp	r0, #0
 1304 0098 52D1     		bne	.L140
 1305              		.loc 1 681 0
 1306 009a 636A     		ldr	r3, [r4, #36]
 1307 009c 5A1C     		adds	r2, r3, #1
 1308 009e 6262     		str	r2, [r4, #36]
 1309 00a0 1B78     		ldrb	r3, [r3]
 1310 00a2 2268     		ldr	r2, [r4]
 1311 00a4 9362     		str	r3, [r2, #40]
ARM GAS  C:\Users\anashi\AppData\Local\Temp\ccFEbQrI.s 			page 24


 1312              		.loc 1 682 0
 1313 00a6 638D     		ldrh	r3, [r4, #42]
 1314 00a8 013B     		subs	r3, r3, #1
 1315 00aa 9BB2     		uxth	r3, r3
 1316 00ac 6385     		strh	r3, [r4, #42]
 1317              		.loc 1 683 0
 1318 00ae 238D     		ldrh	r3, [r4, #40]
 1319 00b0 013B     		subs	r3, r3, #1
 1320 00b2 9BB2     		uxth	r3, r3
 1321 00b4 2385     		strh	r3, [r4, #40]
 1322              		.loc 1 685 0
 1323 00b6 002B     		cmp	r3, #0
 1324 00b8 E5D1     		bne	.L114
 1325              		.loc 1 685 0 is_stmt 0 discriminator 1
 1326 00ba 638D     		ldrh	r3, [r4, #42]
 1327 00bc 002B     		cmp	r3, #0
 1328 00be E2D0     		beq	.L114
 1329 00c0 089B     		ldr	r3, [sp, #32]
 1330              	.L118:
 1331 00c2 0133     		adds	r3, r3, #1
 1332 00c4 24D1     		bne	.L120
 1333              	.L121:
 1334              	.LBB277:
 1335              	.LBB274:
 1336              		.loc 1 4476 0 is_stmt 1
 1337 00c6 9369     		ldr	r3, [r2, #24]
 1338 00c8 1E42     		tst	r6, r3
 1339 00ca FCD0     		beq	.L121
 1340              	.L122:
 1341              	.LBE274:
 1342              	.LBE277:
 1343              		.loc 1 693 0
 1344 00cc 638D     		ldrh	r3, [r4, #42]
 1345 00ce FF2B     		cmp	r3, #255
 1346 00d0 3BD9     		bls	.L124
 1347              		.loc 1 695 0
 1348 00d2 FF23     		movs	r3, #255
 1349              	.LBB278:
 1350              	.LBB279:
 1351              		.loc 1 4705 0
 1352 00d4 2A49     		ldr	r1, .L143
 1353              	.LBE279:
 1354              	.LBE278:
 1355              		.loc 1 695 0
 1356 00d6 2385     		strh	r3, [r4, #40]
 1357              	.LVL98:
 1358              	.LBB281:
 1359              	.LBB280:
 1360              		.loc 1 4702 0
 1361 00d8 5368     		ldr	r3, [r2, #4]
 1362              	.LVL99:
 1363              		.loc 1 4705 0
 1364 00da 1940     		ands	r1, r3
 1365              	.LVL100:
 1366              		.loc 1 4708 0
 1367 00dc 2A4B     		ldr	r3, .L143+8
 1368 00de 3B43     		orrs	r3, r7
ARM GAS  C:\Users\anashi\AppData\Local\Temp\ccFEbQrI.s 			page 25


 1369 00e0 0B43     		orrs	r3, r1
 1370              	.LVL101:
 1371              		.loc 1 4712 0
 1372 00e2 5360     		str	r3, [r2, #4]
 1373 00e4 CFE7     		b	.L114
 1374              	.LVL102:
 1375              	.L142:
 1376              	.LBE280:
 1377              	.LBE281:
 1378              		.loc 1 708 0
 1379 00e6 FFF7FEFF 		bl	I2C_WaitOnSTOPFlagUntilTimeout
 1380              	.LVL103:
 1381 00ea 0028     		cmp	r0, #0
 1382 00ec 28D1     		bne	.L140
 1383              		.loc 1 721 0
 1384 00ee 2021     		movs	r1, #32
 1385 00f0 2368     		ldr	r3, [r4]
 1386              		.loc 1 724 0
 1387 00f2 264D     		ldr	r5, .L143+12
 1388              	.LVL104:
 1389              		.loc 1 721 0
 1390 00f4 D961     		str	r1, [r3, #28]
 1391              		.loc 1 724 0
 1392 00f6 5A68     		ldr	r2, [r3, #4]
 1393 00f8 2A40     		ands	r2, r5
 1394 00fa 5A60     		str	r2, [r3, #4]
 1395              		.loc 1 726 0
 1396 00fc 4123     		movs	r3, #65
 1397 00fe E154     		strb	r1, [r4, r3]
 1398              		.loc 1 727 0
 1399 0100 0133     		adds	r3, r3, #1
 1400 0102 E054     		strb	r0, [r4, r3]
 1401              		.loc 1 730 0
 1402 0104 023B     		subs	r3, r3, #2
 1403 0106 E054     		strb	r0, [r4, r3]
 1404              	.L109:
 1405              		.loc 1 738 0
 1406              		@ sp needed
 1407              	.LVL105:
 1408              	.LVL106:
 1409 0108 0CBC     		pop	{r2, r3}
 1410 010a 9046     		mov	r8, r2
 1411 010c 9946     		mov	r9, r3
 1412 010e F8BD     		pop	{r3, r4, r5, r6, r7, pc}
 1413              	.LVL107:
 1414              	.L120:
 1415              	.LBB282:
 1416              	.LBB275:
 1417              		.loc 1 4476 0
 1418 0110 9369     		ldr	r3, [r2, #24]
 1419 0112 1E42     		tst	r6, r3
 1420 0114 DAD1     		bne	.L122
 1421              		.loc 1 4481 0
 1422 0116 089B     		ldr	r3, [sp, #32]
 1423 0118 002B     		cmp	r3, #0
 1424 011a 07D0     		beq	.L119
 1425 011c FFF7FEFF 		bl	HAL_GetTick
ARM GAS  C:\Users\anashi\AppData\Local\Temp\ccFEbQrI.s 			page 26


 1426              	.LVL108:
 1427 0120 089B     		ldr	r3, [sp, #32]
 1428 0122 401B     		subs	r0, r0, r5
 1429 0124 8342     		cmp	r3, r0
 1430 0126 01D3     		bcc	.L119
 1431 0128 2268     		ldr	r2, [r4]
 1432 012a CAE7     		b	.L118
 1433              	.L119:
 1434              		.loc 1 4483 0
 1435 012c 4123     		movs	r3, #65
 1436 012e 2022     		movs	r2, #32
 1437 0130 E254     		strb	r2, [r4, r3]
 1438              		.loc 1 4484 0
 1439 0132 0023     		movs	r3, #0
 1440 0134 2232     		adds	r2, r2, #34
 1441 0136 A354     		strb	r3, [r4, r2]
 1442              		.loc 1 4487 0
 1443 0138 023A     		subs	r2, r2, #2
 1444 013a A354     		strb	r3, [r4, r2]
 1445              	.L141:
 1446              	.LBE275:
 1447              	.LBE282:
 1448              		.loc 1 690 0
 1449 013c 0320     		movs	r0, #3
 1450 013e E3E7     		b	.L109
 1451              	.L140:
 1452              		.loc 1 671 0
 1453 0140 636C     		ldr	r3, [r4, #68]
 1454              		.loc 1 673 0
 1455 0142 0120     		movs	r0, #1
 1456              		.loc 1 671 0
 1457 0144 042B     		cmp	r3, #4
 1458 0146 DFD0     		beq	.L109
 1459 0148 F8E7     		b	.L141
 1460              	.L124:
 1461              		.loc 1 700 0
 1462 014a 638D     		ldrh	r3, [r4, #42]
 1463              	.LBB283:
 1464              	.LBB269:
 1465              		.loc 1 4705 0
 1466 014c 0C48     		ldr	r0, .L143
 1467              		.loc 1 4702 0
 1468 014e 5168     		ldr	r1, [r2, #4]
 1469              	.LBE269:
 1470              	.LBE283:
 1471              		.loc 1 700 0
 1472 0150 9BB2     		uxth	r3, r3
 1473              	.LBB284:
 1474              	.LBB270:
 1475              		.loc 1 4705 0
 1476 0152 0140     		ands	r1, r0
 1477              		.loc 1 4708 0
 1478 0154 4046     		mov	r0, r8
 1479              	.LBE270:
 1480              	.LBE284:
 1481              		.loc 1 700 0
 1482 0156 2385     		strh	r3, [r4, #40]
ARM GAS  C:\Users\anashi\AppData\Local\Temp\ccFEbQrI.s 			page 27


 1483              	.LVL109:
 1484              	.LBB285:
 1485              	.LBB271:
 1486              		.loc 1 4708 0
 1487 0158 DBB2     		uxtb	r3, r3
 1488 015a 1B04     		lsls	r3, r3, #16
 1489              	.LVL110:
 1490 015c 0343     		orrs	r3, r0
 1491 015e 0B43     		orrs	r3, r1
 1492              	.LVL111:
 1493              		.loc 1 4712 0
 1494 0160 5360     		str	r3, [r2, #4]
 1495 0162 90E7     		b	.L114
 1496              	.LVL112:
 1497              	.L112:
 1498              	.LBE271:
 1499              	.LBE285:
 1500              		.loc 1 662 0
 1501 0164 638D     		ldrh	r3, [r4, #42]
 1502              	.LBB286:
 1503              	.LBB287:
 1504              		.loc 1 4705 0
 1505 0166 0649     		ldr	r1, .L143
 1506              		.loc 1 4702 0
 1507 0168 5068     		ldr	r0, [r2, #4]
 1508              	.LBE287:
 1509              	.LBE286:
 1510              		.loc 1 662 0
 1511 016a 9BB2     		uxth	r3, r3
 1512              	.LBB290:
 1513              	.LBB288:
 1514              		.loc 1 4705 0
 1515 016c 0840     		ands	r0, r1
 1516              		.loc 1 4708 0
 1517 016e 0849     		ldr	r1, .L143+16
 1518              	.LBE288:
 1519              	.LBE290:
 1520              		.loc 1 662 0
 1521 0170 2385     		strh	r3, [r4, #40]
 1522              	.LVL113:
 1523              	.LBB291:
 1524              	.LBB289:
 1525              		.loc 1 4708 0
 1526 0172 DBB2     		uxtb	r3, r3
 1527 0174 3943     		orrs	r1, r7
 1528 0176 1B04     		lsls	r3, r3, #16
 1529              	.LVL114:
 1530 0178 0B43     		orrs	r3, r1
 1531 017a 0343     		orrs	r3, r0
 1532              	.LVL115:
 1533              		.loc 1 4712 0
 1534 017c 5360     		str	r3, [r2, #4]
 1535              	.LVL116:
 1536 017e 7DE7     		b	.L113
 1537              	.L144:
 1538              		.align	2
 1539              	.L143:
ARM GAS  C:\Users\anashi\AppData\Local\Temp\ccFEbQrI.s 			page 28


 1540 0180 009800FC 		.word	-67069952
 1541 0184 0020FF01 		.word	33497088
 1542 0188 0000FF01 		.word	33488896
 1543 018c 00E800FE 		.word	-33495040
 1544 0190 00200002 		.word	33562624
 1545              	.LBE289:
 1546              	.LBE291:
 1547              		.cfi_endproc
 1548              	.LFE41:
 1549              		.size	HAL_I2C_Master_Transmit, .-HAL_I2C_Master_Transmit
 1550              		.section	.text.HAL_I2C_Master_Receive,"ax",%progbits
 1551              		.align	1
 1552              		.p2align 2,,3
 1553              		.global	HAL_I2C_Master_Receive
 1554              		.syntax unified
 1555              		.code	16
 1556              		.thumb_func
 1557              		.fpu softvfp
 1558              		.type	HAL_I2C_Master_Receive, %function
 1559              	HAL_I2C_Master_Receive:
 1560              	.LFB42:
 1561              		.loc 1 752 0
 1562              		.cfi_startproc
 1563              		@ args = 4, pretend = 0, frame = 0
 1564              		@ frame_needed = 0, uses_anonymous_args = 0
 1565              	.LVL117:
 1566 0000 F0B5     		push	{r4, r5, r6, r7, lr}
 1567              		.cfi_def_cfa_offset 20
 1568              		.cfi_offset 4, -20
 1569              		.cfi_offset 5, -16
 1570              		.cfi_offset 6, -12
 1571              		.cfi_offset 7, -8
 1572              		.cfi_offset 14, -4
 1573 0002 D646     		mov	lr, r10
 1574 0004 4F46     		mov	r7, r9
 1575 0006 4646     		mov	r6, r8
 1576 0008 9846     		mov	r8, r3
 1577              		.loc 1 755 0
 1578 000a 4123     		movs	r3, #65
 1579              	.LVL118:
 1580              		.loc 1 752 0
 1581 000c C0B5     		push	{r6, r7, lr}
 1582              		.cfi_def_cfa_offset 32
 1583              		.cfi_offset 8, -32
 1584              		.cfi_offset 9, -28
 1585              		.cfi_offset 10, -24
 1586              		.loc 1 755 0
 1587 000e C35C     		ldrb	r3, [r0, r3]
 1588              		.loc 1 752 0
 1589 0010 0400     		movs	r4, r0
 1590              	.LVL119:
 1591 0012 8A46     		mov	r10, r1
 1592 0014 9146     		mov	r9, r2
 1593 0016 089D     		ldr	r5, [sp, #32]
 1594              		.loc 1 861 0
 1595 0018 0220     		movs	r0, #2
 1596              	.LVL120:
ARM GAS  C:\Users\anashi\AppData\Local\Temp\ccFEbQrI.s 			page 29


 1597              		.loc 1 755 0
 1598 001a 202B     		cmp	r3, #32
 1599 001c 7CD1     		bne	.L146
 1600              		.loc 1 758 0
 1601 001e 2033     		adds	r3, r3, #32
 1602 0020 E25C     		ldrb	r2, [r4, r3]
 1603              	.LVL121:
 1604 0022 012A     		cmp	r2, #1
 1605 0024 78D0     		beq	.L146
 1606              		.loc 1 758 0 is_stmt 0 discriminator 2
 1607 0026 0122     		movs	r2, #1
 1608 0028 E254     		strb	r2, [r4, r3]
 1609              		.loc 1 761 0 is_stmt 1 discriminator 2
 1610 002a FFF7FEFF 		bl	HAL_GetTick
 1611              	.LVL122:
 1612              	.LBB312:
 1613              	.LBB313:
 1614              		.loc 1 4476 0 discriminator 2
 1615 002e 8027     		movs	r7, #128
 1616              	.LBE313:
 1617              	.LBE312:
 1618              		.loc 1 761 0 discriminator 2
 1619 0030 0600     		movs	r6, r0
 1620              	.LVL123:
 1621              	.LBB315:
 1622              	.LBB314:
 1623              		.loc 1 4476 0 discriminator 2
 1624 0032 3F02     		lsls	r7, r7, #8
 1625 0034 05E0     		b	.L147
 1626              	.LVL124:
 1627              	.L148:
 1628              		.loc 1 4481 0
 1629 0036 FFF7FEFF 		bl	HAL_GetTick
 1630              	.LVL125:
 1631 003a 801B     		subs	r0, r0, r6
 1632 003c 1928     		cmp	r0, #25
 1633 003e 00D9     		bls	.LCB1611
 1634 0040 79E0     		b	.L173	@long jump
 1635              	.LCB1611:
 1636              	.L147:
 1637              		.loc 1 4476 0
 1638 0042 2268     		ldr	r2, [r4]
 1639 0044 9369     		ldr	r3, [r2, #24]
 1640 0046 3B40     		ands	r3, r7
 1641 0048 F5D1     		bne	.L148
 1642              	.LVL126:
 1643              	.LBE314:
 1644              	.LBE315:
 1645              		.loc 1 768 0
 1646 004a 4121     		movs	r1, #65
 1647 004c 2220     		movs	r0, #34
 1648 004e 6054     		strb	r0, [r4, r1]
 1649              		.loc 1 769 0
 1650 0050 0131     		adds	r1, r1, #1
 1651 0052 1238     		subs	r0, r0, #18
 1652 0054 6054     		strb	r0, [r4, r1]
 1653              		.loc 1 773 0
ARM GAS  C:\Users\anashi\AppData\Local\Temp\ccFEbQrI.s 			page 30


 1654 0056 4946     		mov	r1, r9
 1655 0058 6162     		str	r1, [r4, #36]
 1656              		.loc 1 774 0
 1657 005a 4146     		mov	r1, r8
 1658              		.loc 1 770 0
 1659 005c 6364     		str	r3, [r4, #68]
 1660              		.loc 1 774 0
 1661 005e 6185     		strh	r1, [r4, #42]
 1662 0060 5146     		mov	r1, r10
 1663              		.loc 1 775 0
 1664 0062 6363     		str	r3, [r4, #52]
 1665 0064 8905     		lsls	r1, r1, #22
 1666              		.loc 1 779 0
 1667 0066 638D     		ldrh	r3, [r4, #42]
 1668 0068 890D     		lsrs	r1, r1, #22
 1669 006a 8A46     		mov	r10, r1
 1670 006c FF2B     		cmp	r3, #255
 1671 006e 00D8     		bhi	.LCB1649
 1672 0070 D6E0     		b	.L149	@long jump
 1673              	.LCB1649:
 1674              		.loc 1 781 0
 1675 0072 FF23     		movs	r3, #255
 1676              	.LBB316:
 1677              	.LBB317:
 1678              		.loc 1 4708 0
 1679 0074 5046     		mov	r0, r10
 1680              	.LBE317:
 1681              	.LBE316:
 1682              		.loc 1 781 0
 1683 0076 2385     		strh	r3, [r4, #40]
 1684              	.LVL127:
 1685              	.LBB319:
 1686              	.LBB318:
 1687              		.loc 1 4705 0
 1688 0078 7C49     		ldr	r1, .L209
 1689              		.loc 1 4702 0
 1690 007a 5368     		ldr	r3, [r2, #4]
 1691              	.LVL128:
 1692              		.loc 1 4705 0
 1693 007c 1940     		ands	r1, r3
 1694              	.LVL129:
 1695              		.loc 1 4708 0
 1696 007e 7C4B     		ldr	r3, .L209+4
 1697 0080 0343     		orrs	r3, r0
 1698 0082 0B43     		orrs	r3, r1
 1699              	.LVL130:
 1700              		.loc 1 4712 0
 1701 0084 5360     		str	r3, [r2, #4]
 1702              	.LVL131:
 1703              	.L150:
 1704              	.LBE318:
 1705              	.LBE319:
 1706              	.LBB320:
 1707              	.LBB321:
 1708              		.loc 1 4576 0
 1709 0086 0423     		movs	r3, #4
 1710 0088 9846     		mov	r8, r3
ARM GAS  C:\Users\anashi\AppData\Local\Temp\ccFEbQrI.s 			page 31


 1711              	.LBB322:
 1712              	.LBB323:
 1713              		.loc 1 4628 0
 1714 008a 0C33     		adds	r3, r3, #12
 1715 008c 9946     		mov	r9, r3
 1716              	.LVL132:
 1717              	.L151:
 1718              	.LBE323:
 1719              	.LBE322:
 1720              	.LBE321:
 1721              	.LBE320:
 1722              		.loc 1 790 0
 1723 008e 638D     		ldrh	r3, [r4, #42]
 1724 0090 002B     		cmp	r3, #0
 1725 0092 00D1     		bne	.LCB1707
 1726 0094 D3E0     		b	.L207	@long jump
 1727              	.LCB1707:
 1728 0096 002D     		cmp	r5, #0
 1729 0098 00D1     		bne	.LCB1709
 1730 009a 8CE0     		b	.L163	@long jump
 1731              	.LCB1709:
 1732              	.LBB339:
 1733              	.LBB336:
 1734              		.loc 1 4585 0
 1735 009c 2027     		movs	r7, #32
 1736 009e 09E0     		b	.L167
 1737              	.LVL133:
 1738              	.L208:
 1739 00a0 9A69     		ldr	r2, [r3, #24]
 1740 00a2 1742     		tst	r7, r2
 1741 00a4 00D0     		beq	.LCB1725
 1742 00a6 9CE0     		b	.L166	@long jump
 1743              	.LCB1725:
 1744              		.loc 1 4604 0
 1745 00a8 FFF7FEFF 		bl	HAL_GetTick
 1746              	.LVL134:
 1747 00ac 801B     		subs	r0, r0, r6
 1748 00ae 8542     		cmp	r5, r0
 1749 00b0 00D2     		bcs	.LCB1730
 1750 00b2 8CE0     		b	.L162	@long jump
 1751              	.LCB1730:
 1752              	.LVL135:
 1753              	.L167:
 1754              		.loc 1 4576 0
 1755 00b4 4146     		mov	r1, r8
 1756 00b6 2368     		ldr	r3, [r4]
 1757 00b8 9A69     		ldr	r2, [r3, #24]
 1758 00ba 1142     		tst	r1, r2
 1759 00bc 51D1     		bne	.L164
 1760              	.LVL136:
 1761              	.LBB333:
 1762              	.LBB330:
 1763              		.loc 1 4628 0
 1764 00be 4946     		mov	r1, r9
 1765 00c0 9A69     		ldr	r2, [r3, #24]
 1766 00c2 1142     		tst	r1, r2
 1767 00c4 ECD0     		beq	.L208
ARM GAS  C:\Users\anashi\AppData\Local\Temp\ccFEbQrI.s 			page 32


 1768              	.LVL137:
 1769              	.L165:
 1770              	.LBB324:
 1771              	.LBB325:
 1772              		.loc 1 4632 0
 1773 00c6 2027     		movs	r7, #32
 1774              	.L153:
 1775 00c8 6A1C     		adds	r2, r5, #1
 1776 00ca 3ED1     		bne	.L156
 1777 00cc 2021     		movs	r1, #32
 1778              	.L157:
 1779 00ce 9A69     		ldr	r2, [r3, #24]
 1780 00d0 1142     		tst	r1, r2
 1781 00d2 FCD0     		beq	.L157
 1782              	.L158:
 1783              		.loc 1 4650 0
 1784 00d4 1022     		movs	r2, #16
 1785 00d6 DA61     		str	r2, [r3, #28]
 1786              		.loc 1 4653 0
 1787 00d8 1032     		adds	r2, r2, #16
 1788 00da DA61     		str	r2, [r3, #28]
 1789              	.LVL138:
 1790              	.LBB326:
 1791              	.LBB327:
 1792              		.loc 1 4290 0
 1793 00dc 9A69     		ldr	r2, [r3, #24]
 1794 00de 9207     		lsls	r2, r2, #30
 1795 00e0 01D5     		bpl	.L160
 1796              		.loc 1 4292 0
 1797 00e2 0022     		movs	r2, #0
 1798 00e4 9A62     		str	r2, [r3, #40]
 1799              	.L160:
 1800              		.loc 1 4296 0
 1801 00e6 0122     		movs	r2, #1
 1802 00e8 9969     		ldr	r1, [r3, #24]
 1803 00ea 0A42     		tst	r2, r1
 1804 00ec 02D1     		bne	.L161
 1805              		.loc 1 4298 0
 1806 00ee 9969     		ldr	r1, [r3, #24]
 1807 00f0 0A43     		orrs	r2, r1
 1808 00f2 9A61     		str	r2, [r3, #24]
 1809              	.L161:
 1810              	.LVL139:
 1811              	.LBE327:
 1812              	.LBE326:
 1813              		.loc 1 4659 0
 1814 00f4 5A68     		ldr	r2, [r3, #4]
 1815 00f6 5F49     		ldr	r1, .L209+8
 1816 00f8 0A40     		ands	r2, r1
 1817 00fa 5A60     		str	r2, [r3, #4]
 1818              		.loc 1 4661 0
 1819 00fc 0423     		movs	r3, #4
 1820 00fe 6364     		str	r3, [r4, #68]
 1821              	.L154:
 1822              		.loc 1 4639 0
 1823 0100 4123     		movs	r3, #65
 1824 0102 2022     		movs	r2, #32
ARM GAS  C:\Users\anashi\AppData\Local\Temp\ccFEbQrI.s 			page 33


 1825 0104 E254     		strb	r2, [r4, r3]
 1826              		.loc 1 4640 0
 1827 0106 0023     		movs	r3, #0
 1828 0108 2232     		adds	r2, r2, #34
 1829 010a A354     		strb	r3, [r4, r2]
 1830              		.loc 1 4643 0
 1831 010c 023A     		subs	r2, r2, #2
 1832 010e A354     		strb	r3, [r4, r2]
 1833              	.LVL140:
 1834              	.L155:
 1835              	.LBE325:
 1836              	.LBE324:
 1837              	.LBE330:
 1838              	.LBE333:
 1839              	.LBE336:
 1840              	.LBE339:
 1841              		.loc 1 795 0
 1842 0110 636C     		ldr	r3, [r4, #68]
 1843              		.loc 1 797 0
 1844 0112 0120     		movs	r0, #1
 1845              		.loc 1 795 0
 1846 0114 042B     		cmp	r3, #4
 1847 0116 16D1     		bne	.L206
 1848              	.LVL141:
 1849              	.L146:
 1850              		.loc 1 863 0
 1851              		@ sp needed
 1852              	.LVL142:
 1853 0118 1CBC     		pop	{r2, r3, r4}
 1854 011a 9046     		mov	r8, r2
 1855 011c 9946     		mov	r9, r3
 1856 011e A246     		mov	r10, r4
 1857 0120 F0BD     		pop	{r4, r5, r6, r7, pc}
 1858              	.LVL143:
 1859              	.L174:
 1860              	.LBB340:
 1861              	.LBB341:
 1862              		.loc 1 4476 0
 1863 0122 9369     		ldr	r3, [r2, #24]
 1864 0124 1F42     		tst	r7, r3
 1865 0126 38D1     		bne	.L176
 1866              		.loc 1 4481 0
 1867 0128 002D     		cmp	r5, #0
 1868 012a 04D0     		beq	.L173
 1869 012c FFF7FEFF 		bl	HAL_GetTick
 1870              	.LVL144:
 1871 0130 801B     		subs	r0, r0, r6
 1872 0132 8542     		cmp	r5, r0
 1873 0134 2AD2     		bcs	.L172
 1874              	.L173:
 1875              		.loc 1 4483 0
 1876 0136 4123     		movs	r3, #65
 1877 0138 2022     		movs	r2, #32
 1878 013a E254     		strb	r2, [r4, r3]
 1879              		.loc 1 4484 0
 1880 013c 0023     		movs	r3, #0
 1881 013e 2232     		adds	r2, r2, #34
ARM GAS  C:\Users\anashi\AppData\Local\Temp\ccFEbQrI.s 			page 34


 1882 0140 A354     		strb	r3, [r4, r2]
 1883              		.loc 1 4487 0
 1884 0142 023A     		subs	r2, r2, #2
 1885 0144 A354     		strb	r3, [r4, r2]
 1886              	.L206:
 1887              	.LBE341:
 1888              	.LBE340:
 1889              		.loc 1 815 0
 1890 0146 0320     		movs	r0, #3
 1891 0148 E6E7     		b	.L146
 1892              	.LVL145:
 1893              	.L156:
 1894              	.LBB344:
 1895              	.LBB337:
 1896              	.LBB334:
 1897              	.LBB331:
 1898              	.LBB329:
 1899              	.LBB328:
 1900              		.loc 1 4632 0
 1901 014a 9A69     		ldr	r2, [r3, #24]
 1902 014c 1742     		tst	r7, r2
 1903 014e C1D1     		bne	.L158
 1904              		.loc 1 4637 0
 1905 0150 002D     		cmp	r5, #0
 1906 0152 D5D0     		beq	.L154
 1907 0154 FFF7FEFF 		bl	HAL_GetTick
 1908              	.LVL146:
 1909 0158 801B     		subs	r0, r0, r6
 1910 015a 8542     		cmp	r5, r0
 1911 015c D0D3     		bcc	.L154
 1912 015e 2368     		ldr	r3, [r4]
 1913 0160 B2E7     		b	.L153
 1914              	.LVL147:
 1915              	.L164:
 1916              	.LBE328:
 1917              	.LBE329:
 1918              	.LBE331:
 1919              	.LBE334:
 1920              	.LBE337:
 1921              	.LBE344:
 1922              		.loc 1 806 0
 1923 0162 5A6A     		ldr	r2, [r3, #36]
 1924 0164 636A     		ldr	r3, [r4, #36]
 1925 0166 591C     		adds	r1, r3, #1
 1926 0168 6162     		str	r1, [r4, #36]
 1927 016a 1A70     		strb	r2, [r3]
 1928              		.loc 1 807 0
 1929 016c 238D     		ldrh	r3, [r4, #40]
 1930              		.loc 1 808 0
 1931 016e 628D     		ldrh	r2, [r4, #42]
 1932              		.loc 1 807 0
 1933 0170 013B     		subs	r3, r3, #1
 1934              		.loc 1 808 0
 1935 0172 013A     		subs	r2, r2, #1
 1936              		.loc 1 807 0
 1937 0174 9BB2     		uxth	r3, r3
 1938              		.loc 1 808 0
ARM GAS  C:\Users\anashi\AppData\Local\Temp\ccFEbQrI.s 			page 35


 1939 0176 92B2     		uxth	r2, r2
 1940              		.loc 1 807 0
 1941 0178 2385     		strh	r3, [r4, #40]
 1942              		.loc 1 808 0
 1943 017a 6285     		strh	r2, [r4, #42]
 1944              		.loc 1 810 0
 1945 017c 002B     		cmp	r3, #0
 1946 017e 00D0     		beq	.LCB1944
 1947 0180 85E7     		b	.L151	@long jump
 1948              	.LCB1944:
 1949              		.loc 1 810 0 is_stmt 0 discriminator 1
 1950 0182 638D     		ldrh	r3, [r4, #42]
 1951              	.LBB345:
 1952              	.LBB342:
 1953              		.loc 1 4476 0 is_stmt 1 discriminator 1
 1954 0184 8027     		movs	r7, #128
 1955              	.LBE342:
 1956              	.LBE345:
 1957              		.loc 1 810 0 discriminator 1
 1958 0186 002B     		cmp	r3, #0
 1959 0188 00D1     		bne	.LCB1953
 1960 018a 80E7     		b	.L151	@long jump
 1961              	.LCB1953:
 1962              	.L172:
 1963              	.LBB346:
 1964              	.LBB343:
 1965              		.loc 1 4476 0
 1966 018c 2268     		ldr	r2, [r4]
 1967 018e 6B1C     		adds	r3, r5, #1
 1968 0190 C7D1     		bne	.L174
 1969 0192 8021     		movs	r1, #128
 1970              	.L175:
 1971 0194 9369     		ldr	r3, [r2, #24]
 1972 0196 1942     		tst	r1, r3
 1973 0198 FCD0     		beq	.L175
 1974              	.L176:
 1975              	.LBE343:
 1976              	.LBE346:
 1977              		.loc 1 818 0
 1978 019a 638D     		ldrh	r3, [r4, #42]
 1979 019c FF2B     		cmp	r3, #255
 1980 019e 2FD9     		bls	.L178
 1981              		.loc 1 820 0
 1982 01a0 FF23     		movs	r3, #255
 1983              	.LBB347:
 1984              	.LBB348:
 1985              		.loc 1 4708 0
 1986 01a2 5046     		mov	r0, r10
 1987              	.LBE348:
 1988              	.LBE347:
 1989              		.loc 1 820 0
 1990 01a4 2385     		strh	r3, [r4, #40]
 1991              	.LVL148:
 1992              	.LBB350:
 1993              	.LBB349:
 1994              		.loc 1 4705 0
 1995 01a6 3149     		ldr	r1, .L209
ARM GAS  C:\Users\anashi\AppData\Local\Temp\ccFEbQrI.s 			page 36


 1996              		.loc 1 4702 0
 1997 01a8 5368     		ldr	r3, [r2, #4]
 1998              	.LVL149:
 1999              		.loc 1 4705 0
 2000 01aa 1940     		ands	r1, r3
 2001              	.LVL150:
 2002              		.loc 1 4708 0
 2003 01ac 324B     		ldr	r3, .L209+12
 2004 01ae 0343     		orrs	r3, r0
 2005 01b0 0B43     		orrs	r3, r1
 2006              	.LVL151:
 2007              		.loc 1 4712 0
 2008 01b2 5360     		str	r3, [r2, #4]
 2009 01b4 6BE7     		b	.L151
 2010              	.LVL152:
 2011              	.L163:
 2012              	.LBE349:
 2013              	.LBE350:
 2014              	.LBB351:
 2015              	.LBB338:
 2016              		.loc 1 4576 0
 2017 01b6 4146     		mov	r1, r8
 2018 01b8 2368     		ldr	r3, [r4]
 2019 01ba 9A69     		ldr	r2, [r3, #24]
 2020 01bc 1142     		tst	r1, r2
 2021 01be D0D1     		bne	.L164
 2022              	.LVL153:
 2023              	.LBB335:
 2024              	.LBB332:
 2025              		.loc 1 4628 0
 2026 01c0 9A69     		ldr	r2, [r3, #24]
 2027 01c2 D206     		lsls	r2, r2, #27
 2028 01c4 00D5     		bpl	.LCB2030
 2029 01c6 7EE7     		b	.L165	@long jump
 2030              	.LCB2030:
 2031              	.LBE332:
 2032              	.LBE335:
 2033              		.loc 1 4585 0
 2034 01c8 9A69     		ldr	r2, [r3, #24]
 2035 01ca 9206     		lsls	r2, r2, #26
 2036 01cc 09D4     		bmi	.L166
 2037              	.LVL154:
 2038              	.L162:
 2039              		.loc 1 4606 0
 2040 01ce 2022     		movs	r2, #32
 2041 01d0 636C     		ldr	r3, [r4, #68]
 2042 01d2 1343     		orrs	r3, r2
 2043 01d4 6364     		str	r3, [r4, #68]
 2044              		.loc 1 4607 0
 2045 01d6 4123     		movs	r3, #65
 2046 01d8 E254     		strb	r2, [r4, r3]
 2047              		.loc 1 4610 0
 2048 01da 0022     		movs	r2, #0
 2049 01dc 013B     		subs	r3, r3, #1
 2050 01de E254     		strb	r2, [r4, r3]
 2051 01e0 96E7     		b	.L155
 2052              	.L166:
ARM GAS  C:\Users\anashi\AppData\Local\Temp\ccFEbQrI.s 			page 37


 2053              		.loc 1 4588 0
 2054 01e2 2021     		movs	r1, #32
 2055 01e4 D961     		str	r1, [r3, #28]
 2056              		.loc 1 4591 0
 2057 01e6 5A68     		ldr	r2, [r3, #4]
 2058 01e8 2248     		ldr	r0, .L209+8
 2059 01ea 0240     		ands	r2, r0
 2060 01ec 5A60     		str	r2, [r3, #4]
 2061              		.loc 1 4593 0
 2062 01ee 0023     		movs	r3, #0
 2063              		.loc 1 4594 0
 2064 01f0 4122     		movs	r2, #65
 2065              		.loc 1 4593 0
 2066 01f2 6364     		str	r3, [r4, #68]
 2067              		.loc 1 4594 0
 2068 01f4 A154     		strb	r1, [r4, r2]
 2069              		.loc 1 4595 0
 2070 01f6 0132     		adds	r2, r2, #1
 2071 01f8 A354     		strb	r3, [r4, r2]
 2072              		.loc 1 4598 0
 2073 01fa 023A     		subs	r2, r2, #2
 2074 01fc A354     		strb	r3, [r4, r2]
 2075 01fe 87E7     		b	.L155
 2076              	.LVL155:
 2077              	.L178:
 2078              	.LBE338:
 2079              	.LBE351:
 2080              		.loc 1 825 0
 2081 0200 638D     		ldrh	r3, [r4, #42]
 2082              	.LBB352:
 2083              	.LBB353:
 2084              		.loc 1 4705 0
 2085 0202 1A49     		ldr	r1, .L209
 2086              		.loc 1 4702 0
 2087 0204 5068     		ldr	r0, [r2, #4]
 2088              		.loc 1 4708 0
 2089 0206 5746     		mov	r7, r10
 2090              		.loc 1 4705 0
 2091 0208 0140     		ands	r1, r0
 2092              		.loc 1 4708 0
 2093 020a 8020     		movs	r0, #128
 2094              	.LBE353:
 2095              	.LBE352:
 2096              		.loc 1 825 0
 2097 020c 9BB2     		uxth	r3, r3
 2098 020e 2385     		strh	r3, [r4, #40]
 2099              	.LVL156:
 2100              	.LBB355:
 2101              	.LBB354:
 2102              		.loc 1 4708 0
 2103 0210 8004     		lsls	r0, r0, #18
 2104 0212 DBB2     		uxtb	r3, r3
 2105 0214 1B04     		lsls	r3, r3, #16
 2106              	.LVL157:
 2107 0216 3843     		orrs	r0, r7
 2108 0218 0343     		orrs	r3, r0
 2109 021a 0B43     		orrs	r3, r1
ARM GAS  C:\Users\anashi\AppData\Local\Temp\ccFEbQrI.s 			page 38


 2110              	.LVL158:
 2111              		.loc 1 4712 0
 2112 021c 5360     		str	r3, [r2, #4]
 2113 021e 36E7     		b	.L151
 2114              	.LVL159:
 2115              	.L149:
 2116              	.LBE354:
 2117              	.LBE355:
 2118              	.LBB356:
 2119              	.LBB357:
 2120              		.loc 1 4708 0
 2121 0220 5746     		mov	r7, r10
 2122              	.LBE357:
 2123              	.LBE356:
 2124              		.loc 1 786 0
 2125 0222 638D     		ldrh	r3, [r4, #42]
 2126              	.LBB361:
 2127              	.LBB358:
 2128              		.loc 1 4705 0
 2129 0224 1149     		ldr	r1, .L209
 2130              		.loc 1 4702 0
 2131 0226 5068     		ldr	r0, [r2, #4]
 2132              	.LBE358:
 2133              	.LBE361:
 2134              		.loc 1 786 0
 2135 0228 9BB2     		uxth	r3, r3
 2136              	.LBB362:
 2137              	.LBB359:
 2138              		.loc 1 4705 0
 2139 022a 0840     		ands	r0, r1
 2140              		.loc 1 4708 0
 2141 022c 1349     		ldr	r1, .L209+16
 2142              	.LBE359:
 2143              	.LBE362:
 2144              		.loc 1 786 0
 2145 022e 2385     		strh	r3, [r4, #40]
 2146              	.LVL160:
 2147              	.LBB363:
 2148              	.LBB360:
 2149              		.loc 1 4708 0
 2150 0230 DBB2     		uxtb	r3, r3
 2151 0232 3943     		orrs	r1, r7
 2152 0234 1B04     		lsls	r3, r3, #16
 2153              	.LVL161:
 2154 0236 0B43     		orrs	r3, r1
 2155 0238 0343     		orrs	r3, r0
 2156              	.LVL162:
 2157              		.loc 1 4712 0
 2158 023a 5360     		str	r3, [r2, #4]
 2159              	.LVL163:
 2160 023c 23E7     		b	.L150
 2161              	.LVL164:
 2162              	.L207:
 2163              	.LBE360:
 2164              	.LBE363:
 2165              		.loc 1 833 0
 2166 023e 3200     		movs	r2, r6
ARM GAS  C:\Users\anashi\AppData\Local\Temp\ccFEbQrI.s 			page 39


 2167 0240 2900     		movs	r1, r5
 2168 0242 2000     		movs	r0, r4
 2169 0244 FFF7FEFF 		bl	I2C_WaitOnSTOPFlagUntilTimeout
 2170              	.LVL165:
 2171 0248 0028     		cmp	r0, #0
 2172 024a 00D0     		beq	.LCB2189
 2173 024c 60E7     		b	.L155	@long jump
 2174              	.LCB2189:
 2175              		.loc 1 846 0
 2176 024e 2021     		movs	r1, #32
 2177 0250 2368     		ldr	r3, [r4]
 2178              		.loc 1 849 0
 2179 0252 084D     		ldr	r5, .L209+8
 2180              		.loc 1 846 0
 2181 0254 D961     		str	r1, [r3, #28]
 2182              		.loc 1 849 0
 2183 0256 5A68     		ldr	r2, [r3, #4]
 2184 0258 2A40     		ands	r2, r5
 2185 025a 5A60     		str	r2, [r3, #4]
 2186              		.loc 1 851 0
 2187 025c 4123     		movs	r3, #65
 2188 025e E154     		strb	r1, [r4, r3]
 2189              		.loc 1 852 0
 2190 0260 0133     		adds	r3, r3, #1
 2191 0262 E054     		strb	r0, [r4, r3]
 2192              		.loc 1 855 0
 2193 0264 023B     		subs	r3, r3, #2
 2194 0266 E054     		strb	r0, [r4, r3]
 2195              		.loc 1 857 0
 2196 0268 56E7     		b	.L146
 2197              	.L210:
 2198 026a C046     		.align	2
 2199              	.L209:
 2200 026c 009800FC 		.word	-67069952
 2201 0270 0024FF01 		.word	33498112
 2202 0274 00E800FE 		.word	-33495040
 2203 0278 0000FF01 		.word	33488896
 2204 027c 00240002 		.word	33563648
 2205              		.cfi_endproc
 2206              	.LFE42:
 2207              		.size	HAL_I2C_Master_Receive, .-HAL_I2C_Master_Receive
 2208              		.section	.text.HAL_I2C_Slave_Transmit,"ax",%progbits
 2209              		.align	1
 2210              		.p2align 2,,3
 2211              		.global	HAL_I2C_Slave_Transmit
 2212              		.syntax unified
 2213              		.code	16
 2214              		.thumb_func
 2215              		.fpu softvfp
 2216              		.type	HAL_I2C_Slave_Transmit, %function
 2217              	HAL_I2C_Slave_Transmit:
 2218              	.LFB43:
 2219              		.loc 1 875 0
 2220              		.cfi_startproc
 2221              		@ args = 0, pretend = 0, frame = 0
 2222              		@ frame_needed = 0, uses_anonymous_args = 0
 2223              	.LVL166:
ARM GAS  C:\Users\anashi\AppData\Local\Temp\ccFEbQrI.s 			page 40


 2224 0000 F0B5     		push	{r4, r5, r6, r7, lr}
 2225              		.cfi_def_cfa_offset 20
 2226              		.cfi_offset 4, -20
 2227              		.cfi_offset 5, -16
 2228              		.cfi_offset 6, -12
 2229              		.cfi_offset 7, -8
 2230              		.cfi_offset 14, -4
 2231 0002 4646     		mov	r6, r8
 2232 0004 D646     		mov	lr, r10
 2233 0006 4F46     		mov	r7, r9
 2234 0008 C0B5     		push	{r6, r7, lr}
 2235              		.cfi_def_cfa_offset 32
 2236              		.cfi_offset 8, -32
 2237              		.cfi_offset 9, -28
 2238              		.cfi_offset 10, -24
 2239              		.loc 1 875 0
 2240 000a 1E00     		movs	r6, r3
 2241              		.loc 1 878 0
 2242 000c 4123     		movs	r3, #65
 2243              	.LVL167:
 2244 000e C55C     		ldrb	r5, [r0, r3]
 2245              		.loc 1 875 0
 2246 0010 0400     		movs	r4, r0
 2247              		.loc 1 878 0
 2248 0012 EDB2     		uxtb	r5, r5
 2249              		.loc 1 875 0
 2250 0014 0F00     		movs	r7, r1
 2251 0016 9246     		mov	r10, r2
 2252              		.loc 1 878 0
 2253 0018 9846     		mov	r8, r3
 2254              		.loc 1 1001 0
 2255 001a 0220     		movs	r0, #2
 2256              	.LVL168:
 2257              		.loc 1 878 0
 2258 001c 202D     		cmp	r5, #32
 2259 001e 3ED1     		bne	.L269
 2260              		.loc 1 880 0
 2261 0020 0029     		cmp	r1, #0
 2262 0022 3BD0     		beq	.L214
 2263              		.loc 1 880 0 is_stmt 0 discriminator 1
 2264 0024 002A     		cmp	r2, #0
 2265 0026 39D0     		beq	.L214
 2266              		.loc 1 885 0 is_stmt 1
 2267 0028 4023     		movs	r3, #64
 2268 002a E25C     		ldrb	r2, [r4, r3]
 2269              	.LVL169:
 2270 002c 012A     		cmp	r2, #1
 2271 002e 36D0     		beq	.L269
 2272              		.loc 1 885 0 is_stmt 0 discriminator 2
 2273 0030 0122     		movs	r2, #1
 2274 0032 E254     		strb	r2, [r4, r3]
 2275              		.loc 1 888 0 is_stmt 1 discriminator 2
 2276 0034 FFF7FEFF 		bl	HAL_GetTick
 2277              	.LVL170:
 2278              		.loc 1 890 0 discriminator 2
 2279 0038 2123     		movs	r3, #33
 2280 003a 4246     		mov	r2, r8
ARM GAS  C:\Users\anashi\AppData\Local\Temp\ccFEbQrI.s 			page 41


 2281 003c A354     		strb	r3, [r4, r2]
 2282              		.loc 1 891 0 discriminator 2
 2283 003e 2133     		adds	r3, r3, #33
 2284 0040 E554     		strb	r5, [r4, r3]
 2285              		.loc 1 892 0 discriminator 2
 2286 0042 0023     		movs	r3, #0
 2287              		.loc 1 896 0 discriminator 2
 2288 0044 5246     		mov	r2, r10
 2289              		.loc 1 888 0 discriminator 2
 2290 0046 8146     		mov	r9, r0
 2291              	.LVL171:
 2292              	.LBB372:
 2293              	.LBB373:
 2294              		.loc 1 4476 0 discriminator 2
 2295 0048 0825     		movs	r5, #8
 2296              	.LBE373:
 2297              	.LBE372:
 2298              		.loc 1 892 0 discriminator 2
 2299 004a 6364     		str	r3, [r4, #68]
 2300              		.loc 1 897 0 discriminator 2
 2301 004c 6363     		str	r3, [r4, #52]
 2302              		.loc 1 900 0 discriminator 2
 2303 004e 2368     		ldr	r3, [r4]
 2304              		.loc 1 896 0 discriminator 2
 2305 0050 6285     		strh	r2, [r4, #42]
 2306              		.loc 1 900 0 discriminator 2
 2307 0052 5A68     		ldr	r2, [r3, #4]
 2308 0054 6249     		ldr	r1, .L287
 2309              		.loc 1 895 0 discriminator 2
 2310 0056 6762     		str	r7, [r4, #36]
 2311              		.loc 1 900 0 discriminator 2
 2312 0058 0A40     		ands	r2, r1
 2313 005a 5A60     		str	r2, [r3, #4]
 2314              	.LVL172:
 2315              	.L215:
 2316 005c 721C     		adds	r2, r6, #1
 2317 005e 66D1     		bne	.L218
 2318              	.LBB376:
 2319              	.LBB374:
 2320              		.loc 1 4476 0
 2321 0060 0821     		movs	r1, #8
 2322              	.L219:
 2323 0062 9A69     		ldr	r2, [r3, #24]
 2324 0064 1142     		tst	r1, r2
 2325 0066 FCD0     		beq	.L219
 2326              	.LVL173:
 2327              	.LBE374:
 2328              	.LBE376:
 2329              		.loc 1 914 0
 2330 0068 E268     		ldr	r2, [r4, #12]
 2331              		.loc 1 911 0
 2332 006a D961     		str	r1, [r3, #28]
 2333              	.LBB377:
 2334              	.LBB378:
 2335              		.loc 1 4476 0
 2336 006c 0821     		movs	r1, #8
 2337              	.LBE378:
ARM GAS  C:\Users\anashi\AppData\Local\Temp\ccFEbQrI.s 			page 42


 2338              	.LBE377:
 2339              		.loc 1 914 0
 2340 006e 022A     		cmp	r2, #2
 2341 0070 57D0     		beq	.L226
 2342              	.L223:
 2343              	.LBB382:
 2344              	.LBB383:
 2345              		.loc 1 4476 0
 2346 0072 8025     		movs	r5, #128
 2347 0074 6D02     		lsls	r5, r5, #9
 2348              	.L229:
 2349 0076 721C     		adds	r2, r6, #1
 2350 0078 00D0     		beq	.LCB2337
 2351 007a 74E0     		b	.L232	@long jump
 2352              	.LCB2337:
 2353 007c 8021     		movs	r1, #128
 2354 007e 4902     		lsls	r1, r1, #9
 2355              	.L233:
 2356 0080 9A69     		ldr	r2, [r3, #24]
 2357 0082 0A42     		tst	r2, r1
 2358 0084 FCD0     		beq	.L233
 2359 0086 1DE0     		b	.L283
 2360              	.L285:
 2361              	.LBE383:
 2362              	.LBE382:
 2363              		.loc 1 942 0
 2364 0088 8023     		movs	r3, #128
 2365 008a 2268     		ldr	r2, [r4]
 2366 008c 1B02     		lsls	r3, r3, #8
 2367 008e 5168     		ldr	r1, [r2, #4]
 2368 0090 0B43     		orrs	r3, r1
 2369 0092 5360     		str	r3, [r2, #4]
 2370              		.loc 1 944 0
 2371 0094 636C     		ldr	r3, [r4, #68]
 2372 0096 042B     		cmp	r3, #4
 2373 0098 00D0     		beq	.LCB2363
 2374 009a 8BE0     		b	.L284	@long jump
 2375              	.LCB2363:
 2376              	.LVL174:
 2377              	.L214:
 2378              		.loc 1 882 0
 2379 009c 0120     		movs	r0, #1
 2380              	.L269:
 2381              		.loc 1 1003 0
 2382              		@ sp needed
 2383              	.LVL175:
 2384              	.LVL176:
 2385              	.LVL177:
 2386 009e 1CBC     		pop	{r2, r3, r4}
 2387 00a0 9046     		mov	r8, r2
 2388 00a2 9946     		mov	r9, r3
 2389 00a4 A246     		mov	r10, r4
 2390 00a6 F0BD     		pop	{r4, r5, r6, r7, pc}
 2391              	.LVL178:
 2392              	.L238:
 2393              		.loc 1 939 0
 2394 00a8 FFF7FEFF 		bl	I2C_WaitOnTXISFlagUntilTimeout
ARM GAS  C:\Users\anashi\AppData\Local\Temp\ccFEbQrI.s 			page 43


 2395              	.LVL179:
 2396 00ac 0028     		cmp	r0, #0
 2397 00ae EBD1     		bne	.L285
 2398              		.loc 1 955 0
 2399 00b0 636A     		ldr	r3, [r4, #36]
 2400 00b2 5A1C     		adds	r2, r3, #1
 2401 00b4 6262     		str	r2, [r4, #36]
 2402 00b6 1B78     		ldrb	r3, [r3]
 2403 00b8 2268     		ldr	r2, [r4]
 2404 00ba 9362     		str	r3, [r2, #40]
 2405              		.loc 1 956 0
 2406 00bc 638D     		ldrh	r3, [r4, #42]
 2407 00be 013B     		subs	r3, r3, #1
 2408 00c0 9BB2     		uxth	r3, r3
 2409 00c2 6385     		strh	r3, [r4, #42]
 2410              	.L283:
 2411              		.loc 1 936 0
 2412 00c4 638D     		ldrh	r3, [r4, #42]
 2413              		.loc 1 939 0
 2414 00c6 4A46     		mov	r2, r9
 2415 00c8 3100     		movs	r1, r6
 2416 00ca 2000     		movs	r0, r4
 2417              		.loc 1 936 0
 2418 00cc 002B     		cmp	r3, #0
 2419 00ce EBD1     		bne	.L238
 2420              	.LVL180:
 2421              		.loc 1 960 0
 2422 00d0 FFF7FEFF 		bl	I2C_WaitOnSTOPFlagUntilTimeout
 2423              	.LVL181:
 2424              		.loc 1 963 0
 2425 00d4 2268     		ldr	r2, [r4]
 2426              		.loc 1 960 0
 2427 00d6 0028     		cmp	r0, #0
 2428 00d8 09D0     		beq	.L240
 2429              		.loc 1 963 0
 2430 00da 8023     		movs	r3, #128
 2431 00dc 5168     		ldr	r1, [r2, #4]
 2432 00de 1B02     		lsls	r3, r3, #8
 2433 00e0 0B43     		orrs	r3, r1
 2434 00e2 5360     		str	r3, [r2, #4]
 2435              		.loc 1 965 0
 2436 00e4 636C     		ldr	r3, [r4, #68]
 2437 00e6 042B     		cmp	r3, #4
 2438 00e8 64D1     		bne	.L284
 2439              		.loc 1 969 0
 2440 00ea 0023     		movs	r3, #0
 2441 00ec 6364     		str	r3, [r4, #68]
 2442              	.L240:
 2443              		.loc 1 978 0
 2444 00ee 2023     		movs	r3, #32
 2445              	.LBB386:
 2446              	.LBB387:
 2447              		.loc 1 4476 0
 2448 00f0 8025     		movs	r5, #128
 2449              	.LBE387:
 2450              	.LBE386:
 2451              		.loc 1 978 0
ARM GAS  C:\Users\anashi\AppData\Local\Temp\ccFEbQrI.s 			page 44


 2452 00f2 D361     		str	r3, [r2, #28]
 2453              	.LVL182:
 2454              	.LBB390:
 2455              	.LBB388:
 2456              		.loc 1 4476 0
 2457 00f4 2D02     		lsls	r5, r5, #8
 2458              	.L242:
 2459 00f6 731C     		adds	r3, r6, #1
 2460 00f8 43D1     		bne	.L245
 2461 00fa 8021     		movs	r1, #128
 2462 00fc 0902     		lsls	r1, r1, #8
 2463              	.L246:
 2464 00fe 9369     		ldr	r3, [r2, #24]
 2465 0100 0B42     		tst	r3, r1
 2466 0102 FCD1     		bne	.L246
 2467              	.L247:
 2468              	.LVL183:
 2469              	.LBE388:
 2470              	.LBE390:
 2471              		.loc 1 989 0
 2472 0104 8023     		movs	r3, #128
 2473 0106 5168     		ldr	r1, [r2, #4]
 2474 0108 1B02     		lsls	r3, r3, #8
 2475 010a 0B43     		orrs	r3, r1
 2476 010c 5360     		str	r3, [r2, #4]
 2477              		.loc 1 991 0
 2478 010e 4123     		movs	r3, #65
 2479 0110 2022     		movs	r2, #32
 2480 0112 E254     		strb	r2, [r4, r3]
 2481              		.loc 1 992 0
 2482 0114 0023     		movs	r3, #0
 2483 0116 2232     		adds	r2, r2, #34
 2484 0118 A354     		strb	r3, [r4, r2]
 2485              		.loc 1 995 0
 2486 011a 023A     		subs	r2, r2, #2
 2487 011c A354     		strb	r3, [r4, r2]
 2488              		.loc 1 997 0
 2489 011e 0020     		movs	r0, #0
 2490 0120 BDE7     		b	.L269
 2491              	.L226:
 2492              	.LBB391:
 2493              	.LBB379:
 2494              		.loc 1 4476 0
 2495 0122 9A69     		ldr	r2, [r3, #24]
 2496 0124 1142     		tst	r1, r2
 2497 0126 FCD0     		beq	.L226
 2498              	.L227:
 2499              	.LBE379:
 2500              	.LBE391:
 2501              		.loc 1 925 0
 2502 0128 0822     		movs	r2, #8
 2503 012a DA61     		str	r2, [r3, #28]
 2504 012c A1E7     		b	.L223
 2505              	.LVL184:
 2506              	.L218:
 2507              	.LBB392:
 2508              	.LBB375:
ARM GAS  C:\Users\anashi\AppData\Local\Temp\ccFEbQrI.s 			page 45


 2509              		.loc 1 4476 0
 2510 012e 9A69     		ldr	r2, [r3, #24]
 2511 0130 1542     		tst	r5, r2
 2512 0132 41D1     		bne	.L286
 2513              		.loc 1 4481 0
 2514 0134 002E     		cmp	r6, #0
 2515 0136 07D0     		beq	.L230
 2516 0138 FFF7FEFF 		bl	HAL_GetTick
 2517              	.LVL185:
 2518 013c 4B46     		mov	r3, r9
 2519 013e C01A     		subs	r0, r0, r3
 2520 0140 2368     		ldr	r3, [r4]
 2521 0142 8642     		cmp	r6, r0
 2522 0144 00D3     		bcc	.LCB2539
 2523 0146 89E7     		b	.L215	@long jump
 2524              	.LCB2539:
 2525              	.LVL186:
 2526              	.L230:
 2527              	.LBE375:
 2528              	.LBE392:
 2529              	.LBB393:
 2530              	.LBB384:
 2531              		.loc 1 4483 0
 2532 0148 4122     		movs	r2, #65
 2533 014a 2021     		movs	r1, #32
 2534 014c A154     		strb	r1, [r4, r2]
 2535              		.loc 1 4484 0
 2536 014e 0022     		movs	r2, #0
 2537 0150 2231     		adds	r1, r1, #34
 2538 0152 6254     		strb	r2, [r4, r1]
 2539              		.loc 1 4487 0
 2540 0154 0239     		subs	r1, r1, #2
 2541 0156 6254     		strb	r2, [r4, r1]
 2542              	.LBE384:
 2543              	.LBE393:
 2544              		.loc 1 932 0
 2545 0158 8022     		movs	r2, #128
 2546 015a 5968     		ldr	r1, [r3, #4]
 2547 015c 1202     		lsls	r2, r2, #8
 2548 015e 0A43     		orrs	r2, r1
 2549 0160 5A60     		str	r2, [r3, #4]
 2550              		.loc 1 933 0
 2551 0162 0320     		movs	r0, #3
 2552 0164 9BE7     		b	.L269
 2553              	.L232:
 2554              	.LBB394:
 2555              	.LBB385:
 2556              		.loc 1 4476 0
 2557 0166 9A69     		ldr	r2, [r3, #24]
 2558 0168 2A42     		tst	r2, r5
 2559 016a ABD1     		bne	.L283
 2560              		.loc 1 4481 0
 2561 016c 002E     		cmp	r6, #0
 2562 016e EBD0     		beq	.L230
 2563 0170 FFF7FEFF 		bl	HAL_GetTick
 2564              	.LVL187:
 2565 0174 4B46     		mov	r3, r9
ARM GAS  C:\Users\anashi\AppData\Local\Temp\ccFEbQrI.s 			page 46


 2566 0176 C01A     		subs	r0, r0, r3
 2567 0178 2368     		ldr	r3, [r4]
 2568 017a 8642     		cmp	r6, r0
 2569 017c 00D3     		bcc	.LCB2587
 2570 017e 7AE7     		b	.L229	@long jump
 2571              	.LCB2587:
 2572 0180 E2E7     		b	.L230
 2573              	.LVL188:
 2574              	.L245:
 2575              	.LBE385:
 2576              	.LBE394:
 2577              	.LBB395:
 2578              	.LBB389:
 2579              		.loc 1 4476 0
 2580 0182 9369     		ldr	r3, [r2, #24]
 2581 0184 2B42     		tst	r3, r5
 2582 0186 BDD0     		beq	.L247
 2583              		.loc 1 4481 0
 2584 0188 002E     		cmp	r6, #0
 2585 018a 06D0     		beq	.L244
 2586 018c FFF7FEFF 		bl	HAL_GetTick
 2587              	.LVL189:
 2588 0190 4B46     		mov	r3, r9
 2589 0192 2268     		ldr	r2, [r4]
 2590 0194 C01A     		subs	r0, r0, r3
 2591 0196 8642     		cmp	r6, r0
 2592 0198 ADD2     		bcs	.L242
 2593              	.L244:
 2594              		.loc 1 4483 0
 2595 019a 4123     		movs	r3, #65
 2596 019c 2021     		movs	r1, #32
 2597 019e E154     		strb	r1, [r4, r3]
 2598              		.loc 1 4484 0
 2599 01a0 0023     		movs	r3, #0
 2600 01a2 2231     		adds	r1, r1, #34
 2601 01a4 6354     		strb	r3, [r4, r1]
 2602              		.loc 1 4487 0
 2603 01a6 0239     		subs	r1, r1, #2
 2604 01a8 6354     		strb	r3, [r4, r1]
 2605              	.LVL190:
 2606              	.LBE389:
 2607              	.LBE395:
 2608              		.loc 1 984 0
 2609 01aa 8023     		movs	r3, #128
 2610 01ac 5168     		ldr	r1, [r2, #4]
 2611 01ae 1B02     		lsls	r3, r3, #8
 2612 01b0 0B43     		orrs	r3, r1
 2613 01b2 5360     		str	r3, [r2, #4]
 2614              	.L284:
 2615              		.loc 1 985 0
 2616 01b4 0320     		movs	r0, #3
 2617 01b6 72E7     		b	.L269
 2618              	.LVL191:
 2619              	.L286:
 2620              		.loc 1 914 0
 2621 01b8 E268     		ldr	r2, [r4, #12]
 2622              		.loc 1 911 0
ARM GAS  C:\Users\anashi\AppData\Local\Temp\ccFEbQrI.s 			page 47


 2623 01ba DD61     		str	r5, [r3, #28]
 2624              	.LBB396:
 2625              	.LBB380:
 2626              		.loc 1 4476 0
 2627 01bc 0825     		movs	r5, #8
 2628              	.LBE380:
 2629              	.LBE396:
 2630              		.loc 1 914 0
 2631 01be 022A     		cmp	r2, #2
 2632 01c0 00D0     		beq	.LCB2674
 2633 01c2 56E7     		b	.L223	@long jump
 2634              	.LCB2674:
 2635 01c4 08E0     		b	.L222
 2636              	.L228:
 2637              	.LBB397:
 2638              	.LBB381:
 2639              		.loc 1 4481 0
 2640 01c6 002E     		cmp	r6, #0
 2641 01c8 BED0     		beq	.L230
 2642 01ca FFF7FEFF 		bl	HAL_GetTick
 2643              	.LVL192:
 2644 01ce 4B46     		mov	r3, r9
 2645 01d0 C01A     		subs	r0, r0, r3
 2646 01d2 2368     		ldr	r3, [r4]
 2647 01d4 8642     		cmp	r6, r0
 2648 01d6 B7D3     		bcc	.L230
 2649              	.L222:
 2650              		.loc 1 4476 0
 2651 01d8 9A69     		ldr	r2, [r3, #24]
 2652 01da 1542     		tst	r5, r2
 2653 01dc F3D0     		beq	.L228
 2654 01de A3E7     		b	.L227
 2655              	.L288:
 2656              		.align	2
 2657              	.L287:
 2658 01e0 FF7FFFFF 		.word	-32769
 2659              	.LBE381:
 2660              	.LBE397:
 2661              		.cfi_endproc
 2662              	.LFE43:
 2663              		.size	HAL_I2C_Slave_Transmit, .-HAL_I2C_Slave_Transmit
 2664              		.section	.text.HAL_I2C_Slave_Receive,"ax",%progbits
 2665              		.align	1
 2666              		.p2align 2,,3
 2667              		.global	HAL_I2C_Slave_Receive
 2668              		.syntax unified
 2669              		.code	16
 2670              		.thumb_func
 2671              		.fpu softvfp
 2672              		.type	HAL_I2C_Slave_Receive, %function
 2673              	HAL_I2C_Slave_Receive:
 2674              	.LFB44:
 2675              		.loc 1 1015 0
 2676              		.cfi_startproc
 2677              		@ args = 0, pretend = 0, frame = 0
 2678              		@ frame_needed = 0, uses_anonymous_args = 0
 2679              	.LVL193:
ARM GAS  C:\Users\anashi\AppData\Local\Temp\ccFEbQrI.s 			page 48


 2680 0000 F8B5     		push	{r3, r4, r5, r6, r7, lr}
 2681              		.cfi_def_cfa_offset 24
 2682              		.cfi_offset 3, -24
 2683              		.cfi_offset 4, -20
 2684              		.cfi_offset 5, -16
 2685              		.cfi_offset 6, -12
 2686              		.cfi_offset 7, -8
 2687              		.cfi_offset 14, -4
 2688 0002 5746     		mov	r7, r10
 2689 0004 4546     		mov	r5, r8
 2690 0006 DE46     		mov	lr, fp
 2691 0008 4E46     		mov	r6, r9
 2692 000a E0B5     		push	{r5, r6, r7, lr}
 2693              		.cfi_def_cfa_offset 40
 2694              		.cfi_offset 8, -40
 2695              		.cfi_offset 9, -36
 2696              		.cfi_offset 10, -32
 2697              		.cfi_offset 11, -28
 2698              		.loc 1 1015 0
 2699 000c 1D00     		movs	r5, r3
 2700              		.loc 1 1018 0
 2701 000e 4123     		movs	r3, #65
 2702              	.LVL194:
 2703 0010 C75C     		ldrb	r7, [r0, r3]
 2704 0012 9946     		mov	r9, r3
 2705 0014 FFB2     		uxtb	r7, r7
 2706              		.loc 1 1132 0
 2707 0016 3F3B     		subs	r3, r3, #63
 2708              		.loc 1 1015 0
 2709 0018 0400     		movs	r4, r0
 2710 001a 8A46     		mov	r10, r1
 2711 001c 9346     		mov	fp, r2
 2712              		.loc 1 1132 0
 2713 001e 9846     		mov	r8, r3
 2714              		.loc 1 1018 0
 2715 0020 202F     		cmp	r7, #32
 2716 0022 00D0     		beq	.LCB2747
 2717 0024 8FE0     		b	.L290	@long jump
 2718              	.LCB2747:
 2719              		.loc 1 1020 0
 2720 0026 0029     		cmp	r1, #0
 2721 0028 00D1     		bne	.LCB2749
 2722 002a 8AE0     		b	.L291	@long jump
 2723              	.LCB2749:
 2724              		.loc 1 1020 0 is_stmt 0 discriminator 1
 2725 002c 002A     		cmp	r2, #0
 2726 002e 00D1     		bne	.LCB2751
 2727 0030 87E0     		b	.L291	@long jump
 2728              	.LCB2751:
 2729              		.loc 1 1025 0 is_stmt 1
 2730 0032 4023     		movs	r3, #64
 2731 0034 C25C     		ldrb	r2, [r0, r3]
 2732              	.LVL195:
 2733 0036 012A     		cmp	r2, #1
 2734 0038 00D1     		bne	.LCB2756
 2735 003a 84E0     		b	.L290	@long jump
 2736              	.LCB2756:
ARM GAS  C:\Users\anashi\AppData\Local\Temp\ccFEbQrI.s 			page 49


 2737              		.loc 1 1025 0 is_stmt 0 discriminator 2
 2738 003c 0122     		movs	r2, #1
 2739 003e C254     		strb	r2, [r0, r3]
 2740              		.loc 1 1028 0 is_stmt 1 discriminator 2
 2741 0040 FFF7FEFF 		bl	HAL_GetTick
 2742              	.LVL196:
 2743              		.loc 1 1030 0 discriminator 2
 2744 0044 2223     		movs	r3, #34
 2745 0046 4A46     		mov	r2, r9
 2746 0048 A354     		strb	r3, [r4, r2]
 2747              		.loc 1 1035 0 discriminator 2
 2748 004a 5246     		mov	r2, r10
 2749              		.loc 1 1031 0 discriminator 2
 2750 004c 2033     		adds	r3, r3, #32
 2751 004e E754     		strb	r7, [r4, r3]
 2752              		.loc 1 1032 0 discriminator 2
 2753 0050 0023     		movs	r3, #0
 2754              		.loc 1 1035 0 discriminator 2
 2755 0052 6262     		str	r2, [r4, #36]
 2756              		.loc 1 1036 0 discriminator 2
 2757 0054 5A46     		mov	r2, fp
 2758              		.loc 1 1028 0 discriminator 2
 2759 0056 0600     		movs	r6, r0
 2760              	.LVL197:
 2761              		.loc 1 1032 0 discriminator 2
 2762 0058 6364     		str	r3, [r4, #68]
 2763              		.loc 1 1037 0 discriminator 2
 2764 005a 6363     		str	r3, [r4, #52]
 2765              		.loc 1 1040 0 discriminator 2
 2766 005c 2368     		ldr	r3, [r4]
 2767              		.loc 1 1036 0 discriminator 2
 2768 005e 6285     		strh	r2, [r4, #42]
 2769              		.loc 1 1040 0 discriminator 2
 2770 0060 5A68     		ldr	r2, [r3, #4]
 2771 0062 8D49     		ldr	r1, .L384
 2772              	.LBB412:
 2773              	.LBB413:
 2774              		.loc 1 4476 0 discriminator 2
 2775 0064 183F     		subs	r7, r7, #24
 2776              	.LBE413:
 2777              	.LBE412:
 2778              		.loc 1 1040 0 discriminator 2
 2779 0066 0A40     		ands	r2, r1
 2780 0068 5A60     		str	r2, [r3, #4]
 2781              	.LVL198:
 2782              	.L292:
 2783 006a 6A1C     		adds	r2, r5, #1
 2784 006c 00D0     		beq	.LCB2798
 2785 006e 9FE0     		b	.L295	@long jump
 2786              	.LCB2798:
 2787              	.LBB416:
 2788              	.LBB414:
 2789              		.loc 1 4476 0
 2790 0070 0821     		movs	r1, #8
 2791              	.L296:
 2792 0072 9A69     		ldr	r2, [r3, #24]
 2793 0074 1142     		tst	r1, r2
ARM GAS  C:\Users\anashi\AppData\Local\Temp\ccFEbQrI.s 			page 50


 2794 0076 FCD0     		beq	.L296
 2795              	.L297:
 2796              	.LVL199:
 2797              	.LBE414:
 2798              	.LBE416:
 2799              		.loc 1 1051 0
 2800 0078 0822     		movs	r2, #8
 2801              	.LBB417:
 2802              	.LBB418:
 2803              		.loc 1 4476 0
 2804 007a 8027     		movs	r7, #128
 2805              	.LBE418:
 2806              	.LBE417:
 2807              		.loc 1 1051 0
 2808 007c DA61     		str	r2, [r3, #28]
 2809              	.LVL200:
 2810              	.LBB421:
 2811              	.LBB419:
 2812              		.loc 1 4476 0
 2813 007e 7F02     		lsls	r7, r7, #9
 2814              	.L299:
 2815 0080 6A1C     		adds	r2, r5, #1
 2816 0082 00D0     		beq	.LCB2837
 2817 0084 C0E0     		b	.L302	@long jump
 2818              	.LCB2837:
 2819 0086 8021     		movs	r1, #128
 2820 0088 4902     		lsls	r1, r1, #9
 2821              	.L303:
 2822 008a 9A69     		ldr	r2, [r3, #24]
 2823 008c 0A42     		tst	r2, r1
 2824 008e FCD1     		bne	.L303
 2825              	.L304:
 2826              	.LBE419:
 2827              	.LBE421:
 2828              	.LBB422:
 2829              	.LBB423:
 2830              		.loc 1 4576 0
 2831 0090 0421     		movs	r1, #4
 2832              	.LBE423:
 2833              	.LBE422:
 2834              		.loc 1 1061 0
 2835 0092 628D     		ldrh	r2, [r4, #42]
 2836              	.LBB443:
 2837              	.LBB438:
 2838              		.loc 1 4576 0
 2839 0094 8846     		mov	r8, r1
 2840              	.LBB424:
 2841              	.LBB425:
 2842              		.loc 1 4628 0
 2843 0096 0C31     		adds	r1, r1, #12
 2844 0098 8946     		mov	r9, r1
 2845              	.LBE425:
 2846              	.LBE424:
 2847              	.LBE438:
 2848              	.LBE443:
 2849              		.loc 1 1061 0
 2850 009a 002A     		cmp	r2, #0
ARM GAS  C:\Users\anashi\AppData\Local\Temp\ccFEbQrI.s 			page 51


 2851 009c 00D1     		bne	.LCB2868
 2852 009e C1E0     		b	.L331	@long jump
 2853              	.LCB2868:
 2854              	.L328:
 2855 00a0 002D     		cmp	r5, #0
 2856 00a2 00D1     		bne	.LCB2871
 2857 00a4 70E0     		b	.L318	@long jump
 2858              	.LCB2871:
 2859              	.LBB444:
 2860              	.LBB439:
 2861              		.loc 1 4585 0
 2862 00a6 2027     		movs	r7, #32
 2863 00a8 0AE0     		b	.L323
 2864              	.LVL201:
 2865              	.L382:
 2866 00aa 9A69     		ldr	r2, [r3, #24]
 2867 00ac 1742     		tst	r7, r2
 2868 00ae 00D0     		beq	.LCB2891
 2869 00b0 9BE0     		b	.L321	@long jump
 2870              	.LCB2891:
 2871              		.loc 1 4604 0
 2872 00b2 FFF7FEFF 		bl	HAL_GetTick
 2873              	.LVL202:
 2874 00b6 2368     		ldr	r3, [r4]
 2875 00b8 801B     		subs	r0, r0, r6
 2876 00ba 8542     		cmp	r5, r0
 2877 00bc 00D2     		bcs	.LCB2897
 2878 00be 6DE0     		b	.L317	@long jump
 2879              	.LCB2897:
 2880              	.LVL203:
 2881              	.L323:
 2882              		.loc 1 4576 0
 2883 00c0 4146     		mov	r1, r8
 2884 00c2 9A69     		ldr	r2, [r3, #24]
 2885 00c4 1142     		tst	r1, r2
 2886 00c6 51D1     		bne	.L319
 2887              	.LVL204:
 2888              	.LBB435:
 2889              	.LBB432:
 2890              		.loc 1 4628 0
 2891 00c8 4946     		mov	r1, r9
 2892 00ca 9A69     		ldr	r2, [r3, #24]
 2893 00cc 1142     		tst	r1, r2
 2894 00ce ECD0     		beq	.L382
 2895              	.LVL205:
 2896              	.L320:
 2897              	.LBB426:
 2898              	.LBB427:
 2899              		.loc 1 4632 0
 2900 00d0 2027     		movs	r7, #32
 2901              	.L307:
 2902 00d2 6A1C     		adds	r2, r5, #1
 2903 00d4 3ED1     		bne	.L311
 2904 00d6 2021     		movs	r1, #32
 2905              	.L312:
 2906 00d8 9A69     		ldr	r2, [r3, #24]
 2907 00da 1142     		tst	r1, r2
ARM GAS  C:\Users\anashi\AppData\Local\Temp\ccFEbQrI.s 			page 52


 2908 00dc FCD0     		beq	.L312
 2909              	.L313:
 2910              		.loc 1 4650 0
 2911 00de 1022     		movs	r2, #16
 2912 00e0 DA61     		str	r2, [r3, #28]
 2913              		.loc 1 4653 0
 2914 00e2 1032     		adds	r2, r2, #16
 2915 00e4 DA61     		str	r2, [r3, #28]
 2916              	.LVL206:
 2917              	.LBB428:
 2918              	.LBB429:
 2919              		.loc 1 4290 0
 2920 00e6 9A69     		ldr	r2, [r3, #24]
 2921 00e8 9207     		lsls	r2, r2, #30
 2922 00ea 01D5     		bpl	.L315
 2923              		.loc 1 4292 0
 2924 00ec 0022     		movs	r2, #0
 2925 00ee 9A62     		str	r2, [r3, #40]
 2926              	.L315:
 2927              		.loc 1 4296 0
 2928 00f0 0122     		movs	r2, #1
 2929 00f2 9969     		ldr	r1, [r3, #24]
 2930 00f4 0A42     		tst	r2, r1
 2931 00f6 02D1     		bne	.L316
 2932              		.loc 1 4298 0
 2933 00f8 9969     		ldr	r1, [r3, #24]
 2934 00fa 0A43     		orrs	r2, r1
 2935 00fc 9A61     		str	r2, [r3, #24]
 2936              	.L316:
 2937              	.LVL207:
 2938              	.LBE429:
 2939              	.LBE428:
 2940              		.loc 1 4659 0
 2941 00fe 5A68     		ldr	r2, [r3, #4]
 2942 0100 6649     		ldr	r1, .L384+4
 2943 0102 0A40     		ands	r2, r1
 2944 0104 5A60     		str	r2, [r3, #4]
 2945              		.loc 1 4661 0
 2946 0106 0422     		movs	r2, #4
 2947 0108 6264     		str	r2, [r4, #68]
 2948              	.L308:
 2949              		.loc 1 4639 0
 2950 010a 4122     		movs	r2, #65
 2951 010c 2021     		movs	r1, #32
 2952 010e A154     		strb	r1, [r4, r2]
 2953              		.loc 1 4640 0
 2954 0110 0022     		movs	r2, #0
 2955 0112 2231     		adds	r1, r1, #34
 2956 0114 6254     		strb	r2, [r4, r1]
 2957              		.loc 1 4643 0
 2958 0116 0239     		subs	r1, r1, #2
 2959 0118 6254     		strb	r2, [r4, r1]
 2960              	.L310:
 2961              	.LBE427:
 2962              	.LBE426:
 2963              	.LBE432:
 2964              	.LBE435:
ARM GAS  C:\Users\anashi\AppData\Local\Temp\ccFEbQrI.s 			page 53


 2965              	.LBE439:
 2966              	.LBE444:
 2967              		.loc 1 1067 0
 2968 011a 8022     		movs	r2, #128
 2969 011c 5968     		ldr	r1, [r3, #4]
 2970 011e 1202     		lsls	r2, r2, #8
 2971 0120 0A43     		orrs	r2, r1
 2972 0122 5A60     		str	r2, [r3, #4]
 2973              		.loc 1 1070 0
 2974 0124 9A69     		ldr	r2, [r3, #24]
 2975 0126 5207     		lsls	r2, r2, #29
 2976 0128 08D5     		bpl	.L329
 2977              		.loc 1 1073 0
 2978 012a 5A6A     		ldr	r2, [r3, #36]
 2979 012c 636A     		ldr	r3, [r4, #36]
 2980 012e 591C     		adds	r1, r3, #1
 2981 0130 6162     		str	r1, [r4, #36]
 2982 0132 1A70     		strb	r2, [r3]
 2983              		.loc 1 1074 0
 2984 0134 638D     		ldrh	r3, [r4, #42]
 2985 0136 013B     		subs	r3, r3, #1
 2986 0138 9BB2     		uxth	r3, r3
 2987 013a 6385     		strh	r3, [r4, #42]
 2988              	.L329:
 2989              		.loc 1 1077 0
 2990 013c 636C     		ldr	r3, [r4, #68]
 2991 013e 202B     		cmp	r3, #32
 2992 0140 50D0     		beq	.L381
 2993              	.LVL208:
 2994              	.L291:
 2995              		.loc 1 1083 0
 2996 0142 0123     		movs	r3, #1
 2997 0144 9846     		mov	r8, r3
 2998              	.L290:
 2999              		.loc 1 1134 0
 3000 0146 4046     		mov	r0, r8
 3001              		@ sp needed
 3002              	.LVL209:
 3003              	.LVL210:
 3004              	.LVL211:
 3005 0148 3CBC     		pop	{r2, r3, r4, r5}
 3006 014a 9046     		mov	r8, r2
 3007 014c 9946     		mov	r9, r3
 3008 014e A246     		mov	r10, r4
 3009 0150 AB46     		mov	fp, r5
 3010 0152 F8BD     		pop	{r3, r4, r5, r6, r7, pc}
 3011              	.LVL212:
 3012              	.L311:
 3013              	.LBB445:
 3014              	.LBB440:
 3015              	.LBB436:
 3016              	.LBB433:
 3017              	.LBB431:
 3018              	.LBB430:
 3019              		.loc 1 4632 0
 3020 0154 9A69     		ldr	r2, [r3, #24]
 3021 0156 1742     		tst	r7, r2
ARM GAS  C:\Users\anashi\AppData\Local\Temp\ccFEbQrI.s 			page 54


 3022 0158 C1D1     		bne	.L313
 3023              		.loc 1 4637 0
 3024 015a 002D     		cmp	r5, #0
 3025 015c D5D0     		beq	.L308
 3026 015e FFF7FEFF 		bl	HAL_GetTick
 3027              	.LVL213:
 3028 0162 2368     		ldr	r3, [r4]
 3029 0164 801B     		subs	r0, r0, r6
 3030 0166 8542     		cmp	r5, r0
 3031 0168 B3D2     		bcs	.L307
 3032 016a CEE7     		b	.L308
 3033              	.LVL214:
 3034              	.L319:
 3035              	.LBE430:
 3036              	.LBE431:
 3037              	.LBE433:
 3038              	.LBE436:
 3039              	.LBE440:
 3040              	.LBE445:
 3041              		.loc 1 1088 0
 3042 016c 5A6A     		ldr	r2, [r3, #36]
 3043 016e 636A     		ldr	r3, [r4, #36]
 3044 0170 591C     		adds	r1, r3, #1
 3045 0172 6162     		str	r1, [r4, #36]
 3046 0174 1A70     		strb	r2, [r3]
 3047              		.loc 1 1089 0
 3048 0176 638D     		ldrh	r3, [r4, #42]
 3049 0178 013B     		subs	r3, r3, #1
 3050 017a 9BB2     		uxth	r3, r3
 3051 017c 6385     		strh	r3, [r4, #42]
 3052              		.loc 1 1061 0
 3053 017e 638D     		ldrh	r3, [r4, #42]
 3054 0180 002B     		cmp	r3, #0
 3055 0182 4FD0     		beq	.L331
 3056 0184 2368     		ldr	r3, [r4]
 3057 0186 8BE7     		b	.L328
 3058              	.L318:
 3059              	.LBB446:
 3060              	.LBB441:
 3061              		.loc 1 4576 0
 3062 0188 4146     		mov	r1, r8
 3063 018a 9A69     		ldr	r2, [r3, #24]
 3064 018c 1142     		tst	r1, r2
 3065 018e EDD1     		bne	.L319
 3066              	.LVL215:
 3067              	.LBB437:
 3068              	.LBB434:
 3069              		.loc 1 4628 0
 3070 0190 9A69     		ldr	r2, [r3, #24]
 3071 0192 D206     		lsls	r2, r2, #27
 3072 0194 9CD4     		bmi	.L320
 3073              	.LBE434:
 3074              	.LBE437:
 3075              		.loc 1 4585 0
 3076 0196 9A69     		ldr	r2, [r3, #24]
 3077 0198 9206     		lsls	r2, r2, #26
 3078 019a 26D4     		bmi	.L321
ARM GAS  C:\Users\anashi\AppData\Local\Temp\ccFEbQrI.s 			page 55


 3079              	.LVL216:
 3080              	.L317:
 3081              		.loc 1 4606 0
 3082 019c 2021     		movs	r1, #32
 3083 019e 626C     		ldr	r2, [r4, #68]
 3084 01a0 0A43     		orrs	r2, r1
 3085 01a2 6264     		str	r2, [r4, #68]
 3086              		.loc 1 4607 0
 3087 01a4 4122     		movs	r2, #65
 3088 01a6 A154     		strb	r1, [r4, r2]
 3089              		.loc 1 4610 0
 3090 01a8 0021     		movs	r1, #0
 3091 01aa 013A     		subs	r2, r2, #1
 3092 01ac A154     		strb	r1, [r4, r2]
 3093 01ae B4E7     		b	.L310
 3094              	.LVL217:
 3095              	.L295:
 3096              	.LBE441:
 3097              	.LBE446:
 3098              	.LBB447:
 3099              	.LBB415:
 3100              		.loc 1 4476 0
 3101 01b0 9A69     		ldr	r2, [r3, #24]
 3102 01b2 1742     		tst	r7, r2
 3103 01b4 00D0     		beq	.LCB3203
 3104 01b6 5FE7     		b	.L297	@long jump
 3105              	.LCB3203:
 3106              		.loc 1 4481 0
 3107 01b8 002D     		cmp	r5, #0
 3108 01ba 06D0     		beq	.L334
 3109 01bc FFF7FEFF 		bl	HAL_GetTick
 3110              	.LVL218:
 3111 01c0 2368     		ldr	r3, [r4]
 3112 01c2 801B     		subs	r0, r0, r6
 3113 01c4 8542     		cmp	r5, r0
 3114 01c6 00D3     		bcc	.LCB3211
 3115 01c8 4FE7     		b	.L292	@long jump
 3116              	.LCB3211:
 3117              	.LVL219:
 3118              	.L334:
 3119              	.LBE415:
 3120              	.LBE447:
 3121              	.LBB448:
 3122              	.LBB449:
 3123              		.loc 1 4483 0
 3124 01ca 4122     		movs	r2, #65
 3125 01cc 2021     		movs	r1, #32
 3126 01ce A154     		strb	r1, [r4, r2]
 3127              		.loc 1 4484 0
 3128 01d0 0022     		movs	r2, #0
 3129 01d2 2231     		adds	r1, r1, #34
 3130 01d4 6254     		strb	r2, [r4, r1]
 3131              		.loc 1 4487 0
 3132 01d6 0239     		subs	r1, r1, #2
 3133 01d8 6254     		strb	r2, [r4, r1]
 3134              	.LBE449:
 3135              	.LBE448:
ARM GAS  C:\Users\anashi\AppData\Local\Temp\ccFEbQrI.s 			page 56


 3136              		.loc 1 1115 0
 3137 01da 8022     		movs	r2, #128
 3138 01dc 5968     		ldr	r1, [r3, #4]
 3139 01de 1202     		lsls	r2, r2, #8
 3140 01e0 0A43     		orrs	r2, r1
 3141 01e2 5A60     		str	r2, [r3, #4]
 3142              	.L381:
 3143              		.loc 1 1116 0
 3144 01e4 0323     		movs	r3, #3
 3145 01e6 9846     		mov	r8, r3
 3146 01e8 ADE7     		b	.L290
 3147              	.LVL220:
 3148              	.L321:
 3149              	.LBB454:
 3150              	.LBB442:
 3151              		.loc 1 4588 0
 3152 01ea 2021     		movs	r1, #32
 3153 01ec D961     		str	r1, [r3, #28]
 3154              		.loc 1 4591 0
 3155 01ee 5A68     		ldr	r2, [r3, #4]
 3156 01f0 2A48     		ldr	r0, .L384+4
 3157 01f2 0240     		ands	r2, r0
 3158 01f4 5A60     		str	r2, [r3, #4]
 3159              		.loc 1 4594 0
 3160 01f6 4120     		movs	r0, #65
 3161              		.loc 1 4593 0
 3162 01f8 0022     		movs	r2, #0
 3163 01fa 6264     		str	r2, [r4, #68]
 3164              		.loc 1 4594 0
 3165 01fc 2154     		strb	r1, [r4, r0]
 3166              		.loc 1 4595 0
 3167 01fe 2231     		adds	r1, r1, #34
 3168 0200 6254     		strb	r2, [r4, r1]
 3169              		.loc 1 4598 0
 3170 0202 0239     		subs	r1, r1, #2
 3171 0204 6254     		strb	r2, [r4, r1]
 3172 0206 88E7     		b	.L310
 3173              	.LVL221:
 3174              	.L302:
 3175              	.LBE442:
 3176              	.LBE454:
 3177              	.LBB455:
 3178              	.LBB420:
 3179              		.loc 1 4476 0
 3180 0208 9A69     		ldr	r2, [r3, #24]
 3181 020a 3A42     		tst	r2, r7
 3182 020c 00D1     		bne	.LCB3289
 3183 020e 3FE7     		b	.L304	@long jump
 3184              	.LCB3289:
 3185              		.loc 1 4481 0
 3186 0210 002D     		cmp	r5, #0
 3187 0212 DAD0     		beq	.L334
 3188 0214 FFF7FEFF 		bl	HAL_GetTick
 3189              	.LVL222:
 3190 0218 2368     		ldr	r3, [r4]
 3191 021a 801B     		subs	r0, r0, r6
 3192 021c 8542     		cmp	r5, r0
ARM GAS  C:\Users\anashi\AppData\Local\Temp\ccFEbQrI.s 			page 57


 3193 021e 00D3     		bcc	.LCB3297
 3194 0220 2EE7     		b	.L299	@long jump
 3195              	.LCB3297:
 3196 0222 D2E7     		b	.L334
 3197              	.L331:
 3198              	.LBE420:
 3199              	.LBE455:
 3200              		.loc 1 1093 0
 3201 0224 3200     		movs	r2, r6
 3202 0226 2900     		movs	r1, r5
 3203 0228 2000     		movs	r0, r4
 3204 022a FFF7FEFF 		bl	I2C_WaitOnSTOPFlagUntilTimeout
 3205              	.LVL223:
 3206 022e 8046     		mov	r8, r0
 3207 0230 0028     		cmp	r0, #0
 3208 0232 0AD0     		beq	.L383
 3209              		.loc 1 1096 0
 3210 0234 8023     		movs	r3, #128
 3211 0236 2268     		ldr	r2, [r4]
 3212 0238 1B02     		lsls	r3, r3, #8
 3213 023a 5168     		ldr	r1, [r2, #4]
 3214 023c 0B43     		orrs	r3, r1
 3215 023e 5360     		str	r3, [r2, #4]
 3216              		.loc 1 1098 0
 3217 0240 636C     		ldr	r3, [r4, #68]
 3218 0242 042B     		cmp	r3, #4
 3219 0244 00D1     		bne	.LCB3324
 3220 0246 7CE7     		b	.L291	@long jump
 3221              	.LCB3324:
 3222 0248 CCE7     		b	.L381
 3223              	.L383:
 3224              		.loc 1 1109 0
 3225 024a 2022     		movs	r2, #32
 3226              	.LBB456:
 3227              	.LBB450:
 3228              		.loc 1 4476 0
 3229 024c 8027     		movs	r7, #128
 3230              	.LBE450:
 3231              	.LBE456:
 3232              		.loc 1 1109 0
 3233 024e 2368     		ldr	r3, [r4]
 3234              	.LBB457:
 3235              	.LBB451:
 3236              		.loc 1 4476 0
 3237 0250 3F02     		lsls	r7, r7, #8
 3238              	.LBE451:
 3239              	.LBE457:
 3240              		.loc 1 1109 0
 3241 0252 DA61     		str	r2, [r3, #28]
 3242              	.LVL224:
 3243              	.L332:
 3244 0254 6A1C     		adds	r2, r5, #1
 3245 0256 12D1     		bne	.L335
 3246              	.LBB458:
 3247              	.LBB452:
 3248              		.loc 1 4476 0
 3249 0258 8021     		movs	r1, #128
ARM GAS  C:\Users\anashi\AppData\Local\Temp\ccFEbQrI.s 			page 58


 3250 025a 0902     		lsls	r1, r1, #8
 3251              	.L336:
 3252 025c 9A69     		ldr	r2, [r3, #24]
 3253 025e 0A42     		tst	r2, r1
 3254 0260 FCD1     		bne	.L336
 3255              	.L337:
 3256              	.LVL225:
 3257              	.LBE452:
 3258              	.LBE458:
 3259              		.loc 1 1120 0
 3260 0262 8022     		movs	r2, #128
 3261 0264 5968     		ldr	r1, [r3, #4]
 3262 0266 1202     		lsls	r2, r2, #8
 3263 0268 0A43     		orrs	r2, r1
 3264 026a 5A60     		str	r2, [r3, #4]
 3265              		.loc 1 1122 0
 3266 026c 4123     		movs	r3, #65
 3267 026e 2022     		movs	r2, #32
 3268 0270 E254     		strb	r2, [r4, r3]
 3269              		.loc 1 1123 0
 3270 0272 0023     		movs	r3, #0
 3271 0274 2232     		adds	r2, r2, #34
 3272 0276 A354     		strb	r3, [r4, r2]
 3273              		.loc 1 1126 0
 3274 0278 023A     		subs	r2, r2, #2
 3275 027a A354     		strb	r3, [r4, r2]
 3276              		.loc 1 1128 0
 3277 027c 63E7     		b	.L290
 3278              	.LVL226:
 3279              	.L335:
 3280              	.LBB459:
 3281              	.LBB453:
 3282              		.loc 1 4476 0
 3283 027e 9A69     		ldr	r2, [r3, #24]
 3284 0280 3A42     		tst	r2, r7
 3285 0282 EED0     		beq	.L337
 3286              		.loc 1 4481 0
 3287 0284 002D     		cmp	r5, #0
 3288 0286 A0D0     		beq	.L334
 3289 0288 FFF7FEFF 		bl	HAL_GetTick
 3290              	.LVL227:
 3291 028c 2368     		ldr	r3, [r4]
 3292 028e 801B     		subs	r0, r0, r6
 3293 0290 8542     		cmp	r5, r0
 3294 0292 DFD2     		bcs	.L332
 3295 0294 99E7     		b	.L334
 3296              	.L385:
 3297 0296 C046     		.align	2
 3298              	.L384:
 3299 0298 FF7FFFFF 		.word	-32769
 3300 029c 00E800FE 		.word	-33495040
 3301              	.LBE453:
 3302              	.LBE459:
 3303              		.cfi_endproc
 3304              	.LFE44:
 3305              		.size	HAL_I2C_Slave_Receive, .-HAL_I2C_Slave_Receive
 3306              		.section	.text.HAL_I2C_Master_Transmit_IT,"ax",%progbits
ARM GAS  C:\Users\anashi\AppData\Local\Temp\ccFEbQrI.s 			page 59


 3307              		.align	1
 3308              		.p2align 2,,3
 3309              		.global	HAL_I2C_Master_Transmit_IT
 3310              		.syntax unified
 3311              		.code	16
 3312              		.thumb_func
 3313              		.fpu softvfp
 3314              		.type	HAL_I2C_Master_Transmit_IT, %function
 3315              	HAL_I2C_Master_Transmit_IT:
 3316              	.LFB45:
 3317              		.loc 1 1147 0
 3318              		.cfi_startproc
 3319              		@ args = 0, pretend = 0, frame = 0
 3320              		@ frame_needed = 0, uses_anonymous_args = 0
 3321              	.LVL228:
 3322 0000 F0B5     		push	{r4, r5, r6, r7, lr}
 3323              		.cfi_def_cfa_offset 20
 3324              		.cfi_offset 4, -20
 3325              		.cfi_offset 5, -16
 3326              		.cfi_offset 6, -12
 3327              		.cfi_offset 7, -8
 3328              		.cfi_offset 14, -4
 3329 0002 C646     		mov	lr, r8
 3330              		.loc 1 1150 0
 3331 0004 4127     		movs	r7, #65
 3332              		.loc 1 1147 0
 3333 0006 00B5     		push	{lr}
 3334              		.cfi_def_cfa_offset 24
 3335              		.cfi_offset 8, -24
 3336              		.loc 1 1150 0
 3337 0008 C45D     		ldrb	r4, [r0, r7]
 3338              		.loc 1 1147 0
 3339 000a 9846     		mov	r8, r3
 3340              		.loc 1 1201 0
 3341 000c 0225     		movs	r5, #2
 3342              		.loc 1 1150 0
 3343 000e 202C     		cmp	r4, #32
 3344 0010 34D1     		bne	.L387
 3345              		.loc 1 1152 0
 3346 0012 8023     		movs	r3, #128
 3347              	.LVL229:
 3348 0014 0668     		ldr	r6, [r0]
 3349 0016 1B02     		lsls	r3, r3, #8
 3350 0018 B469     		ldr	r4, [r6, #24]
 3351 001a 1C40     		ands	r4, r3
 3352 001c 2ED1     		bne	.L387
 3353              		.loc 1 1158 0
 3354 001e 4023     		movs	r3, #64
 3355 0020 C35C     		ldrb	r3, [r0, r3]
 3356 0022 012B     		cmp	r3, #1
 3357 0024 2AD0     		beq	.L387
 3358              		.loc 1 1166 0 discriminator 2
 3359 0026 4346     		mov	r3, r8
 3360              		.loc 1 1160 0 discriminator 2
 3361 0028 1F35     		adds	r5, r5, #31
 3362 002a C555     		strb	r5, [r0, r7]
 3363              		.loc 1 1161 0 discriminator 2
ARM GAS  C:\Users\anashi\AppData\Local\Temp\ccFEbQrI.s 			page 60


 3364 002c 2135     		adds	r5, r5, #33
 3365 002e 313F     		subs	r7, r7, #49
 3366 0030 4755     		strb	r7, [r0, r5]
 3367              		.loc 1 1162 0 discriminator 2
 3368 0032 4464     		str	r4, [r0, #68]
 3369              		.loc 1 1166 0 discriminator 2
 3370 0034 4385     		strh	r3, [r0, #42]
 3371              		.loc 1 1167 0 discriminator 2
 3372 0036 164B     		ldr	r3, .L393
 3373              		.loc 1 1165 0 discriminator 2
 3374 0038 4262     		str	r2, [r0, #36]
 3375              		.loc 1 1167 0 discriminator 2
 3376 003a C362     		str	r3, [r0, #44]
 3377              		.loc 1 1168 0 discriminator 2
 3378 003c 154B     		ldr	r3, .L393+4
 3379 003e 4363     		str	r3, [r0, #52]
 3380              		.loc 1 1170 0 discriminator 2
 3381 0040 438D     		ldrh	r3, [r0, #42]
 3382 0042 FF2B     		cmp	r3, #255
 3383 0044 1ED8     		bhi	.L392
 3384              		.loc 1 1178 0
 3385 0046 8025     		movs	r5, #128
 3386              		.loc 1 1177 0
 3387 0048 428D     		ldrh	r2, [r0, #42]
 3388              	.LVL230:
 3389              		.loc 1 1178 0
 3390 004a AD04     		lsls	r5, r5, #18
 3391              		.loc 1 1177 0
 3392 004c 92B2     		uxth	r2, r2
 3393              	.LVL231:
 3394 004e D4B2     		uxtb	r4, r2
 3395 0050 2404     		lsls	r4, r4, #16
 3396              	.LVL232:
 3397              	.L388:
 3398 0052 8023     		movs	r3, #128
 3399 0054 8905     		lsls	r1, r1, #22
 3400              	.LVL233:
 3401 0056 890D     		lsrs	r1, r1, #22
 3402 0058 9B01     		lsls	r3, r3, #6
 3403 005a 0285     		strh	r2, [r0, #40]
 3404              	.LVL234:
 3405 005c 0B43     		orrs	r3, r1
 3406              	.LBB460:
 3407              	.LBB461:
 3408              		.loc 1 4702 0
 3409 005e 7268     		ldr	r2, [r6, #4]
 3410              	.LVL235:
 3411              		.loc 1 4705 0
 3412 0060 0D49     		ldr	r1, .L393+8
 3413 0062 1140     		ands	r1, r2
 3414              	.LVL236:
 3415 0064 0B43     		orrs	r3, r1
 3416 0066 2B43     		orrs	r3, r5
 3417              		.loc 1 4708 0
 3418 0068 2343     		orrs	r3, r4
 3419              	.LVL237:
 3420              		.loc 1 4712 0
ARM GAS  C:\Users\anashi\AppData\Local\Temp\ccFEbQrI.s 			page 61


 3421 006a 7360     		str	r3, [r6, #4]
 3422              	.LVL238:
 3423              	.LBE461:
 3424              	.LBE460:
 3425              		.loc 1 1186 0
 3426 006c 0022     		movs	r2, #0
 3427 006e 4023     		movs	r3, #64
 3428              		.loc 1 1197 0
 3429 0070 0025     		movs	r5, #0
 3430              	.LVL239:
 3431              		.loc 1 1186 0
 3432 0072 C254     		strb	r2, [r0, r3]
 3433              	.LVL240:
 3434              	.LBB462:
 3435              	.LBB463:
 3436              		.loc 1 4783 0
 3437 0074 3368     		ldr	r3, [r6]
 3438 0076 F232     		adds	r2, r2, #242
 3439 0078 1343     		orrs	r3, r2
 3440 007a 3360     		str	r3, [r6]
 3441              	.LVL241:
 3442              	.L387:
 3443              	.LBE463:
 3444              	.LBE462:
 3445              		.loc 1 1203 0
 3446 007c 2800     		movs	r0, r5
 3447              	.LVL242:
 3448              		@ sp needed
 3449 007e 04BC     		pop	{r2}
 3450 0080 9046     		mov	r8, r2
 3451 0082 F0BD     		pop	{r4, r5, r6, r7, pc}
 3452              	.LVL243:
 3453              	.L392:
 3454 0084 FF24     		movs	r4, #255
 3455              		.loc 1 1173 0
 3456 0086 8025     		movs	r5, #128
 3457 0088 2404     		lsls	r4, r4, #16
 3458              		.loc 1 1172 0
 3459 008a FF22     		movs	r2, #255
 3460              	.LVL244:
 3461              		.loc 1 1173 0
 3462 008c 6D04     		lsls	r5, r5, #17
 3463 008e E0E7     		b	.L388
 3464              	.L394:
 3465              		.align	2
 3466              	.L393:
 3467 0090 0000FFFF 		.word	-65536
 3468 0094 00000000 		.word	I2C_Master_ISR_IT
 3469 0098 009800FC 		.word	-67069952
 3470              		.cfi_endproc
 3471              	.LFE45:
 3472              		.size	HAL_I2C_Master_Transmit_IT, .-HAL_I2C_Master_Transmit_IT
 3473              		.section	.text.HAL_I2C_Master_Receive_IT,"ax",%progbits
 3474              		.align	1
 3475              		.p2align 2,,3
 3476              		.global	HAL_I2C_Master_Receive_IT
 3477              		.syntax unified
ARM GAS  C:\Users\anashi\AppData\Local\Temp\ccFEbQrI.s 			page 62


 3478              		.code	16
 3479              		.thumb_func
 3480              		.fpu softvfp
 3481              		.type	HAL_I2C_Master_Receive_IT, %function
 3482              	HAL_I2C_Master_Receive_IT:
 3483              	.LFB46:
 3484              		.loc 1 1216 0
 3485              		.cfi_startproc
 3486              		@ args = 0, pretend = 0, frame = 0
 3487              		@ frame_needed = 0, uses_anonymous_args = 0
 3488              	.LVL245:
 3489 0000 F0B5     		push	{r4, r5, r6, r7, lr}
 3490              		.cfi_def_cfa_offset 20
 3491              		.cfi_offset 4, -20
 3492              		.cfi_offset 5, -16
 3493              		.cfi_offset 6, -12
 3494              		.cfi_offset 7, -8
 3495              		.cfi_offset 14, -4
 3496 0002 C646     		mov	lr, r8
 3497              		.loc 1 1219 0
 3498 0004 4127     		movs	r7, #65
 3499              		.loc 1 1216 0
 3500 0006 00B5     		push	{lr}
 3501              		.cfi_def_cfa_offset 24
 3502              		.cfi_offset 8, -24
 3503              		.loc 1 1219 0
 3504 0008 C45D     		ldrb	r4, [r0, r7]
 3505              		.loc 1 1216 0
 3506 000a 9846     		mov	r8, r3
 3507              		.loc 1 1270 0
 3508 000c 0225     		movs	r5, #2
 3509              		.loc 1 1219 0
 3510 000e 202C     		cmp	r4, #32
 3511 0010 34D1     		bne	.L396
 3512              		.loc 1 1221 0
 3513 0012 8023     		movs	r3, #128
 3514              	.LVL246:
 3515 0014 0668     		ldr	r6, [r0]
 3516 0016 1B02     		lsls	r3, r3, #8
 3517 0018 B469     		ldr	r4, [r6, #24]
 3518 001a 1C40     		ands	r4, r3
 3519 001c 2ED1     		bne	.L396
 3520              		.loc 1 1227 0
 3521 001e 4023     		movs	r3, #64
 3522 0020 C35C     		ldrb	r3, [r0, r3]
 3523 0022 012B     		cmp	r3, #1
 3524 0024 2AD0     		beq	.L396
 3525              		.loc 1 1235 0 discriminator 2
 3526 0026 4346     		mov	r3, r8
 3527              		.loc 1 1229 0 discriminator 2
 3528 0028 2035     		adds	r5, r5, #32
 3529 002a C555     		strb	r5, [r0, r7]
 3530              		.loc 1 1230 0 discriminator 2
 3531 002c 2035     		adds	r5, r5, #32
 3532 002e 313F     		subs	r7, r7, #49
 3533 0030 4755     		strb	r7, [r0, r5]
 3534              		.loc 1 1231 0 discriminator 2
ARM GAS  C:\Users\anashi\AppData\Local\Temp\ccFEbQrI.s 			page 63


 3535 0032 4464     		str	r4, [r0, #68]
 3536              		.loc 1 1235 0 discriminator 2
 3537 0034 4385     		strh	r3, [r0, #42]
 3538              		.loc 1 1236 0 discriminator 2
 3539 0036 164B     		ldr	r3, .L402
 3540              		.loc 1 1234 0 discriminator 2
 3541 0038 4262     		str	r2, [r0, #36]
 3542              		.loc 1 1236 0 discriminator 2
 3543 003a C362     		str	r3, [r0, #44]
 3544              		.loc 1 1237 0 discriminator 2
 3545 003c 154B     		ldr	r3, .L402+4
 3546 003e 4363     		str	r3, [r0, #52]
 3547              		.loc 1 1239 0 discriminator 2
 3548 0040 438D     		ldrh	r3, [r0, #42]
 3549 0042 FF2B     		cmp	r3, #255
 3550 0044 1ED8     		bhi	.L401
 3551              		.loc 1 1247 0
 3552 0046 8025     		movs	r5, #128
 3553              		.loc 1 1246 0
 3554 0048 428D     		ldrh	r2, [r0, #42]
 3555              	.LVL247:
 3556              		.loc 1 1247 0
 3557 004a AD04     		lsls	r5, r5, #18
 3558              		.loc 1 1246 0
 3559 004c 92B2     		uxth	r2, r2
 3560              	.LVL248:
 3561 004e D4B2     		uxtb	r4, r2
 3562 0050 2404     		lsls	r4, r4, #16
 3563              	.LVL249:
 3564              	.L397:
 3565 0052 9023     		movs	r3, #144
 3566 0054 8905     		lsls	r1, r1, #22
 3567              	.LVL250:
 3568 0056 890D     		lsrs	r1, r1, #22
 3569 0058 9B01     		lsls	r3, r3, #6
 3570 005a 0285     		strh	r2, [r0, #40]
 3571              	.LVL251:
 3572 005c 0B43     		orrs	r3, r1
 3573              	.LBB464:
 3574              	.LBB465:
 3575              		.loc 1 4702 0
 3576 005e 7268     		ldr	r2, [r6, #4]
 3577              	.LVL252:
 3578              		.loc 1 4705 0
 3579 0060 0D49     		ldr	r1, .L402+8
 3580 0062 1140     		ands	r1, r2
 3581              	.LVL253:
 3582 0064 0B43     		orrs	r3, r1
 3583 0066 2B43     		orrs	r3, r5
 3584              		.loc 1 4708 0
 3585 0068 2343     		orrs	r3, r4
 3586              	.LVL254:
 3587              		.loc 1 4712 0
 3588 006a 7360     		str	r3, [r6, #4]
 3589              	.LVL255:
 3590              	.LBE465:
 3591              	.LBE464:
ARM GAS  C:\Users\anashi\AppData\Local\Temp\ccFEbQrI.s 			page 64


 3592              		.loc 1 1255 0
 3593 006c 0022     		movs	r2, #0
 3594 006e 4023     		movs	r3, #64
 3595              		.loc 1 1266 0
 3596 0070 0025     		movs	r5, #0
 3597              	.LVL256:
 3598              		.loc 1 1255 0
 3599 0072 C254     		strb	r2, [r0, r3]
 3600              	.LVL257:
 3601              	.LBB466:
 3602              	.LBB467:
 3603              		.loc 1 4783 0
 3604 0074 3368     		ldr	r3, [r6]
 3605 0076 F432     		adds	r2, r2, #244
 3606 0078 1343     		orrs	r3, r2
 3607 007a 3360     		str	r3, [r6]
 3608              	.LVL258:
 3609              	.L396:
 3610              	.LBE467:
 3611              	.LBE466:
 3612              		.loc 1 1272 0
 3613 007c 2800     		movs	r0, r5
 3614              	.LVL259:
 3615              		@ sp needed
 3616 007e 04BC     		pop	{r2}
 3617 0080 9046     		mov	r8, r2
 3618 0082 F0BD     		pop	{r4, r5, r6, r7, pc}
 3619              	.LVL260:
 3620              	.L401:
 3621 0084 FF24     		movs	r4, #255
 3622              		.loc 1 1242 0
 3623 0086 8025     		movs	r5, #128
 3624 0088 2404     		lsls	r4, r4, #16
 3625              		.loc 1 1241 0
 3626 008a FF22     		movs	r2, #255
 3627              	.LVL261:
 3628              		.loc 1 1242 0
 3629 008c 6D04     		lsls	r5, r5, #17
 3630 008e E0E7     		b	.L397
 3631              	.L403:
 3632              		.align	2
 3633              	.L402:
 3634 0090 0000FFFF 		.word	-65536
 3635 0094 00000000 		.word	I2C_Master_ISR_IT
 3636 0098 009800FC 		.word	-67069952
 3637              		.cfi_endproc
 3638              	.LFE46:
 3639              		.size	HAL_I2C_Master_Receive_IT, .-HAL_I2C_Master_Receive_IT
 3640              		.section	.text.HAL_I2C_Slave_Transmit_IT,"ax",%progbits
 3641              		.align	1
 3642              		.p2align 2,,3
 3643              		.global	HAL_I2C_Slave_Transmit_IT
 3644              		.syntax unified
 3645              		.code	16
 3646              		.thumb_func
 3647              		.fpu softvfp
 3648              		.type	HAL_I2C_Slave_Transmit_IT, %function
ARM GAS  C:\Users\anashi\AppData\Local\Temp\ccFEbQrI.s 			page 65


 3649              	HAL_I2C_Slave_Transmit_IT:
 3650              	.LFB47:
 3651              		.loc 1 1283 0
 3652              		.cfi_startproc
 3653              		@ args = 0, pretend = 0, frame = 0
 3654              		@ frame_needed = 0, uses_anonymous_args = 0
 3655              	.LVL262:
 3656 0000 F0B5     		push	{r4, r5, r6, r7, lr}
 3657              		.cfi_def_cfa_offset 20
 3658              		.cfi_offset 4, -20
 3659              		.cfi_offset 5, -16
 3660              		.cfi_offset 6, -12
 3661              		.cfi_offset 7, -8
 3662              		.cfi_offset 14, -4
 3663              		.loc 1 1284 0
 3664 0002 4125     		movs	r5, #65
 3665 0004 445D     		ldrb	r4, [r0, r5]
 3666              		.loc 1 1283 0
 3667 0006 0300     		movs	r3, r0
 3668              		.loc 1 1284 0
 3669 0008 E4B2     		uxtb	r4, r4
 3670              		.loc 1 1319 0
 3671 000a 0220     		movs	r0, #2
 3672              	.LVL263:
 3673              		.loc 1 1284 0
 3674 000c 202C     		cmp	r4, #32
 3675 000e 1CD1     		bne	.L405
 3676              		.loc 1 1287 0
 3677 0010 4026     		movs	r6, #64
 3678 0012 9F5D     		ldrb	r7, [r3, r6]
 3679 0014 012F     		cmp	r7, #1
 3680 0016 18D0     		beq	.L405
 3681              		.loc 1 1289 0 discriminator 2
 3682 0018 1F30     		adds	r0, r0, #31
 3683 001a 5855     		strb	r0, [r3, r5]
 3684              		.loc 1 1291 0 discriminator 2
 3685 001c 0025     		movs	r5, #0
 3686              		.loc 1 1290 0 discriminator 2
 3687 001e 2130     		adds	r0, r0, #33
 3688 0020 1C54     		strb	r4, [r3, r0]
 3689              		.loc 1 1294 0 discriminator 2
 3690 0022 1868     		ldr	r0, [r3]
 3691              		.loc 1 1291 0 discriminator 2
 3692 0024 5D64     		str	r5, [r3, #68]
 3693              		.loc 1 1294 0 discriminator 2
 3694 0026 4468     		ldr	r4, [r0, #4]
 3695 0028 084F     		ldr	r7, .L408
 3696 002a 3C40     		ands	r4, r7
 3697 002c 4460     		str	r4, [r0, #4]
 3698              		.loc 1 1298 0 discriminator 2
 3699 002e 5A85     		strh	r2, [r3, #42]
 3700              		.loc 1 1299 0 discriminator 2
 3701 0030 5A8D     		ldrh	r2, [r3, #42]
 3702              	.LVL264:
 3703              		.loc 1 1297 0 discriminator 2
 3704 0032 5962     		str	r1, [r3, #36]
 3705              		.loc 1 1299 0 discriminator 2
ARM GAS  C:\Users\anashi\AppData\Local\Temp\ccFEbQrI.s 			page 66


 3706 0034 1A85     		strh	r2, [r3, #40]
 3707              		.loc 1 1300 0 discriminator 2
 3708 0036 064A     		ldr	r2, .L408+4
 3709 0038 DA62     		str	r2, [r3, #44]
 3710              	.LVL265:
 3711              		.loc 1 1301 0 discriminator 2
 3712 003a 064A     		ldr	r2, .L408+8
 3713 003c 5A63     		str	r2, [r3, #52]
 3714              	.LBB468:
 3715              	.LBB469:
 3716              		.loc 1 4783 0 discriminator 2
 3717 003e FA22     		movs	r2, #250
 3718              	.LBE469:
 3719              	.LBE468:
 3720              		.loc 1 1304 0 discriminator 2
 3721 0040 9D55     		strb	r5, [r3, r6]
 3722              	.LVL266:
 3723              	.LBB471:
 3724              	.LBB470:
 3725              		.loc 1 4783 0 discriminator 2
 3726 0042 0368     		ldr	r3, [r0]
 3727              	.LVL267:
 3728 0044 1343     		orrs	r3, r2
 3729 0046 0360     		str	r3, [r0]
 3730              	.LVL268:
 3731              	.LBE470:
 3732              	.LBE471:
 3733              		.loc 1 1315 0 discriminator 2
 3734 0048 0020     		movs	r0, #0
 3735              	.L405:
 3736              		.loc 1 1321 0
 3737              		@ sp needed
 3738 004a F0BD     		pop	{r4, r5, r6, r7, pc}
 3739              	.L409:
 3740              		.align	2
 3741              	.L408:
 3742 004c FF7FFFFF 		.word	-32769
 3743 0050 0000FFFF 		.word	-65536
 3744 0054 00000000 		.word	I2C_Slave_ISR_IT
 3745              		.cfi_endproc
 3746              	.LFE47:
 3747              		.size	HAL_I2C_Slave_Transmit_IT, .-HAL_I2C_Slave_Transmit_IT
 3748              		.section	.text.HAL_I2C_Slave_Receive_IT,"ax",%progbits
 3749              		.align	1
 3750              		.p2align 2,,3
 3751              		.global	HAL_I2C_Slave_Receive_IT
 3752              		.syntax unified
 3753              		.code	16
 3754              		.thumb_func
 3755              		.fpu softvfp
 3756              		.type	HAL_I2C_Slave_Receive_IT, %function
 3757              	HAL_I2C_Slave_Receive_IT:
 3758              	.LFB48:
 3759              		.loc 1 1332 0
 3760              		.cfi_startproc
 3761              		@ args = 0, pretend = 0, frame = 0
 3762              		@ frame_needed = 0, uses_anonymous_args = 0
ARM GAS  C:\Users\anashi\AppData\Local\Temp\ccFEbQrI.s 			page 67


 3763              	.LVL269:
 3764 0000 F0B5     		push	{r4, r5, r6, r7, lr}
 3765              		.cfi_def_cfa_offset 20
 3766              		.cfi_offset 4, -20
 3767              		.cfi_offset 5, -16
 3768              		.cfi_offset 6, -12
 3769              		.cfi_offset 7, -8
 3770              		.cfi_offset 14, -4
 3771              		.loc 1 1333 0
 3772 0002 4125     		movs	r5, #65
 3773 0004 445D     		ldrb	r4, [r0, r5]
 3774              		.loc 1 1332 0
 3775 0006 0300     		movs	r3, r0
 3776              		.loc 1 1333 0
 3777 0008 E4B2     		uxtb	r4, r4
 3778              		.loc 1 1368 0
 3779 000a 0220     		movs	r0, #2
 3780              	.LVL270:
 3781              		.loc 1 1333 0
 3782 000c 202C     		cmp	r4, #32
 3783 000e 1CD1     		bne	.L411
 3784              		.loc 1 1336 0
 3785 0010 4026     		movs	r6, #64
 3786 0012 9F5D     		ldrb	r7, [r3, r6]
 3787 0014 012F     		cmp	r7, #1
 3788 0016 18D0     		beq	.L411
 3789              		.loc 1 1338 0 discriminator 2
 3790 0018 2030     		adds	r0, r0, #32
 3791 001a 5855     		strb	r0, [r3, r5]
 3792              		.loc 1 1340 0 discriminator 2
 3793 001c 0025     		movs	r5, #0
 3794              		.loc 1 1339 0 discriminator 2
 3795 001e 2030     		adds	r0, r0, #32
 3796 0020 1C54     		strb	r4, [r3, r0]
 3797              		.loc 1 1343 0 discriminator 2
 3798 0022 1868     		ldr	r0, [r3]
 3799              		.loc 1 1340 0 discriminator 2
 3800 0024 5D64     		str	r5, [r3, #68]
 3801              		.loc 1 1343 0 discriminator 2
 3802 0026 4468     		ldr	r4, [r0, #4]
 3803 0028 084F     		ldr	r7, .L414
 3804 002a 3C40     		ands	r4, r7
 3805 002c 4460     		str	r4, [r0, #4]
 3806              		.loc 1 1347 0 discriminator 2
 3807 002e 5A85     		strh	r2, [r3, #42]
 3808              		.loc 1 1348 0 discriminator 2
 3809 0030 5A8D     		ldrh	r2, [r3, #42]
 3810              	.LVL271:
 3811              		.loc 1 1346 0 discriminator 2
 3812 0032 5962     		str	r1, [r3, #36]
 3813              		.loc 1 1348 0 discriminator 2
 3814 0034 1A85     		strh	r2, [r3, #40]
 3815              		.loc 1 1349 0 discriminator 2
 3816 0036 064A     		ldr	r2, .L414+4
 3817 0038 DA62     		str	r2, [r3, #44]
 3818              	.LVL272:
 3819              		.loc 1 1350 0 discriminator 2
ARM GAS  C:\Users\anashi\AppData\Local\Temp\ccFEbQrI.s 			page 68


 3820 003a 064A     		ldr	r2, .L414+8
 3821 003c 5A63     		str	r2, [r3, #52]
 3822              	.LBB472:
 3823              	.LBB473:
 3824              		.loc 1 4783 0 discriminator 2
 3825 003e FC22     		movs	r2, #252
 3826              	.LBE473:
 3827              	.LBE472:
 3828              		.loc 1 1353 0 discriminator 2
 3829 0040 9D55     		strb	r5, [r3, r6]
 3830              	.LVL273:
 3831              	.LBB475:
 3832              	.LBB474:
 3833              		.loc 1 4783 0 discriminator 2
 3834 0042 0368     		ldr	r3, [r0]
 3835              	.LVL274:
 3836 0044 1343     		orrs	r3, r2
 3837 0046 0360     		str	r3, [r0]
 3838              	.LVL275:
 3839              	.LBE474:
 3840              	.LBE475:
 3841              		.loc 1 1364 0 discriminator 2
 3842 0048 0020     		movs	r0, #0
 3843              	.L411:
 3844              		.loc 1 1370 0
 3845              		@ sp needed
 3846 004a F0BD     		pop	{r4, r5, r6, r7, pc}
 3847              	.L415:
 3848              		.align	2
 3849              	.L414:
 3850 004c FF7FFFFF 		.word	-32769
 3851 0050 0000FFFF 		.word	-65536
 3852 0054 00000000 		.word	I2C_Slave_ISR_IT
 3853              		.cfi_endproc
 3854              	.LFE48:
 3855              		.size	HAL_I2C_Slave_Receive_IT, .-HAL_I2C_Slave_Receive_IT
 3856              		.section	.text.HAL_I2C_Master_Transmit_DMA,"ax",%progbits
 3857              		.align	1
 3858              		.p2align 2,,3
 3859              		.global	HAL_I2C_Master_Transmit_DMA
 3860              		.syntax unified
 3861              		.code	16
 3862              		.thumb_func
 3863              		.fpu softvfp
 3864              		.type	HAL_I2C_Master_Transmit_DMA, %function
 3865              	HAL_I2C_Master_Transmit_DMA:
 3866              	.LFB49:
 3867              		.loc 1 1383 0
 3868              		.cfi_startproc
 3869              		@ args = 0, pretend = 0, frame = 0
 3870              		@ frame_needed = 0, uses_anonymous_args = 0
 3871              	.LVL276:
 3872 0000 F8B5     		push	{r3, r4, r5, r6, r7, lr}
 3873              		.cfi_def_cfa_offset 24
 3874              		.cfi_offset 3, -24
 3875              		.cfi_offset 4, -20
 3876              		.cfi_offset 5, -16
ARM GAS  C:\Users\anashi\AppData\Local\Temp\ccFEbQrI.s 			page 69


 3877              		.cfi_offset 6, -12
 3878              		.cfi_offset 7, -8
 3879              		.cfi_offset 14, -4
 3880 0002 CE46     		mov	lr, r9
 3881 0004 4746     		mov	r7, r8
 3882 0006 9C46     		mov	ip, r3
 3883              		.loc 1 1386 0
 3884 0008 4123     		movs	r3, #65
 3885              	.LVL277:
 3886              		.loc 1 1383 0
 3887 000a 80B5     		push	{r7, lr}
 3888              		.cfi_def_cfa_offset 32
 3889              		.cfi_offset 8, -32
 3890              		.cfi_offset 9, -28
 3891              		.loc 1 1383 0
 3892 000c 1600     		movs	r6, r2
 3893              		.loc 1 1386 0
 3894 000e C25C     		ldrb	r2, [r0, r3]
 3895              	.LVL278:
 3896              		.loc 1 1383 0
 3897 0010 0400     		movs	r4, r0
 3898              	.LVL279:
 3899              		.loc 1 1386 0
 3900 0012 9946     		mov	r9, r3
 3901              		.loc 1 1476 0
 3902 0014 0220     		movs	r0, #2
 3903              	.LVL280:
 3904              		.loc 1 1386 0
 3905 0016 202A     		cmp	r2, #32
 3906 0018 59D1     		bne	.L427
 3907              		.loc 1 1388 0
 3908 001a 8025     		movs	r5, #128
 3909 001c 2268     		ldr	r2, [r4]
 3910 001e 2D02     		lsls	r5, r5, #8
 3911 0020 9769     		ldr	r7, [r2, #24]
 3912 0022 3D40     		ands	r5, r7
 3913 0024 53D1     		bne	.L427
 3914              		.loc 1 1394 0
 3915 0026 4027     		movs	r7, #64
 3916 0028 E35D     		ldrb	r3, [r4, r7]
 3917 002a 012B     		cmp	r3, #1
 3918 002c 4FD0     		beq	.L427
 3919              		.loc 1 1396 0 discriminator 2
 3920 002e 4B46     		mov	r3, r9
 3921              		.loc 1 1394 0 discriminator 2
 3922 0030 0138     		subs	r0, r0, #1
 3923 0032 E055     		strb	r0, [r4, r7]
 3924              		.loc 1 1396 0 discriminator 2
 3925 0034 2030     		adds	r0, r0, #32
 3926 0036 E054     		strb	r0, [r4, r3]
 3927              		.loc 1 1397 0 discriminator 2
 3928 0038 0133     		adds	r3, r3, #1
 3929 003a 1138     		subs	r0, r0, #17
 3930 003c E054     		strb	r0, [r4, r3]
 3931              		.loc 1 1402 0 discriminator 2
 3932 003e 6346     		mov	r3, ip
 3933              		.loc 1 1398 0 discriminator 2
ARM GAS  C:\Users\anashi\AppData\Local\Temp\ccFEbQrI.s 			page 70


 3934 0040 6564     		str	r5, [r4, #68]
 3935              		.loc 1 1402 0 discriminator 2
 3936 0042 6385     		strh	r3, [r4, #42]
 3937              		.loc 1 1403 0 discriminator 2
 3938 0044 314B     		ldr	r3, .L430
 3939 0046 8905     		lsls	r1, r1, #22
 3940              	.LVL281:
 3941 0048 E362     		str	r3, [r4, #44]
 3942              		.loc 1 1404 0 discriminator 2
 3943 004a 314B     		ldr	r3, .L430+4
 3944              		.loc 1 1401 0 discriminator 2
 3945 004c 6662     		str	r6, [r4, #36]
 3946              		.loc 1 1404 0 discriminator 2
 3947 004e 9846     		mov	r8, r3
 3948 0050 6363     		str	r3, [r4, #52]
 3949              		.loc 1 1406 0 discriminator 2
 3950 0052 638D     		ldrh	r3, [r4, #42]
 3951 0054 8D0D     		lsrs	r5, r1, #22
 3952 0056 FF2B     		cmp	r3, #255
 3953 0058 3DD9     		bls	.L428
 3954              		.loc 1 1409 0
 3955 005a 8021     		movs	r1, #128
 3956 005c FF23     		movs	r3, #255
 3957 005e 4904     		lsls	r1, r1, #17
 3958 0060 8946     		mov	r9, r1
 3959 0062 2385     		strh	r3, [r4, #40]
 3960              	.LVL282:
 3961              	.L421:
 3962              		.loc 1 1426 0
 3963 0064 0027     		movs	r7, #0
 3964              		.loc 1 1420 0
 3965 0066 A06B     		ldr	r0, [r4, #56]
 3966 0068 2A49     		ldr	r1, .L430+8
 3967              		.loc 1 1430 0
 3968 006a 2832     		adds	r2, r2, #40
 3969              		.loc 1 1420 0
 3970 006c 8162     		str	r1, [r0, #40]
 3971              		.loc 1 1423 0
 3972 006e 2A49     		ldr	r1, .L430+12
 3973              		.loc 1 1426 0
 3974 0070 C762     		str	r7, [r0, #44]
 3975              		.loc 1 1423 0
 3976 0072 0163     		str	r1, [r0, #48]
 3977              		.loc 1 1427 0
 3978 0074 4763     		str	r7, [r0, #52]
 3979              		.loc 1 1430 0
 3980 0076 3100     		movs	r1, r6
 3981 0078 FFF7FEFF 		bl	HAL_DMA_Start_IT
 3982              	.LVL283:
 3983              	.LBB476:
 3984              	.LBB477:
 3985              		.loc 1 4702 0
 3986 007c 2268     		ldr	r2, [r4]
 3987              		.loc 1 4705 0
 3988 007e 274B     		ldr	r3, .L430+16
 3989              		.loc 1 4702 0
 3990 0080 5168     		ldr	r1, [r2, #4]
ARM GAS  C:\Users\anashi\AppData\Local\Temp\ccFEbQrI.s 			page 71


 3991              	.LBE477:
 3992              	.LBE476:
 3993              		.loc 1 1434 0
 3994 0082 208D     		ldrh	r0, [r4, #40]
 3995              	.LVL284:
 3996              	.LBB479:
 3997              	.LBB478:
 3998              		.loc 1 4705 0
 3999 0084 1940     		ands	r1, r3
 4000              	.LVL285:
 4001 0086 8023     		movs	r3, #128
 4002 0088 9B01     		lsls	r3, r3, #6
 4003 008a 1D43     		orrs	r5, r3
 4004              		.loc 1 4708 0
 4005 008c 4B46     		mov	r3, r9
 4006 008e 2943     		orrs	r1, r5
 4007              	.LVL286:
 4008 0090 C5B2     		uxtb	r5, r0
 4009 0092 2D04     		lsls	r5, r5, #16
 4010 0094 2943     		orrs	r1, r5
 4011 0096 0B43     		orrs	r3, r1
 4012              	.LVL287:
 4013              		.loc 1 4712 0
 4014 0098 5360     		str	r3, [r2, #4]
 4015              	.LVL288:
 4016              	.LBE478:
 4017              	.LBE479:
 4018              		.loc 1 1437 0
 4019 009a 638D     		ldrh	r3, [r4, #42]
 4020 009c 1B1A     		subs	r3, r3, r0
 4021 009e 9BB2     		uxth	r3, r3
 4022 00a0 6385     		strh	r3, [r4, #42]
 4023              		.loc 1 1440 0
 4024 00a2 4023     		movs	r3, #64
 4025 00a4 E754     		strb	r7, [r4, r3]
 4026              	.LVL289:
 4027              	.LBB480:
 4028              	.LBB481:
 4029              		.loc 1 4726 0
 4030 00a6 636B     		ldr	r3, [r4, #52]
 4031 00a8 4345     		cmp	r3, r8
 4032 00aa 29D0     		beq	.L425
 4033 00ac 1C49     		ldr	r1, .L430+20
 4034 00ae 5B1A     		subs	r3, r3, r1
 4035 00b0 591E     		subs	r1, r3, #1
 4036 00b2 8B41     		sbcs	r3, r3, r1
 4037 00b4 6221     		movs	r1, #98
 4038 00b6 5B42     		rsbs	r3, r3, #0
 4039 00b8 0B40     		ands	r3, r1
 4040 00ba 9033     		adds	r3, r3, #144
 4041              	.L420:
 4042              	.LVL290:
 4043              		.loc 1 4783 0
 4044 00bc 1168     		ldr	r1, [r2]
 4045              	.LBE481:
 4046              	.LBE480:
 4047              		.loc 1 1472 0
ARM GAS  C:\Users\anashi\AppData\Local\Temp\ccFEbQrI.s 			page 72


 4048 00be 0020     		movs	r0, #0
 4049              	.LBB484:
 4050              	.LBB482:
 4051              		.loc 1 4783 0
 4052 00c0 0B43     		orrs	r3, r1
 4053              	.LVL291:
 4054 00c2 1360     		str	r3, [r2]
 4055              	.LVL292:
 4056              	.LBE482:
 4057              	.LBE484:
 4058              		.loc 1 1449 0
 4059 00c4 8023     		movs	r3, #128
 4060 00c6 1168     		ldr	r1, [r2]
 4061 00c8 DB01     		lsls	r3, r3, #7
 4062 00ca 0B43     		orrs	r3, r1
 4063 00cc 1360     		str	r3, [r2]
 4064              	.LVL293:
 4065              	.L427:
 4066              		.loc 1 1478 0
 4067              		@ sp needed
 4068              	.LVL294:
 4069              	.LVL295:
 4070 00ce 0CBC     		pop	{r2, r3}
 4071 00d0 9046     		mov	r8, r2
 4072 00d2 9946     		mov	r9, r3
 4073 00d4 F8BD     		pop	{r3, r4, r5, r6, r7, pc}
 4074              	.LVL296:
 4075              	.L428:
 4076              		.loc 1 1413 0
 4077 00d6 638D     		ldrh	r3, [r4, #42]
 4078 00d8 9BB2     		uxth	r3, r3
 4079              	.LVL297:
 4080 00da 2385     		strh	r3, [r4, #40]
 4081              		.loc 1 1417 0
 4082 00dc 002B     		cmp	r3, #0
 4083 00de 11D1     		bne	.L429
 4084              		.loc 1 1454 0
 4085 00e0 1049     		ldr	r1, .L430+24
 4086              	.LBB485:
 4087              	.LBB486:
 4088              		.loc 1 4705 0
 4089 00e2 0E48     		ldr	r0, .L430+16
 4090              	.LBE486:
 4091              	.LBE485:
 4092              		.loc 1 1454 0
 4093 00e4 6163     		str	r1, [r4, #52]
 4094              	.LVL298:
 4095              	.LBB488:
 4096              	.LBB487:
 4097              		.loc 1 4702 0
 4098 00e6 5168     		ldr	r1, [r2, #4]
 4099              	.LVL299:
 4100              		.loc 1 4705 0
 4101 00e8 0840     		ands	r0, r1
 4102              	.LVL300:
 4103              		.loc 1 4708 0
 4104 00ea 0F49     		ldr	r1, .L430+28
ARM GAS  C:\Users\anashi\AppData\Local\Temp\ccFEbQrI.s 			page 73


 4105 00ec 2943     		orrs	r1, r5
 4106 00ee 0143     		orrs	r1, r0
 4107              	.LVL301:
 4108              		.loc 1 4712 0
 4109 00f0 5160     		str	r1, [r2, #4]
 4110              	.LVL302:
 4111              	.LBE487:
 4112              	.LBE488:
 4113              	.LBB489:
 4114              	.LBB490:
 4115              		.loc 1 4783 0
 4116 00f2 F221     		movs	r1, #242
 4117              	.LBE490:
 4118              	.LBE489:
 4119              		.loc 1 1461 0
 4120 00f4 E355     		strb	r3, [r4, r7]
 4121              	.LVL303:
 4122              	.LBB493:
 4123              	.LBB491:
 4124              		.loc 1 4783 0
 4125 00f6 1368     		ldr	r3, [r2]
 4126              	.LBE491:
 4127              	.LBE493:
 4128              		.loc 1 1472 0
 4129 00f8 0020     		movs	r0, #0
 4130              	.LBB494:
 4131              	.LBB492:
 4132              		.loc 1 4783 0
 4133 00fa 0B43     		orrs	r3, r1
 4134 00fc 1360     		str	r3, [r2]
 4135 00fe E6E7     		b	.L427
 4136              	.LVL304:
 4137              	.L425:
 4138              	.LBE492:
 4139              	.LBE494:
 4140              	.LBB495:
 4141              	.LBB483:
 4142              		.loc 1 4726 0
 4143 0100 9023     		movs	r3, #144
 4144 0102 DBE7     		b	.L420
 4145              	.LVL305:
 4146              	.L429:
 4147              	.LBE483:
 4148              	.LBE495:
 4149              		.loc 1 1414 0
 4150 0104 8021     		movs	r1, #128
 4151 0106 8904     		lsls	r1, r1, #18
 4152 0108 8946     		mov	r9, r1
 4153 010a ABE7     		b	.L421
 4154              	.L431:
 4155              		.align	2
 4156              	.L430:
 4157 010c 0000FFFF 		.word	-65536
 4158 0110 00000000 		.word	I2C_Master_ISR_DMA
 4159 0114 00000000 		.word	I2C_DMAMasterTransmitCplt
 4160 0118 00000000 		.word	I2C_DMAError
 4161 011c 009800FC 		.word	-67069952
ARM GAS  C:\Users\anashi\AppData\Local\Temp\ccFEbQrI.s 			page 74


 4162 0120 00000000 		.word	I2C_Slave_ISR_DMA
 4163 0124 00000000 		.word	I2C_Master_ISR_IT
 4164 0128 00200002 		.word	33562624
 4165              		.cfi_endproc
 4166              	.LFE49:
 4167              		.size	HAL_I2C_Master_Transmit_DMA, .-HAL_I2C_Master_Transmit_DMA
 4168              		.section	.text.HAL_I2C_Master_Receive_DMA,"ax",%progbits
 4169              		.align	1
 4170              		.p2align 2,,3
 4171              		.global	HAL_I2C_Master_Receive_DMA
 4172              		.syntax unified
 4173              		.code	16
 4174              		.thumb_func
 4175              		.fpu softvfp
 4176              		.type	HAL_I2C_Master_Receive_DMA, %function
 4177              	HAL_I2C_Master_Receive_DMA:
 4178              	.LFB50:
 4179              		.loc 1 1491 0
 4180              		.cfi_startproc
 4181              		@ args = 0, pretend = 0, frame = 0
 4182              		@ frame_needed = 0, uses_anonymous_args = 0
 4183              	.LVL306:
 4184 0000 F8B5     		push	{r3, r4, r5, r6, r7, lr}
 4185              		.cfi_def_cfa_offset 24
 4186              		.cfi_offset 3, -24
 4187              		.cfi_offset 4, -20
 4188              		.cfi_offset 5, -16
 4189              		.cfi_offset 6, -12
 4190              		.cfi_offset 7, -8
 4191              		.cfi_offset 14, -4
 4192 0002 CE46     		mov	lr, r9
 4193 0004 4746     		mov	r7, r8
 4194 0006 9C46     		mov	ip, r3
 4195              		.loc 1 1494 0
 4196 0008 4123     		movs	r3, #65
 4197              	.LVL307:
 4198              		.loc 1 1491 0
 4199 000a 80B5     		push	{r7, lr}
 4200              		.cfi_def_cfa_offset 32
 4201              		.cfi_offset 8, -32
 4202              		.cfi_offset 9, -28
 4203              		.loc 1 1494 0
 4204 000c C55C     		ldrb	r5, [r0, r3]
 4205              		.loc 1 1491 0
 4206 000e 0400     		movs	r4, r0
 4207              	.LVL308:
 4208              		.loc 1 1494 0
 4209 0010 9946     		mov	r9, r3
 4210              		.loc 1 1583 0
 4211 0012 0220     		movs	r0, #2
 4212              	.LVL309:
 4213              		.loc 1 1494 0
 4214 0014 202D     		cmp	r5, #32
 4215 0016 59D1     		bne	.L443
 4216              		.loc 1 1496 0
 4217 0018 8025     		movs	r5, #128
 4218 001a 2668     		ldr	r6, [r4]
ARM GAS  C:\Users\anashi\AppData\Local\Temp\ccFEbQrI.s 			page 75


 4219 001c 2D02     		lsls	r5, r5, #8
 4220 001e B769     		ldr	r7, [r6, #24]
 4221 0020 3D40     		ands	r5, r7
 4222 0022 53D1     		bne	.L443
 4223              		.loc 1 1502 0
 4224 0024 4027     		movs	r7, #64
 4225 0026 E35D     		ldrb	r3, [r4, r7]
 4226 0028 012B     		cmp	r3, #1
 4227 002a 4FD0     		beq	.L443
 4228              		.loc 1 1504 0 discriminator 2
 4229 002c 4B46     		mov	r3, r9
 4230              		.loc 1 1502 0 discriminator 2
 4231 002e 0138     		subs	r0, r0, #1
 4232 0030 E055     		strb	r0, [r4, r7]
 4233              		.loc 1 1504 0 discriminator 2
 4234 0032 2130     		adds	r0, r0, #33
 4235 0034 E054     		strb	r0, [r4, r3]
 4236              		.loc 1 1505 0 discriminator 2
 4237 0036 0133     		adds	r3, r3, #1
 4238 0038 1238     		subs	r0, r0, #18
 4239 003a E054     		strb	r0, [r4, r3]
 4240              		.loc 1 1510 0 discriminator 2
 4241 003c 6346     		mov	r3, ip
 4242              		.loc 1 1506 0 discriminator 2
 4243 003e 6564     		str	r5, [r4, #68]
 4244              		.loc 1 1510 0 discriminator 2
 4245 0040 6385     		strh	r3, [r4, #42]
 4246              		.loc 1 1511 0 discriminator 2
 4247 0042 324B     		ldr	r3, .L446
 4248 0044 8905     		lsls	r1, r1, #22
 4249              	.LVL310:
 4250 0046 E362     		str	r3, [r4, #44]
 4251              		.loc 1 1512 0 discriminator 2
 4252 0048 314B     		ldr	r3, .L446+4
 4253              		.loc 1 1509 0 discriminator 2
 4254 004a 6262     		str	r2, [r4, #36]
 4255              		.loc 1 1512 0 discriminator 2
 4256 004c 9846     		mov	r8, r3
 4257 004e 6363     		str	r3, [r4, #52]
 4258              		.loc 1 1514 0 discriminator 2
 4259 0050 638D     		ldrh	r3, [r4, #42]
 4260 0052 8D0D     		lsrs	r5, r1, #22
 4261 0054 FF2B     		cmp	r3, #255
 4262 0056 3DD9     		bls	.L444
 4263              		.loc 1 1517 0
 4264 0058 8021     		movs	r1, #128
 4265 005a FF23     		movs	r3, #255
 4266 005c 4904     		lsls	r1, r1, #17
 4267 005e 8946     		mov	r9, r1
 4268 0060 2385     		strh	r3, [r4, #40]
 4269              	.LVL311:
 4270              	.L437:
 4271              		.loc 1 1528 0
 4272 0062 E06B     		ldr	r0, [r4, #60]
 4273 0064 2B49     		ldr	r1, .L446+8
 4274              		.loc 1 1534 0
 4275 0066 0027     		movs	r7, #0
ARM GAS  C:\Users\anashi\AppData\Local\Temp\ccFEbQrI.s 			page 76


 4276              		.loc 1 1528 0
 4277 0068 8162     		str	r1, [r0, #40]
 4278              		.loc 1 1531 0
 4279 006a 2B49     		ldr	r1, .L446+12
 4280              		.loc 1 1534 0
 4281 006c C762     		str	r7, [r0, #44]
 4282              		.loc 1 1531 0
 4283 006e 0163     		str	r1, [r0, #48]
 4284              		.loc 1 1538 0
 4285 0070 3100     		movs	r1, r6
 4286              		.loc 1 1535 0
 4287 0072 4763     		str	r7, [r0, #52]
 4288              		.loc 1 1538 0
 4289 0074 2431     		adds	r1, r1, #36
 4290 0076 FFF7FEFF 		bl	HAL_DMA_Start_IT
 4291              	.LVL312:
 4292              	.LBB496:
 4293              	.LBB497:
 4294              		.loc 1 4702 0
 4295 007a 2268     		ldr	r2, [r4]
 4296              		.loc 1 4705 0
 4297 007c 274B     		ldr	r3, .L446+16
 4298              		.loc 1 4702 0
 4299 007e 5168     		ldr	r1, [r2, #4]
 4300              	.LBE497:
 4301              	.LBE496:
 4302              		.loc 1 1542 0
 4303 0080 208D     		ldrh	r0, [r4, #40]
 4304              	.LVL313:
 4305              	.LBB499:
 4306              	.LBB498:
 4307              		.loc 1 4705 0
 4308 0082 1940     		ands	r1, r3
 4309              	.LVL314:
 4310 0084 9023     		movs	r3, #144
 4311 0086 9B01     		lsls	r3, r3, #6
 4312 0088 1D43     		orrs	r5, r3
 4313              		.loc 1 4708 0
 4314 008a 4B46     		mov	r3, r9
 4315 008c 2943     		orrs	r1, r5
 4316              	.LVL315:
 4317 008e C5B2     		uxtb	r5, r0
 4318 0090 2D04     		lsls	r5, r5, #16
 4319 0092 2943     		orrs	r1, r5
 4320 0094 0B43     		orrs	r3, r1
 4321              	.LVL316:
 4322              		.loc 1 4712 0
 4323 0096 5360     		str	r3, [r2, #4]
 4324              	.LVL317:
 4325              	.LBE498:
 4326              	.LBE499:
 4327              		.loc 1 1545 0
 4328 0098 638D     		ldrh	r3, [r4, #42]
 4329 009a 1B1A     		subs	r3, r3, r0
 4330 009c 9BB2     		uxth	r3, r3
 4331 009e 6385     		strh	r3, [r4, #42]
 4332              		.loc 1 1548 0
ARM GAS  C:\Users\anashi\AppData\Local\Temp\ccFEbQrI.s 			page 77


 4333 00a0 4023     		movs	r3, #64
 4334 00a2 E754     		strb	r7, [r4, r3]
 4335              	.LVL318:
 4336              	.LBB500:
 4337              	.LBB501:
 4338              		.loc 1 4726 0
 4339 00a4 636B     		ldr	r3, [r4, #52]
 4340 00a6 4345     		cmp	r3, r8
 4341 00a8 29D0     		beq	.L441
 4342 00aa 1D49     		ldr	r1, .L446+20
 4343 00ac 5B1A     		subs	r3, r3, r1
 4344 00ae 591E     		subs	r1, r3, #1
 4345 00b0 8B41     		sbcs	r3, r3, r1
 4346 00b2 6221     		movs	r1, #98
 4347 00b4 5B42     		rsbs	r3, r3, #0
 4348 00b6 0B40     		ands	r3, r1
 4349 00b8 9033     		adds	r3, r3, #144
 4350              	.L436:
 4351              	.LVL319:
 4352              		.loc 1 4783 0
 4353 00ba 1168     		ldr	r1, [r2]
 4354              	.LBE501:
 4355              	.LBE500:
 4356              		.loc 1 1579 0
 4357 00bc 0020     		movs	r0, #0
 4358              	.LBB504:
 4359              	.LBB502:
 4360              		.loc 1 4783 0
 4361 00be 0B43     		orrs	r3, r1
 4362              	.LVL320:
 4363 00c0 1360     		str	r3, [r2]
 4364              	.LVL321:
 4365              	.LBE502:
 4366              	.LBE504:
 4367              		.loc 1 1557 0
 4368 00c2 8023     		movs	r3, #128
 4369 00c4 1168     		ldr	r1, [r2]
 4370 00c6 1B02     		lsls	r3, r3, #8
 4371 00c8 0B43     		orrs	r3, r1
 4372 00ca 1360     		str	r3, [r2]
 4373              	.LVL322:
 4374              	.L443:
 4375              		.loc 1 1585 0
 4376              		@ sp needed
 4377              	.LVL323:
 4378 00cc 0CBC     		pop	{r2, r3}
 4379 00ce 9046     		mov	r8, r2
 4380 00d0 9946     		mov	r9, r3
 4381 00d2 F8BD     		pop	{r3, r4, r5, r6, r7, pc}
 4382              	.LVL324:
 4383              	.L444:
 4384              		.loc 1 1521 0
 4385 00d4 638D     		ldrh	r3, [r4, #42]
 4386 00d6 9BB2     		uxth	r3, r3
 4387              	.LVL325:
 4388 00d8 2385     		strh	r3, [r4, #40]
 4389              		.loc 1 1525 0
ARM GAS  C:\Users\anashi\AppData\Local\Temp\ccFEbQrI.s 			page 78


 4390 00da 002B     		cmp	r3, #0
 4391 00dc 11D1     		bne	.L445
 4392              		.loc 1 1562 0
 4393 00de 114A     		ldr	r2, .L446+24
 4394              	.LVL326:
 4395              	.LBB505:
 4396              	.LBB506:
 4397              		.loc 1 4702 0
 4398 00e0 7168     		ldr	r1, [r6, #4]
 4399              	.LBE506:
 4400              	.LBE505:
 4401              		.loc 1 1562 0
 4402 00e2 6263     		str	r2, [r4, #52]
 4403              	.LVL327:
 4404              	.LBB510:
 4405              	.LBB507:
 4406              		.loc 1 4705 0
 4407 00e4 0D4A     		ldr	r2, .L446+16
 4408              	.LBE507:
 4409              	.LBE510:
 4410              		.loc 1 1579 0
 4411 00e6 0020     		movs	r0, #0
 4412              	.LBB511:
 4413              	.LBB508:
 4414              		.loc 1 4705 0
 4415 00e8 0A40     		ands	r2, r1
 4416              	.LVL328:
 4417              		.loc 1 4708 0
 4418 00ea 0F49     		ldr	r1, .L446+28
 4419 00ec 2943     		orrs	r1, r5
 4420 00ee 1143     		orrs	r1, r2
 4421              	.LVL329:
 4422              	.LBE508:
 4423              	.LBE511:
 4424              	.LBB512:
 4425              	.LBB513:
 4426              		.loc 1 4783 0
 4427 00f0 F222     		movs	r2, #242
 4428              	.LBE513:
 4429              	.LBE512:
 4430              	.LBB515:
 4431              	.LBB509:
 4432              		.loc 1 4712 0
 4433 00f2 7160     		str	r1, [r6, #4]
 4434              	.LVL330:
 4435              	.LBE509:
 4436              	.LBE515:
 4437              		.loc 1 1569 0
 4438 00f4 E355     		strb	r3, [r4, r7]
 4439              	.LVL331:
 4440              	.LBB516:
 4441              	.LBB514:
 4442              		.loc 1 4783 0
 4443 00f6 3368     		ldr	r3, [r6]
 4444 00f8 1343     		orrs	r3, r2
 4445 00fa 3360     		str	r3, [r6]
 4446 00fc E6E7     		b	.L443
ARM GAS  C:\Users\anashi\AppData\Local\Temp\ccFEbQrI.s 			page 79


 4447              	.LVL332:
 4448              	.L441:
 4449              	.LBE514:
 4450              	.LBE516:
 4451              	.LBB517:
 4452              	.LBB503:
 4453              		.loc 1 4726 0
 4454 00fe 9023     		movs	r3, #144
 4455 0100 DBE7     		b	.L436
 4456              	.LVL333:
 4457              	.L445:
 4458              	.LBE503:
 4459              	.LBE517:
 4460              		.loc 1 1522 0
 4461 0102 8021     		movs	r1, #128
 4462 0104 8904     		lsls	r1, r1, #18
 4463 0106 8946     		mov	r9, r1
 4464 0108 ABE7     		b	.L437
 4465              	.L447:
 4466 010a C046     		.align	2
 4467              	.L446:
 4468 010c 0000FFFF 		.word	-65536
 4469 0110 00000000 		.word	I2C_Master_ISR_DMA
 4470 0114 00000000 		.word	I2C_DMAMasterReceiveCplt
 4471 0118 00000000 		.word	I2C_DMAError
 4472 011c 009800FC 		.word	-67069952
 4473 0120 00000000 		.word	I2C_Slave_ISR_DMA
 4474 0124 00000000 		.word	I2C_Master_ISR_IT
 4475 0128 00240002 		.word	33563648
 4476              		.cfi_endproc
 4477              	.LFE50:
 4478              		.size	HAL_I2C_Master_Receive_DMA, .-HAL_I2C_Master_Receive_DMA
 4479              		.section	.text.HAL_I2C_Slave_Transmit_DMA,"ax",%progbits
 4480              		.align	1
 4481              		.p2align 2,,3
 4482              		.global	HAL_I2C_Slave_Transmit_DMA
 4483              		.syntax unified
 4484              		.code	16
 4485              		.thumb_func
 4486              		.fpu softvfp
 4487              		.type	HAL_I2C_Slave_Transmit_DMA, %function
 4488              	HAL_I2C_Slave_Transmit_DMA:
 4489              	.LFB51:
 4490              		.loc 1 1596 0
 4491              		.cfi_startproc
 4492              		@ args = 0, pretend = 0, frame = 0
 4493              		@ frame_needed = 0, uses_anonymous_args = 0
 4494              	.LVL334:
 4495 0000 F8B5     		push	{r3, r4, r5, r6, r7, lr}
 4496              		.cfi_def_cfa_offset 24
 4497              		.cfi_offset 3, -24
 4498              		.cfi_offset 4, -20
 4499              		.cfi_offset 5, -16
 4500              		.cfi_offset 6, -12
 4501              		.cfi_offset 7, -8
 4502              		.cfi_offset 14, -4
 4503              		.loc 1 1597 0
ARM GAS  C:\Users\anashi\AppData\Local\Temp\ccFEbQrI.s 			page 80


 4504 0002 4125     		movs	r5, #65
 4505 0004 435D     		ldrb	r3, [r0, r5]
 4506              		.loc 1 1596 0
 4507 0006 0400     		movs	r4, r0
 4508              		.loc 1 1597 0
 4509 0008 DBB2     		uxtb	r3, r3
 4510              		.loc 1 1649 0
 4511 000a 0220     		movs	r0, #2
 4512              	.LVL335:
 4513              		.loc 1 1597 0
 4514 000c 202B     		cmp	r3, #32
 4515 000e 33D1     		bne	.L449
 4516              		.loc 1 1599 0
 4517 0010 0029     		cmp	r1, #0
 4518 0012 32D0     		beq	.L451
 4519              		.loc 1 1601 0 discriminator 1
 4520 0014 0138     		subs	r0, r0, #1
 4521              		.loc 1 1599 0 discriminator 1
 4522 0016 002A     		cmp	r2, #0
 4523 0018 2ED0     		beq	.L449
 4524              		.loc 1 1604 0
 4525 001a 4026     		movs	r6, #64
 4526 001c A75D     		ldrb	r7, [r4, r6]
 4527 001e 012F     		cmp	r7, #1
 4528 0020 2DD0     		beq	.L453
 4529              		.loc 1 1604 0 is_stmt 0 discriminator 2
 4530 0022 A055     		strb	r0, [r4, r6]
 4531              		.loc 1 1606 0 is_stmt 1 discriminator 2
 4532 0024 2030     		adds	r0, r0, #32
 4533 0026 6055     		strb	r0, [r4, r5]
 4534              		.loc 1 1608 0 discriminator 2
 4535 0028 0025     		movs	r5, #0
 4536              		.loc 1 1607 0 discriminator 2
 4537 002a 2130     		adds	r0, r0, #33
 4538 002c 2354     		strb	r3, [r4, r0]
 4539              		.loc 1 1608 0 discriminator 2
 4540 002e 6564     		str	r5, [r4, #68]
 4541              		.loc 1 1612 0 discriminator 2
 4542 0030 6285     		strh	r2, [r4, #42]
 4543              		.loc 1 1614 0 discriminator 2
 4544 0032 144A     		ldr	r2, .L455
 4545              	.LVL336:
 4546              		.loc 1 1613 0 discriminator 2
 4547 0034 638D     		ldrh	r3, [r4, #42]
 4548              		.loc 1 1614 0 discriminator 2
 4549 0036 E262     		str	r2, [r4, #44]
 4550              	.LVL337:
 4551              		.loc 1 1615 0 discriminator 2
 4552 0038 134A     		ldr	r2, .L455+4
 4553              		.loc 1 1618 0 discriminator 2
 4554 003a A06B     		ldr	r0, [r4, #56]
 4555              		.loc 1 1615 0 discriminator 2
 4556 003c 6263     		str	r2, [r4, #52]
 4557              		.loc 1 1618 0 discriminator 2
 4558 003e 134A     		ldr	r2, .L455+8
 4559              		.loc 1 1613 0 discriminator 2
 4560 0040 9BB2     		uxth	r3, r3
ARM GAS  C:\Users\anashi\AppData\Local\Temp\ccFEbQrI.s 			page 81


 4561              		.loc 1 1611 0 discriminator 2
 4562 0042 6162     		str	r1, [r4, #36]
 4563              		.loc 1 1613 0 discriminator 2
 4564 0044 2385     		strh	r3, [r4, #40]
 4565              		.loc 1 1618 0 discriminator 2
 4566 0046 8262     		str	r2, [r0, #40]
 4567              		.loc 1 1621 0 discriminator 2
 4568 0048 114A     		ldr	r2, .L455+12
 4569              		.loc 1 1624 0 discriminator 2
 4570 004a C562     		str	r5, [r0, #44]
 4571              		.loc 1 1621 0 discriminator 2
 4572 004c 0263     		str	r2, [r0, #48]
 4573              		.loc 1 1628 0 discriminator 2
 4574 004e 2268     		ldr	r2, [r4]
 4575              		.loc 1 1625 0 discriminator 2
 4576 0050 4563     		str	r5, [r0, #52]
 4577              		.loc 1 1628 0 discriminator 2
 4578 0052 2832     		adds	r2, r2, #40
 4579 0054 FFF7FEFF 		bl	HAL_DMA_Start_IT
 4580              	.LVL338:
 4581              		.loc 1 1631 0 discriminator 2
 4582 0058 2368     		ldr	r3, [r4]
 4583 005a 0E49     		ldr	r1, .L455+16
 4584 005c 5A68     		ldr	r2, [r3, #4]
 4585              		.loc 1 1645 0 discriminator 2
 4586 005e 0020     		movs	r0, #0
 4587              		.loc 1 1631 0 discriminator 2
 4588 0060 0A40     		ands	r2, r1
 4589              	.LBB518:
 4590              	.LBB519:
 4591              		.loc 1 4783 0 discriminator 2
 4592 0062 B821     		movs	r1, #184
 4593              	.LBE519:
 4594              	.LBE518:
 4595              		.loc 1 1631 0 discriminator 2
 4596 0064 5A60     		str	r2, [r3, #4]
 4597              	.LBB522:
 4598              	.LBB520:
 4599              		.loc 1 4783 0 discriminator 2
 4600 0066 1A68     		ldr	r2, [r3]
 4601              	.LBE520:
 4602              	.LBE522:
 4603              		.loc 1 1634 0 discriminator 2
 4604 0068 A555     		strb	r5, [r4, r6]
 4605              	.LVL339:
 4606              	.LBB523:
 4607              	.LBB521:
 4608              		.loc 1 4783 0 discriminator 2
 4609 006a 0A43     		orrs	r2, r1
 4610 006c 1A60     		str	r2, [r3]
 4611              	.LVL340:
 4612              	.LBE521:
 4613              	.LBE523:
 4614              		.loc 1 1643 0 discriminator 2
 4615 006e 8022     		movs	r2, #128
 4616 0070 1968     		ldr	r1, [r3]
 4617 0072 D201     		lsls	r2, r2, #7
ARM GAS  C:\Users\anashi\AppData\Local\Temp\ccFEbQrI.s 			page 82


 4618 0074 0A43     		orrs	r2, r1
 4619 0076 1A60     		str	r2, [r3]
 4620              	.L449:
 4621              		.loc 1 1651 0
 4622              		@ sp needed
 4623              	.LVL341:
 4624 0078 F8BD     		pop	{r3, r4, r5, r6, r7, pc}
 4625              	.LVL342:
 4626              	.L451:
 4627              		.loc 1 1601 0
 4628 007a 0120     		movs	r0, #1
 4629 007c FCE7     		b	.L449
 4630              	.L453:
 4631              		.loc 1 1649 0
 4632 007e 0220     		movs	r0, #2
 4633 0080 FAE7     		b	.L449
 4634              	.L456:
 4635 0082 C046     		.align	2
 4636              	.L455:
 4637 0084 0000FFFF 		.word	-65536
 4638 0088 00000000 		.word	I2C_Slave_ISR_DMA
 4639 008c 00000000 		.word	I2C_DMASlaveTransmitCplt
 4640 0090 00000000 		.word	I2C_DMAError
 4641 0094 FF7FFFFF 		.word	-32769
 4642              		.cfi_endproc
 4643              	.LFE51:
 4644              		.size	HAL_I2C_Slave_Transmit_DMA, .-HAL_I2C_Slave_Transmit_DMA
 4645              		.section	.text.HAL_I2C_Slave_Receive_DMA,"ax",%progbits
 4646              		.align	1
 4647              		.p2align 2,,3
 4648              		.global	HAL_I2C_Slave_Receive_DMA
 4649              		.syntax unified
 4650              		.code	16
 4651              		.thumb_func
 4652              		.fpu softvfp
 4653              		.type	HAL_I2C_Slave_Receive_DMA, %function
 4654              	HAL_I2C_Slave_Receive_DMA:
 4655              	.LFB52:
 4656              		.loc 1 1662 0
 4657              		.cfi_startproc
 4658              		@ args = 0, pretend = 0, frame = 0
 4659              		@ frame_needed = 0, uses_anonymous_args = 0
 4660              	.LVL343:
 4661 0000 F8B5     		push	{r3, r4, r5, r6, r7, lr}
 4662              		.cfi_def_cfa_offset 24
 4663              		.cfi_offset 3, -24
 4664              		.cfi_offset 4, -20
 4665              		.cfi_offset 5, -16
 4666              		.cfi_offset 6, -12
 4667              		.cfi_offset 7, -8
 4668              		.cfi_offset 14, -4
 4669              		.loc 1 1663 0
 4670 0002 4125     		movs	r5, #65
 4671 0004 435D     		ldrb	r3, [r0, r5]
 4672              		.loc 1 1662 0
 4673 0006 0400     		movs	r4, r0
 4674              		.loc 1 1663 0
ARM GAS  C:\Users\anashi\AppData\Local\Temp\ccFEbQrI.s 			page 83


 4675 0008 DBB2     		uxtb	r3, r3
 4676              		.loc 1 1715 0
 4677 000a 0220     		movs	r0, #2
 4678              	.LVL344:
 4679              		.loc 1 1663 0
 4680 000c 202B     		cmp	r3, #32
 4681 000e 35D1     		bne	.L458
 4682              		.loc 1 1665 0
 4683 0010 0029     		cmp	r1, #0
 4684 0012 34D0     		beq	.L460
 4685              		.loc 1 1667 0 discriminator 1
 4686 0014 0138     		subs	r0, r0, #1
 4687              		.loc 1 1665 0 discriminator 1
 4688 0016 002A     		cmp	r2, #0
 4689 0018 30D0     		beq	.L458
 4690              		.loc 1 1670 0
 4691 001a 4026     		movs	r6, #64
 4692 001c A75D     		ldrb	r7, [r4, r6]
 4693 001e 012F     		cmp	r7, #1
 4694 0020 2FD0     		beq	.L462
 4695              		.loc 1 1670 0 is_stmt 0 discriminator 2
 4696 0022 A055     		strb	r0, [r4, r6]
 4697              		.loc 1 1672 0 is_stmt 1 discriminator 2
 4698 0024 2130     		adds	r0, r0, #33
 4699 0026 6055     		strb	r0, [r4, r5]
 4700              		.loc 1 1674 0 discriminator 2
 4701 0028 0025     		movs	r5, #0
 4702              		.loc 1 1673 0 discriminator 2
 4703 002a 2030     		adds	r0, r0, #32
 4704 002c 2354     		strb	r3, [r4, r0]
 4705              		.loc 1 1674 0 discriminator 2
 4706 002e 6564     		str	r5, [r4, #68]
 4707              		.loc 1 1678 0 discriminator 2
 4708 0030 6285     		strh	r2, [r4, #42]
 4709              		.loc 1 1680 0 discriminator 2
 4710 0032 154A     		ldr	r2, .L464
 4711              	.LVL345:
 4712              		.loc 1 1679 0 discriminator 2
 4713 0034 638D     		ldrh	r3, [r4, #42]
 4714              		.loc 1 1680 0 discriminator 2
 4715 0036 E262     		str	r2, [r4, #44]
 4716              	.LVL346:
 4717              		.loc 1 1681 0 discriminator 2
 4718 0038 144A     		ldr	r2, .L464+4
 4719              		.loc 1 1684 0 discriminator 2
 4720 003a E06B     		ldr	r0, [r4, #60]
 4721              		.loc 1 1681 0 discriminator 2
 4722 003c 6263     		str	r2, [r4, #52]
 4723              		.loc 1 1684 0 discriminator 2
 4724 003e 144A     		ldr	r2, .L464+8
 4725              		.loc 1 1679 0 discriminator 2
 4726 0040 9BB2     		uxth	r3, r3
 4727              		.loc 1 1694 0 discriminator 2
 4728 0042 2768     		ldr	r7, [r4]
 4729              		.loc 1 1677 0 discriminator 2
 4730 0044 6162     		str	r1, [r4, #36]
 4731              		.loc 1 1679 0 discriminator 2
ARM GAS  C:\Users\anashi\AppData\Local\Temp\ccFEbQrI.s 			page 84


 4732 0046 2385     		strh	r3, [r4, #40]
 4733              		.loc 1 1684 0 discriminator 2
 4734 0048 8262     		str	r2, [r0, #40]
 4735              		.loc 1 1687 0 discriminator 2
 4736 004a 124A     		ldr	r2, .L464+12
 4737              		.loc 1 1694 0 discriminator 2
 4738 004c 2437     		adds	r7, r7, #36
 4739              		.loc 1 1687 0 discriminator 2
 4740 004e 0263     		str	r2, [r0, #48]
 4741              		.loc 1 1690 0 discriminator 2
 4742 0050 C562     		str	r5, [r0, #44]
 4743              		.loc 1 1694 0 discriminator 2
 4744 0052 0A00     		movs	r2, r1
 4745              		.loc 1 1691 0 discriminator 2
 4746 0054 4563     		str	r5, [r0, #52]
 4747              		.loc 1 1694 0 discriminator 2
 4748 0056 3900     		movs	r1, r7
 4749              	.LVL347:
 4750 0058 FFF7FEFF 		bl	HAL_DMA_Start_IT
 4751              	.LVL348:
 4752              		.loc 1 1697 0 discriminator 2
 4753 005c 2368     		ldr	r3, [r4]
 4754 005e 0E49     		ldr	r1, .L464+16
 4755 0060 5A68     		ldr	r2, [r3, #4]
 4756              		.loc 1 1711 0 discriminator 2
 4757 0062 0020     		movs	r0, #0
 4758              		.loc 1 1697 0 discriminator 2
 4759 0064 0A40     		ands	r2, r1
 4760              	.LBB524:
 4761              	.LBB525:
 4762              		.loc 1 4783 0 discriminator 2
 4763 0066 B821     		movs	r1, #184
 4764              	.LBE525:
 4765              	.LBE524:
 4766              		.loc 1 1697 0 discriminator 2
 4767 0068 5A60     		str	r2, [r3, #4]
 4768              	.LBB528:
 4769              	.LBB526:
 4770              		.loc 1 4783 0 discriminator 2
 4771 006a 1A68     		ldr	r2, [r3]
 4772              	.LBE526:
 4773              	.LBE528:
 4774              		.loc 1 1700 0 discriminator 2
 4775 006c A555     		strb	r5, [r4, r6]
 4776              	.LVL349:
 4777              	.LBB529:
 4778              	.LBB527:
 4779              		.loc 1 4783 0 discriminator 2
 4780 006e 0A43     		orrs	r2, r1
 4781 0070 1A60     		str	r2, [r3]
 4782              	.LVL350:
 4783              	.LBE527:
 4784              	.LBE529:
 4785              		.loc 1 1709 0 discriminator 2
 4786 0072 8022     		movs	r2, #128
 4787 0074 1968     		ldr	r1, [r3]
 4788 0076 1202     		lsls	r2, r2, #8
ARM GAS  C:\Users\anashi\AppData\Local\Temp\ccFEbQrI.s 			page 85


 4789 0078 0A43     		orrs	r2, r1
 4790 007a 1A60     		str	r2, [r3]
 4791              	.L458:
 4792              		.loc 1 1717 0
 4793              		@ sp needed
 4794              	.LVL351:
 4795 007c F8BD     		pop	{r3, r4, r5, r6, r7, pc}
 4796              	.LVL352:
 4797              	.L460:
 4798              		.loc 1 1667 0
 4799 007e 0120     		movs	r0, #1
 4800 0080 FCE7     		b	.L458
 4801              	.L462:
 4802              		.loc 1 1715 0
 4803 0082 0220     		movs	r0, #2
 4804 0084 FAE7     		b	.L458
 4805              	.L465:
 4806 0086 C046     		.align	2
 4807              	.L464:
 4808 0088 0000FFFF 		.word	-65536
 4809 008c 00000000 		.word	I2C_Slave_ISR_DMA
 4810 0090 00000000 		.word	I2C_DMASlaveReceiveCplt
 4811 0094 00000000 		.word	I2C_DMAError
 4812 0098 FF7FFFFF 		.word	-32769
 4813              		.cfi_endproc
 4814              	.LFE52:
 4815              		.size	HAL_I2C_Slave_Receive_DMA, .-HAL_I2C_Slave_Receive_DMA
 4816              		.section	.text.HAL_I2C_Mem_Write,"ax",%progbits
 4817              		.align	1
 4818              		.p2align 2,,3
 4819              		.global	HAL_I2C_Mem_Write
 4820              		.syntax unified
 4821              		.code	16
 4822              		.thumb_func
 4823              		.fpu softvfp
 4824              		.type	HAL_I2C_Mem_Write, %function
 4825              	HAL_I2C_Mem_Write:
 4826              	.LFB53:
 4827              		.loc 1 1732 0
 4828              		.cfi_startproc
 4829              		@ args = 12, pretend = 0, frame = 0
 4830              		@ frame_needed = 0, uses_anonymous_args = 0
 4831              	.LVL353:
 4832 0000 F8B5     		push	{r3, r4, r5, r6, r7, lr}
 4833              		.cfi_def_cfa_offset 24
 4834              		.cfi_offset 3, -24
 4835              		.cfi_offset 4, -20
 4836              		.cfi_offset 5, -16
 4837              		.cfi_offset 6, -12
 4838              		.cfi_offset 7, -8
 4839              		.cfi_offset 14, -4
 4840 0002 5746     		mov	r7, r10
 4841 0004 4546     		mov	r5, r8
 4842 0006 DE46     		mov	lr, fp
 4843 0008 4E46     		mov	r6, r9
 4844 000a E0B5     		push	{r5, r6, r7, lr}
 4845              		.cfi_def_cfa_offset 40
ARM GAS  C:\Users\anashi\AppData\Local\Temp\ccFEbQrI.s 			page 86


 4846              		.cfi_offset 8, -40
 4847              		.cfi_offset 9, -36
 4848              		.cfi_offset 10, -32
 4849              		.cfi_offset 11, -28
 4850              		.loc 1 1732 0
 4851 000c 9A46     		mov	r10, r3
 4852 000e 0AAB     		add	r3, sp, #40
 4853              	.LVL354:
 4854 0010 20CB     		ldmia	r3!, {r5}
 4855              	.LVL355:
 4856 0012 0400     		movs	r4, r0
 4857              	.LVL356:
 4858 0014 1B88     		ldrh	r3, [r3]
 4859              	.LVL357:
 4860 0016 0F00     		movs	r7, r1
 4861 0018 9846     		mov	r8, r3
 4862              		.loc 1 1738 0
 4863 001a 4123     		movs	r3, #65
 4864 001c C35C     		ldrb	r3, [r0, r3]
 4865              		.loc 1 1732 0
 4866 001e 9346     		mov	fp, r2
 4867              		.loc 1 1867 0
 4868 0020 0220     		movs	r0, #2
 4869              	.LVL358:
 4870              		.loc 1 1738 0
 4871 0022 202B     		cmp	r3, #32
 4872 0024 00D0     		beq	.LCB4871
 4873 0026 B3E0     		b	.L467	@long jump
 4874              	.LCB4871:
 4875              		.loc 1 1740 0
 4876 0028 002D     		cmp	r5, #0
 4877 002a 00D1     		bne	.LCB4873
 4878 002c BDE0     		b	.L527	@long jump
 4879              	.LCB4873:
 4880              		.loc 1 1740 0 is_stmt 0 discriminator 1
 4881 002e 4346     		mov	r3, r8
 4882 0030 002B     		cmp	r3, #0
 4883 0032 00D1     		bne	.LCB4876
 4884 0034 B9E0     		b	.L527	@long jump
 4885              	.LCB4876:
 4886              		.loc 1 1746 0 is_stmt 1
 4887 0036 4023     		movs	r3, #64
 4888 0038 E25C     		ldrb	r2, [r4, r3]
 4889              	.LVL359:
 4890 003a 012A     		cmp	r2, #1
 4891 003c 00D1     		bne	.LCB4881
 4892 003e A7E0     		b	.L467	@long jump
 4893              	.LCB4881:
 4894              		.loc 1 1746 0 is_stmt 0 discriminator 2
 4895 0040 0122     		movs	r2, #1
 4896 0042 E254     		strb	r2, [r4, r3]
 4897              		.loc 1 1749 0 is_stmt 1 discriminator 2
 4898 0044 FFF7FEFF 		bl	HAL_GetTick
 4899              	.LVL360:
 4900              	.LBB552:
 4901              	.LBB553:
 4902              		.loc 1 4476 0 discriminator 2
ARM GAS  C:\Users\anashi\AppData\Local\Temp\ccFEbQrI.s 			page 87


 4903 0048 8023     		movs	r3, #128
 4904 004a 1B02     		lsls	r3, r3, #8
 4905              	.LBE553:
 4906              	.LBE552:
 4907              		.loc 1 1749 0 discriminator 2
 4908 004c 0600     		movs	r6, r0
 4909              	.LVL361:
 4910              	.LBB555:
 4911              	.LBB554:
 4912              		.loc 1 4476 0 discriminator 2
 4913 004e 9946     		mov	r9, r3
 4914 0050 05E0     		b	.L470
 4915              	.LVL362:
 4916              	.L471:
 4917              		.loc 1 4481 0
 4918 0052 FFF7FEFF 		bl	HAL_GetTick
 4919              	.LVL363:
 4920 0056 801B     		subs	r0, r0, r6
 4921 0058 1928     		cmp	r0, #25
 4922 005a 00D9     		bls	.LCB4915
 4923 005c A7E0     		b	.L490	@long jump
 4924              	.LCB4915:
 4925              	.L470:
 4926              		.loc 1 4476 0
 4927 005e 4946     		mov	r1, r9
 4928 0060 2268     		ldr	r2, [r4]
 4929 0062 9369     		ldr	r3, [r2, #24]
 4930 0064 0B40     		ands	r3, r1
 4931 0066 F4D1     		bne	.L471
 4932              	.LVL364:
 4933              	.LBE554:
 4934              	.LBE555:
 4935              		.loc 1 1756 0
 4936 0068 4121     		movs	r1, #65
 4937 006a 2120     		movs	r0, #33
 4938 006c 6054     		strb	r0, [r4, r1]
 4939              		.loc 1 1757 0
 4940 006e 0131     		adds	r1, r1, #1
 4941 0070 1F30     		adds	r0, r0, #31
 4942 0072 6054     		strb	r0, [r4, r1]
 4943              		.loc 1 1762 0
 4944 0074 4146     		mov	r1, r8
 4945              		.loc 1 1758 0
 4946 0076 6364     		str	r3, [r4, #68]
 4947              		.loc 1 1762 0
 4948 0078 6185     		strh	r1, [r4, #42]
 4949              	.LBB556:
 4950              	.LBB557:
 4951              	.LBB558:
 4952              	.LBB559:
 4953              		.loc 1 4702 0
 4954 007a 5168     		ldr	r1, [r2, #4]
 4955              	.LBE559:
 4956              	.LBE558:
 4957              	.LBE557:
 4958              	.LBE556:
 4959              		.loc 1 1763 0
ARM GAS  C:\Users\anashi\AppData\Local\Temp\ccFEbQrI.s 			page 88


 4960 007c 6363     		str	r3, [r4, #52]
 4961              	.LVL365:
 4962              	.LBB585:
 4963              	.LBB580:
 4964              	.LBB562:
 4965              	.LBB560:
 4966              		.loc 1 4705 0
 4967 007e 774B     		ldr	r3, .L532
 4968              		.loc 1 4708 0
 4969 0080 BF05     		lsls	r7, r7, #22
 4970              	.LVL366:
 4971              		.loc 1 4705 0
 4972 0082 1940     		ands	r1, r3
 4973              	.LVL367:
 4974              		.loc 1 4708 0
 4975 0084 5346     		mov	r3, r10
 4976 0086 D8B2     		uxtb	r0, r3
 4977 0088 754B     		ldr	r3, .L532+4
 4978 008a 0004     		lsls	r0, r0, #16
 4979 008c 0343     		orrs	r3, r0
 4980 008e BF0D     		lsrs	r7, r7, #22
 4981 0090 3B43     		orrs	r3, r7
 4982 0092 0B43     		orrs	r3, r1
 4983              	.LVL368:
 4984              	.LBE560:
 4985              	.LBE562:
 4986              	.LBE580:
 4987              	.LBE585:
 4988              		.loc 1 1761 0
 4989 0094 6562     		str	r5, [r4, #36]
 4990              	.LBB586:
 4991              	.LBB581:
 4992              		.loc 1 3647 0
 4993 0096 0C99     		ldr	r1, [sp, #48]
 4994              	.LBB563:
 4995              	.LBB561:
 4996              		.loc 1 4712 0
 4997 0098 5360     		str	r3, [r2, #4]
 4998              	.LVL369:
 4999              	.LBE561:
 5000              	.LBE563:
 5001              		.loc 1 3647 0
 5002 009a 2000     		movs	r0, r4
 5003 009c 3200     		movs	r2, r6
 5004 009e FFF7FEFF 		bl	I2C_WaitOnTXISFlagUntilTimeout
 5005              	.LVL370:
 5006 00a2 0028     		cmp	r0, #0
 5007 00a4 00D0     		beq	.LCB5011
 5008 00a6 79E0     		b	.L526	@long jump
 5009              	.LCB5011:
 5010              	.LVL371:
 5011              	.LBB564:
 5012              	.LBB565:
 5013              		.loc 1 3660 0
 5014 00a8 5346     		mov	r3, r10
 5015 00aa 2268     		ldr	r2, [r4]
 5016 00ac 012B     		cmp	r3, #1
ARM GAS  C:\Users\anashi\AppData\Local\Temp\ccFEbQrI.s 			page 89


 5017 00ae 0BD0     		beq	.L525
 5018              		.loc 1 3669 0
 5019 00b0 5B46     		mov	r3, fp
 5020 00b2 1B0A     		lsrs	r3, r3, #8
 5021 00b4 9362     		str	r3, [r2, #40]
 5022              		.loc 1 3672 0
 5023 00b6 0C99     		ldr	r1, [sp, #48]
 5024 00b8 3200     		movs	r2, r6
 5025 00ba 2000     		movs	r0, r4
 5026 00bc FFF7FEFF 		bl	I2C_WaitOnTXISFlagUntilTimeout
 5027              	.LVL372:
 5028 00c0 0028     		cmp	r0, #0
 5029 00c2 00D0     		beq	.LCB5034
 5030 00c4 6AE0     		b	.L526	@long jump
 5031              	.LCB5034:
 5032              		.loc 1 3685 0
 5033 00c6 2268     		ldr	r2, [r4]
 5034              	.L525:
 5035 00c8 5B46     		mov	r3, fp
 5036              	.LBB566:
 5037              	.LBB567:
 5038              		.loc 1 4476 0
 5039 00ca 8025     		movs	r5, #128
 5040              	.LBE567:
 5041              	.LBE566:
 5042              		.loc 1 3685 0
 5043 00cc DBB2     		uxtb	r3, r3
 5044 00ce 9362     		str	r3, [r2, #40]
 5045              	.LVL373:
 5046 00d0 0C9B     		ldr	r3, [sp, #48]
 5047              	.L478:
 5048 00d2 0133     		adds	r3, r3, #1
 5049 00d4 00D0     		beq	.LCB5057
 5050 00d6 94E0     		b	.L479	@long jump
 5051              	.LCB5057:
 5052              	.LBB571:
 5053              	.LBB568:
 5054              		.loc 1 4476 0
 5055 00d8 8021     		movs	r1, #128
 5056              	.L480:
 5057 00da 9369     		ldr	r3, [r2, #24]
 5058 00dc 1942     		tst	r1, r3
 5059 00de FCD0     		beq	.L480
 5060              	.L481:
 5061              	.LVL374:
 5062              	.LBE568:
 5063              	.LBE571:
 5064              	.LBE565:
 5065              	.LBE564:
 5066              	.LBE581:
 5067              	.LBE586:
 5068              		.loc 1 1783 0
 5069 00e0 638D     		ldrh	r3, [r4, #42]
 5070 00e2 FF2B     		cmp	r3, #255
 5071 00e4 00D8     		bhi	.LCB5083
 5072 00e6 9BE0     		b	.L530	@long jump
 5073              	.LCB5083:
ARM GAS  C:\Users\anashi\AppData\Local\Temp\ccFEbQrI.s 			page 90


 5074              		.loc 1 1785 0
 5075 00e8 FF23     		movs	r3, #255
 5076              	.LBB587:
 5077              	.LBB588:
 5078              		.loc 1 4705 0
 5079 00ea 5C49     		ldr	r1, .L532
 5080              	.LBE588:
 5081              	.LBE587:
 5082              		.loc 1 1785 0
 5083 00ec 2385     		strh	r3, [r4, #40]
 5084              	.LVL375:
 5085              	.LBB590:
 5086              	.LBB589:
 5087              		.loc 1 4702 0
 5088 00ee 5368     		ldr	r3, [r2, #4]
 5089              	.LVL376:
 5090              		.loc 1 4705 0
 5091 00f0 1940     		ands	r1, r3
 5092              	.LVL377:
 5093              		.loc 1 4708 0
 5094 00f2 5C4B     		ldr	r3, .L532+8
 5095 00f4 3B43     		orrs	r3, r7
 5096 00f6 0B43     		orrs	r3, r1
 5097              	.LVL378:
 5098              		.loc 1 4712 0
 5099 00f8 5360     		str	r3, [r2, #4]
 5100              	.LVL379:
 5101              	.L486:
 5102              	.LBE589:
 5103              	.LBE590:
 5104              	.LBB591:
 5105              	.LBB592:
 5106              		.loc 1 4708 0
 5107 00fa 8023     		movs	r3, #128
 5108 00fc 9B04     		lsls	r3, r3, #18
 5109 00fe 3B43     		orrs	r3, r7
 5110              	.LBE592:
 5111              	.LBE591:
 5112              	.LBB597:
 5113              	.LBB598:
 5114              		.loc 1 4476 0
 5115 0100 8025     		movs	r5, #128
 5116              	.LBE598:
 5117              	.LBE597:
 5118              	.LBB602:
 5119              	.LBB593:
 5120              		.loc 1 4708 0
 5121 0102 9846     		mov	r8, r3
 5122 0104 02E0     		b	.L496
 5123              	.L488:
 5124              	.LBE593:
 5125              	.LBE602:
 5126              		.loc 1 1835 0
 5127 0106 638D     		ldrh	r3, [r4, #42]
 5128 0108 002B     		cmp	r3, #0
 5129 010a 2DD0     		beq	.L531
 5130              	.L496:
ARM GAS  C:\Users\anashi\AppData\Local\Temp\ccFEbQrI.s 			page 91


 5131              		.loc 1 1797 0
 5132 010c 3200     		movs	r2, r6
 5133 010e 0C99     		ldr	r1, [sp, #48]
 5134 0110 2000     		movs	r0, r4
 5135 0112 FFF7FEFF 		bl	I2C_WaitOnTXISFlagUntilTimeout
 5136              	.LVL380:
 5137 0116 0028     		cmp	r0, #0
 5138 0118 00D0     		beq	.LCB5161
 5139 011a 6DE0     		b	.L524	@long jump
 5140              	.LCB5161:
 5141              		.loc 1 1810 0
 5142 011c 636A     		ldr	r3, [r4, #36]
 5143 011e 5A1C     		adds	r2, r3, #1
 5144 0120 6262     		str	r2, [r4, #36]
 5145 0122 1B78     		ldrb	r3, [r3]
 5146 0124 2268     		ldr	r2, [r4]
 5147 0126 9362     		str	r3, [r2, #40]
 5148              		.loc 1 1811 0
 5149 0128 638D     		ldrh	r3, [r4, #42]
 5150 012a 013B     		subs	r3, r3, #1
 5151 012c 9BB2     		uxth	r3, r3
 5152 012e 6385     		strh	r3, [r4, #42]
 5153              		.loc 1 1812 0
 5154 0130 238D     		ldrh	r3, [r4, #40]
 5155 0132 013B     		subs	r3, r3, #1
 5156 0134 9BB2     		uxth	r3, r3
 5157 0136 2385     		strh	r3, [r4, #40]
 5158              		.loc 1 1814 0
 5159 0138 002B     		cmp	r3, #0
 5160 013a E4D1     		bne	.L488
 5161              		.loc 1 1814 0 is_stmt 0 discriminator 1
 5162 013c 638D     		ldrh	r3, [r4, #42]
 5163 013e 002B     		cmp	r3, #0
 5164 0140 E1D0     		beq	.L488
 5165 0142 0C9B     		ldr	r3, [sp, #48]
 5166              	.L489:
 5167 0144 0133     		adds	r3, r3, #1
 5168 0146 3CD1     		bne	.L491
 5169              	.L492:
 5170              	.LBB603:
 5171              	.LBB599:
 5172              		.loc 1 4476 0 is_stmt 1
 5173 0148 9369     		ldr	r3, [r2, #24]
 5174 014a 1D42     		tst	r5, r3
 5175 014c FCD0     		beq	.L492
 5176              	.L493:
 5177              	.LBE599:
 5178              	.LBE603:
 5179              		.loc 1 1822 0
 5180 014e 638D     		ldrh	r3, [r4, #42]
 5181 0150 FF2B     		cmp	r3, #255
 5182 0152 44D9     		bls	.L495
 5183              		.loc 1 1824 0
 5184 0154 FF23     		movs	r3, #255
 5185              	.LBB604:
 5186              	.LBB605:
 5187              		.loc 1 4705 0
ARM GAS  C:\Users\anashi\AppData\Local\Temp\ccFEbQrI.s 			page 92


 5188 0156 4149     		ldr	r1, .L532
 5189              	.LBE605:
 5190              	.LBE604:
 5191              		.loc 1 1824 0
 5192 0158 2385     		strh	r3, [r4, #40]
 5193              	.LVL381:
 5194              	.LBB607:
 5195              	.LBB606:
 5196              		.loc 1 4702 0
 5197 015a 5368     		ldr	r3, [r2, #4]
 5198              	.LVL382:
 5199              		.loc 1 4705 0
 5200 015c 1940     		ands	r1, r3
 5201              	.LVL383:
 5202              		.loc 1 4708 0
 5203 015e 414B     		ldr	r3, .L532+8
 5204 0160 3B43     		orrs	r3, r7
 5205 0162 0B43     		orrs	r3, r1
 5206              	.LVL384:
 5207              		.loc 1 4712 0
 5208 0164 5360     		str	r3, [r2, #4]
 5209 0166 CEE7     		b	.L488
 5210              	.LVL385:
 5211              	.L531:
 5212              	.LBE606:
 5213              	.LBE607:
 5214              		.loc 1 1839 0
 5215 0168 3200     		movs	r2, r6
 5216 016a 0C99     		ldr	r1, [sp, #48]
 5217 016c 2000     		movs	r0, r4
 5218 016e FFF7FEFF 		bl	I2C_WaitOnSTOPFlagUntilTimeout
 5219              	.LVL386:
 5220 0172 0028     		cmp	r0, #0
 5221 0174 40D1     		bne	.L524
 5222              		.loc 1 1852 0
 5223 0176 2021     		movs	r1, #32
 5224 0178 2368     		ldr	r3, [r4]
 5225              		.loc 1 1855 0
 5226 017a 3B4D     		ldr	r5, .L532+12
 5227              		.loc 1 1852 0
 5228 017c D961     		str	r1, [r3, #28]
 5229              		.loc 1 1855 0
 5230 017e 5A68     		ldr	r2, [r3, #4]
 5231 0180 2A40     		ands	r2, r5
 5232 0182 5A60     		str	r2, [r3, #4]
 5233              		.loc 1 1857 0
 5234 0184 4123     		movs	r3, #65
 5235 0186 E154     		strb	r1, [r4, r3]
 5236              		.loc 1 1858 0
 5237 0188 0133     		adds	r3, r3, #1
 5238 018a E054     		strb	r0, [r4, r3]
 5239              		.loc 1 1861 0
 5240 018c 023B     		subs	r3, r3, #2
 5241 018e E054     		strb	r0, [r4, r3]
 5242              	.LVL387:
 5243              	.L467:
 5244              		.loc 1 1869 0
ARM GAS  C:\Users\anashi\AppData\Local\Temp\ccFEbQrI.s 			page 93


 5245              		@ sp needed
 5246              	.LVL388:
 5247 0190 3CBC     		pop	{r2, r3, r4, r5}
 5248 0192 9046     		mov	r8, r2
 5249 0194 9946     		mov	r9, r3
 5250 0196 A246     		mov	r10, r4
 5251 0198 AB46     		mov	fp, r5
 5252 019a F8BD     		pop	{r3, r4, r5, r6, r7, pc}
 5253              	.LVL389:
 5254              	.L526:
 5255              	.LBB608:
 5256              	.LBB582:
 5257              	.LBB577:
 5258              	.LBB574:
 5259              		.loc 1 3674 0
 5260 019c 636C     		ldr	r3, [r4, #68]
 5261              	.LVL390:
 5262              	.L473:
 5263              	.LBE574:
 5264              	.LBE577:
 5265              	.LBE582:
 5266              	.LBE608:
 5267              		.loc 1 1768 0
 5268 019e 636C     		ldr	r3, [r4, #68]
 5269 01a0 042B     		cmp	r3, #4
 5270 01a2 4CD1     		bne	.L485
 5271              		.loc 1 1771 0
 5272 01a4 0022     		movs	r2, #0
 5273 01a6 3C33     		adds	r3, r3, #60
 5274 01a8 E254     		strb	r2, [r4, r3]
 5275              	.LVL391:
 5276              	.L527:
 5277              		.loc 1 1772 0
 5278 01aa 0120     		movs	r0, #1
 5279 01ac F0E7     		b	.L467
 5280              	.LVL392:
 5281              	.L490:
 5282              	.LBB609:
 5283              	.LBB600:
 5284              		.loc 1 4483 0
 5285 01ae 4123     		movs	r3, #65
 5286 01b0 2022     		movs	r2, #32
 5287 01b2 E254     		strb	r2, [r4, r3]
 5288              		.loc 1 4484 0
 5289 01b4 0023     		movs	r3, #0
 5290 01b6 2232     		adds	r2, r2, #34
 5291 01b8 A354     		strb	r3, [r4, r2]
 5292              		.loc 1 4487 0
 5293 01ba 023A     		subs	r2, r2, #2
 5294 01bc A354     		strb	r3, [r4, r2]
 5295              	.L528:
 5296              	.LBE600:
 5297              	.LBE609:
 5298              		.loc 1 1819 0
 5299 01be 0320     		movs	r0, #3
 5300 01c0 E6E7     		b	.L467
 5301              	.LVL393:
ARM GAS  C:\Users\anashi\AppData\Local\Temp\ccFEbQrI.s 			page 94


 5302              	.L491:
 5303              	.LBB610:
 5304              	.LBB601:
 5305              		.loc 1 4476 0
 5306 01c2 9369     		ldr	r3, [r2, #24]
 5307 01c4 1D42     		tst	r5, r3
 5308 01c6 C2D1     		bne	.L493
 5309              		.loc 1 4481 0
 5310 01c8 0C9B     		ldr	r3, [sp, #48]
 5311 01ca 002B     		cmp	r3, #0
 5312 01cc EFD0     		beq	.L490
 5313 01ce FFF7FEFF 		bl	HAL_GetTick
 5314              	.LVL394:
 5315 01d2 0C9B     		ldr	r3, [sp, #48]
 5316 01d4 801B     		subs	r0, r0, r6
 5317 01d6 8342     		cmp	r3, r0
 5318 01d8 E9D3     		bcc	.L490
 5319 01da 2268     		ldr	r2, [r4]
