ARM GAS  C:\Users\anashi\AppData\Local\Temp\ccxfSh5N.s 			page 1


   1              		.cpu cortex-m0
   2              		.eabi_attribute 20, 1
   3              		.eabi_attribute 21, 1
   4              		.eabi_attribute 23, 3
   5              		.eabi_attribute 24, 1
   6              		.eabi_attribute 25, 1
   7              		.eabi_attribute 26, 1
   8              		.eabi_attribute 30, 6
   9              		.eabi_attribute 34, 0
  10              		.eabi_attribute 18, 4
  11              		.file	"led.c"
  12              		.text
  13              	.Ltext0:
  14              		.cfi_sections	.debug_frame
  15              		.section	.text.led_init,"ax",%progbits
  16              		.align	1
  17              		.global	led_init
  18              		.syntax unified
  19              		.code	16
  20              		.thumb_func
  21              		.fpu softvfp
  22              		.type	led_init, %function
  23              	led_init:
  24              	.LFB37:
  25              		.file 1 "C:/repos/rs2all/board/src/led.c"
  26              		.loc 1 6 0
  27              		.cfi_startproc
  28              		@ args = 0, pretend = 0, frame = 24
  29              		@ frame_needed = 1, uses_anonymous_args = 0
  30 0000 80B5     		push	{r7, lr}
  31              		.cfi_def_cfa_offset 8
  32              		.cfi_offset 7, -8
  33              		.cfi_offset 14, -4
  34 0002 86B0     		sub	sp, sp, #24
  35              		.cfi_def_cfa_offset 32
  36 0004 00AF     		add	r7, sp, #0
  37              		.cfi_def_cfa_register 7
  38              		.loc 1 7 0
  39 0006 9023     		movs	r3, #144
  40 0008 DB05     		lsls	r3, r3, #23
  41 000a 0022     		movs	r2, #0
  42 000c 2021     		movs	r1, #32
  43 000e 1800     		movs	r0, r3
  44 0010 FFF7FEFF 		bl	HAL_GPIO_WritePin
  45              		.loc 1 9 0
  46 0014 3B1D     		adds	r3, r7, #4
  47 0016 1800     		movs	r0, r3
  48 0018 1423     		movs	r3, #20
  49 001a 1A00     		movs	r2, r3
  50 001c 0021     		movs	r1, #0
  51 001e FFF7FEFF 		bl	memset
  52              		.loc 1 10 0
  53 0022 3B1D     		adds	r3, r7, #4
  54 0024 2022     		movs	r2, #32
  55 0026 1A60     		str	r2, [r3]
  56              		.loc 1 11 0
  57 0028 3B1D     		adds	r3, r7, #4
ARM GAS  C:\Users\anashi\AppData\Local\Temp\ccxfSh5N.s 			page 2


  58 002a 0122     		movs	r2, #1
  59 002c 5A60     		str	r2, [r3, #4]
  60              		.loc 1 12 0
  61 002e 3B1D     		adds	r3, r7, #4
  62 0030 0022     		movs	r2, #0
  63 0032 9A60     		str	r2, [r3, #8]
  64              		.loc 1 13 0
  65 0034 3B1D     		adds	r3, r7, #4
  66 0036 0022     		movs	r2, #0
  67 0038 DA60     		str	r2, [r3, #12]
  68              		.loc 1 14 0
  69 003a 3A1D     		adds	r2, r7, #4
  70 003c 9023     		movs	r3, #144
  71 003e DB05     		lsls	r3, r3, #23
  72 0040 1100     		movs	r1, r2
  73 0042 1800     		movs	r0, r3
  74 0044 FFF7FEFF 		bl	HAL_GPIO_Init
  75              		.loc 1 16 0
  76 0048 9023     		movs	r3, #144
  77 004a DB05     		lsls	r3, r3, #23
  78 004c 0122     		movs	r2, #1
  79 004e 2021     		movs	r1, #32
  80 0050 1800     		movs	r0, r3
  81 0052 FFF7FEFF 		bl	HAL_GPIO_WritePin
  82              		.loc 1 17 0
  83 0056 C046     		nop
  84 0058 BD46     		mov	sp, r7
  85 005a 06B0     		add	sp, sp, #24
  86              		@ sp needed
  87 005c 80BD     		pop	{r7, pc}
  88              		.cfi_endproc
  89              	.LFE37:
  90              		.size	led_init, .-led_init
  91              		.section	.text.led_toggle,"ax",%progbits
  92              		.align	1
  93              		.global	led_toggle
  94              		.syntax unified
  95              		.code	16
  96              		.thumb_func
  97              		.fpu softvfp
  98              		.type	led_toggle, %function
  99              	led_toggle:
 100              	.LFB38:
 101              		.loc 1 19 0
 102              		.cfi_startproc
 103              		@ args = 0, pretend = 0, frame = 0
 104              		@ frame_needed = 1, uses_anonymous_args = 0
 105 0000 80B5     		push	{r7, lr}
 106              		.cfi_def_cfa_offset 8
 107              		.cfi_offset 7, -8
 108              		.cfi_offset 14, -4
 109 0002 00AF     		add	r7, sp, #0
 110              		.cfi_def_cfa_register 7
 111              		.loc 1 20 0
 112 0004 9023     		movs	r3, #144
 113 0006 DB05     		lsls	r3, r3, #23
 114 0008 2021     		movs	r1, #32
ARM GAS  C:\Users\anashi\AppData\Local\Temp\ccxfSh5N.s 			page 3


 115 000a 1800     		movs	r0, r3
 116 000c FFF7FEFF 		bl	HAL_GPIO_TogglePin
 117              		.loc 1 21 0
 118 0010 C046     		nop
 119 0012 BD46     		mov	sp, r7
 120              		@ sp needed
 121 0014 80BD     		pop	{r7, pc}
 122              		.cfi_endproc
 123              	.LFE38:
 124              		.size	led_toggle, .-led_toggle
 125              		.text
 126              	.Letext0:
 127              		.file 2 "c:\\st\\stm32cubeide_1.1.0\\stm32cubeide\\plugins\\com.st.stm32cube.ide.mcu.externaltools
 128              		.file 3 "c:\\st\\stm32cubeide_1.1.0\\stm32cubeide\\plugins\\com.st.stm32cube.ide.mcu.externaltools
 129              		.file 4 "C:/repos/rs2all/board/Drivers/CMSIS/Device/ST/STM32F0xx/Include/system_stm32f0xx.h"
 130              		.file 5 "C:/repos/rs2all/board/Drivers/CMSIS/Device/ST/STM32F0xx/Include/stm32f030x6.h"
 131              		.file 6 "c:\\st\\stm32cubeide_1.1.0\\stm32cubeide\\plugins\\com.st.stm32cube.ide.mcu.externaltools
 132              		.file 7 "c:\\st\\stm32cubeide_1.1.0\\stm32cubeide\\plugins\\com.st.stm32cube.ide.mcu.externaltools
 133              		.file 8 "c:\\st\\stm32cubeide_1.1.0\\stm32cubeide\\plugins\\com.st.stm32cube.ide.mcu.externaltools
 134              		.file 9 "c:\\st\\stm32cubeide_1.1.0\\stm32cubeide\\plugins\\com.st.stm32cube.ide.mcu.externaltools
 135              		.file 10 "C:/repos/rs2all/board/Drivers/STM32F0xx_HAL_Driver/Inc/stm32f0xx_hal_gpio.h"
