ARM GAS  C:\Users\anashi\AppData\Local\Temp\cclQ4Qha.s 			page 1


   1              		.cpu cortex-m0
   2              		.eabi_attribute 20, 1
   3              		.eabi_attribute 21, 1
   4              		.eabi_attribute 23, 3
   5              		.eabi_attribute 24, 1
   6              		.eabi_attribute 25, 1
   7              		.eabi_attribute 26, 1
   8              		.eabi_attribute 30, 6
   9              		.eabi_attribute 34, 0
  10              		.eabi_attribute 18, 4
  11              		.file	"main.c"
  12              		.text
  13              	.Ltext0:
  14              		.cfi_sections	.debug_frame
  15              		.section	.text.main,"ax",%progbits
  16              		.align	1
  17              		.global	main
  18              		.syntax unified
  19              		.code	16
  20              		.thumb_func
  21              		.fpu softvfp
  22              		.type	main, %function
  23              	main:
  24              	.LFB37:
  25              		.file 1 "C:/repos/rs2all/projects/rs2all_tlc59116/src/main.c"
  26              		.loc 1 9 0
  27              		.cfi_startproc
  28              		@ args = 0, pretend = 0, frame = 16
  29              		@ frame_needed = 1, uses_anonymous_args = 0
  30 0000 90B5     		push	{r4, r7, lr}
  31              		.cfi_def_cfa_offset 12
  32              		.cfi_offset 4, -12
  33              		.cfi_offset 7, -8
  34              		.cfi_offset 14, -4
  35 0002 85B0     		sub	sp, sp, #20
  36              		.cfi_def_cfa_offset 32
  37 0004 00AF     		add	r7, sp, #0
  38              		.cfi_def_cfa_register 7
  39              		.loc 1 10 0
  40 0006 FFF7FEFF 		bl	HAL_Init
  41              		.loc 1 12 0
  42 000a FFF7FEFF 		bl	clock_init
  43 000e 0300     		movs	r3, r0
  44 0010 1A00     		movs	r2, r3
  45 0012 0123     		movs	r3, #1
  46 0014 5340     		eors	r3, r2
  47 0016 DBB2     		uxtb	r3, r3
  48 0018 002B     		cmp	r3, #0
  49 001a 00D0     		beq	.L2
  50              	.L3:
  51              		.loc 1 13 0 discriminator 1
  52 001c FEE7     		b	.L3
  53              	.L2:
  54              		.loc 1 16 0
  55 001e FFF7FEFF 		bl	led_init
  56              		.loc 1 18 0
  57 0022 FFF7FEFF 		bl	i2c_init
ARM GAS  C:\Users\anashi\AppData\Local\Temp\cclQ4Qha.s 			page 2


  58              		.loc 1 20 0
  59 0026 374A     		ldr	r2, .L6
  60 0028 374B     		ldr	r3, .L6+4
  61 002a 1100     		movs	r1, r2
  62 002c 1800     		movs	r0, r3
  63 002e FFF7FEFF 		bl	tlc_init
  64              		.loc 1 21 0
  65 0032 6020     		movs	r0, #96
  66 0034 FFF7FEFF 		bl	tlc_setup
  67              		.loc 1 23 0
  68 0038 0222     		movs	r2, #2
  69 003a 0721     		movs	r1, #7
  70 003c 6020     		movs	r0, #96
  71 003e FFF7FEFF 		bl	tlc_enable_ch
  72              		.loc 1 24 0
  73 0042 0322     		movs	r2, #3
  74 0044 0721     		movs	r1, #7
  75 0046 6020     		movs	r0, #96
  76 0048 FFF7FEFF 		bl	tlc_enable_ch
  77              		.loc 1 25 0
  78 004c 0422     		movs	r2, #4
  79 004e 0721     		movs	r1, #7
  80 0050 6020     		movs	r0, #96
  81 0052 FFF7FEFF 		bl	tlc_enable_ch
  82              		.loc 1 26 0
  83 0056 0522     		movs	r2, #5
  84 0058 0721     		movs	r1, #7
  85 005a 6020     		movs	r0, #96
  86 005c FFF7FEFF 		bl	tlc_enable_ch
  87              		.loc 1 27 0
  88 0060 0622     		movs	r2, #6
  89 0062 0721     		movs	r1, #7
  90 0064 6020     		movs	r0, #96
  91 0066 FFF7FEFF 		bl	tlc_enable_ch
  92              		.loc 1 28 0
  93 006a 0722     		movs	r2, #7
  94 006c 0721     		movs	r1, #7
  95 006e 6020     		movs	r0, #96
  96 0070 FFF7FEFF 		bl	tlc_enable_ch
  97              		.loc 1 29 0
  98 0074 0822     		movs	r2, #8
  99 0076 0721     		movs	r1, #7
 100 0078 6020     		movs	r0, #96
 101 007a FFF7FEFF 		bl	tlc_enable_ch
 102              		.loc 1 30 0
 103 007e 0922     		movs	r2, #9
 104 0080 0721     		movs	r1, #7
 105 0082 6020     		movs	r0, #96
 106 0084 FFF7FEFF 		bl	tlc_enable_ch
 107              		.loc 1 31 0
 108 0088 0A22     		movs	r2, #10
 109 008a 0721     		movs	r1, #7
 110 008c 6020     		movs	r0, #96
 111 008e FFF7FEFF 		bl	tlc_enable_ch
 112              		.loc 1 32 0
 113 0092 0B22     		movs	r2, #11
 114 0094 0721     		movs	r1, #7
ARM GAS  C:\Users\anashi\AppData\Local\Temp\cclQ4Qha.s 			page 3


 115 0096 6020     		movs	r0, #96
 116 0098 FFF7FEFF 		bl	tlc_enable_ch
 117              		.loc 1 33 0
 118 009c 0C22     		movs	r2, #12
 119 009e 0721     		movs	r1, #7
 120 00a0 6020     		movs	r0, #96
 121 00a2 FFF7FEFF 		bl	tlc_enable_ch
 122              		.loc 1 34 0
 123 00a6 0D22     		movs	r2, #13
 124 00a8 0721     		movs	r1, #7
 125 00aa 6020     		movs	r0, #96
 126 00ac FFF7FEFF 		bl	tlc_enable_ch
 127              		.loc 1 35 0
 128 00b0 0E22     		movs	r2, #14
 129 00b2 0721     		movs	r1, #7
 130 00b4 6020     		movs	r0, #96
 131 00b6 FFF7FEFF 		bl	tlc_enable_ch
 132              		.loc 1 36 0
 133 00ba 0F22     		movs	r2, #15
 134 00bc 0721     		movs	r1, #7
 135 00be 6020     		movs	r0, #96
 136 00c0 FFF7FEFF 		bl	tlc_enable_ch
 137              		.loc 1 37 0
 138 00c4 1022     		movs	r2, #16
 139 00c6 0721     		movs	r1, #7
 140 00c8 6020     		movs	r0, #96
 141 00ca FFF7FEFF 		bl	tlc_enable_ch
 142              		.loc 1 40 0
 143 00ce 3B1D     		adds	r3, r7, #4
 144 00d0 0022     		movs	r2, #0
 145 00d2 1A70     		strb	r2, [r3]
 146              		.loc 1 41 0
 147 00d4 3B1D     		adds	r3, r7, #4
 148 00d6 FA22     		movs	r2, #250
 149 00d8 5200     		lsls	r2, r2, #1
 150 00da 5A60     		str	r2, [r3, #4]
 151              		.loc 1 42 0
 152 00dc 0F23     		movs	r3, #15
 153 00de FC18     		adds	r4, r7, r3
 154 00e0 3B1D     		adds	r3, r7, #4
 155 00e2 1868     		ldr	r0, [r3]
 156 00e4 5968     		ldr	r1, [r3, #4]
 157 00e6 FFF7FEFF 		bl	swtimer_add_timer
 158 00ea 0300     		movs	r3, r0
 159 00ec 2370     		strb	r3, [r4]
 160              	.L5:
 161              		.loc 1 46 0
 162 00ee 0F23     		movs	r3, #15
 163 00f0 FB18     		adds	r3, r7, r3
 164 00f2 1B78     		ldrb	r3, [r3]
 165 00f4 1800     		movs	r0, r3
 166 00f6 FFF7FEFF 		bl	swtimer_is_timeout
 167 00fa 031E     		subs	r3, r0, #0
 168 00fc F7D0     		beq	.L5
 169              		.loc 1 47 0
 170 00fe FFF7FEFF 		bl	led_toggle
 171              		.loc 1 46 0
ARM GAS  C:\Users\anashi\AppData\Local\Temp\cclQ4Qha.s 			page 4


 172 0102 F4E7     		b	.L5
 173              	.L7:
 174              		.align	2
 175              	.L6:
 176 0104 00000000 		.word	i2c_write
 177 0108 00000000 		.word	i2c_read
 178              		.cfi_endproc
 179              	.LFE37:
 180              		.size	main, .-main
 181              		.text
 182              	.Letext0:
 183              		.file 2 "c:\\st\\stm32cubeide_1.1.0\\stm32cubeide\\plugins\\com.st.stm32cube.ide.mcu.externaltools
 184              		.file 3 "c:\\st\\stm32cubeide_1.1.0\\stm32cubeide\\plugins\\com.st.stm32cube.ide.mcu.externaltools
 185              		.file 4 "C:/repos/rs2all/board/Drivers/CMSIS/Device/ST/STM32F0xx/Include/system_stm32f0xx.h"
 186              		.file 5 "c:\\st\\stm32cubeide_1.1.0\\stm32cubeide\\plugins\\com.st.stm32cube.ide.mcu.externaltools
 187              		.file 6 "c:\\st\\stm32cubeide_1.1.0\\stm32cubeide\\plugins\\com.st.stm32cube.ide.mcu.externaltools
 188              		.file 7 "c:\\st\\stm32cubeide_1.1.0\\stm32cubeide\\plugins\\com.st.stm32cube.ide.mcu.externaltools
 189              		.file 8 "c:\\st\\stm32cubeide_1.1.0\\stm32cubeide\\plugins\\com.st.stm32cube.ide.mcu.externaltools
 190              		.file 9 "C:/repos/rs2all/components/swtimer/src/swtimer.h"
 191              		.file 10 "C:/repos/rs2all/components/tlc59116/src/tlc59116.h"
 192              		.file 11 "c:\\st\\stm32cubeide_1.1.0\\stm32cubeide\\plugins\\com.st.stm32cube.ide.mcu.externaltool
