ARM GAS  C:\Users\anashi\AppData\Local\Temp\ccYpfHPh.s 			page 1


   1              		.cpu cortex-m0
   2              		.eabi_attribute 20, 1
   3              		.eabi_attribute 21, 1
   4              		.eabi_attribute 23, 3
   5              		.eabi_attribute 24, 1
   6              		.eabi_attribute 25, 1
   7              		.eabi_attribute 26, 1
   8              		.eabi_attribute 30, 6
   9              		.eabi_attribute 34, 0
  10              		.eabi_attribute 18, 4
  11              		.file	"stm32f0xx_hal_cortex.c"
  12              		.text
  13              	.Ltext0:
  14              		.cfi_sections	.debug_frame
  15              		.section	.text.NVIC_EnableIRQ,"ax",%progbits
  16              		.align	1
  17              		.syntax unified
  18              		.code	16
  19              		.thumb_func
  20              		.fpu softvfp
  21              		.type	NVIC_EnableIRQ, %function
  22              	NVIC_EnableIRQ:
  23              	.LFB25:
  24              		.file 1 "C:/repos/rs2all/board/Drivers/CMSIS/Include/core_cm0.h"
  25              		.loc 1 630 0
  26              		.cfi_startproc
  27              		@ args = 0, pretend = 0, frame = 8
  28              		@ frame_needed = 1, uses_anonymous_args = 0
  29 0000 80B5     		push	{r7, lr}
  30              		.cfi_def_cfa_offset 8
  31              		.cfi_offset 7, -8
  32              		.cfi_offset 14, -4
  33 0002 82B0     		sub	sp, sp, #8
  34              		.cfi_def_cfa_offset 16
  35 0004 00AF     		add	r7, sp, #0
  36              		.cfi_def_cfa_register 7
  37 0006 0200     		movs	r2, r0
  38 0008 FB1D     		adds	r3, r7, #7
  39 000a 1A70     		strb	r2, [r3]
  40              		.loc 1 631 0
  41 000c FB1D     		adds	r3, r7, #7
  42 000e 1B78     		ldrb	r3, [r3]
  43 0010 1A00     		movs	r2, r3
  44 0012 1F23     		movs	r3, #31
  45 0014 1A40     		ands	r2, r3
  46 0016 044B     		ldr	r3, .L2
  47 0018 0121     		movs	r1, #1
  48 001a 9140     		lsls	r1, r1, r2
  49 001c 0A00     		movs	r2, r1
  50 001e 1A60     		str	r2, [r3]
  51              		.loc 1 632 0
  52 0020 C046     		nop
  53 0022 BD46     		mov	sp, r7
  54 0024 02B0     		add	sp, sp, #8
  55              		@ sp needed
  56 0026 80BD     		pop	{r7, pc}
  57              	.L3:
ARM GAS  C:\Users\anashi\AppData\Local\Temp\ccYpfHPh.s 			page 2


  58              		.align	2
  59              	.L2:
  60 0028 00E100E0 		.word	-536813312
  61              		.cfi_endproc
  62              	.LFE25:
  63              		.size	NVIC_EnableIRQ, .-NVIC_EnableIRQ
  64              		.section	.text.NVIC_DisableIRQ,"ax",%progbits
  65              		.align	1
  66              		.syntax unified
  67              		.code	16
  68              		.thumb_func
  69              		.fpu softvfp
  70              		.type	NVIC_DisableIRQ, %function
  71              	NVIC_DisableIRQ:
  72              	.LFB26:
  73              		.loc 1 641 0
  74              		.cfi_startproc
  75              		@ args = 0, pretend = 0, frame = 8
  76              		@ frame_needed = 1, uses_anonymous_args = 0
  77 0000 80B5     		push	{r7, lr}
  78              		.cfi_def_cfa_offset 8
  79              		.cfi_offset 7, -8
  80              		.cfi_offset 14, -4
  81 0002 82B0     		sub	sp, sp, #8
  82              		.cfi_def_cfa_offset 16
  83 0004 00AF     		add	r7, sp, #0
  84              		.cfi_def_cfa_register 7
  85 0006 0200     		movs	r2, r0
  86 0008 FB1D     		adds	r3, r7, #7
  87 000a 1A70     		strb	r2, [r3]
  88              		.loc 1 642 0
  89 000c FB1D     		adds	r3, r7, #7
  90 000e 1B78     		ldrb	r3, [r3]
  91 0010 1A00     		movs	r2, r3
  92 0012 1F23     		movs	r3, #31
  93 0014 1340     		ands	r3, r2
  94 0016 0549     		ldr	r1, .L5
  95 0018 0122     		movs	r2, #1
  96 001a 9A40     		lsls	r2, r2, r3
  97 001c 1300     		movs	r3, r2
  98 001e 8022     		movs	r2, #128
  99 0020 8B50     		str	r3, [r1, r2]
 100              		.loc 1 643 0
 101 0022 C046     		nop
 102 0024 BD46     		mov	sp, r7
 103 0026 02B0     		add	sp, sp, #8
 104              		@ sp needed
 105 0028 80BD     		pop	{r7, pc}
 106              	.L6:
 107 002a C046     		.align	2
 108              	.L5:
 109 002c 00E100E0 		.word	-536813312
 110              		.cfi_endproc
 111              	.LFE26:
 112              		.size	NVIC_DisableIRQ, .-NVIC_DisableIRQ
 113              		.section	.text.NVIC_GetPendingIRQ,"ax",%progbits
 114              		.align	1
ARM GAS  C:\Users\anashi\AppData\Local\Temp\ccYpfHPh.s 			page 3


 115              		.syntax unified
 116              		.code	16
 117              		.thumb_func
 118              		.fpu softvfp
 119              		.type	NVIC_GetPendingIRQ, %function
 120              	NVIC_GetPendingIRQ:
 121              	.LFB27:
 122              		.loc 1 654 0
 123              		.cfi_startproc
 124              		@ args = 0, pretend = 0, frame = 8
 125              		@ frame_needed = 1, uses_anonymous_args = 0
 126 0000 80B5     		push	{r7, lr}
 127              		.cfi_def_cfa_offset 8
 128              		.cfi_offset 7, -8
 129              		.cfi_offset 14, -4
 130 0002 82B0     		sub	sp, sp, #8
 131              		.cfi_def_cfa_offset 16
 132 0004 00AF     		add	r7, sp, #0
 133              		.cfi_def_cfa_register 7
 134 0006 0200     		movs	r2, r0
 135 0008 FB1D     		adds	r3, r7, #7
 136 000a 1A70     		strb	r2, [r3]
 137              		.loc 1 655 0
 138 000c 084A     		ldr	r2, .L9
 139 000e 8023     		movs	r3, #128
 140 0010 5B00     		lsls	r3, r3, #1
 141 0012 D258     		ldr	r2, [r2, r3]
 142 0014 FB1D     		adds	r3, r7, #7
 143 0016 1B78     		ldrb	r3, [r3]
 144 0018 1900     		movs	r1, r3
 145 001a 1F23     		movs	r3, #31
 146 001c 0B40     		ands	r3, r1
 147 001e DA40     		lsrs	r2, r2, r3
 148 0020 1300     		movs	r3, r2
 149 0022 0122     		movs	r2, #1
 150 0024 1340     		ands	r3, r2
 151              		.loc 1 656 0
 152 0026 1800     		movs	r0, r3
 153 0028 BD46     		mov	sp, r7
 154 002a 02B0     		add	sp, sp, #8
 155              		@ sp needed
 156 002c 80BD     		pop	{r7, pc}
 157              	.L10:
 158 002e C046     		.align	2
 159              	.L9:
 160 0030 00E100E0 		.word	-536813312
 161              		.cfi_endproc
 162              	.LFE27:
 163              		.size	NVIC_GetPendingIRQ, .-NVIC_GetPendingIRQ
 164              		.section	.text.NVIC_SetPendingIRQ,"ax",%progbits
 165              		.align	1
 166              		.syntax unified
 167              		.code	16
 168              		.thumb_func
 169              		.fpu softvfp
 170              		.type	NVIC_SetPendingIRQ, %function
 171              	NVIC_SetPendingIRQ:
ARM GAS  C:\Users\anashi\AppData\Local\Temp\ccYpfHPh.s 			page 4


 172              	.LFB28:
 173              		.loc 1 665 0
 174              		.cfi_startproc
 175              		@ args = 0, pretend = 0, frame = 8
 176              		@ frame_needed = 1, uses_anonymous_args = 0
 177 0000 80B5     		push	{r7, lr}
 178              		.cfi_def_cfa_offset 8
 179              		.cfi_offset 7, -8
 180              		.cfi_offset 14, -4
 181 0002 82B0     		sub	sp, sp, #8
 182              		.cfi_def_cfa_offset 16
 183 0004 00AF     		add	r7, sp, #0
 184              		.cfi_def_cfa_register 7
 185 0006 0200     		movs	r2, r0
 186 0008 FB1D     		adds	r3, r7, #7
 187 000a 1A70     		strb	r2, [r3]
 188              		.loc 1 666 0
 189 000c FB1D     		adds	r3, r7, #7
 190 000e 1B78     		ldrb	r3, [r3]
 191 0010 1A00     		movs	r2, r3
 192 0012 1F23     		movs	r3, #31
 193 0014 1340     		ands	r3, r2
 194 0016 0549     		ldr	r1, .L12
 195 0018 0122     		movs	r2, #1
 196 001a 9A40     		lsls	r2, r2, r3
 197 001c 8023     		movs	r3, #128
 198 001e 5B00     		lsls	r3, r3, #1
 199 0020 CA50     		str	r2, [r1, r3]
 200              		.loc 1 667 0
 201 0022 C046     		nop
 202 0024 BD46     		mov	sp, r7
 203 0026 02B0     		add	sp, sp, #8
 204              		@ sp needed
 205 0028 80BD     		pop	{r7, pc}
 206              	.L13:
 207 002a C046     		.align	2
 208              	.L12:
 209 002c 00E100E0 		.word	-536813312
 210              		.cfi_endproc
 211              	.LFE28:
 212              		.size	NVIC_SetPendingIRQ, .-NVIC_SetPendingIRQ
 213              		.section	.text.NVIC_ClearPendingIRQ,"ax",%progbits
 214              		.align	1
 215              		.syntax unified
 216              		.code	16
 217              		.thumb_func
 218              		.fpu softvfp
 219              		.type	NVIC_ClearPendingIRQ, %function
 220              	NVIC_ClearPendingIRQ:
 221              	.LFB29:
 222              		.loc 1 676 0
 223              		.cfi_startproc
 224              		@ args = 0, pretend = 0, frame = 8
 225              		@ frame_needed = 1, uses_anonymous_args = 0
 226 0000 80B5     		push	{r7, lr}
 227              		.cfi_def_cfa_offset 8
 228              		.cfi_offset 7, -8
ARM GAS  C:\Users\anashi\AppData\Local\Temp\ccYpfHPh.s 			page 5


 229              		.cfi_offset 14, -4
 230 0002 82B0     		sub	sp, sp, #8
 231              		.cfi_def_cfa_offset 16
 232 0004 00AF     		add	r7, sp, #0
 233              		.cfi_def_cfa_register 7
 234 0006 0200     		movs	r2, r0
 235 0008 FB1D     		adds	r3, r7, #7
 236 000a 1A70     		strb	r2, [r3]
 237              		.loc 1 677 0
 238 000c FB1D     		adds	r3, r7, #7
 239 000e 1B78     		ldrb	r3, [r3]
 240 0010 1A00     		movs	r2, r3
 241 0012 1F23     		movs	r3, #31
 242 0014 1340     		ands	r3, r2
 243 0016 0549     		ldr	r1, .L15
 244 0018 0122     		movs	r2, #1
 245 001a 9A40     		lsls	r2, r2, r3
 246 001c C023     		movs	r3, #192
 247 001e 5B00     		lsls	r3, r3, #1
 248 0020 CA50     		str	r2, [r1, r3]
 249              		.loc 1 678 0
 250 0022 C046     		nop
 251 0024 BD46     		mov	sp, r7
 252 0026 02B0     		add	sp, sp, #8
 253              		@ sp needed
 254 0028 80BD     		pop	{r7, pc}
 255              	.L16:
 256 002a C046     		.align	2
 257              	.L15:
 258 002c 00E100E0 		.word	-536813312
 259              		.cfi_endproc
 260              	.LFE29:
 261              		.size	NVIC_ClearPendingIRQ, .-NVIC_ClearPendingIRQ
 262              		.section	.text.NVIC_SetPriority,"ax",%progbits
 263              		.align	1
 264              		.syntax unified
 265              		.code	16
 266              		.thumb_func
 267              		.fpu softvfp
 268              		.type	NVIC_SetPriority, %function
 269              	NVIC_SetPriority:
 270              	.LFB30:
 271              		.loc 1 689 0
 272              		.cfi_startproc
 273              		@ args = 0, pretend = 0, frame = 8
 274              		@ frame_needed = 1, uses_anonymous_args = 0
 275 0000 90B5     		push	{r4, r7, lr}
 276              		.cfi_def_cfa_offset 12
 277              		.cfi_offset 4, -12
 278              		.cfi_offset 7, -8
 279              		.cfi_offset 14, -4
 280 0002 83B0     		sub	sp, sp, #12
 281              		.cfi_def_cfa_offset 24
 282 0004 00AF     		add	r7, sp, #0
 283              		.cfi_def_cfa_register 7
 284 0006 0200     		movs	r2, r0
 285 0008 3960     		str	r1, [r7]
ARM GAS  C:\Users\anashi\AppData\Local\Temp\ccYpfHPh.s 			page 6


 286 000a FB1D     		adds	r3, r7, #7
 287 000c 1A70     		strb	r2, [r3]
 288              		.loc 1 690 0
 289 000e FB1D     		adds	r3, r7, #7
 290 0010 1B78     		ldrb	r3, [r3]
 291 0012 7F2B     		cmp	r3, #127
 292 0014 32D9     		bls	.L18
 293              		.loc 1 692 0
 294 0016 2F4A     		ldr	r2, .L21
 295 0018 FB1D     		adds	r3, r7, #7
 296 001a 1B78     		ldrb	r3, [r3]
 297 001c 1900     		movs	r1, r3
 298 001e 0F23     		movs	r3, #15
 299 0020 0B40     		ands	r3, r1
 300 0022 083B     		subs	r3, r3, #8
 301 0024 9B08     		lsrs	r3, r3, #2
 302 0026 0633     		adds	r3, r3, #6
 303 0028 9B00     		lsls	r3, r3, #2
 304 002a D318     		adds	r3, r2, r3
 305 002c 0433     		adds	r3, r3, #4
 306 002e 1B68     		ldr	r3, [r3]
 307 0030 FA1D     		adds	r2, r7, #7
 308 0032 1278     		ldrb	r2, [r2]
 309 0034 1100     		movs	r1, r2
 310 0036 0322     		movs	r2, #3
 311 0038 0A40     		ands	r2, r1
 312 003a D200     		lsls	r2, r2, #3
 313 003c FF21     		movs	r1, #255
 314 003e 9140     		lsls	r1, r1, r2
 315 0040 0A00     		movs	r2, r1
 316 0042 D243     		mvns	r2, r2
 317 0044 1A40     		ands	r2, r3
 318 0046 1100     		movs	r1, r2
 319              		.loc 1 693 0
 320 0048 3B68     		ldr	r3, [r7]
 321 004a 9B01     		lsls	r3, r3, #6
 322 004c FF22     		movs	r2, #255
 323 004e 1A40     		ands	r2, r3
 324 0050 FB1D     		adds	r3, r7, #7
 325 0052 1B78     		ldrb	r3, [r3]
 326 0054 1800     		movs	r0, r3
 327 0056 0323     		movs	r3, #3
 328 0058 0340     		ands	r3, r0
 329 005a DB00     		lsls	r3, r3, #3
 330 005c 9A40     		lsls	r2, r2, r3
 331              		.loc 1 692 0
 332 005e 1D48     		ldr	r0, .L21
 333 0060 FB1D     		adds	r3, r7, #7
 334 0062 1B78     		ldrb	r3, [r3]
 335 0064 1C00     		movs	r4, r3
 336 0066 0F23     		movs	r3, #15
 337 0068 2340     		ands	r3, r4
 338 006a 083B     		subs	r3, r3, #8
 339 006c 9B08     		lsrs	r3, r3, #2
 340 006e 0A43     		orrs	r2, r1
 341 0070 0633     		adds	r3, r3, #6
 342 0072 9B00     		lsls	r3, r3, #2
ARM GAS  C:\Users\anashi\AppData\Local\Temp\ccYpfHPh.s 			page 7


 343 0074 C318     		adds	r3, r0, r3
 344 0076 0433     		adds	r3, r3, #4
 345 0078 1A60     		str	r2, [r3]
 346              		.loc 1 700 0
 347 007a 27E0     		b	.L20
 348              	.L18:
 349              		.loc 1 697 0
 350 007c 164A     		ldr	r2, .L21+4
 351 007e FB1D     		adds	r3, r7, #7
 352 0080 1B78     		ldrb	r3, [r3]
 353 0082 5BB2     		sxtb	r3, r3
 354 0084 9B08     		lsrs	r3, r3, #2
 355 0086 C033     		adds	r3, r3, #192
 356 0088 9B00     		lsls	r3, r3, #2
 357 008a 9B58     		ldr	r3, [r3, r2]
 358 008c FA1D     		adds	r2, r7, #7
 359 008e 1278     		ldrb	r2, [r2]
 360 0090 1100     		movs	r1, r2
 361 0092 0322     		movs	r2, #3
 362 0094 0A40     		ands	r2, r1
 363 0096 D200     		lsls	r2, r2, #3
 364 0098 FF21     		movs	r1, #255
 365 009a 9140     		lsls	r1, r1, r2
 366 009c 0A00     		movs	r2, r1
 367 009e D243     		mvns	r2, r2
 368 00a0 1A40     		ands	r2, r3
 369 00a2 1100     		movs	r1, r2
 370              		.loc 1 698 0
 371 00a4 3B68     		ldr	r3, [r7]
 372 00a6 9B01     		lsls	r3, r3, #6
 373 00a8 FF22     		movs	r2, #255
 374 00aa 1A40     		ands	r2, r3
 375 00ac FB1D     		adds	r3, r7, #7
 376 00ae 1B78     		ldrb	r3, [r3]
 377 00b0 1800     		movs	r0, r3
 378 00b2 0323     		movs	r3, #3
 379 00b4 0340     		ands	r3, r0
 380 00b6 DB00     		lsls	r3, r3, #3
 381 00b8 9A40     		lsls	r2, r2, r3
 382              		.loc 1 697 0
 383 00ba 0748     		ldr	r0, .L21+4
 384 00bc FB1D     		adds	r3, r7, #7
 385 00be 1B78     		ldrb	r3, [r3]
 386 00c0 5BB2     		sxtb	r3, r3
 387 00c2 9B08     		lsrs	r3, r3, #2
 388 00c4 0A43     		orrs	r2, r1
 389 00c6 C033     		adds	r3, r3, #192
 390 00c8 9B00     		lsls	r3, r3, #2
 391 00ca 1A50     		str	r2, [r3, r0]
 392              	.L20:
 393              		.loc 1 700 0
 394 00cc C046     		nop
 395 00ce BD46     		mov	sp, r7
 396 00d0 03B0     		add	sp, sp, #12
 397              		@ sp needed
 398 00d2 90BD     		pop	{r4, r7, pc}
 399              	.L22:
ARM GAS  C:\Users\anashi\AppData\Local\Temp\ccYpfHPh.s 			page 8


 400              		.align	2
 401              	.L21:
 402 00d4 00ED00E0 		.word	-536810240
 403 00d8 00E100E0 		.word	-536813312
 404              		.cfi_endproc
 405              	.LFE30:
 406              		.size	NVIC_SetPriority, .-NVIC_SetPriority
 407              		.section	.text.NVIC_GetPriority,"ax",%progbits
 408              		.align	1
 409              		.syntax unified
 410              		.code	16
 411              		.thumb_func
 412              		.fpu softvfp
 413              		.type	NVIC_GetPriority, %function
 414              	NVIC_GetPriority:
 415              	.LFB31:
 416              		.loc 1 713 0
 417              		.cfi_startproc
 418              		@ args = 0, pretend = 0, frame = 8
 419              		@ frame_needed = 1, uses_anonymous_args = 0
 420 0000 80B5     		push	{r7, lr}
 421              		.cfi_def_cfa_offset 8
 422              		.cfi_offset 7, -8
 423              		.cfi_offset 14, -4
 424 0002 82B0     		sub	sp, sp, #8
 425              		.cfi_def_cfa_offset 16
 426 0004 00AF     		add	r7, sp, #0
 427              		.cfi_def_cfa_register 7
 428 0006 0200     		movs	r2, r0
 429 0008 FB1D     		adds	r3, r7, #7
 430 000a 1A70     		strb	r2, [r3]
 431              		.loc 1 715 0
 432 000c FB1D     		adds	r3, r7, #7
 433 000e 1B78     		ldrb	r3, [r3]
 434 0010 7F2B     		cmp	r3, #127
 435 0012 18D9     		bls	.L24
 436              		.loc 1 717 0
 437 0014 174A     		ldr	r2, .L26
 438 0016 FB1D     		adds	r3, r7, #7
 439 0018 1B78     		ldrb	r3, [r3]
 440 001a 1900     		movs	r1, r3
 441 001c 0F23     		movs	r3, #15
 442 001e 0B40     		ands	r3, r1
 443 0020 083B     		subs	r3, r3, #8
 444 0022 9B08     		lsrs	r3, r3, #2
 445 0024 0633     		adds	r3, r3, #6
 446 0026 9B00     		lsls	r3, r3, #2
 447 0028 D318     		adds	r3, r2, r3
 448 002a 0433     		adds	r3, r3, #4
 449 002c 1A68     		ldr	r2, [r3]
 450 002e FB1D     		adds	r3, r7, #7
 451 0030 1B78     		ldrb	r3, [r3]
 452 0032 1900     		movs	r1, r3
 453 0034 0323     		movs	r3, #3
 454 0036 0B40     		ands	r3, r1
 455 0038 DB00     		lsls	r3, r3, #3
 456 003a DA40     		lsrs	r2, r2, r3
ARM GAS  C:\Users\anashi\AppData\Local\Temp\ccYpfHPh.s 			page 9


 457 003c 1300     		movs	r3, r2
 458 003e 9B09     		lsrs	r3, r3, #6
 459 0040 0322     		movs	r2, #3
 460 0042 1340     		ands	r3, r2
 461 0044 12E0     		b	.L25
 462              	.L24:
 463              		.loc 1 721 0
 464 0046 0C4A     		ldr	r2, .L26+4
 465 0048 FB1D     		adds	r3, r7, #7
 466 004a 1B78     		ldrb	r3, [r3]
 467 004c 5BB2     		sxtb	r3, r3
 468 004e 9B08     		lsrs	r3, r3, #2
 469 0050 C033     		adds	r3, r3, #192
 470 0052 9B00     		lsls	r3, r3, #2
 471 0054 9A58     		ldr	r2, [r3, r2]
 472 0056 FB1D     		adds	r3, r7, #7
 473 0058 1B78     		ldrb	r3, [r3]
 474 005a 1900     		movs	r1, r3
 475 005c 0323     		movs	r3, #3
 476 005e 0B40     		ands	r3, r1
 477 0060 DB00     		lsls	r3, r3, #3
 478 0062 DA40     		lsrs	r2, r2, r3
 479 0064 1300     		movs	r3, r2
 480 0066 9B09     		lsrs	r3, r3, #6
 481 0068 0322     		movs	r2, #3
 482 006a 1340     		ands	r3, r2
 483              	.L25:
 484              		.loc 1 723 0
 485 006c 1800     		movs	r0, r3
 486 006e BD46     		mov	sp, r7
 487 0070 02B0     		add	sp, sp, #8
 488              		@ sp needed
 489 0072 80BD     		pop	{r7, pc}
 490              	.L27:
 491              		.align	2
 492              	.L26:
 493 0074 00ED00E0 		.word	-536810240
 494 0078 00E100E0 		.word	-536813312
 495              		.cfi_endproc
 496              	.LFE31:
 497              		.size	NVIC_GetPriority, .-NVIC_GetPriority
 498              		.section	.text.NVIC_SystemReset,"ax",%progbits
 499              		.align	1
 500              		.syntax unified
 501              		.code	16
 502              		.thumb_func
 503              		.fpu softvfp
 504              		.type	NVIC_SystemReset, %function
 505              	NVIC_SystemReset:
 506              	.LFB32:
 507              		.loc 1 731 0
 508              		.cfi_startproc
 509              		@ args = 0, pretend = 0, frame = 0
 510              		@ frame_needed = 1, uses_anonymous_args = 0
 511 0000 80B5     		push	{r7, lr}
 512              		.cfi_def_cfa_offset 8
 513              		.cfi_offset 7, -8
ARM GAS  C:\Users\anashi\AppData\Local\Temp\ccYpfHPh.s 			page 10


 514              		.cfi_offset 14, -4
 515 0002 00AF     		add	r7, sp, #0
 516              		.cfi_def_cfa_register 7
 517              	.LBB8:
 518              	.LBB9:
 519              		.file 2 "C:/repos/rs2all/board/Drivers/CMSIS/Include/cmsis_gcc.h"
 520              		.loc 2 429 0
 521              		.syntax divided
 522              	@ 429 "C:/repos/rs2all/board/Drivers/CMSIS/Include/cmsis_gcc.h" 1
 523 0004 BFF34F8F 		dsb 0xF
 524              	@ 0 "" 2
 525              		.thumb
 526              		.syntax unified
 527              	.LBE9:
 528              	.LBE8:
 529              		.loc 1 734 0
 530 0008 034B     		ldr	r3, .L30
 531 000a 044A     		ldr	r2, .L30+4
 532 000c DA60     		str	r2, [r3, #12]
 533              	.LBB10:
 534              	.LBB11:
 535              		.loc 2 429 0
 536              		.syntax divided
 537              	@ 429 "C:/repos/rs2all/board/Drivers/CMSIS/Include/cmsis_gcc.h" 1
 538 000e BFF34F8F 		dsb 0xF
 539              	@ 0 "" 2
 540              		.thumb
 541              		.syntax unified
 542              	.L29:
 543              	.LBE11:
 544              	.LBE10:
 545              	.LBB12:
 546              	.LBB13:
 547              		.loc 2 375 0 discriminator 1
 548              		.syntax divided
 549              	@ 375 "C:/repos/rs2all/board/Drivers/CMSIS/Include/cmsis_gcc.h" 1
 550 0012 C046     		nop
 551              	@ 0 "" 2
 552              		.thumb
 553              		.syntax unified
 554              	.LBE13:
 555              	.LBE12:
 556              		.loc 1 740 0 discriminator 1
 557 0014 FDE7     		b	.L29
 558              	.L31:
 559 0016 C046     		.align	2
 560              	.L30:
 561 0018 00ED00E0 		.word	-536810240
 562 001c 0400FA05 		.word	100270084
 563              		.cfi_endproc
 564              	.LFE32:
 565              		.size	NVIC_SystemReset, .-NVIC_SystemReset
 566              		.section	.text.SysTick_Config,"ax",%progbits
 567              		.align	1
 568              		.syntax unified
 569              		.code	16
 570              		.thumb_func
ARM GAS  C:\Users\anashi\AppData\Local\Temp\ccYpfHPh.s 			page 11


 571              		.fpu softvfp
 572              		.type	SysTick_Config, %function
 573              	SysTick_Config:
 574              	.LFB33:
 575              		.loc 1 770 0
 576              		.cfi_startproc
 577              		@ args = 0, pretend = 0, frame = 8
 578              		@ frame_needed = 1, uses_anonymous_args = 0
 579 0000 80B5     		push	{r7, lr}
 580              		.cfi_def_cfa_offset 8
 581              		.cfi_offset 7, -8
 582              		.cfi_offset 14, -4
 583 0002 82B0     		sub	sp, sp, #8
 584              		.cfi_def_cfa_offset 16
 585 0004 00AF     		add	r7, sp, #0
 586              		.cfi_def_cfa_register 7
 587 0006 7860     		str	r0, [r7, #4]
 588              		.loc 1 771 0
 589 0008 7B68     		ldr	r3, [r7, #4]
 590 000a 013B     		subs	r3, r3, #1
 591 000c 0C4A     		ldr	r2, .L35
 592 000e 9342     		cmp	r3, r2
 593 0010 01D9     		bls	.L33
 594              		.loc 1 773 0
 595 0012 0123     		movs	r3, #1
 596 0014 10E0     		b	.L34
 597              	.L33:
 598              		.loc 1 776 0
 599 0016 0B4B     		ldr	r3, .L35+4
 600 0018 7A68     		ldr	r2, [r7, #4]
 601 001a 013A     		subs	r2, r2, #1
 602 001c 5A60     		str	r2, [r3, #4]
 603              		.loc 1 777 0
 604 001e 0123     		movs	r3, #1
 605 0020 5B42     		rsbs	r3, r3, #0
 606 0022 0321     		movs	r1, #3
 607 0024 1800     		movs	r0, r3
 608 0026 FFF7FEFF 		bl	NVIC_SetPriority
 609              		.loc 1 778 0
 610 002a 064B     		ldr	r3, .L35+4
 611 002c 0022     		movs	r2, #0
 612 002e 9A60     		str	r2, [r3, #8]
 613              		.loc 1 779 0
 614 0030 044B     		ldr	r3, .L35+4
 615 0032 0722     		movs	r2, #7
 616 0034 1A60     		str	r2, [r3]
 617              		.loc 1 782 0
 618 0036 0023     		movs	r3, #0
 619              	.L34:
 620              		.loc 1 783 0
 621 0038 1800     		movs	r0, r3
 622 003a BD46     		mov	sp, r7
 623 003c 02B0     		add	sp, sp, #8
 624              		@ sp needed
 625 003e 80BD     		pop	{r7, pc}
 626              	.L36:
 627              		.align	2
ARM GAS  C:\Users\anashi\AppData\Local\Temp\ccYpfHPh.s 			page 12


 628              	.L35:
 629 0040 FFFFFF00 		.word	16777215
 630 0044 10E000E0 		.word	-536813552
 631              		.cfi_endproc
 632              	.LFE33:
 633              		.size	SysTick_Config, .-SysTick_Config
 634              		.section	.text.HAL_NVIC_SetPriority,"ax",%progbits
 635              		.align	1
 636              		.global	HAL_NVIC_SetPriority
 637              		.syntax unified
 638              		.code	16
 639              		.thumb_func
 640              		.fpu softvfp
 641              		.type	HAL_NVIC_SetPriority, %function
 642              	HAL_NVIC_SetPriority:
 643              	.LFB37:
 644              		.file 3 "C:/repos/rs2all/board/Drivers/STM32F0xx_HAL_Driver/Src/stm32f0xx_hal_cortex.c"
 645              		.loc 3 153 0
 646              		.cfi_startproc
 647              		@ args = 0, pretend = 0, frame = 16
 648              		@ frame_needed = 1, uses_anonymous_args = 0
 649 0000 80B5     		push	{r7, lr}
 650              		.cfi_def_cfa_offset 8
 651              		.cfi_offset 7, -8
 652              		.cfi_offset 14, -4
 653 0002 84B0     		sub	sp, sp, #16
 654              		.cfi_def_cfa_offset 24
 655 0004 00AF     		add	r7, sp, #0
 656              		.cfi_def_cfa_register 7
 657 0006 B960     		str	r1, [r7, #8]
 658 0008 7A60     		str	r2, [r7, #4]
 659 000a 0F21     		movs	r1, #15
 660 000c 7B18     		adds	r3, r7, r1
 661 000e 021C     		adds	r2, r0, #0
 662 0010 1A70     		strb	r2, [r3]
 663              		.loc 3 156 0
 664 0012 BA68     		ldr	r2, [r7, #8]
 665 0014 7B18     		adds	r3, r7, r1
 666 0016 1B78     		ldrb	r3, [r3]
 667 0018 5BB2     		sxtb	r3, r3
 668 001a 1100     		movs	r1, r2
 669 001c 1800     		movs	r0, r3
 670 001e FFF7FEFF 		bl	NVIC_SetPriority
 671              		.loc 3 157 0
 672 0022 C046     		nop
 673 0024 BD46     		mov	sp, r7
 674 0026 04B0     		add	sp, sp, #16
 675              		@ sp needed
 676 0028 80BD     		pop	{r7, pc}
 677              		.cfi_endproc
 678              	.LFE37:
 679              		.size	HAL_NVIC_SetPriority, .-HAL_NVIC_SetPriority
 680              		.section	.text.HAL_NVIC_EnableIRQ,"ax",%progbits
 681              		.align	1
 682              		.global	HAL_NVIC_EnableIRQ
 683              		.syntax unified
 684              		.code	16
ARM GAS  C:\Users\anashi\AppData\Local\Temp\ccYpfHPh.s 			page 13


 685              		.thumb_func
 686              		.fpu softvfp
 687              		.type	HAL_NVIC_EnableIRQ, %function
 688              	HAL_NVIC_EnableIRQ:
 689              	.LFB38:
 690              		.loc 3 169 0
 691              		.cfi_startproc
 692              		@ args = 0, pretend = 0, frame = 8
 693              		@ frame_needed = 1, uses_anonymous_args = 0
 694 0000 80B5     		push	{r7, lr}
 695              		.cfi_def_cfa_offset 8
 696              		.cfi_offset 7, -8
 697              		.cfi_offset 14, -4
 698 0002 82B0     		sub	sp, sp, #8
 699              		.cfi_def_cfa_offset 16
 700 0004 00AF     		add	r7, sp, #0
 701              		.cfi_def_cfa_register 7
 702 0006 0200     		movs	r2, r0
 703 0008 FB1D     		adds	r3, r7, #7
 704 000a 1A70     		strb	r2, [r3]
 705              		.loc 3 174 0
 706 000c FB1D     		adds	r3, r7, #7
 707 000e 1B78     		ldrb	r3, [r3]
 708 0010 5BB2     		sxtb	r3, r3
 709 0012 1800     		movs	r0, r3
 710 0014 FFF7FEFF 		bl	NVIC_EnableIRQ
 711              		.loc 3 175 0
 712 0018 C046     		nop
 713 001a BD46     		mov	sp, r7
 714 001c 02B0     		add	sp, sp, #8
 715              		@ sp needed
 716 001e 80BD     		pop	{r7, pc}
 717              		.cfi_endproc
 718              	.LFE38:
 719              		.size	HAL_NVIC_EnableIRQ, .-HAL_NVIC_EnableIRQ
 720              		.section	.text.HAL_NVIC_DisableIRQ,"ax",%progbits
 721              		.align	1
 722              		.global	HAL_NVIC_DisableIRQ
 723              		.syntax unified
 724              		.code	16
 725              		.thumb_func
 726              		.fpu softvfp
 727              		.type	HAL_NVIC_DisableIRQ, %function
 728              	HAL_NVIC_DisableIRQ:
 729              	.LFB39:
 730              		.loc 3 185 0
 731              		.cfi_startproc
 732              		@ args = 0, pretend = 0, frame = 8
 733              		@ frame_needed = 1, uses_anonymous_args = 0
 734 0000 80B5     		push	{r7, lr}
 735              		.cfi_def_cfa_offset 8
 736              		.cfi_offset 7, -8
 737              		.cfi_offset 14, -4
 738 0002 82B0     		sub	sp, sp, #8
 739              		.cfi_def_cfa_offset 16
 740 0004 00AF     		add	r7, sp, #0
 741              		.cfi_def_cfa_register 7
ARM GAS  C:\Users\anashi\AppData\Local\Temp\ccYpfHPh.s 			page 14


 742 0006 0200     		movs	r2, r0
 743 0008 FB1D     		adds	r3, r7, #7
 744 000a 1A70     		strb	r2, [r3]
 745              		.loc 3 190 0
 746 000c FB1D     		adds	r3, r7, #7
 747 000e 1B78     		ldrb	r3, [r3]
 748 0010 5BB2     		sxtb	r3, r3
 749 0012 1800     		movs	r0, r3
 750 0014 FFF7FEFF 		bl	NVIC_DisableIRQ
 751              		.loc 3 191 0
 752 0018 C046     		nop
 753 001a BD46     		mov	sp, r7
 754 001c 02B0     		add	sp, sp, #8
 755              		@ sp needed
 756 001e 80BD     		pop	{r7, pc}
 757              		.cfi_endproc
 758              	.LFE39:
 759              		.size	HAL_NVIC_DisableIRQ, .-HAL_NVIC_DisableIRQ
 760              		.section	.text.HAL_NVIC_SystemReset,"ax",%progbits
 761              		.align	1
 762              		.global	HAL_NVIC_SystemReset
 763              		.syntax unified
 764              		.code	16
 765              		.thumb_func
 766              		.fpu softvfp
 767              		.type	HAL_NVIC_SystemReset, %function
 768              	HAL_NVIC_SystemReset:
 769              	.LFB40:
 770              		.loc 3 198 0
 771              		.cfi_startproc
 772              		@ args = 0, pretend = 0, frame = 0
 773              		@ frame_needed = 1, uses_anonymous_args = 0
 774 0000 80B5     		push	{r7, lr}
 775              		.cfi_def_cfa_offset 8
 776              		.cfi_offset 7, -8
 777              		.cfi_offset 14, -4
 778 0002 00AF     		add	r7, sp, #0
 779              		.cfi_def_cfa_register 7
 780              		.loc 3 200 0
 781 0004 FFF7FEFF 		bl	NVIC_SystemReset
 782              		.loc 3 201 0
 783 0008 C046     		nop
 784 000a BD46     		mov	sp, r7
 785              		@ sp needed
 786 000c 80BD     		pop	{r7, pc}
 787              		.cfi_endproc
 788              	.LFE40:
 789              		.size	HAL_NVIC_SystemReset, .-HAL_NVIC_SystemReset
 790              		.section	.text.HAL_SYSTICK_Config,"ax",%progbits
 791              		.align	1
 792              		.global	HAL_SYSTICK_Config
 793              		.syntax unified
 794              		.code	16
 795              		.thumb_func
 796              		.fpu softvfp
 797              		.type	HAL_SYSTICK_Config, %function
 798              	HAL_SYSTICK_Config:
ARM GAS  C:\Users\anashi\AppData\Local\Temp\ccYpfHPh.s 			page 15


 799              	.LFB41:
 800              		.loc 3 211 0
 801              		.cfi_startproc
 802              		@ args = 0, pretend = 0, frame = 8
 803              		@ frame_needed = 1, uses_anonymous_args = 0
 804 0000 80B5     		push	{r7, lr}
 805              		.cfi_def_cfa_offset 8
 806              		.cfi_offset 7, -8
 807              		.cfi_offset 14, -4
 808 0002 82B0     		sub	sp, sp, #8
 809              		.cfi_def_cfa_offset 16
 810 0004 00AF     		add	r7, sp, #0
 811              		.cfi_def_cfa_register 7
 812 0006 7860     		str	r0, [r7, #4]
 813              		.loc 3 212 0
 814 0008 7B68     		ldr	r3, [r7, #4]
 815 000a 1800     		movs	r0, r3
 816 000c FFF7FEFF 		bl	SysTick_Config
 817 0010 0300     		movs	r3, r0
 818              		.loc 3 213 0
 819 0012 1800     		movs	r0, r3
 820 0014 BD46     		mov	sp, r7
 821 0016 02B0     		add	sp, sp, #8
 822              		@ sp needed
 823 0018 80BD     		pop	{r7, pc}
 824              		.cfi_endproc
 825              	.LFE41:
 826              		.size	HAL_SYSTICK_Config, .-HAL_SYSTICK_Config
 827              		.section	.text.HAL_NVIC_GetPriority,"ax",%progbits
 828              		.align	1
 829              		.global	HAL_NVIC_GetPriority
 830              		.syntax unified
 831              		.code	16
 832              		.thumb_func
 833              		.fpu softvfp
 834              		.type	HAL_NVIC_GetPriority, %function
 835              	HAL_NVIC_GetPriority:
 836              	.LFB42:
 837              		.loc 3 243 0
 838              		.cfi_startproc
 839              		@ args = 0, pretend = 0, frame = 8
 840              		@ frame_needed = 1, uses_anonymous_args = 0
 841 0000 80B5     		push	{r7, lr}
 842              		.cfi_def_cfa_offset 8
 843              		.cfi_offset 7, -8
 844              		.cfi_offset 14, -4
 845 0002 82B0     		sub	sp, sp, #8
 846              		.cfi_def_cfa_offset 16
 847 0004 00AF     		add	r7, sp, #0
 848              		.cfi_def_cfa_register 7
 849 0006 0200     		movs	r2, r0
 850 0008 FB1D     		adds	r3, r7, #7
 851 000a 1A70     		strb	r2, [r3]
 852              		.loc 3 245 0
 853 000c FB1D     		adds	r3, r7, #7
 854 000e 1B78     		ldrb	r3, [r3]
 855 0010 5BB2     		sxtb	r3, r3
ARM GAS  C:\Users\anashi\AppData\Local\Temp\ccYpfHPh.s 			page 16


 856 0012 1800     		movs	r0, r3
 857 0014 FFF7FEFF 		bl	NVIC_GetPriority
 858 0018 0300     		movs	r3, r0
 859              		.loc 3 246 0
 860 001a 1800     		movs	r0, r3
 861 001c BD46     		mov	sp, r7
 862 001e 02B0     		add	sp, sp, #8
 863              		@ sp needed
 864 0020 80BD     		pop	{r7, pc}
 865              		.cfi_endproc
 866              	.LFE42:
 867              		.size	HAL_NVIC_GetPriority, .-HAL_NVIC_GetPriority
 868              		.section	.text.HAL_NVIC_SetPendingIRQ,"ax",%progbits
 869              		.align	1
 870              		.global	HAL_NVIC_SetPendingIRQ
 871              		.syntax unified
 872              		.code	16
 873              		.thumb_func
 874              		.fpu softvfp
 875              		.type	HAL_NVIC_SetPendingIRQ, %function
 876              	HAL_NVIC_SetPendingIRQ:
 877              	.LFB43:
 878              		.loc 3 256 0
 879              		.cfi_startproc
 880              		@ args = 0, pretend = 0, frame = 8
 881              		@ frame_needed = 1, uses_anonymous_args = 0
 882 0000 80B5     		push	{r7, lr}
 883              		.cfi_def_cfa_offset 8
 884              		.cfi_offset 7, -8
 885              		.cfi_offset 14, -4
 886 0002 82B0     		sub	sp, sp, #8
 887              		.cfi_def_cfa_offset 16
 888 0004 00AF     		add	r7, sp, #0
 889              		.cfi_def_cfa_register 7
 890 0006 0200     		movs	r2, r0
 891 0008 FB1D     		adds	r3, r7, #7
 892 000a 1A70     		strb	r2, [r3]
 893              		.loc 3 261 0
 894 000c FB1D     		adds	r3, r7, #7
 895 000e 1B78     		ldrb	r3, [r3]
 896 0010 5BB2     		sxtb	r3, r3
 897 0012 1800     		movs	r0, r3
 898 0014 FFF7FEFF 		bl	NVIC_SetPendingIRQ
 899              		.loc 3 262 0
 900 0018 C046     		nop
 901 001a BD46     		mov	sp, r7
 902 001c 02B0     		add	sp, sp, #8
 903              		@ sp needed
 904 001e 80BD     		pop	{r7, pc}
 905              		.cfi_endproc
 906              	.LFE43:
 907              		.size	HAL_NVIC_SetPendingIRQ, .-HAL_NVIC_SetPendingIRQ
 908              		.section	.text.HAL_NVIC_GetPendingIRQ,"ax",%progbits
 909              		.align	1
 910              		.global	HAL_NVIC_GetPendingIRQ
 911              		.syntax unified
 912              		.code	16
ARM GAS  C:\Users\anashi\AppData\Local\Temp\ccYpfHPh.s 			page 17


 913              		.thumb_func
 914              		.fpu softvfp
 915              		.type	HAL_NVIC_GetPendingIRQ, %function
 916              	HAL_NVIC_GetPendingIRQ:
 917              	.LFB44:
 918              		.loc 3 274 0
 919              		.cfi_startproc
 920              		@ args = 0, pretend = 0, frame = 8
 921              		@ frame_needed = 1, uses_anonymous_args = 0
 922 0000 80B5     		push	{r7, lr}
 923              		.cfi_def_cfa_offset 8
 924              		.cfi_offset 7, -8
 925              		.cfi_offset 14, -4
 926 0002 82B0     		sub	sp, sp, #8
 927              		.cfi_def_cfa_offset 16
 928 0004 00AF     		add	r7, sp, #0
 929              		.cfi_def_cfa_register 7
 930 0006 0200     		movs	r2, r0
 931 0008 FB1D     		adds	r3, r7, #7
 932 000a 1A70     		strb	r2, [r3]
 933              		.loc 3 279 0
 934 000c FB1D     		adds	r3, r7, #7
 935 000e 1B78     		ldrb	r3, [r3]
 936 0010 5BB2     		sxtb	r3, r3
 937 0012 1800     		movs	r0, r3
 938 0014 FFF7FEFF 		bl	NVIC_GetPendingIRQ
 939 0018 0300     		movs	r3, r0
 940              		.loc 3 280 0
 941 001a 1800     		movs	r0, r3
 942 001c BD46     		mov	sp, r7
 943 001e 02B0     		add	sp, sp, #8
 944              		@ sp needed
 945 0020 80BD     		pop	{r7, pc}
 946              		.cfi_endproc
 947              	.LFE44:
 948              		.size	HAL_NVIC_GetPendingIRQ, .-HAL_NVIC_GetPendingIRQ
 949              		.section	.text.HAL_NVIC_ClearPendingIRQ,"ax",%progbits
 950              		.align	1
 951              		.global	HAL_NVIC_ClearPendingIRQ
 952              		.syntax unified
 953              		.code	16
 954              		.thumb_func
 955              		.fpu softvfp
 956              		.type	HAL_NVIC_ClearPendingIRQ, %function
 957              	HAL_NVIC_ClearPendingIRQ:
 958              	.LFB45:
 959              		.loc 3 290 0
 960              		.cfi_startproc
 961              		@ args = 0, pretend = 0, frame = 8
 962              		@ frame_needed = 1, uses_anonymous_args = 0
 963 0000 80B5     		push	{r7, lr}
 964              		.cfi_def_cfa_offset 8
 965              		.cfi_offset 7, -8
 966              		.cfi_offset 14, -4
 967 0002 82B0     		sub	sp, sp, #8
 968              		.cfi_def_cfa_offset 16
 969 0004 00AF     		add	r7, sp, #0
ARM GAS  C:\Users\anashi\AppData\Local\Temp\ccYpfHPh.s 			page 18


 970              		.cfi_def_cfa_register 7
 971 0006 0200     		movs	r2, r0
 972 0008 FB1D     		adds	r3, r7, #7
 973 000a 1A70     		strb	r2, [r3]
 974              		.loc 3 295 0
 975 000c FB1D     		adds	r3, r7, #7
 976 000e 1B78     		ldrb	r3, [r3]
 977 0010 5BB2     		sxtb	r3, r3
 978 0012 1800     		movs	r0, r3
 979 0014 FFF7FEFF 		bl	NVIC_ClearPendingIRQ
 980              		.loc 3 296 0
 981 0018 C046     		nop
 982 001a BD46     		mov	sp, r7
 983 001c 02B0     		add	sp, sp, #8
 984              		@ sp needed
 985 001e 80BD     		pop	{r7, pc}
 986              		.cfi_endproc
 987              	.LFE45:
 988              		.size	HAL_NVIC_ClearPendingIRQ, .-HAL_NVIC_ClearPendingIRQ
 989              		.section	.text.HAL_SYSTICK_CLKSourceConfig,"ax",%progbits
 990              		.align	1
 991              		.global	HAL_SYSTICK_CLKSourceConfig
 992              		.syntax unified
 993              		.code	16
 994              		.thumb_func
 995              		.fpu softvfp
 996              		.type	HAL_SYSTICK_CLKSourceConfig, %function
 997              	HAL_SYSTICK_CLKSourceConfig:
 998              	.LFB46:
 999              		.loc 3 307 0
 1000              		.cfi_startproc
 1001              		@ args = 0, pretend = 0, frame = 8
 1002              		@ frame_needed = 1, uses_anonymous_args = 0
 1003 0000 80B5     		push	{r7, lr}
 1004              		.cfi_def_cfa_offset 8
 1005              		.cfi_offset 7, -8
 1006              		.cfi_offset 14, -4
 1007 0002 82B0     		sub	sp, sp, #8
 1008              		.cfi_def_cfa_offset 16
 1009 0004 00AF     		add	r7, sp, #0
 1010              		.cfi_def_cfa_register 7
 1011 0006 7860     		str	r0, [r7, #4]
 1012              		.loc 3 310 0
 1013 0008 7B68     		ldr	r3, [r7, #4]
 1014 000a 042B     		cmp	r3, #4
 1015 000c 06D1     		bne	.L50
 1016              		.loc 3 312 0
 1017 000e 084B     		ldr	r3, .L53
 1018 0010 1A68     		ldr	r2, [r3]
 1019 0012 074B     		ldr	r3, .L53
 1020 0014 0421     		movs	r1, #4
 1021 0016 0A43     		orrs	r2, r1
 1022 0018 1A60     		str	r2, [r3]
 1023              		.loc 3 318 0
 1024 001a 05E0     		b	.L52
 1025              	.L50:
 1026              		.loc 3 316 0
ARM GAS  C:\Users\anashi\AppData\Local\Temp\ccYpfHPh.s 			page 19


 1027 001c 044B     		ldr	r3, .L53
 1028 001e 1A68     		ldr	r2, [r3]
 1029 0020 034B     		ldr	r3, .L53
 1030 0022 0421     		movs	r1, #4
 1031 0024 8A43     		bics	r2, r1
 1032 0026 1A60     		str	r2, [r3]
 1033              	.L52:
 1034              		.loc 3 318 0
 1035 0028 C046     		nop
 1036 002a BD46     		mov	sp, r7
 1037 002c 02B0     		add	sp, sp, #8
 1038              		@ sp needed
 1039 002e 80BD     		pop	{r7, pc}
 1040              	.L54:
 1041              		.align	2
 1042              	.L53:
 1043 0030 10E000E0 		.word	-536813552
 1044              		.cfi_endproc
 1045              	.LFE46:
 1046              		.size	HAL_SYSTICK_CLKSourceConfig, .-HAL_SYSTICK_CLKSourceConfig
 1047              		.section	.text.HAL_SYSTICK_IRQHandler,"ax",%progbits
 1048              		.align	1
 1049              		.global	HAL_SYSTICK_IRQHandler
 1050              		.syntax unified
 1051              		.code	16
 1052              		.thumb_func
 1053              		.fpu softvfp
 1054              		.type	HAL_SYSTICK_IRQHandler, %function
 1055              	HAL_SYSTICK_IRQHandler:
 1056              	.LFB47:
 1057              		.loc 3 325 0
 1058              		.cfi_startproc
 1059              		@ args = 0, pretend = 0, frame = 0
 1060              		@ frame_needed = 1, uses_anonymous_args = 0
 1061 0000 80B5     		push	{r7, lr}
 1062              		.cfi_def_cfa_offset 8
 1063              		.cfi_offset 7, -8
 1064              		.cfi_offset 14, -4
 1065 0002 00AF     		add	r7, sp, #0
 1066              		.cfi_def_cfa_register 7
 1067              		.loc 3 326 0
 1068 0004 FFF7FEFF 		bl	HAL_SYSTICK_Callback
 1069              		.loc 3 327 0
 1070 0008 C046     		nop
 1071 000a BD46     		mov	sp, r7
 1072              		@ sp needed
 1073 000c 80BD     		pop	{r7, pc}
 1074              		.cfi_endproc
 1075              	.LFE47:
 1076              		.size	HAL_SYSTICK_IRQHandler, .-HAL_SYSTICK_IRQHandler
 1077              		.section	.text.HAL_SYSTICK_Callback,"ax",%progbits
 1078              		.align	1
 1079              		.weak	HAL_SYSTICK_Callback
 1080              		.syntax unified
 1081              		.code	16
 1082              		.thumb_func
 1083              		.fpu softvfp
ARM GAS  C:\Users\anashi\AppData\Local\Temp\ccYpfHPh.s 			page 20


 1084              		.type	HAL_SYSTICK_Callback, %function
 1085              	HAL_SYSTICK_Callback:
 1086              	.LFB48:
 1087              		.loc 3 334 0
 1088              		.cfi_startproc
 1089              		@ args = 0, pretend = 0, frame = 0
 1090              		@ frame_needed = 1, uses_anonymous_args = 0
 1091 0000 80B5     		push	{r7, lr}
 1092              		.cfi_def_cfa_offset 8
 1093              		.cfi_offset 7, -8
 1094              		.cfi_offset 14, -4
 1095 0002 00AF     		add	r7, sp, #0
 1096              		.cfi_def_cfa_register 7
 1097              		.loc 3 338 0
 1098 0004 C046     		nop
 1099 0006 BD46     		mov	sp, r7
 1100              		@ sp needed
 1101 0008 80BD     		pop	{r7, pc}
 1102              		.cfi_endproc
 1103              	.LFE48:
 1104              		.size	HAL_SYSTICK_Callback, .-HAL_SYSTICK_Callback
 1105              		.text
 1106              	.Letext0:
 1107              		.file 4 "C:/repos/rs2all/board/Drivers/CMSIS/Device/ST/STM32F0xx/Include/stm32f030x6.h"
 1108              		.file 5 "c:\\st\\stm32cubeide_1.1.0\\stm32cubeide\\plugins\\com.st.stm32cube.ide.mcu.externaltools
 1109              		.file 6 "c:\\st\\stm32cubeide_1.1.0\\stm32cubeide\\plugins\\com.st.stm32cube.ide.mcu.externaltools
 1110              		.file 7 "C:/repos/rs2all/board/Drivers/CMSIS/Device/ST/STM32F0xx/Include/system_stm32f0xx.h"
 1111              		.file 8 "c:\\st\\stm32cubeide_1.1.0\\stm32cubeide\\plugins\\com.st.stm32cube.ide.mcu.externaltools
 1112              		.file 9 "c:\\st\\stm32cubeide_1.1.0\\stm32cubeide\\plugins\\com.st.stm32cube.ide.mcu.externaltools
 1113              		.file 10 "c:\\st\\stm32cubeide_1.1.0\\stm32cubeide\\plugins\\com.st.stm32cube.ide.mcu.externaltool
 1114              		.file 11 "c:\\st\\stm32cubeide_1.1.0\\stm32cubeide\\plugins\\com.st.stm32cube.ide.mcu.externaltool
