ARM GAS  C:\Users\anashi\AppData\Local\Temp\cc8s7B5Q.s 			page 1


   1              		.cpu cortex-m0
   2              		.eabi_attribute 20, 1
   3              		.eabi_attribute 21, 1
   4              		.eabi_attribute 23, 3
   5              		.eabi_attribute 24, 1
   6              		.eabi_attribute 25, 1
   7              		.eabi_attribute 26, 1
   8              		.eabi_attribute 30, 6
   9              		.eabi_attribute 34, 0
  10              		.eabi_attribute 18, 4
  11              		.file	"stm32f0xx_hal_adc_ex.c"
  12              		.text
  13              	.Ltext0:
  14              		.cfi_sections	.debug_frame
  15              		.section	.text.HAL_ADCEx_Calibration_Start,"ax",%progbits
  16              		.align	1
  17              		.global	HAL_ADCEx_Calibration_Start
  18              		.syntax unified
  19              		.code	16
  20              		.thumb_func
  21              		.fpu softvfp
  22              		.type	HAL_ADCEx_Calibration_Start, %function
  23              	HAL_ADCEx_Calibration_Start:
  24              	.LFB37:
  25              		.file 1 "C:/repos/rs2all/board/Drivers/STM32F0xx_HAL_Driver/Src/stm32f0xx_hal_adc_ex.c"
  26              		.loc 1 114 0
  27              		.cfi_startproc
  28              		@ args = 0, pretend = 0, frame = 24
  29              		@ frame_needed = 1, uses_anonymous_args = 0
  30 0000 80B5     		push	{r7, lr}
  31              		.cfi_def_cfa_offset 8
  32              		.cfi_offset 7, -8
  33              		.cfi_offset 14, -4
  34 0002 86B0     		sub	sp, sp, #24
  35              		.cfi_def_cfa_offset 32
  36 0004 00AF     		add	r7, sp, #0
  37              		.cfi_def_cfa_register 7
  38 0006 7860     		str	r0, [r7, #4]
  39              		.loc 1 115 0
  40 0008 1723     		movs	r3, #23
  41 000a FB18     		adds	r3, r7, r3
  42 000c 0022     		movs	r2, #0
  43 000e 1A70     		strb	r2, [r3]
  44              		.loc 1 116 0
  45 0010 0023     		movs	r3, #0
  46 0012 3B61     		str	r3, [r7, #16]
  47              		.loc 1 117 0
  48 0014 0023     		movs	r3, #0
  49 0016 FB60     		str	r3, [r7, #12]
  50              		.loc 1 123 0
  51 0018 7B68     		ldr	r3, [r7, #4]
  52 001a 4022     		movs	r2, #64
  53 001c 9B5C     		ldrb	r3, [r3, r2]
  54 001e 012B     		cmp	r3, #1
  55 0020 01D1     		bne	.L2
  56              		.loc 1 123 0 is_stmt 0 discriminator 1
  57 0022 0223     		movs	r3, #2
ARM GAS  C:\Users\anashi\AppData\Local\Temp\cc8s7B5Q.s 			page 2


  58 0024 80E0     		b	.L3
  59              	.L2:
  60              		.loc 1 123 0 discriminator 2
  61 0026 7B68     		ldr	r3, [r7, #4]
  62 0028 4022     		movs	r2, #64
  63 002a 0121     		movs	r1, #1
  64 002c 9954     		strb	r1, [r3, r2]
  65              		.loc 1 126 0 is_stmt 1 discriminator 2
  66 002e 7B68     		ldr	r3, [r7, #4]
  67 0030 1B68     		ldr	r3, [r3]
  68 0032 9B68     		ldr	r3, [r3, #8]
  69 0034 0322     		movs	r2, #3
  70 0036 1340     		ands	r3, r2
  71 0038 012B     		cmp	r3, #1
  72 003a 12D1     		bne	.L4
  73              		.loc 1 126 0 is_stmt 0 discriminator 1
  74 003c 7B68     		ldr	r3, [r7, #4]
  75 003e 1B68     		ldr	r3, [r3]
  76 0040 1B68     		ldr	r3, [r3]
  77 0042 0122     		movs	r2, #1
  78 0044 1340     		ands	r3, r2
  79 0046 012B     		cmp	r3, #1
  80 0048 09D0     		beq	.L5
  81              		.loc 1 126 0 discriminator 4
  82 004a 7B68     		ldr	r3, [r7, #4]
  83 004c 1B68     		ldr	r3, [r3]
  84 004e DA68     		ldr	r2, [r3, #12]
  85 0050 8023     		movs	r3, #128
  86 0052 1B02     		lsls	r3, r3, #8
  87 0054 1A40     		ands	r2, r3
  88 0056 8023     		movs	r3, #128
  89 0058 1B02     		lsls	r3, r3, #8
  90 005a 9A42     		cmp	r2, r3
  91 005c 01D1     		bne	.L4
  92              	.L5:
  93              		.loc 1 126 0 discriminator 5
  94 005e 0123     		movs	r3, #1
  95 0060 00E0     		b	.L6
  96              	.L4:
  97              		.loc 1 126 0 discriminator 6
  98 0062 0023     		movs	r3, #0
  99              	.L6:
 100              		.loc 1 126 0 discriminator 8
 101 0064 002B     		cmp	r3, #0
 102 0066 4ED1     		bne	.L7
 103              		.loc 1 129 0 is_stmt 1
 104 0068 7B68     		ldr	r3, [r7, #4]
 105 006a 5B6C     		ldr	r3, [r3, #68]
 106 006c 304A     		ldr	r2, .L11
 107 006e 1340     		ands	r3, r2
 108 0070 0222     		movs	r2, #2
 109 0072 1A43     		orrs	r2, r3
 110 0074 7B68     		ldr	r3, [r7, #4]
 111 0076 5A64     		str	r2, [r3, #68]
 112              		.loc 1 139 0
 113 0078 7B68     		ldr	r3, [r7, #4]
 114 007a 1B68     		ldr	r3, [r3]
ARM GAS  C:\Users\anashi\AppData\Local\Temp\cc8s7B5Q.s 			page 3


 115 007c DB68     		ldr	r3, [r3, #12]
 116 007e 0322     		movs	r2, #3
 117 0080 1340     		ands	r3, r2
 118 0082 FB60     		str	r3, [r7, #12]
 119              		.loc 1 140 0
 120 0084 7B68     		ldr	r3, [r7, #4]
 121 0086 1B68     		ldr	r3, [r3]
 122 0088 DA68     		ldr	r2, [r3, #12]
 123 008a 7B68     		ldr	r3, [r7, #4]
 124 008c 1B68     		ldr	r3, [r3]
 125 008e 0321     		movs	r1, #3
 126 0090 8A43     		bics	r2, r1
 127 0092 DA60     		str	r2, [r3, #12]
 128              		.loc 1 143 0
 129 0094 7B68     		ldr	r3, [r7, #4]
 130 0096 1B68     		ldr	r3, [r3]
 131 0098 9A68     		ldr	r2, [r3, #8]
 132 009a 7B68     		ldr	r3, [r7, #4]
 133 009c 1B68     		ldr	r3, [r3]
 134 009e 8021     		movs	r1, #128
 135 00a0 0906     		lsls	r1, r1, #24
 136 00a2 0A43     		orrs	r2, r1
 137 00a4 9A60     		str	r2, [r3, #8]
 138              		.loc 1 145 0
 139 00a6 FFF7FEFF 		bl	HAL_GetTick
 140 00aa 0300     		movs	r3, r0
 141 00ac 3B61     		str	r3, [r7, #16]
 142              		.loc 1 148 0
 143 00ae 14E0     		b	.L8
 144              	.L9:
 145              		.loc 1 150 0
 146 00b0 FFF7FEFF 		bl	HAL_GetTick
 147 00b4 0200     		movs	r2, r0
 148 00b6 3B69     		ldr	r3, [r7, #16]
 149 00b8 D31A     		subs	r3, r2, r3
 150 00ba 022B     		cmp	r3, #2
 151 00bc 0DD9     		bls	.L8
 152              		.loc 1 153 0
 153 00be 7B68     		ldr	r3, [r7, #4]
 154 00c0 5B6C     		ldr	r3, [r3, #68]
 155 00c2 1222     		movs	r2, #18
 156 00c4 9343     		bics	r3, r2
 157 00c6 1022     		movs	r2, #16
 158 00c8 1A43     		orrs	r2, r3
 159 00ca 7B68     		ldr	r3, [r7, #4]
 160 00cc 5A64     		str	r2, [r3, #68]
 161              		.loc 1 158 0
 162 00ce 7B68     		ldr	r3, [r7, #4]
 163 00d0 4022     		movs	r2, #64
 164 00d2 0021     		movs	r1, #0
 165 00d4 9954     		strb	r1, [r3, r2]
 166              		.loc 1 160 0
 167 00d6 0123     		movs	r3, #1
 168 00d8 26E0     		b	.L3
 169              	.L8:
 170              		.loc 1 148 0
 171 00da 7B68     		ldr	r3, [r7, #4]
ARM GAS  C:\Users\anashi\AppData\Local\Temp\cc8s7B5Q.s 			page 4


 172 00dc 1B68     		ldr	r3, [r3]
 173 00de 9B68     		ldr	r3, [r3, #8]
 174 00e0 002B     		cmp	r3, #0
 175 00e2 E5DB     		blt	.L9
 176              		.loc 1 165 0
 177 00e4 7B68     		ldr	r3, [r7, #4]
 178 00e6 1B68     		ldr	r3, [r3]
 179 00e8 D968     		ldr	r1, [r3, #12]
 180 00ea 7B68     		ldr	r3, [r7, #4]
 181 00ec 1B68     		ldr	r3, [r3]
 182 00ee FA68     		ldr	r2, [r7, #12]
 183 00f0 0A43     		orrs	r2, r1
 184 00f2 DA60     		str	r2, [r3, #12]
 185              		.loc 1 168 0
 186 00f4 7B68     		ldr	r3, [r7, #4]
 187 00f6 5B6C     		ldr	r3, [r3, #68]
 188 00f8 0322     		movs	r2, #3
 189 00fa 9343     		bics	r3, r2
 190 00fc 0122     		movs	r2, #1
 191 00fe 1A43     		orrs	r2, r3
 192 0100 7B68     		ldr	r3, [r7, #4]
 193 0102 5A64     		str	r2, [r3, #68]
 194 0104 09E0     		b	.L10
 195              	.L7:
 196              		.loc 1 175 0
 197 0106 7B68     		ldr	r3, [r7, #4]
 198 0108 5B6C     		ldr	r3, [r3, #68]
 199 010a 2022     		movs	r2, #32
 200 010c 1A43     		orrs	r2, r3
 201 010e 7B68     		ldr	r3, [r7, #4]
 202 0110 5A64     		str	r2, [r3, #68]
 203              		.loc 1 177 0
 204 0112 1723     		movs	r3, #23
 205 0114 FB18     		adds	r3, r7, r3
 206 0116 0122     		movs	r2, #1
 207 0118 1A70     		strb	r2, [r3]
 208              	.L10:
 209              		.loc 1 181 0
 210 011a 7B68     		ldr	r3, [r7, #4]
 211 011c 4022     		movs	r2, #64
 212 011e 0021     		movs	r1, #0
 213 0120 9954     		strb	r1, [r3, r2]
 214              		.loc 1 184 0
 215 0122 1723     		movs	r3, #23
 216 0124 FB18     		adds	r3, r7, r3
 217 0126 1B78     		ldrb	r3, [r3]
 218              	.L3:
 219              		.loc 1 185 0
 220 0128 1800     		movs	r0, r3
 221 012a BD46     		mov	sp, r7
 222 012c 06B0     		add	sp, sp, #24
 223              		@ sp needed
 224 012e 80BD     		pop	{r7, pc}
 225              	.L12:
 226              		.align	2
 227              	.L11:
 228 0130 FDFEFFFF 		.word	-259
ARM GAS  C:\Users\anashi\AppData\Local\Temp\cc8s7B5Q.s 			page 5


 229              		.cfi_endproc
 230              	.LFE37:
 231              		.size	HAL_ADCEx_Calibration_Start, .-HAL_ADCEx_Calibration_Start
 232              		.text
 233              	.Letext0:
 234              		.file 2 "c:\\st\\stm32cubeide_1.1.0\\stm32cubeide\\plugins\\com.st.stm32cube.ide.mcu.externaltools
 235              		.file 3 "c:\\st\\stm32cubeide_1.1.0\\stm32cubeide\\plugins\\com.st.stm32cube.ide.mcu.externaltools
 236              		.file 4 "C:/repos/rs2all/board/Drivers/CMSIS/Device/ST/STM32F0xx/Include/system_stm32f0xx.h"
 237              		.file 5 "C:/repos/rs2all/board/Drivers/CMSIS/Device/ST/STM32F0xx/Include/stm32f030x6.h"
 238              		.file 6 "c:\\st\\stm32cubeide_1.1.0\\stm32cubeide\\plugins\\com.st.stm32cube.ide.mcu.externaltools
 239              		.file 7 "c:\\st\\stm32cubeide_1.1.0\\stm32cubeide\\plugins\\com.st.stm32cube.ide.mcu.externaltools
 240              		.file 8 "c:\\st\\stm32cubeide_1.1.0\\stm32cubeide\\plugins\\com.st.stm32cube.ide.mcu.externaltools
 241              		.file 9 "c:\\st\\stm32cubeide_1.1.0\\stm32cubeide\\plugins\\com.st.stm32cube.ide.mcu.externaltools
 242              		.file 10 "C:/repos/rs2all/board/Drivers/CMSIS/Device/ST/STM32F0xx/Include/stm32f0xx.h"
 243              		.file 11 "C:/repos/rs2all/board/Drivers/STM32F0xx_HAL_Driver/Inc/stm32f0xx_hal_def.h"
 244              		.file 12 "C:/repos/rs2all/board/Drivers/STM32F0xx_HAL_Driver/Inc/stm32f0xx_hal_dma.h"
 245              		.file 13 "C:/repos/rs2all/board/Drivers/STM32F0xx_HAL_Driver/Inc/stm32f0xx_hal_adc.h"
