ARM GAS  C:\Users\anashi\AppData\Local\Temp\ccVEwqOU.s 			page 1


   1              		.cpu cortex-m0
   2              		.eabi_attribute 20, 1
   3              		.eabi_attribute 21, 1
   4              		.eabi_attribute 23, 3
   5              		.eabi_attribute 24, 1
   6              		.eabi_attribute 25, 1
   7              		.eabi_attribute 26, 1
   8              		.eabi_attribute 30, 6
   9              		.eabi_attribute 34, 0
  10              		.eabi_attribute 18, 4
  11              		.file	"stm32f0xx_hal_iwdg.c"
  12              		.text
  13              	.Ltext0:
  14              		.cfi_sections	.debug_frame
  15              	.Letext0:
  16              		.file 1 "c:\\st\\stm32cubeide_1.1.0\\stm32cubeide\\plugins\\com.st.stm32cube.ide.mcu.externaltools
  17              		.file 2 "c:\\st\\stm32cubeide_1.1.0\\stm32cubeide\\plugins\\com.st.stm32cube.ide.mcu.externaltools
  18              		.file 3 "C:/repos/rs2all/board/Drivers/CMSIS/Device/ST/STM32F0xx/Include/system_stm32f0xx.h"
  19              		.file 4 "c:\\st\\stm32cubeide_1.1.0\\stm32cubeide\\plugins\\com.st.stm32cube.ide.mcu.externaltools
  20              		.file 5 "c:\\st\\stm32cubeide_1.1.0\\stm32cubeide\\plugins\\com.st.stm32cube.ide.mcu.externaltools
  21              		.file 6 "c:\\st\\stm32cubeide_1.1.0\\stm32cubeide\\plugins\\com.st.stm32cube.ide.mcu.externaltools
  22              		.file 7 "c:\\st\\stm32cubeide_1.1.0\\stm32cubeide\\plugins\\com.st.stm32cube.ide.mcu.externaltools
  23              		.section	.debug_info,"",%progbits
  24              	.Ldebug_info0:
  25 0000 09090000 		.4byte	0x909
  26 0004 0400     		.2byte	0x4
  27 0006 00000000 		.4byte	.Ldebug_abbrev0
  28 000a 04       		.byte	0x4
  29 000b 01       		.uleb128 0x1
  30 000c F8BF0100 		.4byte	.LASF6834
  31 0010 0C       		.byte	0xc
  32 0011 3E440000 		.4byte	.LASF6835
  33 0015 66CD0300 		.4byte	.LASF6836
  34 0019 00000000 		.4byte	.Ldebug_line0
  35 001d 00000000 		.4byte	.Ldebug_macro0
  36 0021 02       		.uleb128 0x2
  37 0022 01       		.byte	0x1
  38 0023 06       		.byte	0x6
  39 0024 90F90300 		.4byte	.LASF6707
  40 0028 03       		.uleb128 0x3
  41 0029 2D450000 		.4byte	.LASF6712
  42 002d 01       		.byte	0x1
  43 002e 2B       		.byte	0x2b
  44 002f 33000000 		.4byte	0x33
  45 0033 02       		.uleb128 0x2
  46 0034 01       		.byte	0x1
  47 0035 08       		.byte	0x8
  48 0036 FC1D0100 		.4byte	.LASF6708
  49 003a 02       		.uleb128 0x2
  50 003b 02       		.byte	0x2
  51 003c 05       		.byte	0x5
  52 003d 768D0300 		.4byte	.LASF6709
  53 0041 02       		.uleb128 0x2
  54 0042 02       		.byte	0x2
  55 0043 07       		.byte	0x7
  56 0044 076B0200 		.4byte	.LASF6710
  57 0048 02       		.uleb128 0x2
ARM GAS  C:\Users\anashi\AppData\Local\Temp\ccVEwqOU.s 			page 2


  58 0049 04       		.byte	0x4
  59 004a 05       		.byte	0x5
  60 004b 4E090400 		.4byte	.LASF6711
  61 004f 03       		.uleb128 0x3
  62 0050 AA5E0400 		.4byte	.LASF6713
  63 0054 01       		.byte	0x1
  64 0055 4F       		.byte	0x4f
  65 0056 5A000000 		.4byte	0x5a
  66 005a 02       		.uleb128 0x2
  67 005b 04       		.byte	0x4
  68 005c 07       		.byte	0x7
  69 005d 25220100 		.4byte	.LASF6714
  70 0061 02       		.uleb128 0x2
  71 0062 08       		.byte	0x8
  72 0063 05       		.byte	0x5
  73 0064 016B0400 		.4byte	.LASF6715
  74 0068 02       		.uleb128 0x2
  75 0069 08       		.byte	0x8
  76 006a 07       		.byte	0x7
  77 006b B26C0300 		.4byte	.LASF6716
  78 006f 04       		.uleb128 0x4
  79 0070 04       		.byte	0x4
  80 0071 05       		.byte	0x5
  81 0072 696E7400 		.ascii	"int\000"
  82 0076 02       		.uleb128 0x2
  83 0077 04       		.byte	0x4
  84 0078 07       		.byte	0x7
  85 0079 F12A0000 		.4byte	.LASF6717
  86 007d 03       		.uleb128 0x3
  87 007e 9C570300 		.4byte	.LASF6718
  88 0082 02       		.byte	0x2
  89 0083 18       		.byte	0x18
  90 0084 28000000 		.4byte	0x28
  91 0088 05       		.uleb128 0x5
  92 0089 7D000000 		.4byte	0x7d
  93 008d 03       		.uleb128 0x3
  94 008e 03E80300 		.4byte	.LASF6719
  95 0092 02       		.byte	0x2
  96 0093 30       		.byte	0x30
  97 0094 4F000000 		.4byte	0x4f
  98 0098 06       		.uleb128 0x6
  99 0099 7E040300 		.4byte	.LASF6720
 100 009d 03       		.byte	0x3
 101 009e 4A       		.byte	0x4a
 102 009f 8D000000 		.4byte	0x8d
 103 00a3 07       		.uleb128 0x7
 104 00a4 88000000 		.4byte	0x88
 105 00a8 B3000000 		.4byte	0xb3
 106 00ac 08       		.uleb128 0x8
 107 00ad 76000000 		.4byte	0x76
 108 00b1 0F       		.byte	0xf
 109 00b2 00       		.byte	0
 110 00b3 05       		.uleb128 0x5
 111 00b4 A3000000 		.4byte	0xa3
 112 00b8 06       		.uleb128 0x6
 113 00b9 F7690100 		.4byte	.LASF6721
 114 00bd 03       		.byte	0x3
ARM GAS  C:\Users\anashi\AppData\Local\Temp\ccVEwqOU.s 			page 3


 115 00be 4B       		.byte	0x4b
 116 00bf B3000000 		.4byte	0xb3
 117 00c3 07       		.uleb128 0x7
 118 00c4 88000000 		.4byte	0x88
 119 00c8 D3000000 		.4byte	0xd3
 120 00cc 08       		.uleb128 0x8
 121 00cd 76000000 		.4byte	0x76
 122 00d1 07       		.byte	0x7
 123 00d2 00       		.byte	0
 124 00d3 05       		.uleb128 0x5
 125 00d4 C3000000 		.4byte	0xc3
 126 00d8 06       		.uleb128 0x6
 127 00d9 2AED0300 		.4byte	.LASF6722
 128 00dd 03       		.byte	0x3
 129 00de 4C       		.byte	0x4c
 130 00df D3000000 		.4byte	0xd3
 131 00e3 02       		.uleb128 0x2
 132 00e4 08       		.byte	0x8
 133 00e5 04       		.byte	0x4
 134 00e6 3CCE0200 		.4byte	.LASF6723
 135 00ea 09       		.uleb128 0x9
 136 00eb 04       		.byte	0x4
 137 00ec 03       		.uleb128 0x3
 138 00ed 98430400 		.4byte	.LASF6724
 139 00f1 04       		.byte	0x4
 140 00f2 22       		.byte	0x22
 141 00f3 F7000000 		.4byte	0xf7
 142 00f7 0A       		.uleb128 0xa
 143 00f8 04       		.byte	0x4
 144 00f9 FD000000 		.4byte	0xfd
 145 00fd 0B       		.uleb128 0xb
 146 00fe D6610200 		.4byte	.LASF6830
 147 0102 03       		.uleb128 0x3
 148 0103 205D0100 		.4byte	.LASF6725
 149 0107 05       		.byte	0x5
 150 0108 2C       		.byte	0x2c
 151 0109 48000000 		.4byte	0x48
 152 010d 03       		.uleb128 0x3
 153 010e 64D00200 		.4byte	.LASF6726
 154 0112 05       		.byte	0x5
 155 0113 72       		.byte	0x72
 156 0114 48000000 		.4byte	0x48
 157 0118 0C       		.uleb128 0xc
 158 0119 375F0100 		.4byte	.LASF6727
 159 011d 06       		.byte	0x6
 160 011e 6501     		.2byte	0x165
 161 0120 76000000 		.4byte	0x76
 162 0124 0D       		.uleb128 0xd
 163 0125 04       		.byte	0x4
 164 0126 05       		.byte	0x5
 165 0127 A6       		.byte	0xa6
 166 0128 43010000 		.4byte	0x143
 167 012c 0E       		.uleb128 0xe
 168 012d 6CB10100 		.4byte	.LASF6728
 169 0131 05       		.byte	0x5
 170 0132 A8       		.byte	0xa8
 171 0133 18010000 		.4byte	0x118
ARM GAS  C:\Users\anashi\AppData\Local\Temp\ccVEwqOU.s 			page 4


 172 0137 0E       		.uleb128 0xe
 173 0138 719A0000 		.4byte	.LASF6729
 174 013c 05       		.byte	0x5
 175 013d A9       		.byte	0xa9
 176 013e 43010000 		.4byte	0x143
 177 0142 00       		.byte	0
 178 0143 07       		.uleb128 0x7
 179 0144 33000000 		.4byte	0x33
 180 0148 53010000 		.4byte	0x153
 181 014c 08       		.uleb128 0x8
 182 014d 76000000 		.4byte	0x76
 183 0151 03       		.byte	0x3
 184 0152 00       		.byte	0
 185 0153 0F       		.uleb128 0xf
 186 0154 08       		.byte	0x8
 187 0155 05       		.byte	0x5
 188 0156 A3       		.byte	0xa3
 189 0157 74010000 		.4byte	0x174
 190 015b 10       		.uleb128 0x10
 191 015c 48460400 		.4byte	.LASF6730
 192 0160 05       		.byte	0x5
 193 0161 A5       		.byte	0xa5
 194 0162 6F000000 		.4byte	0x6f
 195 0166 00       		.byte	0
 196 0167 10       		.uleb128 0x10
 197 0168 14870200 		.4byte	.LASF6731
 198 016c 05       		.byte	0x5
 199 016d AA       		.byte	0xaa
 200 016e 24010000 		.4byte	0x124
 201 0172 04       		.byte	0x4
 202 0173 00       		.byte	0
 203 0174 03       		.uleb128 0x3
 204 0175 AAE70200 		.4byte	.LASF6732
 205 0179 05       		.byte	0x5
 206 017a AB       		.byte	0xab
 207 017b 53010000 		.4byte	0x153
 208 017f 03       		.uleb128 0x3
 209 0180 475C0100 		.4byte	.LASF6733
 210 0184 05       		.byte	0x5
 211 0185 AF       		.byte	0xaf
 212 0186 EC000000 		.4byte	0xec
 213 018a 03       		.uleb128 0x3
 214 018b 9F8F0200 		.4byte	.LASF6734
 215 018f 07       		.byte	0x7
 216 0190 16       		.byte	0x16
 217 0191 5A000000 		.4byte	0x5a
 218 0195 11       		.uleb128 0x11
 219 0196 C2650100 		.4byte	.LASF6739
 220 019a 18       		.byte	0x18
 221 019b 07       		.byte	0x7
 222 019c 2F       		.byte	0x2f
 223 019d E8010000 		.4byte	0x1e8
 224 01a1 10       		.uleb128 0x10
 225 01a2 FBBB0000 		.4byte	.LASF6735
 226 01a6 07       		.byte	0x7
 227 01a7 31       		.byte	0x31
 228 01a8 E8010000 		.4byte	0x1e8
ARM GAS  C:\Users\anashi\AppData\Local\Temp\ccVEwqOU.s 			page 5


 229 01ac 00       		.byte	0
 230 01ad 12       		.uleb128 0x12
 231 01ae 5F6B00   		.ascii	"_k\000"
 232 01b1 07       		.byte	0x7
 233 01b2 32       		.byte	0x32
 234 01b3 6F000000 		.4byte	0x6f
 235 01b7 04       		.byte	0x4
 236 01b8 10       		.uleb128 0x10
 237 01b9 D5060000 		.4byte	.LASF6736
 238 01bd 07       		.byte	0x7
 239 01be 32       		.byte	0x32
 240 01bf 6F000000 		.4byte	0x6f
 241 01c3 08       		.byte	0x8
 242 01c4 10       		.uleb128 0x10
 243 01c5 69B90300 		.4byte	.LASF6737
 244 01c9 07       		.byte	0x7
 245 01ca 32       		.byte	0x32
 246 01cb 6F000000 		.4byte	0x6f
 247 01cf 0C       		.byte	0xc
 248 01d0 10       		.uleb128 0x10
 249 01d1 67DF0000 		.4byte	.LASF6738
 250 01d5 07       		.byte	0x7
 251 01d6 32       		.byte	0x32
 252 01d7 6F000000 		.4byte	0x6f
 253 01db 10       		.byte	0x10
 254 01dc 12       		.uleb128 0x12
 255 01dd 5F7800   		.ascii	"_x\000"
 256 01e0 07       		.byte	0x7
 257 01e1 33       		.byte	0x33
 258 01e2 EE010000 		.4byte	0x1ee
 259 01e6 14       		.byte	0x14
 260 01e7 00       		.byte	0
 261 01e8 0A       		.uleb128 0xa
 262 01e9 04       		.byte	0x4
 263 01ea 95010000 		.4byte	0x195
 264 01ee 07       		.uleb128 0x7
 265 01ef 8A010000 		.4byte	0x18a
 266 01f3 FE010000 		.4byte	0x1fe
 267 01f7 08       		.uleb128 0x8
 268 01f8 76000000 		.4byte	0x76
 269 01fc 00       		.byte	0
 270 01fd 00       		.byte	0
 271 01fe 11       		.uleb128 0x11
 272 01ff 94B60200 		.4byte	.LASF6740
 273 0203 24       		.byte	0x24
 274 0204 07       		.byte	0x7
 275 0205 37       		.byte	0x37
 276 0206 77020000 		.4byte	0x277
 277 020a 10       		.uleb128 0x10
 278 020b 47C20000 		.4byte	.LASF6741
 279 020f 07       		.byte	0x7
 280 0210 39       		.byte	0x39
 281 0211 6F000000 		.4byte	0x6f
 282 0215 00       		.byte	0
 283 0216 10       		.uleb128 0x10
 284 0217 317B0200 		.4byte	.LASF6742
 285 021b 07       		.byte	0x7
ARM GAS  C:\Users\anashi\AppData\Local\Temp\ccVEwqOU.s 			page 6


 286 021c 3A       		.byte	0x3a
 287 021d 6F000000 		.4byte	0x6f
 288 0221 04       		.byte	0x4
 289 0222 10       		.uleb128 0x10
 290 0223 9F1B0400 		.4byte	.LASF6743
 291 0227 07       		.byte	0x7
 292 0228 3B       		.byte	0x3b
 293 0229 6F000000 		.4byte	0x6f
 294 022d 08       		.byte	0x8
 295 022e 10       		.uleb128 0x10
 296 022f 8CD00200 		.4byte	.LASF6744
 297 0233 07       		.byte	0x7
 298 0234 3C       		.byte	0x3c
 299 0235 6F000000 		.4byte	0x6f
 300 0239 0C       		.byte	0xc
 301 023a 10       		.uleb128 0x10
 302 023b 10930200 		.4byte	.LASF6745
 303 023f 07       		.byte	0x7
 304 0240 3D       		.byte	0x3d
 305 0241 6F000000 		.4byte	0x6f
 306 0245 10       		.byte	0x10
 307 0246 10       		.uleb128 0x10
 308 0247 B2000100 		.4byte	.LASF6746
 309 024b 07       		.byte	0x7
 310 024c 3E       		.byte	0x3e
 311 024d 6F000000 		.4byte	0x6f
 312 0251 14       		.byte	0x14
 313 0252 10       		.uleb128 0x10
 314 0253 AD080100 		.4byte	.LASF6747
 315 0257 07       		.byte	0x7
 316 0258 3F       		.byte	0x3f
 317 0259 6F000000 		.4byte	0x6f
 318 025d 18       		.byte	0x18
 319 025e 10       		.uleb128 0x10
 320 025f F2FE0200 		.4byte	.LASF6748
 321 0263 07       		.byte	0x7
 322 0264 40       		.byte	0x40
 323 0265 6F000000 		.4byte	0x6f
 324 0269 1C       		.byte	0x1c
 325 026a 10       		.uleb128 0x10
 326 026b A3420000 		.4byte	.LASF6749
 327 026f 07       		.byte	0x7
 328 0270 41       		.byte	0x41
 329 0271 6F000000 		.4byte	0x6f
 330 0275 20       		.byte	0x20
 331 0276 00       		.byte	0
 332 0277 13       		.uleb128 0x13
 333 0278 CB800300 		.4byte	.LASF6750
 334 027c 0801     		.2byte	0x108
 335 027e 07       		.byte	0x7
 336 027f 4A       		.byte	0x4a
 337 0280 B7020000 		.4byte	0x2b7
 338 0284 10       		.uleb128 0x10
 339 0285 70220000 		.4byte	.LASF6751
 340 0289 07       		.byte	0x7
 341 028a 4B       		.byte	0x4b
 342 028b B7020000 		.4byte	0x2b7
ARM GAS  C:\Users\anashi\AppData\Local\Temp\ccVEwqOU.s 			page 7


 343 028f 00       		.byte	0
 344 0290 10       		.uleb128 0x10
 345 0291 22C70000 		.4byte	.LASF6752
 346 0295 07       		.byte	0x7
 347 0296 4C       		.byte	0x4c
 348 0297 B7020000 		.4byte	0x2b7
 349 029b 80       		.byte	0x80
 350 029c 14       		.uleb128 0x14
 351 029d 4C5D0300 		.4byte	.LASF6753
 352 02a1 07       		.byte	0x7
 353 02a2 4E       		.byte	0x4e
 354 02a3 8A010000 		.4byte	0x18a
 355 02a7 0001     		.2byte	0x100
 356 02a9 14       		.uleb128 0x14
 357 02aa DFA60200 		.4byte	.LASF6754
 358 02ae 07       		.byte	0x7
 359 02af 51       		.byte	0x51
 360 02b0 8A010000 		.4byte	0x18a
 361 02b4 0401     		.2byte	0x104
 362 02b6 00       		.byte	0
 363 02b7 07       		.uleb128 0x7
 364 02b8 EA000000 		.4byte	0xea
 365 02bc C7020000 		.4byte	0x2c7
 366 02c0 08       		.uleb128 0x8
 367 02c1 76000000 		.4byte	0x76
 368 02c5 1F       		.byte	0x1f
 369 02c6 00       		.byte	0
 370 02c7 13       		.uleb128 0x13
 371 02c8 C0850000 		.4byte	.LASF6755
 372 02cc 9001     		.2byte	0x190
 373 02ce 07       		.byte	0x7
 374 02cf 5D       		.byte	0x5d
 375 02d0 05030000 		.4byte	0x305
 376 02d4 10       		.uleb128 0x10
 377 02d5 FBBB0000 		.4byte	.LASF6735
 378 02d9 07       		.byte	0x7
 379 02da 5E       		.byte	0x5e
 380 02db 05030000 		.4byte	0x305
 381 02df 00       		.byte	0
 382 02e0 10       		.uleb128 0x10
 383 02e1 E36B0100 		.4byte	.LASF6756
 384 02e5 07       		.byte	0x7
 385 02e6 5F       		.byte	0x5f
 386 02e7 6F000000 		.4byte	0x6f
 387 02eb 04       		.byte	0x4
 388 02ec 10       		.uleb128 0x10
 389 02ed C2490200 		.4byte	.LASF6757
 390 02f1 07       		.byte	0x7
 391 02f2 61       		.byte	0x61
 392 02f3 0B030000 		.4byte	0x30b
 393 02f7 08       		.byte	0x8
 394 02f8 10       		.uleb128 0x10
 395 02f9 CB800300 		.4byte	.LASF6750
 396 02fd 07       		.byte	0x7
 397 02fe 62       		.byte	0x62
 398 02ff 77020000 		.4byte	0x277
 399 0303 88       		.byte	0x88
ARM GAS  C:\Users\anashi\AppData\Local\Temp\ccVEwqOU.s 			page 8


 400 0304 00       		.byte	0
 401 0305 0A       		.uleb128 0xa
 402 0306 04       		.byte	0x4
 403 0307 C7020000 		.4byte	0x2c7
 404 030b 07       		.uleb128 0x7
 405 030c 1B030000 		.4byte	0x31b
 406 0310 1B030000 		.4byte	0x31b
 407 0314 08       		.uleb128 0x8
 408 0315 76000000 		.4byte	0x76
 409 0319 1F       		.byte	0x1f
 410 031a 00       		.byte	0
 411 031b 0A       		.uleb128 0xa
 412 031c 04       		.byte	0x4
 413 031d 21030000 		.4byte	0x321
 414 0321 15       		.uleb128 0x15
 415 0322 11       		.uleb128 0x11
 416 0323 9A800200 		.4byte	.LASF6758
 417 0327 08       		.byte	0x8
 418 0328 07       		.byte	0x7
 419 0329 75       		.byte	0x75
 420 032a 47030000 		.4byte	0x347
 421 032e 10       		.uleb128 0x10
 422 032f A4420200 		.4byte	.LASF6759
 423 0333 07       		.byte	0x7
 424 0334 76       		.byte	0x76
 425 0335 47030000 		.4byte	0x347
 426 0339 00       		.byte	0
 427 033a 10       		.uleb128 0x10
 428 033b FFBC0300 		.4byte	.LASF6760
 429 033f 07       		.byte	0x7
 430 0340 77       		.byte	0x77
 431 0341 6F000000 		.4byte	0x6f
 432 0345 04       		.byte	0x4
 433 0346 00       		.byte	0
 434 0347 0A       		.uleb128 0xa
 435 0348 04       		.byte	0x4
 436 0349 33000000 		.4byte	0x33
 437 034d 11       		.uleb128 0x11
 438 034e 74DF0100 		.4byte	.LASF6761
 439 0352 68       		.byte	0x68
 440 0353 07       		.byte	0x7
 441 0354 B5       		.byte	0xb5
 442 0355 77040000 		.4byte	0x477
 443 0359 12       		.uleb128 0x12
 444 035a 5F7000   		.ascii	"_p\000"
 445 035d 07       		.byte	0x7
 446 035e B6       		.byte	0xb6
 447 035f 47030000 		.4byte	0x347
 448 0363 00       		.byte	0
 449 0364 12       		.uleb128 0x12
 450 0365 5F7200   		.ascii	"_r\000"
 451 0368 07       		.byte	0x7
 452 0369 B7       		.byte	0xb7
 453 036a 6F000000 		.4byte	0x6f
 454 036e 04       		.byte	0x4
 455 036f 12       		.uleb128 0x12
 456 0370 5F7700   		.ascii	"_w\000"
ARM GAS  C:\Users\anashi\AppData\Local\Temp\ccVEwqOU.s 			page 9


 457 0373 07       		.byte	0x7
 458 0374 B8       		.byte	0xb8
 459 0375 6F000000 		.4byte	0x6f
 460 0379 08       		.byte	0x8
 461 037a 10       		.uleb128 0x10
 462 037b B9610300 		.4byte	.LASF6762
 463 037f 07       		.byte	0x7
 464 0380 B9       		.byte	0xb9
 465 0381 3A000000 		.4byte	0x3a
 466 0385 0C       		.byte	0xc
 467 0386 10       		.uleb128 0x10
 468 0387 D0300200 		.4byte	.LASF6763
 469 038b 07       		.byte	0x7
 470 038c BA       		.byte	0xba
 471 038d 3A000000 		.4byte	0x3a
 472 0391 0E       		.byte	0xe
 473 0392 12       		.uleb128 0x12
 474 0393 5F626600 		.ascii	"_bf\000"
 475 0397 07       		.byte	0x7
 476 0398 BB       		.byte	0xbb
 477 0399 22030000 		.4byte	0x322
 478 039d 10       		.byte	0x10
 479 039e 10       		.uleb128 0x10
 480 039f 003D0000 		.4byte	.LASF6764
 481 03a3 07       		.byte	0x7
 482 03a4 BC       		.byte	0xbc
 483 03a5 6F000000 		.4byte	0x6f
 484 03a9 18       		.byte	0x18
 485 03aa 10       		.uleb128 0x10
 486 03ab 74670300 		.4byte	.LASF6765
 487 03af 07       		.byte	0x7
 488 03b0 C3       		.byte	0xc3
 489 03b1 EA000000 		.4byte	0xea
 490 03b5 1C       		.byte	0x1c
 491 03b6 10       		.uleb128 0x10
 492 03b7 3B430100 		.4byte	.LASF6766
 493 03bb 07       		.byte	0x7
 494 03bc C5       		.byte	0xc5
 495 03bd E4050000 		.4byte	0x5e4
 496 03c1 20       		.byte	0x20
 497 03c2 10       		.uleb128 0x10
 498 03c3 345A0300 		.4byte	.LASF6767
 499 03c7 07       		.byte	0x7
 500 03c8 C7       		.byte	0xc7
 501 03c9 0E060000 		.4byte	0x60e
 502 03cd 24       		.byte	0x24
 503 03ce 10       		.uleb128 0x10
 504 03cf F3B00200 		.4byte	.LASF6768
 505 03d3 07       		.byte	0x7
 506 03d4 CA       		.byte	0xca
 507 03d5 32060000 		.4byte	0x632
 508 03d9 28       		.byte	0x28
 509 03da 10       		.uleb128 0x10
 510 03db 7BD40000 		.4byte	.LASF6769
 511 03df 07       		.byte	0x7
 512 03e0 CB       		.byte	0xcb
 513 03e1 4C060000 		.4byte	0x64c
ARM GAS  C:\Users\anashi\AppData\Local\Temp\ccVEwqOU.s 			page 10


 514 03e5 2C       		.byte	0x2c
 515 03e6 12       		.uleb128 0x12
 516 03e7 5F756200 		.ascii	"_ub\000"
 517 03eb 07       		.byte	0x7
 518 03ec CE       		.byte	0xce
 519 03ed 22030000 		.4byte	0x322
 520 03f1 30       		.byte	0x30
 521 03f2 12       		.uleb128 0x12
 522 03f3 5F757000 		.ascii	"_up\000"
 523 03f7 07       		.byte	0x7
 524 03f8 CF       		.byte	0xcf
 525 03f9 47030000 		.4byte	0x347
 526 03fd 38       		.byte	0x38
 527 03fe 12       		.uleb128 0x12
 528 03ff 5F757200 		.ascii	"_ur\000"
 529 0403 07       		.byte	0x7
 530 0404 D0       		.byte	0xd0
 531 0405 6F000000 		.4byte	0x6f
 532 0409 3C       		.byte	0x3c
 533 040a 10       		.uleb128 0x10
 534 040b 2FC90200 		.4byte	.LASF6770
 535 040f 07       		.byte	0x7
 536 0410 D3       		.byte	0xd3
 537 0411 52060000 		.4byte	0x652
 538 0415 40       		.byte	0x40
 539 0416 10       		.uleb128 0x10
 540 0417 C7710000 		.4byte	.LASF6771
 541 041b 07       		.byte	0x7
 542 041c D4       		.byte	0xd4
 543 041d 62060000 		.4byte	0x662
 544 0421 43       		.byte	0x43
 545 0422 12       		.uleb128 0x12
 546 0423 5F6C6200 		.ascii	"_lb\000"
 547 0427 07       		.byte	0x7
 548 0428 D7       		.byte	0xd7
 549 0429 22030000 		.4byte	0x322
 550 042d 44       		.byte	0x44
 551 042e 10       		.uleb128 0x10
 552 042f 502B0100 		.4byte	.LASF6772
 553 0433 07       		.byte	0x7
 554 0434 DA       		.byte	0xda
 555 0435 6F000000 		.4byte	0x6f
 556 0439 4C       		.byte	0x4c
 557 043a 10       		.uleb128 0x10
 558 043b 25850200 		.4byte	.LASF6773
 559 043f 07       		.byte	0x7
 560 0440 DB       		.byte	0xdb
 561 0441 02010000 		.4byte	0x102
 562 0445 50       		.byte	0x50
 563 0446 10       		.uleb128 0x10
 564 0447 49F20000 		.4byte	.LASF6774
 565 044b 07       		.byte	0x7
 566 044c DE       		.byte	0xde
 567 044d 95040000 		.4byte	0x495
 568 0451 54       		.byte	0x54
 569 0452 10       		.uleb128 0x10
 570 0453 761C0000 		.4byte	.LASF6775
ARM GAS  C:\Users\anashi\AppData\Local\Temp\ccVEwqOU.s 			page 11


 571 0457 07       		.byte	0x7
 572 0458 E2       		.byte	0xe2
 573 0459 7F010000 		.4byte	0x17f
 574 045d 58       		.byte	0x58
 575 045e 10       		.uleb128 0x10
 576 045f 1BC70200 		.4byte	.LASF6776
 577 0463 07       		.byte	0x7
 578 0464 E4       		.byte	0xe4
 579 0465 74010000 		.4byte	0x174
 580 0469 5C       		.byte	0x5c
 581 046a 10       		.uleb128 0x10
 582 046b 1A610300 		.4byte	.LASF6777
 583 046f 07       		.byte	0x7
 584 0470 E5       		.byte	0xe5
 585 0471 6F000000 		.4byte	0x6f
 586 0475 64       		.byte	0x64
 587 0476 00       		.byte	0
 588 0477 16       		.uleb128 0x16
 589 0478 6F000000 		.4byte	0x6f
 590 047c 95040000 		.4byte	0x495
 591 0480 17       		.uleb128 0x17
 592 0481 95040000 		.4byte	0x495
 593 0485 17       		.uleb128 0x17
 594 0486 EA000000 		.4byte	0xea
 595 048a 17       		.uleb128 0x17
 596 048b D2050000 		.4byte	0x5d2
 597 048f 17       		.uleb128 0x17
 598 0490 6F000000 		.4byte	0x6f
 599 0494 00       		.byte	0
 600 0495 0A       		.uleb128 0xa
 601 0496 04       		.byte	0x4
 602 0497 A0040000 		.4byte	0x4a0
 603 049b 05       		.uleb128 0x5
 604 049c 95040000 		.4byte	0x495
 605 04a0 18       		.uleb128 0x18
 606 04a1 4EFC0100 		.4byte	.LASF6778
 607 04a5 2804     		.2byte	0x428
 608 04a7 07       		.byte	0x7
 609 04a8 6002     		.2byte	0x260
 610 04aa D2050000 		.4byte	0x5d2
 611 04ae 19       		.uleb128 0x19
 612 04af B51B0200 		.4byte	.LASF6779
 613 04b3 07       		.byte	0x7
 614 04b4 6202     		.2byte	0x262
 615 04b6 6F000000 		.4byte	0x6f
 616 04ba 00       		.byte	0
 617 04bb 19       		.uleb128 0x19
 618 04bc A9110200 		.4byte	.LASF6780
 619 04c0 07       		.byte	0x7
 620 04c1 6702     		.2byte	0x267
 621 04c3 B9060000 		.4byte	0x6b9
 622 04c7 04       		.byte	0x4
 623 04c8 19       		.uleb128 0x19
 624 04c9 97050300 		.4byte	.LASF6781
 625 04cd 07       		.byte	0x7
 626 04ce 6702     		.2byte	0x267
 627 04d0 B9060000 		.4byte	0x6b9
ARM GAS  C:\Users\anashi\AppData\Local\Temp\ccVEwqOU.s 			page 12


 628 04d4 08       		.byte	0x8
 629 04d5 19       		.uleb128 0x19
 630 04d6 79230400 		.4byte	.LASF6782
 631 04da 07       		.byte	0x7
 632 04db 6702     		.2byte	0x267
 633 04dd B9060000 		.4byte	0x6b9
 634 04e1 0C       		.byte	0xc
 635 04e2 19       		.uleb128 0x19
 636 04e3 DE6B0100 		.4byte	.LASF6783
 637 04e7 07       		.byte	0x7
 638 04e8 6902     		.2byte	0x269
 639 04ea 6F000000 		.4byte	0x6f
 640 04ee 10       		.byte	0x10
 641 04ef 19       		.uleb128 0x19
 642 04f0 9EE50200 		.4byte	.LASF6784
 643 04f4 07       		.byte	0x7
 644 04f5 6A02     		.2byte	0x26a
 645 04f7 9B080000 		.4byte	0x89b
 646 04fb 14       		.byte	0x14
 647 04fc 19       		.uleb128 0x19
 648 04fd 37020100 		.4byte	.LASF6785
 649 0501 07       		.byte	0x7
 650 0502 6D02     		.2byte	0x26d
 651 0504 6F000000 		.4byte	0x6f
 652 0508 30       		.byte	0x30
 653 0509 19       		.uleb128 0x19
 654 050a 3ABD0100 		.4byte	.LASF6786
 655 050e 07       		.byte	0x7
 656 050f 6E02     		.2byte	0x26e
 657 0511 B0080000 		.4byte	0x8b0
 658 0515 34       		.byte	0x34
 659 0516 19       		.uleb128 0x19
 660 0517 E93E0300 		.4byte	.LASF6787
 661 051b 07       		.byte	0x7
 662 051c 7002     		.2byte	0x270
 663 051e 6F000000 		.4byte	0x6f
 664 0522 38       		.byte	0x38
 665 0523 19       		.uleb128 0x19
 666 0524 0A980100 		.4byte	.LASF6788
 667 0528 07       		.byte	0x7
 668 0529 7202     		.2byte	0x272
 669 052b C1080000 		.4byte	0x8c1
 670 052f 3C       		.byte	0x3c
 671 0530 19       		.uleb128 0x19
 672 0531 3BAB0100 		.4byte	.LASF6789
 673 0535 07       		.byte	0x7
 674 0536 7502     		.2byte	0x275
 675 0538 E8010000 		.4byte	0x1e8
 676 053c 40       		.byte	0x40
 677 053d 19       		.uleb128 0x19
 678 053e CBEE0300 		.4byte	.LASF6790
 679 0542 07       		.byte	0x7
 680 0543 7602     		.2byte	0x276
 681 0545 6F000000 		.4byte	0x6f
 682 0549 44       		.byte	0x44
 683 054a 19       		.uleb128 0x19
 684 054b F9000000 		.4byte	.LASF6791
ARM GAS  C:\Users\anashi\AppData\Local\Temp\ccVEwqOU.s 			page 13


 685 054f 07       		.byte	0x7
 686 0550 7702     		.2byte	0x277
 687 0552 E8010000 		.4byte	0x1e8
 688 0556 48       		.byte	0x48
 689 0557 19       		.uleb128 0x19
 690 0558 22AD0200 		.4byte	.LASF6792
 691 055c 07       		.byte	0x7
 692 055d 7802     		.2byte	0x278
 693 055f C7080000 		.4byte	0x8c7
 694 0563 4C       		.byte	0x4c
 695 0564 19       		.uleb128 0x19
 696 0565 785A0100 		.4byte	.LASF6793
 697 0569 07       		.byte	0x7
 698 056a 7B02     		.2byte	0x27b
 699 056c 6F000000 		.4byte	0x6f
 700 0570 50       		.byte	0x50
 701 0571 19       		.uleb128 0x19
 702 0572 AB3E0400 		.4byte	.LASF6794
 703 0576 07       		.byte	0x7
 704 0577 7C02     		.2byte	0x27c
 705 0579 D2050000 		.4byte	0x5d2
 706 057d 54       		.byte	0x54
 707 057e 19       		.uleb128 0x19
 708 057f 89E70200 		.4byte	.LASF6795
 709 0583 07       		.byte	0x7
 710 0584 9F02     		.2byte	0x29f
 711 0586 79080000 		.4byte	0x879
 712 058a 58       		.byte	0x58
 713 058b 1A       		.uleb128 0x1a
 714 058c C0850000 		.4byte	.LASF6755
 715 0590 07       		.byte	0x7
 716 0591 A302     		.2byte	0x2a3
 717 0593 05030000 		.4byte	0x305
 718 0597 4801     		.2byte	0x148
 719 0599 1A       		.uleb128 0x1a
 720 059a 24BE0000 		.4byte	.LASF6796
 721 059e 07       		.byte	0x7
 722 059f A402     		.2byte	0x2a4
 723 05a1 C7020000 		.4byte	0x2c7
 724 05a5 4C01     		.2byte	0x14c
 725 05a7 1A       		.uleb128 0x1a
 726 05a8 728B0300 		.4byte	.LASF6797
 727 05ac 07       		.byte	0x7
 728 05ad A802     		.2byte	0x2a8
 729 05af D8080000 		.4byte	0x8d8
 730 05b3 DC02     		.2byte	0x2dc
 731 05b5 1A       		.uleb128 0x1a
 732 05b6 C84B0000 		.4byte	.LASF6798
 733 05ba 07       		.byte	0x7
 734 05bb AD02     		.2byte	0x2ad
 735 05bd 7E060000 		.4byte	0x67e
 736 05c1 E002     		.2byte	0x2e0
 737 05c3 1A       		.uleb128 0x1a
 738 05c4 11B00200 		.4byte	.LASF6799
 739 05c8 07       		.byte	0x7
 740 05c9 AF02     		.2byte	0x2af
 741 05cb E4080000 		.4byte	0x8e4
ARM GAS  C:\Users\anashi\AppData\Local\Temp\ccVEwqOU.s 			page 14


 742 05cf EC02     		.2byte	0x2ec
 743 05d1 00       		.byte	0
 744 05d2 0A       		.uleb128 0xa
 745 05d3 04       		.byte	0x4
 746 05d4 D8050000 		.4byte	0x5d8
 747 05d8 02       		.uleb128 0x2
 748 05d9 01       		.byte	0x1
 749 05da 08       		.byte	0x8
 750 05db ADF70100 		.4byte	.LASF530
 751 05df 05       		.uleb128 0x5
 752 05e0 D8050000 		.4byte	0x5d8
 753 05e4 0A       		.uleb128 0xa
 754 05e5 04       		.byte	0x4
 755 05e6 77040000 		.4byte	0x477
 756 05ea 16       		.uleb128 0x16
 757 05eb 6F000000 		.4byte	0x6f
 758 05ef 08060000 		.4byte	0x608
 759 05f3 17       		.uleb128 0x17
 760 05f4 95040000 		.4byte	0x495
 761 05f8 17       		.uleb128 0x17
 762 05f9 EA000000 		.4byte	0xea
 763 05fd 17       		.uleb128 0x17
 764 05fe 08060000 		.4byte	0x608
 765 0602 17       		.uleb128 0x17
 766 0603 6F000000 		.4byte	0x6f
 767 0607 00       		.byte	0
 768 0608 0A       		.uleb128 0xa
 769 0609 04       		.byte	0x4
 770 060a DF050000 		.4byte	0x5df
 771 060e 0A       		.uleb128 0xa
 772 060f 04       		.byte	0x4
 773 0610 EA050000 		.4byte	0x5ea
 774 0614 16       		.uleb128 0x16
 775 0615 0D010000 		.4byte	0x10d
 776 0619 32060000 		.4byte	0x632
 777 061d 17       		.uleb128 0x17
 778 061e 95040000 		.4byte	0x495
 779 0622 17       		.uleb128 0x17
 780 0623 EA000000 		.4byte	0xea
 781 0627 17       		.uleb128 0x17
 782 0628 0D010000 		.4byte	0x10d
 783 062c 17       		.uleb128 0x17
 784 062d 6F000000 		.4byte	0x6f
 785 0631 00       		.byte	0
 786 0632 0A       		.uleb128 0xa
 787 0633 04       		.byte	0x4
 788 0634 14060000 		.4byte	0x614
 789 0638 16       		.uleb128 0x16
 790 0639 6F000000 		.4byte	0x6f
 791 063d 4C060000 		.4byte	0x64c
 792 0641 17       		.uleb128 0x17
 793 0642 95040000 		.4byte	0x495
 794 0646 17       		.uleb128 0x17
 795 0647 EA000000 		.4byte	0xea
 796 064b 00       		.byte	0
 797 064c 0A       		.uleb128 0xa
 798 064d 04       		.byte	0x4
ARM GAS  C:\Users\anashi\AppData\Local\Temp\ccVEwqOU.s 			page 15


 799 064e 38060000 		.4byte	0x638
 800 0652 07       		.uleb128 0x7
 801 0653 33000000 		.4byte	0x33
 802 0657 62060000 		.4byte	0x662
 803 065b 08       		.uleb128 0x8
 804 065c 76000000 		.4byte	0x76
 805 0660 02       		.byte	0x2
 806 0661 00       		.byte	0
 807 0662 07       		.uleb128 0x7
 808 0663 33000000 		.4byte	0x33
 809 0667 72060000 		.4byte	0x672
 810 066b 08       		.uleb128 0x8
 811 066c 76000000 		.4byte	0x76
 812 0670 00       		.byte	0
 813 0671 00       		.byte	0
 814 0672 0C       		.uleb128 0xc
 815 0673 A5610100 		.4byte	.LASF6800
 816 0677 07       		.byte	0x7
 817 0678 1F01     		.2byte	0x11f
 818 067a 4D030000 		.4byte	0x34d
 819 067e 1B       		.uleb128 0x1b
 820 067f D0610200 		.4byte	.LASF6801
 821 0683 0C       		.byte	0xc
 822 0684 07       		.byte	0x7
 823 0685 2301     		.2byte	0x123
 824 0687 B3060000 		.4byte	0x6b3
 825 068b 19       		.uleb128 0x19
 826 068c FBBB0000 		.4byte	.LASF6735
 827 0690 07       		.byte	0x7
 828 0691 2501     		.2byte	0x125
 829 0693 B3060000 		.4byte	0x6b3
 830 0697 00       		.byte	0
 831 0698 19       		.uleb128 0x19
 832 0699 F7FF0300 		.4byte	.LASF6802
 833 069d 07       		.byte	0x7
 834 069e 2601     		.2byte	0x126
 835 06a0 6F000000 		.4byte	0x6f
 836 06a4 04       		.byte	0x4
 837 06a5 19       		.uleb128 0x19
 838 06a6 137A0300 		.4byte	.LASF6803
 839 06aa 07       		.byte	0x7
 840 06ab 2701     		.2byte	0x127
 841 06ad B9060000 		.4byte	0x6b9
 842 06b1 08       		.byte	0x8
 843 06b2 00       		.byte	0
 844 06b3 0A       		.uleb128 0xa
 845 06b4 04       		.byte	0x4
 846 06b5 7E060000 		.4byte	0x67e
 847 06b9 0A       		.uleb128 0xa
 848 06ba 04       		.byte	0x4
 849 06bb 72060000 		.4byte	0x672
 850 06bf 1B       		.uleb128 0x1b
 851 06c0 BA1D0400 		.4byte	.LASF6804
 852 06c4 0E       		.byte	0xe
 853 06c5 07       		.byte	0x7
 854 06c6 3F01     		.2byte	0x13f
 855 06c8 F4060000 		.4byte	0x6f4
ARM GAS  C:\Users\anashi\AppData\Local\Temp\ccVEwqOU.s 			page 16


 856 06cc 19       		.uleb128 0x19
 857 06cd 20EC0200 		.4byte	.LASF6805
 858 06d1 07       		.byte	0x7
 859 06d2 4001     		.2byte	0x140
 860 06d4 F4060000 		.4byte	0x6f4
 861 06d8 00       		.byte	0
 862 06d9 19       		.uleb128 0x19
 863 06da 100C0400 		.4byte	.LASF6806
 864 06de 07       		.byte	0x7
 865 06df 4101     		.2byte	0x141
 866 06e1 F4060000 		.4byte	0x6f4
 867 06e5 06       		.byte	0x6
 868 06e6 19       		.uleb128 0x19
 869 06e7 6C610000 		.4byte	.LASF6807
 870 06eb 07       		.byte	0x7
 871 06ec 4201     		.2byte	0x142
 872 06ee 41000000 		.4byte	0x41
 873 06f2 0C       		.byte	0xc
 874 06f3 00       		.byte	0
 875 06f4 07       		.uleb128 0x7
 876 06f5 41000000 		.4byte	0x41
 877 06f9 04070000 		.4byte	0x704
 878 06fd 08       		.uleb128 0x8
 879 06fe 76000000 		.4byte	0x76
 880 0702 02       		.byte	0x2
 881 0703 00       		.byte	0
 882 0704 1C       		.uleb128 0x1c
 883 0705 D0       		.byte	0xd0
 884 0706 07       		.byte	0x7
 885 0707 8002     		.2byte	0x280
 886 0709 05080000 		.4byte	0x805
 887 070d 19       		.uleb128 0x19
 888 070e 01BB0200 		.4byte	.LASF6808
 889 0712 07       		.byte	0x7
 890 0713 8202     		.2byte	0x282
 891 0715 76000000 		.4byte	0x76
 892 0719 00       		.byte	0
 893 071a 19       		.uleb128 0x19
 894 071b 1AA10000 		.4byte	.LASF6809
 895 071f 07       		.byte	0x7
 896 0720 8302     		.2byte	0x283
 897 0722 D2050000 		.4byte	0x5d2
 898 0726 04       		.byte	0x4
 899 0727 19       		.uleb128 0x19
 900 0728 E3C30000 		.4byte	.LASF6810
 901 072c 07       		.byte	0x7
 902 072d 8402     		.2byte	0x284
 903 072f 05080000 		.4byte	0x805
 904 0733 08       		.byte	0x8
 905 0734 19       		.uleb128 0x19
 906 0735 FAC50300 		.4byte	.LASF6811
 907 0739 07       		.byte	0x7
 908 073a 8502     		.2byte	0x285
 909 073c FE010000 		.4byte	0x1fe
 910 0740 24       		.byte	0x24
 911 0741 19       		.uleb128 0x19
 912 0742 9D110300 		.4byte	.LASF6812
ARM GAS  C:\Users\anashi\AppData\Local\Temp\ccVEwqOU.s 			page 17


 913 0746 07       		.byte	0x7
 914 0747 8602     		.2byte	0x286
 915 0749 6F000000 		.4byte	0x6f
 916 074d 48       		.byte	0x48
 917 074e 19       		.uleb128 0x19
 918 074f 615B0400 		.4byte	.LASF6813
 919 0753 07       		.byte	0x7
 920 0754 8702     		.2byte	0x287
 921 0756 68000000 		.4byte	0x68
 922 075a 50       		.byte	0x50
 923 075b 19       		.uleb128 0x19
 924 075c 6F790200 		.4byte	.LASF6814
 925 0760 07       		.byte	0x7
 926 0761 8802     		.2byte	0x288
 927 0763 BF060000 		.4byte	0x6bf
 928 0767 58       		.byte	0x58
 929 0768 19       		.uleb128 0x19
 930 0769 50080100 		.4byte	.LASF6815
 931 076d 07       		.byte	0x7
 932 076e 8902     		.2byte	0x289
 933 0770 74010000 		.4byte	0x174
 934 0774 68       		.byte	0x68
 935 0775 19       		.uleb128 0x19
 936 0776 EF670300 		.4byte	.LASF6816
 937 077a 07       		.byte	0x7
 938 077b 8A02     		.2byte	0x28a
 939 077d 74010000 		.4byte	0x174
 940 0781 70       		.byte	0x70
 941 0782 19       		.uleb128 0x19
 942 0783 60440400 		.4byte	.LASF6817
 943 0787 07       		.byte	0x7
 944 0788 8B02     		.2byte	0x28b
 945 078a 74010000 		.4byte	0x174
 946 078e 78       		.byte	0x78
 947 078f 19       		.uleb128 0x19
 948 0790 7DBB0200 		.4byte	.LASF6818
 949 0794 07       		.byte	0x7
 950 0795 8C02     		.2byte	0x28c
 951 0797 15080000 		.4byte	0x815
 952 079b 80       		.byte	0x80
 953 079c 19       		.uleb128 0x19
 954 079d C9BC0300 		.4byte	.LASF6819
 955 07a1 07       		.byte	0x7
 956 07a2 8D02     		.2byte	0x28d
 957 07a4 25080000 		.4byte	0x825
 958 07a8 88       		.byte	0x88
 959 07a9 19       		.uleb128 0x19
 960 07aa A2940100 		.4byte	.LASF6820
 961 07ae 07       		.byte	0x7
 962 07af 8E02     		.2byte	0x28e
 963 07b1 6F000000 		.4byte	0x6f
 964 07b5 A0       		.byte	0xa0
 965 07b6 19       		.uleb128 0x19
 966 07b7 575B0300 		.4byte	.LASF6821
 967 07bb 07       		.byte	0x7
 968 07bc 8F02     		.2byte	0x28f
 969 07be 74010000 		.4byte	0x174
ARM GAS  C:\Users\anashi\AppData\Local\Temp\ccVEwqOU.s 			page 18


 970 07c2 A4       		.byte	0xa4
 971 07c3 19       		.uleb128 0x19
 972 07c4 DD820200 		.4byte	.LASF6822
 973 07c8 07       		.byte	0x7
 974 07c9 9002     		.2byte	0x290
 975 07cb 74010000 		.4byte	0x174
 976 07cf AC       		.byte	0xac
 977 07d0 19       		.uleb128 0x19
 978 07d1 BF210200 		.4byte	.LASF6823
 979 07d5 07       		.byte	0x7
 980 07d6 9102     		.2byte	0x291
 981 07d8 74010000 		.4byte	0x174
 982 07dc B4       		.byte	0xb4
 983 07dd 19       		.uleb128 0x19
 984 07de 825B0400 		.4byte	.LASF6824
 985 07e2 07       		.byte	0x7
 986 07e3 9202     		.2byte	0x292
 987 07e5 74010000 		.4byte	0x174
 988 07e9 BC       		.byte	0xbc
 989 07ea 19       		.uleb128 0x19
 990 07eb 5E810100 		.4byte	.LASF6825
 991 07ef 07       		.byte	0x7
 992 07f0 9302     		.2byte	0x293
 993 07f2 74010000 		.4byte	0x174
 994 07f6 C4       		.byte	0xc4
 995 07f7 19       		.uleb128 0x19
 996 07f8 F33A0400 		.4byte	.LASF6826
 997 07fc 07       		.byte	0x7
 998 07fd 9402     		.2byte	0x294
 999 07ff 6F000000 		.4byte	0x6f
 1000 0803 CC       		.byte	0xcc
 1001 0804 00       		.byte	0
 1002 0805 07       		.uleb128 0x7
 1003 0806 D8050000 		.4byte	0x5d8
 1004 080a 15080000 		.4byte	0x815
 1005 080e 08       		.uleb128 0x8
 1006 080f 76000000 		.4byte	0x76
 1007 0813 19       		.byte	0x19
 1008 0814 00       		.byte	0
 1009 0815 07       		.uleb128 0x7
 1010 0816 D8050000 		.4byte	0x5d8
 1011 081a 25080000 		.4byte	0x825
 1012 081e 08       		.uleb128 0x8
 1013 081f 76000000 		.4byte	0x76
 1014 0823 07       		.byte	0x7
 1015 0824 00       		.byte	0
 1016 0825 07       		.uleb128 0x7
 1017 0826 D8050000 		.4byte	0x5d8
 1018 082a 35080000 		.4byte	0x835
 1019 082e 08       		.uleb128 0x8
 1020 082f 76000000 		.4byte	0x76
 1021 0833 17       		.byte	0x17
 1022 0834 00       		.byte	0
 1023 0835 1C       		.uleb128 0x1c
 1024 0836 F0       		.byte	0xf0
 1025 0837 07       		.byte	0x7
 1026 0838 9902     		.2byte	0x299
ARM GAS  C:\Users\anashi\AppData\Local\Temp\ccVEwqOU.s 			page 19


 1027 083a 59080000 		.4byte	0x859
 1028 083e 19       		.uleb128 0x19
 1029 083f B09B0300 		.4byte	.LASF6827
 1030 0843 07       		.byte	0x7
 1031 0844 9C02     		.2byte	0x29c
 1032 0846 59080000 		.4byte	0x859
 1033 084a 00       		.byte	0
 1034 084b 19       		.uleb128 0x19
 1035 084c 02270200 		.4byte	.LASF6828
 1036 0850 07       		.byte	0x7
 1037 0851 9D02     		.2byte	0x29d
 1038 0853 69080000 		.4byte	0x869
 1039 0857 78       		.byte	0x78
 1040 0858 00       		.byte	0
 1041 0859 07       		.uleb128 0x7
 1042 085a 47030000 		.4byte	0x347
 1043 085e 69080000 		.4byte	0x869
 1044 0862 08       		.uleb128 0x8
 1045 0863 76000000 		.4byte	0x76
 1046 0867 1D       		.byte	0x1d
 1047 0868 00       		.byte	0
 1048 0869 07       		.uleb128 0x7
 1049 086a 76000000 		.4byte	0x76
 1050 086e 79080000 		.4byte	0x879
 1051 0872 08       		.uleb128 0x8
 1052 0873 76000000 		.4byte	0x76
 1053 0877 1D       		.byte	0x1d
 1054 0878 00       		.byte	0
 1055 0879 1D       		.uleb128 0x1d
 1056 087a F0       		.byte	0xf0
 1057 087b 07       		.byte	0x7
 1058 087c 7E02     		.2byte	0x27e
 1059 087e 9B080000 		.4byte	0x89b
 1060 0882 1E       		.uleb128 0x1e
 1061 0883 4EFC0100 		.4byte	.LASF6778
 1062 0887 07       		.byte	0x7
 1063 0888 9502     		.2byte	0x295
 1064 088a 04070000 		.4byte	0x704
 1065 088e 1E       		.uleb128 0x1e
 1066 088f 66500100 		.4byte	.LASF6829
 1067 0893 07       		.byte	0x7
 1068 0894 9E02     		.2byte	0x29e
 1069 0896 35080000 		.4byte	0x835
 1070 089a 00       		.byte	0
 1071 089b 07       		.uleb128 0x7
 1072 089c D8050000 		.4byte	0x5d8
 1073 08a0 AB080000 		.4byte	0x8ab
 1074 08a4 08       		.uleb128 0x8
 1075 08a5 76000000 		.4byte	0x76
 1076 08a9 18       		.byte	0x18
 1077 08aa 00       		.byte	0
 1078 08ab 0B       		.uleb128 0xb
 1079 08ac FE550300 		.4byte	.LASF6831
 1080 08b0 0A       		.uleb128 0xa
 1081 08b1 04       		.byte	0x4
 1082 08b2 AB080000 		.4byte	0x8ab
 1083 08b6 1F       		.uleb128 0x1f
ARM GAS  C:\Users\anashi\AppData\Local\Temp\ccVEwqOU.s 			page 20


 1084 08b7 C1080000 		.4byte	0x8c1
 1085 08bb 17       		.uleb128 0x17
 1086 08bc 95040000 		.4byte	0x495
 1087 08c0 00       		.byte	0
 1088 08c1 0A       		.uleb128 0xa
 1089 08c2 04       		.byte	0x4
 1090 08c3 B6080000 		.4byte	0x8b6
 1091 08c7 0A       		.uleb128 0xa
 1092 08c8 04       		.byte	0x4
 1093 08c9 E8010000 		.4byte	0x1e8
 1094 08cd 1F       		.uleb128 0x1f
 1095 08ce D8080000 		.4byte	0x8d8
 1096 08d2 17       		.uleb128 0x17
 1097 08d3 6F000000 		.4byte	0x6f
 1098 08d7 00       		.byte	0
 1099 08d8 0A       		.uleb128 0xa
 1100 08d9 04       		.byte	0x4
 1101 08da DE080000 		.4byte	0x8de
 1102 08de 0A       		.uleb128 0xa
 1103 08df 04       		.byte	0x4
 1104 08e0 CD080000 		.4byte	0x8cd
 1105 08e4 07       		.uleb128 0x7
 1106 08e5 72060000 		.4byte	0x672
 1107 08e9 F4080000 		.4byte	0x8f4
 1108 08ed 08       		.uleb128 0x8
 1109 08ee 76000000 		.4byte	0x76
 1110 08f2 02       		.byte	0x2
 1111 08f3 00       		.byte	0
 1112 08f4 20       		.uleb128 0x20
 1113 08f5 79EB0200 		.4byte	.LASF6832
 1114 08f9 07       		.byte	0x7
 1115 08fa 2E03     		.2byte	0x32e
 1116 08fc 95040000 		.4byte	0x495
 1117 0900 20       		.uleb128 0x20
 1118 0901 0A340400 		.4byte	.LASF6833
 1119 0905 07       		.byte	0x7
 1120 0906 2F03     		.2byte	0x32f
 1121 0908 9B040000 		.4byte	0x49b
 1122 090c 00       		.byte	0
 1123              		.section	.debug_abbrev,"",%progbits
 1124              	.Ldebug_abbrev0:
 1125 0000 01       		.uleb128 0x1
 1126 0001 11       		.uleb128 0x11
 1127 0002 01       		.byte	0x1
 1128 0003 25       		.uleb128 0x25
 1129 0004 0E       		.uleb128 0xe
 1130 0005 13       		.uleb128 0x13
 1131 0006 0B       		.uleb128 0xb
 1132 0007 03       		.uleb128 0x3
 1133 0008 0E       		.uleb128 0xe
 1134 0009 1B       		.uleb128 0x1b
 1135 000a 0E       		.uleb128 0xe
 1136 000b 10       		.uleb128 0x10
 1137 000c 17       		.uleb128 0x17
 1138 000d 9942     		.uleb128 0x2119
 1139 000f 17       		.uleb128 0x17
 1140 0010 00       		.byte	0
ARM GAS  C:\Users\anashi\AppData\Local\Temp\ccVEwqOU.s 			page 21


 1141 0011 00       		.byte	0
 1142 0012 02       		.uleb128 0x2
 1143 0013 24       		.uleb128 0x24
 1144 0014 00       		.byte	0
 1145 0015 0B       		.uleb128 0xb
 1146 0016 0B       		.uleb128 0xb
 1147 0017 3E       		.uleb128 0x3e
 1148 0018 0B       		.uleb128 0xb
 1149 0019 03       		.uleb128 0x3
 1150 001a 0E       		.uleb128 0xe
 1151 001b 00       		.byte	0
 1152 001c 00       		.byte	0
 1153 001d 03       		.uleb128 0x3
 1154 001e 16       		.uleb128 0x16
 1155 001f 00       		.byte	0
 1156 0020 03       		.uleb128 0x3
 1157 0021 0E       		.uleb128 0xe
 1158 0022 3A       		.uleb128 0x3a
 1159 0023 0B       		.uleb128 0xb
 1160 0024 3B       		.uleb128 0x3b
 1161 0025 0B       		.uleb128 0xb
 1162 0026 49       		.uleb128 0x49
 1163 0027 13       		.uleb128 0x13
 1164 0028 00       		.byte	0
 1165 0029 00       		.byte	0
 1166 002a 04       		.uleb128 0x4
 1167 002b 24       		.uleb128 0x24
 1168 002c 00       		.byte	0
 1169 002d 0B       		.uleb128 0xb
 1170 002e 0B       		.uleb128 0xb
 1171 002f 3E       		.uleb128 0x3e
 1172 0030 0B       		.uleb128 0xb
 1173 0031 03       		.uleb128 0x3
 1174 0032 08       		.uleb128 0x8
 1175 0033 00       		.byte	0
 1176 0034 00       		.byte	0
 1177 0035 05       		.uleb128 0x5
 1178 0036 26       		.uleb128 0x26
 1179 0037 00       		.byte	0
 1180 0038 49       		.uleb128 0x49
 1181 0039 13       		.uleb128 0x13
 1182 003a 00       		.byte	0
 1183 003b 00       		.byte	0
 1184 003c 06       		.uleb128 0x6
 1185 003d 34       		.uleb128 0x34
 1186 003e 00       		.byte	0
 1187 003f 03       		.uleb128 0x3
 1188 0040 0E       		.uleb128 0xe
 1189 0041 3A       		.uleb128 0x3a
 1190 0042 0B       		.uleb128 0xb
 1191 0043 3B       		.uleb128 0x3b
 1192 0044 0B       		.uleb128 0xb
 1193 0045 49       		.uleb128 0x49
 1194 0046 13       		.uleb128 0x13
 1195 0047 3F       		.uleb128 0x3f
 1196 0048 19       		.uleb128 0x19
 1197 0049 3C       		.uleb128 0x3c
ARM GAS  C:\Users\anashi\AppData\Local\Temp\ccVEwqOU.s 			page 22


 1198 004a 19       		.uleb128 0x19
 1199 004b 00       		.byte	0
 1200 004c 00       		.byte	0
 1201 004d 07       		.uleb128 0x7
 1202 004e 01       		.uleb128 0x1
 1203 004f 01       		.byte	0x1
 1204 0050 49       		.uleb128 0x49
 1205 0051 13       		.uleb128 0x13
 1206 0052 01       		.uleb128 0x1
 1207 0053 13       		.uleb128 0x13
 1208 0054 00       		.byte	0
 1209 0055 00       		.byte	0
 1210 0056 08       		.uleb128 0x8
 1211 0057 21       		.uleb128 0x21
 1212 0058 00       		.byte	0
 1213 0059 49       		.uleb128 0x49
 1214 005a 13       		.uleb128 0x13
 1215 005b 2F       		.uleb128 0x2f
 1216 005c 0B       		.uleb128 0xb
 1217 005d 00       		.byte	0
 1218 005e 00       		.byte	0
 1219 005f 09       		.uleb128 0x9
 1220 0060 0F       		.uleb128 0xf
 1221 0061 00       		.byte	0
 1222 0062 0B       		.uleb128 0xb
 1223 0063 0B       		.uleb128 0xb
 1224 0064 00       		.byte	0
 1225 0065 00       		.byte	0
 1226 0066 0A       		.uleb128 0xa
 1227 0067 0F       		.uleb128 0xf
 1228 0068 00       		.byte	0
 1229 0069 0B       		.uleb128 0xb
 1230 006a 0B       		.uleb128 0xb
 1231 006b 49       		.uleb128 0x49
 1232 006c 13       		.uleb128 0x13
 1233 006d 00       		.byte	0
 1234 006e 00       		.byte	0
 1235 006f 0B       		.uleb128 0xb
 1236 0070 13       		.uleb128 0x13
 1237 0071 00       		.byte	0
 1238 0072 03       		.uleb128 0x3
 1239 0073 0E       		.uleb128 0xe
 1240 0074 3C       		.uleb128 0x3c
 1241 0075 19       		.uleb128 0x19
 1242 0076 00       		.byte	0
 1243 0077 00       		.byte	0
 1244 0078 0C       		.uleb128 0xc
 1245 0079 16       		.uleb128 0x16
 1246 007a 00       		.byte	0
 1247 007b 03       		.uleb128 0x3
 1248 007c 0E       		.uleb128 0xe
 1249 007d 3A       		.uleb128 0x3a
 1250 007e 0B       		.uleb128 0xb
 1251 007f 3B       		.uleb128 0x3b
 1252 0080 05       		.uleb128 0x5
 1253 0081 49       		.uleb128 0x49
 1254 0082 13       		.uleb128 0x13
ARM GAS  C:\Users\anashi\AppData\Local\Temp\ccVEwqOU.s 			page 23


 1255 0083 00       		.byte	0
 1256 0084 00       		.byte	0
 1257 0085 0D       		.uleb128 0xd
 1258 0086 17       		.uleb128 0x17
 1259 0087 01       		.byte	0x1
 1260 0088 0B       		.uleb128 0xb
 1261 0089 0B       		.uleb128 0xb
 1262 008a 3A       		.uleb128 0x3a
 1263 008b 0B       		.uleb128 0xb
 1264 008c 3B       		.uleb128 0x3b
 1265 008d 0B       		.uleb128 0xb
 1266 008e 01       		.uleb128 0x1
 1267 008f 13       		.uleb128 0x13
 1268 0090 00       		.byte	0
 1269 0091 00       		.byte	0
 1270 0092 0E       		.uleb128 0xe
 1271 0093 0D       		.uleb128 0xd
 1272 0094 00       		.byte	0
 1273 0095 03       		.uleb128 0x3
 1274 0096 0E       		.uleb128 0xe
 1275 0097 3A       		.uleb128 0x3a
 1276 0098 0B       		.uleb128 0xb
 1277 0099 3B       		.uleb128 0x3b
 1278 009a 0B       		.uleb128 0xb
 1279 009b 49       		.uleb128 0x49
 1280 009c 13       		.uleb128 0x13
 1281 009d 00       		.byte	0
 1282 009e 00       		.byte	0
 1283 009f 0F       		.uleb128 0xf
 1284 00a0 13       		.uleb128 0x13
 1285 00a1 01       		.byte	0x1
 1286 00a2 0B       		.uleb128 0xb
 1287 00a3 0B       		.uleb128 0xb
 1288 00a4 3A       		.uleb128 0x3a
 1289 00a5 0B       		.uleb128 0xb
 1290 00a6 3B       		.uleb128 0x3b
 1291 00a7 0B       		.uleb128 0xb
 1292 00a8 01       		.uleb128 0x1
 1293 00a9 13       		.uleb128 0x13
 1294 00aa 00       		.byte	0
 1295 00ab 00       		.byte	0
 1296 00ac 10       		.uleb128 0x10
 1297 00ad 0D       		.uleb128 0xd
 1298 00ae 00       		.byte	0
 1299 00af 03       		.uleb128 0x3
 1300 00b0 0E       		.uleb128 0xe
 1301 00b1 3A       		.uleb128 0x3a
 1302 00b2 0B       		.uleb128 0xb
 1303 00b3 3B       		.uleb128 0x3b
 1304 00b4 0B       		.uleb128 0xb
 1305 00b5 49       		.uleb128 0x49
 1306 00b6 13       		.uleb128 0x13
 1307 00b7 38       		.uleb128 0x38
 1308 00b8 0B       		.uleb128 0xb
 1309 00b9 00       		.byte	0
 1310 00ba 00       		.byte	0
 1311 00bb 11       		.uleb128 0x11
ARM GAS  C:\Users\anashi\AppData\Local\Temp\ccVEwqOU.s 			page 24


 1312 00bc 13       		.uleb128 0x13
 1313 00bd 01       		.byte	0x1
 1314 00be 03       		.uleb128 0x3
 1315 00bf 0E       		.uleb128 0xe
 1316 00c0 0B       		.uleb128 0xb
 1317 00c1 0B       		.uleb128 0xb
 1318 00c2 3A       		.uleb128 0x3a
 1319 00c3 0B       		.uleb128 0xb
 1320 00c4 3B       		.uleb128 0x3b
 1321 00c5 0B       		.uleb128 0xb
 1322 00c6 01       		.uleb128 0x1
 1323 00c7 13       		.uleb128 0x13
 1324 00c8 00       		.byte	0
 1325 00c9 00       		.byte	0
 1326 00ca 12       		.uleb128 0x12
 1327 00cb 0D       		.uleb128 0xd
 1328 00cc 00       		.byte	0
 1329 00cd 03       		.uleb128 0x3
 1330 00ce 08       		.uleb128 0x8
 1331 00cf 3A       		.uleb128 0x3a
 1332 00d0 0B       		.uleb128 0xb
 1333 00d1 3B       		.uleb128 0x3b
 1334 00d2 0B       		.uleb128 0xb
 1335 00d3 49       		.uleb128 0x49
 1336 00d4 13       		.uleb128 0x13
 1337 00d5 38       		.uleb128 0x38
 1338 00d6 0B       		.uleb128 0xb
 1339 00d7 00       		.byte	0
 1340 00d8 00       		.byte	0
 1341 00d9 13       		.uleb128 0x13
 1342 00da 13       		.uleb128 0x13
 1343 00db 01       		.byte	0x1
 1344 00dc 03       		.uleb128 0x3
 1345 00dd 0E       		.uleb128 0xe
 1346 00de 0B       		.uleb128 0xb
 1347 00df 05       		.uleb128 0x5
 1348 00e0 3A       		.uleb128 0x3a
 1349 00e1 0B       		.uleb128 0xb
 1350 00e2 3B       		.uleb128 0x3b
 1351 00e3 0B       		.uleb128 0xb
 1352 00e4 01       		.uleb128 0x1
 1353 00e5 13       		.uleb128 0x13
 1354 00e6 00       		.byte	0
 1355 00e7 00       		.byte	0
 1356 00e8 14       		.uleb128 0x14
 1357 00e9 0D       		.uleb128 0xd
 1358 00ea 00       		.byte	0
 1359 00eb 03       		.uleb128 0x3
 1360 00ec 0E       		.uleb128 0xe
 1361 00ed 3A       		.uleb128 0x3a
 1362 00ee 0B       		.uleb128 0xb
 1363 00ef 3B       		.uleb128 0x3b
 1364 00f0 0B       		.uleb128 0xb
 1365 00f1 49       		.uleb128 0x49
 1366 00f2 13       		.uleb128 0x13
 1367 00f3 38       		.uleb128 0x38
 1368 00f4 05       		.uleb128 0x5
ARM GAS  C:\Users\anashi\AppData\Local\Temp\ccVEwqOU.s 			page 25


 1369 00f5 00       		.byte	0
 1370 00f6 00       		.byte	0
 1371 00f7 15       		.uleb128 0x15
 1372 00f8 15       		.uleb128 0x15
 1373 00f9 00       		.byte	0
 1374 00fa 27       		.uleb128 0x27
 1375 00fb 19       		.uleb128 0x19
 1376 00fc 00       		.byte	0
 1377 00fd 00       		.byte	0
 1378 00fe 16       		.uleb128 0x16
 1379 00ff 15       		.uleb128 0x15
 1380 0100 01       		.byte	0x1
 1381 0101 27       		.uleb128 0x27
 1382 0102 19       		.uleb128 0x19
 1383 0103 49       		.uleb128 0x49
 1384 0104 13       		.uleb128 0x13
 1385 0105 01       		.uleb128 0x1
 1386 0106 13       		.uleb128 0x13
 1387 0107 00       		.byte	0
 1388 0108 00       		.byte	0
 1389 0109 17       		.uleb128 0x17
 1390 010a 05       		.uleb128 0x5
 1391 010b 00       		.byte	0
 1392 010c 49       		.uleb128 0x49
 1393 010d 13       		.uleb128 0x13
 1394 010e 00       		.byte	0
 1395 010f 00       		.byte	0
 1396 0110 18       		.uleb128 0x18
 1397 0111 13       		.uleb128 0x13
 1398 0112 01       		.byte	0x1
 1399 0113 03       		.uleb128 0x3
 1400 0114 0E       		.uleb128 0xe
 1401 0115 0B       		.uleb128 0xb
 1402 0116 05       		.uleb128 0x5
 1403 0117 3A       		.uleb128 0x3a
 1404 0118 0B       		.uleb128 0xb
 1405 0119 3B       		.uleb128 0x3b
 1406 011a 05       		.uleb128 0x5
 1407 011b 01       		.uleb128 0x1
 1408 011c 13       		.uleb128 0x13
 1409 011d 00       		.byte	0
 1410 011e 00       		.byte	0
 1411 011f 19       		.uleb128 0x19
 1412 0120 0D       		.uleb128 0xd
 1413 0121 00       		.byte	0
 1414 0122 03       		.uleb128 0x3
 1415 0123 0E       		.uleb128 0xe
 1416 0124 3A       		.uleb128 0x3a
 1417 0125 0B       		.uleb128 0xb
 1418 0126 3B       		.uleb128 0x3b
 1419 0127 05       		.uleb128 0x5
 1420 0128 49       		.uleb128 0x49
 1421 0129 13       		.uleb128 0x13
 1422 012a 38       		.uleb128 0x38
 1423 012b 0B       		.uleb128 0xb
 1424 012c 00       		.byte	0
 1425 012d 00       		.byte	0
ARM GAS  C:\Users\anashi\AppData\Local\Temp\ccVEwqOU.s 			page 26


 1426 012e 1A       		.uleb128 0x1a
 1427 012f 0D       		.uleb128 0xd
 1428 0130 00       		.byte	0
 1429 0131 03       		.uleb128 0x3
 1430 0132 0E       		.uleb128 0xe
 1431 0133 3A       		.uleb128 0x3a
 1432 0134 0B       		.uleb128 0xb
 1433 0135 3B       		.uleb128 0x3b
 1434 0136 05       		.uleb128 0x5
 1435 0137 49       		.uleb128 0x49
 1436 0138 13       		.uleb128 0x13
 1437 0139 38       		.uleb128 0x38
 1438 013a 05       		.uleb128 0x5
 1439 013b 00       		.byte	0
 1440 013c 00       		.byte	0
 1441 013d 1B       		.uleb128 0x1b
 1442 013e 13       		.uleb128 0x13
 1443 013f 01       		.byte	0x1
 1444 0140 03       		.uleb128 0x3
 1445 0141 0E       		.uleb128 0xe
 1446 0142 0B       		.uleb128 0xb
 1447 0143 0B       		.uleb128 0xb
 1448 0144 3A       		.uleb128 0x3a
 1449 0145 0B       		.uleb128 0xb
 1450 0146 3B       		.uleb128 0x3b
 1451 0147 05       		.uleb128 0x5
 1452 0148 01       		.uleb128 0x1
 1453 0149 13       		.uleb128 0x13
 1454 014a 00       		.byte	0
 1455 014b 00       		.byte	0
 1456 014c 1C       		.uleb128 0x1c
 1457 014d 13       		.uleb128 0x13
 1458 014e 01       		.byte	0x1
 1459 014f 0B       		.uleb128 0xb
 1460 0150 0B       		.uleb128 0xb
 1461 0151 3A       		.uleb128 0x3a
 1462 0152 0B       		.uleb128 0xb
 1463 0153 3B       		.uleb128 0x3b
 1464 0154 05       		.uleb128 0x5
 1465 0155 01       		.uleb128 0x1
 1466 0156 13       		.uleb128 0x13
 1467 0157 00       		.byte	0
 1468 0158 00       		.byte	0
 1469 0159 1D       		.uleb128 0x1d
 1470 015a 17       		.uleb128 0x17
 1471 015b 01       		.byte	0x1
 1472 015c 0B       		.uleb128 0xb
 1473 015d 0B       		.uleb128 0xb
 1474 015e 3A       		.uleb128 0x3a
 1475 015f 0B       		.uleb128 0xb
 1476 0160 3B       		.uleb128 0x3b
 1477 0161 05       		.uleb128 0x5
 1478 0162 01       		.uleb128 0x1
 1479 0163 13       		.uleb128 0x13
 1480 0164 00       		.byte	0
 1481 0165 00       		.byte	0
 1482 0166 1E       		.uleb128 0x1e
ARM GAS  C:\Users\anashi\AppData\Local\Temp\ccVEwqOU.s 			page 27


 1483 0167 0D       		.uleb128 0xd
 1484 0168 00       		.byte	0
 1485 0169 03       		.uleb128 0x3
 1486 016a 0E       		.uleb128 0xe
 1487 016b 3A       		.uleb128 0x3a
 1488 016c 0B       		.uleb128 0xb
 1489 016d 3B       		.uleb128 0x3b
 1490 016e 05       		.uleb128 0x5
 1491 016f 49       		.uleb128 0x49
 1492 0170 13       		.uleb128 0x13
 1493 0171 00       		.byte	0
 1494 0172 00       		.byte	0
 1495 0173 1F       		.uleb128 0x1f
 1496 0174 15       		.uleb128 0x15
 1497 0175 01       		.byte	0x1
 1498 0176 27       		.uleb128 0x27
 1499 0177 19       		.uleb128 0x19
 1500 0178 01       		.uleb128 0x1
 1501 0179 13       		.uleb128 0x13
 1502 017a 00       		.byte	0
 1503 017b 00       		.byte	0
 1504 017c 20       		.uleb128 0x20
 1505 017d 34       		.uleb128 0x34
 1506 017e 00       		.byte	0
 1507 017f 03       		.uleb128 0x3
 1508 0180 0E       		.uleb128 0xe
 1509 0181 3A       		.uleb128 0x3a
 1510 0182 0B       		.uleb128 0xb
 1511 0183 3B       		.uleb128 0x3b
 1512 0184 05       		.uleb128 0x5
 1513 0185 49       		.uleb128 0x49
 1514 0186 13       		.uleb128 0x13
 1515 0187 3F       		.uleb128 0x3f
 1516 0188 19       		.uleb128 0x19
 1517 0189 3C       		.uleb128 0x3c
 1518 018a 19       		.uleb128 0x19
 1519 018b 00       		.byte	0
 1520 018c 00       		.byte	0
 1521 018d 00       		.byte	0
 1522              		.section	.debug_aranges,"",%progbits
 1523 0000 14000000 		.4byte	0x14
 1524 0004 0200     		.2byte	0x2
 1525 0006 00000000 		.4byte	.Ldebug_info0
 1526 000a 04       		.byte	0x4
 1527 000b 00       		.byte	0
 1528 000c 0000     		.2byte	0
 1529 000e 0000     		.2byte	0
 1530 0010 00000000 		.4byte	0
 1531 0014 00000000 		.4byte	0
 1532              		.section	.debug_macro,"",%progbits
 1533              	.Ldebug_macro0:
 1534 0000 0400     		.2byte	0x4
 1535 0002 02       		.byte	0x2
 1536 0003 00000000 		.4byte	.Ldebug_line0
 1537 0007 07       		.byte	0x7
 1538 0008 00000000 		.4byte	.Ldebug_macro1
 1539              		.file 8 "C:/repos/rs2all/board/Drivers/STM32F0xx_HAL_Driver/Src/stm32f0xx_hal_iwdg.c"
ARM GAS  C:\Users\anashi\AppData\Local\Temp\ccVEwqOU.s 			page 28


 1540 000c 03       		.byte	0x3
 1541 000d 00       		.uleb128 0
 1542 000e 08       		.uleb128 0x8
 1543              		.file 9 "C:/repos/rs2all/board/Drivers/STM32F0xx_HAL_Driver/Inc/stm32f0xx_hal.h"
 1544 000f 03       		.byte	0x3
 1545 0010 6E       		.uleb128 0x6e
 1546 0011 09       		.uleb128 0x9
 1547 0012 05       		.byte	0x5
 1548 0013 27       		.uleb128 0x27
 1549 0014 FFE90000 		.4byte	.LASF442
 1550              		.file 10 "C:/repos/rs2all/board/Core/Inc/stm32f0xx_hal_conf.h"
 1551 0018 03       		.byte	0x3
 1552 0019 2E       		.uleb128 0x2e
 1553 001a 0A       		.uleb128 0xa
 1554 001b 07       		.byte	0x7
 1555 001c 00000000 		.4byte	.Ldebug_macro2
 1556              		.file 11 "C:/repos/rs2all/board/Drivers/STM32F0xx_HAL_Driver/Inc/stm32f0xx_hal_rcc.h"
 1557 0020 03       		.byte	0x3
 1558 0021 C101     		.uleb128 0xc1
 1559 0023 0B       		.uleb128 0xb
 1560 0024 05       		.byte	0x5
 1561 0025 26       		.uleb128 0x26
 1562 0026 BC2A0000 		.4byte	.LASF471
 1563              		.file 12 "C:/repos/rs2all/board/Drivers/STM32F0xx_HAL_Driver/Inc/stm32f0xx_hal_def.h"
 1564 002a 03       		.byte	0x3
 1565 002b 2D       		.uleb128 0x2d
 1566 002c 0C       		.uleb128 0xc
 1567 002d 05       		.byte	0x5
 1568 002e 27       		.uleb128 0x27
 1569 002f A0870000 		.4byte	.LASF472
 1570              		.file 13 "C:/repos/rs2all/board/Drivers/CMSIS/Device/ST/STM32F0xx/Include/stm32f0xx.h"
 1571 0033 03       		.byte	0x3
 1572 0034 2E       		.uleb128 0x2e
 1573 0035 0D       		.uleb128 0xd
 1574 0036 07       		.byte	0x7
 1575 0037 00000000 		.4byte	.Ldebug_macro3
 1576              		.file 14 "C:/repos/rs2all/board/Drivers/CMSIS/Device/ST/STM32F0xx/Include/stm32f030x6.h"
 1577 003b 03       		.byte	0x3
 1578 003c 8501     		.uleb128 0x85
 1579 003e 0E       		.uleb128 0xe
 1580 003f 07       		.byte	0x7
 1581 0040 00000000 		.4byte	.Ldebug_macro4
 1582              		.file 15 "C:/repos/rs2all/board/Drivers/CMSIS/Include/core_cm0.h"
 1583 0044 03       		.byte	0x3
 1584 0045 78       		.uleb128 0x78
 1585 0046 0F       		.uleb128 0xf
 1586 0047 05       		.byte	0x5
 1587 0048 2A       		.uleb128 0x2a
 1588 0049 85F40200 		.4byte	.LASF485
 1589              		.file 16 "c:\\st\\stm32cubeide_1.1.0\\stm32cubeide\\plugins\\com.st.stm32cube.ide.mcu.externaltool
 1590 004d 03       		.byte	0x3
 1591 004e 2C       		.uleb128 0x2c
 1592 004f 10       		.uleb128 0x10
 1593              		.file 17 "c:\\st\\stm32cubeide_1.1.0\\stm32cubeide\\plugins\\com.st.stm32cube.ide.mcu.externaltool
 1594 0050 03       		.byte	0x3
 1595 0051 09       		.uleb128 0x9
 1596 0052 11       		.uleb128 0x11
ARM GAS  C:\Users\anashi\AppData\Local\Temp\ccVEwqOU.s 			page 29


 1597 0053 05       		.byte	0x5
 1598 0054 0A       		.uleb128 0xa
 1599 0055 6D8A0100 		.4byte	.LASF486
 1600 0059 03       		.byte	0x3
 1601 005a 0C       		.uleb128 0xc
 1602 005b 01       		.uleb128 0x1
 1603 005c 05       		.byte	0x5
 1604 005d 06       		.uleb128 0x6
 1605 005e 0F9B0300 		.4byte	.LASF487
 1606              		.file 18 "c:\\st\\stm32cubeide_1.1.0\\stm32cubeide\\plugins\\com.st.stm32cube.ide.mcu.externaltool
 1607 0062 03       		.byte	0x3
 1608 0063 08       		.uleb128 0x8
 1609 0064 12       		.uleb128 0x12
 1610 0065 05       		.byte	0x5
 1611 0066 16       		.uleb128 0x16
 1612 0067 860C0300 		.4byte	.LASF488
 1613              		.file 19 "c:\\st\\stm32cubeide_1.1.0\\stm32cubeide\\plugins\\com.st.stm32cube.ide.mcu.externaltool
 1614 006b 03       		.byte	0x3
 1615 006c 1C       		.uleb128 0x1c
 1616 006d 13       		.uleb128 0x13
 1617 006e 07       		.byte	0x7
 1618 006f 00000000 		.4byte	.Ldebug_macro5
 1619 0073 04       		.byte	0x4
 1620 0074 07       		.byte	0x7
 1621 0075 00000000 		.4byte	.Ldebug_macro6
 1622 0079 04       		.byte	0x4
 1623 007a 07       		.byte	0x7
 1624 007b 00000000 		.4byte	.Ldebug_macro7
 1625 007f 04       		.byte	0x4
 1626              		.file 20 "c:\\st\\stm32cubeide_1.1.0\\stm32cubeide\\plugins\\com.st.stm32cube.ide.mcu.externaltool
 1627 0080 03       		.byte	0x3
 1628 0081 0D       		.uleb128 0xd
 1629 0082 14       		.uleb128 0x14
 1630 0083 07       		.byte	0x7
 1631 0084 00000000 		.4byte	.Ldebug_macro8
 1632 0088 04       		.byte	0x4
 1633 0089 03       		.byte	0x3
 1634 008a 0E       		.uleb128 0xe
 1635 008b 02       		.uleb128 0x2
 1636 008c 07       		.byte	0x7
 1637 008d 00000000 		.4byte	.Ldebug_macro9
 1638 0091 04       		.byte	0x4
 1639 0092 07       		.byte	0x7
 1640 0093 00000000 		.4byte	.Ldebug_macro10
 1641 0097 04       		.byte	0x4
 1642 0098 05       		.byte	0x5
 1643 0099 0D       		.uleb128 0xd
 1644 009a 6C6D0100 		.4byte	.LASF641
 1645 009e 04       		.byte	0x4
 1646 009f 07       		.byte	0x7
 1647 00a0 00000000 		.4byte	.Ldebug_macro11
 1648              		.file 21 "C:/repos/rs2all/board/Drivers/CMSIS/Include/core_cmInstr.h"
 1649 00a4 03       		.byte	0x3
 1650 00a5 A301     		.uleb128 0xa3
 1651 00a7 15       		.uleb128 0x15
 1652 00a8 05       		.byte	0x5
 1653 00a9 2A       		.uleb128 0x2a
ARM GAS  C:\Users\anashi\AppData\Local\Temp\ccVEwqOU.s 			page 30


 1654 00aa 9F770000 		.4byte	.LASF650
 1655              		.file 22 "C:/repos/rs2all/board/Drivers/CMSIS/Include/cmsis_gcc.h"
 1656 00ae 03       		.byte	0x3
 1657 00af 3D       		.uleb128 0x3d
 1658 00b0 16       		.uleb128 0x16
 1659 00b1 07       		.byte	0x7
 1660 00b2 00000000 		.4byte	.Ldebug_macro12
 1661 00b6 04       		.byte	0x4
 1662 00b7 04       		.byte	0x4
 1663              		.file 23 "C:/repos/rs2all/board/Drivers/CMSIS/Include/core_cmFunc.h"
 1664 00b8 03       		.byte	0x3
 1665 00b9 A401     		.uleb128 0xa4
 1666 00bb 17       		.uleb128 0x17
 1667 00bc 05       		.byte	0x5
 1668 00bd 2A       		.uleb128 0x2a
 1669 00be BD120100 		.4byte	.LASF656
 1670 00c2 04       		.byte	0x4
 1671 00c3 07       		.byte	0x7
 1672 00c4 00000000 		.4byte	.Ldebug_macro13
 1673 00c8 04       		.byte	0x4
 1674 00c9 03       		.byte	0x3
 1675 00ca 79       		.uleb128 0x79
 1676 00cb 03       		.uleb128 0x3
 1677 00cc 05       		.byte	0x5
 1678 00cd 30       		.uleb128 0x30
 1679 00ce 32EA0100 		.4byte	.LASF768
 1680 00d2 04       		.byte	0x4
 1681 00d3 07       		.byte	0x7
 1682 00d4 00000000 		.4byte	.Ldebug_macro14
 1683 00d8 04       		.byte	0x4
 1684 00d9 07       		.byte	0x7
 1685 00da 00000000 		.4byte	.Ldebug_macro15
 1686 00de 03       		.byte	0x3
 1687 00df DE01     		.uleb128 0xde
 1688 00e1 09       		.uleb128 0x9
 1689 00e2 04       		.byte	0x4
 1690 00e3 04       		.byte	0x4
 1691              		.file 24 "c:\\st\\stm32cubeide_1.1.0\\stm32cubeide\\plugins\\com.st.stm32cube.ide.mcu.externaltool
 1692 00e4 03       		.byte	0x3
 1693 00e5 32       		.uleb128 0x32
 1694 00e6 18       		.uleb128 0x18
 1695 00e7 05       		.byte	0x5
 1696 00e8 1B       		.uleb128 0x1b
 1697 00e9 171C0100 		.4byte	.LASF4829
 1698              		.file 25 "c:\\st\\stm32cubeide_1.1.0\\stm32cubeide\\plugins\\com.st.stm32cube.ide.mcu.externaltool
 1699 00ed 03       		.byte	0x3
 1700 00ee 1D       		.uleb128 0x1d
 1701 00ef 19       		.uleb128 0x19
 1702 00f0 05       		.byte	0x5
 1703 00f1 08       		.uleb128 0x8
 1704 00f2 0D7D0200 		.4byte	.LASF4830
 1705              		.file 26 "c:\\st\\stm32cubeide_1.1.0\\stm32cubeide\\plugins\\com.st.stm32cube.ide.mcu.externaltool
 1706 00f6 03       		.byte	0x3
 1707 00f7 0A       		.uleb128 0xa
 1708 00f8 1A       		.uleb128 0x1a
 1709 00f9 07       		.byte	0x7
 1710 00fa 00000000 		.4byte	.Ldebug_macro16
ARM GAS  C:\Users\anashi\AppData\Local\Temp\ccVEwqOU.s 			page 31


 1711 00fe 04       		.byte	0x4
 1712              		.file 27 "c:\\st\\stm32cubeide_1.1.0\\stm32cubeide\\plugins\\com.st.stm32cube.ide.mcu.externaltool
 1713 00ff 03       		.byte	0x3
 1714 0100 0B       		.uleb128 0xb
 1715 0101 1B       		.uleb128 0x1b
 1716 0102 05       		.byte	0x5
 1717 0103 02       		.uleb128 0x2
 1718 0104 98500100 		.4byte	.LASF4846
 1719              		.file 28 "c:\\st\\stm32cubeide_1.1.0\\stm32cubeide\\plugins\\com.st.stm32cube.ide.mcu.externaltool
 1720 0108 03       		.byte	0x3
 1721 0109 04       		.uleb128 0x4
 1722 010a 1C       		.uleb128 0x1c
 1723 010b 07       		.byte	0x7
 1724 010c 00000000 		.4byte	.Ldebug_macro17
 1725 0110 04       		.byte	0x4
 1726 0111 07       		.byte	0x7
 1727 0112 00000000 		.4byte	.Ldebug_macro18
 1728 0116 04       		.byte	0x4
 1729 0117 07       		.byte	0x7
 1730 0118 00000000 		.4byte	.Ldebug_macro19
 1731 011c 04       		.byte	0x4
 1732 011d 07       		.byte	0x7
 1733 011e 00000000 		.4byte	.Ldebug_macro20
 1734              		.file 29 "c:\\st\\stm32cubeide_1.1.0\\stm32cubeide\\plugins\\com.st.stm32cube.ide.mcu.externaltool
 1735 0122 03       		.byte	0x3
 1736 0123 23       		.uleb128 0x23
 1737 0124 1D       		.uleb128 0x1d
 1738 0125 05       		.byte	0x5
 1739 0126 29       		.uleb128 0x29
 1740 0127 B09A0000 		.4byte	.LASF4868
 1741 012b 03       		.byte	0x3
 1742 012c 2D       		.uleb128 0x2d
 1743 012d 06       		.uleb128 0x6
 1744 012e 07       		.byte	0x7
 1745 012f 00000000 		.4byte	.Ldebug_macro21
 1746 0133 04       		.byte	0x4
 1747 0134 07       		.byte	0x7
 1748 0135 00000000 		.4byte	.Ldebug_macro22
 1749 0139 04       		.byte	0x4
 1750 013a 03       		.byte	0x3
 1751 013b 24       		.uleb128 0x24
 1752 013c 06       		.uleb128 0x6
 1753 013d 07       		.byte	0x7
 1754 013e 00000000 		.4byte	.Ldebug_macro23
 1755 0142 04       		.byte	0x4
 1756 0143 05       		.byte	0x5
 1757 0144 27       		.uleb128 0x27
 1758 0145 E2AD0200 		.4byte	.LASF5042
 1759              		.file 30 "c:\\st\\stm32cubeide_1.1.0\\stm32cubeide\\plugins\\com.st.stm32cube.ide.mcu.externaltool
 1760 0149 03       		.byte	0x3
 1761 014a 28       		.uleb128 0x28
 1762 014b 1E       		.uleb128 0x1e
 1763 014c 07       		.byte	0x7
 1764 014d 00000000 		.4byte	.Ldebug_macro24
 1765 0151 04       		.byte	0x4
 1766 0152 05       		.byte	0x5
 1767 0153 2F       		.uleb128 0x2f
ARM GAS  C:\Users\anashi\AppData\Local\Temp\ccVEwqOU.s 			page 32


 1768 0154 6F620300 		.4byte	.LASF5045
 1769 0158 03       		.byte	0x3
 1770 0159 3C       		.uleb128 0x3c
 1771 015a 07       		.uleb128 0x7
 1772 015b 05       		.byte	0x5
 1773 015c 0B       		.uleb128 0xb
 1774 015d D0210200 		.4byte	.LASF5046
 1775 0161 03       		.byte	0x3
 1776 0162 0D       		.uleb128 0xd
 1777 0163 19       		.uleb128 0x19
 1778 0164 04       		.byte	0x4
 1779 0165 03       		.byte	0x3
 1780 0166 0E       		.uleb128 0xe
 1781 0167 06       		.uleb128 0x6
 1782 0168 04       		.byte	0x4
 1783 0169 03       		.byte	0x3
 1784 016a 0F       		.uleb128 0xf
 1785 016b 05       		.uleb128 0x5
 1786 016c 05       		.byte	0x5
 1787 016d 14       		.uleb128 0x14
 1788 016e CB1F0200 		.4byte	.LASF5047
 1789              		.file 31 "c:\\st\\stm32cubeide_1.1.0\\stm32cubeide\\plugins\\com.st.stm32cube.ide.mcu.externaltool
 1790 0172 03       		.byte	0x3
 1791 0173 18       		.uleb128 0x18
 1792 0174 1F       		.uleb128 0x1f
 1793 0175 05       		.byte	0x5
 1794 0176 06       		.uleb128 0x6
 1795 0177 03040300 		.4byte	.LASF5048
 1796 017b 04       		.byte	0x4
 1797 017c 03       		.byte	0x3
 1798 017d 19       		.uleb128 0x19
 1799 017e 04       		.uleb128 0x4
 1800 017f 07       		.byte	0x7
 1801 0180 00000000 		.4byte	.Ldebug_macro25
 1802 0184 04       		.byte	0x4
 1803 0185 07       		.byte	0x7
 1804 0186 00000000 		.4byte	.Ldebug_macro26
 1805 018a 03       		.byte	0x3
 1806 018b 9F01     		.uleb128 0x9f
 1807 018d 06       		.uleb128 0x6
 1808 018e 07       		.byte	0x7
 1809 018f 00000000 		.4byte	.Ldebug_macro27
 1810 0193 04       		.byte	0x4
 1811 0194 07       		.byte	0x7
 1812 0195 00000000 		.4byte	.Ldebug_macro28
 1813 0199 04       		.byte	0x4
 1814 019a 07       		.byte	0x7
 1815 019b 00000000 		.4byte	.Ldebug_macro29
 1816 019f 04       		.byte	0x4
 1817              		.file 32 "c:\\st\\stm32cubeide_1.1.0\\stm32cubeide\\plugins\\com.st.stm32cube.ide.mcu.externaltool
 1818 01a0 03       		.byte	0x3
 1819 01a1 3D       		.uleb128 0x3d
 1820 01a2 20       		.uleb128 0x20
 1821 01a3 07       		.byte	0x7
 1822 01a4 00000000 		.4byte	.Ldebug_macro30
 1823 01a8 03       		.byte	0x3
 1824 01a9 3E       		.uleb128 0x3e
ARM GAS  C:\Users\anashi\AppData\Local\Temp\ccVEwqOU.s 			page 33


 1825 01aa 06       		.uleb128 0x6
 1826 01ab 04       		.byte	0x4
 1827              		.file 33 "c:\\st\\stm32cubeide_1.1.0\\stm32cubeide\\plugins\\com.st.stm32cube.ide.mcu.externaltool
 1828 01ac 03       		.byte	0x3
 1829 01ad 43       		.uleb128 0x43
 1830 01ae 21       		.uleb128 0x21
 1831 01af 05       		.byte	0x5
 1832 01b0 02       		.uleb128 0x2
 1833 01b1 EE100400 		.4byte	.LASF5131
 1834              		.file 34 "c:\\st\\stm32cubeide_1.1.0\\stm32cubeide\\plugins\\com.st.stm32cube.ide.mcu.externaltool
 1835 01b5 03       		.byte	0x3
 1836 01b6 06       		.uleb128 0x6
 1837 01b7 22       		.uleb128 0x22
 1838 01b8 07       		.byte	0x7
 1839 01b9 00000000 		.4byte	.Ldebug_macro31
 1840 01bd 04       		.byte	0x4
 1841 01be 07       		.byte	0x7
 1842 01bf 00000000 		.4byte	.Ldebug_macro32
 1843 01c3 04       		.byte	0x4
 1844              		.file 35 "c:\\st\\stm32cubeide_1.1.0\\stm32cubeide\\plugins\\com.st.stm32cube.ide.mcu.externaltool
 1845 01c4 03       		.byte	0x3
 1846 01c5 44       		.uleb128 0x44
 1847 01c6 23       		.uleb128 0x23
 1848 01c7 05       		.byte	0x5
 1849 01c8 02       		.uleb128 0x2
 1850 01c9 B97F0100 		.4byte	.LASF5149
 1851              		.file 36 "c:\\st\\stm32cubeide_1.1.0\\stm32cubeide\\plugins\\com.st.stm32cube.ide.mcu.externaltool
 1852 01cd 03       		.byte	0x3
 1853 01ce 0E       		.uleb128 0xe
 1854 01cf 24       		.uleb128 0x24
 1855 01d0 05       		.byte	0x5
 1856 01d1 27       		.uleb128 0x27
 1857 01d2 7BD50200 		.4byte	.LASF5150
 1858 01d6 04       		.byte	0x4
 1859              		.file 37 "c:\\st\\stm32cubeide_1.1.0\\stm32cubeide\\plugins\\com.st.stm32cube.ide.mcu.externaltool
 1860 01d7 03       		.byte	0x3
 1861 01d8 0F       		.uleb128 0xf
 1862 01d9 25       		.uleb128 0x25
 1863 01da 07       		.byte	0x7
 1864 01db 00000000 		.4byte	.Ldebug_macro33
 1865 01df 04       		.byte	0x4
 1866              		.file 38 "c:\\st\\stm32cubeide_1.1.0\\stm32cubeide\\plugins\\com.st.stm32cube.ide.mcu.externaltool
 1867 01e0 03       		.byte	0x3
 1868 01e1 10       		.uleb128 0x10
 1869 01e2 26       		.uleb128 0x26
 1870 01e3 05       		.byte	0x5
 1871 01e4 23       		.uleb128 0x23
 1872 01e5 B0720400 		.4byte	.LASF5161
 1873              		.file 39 "c:\\st\\stm32cubeide_1.1.0\\stm32cubeide\\plugins\\com.st.stm32cube.ide.mcu.externaltool
 1874 01e9 03       		.byte	0x3
 1875 01ea 26       		.uleb128 0x26
 1876 01eb 27       		.uleb128 0x27
 1877 01ec 05       		.byte	0x5
 1878 01ed 23       		.uleb128 0x23
 1879 01ee 212F0000 		.4byte	.LASF5162
 1880 01f2 04       		.byte	0x4
 1881 01f3 07       		.byte	0x7
ARM GAS  C:\Users\anashi\AppData\Local\Temp\ccVEwqOU.s 			page 34


 1882 01f4 00000000 		.4byte	.Ldebug_macro34
 1883 01f8 04       		.byte	0x4
 1884 01f9 07       		.byte	0x7
 1885 01fa 00000000 		.4byte	.Ldebug_macro35
 1886 01fe 04       		.byte	0x4
 1887 01ff 07       		.byte	0x7
 1888 0200 00000000 		.4byte	.Ldebug_macro36
 1889              		.file 40 "c:\\st\\stm32cubeide_1.1.0\\stm32cubeide\\plugins\\com.st.stm32cube.ide.mcu.externaltool
 1890 0204 03       		.byte	0x3
 1891 0205 EF01     		.uleb128 0xef
 1892 0207 28       		.uleb128 0x28
 1893 0208 05       		.byte	0x5
 1894 0209 13       		.uleb128 0x13
 1895 020a F4500200 		.4byte	.LASF5207
 1896              		.file 41 "c:\\st\\stm32cubeide_1.1.0\\stm32cubeide\\plugins\\com.st.stm32cube.ide.mcu.externaltool
 1897 020e 03       		.byte	0x3
 1898 020f 17       		.uleb128 0x17
 1899 0210 29       		.uleb128 0x29
 1900 0211 07       		.byte	0x7
 1901 0212 00000000 		.4byte	.Ldebug_macro37
 1902 0216 04       		.byte	0x4
 1903 0217 07       		.byte	0x7
 1904 0218 00000000 		.4byte	.Ldebug_macro38
 1905 021c 04       		.byte	0x4
 1906              		.file 42 "c:\\st\\stm32cubeide_1.1.0\\stm32cubeide\\plugins\\com.st.stm32cube.ide.mcu.externaltool
 1907 021d 03       		.byte	0x3
 1908 021e F001     		.uleb128 0xf0
 1909 0220 2A       		.uleb128 0x2a
 1910 0221 04       		.byte	0x4
 1911 0222 06       		.byte	0x6
 1912 0223 F401     		.uleb128 0xf4
 1913 0225 06360200 		.4byte	.LASF5221
 1914 0229 04       		.byte	0x4
 1915 022a 05       		.byte	0x5
 1916 022b 43       		.uleb128 0x43
 1917 022c 91320100 		.4byte	.LASF5222
 1918              		.file 43 "c:\\st\\stm32cubeide_1.1.0\\stm32cubeide\\plugins\\com.st.stm32cube.ide.mcu.externaltool
 1919 0230 03       		.byte	0x3
 1920 0231 4F       		.uleb128 0x4f
 1921 0232 2B       		.uleb128 0x2b
 1922 0233 07       		.byte	0x7
 1923 0234 00000000 		.4byte	.Ldebug_macro39
 1924 0238 04       		.byte	0x4
 1925 0239 07       		.byte	0x7
 1926 023a 00000000 		.4byte	.Ldebug_macro40
 1927 023e 04       		.byte	0x4
 1928 023f 07       		.byte	0x7
 1929 0240 00000000 		.4byte	.Ldebug_macro41
 1930 0244 04       		.byte	0x4
 1931 0245 07       		.byte	0x7
 1932 0246 00000000 		.4byte	.Ldebug_macro42
 1933              		.file 44 "C:/repos/rs2all/board/Drivers/STM32F0xx_HAL_Driver/Inc/stm32f0xx_hal_rcc_ex.h"
 1934 024a 03       		.byte	0x3
 1935 024b E90C     		.uleb128 0x669
 1936 024d 2C       		.uleb128 0x2c
 1937 024e 07       		.byte	0x7
 1938 024f 00000000 		.4byte	.Ldebug_macro43
ARM GAS  C:\Users\anashi\AppData\Local\Temp\ccVEwqOU.s 			page 35


 1939 0253 04       		.byte	0x4
 1940 0254 04       		.byte	0x4
 1941              		.file 45 "C:/repos/rs2all/board/Drivers/STM32F0xx_HAL_Driver/Inc/stm32f0xx_hal_gpio.h"
 1942 0255 03       		.byte	0x3
 1943 0256 C901     		.uleb128 0xc9
 1944 0258 2D       		.uleb128 0x2d
 1945 0259 07       		.byte	0x7
 1946 025a 00000000 		.4byte	.Ldebug_macro44
 1947              		.file 46 "C:/repos/rs2all/board/Drivers/STM32F0xx_HAL_Driver/Inc/stm32f0xx_hal_gpio_ex.h"
 1948 025e 03       		.byte	0x3
 1949 025f 8202     		.uleb128 0x102
 1950 0261 2E       		.uleb128 0x2e
 1951 0262 07       		.byte	0x7
 1952 0263 00000000 		.4byte	.Ldebug_macro45
 1953 0267 04       		.byte	0x4
 1954 0268 04       		.byte	0x4
 1955              		.file 47 "C:/repos/rs2all/board/Drivers/STM32F0xx_HAL_Driver/Inc/stm32f0xx_hal_dma.h"
 1956 0269 03       		.byte	0x3
 1957 026a CD01     		.uleb128 0xcd
 1958 026c 2F       		.uleb128 0x2f
 1959 026d 07       		.byte	0x7
 1960 026e 00000000 		.4byte	.Ldebug_macro46
 1961              		.file 48 "C:/repos/rs2all/board/Drivers/STM32F0xx_HAL_Driver/Inc/stm32f0xx_hal_dma_ex.h"
 1962 0272 03       		.byte	0x3
 1963 0273 C103     		.uleb128 0x1c1
 1964 0275 30       		.uleb128 0x30
 1965 0276 07       		.byte	0x7
 1966 0277 00000000 		.4byte	.Ldebug_macro47
 1967 027b 04       		.byte	0x4
 1968 027c 07       		.byte	0x7
 1969 027d 00000000 		.4byte	.Ldebug_macro48
 1970 0281 04       		.byte	0x4
 1971              		.file 49 "C:/repos/rs2all/board/Drivers/STM32F0xx_HAL_Driver/Inc/stm32f0xx_hal_cortex.h"
 1972 0282 03       		.byte	0x3
 1973 0283 D101     		.uleb128 0xd1
 1974 0285 31       		.uleb128 0x31
 1975 0286 07       		.byte	0x7
 1976 0287 00000000 		.4byte	.Ldebug_macro49
 1977 028b 04       		.byte	0x4
 1978              		.file 50 "C:/repos/rs2all/board/Drivers/STM32F0xx_HAL_Driver/Inc/stm32f0xx_hal_adc.h"
 1979 028c 03       		.byte	0x3
 1980 028d D501     		.uleb128 0xd5
 1981 028f 32       		.uleb128 0x32
 1982 0290 07       		.byte	0x7
 1983 0291 00000000 		.4byte	.Ldebug_macro50
 1984              		.file 51 "C:/repos/rs2all/board/Drivers/STM32F0xx_HAL_Driver/Inc/stm32f0xx_hal_adc_ex.h"
 1985 0295 03       		.byte	0x3
 1986 0296 F306     		.uleb128 0x373
 1987 0298 33       		.uleb128 0x33
 1988 0299 07       		.byte	0x7
 1989 029a 00000000 		.4byte	.Ldebug_macro51
 1990 029e 04       		.byte	0x4
 1991 029f 04       		.byte	0x4
 1992              		.file 52 "C:/repos/rs2all/board/Drivers/STM32F0xx_HAL_Driver/Inc/stm32f0xx_hal_flash.h"
 1993 02a0 03       		.byte	0x3
 1994 02a1 ED01     		.uleb128 0xed
 1995 02a3 34       		.uleb128 0x34
ARM GAS  C:\Users\anashi\AppData\Local\Temp\ccVEwqOU.s 			page 36


 1996 02a4 07       		.byte	0x7
 1997 02a5 00000000 		.4byte	.Ldebug_macro52
 1998              		.file 53 "C:/repos/rs2all/board/Drivers/STM32F0xx_HAL_Driver/Inc/stm32f0xx_hal_flash_ex.h"
 1999 02a9 03       		.byte	0x3
 2000 02aa A402     		.uleb128 0x124
 2001 02ac 35       		.uleb128 0x35
 2002 02ad 07       		.byte	0x7
 2003 02ae 00000000 		.4byte	.Ldebug_macro53
 2004 02b2 04       		.byte	0x4
 2005 02b3 04       		.byte	0x4
 2006              		.file 54 "C:/repos/rs2all/board/Drivers/STM32F0xx_HAL_Driver/Inc/stm32f0xx_hal_i2c.h"
 2007 02b4 03       		.byte	0x3
 2008 02b5 F101     		.uleb128 0xf1
 2009 02b7 36       		.uleb128 0x36
 2010 02b8 07       		.byte	0x7
 2011 02b9 00000000 		.4byte	.Ldebug_macro54
 2012              		.file 55 "C:/repos/rs2all/board/Drivers/STM32F0xx_HAL_Driver/Inc/stm32f0xx_hal_i2c_ex.h"
 2013 02bd 03       		.byte	0x3
 2014 02be 8404     		.uleb128 0x204
 2015 02c0 37       		.uleb128 0x37
 2016 02c1 07       		.byte	0x7
 2017 02c2 00000000 		.4byte	.Ldebug_macro55
 2018 02c6 04       		.byte	0x4
 2019 02c7 07       		.byte	0x7
 2020 02c8 00000000 		.4byte	.Ldebug_macro56
 2021 02cc 04       		.byte	0x4
 2022              		.file 56 "C:/repos/rs2all/board/Drivers/STM32F0xx_HAL_Driver/Inc/stm32f0xx_hal_pwr.h"
 2023 02cd 03       		.byte	0x3
 2024 02ce 8502     		.uleb128 0x105
 2025 02d0 38       		.uleb128 0x38
 2026 02d1 07       		.byte	0x7
 2027 02d2 00000000 		.4byte	.Ldebug_macro57
 2028              		.file 57 "C:/repos/rs2all/board/Drivers/STM32F0xx_HAL_Driver/Inc/stm32f0xx_hal_pwr_ex.h"
 2029 02d6 03       		.byte	0x3
 2030 02d7 8C01     		.uleb128 0x8c
 2031 02d9 39       		.uleb128 0x39
 2032 02da 07       		.byte	0x7
 2033 02db 00000000 		.4byte	.Ldebug_macro58
 2034 02df 04       		.byte	0x4
 2035 02e0 04       		.byte	0x4
 2036              		.file 58 "C:/repos/rs2all/board/Drivers/STM32F0xx_HAL_Driver/Inc/stm32f0xx_hal_tim.h"
 2037 02e1 03       		.byte	0x3
 2038 02e2 9902     		.uleb128 0x119
 2039 02e4 3A       		.uleb128 0x3a
 2040 02e5 07       		.byte	0x7
 2041 02e6 00000000 		.4byte	.Ldebug_macro59
 2042              		.file 59 "C:/repos/rs2all/board/Drivers/STM32F0xx_HAL_Driver/Inc/stm32f0xx_hal_tim_ex.h"
 2043 02ea 03       		.byte	0x3
 2044 02eb C20C     		.uleb128 0x642
 2045 02ed 3B       		.uleb128 0x3b
 2046 02ee 07       		.byte	0x7
 2047 02ef 00000000 		.4byte	.Ldebug_macro60
 2048 02f3 04       		.byte	0x4
 2049 02f4 04       		.byte	0x4
 2050              		.file 60 "C:/repos/rs2all/board/Drivers/STM32F0xx_HAL_Driver/Inc/stm32f0xx_hal_uart.h"
 2051 02f5 03       		.byte	0x3
 2052 02f6 A102     		.uleb128 0x121
ARM GAS  C:\Users\anashi\AppData\Local\Temp\ccVEwqOU.s 			page 37


 2053 02f8 3C       		.uleb128 0x3c
 2054 02f9 07       		.byte	0x7
 2055 02fa 00000000 		.4byte	.Ldebug_macro61
 2056              		.file 61 "C:/repos/rs2all/board/Drivers/STM32F0xx_HAL_Driver/Inc/stm32f0xx_hal_uart_ex.h"
 2057 02fe 03       		.byte	0x3
 2058 02ff F609     		.uleb128 0x4f6
 2059 0301 3D       		.uleb128 0x3d
 2060 0302 07       		.byte	0x7
 2061 0303 00000000 		.4byte	.Ldebug_macro62
 2062 0307 04       		.byte	0x4
 2063 0308 04       		.byte	0x4
 2064 0309 05       		.byte	0x5
 2065 030a BA02     		.uleb128 0x13a
 2066 030c A3C80300 		.4byte	.LASF6673
 2067 0310 04       		.byte	0x4
 2068 0311 07       		.byte	0x7
 2069 0312 00000000 		.4byte	.Ldebug_macro63
 2070 0316 04       		.byte	0x4
 2071 0317 04       		.byte	0x4
 2072 0318 00       		.byte	0
 2073              		.section	.debug_macro,"G",%progbits,wm4.0.ae38051360458c331e24ed41262a0425,comdat
 2074              	.Ldebug_macro1:
 2075 0000 0400     		.2byte	0x4
 2076 0002 00       		.byte	0
 2077 0003 05       		.byte	0x5
 2078 0004 00       		.uleb128 0
 2079 0005 13210100 		.4byte	.LASF0
 2080 0009 05       		.byte	0x5
 2081 000a 00       		.uleb128 0
 2082 000b 28CD0200 		.4byte	.LASF1
 2083 000f 05       		.byte	0x5
 2084 0010 00       		.uleb128 0
 2085 0011 B51F0300 		.4byte	.LASF2
 2086 0015 05       		.byte	0x5
 2087 0016 00       		.uleb128 0
 2088 0017 B91F0200 		.4byte	.LASF3
 2089 001b 05       		.byte	0x5
 2090 001c 00       		.uleb128 0
 2091 001d 66C70000 		.4byte	.LASF4
 2092 0021 05       		.byte	0x5
 2093 0022 00       		.uleb128 0
 2094 0023 62D20000 		.4byte	.LASF5
 2095 0027 05       		.byte	0x5
 2096 0028 00       		.uleb128 0
 2097 0029 DD430300 		.4byte	.LASF6
 2098 002d 05       		.byte	0x5
 2099 002e 00       		.uleb128 0
 2100 002f D59D0000 		.4byte	.LASF7
 2101 0033 05       		.byte	0x5
 2102 0034 00       		.uleb128 0
 2103 0035 34F00000 		.4byte	.LASF8
 2104 0039 05       		.byte	0x5
 2105 003a 00       		.uleb128 0
 2106 003b 2C100000 		.4byte	.LASF9
 2107 003f 05       		.byte	0x5
 2108 0040 00       		.uleb128 0
 2109 0041 4C290300 		.4byte	.LASF10
ARM GAS  C:\Users\anashi\AppData\Local\Temp\ccVEwqOU.s 			page 38


 2110 0045 05       		.byte	0x5
 2111 0046 00       		.uleb128 0
 2112 0047 310A0400 		.4byte	.LASF11
 2113 004b 05       		.byte	0x5
 2114 004c 00       		.uleb128 0
 2115 004d 2CC50100 		.4byte	.LASF12
 2116 0051 05       		.byte	0x5
 2117 0052 00       		.uleb128 0
 2118 0053 C4A80100 		.4byte	.LASF13
 2119 0057 05       		.byte	0x5
 2120 0058 00       		.uleb128 0
 2121 0059 1BBB0000 		.4byte	.LASF14
 2122 005d 05       		.byte	0x5
 2123 005e 00       		.uleb128 0
 2124 005f 358F0000 		.4byte	.LASF15
 2125 0063 05       		.byte	0x5
 2126 0064 00       		.uleb128 0
 2127 0065 BB480200 		.4byte	.LASF16
 2128 0069 05       		.byte	0x5
 2129 006a 00       		.uleb128 0
 2130 006b E4070400 		.4byte	.LASF17
 2131 006f 05       		.byte	0x5
 2132 0070 00       		.uleb128 0
 2133 0071 CFF70300 		.4byte	.LASF18
 2134 0075 05       		.byte	0x5
 2135 0076 00       		.uleb128 0
 2136 0077 60300400 		.4byte	.LASF19
 2137 007b 05       		.byte	0x5
 2138 007c 00       		.uleb128 0
 2139 007d BC660000 		.4byte	.LASF20
 2140 0081 05       		.byte	0x5
 2141 0082 00       		.uleb128 0
 2142 0083 B1CE0000 		.4byte	.LASF21
 2143 0087 05       		.byte	0x5
 2144 0088 00       		.uleb128 0
 2145 0089 915E0400 		.4byte	.LASF22
 2146 008d 05       		.byte	0x5
 2147 008e 00       		.uleb128 0
 2148 008f 9E880200 		.4byte	.LASF23
 2149 0093 05       		.byte	0x5
 2150 0094 00       		.uleb128 0
 2151 0095 419D0300 		.4byte	.LASF24
 2152 0099 05       		.byte	0x5
 2153 009a 00       		.uleb128 0
 2154 009b 615D0400 		.4byte	.LASF25
 2155 009f 05       		.byte	0x5
 2156 00a0 00       		.uleb128 0
 2157 00a1 1CA40300 		.4byte	.LASF26
 2158 00a5 05       		.byte	0x5
 2159 00a6 00       		.uleb128 0
 2160 00a7 EFBD0100 		.4byte	.LASF27
 2161 00ab 05       		.byte	0x5
 2162 00ac 00       		.uleb128 0
 2163 00ad 47520100 		.4byte	.LASF28
 2164 00b1 05       		.byte	0x5
 2165 00b2 00       		.uleb128 0
 2166 00b3 B9070300 		.4byte	.LASF29
ARM GAS  C:\Users\anashi\AppData\Local\Temp\ccVEwqOU.s 			page 39


 2167 00b7 05       		.byte	0x5
 2168 00b8 00       		.uleb128 0
 2169 00b9 7B930100 		.4byte	.LASF30
 2170 00bd 05       		.byte	0x5
 2171 00be 00       		.uleb128 0
 2172 00bf 865B0200 		.4byte	.LASF31
 2173 00c3 05       		.byte	0x5
 2174 00c4 00       		.uleb128 0
 2175 00c5 E84C0400 		.4byte	.LASF32
 2176 00c9 05       		.byte	0x5
 2177 00ca 00       		.uleb128 0
 2178 00cb 8AF20000 		.4byte	.LASF33
 2179 00cf 05       		.byte	0x5
 2180 00d0 00       		.uleb128 0
 2181 00d1 7CFD0200 		.4byte	.LASF34
 2182 00d5 05       		.byte	0x5
 2183 00d6 00       		.uleb128 0
 2184 00d7 C84C0200 		.4byte	.LASF35
 2185 00db 05       		.byte	0x5
 2186 00dc 00       		.uleb128 0
 2187 00dd 70CB0200 		.4byte	.LASF36
 2188 00e1 05       		.byte	0x5
 2189 00e2 00       		.uleb128 0
 2190 00e3 1E0A0200 		.4byte	.LASF37
 2191 00e7 05       		.byte	0x5
 2192 00e8 00       		.uleb128 0
 2193 00e9 BA570200 		.4byte	.LASF38
 2194 00ed 05       		.byte	0x5
 2195 00ee 00       		.uleb128 0
 2196 00ef 7BB30200 		.4byte	.LASF39
 2197 00f3 05       		.byte	0x5
 2198 00f4 00       		.uleb128 0
 2199 00f5 215A0000 		.4byte	.LASF40
 2200 00f9 05       		.byte	0x5
 2201 00fa 00       		.uleb128 0
 2202 00fb 3E5E0300 		.4byte	.LASF41
 2203 00ff 05       		.byte	0x5
 2204 0100 00       		.uleb128 0
 2205 0101 322A0000 		.4byte	.LASF42
 2206 0105 05       		.byte	0x5
 2207 0106 00       		.uleb128 0
 2208 0107 87020000 		.4byte	.LASF43
 2209 010b 05       		.byte	0x5
 2210 010c 00       		.uleb128 0
 2211 010d 0CD20100 		.4byte	.LASF44
 2212 0111 05       		.byte	0x5
 2213 0112 00       		.uleb128 0
 2214 0113 A43F0300 		.4byte	.LASF45
 2215 0117 05       		.byte	0x5
 2216 0118 00       		.uleb128 0
 2217 0119 4F920200 		.4byte	.LASF46
 2218 011d 05       		.byte	0x5
 2219 011e 00       		.uleb128 0
 2220 011f 2A880200 		.4byte	.LASF47
 2221 0123 05       		.byte	0x5
 2222 0124 00       		.uleb128 0
 2223 0125 928D0100 		.4byte	.LASF48
ARM GAS  C:\Users\anashi\AppData\Local\Temp\ccVEwqOU.s 			page 40


 2224 0129 05       		.byte	0x5
 2225 012a 00       		.uleb128 0
 2226 012b 886A0000 		.4byte	.LASF49
 2227 012f 05       		.byte	0x5
 2228 0130 00       		.uleb128 0
 2229 0131 FB6A0100 		.4byte	.LASF50
 2230 0135 05       		.byte	0x5
 2231 0136 00       		.uleb128 0
 2232 0137 2FA60000 		.4byte	.LASF51
 2233 013b 05       		.byte	0x5
 2234 013c 00       		.uleb128 0
 2235 013d A4A50300 		.4byte	.LASF52
 2236 0141 05       		.byte	0x5
 2237 0142 00       		.uleb128 0
 2238 0143 A9B70100 		.4byte	.LASF53
 2239 0147 05       		.byte	0x5
 2240 0148 00       		.uleb128 0
 2241 0149 A6F70300 		.4byte	.LASF54
 2242 014d 05       		.byte	0x5
 2243 014e 00       		.uleb128 0
 2244 014f 653B0300 		.4byte	.LASF55
 2245 0153 05       		.byte	0x5
 2246 0154 00       		.uleb128 0
 2247 0155 2E180400 		.4byte	.LASF56
 2248 0159 05       		.byte	0x5
 2249 015a 00       		.uleb128 0
 2250 015b A1DE0300 		.4byte	.LASF57
 2251 015f 05       		.byte	0x5
 2252 0160 00       		.uleb128 0
 2253 0161 37900200 		.4byte	.LASF58
 2254 0165 05       		.byte	0x5
 2255 0166 00       		.uleb128 0
 2256 0167 44E20200 		.4byte	.LASF59
 2257 016b 05       		.byte	0x5
 2258 016c 00       		.uleb128 0
 2259 016d 30FF0200 		.4byte	.LASF60
 2260 0171 05       		.byte	0x5
 2261 0172 00       		.uleb128 0
 2262 0173 C0780000 		.4byte	.LASF61
 2263 0177 05       		.byte	0x5
 2264 0178 00       		.uleb128 0
 2265 0179 2A3A0200 		.4byte	.LASF62
 2266 017d 05       		.byte	0x5
 2267 017e 00       		.uleb128 0
 2268 017f 5A7F0200 		.4byte	.LASF63
 2269 0183 05       		.byte	0x5
 2270 0184 00       		.uleb128 0
 2271 0185 7BD90200 		.4byte	.LASF64
 2272 0189 05       		.byte	0x5
 2273 018a 00       		.uleb128 0
 2274 018b E8460100 		.4byte	.LASF65
 2275 018f 05       		.byte	0x5
 2276 0190 00       		.uleb128 0
 2277 0191 59D50300 		.4byte	.LASF66
 2278 0195 05       		.byte	0x5
 2279 0196 00       		.uleb128 0
 2280 0197 39D20300 		.4byte	.LASF67
ARM GAS  C:\Users\anashi\AppData\Local\Temp\ccVEwqOU.s 			page 41


 2281 019b 05       		.byte	0x5
 2282 019c 00       		.uleb128 0
 2283 019d F46E0400 		.4byte	.LASF68
 2284 01a1 05       		.byte	0x5
 2285 01a2 00       		.uleb128 0
 2286 01a3 264F0100 		.4byte	.LASF69
 2287 01a7 05       		.byte	0x5
 2288 01a8 00       		.uleb128 0
 2289 01a9 631D0000 		.4byte	.LASF70
 2290 01ad 05       		.byte	0x5
 2291 01ae 00       		.uleb128 0
 2292 01af 66060400 		.4byte	.LASF71
 2293 01b3 05       		.byte	0x5
 2294 01b4 00       		.uleb128 0
 2295 01b5 BC330200 		.4byte	.LASF72
 2296 01b9 05       		.byte	0x5
 2297 01ba 00       		.uleb128 0
 2298 01bb 65480400 		.4byte	.LASF73
 2299 01bf 05       		.byte	0x5
 2300 01c0 00       		.uleb128 0
 2301 01c1 BE050200 		.4byte	.LASF74
 2302 01c5 05       		.byte	0x5
 2303 01c6 00       		.uleb128 0
 2304 01c7 F47F0100 		.4byte	.LASF75
 2305 01cb 05       		.byte	0x5
 2306 01cc 00       		.uleb128 0
 2307 01cd 04600300 		.4byte	.LASF76
 2308 01d1 05       		.byte	0x5
 2309 01d2 00       		.uleb128 0
 2310 01d3 DE6E0200 		.4byte	.LASF77
 2311 01d7 05       		.byte	0x5
 2312 01d8 00       		.uleb128 0
 2313 01d9 E5220000 		.4byte	.LASF78
 2314 01dd 05       		.byte	0x5
 2315 01de 00       		.uleb128 0
 2316 01df 3DD30200 		.4byte	.LASF79
 2317 01e3 05       		.byte	0x5
 2318 01e4 00       		.uleb128 0
 2319 01e5 7E0D0300 		.4byte	.LASF80
 2320 01e9 05       		.byte	0x5
 2321 01ea 00       		.uleb128 0
 2322 01eb 95C10300 		.4byte	.LASF81
 2323 01ef 05       		.byte	0x5
 2324 01f0 00       		.uleb128 0
 2325 01f1 97EE0000 		.4byte	.LASF82
 2326 01f5 05       		.byte	0x5
 2327 01f6 00       		.uleb128 0
 2328 01f7 23820200 		.4byte	.LASF83
 2329 01fb 05       		.byte	0x5
 2330 01fc 00       		.uleb128 0
 2331 01fd 1CC80200 		.4byte	.LASF84
 2332 0201 05       		.byte	0x5
 2333 0202 00       		.uleb128 0
 2334 0203 6B1E0200 		.4byte	.LASF85
 2335 0207 05       		.byte	0x5
 2336 0208 00       		.uleb128 0
 2337 0209 CD1B0400 		.4byte	.LASF86
ARM GAS  C:\Users\anashi\AppData\Local\Temp\ccVEwqOU.s 			page 42


 2338 020d 05       		.byte	0x5
 2339 020e 00       		.uleb128 0
 2340 020f D8600000 		.4byte	.LASF87
 2341 0213 05       		.byte	0x5
 2342 0214 00       		.uleb128 0
 2343 0215 91270200 		.4byte	.LASF88
 2344 0219 05       		.byte	0x5
 2345 021a 00       		.uleb128 0
 2346 021b 7C6B0100 		.4byte	.LASF89
 2347 021f 05       		.byte	0x5
 2348 0220 00       		.uleb128 0
 2349 0221 B4600000 		.4byte	.LASF90
 2350 0225 05       		.byte	0x5
 2351 0226 00       		.uleb128 0
 2352 0227 891D0300 		.4byte	.LASF91
 2353 022b 05       		.byte	0x5
 2354 022c 00       		.uleb128 0
 2355 022d 7B210200 		.4byte	.LASF92
 2356 0231 05       		.byte	0x5
 2357 0232 00       		.uleb128 0
 2358 0233 9CF90300 		.4byte	.LASF93
 2359 0237 05       		.byte	0x5
 2360 0238 00       		.uleb128 0
 2361 0239 8EEA0100 		.4byte	.LASF94
 2362 023d 05       		.byte	0x5
 2363 023e 00       		.uleb128 0
 2364 023f ECC70000 		.4byte	.LASF95
 2365 0243 05       		.byte	0x5
 2366 0244 00       		.uleb128 0
 2367 0245 16D70200 		.4byte	.LASF96
 2368 0249 05       		.byte	0x5
 2369 024a 00       		.uleb128 0
 2370 024b 49460300 		.4byte	.LASF97
 2371 024f 05       		.byte	0x5
 2372 0250 00       		.uleb128 0
 2373 0251 A7240300 		.4byte	.LASF98
 2374 0255 05       		.byte	0x5
 2375 0256 00       		.uleb128 0
 2376 0257 2C890100 		.4byte	.LASF99
 2377 025b 05       		.byte	0x5
 2378 025c 00       		.uleb128 0
 2379 025d 270F0100 		.4byte	.LASF100
 2380 0261 05       		.byte	0x5
 2381 0262 00       		.uleb128 0
 2382 0263 68690100 		.4byte	.LASF101
 2383 0267 05       		.byte	0x5
 2384 0268 00       		.uleb128 0
 2385 0269 DD830200 		.4byte	.LASF102
 2386 026d 05       		.byte	0x5
 2387 026e 00       		.uleb128 0
 2388 026f F5150200 		.4byte	.LASF103
 2389 0273 05       		.byte	0x5
 2390 0274 00       		.uleb128 0
 2391 0275 535A0000 		.4byte	.LASF104
 2392 0279 05       		.byte	0x5
 2393 027a 00       		.uleb128 0
 2394 027b 881A0400 		.4byte	.LASF105
ARM GAS  C:\Users\anashi\AppData\Local\Temp\ccVEwqOU.s 			page 43


 2395 027f 05       		.byte	0x5
 2396 0280 00       		.uleb128 0
 2397 0281 78120300 		.4byte	.LASF106
 2398 0285 05       		.byte	0x5
 2399 0286 00       		.uleb128 0
 2400 0287 D2BC0200 		.4byte	.LASF107
 2401 028b 05       		.byte	0x5
 2402 028c 00       		.uleb128 0
 2403 028d 8D3F0300 		.4byte	.LASF108
 2404 0291 05       		.byte	0x5
 2405 0292 00       		.uleb128 0
 2406 0293 03C00000 		.4byte	.LASF109
 2407 0297 05       		.byte	0x5
 2408 0298 00       		.uleb128 0
 2409 0299 FA3C0300 		.4byte	.LASF110
 2410 029d 05       		.byte	0x5
 2411 029e 00       		.uleb128 0
 2412 029f 90090000 		.4byte	.LASF111
 2413 02a3 05       		.byte	0x5
 2414 02a4 00       		.uleb128 0
 2415 02a5 893A0200 		.4byte	.LASF112
 2416 02a9 05       		.byte	0x5
 2417 02aa 00       		.uleb128 0
 2418 02ab 2DAF0300 		.4byte	.LASF113
 2419 02af 05       		.byte	0x5
 2420 02b0 00       		.uleb128 0
 2421 02b1 13710100 		.4byte	.LASF114
 2422 02b5 05       		.byte	0x5
 2423 02b6 00       		.uleb128 0
 2424 02b7 3D7D0000 		.4byte	.LASF115
 2425 02bb 05       		.byte	0x5
 2426 02bc 00       		.uleb128 0
 2427 02bd C73A0100 		.4byte	.LASF116
 2428 02c1 05       		.byte	0x5
 2429 02c2 00       		.uleb128 0
 2430 02c3 00120300 		.4byte	.LASF117
 2431 02c7 05       		.byte	0x5
 2432 02c8 00       		.uleb128 0
 2433 02c9 9A920200 		.4byte	.LASF118
 2434 02cd 05       		.byte	0x5
 2435 02ce 00       		.uleb128 0
 2436 02cf B5600200 		.4byte	.LASF119
 2437 02d3 05       		.byte	0x5
 2438 02d4 00       		.uleb128 0
 2439 02d5 1F430100 		.4byte	.LASF120
 2440 02d9 05       		.byte	0x5
 2441 02da 00       		.uleb128 0
 2442 02db 9BF50000 		.4byte	.LASF121
 2443 02df 05       		.byte	0x5
 2444 02e0 00       		.uleb128 0
 2445 02e1 0E800100 		.4byte	.LASF122
 2446 02e5 05       		.byte	0x5
 2447 02e6 00       		.uleb128 0
 2448 02e7 2D480200 		.4byte	.LASF123
 2449 02eb 05       		.byte	0x5
 2450 02ec 00       		.uleb128 0
 2451 02ed 4CC50000 		.4byte	.LASF124
ARM GAS  C:\Users\anashi\AppData\Local\Temp\ccVEwqOU.s 			page 44


 2452 02f1 05       		.byte	0x5
 2453 02f2 00       		.uleb128 0
 2454 02f3 14420000 		.4byte	.LASF125
 2455 02f7 05       		.byte	0x5
 2456 02f8 00       		.uleb128 0
 2457 02f9 EF450300 		.4byte	.LASF126
 2458 02fd 05       		.byte	0x5
 2459 02fe 00       		.uleb128 0
 2460 02ff BD680200 		.4byte	.LASF127
 2461 0303 05       		.byte	0x5
 2462 0304 00       		.uleb128 0
 2463 0305 80710300 		.4byte	.LASF128
 2464 0309 05       		.byte	0x5
 2465 030a 00       		.uleb128 0
 2466 030b D2FE0000 		.4byte	.LASF129
 2467 030f 05       		.byte	0x5
 2468 0310 00       		.uleb128 0
 2469 0311 F54A0000 		.4byte	.LASF130
 2470 0315 05       		.byte	0x5
 2471 0316 00       		.uleb128 0
 2472 0317 DA6B0200 		.4byte	.LASF131
 2473 031b 05       		.byte	0x5
 2474 031c 00       		.uleb128 0
 2475 031d CBEA0200 		.4byte	.LASF132
 2476 0321 05       		.byte	0x5
 2477 0322 00       		.uleb128 0
 2478 0323 69290300 		.4byte	.LASF133
 2479 0327 05       		.byte	0x5
 2480 0328 00       		.uleb128 0
 2481 0329 CA650100 		.4byte	.LASF134
 2482 032d 05       		.byte	0x5
 2483 032e 00       		.uleb128 0
 2484 032f 36950200 		.4byte	.LASF135
 2485 0333 05       		.byte	0x5
 2486 0334 00       		.uleb128 0
 2487 0335 D3B40100 		.4byte	.LASF136
 2488 0339 05       		.byte	0x5
 2489 033a 00       		.uleb128 0
 2490 033b 02500400 		.4byte	.LASF137
 2491 033f 05       		.byte	0x5
 2492 0340 00       		.uleb128 0
 2493 0341 FE6D0100 		.4byte	.LASF138
 2494 0345 05       		.byte	0x5
 2495 0346 00       		.uleb128 0
 2496 0347 589B0300 		.4byte	.LASF139
 2497 034b 05       		.byte	0x5
 2498 034c 00       		.uleb128 0
 2499 034d C1820200 		.4byte	.LASF140
 2500 0351 05       		.byte	0x5
 2501 0352 00       		.uleb128 0
 2502 0353 75260200 		.4byte	.LASF141
 2503 0357 05       		.byte	0x5
 2504 0358 00       		.uleb128 0
 2505 0359 91010100 		.4byte	.LASF142
 2506 035d 05       		.byte	0x5
 2507 035e 00       		.uleb128 0
 2508 035f 96B20000 		.4byte	.LASF143
ARM GAS  C:\Users\anashi\AppData\Local\Temp\ccVEwqOU.s 			page 45


 2509 0363 05       		.byte	0x5
 2510 0364 00       		.uleb128 0
 2511 0365 22EC0000 		.4byte	.LASF144
 2512 0369 05       		.byte	0x5
 2513 036a 00       		.uleb128 0
 2514 036b C71A0100 		.4byte	.LASF145
 2515 036f 05       		.byte	0x5
 2516 0370 00       		.uleb128 0
 2517 0371 CFCC0100 		.4byte	.LASF146
 2518 0375 05       		.byte	0x5
 2519 0376 00       		.uleb128 0
 2520 0377 25C10200 		.4byte	.LASF147
 2521 037b 05       		.byte	0x5
 2522 037c 00       		.uleb128 0
 2523 037d 43940300 		.4byte	.LASF148
 2524 0381 05       		.byte	0x5
 2525 0382 00       		.uleb128 0
 2526 0383 D57C0100 		.4byte	.LASF149
 2527 0387 05       		.byte	0x5
 2528 0388 00       		.uleb128 0
 2529 0389 E2300200 		.4byte	.LASF150
 2530 038d 05       		.byte	0x5
 2531 038e 00       		.uleb128 0
 2532 038f BC8B0000 		.4byte	.LASF151
 2533 0393 05       		.byte	0x5
 2534 0394 00       		.uleb128 0
 2535 0395 7CAC0300 		.4byte	.LASF152
 2536 0399 05       		.byte	0x5
 2537 039a 00       		.uleb128 0
 2538 039b F4DC0300 		.4byte	.LASF153
 2539 039f 05       		.byte	0x5
 2540 03a0 00       		.uleb128 0
 2541 03a1 2B590400 		.4byte	.LASF154
 2542 03a5 05       		.byte	0x5
 2543 03a6 00       		.uleb128 0
 2544 03a7 76A70100 		.4byte	.LASF155
 2545 03ab 05       		.byte	0x5
 2546 03ac 00       		.uleb128 0
 2547 03ad 47B20000 		.4byte	.LASF156
 2548 03b1 05       		.byte	0x5
 2549 03b2 00       		.uleb128 0
 2550 03b3 342F0000 		.4byte	.LASF157
 2551 03b7 05       		.byte	0x5
 2552 03b8 00       		.uleb128 0
 2553 03b9 184F0400 		.4byte	.LASF158
 2554 03bd 05       		.byte	0x5
 2555 03be 00       		.uleb128 0
 2556 03bf 25660200 		.4byte	.LASF159
 2557 03c3 05       		.byte	0x5
 2558 03c4 00       		.uleb128 0
 2559 03c5 87350400 		.4byte	.LASF160
 2560 03c9 05       		.byte	0x5
 2561 03ca 00       		.uleb128 0
 2562 03cb 2A3D0100 		.4byte	.LASF161
 2563 03cf 05       		.byte	0x5
 2564 03d0 00       		.uleb128 0
 2565 03d1 D6250400 		.4byte	.LASF162
ARM GAS  C:\Users\anashi\AppData\Local\Temp\ccVEwqOU.s 			page 46


 2566 03d5 05       		.byte	0x5
 2567 03d6 00       		.uleb128 0
 2568 03d7 F6CF0200 		.4byte	.LASF163
 2569 03db 05       		.byte	0x5
 2570 03dc 00       		.uleb128 0
 2571 03dd 0D0F0100 		.4byte	.LASF164
 2572 03e1 05       		.byte	0x5
 2573 03e2 00       		.uleb128 0
 2574 03e3 89C30000 		.4byte	.LASF165
 2575 03e7 05       		.byte	0x5
 2576 03e8 00       		.uleb128 0
 2577 03e9 8E940200 		.4byte	.LASF166
 2578 03ed 05       		.byte	0x5
 2579 03ee 00       		.uleb128 0
 2580 03ef 7D360000 		.4byte	.LASF167
 2581 03f3 05       		.byte	0x5
 2582 03f4 00       		.uleb128 0
 2583 03f5 8B620100 		.4byte	.LASF168
 2584 03f9 05       		.byte	0x5
 2585 03fa 00       		.uleb128 0
 2586 03fb FED40200 		.4byte	.LASF169
 2587 03ff 05       		.byte	0x5
 2588 0400 00       		.uleb128 0
 2589 0401 E5500400 		.4byte	.LASF170
 2590 0405 05       		.byte	0x5
 2591 0406 00       		.uleb128 0
 2592 0407 58940200 		.4byte	.LASF171
 2593 040b 05       		.byte	0x5
 2594 040c 00       		.uleb128 0
 2595 040d 31D60300 		.4byte	.LASF172
 2596 0411 05       		.byte	0x5
 2597 0412 00       		.uleb128 0
 2598 0413 991B0100 		.4byte	.LASF173
 2599 0417 05       		.byte	0x5
 2600 0418 00       		.uleb128 0
 2601 0419 7C160100 		.4byte	.LASF174
 2602 041d 05       		.byte	0x5
 2603 041e 00       		.uleb128 0
 2604 041f 38BF0200 		.4byte	.LASF175
 2605 0423 05       		.byte	0x5
 2606 0424 00       		.uleb128 0
 2607 0425 77EC0200 		.4byte	.LASF176
 2608 0429 05       		.byte	0x5
 2609 042a 00       		.uleb128 0
 2610 042b 3B7C0300 		.4byte	.LASF177
 2611 042f 05       		.byte	0x5
 2612 0430 00       		.uleb128 0
 2613 0431 E8A30100 		.4byte	.LASF178
 2614 0435 05       		.byte	0x5
 2615 0436 00       		.uleb128 0
 2616 0437 68CB0100 		.4byte	.LASF179
 2617 043b 05       		.byte	0x5
 2618 043c 00       		.uleb128 0
 2619 043d BC810000 		.4byte	.LASF180
 2620 0441 05       		.byte	0x5
 2621 0442 00       		.uleb128 0
 2622 0443 7E650300 		.4byte	.LASF181
ARM GAS  C:\Users\anashi\AppData\Local\Temp\ccVEwqOU.s 			page 47


 2623 0447 05       		.byte	0x5
 2624 0448 00       		.uleb128 0
 2625 0449 98450100 		.4byte	.LASF182
 2626 044d 05       		.byte	0x5
 2627 044e 00       		.uleb128 0
 2628 044f 77110300 		.4byte	.LASF183
 2629 0453 05       		.byte	0x5
 2630 0454 00       		.uleb128 0
 2631 0455 322B0200 		.4byte	.LASF184
 2632 0459 05       		.byte	0x5
 2633 045a 00       		.uleb128 0
 2634 045b 14280300 		.4byte	.LASF185
 2635 045f 05       		.byte	0x5
 2636 0460 00       		.uleb128 0
 2637 0461 68430300 		.4byte	.LASF186
 2638 0465 05       		.byte	0x5
 2639 0466 00       		.uleb128 0
 2640 0467 1A5E0400 		.4byte	.LASF187
 2641 046b 05       		.byte	0x5
 2642 046c 00       		.uleb128 0
 2643 046d 857F0300 		.4byte	.LASF188
 2644 0471 05       		.byte	0x5
 2645 0472 00       		.uleb128 0
 2646 0473 18C90300 		.4byte	.LASF189
 2647 0477 05       		.byte	0x5
 2648 0478 00       		.uleb128 0
 2649 0479 123F0000 		.4byte	.LASF190
 2650 047d 05       		.byte	0x5
 2651 047e 00       		.uleb128 0
 2652 047f 726C0300 		.4byte	.LASF191
 2653 0483 05       		.byte	0x5
 2654 0484 00       		.uleb128 0
 2655 0485 CCEC0300 		.4byte	.LASF192
 2656 0489 05       		.byte	0x5
 2657 048a 00       		.uleb128 0
 2658 048b 460A0200 		.4byte	.LASF193
 2659 048f 05       		.byte	0x5
 2660 0490 00       		.uleb128 0
 2661 0491 47910200 		.4byte	.LASF194
 2662 0495 05       		.byte	0x5
 2663 0496 00       		.uleb128 0
 2664 0497 93290000 		.4byte	.LASF195
 2665 049b 05       		.byte	0x5
 2666 049c 00       		.uleb128 0
 2667 049d 1EBA0300 		.4byte	.LASF196
 2668 04a1 05       		.byte	0x5
 2669 04a2 00       		.uleb128 0
 2670 04a3 FA960000 		.4byte	.LASF197
 2671 04a7 05       		.byte	0x5
 2672 04a8 00       		.uleb128 0
 2673 04a9 9E4A0000 		.4byte	.LASF198
 2674 04ad 05       		.byte	0x5
 2675 04ae 00       		.uleb128 0
 2676 04af 3A580000 		.4byte	.LASF199
 2677 04b3 05       		.byte	0x5
 2678 04b4 00       		.uleb128 0
 2679 04b5 64100400 		.4byte	.LASF200
ARM GAS  C:\Users\anashi\AppData\Local\Temp\ccVEwqOU.s 			page 48


 2680 04b9 05       		.byte	0x5
 2681 04ba 00       		.uleb128 0
 2682 04bb BB160400 		.4byte	.LASF201
 2683 04bf 05       		.byte	0x5
 2684 04c0 00       		.uleb128 0
 2685 04c1 FF140200 		.4byte	.LASF202
 2686 04c5 05       		.byte	0x5
 2687 04c6 00       		.uleb128 0
 2688 04c7 D56D0200 		.4byte	.LASF203
 2689 04cb 05       		.byte	0x5
 2690 04cc 00       		.uleb128 0
 2691 04cd 0A770200 		.4byte	.LASF204
 2692 04d1 05       		.byte	0x5
 2693 04d2 00       		.uleb128 0
 2694 04d3 EED60000 		.4byte	.LASF205
 2695 04d7 05       		.byte	0x5
 2696 04d8 00       		.uleb128 0
 2697 04d9 B0C40000 		.4byte	.LASF206
 2698 04dd 05       		.byte	0x5
 2699 04de 00       		.uleb128 0
 2700 04df B1620400 		.4byte	.LASF207
 2701 04e3 05       		.byte	0x5
 2702 04e4 00       		.uleb128 0
 2703 04e5 7EC10300 		.4byte	.LASF208
 2704 04e9 05       		.byte	0x5
 2705 04ea 00       		.uleb128 0
 2706 04eb 5B580100 		.4byte	.LASF209
 2707 04ef 05       		.byte	0x5
 2708 04f0 00       		.uleb128 0
 2709 04f1 0F260200 		.4byte	.LASF210
 2710 04f5 05       		.byte	0x5
 2711 04f6 00       		.uleb128 0
 2712 04f7 DC9C0100 		.4byte	.LASF211
 2713 04fb 05       		.byte	0x5
 2714 04fc 00       		.uleb128 0
 2715 04fd B1290200 		.4byte	.LASF212
 2716 0501 05       		.byte	0x5
 2717 0502 00       		.uleb128 0
 2718 0503 48B50100 		.4byte	.LASF213
 2719 0507 05       		.byte	0x5
 2720 0508 00       		.uleb128 0
 2721 0509 64720200 		.4byte	.LASF214
 2722 050d 05       		.byte	0x5
 2723 050e 00       		.uleb128 0
 2724 050f 68F90100 		.4byte	.LASF215
 2725 0513 05       		.byte	0x5
 2726 0514 00       		.uleb128 0
 2727 0515 4F590400 		.4byte	.LASF216
 2728 0519 05       		.byte	0x5
 2729 051a 00       		.uleb128 0
 2730 051b E27C0300 		.4byte	.LASF217
 2731 051f 05       		.byte	0x5
 2732 0520 00       		.uleb128 0
 2733 0521 9ACE0000 		.4byte	.LASF218
 2734 0525 05       		.byte	0x5
 2735 0526 00       		.uleb128 0
 2736 0527 B0370400 		.4byte	.LASF219
ARM GAS  C:\Users\anashi\AppData\Local\Temp\ccVEwqOU.s 			page 49


 2737 052b 05       		.byte	0x5
 2738 052c 00       		.uleb128 0
 2739 052d EF5C0100 		.4byte	.LASF220
 2740 0531 05       		.byte	0x5
 2741 0532 00       		.uleb128 0
 2742 0533 2EEA0200 		.4byte	.LASF221
 2743 0537 05       		.byte	0x5
 2744 0538 00       		.uleb128 0
 2745 0539 A25D0000 		.4byte	.LASF222
 2746 053d 05       		.byte	0x5
 2747 053e 00       		.uleb128 0
 2748 053f 791F0300 		.4byte	.LASF223
 2749 0543 05       		.byte	0x5
 2750 0544 00       		.uleb128 0
 2751 0545 99E30300 		.4byte	.LASF224
 2752 0549 05       		.byte	0x5
 2753 054a 00       		.uleb128 0
 2754 054b 6C9B0300 		.4byte	.LASF225
 2755 054f 05       		.byte	0x5
 2756 0550 00       		.uleb128 0
 2757 0551 C9B10200 		.4byte	.LASF226
 2758 0555 05       		.byte	0x5
 2759 0556 00       		.uleb128 0
 2760 0557 E1010300 		.4byte	.LASF227
 2761 055b 05       		.byte	0x5
 2762 055c 00       		.uleb128 0
 2763 055d 25680100 		.4byte	.LASF228
 2764 0561 05       		.byte	0x5
 2765 0562 00       		.uleb128 0
 2766 0563 DAFE0200 		.4byte	.LASF229
 2767 0567 05       		.byte	0x5
 2768 0568 00       		.uleb128 0
 2769 0569 43B70100 		.4byte	.LASF230
 2770 056d 05       		.byte	0x5
 2771 056e 00       		.uleb128 0
 2772 056f C71C0400 		.4byte	.LASF231
 2773 0573 05       		.byte	0x5
 2774 0574 00       		.uleb128 0
 2775 0575 0ACB0200 		.4byte	.LASF232
 2776 0579 05       		.byte	0x5
 2777 057a 00       		.uleb128 0
 2778 057b 25150100 		.4byte	.LASF233
 2779 057f 05       		.byte	0x5
 2780 0580 00       		.uleb128 0
 2781 0581 07690100 		.4byte	.LASF234
 2782 0585 05       		.byte	0x5
 2783 0586 00       		.uleb128 0
 2784 0587 41D10200 		.4byte	.LASF235
 2785 058b 05       		.byte	0x5
 2786 058c 00       		.uleb128 0
 2787 058d 50160100 		.4byte	.LASF236
 2788 0591 05       		.byte	0x5
 2789 0592 00       		.uleb128 0
 2790 0593 763C0400 		.4byte	.LASF237
 2791 0597 05       		.byte	0x5
 2792 0598 00       		.uleb128 0
 2793 0599 40970100 		.4byte	.LASF238
ARM GAS  C:\Users\anashi\AppData\Local\Temp\ccVEwqOU.s 			page 50


 2794 059d 05       		.byte	0x5
 2795 059e 00       		.uleb128 0
 2796 059f 96C30200 		.4byte	.LASF239
 2797 05a3 05       		.byte	0x5
 2798 05a4 00       		.uleb128 0
 2799 05a5 243B0300 		.4byte	.LASF240
 2800 05a9 05       		.byte	0x5
 2801 05aa 00       		.uleb128 0
 2802 05ab D11D0300 		.4byte	.LASF241
 2803 05af 05       		.byte	0x5
 2804 05b0 00       		.uleb128 0
 2805 05b1 68350000 		.4byte	.LASF242
 2806 05b5 05       		.byte	0x5
 2807 05b6 00       		.uleb128 0
 2808 05b7 7A150300 		.4byte	.LASF243
 2809 05bb 05       		.byte	0x5
 2810 05bc 00       		.uleb128 0
 2811 05bd 2CA90100 		.4byte	.LASF244
 2812 05c1 05       		.byte	0x5
 2813 05c2 00       		.uleb128 0
 2814 05c3 35430400 		.4byte	.LASF245
 2815 05c7 05       		.byte	0x5
 2816 05c8 00       		.uleb128 0
 2817 05c9 532C0000 		.4byte	.LASF246
 2818 05cd 05       		.byte	0x5
 2819 05ce 00       		.uleb128 0
 2820 05cf 4B7D0200 		.4byte	.LASF247
 2821 05d3 05       		.byte	0x5
 2822 05d4 00       		.uleb128 0
 2823 05d5 27160000 		.4byte	.LASF248
 2824 05d9 05       		.byte	0x5
 2825 05da 00       		.uleb128 0
 2826 05db 62930100 		.4byte	.LASF249
 2827 05df 05       		.byte	0x5
 2828 05e0 00       		.uleb128 0
 2829 05e1 21D60200 		.4byte	.LASF250
 2830 05e5 05       		.byte	0x5
 2831 05e6 00       		.uleb128 0
 2832 05e7 55CB0200 		.4byte	.LASF251
 2833 05eb 05       		.byte	0x5
 2834 05ec 00       		.uleb128 0
 2835 05ed C9420300 		.4byte	.LASF252
 2836 05f1 05       		.byte	0x5
 2837 05f2 00       		.uleb128 0
 2838 05f3 EA930100 		.4byte	.LASF253
 2839 05f7 05       		.byte	0x5
 2840 05f8 00       		.uleb128 0
 2841 05f9 EF6A0400 		.4byte	.LASF254
 2842 05fd 05       		.byte	0x5
 2843 05fe 00       		.uleb128 0
 2844 05ff 95980000 		.4byte	.LASF255
 2845 0603 05       		.byte	0x5
 2846 0604 00       		.uleb128 0
 2847 0605 FCD70300 		.4byte	.LASF256
 2848 0609 05       		.byte	0x5
 2849 060a 00       		.uleb128 0
 2850 060b BDA50200 		.4byte	.LASF257
ARM GAS  C:\Users\anashi\AppData\Local\Temp\ccVEwqOU.s 			page 51


 2851 060f 05       		.byte	0x5
 2852 0610 00       		.uleb128 0
 2853 0611 7D760400 		.4byte	.LASF258
 2854 0615 05       		.byte	0x5
 2855 0616 00       		.uleb128 0
 2856 0617 16E30200 		.4byte	.LASF259
 2857 061b 05       		.byte	0x5
 2858 061c 00       		.uleb128 0
 2859 061d 12080400 		.4byte	.LASF260
 2860 0621 05       		.byte	0x5
 2861 0622 00       		.uleb128 0
 2862 0623 FEDF0300 		.4byte	.LASF261
 2863 0627 05       		.byte	0x5
 2864 0628 00       		.uleb128 0
 2865 0629 7C800200 		.4byte	.LASF262
 2866 062d 05       		.byte	0x5
 2867 062e 00       		.uleb128 0
 2868 062f 42BD0100 		.4byte	.LASF263
 2869 0633 05       		.byte	0x5
 2870 0634 00       		.uleb128 0
 2871 0635 960E0000 		.4byte	.LASF264
 2872 0639 05       		.byte	0x5
 2873 063a 00       		.uleb128 0
 2874 063b 2C5F0000 		.4byte	.LASF265
 2875 063f 05       		.byte	0x5
 2876 0640 00       		.uleb128 0
 2877 0641 7FBC0000 		.4byte	.LASF266
 2878 0645 05       		.byte	0x5
 2879 0646 00       		.uleb128 0
 2880 0647 A0770100 		.4byte	.LASF267
 2881 064b 05       		.byte	0x5
 2882 064c 00       		.uleb128 0
 2883 064d A7230000 		.4byte	.LASF268
 2884 0651 05       		.byte	0x5
 2885 0652 00       		.uleb128 0
 2886 0653 DE690300 		.4byte	.LASF269
 2887 0657 05       		.byte	0x5
 2888 0658 00       		.uleb128 0
 2889 0659 761D0000 		.4byte	.LASF270
 2890 065d 05       		.byte	0x5
 2891 065e 00       		.uleb128 0
 2892 065f AFEE0300 		.4byte	.LASF271
 2893 0663 05       		.byte	0x5
 2894 0664 00       		.uleb128 0
 2895 0665 BF480100 		.4byte	.LASF272
 2896 0669 05       		.byte	0x5
 2897 066a 00       		.uleb128 0
 2898 066b 964E0400 		.4byte	.LASF273
 2899 066f 05       		.byte	0x5
 2900 0670 00       		.uleb128 0
 2901 0671 446B0300 		.4byte	.LASF274
 2902 0675 05       		.byte	0x5
 2903 0676 00       		.uleb128 0
 2904 0677 5BCA0100 		.4byte	.LASF275
 2905 067b 05       		.byte	0x5
 2906 067c 00       		.uleb128 0
 2907 067d 985D0400 		.4byte	.LASF276
ARM GAS  C:\Users\anashi\AppData\Local\Temp\ccVEwqOU.s 			page 52


 2908 0681 05       		.byte	0x5
 2909 0682 00       		.uleb128 0
 2910 0683 D6B00200 		.4byte	.LASF277
 2911 0687 05       		.byte	0x5
 2912 0688 00       		.uleb128 0
 2913 0689 60600300 		.4byte	.LASF278
 2914 068d 05       		.byte	0x5
 2915 068e 00       		.uleb128 0
 2916 068f 2FEF0100 		.4byte	.LASF279
 2917 0693 05       		.byte	0x5
 2918 0694 00       		.uleb128 0
 2919 0695 BDBB0000 		.4byte	.LASF280
 2920 0699 05       		.byte	0x5
 2921 069a 00       		.uleb128 0
 2922 069b B2880200 		.4byte	.LASF281
 2923 069f 05       		.byte	0x5
 2924 06a0 00       		.uleb128 0
 2925 06a1 F26A0000 		.4byte	.LASF282
 2926 06a5 05       		.byte	0x5
 2927 06a6 00       		.uleb128 0
 2928 06a7 C6A90200 		.4byte	.LASF283
 2929 06ab 05       		.byte	0x5
 2930 06ac 00       		.uleb128 0
 2931 06ad 29930100 		.4byte	.LASF284
 2932 06b1 05       		.byte	0x5
 2933 06b2 00       		.uleb128 0
 2934 06b3 7DB90000 		.4byte	.LASF285
 2935 06b7 05       		.byte	0x5
 2936 06b8 00       		.uleb128 0
 2937 06b9 54650200 		.4byte	.LASF286
 2938 06bd 05       		.byte	0x5
 2939 06be 00       		.uleb128 0
 2940 06bf D9BF0100 		.4byte	.LASF287
 2941 06c3 05       		.byte	0x5
 2942 06c4 00       		.uleb128 0
 2943 06c5 27750300 		.4byte	.LASF288
 2944 06c9 05       		.byte	0x5
 2945 06ca 00       		.uleb128 0
 2946 06cb 5E9F0000 		.4byte	.LASF289
 2947 06cf 05       		.byte	0x5
 2948 06d0 00       		.uleb128 0
 2949 06d1 2AB80200 		.4byte	.LASF290
 2950 06d5 05       		.byte	0x5
 2951 06d6 00       		.uleb128 0
 2952 06d7 AA350200 		.4byte	.LASF291
 2953 06db 05       		.byte	0x5
 2954 06dc 00       		.uleb128 0
 2955 06dd 63B10200 		.4byte	.LASF292
 2956 06e1 05       		.byte	0x5
 2957 06e2 00       		.uleb128 0
 2958 06e3 044E0100 		.4byte	.LASF293
 2959 06e7 05       		.byte	0x5
 2960 06e8 00       		.uleb128 0
 2961 06e9 78AB0000 		.4byte	.LASF294
 2962 06ed 05       		.byte	0x5
 2963 06ee 00       		.uleb128 0
 2964 06ef A6A80200 		.4byte	.LASF295
ARM GAS  C:\Users\anashi\AppData\Local\Temp\ccVEwqOU.s 			page 53


 2965 06f3 05       		.byte	0x5
 2966 06f4 00       		.uleb128 0
 2967 06f5 B0A30300 		.4byte	.LASF296
 2968 06f9 05       		.byte	0x5
 2969 06fa 00       		.uleb128 0
 2970 06fb 60800100 		.4byte	.LASF297
 2971 06ff 05       		.byte	0x5
 2972 0700 00       		.uleb128 0
 2973 0701 6E380400 		.4byte	.LASF298
 2974 0705 05       		.byte	0x5
 2975 0706 00       		.uleb128 0
 2976 0707 8D9E0200 		.4byte	.LASF299
 2977 070b 05       		.byte	0x5
 2978 070c 00       		.uleb128 0
 2979 070d E7520300 		.4byte	.LASF300
 2980 0711 05       		.byte	0x5
 2981 0712 00       		.uleb128 0
 2982 0713 A3F80100 		.4byte	.LASF301
 2983 0717 05       		.byte	0x5
 2984 0718 00       		.uleb128 0
 2985 0719 14CF0100 		.4byte	.LASF302
 2986 071d 05       		.byte	0x5
 2987 071e 00       		.uleb128 0
 2988 071f 4E510100 		.4byte	.LASF303
 2989 0723 05       		.byte	0x5
 2990 0724 00       		.uleb128 0
 2991 0725 96900100 		.4byte	.LASF304
 2992 0729 05       		.byte	0x5
 2993 072a 00       		.uleb128 0
 2994 072b 8A980300 		.4byte	.LASF305
 2995 072f 05       		.byte	0x5
 2996 0730 00       		.uleb128 0
 2997 0731 3A050400 		.4byte	.LASF306
 2998 0735 05       		.byte	0x5
 2999 0736 00       		.uleb128 0
 3000 0737 3B590100 		.4byte	.LASF307
 3001 073b 05       		.byte	0x5
 3002 073c 00       		.uleb128 0
 3003 073d 293C0400 		.4byte	.LASF308
 3004 0741 05       		.byte	0x5
 3005 0742 00       		.uleb128 0
 3006 0743 8E6B0100 		.4byte	.LASF309
 3007 0747 05       		.byte	0x5
 3008 0748 00       		.uleb128 0
 3009 0749 F6270000 		.4byte	.LASF310
 3010 074d 05       		.byte	0x5
 3011 074e 00       		.uleb128 0
 3012 074f 1C440400 		.4byte	.LASF311
 3013 0753 05       		.byte	0x5
 3014 0754 00       		.uleb128 0
 3015 0755 CA9E0000 		.4byte	.LASF312
 3016 0759 05       		.byte	0x5
 3017 075a 00       		.uleb128 0
 3018 075b 2DE90300 		.4byte	.LASF313
 3019 075f 05       		.byte	0x5
 3020 0760 00       		.uleb128 0
 3021 0761 3C250400 		.4byte	.LASF314
ARM GAS  C:\Users\anashi\AppData\Local\Temp\ccVEwqOU.s 			page 54


 3022 0765 05       		.byte	0x5
 3023 0766 00       		.uleb128 0
 3024 0767 D6310100 		.4byte	.LASF315
 3025 076b 05       		.byte	0x5
 3026 076c 00       		.uleb128 0
 3027 076d CCFD0100 		.4byte	.LASF316
 3028 0771 05       		.byte	0x5
 3029 0772 00       		.uleb128 0
 3030 0773 AF070200 		.4byte	.LASF317
 3031 0777 05       		.byte	0x5
 3032 0778 00       		.uleb128 0
 3033 0779 58FC0200 		.4byte	.LASF318
 3034 077d 05       		.byte	0x5
 3035 077e 00       		.uleb128 0
 3036 077f AE120200 		.4byte	.LASF319
 3037 0783 05       		.byte	0x5
 3038 0784 00       		.uleb128 0
 3039 0785 6B0B0000 		.4byte	.LASF320
 3040 0789 05       		.byte	0x5
 3041 078a 00       		.uleb128 0
 3042 078b 59860200 		.4byte	.LASF321
 3043 078f 05       		.byte	0x5
 3044 0790 00       		.uleb128 0
 3045 0791 74670000 		.4byte	.LASF322
 3046 0795 05       		.byte	0x5
 3047 0796 00       		.uleb128 0
 3048 0797 35430200 		.4byte	.LASF323
 3049 079b 05       		.byte	0x5
 3050 079c 00       		.uleb128 0
 3051 079d 36750200 		.4byte	.LASF324
 3052 07a1 05       		.byte	0x5
 3053 07a2 00       		.uleb128 0
 3054 07a3 E4A40000 		.4byte	.LASF325
 3055 07a7 05       		.byte	0x5
 3056 07a8 00       		.uleb128 0
 3057 07a9 33CE0300 		.4byte	.LASF326
 3058 07ad 05       		.byte	0x5
 3059 07ae 00       		.uleb128 0
 3060 07af 20040000 		.4byte	.LASF327
 3061 07b3 05       		.byte	0x5
 3062 07b4 00       		.uleb128 0
 3063 07b5 64020300 		.4byte	.LASF328
 3064 07b9 05       		.byte	0x5
 3065 07ba 00       		.uleb128 0
 3066 07bb 0F3B0300 		.4byte	.LASF329
 3067 07bf 05       		.byte	0x5
 3068 07c0 00       		.uleb128 0
 3069 07c1 25540300 		.4byte	.LASF330
 3070 07c5 05       		.byte	0x5
 3071 07c6 00       		.uleb128 0
 3072 07c7 65690200 		.4byte	.LASF331
 3073 07cb 05       		.byte	0x5
 3074 07cc 00       		.uleb128 0
 3075 07cd 7D260400 		.4byte	.LASF332
 3076 07d1 05       		.byte	0x5
 3077 07d2 00       		.uleb128 0
 3078 07d3 5A310200 		.4byte	.LASF333
ARM GAS  C:\Users\anashi\AppData\Local\Temp\ccVEwqOU.s 			page 55


 3079 07d7 05       		.byte	0x5
 3080 07d8 00       		.uleb128 0
 3081 07d9 3E8A0000 		.4byte	.LASF334
 3082 07dd 05       		.byte	0x5
 3083 07de 00       		.uleb128 0
 3084 07df 7D9F0200 		.4byte	.LASF335
 3085 07e3 05       		.byte	0x5
 3086 07e4 00       		.uleb128 0
 3087 07e5 59FA0000 		.4byte	.LASF336
 3088 07e9 05       		.byte	0x5
 3089 07ea 00       		.uleb128 0
 3090 07eb C6C90200 		.4byte	.LASF337
 3091 07ef 05       		.byte	0x5
 3092 07f0 00       		.uleb128 0
 3093 07f1 EFA10100 		.4byte	.LASF338
 3094 07f5 05       		.byte	0x5
 3095 07f6 00       		.uleb128 0
 3096 07f7 60D80100 		.4byte	.LASF339
 3097 07fb 05       		.byte	0x5
 3098 07fc 00       		.uleb128 0
 3099 07fd 06420000 		.4byte	.LASF340
 3100 0801 05       		.byte	0x5
 3101 0802 00       		.uleb128 0
 3102 0803 6C160100 		.4byte	.LASF341
 3103 0807 05       		.byte	0x5
 3104 0808 00       		.uleb128 0
 3105 0809 0F4A0100 		.4byte	.LASF342
 3106 080d 05       		.byte	0x5
 3107 080e 00       		.uleb128 0
 3108 080f 74B50100 		.4byte	.LASF343
 3109 0813 05       		.byte	0x5
 3110 0814 00       		.uleb128 0
 3111 0815 77140000 		.4byte	.LASF344
 3112 0819 05       		.byte	0x5
 3113 081a 00       		.uleb128 0
 3114 081b 37450000 		.4byte	.LASF345
 3115 081f 05       		.byte	0x5
 3116 0820 00       		.uleb128 0
 3117 0821 BE040200 		.4byte	.LASF346
 3118 0825 05       		.byte	0x5
 3119 0826 00       		.uleb128 0
 3120 0827 F37E0000 		.4byte	.LASF347
 3121 082b 05       		.byte	0x5
 3122 082c 00       		.uleb128 0
 3123 082d FC280100 		.4byte	.LASF348
 3124 0831 05       		.byte	0x5
 3125 0832 00       		.uleb128 0
 3126 0833 E7FF0300 		.4byte	.LASF349
 3127 0837 05       		.byte	0x5
 3128 0838 00       		.uleb128 0
 3129 0839 E7470400 		.4byte	.LASF350
 3130 083d 05       		.byte	0x5
 3131 083e 00       		.uleb128 0
 3132 083f 47520400 		.4byte	.LASF351
 3133 0843 05       		.byte	0x5
 3134 0844 00       		.uleb128 0
 3135 0845 1BED0300 		.4byte	.LASF352
ARM GAS  C:\Users\anashi\AppData\Local\Temp\ccVEwqOU.s 			page 56


 3136 0849 05       		.byte	0x5
 3137 084a 00       		.uleb128 0
 3138 084b B5820100 		.4byte	.LASF353
 3139 084f 05       		.byte	0x5
 3140 0850 00       		.uleb128 0
 3141 0851 95540400 		.4byte	.LASF354
 3142 0855 05       		.byte	0x5
 3143 0856 00       		.uleb128 0
 3144 0857 28130300 		.4byte	.LASF355
 3145 085b 05       		.byte	0x5
 3146 085c 00       		.uleb128 0
 3147 085d 7A4E0300 		.4byte	.LASF356
 3148 0861 05       		.byte	0x5
 3149 0862 00       		.uleb128 0
 3150 0863 232B0200 		.4byte	.LASF357
 3151 0867 05       		.byte	0x5
 3152 0868 00       		.uleb128 0
 3153 0869 3C660200 		.4byte	.LASF358
 3154 086d 05       		.byte	0x5
 3155 086e 00       		.uleb128 0
 3156 086f 5F380400 		.4byte	.LASF359
 3157 0873 05       		.byte	0x5
 3158 0874 00       		.uleb128 0
 3159 0875 D25F0100 		.4byte	.LASF360
 3160 0879 05       		.byte	0x5
 3161 087a 00       		.uleb128 0
 3162 087b 1FCB0200 		.4byte	.LASF361
 3163 087f 05       		.byte	0x5
 3164 0880 00       		.uleb128 0
 3165 0881 3BEB0300 		.4byte	.LASF362
 3166 0885 05       		.byte	0x5
 3167 0886 00       		.uleb128 0
 3168 0887 AAC80000 		.4byte	.LASF363
 3169 088b 05       		.byte	0x5
 3170 088c 00       		.uleb128 0
 3171 088d BF070100 		.4byte	.LASF364
 3172 0891 05       		.byte	0x5
 3173 0892 00       		.uleb128 0
 3174 0893 B7490400 		.4byte	.LASF365
 3175 0897 05       		.byte	0x5
 3176 0898 00       		.uleb128 0
 3177 0899 BF090000 		.4byte	.LASF366
 3178 089d 05       		.byte	0x5
 3179 089e 00       		.uleb128 0
 3180 089f FE520300 		.4byte	.LASF367
 3181 08a3 05       		.byte	0x5
 3182 08a4 00       		.uleb128 0
 3183 08a5 82D90000 		.4byte	.LASF368
 3184 08a9 05       		.byte	0x5
 3185 08aa 00       		.uleb128 0
 3186 08ab 74620400 		.4byte	.LASF369
 3187 08af 05       		.byte	0x5
 3188 08b0 00       		.uleb128 0
 3189 08b1 78160400 		.4byte	.LASF370
 3190 08b5 05       		.byte	0x5
 3191 08b6 00       		.uleb128 0
 3192 08b7 E9590100 		.4byte	.LASF371
ARM GAS  C:\Users\anashi\AppData\Local\Temp\ccVEwqOU.s 			page 57


 3193 08bb 05       		.byte	0x5
 3194 08bc 00       		.uleb128 0
 3195 08bd D08B0000 		.4byte	.LASF372
 3196 08c1 05       		.byte	0x5
 3197 08c2 00       		.uleb128 0
 3198 08c3 8E0E0200 		.4byte	.LASF373
 3199 08c7 05       		.byte	0x5
 3200 08c8 00       		.uleb128 0
 3201 08c9 651A0300 		.4byte	.LASF374
 3202 08cd 05       		.byte	0x5
 3203 08ce 00       		.uleb128 0
 3204 08cf F9B10100 		.4byte	.LASF375
 3205 08d3 05       		.byte	0x5
 3206 08d4 00       		.uleb128 0
 3207 08d5 27640200 		.4byte	.LASF376
 3208 08d9 05       		.byte	0x5
 3209 08da 00       		.uleb128 0
 3210 08db 931F0300 		.4byte	.LASF377
 3211 08df 05       		.byte	0x5
 3212 08e0 00       		.uleb128 0
 3213 08e1 DE990300 		.4byte	.LASF378
 3214 08e5 05       		.byte	0x5
 3215 08e6 00       		.uleb128 0
 3216 08e7 09A20000 		.4byte	.LASF379
 3217 08eb 05       		.byte	0x5
 3218 08ec 00       		.uleb128 0
 3219 08ed B7170400 		.4byte	.LASF380
 3220 08f1 05       		.byte	0x5
 3221 08f2 00       		.uleb128 0
 3222 08f3 363B0100 		.4byte	.LASF381
 3223 08f7 05       		.byte	0x5
 3224 08f8 00       		.uleb128 0
 3225 08f9 C19F0300 		.4byte	.LASF382
 3226 08fd 05       		.byte	0x5
 3227 08fe 00       		.uleb128 0
 3228 08ff 12570300 		.4byte	.LASF383
 3229 0903 05       		.byte	0x5
 3230 0904 00       		.uleb128 0
 3231 0905 E5400200 		.4byte	.LASF384
 3232 0909 05       		.byte	0x5
 3233 090a 00       		.uleb128 0
 3234 090b C4410300 		.4byte	.LASF385
 3235 090f 05       		.byte	0x5
 3236 0910 00       		.uleb128 0
 3237 0911 60D80200 		.4byte	.LASF386
 3238 0915 05       		.byte	0x5
 3239 0916 00       		.uleb128 0
 3240 0917 A2170400 		.4byte	.LASF387
 3241 091b 05       		.byte	0x5
 3242 091c 00       		.uleb128 0
 3243 091d D2180400 		.4byte	.LASF388
 3244 0921 05       		.byte	0x5
 3245 0922 00       		.uleb128 0
 3246 0923 EDAF0300 		.4byte	.LASF389
 3247 0927 06       		.byte	0x6
 3248 0928 00       		.uleb128 0
 3249 0929 5AC30200 		.4byte	.LASF390
ARM GAS  C:\Users\anashi\AppData\Local\Temp\ccVEwqOU.s 			page 58


 3250 092d 06       		.byte	0x6
 3251 092e 00       		.uleb128 0
 3252 092f 34180300 		.4byte	.LASF391
 3253 0933 06       		.byte	0x6
 3254 0934 00       		.uleb128 0
 3255 0935 62E60200 		.4byte	.LASF392
 3256 0939 06       		.byte	0x6
 3257 093a 00       		.uleb128 0
 3258 093b B2D50200 		.4byte	.LASF393
 3259 093f 06       		.byte	0x6
 3260 0940 00       		.uleb128 0
 3261 0941 260B0100 		.4byte	.LASF394
 3262 0945 06       		.byte	0x6
 3263 0946 00       		.uleb128 0
 3264 0947 43800300 		.4byte	.LASF395
 3265 094b 06       		.byte	0x6
 3266 094c 00       		.uleb128 0
 3267 094d 9F330100 		.4byte	.LASF396
 3268 0951 06       		.byte	0x6
 3269 0952 00       		.uleb128 0
 3270 0953 9D970100 		.4byte	.LASF397
 3271 0957 06       		.byte	0x6
 3272 0958 00       		.uleb128 0
 3273 0959 20630100 		.4byte	.LASF398
 3274 095d 06       		.byte	0x6
 3275 095e 00       		.uleb128 0
 3276 095f B03D0000 		.4byte	.LASF399
 3277 0963 06       		.byte	0x6
 3278 0964 00       		.uleb128 0
 3279 0965 743E0200 		.4byte	.LASF400
 3280 0969 05       		.byte	0x5
 3281 096a 00       		.uleb128 0
 3282 096b AE550400 		.4byte	.LASF401
 3283 096f 05       		.byte	0x5
 3284 0970 00       		.uleb128 0
 3285 0971 79CA0100 		.4byte	.LASF402
 3286 0975 05       		.byte	0x5
 3287 0976 00       		.uleb128 0
 3288 0977 7E2F0000 		.4byte	.LASF403
 3289 097b 05       		.byte	0x5
 3290 097c 00       		.uleb128 0
 3291 097d 50C30200 		.4byte	.LASF404
 3292 0981 05       		.byte	0x5
 3293 0982 00       		.uleb128 0
 3294 0983 5FF20200 		.4byte	.LASF405
 3295 0987 05       		.byte	0x5
 3296 0988 00       		.uleb128 0
 3297 0989 184F0100 		.4byte	.LASF406
 3298 098d 05       		.byte	0x5
 3299 098e 00       		.uleb128 0
 3300 098f F0A10300 		.4byte	.LASF407
 3301 0993 06       		.byte	0x6
 3302 0994 00       		.uleb128 0
 3303 0995 D0370100 		.4byte	.LASF408
 3304 0999 05       		.byte	0x5
 3305 099a 00       		.uleb128 0
 3306 099b CE610100 		.4byte	.LASF409
ARM GAS  C:\Users\anashi\AppData\Local\Temp\ccVEwqOU.s 			page 59


 3307 099f 05       		.byte	0x5
 3308 09a0 00       		.uleb128 0
 3309 09a1 20180200 		.4byte	.LASF410
 3310 09a5 05       		.byte	0x5
 3311 09a6 00       		.uleb128 0
 3312 09a7 2D4E0200 		.4byte	.LASF411
 3313 09ab 05       		.byte	0x5
 3314 09ac 00       		.uleb128 0
 3315 09ad 745E0000 		.4byte	.LASF412
 3316 09b1 05       		.byte	0x5
 3317 09b2 00       		.uleb128 0
 3318 09b3 10CF0300 		.4byte	.LASF413
 3319 09b7 06       		.byte	0x6
 3320 09b8 00       		.uleb128 0
 3321 09b9 234D0200 		.4byte	.LASF414
 3322 09bd 06       		.byte	0x6
 3323 09be 00       		.uleb128 0
 3324 09bf 3C1F0000 		.4byte	.LASF415
 3325 09c3 06       		.byte	0x6
 3326 09c4 00       		.uleb128 0
 3327 09c5 6D330300 		.4byte	.LASF416
 3328 09c9 06       		.byte	0x6
 3329 09ca 00       		.uleb128 0
 3330 09cb 31760200 		.4byte	.LASF417
 3331 09cf 06       		.byte	0x6
 3332 09d0 00       		.uleb128 0
 3333 09d1 27190000 		.4byte	.LASF418
 3334 09d5 06       		.byte	0x6
 3335 09d6 00       		.uleb128 0
 3336 09d7 6F810100 		.4byte	.LASF419
 3337 09db 06       		.byte	0x6
 3338 09dc 00       		.uleb128 0
 3339 09dd 9E9A0000 		.4byte	.LASF420
 3340 09e1 06       		.byte	0x6
 3341 09e2 00       		.uleb128 0
 3342 09e3 C87C0100 		.4byte	.LASF421
 3343 09e7 06       		.byte	0x6
 3344 09e8 00       		.uleb128 0
 3345 09e9 B8BC0100 		.4byte	.LASF422
 3346 09ed 06       		.byte	0x6
 3347 09ee 00       		.uleb128 0
 3348 09ef FF7C0200 		.4byte	.LASF423
 3349 09f3 05       		.byte	0x5
 3350 09f4 00       		.uleb128 0
 3351 09f5 DE560400 		.4byte	.LASF424
 3352 09f9 05       		.byte	0x5
 3353 09fa 00       		.uleb128 0
 3354 09fb 31960000 		.4byte	.LASF425
 3355 09ff 05       		.byte	0x5
 3356 0a00 00       		.uleb128 0
 3357 0a01 83860200 		.4byte	.LASF426
 3358 0a05 05       		.byte	0x5
 3359 0a06 00       		.uleb128 0
 3360 0a07 B5E50000 		.4byte	.LASF427
 3361 0a0b 06       		.byte	0x6
 3362 0a0c 00       		.uleb128 0
 3363 0a0d 6D4C0200 		.4byte	.LASF428
ARM GAS  C:\Users\anashi\AppData\Local\Temp\ccVEwqOU.s 			page 60


 3364 0a11 06       		.byte	0x6
 3365 0a12 00       		.uleb128 0
 3366 0a13 C0A20100 		.4byte	.LASF429
 3367 0a17 06       		.byte	0x6
 3368 0a18 00       		.uleb128 0
 3369 0a19 38C10000 		.4byte	.LASF430
 3370 0a1d 06       		.byte	0x6
 3371 0a1e 00       		.uleb128 0
 3372 0a1f 521A0200 		.4byte	.LASF431
 3373 0a23 05       		.byte	0x5
 3374 0a24 00       		.uleb128 0
 3375 0a25 8D3C0000 		.4byte	.LASF432
 3376 0a29 05       		.byte	0x5
 3377 0a2a 00       		.uleb128 0
 3378 0a2b 87440100 		.4byte	.LASF433
 3379 0a2f 05       		.byte	0x5
 3380 0a30 00       		.uleb128 0
 3381 0a31 B2F70100 		.4byte	.LASF434
 3382 0a35 05       		.byte	0x5
 3383 0a36 00       		.uleb128 0
 3384 0a37 16AD0000 		.4byte	.LASF435
 3385 0a3b 05       		.byte	0x5
 3386 0a3c 00       		.uleb128 0
 3387 0a3d 00540300 		.4byte	.LASF436
 3388 0a41 05       		.byte	0x5
 3389 0a42 00       		.uleb128 0
 3390 0a43 13830300 		.4byte	.LASF437
 3391 0a47 05       		.byte	0x5
 3392 0a48 00       		.uleb128 0
 3393 0a49 94A80000 		.4byte	.LASF438
 3394 0a4d 05       		.byte	0x5
 3395 0a4e 00       		.uleb128 0
 3396 0a4f 41D50300 		.4byte	.LASF439
 3397 0a53 05       		.byte	0x5
 3398 0a54 00       		.uleb128 0
 3399 0a55 061E0200 		.4byte	.LASF440
 3400 0a59 05       		.byte	0x5
 3401 0a5a 00       		.uleb128 0
 3402 0a5b 70090400 		.4byte	.LASF441
 3403 0a5f 00       		.byte	0
 3404              		.section	.debug_macro,"G",%progbits,wm4.stm32f0xx_hal_conf.h.37.85d16adf463f0bc3ee74429377097325,c
 3405              	.Ldebug_macro2:
 3406 0000 0400     		.2byte	0x4
 3407 0002 00       		.byte	0
 3408 0003 05       		.byte	0x5
 3409 0004 25       		.uleb128 0x25
 3410 0005 35500100 		.4byte	.LASF443
 3411 0009 05       		.byte	0x5
 3412 000a 32       		.uleb128 0x32
 3413 000b 1FEF0000 		.4byte	.LASF444
 3414 000f 05       		.byte	0x5
 3415 0010 33       		.uleb128 0x33
 3416 0011 F9460000 		.4byte	.LASF445
 3417 0015 05       		.byte	0x5
 3418 0016 43       		.uleb128 0x43
 3419 0017 C66C0000 		.4byte	.LASF446
 3420 001b 05       		.byte	0x5
ARM GAS  C:\Users\anashi\AppData\Local\Temp\ccVEwqOU.s 			page 61


 3421 001c 44       		.uleb128 0x44
 3422 001d 8ECB0200 		.4byte	.LASF447
 3423 0021 05       		.byte	0x5
 3424 0022 4C       		.uleb128 0x4c
 3425 0023 26E50300 		.4byte	.LASF448
 3426 0027 05       		.byte	0x5
 3427 0028 4D       		.uleb128 0x4d
 3428 0029 0AA70100 		.4byte	.LASF449
 3429 002d 05       		.byte	0x5
 3430 002e 4E       		.uleb128 0x4e
 3431 002f 9FD60300 		.4byte	.LASF450
 3432 0033 05       		.byte	0x5
 3433 0034 4F       		.uleb128 0x4f
 3434 0035 2F850300 		.4byte	.LASF451
 3435 0039 05       		.byte	0x5
 3436 003a 50       		.uleb128 0x50
 3437 003b 279D0100 		.4byte	.LASF452
 3438 003f 05       		.byte	0x5
 3439 0040 51       		.uleb128 0x51
 3440 0041 63D40000 		.4byte	.LASF453
 3441 0045 05       		.byte	0x5
 3442 0046 52       		.uleb128 0x52
 3443 0047 0E880300 		.4byte	.LASF454
 3444 004b 05       		.byte	0x5
 3445 004c 5B       		.uleb128 0x5b
 3446 004d ED9E0300 		.4byte	.LASF455
 3447 0051 05       		.byte	0x5
 3448 0052 63       		.uleb128 0x63
 3449 0053 F4760400 		.4byte	.LASF456
 3450 0057 05       		.byte	0x5
 3451 0058 6C       		.uleb128 0x6c
 3452 0059 DB620200 		.4byte	.LASF457
 3453 005d 05       		.byte	0x5
 3454 005e 74       		.uleb128 0x74
 3455 005f 45D90100 		.4byte	.LASF458
 3456 0063 05       		.byte	0x5
 3457 0064 7B       		.uleb128 0x7b
 3458 0065 AF6D0100 		.4byte	.LASF459
 3459 0069 05       		.byte	0x5
 3460 006a 8401     		.uleb128 0x84
 3461 006c 9A130300 		.4byte	.LASF460
 3462 0070 05       		.byte	0x5
 3463 0071 8D01     		.uleb128 0x8d
 3464 0073 502C0100 		.4byte	.LASF461
 3465 0077 05       		.byte	0x5
 3466 0078 9501     		.uleb128 0x95
 3467 007a BA620100 		.4byte	.LASF462
 3468 007e 05       		.byte	0x5
 3469 007f 9901     		.uleb128 0x99
 3470 0081 96730300 		.4byte	.LASF463
 3471 0085 05       		.byte	0x5
 3472 0086 A301     		.uleb128 0xa3
 3473 0088 612F0300 		.4byte	.LASF464
 3474 008c 05       		.byte	0x5
 3475 008d A401     		.uleb128 0xa4
 3476 008f B5EC0000 		.4byte	.LASF465
 3477 0093 05       		.byte	0x5
ARM GAS  C:\Users\anashi\AppData\Local\Temp\ccVEwqOU.s 			page 62


 3478 0094 A701     		.uleb128 0xa7
 3479 0096 9C520200 		.4byte	.LASF466
 3480 009a 05       		.byte	0x5
 3481 009b A801     		.uleb128 0xa8
 3482 009d BE700100 		.4byte	.LASF467
 3483 00a1 05       		.byte	0x5
 3484 00a2 A901     		.uleb128 0xa9
 3485 00a4 AC840000 		.4byte	.LASF468
 3486 00a8 05       		.byte	0x5
 3487 00a9 AA01     		.uleb128 0xaa
 3488 00ab 261F0200 		.4byte	.LASF469
 3489 00af 05       		.byte	0x5
 3490 00b0 B901     		.uleb128 0xb9
 3491 00b2 E9DE0000 		.4byte	.LASF470
 3492 00b6 00       		.byte	0
 3493              		.section	.debug_macro,"G",%progbits,wm4.stm32f0xx.h.55.6dda558900ae83b4ddf41af91bcbf2f5,comdat
 3494              	.Ldebug_macro3:
 3495 0000 0400     		.2byte	0x4
 3496 0002 00       		.byte	0
 3497 0003 05       		.byte	0x5
 3498 0004 37       		.uleb128 0x37
 3499 0005 655B0300 		.4byte	.LASF473
 3500 0009 05       		.byte	0x5
 3501 000a 45       		.uleb128 0x45
 3502 000b 06130400 		.4byte	.LASF474
 3503 000f 05       		.byte	0x5
 3504 0010 73       		.uleb128 0x73
 3505 0011 38360000 		.4byte	.LASF475
 3506 0015 05       		.byte	0x5
 3507 0016 74       		.uleb128 0x74
 3508 0017 64000000 		.4byte	.LASF476
 3509 001b 05       		.byte	0x5
 3510 001c 75       		.uleb128 0x75
 3511 001d 951D0400 		.4byte	.LASF477
 3512 0021 05       		.byte	0x5
 3513 0022 76       		.uleb128 0x76
 3514 0023 91440100 		.4byte	.LASF478
 3515 0027 05       		.byte	0x5
 3516 0028 77       		.uleb128 0x77
 3517 0029 C66D0300 		.4byte	.LASF479
 3518 002d 00       		.byte	0
 3519              		.section	.debug_macro,"G",%progbits,wm4.stm32f030x6.h.53.053e472ccf3703d6714ba6f265ae1044,comdat
 3520              	.Ldebug_macro4:
 3521 0000 0400     		.2byte	0x4
 3522 0002 00       		.byte	0
 3523 0003 05       		.byte	0x5
 3524 0004 35       		.uleb128 0x35
 3525 0005 C79D0100 		.4byte	.LASF480
 3526 0009 05       		.byte	0x5
 3527 000a 41       		.uleb128 0x41
 3528 000b DD4C0100 		.4byte	.LASF481
 3529 000f 05       		.byte	0x5
 3530 0010 42       		.uleb128 0x42
 3531 0011 FFF60200 		.4byte	.LASF482
 3532 0015 05       		.byte	0x5
 3533 0016 43       		.uleb128 0x43
 3534 0017 73840300 		.4byte	.LASF483
ARM GAS  C:\Users\anashi\AppData\Local\Temp\ccVEwqOU.s 			page 63


 3535 001b 05       		.byte	0x5
 3536 001c 44       		.uleb128 0x44
 3537 001d AA7A0200 		.4byte	.LASF484
 3538 0021 00       		.byte	0
 3539              		.section	.debug_macro,"G",%progbits,wm4._newlib_version.h.4.875b979a44719054cd750d0952ad3fd6,comda
 3540              	.Ldebug_macro5:
 3541 0000 0400     		.2byte	0x4
 3542 0002 00       		.byte	0
 3543 0003 05       		.byte	0x5
 3544 0004 04       		.uleb128 0x4
 3545 0005 6E680300 		.4byte	.LASF489
 3546 0009 05       		.byte	0x5
 3547 000a 06       		.uleb128 0x6
 3548 000b EE160200 		.4byte	.LASF490
 3549 000f 05       		.byte	0x5
 3550 0010 07       		.uleb128 0x7
 3551 0011 08720200 		.4byte	.LASF491
 3552 0015 05       		.byte	0x5
 3553 0016 08       		.uleb128 0x8
 3554 0017 98270100 		.4byte	.LASF492
 3555 001b 05       		.byte	0x5
 3556 001c 09       		.uleb128 0x9
 3557 001d AE2E0300 		.4byte	.LASF493
 3558 0021 00       		.byte	0
 3559              		.section	.debug_macro,"G",%progbits,wm4.features.h.33.318b64d71e0957639cfb30f1db1f7ec8,comdat
 3560              	.Ldebug_macro6:
 3561 0000 0400     		.2byte	0x4
 3562 0002 00       		.byte	0
 3563 0003 05       		.byte	0x5
 3564 0004 21       		.uleb128 0x21
 3565 0005 F98E0200 		.4byte	.LASF494
 3566 0009 05       		.byte	0x5
 3567 000a 28       		.uleb128 0x28
 3568 000b BC560000 		.4byte	.LASF495
 3569 000f 06       		.byte	0x6
 3570 0010 8301     		.uleb128 0x83
 3571 0012 B5520400 		.4byte	.LASF496
 3572 0016 05       		.byte	0x5
 3573 0017 8401     		.uleb128 0x84
 3574 0019 EE620000 		.4byte	.LASF497
 3575 001d 06       		.byte	0x6
 3576 001e 8801     		.uleb128 0x88
 3577 0020 23A30200 		.4byte	.LASF498
 3578 0024 05       		.byte	0x5
 3579 0025 8901     		.uleb128 0x89
 3580 0027 DEF30100 		.4byte	.LASF499
 3581 002b 06       		.byte	0x6
 3582 002c 8A01     		.uleb128 0x8a
 3583 002e 14980100 		.4byte	.LASF500
 3584 0032 05       		.byte	0x5
 3585 0033 8B01     		.uleb128 0x8b
 3586 0035 0E380100 		.4byte	.LASF501
 3587 0039 06       		.byte	0x6
 3588 003a 9E01     		.uleb128 0x9e
 3589 003c 5A6E0200 		.4byte	.LASF502
 3590 0040 05       		.byte	0x5
 3591 0041 9F01     		.uleb128 0x9f
ARM GAS  C:\Users\anashi\AppData\Local\Temp\ccVEwqOU.s 			page 64


 3592 0043 808D0300 		.4byte	.LASF503
 3593 0047 05       		.byte	0x5
 3594 0048 F701     		.uleb128 0xf7
 3595 004a 60A50300 		.4byte	.LASF504
 3596 004e 05       		.byte	0x5
 3597 004f FD01     		.uleb128 0xfd
 3598 0051 45320300 		.4byte	.LASF505
 3599 0055 05       		.byte	0x5
 3600 0056 8502     		.uleb128 0x105
 3601 0058 3E3D0100 		.4byte	.LASF506
 3602 005c 05       		.byte	0x5
 3603 005d 8A02     		.uleb128 0x10a
 3604 005f BA710100 		.4byte	.LASF507
 3605 0063 05       		.byte	0x5
 3606 0064 9502     		.uleb128 0x115
 3607 0066 BA300200 		.4byte	.LASF508
 3608 006a 05       		.byte	0x5
 3609 006b 9902     		.uleb128 0x119
 3610 006d 60A40200 		.4byte	.LASF509
 3611 0071 05       		.byte	0x5
 3612 0072 9F02     		.uleb128 0x11f
 3613 0074 F0C30000 		.4byte	.LASF510
 3614 0078 05       		.byte	0x5
 3615 0079 AF02     		.uleb128 0x12f
 3616 007b 66DB0200 		.4byte	.LASF511
 3617 007f 05       		.byte	0x5
 3618 0080 BF02     		.uleb128 0x13f
 3619 0082 C2840100 		.4byte	.LASF512
 3620 0086 05       		.byte	0x5
 3621 0087 CA02     		.uleb128 0x14a
 3622 0089 153A0100 		.4byte	.LASF513
 3623 008d 00       		.byte	0
 3624              		.section	.debug_macro,"G",%progbits,wm4._default_types.h.15.247e5cd201eca3442cbf5404108c4935,comda
 3625              	.Ldebug_macro7:
 3626 0000 0400     		.2byte	0x4
 3627 0002 00       		.byte	0
 3628 0003 05       		.byte	0x5
 3629 0004 0F       		.uleb128 0xf
 3630 0005 325C0100 		.4byte	.LASF514
 3631 0009 05       		.byte	0x5
 3632 000a 1A       		.uleb128 0x1a
 3633 000b B9D60300 		.4byte	.LASF515
 3634 000f 05       		.byte	0x5
 3635 0010 21       		.uleb128 0x21
 3636 0011 7FA30200 		.4byte	.LASF516
 3637 0015 05       		.byte	0x5
 3638 0016 2F       		.uleb128 0x2f
 3639 0017 B8330000 		.4byte	.LASF517
 3640 001b 05       		.byte	0x5
 3641 001c 3D       		.uleb128 0x3d
 3642 001d D4250100 		.4byte	.LASF518
 3643 0021 05       		.byte	0x5
 3644 0022 53       		.uleb128 0x53
 3645 0023 64A00300 		.4byte	.LASF519
 3646 0027 05       		.byte	0x5
 3647 0028 6D       		.uleb128 0x6d
 3648 0029 57680100 		.4byte	.LASF520
ARM GAS  C:\Users\anashi\AppData\Local\Temp\ccVEwqOU.s 			page 65


 3649 002d 05       		.byte	0x5
 3650 002e 8C01     		.uleb128 0x8c
 3651 0030 021C0300 		.4byte	.LASF521
 3652 0034 05       		.byte	0x5
 3653 0035 A601     		.uleb128 0xa6
 3654 0037 07AD0200 		.4byte	.LASF522
 3655 003b 05       		.byte	0x5
 3656 003c BC01     		.uleb128 0xbc
 3657 003e 4CF40000 		.4byte	.LASF523
 3658 0042 05       		.byte	0x5
 3659 0043 CE01     		.uleb128 0xce
 3660 0045 5BD20200 		.4byte	.LASF524
 3661 0049 06       		.byte	0x6
 3662 004a F401     		.uleb128 0xf4
 3663 004c 545D0200 		.4byte	.LASF525
 3664 0050 00       		.byte	0
 3665              		.section	.debug_macro,"G",%progbits,wm4._intsup.h.10.cce27fed8484c08a33f522034c30d2b5,comdat
 3666              	.Ldebug_macro8:
 3667 0000 0400     		.2byte	0x4
 3668 0002 00       		.byte	0
 3669 0003 05       		.byte	0x5
 3670 0004 0A       		.uleb128 0xa
 3671 0005 22610300 		.4byte	.LASF526
 3672 0009 05       		.byte	0x5
 3673 000a 10       		.uleb128 0x10
 3674 000b 94150000 		.4byte	.LASF527
 3675 000f 06       		.byte	0x6
 3676 0010 2A       		.uleb128 0x2a
 3677 0011 240D0300 		.4byte	.LASF528
 3678 0015 06       		.byte	0x6
 3679 0016 2B       		.uleb128 0x2b
 3680 0017 DFCC0100 		.4byte	.LASF529
 3681 001b 06       		.byte	0x6
 3682 001c 2C       		.uleb128 0x2c
 3683 001d ADF70100 		.4byte	.LASF530
 3684 0021 06       		.byte	0x6
 3685 0022 2D       		.uleb128 0x2d
 3686 0023 32620200 		.4byte	.LASF531
 3687 0027 02       		.byte	0x2
 3688 0028 2E       		.uleb128 0x2e
 3689 0029 696E7400 		.ascii	"int\000"
 3690 002d 06       		.byte	0x6
 3691 002e 2F       		.uleb128 0x2f
 3692 002f A4490100 		.4byte	.LASF532
 3693 0033 06       		.byte	0x6
 3694 0034 30       		.uleb128 0x30
 3695 0035 31E40200 		.4byte	.LASF533
 3696 0039 05       		.byte	0x5
 3697 003a 31       		.uleb128 0x31
 3698 003b 4C190000 		.4byte	.LASF534
 3699 003f 05       		.byte	0x5
 3700 0040 32       		.uleb128 0x32
 3701 0041 EBB40200 		.4byte	.LASF535
 3702 0045 05       		.byte	0x5
 3703 0046 33       		.uleb128 0x33
 3704 0047 A8330300 		.4byte	.LASF536
 3705 004b 05       		.byte	0x5
ARM GAS  C:\Users\anashi\AppData\Local\Temp\ccVEwqOU.s 			page 66


 3706 004c 34       		.uleb128 0x34
 3707 004d E84F0200 		.4byte	.LASF537
 3708 0051 05       		.byte	0x5
 3709 0052 35       		.uleb128 0x35
 3710 0053 EF1F0400 		.4byte	.LASF538
 3711 0057 05       		.byte	0x5
 3712 0058 36       		.uleb128 0x36
 3713 0059 5CEF0200 		.4byte	.LASF539
 3714 005d 05       		.byte	0x5
 3715 005e 37       		.uleb128 0x37
 3716 005f 80EA0300 		.4byte	.LASF540
 3717 0063 05       		.byte	0x5
 3718 0064 40       		.uleb128 0x40
 3719 0065 A2D10200 		.4byte	.LASF541
 3720 0069 05       		.byte	0x5
 3721 006a 47       		.uleb128 0x47
 3722 006b 8F1B0400 		.4byte	.LASF542
 3723 006f 05       		.byte	0x5
 3724 0070 4F       		.uleb128 0x4f
 3725 0071 75730200 		.4byte	.LASF543
 3726 0075 05       		.byte	0x5
 3727 0076 5A       		.uleb128 0x5a
 3728 0077 98060300 		.4byte	.LASF544
 3729 007b 05       		.byte	0x5
 3730 007c 65       		.uleb128 0x65
 3731 007d A3140200 		.4byte	.LASF545
 3732 0081 05       		.byte	0x5
 3733 0082 6E       		.uleb128 0x6e
 3734 0083 524A0100 		.4byte	.LASF546
 3735 0087 05       		.byte	0x5
 3736 0088 75       		.uleb128 0x75
 3737 0089 57300400 		.4byte	.LASF547
 3738 008d 05       		.byte	0x5
 3739 008e 7E       		.uleb128 0x7e
 3740 008f 2EC70000 		.4byte	.LASF548
 3741 0093 05       		.byte	0x5
 3742 0094 8501     		.uleb128 0x85
 3743 0096 5F290300 		.4byte	.LASF549
 3744 009a 05       		.byte	0x5
 3745 009b 9001     		.uleb128 0x90
 3746 009d 058C0100 		.4byte	.LASF550
 3747 00a1 05       		.byte	0x5
 3748 00a2 9401     		.uleb128 0x94
 3749 00a4 918D0300 		.4byte	.LASF551
 3750 00a8 05       		.byte	0x5
 3751 00a9 9F01     		.uleb128 0x9f
 3752 00ab B2A20100 		.4byte	.LASF552
 3753 00af 05       		.byte	0x5
 3754 00b0 AA01     		.uleb128 0xaa
 3755 00b2 639A0000 		.4byte	.LASF553
 3756 00b6 05       		.byte	0x5
 3757 00b7 B301     		.uleb128 0xb3
 3758 00b9 A20E0300 		.4byte	.LASF554
 3759 00bd 06       		.byte	0x6
 3760 00be B501     		.uleb128 0xb5
 3761 00c0 240D0300 		.4byte	.LASF528
 3762 00c4 06       		.byte	0x6
ARM GAS  C:\Users\anashi\AppData\Local\Temp\ccVEwqOU.s 			page 67


 3763 00c5 B601     		.uleb128 0xb6
 3764 00c7 DFCC0100 		.4byte	.LASF529
 3765 00cb 06       		.byte	0x6
 3766 00cc B701     		.uleb128 0xb7
 3767 00ce ADF70100 		.4byte	.LASF530
 3768 00d2 06       		.byte	0x6
 3769 00d3 B801     		.uleb128 0xb8
 3770 00d5 32620200 		.4byte	.LASF531
 3771 00d9 02       		.byte	0x2
 3772 00da B901     		.uleb128 0xb9
 3773 00dc 696E7400 		.ascii	"int\000"
 3774 00e0 06       		.byte	0x6
 3775 00e1 BA01     		.uleb128 0xba
 3776 00e3 31E40200 		.4byte	.LASF533
 3777 00e7 06       		.byte	0x6
 3778 00e8 BF01     		.uleb128 0xbf
 3779 00ea A4490100 		.4byte	.LASF532
 3780 00ee 00       		.byte	0
 3781              		.section	.debug_macro,"G",%progbits,wm4._stdint.h.10.c24fa3af3bc1706662bb5593a907e841,comdat
 3782              	.Ldebug_macro9:
 3783 0000 0400     		.2byte	0x4
 3784 0002 00       		.byte	0
 3785 0003 05       		.byte	0x5
 3786 0004 0A       		.uleb128 0xa
 3787 0005 B98D0100 		.4byte	.LASF555
 3788 0009 05       		.byte	0x5
 3789 000a 15       		.uleb128 0x15
 3790 000b 1FE20100 		.4byte	.LASF556
 3791 000f 05       		.byte	0x5
 3792 0010 19       		.uleb128 0x19
 3793 0011 EB670100 		.4byte	.LASF557
 3794 0015 05       		.byte	0x5
 3795 0016 1B       		.uleb128 0x1b
 3796 0017 157E0300 		.4byte	.LASF558
 3797 001b 05       		.byte	0x5
 3798 001c 21       		.uleb128 0x21
 3799 001d 0C0B0400 		.4byte	.LASF559
 3800 0021 05       		.byte	0x5
 3801 0022 25       		.uleb128 0x25
 3802 0023 A4CC0100 		.4byte	.LASF560
 3803 0027 05       		.byte	0x5
 3804 0028 27       		.uleb128 0x27
 3805 0029 287E0300 		.4byte	.LASF561
 3806 002d 05       		.byte	0x5
 3807 002e 2D       		.uleb128 0x2d
 3808 002f 6D6B0200 		.4byte	.LASF562
 3809 0033 05       		.byte	0x5
 3810 0034 31       		.uleb128 0x31
 3811 0035 3F100000 		.4byte	.LASF563
 3812 0039 05       		.byte	0x5
 3813 003a 33       		.uleb128 0x33
 3814 003b E3D90100 		.4byte	.LASF564
 3815 003f 05       		.byte	0x5
 3816 0040 39       		.uleb128 0x39
 3817 0041 C7D90300 		.4byte	.LASF565
 3818 0045 05       		.byte	0x5
 3819 0046 3D       		.uleb128 0x3d
ARM GAS  C:\Users\anashi\AppData\Local\Temp\ccVEwqOU.s 			page 68


 3820 0047 2B140200 		.4byte	.LASF566
 3821 004b 05       		.byte	0x5
 3822 004c 3F       		.uleb128 0x3f
 3823 004d 21C60300 		.4byte	.LASF567
 3824 0051 05       		.byte	0x5
 3825 0052 44       		.uleb128 0x44
 3826 0053 382A0400 		.4byte	.LASF568
 3827 0057 05       		.byte	0x5
 3828 0058 49       		.uleb128 0x49
 3829 0059 F1B70200 		.4byte	.LASF569
 3830 005d 05       		.byte	0x5
 3831 005e 4E       		.uleb128 0x4e
 3832 005f 0F530000 		.4byte	.LASF570
 3833 0063 05       		.byte	0x5
 3834 0064 53       		.uleb128 0x53
 3835 0065 39080300 		.4byte	.LASF571
 3836 0069 00       		.byte	0
 3837              		.section	.debug_macro,"G",%progbits,wm4.stdint.h.23.d53047a68f4a85177f80b422d52785ed,comdat
 3838              	.Ldebug_macro10:
 3839 0000 0400     		.2byte	0x4
 3840 0002 00       		.byte	0
 3841 0003 05       		.byte	0x5
 3842 0004 17       		.uleb128 0x17
 3843 0005 7A060400 		.4byte	.LASF572
 3844 0009 05       		.byte	0x5
 3845 000a 1D       		.uleb128 0x1d
 3846 000b 4ABA0200 		.4byte	.LASF573
 3847 000f 05       		.byte	0x5
 3848 0010 23       		.uleb128 0x23
 3849 0011 D9000100 		.4byte	.LASF574
 3850 0015 05       		.byte	0x5
 3851 0016 29       		.uleb128 0x29
 3852 0017 C9F40200 		.4byte	.LASF575
 3853 001b 05       		.byte	0x5
 3854 001c 35       		.uleb128 0x35
 3855 001d 5C170300 		.4byte	.LASF576
 3856 0021 05       		.byte	0x5
 3857 0022 3F       		.uleb128 0x3f
 3858 0023 CD910300 		.4byte	.LASF577
 3859 0027 05       		.byte	0x5
 3860 0028 49       		.uleb128 0x49
 3861 0029 77E60100 		.4byte	.LASF578
 3862 002d 05       		.byte	0x5
 3863 002e 53       		.uleb128 0x53
 3864 002f 80CF0300 		.4byte	.LASF579
 3865 0033 05       		.byte	0x5
 3866 0034 8001     		.uleb128 0x80
 3867 0036 BBC90000 		.4byte	.LASF580
 3868 003a 05       		.byte	0x5
 3869 003b 8101     		.uleb128 0x81
 3870 003d 63FA0100 		.4byte	.LASF581
 3871 0041 05       		.byte	0x5
 3872 0042 8201     		.uleb128 0x82
 3873 0044 20670000 		.4byte	.LASF582
 3874 0048 05       		.byte	0x5
 3875 0049 9801     		.uleb128 0x98
 3876 004b 90220400 		.4byte	.LASF583
ARM GAS  C:\Users\anashi\AppData\Local\Temp\ccVEwqOU.s 			page 69


 3877 004f 05       		.byte	0x5
 3878 0050 9901     		.uleb128 0x99
 3879 0052 904E0200 		.4byte	.LASF584
 3880 0056 05       		.byte	0x5
 3881 0057 9A01     		.uleb128 0x9a
 3882 0059 65D20100 		.4byte	.LASF585
 3883 005d 05       		.byte	0x5
 3884 005e A201     		.uleb128 0xa2
 3885 0060 D5C10200 		.4byte	.LASF586
 3886 0064 05       		.byte	0x5
 3887 0065 A301     		.uleb128 0xa3
 3888 0067 35860200 		.4byte	.LASF587
 3889 006b 05       		.byte	0x5
 3890 006c A401     		.uleb128 0xa4
 3891 006e FFD60000 		.4byte	.LASF588
 3892 0072 05       		.byte	0x5
 3893 0073 AE01     		.uleb128 0xae
 3894 0075 9D560400 		.4byte	.LASF589
 3895 0079 05       		.byte	0x5
 3896 007a AF01     		.uleb128 0xaf
 3897 007c 04DA0000 		.4byte	.LASF590
 3898 0080 05       		.byte	0x5
 3899 0081 B001     		.uleb128 0xb0
 3900 0083 44FB0300 		.4byte	.LASF591
 3901 0087 05       		.byte	0x5
 3902 0088 B801     		.uleb128 0xb8
 3903 008a DC640200 		.4byte	.LASF592
 3904 008e 05       		.byte	0x5
 3905 008f B901     		.uleb128 0xb9
 3906 0091 91580000 		.4byte	.LASF593
 3907 0095 05       		.byte	0x5
 3908 0096 BA01     		.uleb128 0xba
 3909 0098 32FD0200 		.4byte	.LASF594
 3910 009c 05       		.byte	0x5
 3911 009d C401     		.uleb128 0xc4
 3912 009f 543B0100 		.4byte	.LASF595
 3913 00a3 05       		.byte	0x5
 3914 00a4 C501     		.uleb128 0xc5
 3915 00a6 A5F90100 		.4byte	.LASF596
 3916 00aa 05       		.byte	0x5
 3917 00ab C601     		.uleb128 0xc6
 3918 00ad F6070400 		.4byte	.LASF597
 3919 00b1 05       		.byte	0x5
 3920 00b2 D401     		.uleb128 0xd4
 3921 00b4 81200000 		.4byte	.LASF598
 3922 00b8 05       		.byte	0x5
 3923 00b9 D501     		.uleb128 0xd5
 3924 00bb A1C60200 		.4byte	.LASF599
 3925 00bf 05       		.byte	0x5
 3926 00c0 D601     		.uleb128 0xd6
 3927 00c2 66C20300 		.4byte	.LASF600
 3928 00c6 05       		.byte	0x5
 3929 00c7 E601     		.uleb128 0xe6
 3930 00c9 399A0300 		.4byte	.LASF601
 3931 00cd 05       		.byte	0x5
 3932 00ce E701     		.uleb128 0xe7
 3933 00d0 25460000 		.4byte	.LASF602
ARM GAS  C:\Users\anashi\AppData\Local\Temp\ccVEwqOU.s 			page 70


 3934 00d4 05       		.byte	0x5
 3935 00d5 E801     		.uleb128 0xe8
 3936 00d7 016C0000 		.4byte	.LASF603
 3937 00db 05       		.byte	0x5
 3938 00dc F601     		.uleb128 0xf6
 3939 00de 4C2A0400 		.4byte	.LASF604
 3940 00e2 05       		.byte	0x5
 3941 00e3 F701     		.uleb128 0xf7
 3942 00e5 CC1C0300 		.4byte	.LASF605
 3943 00e9 05       		.byte	0x5
 3944 00ea F801     		.uleb128 0xf8
 3945 00ec 88EA0300 		.4byte	.LASF606
 3946 00f0 05       		.byte	0x5
 3947 00f1 8602     		.uleb128 0x106
 3948 00f3 C70D0000 		.4byte	.LASF607
 3949 00f7 05       		.byte	0x5
 3950 00f8 8702     		.uleb128 0x107
 3951 00fa E4060100 		.4byte	.LASF608
 3952 00fe 05       		.byte	0x5
 3953 00ff 8802     		.uleb128 0x108
 3954 0101 60200400 		.4byte	.LASF609
 3955 0105 05       		.byte	0x5
 3956 0106 9602     		.uleb128 0x116
 3957 0108 12130000 		.4byte	.LASF610
 3958 010c 05       		.byte	0x5
 3959 010d 9702     		.uleb128 0x117
 3960 010f 553D0400 		.4byte	.LASF611
 3961 0113 05       		.byte	0x5
 3962 0114 9802     		.uleb128 0x118
 3963 0116 4F170000 		.4byte	.LASF612
 3964 011a 05       		.byte	0x5
 3965 011b A602     		.uleb128 0x126
 3966 011d 19FE0300 		.4byte	.LASF613
 3967 0121 05       		.byte	0x5
 3968 0122 A702     		.uleb128 0x127
 3969 0124 45970200 		.4byte	.LASF614
 3970 0128 05       		.byte	0x5
 3971 0129 A802     		.uleb128 0x128
 3972 012b F78B0200 		.4byte	.LASF615
 3973 012f 05       		.byte	0x5
 3974 0130 B602     		.uleb128 0x136
 3975 0132 D0B60000 		.4byte	.LASF616
 3976 0136 05       		.byte	0x5
 3977 0137 B702     		.uleb128 0x137
 3978 0139 CF3A0400 		.4byte	.LASF617
 3979 013d 05       		.byte	0x5
 3980 013e B802     		.uleb128 0x138
 3981 0140 8EE30200 		.4byte	.LASF618
 3982 0144 05       		.byte	0x5
 3983 0145 C602     		.uleb128 0x146
 3984 0147 CD5F0300 		.4byte	.LASF619
 3985 014b 05       		.byte	0x5
 3986 014c C702     		.uleb128 0x147
 3987 014e 76F40300 		.4byte	.LASF620
 3988 0152 05       		.byte	0x5
 3989 0153 CF02     		.uleb128 0x14f
 3990 0155 D6450000 		.4byte	.LASF621
ARM GAS  C:\Users\anashi\AppData\Local\Temp\ccVEwqOU.s 			page 71


 3991 0159 05       		.byte	0x5
 3992 015a D702     		.uleb128 0x157
 3993 015c 5C5E0000 		.4byte	.LASF622
 3994 0160 05       		.byte	0x5
 3995 0161 DD02     		.uleb128 0x15d
 3996 0163 AFA10200 		.4byte	.LASF623
 3997 0167 05       		.byte	0x5
 3998 0168 DE02     		.uleb128 0x15e
 3999 016a 34DB0300 		.4byte	.LASF624
 4000 016e 05       		.byte	0x5
 4001 016f E202     		.uleb128 0x162
 4002 0171 FCBD0200 		.4byte	.LASF625
 4003 0175 05       		.byte	0x5
 4004 0176 E602     		.uleb128 0x166
 4005 0178 42FF0300 		.4byte	.LASF626
 4006 017c 05       		.byte	0x5
 4007 017d EB02     		.uleb128 0x16b
 4008 017f 2C8E0200 		.4byte	.LASF627
 4009 0183 05       		.byte	0x5
 4010 0184 F602     		.uleb128 0x176
 4011 0186 0B510200 		.4byte	.LASF628
 4012 018a 05       		.byte	0x5
 4013 018b 8003     		.uleb128 0x180
 4014 018d 76EA0100 		.4byte	.LASF629
 4015 0191 05       		.byte	0x5
 4016 0192 8503     		.uleb128 0x185
 4017 0194 B9650300 		.4byte	.LASF630
 4018 0198 05       		.byte	0x5
 4019 0199 8C03     		.uleb128 0x18c
 4020 019b 6C5B0400 		.4byte	.LASF631
 4021 019f 05       		.byte	0x5
 4022 01a0 8D03     		.uleb128 0x18d
 4023 01a2 BC4F0400 		.4byte	.LASF632
 4024 01a6 05       		.byte	0x5
 4025 01a7 9803     		.uleb128 0x198
 4026 01a9 7C970300 		.4byte	.LASF633
 4027 01ad 05       		.byte	0x5
 4028 01ae 9903     		.uleb128 0x199
 4029 01b0 1C110300 		.4byte	.LASF634
 4030 01b4 05       		.byte	0x5
 4031 01b5 A403     		.uleb128 0x1a4
 4032 01b7 6F440100 		.4byte	.LASF635
 4033 01bb 05       		.byte	0x5
 4034 01bc A503     		.uleb128 0x1a5
 4035 01be 4A0C0300 		.4byte	.LASF636
 4036 01c2 05       		.byte	0x5
 4037 01c3 B103     		.uleb128 0x1b1
 4038 01c5 5DDB0000 		.4byte	.LASF637
 4039 01c9 05       		.byte	0x5
 4040 01ca B203     		.uleb128 0x1b2
 4041 01cc 96F80300 		.4byte	.LASF638
 4042 01d0 05       		.byte	0x5
 4043 01d1 C103     		.uleb128 0x1c1
 4044 01d3 7DE50000 		.4byte	.LASF639
 4045 01d7 05       		.byte	0x5
 4046 01d8 C203     		.uleb128 0x1c2
 4047 01da 3F210100 		.4byte	.LASF640
ARM GAS  C:\Users\anashi\AppData\Local\Temp\ccVEwqOU.s 			page 72


 4048 01de 00       		.byte	0
 4049              		.section	.debug_macro,"G",%progbits,wm4.core_cm0.h.74.a7f5ed9ff199b3163f5ed99892efe60d,comdat
 4050              	.Ldebug_macro11:
 4051 0000 0400     		.2byte	0x4
 4052 0002 00       		.byte	0
 4053 0003 05       		.byte	0x5
 4054 0004 4A       		.uleb128 0x4a
 4055 0005 2E0D0000 		.4byte	.LASF642
 4056 0009 05       		.byte	0x5
 4057 000a 4B       		.uleb128 0x4b
 4058 000b C7300300 		.4byte	.LASF643
 4059 000f 05       		.byte	0x5
 4060 0010 4C       		.uleb128 0x4c
 4061 0011 F7DB0100 		.4byte	.LASF644
 4062 0015 05       		.byte	0x5
 4063 0016 4F       		.uleb128 0x4f
 4064 0017 5D2E0000 		.4byte	.LASF645
 4065 001b 05       		.byte	0x5
 4066 001c 5D       		.uleb128 0x5d
 4067 001d 0B4C0400 		.4byte	.LASF646
 4068 0021 05       		.byte	0x5
 4069 0022 5E       		.uleb128 0x5e
 4070 0023 83860000 		.4byte	.LASF647
 4071 0027 05       		.byte	0x5
 4072 0028 5F       		.uleb128 0x5f
 4073 0029 82A30100 		.4byte	.LASF648
 4074 002d 05       		.byte	0x5
 4075 002e 7C       		.uleb128 0x7c
 4076 002f 4E530300 		.4byte	.LASF649
 4077 0033 00       		.byte	0
 4078              		.section	.debug_macro,"G",%progbits,wm4.cmsis_gcc.h.36.5bb14fd68ce7855540fcfe2d9305ae16,comdat
 4079              	.Ldebug_macro12:
 4080 0000 0400     		.2byte	0x4
 4081 0002 00       		.byte	0
 4082 0003 05       		.byte	0x5
 4083 0004 24       		.uleb128 0x24
 4084 0005 82A50200 		.4byte	.LASF651
 4085 0009 05       		.byte	0x5
 4086 000a EA02     		.uleb128 0x16a
 4087 000c 321A0200 		.4byte	.LASF652
 4088 0010 05       		.byte	0x5
 4089 0011 EB02     		.uleb128 0x16b
 4090 0013 3AFA0000 		.4byte	.LASF653
 4091 0017 05       		.byte	0x5
 4092 0018 8504     		.uleb128 0x205
 4093 001a 52090200 		.4byte	.LASF654
 4094 001e 05       		.byte	0x5
 4095 001f AA04     		.uleb128 0x22a
 4096 0021 B2720000 		.4byte	.LASF655
 4097 0025 00       		.byte	0
 4098              		.section	.debug_macro,"G",%progbits,wm4.core_cm0.h.175.2353140684a11cc8267b4125ac92735e,comdat
 4099              	.Ldebug_macro13:
 4100 0000 0400     		.2byte	0x4
 4101 0002 00       		.byte	0
 4102 0003 05       		.byte	0x5
 4103 0004 AF01     		.uleb128 0xaf
 4104 0006 F1510200 		.4byte	.LASF657
ARM GAS  C:\Users\anashi\AppData\Local\Temp\ccVEwqOU.s 			page 73


 4105 000a 05       		.byte	0x5
 4106 000b D201     		.uleb128 0xd2
 4107 000d 53170400 		.4byte	.LASF658
 4108 0011 05       		.byte	0x5
 4109 0012 D401     		.uleb128 0xd4
 4110 0014 6F450100 		.4byte	.LASF659
 4111 0018 05       		.byte	0x5
 4112 0019 D501     		.uleb128 0xd5
 4113 001b 0FA30300 		.4byte	.LASF660
 4114 001f 05       		.byte	0x5
 4115 0020 D801     		.uleb128 0xd8
 4116 0022 C9D20100 		.4byte	.LASF661
 4117 0026 05       		.byte	0x5
 4118 0027 D901     		.uleb128 0xd9
 4119 0029 35A80000 		.4byte	.LASF662
 4120 002d 05       		.byte	0x5
 4121 002e DA01     		.uleb128 0xda
 4122 0030 63AB0200 		.4byte	.LASF663
 4123 0034 05       		.byte	0x5
 4124 0035 8502     		.uleb128 0x105
 4125 0037 0FAF0200 		.4byte	.LASF664
 4126 003b 05       		.byte	0x5
 4127 003c 8602     		.uleb128 0x106
 4128 003e 7C080400 		.4byte	.LASF665
 4129 0042 05       		.byte	0x5
 4130 0043 8802     		.uleb128 0x108
 4131 0045 AC840300 		.4byte	.LASF666
 4132 0049 05       		.byte	0x5
 4133 004a 8902     		.uleb128 0x109
 4134 004c 2D2D0400 		.4byte	.LASF667
 4135 0050 05       		.byte	0x5
 4136 0051 8B02     		.uleb128 0x10b
 4137 0053 D5BC0300 		.4byte	.LASF668
 4138 0057 05       		.byte	0x5
 4139 0058 8C02     		.uleb128 0x10c
 4140 005a 95A20200 		.4byte	.LASF669
 4141 005e 05       		.byte	0x5
 4142 005f 8E02     		.uleb128 0x10e
 4143 0061 9EA20300 		.4byte	.LASF670
 4144 0065 05       		.byte	0x5
 4145 0066 8F02     		.uleb128 0x10f
 4146 0068 02210400 		.4byte	.LASF671
 4147 006c 05       		.byte	0x5
 4148 006d A002     		.uleb128 0x120
 4149 006f F61D0200 		.4byte	.LASF672
 4150 0073 05       		.byte	0x5
 4151 0074 A102     		.uleb128 0x121
 4152 0076 6B700400 		.4byte	.LASF673
 4153 007a 05       		.byte	0x5
 4154 007b B802     		.uleb128 0x138
 4155 007d 51F30000 		.4byte	.LASF674
 4156 0081 05       		.byte	0x5
 4157 0082 B902     		.uleb128 0x139
 4158 0084 6DCA0300 		.4byte	.LASF675
 4159 0088 05       		.byte	0x5
 4160 0089 BB02     		.uleb128 0x13b
 4161 008b 6D320400 		.4byte	.LASF676
ARM GAS  C:\Users\anashi\AppData\Local\Temp\ccVEwqOU.s 			page 74


 4162 008f 05       		.byte	0x5
 4163 0090 BC02     		.uleb128 0x13c
 4164 0092 DAEB0300 		.4byte	.LASF677
 4165 0096 05       		.byte	0x5
 4166 0097 BE02     		.uleb128 0x13e
 4167 0099 E8620400 		.4byte	.LASF678
 4168 009d 05       		.byte	0x5
 4169 009e BF02     		.uleb128 0x13f
 4170 00a0 A7D20000 		.4byte	.LASF679
 4171 00a4 05       		.byte	0x5
 4172 00a5 C102     		.uleb128 0x141
 4173 00a7 034D0400 		.4byte	.LASF680
 4174 00ab 05       		.byte	0x5
 4175 00ac C202     		.uleb128 0x142
 4176 00ae B8E00300 		.4byte	.LASF681
 4177 00b2 05       		.byte	0x5
 4178 00b3 C402     		.uleb128 0x144
 4179 00b5 DF2E0300 		.4byte	.LASF682
 4180 00b9 05       		.byte	0x5
 4181 00ba C502     		.uleb128 0x145
 4182 00bc 8EDA0300 		.4byte	.LASF683
 4183 00c0 05       		.byte	0x5
 4184 00c1 C702     		.uleb128 0x147
 4185 00c3 5D1C0100 		.4byte	.LASF684
 4186 00c7 05       		.byte	0x5
 4187 00c8 C802     		.uleb128 0x148
 4188 00ca F84A0400 		.4byte	.LASF685
 4189 00ce 05       		.byte	0x5
 4190 00cf DA02     		.uleb128 0x15a
 4191 00d1 8C550300 		.4byte	.LASF686
 4192 00d5 05       		.byte	0x5
 4193 00d6 DB02     		.uleb128 0x15b
 4194 00d8 0CE30300 		.4byte	.LASF687
 4195 00dc 05       		.byte	0x5
 4196 00dd 9303     		.uleb128 0x193
 4197 00df 2FA60200 		.4byte	.LASF688
 4198 00e3 05       		.byte	0x5
 4199 00e4 9403     		.uleb128 0x194
 4200 00e6 E23B0300 		.4byte	.LASF689
 4201 00ea 05       		.byte	0x5
 4202 00eb 9603     		.uleb128 0x196
 4203 00ed 28270400 		.4byte	.LASF690
 4204 00f1 05       		.byte	0x5
 4205 00f2 9703     		.uleb128 0x197
 4206 00f4 984F0000 		.4byte	.LASF691
 4207 00f8 05       		.byte	0x5
 4208 00f9 9903     		.uleb128 0x199
 4209 00fb 867D0200 		.4byte	.LASF692
 4210 00ff 05       		.byte	0x5
 4211 0100 9A03     		.uleb128 0x19a
 4212 0102 B3230100 		.4byte	.LASF693
 4213 0106 05       		.byte	0x5
 4214 0107 9C03     		.uleb128 0x19c
 4215 0109 AE6C0000 		.4byte	.LASF694
 4216 010d 05       		.byte	0x5
 4217 010e 9D03     		.uleb128 0x19d
 4218 0110 0DB90200 		.4byte	.LASF695
ARM GAS  C:\Users\anashi\AppData\Local\Temp\ccVEwqOU.s 			page 75


 4219 0114 05       		.byte	0x5
 4220 0115 9F03     		.uleb128 0x19f
 4221 0117 F7C40000 		.4byte	.LASF696
 4222 011b 05       		.byte	0x5
 4223 011c A003     		.uleb128 0x1a0
 4224 011e 731B0000 		.4byte	.LASF697
 4225 0122 05       		.byte	0x5
 4226 0123 A303     		.uleb128 0x1a3
 4227 0125 35660000 		.4byte	.LASF698
 4228 0129 05       		.byte	0x5
 4229 012a A403     		.uleb128 0x1a4
 4230 012c 2F7A0300 		.4byte	.LASF699
 4231 0130 05       		.byte	0x5
 4232 0131 A603     		.uleb128 0x1a6
 4233 0133 71760300 		.4byte	.LASF700
 4234 0137 05       		.byte	0x5
 4235 0138 A703     		.uleb128 0x1a7
 4236 013a A6C20200 		.4byte	.LASF701
 4237 013e 05       		.byte	0x5
 4238 013f A903     		.uleb128 0x1a9
 4239 0141 465D0400 		.4byte	.LASF702
 4240 0145 05       		.byte	0x5
 4241 0146 AA03     		.uleb128 0x1aa
 4242 0148 9F450000 		.4byte	.LASF703
 4243 014c 05       		.byte	0x5
 4244 014d AC03     		.uleb128 0x1ac
 4245 014f 92F80200 		.4byte	.LASF704
 4246 0153 05       		.byte	0x5
 4247 0154 AD03     		.uleb128 0x1ad
 4248 0156 12380000 		.4byte	.LASF705
 4249 015a 05       		.byte	0x5
 4250 015b AF03     		.uleb128 0x1af
 4251 015d 4CE80300 		.4byte	.LASF706
 4252 0161 05       		.byte	0x5
 4253 0162 B003     		.uleb128 0x1b0
 4254 0164 064F0200 		.4byte	.LASF707
 4255 0168 05       		.byte	0x5
 4256 0169 B203     		.uleb128 0x1b2
 4257 016b 6C5E0100 		.4byte	.LASF708
 4258 016f 05       		.byte	0x5
 4259 0170 B303     		.uleb128 0x1b3
 4260 0172 63EF0200 		.4byte	.LASF709
 4261 0176 05       		.byte	0x5
 4262 0177 B503     		.uleb128 0x1b5
 4263 0179 1D530400 		.4byte	.LASF710
 4264 017d 05       		.byte	0x5
 4265 017e B603     		.uleb128 0x1b6
 4266 0180 656F0100 		.4byte	.LASF711
 4267 0184 05       		.byte	0x5
 4268 0185 B803     		.uleb128 0x1b8
 4269 0187 0EC70300 		.4byte	.LASF712
 4270 018b 05       		.byte	0x5
 4271 018c B903     		.uleb128 0x1b9
 4272 018e 345C0300 		.4byte	.LASF713
 4273 0192 05       		.byte	0x5
 4274 0193 BB03     		.uleb128 0x1bb
 4275 0195 03250400 		.4byte	.LASF714
ARM GAS  C:\Users\anashi\AppData\Local\Temp\ccVEwqOU.s 			page 76


 4276 0199 05       		.byte	0x5
 4277 019a BC03     		.uleb128 0x1bc
 4278 019c 0F780000 		.4byte	.LASF715
 4279 01a0 05       		.byte	0x5
 4280 01a1 BF03     		.uleb128 0x1bf
 4281 01a3 74290400 		.4byte	.LASF716
 4282 01a7 05       		.byte	0x5
 4283 01a8 C003     		.uleb128 0x1c0
 4284 01aa 97DD0200 		.4byte	.LASF717
 4285 01ae 05       		.byte	0x5
 4286 01af C203     		.uleb128 0x1c2
 4287 01b1 D58C0300 		.4byte	.LASF718
 4288 01b5 05       		.byte	0x5
 4289 01b6 C303     		.uleb128 0x1c3
 4290 01b8 41860000 		.4byte	.LASF719
 4291 01bc 05       		.byte	0x5
 4292 01bd C503     		.uleb128 0x1c5
 4293 01bf 9C610200 		.4byte	.LASF720
 4294 01c3 05       		.byte	0x5
 4295 01c4 C603     		.uleb128 0x1c6
 4296 01c6 9C110100 		.4byte	.LASF721
 4297 01ca 05       		.byte	0x5
 4298 01cb C803     		.uleb128 0x1c8
 4299 01cd ED580100 		.4byte	.LASF722
 4300 01d1 05       		.byte	0x5
 4301 01d2 C903     		.uleb128 0x1c9
 4302 01d4 9AED0100 		.4byte	.LASF723
 4303 01d8 05       		.byte	0x5
 4304 01d9 CB03     		.uleb128 0x1cb
 4305 01db C5060400 		.4byte	.LASF724
 4306 01df 05       		.byte	0x5
 4307 01e0 CC03     		.uleb128 0x1cc
 4308 01e2 44C10100 		.4byte	.LASF725
 4309 01e6 05       		.byte	0x5
 4310 01e7 CF03     		.uleb128 0x1cf
 4311 01e9 51A20100 		.4byte	.LASF726
 4312 01ed 05       		.byte	0x5
 4313 01ee D003     		.uleb128 0x1d0
 4314 01f0 9AC50300 		.4byte	.LASF727
 4315 01f4 05       		.byte	0x5
 4316 01f5 D203     		.uleb128 0x1d2
 4317 01f7 64390000 		.4byte	.LASF728
 4318 01fb 05       		.byte	0x5
 4319 01fc D303     		.uleb128 0x1d3
 4320 01fe 03FC0200 		.4byte	.LASF729
 4321 0202 05       		.byte	0x5
 4322 0203 D503     		.uleb128 0x1d5
 4323 0205 08270000 		.4byte	.LASF730
 4324 0209 05       		.byte	0x5
 4325 020a D603     		.uleb128 0x1d6
 4326 020c D7160300 		.4byte	.LASF731
 4327 0210 05       		.byte	0x5
 4328 0211 D903     		.uleb128 0x1d9
 4329 0213 88050200 		.4byte	.LASF732
 4330 0217 05       		.byte	0x5
 4331 0218 DA03     		.uleb128 0x1da
 4332 021a 14B20000 		.4byte	.LASF733
ARM GAS  C:\Users\anashi\AppData\Local\Temp\ccVEwqOU.s 			page 77


 4333 021e 05       		.byte	0x5
 4334 021f DC03     		.uleb128 0x1dc
 4335 0221 3DC40000 		.4byte	.LASF734
 4336 0225 05       		.byte	0x5
 4337 0226 DD03     		.uleb128 0x1dd
 4338 0228 5F4A0100 		.4byte	.LASF735
 4339 022c 05       		.byte	0x5
 4340 022d E003     		.uleb128 0x1e0
 4341 022f 9B980200 		.4byte	.LASF736
 4342 0233 05       		.byte	0x5
 4343 0234 E103     		.uleb128 0x1e1
 4344 0236 1D010100 		.4byte	.LASF737
 4345 023a 05       		.byte	0x5
 4346 023b F903     		.uleb128 0x1f9
 4347 023d 9E120100 		.4byte	.LASF738
 4348 0241 05       		.byte	0x5
 4349 0242 FA03     		.uleb128 0x1fa
 4350 0244 BE6B0300 		.4byte	.LASF739
 4351 0248 05       		.byte	0x5
 4352 0249 FC03     		.uleb128 0x1fc
 4353 024b FE390400 		.4byte	.LASF740
 4354 024f 05       		.byte	0x5
 4355 0250 FD03     		.uleb128 0x1fd
 4356 0252 B6F00000 		.4byte	.LASF741
 4357 0256 05       		.byte	0x5
 4358 0257 FF03     		.uleb128 0x1ff
 4359 0259 CCFD0200 		.4byte	.LASF742
 4360 025d 05       		.byte	0x5
 4361 025e 8004     		.uleb128 0x200
 4362 0260 E3F40200 		.4byte	.LASF743
 4363 0264 05       		.byte	0x5
 4364 0265 8204     		.uleb128 0x202
 4365 0267 E4BC0300 		.4byte	.LASF744
 4366 026b 05       		.byte	0x5
 4367 026c 8304     		.uleb128 0x203
 4368 026e BF6B0100 		.4byte	.LASF745
 4369 0272 05       		.byte	0x5
 4370 0273 8604     		.uleb128 0x206
 4371 0275 B7860300 		.4byte	.LASF746
 4372 0279 05       		.byte	0x5
 4373 027a 8704     		.uleb128 0x207
 4374 027c 55690000 		.4byte	.LASF747
 4375 0280 05       		.byte	0x5
 4376 0281 8A04     		.uleb128 0x20a
 4377 0283 617E0200 		.4byte	.LASF748
 4378 0287 05       		.byte	0x5
 4379 0288 8B04     		.uleb128 0x20b
 4380 028a 3E5F0100 		.4byte	.LASF749
 4381 028e 05       		.byte	0x5
 4382 028f 8E04     		.uleb128 0x20e
 4383 0291 77BD0300 		.4byte	.LASF750
 4384 0295 05       		.byte	0x5
 4385 0296 8F04     		.uleb128 0x20f
 4386 0298 8FBA0000 		.4byte	.LASF751
 4387 029c 05       		.byte	0x5
 4388 029d 9104     		.uleb128 0x211
 4389 029f 7EEB0000 		.4byte	.LASF752
ARM GAS  C:\Users\anashi\AppData\Local\Temp\ccVEwqOU.s 			page 78


 4390 02a3 05       		.byte	0x5
 4391 02a4 9204     		.uleb128 0x212
 4392 02a6 5C590000 		.4byte	.LASF753
 4393 02aa 05       		.byte	0x5
 4394 02ab 9404     		.uleb128 0x214
 4395 02ad E4F20200 		.4byte	.LASF754
 4396 02b1 05       		.byte	0x5
 4397 02b2 9504     		.uleb128 0x215
 4398 02b4 53C70300 		.4byte	.LASF755
 4399 02b8 05       		.byte	0x5
 4400 02b9 B104     		.uleb128 0x231
 4401 02bb 0F1A0400 		.4byte	.LASF756
 4402 02bf 05       		.byte	0x5
 4403 02c0 B904     		.uleb128 0x239
 4404 02c2 6A210000 		.4byte	.LASF757
 4405 02c6 05       		.byte	0x5
 4406 02c7 C604     		.uleb128 0x246
 4407 02c9 EB5D0100 		.4byte	.LASF758
 4408 02cd 05       		.byte	0x5
 4409 02ce C704     		.uleb128 0x247
 4410 02d0 76070300 		.4byte	.LASF759
 4411 02d4 05       		.byte	0x5
 4412 02d5 C804     		.uleb128 0x248
 4413 02d7 76730300 		.4byte	.LASF760
 4414 02db 05       		.byte	0x5
 4415 02dc C904     		.uleb128 0x249
 4416 02de 7FF10100 		.4byte	.LASF761
 4417 02e2 05       		.byte	0x5
 4418 02e3 CB04     		.uleb128 0x24b
 4419 02e5 99270000 		.4byte	.LASF762
 4420 02e9 05       		.byte	0x5
 4421 02ea CC04     		.uleb128 0x24c
 4422 02ec B9440400 		.4byte	.LASF763
 4423 02f0 05       		.byte	0x5
 4424 02f1 CD04     		.uleb128 0x24d
 4425 02f3 4EC90000 		.4byte	.LASF764
 4426 02f7 05       		.byte	0x5
 4427 02f8 EB04     		.uleb128 0x26b
 4428 02fa C4FC0200 		.4byte	.LASF765
 4429 02fe 05       		.byte	0x5
 4430 02ff EC04     		.uleb128 0x26c
 4431 0301 9AA70100 		.4byte	.LASF766
 4432 0305 05       		.byte	0x5
 4433 0306 ED04     		.uleb128 0x26d
 4434 0308 03FA0000 		.4byte	.LASF767
 4435 030c 00       		.byte	0
 4436              		.section	.debug_macro,"G",%progbits,wm4.stm32f030x6.h.444.5cef16cdd77708130d1130ad24004e87,comdat
 4437              	.Ldebug_macro14:
 4438 0000 0400     		.2byte	0x4
 4439 0002 00       		.byte	0
 4440 0003 05       		.byte	0x5
 4441 0004 BC03     		.uleb128 0x1bc
 4442 0006 22D90100 		.4byte	.LASF769
 4443 000a 05       		.byte	0x5
 4444 000b BD03     		.uleb128 0x1bd
 4445 000d 07DD0200 		.4byte	.LASF770
 4446 0011 05       		.byte	0x5
ARM GAS  C:\Users\anashi\AppData\Local\Temp\ccVEwqOU.s 			page 79


 4447 0012 BE03     		.uleb128 0x1be
 4448 0014 C51E0300 		.4byte	.LASF771
 4449 0018 05       		.byte	0x5
 4450 0019 BF03     		.uleb128 0x1bf
 4451 001b A5AE0000 		.4byte	.LASF772
 4452 001f 05       		.byte	0x5
 4453 0020 C203     		.uleb128 0x1c2
 4454 0022 E3C80200 		.4byte	.LASF773
 4455 0026 05       		.byte	0x5
 4456 0027 C303     		.uleb128 0x1c3
 4457 0029 1A6B0300 		.4byte	.LASF774
 4458 002d 05       		.byte	0x5
 4459 002e C403     		.uleb128 0x1c4
 4460 0030 13EF0200 		.4byte	.LASF775
 4461 0034 05       		.byte	0x5
 4462 0035 C703     		.uleb128 0x1c7
 4463 0037 801E0000 		.4byte	.LASF776
 4464 003b 05       		.byte	0x5
 4465 003c C803     		.uleb128 0x1c8
 4466 003e B1EE0100 		.4byte	.LASF777
 4467 0042 05       		.byte	0x5
 4468 0043 C903     		.uleb128 0x1c9
 4469 0045 0B620200 		.4byte	.LASF778
 4470 0049 05       		.byte	0x5
 4471 004a CA03     		.uleb128 0x1ca
 4472 004c 00170100 		.4byte	.LASF779
 4473 0050 05       		.byte	0x5
 4474 0051 CB03     		.uleb128 0x1cb
 4475 0053 D2960000 		.4byte	.LASF780
 4476 0057 05       		.byte	0x5
 4477 0058 CC03     		.uleb128 0x1cc
 4478 005a 1DCA0000 		.4byte	.LASF781
 4479 005e 05       		.byte	0x5
 4480 005f CD03     		.uleb128 0x1cd
 4481 0061 ED260100 		.4byte	.LASF782
 4482 0065 05       		.byte	0x5
 4483 0066 CE03     		.uleb128 0x1ce
 4484 0068 CC270200 		.4byte	.LASF783
 4485 006c 05       		.byte	0x5
 4486 006d CF03     		.uleb128 0x1cf
 4487 006f A58B0200 		.4byte	.LASF784
 4488 0073 05       		.byte	0x5
 4489 0074 D003     		.uleb128 0x1d0
 4490 0076 DC0B0000 		.4byte	.LASF785
 4491 007a 05       		.byte	0x5
 4492 007b D103     		.uleb128 0x1d1
 4493 007d 283F0000 		.4byte	.LASF786
 4494 0081 05       		.byte	0x5
 4495 0082 D203     		.uleb128 0x1d2
 4496 0084 BCD00200 		.4byte	.LASF787
 4497 0088 05       		.byte	0x5
 4498 0089 D303     		.uleb128 0x1d3
 4499 008b 3DA40100 		.4byte	.LASF788
 4500 008f 05       		.byte	0x5
 4501 0090 D403     		.uleb128 0x1d4
 4502 0092 DF040400 		.4byte	.LASF789
 4503 0096 05       		.byte	0x5
ARM GAS  C:\Users\anashi\AppData\Local\Temp\ccVEwqOU.s 			page 80


 4504 0097 D503     		.uleb128 0x1d5
 4505 0099 A0F10200 		.4byte	.LASF790
 4506 009d 05       		.byte	0x5
 4507 009e D603     		.uleb128 0x1d6
 4508 00a0 DFD80200 		.4byte	.LASF791
 4509 00a4 05       		.byte	0x5
 4510 00a5 D703     		.uleb128 0x1d7
 4511 00a7 F1E30200 		.4byte	.LASF792
 4512 00ab 05       		.byte	0x5
 4513 00ac DA03     		.uleb128 0x1da
 4514 00ae CD320300 		.4byte	.LASF793
 4515 00b2 05       		.byte	0x5
 4516 00b3 DB03     		.uleb128 0x1db
 4517 00b5 5C330100 		.4byte	.LASF794
 4518 00b9 05       		.byte	0x5
 4519 00ba DC03     		.uleb128 0x1dc
 4520 00bc 5AF00200 		.4byte	.LASF795
 4521 00c0 05       		.byte	0x5
 4522 00c1 DD03     		.uleb128 0x1dd
 4523 00c3 12EA0000 		.4byte	.LASF796
 4524 00c7 05       		.byte	0x5
 4525 00c8 DE03     		.uleb128 0x1de
 4526 00ca C5940200 		.4byte	.LASF797
 4527 00ce 05       		.byte	0x5
 4528 00cf DF03     		.uleb128 0x1df
 4529 00d1 F3320400 		.4byte	.LASF798
 4530 00d5 05       		.byte	0x5
 4531 00d6 E103     		.uleb128 0x1e1
 4532 00d8 63A30000 		.4byte	.LASF799
 4533 00dc 05       		.byte	0x5
 4534 00dd E203     		.uleb128 0x1e2
 4535 00df 24130100 		.4byte	.LASF800
 4536 00e3 05       		.byte	0x5
 4537 00e4 E303     		.uleb128 0x1e3
 4538 00e6 C5220000 		.4byte	.LASF801
 4539 00ea 05       		.byte	0x5
 4540 00eb E403     		.uleb128 0x1e4
 4541 00ed F6670000 		.4byte	.LASF802
 4542 00f1 05       		.byte	0x5
 4543 00f2 E503     		.uleb128 0x1e5
 4544 00f4 BBD30100 		.4byte	.LASF803
 4545 00f8 05       		.byte	0x5
 4546 00f9 E603     		.uleb128 0x1e6
 4547 00fb 09520200 		.4byte	.LASF804
 4548 00ff 05       		.byte	0x5
 4549 0100 E903     		.uleb128 0x1e9
 4550 0102 A9E30100 		.4byte	.LASF805
 4551 0106 05       		.byte	0x5
 4552 0107 EA03     		.uleb128 0x1ea
 4553 0109 8B1B0200 		.4byte	.LASF806
 4554 010d 05       		.byte	0x5
 4555 010e EB03     		.uleb128 0x1eb
 4556 0110 D3520200 		.4byte	.LASF807
 4557 0114 05       		.byte	0x5
 4558 0115 EC03     		.uleb128 0x1ec
 4559 0117 C1540000 		.4byte	.LASF808
 4560 011b 05       		.byte	0x5
ARM GAS  C:\Users\anashi\AppData\Local\Temp\ccVEwqOU.s 			page 81


 4561 011c ED03     		.uleb128 0x1ed
 4562 011e 031B0000 		.4byte	.LASF809
 4563 0122 05       		.byte	0x5
 4564 0123 F703     		.uleb128 0x1f7
 4565 0125 EF450100 		.4byte	.LASF810
 4566 0129 05       		.byte	0x5
 4567 012a F803     		.uleb128 0x1f8
 4568 012c 3C380400 		.4byte	.LASF811
 4569 0130 05       		.byte	0x5
 4570 0131 F903     		.uleb128 0x1f9
 4571 0133 CE260100 		.4byte	.LASF812
 4572 0137 05       		.byte	0x5
 4573 0138 FA03     		.uleb128 0x1fa
 4574 013a 16040300 		.4byte	.LASF813
 4575 013e 05       		.byte	0x5
 4576 013f FB03     		.uleb128 0x1fb
 4577 0141 24260100 		.4byte	.LASF814
 4578 0145 05       		.byte	0x5
 4579 0146 FC03     		.uleb128 0x1fc
 4580 0148 C2120200 		.4byte	.LASF815
 4581 014c 05       		.byte	0x5
 4582 014d FD03     		.uleb128 0x1fd
 4583 014f 26670100 		.4byte	.LASF816
 4584 0153 05       		.byte	0x5
 4585 0154 FE03     		.uleb128 0x1fe
 4586 0156 861D0100 		.4byte	.LASF817
 4587 015a 05       		.byte	0x5
 4588 015b FF03     		.uleb128 0x1ff
 4589 015d 293F0200 		.4byte	.LASF818
 4590 0161 05       		.byte	0x5
 4591 0162 8004     		.uleb128 0x200
 4592 0164 707B0100 		.4byte	.LASF819
 4593 0168 05       		.byte	0x5
 4594 0169 8104     		.uleb128 0x201
 4595 016b BCD60100 		.4byte	.LASF820
 4596 016f 05       		.byte	0x5
 4597 0170 8204     		.uleb128 0x202
 4598 0172 92460000 		.4byte	.LASF821
 4599 0176 05       		.byte	0x5
 4600 0177 8304     		.uleb128 0x203
 4601 0179 5C530200 		.4byte	.LASF822
 4602 017d 05       		.byte	0x5
 4603 017e 8404     		.uleb128 0x204
 4604 0180 BA1B0300 		.4byte	.LASF823
 4605 0184 05       		.byte	0x5
 4606 0185 8504     		.uleb128 0x205
 4607 0187 5AFB0100 		.4byte	.LASF824
 4608 018b 05       		.byte	0x5
 4609 018c 8604     		.uleb128 0x206
 4610 018e 0AAF0100 		.4byte	.LASF825
 4611 0192 05       		.byte	0x5
 4612 0193 8704     		.uleb128 0x207
 4613 0195 92D00300 		.4byte	.LASF826
 4614 0199 05       		.byte	0x5
 4615 019a 8804     		.uleb128 0x208
 4616 019c 656A0200 		.4byte	.LASF827
 4617 01a0 05       		.byte	0x5
ARM GAS  C:\Users\anashi\AppData\Local\Temp\ccVEwqOU.s 			page 82


 4618 01a1 8904     		.uleb128 0x209
 4619 01a3 E21F0300 		.4byte	.LASF828
 4620 01a7 05       		.byte	0x5
 4621 01a8 8A04     		.uleb128 0x20a
 4622 01aa E6280300 		.4byte	.LASF829
 4623 01ae 05       		.byte	0x5
 4624 01af 8B04     		.uleb128 0x20b
 4625 01b1 03D80100 		.4byte	.LASF830
 4626 01b5 05       		.byte	0x5
 4627 01b6 8C04     		.uleb128 0x20c
 4628 01b8 13750000 		.4byte	.LASF831
 4629 01bc 05       		.byte	0x5
 4630 01bd 8D04     		.uleb128 0x20d
 4631 01bf 46F40100 		.4byte	.LASF832
 4632 01c3 05       		.byte	0x5
 4633 01c4 8E04     		.uleb128 0x20e
 4634 01c6 52440200 		.4byte	.LASF833
 4635 01ca 05       		.byte	0x5
 4636 01cb 8F04     		.uleb128 0x20f
 4637 01cd C8450100 		.4byte	.LASF834
 4638 01d1 05       		.byte	0x5
 4639 01d2 9004     		.uleb128 0x210
 4640 01d4 86A10300 		.4byte	.LASF835
 4641 01d8 05       		.byte	0x5
 4642 01d9 9104     		.uleb128 0x211
 4643 01db 6B7A0100 		.4byte	.LASF836
 4644 01df 05       		.byte	0x5
 4645 01e0 9204     		.uleb128 0x212
 4646 01e2 E9260000 		.4byte	.LASF837
 4647 01e6 05       		.byte	0x5
 4648 01e7 9304     		.uleb128 0x213
 4649 01e9 A1600300 		.4byte	.LASF838
 4650 01ed 05       		.byte	0x5
 4651 01ee 9404     		.uleb128 0x214
 4652 01f0 A81C0300 		.4byte	.LASF839
 4653 01f4 05       		.byte	0x5
 4654 01f5 9504     		.uleb128 0x215
 4655 01f7 5AF60000 		.4byte	.LASF840
 4656 01fb 05       		.byte	0x5
 4657 01fc 9604     		.uleb128 0x216
 4658 01fe FC440300 		.4byte	.LASF841
 4659 0202 05       		.byte	0x5
 4660 0203 9704     		.uleb128 0x217
 4661 0205 2C910100 		.4byte	.LASF842
 4662 0209 05       		.byte	0x5
 4663 020a B404     		.uleb128 0x234
 4664 020c 1B460400 		.4byte	.LASF843
 4665 0210 05       		.byte	0x5
 4666 0211 B504     		.uleb128 0x235
 4667 0213 B22F0300 		.4byte	.LASF844
 4668 0217 05       		.byte	0x5
 4669 0218 B604     		.uleb128 0x236
 4670 021a 5BD70300 		.4byte	.LASF845
 4671 021e 05       		.byte	0x5
 4672 021f B704     		.uleb128 0x237
 4673 0221 20900200 		.4byte	.LASF846
 4674 0225 05       		.byte	0x5
ARM GAS  C:\Users\anashi\AppData\Local\Temp\ccVEwqOU.s 			page 83


 4675 0226 B804     		.uleb128 0x238
 4676 0228 0F240300 		.4byte	.LASF847
 4677 022c 05       		.byte	0x5
 4678 022d B904     		.uleb128 0x239
 4679 022f E5050200 		.4byte	.LASF848
 4680 0233 05       		.byte	0x5
 4681 0234 BA04     		.uleb128 0x23a
 4682 0236 58600100 		.4byte	.LASF849
 4683 023a 05       		.byte	0x5
 4684 023b BB04     		.uleb128 0x23b
 4685 023d 787A0000 		.4byte	.LASF850
 4686 0241 05       		.byte	0x5
 4687 0242 BC04     		.uleb128 0x23c
 4688 0244 0EDB0100 		.4byte	.LASF851
 4689 0248 05       		.byte	0x5
 4690 0249 BD04     		.uleb128 0x23d
 4691 024b 25A40000 		.4byte	.LASF852
 4692 024f 05       		.byte	0x5
 4693 0250 BE04     		.uleb128 0x23e
 4694 0252 A2FD0100 		.4byte	.LASF853
 4695 0256 05       		.byte	0x5
 4696 0257 BF04     		.uleb128 0x23f
 4697 0259 702B0100 		.4byte	.LASF854
 4698 025d 05       		.byte	0x5
 4699 025e C004     		.uleb128 0x240
 4700 0260 9F1E0200 		.4byte	.LASF855
 4701 0264 05       		.byte	0x5
 4702 0265 C104     		.uleb128 0x241
 4703 0267 EB1B0200 		.4byte	.LASF856
 4704 026b 05       		.byte	0x5
 4705 026c C204     		.uleb128 0x242
 4706 026e FEAB0000 		.4byte	.LASF857
 4707 0272 05       		.byte	0x5
 4708 0273 C304     		.uleb128 0x243
 4709 0275 73270400 		.4byte	.LASF858
 4710 0279 05       		.byte	0x5
 4711 027a C404     		.uleb128 0x244
 4712 027c 7C420400 		.4byte	.LASF859
 4713 0280 05       		.byte	0x5
 4714 0281 C504     		.uleb128 0x245
 4715 0283 CCE70300 		.4byte	.LASF860
 4716 0287 05       		.byte	0x5
 4717 0288 C804     		.uleb128 0x248
 4718 028a 85610300 		.4byte	.LASF861
 4719 028e 05       		.byte	0x5
 4720 028f C904     		.uleb128 0x249
 4721 0291 87510200 		.4byte	.LASF862
 4722 0295 05       		.byte	0x5
 4723 0296 CC04     		.uleb128 0x24c
 4724 0298 1F3F0400 		.4byte	.LASF863
 4725 029c 05       		.byte	0x5
 4726 029d CD04     		.uleb128 0x24d
 4727 029f B1170200 		.4byte	.LASF864
 4728 02a3 05       		.byte	0x5
 4729 02a4 CE04     		.uleb128 0x24e
 4730 02a6 3D2F0300 		.4byte	.LASF865
 4731 02aa 05       		.byte	0x5
ARM GAS  C:\Users\anashi\AppData\Local\Temp\ccVEwqOU.s 			page 84


 4732 02ab CF04     		.uleb128 0x24f
 4733 02ad 3A6D0100 		.4byte	.LASF866
 4734 02b1 05       		.byte	0x5
 4735 02b2 D004     		.uleb128 0x250
 4736 02b4 DEB60200 		.4byte	.LASF867
 4737 02b8 05       		.byte	0x5
 4738 02b9 D104     		.uleb128 0x251
 4739 02bb 07590400 		.4byte	.LASF868
 4740 02bf 05       		.byte	0x5
 4741 02c0 D204     		.uleb128 0x252
 4742 02c2 CB130000 		.4byte	.LASF869
 4743 02c6 05       		.byte	0x5
 4744 02c7 D304     		.uleb128 0x253
 4745 02c9 93E10000 		.4byte	.LASF870
 4746 02cd 05       		.byte	0x5
 4747 02ce D404     		.uleb128 0x254
 4748 02d0 16F70100 		.4byte	.LASF871
 4749 02d4 05       		.byte	0x5
 4750 02d5 D504     		.uleb128 0x255
 4751 02d7 24CC0200 		.4byte	.LASF872
 4752 02db 05       		.byte	0x5
 4753 02dc D604     		.uleb128 0x256
 4754 02de 8E500400 		.4byte	.LASF873
 4755 02e2 05       		.byte	0x5
 4756 02e3 D704     		.uleb128 0x257
 4757 02e5 3E330400 		.4byte	.LASF874
 4758 02e9 05       		.byte	0x5
 4759 02ea D804     		.uleb128 0x258
 4760 02ec 9EB90000 		.4byte	.LASF875
 4761 02f0 05       		.byte	0x5
 4762 02f1 D904     		.uleb128 0x259
 4763 02f3 887A0300 		.4byte	.LASF876
 4764 02f7 05       		.byte	0x5
 4765 02f8 DA04     		.uleb128 0x25a
 4766 02fa 7A040000 		.4byte	.LASF877
 4767 02fe 05       		.byte	0x5
 4768 02ff DB04     		.uleb128 0x25b
 4769 0301 36FC0100 		.4byte	.LASF878
 4770 0305 05       		.byte	0x5
 4771 0306 DC04     		.uleb128 0x25c
 4772 0308 09060100 		.4byte	.LASF879
 4773 030c 05       		.byte	0x5
 4774 030d DD04     		.uleb128 0x25d
 4775 030f CE110200 		.4byte	.LASF880
 4776 0313 05       		.byte	0x5
 4777 0314 E004     		.uleb128 0x260
 4778 0316 D4930300 		.4byte	.LASF881
 4779 031a 05       		.byte	0x5
 4780 031b E104     		.uleb128 0x261
 4781 031d 84660000 		.4byte	.LASF882
 4782 0321 05       		.byte	0x5
 4783 0322 E404     		.uleb128 0x264
 4784 0324 09050400 		.4byte	.LASF883
 4785 0328 05       		.byte	0x5
 4786 0329 E504     		.uleb128 0x265
 4787 032b FF140300 		.4byte	.LASF884
 4788 032f 05       		.byte	0x5
ARM GAS  C:\Users\anashi\AppData\Local\Temp\ccVEwqOU.s 			page 85


 4789 0330 E604     		.uleb128 0x266
 4790 0332 F3B40100 		.4byte	.LASF885
 4791 0336 05       		.byte	0x5
 4792 0337 E704     		.uleb128 0x267
 4793 0339 917B0300 		.4byte	.LASF886
 4794 033d 05       		.byte	0x5
 4795 033e E804     		.uleb128 0x268
 4796 0340 3CAE0200 		.4byte	.LASF887
 4797 0344 05       		.byte	0x5
 4798 0345 E904     		.uleb128 0x269
 4799 0347 18FE0200 		.4byte	.LASF888
 4800 034b 05       		.byte	0x5
 4801 034c EA04     		.uleb128 0x26a
 4802 034e B1960200 		.4byte	.LASF889
 4803 0352 05       		.byte	0x5
 4804 0353 EB04     		.uleb128 0x26b
 4805 0355 4DA60200 		.4byte	.LASF890
 4806 0359 05       		.byte	0x5
 4807 035a EC04     		.uleb128 0x26c
 4808 035c 77E30300 		.4byte	.LASF891
 4809 0360 05       		.byte	0x5
 4810 0361 ED04     		.uleb128 0x26d
 4811 0363 02520100 		.4byte	.LASF892
 4812 0367 05       		.byte	0x5
 4813 0368 EE04     		.uleb128 0x26e
 4814 036a 32140000 		.4byte	.LASF893
 4815 036e 05       		.byte	0x5
 4816 036f EF04     		.uleb128 0x26f
 4817 0371 30060000 		.4byte	.LASF894
 4818 0375 05       		.byte	0x5
 4819 0376 F004     		.uleb128 0x270
 4820 0378 2D6F0100 		.4byte	.LASF895
 4821 037c 05       		.byte	0x5
 4822 037d F104     		.uleb128 0x271
 4823 037f A0430400 		.4byte	.LASF896
 4824 0383 05       		.byte	0x5
 4825 0384 F204     		.uleb128 0x272
 4826 0386 4B2D0300 		.4byte	.LASF897
 4827 038a 05       		.byte	0x5
 4828 038b F504     		.uleb128 0x275
 4829 038d 3CCB0200 		.4byte	.LASF898
 4830 0391 05       		.byte	0x5
 4831 0392 F604     		.uleb128 0x276
 4832 0394 D1D90200 		.4byte	.LASF899
 4833 0398 05       		.byte	0x5
 4834 0399 F704     		.uleb128 0x277
 4835 039b 1E6E0400 		.4byte	.LASF900
 4836 039f 05       		.byte	0x5
 4837 03a0 F804     		.uleb128 0x278
 4838 03a2 4E690100 		.4byte	.LASF901
 4839 03a6 05       		.byte	0x5
 4840 03a7 F904     		.uleb128 0x279
 4841 03a9 D6F90200 		.4byte	.LASF902
 4842 03ad 05       		.byte	0x5
 4843 03ae FA04     		.uleb128 0x27a
 4844 03b0 205D0400 		.4byte	.LASF903
 4845 03b4 05       		.byte	0x5
ARM GAS  C:\Users\anashi\AppData\Local\Temp\ccVEwqOU.s 			page 86


 4846 03b5 FB04     		.uleb128 0x27b
 4847 03b7 49A00300 		.4byte	.LASF904
 4848 03bb 05       		.byte	0x5
 4849 03bc FC04     		.uleb128 0x27c
 4850 03be 3DEE0300 		.4byte	.LASF905
 4851 03c2 05       		.byte	0x5
 4852 03c3 FD04     		.uleb128 0x27d
 4853 03c5 168A0000 		.4byte	.LASF906
 4854 03c9 05       		.byte	0x5
 4855 03ca FF04     		.uleb128 0x27f
 4856 03cc 5E400100 		.4byte	.LASF907
 4857 03d0 05       		.byte	0x5
 4858 03d1 8005     		.uleb128 0x280
 4859 03d3 3A4A0000 		.4byte	.LASF908
 4860 03d7 05       		.byte	0x5
 4861 03d8 8105     		.uleb128 0x281
 4862 03da D26A0000 		.4byte	.LASF909
 4863 03de 05       		.byte	0x5
 4864 03df 8205     		.uleb128 0x282
 4865 03e1 10BF0100 		.4byte	.LASF910
 4866 03e5 05       		.byte	0x5
 4867 03e6 8305     		.uleb128 0x283
 4868 03e8 CA550400 		.4byte	.LASF911
 4869 03ec 05       		.byte	0x5
 4870 03ed 8505     		.uleb128 0x285
 4871 03ef 8DD70100 		.4byte	.LASF912
 4872 03f3 05       		.byte	0x5
 4873 03f4 8605     		.uleb128 0x286
 4874 03f6 6F130000 		.4byte	.LASF913
 4875 03fa 05       		.byte	0x5
 4876 03fb 8705     		.uleb128 0x287
 4877 03fd EDF20000 		.4byte	.LASF914
 4878 0401 05       		.byte	0x5
 4879 0402 8905     		.uleb128 0x289
 4880 0404 3D530000 		.4byte	.LASF915
 4881 0408 05       		.byte	0x5
 4882 0409 8A05     		.uleb128 0x28a
 4883 040b 414E0000 		.4byte	.LASF916
 4884 040f 05       		.byte	0x5
 4885 0410 8B05     		.uleb128 0x28b
 4886 0412 36110300 		.4byte	.LASF917
 4887 0416 05       		.byte	0x5
 4888 0417 8C05     		.uleb128 0x28c
 4889 0419 41280100 		.4byte	.LASF918
 4890 041d 05       		.byte	0x5
 4891 041e 8D05     		.uleb128 0x28d
 4892 0420 D1F90000 		.4byte	.LASF919
 4893 0424 05       		.byte	0x5
 4894 0425 8E05     		.uleb128 0x28e
 4895 0427 57770000 		.4byte	.LASF920
 4896 042b 05       		.byte	0x5
 4897 042c 9005     		.uleb128 0x290
 4898 042e 844A0000 		.4byte	.LASF921
 4899 0432 05       		.byte	0x5
 4900 0433 9105     		.uleb128 0x291
 4901 0435 E85D0400 		.4byte	.LASF922
 4902 0439 05       		.byte	0x5
ARM GAS  C:\Users\anashi\AppData\Local\Temp\ccVEwqOU.s 			page 87


 4903 043a 9205     		.uleb128 0x292
 4904 043c 44B90200 		.4byte	.LASF923
 4905 0440 05       		.byte	0x5
 4906 0441 9305     		.uleb128 0x293
 4907 0443 42380200 		.4byte	.LASF924
 4908 0447 05       		.byte	0x5
 4909 0448 9405     		.uleb128 0x294
 4910 044a 70870000 		.4byte	.LASF925
 4911 044e 05       		.byte	0x5
 4912 044f 9605     		.uleb128 0x296
 4913 0451 696E0200 		.4byte	.LASF926
 4914 0455 05       		.byte	0x5
 4915 0456 9705     		.uleb128 0x297
 4916 0458 83960000 		.4byte	.LASF927
 4917 045c 05       		.byte	0x5
 4918 045d 9805     		.uleb128 0x298
 4919 045f 68B90200 		.4byte	.LASF928
 4920 0463 05       		.byte	0x5
 4921 0464 9905     		.uleb128 0x299
 4922 0466 6FF00100 		.4byte	.LASF929
 4923 046a 05       		.byte	0x5
 4924 046b 9A05     		.uleb128 0x29a
 4925 046d C29D0300 		.4byte	.LASF930
 4926 0471 05       		.byte	0x5
 4927 0472 9B05     		.uleb128 0x29b
 4928 0474 E3150100 		.4byte	.LASF931
 4929 0478 05       		.byte	0x5
 4930 0479 9C05     		.uleb128 0x29c
 4931 047b A4060300 		.4byte	.LASF932
 4932 047f 05       		.byte	0x5
 4933 0480 9D05     		.uleb128 0x29d
 4934 0482 0DF50000 		.4byte	.LASF933
 4935 0486 05       		.byte	0x5
 4936 0487 9E05     		.uleb128 0x29e
 4937 0489 5D080100 		.4byte	.LASF934
 4938 048d 05       		.byte	0x5
 4939 048e 9F05     		.uleb128 0x29f
 4940 0490 10700400 		.4byte	.LASF935
 4941 0494 05       		.byte	0x5
 4942 0495 A005     		.uleb128 0x2a0
 4943 0497 45FB0000 		.4byte	.LASF936
 4944 049b 05       		.byte	0x5
 4945 049c A105     		.uleb128 0x2a1
 4946 049e 9DD80100 		.4byte	.LASF937
 4947 04a2 05       		.byte	0x5
 4948 04a3 A205     		.uleb128 0x2a2
 4949 04a5 FE4E0300 		.4byte	.LASF938
 4950 04a9 05       		.byte	0x5
 4951 04aa A305     		.uleb128 0x2a3
 4952 04ac A1140400 		.4byte	.LASF939
 4953 04b0 05       		.byte	0x5
 4954 04b1 A405     		.uleb128 0x2a4
 4955 04b3 0ED00200 		.4byte	.LASF940
 4956 04b7 05       		.byte	0x5
 4957 04b8 A605     		.uleb128 0x2a6
 4958 04ba 34160100 		.4byte	.LASF941
 4959 04be 05       		.byte	0x5
ARM GAS  C:\Users\anashi\AppData\Local\Temp\ccVEwqOU.s 			page 88


 4960 04bf A705     		.uleb128 0x2a7
 4961 04c1 B5B90000 		.4byte	.LASF942
 4962 04c5 05       		.byte	0x5
 4963 04c6 A805     		.uleb128 0x2a8
 4964 04c8 1AE00200 		.4byte	.LASF943
 4965 04cc 05       		.byte	0x5
 4966 04cd A905     		.uleb128 0x2a9
 4967 04cf 74030200 		.4byte	.LASF944
 4968 04d3 05       		.byte	0x5
 4969 04d4 AA05     		.uleb128 0x2aa
 4970 04d6 49E50000 		.4byte	.LASF945
 4971 04da 05       		.byte	0x5
 4972 04db AB05     		.uleb128 0x2ab
 4973 04dd E9490100 		.4byte	.LASF946
 4974 04e1 05       		.byte	0x5
 4975 04e2 AD05     		.uleb128 0x2ad
 4976 04e4 3C470200 		.4byte	.LASF947
 4977 04e8 05       		.byte	0x5
 4978 04e9 AE05     		.uleb128 0x2ae
 4979 04eb A89F0200 		.4byte	.LASF948
 4980 04ef 05       		.byte	0x5
 4981 04f0 AF05     		.uleb128 0x2af
 4982 04f2 E86B0100 		.4byte	.LASF949
 4983 04f6 05       		.byte	0x5
 4984 04f7 B005     		.uleb128 0x2b0
 4985 04f9 C6D20000 		.4byte	.LASF950
 4986 04fd 05       		.byte	0x5
 4987 04fe B105     		.uleb128 0x2b1
 4988 0500 C9AE0000 		.4byte	.LASF951
 4989 0504 05       		.byte	0x5
 4990 0505 B205     		.uleb128 0x2b2
 4991 0507 508B0200 		.4byte	.LASF952
 4992 050b 05       		.byte	0x5
 4993 050c B305     		.uleb128 0x2b3
 4994 050e 4CBC0000 		.4byte	.LASF953
 4995 0512 05       		.byte	0x5
 4996 0513 B405     		.uleb128 0x2b4
 4997 0515 51660000 		.4byte	.LASF954
 4998 0519 05       		.byte	0x5
 4999 051a B705     		.uleb128 0x2b7
 5000 051c B41E0200 		.4byte	.LASF955
 5001 0520 05       		.byte	0x5
 5002 0521 B805     		.uleb128 0x2b8
 5003 0523 D27D0000 		.4byte	.LASF956
 5004 0527 05       		.byte	0x5
 5005 0528 B905     		.uleb128 0x2b9
 5006 052a 97520300 		.4byte	.LASF957
 5007 052e 05       		.byte	0x5
 5008 052f BA05     		.uleb128 0x2ba
 5009 0531 075B0100 		.4byte	.LASF958
 5010 0535 05       		.byte	0x5
 5011 0536 BB05     		.uleb128 0x2bb
 5012 0538 0DF00000 		.4byte	.LASF959
 5013 053c 05       		.byte	0x5
 5014 053d BC05     		.uleb128 0x2bc
 5015 053f E7300300 		.4byte	.LASF960
 5016 0543 05       		.byte	0x5
ARM GAS  C:\Users\anashi\AppData\Local\Temp\ccVEwqOU.s 			page 89


 5017 0544 BD05     		.uleb128 0x2bd
 5018 0546 7DFD0000 		.4byte	.LASF961
 5019 054a 05       		.byte	0x5
 5020 054b BE05     		.uleb128 0x2be
 5021 054d 603E0300 		.4byte	.LASF962
 5022 0551 05       		.byte	0x5
 5023 0552 BF05     		.uleb128 0x2bf
 5024 0554 8F0E0100 		.4byte	.LASF963
 5025 0558 05       		.byte	0x5
 5026 0559 C205     		.uleb128 0x2c2
 5027 055b AF890000 		.4byte	.LASF964
 5028 055f 05       		.byte	0x5
 5029 0560 C305     		.uleb128 0x2c3
 5030 0562 48420400 		.4byte	.LASF965
 5031 0566 05       		.byte	0x5
 5032 0567 C405     		.uleb128 0x2c4
 5033 0569 F5F70100 		.4byte	.LASF966
 5034 056d 05       		.byte	0x5
 5035 056e C505     		.uleb128 0x2c5
 5036 0570 00D90000 		.4byte	.LASF967
 5037 0574 05       		.byte	0x5
 5038 0575 C605     		.uleb128 0x2c6
 5039 0577 C02B0100 		.4byte	.LASF968
 5040 057b 05       		.byte	0x5
 5041 057c C905     		.uleb128 0x2c9
 5042 057e 42B20200 		.4byte	.LASF969
 5043 0582 05       		.byte	0x5
 5044 0583 CA05     		.uleb128 0x2ca
 5045 0585 44A10200 		.4byte	.LASF970
 5046 0589 05       		.byte	0x5
 5047 058a CD05     		.uleb128 0x2cd
 5048 058c D3260000 		.4byte	.LASF971
 5049 0590 05       		.byte	0x5
 5050 0591 CE05     		.uleb128 0x2ce
 5051 0593 0FF70200 		.4byte	.LASF972
 5052 0597 05       		.byte	0x5
 5053 0598 CF05     		.uleb128 0x2cf
 5054 059a 60FA0300 		.4byte	.LASF973
 5055 059e 05       		.byte	0x5
 5056 059f D005     		.uleb128 0x2d0
 5057 05a1 B44D0100 		.4byte	.LASF974
 5058 05a5 05       		.byte	0x5
 5059 05a6 D105     		.uleb128 0x2d1
 5060 05a8 6E030000 		.4byte	.LASF975
 5061 05ac 05       		.byte	0x5
 5062 05ad D205     		.uleb128 0x2d2
 5063 05af B7C70100 		.4byte	.LASF976
 5064 05b3 05       		.byte	0x5
 5065 05b4 D505     		.uleb128 0x2d5
 5066 05b6 80120100 		.4byte	.LASF977
 5067 05ba 05       		.byte	0x5
 5068 05bb D605     		.uleb128 0x2d6
 5069 05bd 8A8A0200 		.4byte	.LASF978
 5070 05c1 05       		.byte	0x5
 5071 05c2 D705     		.uleb128 0x2d7
 5072 05c4 AE680400 		.4byte	.LASF979
 5073 05c8 05       		.byte	0x5
ARM GAS  C:\Users\anashi\AppData\Local\Temp\ccVEwqOU.s 			page 90


 5074 05c9 D805     		.uleb128 0x2d8
 5075 05cb B6F10100 		.4byte	.LASF980
 5076 05cf 05       		.byte	0x5
 5077 05d0 DB05     		.uleb128 0x2db
 5078 05d2 1AAB0200 		.4byte	.LASF981
 5079 05d6 05       		.byte	0x5
 5080 05d7 DC05     		.uleb128 0x2dc
 5081 05d9 44060300 		.4byte	.LASF982
 5082 05dd 05       		.byte	0x5
 5083 05de DD05     		.uleb128 0x2dd
 5084 05e0 0D0C0300 		.4byte	.LASF983
 5085 05e4 05       		.byte	0x5
 5086 05e5 DE05     		.uleb128 0x2de
 5087 05e7 44540200 		.4byte	.LASF984
 5088 05eb 05       		.byte	0x5
 5089 05ec DF05     		.uleb128 0x2df
 5090 05ee 1F2C0400 		.4byte	.LASF985
 5091 05f2 05       		.byte	0x5
 5092 05f3 E005     		.uleb128 0x2e0
 5093 05f5 CFF40300 		.4byte	.LASF986
 5094 05f9 05       		.byte	0x5
 5095 05fa E105     		.uleb128 0x2e1
 5096 05fc 04C30300 		.4byte	.LASF987
 5097 0600 05       		.byte	0x5
 5098 0601 E205     		.uleb128 0x2e2
 5099 0603 9B090200 		.4byte	.LASF988
 5100 0607 05       		.byte	0x5
 5101 0608 E305     		.uleb128 0x2e3
 5102 060a B8110300 		.4byte	.LASF989
 5103 060e 05       		.byte	0x5
 5104 060f E405     		.uleb128 0x2e4
 5105 0611 82820200 		.4byte	.LASF990
 5106 0615 05       		.byte	0x5
 5107 0616 E505     		.uleb128 0x2e5
 5108 0618 AB290000 		.4byte	.LASF991
 5109 061c 05       		.byte	0x5
 5110 061d E605     		.uleb128 0x2e6
 5111 061f 0B850000 		.4byte	.LASF992
 5112 0623 05       		.byte	0x5
 5113 0624 E705     		.uleb128 0x2e7
 5114 0626 98D40200 		.4byte	.LASF993
 5115 062a 05       		.byte	0x5
 5116 062b E805     		.uleb128 0x2e8
 5117 062d 02320200 		.4byte	.LASF994
 5118 0631 05       		.byte	0x5
 5119 0632 E905     		.uleb128 0x2e9
 5120 0634 21290300 		.4byte	.LASF995
 5121 0638 05       		.byte	0x5
 5122 0639 EB05     		.uleb128 0x2eb
 5123 063b 53100000 		.4byte	.LASF996
 5124 063f 05       		.byte	0x5
 5125 0640 EC05     		.uleb128 0x2ec
 5126 0642 19B00300 		.4byte	.LASF997
 5127 0646 05       		.byte	0x5
 5128 0647 ED05     		.uleb128 0x2ed
 5129 0649 6D890100 		.4byte	.LASF998
 5130 064d 05       		.byte	0x5
ARM GAS  C:\Users\anashi\AppData\Local\Temp\ccVEwqOU.s 			page 91


 5131 064e EE05     		.uleb128 0x2ee
 5132 0650 A7D90200 		.4byte	.LASF999
 5133 0654 05       		.byte	0x5
 5134 0655 EF05     		.uleb128 0x2ef
 5135 0657 D7680000 		.4byte	.LASF1000
 5136 065b 05       		.byte	0x5
 5137 065c F005     		.uleb128 0x2f0
 5138 065e 46220000 		.4byte	.LASF1001
 5139 0662 05       		.byte	0x5
 5140 0663 F105     		.uleb128 0x2f1
 5141 0665 52690400 		.4byte	.LASF1002
 5142 0669 05       		.byte	0x5
 5143 066a F205     		.uleb128 0x2f2
 5144 066c 60AC0200 		.4byte	.LASF1003
 5145 0670 05       		.byte	0x5
 5146 0671 F305     		.uleb128 0x2f3
 5147 0673 12FE0000 		.4byte	.LASF1004
 5148 0677 05       		.byte	0x5
 5149 0678 F405     		.uleb128 0x2f4
 5150 067a 3B690200 		.4byte	.LASF1005
 5151 067e 05       		.byte	0x5
 5152 067f F505     		.uleb128 0x2f5
 5153 0681 2AD10000 		.4byte	.LASF1006
 5154 0685 05       		.byte	0x5
 5155 0686 F605     		.uleb128 0x2f6
 5156 0688 AC310100 		.4byte	.LASF1007
 5157 068c 05       		.byte	0x5
 5158 068d F705     		.uleb128 0x2f7
 5159 068f 39770300 		.4byte	.LASF1008
 5160 0693 05       		.byte	0x5
 5161 0694 F805     		.uleb128 0x2f8
 5162 0696 A3440000 		.4byte	.LASF1009
 5163 069a 05       		.byte	0x5
 5164 069b F905     		.uleb128 0x2f9
 5165 069d AA4B0100 		.4byte	.LASF1010
 5166 06a1 05       		.byte	0x5
 5167 06a2 FC05     		.uleb128 0x2fc
 5168 06a4 C5540300 		.4byte	.LASF1011
 5169 06a8 05       		.byte	0x5
 5170 06a9 FD05     		.uleb128 0x2fd
 5171 06ab FCA10300 		.4byte	.LASF1012
 5172 06af 05       		.byte	0x5
 5173 06b0 FE05     		.uleb128 0x2fe
 5174 06b2 7B150100 		.4byte	.LASF1013
 5175 06b6 05       		.byte	0x5
 5176 06b7 FF05     		.uleb128 0x2ff
 5177 06b9 C7410000 		.4byte	.LASF1014
 5178 06bd 05       		.byte	0x5
 5179 06be 8206     		.uleb128 0x302
 5180 06c0 E8870000 		.4byte	.LASF1015
 5181 06c4 05       		.byte	0x5
 5182 06c5 8306     		.uleb128 0x303
 5183 06c7 A3BE0000 		.4byte	.LASF1016
 5184 06cb 05       		.byte	0x5
 5185 06cc 8406     		.uleb128 0x304
 5186 06ce 8B690100 		.4byte	.LASF1017
 5187 06d2 05       		.byte	0x5
ARM GAS  C:\Users\anashi\AppData\Local\Temp\ccVEwqOU.s 			page 92


 5188 06d3 8506     		.uleb128 0x305
 5189 06d5 D04F0100 		.4byte	.LASF1018
 5190 06d9 05       		.byte	0x5
 5191 06da 8606     		.uleb128 0x306
 5192 06dc CB8C0200 		.4byte	.LASF1019
 5193 06e0 05       		.byte	0x5
 5194 06e1 8706     		.uleb128 0x307
 5195 06e3 1D360300 		.4byte	.LASF1020
 5196 06e7 05       		.byte	0x5
 5197 06e8 8806     		.uleb128 0x308
 5198 06ea B7BD0300 		.4byte	.LASF1021
 5199 06ee 05       		.byte	0x5
 5200 06ef 8906     		.uleb128 0x309
 5201 06f1 05BD0300 		.4byte	.LASF1022
 5202 06f5 05       		.byte	0x5
 5203 06f6 8A06     		.uleb128 0x30a
 5204 06f8 EE710400 		.4byte	.LASF1023
 5205 06fc 05       		.byte	0x5
 5206 06fd 8B06     		.uleb128 0x30b
 5207 06ff BB350400 		.4byte	.LASF1024
 5208 0703 05       		.byte	0x5
 5209 0704 8C06     		.uleb128 0x30c
 5210 0706 E18A0000 		.4byte	.LASF1025
 5211 070a 05       		.byte	0x5
 5212 070b 8D06     		.uleb128 0x30d
 5213 070d 733B0100 		.4byte	.LASF1026
 5214 0711 05       		.byte	0x5
 5215 0712 8E06     		.uleb128 0x30e
 5216 0714 E02E0000 		.4byte	.LASF1027
 5217 0718 05       		.byte	0x5
 5218 0719 8F06     		.uleb128 0x30f
 5219 071b 3ED70100 		.4byte	.LASF1028
 5220 071f 05       		.byte	0x5
 5221 0720 9006     		.uleb128 0x310
 5222 0722 2D850200 		.4byte	.LASF1029
 5223 0726 05       		.byte	0x5
 5224 0727 9106     		.uleb128 0x311
 5225 0729 D5B10000 		.4byte	.LASF1030
 5226 072d 05       		.byte	0x5
 5227 072e 9206     		.uleb128 0x312
 5228 0730 43840200 		.4byte	.LASF1031
 5229 0734 05       		.byte	0x5
 5230 0735 9306     		.uleb128 0x313
 5231 0737 D4680200 		.4byte	.LASF1032
 5232 073b 05       		.byte	0x5
 5233 073c 9406     		.uleb128 0x314
 5234 073e 0B2D0100 		.4byte	.LASF1033
 5235 0742 05       		.byte	0x5
 5236 0743 9506     		.uleb128 0x315
 5237 0745 4FCD0100 		.4byte	.LASF1034
 5238 0749 05       		.byte	0x5
 5239 074a 9606     		.uleb128 0x316
 5240 074c B5790000 		.4byte	.LASF1035
 5241 0750 05       		.byte	0x5
 5242 0751 9706     		.uleb128 0x317
 5243 0753 05A80100 		.4byte	.LASF1036
 5244 0757 05       		.byte	0x5
ARM GAS  C:\Users\anashi\AppData\Local\Temp\ccVEwqOU.s 			page 93


 5245 0758 9806     		.uleb128 0x318
 5246 075a DE100100 		.4byte	.LASF1037
 5247 075e 05       		.byte	0x5
 5248 075f 9906     		.uleb128 0x319
 5249 0761 8EBC0100 		.4byte	.LASF1038
 5250 0765 05       		.byte	0x5
 5251 0766 9A06     		.uleb128 0x31a
