ARM GAS  C:\Users\anashi\AppData\Local\Temp\ccxKpcfQ.s 			page 1


   1              		.cpu cortex-m0
   2              		.eabi_attribute 20, 1
   3              		.eabi_attribute 21, 1
   4              		.eabi_attribute 23, 3
   5              		.eabi_attribute 24, 1
   6              		.eabi_attribute 25, 1
   7              		.eabi_attribute 26, 1
   8              		.eabi_attribute 30, 6
   9              		.eabi_attribute 34, 0
  10              		.eabi_attribute 18, 4
  11              		.file	"stm32f0xx_hal_gpio.c"
  12              		.text
  13              	.Ltext0:
  14              		.cfi_sections	.debug_frame
  15              		.section	.text.HAL_GPIO_Init,"ax",%progbits
  16              		.align	1
  17              		.global	HAL_GPIO_Init
  18              		.syntax unified
  19              		.code	16
  20              		.thumb_func
  21              		.fpu softvfp
  22              		.type	HAL_GPIO_Init, %function
  23              	HAL_GPIO_Init:
  24              	.LFB37:
  25              		.file 1 "C:/repos/rs2all/board/Drivers/STM32F0xx_HAL_Driver/Src/stm32f0xx_hal_gpio.c"
  26              		.loc 1 187 0
  27              		.cfi_startproc
  28              		@ args = 0, pretend = 0, frame = 24
  29              		@ frame_needed = 1, uses_anonymous_args = 0
  30 0000 80B5     		push	{r7, lr}
  31              		.cfi_def_cfa_offset 8
  32              		.cfi_offset 7, -8
  33              		.cfi_offset 14, -4
  34 0002 86B0     		sub	sp, sp, #24
  35              		.cfi_def_cfa_offset 32
  36 0004 00AF     		add	r7, sp, #0
  37              		.cfi_def_cfa_register 7
  38 0006 7860     		str	r0, [r7, #4]
  39 0008 3960     		str	r1, [r7]
  40              		.loc 1 188 0
  41 000a 0023     		movs	r3, #0
  42 000c 7B61     		str	r3, [r7, #20]
  43              		.loc 1 189 0
  44 000e 0023     		movs	r3, #0
  45 0010 FB60     		str	r3, [r7, #12]
  46              		.loc 1 190 0
  47 0012 0023     		movs	r3, #0
  48 0014 3B61     		str	r3, [r7, #16]
  49              		.loc 1 199 0
  50 0016 4FE1     		b	.L2
  51              	.L20:
  52              		.loc 1 202 0
  53 0018 3B68     		ldr	r3, [r7]
  54 001a 1B68     		ldr	r3, [r3]
  55 001c 0121     		movs	r1, #1
  56 001e 7A69     		ldr	r2, [r7, #20]
  57 0020 9140     		lsls	r1, r1, r2
ARM GAS  C:\Users\anashi\AppData\Local\Temp\ccxKpcfQ.s 			page 2


  58 0022 0A00     		movs	r2, r1
  59 0024 1340     		ands	r3, r2
  60 0026 FB60     		str	r3, [r7, #12]
  61              		.loc 1 204 0
  62 0028 FB68     		ldr	r3, [r7, #12]
  63 002a 002B     		cmp	r3, #0
  64 002c 00D1     		bne	.LCB34
  65 002e 40E1     		b	.L3	@long jump
  66              	.LCB34:
  67              		.loc 1 208 0
  68 0030 3B68     		ldr	r3, [r7]
  69 0032 5B68     		ldr	r3, [r3, #4]
  70 0034 022B     		cmp	r3, #2
  71 0036 03D0     		beq	.L4
  72              		.loc 1 208 0 is_stmt 0 discriminator 1
  73 0038 3B68     		ldr	r3, [r7]
  74 003a 5B68     		ldr	r3, [r3, #4]
  75 003c 122B     		cmp	r3, #18
  76 003e 23D1     		bne	.L5
  77              	.L4:
  78              		.loc 1 215 0 is_stmt 1
  79 0040 7B69     		ldr	r3, [r7, #20]
  80 0042 DA08     		lsrs	r2, r3, #3
  81 0044 7B68     		ldr	r3, [r7, #4]
  82 0046 0832     		adds	r2, r2, #8
  83 0048 9200     		lsls	r2, r2, #2
  84 004a D358     		ldr	r3, [r2, r3]
  85 004c 3B61     		str	r3, [r7, #16]
  86              		.loc 1 216 0
  87 004e 7B69     		ldr	r3, [r7, #20]
  88 0050 0722     		movs	r2, #7
  89 0052 1340     		ands	r3, r2
  90 0054 9B00     		lsls	r3, r3, #2
  91 0056 0F22     		movs	r2, #15
  92 0058 9A40     		lsls	r2, r2, r3
  93 005a 1300     		movs	r3, r2
  94 005c DA43     		mvns	r2, r3
  95 005e 3B69     		ldr	r3, [r7, #16]
  96 0060 1340     		ands	r3, r2
  97 0062 3B61     		str	r3, [r7, #16]
  98              		.loc 1 217 0
  99 0064 3B68     		ldr	r3, [r7]
 100 0066 1A69     		ldr	r2, [r3, #16]
 101 0068 7B69     		ldr	r3, [r7, #20]
 102 006a 0721     		movs	r1, #7
 103 006c 0B40     		ands	r3, r1
 104 006e 9B00     		lsls	r3, r3, #2
 105 0070 9A40     		lsls	r2, r2, r3
 106 0072 1300     		movs	r3, r2
 107 0074 3A69     		ldr	r2, [r7, #16]
 108 0076 1343     		orrs	r3, r2
 109 0078 3B61     		str	r3, [r7, #16]
 110              		.loc 1 218 0
 111 007a 7B69     		ldr	r3, [r7, #20]
 112 007c DA08     		lsrs	r2, r3, #3
 113 007e 7B68     		ldr	r3, [r7, #4]
 114 0080 0832     		adds	r2, r2, #8
ARM GAS  C:\Users\anashi\AppData\Local\Temp\ccxKpcfQ.s 			page 3


 115 0082 9200     		lsls	r2, r2, #2
 116 0084 3969     		ldr	r1, [r7, #16]
 117 0086 D150     		str	r1, [r2, r3]
 118              	.L5:
 119              		.loc 1 222 0
 120 0088 7B68     		ldr	r3, [r7, #4]
 121 008a 1B68     		ldr	r3, [r3]
 122 008c 3B61     		str	r3, [r7, #16]
 123              		.loc 1 223 0
 124 008e 7B69     		ldr	r3, [r7, #20]
 125 0090 5B00     		lsls	r3, r3, #1
 126 0092 0322     		movs	r2, #3
 127 0094 9A40     		lsls	r2, r2, r3
 128 0096 1300     		movs	r3, r2
 129 0098 DA43     		mvns	r2, r3
 130 009a 3B69     		ldr	r3, [r7, #16]
 131 009c 1340     		ands	r3, r2
 132 009e 3B61     		str	r3, [r7, #16]
 133              		.loc 1 224 0
 134 00a0 3B68     		ldr	r3, [r7]
 135 00a2 5B68     		ldr	r3, [r3, #4]
 136 00a4 0322     		movs	r2, #3
 137 00a6 1A40     		ands	r2, r3
 138 00a8 7B69     		ldr	r3, [r7, #20]
 139 00aa 5B00     		lsls	r3, r3, #1
 140 00ac 9A40     		lsls	r2, r2, r3
 141 00ae 1300     		movs	r3, r2
 142 00b0 3A69     		ldr	r2, [r7, #16]
 143 00b2 1343     		orrs	r3, r2
 144 00b4 3B61     		str	r3, [r7, #16]
 145              		.loc 1 225 0
 146 00b6 7B68     		ldr	r3, [r7, #4]
 147 00b8 3A69     		ldr	r2, [r7, #16]
 148 00ba 1A60     		str	r2, [r3]
 149              		.loc 1 228 0
 150 00bc 3B68     		ldr	r3, [r7]
 151 00be 5B68     		ldr	r3, [r3, #4]
 152 00c0 012B     		cmp	r3, #1
 153 00c2 0BD0     		beq	.L6
 154              		.loc 1 228 0 is_stmt 0 discriminator 1
 155 00c4 3B68     		ldr	r3, [r7]
 156 00c6 5B68     		ldr	r3, [r3, #4]
 157 00c8 022B     		cmp	r3, #2
 158 00ca 07D0     		beq	.L6
 159              		.loc 1 229 0 is_stmt 1 discriminator 2
 160 00cc 3B68     		ldr	r3, [r7]
 161 00ce 5B68     		ldr	r3, [r3, #4]
 162              		.loc 1 228 0 discriminator 2
 163 00d0 112B     		cmp	r3, #17
 164 00d2 03D0     		beq	.L6
 165              		.loc 1 229 0
 166 00d4 3B68     		ldr	r3, [r7]
 167 00d6 5B68     		ldr	r3, [r3, #4]
 168 00d8 122B     		cmp	r3, #18
 169 00da 30D1     		bne	.L7
 170              	.L6:
 171              		.loc 1 234 0
ARM GAS  C:\Users\anashi\AppData\Local\Temp\ccxKpcfQ.s 			page 4


 172 00dc 7B68     		ldr	r3, [r7, #4]
 173 00de 9B68     		ldr	r3, [r3, #8]
 174 00e0 3B61     		str	r3, [r7, #16]
 175              		.loc 1 235 0
 176 00e2 7B69     		ldr	r3, [r7, #20]
 177 00e4 5B00     		lsls	r3, r3, #1
 178 00e6 0322     		movs	r2, #3
 179 00e8 9A40     		lsls	r2, r2, r3
 180 00ea 1300     		movs	r3, r2
 181 00ec DA43     		mvns	r2, r3
 182 00ee 3B69     		ldr	r3, [r7, #16]
 183 00f0 1340     		ands	r3, r2
 184 00f2 3B61     		str	r3, [r7, #16]
 185              		.loc 1 236 0
 186 00f4 3B68     		ldr	r3, [r7]
 187 00f6 DA68     		ldr	r2, [r3, #12]
 188 00f8 7B69     		ldr	r3, [r7, #20]
 189 00fa 5B00     		lsls	r3, r3, #1
 190 00fc 9A40     		lsls	r2, r2, r3
 191 00fe 1300     		movs	r3, r2
 192 0100 3A69     		ldr	r2, [r7, #16]
 193 0102 1343     		orrs	r3, r2
 194 0104 3B61     		str	r3, [r7, #16]
 195              		.loc 1 237 0
 196 0106 7B68     		ldr	r3, [r7, #4]
 197 0108 3A69     		ldr	r2, [r7, #16]
 198 010a 9A60     		str	r2, [r3, #8]
 199              		.loc 1 240 0
 200 010c 7B68     		ldr	r3, [r7, #4]
 201 010e 5B68     		ldr	r3, [r3, #4]
 202 0110 3B61     		str	r3, [r7, #16]
 203              		.loc 1 241 0
 204 0112 0122     		movs	r2, #1
 205 0114 7B69     		ldr	r3, [r7, #20]
 206 0116 9A40     		lsls	r2, r2, r3
 207 0118 1300     		movs	r3, r2
 208 011a DA43     		mvns	r2, r3
 209 011c 3B69     		ldr	r3, [r7, #16]
 210 011e 1340     		ands	r3, r2
 211 0120 3B61     		str	r3, [r7, #16]
 212              		.loc 1 242 0
 213 0122 3B68     		ldr	r3, [r7]
 214 0124 5B68     		ldr	r3, [r3, #4]
 215 0126 1B09     		lsrs	r3, r3, #4
 216 0128 0122     		movs	r2, #1
 217 012a 1A40     		ands	r2, r3
 218 012c 7B69     		ldr	r3, [r7, #20]
 219 012e 9A40     		lsls	r2, r2, r3
 220 0130 1300     		movs	r3, r2
 221 0132 3A69     		ldr	r2, [r7, #16]
 222 0134 1343     		orrs	r3, r2
 223 0136 3B61     		str	r3, [r7, #16]
 224              		.loc 1 243 0
 225 0138 7B68     		ldr	r3, [r7, #4]
 226 013a 3A69     		ldr	r2, [r7, #16]
 227 013c 5A60     		str	r2, [r3, #4]
 228              	.L7:
ARM GAS  C:\Users\anashi\AppData\Local\Temp\ccxKpcfQ.s 			page 5


 229              		.loc 1 247 0
 230 013e 7B68     		ldr	r3, [r7, #4]
 231 0140 DB68     		ldr	r3, [r3, #12]
 232 0142 3B61     		str	r3, [r7, #16]
 233              		.loc 1 248 0
 234 0144 7B69     		ldr	r3, [r7, #20]
 235 0146 5B00     		lsls	r3, r3, #1
 236 0148 0322     		movs	r2, #3
 237 014a 9A40     		lsls	r2, r2, r3
 238 014c 1300     		movs	r3, r2
 239 014e DA43     		mvns	r2, r3
 240 0150 3B69     		ldr	r3, [r7, #16]
 241 0152 1340     		ands	r3, r2
 242 0154 3B61     		str	r3, [r7, #16]
 243              		.loc 1 249 0
 244 0156 3B68     		ldr	r3, [r7]
 245 0158 9A68     		ldr	r2, [r3, #8]
 246 015a 7B69     		ldr	r3, [r7, #20]
 247 015c 5B00     		lsls	r3, r3, #1
 248 015e 9A40     		lsls	r2, r2, r3
 249 0160 1300     		movs	r3, r2
 250 0162 3A69     		ldr	r2, [r7, #16]
 251 0164 1343     		orrs	r3, r2
 252 0166 3B61     		str	r3, [r7, #16]
 253              		.loc 1 250 0
 254 0168 7B68     		ldr	r3, [r7, #4]
 255 016a 3A69     		ldr	r2, [r7, #16]
 256 016c DA60     		str	r2, [r3, #12]
 257              		.loc 1 254 0
 258 016e 3B68     		ldr	r3, [r7]
 259 0170 5A68     		ldr	r2, [r3, #4]
 260 0172 8023     		movs	r3, #128
 261 0174 5B05     		lsls	r3, r3, #21
 262 0176 1340     		ands	r3, r2
 263 0178 00D1     		bne	.LCB206
 264 017a 9AE0     		b	.L3	@long jump
 265              	.LCB206:
 266              	.LBB2:
 267              		.loc 1 257 0
 268 017c 544B     		ldr	r3, .L21
 269 017e 9A69     		ldr	r2, [r3, #24]
 270 0180 534B     		ldr	r3, .L21
 271 0182 0121     		movs	r1, #1
 272 0184 0A43     		orrs	r2, r1
 273 0186 9A61     		str	r2, [r3, #24]
 274 0188 514B     		ldr	r3, .L21
 275 018a 9B69     		ldr	r3, [r3, #24]
 276 018c 0122     		movs	r2, #1
 277 018e 1340     		ands	r3, r2
 278 0190 BB60     		str	r3, [r7, #8]
 279 0192 BB68     		ldr	r3, [r7, #8]
 280              	.LBE2:
 281              		.loc 1 259 0
 282 0194 4F4A     		ldr	r2, .L21+4
 283 0196 7B69     		ldr	r3, [r7, #20]
 284 0198 9B08     		lsrs	r3, r3, #2
 285 019a 0233     		adds	r3, r3, #2
ARM GAS  C:\Users\anashi\AppData\Local\Temp\ccxKpcfQ.s 			page 6


 286 019c 9B00     		lsls	r3, r3, #2
 287 019e 9B58     		ldr	r3, [r3, r2]
 288 01a0 3B61     		str	r3, [r7, #16]
 289              		.loc 1 260 0
 290 01a2 7B69     		ldr	r3, [r7, #20]
 291 01a4 0322     		movs	r2, #3
 292 01a6 1340     		ands	r3, r2
 293 01a8 9B00     		lsls	r3, r3, #2
 294 01aa 0F22     		movs	r2, #15
 295 01ac 9A40     		lsls	r2, r2, r3
 296 01ae 1300     		movs	r3, r2
 297 01b0 DA43     		mvns	r2, r3
 298 01b2 3B69     		ldr	r3, [r7, #16]
 299 01b4 1340     		ands	r3, r2
 300 01b6 3B61     		str	r3, [r7, #16]
 301              		.loc 1 261 0
 302 01b8 7A68     		ldr	r2, [r7, #4]
 303 01ba 9023     		movs	r3, #144
 304 01bc DB05     		lsls	r3, r3, #23
 305 01be 9A42     		cmp	r2, r3
 306 01c0 13D0     		beq	.L8
 307              		.loc 1 261 0 is_stmt 0 discriminator 1
 308 01c2 7B68     		ldr	r3, [r7, #4]
 309 01c4 444A     		ldr	r2, .L21+8
 310 01c6 9342     		cmp	r3, r2
 311 01c8 0DD0     		beq	.L9
 312              		.loc 1 261 0 discriminator 3
 313 01ca 7B68     		ldr	r3, [r7, #4]
 314 01cc 434A     		ldr	r2, .L21+12
 315 01ce 9342     		cmp	r3, r2
 316 01d0 07D0     		beq	.L10
 317              		.loc 1 261 0 discriminator 5
 318 01d2 7B68     		ldr	r3, [r7, #4]
 319 01d4 424A     		ldr	r2, .L21+16
 320 01d6 9342     		cmp	r3, r2
 321 01d8 01D1     		bne	.L11
 322              		.loc 1 261 0 discriminator 7
 323 01da 0323     		movs	r3, #3
 324 01dc 06E0     		b	.L15
 325              	.L11:
 326              		.loc 1 261 0 discriminator 8
 327 01de 0523     		movs	r3, #5
 328 01e0 04E0     		b	.L15
 329              	.L10:
 330              		.loc 1 261 0 discriminator 6
 331 01e2 0223     		movs	r3, #2
 332 01e4 02E0     		b	.L15
 333              	.L9:
 334              		.loc 1 261 0 discriminator 4
 335 01e6 0123     		movs	r3, #1
 336 01e8 00E0     		b	.L15
 337              	.L8:
 338              		.loc 1 261 0 discriminator 2
 339 01ea 0023     		movs	r3, #0
 340              	.L15:
 341              		.loc 1 261 0 discriminator 16
 342 01ec 7A69     		ldr	r2, [r7, #20]
ARM GAS  C:\Users\anashi\AppData\Local\Temp\ccxKpcfQ.s 			page 7


 343 01ee 0321     		movs	r1, #3
 344 01f0 0A40     		ands	r2, r1
 345 01f2 9200     		lsls	r2, r2, #2
 346 01f4 9340     		lsls	r3, r3, r2
 347 01f6 3A69     		ldr	r2, [r7, #16]
 348 01f8 1343     		orrs	r3, r2
 349 01fa 3B61     		str	r3, [r7, #16]
 350              		.loc 1 262 0 is_stmt 1 discriminator 16
 351 01fc 3549     		ldr	r1, .L21+4
 352 01fe 7B69     		ldr	r3, [r7, #20]
 353 0200 9B08     		lsrs	r3, r3, #2
 354 0202 0233     		adds	r3, r3, #2
 355 0204 9B00     		lsls	r3, r3, #2
 356 0206 3A69     		ldr	r2, [r7, #16]
 357 0208 5A50     		str	r2, [r3, r1]
 358              		.loc 1 265 0 discriminator 16
 359 020a 364B     		ldr	r3, .L21+20
 360 020c 1B68     		ldr	r3, [r3]
 361 020e 3B61     		str	r3, [r7, #16]
 362              		.loc 1 266 0 discriminator 16
 363 0210 FB68     		ldr	r3, [r7, #12]
 364 0212 DA43     		mvns	r2, r3
 365 0214 3B69     		ldr	r3, [r7, #16]
 366 0216 1340     		ands	r3, r2
 367 0218 3B61     		str	r3, [r7, #16]
 368              		.loc 1 267 0 discriminator 16
 369 021a 3B68     		ldr	r3, [r7]
 370 021c 5A68     		ldr	r2, [r3, #4]
 371 021e 8023     		movs	r3, #128
 372 0220 5B02     		lsls	r3, r3, #9
 373 0222 1340     		ands	r3, r2
 374 0224 03D0     		beq	.L16
 375              		.loc 1 269 0
 376 0226 3A69     		ldr	r2, [r7, #16]
 377 0228 FB68     		ldr	r3, [r7, #12]
 378 022a 1343     		orrs	r3, r2
 379 022c 3B61     		str	r3, [r7, #16]
 380              	.L16:
 381              		.loc 1 271 0
 382 022e 2D4B     		ldr	r3, .L21+20
 383 0230 3A69     		ldr	r2, [r7, #16]
 384 0232 1A60     		str	r2, [r3]
 385              		.loc 1 273 0
 386 0234 2B4B     		ldr	r3, .L21+20
 387 0236 5B68     		ldr	r3, [r3, #4]
 388 0238 3B61     		str	r3, [r7, #16]
 389              		.loc 1 274 0
 390 023a FB68     		ldr	r3, [r7, #12]
 391 023c DA43     		mvns	r2, r3
 392 023e 3B69     		ldr	r3, [r7, #16]
 393 0240 1340     		ands	r3, r2
 394 0242 3B61     		str	r3, [r7, #16]
 395              		.loc 1 275 0
 396 0244 3B68     		ldr	r3, [r7]
 397 0246 5A68     		ldr	r2, [r3, #4]
 398 0248 8023     		movs	r3, #128
 399 024a 9B02     		lsls	r3, r3, #10
ARM GAS  C:\Users\anashi\AppData\Local\Temp\ccxKpcfQ.s 			page 8


 400 024c 1340     		ands	r3, r2
 401 024e 03D0     		beq	.L17
 402              		.loc 1 277 0
 403 0250 3A69     		ldr	r2, [r7, #16]
 404 0252 FB68     		ldr	r3, [r7, #12]
 405 0254 1343     		orrs	r3, r2
 406 0256 3B61     		str	r3, [r7, #16]
 407              	.L17:
 408              		.loc 1 279 0
 409 0258 224B     		ldr	r3, .L21+20
 410 025a 3A69     		ldr	r2, [r7, #16]
 411 025c 5A60     		str	r2, [r3, #4]
 412              		.loc 1 282 0
 413 025e 214B     		ldr	r3, .L21+20
 414 0260 9B68     		ldr	r3, [r3, #8]
 415 0262 3B61     		str	r3, [r7, #16]
 416              		.loc 1 283 0
 417 0264 FB68     		ldr	r3, [r7, #12]
 418 0266 DA43     		mvns	r2, r3
 419 0268 3B69     		ldr	r3, [r7, #16]
 420 026a 1340     		ands	r3, r2
 421 026c 3B61     		str	r3, [r7, #16]
 422              		.loc 1 284 0
 423 026e 3B68     		ldr	r3, [r7]
 424 0270 5A68     		ldr	r2, [r3, #4]
 425 0272 8023     		movs	r3, #128
 426 0274 5B03     		lsls	r3, r3, #13
 427 0276 1340     		ands	r3, r2
 428 0278 03D0     		beq	.L18
 429              		.loc 1 286 0
 430 027a 3A69     		ldr	r2, [r7, #16]
 431 027c FB68     		ldr	r3, [r7, #12]
 432 027e 1343     		orrs	r3, r2
 433 0280 3B61     		str	r3, [r7, #16]
 434              	.L18:
 435              		.loc 1 288 0
 436 0282 184B     		ldr	r3, .L21+20
 437 0284 3A69     		ldr	r2, [r7, #16]
 438 0286 9A60     		str	r2, [r3, #8]
 439              		.loc 1 290 0
 440 0288 164B     		ldr	r3, .L21+20
 441 028a DB68     		ldr	r3, [r3, #12]
 442 028c 3B61     		str	r3, [r7, #16]
 443              		.loc 1 291 0
 444 028e FB68     		ldr	r3, [r7, #12]
 445 0290 DA43     		mvns	r2, r3
 446 0292 3B69     		ldr	r3, [r7, #16]
 447 0294 1340     		ands	r3, r2
 448 0296 3B61     		str	r3, [r7, #16]
 449              		.loc 1 292 0
 450 0298 3B68     		ldr	r3, [r7]
 451 029a 5A68     		ldr	r2, [r3, #4]
 452 029c 8023     		movs	r3, #128
 453 029e 9B03     		lsls	r3, r3, #14
 454 02a0 1340     		ands	r3, r2
 455 02a2 03D0     		beq	.L19
 456              		.loc 1 294 0
ARM GAS  C:\Users\anashi\AppData\Local\Temp\ccxKpcfQ.s 			page 9


 457 02a4 3A69     		ldr	r2, [r7, #16]
 458 02a6 FB68     		ldr	r3, [r7, #12]
 459 02a8 1343     		orrs	r3, r2
 460 02aa 3B61     		str	r3, [r7, #16]
 461              	.L19:
 462              		.loc 1 296 0
 463 02ac 0D4B     		ldr	r3, .L21+20
 464 02ae 3A69     		ldr	r2, [r7, #16]
 465 02b0 DA60     		str	r2, [r3, #12]
 466              	.L3:
 467              		.loc 1 300 0
 468 02b2 7B69     		ldr	r3, [r7, #20]
 469 02b4 0133     		adds	r3, r3, #1
 470 02b6 7B61     		str	r3, [r7, #20]
 471              	.L2:
 472              		.loc 1 199 0
 473 02b8 3B68     		ldr	r3, [r7]
 474 02ba 1A68     		ldr	r2, [r3]
 475 02bc 7B69     		ldr	r3, [r7, #20]
 476 02be DA40     		lsrs	r2, r2, r3
 477 02c0 131E     		subs	r3, r2, #0
 478 02c2 00D0     		beq	.LCB403
 479 02c4 A8E6     		b	.L20	@long jump
 480              	.LCB403:
 481              		.loc 1 302 0
 482 02c6 C046     		nop
 483 02c8 BD46     		mov	sp, r7
 484 02ca 06B0     		add	sp, sp, #24
 485              		@ sp needed
 486 02cc 80BD     		pop	{r7, pc}
 487              	.L22:
 488 02ce C046     		.align	2
 489              	.L21:
 490 02d0 00100240 		.word	1073876992
 491 02d4 00000140 		.word	1073807360
 492 02d8 00040048 		.word	1207960576
 493 02dc 00080048 		.word	1207961600
 494 02e0 000C0048 		.word	1207962624
 495 02e4 00040140 		.word	1073808384
 496              		.cfi_endproc
 497              	.LFE37:
 498              		.size	HAL_GPIO_Init, .-HAL_GPIO_Init
 499              		.section	.text.HAL_GPIO_DeInit,"ax",%progbits
 500              		.align	1
 501              		.global	HAL_GPIO_DeInit
 502              		.syntax unified
 503              		.code	16
 504              		.thumb_func
 505              		.fpu softvfp
 506              		.type	HAL_GPIO_DeInit, %function
 507              	HAL_GPIO_DeInit:
 508              	.LFB38:
 509              		.loc 1 312 0
 510              		.cfi_startproc
 511              		@ args = 0, pretend = 0, frame = 24
 512              		@ frame_needed = 1, uses_anonymous_args = 0
 513 0000 80B5     		push	{r7, lr}
ARM GAS  C:\Users\anashi\AppData\Local\Temp\ccxKpcfQ.s 			page 10


 514              		.cfi_def_cfa_offset 8
 515              		.cfi_offset 7, -8
 516              		.cfi_offset 14, -4
 517 0002 86B0     		sub	sp, sp, #24
 518              		.cfi_def_cfa_offset 32
 519 0004 00AF     		add	r7, sp, #0
 520              		.cfi_def_cfa_register 7
 521 0006 7860     		str	r0, [r7, #4]
 522 0008 3960     		str	r1, [r7]
 523              		.loc 1 313 0
 524 000a 0023     		movs	r3, #0
 525 000c 7B61     		str	r3, [r7, #20]
 526              		.loc 1 314 0
 527 000e 0023     		movs	r3, #0
 528 0010 3B61     		str	r3, [r7, #16]
 529              		.loc 1 315 0
 530 0012 0023     		movs	r3, #0
 531 0014 FB60     		str	r3, [r7, #12]
 532              		.loc 1 322 0
 533 0016 B1E0     		b	.L24
 534              	.L34:
 535              		.loc 1 325 0
 536 0018 0122     		movs	r2, #1
 537 001a 7B69     		ldr	r3, [r7, #20]
 538 001c 9A40     		lsls	r2, r2, r3
 539 001e 3B68     		ldr	r3, [r7]
 540 0020 1340     		ands	r3, r2
 541 0022 3B61     		str	r3, [r7, #16]
 542              		.loc 1 327 0
 543 0024 3B69     		ldr	r3, [r7, #16]
 544 0026 002B     		cmp	r3, #0
 545 0028 00D1     		bne	.LCB458
 546 002a A4E0     		b	.L25	@long jump
 547              	.LCB458:
 548              		.loc 1 331 0
 549 002c 7B68     		ldr	r3, [r7, #4]
 550 002e 1B68     		ldr	r3, [r3]
 551 0030 7A69     		ldr	r2, [r7, #20]
 552 0032 5200     		lsls	r2, r2, #1
 553 0034 0321     		movs	r1, #3
 554 0036 9140     		lsls	r1, r1, r2
 555 0038 0A00     		movs	r2, r1
 556 003a D243     		mvns	r2, r2
 557 003c 1A40     		ands	r2, r3
 558 003e 7B68     		ldr	r3, [r7, #4]
 559 0040 1A60     		str	r2, [r3]
 560              		.loc 1 334 0
 561 0042 7B69     		ldr	r3, [r7, #20]
 562 0044 DA08     		lsrs	r2, r3, #3
 563 0046 7B68     		ldr	r3, [r7, #4]
 564 0048 0832     		adds	r2, r2, #8
 565 004a 9200     		lsls	r2, r2, #2
 566 004c D358     		ldr	r3, [r2, r3]
 567 004e 7A69     		ldr	r2, [r7, #20]
 568 0050 0721     		movs	r1, #7
 569 0052 0A40     		ands	r2, r1
 570 0054 9200     		lsls	r2, r2, #2
ARM GAS  C:\Users\anashi\AppData\Local\Temp\ccxKpcfQ.s 			page 11


 571 0056 0F21     		movs	r1, #15
 572 0058 9140     		lsls	r1, r1, r2
 573 005a 0A00     		movs	r2, r1
 574 005c D143     		mvns	r1, r2
 575 005e 7A69     		ldr	r2, [r7, #20]
 576 0060 D208     		lsrs	r2, r2, #3
 577 0062 1940     		ands	r1, r3
 578 0064 7B68     		ldr	r3, [r7, #4]
 579 0066 0832     		adds	r2, r2, #8
 580 0068 9200     		lsls	r2, r2, #2
 581 006a D150     		str	r1, [r2, r3]
 582              		.loc 1 337 0
 583 006c 7B68     		ldr	r3, [r7, #4]
 584 006e 9B68     		ldr	r3, [r3, #8]
 585 0070 7A69     		ldr	r2, [r7, #20]
 586 0072 5200     		lsls	r2, r2, #1
 587 0074 0321     		movs	r1, #3
 588 0076 9140     		lsls	r1, r1, r2
 589 0078 0A00     		movs	r2, r1
 590 007a D243     		mvns	r2, r2
 591 007c 1A40     		ands	r2, r3
 592 007e 7B68     		ldr	r3, [r7, #4]
 593 0080 9A60     		str	r2, [r3, #8]
 594              		.loc 1 340 0
 595 0082 7B68     		ldr	r3, [r7, #4]
 596 0084 5B68     		ldr	r3, [r3, #4]
 597 0086 0121     		movs	r1, #1
 598 0088 7A69     		ldr	r2, [r7, #20]
 599 008a 9140     		lsls	r1, r1, r2
 600 008c 0A00     		movs	r2, r1
 601 008e D243     		mvns	r2, r2
 602 0090 1A40     		ands	r2, r3
 603 0092 7B68     		ldr	r3, [r7, #4]
 604 0094 5A60     		str	r2, [r3, #4]
 605              		.loc 1 343 0
 606 0096 7B68     		ldr	r3, [r7, #4]
 607 0098 DB68     		ldr	r3, [r3, #12]
 608 009a 7A69     		ldr	r2, [r7, #20]
 609 009c 5200     		lsls	r2, r2, #1
 610 009e 0321     		movs	r1, #3
 611 00a0 9140     		lsls	r1, r1, r2
 612 00a2 0A00     		movs	r2, r1
 613 00a4 D243     		mvns	r2, r2
 614 00a6 1A40     		ands	r2, r3
 615 00a8 7B68     		ldr	r3, [r7, #4]
 616 00aa DA60     		str	r2, [r3, #12]
 617              		.loc 1 348 0
 618 00ac 384A     		ldr	r2, .L35
 619 00ae 7B69     		ldr	r3, [r7, #20]
 620 00b0 9B08     		lsrs	r3, r3, #2
 621 00b2 0233     		adds	r3, r3, #2
 622 00b4 9B00     		lsls	r3, r3, #2
 623 00b6 9B58     		ldr	r3, [r3, r2]
 624 00b8 FB60     		str	r3, [r7, #12]
 625              		.loc 1 349 0
 626 00ba 7B69     		ldr	r3, [r7, #20]
 627 00bc 0322     		movs	r2, #3
ARM GAS  C:\Users\anashi\AppData\Local\Temp\ccxKpcfQ.s 			page 12


 628 00be 1340     		ands	r3, r2
 629 00c0 9B00     		lsls	r3, r3, #2
 630 00c2 0F22     		movs	r2, #15
 631 00c4 9A40     		lsls	r2, r2, r3
 632 00c6 FB68     		ldr	r3, [r7, #12]
 633 00c8 1340     		ands	r3, r2
 634 00ca FB60     		str	r3, [r7, #12]
 635              		.loc 1 350 0
 636 00cc 7A68     		ldr	r2, [r7, #4]
 637 00ce 9023     		movs	r3, #144
 638 00d0 DB05     		lsls	r3, r3, #23
 639 00d2 9A42     		cmp	r2, r3
 640 00d4 13D0     		beq	.L26
 641              		.loc 1 350 0 is_stmt 0 discriminator 1
 642 00d6 7B68     		ldr	r3, [r7, #4]
 643 00d8 2E4A     		ldr	r2, .L35+4
 644 00da 9342     		cmp	r3, r2
 645 00dc 0DD0     		beq	.L27
 646              		.loc 1 350 0 discriminator 3
 647 00de 7B68     		ldr	r3, [r7, #4]
 648 00e0 2D4A     		ldr	r2, .L35+8
 649 00e2 9342     		cmp	r3, r2
 650 00e4 07D0     		beq	.L28
 651              		.loc 1 350 0 discriminator 5
 652 00e6 7B68     		ldr	r3, [r7, #4]
 653 00e8 2C4A     		ldr	r2, .L35+12
 654 00ea 9342     		cmp	r3, r2
 655 00ec 01D1     		bne	.L29
 656              		.loc 1 350 0 discriminator 7
 657 00ee 0323     		movs	r3, #3
 658 00f0 06E0     		b	.L33
 659              	.L29:
 660              		.loc 1 350 0 discriminator 8
 661 00f2 0523     		movs	r3, #5
 662 00f4 04E0     		b	.L33
 663              	.L28:
 664              		.loc 1 350 0 discriminator 6
 665 00f6 0223     		movs	r3, #2
 666 00f8 02E0     		b	.L33
 667              	.L27:
 668              		.loc 1 350 0 discriminator 4
 669 00fa 0123     		movs	r3, #1
 670 00fc 00E0     		b	.L33
 671              	.L26:
 672              		.loc 1 350 0 discriminator 2
 673 00fe 0023     		movs	r3, #0
 674              	.L33:
 675              		.loc 1 350 0 discriminator 16
 676 0100 7A69     		ldr	r2, [r7, #20]
 677 0102 0321     		movs	r1, #3
 678 0104 0A40     		ands	r2, r1
 679 0106 9200     		lsls	r2, r2, #2
 680 0108 9340     		lsls	r3, r3, r2
 681 010a FA68     		ldr	r2, [r7, #12]
 682 010c 9A42     		cmp	r2, r3
 683 010e 32D1     		bne	.L25
 684              		.loc 1 352 0 is_stmt 1
ARM GAS  C:\Users\anashi\AppData\Local\Temp\ccxKpcfQ.s 			page 13


 685 0110 7B69     		ldr	r3, [r7, #20]
 686 0112 0322     		movs	r2, #3
 687 0114 1340     		ands	r3, r2
 688 0116 9B00     		lsls	r3, r3, #2
 689 0118 0F22     		movs	r2, #15
 690 011a 9A40     		lsls	r2, r2, r3
 691 011c 1300     		movs	r3, r2
 692 011e FB60     		str	r3, [r7, #12]
 693              		.loc 1 353 0
 694 0120 1B4A     		ldr	r2, .L35
 695 0122 7B69     		ldr	r3, [r7, #20]
 696 0124 9B08     		lsrs	r3, r3, #2
 697 0126 0233     		adds	r3, r3, #2
 698 0128 9B00     		lsls	r3, r3, #2
 699 012a 9A58     		ldr	r2, [r3, r2]
 700 012c FB68     		ldr	r3, [r7, #12]
 701 012e D943     		mvns	r1, r3
 702 0130 1748     		ldr	r0, .L35
 703 0132 7B69     		ldr	r3, [r7, #20]
 704 0134 9B08     		lsrs	r3, r3, #2
 705 0136 0A40     		ands	r2, r1
 706 0138 0233     		adds	r3, r3, #2
 707 013a 9B00     		lsls	r3, r3, #2
 708 013c 1A50     		str	r2, [r3, r0]
 709              		.loc 1 356 0
 710 013e 184B     		ldr	r3, .L35+16
 711 0140 1A68     		ldr	r2, [r3]
 712 0142 3B69     		ldr	r3, [r7, #16]
 713 0144 D943     		mvns	r1, r3
 714 0146 164B     		ldr	r3, .L35+16
 715 0148 0A40     		ands	r2, r1
 716 014a 1A60     		str	r2, [r3]
 717              		.loc 1 357 0
 718 014c 144B     		ldr	r3, .L35+16
 719 014e 5A68     		ldr	r2, [r3, #4]
 720 0150 3B69     		ldr	r3, [r7, #16]
 721 0152 D943     		mvns	r1, r3
 722 0154 124B     		ldr	r3, .L35+16
 723 0156 0A40     		ands	r2, r1
 724 0158 5A60     		str	r2, [r3, #4]
 725              		.loc 1 360 0
 726 015a 114B     		ldr	r3, .L35+16
 727 015c 9A68     		ldr	r2, [r3, #8]
 728 015e 3B69     		ldr	r3, [r7, #16]
 729 0160 D943     		mvns	r1, r3
 730 0162 0F4B     		ldr	r3, .L35+16
 731 0164 0A40     		ands	r2, r1
 732 0166 9A60     		str	r2, [r3, #8]
 733              		.loc 1 361 0
 734 0168 0D4B     		ldr	r3, .L35+16
 735 016a DA68     		ldr	r2, [r3, #12]
 736 016c 3B69     		ldr	r3, [r7, #16]
 737 016e D943     		mvns	r1, r3
 738 0170 0B4B     		ldr	r3, .L35+16
 739 0172 0A40     		ands	r2, r1
 740 0174 DA60     		str	r2, [r3, #12]
 741              	.L25:
ARM GAS  C:\Users\anashi\AppData\Local\Temp\ccxKpcfQ.s 			page 14


 742              		.loc 1 365 0
 743 0176 7B69     		ldr	r3, [r7, #20]
 744 0178 0133     		adds	r3, r3, #1
 745 017a 7B61     		str	r3, [r7, #20]
 746              	.L24:
 747              		.loc 1 322 0
 748 017c 3A68     		ldr	r2, [r7]
 749 017e 7B69     		ldr	r3, [r7, #20]
 750 0180 DA40     		lsrs	r2, r2, r3
 751 0182 131E     		subs	r3, r2, #0
 752 0184 00D0     		beq	.LCB650
 753 0186 47E7     		b	.L34	@long jump
 754              	.LCB650:
 755              		.loc 1 367 0
 756 0188 C046     		nop
 757 018a BD46     		mov	sp, r7
 758 018c 06B0     		add	sp, sp, #24
 759              		@ sp needed
 760 018e 80BD     		pop	{r7, pc}
 761              	.L36:
 762              		.align	2
 763              	.L35:
 764 0190 00000140 		.word	1073807360
 765 0194 00040048 		.word	1207960576
 766 0198 00080048 		.word	1207961600
 767 019c 000C0048 		.word	1207962624
 768 01a0 00040140 		.word	1073808384
 769              		.cfi_endproc
 770              	.LFE38:
 771              		.size	HAL_GPIO_DeInit, .-HAL_GPIO_DeInit
 772              		.section	.text.HAL_GPIO_ReadPin,"ax",%progbits
 773              		.align	1
 774              		.global	HAL_GPIO_ReadPin
 775              		.syntax unified
 776              		.code	16
 777              		.thumb_func
 778              		.fpu softvfp
 779              		.type	HAL_GPIO_ReadPin, %function
 780              	HAL_GPIO_ReadPin:
 781              	.LFB39:
 782              		.loc 1 393 0
 783              		.cfi_startproc
 784              		@ args = 0, pretend = 0, frame = 16
 785              		@ frame_needed = 1, uses_anonymous_args = 0
 786 0000 80B5     		push	{r7, lr}
 787              		.cfi_def_cfa_offset 8
 788              		.cfi_offset 7, -8
 789              		.cfi_offset 14, -4
 790 0002 84B0     		sub	sp, sp, #16
 791              		.cfi_def_cfa_offset 24
 792 0004 00AF     		add	r7, sp, #0
 793              		.cfi_def_cfa_register 7
 794 0006 7860     		str	r0, [r7, #4]
 795 0008 0A00     		movs	r2, r1
 796 000a BB1C     		adds	r3, r7, #2
 797 000c 1A80     		strh	r2, [r3]
 798              		.loc 1 399 0
ARM GAS  C:\Users\anashi\AppData\Local\Temp\ccxKpcfQ.s 			page 15


 799 000e 7B68     		ldr	r3, [r7, #4]
 800 0010 1B69     		ldr	r3, [r3, #16]
 801 0012 BA1C     		adds	r2, r7, #2
 802 0014 1288     		ldrh	r2, [r2]
 803 0016 1340     		ands	r3, r2
 804 0018 04D0     		beq	.L38
 805              		.loc 1 401 0
 806 001a 0F23     		movs	r3, #15
 807 001c FB18     		adds	r3, r7, r3
 808 001e 0122     		movs	r2, #1
 809 0020 1A70     		strb	r2, [r3]
 810 0022 03E0     		b	.L39
 811              	.L38:
 812              		.loc 1 405 0
 813 0024 0F23     		movs	r3, #15
 814 0026 FB18     		adds	r3, r7, r3
 815 0028 0022     		movs	r2, #0
 816 002a 1A70     		strb	r2, [r3]
 817              	.L39:
 818              		.loc 1 407 0
 819 002c 0F23     		movs	r3, #15
 820 002e FB18     		adds	r3, r7, r3
 821 0030 1B78     		ldrb	r3, [r3]
 822              		.loc 1 408 0
 823 0032 1800     		movs	r0, r3
 824 0034 BD46     		mov	sp, r7
 825 0036 04B0     		add	sp, sp, #16
 826              		@ sp needed
 827 0038 80BD     		pop	{r7, pc}
 828              		.cfi_endproc
 829              	.LFE39:
 830              		.size	HAL_GPIO_ReadPin, .-HAL_GPIO_ReadPin
 831              		.section	.text.HAL_GPIO_WritePin,"ax",%progbits
 832              		.align	1
 833              		.global	HAL_GPIO_WritePin
 834              		.syntax unified
 835              		.code	16
 836              		.thumb_func
 837              		.fpu softvfp
 838              		.type	HAL_GPIO_WritePin, %function
 839              	HAL_GPIO_WritePin:
 840              	.LFB40:
 841              		.loc 1 426 0
 842              		.cfi_startproc
 843              		@ args = 0, pretend = 0, frame = 8
 844              		@ frame_needed = 1, uses_anonymous_args = 0
 845 0000 80B5     		push	{r7, lr}
 846              		.cfi_def_cfa_offset 8
 847              		.cfi_offset 7, -8
 848              		.cfi_offset 14, -4
 849 0002 82B0     		sub	sp, sp, #8
 850              		.cfi_def_cfa_offset 16
 851 0004 00AF     		add	r7, sp, #0
 852              		.cfi_def_cfa_register 7
 853 0006 7860     		str	r0, [r7, #4]
 854 0008 0800     		movs	r0, r1
 855 000a 1100     		movs	r1, r2
ARM GAS  C:\Users\anashi\AppData\Local\Temp\ccxKpcfQ.s 			page 16


 856 000c BB1C     		adds	r3, r7, #2
 857 000e 021C     		adds	r2, r0, #0
 858 0010 1A80     		strh	r2, [r3]
 859 0012 7B1C     		adds	r3, r7, #1
 860 0014 0A1C     		adds	r2, r1, #0
 861 0016 1A70     		strb	r2, [r3]
 862              		.loc 1 431 0
 863 0018 7B1C     		adds	r3, r7, #1
 864 001a 1B78     		ldrb	r3, [r3]
 865 001c 002B     		cmp	r3, #0
 866 001e 04D0     		beq	.L42
 867              		.loc 1 433 0
 868 0020 BB1C     		adds	r3, r7, #2
 869 0022 1A88     		ldrh	r2, [r3]
 870 0024 7B68     		ldr	r3, [r7, #4]
 871 0026 9A61     		str	r2, [r3, #24]
 872              		.loc 1 439 0
 873 0028 03E0     		b	.L44
 874              	.L42:
 875              		.loc 1 437 0
 876 002a BB1C     		adds	r3, r7, #2
 877 002c 1A88     		ldrh	r2, [r3]
 878 002e 7B68     		ldr	r3, [r7, #4]
 879 0030 9A62     		str	r2, [r3, #40]
 880              	.L44:
 881              		.loc 1 439 0
 882 0032 C046     		nop
 883 0034 BD46     		mov	sp, r7
 884 0036 02B0     		add	sp, sp, #8
 885              		@ sp needed
 886 0038 80BD     		pop	{r7, pc}
 887              		.cfi_endproc
 888              	.LFE40:
 889              		.size	HAL_GPIO_WritePin, .-HAL_GPIO_WritePin
 890              		.section	.text.HAL_GPIO_TogglePin,"ax",%progbits
 891              		.align	1
 892              		.global	HAL_GPIO_TogglePin
 893              		.syntax unified
 894              		.code	16
 895              		.thumb_func
 896              		.fpu softvfp
 897              		.type	HAL_GPIO_TogglePin, %function
 898              	HAL_GPIO_TogglePin:
 899              	.LFB41:
 900              		.loc 1 448 0
 901              		.cfi_startproc
 902              		@ args = 0, pretend = 0, frame = 8
 903              		@ frame_needed = 1, uses_anonymous_args = 0
 904 0000 80B5     		push	{r7, lr}
 905              		.cfi_def_cfa_offset 8
 906              		.cfi_offset 7, -8
 907              		.cfi_offset 14, -4
 908 0002 82B0     		sub	sp, sp, #8
 909              		.cfi_def_cfa_offset 16
 910 0004 00AF     		add	r7, sp, #0
 911              		.cfi_def_cfa_register 7
 912 0006 7860     		str	r0, [r7, #4]
ARM GAS  C:\Users\anashi\AppData\Local\Temp\ccxKpcfQ.s 			page 17


 913 0008 0A00     		movs	r2, r1
 914 000a BB1C     		adds	r3, r7, #2
 915 000c 1A80     		strh	r2, [r3]
 916              		.loc 1 452 0
 917 000e 7B68     		ldr	r3, [r7, #4]
 918 0010 5A69     		ldr	r2, [r3, #20]
 919 0012 BB1C     		adds	r3, r7, #2
 920 0014 1B88     		ldrh	r3, [r3]
 921 0016 5A40     		eors	r2, r3
 922 0018 7B68     		ldr	r3, [r7, #4]
 923 001a 5A61     		str	r2, [r3, #20]
 924              		.loc 1 453 0
 925 001c C046     		nop
 926 001e BD46     		mov	sp, r7
 927 0020 02B0     		add	sp, sp, #8
 928              		@ sp needed
 929 0022 80BD     		pop	{r7, pc}
 930              		.cfi_endproc
 931              	.LFE41:
 932              		.size	HAL_GPIO_TogglePin, .-HAL_GPIO_TogglePin
 933              		.section	.text.HAL_GPIO_LockPin,"ax",%progbits
 934              		.align	1
 935              		.global	HAL_GPIO_LockPin
 936              		.syntax unified
 937              		.code	16
 938              		.thumb_func
 939              		.fpu softvfp
 940              		.type	HAL_GPIO_LockPin, %function
 941              	HAL_GPIO_LockPin:
 942              	.LFB42:
 943              		.loc 1 467 0
 944              		.cfi_startproc
 945              		@ args = 0, pretend = 0, frame = 16
 946              		@ frame_needed = 1, uses_anonymous_args = 0
 947 0000 80B5     		push	{r7, lr}
 948              		.cfi_def_cfa_offset 8
 949              		.cfi_offset 7, -8
 950              		.cfi_offset 14, -4
 951 0002 84B0     		sub	sp, sp, #16
 952              		.cfi_def_cfa_offset 24
 953 0004 00AF     		add	r7, sp, #0
 954              		.cfi_def_cfa_register 7
 955 0006 7860     		str	r0, [r7, #4]
 956 0008 0A00     		movs	r2, r1
 957 000a BB1C     		adds	r3, r7, #2
 958 000c 1A80     		strh	r2, [r3]
 959              		.loc 1 468 0
 960 000e 8023     		movs	r3, #128
 961 0010 5B02     		lsls	r3, r3, #9
 962 0012 FB60     		str	r3, [r7, #12]
 963              		.loc 1 475 0
 964 0014 BB1C     		adds	r3, r7, #2
 965 0016 1A88     		ldrh	r2, [r3]
 966 0018 FB68     		ldr	r3, [r7, #12]
 967 001a 1343     		orrs	r3, r2
 968 001c FB60     		str	r3, [r7, #12]
 969              		.loc 1 477 0
ARM GAS  C:\Users\anashi\AppData\Local\Temp\ccxKpcfQ.s 			page 18


 970 001e FA68     		ldr	r2, [r7, #12]
 971 0020 7B68     		ldr	r3, [r7, #4]
 972 0022 DA61     		str	r2, [r3, #28]
 973              		.loc 1 479 0
 974 0024 BB1C     		adds	r3, r7, #2
 975 0026 1A88     		ldrh	r2, [r3]
 976 0028 7B68     		ldr	r3, [r7, #4]
 977 002a DA61     		str	r2, [r3, #28]
 978              		.loc 1 481 0
 979 002c FA68     		ldr	r2, [r7, #12]
 980 002e 7B68     		ldr	r3, [r7, #4]
 981 0030 DA61     		str	r2, [r3, #28]
 982              		.loc 1 483 0
 983 0032 7B68     		ldr	r3, [r7, #4]
 984 0034 DB69     		ldr	r3, [r3, #28]
 985 0036 FB60     		str	r3, [r7, #12]
 986              		.loc 1 485 0
 987 0038 7B68     		ldr	r3, [r7, #4]
 988 003a DA69     		ldr	r2, [r3, #28]
 989 003c 8023     		movs	r3, #128
 990 003e 5B02     		lsls	r3, r3, #9
 991 0040 1340     		ands	r3, r2
 992 0042 01D0     		beq	.L47
 993              		.loc 1 487 0
 994 0044 0023     		movs	r3, #0
 995 0046 00E0     		b	.L48
 996              	.L47:
 997              		.loc 1 491 0
 998 0048 0123     		movs	r3, #1
 999              	.L48:
 1000              		.loc 1 493 0
 1001 004a 1800     		movs	r0, r3
 1002 004c BD46     		mov	sp, r7
 1003 004e 04B0     		add	sp, sp, #16
 1004              		@ sp needed
 1005 0050 80BD     		pop	{r7, pc}
 1006              		.cfi_endproc
 1007              	.LFE42:
 1008              		.size	HAL_GPIO_LockPin, .-HAL_GPIO_LockPin
 1009              		.section	.text.HAL_GPIO_EXTI_IRQHandler,"ax",%progbits
 1010              		.align	1
 1011              		.global	HAL_GPIO_EXTI_IRQHandler
 1012              		.syntax unified
 1013              		.code	16
 1014              		.thumb_func
 1015              		.fpu softvfp
 1016              		.type	HAL_GPIO_EXTI_IRQHandler, %function
 1017              	HAL_GPIO_EXTI_IRQHandler:
 1018              	.LFB43:
 1019              		.loc 1 501 0
 1020              		.cfi_startproc
 1021              		@ args = 0, pretend = 0, frame = 8
 1022              		@ frame_needed = 1, uses_anonymous_args = 0
 1023 0000 80B5     		push	{r7, lr}
 1024              		.cfi_def_cfa_offset 8
 1025              		.cfi_offset 7, -8
 1026              		.cfi_offset 14, -4
ARM GAS  C:\Users\anashi\AppData\Local\Temp\ccxKpcfQ.s 			page 19


 1027 0002 82B0     		sub	sp, sp, #8
 1028              		.cfi_def_cfa_offset 16
 1029 0004 00AF     		add	r7, sp, #0
 1030              		.cfi_def_cfa_register 7
 1031 0006 0200     		movs	r2, r0
 1032 0008 BB1D     		adds	r3, r7, #6
 1033 000a 1A80     		strh	r2, [r3]
 1034              		.loc 1 503 0
 1035 000c 094B     		ldr	r3, .L52
 1036 000e 5B69     		ldr	r3, [r3, #20]
 1037 0010 BA1D     		adds	r2, r7, #6
 1038 0012 1288     		ldrh	r2, [r2]
 1039 0014 1340     		ands	r3, r2
 1040 0016 08D0     		beq	.L51
 1041              		.loc 1 505 0
 1042 0018 064B     		ldr	r3, .L52
 1043 001a BA1D     		adds	r2, r7, #6
 1044 001c 1288     		ldrh	r2, [r2]
 1045 001e 5A61     		str	r2, [r3, #20]
 1046              		.loc 1 506 0
 1047 0020 BB1D     		adds	r3, r7, #6
 1048 0022 1B88     		ldrh	r3, [r3]
 1049 0024 1800     		movs	r0, r3
 1050 0026 FFF7FEFF 		bl	HAL_GPIO_EXTI_Callback
 1051              	.L51:
 1052              		.loc 1 508 0
 1053 002a C046     		nop
 1054 002c BD46     		mov	sp, r7
 1055 002e 02B0     		add	sp, sp, #8
 1056              		@ sp needed
 1057 0030 80BD     		pop	{r7, pc}
 1058              	.L53:
 1059 0032 C046     		.align	2
 1060              	.L52:
 1061 0034 00040140 		.word	1073808384
 1062              		.cfi_endproc
 1063              	.LFE43:
 1064              		.size	HAL_GPIO_EXTI_IRQHandler, .-HAL_GPIO_EXTI_IRQHandler
 1065              		.section	.text.HAL_GPIO_EXTI_Callback,"ax",%progbits
 1066              		.align	1
 1067              		.weak	HAL_GPIO_EXTI_Callback
 1068              		.syntax unified
 1069              		.code	16
 1070              		.thumb_func
 1071              		.fpu softvfp
 1072              		.type	HAL_GPIO_EXTI_Callback, %function
 1073              	HAL_GPIO_EXTI_Callback:
 1074              	.LFB44:
 1075              		.loc 1 516 0
 1076              		.cfi_startproc
 1077              		@ args = 0, pretend = 0, frame = 8
 1078              		@ frame_needed = 1, uses_anonymous_args = 0
 1079 0000 80B5     		push	{r7, lr}
 1080              		.cfi_def_cfa_offset 8
 1081              		.cfi_offset 7, -8
 1082              		.cfi_offset 14, -4
 1083 0002 82B0     		sub	sp, sp, #8
ARM GAS  C:\Users\anashi\AppData\Local\Temp\ccxKpcfQ.s 			page 20


 1084              		.cfi_def_cfa_offset 16
 1085 0004 00AF     		add	r7, sp, #0
 1086              		.cfi_def_cfa_register 7
 1087 0006 0200     		movs	r2, r0
 1088 0008 BB1D     		adds	r3, r7, #6
 1089 000a 1A80     		strh	r2, [r3]
 1090              		.loc 1 523 0
 1091 000c C046     		nop
 1092 000e BD46     		mov	sp, r7
 1093 0010 02B0     		add	sp, sp, #8
 1094              		@ sp needed
 1095 0012 80BD     		pop	{r7, pc}
 1096              		.cfi_endproc
 1097              	.LFE44:
 1098              		.size	HAL_GPIO_EXTI_Callback, .-HAL_GPIO_EXTI_Callback
 1099              		.text
 1100              	.Letext0:
 1101              		.file 2 "c:\\st\\stm32cubeide_1.1.0\\stm32cubeide\\plugins\\com.st.stm32cube.ide.mcu.externaltools
 1102              		.file 3 "c:\\st\\stm32cubeide_1.1.0\\stm32cubeide\\plugins\\com.st.stm32cube.ide.mcu.externaltools
 1103              		.file 4 "C:/repos/rs2all/board/Drivers/CMSIS/Device/ST/STM32F0xx/Include/system_stm32f0xx.h"
 1104              		.file 5 "C:/repos/rs2all/board/Drivers/CMSIS/Device/ST/STM32F0xx/Include/stm32f030x6.h"
 1105              		.file 6 "c:\\st\\stm32cubeide_1.1.0\\stm32cubeide\\plugins\\com.st.stm32cube.ide.mcu.externaltools
 1106              		.file 7 "c:\\st\\stm32cubeide_1.1.0\\stm32cubeide\\plugins\\com.st.stm32cube.ide.mcu.externaltools
 1107              		.file 8 "c:\\st\\stm32cubeide_1.1.0\\stm32cubeide\\plugins\\com.st.stm32cube.ide.mcu.externaltools
 1108              		.file 9 "c:\\st\\stm32cubeide_1.1.0\\stm32cubeide\\plugins\\com.st.stm32cube.ide.mcu.externaltools
 1109              		.file 10 "C:/repos/rs2all/board/Drivers/CMSIS/Device/ST/STM32F0xx/Include/stm32f0xx.h"
 1110              		.file 11 "C:/repos/rs2all/board/Drivers/STM32F0xx_HAL_Driver/Inc/stm32f0xx_hal_def.h"
 1111              		.file 12 "C:/repos/rs2all/board/Drivers/STM32F0xx_HAL_Driver/Inc/stm32f0xx_hal_gpio.h"
