ARM GAS  C:\Users\anashi\AppData\Local\Temp\ccN6f8ah.s 			page 1


   1              		.cpu cortex-m0
   2              		.eabi_attribute 20, 1
   3              		.eabi_attribute 21, 1
   4              		.eabi_attribute 23, 3
   5              		.eabi_attribute 24, 1
   6              		.eabi_attribute 25, 1
   7              		.eabi_attribute 26, 1
   8              		.eabi_attribute 30, 6
   9              		.eabi_attribute 34, 0
  10              		.eabi_attribute 18, 4
  11              		.file	"stm32f0xx_hal_tim.c"
  12              		.text
  13              	.Ltext0:
  14              		.cfi_sections	.debug_frame
  15              		.section	.text.HAL_TIM_Base_Init,"ax",%progbits
  16              		.align	1
  17              		.global	HAL_TIM_Base_Init
  18              		.syntax unified
  19              		.code	16
  20              		.thumb_func
  21              		.fpu softvfp
  22              		.type	HAL_TIM_Base_Init, %function
  23              	HAL_TIM_Base_Init:
  24              	.LFB37:
  25              		.file 1 "C:/repos/rs2all/board/Drivers/STM32F0xx_HAL_Driver/Src/stm32f0xx_hal_tim.c"
  26              		.loc 1 204 0
  27              		.cfi_startproc
  28              		@ args = 0, pretend = 0, frame = 8
  29              		@ frame_needed = 1, uses_anonymous_args = 0
  30 0000 80B5     		push	{r7, lr}
  31              		.cfi_def_cfa_offset 8
  32              		.cfi_offset 7, -8
  33              		.cfi_offset 14, -4
  34 0002 82B0     		sub	sp, sp, #8
  35              		.cfi_def_cfa_offset 16
  36 0004 00AF     		add	r7, sp, #0
  37              		.cfi_def_cfa_register 7
  38 0006 7860     		str	r0, [r7, #4]
  39              		.loc 1 206 0
  40 0008 7B68     		ldr	r3, [r7, #4]
  41 000a 002B     		cmp	r3, #0
  42 000c 01D1     		bne	.L2
  43              		.loc 1 208 0
  44 000e 0123     		movs	r3, #1
  45 0010 1EE0     		b	.L3
  46              	.L2:
  47              		.loc 1 217 0
  48 0012 7B68     		ldr	r3, [r7, #4]
  49 0014 3D22     		movs	r2, #61
  50 0016 9B5C     		ldrb	r3, [r3, r2]
  51 0018 DBB2     		uxtb	r3, r3
  52 001a 002B     		cmp	r3, #0
  53 001c 07D1     		bne	.L4
  54              		.loc 1 220 0
  55 001e 7B68     		ldr	r3, [r7, #4]
  56 0020 3C22     		movs	r2, #60
  57 0022 0021     		movs	r1, #0
ARM GAS  C:\Users\anashi\AppData\Local\Temp\ccN6f8ah.s 			page 2


  58 0024 9954     		strb	r1, [r3, r2]
  59              		.loc 1 223 0
  60 0026 7B68     		ldr	r3, [r7, #4]
  61 0028 1800     		movs	r0, r3
  62 002a FFF7FEFF 		bl	HAL_TIM_Base_MspInit
  63              	.L4:
  64              		.loc 1 227 0
  65 002e 7B68     		ldr	r3, [r7, #4]
  66 0030 3D22     		movs	r2, #61
  67 0032 0221     		movs	r1, #2
  68 0034 9954     		strb	r1, [r3, r2]
  69              		.loc 1 230 0
  70 0036 7B68     		ldr	r3, [r7, #4]
  71 0038 1A68     		ldr	r2, [r3]
  72 003a 7B68     		ldr	r3, [r7, #4]
  73 003c 0433     		adds	r3, r3, #4
  74 003e 1900     		movs	r1, r3
  75 0040 1000     		movs	r0, r2
  76 0042 FFF7FEFF 		bl	TIM_Base_SetConfig
  77              		.loc 1 233 0
  78 0046 7B68     		ldr	r3, [r7, #4]
  79 0048 3D22     		movs	r2, #61
  80 004a 0121     		movs	r1, #1
  81 004c 9954     		strb	r1, [r3, r2]
  82              		.loc 1 235 0
  83 004e 0023     		movs	r3, #0
  84              	.L3:
  85              		.loc 1 236 0
  86 0050 1800     		movs	r0, r3
  87 0052 BD46     		mov	sp, r7
  88 0054 02B0     		add	sp, sp, #8
  89              		@ sp needed
  90 0056 80BD     		pop	{r7, pc}
  91              		.cfi_endproc
  92              	.LFE37:
  93              		.size	HAL_TIM_Base_Init, .-HAL_TIM_Base_Init
  94              		.section	.text.HAL_TIM_Base_DeInit,"ax",%progbits
  95              		.align	1
  96              		.global	HAL_TIM_Base_DeInit
  97              		.syntax unified
  98              		.code	16
  99              		.thumb_func
 100              		.fpu softvfp
 101              		.type	HAL_TIM_Base_DeInit, %function
 102              	HAL_TIM_Base_DeInit:
 103              	.LFB38:
 104              		.loc 1 244 0
 105              		.cfi_startproc
 106              		@ args = 0, pretend = 0, frame = 8
 107              		@ frame_needed = 1, uses_anonymous_args = 0
 108 0000 80B5     		push	{r7, lr}
 109              		.cfi_def_cfa_offset 8
 110              		.cfi_offset 7, -8
 111              		.cfi_offset 14, -4
 112 0002 82B0     		sub	sp, sp, #8
 113              		.cfi_def_cfa_offset 16
 114 0004 00AF     		add	r7, sp, #0
ARM GAS  C:\Users\anashi\AppData\Local\Temp\ccN6f8ah.s 			page 3


 115              		.cfi_def_cfa_register 7
 116 0006 7860     		str	r0, [r7, #4]
 117              		.loc 1 248 0
 118 0008 7B68     		ldr	r3, [r7, #4]
 119 000a 3D22     		movs	r2, #61
 120 000c 0221     		movs	r1, #2
 121 000e 9954     		strb	r1, [r3, r2]
 122              		.loc 1 251 0
 123 0010 7B68     		ldr	r3, [r7, #4]
 124 0012 1B68     		ldr	r3, [r3]
 125 0014 1B6A     		ldr	r3, [r3, #32]
 126 0016 114A     		ldr	r2, .L8
 127 0018 1340     		ands	r3, r2
 128 001a 0DD1     		bne	.L6
 129              		.loc 1 251 0 is_stmt 0 discriminator 1
 130 001c 7B68     		ldr	r3, [r7, #4]
 131 001e 1B68     		ldr	r3, [r3]
 132 0020 1B6A     		ldr	r3, [r3, #32]
 133 0022 0F4A     		ldr	r2, .L8+4
 134 0024 1340     		ands	r3, r2
 135 0026 07D1     		bne	.L6
 136              		.loc 1 251 0 discriminator 2
 137 0028 7B68     		ldr	r3, [r7, #4]
 138 002a 1B68     		ldr	r3, [r3]
 139 002c 1A68     		ldr	r2, [r3]
 140 002e 7B68     		ldr	r3, [r7, #4]
 141 0030 1B68     		ldr	r3, [r3]
 142 0032 0121     		movs	r1, #1
 143 0034 8A43     		bics	r2, r1
 144 0036 1A60     		str	r2, [r3]
 145              	.L6:
 146              		.loc 1 254 0 is_stmt 1
 147 0038 7B68     		ldr	r3, [r7, #4]
 148 003a 1800     		movs	r0, r3
 149 003c FFF7FEFF 		bl	HAL_TIM_Base_MspDeInit
 150              		.loc 1 257 0
 151 0040 7B68     		ldr	r3, [r7, #4]
 152 0042 3D22     		movs	r2, #61
 153 0044 0021     		movs	r1, #0
 154 0046 9954     		strb	r1, [r3, r2]
 155              		.loc 1 260 0
 156 0048 7B68     		ldr	r3, [r7, #4]
 157 004a 3C22     		movs	r2, #60
 158 004c 0021     		movs	r1, #0
 159 004e 9954     		strb	r1, [r3, r2]
 160              		.loc 1 262 0
 161 0050 0023     		movs	r3, #0
 162              		.loc 1 263 0
 163 0052 1800     		movs	r0, r3
 164 0054 BD46     		mov	sp, r7
 165 0056 02B0     		add	sp, sp, #8
 166              		@ sp needed
 167 0058 80BD     		pop	{r7, pc}
 168              	.L9:
 169 005a C046     		.align	2
 170              	.L8:
 171 005c 11110000 		.word	4369
ARM GAS  C:\Users\anashi\AppData\Local\Temp\ccN6f8ah.s 			page 4


 172 0060 44040000 		.word	1092
 173              		.cfi_endproc
 174              	.LFE38:
 175              		.size	HAL_TIM_Base_DeInit, .-HAL_TIM_Base_DeInit
 176              		.section	.text.HAL_TIM_Base_MspInit,"ax",%progbits
 177              		.align	1
 178              		.weak	HAL_TIM_Base_MspInit
 179              		.syntax unified
 180              		.code	16
 181              		.thumb_func
 182              		.fpu softvfp
 183              		.type	HAL_TIM_Base_MspInit, %function
 184              	HAL_TIM_Base_MspInit:
 185              	.LFB39:
 186              		.loc 1 271 0
 187              		.cfi_startproc
 188              		@ args = 0, pretend = 0, frame = 8
 189              		@ frame_needed = 1, uses_anonymous_args = 0
 190 0000 80B5     		push	{r7, lr}
 191              		.cfi_def_cfa_offset 8
 192              		.cfi_offset 7, -8
 193              		.cfi_offset 14, -4
 194 0002 82B0     		sub	sp, sp, #8
 195              		.cfi_def_cfa_offset 16
 196 0004 00AF     		add	r7, sp, #0
 197              		.cfi_def_cfa_register 7
 198 0006 7860     		str	r0, [r7, #4]
 199              		.loc 1 278 0
 200 0008 C046     		nop
 201 000a BD46     		mov	sp, r7
 202 000c 02B0     		add	sp, sp, #8
 203              		@ sp needed
 204 000e 80BD     		pop	{r7, pc}
 205              		.cfi_endproc
 206              	.LFE39:
 207              		.size	HAL_TIM_Base_MspInit, .-HAL_TIM_Base_MspInit
 208              		.section	.text.HAL_TIM_Base_MspDeInit,"ax",%progbits
 209              		.align	1
 210              		.weak	HAL_TIM_Base_MspDeInit
 211              		.syntax unified
 212              		.code	16
 213              		.thumb_func
 214              		.fpu softvfp
 215              		.type	HAL_TIM_Base_MspDeInit, %function
 216              	HAL_TIM_Base_MspDeInit:
 217              	.LFB40:
 218              		.loc 1 286 0
 219              		.cfi_startproc
 220              		@ args = 0, pretend = 0, frame = 8
 221              		@ frame_needed = 1, uses_anonymous_args = 0
 222 0000 80B5     		push	{r7, lr}
 223              		.cfi_def_cfa_offset 8
 224              		.cfi_offset 7, -8
 225              		.cfi_offset 14, -4
 226 0002 82B0     		sub	sp, sp, #8
 227              		.cfi_def_cfa_offset 16
 228 0004 00AF     		add	r7, sp, #0
ARM GAS  C:\Users\anashi\AppData\Local\Temp\ccN6f8ah.s 			page 5


 229              		.cfi_def_cfa_register 7
 230 0006 7860     		str	r0, [r7, #4]
 231              		.loc 1 293 0
 232 0008 C046     		nop
 233 000a BD46     		mov	sp, r7
 234 000c 02B0     		add	sp, sp, #8
 235              		@ sp needed
 236 000e 80BD     		pop	{r7, pc}
 237              		.cfi_endproc
 238              	.LFE40:
 239              		.size	HAL_TIM_Base_MspDeInit, .-HAL_TIM_Base_MspDeInit
 240              		.section	.text.HAL_TIM_Base_Start,"ax",%progbits
 241              		.align	1
 242              		.global	HAL_TIM_Base_Start
 243              		.syntax unified
 244              		.code	16
 245              		.thumb_func
 246              		.fpu softvfp
 247              		.type	HAL_TIM_Base_Start, %function
 248              	HAL_TIM_Base_Start:
 249              	.LFB41:
 250              		.loc 1 302 0
 251              		.cfi_startproc
 252              		@ args = 0, pretend = 0, frame = 8
 253              		@ frame_needed = 1, uses_anonymous_args = 0
 254 0000 80B5     		push	{r7, lr}
 255              		.cfi_def_cfa_offset 8
 256              		.cfi_offset 7, -8
 257              		.cfi_offset 14, -4
 258 0002 82B0     		sub	sp, sp, #8
 259              		.cfi_def_cfa_offset 16
 260 0004 00AF     		add	r7, sp, #0
 261              		.cfi_def_cfa_register 7
 262 0006 7860     		str	r0, [r7, #4]
 263              		.loc 1 307 0
 264 0008 7B68     		ldr	r3, [r7, #4]
 265 000a 3D22     		movs	r2, #61
 266 000c 0221     		movs	r1, #2
 267 000e 9954     		strb	r1, [r3, r2]
 268              		.loc 1 310 0
 269 0010 7B68     		ldr	r3, [r7, #4]
 270 0012 1B68     		ldr	r3, [r3]
 271 0014 1A68     		ldr	r2, [r3]
 272 0016 7B68     		ldr	r3, [r7, #4]
 273 0018 1B68     		ldr	r3, [r3]
 274 001a 0121     		movs	r1, #1
 275 001c 0A43     		orrs	r2, r1
 276 001e 1A60     		str	r2, [r3]
 277              		.loc 1 313 0
 278 0020 7B68     		ldr	r3, [r7, #4]
 279 0022 3D22     		movs	r2, #61
 280 0024 0121     		movs	r1, #1
 281 0026 9954     		strb	r1, [r3, r2]
 282              		.loc 1 316 0
 283 0028 0023     		movs	r3, #0
 284              		.loc 1 317 0
 285 002a 1800     		movs	r0, r3
ARM GAS  C:\Users\anashi\AppData\Local\Temp\ccN6f8ah.s 			page 6


 286 002c BD46     		mov	sp, r7
 287 002e 02B0     		add	sp, sp, #8
 288              		@ sp needed
 289 0030 80BD     		pop	{r7, pc}
 290              		.cfi_endproc
 291              	.LFE41:
 292              		.size	HAL_TIM_Base_Start, .-HAL_TIM_Base_Start
 293              		.section	.text.HAL_TIM_Base_Stop,"ax",%progbits
 294              		.align	1
 295              		.global	HAL_TIM_Base_Stop
 296              		.syntax unified
 297              		.code	16
 298              		.thumb_func
 299              		.fpu softvfp
 300              		.type	HAL_TIM_Base_Stop, %function
 301              	HAL_TIM_Base_Stop:
 302              	.LFB42:
 303              		.loc 1 325 0
 304              		.cfi_startproc
 305              		@ args = 0, pretend = 0, frame = 8
 306              		@ frame_needed = 1, uses_anonymous_args = 0
 307 0000 80B5     		push	{r7, lr}
 308              		.cfi_def_cfa_offset 8
 309              		.cfi_offset 7, -8
 310              		.cfi_offset 14, -4
 311 0002 82B0     		sub	sp, sp, #8
 312              		.cfi_def_cfa_offset 16
 313 0004 00AF     		add	r7, sp, #0
 314              		.cfi_def_cfa_register 7
 315 0006 7860     		str	r0, [r7, #4]
 316              		.loc 1 330 0
 317 0008 7B68     		ldr	r3, [r7, #4]
 318 000a 3D22     		movs	r2, #61
 319 000c 0221     		movs	r1, #2
 320 000e 9954     		strb	r1, [r3, r2]
 321              		.loc 1 333 0
 322 0010 7B68     		ldr	r3, [r7, #4]
 323 0012 1B68     		ldr	r3, [r3]
 324 0014 1B6A     		ldr	r3, [r3, #32]
 325 0016 0D4A     		ldr	r2, .L17
 326 0018 1340     		ands	r3, r2
 327 001a 0DD1     		bne	.L15
 328              		.loc 1 333 0 is_stmt 0 discriminator 1
 329 001c 7B68     		ldr	r3, [r7, #4]
 330 001e 1B68     		ldr	r3, [r3]
 331 0020 1B6A     		ldr	r3, [r3, #32]
 332 0022 0B4A     		ldr	r2, .L17+4
 333 0024 1340     		ands	r3, r2
 334 0026 07D1     		bne	.L15
 335              		.loc 1 333 0 discriminator 2
 336 0028 7B68     		ldr	r3, [r7, #4]
 337 002a 1B68     		ldr	r3, [r3]
 338 002c 1A68     		ldr	r2, [r3]
 339 002e 7B68     		ldr	r3, [r7, #4]
 340 0030 1B68     		ldr	r3, [r3]
 341 0032 0121     		movs	r1, #1
 342 0034 8A43     		bics	r2, r1
ARM GAS  C:\Users\anashi\AppData\Local\Temp\ccN6f8ah.s 			page 7


 343 0036 1A60     		str	r2, [r3]
 344              	.L15:
 345              		.loc 1 336 0 is_stmt 1
 346 0038 7B68     		ldr	r3, [r7, #4]
 347 003a 3D22     		movs	r2, #61
 348 003c 0121     		movs	r1, #1
 349 003e 9954     		strb	r1, [r3, r2]
 350              		.loc 1 339 0
 351 0040 0023     		movs	r3, #0
 352              		.loc 1 340 0
 353 0042 1800     		movs	r0, r3
 354 0044 BD46     		mov	sp, r7
 355 0046 02B0     		add	sp, sp, #8
 356              		@ sp needed
 357 0048 80BD     		pop	{r7, pc}
 358              	.L18:
 359 004a C046     		.align	2
 360              	.L17:
 361 004c 11110000 		.word	4369
 362 0050 44040000 		.word	1092
 363              		.cfi_endproc
 364              	.LFE42:
 365              		.size	HAL_TIM_Base_Stop, .-HAL_TIM_Base_Stop
 366              		.section	.text.HAL_TIM_Base_Start_IT,"ax",%progbits
 367              		.align	1
 368              		.global	HAL_TIM_Base_Start_IT
 369              		.syntax unified
 370              		.code	16
 371              		.thumb_func
 372              		.fpu softvfp
 373              		.type	HAL_TIM_Base_Start_IT, %function
 374              	HAL_TIM_Base_Start_IT:
 375              	.LFB43:
 376              		.loc 1 348 0
 377              		.cfi_startproc
 378              		@ args = 0, pretend = 0, frame = 8
 379              		@ frame_needed = 1, uses_anonymous_args = 0
 380 0000 80B5     		push	{r7, lr}
 381              		.cfi_def_cfa_offset 8
 382              		.cfi_offset 7, -8
 383              		.cfi_offset 14, -4
 384 0002 82B0     		sub	sp, sp, #8
 385              		.cfi_def_cfa_offset 16
 386 0004 00AF     		add	r7, sp, #0
 387              		.cfi_def_cfa_register 7
 388 0006 7860     		str	r0, [r7, #4]
 389              		.loc 1 353 0
 390 0008 7B68     		ldr	r3, [r7, #4]
 391 000a 1B68     		ldr	r3, [r3]
 392 000c DA68     		ldr	r2, [r3, #12]
 393 000e 7B68     		ldr	r3, [r7, #4]
 394 0010 1B68     		ldr	r3, [r3]
 395 0012 0121     		movs	r1, #1
 396 0014 0A43     		orrs	r2, r1
 397 0016 DA60     		str	r2, [r3, #12]
 398              		.loc 1 356 0
 399 0018 7B68     		ldr	r3, [r7, #4]
ARM GAS  C:\Users\anashi\AppData\Local\Temp\ccN6f8ah.s 			page 8


 400 001a 1B68     		ldr	r3, [r3]
 401 001c 1A68     		ldr	r2, [r3]
 402 001e 7B68     		ldr	r3, [r7, #4]
 403 0020 1B68     		ldr	r3, [r3]
 404 0022 0121     		movs	r1, #1
 405 0024 0A43     		orrs	r2, r1
 406 0026 1A60     		str	r2, [r3]
 407              		.loc 1 359 0
 408 0028 0023     		movs	r3, #0
 409              		.loc 1 360 0
 410 002a 1800     		movs	r0, r3
 411 002c BD46     		mov	sp, r7
 412 002e 02B0     		add	sp, sp, #8
 413              		@ sp needed
 414 0030 80BD     		pop	{r7, pc}
 415              		.cfi_endproc
 416              	.LFE43:
 417              		.size	HAL_TIM_Base_Start_IT, .-HAL_TIM_Base_Start_IT
 418              		.section	.text.HAL_TIM_Base_Stop_IT,"ax",%progbits
 419              		.align	1
 420              		.global	HAL_TIM_Base_Stop_IT
 421              		.syntax unified
 422              		.code	16
 423              		.thumb_func
 424              		.fpu softvfp
 425              		.type	HAL_TIM_Base_Stop_IT, %function
 426              	HAL_TIM_Base_Stop_IT:
 427              	.LFB44:
 428              		.loc 1 368 0
 429              		.cfi_startproc
 430              		@ args = 0, pretend = 0, frame = 8
 431              		@ frame_needed = 1, uses_anonymous_args = 0
 432 0000 80B5     		push	{r7, lr}
 433              		.cfi_def_cfa_offset 8
 434              		.cfi_offset 7, -8
 435              		.cfi_offset 14, -4
 436 0002 82B0     		sub	sp, sp, #8
 437              		.cfi_def_cfa_offset 16
 438 0004 00AF     		add	r7, sp, #0
 439              		.cfi_def_cfa_register 7
 440 0006 7860     		str	r0, [r7, #4]
 441              		.loc 1 372 0
 442 0008 7B68     		ldr	r3, [r7, #4]
 443 000a 1B68     		ldr	r3, [r3]
 444 000c DA68     		ldr	r2, [r3, #12]
 445 000e 7B68     		ldr	r3, [r7, #4]
 446 0010 1B68     		ldr	r3, [r3]
 447 0012 0121     		movs	r1, #1
 448 0014 8A43     		bics	r2, r1
 449 0016 DA60     		str	r2, [r3, #12]
 450              		.loc 1 375 0
 451 0018 7B68     		ldr	r3, [r7, #4]
 452 001a 1B68     		ldr	r3, [r3]
 453 001c 1B6A     		ldr	r3, [r3, #32]
 454 001e 0B4A     		ldr	r2, .L24
 455 0020 1340     		ands	r3, r2
 456 0022 0DD1     		bne	.L22
ARM GAS  C:\Users\anashi\AppData\Local\Temp\ccN6f8ah.s 			page 9


 457              		.loc 1 375 0 is_stmt 0 discriminator 1
 458 0024 7B68     		ldr	r3, [r7, #4]
 459 0026 1B68     		ldr	r3, [r3]
 460 0028 1B6A     		ldr	r3, [r3, #32]
 461 002a 094A     		ldr	r2, .L24+4
 462 002c 1340     		ands	r3, r2
 463 002e 07D1     		bne	.L22
 464              		.loc 1 375 0 discriminator 2
 465 0030 7B68     		ldr	r3, [r7, #4]
 466 0032 1B68     		ldr	r3, [r3]
 467 0034 1A68     		ldr	r2, [r3]
 468 0036 7B68     		ldr	r3, [r7, #4]
 469 0038 1B68     		ldr	r3, [r3]
 470 003a 0121     		movs	r1, #1
 471 003c 8A43     		bics	r2, r1
 472 003e 1A60     		str	r2, [r3]
 473              	.L22:
 474              		.loc 1 378 0 is_stmt 1
 475 0040 0023     		movs	r3, #0
 476              		.loc 1 379 0
 477 0042 1800     		movs	r0, r3
 478 0044 BD46     		mov	sp, r7
 479 0046 02B0     		add	sp, sp, #8
 480              		@ sp needed
 481 0048 80BD     		pop	{r7, pc}
 482              	.L25:
 483 004a C046     		.align	2
 484              	.L24:
 485 004c 11110000 		.word	4369
 486 0050 44040000 		.word	1092
 487              		.cfi_endproc
 488              	.LFE44:
 489              		.size	HAL_TIM_Base_Stop_IT, .-HAL_TIM_Base_Stop_IT
 490              		.section	.text.HAL_TIM_Base_Start_DMA,"ax",%progbits
 491              		.align	1
 492              		.global	HAL_TIM_Base_Start_DMA
 493              		.syntax unified
 494              		.code	16
 495              		.thumb_func
 496              		.fpu softvfp
 497              		.type	HAL_TIM_Base_Start_DMA, %function
 498              	HAL_TIM_Base_Start_DMA:
 499              	.LFB45:
 500              		.loc 1 389 0
 501              		.cfi_startproc
 502              		@ args = 0, pretend = 0, frame = 16
 503              		@ frame_needed = 1, uses_anonymous_args = 0
 504 0000 80B5     		push	{r7, lr}
 505              		.cfi_def_cfa_offset 8
 506              		.cfi_offset 7, -8
 507              		.cfi_offset 14, -4
 508 0002 84B0     		sub	sp, sp, #16
 509              		.cfi_def_cfa_offset 24
 510 0004 00AF     		add	r7, sp, #0
 511              		.cfi_def_cfa_register 7
 512 0006 F860     		str	r0, [r7, #12]
 513 0008 B960     		str	r1, [r7, #8]
ARM GAS  C:\Users\anashi\AppData\Local\Temp\ccN6f8ah.s 			page 10


 514 000a BB1D     		adds	r3, r7, #6
 515 000c 1A80     		strh	r2, [r3]
 516              		.loc 1 393 0
 517 000e FB68     		ldr	r3, [r7, #12]
 518 0010 3D22     		movs	r2, #61
 519 0012 9B5C     		ldrb	r3, [r3, r2]
 520 0014 DBB2     		uxtb	r3, r3
 521 0016 022B     		cmp	r3, #2
 522 0018 01D1     		bne	.L27
 523              		.loc 1 395 0
 524 001a 0223     		movs	r3, #2
 525 001c 37E0     		b	.L28
 526              	.L27:
 527              		.loc 1 397 0
 528 001e FB68     		ldr	r3, [r7, #12]
 529 0020 3D22     		movs	r2, #61
 530 0022 9B5C     		ldrb	r3, [r3, r2]
 531 0024 DBB2     		uxtb	r3, r3
 532 0026 012B     		cmp	r3, #1
 533 0028 0CD1     		bne	.L29
 534              		.loc 1 399 0
 535 002a BB68     		ldr	r3, [r7, #8]
 536 002c 002B     		cmp	r3, #0
 537 002e 05D1     		bne	.L30
 538              		.loc 1 399 0 is_stmt 0 discriminator 1
 539 0030 BB1D     		adds	r3, r7, #6
 540 0032 1B88     		ldrh	r3, [r3]
 541 0034 002B     		cmp	r3, #0
 542 0036 01D0     		beq	.L30
 543              		.loc 1 401 0 is_stmt 1
 544 0038 0123     		movs	r3, #1
 545 003a 28E0     		b	.L28
 546              	.L30:
 547              		.loc 1 405 0
 548 003c FB68     		ldr	r3, [r7, #12]
 549 003e 3D22     		movs	r2, #61
 550 0040 0221     		movs	r1, #2
 551 0042 9954     		strb	r1, [r3, r2]
 552              	.L29:
 553              		.loc 1 409 0
 554 0044 FB68     		ldr	r3, [r7, #12]
 555 0046 1B6A     		ldr	r3, [r3, #32]
 556 0048 134A     		ldr	r2, .L31
 557 004a 9A62     		str	r2, [r3, #40]
 558              		.loc 1 412 0
 559 004c FB68     		ldr	r3, [r7, #12]
 560 004e 1B6A     		ldr	r3, [r3, #32]
 561 0050 124A     		ldr	r2, .L31+4
 562 0052 1A63     		str	r2, [r3, #48]
 563              		.loc 1 415 0
 564 0054 FB68     		ldr	r3, [r7, #12]
 565 0056 186A     		ldr	r0, [r3, #32]
 566 0058 B968     		ldr	r1, [r7, #8]
 567 005a FB68     		ldr	r3, [r7, #12]
 568 005c 1B68     		ldr	r3, [r3]
 569 005e 2C33     		adds	r3, r3, #44
 570 0060 1A00     		movs	r2, r3
ARM GAS  C:\Users\anashi\AppData\Local\Temp\ccN6f8ah.s 			page 11


 571 0062 BB1D     		adds	r3, r7, #6
 572 0064 1B88     		ldrh	r3, [r3]
 573 0066 FFF7FEFF 		bl	HAL_DMA_Start_IT
 574              		.loc 1 418 0
 575 006a FB68     		ldr	r3, [r7, #12]
 576 006c 1B68     		ldr	r3, [r3]
 577 006e DA68     		ldr	r2, [r3, #12]
 578 0070 FB68     		ldr	r3, [r7, #12]
 579 0072 1B68     		ldr	r3, [r3]
 580 0074 8021     		movs	r1, #128
 581 0076 4900     		lsls	r1, r1, #1
 582 0078 0A43     		orrs	r2, r1
 583 007a DA60     		str	r2, [r3, #12]
 584              		.loc 1 421 0
 585 007c FB68     		ldr	r3, [r7, #12]
 586 007e 1B68     		ldr	r3, [r3]
 587 0080 1A68     		ldr	r2, [r3]
 588 0082 FB68     		ldr	r3, [r7, #12]
 589 0084 1B68     		ldr	r3, [r3]
 590 0086 0121     		movs	r1, #1
 591 0088 0A43     		orrs	r2, r1
 592 008a 1A60     		str	r2, [r3]
 593              		.loc 1 424 0
 594 008c 0023     		movs	r3, #0
 595              	.L28:
 596              		.loc 1 425 0
 597 008e 1800     		movs	r0, r3
 598 0090 BD46     		mov	sp, r7
 599 0092 04B0     		add	sp, sp, #16
 600              		@ sp needed
 601 0094 80BD     		pop	{r7, pc}
 602              	.L32:
 603 0096 C046     		.align	2
 604              	.L31:
 605 0098 00000000 		.word	TIM_DMAPeriodElapsedCplt
 606 009c 00000000 		.word	TIM_DMAError
 607              		.cfi_endproc
 608              	.LFE45:
 609              		.size	HAL_TIM_Base_Start_DMA, .-HAL_TIM_Base_Start_DMA
 610              		.section	.text.HAL_TIM_Base_Stop_DMA,"ax",%progbits
 611              		.align	1
 612              		.global	HAL_TIM_Base_Stop_DMA
 613              		.syntax unified
 614              		.code	16
 615              		.thumb_func
 616              		.fpu softvfp
 617              		.type	HAL_TIM_Base_Stop_DMA, %function
 618              	HAL_TIM_Base_Stop_DMA:
 619              	.LFB46:
 620              		.loc 1 433 0
 621              		.cfi_startproc
 622              		@ args = 0, pretend = 0, frame = 8
 623              		@ frame_needed = 1, uses_anonymous_args = 0
 624 0000 80B5     		push	{r7, lr}
 625              		.cfi_def_cfa_offset 8
 626              		.cfi_offset 7, -8
 627              		.cfi_offset 14, -4
ARM GAS  C:\Users\anashi\AppData\Local\Temp\ccN6f8ah.s 			page 12


 628 0002 82B0     		sub	sp, sp, #8
 629              		.cfi_def_cfa_offset 16
 630 0004 00AF     		add	r7, sp, #0
 631              		.cfi_def_cfa_register 7
 632 0006 7860     		str	r0, [r7, #4]
 633              		.loc 1 438 0
 634 0008 7B68     		ldr	r3, [r7, #4]
 635 000a 1B68     		ldr	r3, [r3]
 636 000c DA68     		ldr	r2, [r3, #12]
 637 000e 7B68     		ldr	r3, [r7, #4]
 638 0010 1B68     		ldr	r3, [r3]
 639 0012 1049     		ldr	r1, .L36
 640 0014 0A40     		ands	r2, r1
 641 0016 DA60     		str	r2, [r3, #12]
 642              		.loc 1 441 0
 643 0018 7B68     		ldr	r3, [r7, #4]
 644 001a 1B68     		ldr	r3, [r3]
 645 001c 1B6A     		ldr	r3, [r3, #32]
 646 001e 0E4A     		ldr	r2, .L36+4
 647 0020 1340     		ands	r3, r2
 648 0022 0DD1     		bne	.L34
 649              		.loc 1 441 0 is_stmt 0 discriminator 1
 650 0024 7B68     		ldr	r3, [r7, #4]
 651 0026 1B68     		ldr	r3, [r3]
 652 0028 1B6A     		ldr	r3, [r3, #32]
 653 002a 0C4A     		ldr	r2, .L36+8
 654 002c 1340     		ands	r3, r2
 655 002e 07D1     		bne	.L34
 656              		.loc 1 441 0 discriminator 2
 657 0030 7B68     		ldr	r3, [r7, #4]
 658 0032 1B68     		ldr	r3, [r3]
 659 0034 1A68     		ldr	r2, [r3]
 660 0036 7B68     		ldr	r3, [r7, #4]
 661 0038 1B68     		ldr	r3, [r3]
 662 003a 0121     		movs	r1, #1
 663 003c 8A43     		bics	r2, r1
 664 003e 1A60     		str	r2, [r3]
 665              	.L34:
 666              		.loc 1 444 0 is_stmt 1
 667 0040 7B68     		ldr	r3, [r7, #4]
 668 0042 3D22     		movs	r2, #61
 669 0044 0121     		movs	r1, #1
 670 0046 9954     		strb	r1, [r3, r2]
 671              		.loc 1 447 0
 672 0048 0023     		movs	r3, #0
 673              		.loc 1 448 0
 674 004a 1800     		movs	r0, r3
 675 004c BD46     		mov	sp, r7
 676 004e 02B0     		add	sp, sp, #8
 677              		@ sp needed
 678 0050 80BD     		pop	{r7, pc}
 679              	.L37:
 680 0052 C046     		.align	2
 681              	.L36:
 682 0054 FFFEFFFF 		.word	-257
 683 0058 11110000 		.word	4369
 684 005c 44040000 		.word	1092
ARM GAS  C:\Users\anashi\AppData\Local\Temp\ccN6f8ah.s 			page 13


 685              		.cfi_endproc
 686              	.LFE46:
 687              		.size	HAL_TIM_Base_Stop_DMA, .-HAL_TIM_Base_Stop_DMA
 688              		.section	.text.HAL_TIM_OC_Init,"ax",%progbits
 689              		.align	1
 690              		.global	HAL_TIM_OC_Init
 691              		.syntax unified
 692              		.code	16
 693              		.thumb_func
 694              		.fpu softvfp
 695              		.type	HAL_TIM_OC_Init, %function
 696              	HAL_TIM_OC_Init:
 697              	.LFB47:
 698              		.loc 1 482 0
 699              		.cfi_startproc
 700              		@ args = 0, pretend = 0, frame = 8
 701              		@ frame_needed = 1, uses_anonymous_args = 0
 702 0000 80B5     		push	{r7, lr}
 703              		.cfi_def_cfa_offset 8
 704              		.cfi_offset 7, -8
 705              		.cfi_offset 14, -4
 706 0002 82B0     		sub	sp, sp, #8
 707              		.cfi_def_cfa_offset 16
 708 0004 00AF     		add	r7, sp, #0
 709              		.cfi_def_cfa_register 7
 710 0006 7860     		str	r0, [r7, #4]
 711              		.loc 1 484 0
 712 0008 7B68     		ldr	r3, [r7, #4]
 713 000a 002B     		cmp	r3, #0
 714 000c 01D1     		bne	.L39
 715              		.loc 1 486 0
 716 000e 0123     		movs	r3, #1
 717 0010 1EE0     		b	.L40
 718              	.L39:
 719              		.loc 1 495 0
 720 0012 7B68     		ldr	r3, [r7, #4]
 721 0014 3D22     		movs	r2, #61
 722 0016 9B5C     		ldrb	r3, [r3, r2]
 723 0018 DBB2     		uxtb	r3, r3
 724 001a 002B     		cmp	r3, #0
 725 001c 07D1     		bne	.L41
 726              		.loc 1 498 0
 727 001e 7B68     		ldr	r3, [r7, #4]
 728 0020 3C22     		movs	r2, #60
 729 0022 0021     		movs	r1, #0
 730 0024 9954     		strb	r1, [r3, r2]
 731              		.loc 1 501 0
 732 0026 7B68     		ldr	r3, [r7, #4]
 733 0028 1800     		movs	r0, r3
 734 002a FFF7FEFF 		bl	HAL_TIM_OC_MspInit
 735              	.L41:
 736              		.loc 1 505 0
 737 002e 7B68     		ldr	r3, [r7, #4]
 738 0030 3D22     		movs	r2, #61
 739 0032 0221     		movs	r1, #2
 740 0034 9954     		strb	r1, [r3, r2]
 741              		.loc 1 508 0
ARM GAS  C:\Users\anashi\AppData\Local\Temp\ccN6f8ah.s 			page 14


 742 0036 7B68     		ldr	r3, [r7, #4]
 743 0038 1A68     		ldr	r2, [r3]
 744 003a 7B68     		ldr	r3, [r7, #4]
 745 003c 0433     		adds	r3, r3, #4
 746 003e 1900     		movs	r1, r3
 747 0040 1000     		movs	r0, r2
 748 0042 FFF7FEFF 		bl	TIM_Base_SetConfig
 749              		.loc 1 511 0
 750 0046 7B68     		ldr	r3, [r7, #4]
 751 0048 3D22     		movs	r2, #61
 752 004a 0121     		movs	r1, #1
 753 004c 9954     		strb	r1, [r3, r2]
 754              		.loc 1 513 0
 755 004e 0023     		movs	r3, #0
 756              	.L40:
 757              		.loc 1 514 0
 758 0050 1800     		movs	r0, r3
 759 0052 BD46     		mov	sp, r7
 760 0054 02B0     		add	sp, sp, #8
 761              		@ sp needed
 762 0056 80BD     		pop	{r7, pc}
 763              		.cfi_endproc
 764              	.LFE47:
 765              		.size	HAL_TIM_OC_Init, .-HAL_TIM_OC_Init
 766              		.section	.text.HAL_TIM_OC_DeInit,"ax",%progbits
 767              		.align	1
 768              		.global	HAL_TIM_OC_DeInit
 769              		.syntax unified
 770              		.code	16
 771              		.thumb_func
 772              		.fpu softvfp
 773              		.type	HAL_TIM_OC_DeInit, %function
 774              	HAL_TIM_OC_DeInit:
 775              	.LFB48:
 776              		.loc 1 522 0
 777              		.cfi_startproc
 778              		@ args = 0, pretend = 0, frame = 8
 779              		@ frame_needed = 1, uses_anonymous_args = 0
 780 0000 80B5     		push	{r7, lr}
 781              		.cfi_def_cfa_offset 8
 782              		.cfi_offset 7, -8
 783              		.cfi_offset 14, -4
 784 0002 82B0     		sub	sp, sp, #8
 785              		.cfi_def_cfa_offset 16
 786 0004 00AF     		add	r7, sp, #0
 787              		.cfi_def_cfa_register 7
 788 0006 7860     		str	r0, [r7, #4]
 789              		.loc 1 526 0
 790 0008 7B68     		ldr	r3, [r7, #4]
 791 000a 3D22     		movs	r2, #61
 792 000c 0221     		movs	r1, #2
 793 000e 9954     		strb	r1, [r3, r2]
 794              		.loc 1 529 0
 795 0010 7B68     		ldr	r3, [r7, #4]
 796 0012 1B68     		ldr	r3, [r3]
 797 0014 1B6A     		ldr	r3, [r3, #32]
 798 0016 114A     		ldr	r2, .L45
ARM GAS  C:\Users\anashi\AppData\Local\Temp\ccN6f8ah.s 			page 15


 799 0018 1340     		ands	r3, r2
 800 001a 0DD1     		bne	.L43
 801              		.loc 1 529 0 is_stmt 0 discriminator 1
 802 001c 7B68     		ldr	r3, [r7, #4]
 803 001e 1B68     		ldr	r3, [r3]
 804 0020 1B6A     		ldr	r3, [r3, #32]
 805 0022 0F4A     		ldr	r2, .L45+4
 806 0024 1340     		ands	r3, r2
 807 0026 07D1     		bne	.L43
 808              		.loc 1 529 0 discriminator 2
 809 0028 7B68     		ldr	r3, [r7, #4]
 810 002a 1B68     		ldr	r3, [r3]
 811 002c 1A68     		ldr	r2, [r3]
 812 002e 7B68     		ldr	r3, [r7, #4]
 813 0030 1B68     		ldr	r3, [r3]
 814 0032 0121     		movs	r1, #1
 815 0034 8A43     		bics	r2, r1
 816 0036 1A60     		str	r2, [r3]
 817              	.L43:
 818              		.loc 1 532 0 is_stmt 1
 819 0038 7B68     		ldr	r3, [r7, #4]
 820 003a 1800     		movs	r0, r3
 821 003c FFF7FEFF 		bl	HAL_TIM_OC_MspDeInit
 822              		.loc 1 535 0
 823 0040 7B68     		ldr	r3, [r7, #4]
 824 0042 3D22     		movs	r2, #61
 825 0044 0021     		movs	r1, #0
 826 0046 9954     		strb	r1, [r3, r2]
 827              		.loc 1 538 0
 828 0048 7B68     		ldr	r3, [r7, #4]
 829 004a 3C22     		movs	r2, #60
 830 004c 0021     		movs	r1, #0
 831 004e 9954     		strb	r1, [r3, r2]
 832              		.loc 1 540 0
 833 0050 0023     		movs	r3, #0
 834              		.loc 1 541 0
 835 0052 1800     		movs	r0, r3
 836 0054 BD46     		mov	sp, r7
 837 0056 02B0     		add	sp, sp, #8
 838              		@ sp needed
 839 0058 80BD     		pop	{r7, pc}
 840              	.L46:
 841 005a C046     		.align	2
 842              	.L45:
 843 005c 11110000 		.word	4369
 844 0060 44040000 		.word	1092
 845              		.cfi_endproc
 846              	.LFE48:
 847              		.size	HAL_TIM_OC_DeInit, .-HAL_TIM_OC_DeInit
 848              		.section	.text.HAL_TIM_OC_MspInit,"ax",%progbits
 849              		.align	1
 850              		.weak	HAL_TIM_OC_MspInit
 851              		.syntax unified
 852              		.code	16
 853              		.thumb_func
 854              		.fpu softvfp
 855              		.type	HAL_TIM_OC_MspInit, %function
ARM GAS  C:\Users\anashi\AppData\Local\Temp\ccN6f8ah.s 			page 16


 856              	HAL_TIM_OC_MspInit:
 857              	.LFB49:
 858              		.loc 1 549 0
 859              		.cfi_startproc
 860              		@ args = 0, pretend = 0, frame = 8
 861              		@ frame_needed = 1, uses_anonymous_args = 0
 862 0000 80B5     		push	{r7, lr}
 863              		.cfi_def_cfa_offset 8
 864              		.cfi_offset 7, -8
 865              		.cfi_offset 14, -4
 866 0002 82B0     		sub	sp, sp, #8
 867              		.cfi_def_cfa_offset 16
 868 0004 00AF     		add	r7, sp, #0
 869              		.cfi_def_cfa_register 7
 870 0006 7860     		str	r0, [r7, #4]
 871              		.loc 1 556 0
 872 0008 C046     		nop
 873 000a BD46     		mov	sp, r7
 874 000c 02B0     		add	sp, sp, #8
 875              		@ sp needed
 876 000e 80BD     		pop	{r7, pc}
 877              		.cfi_endproc
 878              	.LFE49:
 879              		.size	HAL_TIM_OC_MspInit, .-HAL_TIM_OC_MspInit
 880              		.section	.text.HAL_TIM_OC_MspDeInit,"ax",%progbits
 881              		.align	1
 882              		.weak	HAL_TIM_OC_MspDeInit
 883              		.syntax unified
 884              		.code	16
 885              		.thumb_func
 886              		.fpu softvfp
 887              		.type	HAL_TIM_OC_MspDeInit, %function
 888              	HAL_TIM_OC_MspDeInit:
 889              	.LFB50:
 890              		.loc 1 564 0
 891              		.cfi_startproc
 892              		@ args = 0, pretend = 0, frame = 8
 893              		@ frame_needed = 1, uses_anonymous_args = 0
 894 0000 80B5     		push	{r7, lr}
 895              		.cfi_def_cfa_offset 8
 896              		.cfi_offset 7, -8
 897              		.cfi_offset 14, -4
 898 0002 82B0     		sub	sp, sp, #8
 899              		.cfi_def_cfa_offset 16
 900 0004 00AF     		add	r7, sp, #0
 901              		.cfi_def_cfa_register 7
 902 0006 7860     		str	r0, [r7, #4]
 903              		.loc 1 571 0
 904 0008 C046     		nop
 905 000a BD46     		mov	sp, r7
 906 000c 02B0     		add	sp, sp, #8
 907              		@ sp needed
 908 000e 80BD     		pop	{r7, pc}
 909              		.cfi_endproc
 910              	.LFE50:
 911              		.size	HAL_TIM_OC_MspDeInit, .-HAL_TIM_OC_MspDeInit
 912              		.section	.text.HAL_TIM_OC_Start,"ax",%progbits
ARM GAS  C:\Users\anashi\AppData\Local\Temp\ccN6f8ah.s 			page 17


 913              		.align	1
 914              		.global	HAL_TIM_OC_Start
 915              		.syntax unified
 916              		.code	16
 917              		.thumb_func
 918              		.fpu softvfp
 919              		.type	HAL_TIM_OC_Start, %function
 920              	HAL_TIM_OC_Start:
 921              	.LFB51:
 922              		.loc 1 585 0
 923              		.cfi_startproc
 924              		@ args = 0, pretend = 0, frame = 8
 925              		@ frame_needed = 1, uses_anonymous_args = 0
 926 0000 80B5     		push	{r7, lr}
 927              		.cfi_def_cfa_offset 8
 928              		.cfi_offset 7, -8
 929              		.cfi_offset 14, -4
 930 0002 82B0     		sub	sp, sp, #8
 931              		.cfi_def_cfa_offset 16
 932 0004 00AF     		add	r7, sp, #0
 933              		.cfi_def_cfa_register 7
 934 0006 7860     		str	r0, [r7, #4]
 935 0008 3960     		str	r1, [r7]
 936              		.loc 1 590 0
 937 000a 7B68     		ldr	r3, [r7, #4]
 938 000c 1B68     		ldr	r3, [r3]
 939 000e 3968     		ldr	r1, [r7]
 940 0010 0122     		movs	r2, #1
 941 0012 1800     		movs	r0, r3
 942 0014 FFF7FEFF 		bl	TIM_CCxChannelCmd
 943              		.loc 1 592 0
 944 0018 7B68     		ldr	r3, [r7, #4]
 945 001a 1B68     		ldr	r3, [r3]
 946 001c 134A     		ldr	r2, .L55
 947 001e 9342     		cmp	r3, r2
 948 0020 09D0     		beq	.L50
 949              		.loc 1 592 0 is_stmt 0 discriminator 2
 950 0022 7B68     		ldr	r3, [r7, #4]
 951 0024 1B68     		ldr	r3, [r3]
 952 0026 124A     		ldr	r2, .L55+4
 953 0028 9342     		cmp	r3, r2
 954 002a 04D0     		beq	.L50
 955              		.loc 1 592 0 discriminator 4
 956 002c 7B68     		ldr	r3, [r7, #4]
 957 002e 1B68     		ldr	r3, [r3]
 958 0030 104A     		ldr	r2, .L55+8
 959 0032 9342     		cmp	r3, r2
 960 0034 01D1     		bne	.L51
 961              	.L50:
 962              		.loc 1 592 0 discriminator 5
 963 0036 0123     		movs	r3, #1
 964 0038 00E0     		b	.L52
 965              	.L51:
 966              		.loc 1 592 0 discriminator 6
 967 003a 0023     		movs	r3, #0
 968              	.L52:
 969              		.loc 1 592 0 discriminator 8
ARM GAS  C:\Users\anashi\AppData\Local\Temp\ccN6f8ah.s 			page 18


 970 003c 002B     		cmp	r3, #0
 971 003e 08D0     		beq	.L53
 972              		.loc 1 595 0 is_stmt 1
 973 0040 7B68     		ldr	r3, [r7, #4]
 974 0042 1B68     		ldr	r3, [r3]
 975 0044 5A6C     		ldr	r2, [r3, #68]
 976 0046 7B68     		ldr	r3, [r7, #4]
 977 0048 1B68     		ldr	r3, [r3]
 978 004a 8021     		movs	r1, #128
 979 004c 0902     		lsls	r1, r1, #8
 980 004e 0A43     		orrs	r2, r1
 981 0050 5A64     		str	r2, [r3, #68]
 982              	.L53:
 983              		.loc 1 599 0
 984 0052 7B68     		ldr	r3, [r7, #4]
 985 0054 1B68     		ldr	r3, [r3]
 986 0056 1A68     		ldr	r2, [r3]
 987 0058 7B68     		ldr	r3, [r7, #4]
 988 005a 1B68     		ldr	r3, [r3]
 989 005c 0121     		movs	r1, #1
 990 005e 0A43     		orrs	r2, r1
 991 0060 1A60     		str	r2, [r3]
 992              		.loc 1 602 0
 993 0062 0023     		movs	r3, #0
 994              		.loc 1 603 0
 995 0064 1800     		movs	r0, r3
 996 0066 BD46     		mov	sp, r7
 997 0068 02B0     		add	sp, sp, #8
 998              		@ sp needed
 999 006a 80BD     		pop	{r7, pc}
 1000              	.L56:
 1001              		.align	2
 1002              	.L55:
 1003 006c 002C0140 		.word	1073818624
 1004 0070 00440140 		.word	1073824768
 1005 0074 00480140 		.word	1073825792
 1006              		.cfi_endproc
 1007              	.LFE51:
 1008              		.size	HAL_TIM_OC_Start, .-HAL_TIM_OC_Start
 1009              		.section	.text.HAL_TIM_OC_Stop,"ax",%progbits
 1010              		.align	1
 1011              		.global	HAL_TIM_OC_Stop
 1012              		.syntax unified
 1013              		.code	16
 1014              		.thumb_func
 1015              		.fpu softvfp
 1016              		.type	HAL_TIM_OC_Stop, %function
 1017              	HAL_TIM_OC_Stop:
 1018              	.LFB52:
 1019              		.loc 1 617 0
 1020              		.cfi_startproc
 1021              		@ args = 0, pretend = 0, frame = 8
 1022              		@ frame_needed = 1, uses_anonymous_args = 0
 1023 0000 80B5     		push	{r7, lr}
 1024              		.cfi_def_cfa_offset 8
 1025              		.cfi_offset 7, -8
 1026              		.cfi_offset 14, -4
ARM GAS  C:\Users\anashi\AppData\Local\Temp\ccN6f8ah.s 			page 19


 1027 0002 82B0     		sub	sp, sp, #8
 1028              		.cfi_def_cfa_offset 16
 1029 0004 00AF     		add	r7, sp, #0
 1030              		.cfi_def_cfa_register 7
 1031 0006 7860     		str	r0, [r7, #4]
 1032 0008 3960     		str	r1, [r7]
 1033              		.loc 1 622 0
 1034 000a 7B68     		ldr	r3, [r7, #4]
 1035 000c 1B68     		ldr	r3, [r3]
 1036 000e 3968     		ldr	r1, [r7]
 1037 0010 0022     		movs	r2, #0
 1038 0012 1800     		movs	r0, r3
 1039 0014 FFF7FEFF 		bl	TIM_CCxChannelCmd
 1040              		.loc 1 624 0
 1041 0018 7B68     		ldr	r3, [r7, #4]
 1042 001a 1B68     		ldr	r3, [r3]
 1043 001c 1F4A     		ldr	r2, .L64
 1044 001e 9342     		cmp	r3, r2
 1045 0020 09D0     		beq	.L58
 1046              		.loc 1 624 0 is_stmt 0 discriminator 2
 1047 0022 7B68     		ldr	r3, [r7, #4]
 1048 0024 1B68     		ldr	r3, [r3]
 1049 0026 1E4A     		ldr	r2, .L64+4
 1050 0028 9342     		cmp	r3, r2
 1051 002a 04D0     		beq	.L58
 1052              		.loc 1 624 0 discriminator 4
 1053 002c 7B68     		ldr	r3, [r7, #4]
 1054 002e 1B68     		ldr	r3, [r3]
 1055 0030 1C4A     		ldr	r2, .L64+8
 1056 0032 9342     		cmp	r3, r2
 1057 0034 01D1     		bne	.L59
 1058              	.L58:
 1059              		.loc 1 624 0 discriminator 5
 1060 0036 0123     		movs	r3, #1
 1061 0038 00E0     		b	.L60
 1062              	.L59:
 1063              		.loc 1 624 0 discriminator 6
 1064 003a 0023     		movs	r3, #0
 1065              	.L60:
 1066              		.loc 1 624 0 discriminator 8
 1067 003c 002B     		cmp	r3, #0
 1068 003e 13D0     		beq	.L61
 1069              		.loc 1 627 0 is_stmt 1
 1070 0040 7B68     		ldr	r3, [r7, #4]
 1071 0042 1B68     		ldr	r3, [r3]
 1072 0044 1B6A     		ldr	r3, [r3, #32]
 1073 0046 184A     		ldr	r2, .L64+12
 1074 0048 1340     		ands	r3, r2
 1075 004a 0DD1     		bne	.L61
 1076              		.loc 1 627 0 is_stmt 0 discriminator 1
 1077 004c 7B68     		ldr	r3, [r7, #4]
 1078 004e 1B68     		ldr	r3, [r3]
 1079 0050 1B6A     		ldr	r3, [r3, #32]
 1080 0052 164A     		ldr	r2, .L64+16
 1081 0054 1340     		ands	r3, r2
 1082 0056 07D1     		bne	.L61
 1083              		.loc 1 627 0 discriminator 2
ARM GAS  C:\Users\anashi\AppData\Local\Temp\ccN6f8ah.s 			page 20


 1084 0058 7B68     		ldr	r3, [r7, #4]
 1085 005a 1B68     		ldr	r3, [r3]
 1086 005c 5A6C     		ldr	r2, [r3, #68]
 1087 005e 7B68     		ldr	r3, [r7, #4]
 1088 0060 1B68     		ldr	r3, [r3]
 1089 0062 1349     		ldr	r1, .L64+20
 1090 0064 0A40     		ands	r2, r1
 1091 0066 5A64     		str	r2, [r3, #68]
 1092              	.L61:
 1093              		.loc 1 631 0 is_stmt 1
 1094 0068 7B68     		ldr	r3, [r7, #4]
 1095 006a 1B68     		ldr	r3, [r3]
 1096 006c 1B6A     		ldr	r3, [r3, #32]
 1097 006e 0E4A     		ldr	r2, .L64+12
 1098 0070 1340     		ands	r3, r2
 1099 0072 0DD1     		bne	.L62
 1100              		.loc 1 631 0 is_stmt 0 discriminator 1
 1101 0074 7B68     		ldr	r3, [r7, #4]
 1102 0076 1B68     		ldr	r3, [r3]
 1103 0078 1B6A     		ldr	r3, [r3, #32]
 1104 007a 0C4A     		ldr	r2, .L64+16
 1105 007c 1340     		ands	r3, r2
 1106 007e 07D1     		bne	.L62
 1107              		.loc 1 631 0 discriminator 2
 1108 0080 7B68     		ldr	r3, [r7, #4]
 1109 0082 1B68     		ldr	r3, [r3]
 1110 0084 1A68     		ldr	r2, [r3]
 1111 0086 7B68     		ldr	r3, [r7, #4]
 1112 0088 1B68     		ldr	r3, [r3]
 1113 008a 0121     		movs	r1, #1
 1114 008c 8A43     		bics	r2, r1
 1115 008e 1A60     		str	r2, [r3]
 1116              	.L62:
 1117              		.loc 1 634 0 is_stmt 1
 1118 0090 0023     		movs	r3, #0
 1119              		.loc 1 635 0
 1120 0092 1800     		movs	r0, r3
 1121 0094 BD46     		mov	sp, r7
 1122 0096 02B0     		add	sp, sp, #8
 1123              		@ sp needed
 1124 0098 80BD     		pop	{r7, pc}
 1125              	.L65:
 1126 009a C046     		.align	2
 1127              	.L64:
 1128 009c 002C0140 		.word	1073818624
 1129 00a0 00440140 		.word	1073824768
 1130 00a4 00480140 		.word	1073825792
 1131 00a8 11110000 		.word	4369
 1132 00ac 44040000 		.word	1092
 1133 00b0 FF7FFFFF 		.word	-32769
 1134              		.cfi_endproc
 1135              	.LFE52:
 1136              		.size	HAL_TIM_OC_Stop, .-HAL_TIM_OC_Stop
 1137              		.section	.text.HAL_TIM_OC_Start_IT,"ax",%progbits
 1138              		.align	1
 1139              		.global	HAL_TIM_OC_Start_IT
 1140              		.syntax unified
ARM GAS  C:\Users\anashi\AppData\Local\Temp\ccN6f8ah.s 			page 21


 1141              		.code	16
 1142              		.thumb_func
 1143              		.fpu softvfp
 1144              		.type	HAL_TIM_OC_Start_IT, %function
 1145              	HAL_TIM_OC_Start_IT:
 1146              	.LFB53:
 1147              		.loc 1 649 0
 1148              		.cfi_startproc
 1149              		@ args = 0, pretend = 0, frame = 8
 1150              		@ frame_needed = 1, uses_anonymous_args = 0
 1151 0000 80B5     		push	{r7, lr}
 1152              		.cfi_def_cfa_offset 8
 1153              		.cfi_offset 7, -8
 1154              		.cfi_offset 14, -4
 1155 0002 82B0     		sub	sp, sp, #8
 1156              		.cfi_def_cfa_offset 16
 1157 0004 00AF     		add	r7, sp, #0
 1158              		.cfi_def_cfa_register 7
 1159 0006 7860     		str	r0, [r7, #4]
 1160 0008 3960     		str	r1, [r7]
 1161              		.loc 1 653 0
 1162 000a 3B68     		ldr	r3, [r7]
 1163 000c 042B     		cmp	r3, #4
 1164 000e 11D0     		beq	.L68
 1165 0010 02D8     		bhi	.L69
 1166 0012 002B     		cmp	r3, #0
 1167 0014 05D0     		beq	.L70
 1168              		.loc 1 684 0
 1169 0016 28E0     		b	.L73
 1170              	.L69:
 1171              		.loc 1 653 0
 1172 0018 082B     		cmp	r3, #8
 1173 001a 14D0     		beq	.L71
 1174 001c 0C2B     		cmp	r3, #12
 1175 001e 1BD0     		beq	.L72
 1176              		.loc 1 684 0
 1177 0020 23E0     		b	.L73
 1178              	.L70:
 1179              		.loc 1 658 0
 1180 0022 7B68     		ldr	r3, [r7, #4]
 1181 0024 1B68     		ldr	r3, [r3]
 1182 0026 DA68     		ldr	r2, [r3, #12]
 1183 0028 7B68     		ldr	r3, [r7, #4]
 1184 002a 1B68     		ldr	r3, [r3]
 1185 002c 0221     		movs	r1, #2
 1186 002e 0A43     		orrs	r2, r1
 1187 0030 DA60     		str	r2, [r3, #12]
 1188              		.loc 1 660 0
 1189 0032 1AE0     		b	.L73
 1190              	.L68:
 1191              		.loc 1 665 0
 1192 0034 7B68     		ldr	r3, [r7, #4]
 1193 0036 1B68     		ldr	r3, [r3]
 1194 0038 DA68     		ldr	r2, [r3, #12]
 1195 003a 7B68     		ldr	r3, [r7, #4]
 1196 003c 1B68     		ldr	r3, [r3]
 1197 003e 0421     		movs	r1, #4
ARM GAS  C:\Users\anashi\AppData\Local\Temp\ccN6f8ah.s 			page 22


 1198 0040 0A43     		orrs	r2, r1
 1199 0042 DA60     		str	r2, [r3, #12]
 1200              		.loc 1 667 0
 1201 0044 11E0     		b	.L73
 1202              	.L71:
 1203              		.loc 1 672 0
 1204 0046 7B68     		ldr	r3, [r7, #4]
 1205 0048 1B68     		ldr	r3, [r3]
 1206 004a DA68     		ldr	r2, [r3, #12]
 1207 004c 7B68     		ldr	r3, [r7, #4]
 1208 004e 1B68     		ldr	r3, [r3]
 1209 0050 0821     		movs	r1, #8
 1210 0052 0A43     		orrs	r2, r1
 1211 0054 DA60     		str	r2, [r3, #12]
 1212              		.loc 1 674 0
 1213 0056 08E0     		b	.L73
 1214              	.L72:
 1215              		.loc 1 679 0
 1216 0058 7B68     		ldr	r3, [r7, #4]
 1217 005a 1B68     		ldr	r3, [r3]
 1218 005c DA68     		ldr	r2, [r3, #12]
 1219 005e 7B68     		ldr	r3, [r7, #4]
 1220 0060 1B68     		ldr	r3, [r3]
 1221 0062 1021     		movs	r1, #16
 1222 0064 0A43     		orrs	r2, r1
 1223 0066 DA60     		str	r2, [r3, #12]
 1224              		.loc 1 681 0
 1225 0068 C046     		nop
 1226              	.L73:
 1227              		.loc 1 688 0
 1228 006a 7B68     		ldr	r3, [r7, #4]
 1229 006c 1B68     		ldr	r3, [r3]
 1230 006e 3968     		ldr	r1, [r7]
 1231 0070 0122     		movs	r2, #1
 1232 0072 1800     		movs	r0, r3
 1233 0074 FFF7FEFF 		bl	TIM_CCxChannelCmd
 1234              		.loc 1 690 0
 1235 0078 7B68     		ldr	r3, [r7, #4]
 1236 007a 1B68     		ldr	r3, [r3]
 1237 007c 134A     		ldr	r2, .L79
 1238 007e 9342     		cmp	r3, r2
 1239 0080 09D0     		beq	.L74
 1240              		.loc 1 690 0 is_stmt 0 discriminator 2
 1241 0082 7B68     		ldr	r3, [r7, #4]
 1242 0084 1B68     		ldr	r3, [r3]
 1243 0086 124A     		ldr	r2, .L79+4
 1244 0088 9342     		cmp	r3, r2
 1245 008a 04D0     		beq	.L74
 1246              		.loc 1 690 0 discriminator 4
 1247 008c 7B68     		ldr	r3, [r7, #4]
 1248 008e 1B68     		ldr	r3, [r3]
 1249 0090 104A     		ldr	r2, .L79+8
 1250 0092 9342     		cmp	r3, r2
 1251 0094 01D1     		bne	.L75
 1252              	.L74:
 1253              		.loc 1 690 0 discriminator 5
 1254 0096 0123     		movs	r3, #1
ARM GAS  C:\Users\anashi\AppData\Local\Temp\ccN6f8ah.s 			page 23


 1255 0098 00E0     		b	.L76
 1256              	.L75:
 1257              		.loc 1 690 0 discriminator 6
 1258 009a 0023     		movs	r3, #0
 1259              	.L76:
 1260              		.loc 1 690 0 discriminator 8
 1261 009c 002B     		cmp	r3, #0
 1262 009e 08D0     		beq	.L77
 1263              		.loc 1 693 0 is_stmt 1
 1264 00a0 7B68     		ldr	r3, [r7, #4]
 1265 00a2 1B68     		ldr	r3, [r3]
 1266 00a4 5A6C     		ldr	r2, [r3, #68]
 1267 00a6 7B68     		ldr	r3, [r7, #4]
 1268 00a8 1B68     		ldr	r3, [r3]
 1269 00aa 8021     		movs	r1, #128
 1270 00ac 0902     		lsls	r1, r1, #8
 1271 00ae 0A43     		orrs	r2, r1
 1272 00b0 5A64     		str	r2, [r3, #68]
 1273              	.L77:
 1274              		.loc 1 697 0
 1275 00b2 7B68     		ldr	r3, [r7, #4]
 1276 00b4 1B68     		ldr	r3, [r3]
 1277 00b6 1A68     		ldr	r2, [r3]
 1278 00b8 7B68     		ldr	r3, [r7, #4]
 1279 00ba 1B68     		ldr	r3, [r3]
 1280 00bc 0121     		movs	r1, #1
 1281 00be 0A43     		orrs	r2, r1
 1282 00c0 1A60     		str	r2, [r3]
 1283              		.loc 1 700 0
 1284 00c2 0023     		movs	r3, #0
 1285              		.loc 1 701 0
 1286 00c4 1800     		movs	r0, r3
 1287 00c6 BD46     		mov	sp, r7
 1288 00c8 02B0     		add	sp, sp, #8
 1289              		@ sp needed
 1290 00ca 80BD     		pop	{r7, pc}
 1291              	.L80:
 1292              		.align	2
 1293              	.L79:
 1294 00cc 002C0140 		.word	1073818624
 1295 00d0 00440140 		.word	1073824768
 1296 00d4 00480140 		.word	1073825792
 1297              		.cfi_endproc
 1298              	.LFE53:
 1299              		.size	HAL_TIM_OC_Start_IT, .-HAL_TIM_OC_Start_IT
 1300              		.section	.text.HAL_TIM_OC_Stop_IT,"ax",%progbits
 1301              		.align	1
 1302              		.global	HAL_TIM_OC_Stop_IT
 1303              		.syntax unified
 1304              		.code	16
 1305              		.thumb_func
 1306              		.fpu softvfp
 1307              		.type	HAL_TIM_OC_Stop_IT, %function
 1308              	HAL_TIM_OC_Stop_IT:
 1309              	.LFB54:
 1310              		.loc 1 715 0
 1311              		.cfi_startproc
ARM GAS  C:\Users\anashi\AppData\Local\Temp\ccN6f8ah.s 			page 24


 1312              		@ args = 0, pretend = 0, frame = 8
 1313              		@ frame_needed = 1, uses_anonymous_args = 0
 1314 0000 80B5     		push	{r7, lr}
 1315              		.cfi_def_cfa_offset 8
 1316              		.cfi_offset 7, -8
 1317              		.cfi_offset 14, -4
 1318 0002 82B0     		sub	sp, sp, #8
 1319              		.cfi_def_cfa_offset 16
 1320 0004 00AF     		add	r7, sp, #0
 1321              		.cfi_def_cfa_register 7
 1322 0006 7860     		str	r0, [r7, #4]
 1323 0008 3960     		str	r1, [r7]
 1324              		.loc 1 719 0
 1325 000a 3B68     		ldr	r3, [r7]
 1326 000c 042B     		cmp	r3, #4
 1327 000e 11D0     		beq	.L83
 1328 0010 02D8     		bhi	.L84
 1329 0012 002B     		cmp	r3, #0
 1330 0014 05D0     		beq	.L85
 1331              		.loc 1 750 0
 1332 0016 28E0     		b	.L88
 1333              	.L84:
 1334              		.loc 1 719 0
 1335 0018 082B     		cmp	r3, #8
 1336 001a 14D0     		beq	.L86
 1337 001c 0C2B     		cmp	r3, #12
 1338 001e 1BD0     		beq	.L87
 1339              		.loc 1 750 0
 1340 0020 23E0     		b	.L88
 1341              	.L85:
 1342              		.loc 1 724 0
 1343 0022 7B68     		ldr	r3, [r7, #4]
 1344 0024 1B68     		ldr	r3, [r3]
 1345 0026 DA68     		ldr	r2, [r3, #12]
 1346 0028 7B68     		ldr	r3, [r7, #4]
 1347 002a 1B68     		ldr	r3, [r3]
 1348 002c 0221     		movs	r1, #2
 1349 002e 8A43     		bics	r2, r1
 1350 0030 DA60     		str	r2, [r3, #12]
 1351              		.loc 1 726 0
 1352 0032 1AE0     		b	.L88
 1353              	.L83:
 1354              		.loc 1 731 0
 1355 0034 7B68     		ldr	r3, [r7, #4]
 1356 0036 1B68     		ldr	r3, [r3]
 1357 0038 DA68     		ldr	r2, [r3, #12]
 1358 003a 7B68     		ldr	r3, [r7, #4]
 1359 003c 1B68     		ldr	r3, [r3]
 1360 003e 0421     		movs	r1, #4
 1361 0040 8A43     		bics	r2, r1
 1362 0042 DA60     		str	r2, [r3, #12]
 1363              		.loc 1 733 0
 1364 0044 11E0     		b	.L88
 1365              	.L86:
 1366              		.loc 1 738 0
 1367 0046 7B68     		ldr	r3, [r7, #4]
 1368 0048 1B68     		ldr	r3, [r3]
ARM GAS  C:\Users\anashi\AppData\Local\Temp\ccN6f8ah.s 			page 25


 1369 004a DA68     		ldr	r2, [r3, #12]
 1370 004c 7B68     		ldr	r3, [r7, #4]
 1371 004e 1B68     		ldr	r3, [r3]
 1372 0050 0821     		movs	r1, #8
 1373 0052 8A43     		bics	r2, r1
 1374 0054 DA60     		str	r2, [r3, #12]
 1375              		.loc 1 740 0
 1376 0056 08E0     		b	.L88
 1377              	.L87:
 1378              		.loc 1 745 0
 1379 0058 7B68     		ldr	r3, [r7, #4]
 1380 005a 1B68     		ldr	r3, [r3]
 1381 005c DA68     		ldr	r2, [r3, #12]
 1382 005e 7B68     		ldr	r3, [r7, #4]
 1383 0060 1B68     		ldr	r3, [r3]
 1384 0062 1021     		movs	r1, #16
 1385 0064 8A43     		bics	r2, r1
 1386 0066 DA60     		str	r2, [r3, #12]
 1387              		.loc 1 747 0
 1388 0068 C046     		nop
 1389              	.L88:
 1390              		.loc 1 754 0
 1391 006a 7B68     		ldr	r3, [r7, #4]
 1392 006c 1B68     		ldr	r3, [r3]
 1393 006e 3968     		ldr	r1, [r7]
 1394 0070 0022     		movs	r2, #0
 1395 0072 1800     		movs	r0, r3
 1396 0074 FFF7FEFF 		bl	TIM_CCxChannelCmd
 1397              		.loc 1 756 0
 1398 0078 7B68     		ldr	r3, [r7, #4]
 1399 007a 1B68     		ldr	r3, [r3]
 1400 007c 1F4A     		ldr	r2, .L95
 1401 007e 9342     		cmp	r3, r2
 1402 0080 09D0     		beq	.L89
 1403              		.loc 1 756 0 is_stmt 0 discriminator 2
 1404 0082 7B68     		ldr	r3, [r7, #4]
 1405 0084 1B68     		ldr	r3, [r3]
 1406 0086 1E4A     		ldr	r2, .L95+4
 1407 0088 9342     		cmp	r3, r2
 1408 008a 04D0     		beq	.L89
 1409              		.loc 1 756 0 discriminator 4
 1410 008c 7B68     		ldr	r3, [r7, #4]
 1411 008e 1B68     		ldr	r3, [r3]
 1412 0090 1C4A     		ldr	r2, .L95+8
 1413 0092 9342     		cmp	r3, r2
 1414 0094 01D1     		bne	.L90
 1415              	.L89:
 1416              		.loc 1 756 0 discriminator 5
 1417 0096 0123     		movs	r3, #1
 1418 0098 00E0     		b	.L91
 1419              	.L90:
 1420              		.loc 1 756 0 discriminator 6
 1421 009a 0023     		movs	r3, #0
 1422              	.L91:
 1423              		.loc 1 756 0 discriminator 8
 1424 009c 002B     		cmp	r3, #0
 1425 009e 13D0     		beq	.L92
ARM GAS  C:\Users\anashi\AppData\Local\Temp\ccN6f8ah.s 			page 26


 1426              		.loc 1 759 0 is_stmt 1
 1427 00a0 7B68     		ldr	r3, [r7, #4]
 1428 00a2 1B68     		ldr	r3, [r3]
 1429 00a4 1B6A     		ldr	r3, [r3, #32]
 1430 00a6 184A     		ldr	r2, .L95+12
 1431 00a8 1340     		ands	r3, r2
 1432 00aa 0DD1     		bne	.L92
 1433              		.loc 1 759 0 is_stmt 0 discriminator 1
 1434 00ac 7B68     		ldr	r3, [r7, #4]
 1435 00ae 1B68     		ldr	r3, [r3]
 1436 00b0 1B6A     		ldr	r3, [r3, #32]
 1437 00b2 164A     		ldr	r2, .L95+16
 1438 00b4 1340     		ands	r3, r2
 1439 00b6 07D1     		bne	.L92
 1440              		.loc 1 759 0 discriminator 2
 1441 00b8 7B68     		ldr	r3, [r7, #4]
 1442 00ba 1B68     		ldr	r3, [r3]
 1443 00bc 5A6C     		ldr	r2, [r3, #68]
 1444 00be 7B68     		ldr	r3, [r7, #4]
 1445 00c0 1B68     		ldr	r3, [r3]
 1446 00c2 1349     		ldr	r1, .L95+20
 1447 00c4 0A40     		ands	r2, r1
 1448 00c6 5A64     		str	r2, [r3, #68]
 1449              	.L92:
 1450              		.loc 1 763 0 is_stmt 1
 1451 00c8 7B68     		ldr	r3, [r7, #4]
 1452 00ca 1B68     		ldr	r3, [r3]
 1453 00cc 1B6A     		ldr	r3, [r3, #32]
 1454 00ce 0E4A     		ldr	r2, .L95+12
 1455 00d0 1340     		ands	r3, r2
 1456 00d2 0DD1     		bne	.L93
 1457              		.loc 1 763 0 is_stmt 0 discriminator 1
 1458 00d4 7B68     		ldr	r3, [r7, #4]
 1459 00d6 1B68     		ldr	r3, [r3]
 1460 00d8 1B6A     		ldr	r3, [r3, #32]
 1461 00da 0C4A     		ldr	r2, .L95+16
 1462 00dc 1340     		ands	r3, r2
 1463 00de 07D1     		bne	.L93
 1464              		.loc 1 763 0 discriminator 2
 1465 00e0 7B68     		ldr	r3, [r7, #4]
 1466 00e2 1B68     		ldr	r3, [r3]
 1467 00e4 1A68     		ldr	r2, [r3]
 1468 00e6 7B68     		ldr	r3, [r7, #4]
 1469 00e8 1B68     		ldr	r3, [r3]
 1470 00ea 0121     		movs	r1, #1
 1471 00ec 8A43     		bics	r2, r1
 1472 00ee 1A60     		str	r2, [r3]
 1473              	.L93:
 1474              		.loc 1 766 0 is_stmt 1
 1475 00f0 0023     		movs	r3, #0
 1476              		.loc 1 767 0
 1477 00f2 1800     		movs	r0, r3
 1478 00f4 BD46     		mov	sp, r7
 1479 00f6 02B0     		add	sp, sp, #8
 1480              		@ sp needed
 1481 00f8 80BD     		pop	{r7, pc}
 1482              	.L96:
ARM GAS  C:\Users\anashi\AppData\Local\Temp\ccN6f8ah.s 			page 27


 1483 00fa C046     		.align	2
 1484              	.L95:
 1485 00fc 002C0140 		.word	1073818624
 1486 0100 00440140 		.word	1073824768
 1487 0104 00480140 		.word	1073825792
 1488 0108 11110000 		.word	4369
 1489 010c 44040000 		.word	1092
 1490 0110 FF7FFFFF 		.word	-32769
 1491              		.cfi_endproc
 1492              	.LFE54:
 1493              		.size	HAL_TIM_OC_Stop_IT, .-HAL_TIM_OC_Stop_IT
 1494              		.section	.text.HAL_TIM_OC_Start_DMA,"ax",%progbits
 1495              		.align	1
 1496              		.global	HAL_TIM_OC_Start_DMA
 1497              		.syntax unified
 1498              		.code	16
 1499              		.thumb_func
 1500              		.fpu softvfp
 1501              		.type	HAL_TIM_OC_Start_DMA, %function
 1502              	HAL_TIM_OC_Start_DMA:
 1503              	.LFB55:
 1504              		.loc 1 783 0
 1505              		.cfi_startproc
 1506              		@ args = 0, pretend = 0, frame = 16
 1507              		@ frame_needed = 1, uses_anonymous_args = 0
 1508 0000 80B5     		push	{r7, lr}
 1509              		.cfi_def_cfa_offset 8
 1510              		.cfi_offset 7, -8
 1511              		.cfi_offset 14, -4
 1512 0002 84B0     		sub	sp, sp, #16
 1513              		.cfi_def_cfa_offset 24
 1514 0004 00AF     		add	r7, sp, #0
 1515              		.cfi_def_cfa_register 7
 1516 0006 F860     		str	r0, [r7, #12]
 1517 0008 B960     		str	r1, [r7, #8]
 1518 000a 7A60     		str	r2, [r7, #4]
 1519 000c 1A00     		movs	r2, r3
 1520 000e BB1C     		adds	r3, r7, #2
 1521 0010 1A80     		strh	r2, [r3]
 1522              		.loc 1 787 0
 1523 0012 FB68     		ldr	r3, [r7, #12]
 1524 0014 3D22     		movs	r2, #61
 1525 0016 9B5C     		ldrb	r3, [r3, r2]
 1526 0018 DBB2     		uxtb	r3, r3
 1527 001a 022B     		cmp	r3, #2
 1528 001c 01D1     		bne	.L98
 1529              		.loc 1 789 0
 1530 001e 0223     		movs	r3, #2
 1531 0020 BFE0     		b	.L99
 1532              	.L98:
 1533              		.loc 1 791 0
 1534 0022 FB68     		ldr	r3, [r7, #12]
 1535 0024 3D22     		movs	r2, #61
 1536 0026 9B5C     		ldrb	r3, [r3, r2]
 1537 0028 DBB2     		uxtb	r3, r3
 1538 002a 012B     		cmp	r3, #1
 1539 002c 0CD1     		bne	.L100
ARM GAS  C:\Users\anashi\AppData\Local\Temp\ccN6f8ah.s 			page 28


 1540              		.loc 1 793 0
 1541 002e 7B68     		ldr	r3, [r7, #4]
 1542 0030 002B     		cmp	r3, #0
 1543 0032 05D1     		bne	.L101
 1544              		.loc 1 793 0 is_stmt 0 discriminator 1
 1545 0034 BB1C     		adds	r3, r7, #2
 1546 0036 1B88     		ldrh	r3, [r3]
 1547 0038 002B     		cmp	r3, #0
 1548 003a 01D0     		beq	.L101
 1549              		.loc 1 795 0 is_stmt 1
 1550 003c 0123     		movs	r3, #1
 1551 003e B0E0     		b	.L99
 1552              	.L101:
 1553              		.loc 1 799 0
 1554 0040 FB68     		ldr	r3, [r7, #12]
 1555 0042 3D22     		movs	r2, #61
 1556 0044 0221     		movs	r1, #2
 1557 0046 9954     		strb	r1, [r3, r2]
 1558              	.L100:
 1559              		.loc 1 802 0
 1560 0048 BB68     		ldr	r3, [r7, #8]
 1561 004a 042B     		cmp	r3, #4
 1562 004c 25D0     		beq	.L103
 1563 004e 02D8     		bhi	.L104
 1564 0050 002B     		cmp	r3, #0
 1565 0052 05D0     		beq	.L105
 1566              		.loc 1 869 0
 1567 0054 78E0     		b	.L108
 1568              	.L104:
 1569              		.loc 1 802 0
 1570 0056 082B     		cmp	r3, #8
 1571 0058 3CD0     		beq	.L106
 1572 005a 0C2B     		cmp	r3, #12
 1573 005c 57D0     		beq	.L107
 1574              		.loc 1 869 0
 1575 005e 73E0     		b	.L108
 1576              	.L105:
 1577              		.loc 1 807 0
 1578 0060 FB68     		ldr	r3, [r7, #12]
 1579 0062 5B6A     		ldr	r3, [r3, #36]
 1580 0064 514A     		ldr	r2, .L113
 1581 0066 9A62     		str	r2, [r3, #40]
 1582              		.loc 1 810 0
 1583 0068 FB68     		ldr	r3, [r7, #12]
 1584 006a 5B6A     		ldr	r3, [r3, #36]
 1585 006c 504A     		ldr	r2, .L113+4
 1586 006e 1A63     		str	r2, [r3, #48]
 1587              		.loc 1 813 0
 1588 0070 FB68     		ldr	r3, [r7, #12]
 1589 0072 586A     		ldr	r0, [r3, #36]
 1590 0074 7968     		ldr	r1, [r7, #4]
 1591 0076 FB68     		ldr	r3, [r7, #12]
 1592 0078 1B68     		ldr	r3, [r3]
 1593 007a 3433     		adds	r3, r3, #52
 1594 007c 1A00     		movs	r2, r3
 1595 007e BB1C     		adds	r3, r7, #2
 1596 0080 1B88     		ldrh	r3, [r3]
ARM GAS  C:\Users\anashi\AppData\Local\Temp\ccN6f8ah.s 			page 29


 1597 0082 FFF7FEFF 		bl	HAL_DMA_Start_IT
 1598              		.loc 1 816 0
 1599 0086 FB68     		ldr	r3, [r7, #12]
 1600 0088 1B68     		ldr	r3, [r3]
 1601 008a DA68     		ldr	r2, [r3, #12]
 1602 008c FB68     		ldr	r3, [r7, #12]
 1603 008e 1B68     		ldr	r3, [r3]
 1604 0090 8021     		movs	r1, #128
 1605 0092 8900     		lsls	r1, r1, #2
 1606 0094 0A43     		orrs	r2, r1
 1607 0096 DA60     		str	r2, [r3, #12]
 1608              		.loc 1 818 0
 1609 0098 56E0     		b	.L108
 1610              	.L103:
 1611              		.loc 1 823 0
 1612 009a FB68     		ldr	r3, [r7, #12]
 1613 009c 9B6A     		ldr	r3, [r3, #40]
 1614 009e 434A     		ldr	r2, .L113
 1615 00a0 9A62     		str	r2, [r3, #40]
 1616              		.loc 1 826 0
 1617 00a2 FB68     		ldr	r3, [r7, #12]
 1618 00a4 9B6A     		ldr	r3, [r3, #40]
 1619 00a6 424A     		ldr	r2, .L113+4
 1620 00a8 1A63     		str	r2, [r3, #48]
 1621              		.loc 1 829 0
 1622 00aa FB68     		ldr	r3, [r7, #12]
 1623 00ac 986A     		ldr	r0, [r3, #40]
 1624 00ae 7968     		ldr	r1, [r7, #4]
 1625 00b0 FB68     		ldr	r3, [r7, #12]
 1626 00b2 1B68     		ldr	r3, [r3]
 1627 00b4 3833     		adds	r3, r3, #56
 1628 00b6 1A00     		movs	r2, r3
 1629 00b8 BB1C     		adds	r3, r7, #2
 1630 00ba 1B88     		ldrh	r3, [r3]
 1631 00bc FFF7FEFF 		bl	HAL_DMA_Start_IT
 1632              		.loc 1 832 0
 1633 00c0 FB68     		ldr	r3, [r7, #12]
 1634 00c2 1B68     		ldr	r3, [r3]
 1635 00c4 DA68     		ldr	r2, [r3, #12]
 1636 00c6 FB68     		ldr	r3, [r7, #12]
 1637 00c8 1B68     		ldr	r3, [r3]
 1638 00ca 8021     		movs	r1, #128
 1639 00cc C900     		lsls	r1, r1, #3
 1640 00ce 0A43     		orrs	r2, r1
 1641 00d0 DA60     		str	r2, [r3, #12]
 1642              		.loc 1 834 0
 1643 00d2 39E0     		b	.L108
 1644              	.L106:
 1645              		.loc 1 839 0
 1646 00d4 FB68     		ldr	r3, [r7, #12]
 1647 00d6 DB6A     		ldr	r3, [r3, #44]
 1648 00d8 344A     		ldr	r2, .L113
 1649 00da 9A62     		str	r2, [r3, #40]
 1650              		.loc 1 842 0
 1651 00dc FB68     		ldr	r3, [r7, #12]
 1652 00de DB6A     		ldr	r3, [r3, #44]
 1653 00e0 334A     		ldr	r2, .L113+4
ARM GAS  C:\Users\anashi\AppData\Local\Temp\ccN6f8ah.s 			page 30


 1654 00e2 1A63     		str	r2, [r3, #48]
 1655              		.loc 1 845 0
 1656 00e4 FB68     		ldr	r3, [r7, #12]
 1657 00e6 D86A     		ldr	r0, [r3, #44]
 1658 00e8 7968     		ldr	r1, [r7, #4]
 1659 00ea FB68     		ldr	r3, [r7, #12]
 1660 00ec 1B68     		ldr	r3, [r3]
 1661 00ee 3C33     		adds	r3, r3, #60
 1662 00f0 1A00     		movs	r2, r3
 1663 00f2 BB1C     		adds	r3, r7, #2
 1664 00f4 1B88     		ldrh	r3, [r3]
 1665 00f6 FFF7FEFF 		bl	HAL_DMA_Start_IT
 1666              		.loc 1 848 0
 1667 00fa FB68     		ldr	r3, [r7, #12]
 1668 00fc 1B68     		ldr	r3, [r3]
 1669 00fe DA68     		ldr	r2, [r3, #12]
 1670 0100 FB68     		ldr	r3, [r7, #12]
 1671 0102 1B68     		ldr	r3, [r3]
 1672 0104 8021     		movs	r1, #128
 1673 0106 0901     		lsls	r1, r1, #4
 1674 0108 0A43     		orrs	r2, r1
 1675 010a DA60     		str	r2, [r3, #12]
 1676              		.loc 1 850 0
 1677 010c 1CE0     		b	.L108
 1678              	.L107:
 1679              		.loc 1 855 0
 1680 010e FB68     		ldr	r3, [r7, #12]
 1681 0110 1B6B     		ldr	r3, [r3, #48]
 1682 0112 264A     		ldr	r2, .L113
 1683 0114 9A62     		str	r2, [r3, #40]
 1684              		.loc 1 858 0
 1685 0116 FB68     		ldr	r3, [r7, #12]
 1686 0118 1B6B     		ldr	r3, [r3, #48]
 1687 011a 254A     		ldr	r2, .L113+4
 1688 011c 1A63     		str	r2, [r3, #48]
 1689              		.loc 1 861 0
 1690 011e FB68     		ldr	r3, [r7, #12]
 1691 0120 186B     		ldr	r0, [r3, #48]
 1692 0122 7968     		ldr	r1, [r7, #4]
 1693 0124 FB68     		ldr	r3, [r7, #12]
 1694 0126 1B68     		ldr	r3, [r3]
 1695 0128 4033     		adds	r3, r3, #64
 1696 012a 1A00     		movs	r2, r3
 1697 012c BB1C     		adds	r3, r7, #2
 1698 012e 1B88     		ldrh	r3, [r3]
 1699 0130 FFF7FEFF 		bl	HAL_DMA_Start_IT
 1700              		.loc 1 864 0
 1701 0134 FB68     		ldr	r3, [r7, #12]
 1702 0136 1B68     		ldr	r3, [r3]
 1703 0138 DA68     		ldr	r2, [r3, #12]
 1704 013a FB68     		ldr	r3, [r7, #12]
 1705 013c 1B68     		ldr	r3, [r3]
 1706 013e 8021     		movs	r1, #128
 1707 0140 4901     		lsls	r1, r1, #5
 1708 0142 0A43     		orrs	r2, r1
 1709 0144 DA60     		str	r2, [r3, #12]
 1710              		.loc 1 866 0
ARM GAS  C:\Users\anashi\AppData\Local\Temp\ccN6f8ah.s 			page 31


 1711 0146 C046     		nop
 1712              	.L108:
 1713              		.loc 1 873 0
 1714 0148 FB68     		ldr	r3, [r7, #12]
 1715 014a 1B68     		ldr	r3, [r3]
 1716 014c B968     		ldr	r1, [r7, #8]
 1717 014e 0122     		movs	r2, #1
 1718 0150 1800     		movs	r0, r3
 1719 0152 FFF7FEFF 		bl	TIM_CCxChannelCmd
 1720              		.loc 1 875 0
 1721 0156 FB68     		ldr	r3, [r7, #12]
 1722 0158 1B68     		ldr	r3, [r3]
 1723 015a 164A     		ldr	r2, .L113+8
 1724 015c 9342     		cmp	r3, r2
 1725 015e 09D0     		beq	.L109
 1726              		.loc 1 875 0 is_stmt 0 discriminator 2
 1727 0160 FB68     		ldr	r3, [r7, #12]
 1728 0162 1B68     		ldr	r3, [r3]
 1729 0164 144A     		ldr	r2, .L113+12
 1730 0166 9342     		cmp	r3, r2
 1731 0168 04D0     		beq	.L109
 1732              		.loc 1 875 0 discriminator 4
 1733 016a FB68     		ldr	r3, [r7, #12]
 1734 016c 1B68     		ldr	r3, [r3]
 1735 016e 134A     		ldr	r2, .L113+16
 1736 0170 9342     		cmp	r3, r2
 1737 0172 01D1     		bne	.L110
 1738              	.L109:
 1739              		.loc 1 875 0 discriminator 5
 1740 0174 0123     		movs	r3, #1
 1741 0176 00E0     		b	.L111
 1742              	.L110:
 1743              		.loc 1 875 0 discriminator 6
 1744 0178 0023     		movs	r3, #0
 1745              	.L111:
 1746              		.loc 1 875 0 discriminator 8
 1747 017a 002B     		cmp	r3, #0
 1748 017c 08D0     		beq	.L112
 1749              		.loc 1 878 0 is_stmt 1
 1750 017e FB68     		ldr	r3, [r7, #12]
 1751 0180 1B68     		ldr	r3, [r3]
 1752 0182 5A6C     		ldr	r2, [r3, #68]
 1753 0184 FB68     		ldr	r3, [r7, #12]
 1754 0186 1B68     		ldr	r3, [r3]
 1755 0188 8021     		movs	r1, #128
 1756 018a 0902     		lsls	r1, r1, #8
 1757 018c 0A43     		orrs	r2, r1
 1758 018e 5A64     		str	r2, [r3, #68]
 1759              	.L112:
 1760              		.loc 1 882 0
 1761 0190 FB68     		ldr	r3, [r7, #12]
 1762 0192 1B68     		ldr	r3, [r3]
 1763 0194 1A68     		ldr	r2, [r3]
 1764 0196 FB68     		ldr	r3, [r7, #12]
 1765 0198 1B68     		ldr	r3, [r3]
 1766 019a 0121     		movs	r1, #1
 1767 019c 0A43     		orrs	r2, r1
ARM GAS  C:\Users\anashi\AppData\Local\Temp\ccN6f8ah.s 			page 32


 1768 019e 1A60     		str	r2, [r3]
 1769              		.loc 1 885 0
 1770 01a0 0023     		movs	r3, #0
 1771              	.L99:
 1772              		.loc 1 886 0
 1773 01a2 1800     		movs	r0, r3
 1774 01a4 BD46     		mov	sp, r7
 1775 01a6 04B0     		add	sp, sp, #16
 1776              		@ sp needed
 1777 01a8 80BD     		pop	{r7, pc}
 1778              	.L114:
 1779 01aa C046     		.align	2
 1780              	.L113:
 1781 01ac 00000000 		.word	TIM_DMADelayPulseCplt
 1782 01b0 00000000 		.word	TIM_DMAError
 1783 01b4 002C0140 		.word	1073818624
 1784 01b8 00440140 		.word	1073824768
 1785 01bc 00480140 		.word	1073825792
 1786              		.cfi_endproc
 1787              	.LFE55:
 1788              		.size	HAL_TIM_OC_Start_DMA, .-HAL_TIM_OC_Start_DMA
 1789              		.section	.text.HAL_TIM_OC_Stop_DMA,"ax",%progbits
 1790              		.align	1
 1791              		.global	HAL_TIM_OC_Stop_DMA
 1792              		.syntax unified
 1793              		.code	16
 1794              		.thumb_func
 1795              		.fpu softvfp
 1796              		.type	HAL_TIM_OC_Stop_DMA, %function
 1797              	HAL_TIM_OC_Stop_DMA:
 1798              	.LFB56:
 1799              		.loc 1 900 0
 1800              		.cfi_startproc
 1801              		@ args = 0, pretend = 0, frame = 8
 1802              		@ frame_needed = 1, uses_anonymous_args = 0
 1803 0000 80B5     		push	{r7, lr}
 1804              		.cfi_def_cfa_offset 8
 1805              		.cfi_offset 7, -8
 1806              		.cfi_offset 14, -4
 1807 0002 82B0     		sub	sp, sp, #8
 1808              		.cfi_def_cfa_offset 16
 1809 0004 00AF     		add	r7, sp, #0
 1810              		.cfi_def_cfa_register 7
 1811 0006 7860     		str	r0, [r7, #4]
 1812 0008 3960     		str	r1, [r7]
 1813              		.loc 1 904 0
 1814 000a 3B68     		ldr	r3, [r7]
 1815 000c 042B     		cmp	r3, #4
 1816 000e 11D0     		beq	.L117
 1817 0010 02D8     		bhi	.L118
 1818 0012 002B     		cmp	r3, #0
 1819 0014 05D0     		beq	.L119
 1820              		.loc 1 935 0
 1821 0016 28E0     		b	.L122
 1822              	.L118:
 1823              		.loc 1 904 0
 1824 0018 082B     		cmp	r3, #8
ARM GAS  C:\Users\anashi\AppData\Local\Temp\ccN6f8ah.s 			page 33


 1825 001a 14D0     		beq	.L120
 1826 001c 0C2B     		cmp	r3, #12
 1827 001e 1BD0     		beq	.L121
 1828              		.loc 1 935 0
 1829 0020 23E0     		b	.L122
 1830              	.L119:
 1831              		.loc 1 909 0
 1832 0022 7B68     		ldr	r3, [r7, #4]
 1833 0024 1B68     		ldr	r3, [r3]
 1834 0026 DA68     		ldr	r2, [r3, #12]
 1835 0028 7B68     		ldr	r3, [r7, #4]
 1836 002a 1B68     		ldr	r3, [r3]
 1837 002c 3549     		ldr	r1, .L129
 1838 002e 0A40     		ands	r2, r1
 1839 0030 DA60     		str	r2, [r3, #12]
 1840              		.loc 1 911 0
 1841 0032 1AE0     		b	.L122
 1842              	.L117:
 1843              		.loc 1 916 0
 1844 0034 7B68     		ldr	r3, [r7, #4]
 1845 0036 1B68     		ldr	r3, [r3]
 1846 0038 DA68     		ldr	r2, [r3, #12]
 1847 003a 7B68     		ldr	r3, [r7, #4]
 1848 003c 1B68     		ldr	r3, [r3]
 1849 003e 3249     		ldr	r1, .L129+4
 1850 0040 0A40     		ands	r2, r1
 1851 0042 DA60     		str	r2, [r3, #12]
 1852              		.loc 1 918 0
 1853 0044 11E0     		b	.L122
 1854              	.L120:
 1855              		.loc 1 923 0
 1856 0046 7B68     		ldr	r3, [r7, #4]
 1857 0048 1B68     		ldr	r3, [r3]
 1858 004a DA68     		ldr	r2, [r3, #12]
 1859 004c 7B68     		ldr	r3, [r7, #4]
 1860 004e 1B68     		ldr	r3, [r3]
 1861 0050 2E49     		ldr	r1, .L129+8
 1862 0052 0A40     		ands	r2, r1
 1863 0054 DA60     		str	r2, [r3, #12]
 1864              		.loc 1 925 0
 1865 0056 08E0     		b	.L122
 1866              	.L121:
 1867              		.loc 1 930 0
 1868 0058 7B68     		ldr	r3, [r7, #4]
 1869 005a 1B68     		ldr	r3, [r3]
 1870 005c DA68     		ldr	r2, [r3, #12]
 1871 005e 7B68     		ldr	r3, [r7, #4]
 1872 0060 1B68     		ldr	r3, [r3]
 1873 0062 2B49     		ldr	r1, .L129+12
 1874 0064 0A40     		ands	r2, r1
 1875 0066 DA60     		str	r2, [r3, #12]
 1876              		.loc 1 932 0
 1877 0068 C046     		nop
 1878              	.L122:
 1879              		.loc 1 939 0
 1880 006a 7B68     		ldr	r3, [r7, #4]
 1881 006c 1B68     		ldr	r3, [r3]
ARM GAS  C:\Users\anashi\AppData\Local\Temp\ccN6f8ah.s 			page 34


 1882 006e 3968     		ldr	r1, [r7]
 1883 0070 0022     		movs	r2, #0
 1884 0072 1800     		movs	r0, r3
 1885 0074 FFF7FEFF 		bl	TIM_CCxChannelCmd
 1886              		.loc 1 941 0
 1887 0078 7B68     		ldr	r3, [r7, #4]
 1888 007a 1B68     		ldr	r3, [r3]
 1889 007c 254A     		ldr	r2, .L129+16
 1890 007e 9342     		cmp	r3, r2
 1891 0080 09D0     		beq	.L123
 1892              		.loc 1 941 0 is_stmt 0 discriminator 2
 1893 0082 7B68     		ldr	r3, [r7, #4]
 1894 0084 1B68     		ldr	r3, [r3]
 1895 0086 244A     		ldr	r2, .L129+20
 1896 0088 9342     		cmp	r3, r2
 1897 008a 04D0     		beq	.L123
 1898              		.loc 1 941 0 discriminator 4
 1899 008c 7B68     		ldr	r3, [r7, #4]
 1900 008e 1B68     		ldr	r3, [r3]
 1901 0090 224A     		ldr	r2, .L129+24
 1902 0092 9342     		cmp	r3, r2
 1903 0094 01D1     		bne	.L124
 1904              	.L123:
 1905              		.loc 1 941 0 discriminator 5
 1906 0096 0123     		movs	r3, #1
 1907 0098 00E0     		b	.L125
 1908              	.L124:
 1909              		.loc 1 941 0 discriminator 6
 1910 009a 0023     		movs	r3, #0
 1911              	.L125:
 1912              		.loc 1 941 0 discriminator 8
 1913 009c 002B     		cmp	r3, #0
 1914 009e 13D0     		beq	.L126
 1915              		.loc 1 944 0 is_stmt 1
 1916 00a0 7B68     		ldr	r3, [r7, #4]
 1917 00a2 1B68     		ldr	r3, [r3]
 1918 00a4 1B6A     		ldr	r3, [r3, #32]
 1919 00a6 1E4A     		ldr	r2, .L129+28
 1920 00a8 1340     		ands	r3, r2
 1921 00aa 0DD1     		bne	.L126
 1922              		.loc 1 944 0 is_stmt 0 discriminator 1
 1923 00ac 7B68     		ldr	r3, [r7, #4]
 1924 00ae 1B68     		ldr	r3, [r3]
 1925 00b0 1B6A     		ldr	r3, [r3, #32]
 1926 00b2 1C4A     		ldr	r2, .L129+32
 1927 00b4 1340     		ands	r3, r2
 1928 00b6 07D1     		bne	.L126
 1929              		.loc 1 944 0 discriminator 2
 1930 00b8 7B68     		ldr	r3, [r7, #4]
 1931 00ba 1B68     		ldr	r3, [r3]
 1932 00bc 5A6C     		ldr	r2, [r3, #68]
 1933 00be 7B68     		ldr	r3, [r7, #4]
 1934 00c0 1B68     		ldr	r3, [r3]
 1935 00c2 1949     		ldr	r1, .L129+36
 1936 00c4 0A40     		ands	r2, r1
 1937 00c6 5A64     		str	r2, [r3, #68]
 1938              	.L126:
ARM GAS  C:\Users\anashi\AppData\Local\Temp\ccN6f8ah.s 			page 35


 1939              		.loc 1 948 0 is_stmt 1
 1940 00c8 7B68     		ldr	r3, [r7, #4]
 1941 00ca 1B68     		ldr	r3, [r3]
 1942 00cc 1B6A     		ldr	r3, [r3, #32]
 1943 00ce 144A     		ldr	r2, .L129+28
 1944 00d0 1340     		ands	r3, r2
 1945 00d2 0DD1     		bne	.L127
 1946              		.loc 1 948 0 is_stmt 0 discriminator 1
 1947 00d4 7B68     		ldr	r3, [r7, #4]
 1948 00d6 1B68     		ldr	r3, [r3]
 1949 00d8 1B6A     		ldr	r3, [r3, #32]
 1950 00da 124A     		ldr	r2, .L129+32
 1951 00dc 1340     		ands	r3, r2
 1952 00de 07D1     		bne	.L127
 1953              		.loc 1 948 0 discriminator 2
 1954 00e0 7B68     		ldr	r3, [r7, #4]
 1955 00e2 1B68     		ldr	r3, [r3]
 1956 00e4 1A68     		ldr	r2, [r3]
 1957 00e6 7B68     		ldr	r3, [r7, #4]
 1958 00e8 1B68     		ldr	r3, [r3]
 1959 00ea 0121     		movs	r1, #1
 1960 00ec 8A43     		bics	r2, r1
 1961 00ee 1A60     		str	r2, [r3]
 1962              	.L127:
 1963              		.loc 1 951 0 is_stmt 1
 1964 00f0 7B68     		ldr	r3, [r7, #4]
 1965 00f2 3D22     		movs	r2, #61
 1966 00f4 0121     		movs	r1, #1
 1967 00f6 9954     		strb	r1, [r3, r2]
 1968              		.loc 1 954 0
 1969 00f8 0023     		movs	r3, #0
 1970              		.loc 1 955 0
 1971 00fa 1800     		movs	r0, r3
 1972 00fc BD46     		mov	sp, r7
 1973 00fe 02B0     		add	sp, sp, #8
 1974              		@ sp needed
 1975 0100 80BD     		pop	{r7, pc}
 1976              	.L130:
 1977 0102 C046     		.align	2
 1978              	.L129:
 1979 0104 FFFDFFFF 		.word	-513
 1980 0108 FFFBFFFF 		.word	-1025
 1981 010c FFF7FFFF 		.word	-2049
 1982 0110 FFEFFFFF 		.word	-4097
 1983 0114 002C0140 		.word	1073818624
 1984 0118 00440140 		.word	1073824768
 1985 011c 00480140 		.word	1073825792
 1986 0120 11110000 		.word	4369
 1987 0124 44040000 		.word	1092
 1988 0128 FF7FFFFF 		.word	-32769
 1989              		.cfi_endproc
 1990              	.LFE56:
 1991              		.size	HAL_TIM_OC_Stop_DMA, .-HAL_TIM_OC_Stop_DMA
 1992              		.section	.text.HAL_TIM_PWM_Init,"ax",%progbits
 1993              		.align	1
 1994              		.global	HAL_TIM_PWM_Init
 1995              		.syntax unified
ARM GAS  C:\Users\anashi\AppData\Local\Temp\ccN6f8ah.s 			page 36


 1996              		.code	16
 1997              		.thumb_func
 1998              		.fpu softvfp
 1999              		.type	HAL_TIM_PWM_Init, %function
 2000              	HAL_TIM_PWM_Init:
 2001              	.LFB57:
 2002              		.loc 1 989 0
 2003              		.cfi_startproc
 2004              		@ args = 0, pretend = 0, frame = 8
 2005              		@ frame_needed = 1, uses_anonymous_args = 0
 2006 0000 80B5     		push	{r7, lr}
 2007              		.cfi_def_cfa_offset 8
 2008              		.cfi_offset 7, -8
 2009              		.cfi_offset 14, -4
 2010 0002 82B0     		sub	sp, sp, #8
 2011              		.cfi_def_cfa_offset 16
 2012 0004 00AF     		add	r7, sp, #0
 2013              		.cfi_def_cfa_register 7
 2014 0006 7860     		str	r0, [r7, #4]
 2015              		.loc 1 991 0
 2016 0008 7B68     		ldr	r3, [r7, #4]
 2017 000a 002B     		cmp	r3, #0
 2018 000c 01D1     		bne	.L132
 2019              		.loc 1 993 0
 2020 000e 0123     		movs	r3, #1
 2021 0010 1EE0     		b	.L133
 2022              	.L132:
 2023              		.loc 1 1002 0
 2024 0012 7B68     		ldr	r3, [r7, #4]
 2025 0014 3D22     		movs	r2, #61
 2026 0016 9B5C     		ldrb	r3, [r3, r2]
 2027 0018 DBB2     		uxtb	r3, r3
 2028 001a 002B     		cmp	r3, #0
 2029 001c 07D1     		bne	.L134
 2030              		.loc 1 1005 0
 2031 001e 7B68     		ldr	r3, [r7, #4]
 2032 0020 3C22     		movs	r2, #60
 2033 0022 0021     		movs	r1, #0
 2034 0024 9954     		strb	r1, [r3, r2]
 2035              		.loc 1 1008 0
 2036 0026 7B68     		ldr	r3, [r7, #4]
 2037 0028 1800     		movs	r0, r3
 2038 002a FFF7FEFF 		bl	HAL_TIM_PWM_MspInit
 2039              	.L134:
 2040              		.loc 1 1012 0
 2041 002e 7B68     		ldr	r3, [r7, #4]
 2042 0030 3D22     		movs	r2, #61
 2043 0032 0221     		movs	r1, #2
 2044 0034 9954     		strb	r1, [r3, r2]
 2045              		.loc 1 1015 0
 2046 0036 7B68     		ldr	r3, [r7, #4]
 2047 0038 1A68     		ldr	r2, [r3]
 2048 003a 7B68     		ldr	r3, [r7, #4]
 2049 003c 0433     		adds	r3, r3, #4
 2050 003e 1900     		movs	r1, r3
 2051 0040 1000     		movs	r0, r2
 2052 0042 FFF7FEFF 		bl	TIM_Base_SetConfig
ARM GAS  C:\Users\anashi\AppData\Local\Temp\ccN6f8ah.s 			page 37


 2053              		.loc 1 1018 0
 2054 0046 7B68     		ldr	r3, [r7, #4]
 2055 0048 3D22     		movs	r2, #61
 2056 004a 0121     		movs	r1, #1
 2057 004c 9954     		strb	r1, [r3, r2]
 2058              		.loc 1 1020 0
 2059 004e 0023     		movs	r3, #0
 2060              	.L133:
 2061              		.loc 1 1021 0
 2062 0050 1800     		movs	r0, r3
 2063 0052 BD46     		mov	sp, r7
 2064 0054 02B0     		add	sp, sp, #8
 2065              		@ sp needed
 2066 0056 80BD     		pop	{r7, pc}
 2067              		.cfi_endproc
 2068              	.LFE57:
 2069              		.size	HAL_TIM_PWM_Init, .-HAL_TIM_PWM_Init
 2070              		.section	.text.HAL_TIM_PWM_DeInit,"ax",%progbits
 2071              		.align	1
 2072              		.global	HAL_TIM_PWM_DeInit
 2073              		.syntax unified
 2074              		.code	16
 2075              		.thumb_func
 2076              		.fpu softvfp
 2077              		.type	HAL_TIM_PWM_DeInit, %function
 2078              	HAL_TIM_PWM_DeInit:
 2079              	.LFB58:
 2080              		.loc 1 1029 0
 2081              		.cfi_startproc
 2082              		@ args = 0, pretend = 0, frame = 8
 2083              		@ frame_needed = 1, uses_anonymous_args = 0
 2084 0000 80B5     		push	{r7, lr}
 2085              		.cfi_def_cfa_offset 8
 2086              		.cfi_offset 7, -8
 2087              		.cfi_offset 14, -4
 2088 0002 82B0     		sub	sp, sp, #8
 2089              		.cfi_def_cfa_offset 16
 2090 0004 00AF     		add	r7, sp, #0
 2091              		.cfi_def_cfa_register 7
 2092 0006 7860     		str	r0, [r7, #4]
 2093              		.loc 1 1033 0
 2094 0008 7B68     		ldr	r3, [r7, #4]
 2095 000a 3D22     		movs	r2, #61
 2096 000c 0221     		movs	r1, #2
 2097 000e 9954     		strb	r1, [r3, r2]
 2098              		.loc 1 1036 0
 2099 0010 7B68     		ldr	r3, [r7, #4]
 2100 0012 1B68     		ldr	r3, [r3]
 2101 0014 1B6A     		ldr	r3, [r3, #32]
 2102 0016 114A     		ldr	r2, .L138
 2103 0018 1340     		ands	r3, r2
 2104 001a 0DD1     		bne	.L136
 2105              		.loc 1 1036 0 is_stmt 0 discriminator 1
 2106 001c 7B68     		ldr	r3, [r7, #4]
 2107 001e 1B68     		ldr	r3, [r3]
 2108 0020 1B6A     		ldr	r3, [r3, #32]
 2109 0022 0F4A     		ldr	r2, .L138+4
ARM GAS  C:\Users\anashi\AppData\Local\Temp\ccN6f8ah.s 			page 38


 2110 0024 1340     		ands	r3, r2
 2111 0026 07D1     		bne	.L136
 2112              		.loc 1 1036 0 discriminator 2
 2113 0028 7B68     		ldr	r3, [r7, #4]
 2114 002a 1B68     		ldr	r3, [r3]
 2115 002c 1A68     		ldr	r2, [r3]
 2116 002e 7B68     		ldr	r3, [r7, #4]
 2117 0030 1B68     		ldr	r3, [r3]
 2118 0032 0121     		movs	r1, #1
 2119 0034 8A43     		bics	r2, r1
 2120 0036 1A60     		str	r2, [r3]
 2121              	.L136:
 2122              		.loc 1 1039 0 is_stmt 1
 2123 0038 7B68     		ldr	r3, [r7, #4]
 2124 003a 1800     		movs	r0, r3
 2125 003c FFF7FEFF 		bl	HAL_TIM_PWM_MspDeInit
 2126              		.loc 1 1042 0
 2127 0040 7B68     		ldr	r3, [r7, #4]
 2128 0042 3D22     		movs	r2, #61
 2129 0044 0021     		movs	r1, #0
 2130 0046 9954     		strb	r1, [r3, r2]
 2131              		.loc 1 1045 0
 2132 0048 7B68     		ldr	r3, [r7, #4]
 2133 004a 3C22     		movs	r2, #60
 2134 004c 0021     		movs	r1, #0
 2135 004e 9954     		strb	r1, [r3, r2]
 2136              		.loc 1 1047 0
 2137 0050 0023     		movs	r3, #0
 2138              		.loc 1 1048 0
 2139 0052 1800     		movs	r0, r3
 2140 0054 BD46     		mov	sp, r7
 2141 0056 02B0     		add	sp, sp, #8
 2142              		@ sp needed
 2143 0058 80BD     		pop	{r7, pc}
 2144              	.L139:
 2145 005a C046     		.align	2
 2146              	.L138:
 2147 005c 11110000 		.word	4369
 2148 0060 44040000 		.word	1092
 2149              		.cfi_endproc
 2150              	.LFE58:
 2151              		.size	HAL_TIM_PWM_DeInit, .-HAL_TIM_PWM_DeInit
 2152              		.section	.text.HAL_TIM_PWM_MspInit,"ax",%progbits
 2153              		.align	1
 2154              		.weak	HAL_TIM_PWM_MspInit
 2155              		.syntax unified
 2156              		.code	16
 2157              		.thumb_func
 2158              		.fpu softvfp
 2159              		.type	HAL_TIM_PWM_MspInit, %function
 2160              	HAL_TIM_PWM_MspInit:
 2161              	.LFB59:
 2162              		.loc 1 1056 0
 2163              		.cfi_startproc
 2164              		@ args = 0, pretend = 0, frame = 8
 2165              		@ frame_needed = 1, uses_anonymous_args = 0
 2166 0000 80B5     		push	{r7, lr}
ARM GAS  C:\Users\anashi\AppData\Local\Temp\ccN6f8ah.s 			page 39


 2167              		.cfi_def_cfa_offset 8
 2168              		.cfi_offset 7, -8
 2169              		.cfi_offset 14, -4
 2170 0002 82B0     		sub	sp, sp, #8
 2171              		.cfi_def_cfa_offset 16
 2172 0004 00AF     		add	r7, sp, #0
 2173              		.cfi_def_cfa_register 7
 2174 0006 7860     		str	r0, [r7, #4]
 2175              		.loc 1 1063 0
 2176 0008 C046     		nop
 2177 000a BD46     		mov	sp, r7
 2178 000c 02B0     		add	sp, sp, #8
 2179              		@ sp needed
 2180 000e 80BD     		pop	{r7, pc}
 2181              		.cfi_endproc
 2182              	.LFE59:
 2183              		.size	HAL_TIM_PWM_MspInit, .-HAL_TIM_PWM_MspInit
 2184              		.section	.text.HAL_TIM_PWM_MspDeInit,"ax",%progbits
 2185              		.align	1
 2186              		.weak	HAL_TIM_PWM_MspDeInit
 2187              		.syntax unified
 2188              		.code	16
 2189              		.thumb_func
 2190              		.fpu softvfp
 2191              		.type	HAL_TIM_PWM_MspDeInit, %function
 2192              	HAL_TIM_PWM_MspDeInit:
 2193              	.LFB60:
 2194              		.loc 1 1071 0
 2195              		.cfi_startproc
 2196              		@ args = 0, pretend = 0, frame = 8
 2197              		@ frame_needed = 1, uses_anonymous_args = 0
 2198 0000 80B5     		push	{r7, lr}
 2199              		.cfi_def_cfa_offset 8
 2200              		.cfi_offset 7, -8
 2201              		.cfi_offset 14, -4
 2202 0002 82B0     		sub	sp, sp, #8
 2203              		.cfi_def_cfa_offset 16
 2204 0004 00AF     		add	r7, sp, #0
 2205              		.cfi_def_cfa_register 7
 2206 0006 7860     		str	r0, [r7, #4]
 2207              		.loc 1 1078 0
 2208 0008 C046     		nop
 2209 000a BD46     		mov	sp, r7
 2210 000c 02B0     		add	sp, sp, #8
 2211              		@ sp needed
 2212 000e 80BD     		pop	{r7, pc}
 2213              		.cfi_endproc
 2214              	.LFE60:
 2215              		.size	HAL_TIM_PWM_MspDeInit, .-HAL_TIM_PWM_MspDeInit
 2216              		.section	.text.HAL_TIM_PWM_Start,"ax",%progbits
 2217              		.align	1
 2218              		.global	HAL_TIM_PWM_Start
 2219              		.syntax unified
 2220              		.code	16
 2221              		.thumb_func
 2222              		.fpu softvfp
 2223              		.type	HAL_TIM_PWM_Start, %function
ARM GAS  C:\Users\anashi\AppData\Local\Temp\ccN6f8ah.s 			page 40


 2224              	HAL_TIM_PWM_Start:
 2225              	.LFB61:
 2226              		.loc 1 1092 0
 2227              		.cfi_startproc
 2228              		@ args = 0, pretend = 0, frame = 8
 2229              		@ frame_needed = 1, uses_anonymous_args = 0
 2230 0000 80B5     		push	{r7, lr}
 2231              		.cfi_def_cfa_offset 8
 2232              		.cfi_offset 7, -8
 2233              		.cfi_offset 14, -4
 2234 0002 82B0     		sub	sp, sp, #8
 2235              		.cfi_def_cfa_offset 16
 2236 0004 00AF     		add	r7, sp, #0
 2237              		.cfi_def_cfa_register 7
 2238 0006 7860     		str	r0, [r7, #4]
 2239 0008 3960     		str	r1, [r7]
 2240              		.loc 1 1097 0
 2241 000a 7B68     		ldr	r3, [r7, #4]
 2242 000c 1B68     		ldr	r3, [r3]
 2243 000e 3968     		ldr	r1, [r7]
 2244 0010 0122     		movs	r2, #1
 2245 0012 1800     		movs	r0, r3
 2246 0014 FFF7FEFF 		bl	TIM_CCxChannelCmd
 2247              		.loc 1 1099 0
 2248 0018 7B68     		ldr	r3, [r7, #4]
 2249 001a 1B68     		ldr	r3, [r3]
 2250 001c 134A     		ldr	r2, .L148
 2251 001e 9342     		cmp	r3, r2
 2252 0020 09D0     		beq	.L143
 2253              		.loc 1 1099 0 is_stmt 0 discriminator 2
 2254 0022 7B68     		ldr	r3, [r7, #4]
 2255 0024 1B68     		ldr	r3, [r3]
 2256 0026 124A     		ldr	r2, .L148+4
 2257 0028 9342     		cmp	r3, r2
 2258 002a 04D0     		beq	.L143
 2259              		.loc 1 1099 0 discriminator 4
 2260 002c 7B68     		ldr	r3, [r7, #4]
 2261 002e 1B68     		ldr	r3, [r3]
 2262 0030 104A     		ldr	r2, .L148+8
 2263 0032 9342     		cmp	r3, r2
 2264 0034 01D1     		bne	.L144
 2265              	.L143:
 2266              		.loc 1 1099 0 discriminator 5
 2267 0036 0123     		movs	r3, #1
 2268 0038 00E0     		b	.L145
 2269              	.L144:
 2270              		.loc 1 1099 0 discriminator 6
 2271 003a 0023     		movs	r3, #0
 2272              	.L145:
 2273              		.loc 1 1099 0 discriminator 8
 2274 003c 002B     		cmp	r3, #0
 2275 003e 08D0     		beq	.L146
 2276              		.loc 1 1102 0 is_stmt 1
 2277 0040 7B68     		ldr	r3, [r7, #4]
 2278 0042 1B68     		ldr	r3, [r3]
 2279 0044 5A6C     		ldr	r2, [r3, #68]
 2280 0046 7B68     		ldr	r3, [r7, #4]
ARM GAS  C:\Users\anashi\AppData\Local\Temp\ccN6f8ah.s 			page 41


 2281 0048 1B68     		ldr	r3, [r3]
 2282 004a 8021     		movs	r1, #128
 2283 004c 0902     		lsls	r1, r1, #8
 2284 004e 0A43     		orrs	r2, r1
 2285 0050 5A64     		str	r2, [r3, #68]
 2286              	.L146:
 2287              		.loc 1 1106 0
 2288 0052 7B68     		ldr	r3, [r7, #4]
 2289 0054 1B68     		ldr	r3, [r3]
 2290 0056 1A68     		ldr	r2, [r3]
 2291 0058 7B68     		ldr	r3, [r7, #4]
 2292 005a 1B68     		ldr	r3, [r3]
 2293 005c 0121     		movs	r1, #1
 2294 005e 0A43     		orrs	r2, r1
 2295 0060 1A60     		str	r2, [r3]
 2296              		.loc 1 1109 0
 2297 0062 0023     		movs	r3, #0
 2298              		.loc 1 1110 0
 2299 0064 1800     		movs	r0, r3
 2300 0066 BD46     		mov	sp, r7
 2301 0068 02B0     		add	sp, sp, #8
 2302              		@ sp needed
 2303 006a 80BD     		pop	{r7, pc}
 2304              	.L149:
 2305              		.align	2
 2306              	.L148:
 2307 006c 002C0140 		.word	1073818624
 2308 0070 00440140 		.word	1073824768
 2309 0074 00480140 		.word	1073825792
 2310              		.cfi_endproc
 2311              	.LFE61:
 2312              		.size	HAL_TIM_PWM_Start, .-HAL_TIM_PWM_Start
 2313              		.section	.text.HAL_TIM_PWM_Stop,"ax",%progbits
 2314              		.align	1
 2315              		.global	HAL_TIM_PWM_Stop
 2316              		.syntax unified
 2317              		.code	16
 2318              		.thumb_func
 2319              		.fpu softvfp
 2320              		.type	HAL_TIM_PWM_Stop, %function
 2321              	HAL_TIM_PWM_Stop:
 2322              	.LFB62:
 2323              		.loc 1 1124 0
 2324              		.cfi_startproc
 2325              		@ args = 0, pretend = 0, frame = 8
 2326              		@ frame_needed = 1, uses_anonymous_args = 0
 2327 0000 80B5     		push	{r7, lr}
 2328              		.cfi_def_cfa_offset 8
 2329              		.cfi_offset 7, -8
 2330              		.cfi_offset 14, -4
 2331 0002 82B0     		sub	sp, sp, #8
 2332              		.cfi_def_cfa_offset 16
 2333 0004 00AF     		add	r7, sp, #0
 2334              		.cfi_def_cfa_register 7
 2335 0006 7860     		str	r0, [r7, #4]
 2336 0008 3960     		str	r1, [r7]
 2337              		.loc 1 1129 0
ARM GAS  C:\Users\anashi\AppData\Local\Temp\ccN6f8ah.s 			page 42


 2338 000a 7B68     		ldr	r3, [r7, #4]
 2339 000c 1B68     		ldr	r3, [r3]
 2340 000e 3968     		ldr	r1, [r7]
 2341 0010 0022     		movs	r2, #0
 2342 0012 1800     		movs	r0, r3
 2343 0014 FFF7FEFF 		bl	TIM_CCxChannelCmd
 2344              		.loc 1 1131 0
 2345 0018 7B68     		ldr	r3, [r7, #4]
 2346 001a 1B68     		ldr	r3, [r3]
 2347 001c 214A     		ldr	r2, .L157
 2348 001e 9342     		cmp	r3, r2
 2349 0020 09D0     		beq	.L151
 2350              		.loc 1 1131 0 is_stmt 0 discriminator 2
 2351 0022 7B68     		ldr	r3, [r7, #4]
 2352 0024 1B68     		ldr	r3, [r3]
 2353 0026 204A     		ldr	r2, .L157+4
 2354 0028 9342     		cmp	r3, r2
 2355 002a 04D0     		beq	.L151
 2356              		.loc 1 1131 0 discriminator 4
 2357 002c 7B68     		ldr	r3, [r7, #4]
 2358 002e 1B68     		ldr	r3, [r3]
 2359 0030 1E4A     		ldr	r2, .L157+8
 2360 0032 9342     		cmp	r3, r2
 2361 0034 01D1     		bne	.L152
 2362              	.L151:
 2363              		.loc 1 1131 0 discriminator 5
 2364 0036 0123     		movs	r3, #1
 2365 0038 00E0     		b	.L153
 2366              	.L152:
 2367              		.loc 1 1131 0 discriminator 6
 2368 003a 0023     		movs	r3, #0
 2369              	.L153:
 2370              		.loc 1 1131 0 discriminator 8
 2371 003c 002B     		cmp	r3, #0
 2372 003e 13D0     		beq	.L154
 2373              		.loc 1 1134 0 is_stmt 1
 2374 0040 7B68     		ldr	r3, [r7, #4]
 2375 0042 1B68     		ldr	r3, [r3]
 2376 0044 1B6A     		ldr	r3, [r3, #32]
 2377 0046 1A4A     		ldr	r2, .L157+12
 2378 0048 1340     		ands	r3, r2
 2379 004a 0DD1     		bne	.L154
 2380              		.loc 1 1134 0 is_stmt 0 discriminator 1
 2381 004c 7B68     		ldr	r3, [r7, #4]
 2382 004e 1B68     		ldr	r3, [r3]
 2383 0050 1B6A     		ldr	r3, [r3, #32]
 2384 0052 184A     		ldr	r2, .L157+16
 2385 0054 1340     		ands	r3, r2
 2386 0056 07D1     		bne	.L154
 2387              		.loc 1 1134 0 discriminator 2
 2388 0058 7B68     		ldr	r3, [r7, #4]
 2389 005a 1B68     		ldr	r3, [r3]
 2390 005c 5A6C     		ldr	r2, [r3, #68]
 2391 005e 7B68     		ldr	r3, [r7, #4]
 2392 0060 1B68     		ldr	r3, [r3]
 2393 0062 1549     		ldr	r1, .L157+20
 2394 0064 0A40     		ands	r2, r1
ARM GAS  C:\Users\anashi\AppData\Local\Temp\ccN6f8ah.s 			page 43


 2395 0066 5A64     		str	r2, [r3, #68]
 2396              	.L154:
 2397              		.loc 1 1138 0 is_stmt 1
 2398 0068 7B68     		ldr	r3, [r7, #4]
 2399 006a 1B68     		ldr	r3, [r3]
 2400 006c 1B6A     		ldr	r3, [r3, #32]
 2401 006e 104A     		ldr	r2, .L157+12
 2402 0070 1340     		ands	r3, r2
 2403 0072 0DD1     		bne	.L155
 2404              		.loc 1 1138 0 is_stmt 0 discriminator 1
 2405 0074 7B68     		ldr	r3, [r7, #4]
 2406 0076 1B68     		ldr	r3, [r3]
 2407 0078 1B6A     		ldr	r3, [r3, #32]
 2408 007a 0E4A     		ldr	r2, .L157+16
 2409 007c 1340     		ands	r3, r2
 2410 007e 07D1     		bne	.L155
 2411              		.loc 1 1138 0 discriminator 2
 2412 0080 7B68     		ldr	r3, [r7, #4]
 2413 0082 1B68     		ldr	r3, [r3]
 2414 0084 1A68     		ldr	r2, [r3]
 2415 0086 7B68     		ldr	r3, [r7, #4]
 2416 0088 1B68     		ldr	r3, [r3]
 2417 008a 0121     		movs	r1, #1
 2418 008c 8A43     		bics	r2, r1
 2419 008e 1A60     		str	r2, [r3]
 2420              	.L155:
 2421              		.loc 1 1141 0 is_stmt 1
 2422 0090 7B68     		ldr	r3, [r7, #4]
 2423 0092 3D22     		movs	r2, #61
 2424 0094 0121     		movs	r1, #1
 2425 0096 9954     		strb	r1, [r3, r2]
 2426              		.loc 1 1144 0
 2427 0098 0023     		movs	r3, #0
 2428              		.loc 1 1145 0
 2429 009a 1800     		movs	r0, r3
 2430 009c BD46     		mov	sp, r7
 2431 009e 02B0     		add	sp, sp, #8
 2432              		@ sp needed
 2433 00a0 80BD     		pop	{r7, pc}
 2434              	.L158:
 2435 00a2 C046     		.align	2
 2436              	.L157:
 2437 00a4 002C0140 		.word	1073818624
 2438 00a8 00440140 		.word	1073824768
 2439 00ac 00480140 		.word	1073825792
 2440 00b0 11110000 		.word	4369
 2441 00b4 44040000 		.word	1092
 2442 00b8 FF7FFFFF 		.word	-32769
 2443              		.cfi_endproc
 2444              	.LFE62:
 2445              		.size	HAL_TIM_PWM_Stop, .-HAL_TIM_PWM_Stop
 2446              		.section	.text.HAL_TIM_PWM_Start_IT,"ax",%progbits
 2447              		.align	1
 2448              		.global	HAL_TIM_PWM_Start_IT
 2449              		.syntax unified
 2450              		.code	16
 2451              		.thumb_func
ARM GAS  C:\Users\anashi\AppData\Local\Temp\ccN6f8ah.s 			page 44


 2452              		.fpu softvfp
 2453              		.type	HAL_TIM_PWM_Start_IT, %function
 2454              	HAL_TIM_PWM_Start_IT:
 2455              	.LFB63:
 2456              		.loc 1 1159 0
 2457              		.cfi_startproc
 2458              		@ args = 0, pretend = 0, frame = 8
 2459              		@ frame_needed = 1, uses_anonymous_args = 0
 2460 0000 80B5     		push	{r7, lr}
 2461              		.cfi_def_cfa_offset 8
 2462              		.cfi_offset 7, -8
 2463              		.cfi_offset 14, -4
 2464 0002 82B0     		sub	sp, sp, #8
 2465              		.cfi_def_cfa_offset 16
 2466 0004 00AF     		add	r7, sp, #0
 2467              		.cfi_def_cfa_register 7
 2468 0006 7860     		str	r0, [r7, #4]
 2469 0008 3960     		str	r1, [r7]
 2470              		.loc 1 1163 0
 2471 000a 3B68     		ldr	r3, [r7]
 2472 000c 042B     		cmp	r3, #4
 2473 000e 11D0     		beq	.L161
 2474 0010 02D8     		bhi	.L162
 2475 0012 002B     		cmp	r3, #0
 2476 0014 05D0     		beq	.L163
 2477              		.loc 1 1194 0
 2478 0016 28E0     		b	.L166
 2479              	.L162:
 2480              		.loc 1 1163 0
 2481 0018 082B     		cmp	r3, #8
 2482 001a 14D0     		beq	.L164
 2483 001c 0C2B     		cmp	r3, #12
 2484 001e 1BD0     		beq	.L165
 2485              		.loc 1 1194 0
 2486 0020 23E0     		b	.L166
 2487              	.L163:
 2488              		.loc 1 1168 0
 2489 0022 7B68     		ldr	r3, [r7, #4]
 2490 0024 1B68     		ldr	r3, [r3]
 2491 0026 DA68     		ldr	r2, [r3, #12]
 2492 0028 7B68     		ldr	r3, [r7, #4]
 2493 002a 1B68     		ldr	r3, [r3]
 2494 002c 0221     		movs	r1, #2
 2495 002e 0A43     		orrs	r2, r1
 2496 0030 DA60     		str	r2, [r3, #12]
 2497              		.loc 1 1170 0
 2498 0032 1AE0     		b	.L166
 2499              	.L161:
 2500              		.loc 1 1175 0
 2501 0034 7B68     		ldr	r3, [r7, #4]
 2502 0036 1B68     		ldr	r3, [r3]
 2503 0038 DA68     		ldr	r2, [r3, #12]
 2504 003a 7B68     		ldr	r3, [r7, #4]
 2505 003c 1B68     		ldr	r3, [r3]
 2506 003e 0421     		movs	r1, #4
 2507 0040 0A43     		orrs	r2, r1
 2508 0042 DA60     		str	r2, [r3, #12]
ARM GAS  C:\Users\anashi\AppData\Local\Temp\ccN6f8ah.s 			page 45


 2509              		.loc 1 1177 0
 2510 0044 11E0     		b	.L166
 2511              	.L164:
 2512              		.loc 1 1182 0
 2513 0046 7B68     		ldr	r3, [r7, #4]
 2514 0048 1B68     		ldr	r3, [r3]
 2515 004a DA68     		ldr	r2, [r3, #12]
 2516 004c 7B68     		ldr	r3, [r7, #4]
 2517 004e 1B68     		ldr	r3, [r3]
 2518 0050 0821     		movs	r1, #8
 2519 0052 0A43     		orrs	r2, r1
 2520 0054 DA60     		str	r2, [r3, #12]
 2521              		.loc 1 1184 0
 2522 0056 08E0     		b	.L166
 2523              	.L165:
 2524              		.loc 1 1189 0
 2525 0058 7B68     		ldr	r3, [r7, #4]
 2526 005a 1B68     		ldr	r3, [r3]
 2527 005c DA68     		ldr	r2, [r3, #12]
 2528 005e 7B68     		ldr	r3, [r7, #4]
 2529 0060 1B68     		ldr	r3, [r3]
 2530 0062 1021     		movs	r1, #16
 2531 0064 0A43     		orrs	r2, r1
 2532 0066 DA60     		str	r2, [r3, #12]
 2533              		.loc 1 1191 0
 2534 0068 C046     		nop
 2535              	.L166:
 2536              		.loc 1 1198 0
 2537 006a 7B68     		ldr	r3, [r7, #4]
 2538 006c 1B68     		ldr	r3, [r3]
 2539 006e 3968     		ldr	r1, [r7]
 2540 0070 0122     		movs	r2, #1
 2541 0072 1800     		movs	r0, r3
 2542 0074 FFF7FEFF 		bl	TIM_CCxChannelCmd
 2543              		.loc 1 1200 0
 2544 0078 7B68     		ldr	r3, [r7, #4]
 2545 007a 1B68     		ldr	r3, [r3]
 2546 007c 134A     		ldr	r2, .L172
 2547 007e 9342     		cmp	r3, r2
 2548 0080 09D0     		beq	.L167
 2549              		.loc 1 1200 0 is_stmt 0 discriminator 2
 2550 0082 7B68     		ldr	r3, [r7, #4]
 2551 0084 1B68     		ldr	r3, [r3]
 2552 0086 124A     		ldr	r2, .L172+4
 2553 0088 9342     		cmp	r3, r2
 2554 008a 04D0     		beq	.L167
 2555              		.loc 1 1200 0 discriminator 4
 2556 008c 7B68     		ldr	r3, [r7, #4]
 2557 008e 1B68     		ldr	r3, [r3]
 2558 0090 104A     		ldr	r2, .L172+8
 2559 0092 9342     		cmp	r3, r2
 2560 0094 01D1     		bne	.L168
 2561              	.L167:
 2562              		.loc 1 1200 0 discriminator 5
 2563 0096 0123     		movs	r3, #1
 2564 0098 00E0     		b	.L169
 2565              	.L168:
ARM GAS  C:\Users\anashi\AppData\Local\Temp\ccN6f8ah.s 			page 46


 2566              		.loc 1 1200 0 discriminator 6
 2567 009a 0023     		movs	r3, #0
 2568              	.L169:
 2569              		.loc 1 1200 0 discriminator 8
 2570 009c 002B     		cmp	r3, #0
 2571 009e 08D0     		beq	.L170
 2572              		.loc 1 1203 0 is_stmt 1
 2573 00a0 7B68     		ldr	r3, [r7, #4]
 2574 00a2 1B68     		ldr	r3, [r3]
 2575 00a4 5A6C     		ldr	r2, [r3, #68]
 2576 00a6 7B68     		ldr	r3, [r7, #4]
 2577 00a8 1B68     		ldr	r3, [r3]
 2578 00aa 8021     		movs	r1, #128
 2579 00ac 0902     		lsls	r1, r1, #8
 2580 00ae 0A43     		orrs	r2, r1
 2581 00b0 5A64     		str	r2, [r3, #68]
 2582              	.L170:
 2583              		.loc 1 1207 0
 2584 00b2 7B68     		ldr	r3, [r7, #4]
 2585 00b4 1B68     		ldr	r3, [r3]
 2586 00b6 1A68     		ldr	r2, [r3]
 2587 00b8 7B68     		ldr	r3, [r7, #4]
 2588 00ba 1B68     		ldr	r3, [r3]
 2589 00bc 0121     		movs	r1, #1
 2590 00be 0A43     		orrs	r2, r1
 2591 00c0 1A60     		str	r2, [r3]
 2592              		.loc 1 1210 0
 2593 00c2 0023     		movs	r3, #0
 2594              		.loc 1 1211 0
 2595 00c4 1800     		movs	r0, r3
 2596 00c6 BD46     		mov	sp, r7
 2597 00c8 02B0     		add	sp, sp, #8
 2598              		@ sp needed
 2599 00ca 80BD     		pop	{r7, pc}
 2600              	.L173:
 2601              		.align	2
 2602              	.L172:
 2603 00cc 002C0140 		.word	1073818624
 2604 00d0 00440140 		.word	1073824768
 2605 00d4 00480140 		.word	1073825792
 2606              		.cfi_endproc
 2607              	.LFE63:
 2608              		.size	HAL_TIM_PWM_Start_IT, .-HAL_TIM_PWM_Start_IT
 2609              		.section	.text.HAL_TIM_PWM_Stop_IT,"ax",%progbits
 2610              		.align	1
 2611              		.global	HAL_TIM_PWM_Stop_IT
 2612              		.syntax unified
 2613              		.code	16
 2614              		.thumb_func
 2615              		.fpu softvfp
 2616              		.type	HAL_TIM_PWM_Stop_IT, %function
 2617              	HAL_TIM_PWM_Stop_IT:
 2618              	.LFB64:
 2619              		.loc 1 1225 0
 2620              		.cfi_startproc
 2621              		@ args = 0, pretend = 0, frame = 8
 2622              		@ frame_needed = 1, uses_anonymous_args = 0
ARM GAS  C:\Users\anashi\AppData\Local\Temp\ccN6f8ah.s 			page 47


 2623 0000 80B5     		push	{r7, lr}
 2624              		.cfi_def_cfa_offset 8
 2625              		.cfi_offset 7, -8
 2626              		.cfi_offset 14, -4
 2627 0002 82B0     		sub	sp, sp, #8
 2628              		.cfi_def_cfa_offset 16
 2629 0004 00AF     		add	r7, sp, #0
 2630              		.cfi_def_cfa_register 7
 2631 0006 7860     		str	r0, [r7, #4]
 2632 0008 3960     		str	r1, [r7]
 2633              		.loc 1 1229 0
 2634 000a 3B68     		ldr	r3, [r7]
 2635 000c 042B     		cmp	r3, #4
 2636 000e 11D0     		beq	.L176
 2637 0010 02D8     		bhi	.L177
 2638 0012 002B     		cmp	r3, #0
 2639 0014 05D0     		beq	.L178
 2640              		.loc 1 1260 0
 2641 0016 28E0     		b	.L181
 2642              	.L177:
 2643              		.loc 1 1229 0
 2644 0018 082B     		cmp	r3, #8
 2645 001a 14D0     		beq	.L179
 2646 001c 0C2B     		cmp	r3, #12
 2647 001e 1BD0     		beq	.L180
 2648              		.loc 1 1260 0
 2649 0020 23E0     		b	.L181
 2650              	.L178:
 2651              		.loc 1 1234 0
 2652 0022 7B68     		ldr	r3, [r7, #4]
 2653 0024 1B68     		ldr	r3, [r3]
 2654 0026 DA68     		ldr	r2, [r3, #12]
 2655 0028 7B68     		ldr	r3, [r7, #4]
 2656 002a 1B68     		ldr	r3, [r3]
 2657 002c 0221     		movs	r1, #2
 2658 002e 8A43     		bics	r2, r1
 2659 0030 DA60     		str	r2, [r3, #12]
 2660              		.loc 1 1236 0
 2661 0032 1AE0     		b	.L181
 2662              	.L176:
 2663              		.loc 1 1241 0
 2664 0034 7B68     		ldr	r3, [r7, #4]
 2665 0036 1B68     		ldr	r3, [r3]
 2666 0038 DA68     		ldr	r2, [r3, #12]
 2667 003a 7B68     		ldr	r3, [r7, #4]
 2668 003c 1B68     		ldr	r3, [r3]
 2669 003e 0421     		movs	r1, #4
 2670 0040 8A43     		bics	r2, r1
 2671 0042 DA60     		str	r2, [r3, #12]
 2672              		.loc 1 1243 0
 2673 0044 11E0     		b	.L181
 2674              	.L179:
 2675              		.loc 1 1248 0
 2676 0046 7B68     		ldr	r3, [r7, #4]
 2677 0048 1B68     		ldr	r3, [r3]
 2678 004a DA68     		ldr	r2, [r3, #12]
 2679 004c 7B68     		ldr	r3, [r7, #4]
ARM GAS  C:\Users\anashi\AppData\Local\Temp\ccN6f8ah.s 			page 48


 2680 004e 1B68     		ldr	r3, [r3]
 2681 0050 0821     		movs	r1, #8
 2682 0052 8A43     		bics	r2, r1
 2683 0054 DA60     		str	r2, [r3, #12]
 2684              		.loc 1 1250 0
 2685 0056 08E0     		b	.L181
 2686              	.L180:
 2687              		.loc 1 1255 0
 2688 0058 7B68     		ldr	r3, [r7, #4]
 2689 005a 1B68     		ldr	r3, [r3]
 2690 005c DA68     		ldr	r2, [r3, #12]
 2691 005e 7B68     		ldr	r3, [r7, #4]
 2692 0060 1B68     		ldr	r3, [r3]
 2693 0062 1021     		movs	r1, #16
 2694 0064 8A43     		bics	r2, r1
 2695 0066 DA60     		str	r2, [r3, #12]
 2696              		.loc 1 1257 0
 2697 0068 C046     		nop
 2698              	.L181:
 2699              		.loc 1 1264 0
 2700 006a 7B68     		ldr	r3, [r7, #4]
 2701 006c 1B68     		ldr	r3, [r3]
 2702 006e 3968     		ldr	r1, [r7]
 2703 0070 0022     		movs	r2, #0
 2704 0072 1800     		movs	r0, r3
 2705 0074 FFF7FEFF 		bl	TIM_CCxChannelCmd
 2706              		.loc 1 1266 0
 2707 0078 7B68     		ldr	r3, [r7, #4]
 2708 007a 1B68     		ldr	r3, [r3]
 2709 007c 1F4A     		ldr	r2, .L188
 2710 007e 9342     		cmp	r3, r2
 2711 0080 09D0     		beq	.L182
 2712              		.loc 1 1266 0 is_stmt 0 discriminator 2
 2713 0082 7B68     		ldr	r3, [r7, #4]
 2714 0084 1B68     		ldr	r3, [r3]
 2715 0086 1E4A     		ldr	r2, .L188+4
 2716 0088 9342     		cmp	r3, r2
 2717 008a 04D0     		beq	.L182
 2718              		.loc 1 1266 0 discriminator 4
 2719 008c 7B68     		ldr	r3, [r7, #4]
 2720 008e 1B68     		ldr	r3, [r3]
 2721 0090 1C4A     		ldr	r2, .L188+8
 2722 0092 9342     		cmp	r3, r2
 2723 0094 01D1     		bne	.L183
 2724              	.L182:
 2725              		.loc 1 1266 0 discriminator 5
 2726 0096 0123     		movs	r3, #1
 2727 0098 00E0     		b	.L184
 2728              	.L183:
 2729              		.loc 1 1266 0 discriminator 6
 2730 009a 0023     		movs	r3, #0
 2731              	.L184:
 2732              		.loc 1 1266 0 discriminator 8
 2733 009c 002B     		cmp	r3, #0
 2734 009e 13D0     		beq	.L185
 2735              		.loc 1 1269 0 is_stmt 1
 2736 00a0 7B68     		ldr	r3, [r7, #4]
ARM GAS  C:\Users\anashi\AppData\Local\Temp\ccN6f8ah.s 			page 49


 2737 00a2 1B68     		ldr	r3, [r3]
 2738 00a4 1B6A     		ldr	r3, [r3, #32]
 2739 00a6 184A     		ldr	r2, .L188+12
 2740 00a8 1340     		ands	r3, r2
 2741 00aa 0DD1     		bne	.L185
 2742              		.loc 1 1269 0 is_stmt 0 discriminator 1
 2743 00ac 7B68     		ldr	r3, [r7, #4]
 2744 00ae 1B68     		ldr	r3, [r3]
 2745 00b0 1B6A     		ldr	r3, [r3, #32]
 2746 00b2 164A     		ldr	r2, .L188+16
 2747 00b4 1340     		ands	r3, r2
 2748 00b6 07D1     		bne	.L185
 2749              		.loc 1 1269 0 discriminator 2
 2750 00b8 7B68     		ldr	r3, [r7, #4]
 2751 00ba 1B68     		ldr	r3, [r3]
 2752 00bc 5A6C     		ldr	r2, [r3, #68]
 2753 00be 7B68     		ldr	r3, [r7, #4]
 2754 00c0 1B68     		ldr	r3, [r3]
 2755 00c2 1349     		ldr	r1, .L188+20
 2756 00c4 0A40     		ands	r2, r1
 2757 00c6 5A64     		str	r2, [r3, #68]
 2758              	.L185:
 2759              		.loc 1 1273 0 is_stmt 1
 2760 00c8 7B68     		ldr	r3, [r7, #4]
 2761 00ca 1B68     		ldr	r3, [r3]
 2762 00cc 1B6A     		ldr	r3, [r3, #32]
 2763 00ce 0E4A     		ldr	r2, .L188+12
 2764 00d0 1340     		ands	r3, r2
 2765 00d2 0DD1     		bne	.L186
 2766              		.loc 1 1273 0 is_stmt 0 discriminator 1
 2767 00d4 7B68     		ldr	r3, [r7, #4]
 2768 00d6 1B68     		ldr	r3, [r3]
 2769 00d8 1B6A     		ldr	r3, [r3, #32]
 2770 00da 0C4A     		ldr	r2, .L188+16
 2771 00dc 1340     		ands	r3, r2
 2772 00de 07D1     		bne	.L186
 2773              		.loc 1 1273 0 discriminator 2
 2774 00e0 7B68     		ldr	r3, [r7, #4]
 2775 00e2 1B68     		ldr	r3, [r3]
 2776 00e4 1A68     		ldr	r2, [r3]
 2777 00e6 7B68     		ldr	r3, [r7, #4]
 2778 00e8 1B68     		ldr	r3, [r3]
 2779 00ea 0121     		movs	r1, #1
 2780 00ec 8A43     		bics	r2, r1
 2781 00ee 1A60     		str	r2, [r3]
 2782              	.L186:
 2783              		.loc 1 1276 0 is_stmt 1
 2784 00f0 0023     		movs	r3, #0
 2785              		.loc 1 1277 0
 2786 00f2 1800     		movs	r0, r3
 2787 00f4 BD46     		mov	sp, r7
 2788 00f6 02B0     		add	sp, sp, #8
 2789              		@ sp needed
 2790 00f8 80BD     		pop	{r7, pc}
 2791              	.L189:
 2792 00fa C046     		.align	2
 2793              	.L188:
ARM GAS  C:\Users\anashi\AppData\Local\Temp\ccN6f8ah.s 			page 50


 2794 00fc 002C0140 		.word	1073818624
 2795 0100 00440140 		.word	1073824768
 2796 0104 00480140 		.word	1073825792
 2797 0108 11110000 		.word	4369
 2798 010c 44040000 		.word	1092
 2799 0110 FF7FFFFF 		.word	-32769
 2800              		.cfi_endproc
 2801              	.LFE64:
 2802              		.size	HAL_TIM_PWM_Stop_IT, .-HAL_TIM_PWM_Stop_IT
 2803              		.section	.text.HAL_TIM_PWM_Start_DMA,"ax",%progbits
 2804              		.align	1
 2805              		.global	HAL_TIM_PWM_Start_DMA
 2806              		.syntax unified
 2807              		.code	16
 2808              		.thumb_func
 2809              		.fpu softvfp
 2810              		.type	HAL_TIM_PWM_Start_DMA, %function
 2811              	HAL_TIM_PWM_Start_DMA:
 2812              	.LFB65:
 2813              		.loc 1 1293 0
 2814              		.cfi_startproc
 2815              		@ args = 0, pretend = 0, frame = 16
 2816              		@ frame_needed = 1, uses_anonymous_args = 0
 2817 0000 80B5     		push	{r7, lr}
 2818              		.cfi_def_cfa_offset 8
 2819              		.cfi_offset 7, -8
 2820              		.cfi_offset 14, -4
 2821 0002 84B0     		sub	sp, sp, #16
 2822              		.cfi_def_cfa_offset 24
 2823 0004 00AF     		add	r7, sp, #0
 2824              		.cfi_def_cfa_register 7
 2825 0006 F860     		str	r0, [r7, #12]
 2826 0008 B960     		str	r1, [r7, #8]
 2827 000a 7A60     		str	r2, [r7, #4]
 2828 000c 1A00     		movs	r2, r3
 2829 000e BB1C     		adds	r3, r7, #2
 2830 0010 1A80     		strh	r2, [r3]
 2831              		.loc 1 1297 0
 2832 0012 FB68     		ldr	r3, [r7, #12]
 2833 0014 3D22     		movs	r2, #61
 2834 0016 9B5C     		ldrb	r3, [r3, r2]
 2835 0018 DBB2     		uxtb	r3, r3
 2836 001a 022B     		cmp	r3, #2
 2837 001c 01D1     		bne	.L191
 2838              		.loc 1 1299 0
 2839 001e 0223     		movs	r3, #2
 2840 0020 BFE0     		b	.L192
 2841              	.L191:
 2842              		.loc 1 1301 0
 2843 0022 FB68     		ldr	r3, [r7, #12]
 2844 0024 3D22     		movs	r2, #61
 2845 0026 9B5C     		ldrb	r3, [r3, r2]
 2846 0028 DBB2     		uxtb	r3, r3
 2847 002a 012B     		cmp	r3, #1
 2848 002c 0CD1     		bne	.L193
 2849              		.loc 1 1303 0
 2850 002e 7B68     		ldr	r3, [r7, #4]
ARM GAS  C:\Users\anashi\AppData\Local\Temp\ccN6f8ah.s 			page 51


 2851 0030 002B     		cmp	r3, #0
 2852 0032 05D1     		bne	.L194
 2853              		.loc 1 1303 0 is_stmt 0 discriminator 1
 2854 0034 BB1C     		adds	r3, r7, #2
 2855 0036 1B88     		ldrh	r3, [r3]
 2856 0038 002B     		cmp	r3, #0
 2857 003a 01D0     		beq	.L194
 2858              		.loc 1 1305 0 is_stmt 1
 2859 003c 0123     		movs	r3, #1
 2860 003e B0E0     		b	.L192
 2861              	.L194:
 2862              		.loc 1 1309 0
 2863 0040 FB68     		ldr	r3, [r7, #12]
 2864 0042 3D22     		movs	r2, #61
 2865 0044 0221     		movs	r1, #2
 2866 0046 9954     		strb	r1, [r3, r2]
 2867              	.L193:
 2868              		.loc 1 1312 0
 2869 0048 BB68     		ldr	r3, [r7, #8]
 2870 004a 042B     		cmp	r3, #4
 2871 004c 25D0     		beq	.L196
 2872 004e 02D8     		bhi	.L197
 2873 0050 002B     		cmp	r3, #0
 2874 0052 05D0     		beq	.L198
 2875              		.loc 1 1379 0
 2876 0054 78E0     		b	.L201
 2877              	.L197:
 2878              		.loc 1 1312 0
 2879 0056 082B     		cmp	r3, #8
 2880 0058 3CD0     		beq	.L199
 2881 005a 0C2B     		cmp	r3, #12
 2882 005c 57D0     		beq	.L200
 2883              		.loc 1 1379 0
 2884 005e 73E0     		b	.L201
 2885              	.L198:
 2886              		.loc 1 1317 0
 2887 0060 FB68     		ldr	r3, [r7, #12]
 2888 0062 5B6A     		ldr	r3, [r3, #36]
 2889 0064 514A     		ldr	r2, .L206
 2890 0066 9A62     		str	r2, [r3, #40]
 2891              		.loc 1 1320 0
 2892 0068 FB68     		ldr	r3, [r7, #12]
 2893 006a 5B6A     		ldr	r3, [r3, #36]
 2894 006c 504A     		ldr	r2, .L206+4
 2895 006e 1A63     		str	r2, [r3, #48]
 2896              		.loc 1 1323 0
 2897 0070 FB68     		ldr	r3, [r7, #12]
 2898 0072 586A     		ldr	r0, [r3, #36]
 2899 0074 7968     		ldr	r1, [r7, #4]
 2900 0076 FB68     		ldr	r3, [r7, #12]
 2901 0078 1B68     		ldr	r3, [r3]
 2902 007a 3433     		adds	r3, r3, #52
 2903 007c 1A00     		movs	r2, r3
 2904 007e BB1C     		adds	r3, r7, #2
 2905 0080 1B88     		ldrh	r3, [r3]
 2906 0082 FFF7FEFF 		bl	HAL_DMA_Start_IT
 2907              		.loc 1 1326 0
ARM GAS  C:\Users\anashi\AppData\Local\Temp\ccN6f8ah.s 			page 52


 2908 0086 FB68     		ldr	r3, [r7, #12]
 2909 0088 1B68     		ldr	r3, [r3]
 2910 008a DA68     		ldr	r2, [r3, #12]
 2911 008c FB68     		ldr	r3, [r7, #12]
 2912 008e 1B68     		ldr	r3, [r3]
 2913 0090 8021     		movs	r1, #128
 2914 0092 8900     		lsls	r1, r1, #2
 2915 0094 0A43     		orrs	r2, r1
 2916 0096 DA60     		str	r2, [r3, #12]
 2917              		.loc 1 1328 0
 2918 0098 56E0     		b	.L201
 2919              	.L196:
 2920              		.loc 1 1333 0
 2921 009a FB68     		ldr	r3, [r7, #12]
 2922 009c 9B6A     		ldr	r3, [r3, #40]
 2923 009e 434A     		ldr	r2, .L206
 2924 00a0 9A62     		str	r2, [r3, #40]
 2925              		.loc 1 1336 0
 2926 00a2 FB68     		ldr	r3, [r7, #12]
 2927 00a4 9B6A     		ldr	r3, [r3, #40]
 2928 00a6 424A     		ldr	r2, .L206+4
 2929 00a8 1A63     		str	r2, [r3, #48]
 2930              		.loc 1 1339 0
 2931 00aa FB68     		ldr	r3, [r7, #12]
 2932 00ac 986A     		ldr	r0, [r3, #40]
 2933 00ae 7968     		ldr	r1, [r7, #4]
 2934 00b0 FB68     		ldr	r3, [r7, #12]
 2935 00b2 1B68     		ldr	r3, [r3]
 2936 00b4 3833     		adds	r3, r3, #56
 2937 00b6 1A00     		movs	r2, r3
 2938 00b8 BB1C     		adds	r3, r7, #2
 2939 00ba 1B88     		ldrh	r3, [r3]
 2940 00bc FFF7FEFF 		bl	HAL_DMA_Start_IT
 2941              		.loc 1 1342 0
 2942 00c0 FB68     		ldr	r3, [r7, #12]
 2943 00c2 1B68     		ldr	r3, [r3]
 2944 00c4 DA68     		ldr	r2, [r3, #12]
 2945 00c6 FB68     		ldr	r3, [r7, #12]
 2946 00c8 1B68     		ldr	r3, [r3]
 2947 00ca 8021     		movs	r1, #128
 2948 00cc C900     		lsls	r1, r1, #3
 2949 00ce 0A43     		orrs	r2, r1
 2950 00d0 DA60     		str	r2, [r3, #12]
 2951              		.loc 1 1344 0
 2952 00d2 39E0     		b	.L201
 2953              	.L199:
 2954              		.loc 1 1349 0
 2955 00d4 FB68     		ldr	r3, [r7, #12]
 2956 00d6 DB6A     		ldr	r3, [r3, #44]
 2957 00d8 344A     		ldr	r2, .L206
 2958 00da 9A62     		str	r2, [r3, #40]
 2959              		.loc 1 1352 0
 2960 00dc FB68     		ldr	r3, [r7, #12]
 2961 00de DB6A     		ldr	r3, [r3, #44]
 2962 00e0 334A     		ldr	r2, .L206+4
 2963 00e2 1A63     		str	r2, [r3, #48]
 2964              		.loc 1 1355 0
ARM GAS  C:\Users\anashi\AppData\Local\Temp\ccN6f8ah.s 			page 53


 2965 00e4 FB68     		ldr	r3, [r7, #12]
 2966 00e6 D86A     		ldr	r0, [r3, #44]
 2967 00e8 7968     		ldr	r1, [r7, #4]
 2968 00ea FB68     		ldr	r3, [r7, #12]
 2969 00ec 1B68     		ldr	r3, [r3]
 2970 00ee 3C33     		adds	r3, r3, #60
 2971 00f0 1A00     		movs	r2, r3
 2972 00f2 BB1C     		adds	r3, r7, #2
 2973 00f4 1B88     		ldrh	r3, [r3]
 2974 00f6 FFF7FEFF 		bl	HAL_DMA_Start_IT
 2975              		.loc 1 1358 0
 2976 00fa FB68     		ldr	r3, [r7, #12]
 2977 00fc 1B68     		ldr	r3, [r3]
 2978 00fe DA68     		ldr	r2, [r3, #12]
 2979 0100 FB68     		ldr	r3, [r7, #12]
 2980 0102 1B68     		ldr	r3, [r3]
 2981 0104 8021     		movs	r1, #128
 2982 0106 0901     		lsls	r1, r1, #4
 2983 0108 0A43     		orrs	r2, r1
 2984 010a DA60     		str	r2, [r3, #12]
 2985              		.loc 1 1360 0
 2986 010c 1CE0     		b	.L201
 2987              	.L200:
 2988              		.loc 1 1365 0
 2989 010e FB68     		ldr	r3, [r7, #12]
 2990 0110 1B6B     		ldr	r3, [r3, #48]
 2991 0112 264A     		ldr	r2, .L206
 2992 0114 9A62     		str	r2, [r3, #40]
 2993              		.loc 1 1368 0
 2994 0116 FB68     		ldr	r3, [r7, #12]
 2995 0118 1B6B     		ldr	r3, [r3, #48]
 2996 011a 254A     		ldr	r2, .L206+4
 2997 011c 1A63     		str	r2, [r3, #48]
 2998              		.loc 1 1371 0
 2999 011e FB68     		ldr	r3, [r7, #12]
 3000 0120 186B     		ldr	r0, [r3, #48]
 3001 0122 7968     		ldr	r1, [r7, #4]
 3002 0124 FB68     		ldr	r3, [r7, #12]
 3003 0126 1B68     		ldr	r3, [r3]
 3004 0128 4033     		adds	r3, r3, #64
 3005 012a 1A00     		movs	r2, r3
 3006 012c BB1C     		adds	r3, r7, #2
 3007 012e 1B88     		ldrh	r3, [r3]
 3008 0130 FFF7FEFF 		bl	HAL_DMA_Start_IT
 3009              		.loc 1 1374 0
 3010 0134 FB68     		ldr	r3, [r7, #12]
 3011 0136 1B68     		ldr	r3, [r3]
 3012 0138 DA68     		ldr	r2, [r3, #12]
 3013 013a FB68     		ldr	r3, [r7, #12]
 3014 013c 1B68     		ldr	r3, [r3]
 3015 013e 8021     		movs	r1, #128
 3016 0140 4901     		lsls	r1, r1, #5
 3017 0142 0A43     		orrs	r2, r1
 3018 0144 DA60     		str	r2, [r3, #12]
 3019              		.loc 1 1376 0
 3020 0146 C046     		nop
 3021              	.L201:
ARM GAS  C:\Users\anashi\AppData\Local\Temp\ccN6f8ah.s 			page 54


 3022              		.loc 1 1383 0
 3023 0148 FB68     		ldr	r3, [r7, #12]
 3024 014a 1B68     		ldr	r3, [r3]
 3025 014c B968     		ldr	r1, [r7, #8]
 3026 014e 0122     		movs	r2, #1
 3027 0150 1800     		movs	r0, r3
 3028 0152 FFF7FEFF 		bl	TIM_CCxChannelCmd
 3029              		.loc 1 1385 0
 3030 0156 FB68     		ldr	r3, [r7, #12]
 3031 0158 1B68     		ldr	r3, [r3]
 3032 015a 164A     		ldr	r2, .L206+8
 3033 015c 9342     		cmp	r3, r2
 3034 015e 09D0     		beq	.L202
 3035              		.loc 1 1385 0 is_stmt 0 discriminator 2
 3036 0160 FB68     		ldr	r3, [r7, #12]
 3037 0162 1B68     		ldr	r3, [r3]
 3038 0164 144A     		ldr	r2, .L206+12
 3039 0166 9342     		cmp	r3, r2
 3040 0168 04D0     		beq	.L202
 3041              		.loc 1 1385 0 discriminator 4
 3042 016a FB68     		ldr	r3, [r7, #12]
 3043 016c 1B68     		ldr	r3, [r3]
 3044 016e 134A     		ldr	r2, .L206+16
 3045 0170 9342     		cmp	r3, r2
 3046 0172 01D1     		bne	.L203
 3047              	.L202:
 3048              		.loc 1 1385 0 discriminator 5
 3049 0174 0123     		movs	r3, #1
 3050 0176 00E0     		b	.L204
 3051              	.L203:
 3052              		.loc 1 1385 0 discriminator 6
 3053 0178 0023     		movs	r3, #0
 3054              	.L204:
 3055              		.loc 1 1385 0 discriminator 8
 3056 017a 002B     		cmp	r3, #0
 3057 017c 08D0     		beq	.L205
 3058              		.loc 1 1388 0 is_stmt 1
 3059 017e FB68     		ldr	r3, [r7, #12]
 3060 0180 1B68     		ldr	r3, [r3]
 3061 0182 5A6C     		ldr	r2, [r3, #68]
 3062 0184 FB68     		ldr	r3, [r7, #12]
 3063 0186 1B68     		ldr	r3, [r3]
 3064 0188 8021     		movs	r1, #128
 3065 018a 0902     		lsls	r1, r1, #8
 3066 018c 0A43     		orrs	r2, r1
 3067 018e 5A64     		str	r2, [r3, #68]
 3068              	.L205:
 3069              		.loc 1 1392 0
 3070 0190 FB68     		ldr	r3, [r7, #12]
 3071 0192 1B68     		ldr	r3, [r3]
 3072 0194 1A68     		ldr	r2, [r3]
 3073 0196 FB68     		ldr	r3, [r7, #12]
 3074 0198 1B68     		ldr	r3, [r3]
 3075 019a 0121     		movs	r1, #1
 3076 019c 0A43     		orrs	r2, r1
 3077 019e 1A60     		str	r2, [r3]
 3078              		.loc 1 1395 0
ARM GAS  C:\Users\anashi\AppData\Local\Temp\ccN6f8ah.s 			page 55


 3079 01a0 0023     		movs	r3, #0
 3080              	.L192:
 3081              		.loc 1 1396 0
 3082 01a2 1800     		movs	r0, r3
 3083 01a4 BD46     		mov	sp, r7
 3084 01a6 04B0     		add	sp, sp, #16
 3085              		@ sp needed
 3086 01a8 80BD     		pop	{r7, pc}
 3087              	.L207:
 3088 01aa C046     		.align	2
 3089              	.L206:
 3090 01ac 00000000 		.word	TIM_DMADelayPulseCplt
 3091 01b0 00000000 		.word	TIM_DMAError
 3092 01b4 002C0140 		.word	1073818624
 3093 01b8 00440140 		.word	1073824768
 3094 01bc 00480140 		.word	1073825792
 3095              		.cfi_endproc
 3096              	.LFE65:
 3097              		.size	HAL_TIM_PWM_Start_DMA, .-HAL_TIM_PWM_Start_DMA
 3098              		.section	.text.HAL_TIM_PWM_Stop_DMA,"ax",%progbits
 3099              		.align	1
 3100              		.global	HAL_TIM_PWM_Stop_DMA
 3101              		.syntax unified
 3102              		.code	16
 3103              		.thumb_func
 3104              		.fpu softvfp
 3105              		.type	HAL_TIM_PWM_Stop_DMA, %function
 3106              	HAL_TIM_PWM_Stop_DMA:
 3107              	.LFB66:
 3108              		.loc 1 1410 0
 3109              		.cfi_startproc
 3110              		@ args = 0, pretend = 0, frame = 8
 3111              		@ frame_needed = 1, uses_anonymous_args = 0
 3112 0000 80B5     		push	{r7, lr}
 3113              		.cfi_def_cfa_offset 8
 3114              		.cfi_offset 7, -8
 3115              		.cfi_offset 14, -4
 3116 0002 82B0     		sub	sp, sp, #8
 3117              		.cfi_def_cfa_offset 16
 3118 0004 00AF     		add	r7, sp, #0
 3119              		.cfi_def_cfa_register 7
 3120 0006 7860     		str	r0, [r7, #4]
 3121 0008 3960     		str	r1, [r7]
 3122              		.loc 1 1414 0
 3123 000a 3B68     		ldr	r3, [r7]
 3124 000c 042B     		cmp	r3, #4
 3125 000e 11D0     		beq	.L210
 3126 0010 02D8     		bhi	.L211
 3127 0012 002B     		cmp	r3, #0
 3128 0014 05D0     		beq	.L212
 3129              		.loc 1 1445 0
 3130 0016 28E0     		b	.L215
 3131              	.L211:
 3132              		.loc 1 1414 0
 3133 0018 082B     		cmp	r3, #8
 3134 001a 14D0     		beq	.L213
 3135 001c 0C2B     		cmp	r3, #12
ARM GAS  C:\Users\anashi\AppData\Local\Temp\ccN6f8ah.s 			page 56


 3136 001e 1BD0     		beq	.L214
 3137              		.loc 1 1445 0
 3138 0020 23E0     		b	.L215
 3139              	.L212:
 3140              		.loc 1 1419 0
 3141 0022 7B68     		ldr	r3, [r7, #4]
 3142 0024 1B68     		ldr	r3, [r3]
 3143 0026 DA68     		ldr	r2, [r3, #12]
 3144 0028 7B68     		ldr	r3, [r7, #4]
 3145 002a 1B68     		ldr	r3, [r3]
 3146 002c 3549     		ldr	r1, .L222
 3147 002e 0A40     		ands	r2, r1
 3148 0030 DA60     		str	r2, [r3, #12]
 3149              		.loc 1 1421 0
 3150 0032 1AE0     		b	.L215
 3151              	.L210:
 3152              		.loc 1 1426 0
 3153 0034 7B68     		ldr	r3, [r7, #4]
 3154 0036 1B68     		ldr	r3, [r3]
 3155 0038 DA68     		ldr	r2, [r3, #12]
 3156 003a 7B68     		ldr	r3, [r7, #4]
 3157 003c 1B68     		ldr	r3, [r3]
 3158 003e 3249     		ldr	r1, .L222+4
 3159 0040 0A40     		ands	r2, r1
 3160 0042 DA60     		str	r2, [r3, #12]
 3161              		.loc 1 1428 0
 3162 0044 11E0     		b	.L215
 3163              	.L213:
 3164              		.loc 1 1433 0
 3165 0046 7B68     		ldr	r3, [r7, #4]
 3166 0048 1B68     		ldr	r3, [r3]
 3167 004a DA68     		ldr	r2, [r3, #12]
 3168 004c 7B68     		ldr	r3, [r7, #4]
 3169 004e 1B68     		ldr	r3, [r3]
 3170 0050 2E49     		ldr	r1, .L222+8
 3171 0052 0A40     		ands	r2, r1
 3172 0054 DA60     		str	r2, [r3, #12]
 3173              		.loc 1 1435 0
 3174 0056 08E0     		b	.L215
 3175              	.L214:
 3176              		.loc 1 1440 0
 3177 0058 7B68     		ldr	r3, [r7, #4]
 3178 005a 1B68     		ldr	r3, [r3]
 3179 005c DA68     		ldr	r2, [r3, #12]
 3180 005e 7B68     		ldr	r3, [r7, #4]
 3181 0060 1B68     		ldr	r3, [r3]
 3182 0062 2B49     		ldr	r1, .L222+12
 3183 0064 0A40     		ands	r2, r1
 3184 0066 DA60     		str	r2, [r3, #12]
 3185              		.loc 1 1442 0
 3186 0068 C046     		nop
 3187              	.L215:
 3188              		.loc 1 1449 0
 3189 006a 7B68     		ldr	r3, [r7, #4]
 3190 006c 1B68     		ldr	r3, [r3]
 3191 006e 3968     		ldr	r1, [r7]
 3192 0070 0022     		movs	r2, #0
ARM GAS  C:\Users\anashi\AppData\Local\Temp\ccN6f8ah.s 			page 57


 3193 0072 1800     		movs	r0, r3
 3194 0074 FFF7FEFF 		bl	TIM_CCxChannelCmd
 3195              		.loc 1 1451 0
 3196 0078 7B68     		ldr	r3, [r7, #4]
 3197 007a 1B68     		ldr	r3, [r3]
 3198 007c 254A     		ldr	r2, .L222+16
 3199 007e 9342     		cmp	r3, r2
 3200 0080 09D0     		beq	.L216
 3201              		.loc 1 1451 0 is_stmt 0 discriminator 2
 3202 0082 7B68     		ldr	r3, [r7, #4]
 3203 0084 1B68     		ldr	r3, [r3]
 3204 0086 244A     		ldr	r2, .L222+20
 3205 0088 9342     		cmp	r3, r2
 3206 008a 04D0     		beq	.L216
 3207              		.loc 1 1451 0 discriminator 4
 3208 008c 7B68     		ldr	r3, [r7, #4]
 3209 008e 1B68     		ldr	r3, [r3]
 3210 0090 224A     		ldr	r2, .L222+24
 3211 0092 9342     		cmp	r3, r2
 3212 0094 01D1     		bne	.L217
 3213              	.L216:
 3214              		.loc 1 1451 0 discriminator 5
 3215 0096 0123     		movs	r3, #1
 3216 0098 00E0     		b	.L218
 3217              	.L217:
 3218              		.loc 1 1451 0 discriminator 6
 3219 009a 0023     		movs	r3, #0
 3220              	.L218:
 3221              		.loc 1 1451 0 discriminator 8
 3222 009c 002B     		cmp	r3, #0
 3223 009e 13D0     		beq	.L219
 3224              		.loc 1 1454 0 is_stmt 1
 3225 00a0 7B68     		ldr	r3, [r7, #4]
 3226 00a2 1B68     		ldr	r3, [r3]
 3227 00a4 1B6A     		ldr	r3, [r3, #32]
 3228 00a6 1E4A     		ldr	r2, .L222+28
 3229 00a8 1340     		ands	r3, r2
 3230 00aa 0DD1     		bne	.L219
 3231              		.loc 1 1454 0 is_stmt 0 discriminator 1
 3232 00ac 7B68     		ldr	r3, [r7, #4]
 3233 00ae 1B68     		ldr	r3, [r3]
 3234 00b0 1B6A     		ldr	r3, [r3, #32]
 3235 00b2 1C4A     		ldr	r2, .L222+32
 3236 00b4 1340     		ands	r3, r2
 3237 00b6 07D1     		bne	.L219
 3238              		.loc 1 1454 0 discriminator 2
 3239 00b8 7B68     		ldr	r3, [r7, #4]
 3240 00ba 1B68     		ldr	r3, [r3]
 3241 00bc 5A6C     		ldr	r2, [r3, #68]
 3242 00be 7B68     		ldr	r3, [r7, #4]
 3243 00c0 1B68     		ldr	r3, [r3]
 3244 00c2 1949     		ldr	r1, .L222+36
 3245 00c4 0A40     		ands	r2, r1
 3246 00c6 5A64     		str	r2, [r3, #68]
 3247              	.L219:
 3248              		.loc 1 1458 0 is_stmt 1
 3249 00c8 7B68     		ldr	r3, [r7, #4]
ARM GAS  C:\Users\anashi\AppData\Local\Temp\ccN6f8ah.s 			page 58


 3250 00ca 1B68     		ldr	r3, [r3]
 3251 00cc 1B6A     		ldr	r3, [r3, #32]
 3252 00ce 144A     		ldr	r2, .L222+28
 3253 00d0 1340     		ands	r3, r2
 3254 00d2 0DD1     		bne	.L220
 3255              		.loc 1 1458 0 is_stmt 0 discriminator 1
 3256 00d4 7B68     		ldr	r3, [r7, #4]
 3257 00d6 1B68     		ldr	r3, [r3]
 3258 00d8 1B6A     		ldr	r3, [r3, #32]
 3259 00da 124A     		ldr	r2, .L222+32
 3260 00dc 1340     		ands	r3, r2
 3261 00de 07D1     		bne	.L220
 3262              		.loc 1 1458 0 discriminator 2
 3263 00e0 7B68     		ldr	r3, [r7, #4]
 3264 00e2 1B68     		ldr	r3, [r3]
 3265 00e4 1A68     		ldr	r2, [r3]
 3266 00e6 7B68     		ldr	r3, [r7, #4]
 3267 00e8 1B68     		ldr	r3, [r3]
 3268 00ea 0121     		movs	r1, #1
 3269 00ec 8A43     		bics	r2, r1
 3270 00ee 1A60     		str	r2, [r3]
 3271              	.L220:
 3272              		.loc 1 1461 0 is_stmt 1
 3273 00f0 7B68     		ldr	r3, [r7, #4]
 3274 00f2 3D22     		movs	r2, #61
 3275 00f4 0121     		movs	r1, #1
 3276 00f6 9954     		strb	r1, [r3, r2]
 3277              		.loc 1 1464 0
 3278 00f8 0023     		movs	r3, #0
 3279              		.loc 1 1465 0
 3280 00fa 1800     		movs	r0, r3
 3281 00fc BD46     		mov	sp, r7
 3282 00fe 02B0     		add	sp, sp, #8
 3283              		@ sp needed
 3284 0100 80BD     		pop	{r7, pc}
 3285              	.L223:
 3286 0102 C046     		.align	2
 3287              	.L222:
 3288 0104 FFFDFFFF 		.word	-513
 3289 0108 FFFBFFFF 		.word	-1025
 3290 010c FFF7FFFF 		.word	-2049
 3291 0110 FFEFFFFF 		.word	-4097
 3292 0114 002C0140 		.word	1073818624
 3293 0118 00440140 		.word	1073824768
 3294 011c 00480140 		.word	1073825792
 3295 0120 11110000 		.word	4369
 3296 0124 44040000 		.word	1092
 3297 0128 FF7FFFFF 		.word	-32769
 3298              		.cfi_endproc
 3299              	.LFE66:
 3300              		.size	HAL_TIM_PWM_Stop_DMA, .-HAL_TIM_PWM_Stop_DMA
 3301              		.section	.text.HAL_TIM_IC_Init,"ax",%progbits
 3302              		.align	1
 3303              		.global	HAL_TIM_IC_Init
 3304              		.syntax unified
 3305              		.code	16
 3306              		.thumb_func
ARM GAS  C:\Users\anashi\AppData\Local\Temp\ccN6f8ah.s 			page 59


 3307              		.fpu softvfp
 3308              		.type	HAL_TIM_IC_Init, %function
 3309              	HAL_TIM_IC_Init:
 3310              	.LFB67:
 3311              		.loc 1 1499 0
 3312              		.cfi_startproc
 3313              		@ args = 0, pretend = 0, frame = 8
 3314              		@ frame_needed = 1, uses_anonymous_args = 0
 3315 0000 80B5     		push	{r7, lr}
 3316              		.cfi_def_cfa_offset 8
 3317              		.cfi_offset 7, -8
 3318              		.cfi_offset 14, -4
 3319 0002 82B0     		sub	sp, sp, #8
 3320              		.cfi_def_cfa_offset 16
 3321 0004 00AF     		add	r7, sp, #0
 3322              		.cfi_def_cfa_register 7
 3323 0006 7860     		str	r0, [r7, #4]
 3324              		.loc 1 1501 0
 3325 0008 7B68     		ldr	r3, [r7, #4]
 3326 000a 002B     		cmp	r3, #0
 3327 000c 01D1     		bne	.L225
 3328              		.loc 1 1503 0
 3329 000e 0123     		movs	r3, #1
 3330 0010 1EE0     		b	.L226
 3331              	.L225:
 3332              		.loc 1 1512 0
 3333 0012 7B68     		ldr	r3, [r7, #4]
 3334 0014 3D22     		movs	r2, #61
 3335 0016 9B5C     		ldrb	r3, [r3, r2]
 3336 0018 DBB2     		uxtb	r3, r3
 3337 001a 002B     		cmp	r3, #0
 3338 001c 07D1     		bne	.L227
 3339              		.loc 1 1515 0
 3340 001e 7B68     		ldr	r3, [r7, #4]
 3341 0020 3C22     		movs	r2, #60
 3342 0022 0021     		movs	r1, #0
 3343 0024 9954     		strb	r1, [r3, r2]
 3344              		.loc 1 1518 0
 3345 0026 7B68     		ldr	r3, [r7, #4]
 3346 0028 1800     		movs	r0, r3
 3347 002a FFF7FEFF 		bl	HAL_TIM_IC_MspInit
 3348              	.L227:
 3349              		.loc 1 1522 0
 3350 002e 7B68     		ldr	r3, [r7, #4]
 3351 0030 3D22     		movs	r2, #61
 3352 0032 0221     		movs	r1, #2
 3353 0034 9954     		strb	r1, [r3, r2]
 3354              		.loc 1 1525 0
 3355 0036 7B68     		ldr	r3, [r7, #4]
 3356 0038 1A68     		ldr	r2, [r3]
 3357 003a 7B68     		ldr	r3, [r7, #4]
 3358 003c 0433     		adds	r3, r3, #4
 3359 003e 1900     		movs	r1, r3
 3360 0040 1000     		movs	r0, r2
 3361 0042 FFF7FEFF 		bl	TIM_Base_SetConfig
 3362              		.loc 1 1528 0
 3363 0046 7B68     		ldr	r3, [r7, #4]
ARM GAS  C:\Users\anashi\AppData\Local\Temp\ccN6f8ah.s 			page 60


 3364 0048 3D22     		movs	r2, #61
 3365 004a 0121     		movs	r1, #1
 3366 004c 9954     		strb	r1, [r3, r2]
 3367              		.loc 1 1530 0
 3368 004e 0023     		movs	r3, #0
 3369              	.L226:
 3370              		.loc 1 1531 0
 3371 0050 1800     		movs	r0, r3
 3372 0052 BD46     		mov	sp, r7
 3373 0054 02B0     		add	sp, sp, #8
 3374              		@ sp needed
 3375 0056 80BD     		pop	{r7, pc}
 3376              		.cfi_endproc
 3377              	.LFE67:
 3378              		.size	HAL_TIM_IC_Init, .-HAL_TIM_IC_Init
 3379              		.section	.text.HAL_TIM_IC_DeInit,"ax",%progbits
 3380              		.align	1
 3381              		.global	HAL_TIM_IC_DeInit
 3382              		.syntax unified
 3383              		.code	16
 3384              		.thumb_func
 3385              		.fpu softvfp
 3386              		.type	HAL_TIM_IC_DeInit, %function
 3387              	HAL_TIM_IC_DeInit:
 3388              	.LFB68:
 3389              		.loc 1 1539 0
 3390              		.cfi_startproc
 3391              		@ args = 0, pretend = 0, frame = 8
 3392              		@ frame_needed = 1, uses_anonymous_args = 0
 3393 0000 80B5     		push	{r7, lr}
 3394              		.cfi_def_cfa_offset 8
 3395              		.cfi_offset 7, -8
 3396              		.cfi_offset 14, -4
 3397 0002 82B0     		sub	sp, sp, #8
 3398              		.cfi_def_cfa_offset 16
 3399 0004 00AF     		add	r7, sp, #0
 3400              		.cfi_def_cfa_register 7
 3401 0006 7860     		str	r0, [r7, #4]
 3402              		.loc 1 1543 0
 3403 0008 7B68     		ldr	r3, [r7, #4]
 3404 000a 3D22     		movs	r2, #61
 3405 000c 0221     		movs	r1, #2
 3406 000e 9954     		strb	r1, [r3, r2]
 3407              		.loc 1 1546 0
 3408 0010 7B68     		ldr	r3, [r7, #4]
 3409 0012 1B68     		ldr	r3, [r3]
 3410 0014 1B6A     		ldr	r3, [r3, #32]
 3411 0016 114A     		ldr	r2, .L231
 3412 0018 1340     		ands	r3, r2
 3413 001a 0DD1     		bne	.L229
 3414              		.loc 1 1546 0 is_stmt 0 discriminator 1
 3415 001c 7B68     		ldr	r3, [r7, #4]
 3416 001e 1B68     		ldr	r3, [r3]
 3417 0020 1B6A     		ldr	r3, [r3, #32]
 3418 0022 0F4A     		ldr	r2, .L231+4
 3419 0024 1340     		ands	r3, r2
 3420 0026 07D1     		bne	.L229
ARM GAS  C:\Users\anashi\AppData\Local\Temp\ccN6f8ah.s 			page 61


 3421              		.loc 1 1546 0 discriminator 2
 3422 0028 7B68     		ldr	r3, [r7, #4]
 3423 002a 1B68     		ldr	r3, [r3]
 3424 002c 1A68     		ldr	r2, [r3]
 3425 002e 7B68     		ldr	r3, [r7, #4]
 3426 0030 1B68     		ldr	r3, [r3]
 3427 0032 0121     		movs	r1, #1
 3428 0034 8A43     		bics	r2, r1
 3429 0036 1A60     		str	r2, [r3]
 3430              	.L229:
 3431              		.loc 1 1549 0 is_stmt 1
 3432 0038 7B68     		ldr	r3, [r7, #4]
 3433 003a 1800     		movs	r0, r3
 3434 003c FFF7FEFF 		bl	HAL_TIM_IC_MspDeInit
 3435              		.loc 1 1552 0
 3436 0040 7B68     		ldr	r3, [r7, #4]
 3437 0042 3D22     		movs	r2, #61
 3438 0044 0021     		movs	r1, #0
 3439 0046 9954     		strb	r1, [r3, r2]
 3440              		.loc 1 1555 0
 3441 0048 7B68     		ldr	r3, [r7, #4]
 3442 004a 3C22     		movs	r2, #60
 3443 004c 0021     		movs	r1, #0
 3444 004e 9954     		strb	r1, [r3, r2]
 3445              		.loc 1 1557 0
 3446 0050 0023     		movs	r3, #0
 3447              		.loc 1 1558 0
 3448 0052 1800     		movs	r0, r3
 3449 0054 BD46     		mov	sp, r7
 3450 0056 02B0     		add	sp, sp, #8
 3451              		@ sp needed
 3452 0058 80BD     		pop	{r7, pc}
 3453              	.L232:
 3454 005a C046     		.align	2
 3455              	.L231:
 3456 005c 11110000 		.word	4369
 3457 0060 44040000 		.word	1092
 3458              		.cfi_endproc
 3459              	.LFE68:
 3460              		.size	HAL_TIM_IC_DeInit, .-HAL_TIM_IC_DeInit
 3461              		.section	.text.HAL_TIM_IC_MspInit,"ax",%progbits
 3462              		.align	1
 3463              		.weak	HAL_TIM_IC_MspInit
 3464              		.syntax unified
 3465              		.code	16
 3466              		.thumb_func
 3467              		.fpu softvfp
 3468              		.type	HAL_TIM_IC_MspInit, %function
 3469              	HAL_TIM_IC_MspInit:
 3470              	.LFB69:
 3471              		.loc 1 1566 0
 3472              		.cfi_startproc
 3473              		@ args = 0, pretend = 0, frame = 8
 3474              		@ frame_needed = 1, uses_anonymous_args = 0
 3475 0000 80B5     		push	{r7, lr}
 3476              		.cfi_def_cfa_offset 8
 3477              		.cfi_offset 7, -8
ARM GAS  C:\Users\anashi\AppData\Local\Temp\ccN6f8ah.s 			page 62


 3478              		.cfi_offset 14, -4
 3479 0002 82B0     		sub	sp, sp, #8
 3480              		.cfi_def_cfa_offset 16
 3481 0004 00AF     		add	r7, sp, #0
 3482              		.cfi_def_cfa_register 7
 3483 0006 7860     		str	r0, [r7, #4]
 3484              		.loc 1 1573 0
 3485 0008 C046     		nop
 3486 000a BD46     		mov	sp, r7
 3487 000c 02B0     		add	sp, sp, #8
 3488              		@ sp needed
 3489 000e 80BD     		pop	{r7, pc}
 3490              		.cfi_endproc
 3491              	.LFE69:
 3492              		.size	HAL_TIM_IC_MspInit, .-HAL_TIM_IC_MspInit
 3493              		.section	.text.HAL_TIM_IC_MspDeInit,"ax",%progbits
 3494              		.align	1
 3495              		.weak	HAL_TIM_IC_MspDeInit
 3496              		.syntax unified
 3497              		.code	16
 3498              		.thumb_func
 3499              		.fpu softvfp
 3500              		.type	HAL_TIM_IC_MspDeInit, %function
 3501              	HAL_TIM_IC_MspDeInit:
 3502              	.LFB70:
 3503              		.loc 1 1581 0
 3504              		.cfi_startproc
 3505              		@ args = 0, pretend = 0, frame = 8
 3506              		@ frame_needed = 1, uses_anonymous_args = 0
 3507 0000 80B5     		push	{r7, lr}
 3508              		.cfi_def_cfa_offset 8
 3509              		.cfi_offset 7, -8
 3510              		.cfi_offset 14, -4
 3511 0002 82B0     		sub	sp, sp, #8
 3512              		.cfi_def_cfa_offset 16
 3513 0004 00AF     		add	r7, sp, #0
 3514              		.cfi_def_cfa_register 7
 3515 0006 7860     		str	r0, [r7, #4]
 3516              		.loc 1 1588 0
 3517 0008 C046     		nop
 3518 000a BD46     		mov	sp, r7
 3519 000c 02B0     		add	sp, sp, #8
 3520              		@ sp needed
 3521 000e 80BD     		pop	{r7, pc}
 3522              		.cfi_endproc
 3523              	.LFE70:
 3524              		.size	HAL_TIM_IC_MspDeInit, .-HAL_TIM_IC_MspDeInit
 3525              		.section	.text.HAL_TIM_IC_Start,"ax",%progbits
 3526              		.align	1
 3527              		.global	HAL_TIM_IC_Start
 3528              		.syntax unified
 3529              		.code	16
 3530              		.thumb_func
 3531              		.fpu softvfp
 3532              		.type	HAL_TIM_IC_Start, %function
 3533              	HAL_TIM_IC_Start:
 3534              	.LFB71:
ARM GAS  C:\Users\anashi\AppData\Local\Temp\ccN6f8ah.s 			page 63


 3535              		.loc 1 1602 0
 3536              		.cfi_startproc
 3537              		@ args = 0, pretend = 0, frame = 8
 3538              		@ frame_needed = 1, uses_anonymous_args = 0
 3539 0000 80B5     		push	{r7, lr}
 3540              		.cfi_def_cfa_offset 8
 3541              		.cfi_offset 7, -8
 3542              		.cfi_offset 14, -4
 3543 0002 82B0     		sub	sp, sp, #8
 3544              		.cfi_def_cfa_offset 16
 3545 0004 00AF     		add	r7, sp, #0
 3546              		.cfi_def_cfa_register 7
 3547 0006 7860     		str	r0, [r7, #4]
 3548 0008 3960     		str	r1, [r7]
 3549              		.loc 1 1607 0
 3550 000a 7B68     		ldr	r3, [r7, #4]
 3551 000c 1B68     		ldr	r3, [r3]
 3552 000e 3968     		ldr	r1, [r7]
 3553 0010 0122     		movs	r2, #1
 3554 0012 1800     		movs	r0, r3
 3555 0014 FFF7FEFF 		bl	TIM_CCxChannelCmd
 3556              		.loc 1 1610 0
 3557 0018 7B68     		ldr	r3, [r7, #4]
 3558 001a 1B68     		ldr	r3, [r3]
 3559 001c 1A68     		ldr	r2, [r3]
 3560 001e 7B68     		ldr	r3, [r7, #4]
 3561 0020 1B68     		ldr	r3, [r3]
 3562 0022 0121     		movs	r1, #1
 3563 0024 0A43     		orrs	r2, r1
 3564 0026 1A60     		str	r2, [r3]
 3565              		.loc 1 1613 0
 3566 0028 0023     		movs	r3, #0
 3567              		.loc 1 1614 0
 3568 002a 1800     		movs	r0, r3
 3569 002c BD46     		mov	sp, r7
 3570 002e 02B0     		add	sp, sp, #8
 3571              		@ sp needed
 3572 0030 80BD     		pop	{r7, pc}
 3573              		.cfi_endproc
 3574              	.LFE71:
 3575              		.size	HAL_TIM_IC_Start, .-HAL_TIM_IC_Start
 3576              		.section	.text.HAL_TIM_IC_Stop,"ax",%progbits
 3577              		.align	1
 3578              		.global	HAL_TIM_IC_Stop
 3579              		.syntax unified
 3580              		.code	16
 3581              		.thumb_func
 3582              		.fpu softvfp
 3583              		.type	HAL_TIM_IC_Stop, %function
 3584              	HAL_TIM_IC_Stop:
 3585              	.LFB72:
 3586              		.loc 1 1628 0
 3587              		.cfi_startproc
 3588              		@ args = 0, pretend = 0, frame = 8
 3589              		@ frame_needed = 1, uses_anonymous_args = 0
 3590 0000 80B5     		push	{r7, lr}
 3591              		.cfi_def_cfa_offset 8
ARM GAS  C:\Users\anashi\AppData\Local\Temp\ccN6f8ah.s 			page 64


 3592              		.cfi_offset 7, -8
 3593              		.cfi_offset 14, -4
 3594 0002 82B0     		sub	sp, sp, #8
 3595              		.cfi_def_cfa_offset 16
 3596 0004 00AF     		add	r7, sp, #0
 3597              		.cfi_def_cfa_register 7
 3598 0006 7860     		str	r0, [r7, #4]
 3599 0008 3960     		str	r1, [r7]
 3600              		.loc 1 1633 0
 3601 000a 7B68     		ldr	r3, [r7, #4]
 3602 000c 1B68     		ldr	r3, [r3]
 3603 000e 3968     		ldr	r1, [r7]
 3604 0010 0022     		movs	r2, #0
 3605 0012 1800     		movs	r0, r3
 3606 0014 FFF7FEFF 		bl	TIM_CCxChannelCmd
 3607              		.loc 1 1636 0
 3608 0018 7B68     		ldr	r3, [r7, #4]
 3609 001a 1B68     		ldr	r3, [r3]
 3610 001c 1B6A     		ldr	r3, [r3, #32]
 3611 001e 0B4A     		ldr	r2, .L240
 3612 0020 1340     		ands	r3, r2
 3613 0022 0DD1     		bne	.L238
 3614              		.loc 1 1636 0 is_stmt 0 discriminator 1
 3615 0024 7B68     		ldr	r3, [r7, #4]
 3616 0026 1B68     		ldr	r3, [r3]
 3617 0028 1B6A     		ldr	r3, [r3, #32]
 3618 002a 094A     		ldr	r2, .L240+4
 3619 002c 1340     		ands	r3, r2
 3620 002e 07D1     		bne	.L238
 3621              		.loc 1 1636 0 discriminator 2
 3622 0030 7B68     		ldr	r3, [r7, #4]
 3623 0032 1B68     		ldr	r3, [r3]
 3624 0034 1A68     		ldr	r2, [r3]
 3625 0036 7B68     		ldr	r3, [r7, #4]
 3626 0038 1B68     		ldr	r3, [r3]
 3627 003a 0121     		movs	r1, #1
 3628 003c 8A43     		bics	r2, r1
 3629 003e 1A60     		str	r2, [r3]
 3630              	.L238:
 3631              		.loc 1 1639 0 is_stmt 1
 3632 0040 0023     		movs	r3, #0
 3633              		.loc 1 1640 0
 3634 0042 1800     		movs	r0, r3
 3635 0044 BD46     		mov	sp, r7
 3636 0046 02B0     		add	sp, sp, #8
 3637              		@ sp needed
 3638 0048 80BD     		pop	{r7, pc}
 3639              	.L241:
 3640 004a C046     		.align	2
 3641              	.L240:
 3642 004c 11110000 		.word	4369
 3643 0050 44040000 		.word	1092
 3644              		.cfi_endproc
 3645              	.LFE72:
 3646              		.size	HAL_TIM_IC_Stop, .-HAL_TIM_IC_Stop
 3647              		.section	.text.HAL_TIM_IC_Start_IT,"ax",%progbits
 3648              		.align	1
ARM GAS  C:\Users\anashi\AppData\Local\Temp\ccN6f8ah.s 			page 65


 3649              		.global	HAL_TIM_IC_Start_IT
 3650              		.syntax unified
 3651              		.code	16
 3652              		.thumb_func
 3653              		.fpu softvfp
 3654              		.type	HAL_TIM_IC_Start_IT, %function
 3655              	HAL_TIM_IC_Start_IT:
 3656              	.LFB73:
 3657              		.loc 1 1654 0
 3658              		.cfi_startproc
 3659              		@ args = 0, pretend = 0, frame = 8
 3660              		@ frame_needed = 1, uses_anonymous_args = 0
 3661 0000 80B5     		push	{r7, lr}
 3662              		.cfi_def_cfa_offset 8
 3663              		.cfi_offset 7, -8
 3664              		.cfi_offset 14, -4
 3665 0002 82B0     		sub	sp, sp, #8
 3666              		.cfi_def_cfa_offset 16
 3667 0004 00AF     		add	r7, sp, #0
 3668              		.cfi_def_cfa_register 7
 3669 0006 7860     		str	r0, [r7, #4]
 3670 0008 3960     		str	r1, [r7]
 3671              		.loc 1 1658 0
 3672 000a 3B68     		ldr	r3, [r7]
 3673 000c 042B     		cmp	r3, #4
 3674 000e 11D0     		beq	.L244
 3675 0010 02D8     		bhi	.L245
 3676 0012 002B     		cmp	r3, #0
 3677 0014 05D0     		beq	.L246
 3678              		.loc 1 1689 0
 3679 0016 28E0     		b	.L249
 3680              	.L245:
 3681              		.loc 1 1658 0
 3682 0018 082B     		cmp	r3, #8
 3683 001a 14D0     		beq	.L247
 3684 001c 0C2B     		cmp	r3, #12
 3685 001e 1BD0     		beq	.L248
 3686              		.loc 1 1689 0
 3687 0020 23E0     		b	.L249
 3688              	.L246:
 3689              		.loc 1 1663 0
 3690 0022 7B68     		ldr	r3, [r7, #4]
 3691 0024 1B68     		ldr	r3, [r3]
 3692 0026 DA68     		ldr	r2, [r3, #12]
 3693 0028 7B68     		ldr	r3, [r7, #4]
 3694 002a 1B68     		ldr	r3, [r3]
 3695 002c 0221     		movs	r1, #2
 3696 002e 0A43     		orrs	r2, r1
 3697 0030 DA60     		str	r2, [r3, #12]
 3698              		.loc 1 1665 0
 3699 0032 1AE0     		b	.L249
 3700              	.L244:
 3701              		.loc 1 1670 0
 3702 0034 7B68     		ldr	r3, [r7, #4]
 3703 0036 1B68     		ldr	r3, [r3]
 3704 0038 DA68     		ldr	r2, [r3, #12]
 3705 003a 7B68     		ldr	r3, [r7, #4]
ARM GAS  C:\Users\anashi\AppData\Local\Temp\ccN6f8ah.s 			page 66


 3706 003c 1B68     		ldr	r3, [r3]
 3707 003e 0421     		movs	r1, #4
 3708 0040 0A43     		orrs	r2, r1
 3709 0042 DA60     		str	r2, [r3, #12]
 3710              		.loc 1 1672 0
 3711 0044 11E0     		b	.L249
 3712              	.L247:
 3713              		.loc 1 1677 0
 3714 0046 7B68     		ldr	r3, [r7, #4]
 3715 0048 1B68     		ldr	r3, [r3]
 3716 004a DA68     		ldr	r2, [r3, #12]
 3717 004c 7B68     		ldr	r3, [r7, #4]
 3718 004e 1B68     		ldr	r3, [r3]
 3719 0050 0821     		movs	r1, #8
 3720 0052 0A43     		orrs	r2, r1
 3721 0054 DA60     		str	r2, [r3, #12]
 3722              		.loc 1 1679 0
 3723 0056 08E0     		b	.L249
 3724              	.L248:
 3725              		.loc 1 1684 0
 3726 0058 7B68     		ldr	r3, [r7, #4]
 3727 005a 1B68     		ldr	r3, [r3]
 3728 005c DA68     		ldr	r2, [r3, #12]
 3729 005e 7B68     		ldr	r3, [r7, #4]
 3730 0060 1B68     		ldr	r3, [r3]
 3731 0062 1021     		movs	r1, #16
 3732 0064 0A43     		orrs	r2, r1
 3733 0066 DA60     		str	r2, [r3, #12]
 3734              		.loc 1 1686 0
 3735 0068 C046     		nop
 3736              	.L249:
 3737              		.loc 1 1692 0
 3738 006a 7B68     		ldr	r3, [r7, #4]
 3739 006c 1B68     		ldr	r3, [r3]
 3740 006e 3968     		ldr	r1, [r7]
 3741 0070 0122     		movs	r2, #1
 3742 0072 1800     		movs	r0, r3
 3743 0074 FFF7FEFF 		bl	TIM_CCxChannelCmd
 3744              		.loc 1 1695 0
 3745 0078 7B68     		ldr	r3, [r7, #4]
 3746 007a 1B68     		ldr	r3, [r3]
 3747 007c 1A68     		ldr	r2, [r3]
 3748 007e 7B68     		ldr	r3, [r7, #4]
 3749 0080 1B68     		ldr	r3, [r3]
 3750 0082 0121     		movs	r1, #1
 3751 0084 0A43     		orrs	r2, r1
 3752 0086 1A60     		str	r2, [r3]
 3753              		.loc 1 1698 0
 3754 0088 0023     		movs	r3, #0
 3755              		.loc 1 1699 0
 3756 008a 1800     		movs	r0, r3
 3757 008c BD46     		mov	sp, r7
 3758 008e 02B0     		add	sp, sp, #8
 3759              		@ sp needed
 3760 0090 80BD     		pop	{r7, pc}
 3761              		.cfi_endproc
 3762              	.LFE73:
ARM GAS  C:\Users\anashi\AppData\Local\Temp\ccN6f8ah.s 			page 67


 3763              		.size	HAL_TIM_IC_Start_IT, .-HAL_TIM_IC_Start_IT
 3764              		.section	.text.HAL_TIM_IC_Stop_IT,"ax",%progbits
 3765              		.align	1
 3766              		.global	HAL_TIM_IC_Stop_IT
 3767              		.syntax unified
 3768              		.code	16
 3769              		.thumb_func
 3770              		.fpu softvfp
 3771              		.type	HAL_TIM_IC_Stop_IT, %function
 3772              	HAL_TIM_IC_Stop_IT:
 3773              	.LFB74:
 3774              		.loc 1 1713 0
 3775              		.cfi_startproc
 3776              		@ args = 0, pretend = 0, frame = 8
 3777              		@ frame_needed = 1, uses_anonymous_args = 0
 3778 0000 80B5     		push	{r7, lr}
 3779              		.cfi_def_cfa_offset 8
 3780              		.cfi_offset 7, -8
 3781              		.cfi_offset 14, -4
 3782 0002 82B0     		sub	sp, sp, #8
 3783              		.cfi_def_cfa_offset 16
 3784 0004 00AF     		add	r7, sp, #0
 3785              		.cfi_def_cfa_register 7
 3786 0006 7860     		str	r0, [r7, #4]
 3787 0008 3960     		str	r1, [r7]
 3788              		.loc 1 1717 0
 3789 000a 3B68     		ldr	r3, [r7]
 3790 000c 042B     		cmp	r3, #4
 3791 000e 11D0     		beq	.L253
 3792 0010 02D8     		bhi	.L254
 3793 0012 002B     		cmp	r3, #0
 3794 0014 05D0     		beq	.L255
 3795              		.loc 1 1748 0
 3796 0016 28E0     		b	.L258
 3797              	.L254:
 3798              		.loc 1 1717 0
 3799 0018 082B     		cmp	r3, #8
 3800 001a 14D0     		beq	.L256
 3801 001c 0C2B     		cmp	r3, #12
 3802 001e 1BD0     		beq	.L257
 3803              		.loc 1 1748 0
 3804 0020 23E0     		b	.L258
 3805              	.L255:
 3806              		.loc 1 1722 0
 3807 0022 7B68     		ldr	r3, [r7, #4]
 3808 0024 1B68     		ldr	r3, [r3]
 3809 0026 DA68     		ldr	r2, [r3, #12]
 3810 0028 7B68     		ldr	r3, [r7, #4]
 3811 002a 1B68     		ldr	r3, [r3]
 3812 002c 0221     		movs	r1, #2
 3813 002e 8A43     		bics	r2, r1
 3814 0030 DA60     		str	r2, [r3, #12]
 3815              		.loc 1 1724 0
 3816 0032 1AE0     		b	.L258
 3817              	.L253:
 3818              		.loc 1 1729 0
 3819 0034 7B68     		ldr	r3, [r7, #4]
ARM GAS  C:\Users\anashi\AppData\Local\Temp\ccN6f8ah.s 			page 68


 3820 0036 1B68     		ldr	r3, [r3]
 3821 0038 DA68     		ldr	r2, [r3, #12]
 3822 003a 7B68     		ldr	r3, [r7, #4]
 3823 003c 1B68     		ldr	r3, [r3]
 3824 003e 0421     		movs	r1, #4
 3825 0040 8A43     		bics	r2, r1
 3826 0042 DA60     		str	r2, [r3, #12]
 3827              		.loc 1 1731 0
 3828 0044 11E0     		b	.L258
 3829              	.L256:
 3830              		.loc 1 1736 0
 3831 0046 7B68     		ldr	r3, [r7, #4]
 3832 0048 1B68     		ldr	r3, [r3]
 3833 004a DA68     		ldr	r2, [r3, #12]
 3834 004c 7B68     		ldr	r3, [r7, #4]
 3835 004e 1B68     		ldr	r3, [r3]
 3836 0050 0821     		movs	r1, #8
 3837 0052 8A43     		bics	r2, r1
 3838 0054 DA60     		str	r2, [r3, #12]
 3839              		.loc 1 1738 0
 3840 0056 08E0     		b	.L258
 3841              	.L257:
 3842              		.loc 1 1743 0
 3843 0058 7B68     		ldr	r3, [r7, #4]
 3844 005a 1B68     		ldr	r3, [r3]
 3845 005c DA68     		ldr	r2, [r3, #12]
 3846 005e 7B68     		ldr	r3, [r7, #4]
 3847 0060 1B68     		ldr	r3, [r3]
 3848 0062 1021     		movs	r1, #16
 3849 0064 8A43     		bics	r2, r1
 3850 0066 DA60     		str	r2, [r3, #12]
 3851              		.loc 1 1745 0
 3852 0068 C046     		nop
 3853              	.L258:
 3854              		.loc 1 1752 0
 3855 006a 7B68     		ldr	r3, [r7, #4]
 3856 006c 1B68     		ldr	r3, [r3]
 3857 006e 3968     		ldr	r1, [r7]
 3858 0070 0022     		movs	r2, #0
 3859 0072 1800     		movs	r0, r3
 3860 0074 FFF7FEFF 		bl	TIM_CCxChannelCmd
 3861              		.loc 1 1755 0
 3862 0078 7B68     		ldr	r3, [r7, #4]
 3863 007a 1B68     		ldr	r3, [r3]
 3864 007c 1B6A     		ldr	r3, [r3, #32]
 3865 007e 0B4A     		ldr	r2, .L261
 3866 0080 1340     		ands	r3, r2
 3867 0082 0DD1     		bne	.L259
 3868              		.loc 1 1755 0 is_stmt 0 discriminator 1
 3869 0084 7B68     		ldr	r3, [r7, #4]
 3870 0086 1B68     		ldr	r3, [r3]
 3871 0088 1B6A     		ldr	r3, [r3, #32]
 3872 008a 094A     		ldr	r2, .L261+4
 3873 008c 1340     		ands	r3, r2
 3874 008e 07D1     		bne	.L259
 3875              		.loc 1 1755 0 discriminator 2
 3876 0090 7B68     		ldr	r3, [r7, #4]
ARM GAS  C:\Users\anashi\AppData\Local\Temp\ccN6f8ah.s 			page 69


 3877 0092 1B68     		ldr	r3, [r3]
 3878 0094 1A68     		ldr	r2, [r3]
 3879 0096 7B68     		ldr	r3, [r7, #4]
 3880 0098 1B68     		ldr	r3, [r3]
 3881 009a 0121     		movs	r1, #1
 3882 009c 8A43     		bics	r2, r1
 3883 009e 1A60     		str	r2, [r3]
 3884              	.L259:
 3885              		.loc 1 1758 0 is_stmt 1
 3886 00a0 0023     		movs	r3, #0
 3887              		.loc 1 1759 0
 3888 00a2 1800     		movs	r0, r3
 3889 00a4 BD46     		mov	sp, r7
 3890 00a6 02B0     		add	sp, sp, #8
 3891              		@ sp needed
 3892 00a8 80BD     		pop	{r7, pc}
 3893              	.L262:
 3894 00aa C046     		.align	2
 3895              	.L261:
 3896 00ac 11110000 		.word	4369
 3897 00b0 44040000 		.word	1092
 3898              		.cfi_endproc
 3899              	.LFE74:
 3900              		.size	HAL_TIM_IC_Stop_IT, .-HAL_TIM_IC_Stop_IT
 3901              		.section	.text.HAL_TIM_IC_Start_DMA,"ax",%progbits
 3902              		.align	1
 3903              		.global	HAL_TIM_IC_Start_DMA
 3904              		.syntax unified
 3905              		.code	16
 3906              		.thumb_func
 3907              		.fpu softvfp
 3908              		.type	HAL_TIM_IC_Start_DMA, %function
 3909              	HAL_TIM_IC_Start_DMA:
 3910              	.LFB75:
 3911              		.loc 1 1775 0
 3912              		.cfi_startproc
 3913              		@ args = 0, pretend = 0, frame = 16
 3914              		@ frame_needed = 1, uses_anonymous_args = 0
 3915 0000 80B5     		push	{r7, lr}
 3916              		.cfi_def_cfa_offset 8
 3917              		.cfi_offset 7, -8
 3918              		.cfi_offset 14, -4
 3919 0002 84B0     		sub	sp, sp, #16
 3920              		.cfi_def_cfa_offset 24
 3921 0004 00AF     		add	r7, sp, #0
 3922              		.cfi_def_cfa_register 7
 3923 0006 F860     		str	r0, [r7, #12]
 3924 0008 B960     		str	r1, [r7, #8]
 3925 000a 7A60     		str	r2, [r7, #4]
 3926 000c 1A00     		movs	r2, r3
 3927 000e BB1C     		adds	r3, r7, #2
 3928 0010 1A80     		strh	r2, [r3]
 3929              		.loc 1 1780 0
 3930 0012 FB68     		ldr	r3, [r7, #12]
 3931 0014 3D22     		movs	r2, #61
 3932 0016 9B5C     		ldrb	r3, [r3, r2]
 3933 0018 DBB2     		uxtb	r3, r3
ARM GAS  C:\Users\anashi\AppData\Local\Temp\ccN6f8ah.s 			page 70


 3934 001a 022B     		cmp	r3, #2
 3935 001c 01D1     		bne	.L264
 3936              		.loc 1 1782 0
 3937 001e 0223     		movs	r3, #2
 3938 0020 A2E0     		b	.L265
 3939              	.L264:
 3940              		.loc 1 1784 0
 3941 0022 FB68     		ldr	r3, [r7, #12]
 3942 0024 3D22     		movs	r2, #61
 3943 0026 9B5C     		ldrb	r3, [r3, r2]
 3944 0028 DBB2     		uxtb	r3, r3
 3945 002a 012B     		cmp	r3, #1
 3946 002c 0CD1     		bne	.L266
 3947              		.loc 1 1786 0
 3948 002e 7B68     		ldr	r3, [r7, #4]
 3949 0030 002B     		cmp	r3, #0
 3950 0032 05D1     		bne	.L267
 3951              		.loc 1 1786 0 is_stmt 0 discriminator 1
 3952 0034 BB1C     		adds	r3, r7, #2
 3953 0036 1B88     		ldrh	r3, [r3]
 3954 0038 002B     		cmp	r3, #0
 3955 003a 01D0     		beq	.L267
 3956              		.loc 1 1788 0 is_stmt 1
 3957 003c 0123     		movs	r3, #1
 3958 003e 93E0     		b	.L265
 3959              	.L267:
 3960              		.loc 1 1792 0
 3961 0040 FB68     		ldr	r3, [r7, #12]
 3962 0042 3D22     		movs	r2, #61
 3963 0044 0221     		movs	r1, #2
 3964 0046 9954     		strb	r1, [r3, r2]
 3965              	.L266:
 3966              		.loc 1 1796 0
 3967 0048 BB68     		ldr	r3, [r7, #8]
 3968 004a 042B     		cmp	r3, #4
 3969 004c 25D0     		beq	.L269
 3970 004e 02D8     		bhi	.L270
 3971 0050 002B     		cmp	r3, #0
 3972 0052 05D0     		beq	.L271
 3973              		.loc 1 1863 0
 3974 0054 78E0     		b	.L274
 3975              	.L270:
 3976              		.loc 1 1796 0
 3977 0056 082B     		cmp	r3, #8
 3978 0058 3CD0     		beq	.L272
 3979 005a 0C2B     		cmp	r3, #12
 3980 005c 57D0     		beq	.L273
 3981              		.loc 1 1863 0
 3982 005e 73E0     		b	.L274
 3983              	.L271:
 3984              		.loc 1 1801 0
 3985 0060 FB68     		ldr	r3, [r7, #12]
 3986 0062 5B6A     		ldr	r3, [r3, #36]
 3987 0064 424A     		ldr	r2, .L275
 3988 0066 9A62     		str	r2, [r3, #40]
 3989              		.loc 1 1804 0
 3990 0068 FB68     		ldr	r3, [r7, #12]
ARM GAS  C:\Users\anashi\AppData\Local\Temp\ccN6f8ah.s 			page 71


 3991 006a 5B6A     		ldr	r3, [r3, #36]
 3992 006c 414A     		ldr	r2, .L275+4
 3993 006e 1A63     		str	r2, [r3, #48]
 3994              		.loc 1 1807 0
 3995 0070 FB68     		ldr	r3, [r7, #12]
 3996 0072 586A     		ldr	r0, [r3, #36]
 3997 0074 FB68     		ldr	r3, [r7, #12]
 3998 0076 1B68     		ldr	r3, [r3]
 3999 0078 3433     		adds	r3, r3, #52
 4000 007a 1900     		movs	r1, r3
 4001 007c 7A68     		ldr	r2, [r7, #4]
 4002 007e BB1C     		adds	r3, r7, #2
 4003 0080 1B88     		ldrh	r3, [r3]
 4004 0082 FFF7FEFF 		bl	HAL_DMA_Start_IT
 4005              		.loc 1 1810 0
 4006 0086 FB68     		ldr	r3, [r7, #12]
 4007 0088 1B68     		ldr	r3, [r3]
 4008 008a DA68     		ldr	r2, [r3, #12]
 4009 008c FB68     		ldr	r3, [r7, #12]
 4010 008e 1B68     		ldr	r3, [r3]
 4011 0090 8021     		movs	r1, #128
 4012 0092 8900     		lsls	r1, r1, #2
 4013 0094 0A43     		orrs	r2, r1
 4014 0096 DA60     		str	r2, [r3, #12]
 4015              		.loc 1 1812 0
 4016 0098 56E0     		b	.L274
 4017              	.L269:
 4018              		.loc 1 1817 0
 4019 009a FB68     		ldr	r3, [r7, #12]
 4020 009c 9B6A     		ldr	r3, [r3, #40]
 4021 009e 344A     		ldr	r2, .L275
 4022 00a0 9A62     		str	r2, [r3, #40]
 4023              		.loc 1 1820 0
 4024 00a2 FB68     		ldr	r3, [r7, #12]
 4025 00a4 9B6A     		ldr	r3, [r3, #40]
 4026 00a6 334A     		ldr	r2, .L275+4
 4027 00a8 1A63     		str	r2, [r3, #48]
 4028              		.loc 1 1823 0
 4029 00aa FB68     		ldr	r3, [r7, #12]
 4030 00ac 986A     		ldr	r0, [r3, #40]
 4031 00ae FB68     		ldr	r3, [r7, #12]
 4032 00b0 1B68     		ldr	r3, [r3]
 4033 00b2 3833     		adds	r3, r3, #56
 4034 00b4 1900     		movs	r1, r3
 4035 00b6 7A68     		ldr	r2, [r7, #4]
 4036 00b8 BB1C     		adds	r3, r7, #2
 4037 00ba 1B88     		ldrh	r3, [r3]
 4038 00bc FFF7FEFF 		bl	HAL_DMA_Start_IT
 4039              		.loc 1 1826 0
 4040 00c0 FB68     		ldr	r3, [r7, #12]
 4041 00c2 1B68     		ldr	r3, [r3]
 4042 00c4 DA68     		ldr	r2, [r3, #12]
 4043 00c6 FB68     		ldr	r3, [r7, #12]
 4044 00c8 1B68     		ldr	r3, [r3]
 4045 00ca 8021     		movs	r1, #128
 4046 00cc C900     		lsls	r1, r1, #3
 4047 00ce 0A43     		orrs	r2, r1
ARM GAS  C:\Users\anashi\AppData\Local\Temp\ccN6f8ah.s 			page 72


 4048 00d0 DA60     		str	r2, [r3, #12]
 4049              		.loc 1 1828 0
 4050 00d2 39E0     		b	.L274
 4051              	.L272:
 4052              		.loc 1 1833 0
 4053 00d4 FB68     		ldr	r3, [r7, #12]
 4054 00d6 DB6A     		ldr	r3, [r3, #44]
 4055 00d8 254A     		ldr	r2, .L275
 4056 00da 9A62     		str	r2, [r3, #40]
 4057              		.loc 1 1836 0
 4058 00dc FB68     		ldr	r3, [r7, #12]
 4059 00de DB6A     		ldr	r3, [r3, #44]
 4060 00e0 244A     		ldr	r2, .L275+4
 4061 00e2 1A63     		str	r2, [r3, #48]
 4062              		.loc 1 1839 0
 4063 00e4 FB68     		ldr	r3, [r7, #12]
 4064 00e6 D86A     		ldr	r0, [r3, #44]
 4065 00e8 FB68     		ldr	r3, [r7, #12]
 4066 00ea 1B68     		ldr	r3, [r3]
 4067 00ec 3C33     		adds	r3, r3, #60
 4068 00ee 1900     		movs	r1, r3
 4069 00f0 7A68     		ldr	r2, [r7, #4]
 4070 00f2 BB1C     		adds	r3, r7, #2
 4071 00f4 1B88     		ldrh	r3, [r3]
 4072 00f6 FFF7FEFF 		bl	HAL_DMA_Start_IT
 4073              		.loc 1 1842 0
 4074 00fa FB68     		ldr	r3, [r7, #12]
 4075 00fc 1B68     		ldr	r3, [r3]
 4076 00fe DA68     		ldr	r2, [r3, #12]
 4077 0100 FB68     		ldr	r3, [r7, #12]
 4078 0102 1B68     		ldr	r3, [r3]
 4079 0104 8021     		movs	r1, #128
 4080 0106 0901     		lsls	r1, r1, #4
 4081 0108 0A43     		orrs	r2, r1
 4082 010a DA60     		str	r2, [r3, #12]
 4083              		.loc 1 1844 0
 4084 010c 1CE0     		b	.L274
 4085              	.L273:
 4086              		.loc 1 1849 0
 4087 010e FB68     		ldr	r3, [r7, #12]
 4088 0110 1B6B     		ldr	r3, [r3, #48]
 4089 0112 174A     		ldr	r2, .L275
 4090 0114 9A62     		str	r2, [r3, #40]
 4091              		.loc 1 1852 0
 4092 0116 FB68     		ldr	r3, [r7, #12]
 4093 0118 1B6B     		ldr	r3, [r3, #48]
 4094 011a 164A     		ldr	r2, .L275+4
 4095 011c 1A63     		str	r2, [r3, #48]
 4096              		.loc 1 1855 0
 4097 011e FB68     		ldr	r3, [r7, #12]
 4098 0120 186B     		ldr	r0, [r3, #48]
 4099 0122 FB68     		ldr	r3, [r7, #12]
 4100 0124 1B68     		ldr	r3, [r3]
 4101 0126 4033     		adds	r3, r3, #64
 4102 0128 1900     		movs	r1, r3
 4103 012a 7A68     		ldr	r2, [r7, #4]
 4104 012c BB1C     		adds	r3, r7, #2
ARM GAS  C:\Users\anashi\AppData\Local\Temp\ccN6f8ah.s 			page 73


 4105 012e 1B88     		ldrh	r3, [r3]
 4106 0130 FFF7FEFF 		bl	HAL_DMA_Start_IT
 4107              		.loc 1 1858 0
 4108 0134 FB68     		ldr	r3, [r7, #12]
 4109 0136 1B68     		ldr	r3, [r3]
 4110 0138 DA68     		ldr	r2, [r3, #12]
 4111 013a FB68     		ldr	r3, [r7, #12]
 4112 013c 1B68     		ldr	r3, [r3]
 4113 013e 8021     		movs	r1, #128
 4114 0140 4901     		lsls	r1, r1, #5
 4115 0142 0A43     		orrs	r2, r1
 4116 0144 DA60     		str	r2, [r3, #12]
 4117              		.loc 1 1860 0
 4118 0146 C046     		nop
 4119              	.L274:
 4120              		.loc 1 1867 0
 4121 0148 FB68     		ldr	r3, [r7, #12]
 4122 014a 1B68     		ldr	r3, [r3]
 4123 014c B968     		ldr	r1, [r7, #8]
 4124 014e 0122     		movs	r2, #1
 4125 0150 1800     		movs	r0, r3
 4126 0152 FFF7FEFF 		bl	TIM_CCxChannelCmd
 4127              		.loc 1 1870 0
 4128 0156 FB68     		ldr	r3, [r7, #12]
 4129 0158 1B68     		ldr	r3, [r3]
 4130 015a 1A68     		ldr	r2, [r3]
 4131 015c FB68     		ldr	r3, [r7, #12]
 4132 015e 1B68     		ldr	r3, [r3]
 4133 0160 0121     		movs	r1, #1
 4134 0162 0A43     		orrs	r2, r1
 4135 0164 1A60     		str	r2, [r3]
 4136              		.loc 1 1873 0
 4137 0166 0023     		movs	r3, #0
 4138              	.L265:
 4139              		.loc 1 1874 0
 4140 0168 1800     		movs	r0, r3
 4141 016a BD46     		mov	sp, r7
 4142 016c 04B0     		add	sp, sp, #16
 4143              		@ sp needed
 4144 016e 80BD     		pop	{r7, pc}
 4145              	.L276:
 4146              		.align	2
 4147              	.L275:
 4148 0170 00000000 		.word	TIM_DMACaptureCplt
 4149 0174 00000000 		.word	TIM_DMAError
 4150              		.cfi_endproc
 4151              	.LFE75:
 4152              		.size	HAL_TIM_IC_Start_DMA, .-HAL_TIM_IC_Start_DMA
 4153              		.section	.text.HAL_TIM_IC_Stop_DMA,"ax",%progbits
 4154              		.align	1
 4155              		.global	HAL_TIM_IC_Stop_DMA
 4156              		.syntax unified
 4157              		.code	16
 4158              		.thumb_func
 4159              		.fpu softvfp
 4160              		.type	HAL_TIM_IC_Stop_DMA, %function
 4161              	HAL_TIM_IC_Stop_DMA:
ARM GAS  C:\Users\anashi\AppData\Local\Temp\ccN6f8ah.s 			page 74


 4162              	.LFB76:
 4163              		.loc 1 1888 0
 4164              		.cfi_startproc
 4165              		@ args = 0, pretend = 0, frame = 8
 4166              		@ frame_needed = 1, uses_anonymous_args = 0
 4167 0000 80B5     		push	{r7, lr}
 4168              		.cfi_def_cfa_offset 8
 4169              		.cfi_offset 7, -8
 4170              		.cfi_offset 14, -4
 4171 0002 82B0     		sub	sp, sp, #8
 4172              		.cfi_def_cfa_offset 16
 4173 0004 00AF     		add	r7, sp, #0
 4174              		.cfi_def_cfa_register 7
 4175 0006 7860     		str	r0, [r7, #4]
 4176 0008 3960     		str	r1, [r7]
 4177              		.loc 1 1893 0
 4178 000a 3B68     		ldr	r3, [r7]
 4179 000c 042B     		cmp	r3, #4
 4180 000e 11D0     		beq	.L279
 4181 0010 02D8     		bhi	.L280
 4182 0012 002B     		cmp	r3, #0
 4183 0014 05D0     		beq	.L281
 4184              		.loc 1 1924 0
 4185 0016 28E0     		b	.L284
 4186              	.L280:
 4187              		.loc 1 1893 0
 4188 0018 082B     		cmp	r3, #8
 4189 001a 14D0     		beq	.L282
 4190 001c 0C2B     		cmp	r3, #12
 4191 001e 1BD0     		beq	.L283
 4192              		.loc 1 1924 0
 4193 0020 23E0     		b	.L284
 4194              	.L281:
 4195              		.loc 1 1898 0
 4196 0022 7B68     		ldr	r3, [r7, #4]
 4197 0024 1B68     		ldr	r3, [r3]
 4198 0026 DA68     		ldr	r2, [r3, #12]
 4199 0028 7B68     		ldr	r3, [r7, #4]
 4200 002a 1B68     		ldr	r3, [r3]
 4201 002c 2149     		ldr	r1, .L287
 4202 002e 0A40     		ands	r2, r1
 4203 0030 DA60     		str	r2, [r3, #12]
 4204              		.loc 1 1900 0
 4205 0032 1AE0     		b	.L284
 4206              	.L279:
 4207              		.loc 1 1905 0
 4208 0034 7B68     		ldr	r3, [r7, #4]
 4209 0036 1B68     		ldr	r3, [r3]
 4210 0038 DA68     		ldr	r2, [r3, #12]
 4211 003a 7B68     		ldr	r3, [r7, #4]
 4212 003c 1B68     		ldr	r3, [r3]
 4213 003e 1E49     		ldr	r1, .L287+4
 4214 0040 0A40     		ands	r2, r1
 4215 0042 DA60     		str	r2, [r3, #12]
 4216              		.loc 1 1907 0
 4217 0044 11E0     		b	.L284
 4218              	.L282:
ARM GAS  C:\Users\anashi\AppData\Local\Temp\ccN6f8ah.s 			page 75


 4219              		.loc 1 1912 0
 4220 0046 7B68     		ldr	r3, [r7, #4]
 4221 0048 1B68     		ldr	r3, [r3]
 4222 004a DA68     		ldr	r2, [r3, #12]
 4223 004c 7B68     		ldr	r3, [r7, #4]
 4224 004e 1B68     		ldr	r3, [r3]
 4225 0050 1A49     		ldr	r1, .L287+8
 4226 0052 0A40     		ands	r2, r1
 4227 0054 DA60     		str	r2, [r3, #12]
 4228              		.loc 1 1914 0
 4229 0056 08E0     		b	.L284
 4230              	.L283:
 4231              		.loc 1 1919 0
 4232 0058 7B68     		ldr	r3, [r7, #4]
 4233 005a 1B68     		ldr	r3, [r3]
 4234 005c DA68     		ldr	r2, [r3, #12]
 4235 005e 7B68     		ldr	r3, [r7, #4]
 4236 0060 1B68     		ldr	r3, [r3]
 4237 0062 1749     		ldr	r1, .L287+12
 4238 0064 0A40     		ands	r2, r1
 4239 0066 DA60     		str	r2, [r3, #12]
 4240              		.loc 1 1921 0
 4241 0068 C046     		nop
 4242              	.L284:
 4243              		.loc 1 1928 0
 4244 006a 7B68     		ldr	r3, [r7, #4]
 4245 006c 1B68     		ldr	r3, [r3]
 4246 006e 3968     		ldr	r1, [r7]
 4247 0070 0022     		movs	r2, #0
 4248 0072 1800     		movs	r0, r3
 4249 0074 FFF7FEFF 		bl	TIM_CCxChannelCmd
 4250              		.loc 1 1931 0
 4251 0078 7B68     		ldr	r3, [r7, #4]
 4252 007a 1B68     		ldr	r3, [r3]
 4253 007c 1B6A     		ldr	r3, [r3, #32]
 4254 007e 114A     		ldr	r2, .L287+16
 4255 0080 1340     		ands	r3, r2
 4256 0082 0DD1     		bne	.L285
 4257              		.loc 1 1931 0 is_stmt 0 discriminator 1
 4258 0084 7B68     		ldr	r3, [r7, #4]
 4259 0086 1B68     		ldr	r3, [r3]
 4260 0088 1B6A     		ldr	r3, [r3, #32]
 4261 008a 0F4A     		ldr	r2, .L287+20
 4262 008c 1340     		ands	r3, r2
 4263 008e 07D1     		bne	.L285
 4264              		.loc 1 1931 0 discriminator 2
 4265 0090 7B68     		ldr	r3, [r7, #4]
 4266 0092 1B68     		ldr	r3, [r3]
 4267 0094 1A68     		ldr	r2, [r3]
 4268 0096 7B68     		ldr	r3, [r7, #4]
 4269 0098 1B68     		ldr	r3, [r3]
 4270 009a 0121     		movs	r1, #1
 4271 009c 8A43     		bics	r2, r1
 4272 009e 1A60     		str	r2, [r3]
 4273              	.L285:
 4274              		.loc 1 1934 0 is_stmt 1
 4275 00a0 7B68     		ldr	r3, [r7, #4]
ARM GAS  C:\Users\anashi\AppData\Local\Temp\ccN6f8ah.s 			page 76


 4276 00a2 3D22     		movs	r2, #61
 4277 00a4 0121     		movs	r1, #1
 4278 00a6 9954     		strb	r1, [r3, r2]
 4279              		.loc 1 1937 0
 4280 00a8 0023     		movs	r3, #0
 4281              		.loc 1 1938 0
 4282 00aa 1800     		movs	r0, r3
 4283 00ac BD46     		mov	sp, r7
 4284 00ae 02B0     		add	sp, sp, #8
 4285              		@ sp needed
 4286 00b0 80BD     		pop	{r7, pc}
 4287              	.L288:
 4288 00b2 C046     		.align	2
 4289              	.L287:
 4290 00b4 FFFDFFFF 		.word	-513
 4291 00b8 FFFBFFFF 		.word	-1025
 4292 00bc FFF7FFFF 		.word	-2049
 4293 00c0 FFEFFFFF 		.word	-4097
 4294 00c4 11110000 		.word	4369
 4295 00c8 44040000 		.word	1092
 4296              		.cfi_endproc
 4297              	.LFE76:
 4298              		.size	HAL_TIM_IC_Stop_DMA, .-HAL_TIM_IC_Stop_DMA
 4299              		.section	.text.HAL_TIM_OnePulse_Init,"ax",%progbits
 4300              		.align	1
 4301              		.global	HAL_TIM_OnePulse_Init
 4302              		.syntax unified
 4303              		.code	16
 4304              		.thumb_func
 4305              		.fpu softvfp
 4306              		.type	HAL_TIM_OnePulse_Init, %function
 4307              	HAL_TIM_OnePulse_Init:
 4308              	.LFB77:
 4309              		.loc 1 1975 0
 4310              		.cfi_startproc
 4311              		@ args = 0, pretend = 0, frame = 8
 4312              		@ frame_needed = 1, uses_anonymous_args = 0
 4313 0000 80B5     		push	{r7, lr}
 4314              		.cfi_def_cfa_offset 8
 4315              		.cfi_offset 7, -8
 4316              		.cfi_offset 14, -4
 4317 0002 82B0     		sub	sp, sp, #8
 4318              		.cfi_def_cfa_offset 16
 4319 0004 00AF     		add	r7, sp, #0
 4320              		.cfi_def_cfa_register 7
 4321 0006 7860     		str	r0, [r7, #4]
 4322 0008 3960     		str	r1, [r7]
 4323              		.loc 1 1977 0
 4324 000a 7B68     		ldr	r3, [r7, #4]
 4325 000c 002B     		cmp	r3, #0
 4326 000e 01D1     		bne	.L290
 4327              		.loc 1 1979 0
 4328 0010 0123     		movs	r3, #1
 4329 0012 2EE0     		b	.L291
 4330              	.L290:
 4331              		.loc 1 1989 0
 4332 0014 7B68     		ldr	r3, [r7, #4]
ARM GAS  C:\Users\anashi\AppData\Local\Temp\ccN6f8ah.s 			page 77


 4333 0016 3D22     		movs	r2, #61
 4334 0018 9B5C     		ldrb	r3, [r3, r2]
 4335 001a DBB2     		uxtb	r3, r3
 4336 001c 002B     		cmp	r3, #0
 4337 001e 07D1     		bne	.L292
 4338              		.loc 1 1992 0
 4339 0020 7B68     		ldr	r3, [r7, #4]
 4340 0022 3C22     		movs	r2, #60
 4341 0024 0021     		movs	r1, #0
 4342 0026 9954     		strb	r1, [r3, r2]
 4343              		.loc 1 1995 0
 4344 0028 7B68     		ldr	r3, [r7, #4]
 4345 002a 1800     		movs	r0, r3
 4346 002c FFF7FEFF 		bl	HAL_TIM_OnePulse_MspInit
 4347              	.L292:
 4348              		.loc 1 1999 0
 4349 0030 7B68     		ldr	r3, [r7, #4]
 4350 0032 3D22     		movs	r2, #61
 4351 0034 0221     		movs	r1, #2
 4352 0036 9954     		strb	r1, [r3, r2]
 4353              		.loc 1 2002 0
 4354 0038 7B68     		ldr	r3, [r7, #4]
 4355 003a 1A68     		ldr	r2, [r3]
 4356 003c 7B68     		ldr	r3, [r7, #4]
 4357 003e 0433     		adds	r3, r3, #4
 4358 0040 1900     		movs	r1, r3
 4359 0042 1000     		movs	r0, r2
 4360 0044 FFF7FEFF 		bl	TIM_Base_SetConfig
 4361              		.loc 1 2005 0
 4362 0048 7B68     		ldr	r3, [r7, #4]
 4363 004a 1B68     		ldr	r3, [r3]
 4364 004c 1A68     		ldr	r2, [r3]
 4365 004e 7B68     		ldr	r3, [r7, #4]
 4366 0050 1B68     		ldr	r3, [r3]
 4367 0052 0821     		movs	r1, #8
 4368 0054 8A43     		bics	r2, r1
 4369 0056 1A60     		str	r2, [r3]
 4370              		.loc 1 2008 0
 4371 0058 7B68     		ldr	r3, [r7, #4]
 4372 005a 1B68     		ldr	r3, [r3]
 4373 005c 1968     		ldr	r1, [r3]
 4374 005e 7B68     		ldr	r3, [r7, #4]
 4375 0060 1B68     		ldr	r3, [r3]
 4376 0062 3A68     		ldr	r2, [r7]
 4377 0064 0A43     		orrs	r2, r1
 4378 0066 1A60     		str	r2, [r3]
 4379              		.loc 1 2011 0
 4380 0068 7B68     		ldr	r3, [r7, #4]
 4381 006a 3D22     		movs	r2, #61
 4382 006c 0121     		movs	r1, #1
 4383 006e 9954     		strb	r1, [r3, r2]
 4384              		.loc 1 2013 0
 4385 0070 0023     		movs	r3, #0
 4386              	.L291:
 4387              		.loc 1 2014 0
 4388 0072 1800     		movs	r0, r3
 4389 0074 BD46     		mov	sp, r7
ARM GAS  C:\Users\anashi\AppData\Local\Temp\ccN6f8ah.s 			page 78


 4390 0076 02B0     		add	sp, sp, #8
 4391              		@ sp needed
 4392 0078 80BD     		pop	{r7, pc}
 4393              		.cfi_endproc
 4394              	.LFE77:
 4395              		.size	HAL_TIM_OnePulse_Init, .-HAL_TIM_OnePulse_Init
 4396              		.section	.text.HAL_TIM_OnePulse_DeInit,"ax",%progbits
 4397              		.align	1
 4398              		.global	HAL_TIM_OnePulse_DeInit
 4399              		.syntax unified
 4400              		.code	16
 4401              		.thumb_func
 4402              		.fpu softvfp
 4403              		.type	HAL_TIM_OnePulse_DeInit, %function
 4404              	HAL_TIM_OnePulse_DeInit:
 4405              	.LFB78:
 4406              		.loc 1 2022 0
 4407              		.cfi_startproc
 4408              		@ args = 0, pretend = 0, frame = 8
 4409              		@ frame_needed = 1, uses_anonymous_args = 0
 4410 0000 80B5     		push	{r7, lr}
 4411              		.cfi_def_cfa_offset 8
 4412              		.cfi_offset 7, -8
 4413              		.cfi_offset 14, -4
 4414 0002 82B0     		sub	sp, sp, #8
 4415              		.cfi_def_cfa_offset 16
 4416 0004 00AF     		add	r7, sp, #0
 4417              		.cfi_def_cfa_register 7
 4418 0006 7860     		str	r0, [r7, #4]
 4419              		.loc 1 2026 0
 4420 0008 7B68     		ldr	r3, [r7, #4]
 4421 000a 3D22     		movs	r2, #61
 4422 000c 0221     		movs	r1, #2
 4423 000e 9954     		strb	r1, [r3, r2]
 4424              		.loc 1 2029 0
 4425 0010 7B68     		ldr	r3, [r7, #4]
 4426 0012 1B68     		ldr	r3, [r3]
 4427 0014 1B6A     		ldr	r3, [r3, #32]
 4428 0016 114A     		ldr	r2, .L296
 4429 0018 1340     		ands	r3, r2
 4430 001a 0DD1     		bne	.L294
 4431              		.loc 1 2029 0 is_stmt 0 discriminator 1
 4432 001c 7B68     		ldr	r3, [r7, #4]
 4433 001e 1B68     		ldr	r3, [r3]
 4434 0020 1B6A     		ldr	r3, [r3, #32]
 4435 0022 0F4A     		ldr	r2, .L296+4
 4436 0024 1340     		ands	r3, r2
 4437 0026 07D1     		bne	.L294
 4438              		.loc 1 2029 0 discriminator 2
 4439 0028 7B68     		ldr	r3, [r7, #4]
 4440 002a 1B68     		ldr	r3, [r3]
 4441 002c 1A68     		ldr	r2, [r3]
 4442 002e 7B68     		ldr	r3, [r7, #4]
 4443 0030 1B68     		ldr	r3, [r3]
 4444 0032 0121     		movs	r1, #1
 4445 0034 8A43     		bics	r2, r1
 4446 0036 1A60     		str	r2, [r3]
ARM GAS  C:\Users\anashi\AppData\Local\Temp\ccN6f8ah.s 			page 79


 4447              	.L294:
 4448              		.loc 1 2032 0 is_stmt 1
 4449 0038 7B68     		ldr	r3, [r7, #4]
 4450 003a 1800     		movs	r0, r3
 4451 003c FFF7FEFF 		bl	HAL_TIM_OnePulse_MspDeInit
 4452              		.loc 1 2035 0
 4453 0040 7B68     		ldr	r3, [r7, #4]
 4454 0042 3D22     		movs	r2, #61
 4455 0044 0021     		movs	r1, #0
 4456 0046 9954     		strb	r1, [r3, r2]
 4457              		.loc 1 2038 0
 4458 0048 7B68     		ldr	r3, [r7, #4]
 4459 004a 3C22     		movs	r2, #60
 4460 004c 0021     		movs	r1, #0
 4461 004e 9954     		strb	r1, [r3, r2]
 4462              		.loc 1 2040 0
 4463 0050 0023     		movs	r3, #0
 4464              		.loc 1 2041 0
 4465 0052 1800     		movs	r0, r3
 4466 0054 BD46     		mov	sp, r7
 4467 0056 02B0     		add	sp, sp, #8
 4468              		@ sp needed
 4469 0058 80BD     		pop	{r7, pc}
 4470              	.L297:
 4471 005a C046     		.align	2
 4472              	.L296:
 4473 005c 11110000 		.word	4369
 4474 0060 44040000 		.word	1092
 4475              		.cfi_endproc
 4476              	.LFE78:
 4477              		.size	HAL_TIM_OnePulse_DeInit, .-HAL_TIM_OnePulse_DeInit
 4478              		.section	.text.HAL_TIM_OnePulse_MspInit,"ax",%progbits
 4479              		.align	1
 4480              		.weak	HAL_TIM_OnePulse_MspInit
 4481              		.syntax unified
 4482              		.code	16
 4483              		.thumb_func
 4484              		.fpu softvfp
 4485              		.type	HAL_TIM_OnePulse_MspInit, %function
 4486              	HAL_TIM_OnePulse_MspInit:
 4487              	.LFB79:
 4488              		.loc 1 2049 0
 4489              		.cfi_startproc
 4490              		@ args = 0, pretend = 0, frame = 8
 4491              		@ frame_needed = 1, uses_anonymous_args = 0
 4492 0000 80B5     		push	{r7, lr}
 4493              		.cfi_def_cfa_offset 8
 4494              		.cfi_offset 7, -8
 4495              		.cfi_offset 14, -4
 4496 0002 82B0     		sub	sp, sp, #8
 4497              		.cfi_def_cfa_offset 16
 4498 0004 00AF     		add	r7, sp, #0
 4499              		.cfi_def_cfa_register 7
 4500 0006 7860     		str	r0, [r7, #4]
 4501              		.loc 1 2056 0
 4502 0008 C046     		nop
 4503 000a BD46     		mov	sp, r7
ARM GAS  C:\Users\anashi\AppData\Local\Temp\ccN6f8ah.s 			page 80


 4504 000c 02B0     		add	sp, sp, #8
 4505              		@ sp needed
 4506 000e 80BD     		pop	{r7, pc}
 4507              		.cfi_endproc
 4508              	.LFE79:
 4509              		.size	HAL_TIM_OnePulse_MspInit, .-HAL_TIM_OnePulse_MspInit
 4510              		.section	.text.HAL_TIM_OnePulse_MspDeInit,"ax",%progbits
 4511              		.align	1
 4512              		.weak	HAL_TIM_OnePulse_MspDeInit
 4513              		.syntax unified
 4514              		.code	16
 4515              		.thumb_func
 4516              		.fpu softvfp
 4517              		.type	HAL_TIM_OnePulse_MspDeInit, %function
 4518              	HAL_TIM_OnePulse_MspDeInit:
 4519              	.LFB80:
 4520              		.loc 1 2064 0
 4521              		.cfi_startproc
 4522              		@ args = 0, pretend = 0, frame = 8
 4523              		@ frame_needed = 1, uses_anonymous_args = 0
 4524 0000 80B5     		push	{r7, lr}
 4525              		.cfi_def_cfa_offset 8
 4526              		.cfi_offset 7, -8
 4527              		.cfi_offset 14, -4
 4528 0002 82B0     		sub	sp, sp, #8
 4529              		.cfi_def_cfa_offset 16
 4530 0004 00AF     		add	r7, sp, #0
 4531              		.cfi_def_cfa_register 7
 4532 0006 7860     		str	r0, [r7, #4]
 4533              		.loc 1 2071 0
 4534 0008 C046     		nop
 4535 000a BD46     		mov	sp, r7
 4536 000c 02B0     		add	sp, sp, #8
 4537              		@ sp needed
 4538 000e 80BD     		pop	{r7, pc}
 4539              		.cfi_endproc
 4540              	.LFE80:
 4541              		.size	HAL_TIM_OnePulse_MspDeInit, .-HAL_TIM_OnePulse_MspDeInit
 4542              		.section	.text.HAL_TIM_OnePulse_Start,"ax",%progbits
 4543              		.align	1
 4544              		.global	HAL_TIM_OnePulse_Start
 4545              		.syntax unified
 4546              		.code	16
 4547              		.thumb_func
 4548              		.fpu softvfp
 4549              		.type	HAL_TIM_OnePulse_Start, %function
 4550              	HAL_TIM_OnePulse_Start:
 4551              	.LFB81:
 4552              		.loc 1 2083 0
 4553              		.cfi_startproc
 4554              		@ args = 0, pretend = 0, frame = 8
 4555              		@ frame_needed = 1, uses_anonymous_args = 0
 4556 0000 80B5     		push	{r7, lr}
 4557              		.cfi_def_cfa_offset 8
 4558              		.cfi_offset 7, -8
 4559              		.cfi_offset 14, -4
 4560 0002 82B0     		sub	sp, sp, #8
ARM GAS  C:\Users\anashi\AppData\Local\Temp\ccN6f8ah.s 			page 81


 4561              		.cfi_def_cfa_offset 16
 4562 0004 00AF     		add	r7, sp, #0
 4563              		.cfi_def_cfa_register 7
 4564 0006 7860     		str	r0, [r7, #4]
 4565 0008 3960     		str	r1, [r7]
 4566              		.loc 1 2093 0
 4567 000a 7B68     		ldr	r3, [r7, #4]
 4568 000c 1B68     		ldr	r3, [r3]
 4569 000e 0122     		movs	r2, #1
 4570 0010 0021     		movs	r1, #0
 4571 0012 1800     		movs	r0, r3
 4572 0014 FFF7FEFF 		bl	TIM_CCxChannelCmd
 4573              		.loc 1 2094 0
 4574 0018 7B68     		ldr	r3, [r7, #4]
 4575 001a 1B68     		ldr	r3, [r3]
 4576 001c 0122     		movs	r2, #1
 4577 001e 0421     		movs	r1, #4
 4578 0020 1800     		movs	r0, r3
 4579 0022 FFF7FEFF 		bl	TIM_CCxChannelCmd
 4580              		.loc 1 2096 0
 4581 0026 7B68     		ldr	r3, [r7, #4]
 4582 0028 1B68     		ldr	r3, [r3]
 4583 002a 104A     		ldr	r2, .L306
 4584 002c 9342     		cmp	r3, r2
 4585 002e 09D0     		beq	.L301
 4586              		.loc 1 2096 0 is_stmt 0 discriminator 2
 4587 0030 7B68     		ldr	r3, [r7, #4]
 4588 0032 1B68     		ldr	r3, [r3]
 4589 0034 0E4A     		ldr	r2, .L306+4
 4590 0036 9342     		cmp	r3, r2
 4591 0038 04D0     		beq	.L301
 4592              		.loc 1 2096 0 discriminator 4
 4593 003a 7B68     		ldr	r3, [r7, #4]
 4594 003c 1B68     		ldr	r3, [r3]
 4595 003e 0D4A     		ldr	r2, .L306+8
 4596 0040 9342     		cmp	r3, r2
 4597 0042 01D1     		bne	.L302
 4598              	.L301:
 4599              		.loc 1 2096 0 discriminator 5
 4600 0044 0123     		movs	r3, #1
 4601 0046 00E0     		b	.L303
 4602              	.L302:
 4603              		.loc 1 2096 0 discriminator 6
 4604 0048 0023     		movs	r3, #0
 4605              	.L303:
 4606              		.loc 1 2096 0 discriminator 8
 4607 004a 002B     		cmp	r3, #0
 4608 004c 08D0     		beq	.L304
 4609              		.loc 1 2099 0 is_stmt 1
 4610 004e 7B68     		ldr	r3, [r7, #4]
 4611 0050 1B68     		ldr	r3, [r3]
 4612 0052 5A6C     		ldr	r2, [r3, #68]
 4613 0054 7B68     		ldr	r3, [r7, #4]
 4614 0056 1B68     		ldr	r3, [r3]
 4615 0058 8021     		movs	r1, #128
 4616 005a 0902     		lsls	r1, r1, #8
 4617 005c 0A43     		orrs	r2, r1
ARM GAS  C:\Users\anashi\AppData\Local\Temp\ccN6f8ah.s 			page 82


 4618 005e 5A64     		str	r2, [r3, #68]
 4619              	.L304:
 4620              		.loc 1 2103 0
 4621 0060 0023     		movs	r3, #0
 4622              		.loc 1 2104 0
 4623 0062 1800     		movs	r0, r3
 4624 0064 BD46     		mov	sp, r7
 4625 0066 02B0     		add	sp, sp, #8
 4626              		@ sp needed
 4627 0068 80BD     		pop	{r7, pc}
 4628              	.L307:
 4629 006a C046     		.align	2
 4630              	.L306:
 4631 006c 002C0140 		.word	1073818624
 4632 0070 00440140 		.word	1073824768
 4633 0074 00480140 		.word	1073825792
 4634              		.cfi_endproc
 4635              	.LFE81:
 4636              		.size	HAL_TIM_OnePulse_Start, .-HAL_TIM_OnePulse_Start
 4637              		.section	.text.HAL_TIM_OnePulse_Stop,"ax",%progbits
 4638              		.align	1
 4639              		.global	HAL_TIM_OnePulse_Stop
 4640              		.syntax unified
 4641              		.code	16
 4642              		.thumb_func
 4643              		.fpu softvfp
 4644              		.type	HAL_TIM_OnePulse_Stop, %function
 4645              	HAL_TIM_OnePulse_Stop:
 4646              	.LFB82:
 4647              		.loc 1 2116 0
 4648              		.cfi_startproc
 4649              		@ args = 0, pretend = 0, frame = 8
 4650              		@ frame_needed = 1, uses_anonymous_args = 0
 4651 0000 80B5     		push	{r7, lr}
 4652              		.cfi_def_cfa_offset 8
 4653              		.cfi_offset 7, -8
 4654              		.cfi_offset 14, -4
 4655 0002 82B0     		sub	sp, sp, #8
 4656              		.cfi_def_cfa_offset 16
 4657 0004 00AF     		add	r7, sp, #0
 4658              		.cfi_def_cfa_register 7
 4659 0006 7860     		str	r0, [r7, #4]
 4660 0008 3960     		str	r1, [r7]
 4661              		.loc 1 2123 0
 4662 000a 7B68     		ldr	r3, [r7, #4]
 4663 000c 1B68     		ldr	r3, [r3]
 4664 000e 0022     		movs	r2, #0
 4665 0010 0021     		movs	r1, #0
 4666 0012 1800     		movs	r0, r3
 4667 0014 FFF7FEFF 		bl	TIM_CCxChannelCmd
 4668              		.loc 1 2124 0
 4669 0018 7B68     		ldr	r3, [r7, #4]
 4670 001a 1B68     		ldr	r3, [r3]
 4671 001c 0022     		movs	r2, #0
 4672 001e 0421     		movs	r1, #4
 4673 0020 1800     		movs	r0, r3
 4674 0022 FFF7FEFF 		bl	TIM_CCxChannelCmd
ARM GAS  C:\Users\anashi\AppData\Local\Temp\ccN6f8ah.s 			page 83


 4675              		.loc 1 2126 0
 4676 0026 7B68     		ldr	r3, [r7, #4]
 4677 0028 1B68     		ldr	r3, [r3]
 4678 002a 1F4A     		ldr	r2, .L315
 4679 002c 9342     		cmp	r3, r2
 4680 002e 09D0     		beq	.L309
 4681              		.loc 1 2126 0 is_stmt 0 discriminator 2
 4682 0030 7B68     		ldr	r3, [r7, #4]
 4683 0032 1B68     		ldr	r3, [r3]
 4684 0034 1D4A     		ldr	r2, .L315+4
 4685 0036 9342     		cmp	r3, r2
 4686 0038 04D0     		beq	.L309
 4687              		.loc 1 2126 0 discriminator 4
 4688 003a 7B68     		ldr	r3, [r7, #4]
 4689 003c 1B68     		ldr	r3, [r3]
 4690 003e 1C4A     		ldr	r2, .L315+8
 4691 0040 9342     		cmp	r3, r2
 4692 0042 01D1     		bne	.L310
 4693              	.L309:
 4694              		.loc 1 2126 0 discriminator 5
 4695 0044 0123     		movs	r3, #1
 4696 0046 00E0     		b	.L311
 4697              	.L310:
 4698              		.loc 1 2126 0 discriminator 6
 4699 0048 0023     		movs	r3, #0
 4700              	.L311:
 4701              		.loc 1 2126 0 discriminator 8
 4702 004a 002B     		cmp	r3, #0
 4703 004c 13D0     		beq	.L312
 4704              		.loc 1 2129 0 is_stmt 1
 4705 004e 7B68     		ldr	r3, [r7, #4]
 4706 0050 1B68     		ldr	r3, [r3]
 4707 0052 1B6A     		ldr	r3, [r3, #32]
 4708 0054 174A     		ldr	r2, .L315+12
 4709 0056 1340     		ands	r3, r2
 4710 0058 0DD1     		bne	.L312
 4711              		.loc 1 2129 0 is_stmt 0 discriminator 1
 4712 005a 7B68     		ldr	r3, [r7, #4]
 4713 005c 1B68     		ldr	r3, [r3]
 4714 005e 1B6A     		ldr	r3, [r3, #32]
 4715 0060 154A     		ldr	r2, .L315+16
 4716 0062 1340     		ands	r3, r2
 4717 0064 07D1     		bne	.L312
 4718              		.loc 1 2129 0 discriminator 2
 4719 0066 7B68     		ldr	r3, [r7, #4]
 4720 0068 1B68     		ldr	r3, [r3]
 4721 006a 5A6C     		ldr	r2, [r3, #68]
 4722 006c 7B68     		ldr	r3, [r7, #4]
 4723 006e 1B68     		ldr	r3, [r3]
 4724 0070 1249     		ldr	r1, .L315+20
 4725 0072 0A40     		ands	r2, r1
 4726 0074 5A64     		str	r2, [r3, #68]
 4727              	.L312:
 4728              		.loc 1 2133 0 is_stmt 1
 4729 0076 7B68     		ldr	r3, [r7, #4]
 4730 0078 1B68     		ldr	r3, [r3]
 4731 007a 1B6A     		ldr	r3, [r3, #32]
ARM GAS  C:\Users\anashi\AppData\Local\Temp\ccN6f8ah.s 			page 84


 4732 007c 0D4A     		ldr	r2, .L315+12
 4733 007e 1340     		ands	r3, r2
 4734 0080 0DD1     		bne	.L313
 4735              		.loc 1 2133 0 is_stmt 0 discriminator 1
 4736 0082 7B68     		ldr	r3, [r7, #4]
 4737 0084 1B68     		ldr	r3, [r3]
 4738 0086 1B6A     		ldr	r3, [r3, #32]
 4739 0088 0B4A     		ldr	r2, .L315+16
 4740 008a 1340     		ands	r3, r2
 4741 008c 07D1     		bne	.L313
 4742              		.loc 1 2133 0 discriminator 2
 4743 008e 7B68     		ldr	r3, [r7, #4]
 4744 0090 1B68     		ldr	r3, [r3]
 4745 0092 1A68     		ldr	r2, [r3]
 4746 0094 7B68     		ldr	r3, [r7, #4]
 4747 0096 1B68     		ldr	r3, [r3]
 4748 0098 0121     		movs	r1, #1
 4749 009a 8A43     		bics	r2, r1
 4750 009c 1A60     		str	r2, [r3]
 4751              	.L313:
 4752              		.loc 1 2136 0 is_stmt 1
 4753 009e 0023     		movs	r3, #0
 4754              		.loc 1 2137 0
 4755 00a0 1800     		movs	r0, r3
 4756 00a2 BD46     		mov	sp, r7
 4757 00a4 02B0     		add	sp, sp, #8
 4758              		@ sp needed
 4759 00a6 80BD     		pop	{r7, pc}
 4760              	.L316:
 4761              		.align	2
 4762              	.L315:
 4763 00a8 002C0140 		.word	1073818624
 4764 00ac 00440140 		.word	1073824768
 4765 00b0 00480140 		.word	1073825792
 4766 00b4 11110000 		.word	4369
 4767 00b8 44040000 		.word	1092
 4768 00bc FF7FFFFF 		.word	-32769
 4769              		.cfi_endproc
 4770              	.LFE82:
 4771              		.size	HAL_TIM_OnePulse_Stop, .-HAL_TIM_OnePulse_Stop
 4772              		.section	.text.HAL_TIM_OnePulse_Start_IT,"ax",%progbits
 4773              		.align	1
 4774              		.global	HAL_TIM_OnePulse_Start_IT
 4775              		.syntax unified
 4776              		.code	16
 4777              		.thumb_func
 4778              		.fpu softvfp
 4779              		.type	HAL_TIM_OnePulse_Start_IT, %function
 4780              	HAL_TIM_OnePulse_Start_IT:
 4781              	.LFB83:
 4782              		.loc 1 2149 0
 4783              		.cfi_startproc
 4784              		@ args = 0, pretend = 0, frame = 8
 4785              		@ frame_needed = 1, uses_anonymous_args = 0
 4786 0000 80B5     		push	{r7, lr}
 4787              		.cfi_def_cfa_offset 8
 4788              		.cfi_offset 7, -8
ARM GAS  C:\Users\anashi\AppData\Local\Temp\ccN6f8ah.s 			page 85


 4789              		.cfi_offset 14, -4
 4790 0002 82B0     		sub	sp, sp, #8
 4791              		.cfi_def_cfa_offset 16
 4792 0004 00AF     		add	r7, sp, #0
 4793              		.cfi_def_cfa_register 7
 4794 0006 7860     		str	r0, [r7, #4]
 4795 0008 3960     		str	r1, [r7]
 4796              		.loc 1 2160 0
 4797 000a 7B68     		ldr	r3, [r7, #4]
 4798 000c 1B68     		ldr	r3, [r3]
 4799 000e DA68     		ldr	r2, [r3, #12]
 4800 0010 7B68     		ldr	r3, [r7, #4]
 4801 0012 1B68     		ldr	r3, [r3]
 4802 0014 0221     		movs	r1, #2
 4803 0016 0A43     		orrs	r2, r1
 4804 0018 DA60     		str	r2, [r3, #12]
 4805              		.loc 1 2163 0
 4806 001a 7B68     		ldr	r3, [r7, #4]
 4807 001c 1B68     		ldr	r3, [r3]
 4808 001e DA68     		ldr	r2, [r3, #12]
 4809 0020 7B68     		ldr	r3, [r7, #4]
 4810 0022 1B68     		ldr	r3, [r3]
 4811 0024 0421     		movs	r1, #4
 4812 0026 0A43     		orrs	r2, r1
 4813 0028 DA60     		str	r2, [r3, #12]
 4814              		.loc 1 2165 0
 4815 002a 7B68     		ldr	r3, [r7, #4]
 4816 002c 1B68     		ldr	r3, [r3]
 4817 002e 0122     		movs	r2, #1
 4818 0030 0021     		movs	r1, #0
 4819 0032 1800     		movs	r0, r3
 4820 0034 FFF7FEFF 		bl	TIM_CCxChannelCmd
 4821              		.loc 1 2166 0
 4822 0038 7B68     		ldr	r3, [r7, #4]
 4823 003a 1B68     		ldr	r3, [r3]
 4824 003c 0122     		movs	r2, #1
 4825 003e 0421     		movs	r1, #4
 4826 0040 1800     		movs	r0, r3
 4827 0042 FFF7FEFF 		bl	TIM_CCxChannelCmd
 4828              		.loc 1 2168 0
 4829 0046 7B68     		ldr	r3, [r7, #4]
 4830 0048 1B68     		ldr	r3, [r3]
 4831 004a 104A     		ldr	r2, .L323
 4832 004c 9342     		cmp	r3, r2
 4833 004e 09D0     		beq	.L318
 4834              		.loc 1 2168 0 is_stmt 0 discriminator 2
 4835 0050 7B68     		ldr	r3, [r7, #4]
 4836 0052 1B68     		ldr	r3, [r3]
 4837 0054 0E4A     		ldr	r2, .L323+4
 4838 0056 9342     		cmp	r3, r2
 4839 0058 04D0     		beq	.L318
 4840              		.loc 1 2168 0 discriminator 4
 4841 005a 7B68     		ldr	r3, [r7, #4]
 4842 005c 1B68     		ldr	r3, [r3]
 4843 005e 0D4A     		ldr	r2, .L323+8
 4844 0060 9342     		cmp	r3, r2
 4845 0062 01D1     		bne	.L319
ARM GAS  C:\Users\anashi\AppData\Local\Temp\ccN6f8ah.s 			page 86


 4846              	.L318:
 4847              		.loc 1 2168 0 discriminator 5
 4848 0064 0123     		movs	r3, #1
 4849 0066 00E0     		b	.L320
 4850              	.L319:
 4851              		.loc 1 2168 0 discriminator 6
 4852 0068 0023     		movs	r3, #0
 4853              	.L320:
 4854              		.loc 1 2168 0 discriminator 8
 4855 006a 002B     		cmp	r3, #0
 4856 006c 08D0     		beq	.L321
 4857              		.loc 1 2171 0 is_stmt 1
 4858 006e 7B68     		ldr	r3, [r7, #4]
 4859 0070 1B68     		ldr	r3, [r3]
 4860 0072 5A6C     		ldr	r2, [r3, #68]
 4861 0074 7B68     		ldr	r3, [r7, #4]
 4862 0076 1B68     		ldr	r3, [r3]
 4863 0078 8021     		movs	r1, #128
 4864 007a 0902     		lsls	r1, r1, #8
 4865 007c 0A43     		orrs	r2, r1
 4866 007e 5A64     		str	r2, [r3, #68]
 4867              	.L321:
 4868              		.loc 1 2175 0
 4869 0080 0023     		movs	r3, #0
 4870              		.loc 1 2176 0
 4871 0082 1800     		movs	r0, r3
 4872 0084 BD46     		mov	sp, r7
 4873 0086 02B0     		add	sp, sp, #8
 4874              		@ sp needed
 4875 0088 80BD     		pop	{r7, pc}
 4876              	.L324:
 4877 008a C046     		.align	2
 4878              	.L323:
 4879 008c 002C0140 		.word	1073818624
 4880 0090 00440140 		.word	1073824768
 4881 0094 00480140 		.word	1073825792
 4882              		.cfi_endproc
 4883              	.LFE83:
 4884              		.size	HAL_TIM_OnePulse_Start_IT, .-HAL_TIM_OnePulse_Start_IT
 4885              		.section	.text.HAL_TIM_OnePulse_Stop_IT,"ax",%progbits
 4886              		.align	1
 4887              		.global	HAL_TIM_OnePulse_Stop_IT
 4888              		.syntax unified
 4889              		.code	16
 4890              		.thumb_func
 4891              		.fpu softvfp
 4892              		.type	HAL_TIM_OnePulse_Stop_IT, %function
 4893              	HAL_TIM_OnePulse_Stop_IT:
 4894              	.LFB84:
 4895              		.loc 1 2188 0
 4896              		.cfi_startproc
 4897              		@ args = 0, pretend = 0, frame = 8
 4898              		@ frame_needed = 1, uses_anonymous_args = 0
 4899 0000 80B5     		push	{r7, lr}
 4900              		.cfi_def_cfa_offset 8
 4901              		.cfi_offset 7, -8
 4902              		.cfi_offset 14, -4
ARM GAS  C:\Users\anashi\AppData\Local\Temp\ccN6f8ah.s 			page 87


 4903 0002 82B0     		sub	sp, sp, #8
 4904              		.cfi_def_cfa_offset 16
 4905 0004 00AF     		add	r7, sp, #0
 4906              		.cfi_def_cfa_register 7
 4907 0006 7860     		str	r0, [r7, #4]
 4908 0008 3960     		str	r1, [r7]
 4909              		.loc 1 2190 0
 4910 000a 7B68     		ldr	r3, [r7, #4]
 4911 000c 1B68     		ldr	r3, [r3]
 4912 000e DA68     		ldr	r2, [r3, #12]
 4913 0010 7B68     		ldr	r3, [r7, #4]
 4914 0012 1B68     		ldr	r3, [r3]
 4915 0014 0221     		movs	r1, #2
 4916 0016 8A43     		bics	r2, r1
 4917 0018 DA60     		str	r2, [r3, #12]
 4918              		.loc 1 2193 0
 4919 001a 7B68     		ldr	r3, [r7, #4]
 4920 001c 1B68     		ldr	r3, [r3]
 4921 001e DA68     		ldr	r2, [r3, #12]
 4922 0020 7B68     		ldr	r3, [r7, #4]
 4923 0022 1B68     		ldr	r3, [r3]
 4924 0024 0421     		movs	r1, #4
 4925 0026 8A43     		bics	r2, r1
 4926 0028 DA60     		str	r2, [r3, #12]
 4927              		.loc 1 2200 0
 4928 002a 7B68     		ldr	r3, [r7, #4]
 4929 002c 1B68     		ldr	r3, [r3]
 4930 002e 0022     		movs	r2, #0
 4931 0030 0021     		movs	r1, #0
 4932 0032 1800     		movs	r0, r3
 4933 0034 FFF7FEFF 		bl	TIM_CCxChannelCmd
 4934              		.loc 1 2201 0
 4935 0038 7B68     		ldr	r3, [r7, #4]
 4936 003a 1B68     		ldr	r3, [r3]
 4937 003c 0022     		movs	r2, #0
 4938 003e 0421     		movs	r1, #4
 4939 0040 1800     		movs	r0, r3
 4940 0042 FFF7FEFF 		bl	TIM_CCxChannelCmd
 4941              		.loc 1 2203 0
 4942 0046 7B68     		ldr	r3, [r7, #4]
 4943 0048 1B68     		ldr	r3, [r3]
 4944 004a 1F4A     		ldr	r2, .L332
 4945 004c 9342     		cmp	r3, r2
 4946 004e 09D0     		beq	.L326
 4947              		.loc 1 2203 0 is_stmt 0 discriminator 2
 4948 0050 7B68     		ldr	r3, [r7, #4]
 4949 0052 1B68     		ldr	r3, [r3]
 4950 0054 1D4A     		ldr	r2, .L332+4
 4951 0056 9342     		cmp	r3, r2
 4952 0058 04D0     		beq	.L326
 4953              		.loc 1 2203 0 discriminator 4
 4954 005a 7B68     		ldr	r3, [r7, #4]
 4955 005c 1B68     		ldr	r3, [r3]
 4956 005e 1C4A     		ldr	r2, .L332+8
 4957 0060 9342     		cmp	r3, r2
 4958 0062 01D1     		bne	.L327
 4959              	.L326:
ARM GAS  C:\Users\anashi\AppData\Local\Temp\ccN6f8ah.s 			page 88


 4960              		.loc 1 2203 0 discriminator 5
 4961 0064 0123     		movs	r3, #1
 4962 0066 00E0     		b	.L328
 4963              	.L327:
 4964              		.loc 1 2203 0 discriminator 6
 4965 0068 0023     		movs	r3, #0
 4966              	.L328:
 4967              		.loc 1 2203 0 discriminator 8
 4968 006a 002B     		cmp	r3, #0
 4969 006c 13D0     		beq	.L329
 4970              		.loc 1 2206 0 is_stmt 1
 4971 006e 7B68     		ldr	r3, [r7, #4]
 4972 0070 1B68     		ldr	r3, [r3]
 4973 0072 1B6A     		ldr	r3, [r3, #32]
 4974 0074 174A     		ldr	r2, .L332+12
 4975 0076 1340     		ands	r3, r2
 4976 0078 0DD1     		bne	.L329
 4977              		.loc 1 2206 0 is_stmt 0 discriminator 1
 4978 007a 7B68     		ldr	r3, [r7, #4]
 4979 007c 1B68     		ldr	r3, [r3]
 4980 007e 1B6A     		ldr	r3, [r3, #32]
 4981 0080 154A     		ldr	r2, .L332+16
 4982 0082 1340     		ands	r3, r2
 4983 0084 07D1     		bne	.L329
 4984              		.loc 1 2206 0 discriminator 2
 4985 0086 7B68     		ldr	r3, [r7, #4]
 4986 0088 1B68     		ldr	r3, [r3]
 4987 008a 5A6C     		ldr	r2, [r3, #68]
 4988 008c 7B68     		ldr	r3, [r7, #4]
 4989 008e 1B68     		ldr	r3, [r3]
 4990 0090 1249     		ldr	r1, .L332+20
 4991 0092 0A40     		ands	r2, r1
 4992 0094 5A64     		str	r2, [r3, #68]
 4993              	.L329:
 4994              		.loc 1 2210 0 is_stmt 1
 4995 0096 7B68     		ldr	r3, [r7, #4]
 4996 0098 1B68     		ldr	r3, [r3]
 4997 009a 1B6A     		ldr	r3, [r3, #32]
 4998 009c 0D4A     		ldr	r2, .L332+12
 4999 009e 1340     		ands	r3, r2
 5000 00a0 0DD1     		bne	.L330
 5001              		.loc 1 2210 0 is_stmt 0 discriminator 1
 5002 00a2 7B68     		ldr	r3, [r7, #4]
 5003 00a4 1B68     		ldr	r3, [r3]
 5004 00a6 1B6A     		ldr	r3, [r3, #32]
 5005 00a8 0B4A     		ldr	r2, .L332+16
 5006 00aa 1340     		ands	r3, r2
 5007 00ac 07D1     		bne	.L330
 5008              		.loc 1 2210 0 discriminator 2
 5009 00ae 7B68     		ldr	r3, [r7, #4]
 5010 00b0 1B68     		ldr	r3, [r3]
 5011 00b2 1A68     		ldr	r2, [r3]
 5012 00b4 7B68     		ldr	r3, [r7, #4]
 5013 00b6 1B68     		ldr	r3, [r3]
 5014 00b8 0121     		movs	r1, #1
 5015 00ba 8A43     		bics	r2, r1
 5016 00bc 1A60     		str	r2, [r3]
ARM GAS  C:\Users\anashi\AppData\Local\Temp\ccN6f8ah.s 			page 89


 5017              	.L330:
 5018              		.loc 1 2213 0 is_stmt 1
 5019 00be 0023     		movs	r3, #0
 5020              		.loc 1 2214 0
 5021 00c0 1800     		movs	r0, r3
 5022 00c2 BD46     		mov	sp, r7
 5023 00c4 02B0     		add	sp, sp, #8
 5024              		@ sp needed
 5025 00c6 80BD     		pop	{r7, pc}
 5026              	.L333:
 5027              		.align	2
 5028              	.L332:
 5029 00c8 002C0140 		.word	1073818624
 5030 00cc 00440140 		.word	1073824768
 5031 00d0 00480140 		.word	1073825792
 5032 00d4 11110000 		.word	4369
 5033 00d8 44040000 		.word	1092
 5034 00dc FF7FFFFF 		.word	-32769
 5035              		.cfi_endproc
 5036              	.LFE84:
 5037              		.size	HAL_TIM_OnePulse_Stop_IT, .-HAL_TIM_OnePulse_Stop_IT
 5038              		.section	.text.HAL_TIM_Encoder_Init,"ax",%progbits
 5039              		.align	1
 5040              		.global	HAL_TIM_Encoder_Init
 5041              		.syntax unified
 5042              		.code	16
 5043              		.thumb_func
 5044              		.fpu softvfp
 5045              		.type	HAL_TIM_Encoder_Init, %function
 5046              	HAL_TIM_Encoder_Init:
 5047              	.LFB85:
 5048              		.loc 1 2248 0
 5049              		.cfi_startproc
 5050              		@ args = 0, pretend = 0, frame = 24
