ARM GAS  C:\Users\anashi\AppData\Local\Temp\ccYYZBJq.s 			page 1


   1              		.cpu cortex-m0
   2              		.eabi_attribute 20, 1
   3              		.eabi_attribute 21, 1
   4              		.eabi_attribute 23, 3
   5              		.eabi_attribute 24, 1
   6              		.eabi_attribute 25, 1
   7              		.eabi_attribute 26, 1
   8              		.eabi_attribute 30, 6
   9              		.eabi_attribute 34, 0
  10              		.eabi_attribute 18, 4
  11              		.file	"stm32f0xx_hal_pwr_ex.c"
  12              		.text
  13              	.Ltext0:
  14              		.cfi_sections	.debug_frame
  15              	.Letext0:
  16              		.file 1 "c:\\st\\stm32cubeide_1.1.0\\stm32cubeide\\plugins\\com.st.stm32cube.ide.mcu.externaltools
  17              		.file 2 "c:\\st\\stm32cubeide_1.1.0\\stm32cubeide\\plugins\\com.st.stm32cube.ide.mcu.externaltools
  18              		.file 3 "C:/repos/rs2all/board/Drivers/CMSIS/Device/ST/STM32F0xx/Include/system_stm32f0xx.h"
  19              		.file 4 "c:\\st\\stm32cubeide_1.1.0\\stm32cubeide\\plugins\\com.st.stm32cube.ide.mcu.externaltools
  20              		.file 5 "c:\\st\\stm32cubeide_1.1.0\\stm32cubeide\\plugins\\com.st.stm32cube.ide.mcu.externaltools
  21              		.file 6 "c:\\st\\stm32cubeide_1.1.0\\stm32cubeide\\plugins\\com.st.stm32cube.ide.mcu.externaltools
  22              		.file 7 "c:\\st\\stm32cubeide_1.1.0\\stm32cubeide\\plugins\\com.st.stm32cube.ide.mcu.externaltools
  23              		.section	.debug_info,"",%progbits
  24              	.Ldebug_info0:
  25 0000 09090000 		.4byte	0x909
  26 0004 0400     		.2byte	0x4
  27 0006 00000000 		.4byte	.Ldebug_abbrev0
  28 000a 04       		.byte	0x4
  29 000b 01       		.uleb128 0x1
  30 000c 17C00100 		.4byte	.LASF6838
  31 0010 0C       		.byte	0xc
  32 0011 C8DF0200 		.4byte	.LASF6839
  33 0015 C0CD0300 		.4byte	.LASF6840
  34 0019 00000000 		.4byte	.Ldebug_line0
  35 001d 00000000 		.4byte	.Ldebug_macro0
  36 0021 02       		.uleb128 0x2
  37 0022 01       		.byte	0x1
  38 0023 06       		.byte	0x6
  39 0024 EAF90300 		.4byte	.LASF6711
  40 0028 03       		.uleb128 0x3
  41 0029 E1440000 		.4byte	.LASF6716
  42 002d 01       		.byte	0x1
  43 002e 2B       		.byte	0x2b
  44 002f 33000000 		.4byte	0x33
  45 0033 02       		.uleb128 0x2
  46 0034 01       		.byte	0x1
  47 0035 08       		.byte	0x8
  48 0036 FD1D0100 		.4byte	.LASF6712
  49 003a 02       		.uleb128 0x2
  50 003b 02       		.byte	0x2
  51 003c 05       		.byte	0x5
  52 003d D08D0300 		.4byte	.LASF6713
  53 0041 02       		.uleb128 0x2
  54 0042 02       		.byte	0x2
  55 0043 07       		.byte	0x7
  56 0044 266B0200 		.4byte	.LASF6714
  57 0048 02       		.uleb128 0x2
ARM GAS  C:\Users\anashi\AppData\Local\Temp\ccYYZBJq.s 			page 2


  58 0049 04       		.byte	0x4
  59 004a 05       		.byte	0x5
  60 004b C2090400 		.4byte	.LASF6715
  61 004f 03       		.uleb128 0x3
  62 0050 1E5F0400 		.4byte	.LASF6717
  63 0054 01       		.byte	0x1
  64 0055 4F       		.byte	0x4f
  65 0056 5A000000 		.4byte	0x5a
  66 005a 02       		.uleb128 0x2
  67 005b 04       		.byte	0x4
  68 005c 07       		.byte	0x7
  69 005d 26220100 		.4byte	.LASF6718
  70 0061 02       		.uleb128 0x2
  71 0062 08       		.byte	0x8
  72 0063 05       		.byte	0x5
  73 0064 756B0400 		.4byte	.LASF6719
  74 0068 02       		.uleb128 0x2
  75 0069 08       		.byte	0x8
  76 006a 07       		.byte	0x7
  77 006b 0C6D0300 		.4byte	.LASF6720
  78 006f 04       		.uleb128 0x4
  79 0070 04       		.byte	0x4
  80 0071 05       		.byte	0x5
  81 0072 696E7400 		.ascii	"int\000"
  82 0076 02       		.uleb128 0x2
  83 0077 04       		.byte	0x4
  84 0078 07       		.byte	0x7
  85 0079 F12A0000 		.4byte	.LASF6721
  86 007d 03       		.uleb128 0x3
  87 007e F6570300 		.4byte	.LASF6722
  88 0082 02       		.byte	0x2
  89 0083 18       		.byte	0x18
  90 0084 28000000 		.4byte	0x28
  91 0088 05       		.uleb128 0x5
  92 0089 7D000000 		.4byte	0x7d
  93 008d 03       		.uleb128 0x3
  94 008e 5DE80300 		.4byte	.LASF6723
  95 0092 02       		.byte	0x2
  96 0093 30       		.byte	0x30
  97 0094 4F000000 		.4byte	0x4f
  98 0098 06       		.uleb128 0x6
  99 0099 D8040300 		.4byte	.LASF6724
 100 009d 03       		.byte	0x3
 101 009e 4A       		.byte	0x4a
 102 009f 8D000000 		.4byte	0x8d
 103 00a3 07       		.uleb128 0x7
 104 00a4 88000000 		.4byte	0x88
 105 00a8 B3000000 		.4byte	0xb3
 106 00ac 08       		.uleb128 0x8
 107 00ad 76000000 		.4byte	0x76
 108 00b1 0F       		.byte	0xf
 109 00b2 00       		.byte	0
 110 00b3 05       		.uleb128 0x5
 111 00b4 A3000000 		.4byte	0xa3
 112 00b8 06       		.uleb128 0x6
 113 00b9 F8690100 		.4byte	.LASF6725
 114 00bd 03       		.byte	0x3
ARM GAS  C:\Users\anashi\AppData\Local\Temp\ccYYZBJq.s 			page 3


 115 00be 4B       		.byte	0x4b
 116 00bf B3000000 		.4byte	0xb3
 117 00c3 07       		.uleb128 0x7
 118 00c4 88000000 		.4byte	0x88
 119 00c8 D3000000 		.4byte	0xd3
 120 00cc 08       		.uleb128 0x8
 121 00cd 76000000 		.4byte	0x76
 122 00d1 07       		.byte	0x7
 123 00d2 00       		.byte	0
 124 00d3 05       		.uleb128 0x5
 125 00d4 C3000000 		.4byte	0xc3
 126 00d8 06       		.uleb128 0x6
 127 00d9 84ED0300 		.4byte	.LASF6726
 128 00dd 03       		.byte	0x3
 129 00de 4C       		.byte	0x4c
 130 00df D3000000 		.4byte	0xd3
 131 00e3 02       		.uleb128 0x2
 132 00e4 08       		.byte	0x8
 133 00e5 04       		.byte	0x4
 134 00e6 95CE0200 		.4byte	.LASF6727
 135 00ea 09       		.uleb128 0x9
 136 00eb 04       		.byte	0x4
 137 00ec 03       		.uleb128 0x3
 138 00ed 0C440400 		.4byte	.LASF6728
 139 00f1 04       		.byte	0x4
 140 00f2 22       		.byte	0x22
 141 00f3 F7000000 		.4byte	0xf7
 142 00f7 0A       		.uleb128 0xa
 143 00f8 04       		.byte	0x4
 144 00f9 FD000000 		.4byte	0xfd
 145 00fd 0B       		.uleb128 0xb
 146 00fe F5610200 		.4byte	.LASF6834
 147 0102 03       		.uleb128 0x3
 148 0103 215D0100 		.4byte	.LASF6729
 149 0107 05       		.byte	0x5
 150 0108 2C       		.byte	0x2c
 151 0109 48000000 		.4byte	0x48
 152 010d 03       		.uleb128 0x3
 153 010e BDD00200 		.4byte	.LASF6730
 154 0112 05       		.byte	0x5
 155 0113 72       		.byte	0x72
 156 0114 48000000 		.4byte	0x48
 157 0118 0C       		.uleb128 0xc
 158 0119 385F0100 		.4byte	.LASF6731
 159 011d 06       		.byte	0x6
 160 011e 6501     		.2byte	0x165
 161 0120 76000000 		.4byte	0x76
 162 0124 0D       		.uleb128 0xd
 163 0125 04       		.byte	0x4
 164 0126 05       		.byte	0x5
 165 0127 A6       		.byte	0xa6
 166 0128 43010000 		.4byte	0x143
 167 012c 0E       		.uleb128 0xe
 168 012d 8BB10100 		.4byte	.LASF6732
 169 0131 05       		.byte	0x5
 170 0132 A8       		.byte	0xa8
 171 0133 18010000 		.4byte	0x118
ARM GAS  C:\Users\anashi\AppData\Local\Temp\ccYYZBJq.s 			page 4


 172 0137 0E       		.uleb128 0xe
 173 0138 259A0000 		.4byte	.LASF6733
 174 013c 05       		.byte	0x5
 175 013d A9       		.byte	0xa9
 176 013e 43010000 		.4byte	0x143
 177 0142 00       		.byte	0
 178 0143 07       		.uleb128 0x7
 179 0144 33000000 		.4byte	0x33
 180 0148 53010000 		.4byte	0x153
 181 014c 08       		.uleb128 0x8
 182 014d 76000000 		.4byte	0x76
 183 0151 03       		.byte	0x3
 184 0152 00       		.byte	0
 185 0153 0F       		.uleb128 0xf
 186 0154 08       		.byte	0x8
 187 0155 05       		.byte	0x5
 188 0156 A3       		.byte	0xa3
 189 0157 74010000 		.4byte	0x174
 190 015b 10       		.uleb128 0x10
 191 015c BC460400 		.4byte	.LASF6734
 192 0160 05       		.byte	0x5
 193 0161 A5       		.byte	0xa5
 194 0162 6F000000 		.4byte	0x6f
 195 0166 00       		.byte	0
 196 0167 10       		.uleb128 0x10
 197 0168 33870200 		.4byte	.LASF6735
 198 016c 05       		.byte	0x5
 199 016d AA       		.byte	0xaa
 200 016e 24010000 		.4byte	0x124
 201 0172 04       		.byte	0x4
 202 0173 00       		.byte	0
 203 0174 03       		.uleb128 0x3
 204 0175 04E80200 		.4byte	.LASF6736
 205 0179 05       		.byte	0x5
 206 017a AB       		.byte	0xab
 207 017b 53010000 		.4byte	0x153
 208 017f 03       		.uleb128 0x3
 209 0180 485C0100 		.4byte	.LASF6737
 210 0184 05       		.byte	0x5
 211 0185 AF       		.byte	0xaf
 212 0186 EC000000 		.4byte	0xec
 213 018a 03       		.uleb128 0x3
 214 018b DD8F0200 		.4byte	.LASF6738
 215 018f 07       		.byte	0x7
 216 0190 16       		.byte	0x16
 217 0191 5A000000 		.4byte	0x5a
 218 0195 11       		.uleb128 0x11
 219 0196 C3650100 		.4byte	.LASF6743
 220 019a 18       		.byte	0x18
 221 019b 07       		.byte	0x7
 222 019c 2F       		.byte	0x2f
 223 019d E8010000 		.4byte	0x1e8
 224 01a1 10       		.uleb128 0x10
 225 01a2 FCBB0000 		.4byte	.LASF6739
 226 01a6 07       		.byte	0x7
 227 01a7 31       		.byte	0x31
 228 01a8 E8010000 		.4byte	0x1e8
ARM GAS  C:\Users\anashi\AppData\Local\Temp\ccYYZBJq.s 			page 5


 229 01ac 00       		.byte	0
 230 01ad 12       		.uleb128 0x12
 231 01ae 5F6B00   		.ascii	"_k\000"
 232 01b1 07       		.byte	0x7
 233 01b2 32       		.byte	0x32
 234 01b3 6F000000 		.4byte	0x6f
 235 01b7 04       		.byte	0x4
 236 01b8 10       		.uleb128 0x10
 237 01b9 D5060000 		.4byte	.LASF6740
 238 01bd 07       		.byte	0x7
 239 01be 32       		.byte	0x32
 240 01bf 6F000000 		.4byte	0x6f
 241 01c3 08       		.byte	0x8
 242 01c4 10       		.uleb128 0x10
 243 01c5 C3B90300 		.4byte	.LASF6741
 244 01c9 07       		.byte	0x7
 245 01ca 32       		.byte	0x32
 246 01cb 6F000000 		.4byte	0x6f
 247 01cf 0C       		.byte	0xc
 248 01d0 10       		.uleb128 0x10
 249 01d1 68DF0000 		.4byte	.LASF6742
 250 01d5 07       		.byte	0x7
 251 01d6 32       		.byte	0x32
 252 01d7 6F000000 		.4byte	0x6f
 253 01db 10       		.byte	0x10
 254 01dc 12       		.uleb128 0x12
 255 01dd 5F7800   		.ascii	"_x\000"
 256 01e0 07       		.byte	0x7
 257 01e1 33       		.byte	0x33
 258 01e2 EE010000 		.4byte	0x1ee
 259 01e6 14       		.byte	0x14
 260 01e7 00       		.byte	0
 261 01e8 0A       		.uleb128 0xa
 262 01e9 04       		.byte	0x4
 263 01ea 95010000 		.4byte	0x195
 264 01ee 07       		.uleb128 0x7
 265 01ef 8A010000 		.4byte	0x18a
 266 01f3 FE010000 		.4byte	0x1fe
 267 01f7 08       		.uleb128 0x8
 268 01f8 76000000 		.4byte	0x76
 269 01fc 00       		.byte	0
 270 01fd 00       		.byte	0
 271 01fe 11       		.uleb128 0x11
 272 01ff EDB60200 		.4byte	.LASF6744
 273 0203 24       		.byte	0x24
 274 0204 07       		.byte	0x7
 275 0205 37       		.byte	0x37
 276 0206 77020000 		.4byte	0x277
 277 020a 10       		.uleb128 0x10
 278 020b 48C20000 		.4byte	.LASF6745
 279 020f 07       		.byte	0x7
 280 0210 39       		.byte	0x39
 281 0211 6F000000 		.4byte	0x6f
 282 0215 00       		.byte	0
 283 0216 10       		.uleb128 0x10
 284 0217 507B0200 		.4byte	.LASF6746
 285 021b 07       		.byte	0x7
ARM GAS  C:\Users\anashi\AppData\Local\Temp\ccYYZBJq.s 			page 6


 286 021c 3A       		.byte	0x3a
 287 021d 6F000000 		.4byte	0x6f
 288 0221 04       		.byte	0x4
 289 0222 10       		.uleb128 0x10
 290 0223 131C0400 		.4byte	.LASF6747
 291 0227 07       		.byte	0x7
 292 0228 3B       		.byte	0x3b
 293 0229 6F000000 		.4byte	0x6f
 294 022d 08       		.byte	0x8
 295 022e 10       		.uleb128 0x10
 296 022f E5D00200 		.4byte	.LASF6748
 297 0233 07       		.byte	0x7
 298 0234 3C       		.byte	0x3c
 299 0235 6F000000 		.4byte	0x6f
 300 0239 0C       		.byte	0xc
 301 023a 10       		.uleb128 0x10
 302 023b 69930200 		.4byte	.LASF6749
 303 023f 07       		.byte	0x7
 304 0240 3D       		.byte	0x3d
 305 0241 6F000000 		.4byte	0x6f
 306 0245 10       		.byte	0x10
 307 0246 10       		.uleb128 0x10
 308 0247 B3000100 		.4byte	.LASF6750
 309 024b 07       		.byte	0x7
 310 024c 3E       		.byte	0x3e
 311 024d 6F000000 		.4byte	0x6f
 312 0251 14       		.byte	0x14
 313 0252 10       		.uleb128 0x10
 314 0253 AE080100 		.4byte	.LASF6751
 315 0257 07       		.byte	0x7
 316 0258 3F       		.byte	0x3f
 317 0259 6F000000 		.4byte	0x6f
 318 025d 18       		.byte	0x18
 319 025e 10       		.uleb128 0x10
 320 025f 4CFF0200 		.4byte	.LASF6752
 321 0263 07       		.byte	0x7
 322 0264 40       		.byte	0x40
 323 0265 6F000000 		.4byte	0x6f
 324 0269 1C       		.byte	0x1c
 325 026a 10       		.uleb128 0x10
 326 026b A3420000 		.4byte	.LASF6753
 327 026f 07       		.byte	0x7
 328 0270 41       		.byte	0x41
 329 0271 6F000000 		.4byte	0x6f
 330 0275 20       		.byte	0x20
 331 0276 00       		.byte	0
 332 0277 13       		.uleb128 0x13
 333 0278 25810300 		.4byte	.LASF6754
 334 027c 0801     		.2byte	0x108
 335 027e 07       		.byte	0x7
 336 027f 4A       		.byte	0x4a
 337 0280 B7020000 		.4byte	0x2b7
 338 0284 10       		.uleb128 0x10
 339 0285 70220000 		.4byte	.LASF6755
 340 0289 07       		.byte	0x7
 341 028a 4B       		.byte	0x4b
 342 028b B7020000 		.4byte	0x2b7
ARM GAS  C:\Users\anashi\AppData\Local\Temp\ccYYZBJq.s 			page 7


 343 028f 00       		.byte	0
 344 0290 10       		.uleb128 0x10
 345 0291 23C70000 		.4byte	.LASF6756
 346 0295 07       		.byte	0x7
 347 0296 4C       		.byte	0x4c
 348 0297 B7020000 		.4byte	0x2b7
 349 029b 80       		.byte	0x80
 350 029c 14       		.uleb128 0x14
 351 029d A65D0300 		.4byte	.LASF6757
 352 02a1 07       		.byte	0x7
 353 02a2 4E       		.byte	0x4e
 354 02a3 8A010000 		.4byte	0x18a
 355 02a7 0001     		.2byte	0x100
 356 02a9 14       		.uleb128 0x14
 357 02aa 38A70200 		.4byte	.LASF6758
 358 02ae 07       		.byte	0x7
 359 02af 51       		.byte	0x51
 360 02b0 8A010000 		.4byte	0x18a
 361 02b4 0401     		.2byte	0x104
 362 02b6 00       		.byte	0
 363 02b7 07       		.uleb128 0x7
 364 02b8 EA000000 		.4byte	0xea
 365 02bc C7020000 		.4byte	0x2c7
 366 02c0 08       		.uleb128 0x8
 367 02c1 76000000 		.4byte	0x76
 368 02c5 1F       		.byte	0x1f
 369 02c6 00       		.byte	0
 370 02c7 13       		.uleb128 0x13
 371 02c8 74850000 		.4byte	.LASF6759
 372 02cc 9001     		.2byte	0x190
 373 02ce 07       		.byte	0x7
 374 02cf 5D       		.byte	0x5d
 375 02d0 05030000 		.4byte	0x305
 376 02d4 10       		.uleb128 0x10
 377 02d5 FCBB0000 		.4byte	.LASF6739
 378 02d9 07       		.byte	0x7
 379 02da 5E       		.byte	0x5e
 380 02db 05030000 		.4byte	0x305
 381 02df 00       		.byte	0
 382 02e0 10       		.uleb128 0x10
 383 02e1 E46B0100 		.4byte	.LASF6760
 384 02e5 07       		.byte	0x7
 385 02e6 5F       		.byte	0x5f
 386 02e7 6F000000 		.4byte	0x6f
 387 02eb 04       		.byte	0x4
 388 02ec 10       		.uleb128 0x10
 389 02ed E1490200 		.4byte	.LASF6761
 390 02f1 07       		.byte	0x7
 391 02f2 61       		.byte	0x61
 392 02f3 0B030000 		.4byte	0x30b
 393 02f7 08       		.byte	0x8
 394 02f8 10       		.uleb128 0x10
 395 02f9 25810300 		.4byte	.LASF6754
 396 02fd 07       		.byte	0x7
 397 02fe 62       		.byte	0x62
 398 02ff 77020000 		.4byte	0x277
 399 0303 88       		.byte	0x88
ARM GAS  C:\Users\anashi\AppData\Local\Temp\ccYYZBJq.s 			page 8


 400 0304 00       		.byte	0
 401 0305 0A       		.uleb128 0xa
 402 0306 04       		.byte	0x4
 403 0307 C7020000 		.4byte	0x2c7
 404 030b 07       		.uleb128 0x7
 405 030c 1B030000 		.4byte	0x31b
 406 0310 1B030000 		.4byte	0x31b
 407 0314 08       		.uleb128 0x8
 408 0315 76000000 		.4byte	0x76
 409 0319 1F       		.byte	0x1f
 410 031a 00       		.byte	0
 411 031b 0A       		.uleb128 0xa
 412 031c 04       		.byte	0x4
 413 031d 21030000 		.4byte	0x321
 414 0321 15       		.uleb128 0x15
 415 0322 11       		.uleb128 0x11
 416 0323 B9800200 		.4byte	.LASF6762
 417 0327 08       		.byte	0x8
 418 0328 07       		.byte	0x7
 419 0329 75       		.byte	0x75
 420 032a 47030000 		.4byte	0x347
 421 032e 10       		.uleb128 0x10
 422 032f C3420200 		.4byte	.LASF6763
 423 0333 07       		.byte	0x7
 424 0334 76       		.byte	0x76
 425 0335 47030000 		.4byte	0x347
 426 0339 00       		.byte	0
 427 033a 10       		.uleb128 0x10
 428 033b 59BD0300 		.4byte	.LASF6764
 429 033f 07       		.byte	0x7
 430 0340 77       		.byte	0x77
 431 0341 6F000000 		.4byte	0x6f
 432 0345 04       		.byte	0x4
 433 0346 00       		.byte	0
 434 0347 0A       		.uleb128 0xa
 435 0348 04       		.byte	0x4
 436 0349 33000000 		.4byte	0x33
 437 034d 11       		.uleb128 0x11
 438 034e 93DF0100 		.4byte	.LASF6765
 439 0352 68       		.byte	0x68
 440 0353 07       		.byte	0x7
 441 0354 B5       		.byte	0xb5
 442 0355 77040000 		.4byte	0x477
 443 0359 12       		.uleb128 0x12
 444 035a 5F7000   		.ascii	"_p\000"
 445 035d 07       		.byte	0x7
 446 035e B6       		.byte	0xb6
 447 035f 47030000 		.4byte	0x347
 448 0363 00       		.byte	0
 449 0364 12       		.uleb128 0x12
 450 0365 5F7200   		.ascii	"_r\000"
 451 0368 07       		.byte	0x7
 452 0369 B7       		.byte	0xb7
 453 036a 6F000000 		.4byte	0x6f
 454 036e 04       		.byte	0x4
 455 036f 12       		.uleb128 0x12
 456 0370 5F7700   		.ascii	"_w\000"
ARM GAS  C:\Users\anashi\AppData\Local\Temp\ccYYZBJq.s 			page 9


 457 0373 07       		.byte	0x7
 458 0374 B8       		.byte	0xb8
 459 0375 6F000000 		.4byte	0x6f
 460 0379 08       		.byte	0x8
 461 037a 10       		.uleb128 0x10
 462 037b 13620300 		.4byte	.LASF6766
 463 037f 07       		.byte	0x7
 464 0380 B9       		.byte	0xb9
 465 0381 3A000000 		.4byte	0x3a
 466 0385 0C       		.byte	0xc
 467 0386 10       		.uleb128 0x10
 468 0387 EF300200 		.4byte	.LASF6767
 469 038b 07       		.byte	0x7
 470 038c BA       		.byte	0xba
 471 038d 3A000000 		.4byte	0x3a
 472 0391 0E       		.byte	0xe
 473 0392 12       		.uleb128 0x12
 474 0393 5F626600 		.ascii	"_bf\000"
 475 0397 07       		.byte	0x7
 476 0398 BB       		.byte	0xbb
 477 0399 22030000 		.4byte	0x322
 478 039d 10       		.byte	0x10
 479 039e 10       		.uleb128 0x10
 480 039f 003D0000 		.4byte	.LASF6768
 481 03a3 07       		.byte	0x7
 482 03a4 BC       		.byte	0xbc
 483 03a5 6F000000 		.4byte	0x6f
 484 03a9 18       		.byte	0x18
 485 03aa 10       		.uleb128 0x10
 486 03ab CE670300 		.4byte	.LASF6769
 487 03af 07       		.byte	0x7
 488 03b0 C3       		.byte	0xc3
 489 03b1 EA000000 		.4byte	0xea
 490 03b5 1C       		.byte	0x1c
 491 03b6 10       		.uleb128 0x10
 492 03b7 3C430100 		.4byte	.LASF6770
 493 03bb 07       		.byte	0x7
 494 03bc C5       		.byte	0xc5
 495 03bd E4050000 		.4byte	0x5e4
 496 03c1 20       		.byte	0x20
 497 03c2 10       		.uleb128 0x10
 498 03c3 8E5A0300 		.4byte	.LASF6771
 499 03c7 07       		.byte	0x7
 500 03c8 C7       		.byte	0xc7
 501 03c9 0E060000 		.4byte	0x60e
 502 03cd 24       		.byte	0x24
 503 03ce 10       		.uleb128 0x10
 504 03cf 4CB10200 		.4byte	.LASF6772
 505 03d3 07       		.byte	0x7
 506 03d4 CA       		.byte	0xca
 507 03d5 32060000 		.4byte	0x632
 508 03d9 28       		.byte	0x28
 509 03da 10       		.uleb128 0x10
 510 03db 7CD40000 		.4byte	.LASF6773
 511 03df 07       		.byte	0x7
 512 03e0 CB       		.byte	0xcb
 513 03e1 4C060000 		.4byte	0x64c
ARM GAS  C:\Users\anashi\AppData\Local\Temp\ccYYZBJq.s 			page 10


 514 03e5 2C       		.byte	0x2c
 515 03e6 12       		.uleb128 0x12
 516 03e7 5F756200 		.ascii	"_ub\000"
 517 03eb 07       		.byte	0x7
 518 03ec CE       		.byte	0xce
 519 03ed 22030000 		.4byte	0x322
 520 03f1 30       		.byte	0x30
 521 03f2 12       		.uleb128 0x12
 522 03f3 5F757000 		.ascii	"_up\000"
 523 03f7 07       		.byte	0x7
 524 03f8 CF       		.byte	0xcf
 525 03f9 47030000 		.4byte	0x347
 526 03fd 38       		.byte	0x38
 527 03fe 12       		.uleb128 0x12
 528 03ff 5F757200 		.ascii	"_ur\000"
 529 0403 07       		.byte	0x7
 530 0404 D0       		.byte	0xd0
 531 0405 6F000000 		.4byte	0x6f
 532 0409 3C       		.byte	0x3c
 533 040a 10       		.uleb128 0x10
 534 040b 88C90200 		.4byte	.LASF6774
 535 040f 07       		.byte	0x7
 536 0410 D3       		.byte	0xd3
 537 0411 52060000 		.4byte	0x652
 538 0415 40       		.byte	0x40
 539 0416 10       		.uleb128 0x10
 540 0417 7B710000 		.4byte	.LASF6775
 541 041b 07       		.byte	0x7
 542 041c D4       		.byte	0xd4
 543 041d 62060000 		.4byte	0x662
 544 0421 43       		.byte	0x43
 545 0422 12       		.uleb128 0x12
 546 0423 5F6C6200 		.ascii	"_lb\000"
 547 0427 07       		.byte	0x7
 548 0428 D7       		.byte	0xd7
 549 0429 22030000 		.4byte	0x322
 550 042d 44       		.byte	0x44
 551 042e 10       		.uleb128 0x10
 552 042f 512B0100 		.4byte	.LASF6776
 553 0433 07       		.byte	0x7
 554 0434 DA       		.byte	0xda
 555 0435 6F000000 		.4byte	0x6f
 556 0439 4C       		.byte	0x4c
 557 043a 10       		.uleb128 0x10
 558 043b 44850200 		.4byte	.LASF6777
 559 043f 07       		.byte	0x7
 560 0440 DB       		.byte	0xdb
 561 0441 02010000 		.4byte	0x102
 562 0445 50       		.byte	0x50
 563 0446 10       		.uleb128 0x10
 564 0447 4AF20000 		.4byte	.LASF6778
 565 044b 07       		.byte	0x7
 566 044c DE       		.byte	0xde
 567 044d 95040000 		.4byte	0x495
 568 0451 54       		.byte	0x54
 569 0452 10       		.uleb128 0x10
 570 0453 761C0000 		.4byte	.LASF6779
ARM GAS  C:\Users\anashi\AppData\Local\Temp\ccYYZBJq.s 			page 11


 571 0457 07       		.byte	0x7
 572 0458 E2       		.byte	0xe2
 573 0459 7F010000 		.4byte	0x17f
 574 045d 58       		.byte	0x58
 575 045e 10       		.uleb128 0x10
 576 045f 74C70200 		.4byte	.LASF6780
 577 0463 07       		.byte	0x7
 578 0464 E4       		.byte	0xe4
 579 0465 74010000 		.4byte	0x174
 580 0469 5C       		.byte	0x5c
 581 046a 10       		.uleb128 0x10
 582 046b 74610300 		.4byte	.LASF6781
 583 046f 07       		.byte	0x7
 584 0470 E5       		.byte	0xe5
 585 0471 6F000000 		.4byte	0x6f
 586 0475 64       		.byte	0x64
 587 0476 00       		.byte	0
 588 0477 16       		.uleb128 0x16
 589 0478 6F000000 		.4byte	0x6f
 590 047c 95040000 		.4byte	0x495
 591 0480 17       		.uleb128 0x17
 592 0481 95040000 		.4byte	0x495
 593 0485 17       		.uleb128 0x17
 594 0486 EA000000 		.4byte	0xea
 595 048a 17       		.uleb128 0x17
 596 048b D2050000 		.4byte	0x5d2
 597 048f 17       		.uleb128 0x17
 598 0490 6F000000 		.4byte	0x6f
 599 0494 00       		.byte	0
 600 0495 0A       		.uleb128 0xa
 601 0496 04       		.byte	0x4
 602 0497 A0040000 		.4byte	0x4a0
 603 049b 05       		.uleb128 0x5
 604 049c 95040000 		.4byte	0x495
 605 04a0 18       		.uleb128 0x18
 606 04a1 6DFC0100 		.4byte	.LASF6782
 607 04a5 2804     		.2byte	0x428
 608 04a7 07       		.byte	0x7
 609 04a8 6002     		.2byte	0x260
 610 04aa D2050000 		.4byte	0x5d2
 611 04ae 19       		.uleb128 0x19
 612 04af D41B0200 		.4byte	.LASF6783
 613 04b3 07       		.byte	0x7
 614 04b4 6202     		.2byte	0x262
 615 04b6 6F000000 		.4byte	0x6f
 616 04ba 00       		.byte	0
 617 04bb 19       		.uleb128 0x19
 618 04bc C8110200 		.4byte	.LASF6784
 619 04c0 07       		.byte	0x7
 620 04c1 6702     		.2byte	0x267
 621 04c3 B9060000 		.4byte	0x6b9
 622 04c7 04       		.byte	0x4
 623 04c8 19       		.uleb128 0x19
 624 04c9 F1050300 		.4byte	.LASF6785
 625 04cd 07       		.byte	0x7
 626 04ce 6702     		.2byte	0x267
 627 04d0 B9060000 		.4byte	0x6b9
ARM GAS  C:\Users\anashi\AppData\Local\Temp\ccYYZBJq.s 			page 12


 628 04d4 08       		.byte	0x8
 629 04d5 19       		.uleb128 0x19
 630 04d6 ED230400 		.4byte	.LASF6786
 631 04da 07       		.byte	0x7
 632 04db 6702     		.2byte	0x267
 633 04dd B9060000 		.4byte	0x6b9
 634 04e1 0C       		.byte	0xc
 635 04e2 19       		.uleb128 0x19
 636 04e3 DF6B0100 		.4byte	.LASF6787
 637 04e7 07       		.byte	0x7
 638 04e8 6902     		.2byte	0x269
 639 04ea 6F000000 		.4byte	0x6f
 640 04ee 10       		.byte	0x10
 641 04ef 19       		.uleb128 0x19
 642 04f0 F8E50200 		.4byte	.LASF6788
 643 04f4 07       		.byte	0x7
 644 04f5 6A02     		.2byte	0x26a
 645 04f7 9B080000 		.4byte	0x89b
 646 04fb 14       		.byte	0x14
 647 04fc 19       		.uleb128 0x19
 648 04fd 38020100 		.4byte	.LASF6789
 649 0501 07       		.byte	0x7
 650 0502 6D02     		.2byte	0x26d
 651 0504 6F000000 		.4byte	0x6f
 652 0508 30       		.byte	0x30
 653 0509 19       		.uleb128 0x19
 654 050a 59BD0100 		.4byte	.LASF6790
 655 050e 07       		.byte	0x7
 656 050f 6E02     		.2byte	0x26e
 657 0511 B0080000 		.4byte	0x8b0
 658 0515 34       		.byte	0x34
 659 0516 19       		.uleb128 0x19
 660 0517 433F0300 		.4byte	.LASF6791
 661 051b 07       		.byte	0x7
 662 051c 7002     		.2byte	0x270
 663 051e 6F000000 		.4byte	0x6f
 664 0522 38       		.byte	0x38
 665 0523 19       		.uleb128 0x19
 666 0524 29980100 		.4byte	.LASF6792
 667 0528 07       		.byte	0x7
 668 0529 7202     		.2byte	0x272
 669 052b C1080000 		.4byte	0x8c1
 670 052f 3C       		.byte	0x3c
 671 0530 19       		.uleb128 0x19
 672 0531 5AAB0100 		.4byte	.LASF6793
 673 0535 07       		.byte	0x7
 674 0536 7502     		.2byte	0x275
 675 0538 E8010000 		.4byte	0x1e8
 676 053c 40       		.byte	0x40
 677 053d 19       		.uleb128 0x19
 678 053e 25EF0300 		.4byte	.LASF6794
 679 0542 07       		.byte	0x7
 680 0543 7602     		.2byte	0x276
 681 0545 6F000000 		.4byte	0x6f
 682 0549 44       		.byte	0x44
 683 054a 19       		.uleb128 0x19
 684 054b F9000000 		.4byte	.LASF6795
ARM GAS  C:\Users\anashi\AppData\Local\Temp\ccYYZBJq.s 			page 13


 685 054f 07       		.byte	0x7
 686 0550 7702     		.2byte	0x277
 687 0552 E8010000 		.4byte	0x1e8
 688 0556 48       		.byte	0x48
 689 0557 19       		.uleb128 0x19
 690 0558 7BAD0200 		.4byte	.LASF6796
 691 055c 07       		.byte	0x7
 692 055d 7802     		.2byte	0x278
 693 055f C7080000 		.4byte	0x8c7
 694 0563 4C       		.byte	0x4c
 695 0564 19       		.uleb128 0x19
 696 0565 795A0100 		.4byte	.LASF6797
 697 0569 07       		.byte	0x7
 698 056a 7B02     		.2byte	0x27b
 699 056c 6F000000 		.4byte	0x6f
 700 0570 50       		.byte	0x50
 701 0571 19       		.uleb128 0x19
 702 0572 1F3F0400 		.4byte	.LASF6798
 703 0576 07       		.byte	0x7
 704 0577 7C02     		.2byte	0x27c
 705 0579 D2050000 		.4byte	0x5d2
 706 057d 54       		.byte	0x54
 707 057e 19       		.uleb128 0x19
 708 057f E3E70200 		.4byte	.LASF6799
 709 0583 07       		.byte	0x7
 710 0584 9F02     		.2byte	0x29f
 711 0586 79080000 		.4byte	0x879
 712 058a 58       		.byte	0x58
 713 058b 1A       		.uleb128 0x1a
 714 058c 74850000 		.4byte	.LASF6759
 715 0590 07       		.byte	0x7
 716 0591 A302     		.2byte	0x2a3
 717 0593 05030000 		.4byte	0x305
 718 0597 4801     		.2byte	0x148
 719 0599 1A       		.uleb128 0x1a
 720 059a 25BE0000 		.4byte	.LASF6800
 721 059e 07       		.byte	0x7
 722 059f A402     		.2byte	0x2a4
 723 05a1 C7020000 		.4byte	0x2c7
 724 05a5 4C01     		.2byte	0x14c
 725 05a7 1A       		.uleb128 0x1a
 726 05a8 CC8B0300 		.4byte	.LASF6801
 727 05ac 07       		.byte	0x7
 728 05ad A802     		.2byte	0x2a8
 729 05af D8080000 		.4byte	0x8d8
 730 05b3 DC02     		.2byte	0x2dc
 731 05b5 1A       		.uleb128 0x1a
 732 05b6 7C4B0000 		.4byte	.LASF6802
 733 05ba 07       		.byte	0x7
 734 05bb AD02     		.2byte	0x2ad
 735 05bd 7E060000 		.4byte	0x67e
 736 05c1 E002     		.2byte	0x2e0
 737 05c3 1A       		.uleb128 0x1a
 738 05c4 6AB00200 		.4byte	.LASF6803
 739 05c8 07       		.byte	0x7
 740 05c9 AF02     		.2byte	0x2af
 741 05cb E4080000 		.4byte	0x8e4
ARM GAS  C:\Users\anashi\AppData\Local\Temp\ccYYZBJq.s 			page 14


 742 05cf EC02     		.2byte	0x2ec
 743 05d1 00       		.byte	0
 744 05d2 0A       		.uleb128 0xa
 745 05d3 04       		.byte	0x4
 746 05d4 D8050000 		.4byte	0x5d8
 747 05d8 02       		.uleb128 0x2
 748 05d9 01       		.byte	0x1
 749 05da 08       		.byte	0x8
 750 05db CCF70100 		.4byte	.LASF530
 751 05df 05       		.uleb128 0x5
 752 05e0 D8050000 		.4byte	0x5d8
 753 05e4 0A       		.uleb128 0xa
 754 05e5 04       		.byte	0x4
 755 05e6 77040000 		.4byte	0x477
 756 05ea 16       		.uleb128 0x16
 757 05eb 6F000000 		.4byte	0x6f
 758 05ef 08060000 		.4byte	0x608
 759 05f3 17       		.uleb128 0x17
 760 05f4 95040000 		.4byte	0x495
 761 05f8 17       		.uleb128 0x17
 762 05f9 EA000000 		.4byte	0xea
 763 05fd 17       		.uleb128 0x17
 764 05fe 08060000 		.4byte	0x608
 765 0602 17       		.uleb128 0x17
 766 0603 6F000000 		.4byte	0x6f
 767 0607 00       		.byte	0
 768 0608 0A       		.uleb128 0xa
 769 0609 04       		.byte	0x4
 770 060a DF050000 		.4byte	0x5df
 771 060e 0A       		.uleb128 0xa
 772 060f 04       		.byte	0x4
 773 0610 EA050000 		.4byte	0x5ea
 774 0614 16       		.uleb128 0x16
 775 0615 0D010000 		.4byte	0x10d
 776 0619 32060000 		.4byte	0x632
 777 061d 17       		.uleb128 0x17
 778 061e 95040000 		.4byte	0x495
 779 0622 17       		.uleb128 0x17
 780 0623 EA000000 		.4byte	0xea
 781 0627 17       		.uleb128 0x17
 782 0628 0D010000 		.4byte	0x10d
 783 062c 17       		.uleb128 0x17
 784 062d 6F000000 		.4byte	0x6f
 785 0631 00       		.byte	0
 786 0632 0A       		.uleb128 0xa
 787 0633 04       		.byte	0x4
 788 0634 14060000 		.4byte	0x614
 789 0638 16       		.uleb128 0x16
 790 0639 6F000000 		.4byte	0x6f
 791 063d 4C060000 		.4byte	0x64c
 792 0641 17       		.uleb128 0x17
 793 0642 95040000 		.4byte	0x495
 794 0646 17       		.uleb128 0x17
 795 0647 EA000000 		.4byte	0xea
 796 064b 00       		.byte	0
 797 064c 0A       		.uleb128 0xa
 798 064d 04       		.byte	0x4
ARM GAS  C:\Users\anashi\AppData\Local\Temp\ccYYZBJq.s 			page 15


 799 064e 38060000 		.4byte	0x638
 800 0652 07       		.uleb128 0x7
 801 0653 33000000 		.4byte	0x33
 802 0657 62060000 		.4byte	0x662
 803 065b 08       		.uleb128 0x8
 804 065c 76000000 		.4byte	0x76
 805 0660 02       		.byte	0x2
 806 0661 00       		.byte	0
 807 0662 07       		.uleb128 0x7
 808 0663 33000000 		.4byte	0x33
 809 0667 72060000 		.4byte	0x672
 810 066b 08       		.uleb128 0x8
 811 066c 76000000 		.4byte	0x76
 812 0670 00       		.byte	0
 813 0671 00       		.byte	0
 814 0672 0C       		.uleb128 0xc
 815 0673 A6610100 		.4byte	.LASF6804
 816 0677 07       		.byte	0x7
 817 0678 1F01     		.2byte	0x11f
 818 067a 4D030000 		.4byte	0x34d
 819 067e 1B       		.uleb128 0x1b
 820 067f EF610200 		.4byte	.LASF6805
 821 0683 0C       		.byte	0xc
 822 0684 07       		.byte	0x7
 823 0685 2301     		.2byte	0x123
 824 0687 B3060000 		.4byte	0x6b3
 825 068b 19       		.uleb128 0x19
 826 068c FCBB0000 		.4byte	.LASF6739
 827 0690 07       		.byte	0x7
 828 0691 2501     		.2byte	0x125
 829 0693 B3060000 		.4byte	0x6b3
 830 0697 00       		.byte	0
 831 0698 19       		.uleb128 0x19
 832 0699 6B000400 		.4byte	.LASF6806
 833 069d 07       		.byte	0x7
 834 069e 2601     		.2byte	0x126
 835 06a0 6F000000 		.4byte	0x6f
 836 06a4 04       		.byte	0x4
 837 06a5 19       		.uleb128 0x19
 838 06a6 6D7A0300 		.4byte	.LASF6807
 839 06aa 07       		.byte	0x7
 840 06ab 2701     		.2byte	0x127
 841 06ad B9060000 		.4byte	0x6b9
 842 06b1 08       		.byte	0x8
 843 06b2 00       		.byte	0
 844 06b3 0A       		.uleb128 0xa
 845 06b4 04       		.byte	0x4
 846 06b5 7E060000 		.4byte	0x67e
 847 06b9 0A       		.uleb128 0xa
 848 06ba 04       		.byte	0x4
 849 06bb 72060000 		.4byte	0x672
 850 06bf 1B       		.uleb128 0x1b
 851 06c0 2E1E0400 		.4byte	.LASF6808
 852 06c4 0E       		.byte	0xe
 853 06c5 07       		.byte	0x7
 854 06c6 3F01     		.2byte	0x13f
 855 06c8 F4060000 		.4byte	0x6f4
ARM GAS  C:\Users\anashi\AppData\Local\Temp\ccYYZBJq.s 			page 16


 856 06cc 19       		.uleb128 0x19
 857 06cd 7AEC0200 		.4byte	.LASF6809
 858 06d1 07       		.byte	0x7
 859 06d2 4001     		.2byte	0x140
 860 06d4 F4060000 		.4byte	0x6f4
 861 06d8 00       		.byte	0
 862 06d9 19       		.uleb128 0x19
 863 06da 840C0400 		.4byte	.LASF6810
 864 06de 07       		.byte	0x7
 865 06df 4101     		.2byte	0x141
 866 06e1 F4060000 		.4byte	0x6f4
 867 06e5 06       		.byte	0x6
 868 06e6 19       		.uleb128 0x19
 869 06e7 20610000 		.4byte	.LASF6811
 870 06eb 07       		.byte	0x7
 871 06ec 4201     		.2byte	0x142
 872 06ee 41000000 		.4byte	0x41
 873 06f2 0C       		.byte	0xc
 874 06f3 00       		.byte	0
 875 06f4 07       		.uleb128 0x7
 876 06f5 41000000 		.4byte	0x41
 877 06f9 04070000 		.4byte	0x704
 878 06fd 08       		.uleb128 0x8
 879 06fe 76000000 		.4byte	0x76
 880 0702 02       		.byte	0x2
 881 0703 00       		.byte	0
 882 0704 1C       		.uleb128 0x1c
 883 0705 D0       		.byte	0xd0
 884 0706 07       		.byte	0x7
 885 0707 8002     		.2byte	0x280
 886 0709 05080000 		.4byte	0x805
 887 070d 19       		.uleb128 0x19
 888 070e 5ABB0200 		.4byte	.LASF6812
 889 0712 07       		.byte	0x7
 890 0713 8202     		.2byte	0x282
 891 0715 76000000 		.4byte	0x76
 892 0719 00       		.byte	0
 893 071a 19       		.uleb128 0x19
 894 071b 1BA10000 		.4byte	.LASF6813
 895 071f 07       		.byte	0x7
 896 0720 8302     		.2byte	0x283
 897 0722 D2050000 		.4byte	0x5d2
 898 0726 04       		.byte	0x4
 899 0727 19       		.uleb128 0x19
 900 0728 E4C30000 		.4byte	.LASF6814
 901 072c 07       		.byte	0x7
 902 072d 8402     		.2byte	0x284
 903 072f 05080000 		.4byte	0x805
 904 0733 08       		.byte	0x8
 905 0734 19       		.uleb128 0x19
 906 0735 54C60300 		.4byte	.LASF6815
 907 0739 07       		.byte	0x7
 908 073a 8502     		.2byte	0x285
 909 073c FE010000 		.4byte	0x1fe
 910 0740 24       		.byte	0x24
 911 0741 19       		.uleb128 0x19
 912 0742 F7110300 		.4byte	.LASF6816
ARM GAS  C:\Users\anashi\AppData\Local\Temp\ccYYZBJq.s 			page 17


 913 0746 07       		.byte	0x7
 914 0747 8602     		.2byte	0x286
 915 0749 6F000000 		.4byte	0x6f
 916 074d 48       		.byte	0x48
 917 074e 19       		.uleb128 0x19
 918 074f D55B0400 		.4byte	.LASF6817
 919 0753 07       		.byte	0x7
 920 0754 8702     		.2byte	0x287
 921 0756 68000000 		.4byte	0x68
 922 075a 50       		.byte	0x50
 923 075b 19       		.uleb128 0x19
 924 075c 8E790200 		.4byte	.LASF6818
 925 0760 07       		.byte	0x7
 926 0761 8802     		.2byte	0x288
 927 0763 BF060000 		.4byte	0x6bf
 928 0767 58       		.byte	0x58
 929 0768 19       		.uleb128 0x19
 930 0769 51080100 		.4byte	.LASF6819
 931 076d 07       		.byte	0x7
 932 076e 8902     		.2byte	0x289
 933 0770 74010000 		.4byte	0x174
 934 0774 68       		.byte	0x68
 935 0775 19       		.uleb128 0x19
 936 0776 49680300 		.4byte	.LASF6820
 937 077a 07       		.byte	0x7
 938 077b 8A02     		.2byte	0x28a
 939 077d 74010000 		.4byte	0x174
 940 0781 70       		.byte	0x70
 941 0782 19       		.uleb128 0x19
 942 0783 D4440400 		.4byte	.LASF6821
 943 0787 07       		.byte	0x7
 944 0788 8B02     		.2byte	0x28b
 945 078a 74010000 		.4byte	0x174
 946 078e 78       		.byte	0x78
 947 078f 19       		.uleb128 0x19
 948 0790 D6BB0200 		.4byte	.LASF6822
 949 0794 07       		.byte	0x7
 950 0795 8C02     		.2byte	0x28c
 951 0797 15080000 		.4byte	0x815
 952 079b 80       		.byte	0x80
 953 079c 19       		.uleb128 0x19
 954 079d 23BD0300 		.4byte	.LASF6823
 955 07a1 07       		.byte	0x7
 956 07a2 8D02     		.2byte	0x28d
 957 07a4 25080000 		.4byte	0x825
 958 07a8 88       		.byte	0x88
 959 07a9 19       		.uleb128 0x19
 960 07aa C1940100 		.4byte	.LASF6824
 961 07ae 07       		.byte	0x7
 962 07af 8E02     		.2byte	0x28e
 963 07b1 6F000000 		.4byte	0x6f
 964 07b5 A0       		.byte	0xa0
 965 07b6 19       		.uleb128 0x19
 966 07b7 B15B0300 		.4byte	.LASF6825
 967 07bb 07       		.byte	0x7
 968 07bc 8F02     		.2byte	0x28f
 969 07be 74010000 		.4byte	0x174
ARM GAS  C:\Users\anashi\AppData\Local\Temp\ccYYZBJq.s 			page 18


 970 07c2 A4       		.byte	0xa4
 971 07c3 19       		.uleb128 0x19
 972 07c4 FC820200 		.4byte	.LASF6826
 973 07c8 07       		.byte	0x7
 974 07c9 9002     		.2byte	0x290
 975 07cb 74010000 		.4byte	0x174
 976 07cf AC       		.byte	0xac
 977 07d0 19       		.uleb128 0x19
 978 07d1 DE210200 		.4byte	.LASF6827
 979 07d5 07       		.byte	0x7
 980 07d6 9102     		.2byte	0x291
 981 07d8 74010000 		.4byte	0x174
 982 07dc B4       		.byte	0xb4
 983 07dd 19       		.uleb128 0x19
 984 07de F65B0400 		.4byte	.LASF6828
 985 07e2 07       		.byte	0x7
 986 07e3 9202     		.2byte	0x292
 987 07e5 74010000 		.4byte	0x174
 988 07e9 BC       		.byte	0xbc
 989 07ea 19       		.uleb128 0x19
 990 07eb 7D810100 		.4byte	.LASF6829
 991 07ef 07       		.byte	0x7
 992 07f0 9302     		.2byte	0x293
 993 07f2 74010000 		.4byte	0x174
 994 07f6 C4       		.byte	0xc4
 995 07f7 19       		.uleb128 0x19
 996 07f8 673B0400 		.4byte	.LASF6830
 997 07fc 07       		.byte	0x7
 998 07fd 9402     		.2byte	0x294
 999 07ff 6F000000 		.4byte	0x6f
 1000 0803 CC       		.byte	0xcc
 1001 0804 00       		.byte	0
 1002 0805 07       		.uleb128 0x7
 1003 0806 D8050000 		.4byte	0x5d8
 1004 080a 15080000 		.4byte	0x815
 1005 080e 08       		.uleb128 0x8
 1006 080f 76000000 		.4byte	0x76
 1007 0813 19       		.byte	0x19
 1008 0814 00       		.byte	0
 1009 0815 07       		.uleb128 0x7
 1010 0816 D8050000 		.4byte	0x5d8
 1011 081a 25080000 		.4byte	0x825
 1012 081e 08       		.uleb128 0x8
 1013 081f 76000000 		.4byte	0x76
 1014 0823 07       		.byte	0x7
 1015 0824 00       		.byte	0
 1016 0825 07       		.uleb128 0x7
 1017 0826 D8050000 		.4byte	0x5d8
 1018 082a 35080000 		.4byte	0x835
 1019 082e 08       		.uleb128 0x8
 1020 082f 76000000 		.4byte	0x76
 1021 0833 17       		.byte	0x17
 1022 0834 00       		.byte	0
 1023 0835 1C       		.uleb128 0x1c
 1024 0836 F0       		.byte	0xf0
 1025 0837 07       		.byte	0x7
 1026 0838 9902     		.2byte	0x299
ARM GAS  C:\Users\anashi\AppData\Local\Temp\ccYYZBJq.s 			page 19


 1027 083a 59080000 		.4byte	0x859
 1028 083e 19       		.uleb128 0x19
 1029 083f 0A9C0300 		.4byte	.LASF6831
 1030 0843 07       		.byte	0x7
 1031 0844 9C02     		.2byte	0x29c
 1032 0846 59080000 		.4byte	0x859
 1033 084a 00       		.byte	0
 1034 084b 19       		.uleb128 0x19
 1035 084c 21270200 		.4byte	.LASF6832
 1036 0850 07       		.byte	0x7
 1037 0851 9D02     		.2byte	0x29d
 1038 0853 69080000 		.4byte	0x869
 1039 0857 78       		.byte	0x78
 1040 0858 00       		.byte	0
 1041 0859 07       		.uleb128 0x7
 1042 085a 47030000 		.4byte	0x347
 1043 085e 69080000 		.4byte	0x869
 1044 0862 08       		.uleb128 0x8
 1045 0863 76000000 		.4byte	0x76
 1046 0867 1D       		.byte	0x1d
 1047 0868 00       		.byte	0
 1048 0869 07       		.uleb128 0x7
 1049 086a 76000000 		.4byte	0x76
 1050 086e 79080000 		.4byte	0x879
 1051 0872 08       		.uleb128 0x8
 1052 0873 76000000 		.4byte	0x76
 1053 0877 1D       		.byte	0x1d
 1054 0878 00       		.byte	0
 1055 0879 1D       		.uleb128 0x1d
 1056 087a F0       		.byte	0xf0
 1057 087b 07       		.byte	0x7
 1058 087c 7E02     		.2byte	0x27e
 1059 087e 9B080000 		.4byte	0x89b
 1060 0882 1E       		.uleb128 0x1e
 1061 0883 6DFC0100 		.4byte	.LASF6782
 1062 0887 07       		.byte	0x7
 1063 0888 9502     		.2byte	0x295
 1064 088a 04070000 		.4byte	0x704
 1065 088e 1E       		.uleb128 0x1e
 1066 088f 67500100 		.4byte	.LASF6833
 1067 0893 07       		.byte	0x7
 1068 0894 9E02     		.2byte	0x29e
 1069 0896 35080000 		.4byte	0x835
 1070 089a 00       		.byte	0
 1071 089b 07       		.uleb128 0x7
 1072 089c D8050000 		.4byte	0x5d8
 1073 08a0 AB080000 		.4byte	0x8ab
 1074 08a4 08       		.uleb128 0x8
 1075 08a5 76000000 		.4byte	0x76
 1076 08a9 18       		.byte	0x18
 1077 08aa 00       		.byte	0
 1078 08ab 0B       		.uleb128 0xb
 1079 08ac 58560300 		.4byte	.LASF6835
 1080 08b0 0A       		.uleb128 0xa
 1081 08b1 04       		.byte	0x4
 1082 08b2 AB080000 		.4byte	0x8ab
 1083 08b6 1F       		.uleb128 0x1f
ARM GAS  C:\Users\anashi\AppData\Local\Temp\ccYYZBJq.s 			page 20


 1084 08b7 C1080000 		.4byte	0x8c1
 1085 08bb 17       		.uleb128 0x17
 1086 08bc 95040000 		.4byte	0x495
 1087 08c0 00       		.byte	0
 1088 08c1 0A       		.uleb128 0xa
 1089 08c2 04       		.byte	0x4
 1090 08c3 B6080000 		.4byte	0x8b6
 1091 08c7 0A       		.uleb128 0xa
 1092 08c8 04       		.byte	0x4
 1093 08c9 E8010000 		.4byte	0x1e8
 1094 08cd 1F       		.uleb128 0x1f
 1095 08ce D8080000 		.4byte	0x8d8
 1096 08d2 17       		.uleb128 0x17
 1097 08d3 6F000000 		.4byte	0x6f
 1098 08d7 00       		.byte	0
 1099 08d8 0A       		.uleb128 0xa
 1100 08d9 04       		.byte	0x4
 1101 08da DE080000 		.4byte	0x8de
 1102 08de 0A       		.uleb128 0xa
 1103 08df 04       		.byte	0x4
 1104 08e0 CD080000 		.4byte	0x8cd
 1105 08e4 07       		.uleb128 0x7
 1106 08e5 72060000 		.4byte	0x672
 1107 08e9 F4080000 		.4byte	0x8f4
 1108 08ed 08       		.uleb128 0x8
 1109 08ee 76000000 		.4byte	0x76
 1110 08f2 02       		.byte	0x2
 1111 08f3 00       		.byte	0
 1112 08f4 20       		.uleb128 0x20
 1113 08f5 D3EB0200 		.4byte	.LASF6836
 1114 08f9 07       		.byte	0x7
 1115 08fa 2E03     		.2byte	0x32e
 1116 08fc 95040000 		.4byte	0x495
 1117 0900 20       		.uleb128 0x20
 1118 0901 7E340400 		.4byte	.LASF6837
 1119 0905 07       		.byte	0x7
 1120 0906 2F03     		.2byte	0x32f
 1121 0908 9B040000 		.4byte	0x49b
 1122 090c 00       		.byte	0
 1123              		.section	.debug_abbrev,"",%progbits
 1124              	.Ldebug_abbrev0:
 1125 0000 01       		.uleb128 0x1
 1126 0001 11       		.uleb128 0x11
 1127 0002 01       		.byte	0x1
 1128 0003 25       		.uleb128 0x25
 1129 0004 0E       		.uleb128 0xe
 1130 0005 13       		.uleb128 0x13
 1131 0006 0B       		.uleb128 0xb
 1132 0007 03       		.uleb128 0x3
 1133 0008 0E       		.uleb128 0xe
 1134 0009 1B       		.uleb128 0x1b
 1135 000a 0E       		.uleb128 0xe
 1136 000b 10       		.uleb128 0x10
 1137 000c 17       		.uleb128 0x17
 1138 000d 9942     		.uleb128 0x2119
 1139 000f 17       		.uleb128 0x17
 1140 0010 00       		.byte	0
ARM GAS  C:\Users\anashi\AppData\Local\Temp\ccYYZBJq.s 			page 21


 1141 0011 00       		.byte	0
 1142 0012 02       		.uleb128 0x2
 1143 0013 24       		.uleb128 0x24
 1144 0014 00       		.byte	0
 1145 0015 0B       		.uleb128 0xb
 1146 0016 0B       		.uleb128 0xb
 1147 0017 3E       		.uleb128 0x3e
 1148 0018 0B       		.uleb128 0xb
 1149 0019 03       		.uleb128 0x3
 1150 001a 0E       		.uleb128 0xe
 1151 001b 00       		.byte	0
 1152 001c 00       		.byte	0
 1153 001d 03       		.uleb128 0x3
 1154 001e 16       		.uleb128 0x16
 1155 001f 00       		.byte	0
 1156 0020 03       		.uleb128 0x3
 1157 0021 0E       		.uleb128 0xe
 1158 0022 3A       		.uleb128 0x3a
 1159 0023 0B       		.uleb128 0xb
 1160 0024 3B       		.uleb128 0x3b
 1161 0025 0B       		.uleb128 0xb
 1162 0026 49       		.uleb128 0x49
 1163 0027 13       		.uleb128 0x13
 1164 0028 00       		.byte	0
 1165 0029 00       		.byte	0
 1166 002a 04       		.uleb128 0x4
 1167 002b 24       		.uleb128 0x24
 1168 002c 00       		.byte	0
 1169 002d 0B       		.uleb128 0xb
 1170 002e 0B       		.uleb128 0xb
 1171 002f 3E       		.uleb128 0x3e
 1172 0030 0B       		.uleb128 0xb
 1173 0031 03       		.uleb128 0x3
 1174 0032 08       		.uleb128 0x8
 1175 0033 00       		.byte	0
 1176 0034 00       		.byte	0
 1177 0035 05       		.uleb128 0x5
 1178 0036 26       		.uleb128 0x26
 1179 0037 00       		.byte	0
 1180 0038 49       		.uleb128 0x49
 1181 0039 13       		.uleb128 0x13
 1182 003a 00       		.byte	0
 1183 003b 00       		.byte	0
 1184 003c 06       		.uleb128 0x6
 1185 003d 34       		.uleb128 0x34
 1186 003e 00       		.byte	0
 1187 003f 03       		.uleb128 0x3
 1188 0040 0E       		.uleb128 0xe
 1189 0041 3A       		.uleb128 0x3a
 1190 0042 0B       		.uleb128 0xb
 1191 0043 3B       		.uleb128 0x3b
 1192 0044 0B       		.uleb128 0xb
 1193 0045 49       		.uleb128 0x49
 1194 0046 13       		.uleb128 0x13
 1195 0047 3F       		.uleb128 0x3f
 1196 0048 19       		.uleb128 0x19
 1197 0049 3C       		.uleb128 0x3c
ARM GAS  C:\Users\anashi\AppData\Local\Temp\ccYYZBJq.s 			page 22


 1198 004a 19       		.uleb128 0x19
 1199 004b 00       		.byte	0
 1200 004c 00       		.byte	0
 1201 004d 07       		.uleb128 0x7
 1202 004e 01       		.uleb128 0x1
 1203 004f 01       		.byte	0x1
 1204 0050 49       		.uleb128 0x49
 1205 0051 13       		.uleb128 0x13
 1206 0052 01       		.uleb128 0x1
 1207 0053 13       		.uleb128 0x13
 1208 0054 00       		.byte	0
 1209 0055 00       		.byte	0
 1210 0056 08       		.uleb128 0x8
 1211 0057 21       		.uleb128 0x21
 1212 0058 00       		.byte	0
 1213 0059 49       		.uleb128 0x49
 1214 005a 13       		.uleb128 0x13
 1215 005b 2F       		.uleb128 0x2f
 1216 005c 0B       		.uleb128 0xb
 1217 005d 00       		.byte	0
 1218 005e 00       		.byte	0
 1219 005f 09       		.uleb128 0x9
 1220 0060 0F       		.uleb128 0xf
 1221 0061 00       		.byte	0
 1222 0062 0B       		.uleb128 0xb
 1223 0063 0B       		.uleb128 0xb
 1224 0064 00       		.byte	0
 1225 0065 00       		.byte	0
 1226 0066 0A       		.uleb128 0xa
 1227 0067 0F       		.uleb128 0xf
 1228 0068 00       		.byte	0
 1229 0069 0B       		.uleb128 0xb
 1230 006a 0B       		.uleb128 0xb
 1231 006b 49       		.uleb128 0x49
 1232 006c 13       		.uleb128 0x13
 1233 006d 00       		.byte	0
 1234 006e 00       		.byte	0
 1235 006f 0B       		.uleb128 0xb
 1236 0070 13       		.uleb128 0x13
 1237 0071 00       		.byte	0
 1238 0072 03       		.uleb128 0x3
 1239 0073 0E       		.uleb128 0xe
 1240 0074 3C       		.uleb128 0x3c
 1241 0075 19       		.uleb128 0x19
 1242 0076 00       		.byte	0
 1243 0077 00       		.byte	0
 1244 0078 0C       		.uleb128 0xc
 1245 0079 16       		.uleb128 0x16
 1246 007a 00       		.byte	0
 1247 007b 03       		.uleb128 0x3
 1248 007c 0E       		.uleb128 0xe
 1249 007d 3A       		.uleb128 0x3a
 1250 007e 0B       		.uleb128 0xb
 1251 007f 3B       		.uleb128 0x3b
 1252 0080 05       		.uleb128 0x5
 1253 0081 49       		.uleb128 0x49
 1254 0082 13       		.uleb128 0x13
ARM GAS  C:\Users\anashi\AppData\Local\Temp\ccYYZBJq.s 			page 23


 1255 0083 00       		.byte	0
 1256 0084 00       		.byte	0
 1257 0085 0D       		.uleb128 0xd
 1258 0086 17       		.uleb128 0x17
 1259 0087 01       		.byte	0x1
 1260 0088 0B       		.uleb128 0xb
 1261 0089 0B       		.uleb128 0xb
 1262 008a 3A       		.uleb128 0x3a
 1263 008b 0B       		.uleb128 0xb
 1264 008c 3B       		.uleb128 0x3b
 1265 008d 0B       		.uleb128 0xb
 1266 008e 01       		.uleb128 0x1
 1267 008f 13       		.uleb128 0x13
 1268 0090 00       		.byte	0
 1269 0091 00       		.byte	0
 1270 0092 0E       		.uleb128 0xe
 1271 0093 0D       		.uleb128 0xd
 1272 0094 00       		.byte	0
 1273 0095 03       		.uleb128 0x3
 1274 0096 0E       		.uleb128 0xe
 1275 0097 3A       		.uleb128 0x3a
 1276 0098 0B       		.uleb128 0xb
 1277 0099 3B       		.uleb128 0x3b
 1278 009a 0B       		.uleb128 0xb
 1279 009b 49       		.uleb128 0x49
 1280 009c 13       		.uleb128 0x13
 1281 009d 00       		.byte	0
 1282 009e 00       		.byte	0
 1283 009f 0F       		.uleb128 0xf
 1284 00a0 13       		.uleb128 0x13
 1285 00a1 01       		.byte	0x1
 1286 00a2 0B       		.uleb128 0xb
 1287 00a3 0B       		.uleb128 0xb
 1288 00a4 3A       		.uleb128 0x3a
 1289 00a5 0B       		.uleb128 0xb
 1290 00a6 3B       		.uleb128 0x3b
 1291 00a7 0B       		.uleb128 0xb
 1292 00a8 01       		.uleb128 0x1
 1293 00a9 13       		.uleb128 0x13
 1294 00aa 00       		.byte	0
 1295 00ab 00       		.byte	0
 1296 00ac 10       		.uleb128 0x10
 1297 00ad 0D       		.uleb128 0xd
 1298 00ae 00       		.byte	0
 1299 00af 03       		.uleb128 0x3
 1300 00b0 0E       		.uleb128 0xe
 1301 00b1 3A       		.uleb128 0x3a
 1302 00b2 0B       		.uleb128 0xb
 1303 00b3 3B       		.uleb128 0x3b
 1304 00b4 0B       		.uleb128 0xb
 1305 00b5 49       		.uleb128 0x49
 1306 00b6 13       		.uleb128 0x13
 1307 00b7 38       		.uleb128 0x38
 1308 00b8 0B       		.uleb128 0xb
 1309 00b9 00       		.byte	0
 1310 00ba 00       		.byte	0
 1311 00bb 11       		.uleb128 0x11
ARM GAS  C:\Users\anashi\AppData\Local\Temp\ccYYZBJq.s 			page 24


 1312 00bc 13       		.uleb128 0x13
 1313 00bd 01       		.byte	0x1
 1314 00be 03       		.uleb128 0x3
 1315 00bf 0E       		.uleb128 0xe
 1316 00c0 0B       		.uleb128 0xb
 1317 00c1 0B       		.uleb128 0xb
 1318 00c2 3A       		.uleb128 0x3a
 1319 00c3 0B       		.uleb128 0xb
 1320 00c4 3B       		.uleb128 0x3b
 1321 00c5 0B       		.uleb128 0xb
 1322 00c6 01       		.uleb128 0x1
 1323 00c7 13       		.uleb128 0x13
 1324 00c8 00       		.byte	0
 1325 00c9 00       		.byte	0
 1326 00ca 12       		.uleb128 0x12
 1327 00cb 0D       		.uleb128 0xd
 1328 00cc 00       		.byte	0
 1329 00cd 03       		.uleb128 0x3
 1330 00ce 08       		.uleb128 0x8
 1331 00cf 3A       		.uleb128 0x3a
 1332 00d0 0B       		.uleb128 0xb
 1333 00d1 3B       		.uleb128 0x3b
 1334 00d2 0B       		.uleb128 0xb
 1335 00d3 49       		.uleb128 0x49
 1336 00d4 13       		.uleb128 0x13
 1337 00d5 38       		.uleb128 0x38
 1338 00d6 0B       		.uleb128 0xb
 1339 00d7 00       		.byte	0
 1340 00d8 00       		.byte	0
 1341 00d9 13       		.uleb128 0x13
 1342 00da 13       		.uleb128 0x13
 1343 00db 01       		.byte	0x1
 1344 00dc 03       		.uleb128 0x3
 1345 00dd 0E       		.uleb128 0xe
 1346 00de 0B       		.uleb128 0xb
 1347 00df 05       		.uleb128 0x5
 1348 00e0 3A       		.uleb128 0x3a
 1349 00e1 0B       		.uleb128 0xb
 1350 00e2 3B       		.uleb128 0x3b
 1351 00e3 0B       		.uleb128 0xb
 1352 00e4 01       		.uleb128 0x1
 1353 00e5 13       		.uleb128 0x13
 1354 00e6 00       		.byte	0
 1355 00e7 00       		.byte	0
 1356 00e8 14       		.uleb128 0x14
 1357 00e9 0D       		.uleb128 0xd
 1358 00ea 00       		.byte	0
 1359 00eb 03       		.uleb128 0x3
 1360 00ec 0E       		.uleb128 0xe
 1361 00ed 3A       		.uleb128 0x3a
 1362 00ee 0B       		.uleb128 0xb
 1363 00ef 3B       		.uleb128 0x3b
 1364 00f0 0B       		.uleb128 0xb
 1365 00f1 49       		.uleb128 0x49
 1366 00f2 13       		.uleb128 0x13
 1367 00f3 38       		.uleb128 0x38
 1368 00f4 05       		.uleb128 0x5
ARM GAS  C:\Users\anashi\AppData\Local\Temp\ccYYZBJq.s 			page 25


 1369 00f5 00       		.byte	0
 1370 00f6 00       		.byte	0
 1371 00f7 15       		.uleb128 0x15
 1372 00f8 15       		.uleb128 0x15
 1373 00f9 00       		.byte	0
 1374 00fa 27       		.uleb128 0x27
 1375 00fb 19       		.uleb128 0x19
 1376 00fc 00       		.byte	0
 1377 00fd 00       		.byte	0
 1378 00fe 16       		.uleb128 0x16
 1379 00ff 15       		.uleb128 0x15
 1380 0100 01       		.byte	0x1
 1381 0101 27       		.uleb128 0x27
 1382 0102 19       		.uleb128 0x19
 1383 0103 49       		.uleb128 0x49
 1384 0104 13       		.uleb128 0x13
 1385 0105 01       		.uleb128 0x1
 1386 0106 13       		.uleb128 0x13
 1387 0107 00       		.byte	0
 1388 0108 00       		.byte	0
 1389 0109 17       		.uleb128 0x17
 1390 010a 05       		.uleb128 0x5
 1391 010b 00       		.byte	0
 1392 010c 49       		.uleb128 0x49
 1393 010d 13       		.uleb128 0x13
 1394 010e 00       		.byte	0
 1395 010f 00       		.byte	0
 1396 0110 18       		.uleb128 0x18
 1397 0111 13       		.uleb128 0x13
 1398 0112 01       		.byte	0x1
 1399 0113 03       		.uleb128 0x3
 1400 0114 0E       		.uleb128 0xe
 1401 0115 0B       		.uleb128 0xb
 1402 0116 05       		.uleb128 0x5
 1403 0117 3A       		.uleb128 0x3a
 1404 0118 0B       		.uleb128 0xb
 1405 0119 3B       		.uleb128 0x3b
 1406 011a 05       		.uleb128 0x5
 1407 011b 01       		.uleb128 0x1
 1408 011c 13       		.uleb128 0x13
 1409 011d 00       		.byte	0
 1410 011e 00       		.byte	0
 1411 011f 19       		.uleb128 0x19
 1412 0120 0D       		.uleb128 0xd
 1413 0121 00       		.byte	0
 1414 0122 03       		.uleb128 0x3
 1415 0123 0E       		.uleb128 0xe
 1416 0124 3A       		.uleb128 0x3a
 1417 0125 0B       		.uleb128 0xb
 1418 0126 3B       		.uleb128 0x3b
 1419 0127 05       		.uleb128 0x5
 1420 0128 49       		.uleb128 0x49
 1421 0129 13       		.uleb128 0x13
 1422 012a 38       		.uleb128 0x38
 1423 012b 0B       		.uleb128 0xb
 1424 012c 00       		.byte	0
 1425 012d 00       		.byte	0
ARM GAS  C:\Users\anashi\AppData\Local\Temp\ccYYZBJq.s 			page 26


 1426 012e 1A       		.uleb128 0x1a
 1427 012f 0D       		.uleb128 0xd
 1428 0130 00       		.byte	0
 1429 0131 03       		.uleb128 0x3
 1430 0132 0E       		.uleb128 0xe
 1431 0133 3A       		.uleb128 0x3a
 1432 0134 0B       		.uleb128 0xb
 1433 0135 3B       		.uleb128 0x3b
 1434 0136 05       		.uleb128 0x5
 1435 0137 49       		.uleb128 0x49
 1436 0138 13       		.uleb128 0x13
 1437 0139 38       		.uleb128 0x38
 1438 013a 05       		.uleb128 0x5
 1439 013b 00       		.byte	0
 1440 013c 00       		.byte	0
 1441 013d 1B       		.uleb128 0x1b
 1442 013e 13       		.uleb128 0x13
 1443 013f 01       		.byte	0x1
 1444 0140 03       		.uleb128 0x3
 1445 0141 0E       		.uleb128 0xe
 1446 0142 0B       		.uleb128 0xb
 1447 0143 0B       		.uleb128 0xb
 1448 0144 3A       		.uleb128 0x3a
 1449 0145 0B       		.uleb128 0xb
 1450 0146 3B       		.uleb128 0x3b
 1451 0147 05       		.uleb128 0x5
 1452 0148 01       		.uleb128 0x1
 1453 0149 13       		.uleb128 0x13
 1454 014a 00       		.byte	0
 1455 014b 00       		.byte	0
 1456 014c 1C       		.uleb128 0x1c
 1457 014d 13       		.uleb128 0x13
 1458 014e 01       		.byte	0x1
 1459 014f 0B       		.uleb128 0xb
 1460 0150 0B       		.uleb128 0xb
 1461 0151 3A       		.uleb128 0x3a
 1462 0152 0B       		.uleb128 0xb
 1463 0153 3B       		.uleb128 0x3b
 1464 0154 05       		.uleb128 0x5
 1465 0155 01       		.uleb128 0x1
 1466 0156 13       		.uleb128 0x13
 1467 0157 00       		.byte	0
 1468 0158 00       		.byte	0
 1469 0159 1D       		.uleb128 0x1d
 1470 015a 17       		.uleb128 0x17
 1471 015b 01       		.byte	0x1
 1472 015c 0B       		.uleb128 0xb
 1473 015d 0B       		.uleb128 0xb
 1474 015e 3A       		.uleb128 0x3a
 1475 015f 0B       		.uleb128 0xb
 1476 0160 3B       		.uleb128 0x3b
 1477 0161 05       		.uleb128 0x5
 1478 0162 01       		.uleb128 0x1
 1479 0163 13       		.uleb128 0x13
 1480 0164 00       		.byte	0
 1481 0165 00       		.byte	0
 1482 0166 1E       		.uleb128 0x1e
ARM GAS  C:\Users\anashi\AppData\Local\Temp\ccYYZBJq.s 			page 27


 1483 0167 0D       		.uleb128 0xd
 1484 0168 00       		.byte	0
 1485 0169 03       		.uleb128 0x3
 1486 016a 0E       		.uleb128 0xe
 1487 016b 3A       		.uleb128 0x3a
 1488 016c 0B       		.uleb128 0xb
 1489 016d 3B       		.uleb128 0x3b
 1490 016e 05       		.uleb128 0x5
 1491 016f 49       		.uleb128 0x49
 1492 0170 13       		.uleb128 0x13
 1493 0171 00       		.byte	0
 1494 0172 00       		.byte	0
 1495 0173 1F       		.uleb128 0x1f
 1496 0174 15       		.uleb128 0x15
 1497 0175 01       		.byte	0x1
 1498 0176 27       		.uleb128 0x27
 1499 0177 19       		.uleb128 0x19
 1500 0178 01       		.uleb128 0x1
 1501 0179 13       		.uleb128 0x13
 1502 017a 00       		.byte	0
 1503 017b 00       		.byte	0
 1504 017c 20       		.uleb128 0x20
 1505 017d 34       		.uleb128 0x34
 1506 017e 00       		.byte	0
 1507 017f 03       		.uleb128 0x3
 1508 0180 0E       		.uleb128 0xe
 1509 0181 3A       		.uleb128 0x3a
 1510 0182 0B       		.uleb128 0xb
 1511 0183 3B       		.uleb128 0x3b
 1512 0184 05       		.uleb128 0x5
 1513 0185 49       		.uleb128 0x49
 1514 0186 13       		.uleb128 0x13
 1515 0187 3F       		.uleb128 0x3f
 1516 0188 19       		.uleb128 0x19
 1517 0189 3C       		.uleb128 0x3c
 1518 018a 19       		.uleb128 0x19
 1519 018b 00       		.byte	0
 1520 018c 00       		.byte	0
 1521 018d 00       		.byte	0
 1522              		.section	.debug_aranges,"",%progbits
 1523 0000 14000000 		.4byte	0x14
 1524 0004 0200     		.2byte	0x2
 1525 0006 00000000 		.4byte	.Ldebug_info0
 1526 000a 04       		.byte	0x4
 1527 000b 00       		.byte	0
 1528 000c 0000     		.2byte	0
 1529 000e 0000     		.2byte	0
 1530 0010 00000000 		.4byte	0
 1531 0014 00000000 		.4byte	0
 1532              		.section	.debug_macro,"",%progbits
 1533              	.Ldebug_macro0:
 1534 0000 0400     		.2byte	0x4
 1535 0002 02       		.byte	0x2
 1536 0003 00000000 		.4byte	.Ldebug_line0
 1537 0007 07       		.byte	0x7
 1538 0008 00000000 		.4byte	.Ldebug_macro1
 1539              		.file 8 "C:/repos/rs2all/board/Drivers/STM32F0xx_HAL_Driver/Src/stm32f0xx_hal_pwr_ex.c"
ARM GAS  C:\Users\anashi\AppData\Local\Temp\ccYYZBJq.s 			page 28


 1540 000c 03       		.byte	0x3
 1541 000d 00       		.uleb128 0
 1542 000e 08       		.uleb128 0x8
 1543              		.file 9 "C:/repos/rs2all/board/Drivers/STM32F0xx_HAL_Driver/Inc/stm32f0xx_hal.h"
 1544 000f 03       		.byte	0x3
 1545 0010 2A       		.uleb128 0x2a
 1546 0011 09       		.uleb128 0x9
 1547 0012 05       		.byte	0x5
 1548 0013 27       		.uleb128 0x27
 1549 0014 00EA0000 		.4byte	.LASF442
 1550              		.file 10 "C:/repos/rs2all/board/Core/Inc/stm32f0xx_hal_conf.h"
 1551 0018 03       		.byte	0x3
 1552 0019 2E       		.uleb128 0x2e
 1553 001a 0A       		.uleb128 0xa
 1554 001b 07       		.byte	0x7
 1555 001c 00000000 		.4byte	.Ldebug_macro2
 1556              		.file 11 "C:/repos/rs2all/board/Drivers/STM32F0xx_HAL_Driver/Inc/stm32f0xx_hal_rcc.h"
 1557 0020 03       		.byte	0x3
 1558 0021 C101     		.uleb128 0xc1
 1559 0023 0B       		.uleb128 0xb
 1560 0024 05       		.byte	0x5
 1561 0025 26       		.uleb128 0x26
 1562 0026 BC2A0000 		.4byte	.LASF471
 1563              		.file 12 "C:/repos/rs2all/board/Drivers/STM32F0xx_HAL_Driver/Inc/stm32f0xx_hal_def.h"
 1564 002a 03       		.byte	0x3
 1565 002b 2D       		.uleb128 0x2d
 1566 002c 0C       		.uleb128 0xc
 1567 002d 05       		.byte	0x5
 1568 002e 27       		.uleb128 0x27
 1569 002f 54870000 		.4byte	.LASF472
 1570              		.file 13 "C:/repos/rs2all/board/Drivers/CMSIS/Device/ST/STM32F0xx/Include/stm32f0xx.h"
 1571 0033 03       		.byte	0x3
 1572 0034 2E       		.uleb128 0x2e
 1573 0035 0D       		.uleb128 0xd
 1574 0036 07       		.byte	0x7
 1575 0037 00000000 		.4byte	.Ldebug_macro3
 1576              		.file 14 "C:/repos/rs2all/board/Drivers/CMSIS/Device/ST/STM32F0xx/Include/stm32f030x6.h"
 1577 003b 03       		.byte	0x3
 1578 003c 8501     		.uleb128 0x85
 1579 003e 0E       		.uleb128 0xe
 1580 003f 07       		.byte	0x7
 1581 0040 00000000 		.4byte	.Ldebug_macro4
 1582              		.file 15 "C:/repos/rs2all/board/Drivers/CMSIS/Include/core_cm0.h"
 1583 0044 03       		.byte	0x3
 1584 0045 78       		.uleb128 0x78
 1585 0046 0F       		.uleb128 0xf
 1586 0047 05       		.byte	0x5
 1587 0048 2A       		.uleb128 0x2a
 1588 0049 DFF40200 		.4byte	.LASF485
 1589              		.file 16 "c:\\st\\stm32cubeide_1.1.0\\stm32cubeide\\plugins\\com.st.stm32cube.ide.mcu.externaltool
 1590 004d 03       		.byte	0x3
 1591 004e 2C       		.uleb128 0x2c
 1592 004f 10       		.uleb128 0x10
 1593              		.file 17 "c:\\st\\stm32cubeide_1.1.0\\stm32cubeide\\plugins\\com.st.stm32cube.ide.mcu.externaltool
 1594 0050 03       		.byte	0x3
 1595 0051 09       		.uleb128 0x9
 1596 0052 11       		.uleb128 0x11
ARM GAS  C:\Users\anashi\AppData\Local\Temp\ccYYZBJq.s 			page 29


 1597 0053 05       		.byte	0x5
 1598 0054 0A       		.uleb128 0xa
 1599 0055 8C8A0100 		.4byte	.LASF486
 1600 0059 03       		.byte	0x3
 1601 005a 0C       		.uleb128 0xc
 1602 005b 01       		.uleb128 0x1
 1603 005c 05       		.byte	0x5
 1604 005d 06       		.uleb128 0x6
 1605 005e 699B0300 		.4byte	.LASF487
 1606              		.file 18 "c:\\st\\stm32cubeide_1.1.0\\stm32cubeide\\plugins\\com.st.stm32cube.ide.mcu.externaltool
 1607 0062 03       		.byte	0x3
 1608 0063 08       		.uleb128 0x8
 1609 0064 12       		.uleb128 0x12
 1610 0065 05       		.byte	0x5
 1611 0066 16       		.uleb128 0x16
 1612 0067 E00C0300 		.4byte	.LASF488
 1613              		.file 19 "c:\\st\\stm32cubeide_1.1.0\\stm32cubeide\\plugins\\com.st.stm32cube.ide.mcu.externaltool
 1614 006b 03       		.byte	0x3
 1615 006c 1C       		.uleb128 0x1c
 1616 006d 13       		.uleb128 0x13
 1617 006e 07       		.byte	0x7
 1618 006f 00000000 		.4byte	.Ldebug_macro5
 1619 0073 04       		.byte	0x4
 1620 0074 07       		.byte	0x7
 1621 0075 00000000 		.4byte	.Ldebug_macro6
 1622 0079 04       		.byte	0x4
 1623 007a 07       		.byte	0x7
 1624 007b 00000000 		.4byte	.Ldebug_macro7
 1625 007f 04       		.byte	0x4
 1626              		.file 20 "c:\\st\\stm32cubeide_1.1.0\\stm32cubeide\\plugins\\com.st.stm32cube.ide.mcu.externaltool
 1627 0080 03       		.byte	0x3
 1628 0081 0D       		.uleb128 0xd
 1629 0082 14       		.uleb128 0x14
 1630 0083 07       		.byte	0x7
 1631 0084 00000000 		.4byte	.Ldebug_macro8
 1632 0088 04       		.byte	0x4
 1633 0089 03       		.byte	0x3
 1634 008a 0E       		.uleb128 0xe
 1635 008b 02       		.uleb128 0x2
 1636 008c 07       		.byte	0x7
 1637 008d 00000000 		.4byte	.Ldebug_macro9
 1638 0091 04       		.byte	0x4
 1639 0092 07       		.byte	0x7
 1640 0093 00000000 		.4byte	.Ldebug_macro10
 1641 0097 04       		.byte	0x4
 1642 0098 05       		.byte	0x5
 1643 0099 0D       		.uleb128 0xd
 1644 009a 6D6D0100 		.4byte	.LASF641
 1645 009e 04       		.byte	0x4
 1646 009f 07       		.byte	0x7
 1647 00a0 00000000 		.4byte	.Ldebug_macro11
 1648              		.file 21 "C:/repos/rs2all/board/Drivers/CMSIS/Include/core_cmInstr.h"
 1649 00a4 03       		.byte	0x3
 1650 00a5 A301     		.uleb128 0xa3
 1651 00a7 15       		.uleb128 0x15
 1652 00a8 05       		.byte	0x5
 1653 00a9 2A       		.uleb128 0x2a
ARM GAS  C:\Users\anashi\AppData\Local\Temp\ccYYZBJq.s 			page 30


 1654 00aa 53770000 		.4byte	.LASF650
 1655              		.file 22 "C:/repos/rs2all/board/Drivers/CMSIS/Include/cmsis_gcc.h"
 1656 00ae 03       		.byte	0x3
 1657 00af 3D       		.uleb128 0x3d
 1658 00b0 16       		.uleb128 0x16
 1659 00b1 07       		.byte	0x7
 1660 00b2 00000000 		.4byte	.Ldebug_macro12
 1661 00b6 04       		.byte	0x4
 1662 00b7 04       		.byte	0x4
 1663              		.file 23 "C:/repos/rs2all/board/Drivers/CMSIS/Include/core_cmFunc.h"
 1664 00b8 03       		.byte	0x3
 1665 00b9 A401     		.uleb128 0xa4
 1666 00bb 17       		.uleb128 0x17
 1667 00bc 05       		.byte	0x5
 1668 00bd 2A       		.uleb128 0x2a
 1669 00be BE120100 		.4byte	.LASF656
 1670 00c2 04       		.byte	0x4
 1671 00c3 07       		.byte	0x7
 1672 00c4 00000000 		.4byte	.Ldebug_macro13
 1673 00c8 04       		.byte	0x4
 1674 00c9 03       		.byte	0x3
 1675 00ca 79       		.uleb128 0x79
 1676 00cb 03       		.uleb128 0x3
 1677 00cc 05       		.byte	0x5
 1678 00cd 30       		.uleb128 0x30
 1679 00ce 51EA0100 		.4byte	.LASF768
 1680 00d2 04       		.byte	0x4
 1681 00d3 07       		.byte	0x7
 1682 00d4 00000000 		.4byte	.Ldebug_macro14
 1683 00d8 04       		.byte	0x4
 1684 00d9 07       		.byte	0x7
 1685 00da 00000000 		.4byte	.Ldebug_macro15
 1686 00de 03       		.byte	0x3
 1687 00df DE01     		.uleb128 0xde
 1688 00e1 09       		.uleb128 0x9
 1689 00e2 04       		.byte	0x4
 1690 00e3 04       		.byte	0x4
 1691              		.file 24 "c:\\st\\stm32cubeide_1.1.0\\stm32cubeide\\plugins\\com.st.stm32cube.ide.mcu.externaltool
 1692 00e4 03       		.byte	0x3
 1693 00e5 32       		.uleb128 0x32
 1694 00e6 18       		.uleb128 0x18
 1695 00e7 05       		.byte	0x5
 1696 00e8 1B       		.uleb128 0x1b
 1697 00e9 181C0100 		.4byte	.LASF4829
 1698              		.file 25 "c:\\st\\stm32cubeide_1.1.0\\stm32cubeide\\plugins\\com.st.stm32cube.ide.mcu.externaltool
 1699 00ed 03       		.byte	0x3
 1700 00ee 1D       		.uleb128 0x1d
 1701 00ef 19       		.uleb128 0x19
 1702 00f0 05       		.byte	0x5
 1703 00f1 08       		.uleb128 0x8
 1704 00f2 2C7D0200 		.4byte	.LASF4830
 1705              		.file 26 "c:\\st\\stm32cubeide_1.1.0\\stm32cubeide\\plugins\\com.st.stm32cube.ide.mcu.externaltool
 1706 00f6 03       		.byte	0x3
 1707 00f7 0A       		.uleb128 0xa
 1708 00f8 1A       		.uleb128 0x1a
 1709 00f9 07       		.byte	0x7
 1710 00fa 00000000 		.4byte	.Ldebug_macro16
ARM GAS  C:\Users\anashi\AppData\Local\Temp\ccYYZBJq.s 			page 31


 1711 00fe 04       		.byte	0x4
 1712              		.file 27 "c:\\st\\stm32cubeide_1.1.0\\stm32cubeide\\plugins\\com.st.stm32cube.ide.mcu.externaltool
 1713 00ff 03       		.byte	0x3
 1714 0100 0B       		.uleb128 0xb
 1715 0101 1B       		.uleb128 0x1b
 1716 0102 05       		.byte	0x5
 1717 0103 02       		.uleb128 0x2
 1718 0104 99500100 		.4byte	.LASF4846
 1719              		.file 28 "c:\\st\\stm32cubeide_1.1.0\\stm32cubeide\\plugins\\com.st.stm32cube.ide.mcu.externaltool
 1720 0108 03       		.byte	0x3
 1721 0109 04       		.uleb128 0x4
 1722 010a 1C       		.uleb128 0x1c
 1723 010b 07       		.byte	0x7
 1724 010c 00000000 		.4byte	.Ldebug_macro17
 1725 0110 04       		.byte	0x4
 1726 0111 07       		.byte	0x7
 1727 0112 00000000 		.4byte	.Ldebug_macro18
 1728 0116 04       		.byte	0x4
 1729 0117 07       		.byte	0x7
 1730 0118 00000000 		.4byte	.Ldebug_macro19
 1731 011c 04       		.byte	0x4
 1732 011d 07       		.byte	0x7
 1733 011e 00000000 		.4byte	.Ldebug_macro20
 1734              		.file 29 "c:\\st\\stm32cubeide_1.1.0\\stm32cubeide\\plugins\\com.st.stm32cube.ide.mcu.externaltool
 1735 0122 03       		.byte	0x3
 1736 0123 23       		.uleb128 0x23
 1737 0124 1D       		.uleb128 0x1d
 1738 0125 05       		.byte	0x5
 1739 0126 29       		.uleb128 0x29
 1740 0127 649A0000 		.4byte	.LASF4868
 1741 012b 03       		.byte	0x3
 1742 012c 2D       		.uleb128 0x2d
 1743 012d 06       		.uleb128 0x6
 1744 012e 07       		.byte	0x7
 1745 012f 00000000 		.4byte	.Ldebug_macro21
 1746 0133 04       		.byte	0x4
 1747 0134 07       		.byte	0x7
 1748 0135 00000000 		.4byte	.Ldebug_macro22
 1749 0139 04       		.byte	0x4
 1750 013a 03       		.byte	0x3
 1751 013b 24       		.uleb128 0x24
 1752 013c 06       		.uleb128 0x6
 1753 013d 07       		.byte	0x7
 1754 013e 00000000 		.4byte	.Ldebug_macro23
 1755 0142 04       		.byte	0x4
 1756 0143 05       		.byte	0x5
 1757 0144 27       		.uleb128 0x27
 1758 0145 3BAE0200 		.4byte	.LASF5042
 1759              		.file 30 "c:\\st\\stm32cubeide_1.1.0\\stm32cubeide\\plugins\\com.st.stm32cube.ide.mcu.externaltool
 1760 0149 03       		.byte	0x3
 1761 014a 28       		.uleb128 0x28
 1762 014b 1E       		.uleb128 0x1e
 1763 014c 07       		.byte	0x7
 1764 014d 00000000 		.4byte	.Ldebug_macro24
 1765 0151 04       		.byte	0x4
 1766 0152 05       		.byte	0x5
 1767 0153 2F       		.uleb128 0x2f
ARM GAS  C:\Users\anashi\AppData\Local\Temp\ccYYZBJq.s 			page 32


 1768 0154 C9620300 		.4byte	.LASF5045
 1769 0158 03       		.byte	0x3
 1770 0159 3C       		.uleb128 0x3c
 1771 015a 07       		.uleb128 0x7
 1772 015b 05       		.byte	0x5
 1773 015c 0B       		.uleb128 0xb
 1774 015d EF210200 		.4byte	.LASF5046
 1775 0161 03       		.byte	0x3
 1776 0162 0D       		.uleb128 0xd
 1777 0163 19       		.uleb128 0x19
 1778 0164 04       		.byte	0x4
 1779 0165 03       		.byte	0x3
 1780 0166 0E       		.uleb128 0xe
 1781 0167 06       		.uleb128 0x6
 1782 0168 04       		.byte	0x4
 1783 0169 03       		.byte	0x3
 1784 016a 0F       		.uleb128 0xf
 1785 016b 05       		.uleb128 0x5
 1786 016c 05       		.byte	0x5
 1787 016d 14       		.uleb128 0x14
 1788 016e EA1F0200 		.4byte	.LASF5047
 1789              		.file 31 "c:\\st\\stm32cubeide_1.1.0\\stm32cubeide\\plugins\\com.st.stm32cube.ide.mcu.externaltool
 1790 0172 03       		.byte	0x3
 1791 0173 18       		.uleb128 0x18
 1792 0174 1F       		.uleb128 0x1f
 1793 0175 05       		.byte	0x5
 1794 0176 06       		.uleb128 0x6
 1795 0177 5D040300 		.4byte	.LASF5048
 1796 017b 04       		.byte	0x4
 1797 017c 03       		.byte	0x3
 1798 017d 19       		.uleb128 0x19
 1799 017e 04       		.uleb128 0x4
 1800 017f 07       		.byte	0x7
 1801 0180 00000000 		.4byte	.Ldebug_macro25
 1802 0184 04       		.byte	0x4
 1803 0185 07       		.byte	0x7
 1804 0186 00000000 		.4byte	.Ldebug_macro26
 1805 018a 03       		.byte	0x3
 1806 018b 9F01     		.uleb128 0x9f
 1807 018d 06       		.uleb128 0x6
 1808 018e 07       		.byte	0x7
 1809 018f 00000000 		.4byte	.Ldebug_macro27
 1810 0193 04       		.byte	0x4
 1811 0194 07       		.byte	0x7
 1812 0195 00000000 		.4byte	.Ldebug_macro28
 1813 0199 04       		.byte	0x4
 1814 019a 07       		.byte	0x7
 1815 019b 00000000 		.4byte	.Ldebug_macro29
 1816 019f 04       		.byte	0x4
 1817              		.file 32 "c:\\st\\stm32cubeide_1.1.0\\stm32cubeide\\plugins\\com.st.stm32cube.ide.mcu.externaltool
 1818 01a0 03       		.byte	0x3
 1819 01a1 3D       		.uleb128 0x3d
 1820 01a2 20       		.uleb128 0x20
 1821 01a3 07       		.byte	0x7
 1822 01a4 00000000 		.4byte	.Ldebug_macro30
 1823 01a8 03       		.byte	0x3
 1824 01a9 3E       		.uleb128 0x3e
ARM GAS  C:\Users\anashi\AppData\Local\Temp\ccYYZBJq.s 			page 33


 1825 01aa 06       		.uleb128 0x6
 1826 01ab 04       		.byte	0x4
 1827              		.file 33 "c:\\st\\stm32cubeide_1.1.0\\stm32cubeide\\plugins\\com.st.stm32cube.ide.mcu.externaltool
 1828 01ac 03       		.byte	0x3
 1829 01ad 43       		.uleb128 0x43
 1830 01ae 21       		.uleb128 0x21
 1831 01af 05       		.byte	0x5
 1832 01b0 02       		.uleb128 0x2
 1833 01b1 62110400 		.4byte	.LASF5131
 1834              		.file 34 "c:\\st\\stm32cubeide_1.1.0\\stm32cubeide\\plugins\\com.st.stm32cube.ide.mcu.externaltool
 1835 01b5 03       		.byte	0x3
 1836 01b6 06       		.uleb128 0x6
 1837 01b7 22       		.uleb128 0x22
 1838 01b8 07       		.byte	0x7
 1839 01b9 00000000 		.4byte	.Ldebug_macro31
 1840 01bd 04       		.byte	0x4
 1841 01be 07       		.byte	0x7
 1842 01bf 00000000 		.4byte	.Ldebug_macro32
 1843 01c3 04       		.byte	0x4
 1844              		.file 35 "c:\\st\\stm32cubeide_1.1.0\\stm32cubeide\\plugins\\com.st.stm32cube.ide.mcu.externaltool
 1845 01c4 03       		.byte	0x3
 1846 01c5 44       		.uleb128 0x44
 1847 01c6 23       		.uleb128 0x23
 1848 01c7 05       		.byte	0x5
 1849 01c8 02       		.uleb128 0x2
 1850 01c9 D87F0100 		.4byte	.LASF5149
 1851              		.file 36 "c:\\st\\stm32cubeide_1.1.0\\stm32cubeide\\plugins\\com.st.stm32cube.ide.mcu.externaltool
 1852 01cd 03       		.byte	0x3
 1853 01ce 0E       		.uleb128 0xe
 1854 01cf 24       		.uleb128 0x24
 1855 01d0 05       		.byte	0x5
 1856 01d1 27       		.uleb128 0x27
 1857 01d2 D4D50200 		.4byte	.LASF5150
 1858 01d6 04       		.byte	0x4
 1859              		.file 37 "c:\\st\\stm32cubeide_1.1.0\\stm32cubeide\\plugins\\com.st.stm32cube.ide.mcu.externaltool
 1860 01d7 03       		.byte	0x3
 1861 01d8 0F       		.uleb128 0xf
 1862 01d9 25       		.uleb128 0x25
 1863 01da 07       		.byte	0x7
 1864 01db 00000000 		.4byte	.Ldebug_macro33
 1865 01df 04       		.byte	0x4
 1866              		.file 38 "c:\\st\\stm32cubeide_1.1.0\\stm32cubeide\\plugins\\com.st.stm32cube.ide.mcu.externaltool
 1867 01e0 03       		.byte	0x3
 1868 01e1 10       		.uleb128 0x10
 1869 01e2 26       		.uleb128 0x26
 1870 01e3 05       		.byte	0x5
 1871 01e4 23       		.uleb128 0x23
 1872 01e5 24730400 		.4byte	.LASF5161
 1873              		.file 39 "c:\\st\\stm32cubeide_1.1.0\\stm32cubeide\\plugins\\com.st.stm32cube.ide.mcu.externaltool
 1874 01e9 03       		.byte	0x3
 1875 01ea 26       		.uleb128 0x26
 1876 01eb 27       		.uleb128 0x27
 1877 01ec 05       		.byte	0x5
 1878 01ed 23       		.uleb128 0x23
 1879 01ee 212F0000 		.4byte	.LASF5162
 1880 01f2 04       		.byte	0x4
 1881 01f3 07       		.byte	0x7
ARM GAS  C:\Users\anashi\AppData\Local\Temp\ccYYZBJq.s 			page 34


 1882 01f4 00000000 		.4byte	.Ldebug_macro34
 1883 01f8 04       		.byte	0x4
 1884 01f9 07       		.byte	0x7
 1885 01fa 00000000 		.4byte	.Ldebug_macro35
 1886 01fe 04       		.byte	0x4
 1887 01ff 07       		.byte	0x7
 1888 0200 00000000 		.4byte	.Ldebug_macro36
 1889              		.file 40 "c:\\st\\stm32cubeide_1.1.0\\stm32cubeide\\plugins\\com.st.stm32cube.ide.mcu.externaltool
 1890 0204 03       		.byte	0x3
 1891 0205 EF01     		.uleb128 0xef
 1892 0207 28       		.uleb128 0x28
 1893 0208 05       		.byte	0x5
 1894 0209 13       		.uleb128 0x13
 1895 020a 13510200 		.4byte	.LASF5207
 1896              		.file 41 "c:\\st\\stm32cubeide_1.1.0\\stm32cubeide\\plugins\\com.st.stm32cube.ide.mcu.externaltool
 1897 020e 03       		.byte	0x3
 1898 020f 17       		.uleb128 0x17
 1899 0210 29       		.uleb128 0x29
 1900 0211 07       		.byte	0x7
 1901 0212 00000000 		.4byte	.Ldebug_macro37
 1902 0216 04       		.byte	0x4
 1903 0217 07       		.byte	0x7
 1904 0218 00000000 		.4byte	.Ldebug_macro38
 1905 021c 04       		.byte	0x4
 1906              		.file 42 "c:\\st\\stm32cubeide_1.1.0\\stm32cubeide\\plugins\\com.st.stm32cube.ide.mcu.externaltool
 1907 021d 03       		.byte	0x3
 1908 021e F001     		.uleb128 0xf0
 1909 0220 2A       		.uleb128 0x2a
 1910 0221 04       		.byte	0x4
 1911 0222 06       		.byte	0x6
 1912 0223 F401     		.uleb128 0xf4
 1913 0225 25360200 		.4byte	.LASF5221
 1914 0229 04       		.byte	0x4
 1915 022a 05       		.byte	0x5
 1916 022b 43       		.uleb128 0x43
 1917 022c 92320100 		.4byte	.LASF5222
 1918              		.file 43 "c:\\st\\stm32cubeide_1.1.0\\stm32cubeide\\plugins\\com.st.stm32cube.ide.mcu.externaltool
 1919 0230 03       		.byte	0x3
 1920 0231 4F       		.uleb128 0x4f
 1921 0232 2B       		.uleb128 0x2b
 1922 0233 07       		.byte	0x7
 1923 0234 00000000 		.4byte	.Ldebug_macro39
 1924 0238 04       		.byte	0x4
 1925 0239 07       		.byte	0x7
 1926 023a 00000000 		.4byte	.Ldebug_macro40
 1927 023e 04       		.byte	0x4
 1928 023f 07       		.byte	0x7
 1929 0240 00000000 		.4byte	.Ldebug_macro41
 1930 0244 04       		.byte	0x4
 1931 0245 07       		.byte	0x7
 1932 0246 00000000 		.4byte	.Ldebug_macro42
 1933              		.file 44 "C:/repos/rs2all/board/Drivers/STM32F0xx_HAL_Driver/Inc/stm32f0xx_hal_rcc_ex.h"
 1934 024a 03       		.byte	0x3
 1935 024b E90C     		.uleb128 0x669
 1936 024d 2C       		.uleb128 0x2c
 1937 024e 07       		.byte	0x7
 1938 024f 00000000 		.4byte	.Ldebug_macro43
ARM GAS  C:\Users\anashi\AppData\Local\Temp\ccYYZBJq.s 			page 35


 1939 0253 04       		.byte	0x4
 1940 0254 04       		.byte	0x4
 1941              		.file 45 "C:/repos/rs2all/board/Drivers/STM32F0xx_HAL_Driver/Inc/stm32f0xx_hal_gpio.h"
 1942 0255 03       		.byte	0x3
 1943 0256 C901     		.uleb128 0xc9
 1944 0258 2D       		.uleb128 0x2d
 1945 0259 07       		.byte	0x7
 1946 025a 00000000 		.4byte	.Ldebug_macro44
 1947              		.file 46 "C:/repos/rs2all/board/Drivers/STM32F0xx_HAL_Driver/Inc/stm32f0xx_hal_gpio_ex.h"
 1948 025e 03       		.byte	0x3
 1949 025f 8202     		.uleb128 0x102
 1950 0261 2E       		.uleb128 0x2e
 1951 0262 07       		.byte	0x7
 1952 0263 00000000 		.4byte	.Ldebug_macro45
 1953 0267 04       		.byte	0x4
 1954 0268 04       		.byte	0x4
 1955              		.file 47 "C:/repos/rs2all/board/Drivers/STM32F0xx_HAL_Driver/Inc/stm32f0xx_hal_dma.h"
 1956 0269 03       		.byte	0x3
 1957 026a CD01     		.uleb128 0xcd
 1958 026c 2F       		.uleb128 0x2f
 1959 026d 07       		.byte	0x7
 1960 026e 00000000 		.4byte	.Ldebug_macro46
 1961              		.file 48 "C:/repos/rs2all/board/Drivers/STM32F0xx_HAL_Driver/Inc/stm32f0xx_hal_dma_ex.h"
 1962 0272 03       		.byte	0x3
 1963 0273 C103     		.uleb128 0x1c1
 1964 0275 30       		.uleb128 0x30
 1965 0276 07       		.byte	0x7
 1966 0277 00000000 		.4byte	.Ldebug_macro47
 1967 027b 04       		.byte	0x4
 1968 027c 07       		.byte	0x7
 1969 027d 00000000 		.4byte	.Ldebug_macro48
 1970 0281 04       		.byte	0x4
 1971              		.file 49 "C:/repos/rs2all/board/Drivers/STM32F0xx_HAL_Driver/Inc/stm32f0xx_hal_cortex.h"
 1972 0282 03       		.byte	0x3
 1973 0283 D101     		.uleb128 0xd1
 1974 0285 31       		.uleb128 0x31
 1975 0286 07       		.byte	0x7
 1976 0287 00000000 		.4byte	.Ldebug_macro49
 1977 028b 04       		.byte	0x4
 1978              		.file 50 "C:/repos/rs2all/board/Drivers/STM32F0xx_HAL_Driver/Inc/stm32f0xx_hal_adc.h"
 1979 028c 03       		.byte	0x3
 1980 028d D501     		.uleb128 0xd5
 1981 028f 32       		.uleb128 0x32
 1982 0290 07       		.byte	0x7
 1983 0291 00000000 		.4byte	.Ldebug_macro50
 1984              		.file 51 "C:/repos/rs2all/board/Drivers/STM32F0xx_HAL_Driver/Inc/stm32f0xx_hal_adc_ex.h"
 1985 0295 03       		.byte	0x3
 1986 0296 F306     		.uleb128 0x373
 1987 0298 33       		.uleb128 0x33
 1988 0299 07       		.byte	0x7
 1989 029a 00000000 		.4byte	.Ldebug_macro51
 1990 029e 04       		.byte	0x4
 1991 029f 04       		.byte	0x4
 1992              		.file 52 "C:/repos/rs2all/board/Drivers/STM32F0xx_HAL_Driver/Inc/stm32f0xx_hal_flash.h"
 1993 02a0 03       		.byte	0x3
 1994 02a1 ED01     		.uleb128 0xed
 1995 02a3 34       		.uleb128 0x34
ARM GAS  C:\Users\anashi\AppData\Local\Temp\ccYYZBJq.s 			page 36


 1996 02a4 07       		.byte	0x7
 1997 02a5 00000000 		.4byte	.Ldebug_macro52
 1998              		.file 53 "C:/repos/rs2all/board/Drivers/STM32F0xx_HAL_Driver/Inc/stm32f0xx_hal_flash_ex.h"
 1999 02a9 03       		.byte	0x3
 2000 02aa A402     		.uleb128 0x124
 2001 02ac 35       		.uleb128 0x35
 2002 02ad 07       		.byte	0x7
 2003 02ae 00000000 		.4byte	.Ldebug_macro53
 2004 02b2 04       		.byte	0x4
 2005 02b3 04       		.byte	0x4
 2006              		.file 54 "C:/repos/rs2all/board/Drivers/STM32F0xx_HAL_Driver/Inc/stm32f0xx_hal_i2c.h"
 2007 02b4 03       		.byte	0x3
 2008 02b5 F101     		.uleb128 0xf1
 2009 02b7 36       		.uleb128 0x36
 2010 02b8 07       		.byte	0x7
 2011 02b9 00000000 		.4byte	.Ldebug_macro54
 2012              		.file 55 "C:/repos/rs2all/board/Drivers/STM32F0xx_HAL_Driver/Inc/stm32f0xx_hal_i2c_ex.h"
 2013 02bd 03       		.byte	0x3
 2014 02be 8404     		.uleb128 0x204
 2015 02c0 37       		.uleb128 0x37
 2016 02c1 07       		.byte	0x7
 2017 02c2 00000000 		.4byte	.Ldebug_macro55
 2018 02c6 04       		.byte	0x4
 2019 02c7 07       		.byte	0x7
 2020 02c8 00000000 		.4byte	.Ldebug_macro56
 2021 02cc 04       		.byte	0x4
 2022              		.file 56 "C:/repos/rs2all/board/Drivers/STM32F0xx_HAL_Driver/Inc/stm32f0xx_hal_pwr.h"
 2023 02cd 03       		.byte	0x3
 2024 02ce 8502     		.uleb128 0x105
 2025 02d0 38       		.uleb128 0x38
 2026 02d1 07       		.byte	0x7
 2027 02d2 00000000 		.4byte	.Ldebug_macro57
 2028              		.file 57 "C:/repos/rs2all/board/Drivers/STM32F0xx_HAL_Driver/Inc/stm32f0xx_hal_pwr_ex.h"
 2029 02d6 03       		.byte	0x3
 2030 02d7 8C01     		.uleb128 0x8c
 2031 02d9 39       		.uleb128 0x39
 2032 02da 07       		.byte	0x7
 2033 02db 00000000 		.4byte	.Ldebug_macro58
 2034 02df 04       		.byte	0x4
 2035 02e0 04       		.byte	0x4
 2036              		.file 58 "C:/repos/rs2all/board/Drivers/STM32F0xx_HAL_Driver/Inc/stm32f0xx_hal_tim.h"
 2037 02e1 03       		.byte	0x3
 2038 02e2 9902     		.uleb128 0x119
 2039 02e4 3A       		.uleb128 0x3a
 2040 02e5 07       		.byte	0x7
 2041 02e6 00000000 		.4byte	.Ldebug_macro59
 2042              		.file 59 "C:/repos/rs2all/board/Drivers/STM32F0xx_HAL_Driver/Inc/stm32f0xx_hal_tim_ex.h"
 2043 02ea 03       		.byte	0x3
 2044 02eb C20C     		.uleb128 0x642
 2045 02ed 3B       		.uleb128 0x3b
 2046 02ee 07       		.byte	0x7
 2047 02ef 00000000 		.4byte	.Ldebug_macro60
 2048 02f3 04       		.byte	0x4
 2049 02f4 04       		.byte	0x4
 2050              		.file 60 "C:/repos/rs2all/board/Drivers/STM32F0xx_HAL_Driver/Inc/stm32f0xx_hal_uart.h"
 2051 02f5 03       		.byte	0x3
 2052 02f6 A102     		.uleb128 0x121
ARM GAS  C:\Users\anashi\AppData\Local\Temp\ccYYZBJq.s 			page 37


 2053 02f8 3C       		.uleb128 0x3c
 2054 02f9 07       		.byte	0x7
 2055 02fa 00000000 		.4byte	.Ldebug_macro61
 2056              		.file 61 "C:/repos/rs2all/board/Drivers/STM32F0xx_HAL_Driver/Inc/stm32f0xx_hal_uart_ex.h"
 2057 02fe 03       		.byte	0x3
 2058 02ff F609     		.uleb128 0x4f6
 2059 0301 3D       		.uleb128 0x3d
 2060 0302 07       		.byte	0x7
 2061 0303 00000000 		.4byte	.Ldebug_macro62
 2062 0307 04       		.byte	0x4
 2063 0308 04       		.byte	0x4
 2064 0309 05       		.byte	0x5
 2065 030a BA02     		.uleb128 0x13a
 2066 030c FDC80300 		.4byte	.LASF6673
 2067 0310 04       		.byte	0x4
 2068 0311 07       		.byte	0x7
 2069 0312 00000000 		.4byte	.Ldebug_macro63
 2070 0316 04       		.byte	0x4
 2071 0317 05       		.byte	0x5
 2072 0318 3C       		.uleb128 0x3c
 2073 0319 D3FB0300 		.4byte	.LASF6707
 2074 031d 05       		.byte	0x5
 2075 031e 3D       		.uleb128 0x3d
 2076 031f 13900200 		.4byte	.LASF6708
 2077 0323 05       		.byte	0x5
 2078 0324 3E       		.uleb128 0x3e
 2079 0325 EC710100 		.4byte	.LASF6709
 2080 0329 05       		.byte	0x5
 2081 032a 3F       		.uleb128 0x3f
 2082 032b 188F0200 		.4byte	.LASF6710
 2083 032f 04       		.byte	0x4
 2084 0330 00       		.byte	0
 2085              		.section	.debug_macro,"G",%progbits,wm4.0.ae38051360458c331e24ed41262a0425,comdat
 2086              	.Ldebug_macro1:
 2087 0000 0400     		.2byte	0x4
 2088 0002 00       		.byte	0
 2089 0003 05       		.byte	0x5
 2090 0004 00       		.uleb128 0
 2091 0005 14210100 		.4byte	.LASF0
 2092 0009 05       		.byte	0x5
 2093 000a 00       		.uleb128 0
 2094 000b 81CD0200 		.4byte	.LASF1
 2095 000f 05       		.byte	0x5
 2096 0010 00       		.uleb128 0
 2097 0011 0F200300 		.4byte	.LASF2
 2098 0015 05       		.byte	0x5
 2099 0016 00       		.uleb128 0
 2100 0017 D81F0200 		.4byte	.LASF3
 2101 001b 05       		.byte	0x5
 2102 001c 00       		.uleb128 0
 2103 001d 67C70000 		.4byte	.LASF4
 2104 0021 05       		.byte	0x5
 2105 0022 00       		.uleb128 0
 2106 0023 63D20000 		.4byte	.LASF5
 2107 0027 05       		.byte	0x5
 2108 0028 00       		.uleb128 0
 2109 0029 37440300 		.4byte	.LASF6
ARM GAS  C:\Users\anashi\AppData\Local\Temp\ccYYZBJq.s 			page 38


 2110 002d 05       		.byte	0x5
 2111 002e 00       		.uleb128 0
 2112 002f 899D0000 		.4byte	.LASF7
 2113 0033 05       		.byte	0x5
 2114 0034 00       		.uleb128 0
 2115 0035 35F00000 		.4byte	.LASF8
 2116 0039 05       		.byte	0x5
 2117 003a 00       		.uleb128 0
 2118 003b 2C100000 		.4byte	.LASF9
 2119 003f 05       		.byte	0x5
 2120 0040 00       		.uleb128 0
 2121 0041 A6290300 		.4byte	.LASF10
 2122 0045 05       		.byte	0x5
 2123 0046 00       		.uleb128 0
 2124 0047 A50A0400 		.4byte	.LASF11
 2125 004b 05       		.byte	0x5
 2126 004c 00       		.uleb128 0
 2127 004d 4BC50100 		.4byte	.LASF12
 2128 0051 05       		.byte	0x5
 2129 0052 00       		.uleb128 0
 2130 0053 E3A80100 		.4byte	.LASF13
 2131 0057 05       		.byte	0x5
 2132 0058 00       		.uleb128 0
 2133 0059 1CBB0000 		.4byte	.LASF14
 2134 005d 05       		.byte	0x5
 2135 005e 00       		.uleb128 0
 2136 005f E98E0000 		.4byte	.LASF15
 2137 0063 05       		.byte	0x5
 2138 0064 00       		.uleb128 0
 2139 0065 DA480200 		.4byte	.LASF16
 2140 0069 05       		.byte	0x5
 2141 006a 00       		.uleb128 0
 2142 006b 58080400 		.4byte	.LASF17
 2143 006f 05       		.byte	0x5
 2144 0070 00       		.uleb128 0
 2145 0071 29F80300 		.4byte	.LASF18
 2146 0075 05       		.byte	0x5
 2147 0076 00       		.uleb128 0
 2148 0077 D4300400 		.4byte	.LASF19
 2149 007b 05       		.byte	0x5
 2150 007c 00       		.uleb128 0
 2151 007d 70660000 		.4byte	.LASF20
 2152 0081 05       		.byte	0x5
 2153 0082 00       		.uleb128 0
 2154 0083 B2CE0000 		.4byte	.LASF21
 2155 0087 05       		.byte	0x5
 2156 0088 00       		.uleb128 0
 2157 0089 055F0400 		.4byte	.LASF22
 2158 008d 05       		.byte	0x5
 2159 008e 00       		.uleb128 0
 2160 008f BD880200 		.4byte	.LASF23
 2161 0093 05       		.byte	0x5
 2162 0094 00       		.uleb128 0
 2163 0095 9B9D0300 		.4byte	.LASF24
 2164 0099 05       		.byte	0x5
 2165 009a 00       		.uleb128 0
 2166 009b D55D0400 		.4byte	.LASF25
ARM GAS  C:\Users\anashi\AppData\Local\Temp\ccYYZBJq.s 			page 39


 2167 009f 05       		.byte	0x5
 2168 00a0 00       		.uleb128 0
 2169 00a1 76A40300 		.4byte	.LASF26
 2170 00a5 05       		.byte	0x5
 2171 00a6 00       		.uleb128 0
 2172 00a7 0EBE0100 		.4byte	.LASF27
 2173 00ab 05       		.byte	0x5
 2174 00ac 00       		.uleb128 0
 2175 00ad 48520100 		.4byte	.LASF28
 2176 00b1 05       		.byte	0x5
 2177 00b2 00       		.uleb128 0
 2178 00b3 13080300 		.4byte	.LASF29
 2179 00b7 05       		.byte	0x5
 2180 00b8 00       		.uleb128 0
 2181 00b9 9A930100 		.4byte	.LASF30
 2182 00bd 05       		.byte	0x5
 2183 00be 00       		.uleb128 0
 2184 00bf A55B0200 		.4byte	.LASF31
 2185 00c3 05       		.byte	0x5
 2186 00c4 00       		.uleb128 0
 2187 00c5 5C4D0400 		.4byte	.LASF32
 2188 00c9 05       		.byte	0x5
 2189 00ca 00       		.uleb128 0
 2190 00cb 8BF20000 		.4byte	.LASF33
 2191 00cf 05       		.byte	0x5
 2192 00d0 00       		.uleb128 0
 2193 00d1 D6FD0200 		.4byte	.LASF34
 2194 00d5 05       		.byte	0x5
 2195 00d6 00       		.uleb128 0
 2196 00d7 E74C0200 		.4byte	.LASF35
 2197 00db 05       		.byte	0x5
 2198 00dc 00       		.uleb128 0
 2199 00dd C9CB0200 		.4byte	.LASF36
 2200 00e1 05       		.byte	0x5
 2201 00e2 00       		.uleb128 0
 2202 00e3 3D0A0200 		.4byte	.LASF37
 2203 00e7 05       		.byte	0x5
 2204 00e8 00       		.uleb128 0
 2205 00e9 D9570200 		.4byte	.LASF38
 2206 00ed 05       		.byte	0x5
 2207 00ee 00       		.uleb128 0
 2208 00ef D4B30200 		.4byte	.LASF39
 2209 00f3 05       		.byte	0x5
 2210 00f4 00       		.uleb128 0
 2211 00f5 D5590000 		.4byte	.LASF40
 2212 00f9 05       		.byte	0x5
 2213 00fa 00       		.uleb128 0
 2214 00fb 985E0300 		.4byte	.LASF41
 2215 00ff 05       		.byte	0x5
 2216 0100 00       		.uleb128 0
 2217 0101 322A0000 		.4byte	.LASF42
 2218 0105 05       		.byte	0x5
 2219 0106 00       		.uleb128 0
 2220 0107 87020000 		.4byte	.LASF43
 2221 010b 05       		.byte	0x5
 2222 010c 00       		.uleb128 0
 2223 010d 2BD20100 		.4byte	.LASF44
ARM GAS  C:\Users\anashi\AppData\Local\Temp\ccYYZBJq.s 			page 40


 2224 0111 05       		.byte	0x5
 2225 0112 00       		.uleb128 0
 2226 0113 FE3F0300 		.4byte	.LASF45
 2227 0117 05       		.byte	0x5
 2228 0118 00       		.uleb128 0
 2229 0119 A8920200 		.4byte	.LASF46
 2230 011d 05       		.byte	0x5
 2231 011e 00       		.uleb128 0
 2232 011f 49880200 		.4byte	.LASF47
 2233 0123 05       		.byte	0x5
 2234 0124 00       		.uleb128 0
 2235 0125 B18D0100 		.4byte	.LASF48
 2236 0129 05       		.byte	0x5
 2237 012a 00       		.uleb128 0
 2238 012b 3C6A0000 		.4byte	.LASF49
 2239 012f 05       		.byte	0x5
 2240 0130 00       		.uleb128 0
 2241 0131 FC6A0100 		.4byte	.LASF50
 2242 0135 05       		.byte	0x5
 2243 0136 00       		.uleb128 0
 2244 0137 30A60000 		.4byte	.LASF51
 2245 013b 05       		.byte	0x5
 2246 013c 00       		.uleb128 0
 2247 013d FEA50300 		.4byte	.LASF52
 2248 0141 05       		.byte	0x5
 2249 0142 00       		.uleb128 0
 2250 0143 C8B70100 		.4byte	.LASF53
 2251 0147 05       		.byte	0x5
 2252 0148 00       		.uleb128 0
 2253 0149 00F80300 		.4byte	.LASF54
 2254 014d 05       		.byte	0x5
 2255 014e 00       		.uleb128 0
 2256 014f BF3B0300 		.4byte	.LASF55
 2257 0153 05       		.byte	0x5
 2258 0154 00       		.uleb128 0
 2259 0155 A2180400 		.4byte	.LASF56
 2260 0159 05       		.byte	0x5
 2261 015a 00       		.uleb128 0
 2262 015b FBDE0300 		.4byte	.LASF57
 2263 015f 05       		.byte	0x5
 2264 0160 00       		.uleb128 0
 2265 0161 90900200 		.4byte	.LASF58
 2266 0165 05       		.byte	0x5
 2267 0166 00       		.uleb128 0
 2268 0167 9EE20200 		.4byte	.LASF59
 2269 016b 05       		.byte	0x5
 2270 016c 00       		.uleb128 0
 2271 016d 8AFF0200 		.4byte	.LASF60
 2272 0171 05       		.byte	0x5
 2273 0172 00       		.uleb128 0
 2274 0173 74780000 		.4byte	.LASF61
 2275 0177 05       		.byte	0x5
 2276 0178 00       		.uleb128 0
 2277 0179 493A0200 		.4byte	.LASF62
 2278 017d 05       		.byte	0x5
 2279 017e 00       		.uleb128 0
 2280 017f 797F0200 		.4byte	.LASF63
ARM GAS  C:\Users\anashi\AppData\Local\Temp\ccYYZBJq.s 			page 41


 2281 0183 05       		.byte	0x5
 2282 0184 00       		.uleb128 0
 2283 0185 D4D90200 		.4byte	.LASF64
 2284 0189 05       		.byte	0x5
 2285 018a 00       		.uleb128 0
 2286 018b E9460100 		.4byte	.LASF65
 2287 018f 05       		.byte	0x5
 2288 0190 00       		.uleb128 0
 2289 0191 B3D50300 		.4byte	.LASF66
 2290 0195 05       		.byte	0x5
 2291 0196 00       		.uleb128 0
 2292 0197 93D20300 		.4byte	.LASF67
 2293 019b 05       		.byte	0x5
 2294 019c 00       		.uleb128 0
 2295 019d 686F0400 		.4byte	.LASF68
 2296 01a1 05       		.byte	0x5
 2297 01a2 00       		.uleb128 0
 2298 01a3 274F0100 		.4byte	.LASF69
 2299 01a7 05       		.byte	0x5
 2300 01a8 00       		.uleb128 0
 2301 01a9 631D0000 		.4byte	.LASF70
 2302 01ad 05       		.byte	0x5
 2303 01ae 00       		.uleb128 0
 2304 01af DA060400 		.4byte	.LASF71
 2305 01b3 05       		.byte	0x5
 2306 01b4 00       		.uleb128 0
 2307 01b5 DB330200 		.4byte	.LASF72
 2308 01b9 05       		.byte	0x5
 2309 01ba 00       		.uleb128 0
 2310 01bb D9480400 		.4byte	.LASF73
 2311 01bf 05       		.byte	0x5
 2312 01c0 00       		.uleb128 0
 2313 01c1 DD050200 		.4byte	.LASF74
 2314 01c5 05       		.byte	0x5
 2315 01c6 00       		.uleb128 0
 2316 01c7 13800100 		.4byte	.LASF75
 2317 01cb 05       		.byte	0x5
 2318 01cc 00       		.uleb128 0
 2319 01cd 5E600300 		.4byte	.LASF76
 2320 01d1 05       		.byte	0x5
 2321 01d2 00       		.uleb128 0
 2322 01d3 FD6E0200 		.4byte	.LASF77
 2323 01d7 05       		.byte	0x5
 2324 01d8 00       		.uleb128 0
 2325 01d9 E5220000 		.4byte	.LASF78
 2326 01dd 05       		.byte	0x5
 2327 01de 00       		.uleb128 0
 2328 01df 96D30200 		.4byte	.LASF79
 2329 01e3 05       		.byte	0x5
 2330 01e4 00       		.uleb128 0
 2331 01e5 D80D0300 		.4byte	.LASF80
 2332 01e9 05       		.byte	0x5
 2333 01ea 00       		.uleb128 0
 2334 01eb EFC10300 		.4byte	.LASF81
 2335 01ef 05       		.byte	0x5
 2336 01f0 00       		.uleb128 0
 2337 01f1 98EE0000 		.4byte	.LASF82
ARM GAS  C:\Users\anashi\AppData\Local\Temp\ccYYZBJq.s 			page 42


 2338 01f5 05       		.byte	0x5
 2339 01f6 00       		.uleb128 0
 2340 01f7 42820200 		.4byte	.LASF83
 2341 01fb 05       		.byte	0x5
 2342 01fc 00       		.uleb128 0
 2343 01fd 75C80200 		.4byte	.LASF84
 2344 0201 05       		.byte	0x5
 2345 0202 00       		.uleb128 0
 2346 0203 8A1E0200 		.4byte	.LASF85
 2347 0207 05       		.byte	0x5
 2348 0208 00       		.uleb128 0
 2349 0209 411C0400 		.4byte	.LASF86
 2350 020d 05       		.byte	0x5
 2351 020e 00       		.uleb128 0
 2352 020f 8C600000 		.4byte	.LASF87
 2353 0213 05       		.byte	0x5
 2354 0214 00       		.uleb128 0
 2355 0215 B0270200 		.4byte	.LASF88
 2356 0219 05       		.byte	0x5
 2357 021a 00       		.uleb128 0
 2358 021b 7D6B0100 		.4byte	.LASF89
 2359 021f 05       		.byte	0x5
 2360 0220 00       		.uleb128 0
 2361 0221 68600000 		.4byte	.LASF90
 2362 0225 05       		.byte	0x5
 2363 0226 00       		.uleb128 0
 2364 0227 E31D0300 		.4byte	.LASF91
 2365 022b 05       		.byte	0x5
 2366 022c 00       		.uleb128 0
 2367 022d 9A210200 		.4byte	.LASF92
 2368 0231 05       		.byte	0x5
 2369 0232 00       		.uleb128 0
 2370 0233 F6F90300 		.4byte	.LASF93
 2371 0237 05       		.byte	0x5
 2372 0238 00       		.uleb128 0
 2373 0239 ADEA0100 		.4byte	.LASF94
 2374 023d 05       		.byte	0x5
 2375 023e 00       		.uleb128 0
 2376 023f EDC70000 		.4byte	.LASF95
 2377 0243 05       		.byte	0x5
 2378 0244 00       		.uleb128 0
 2379 0245 6FD70200 		.4byte	.LASF96
 2380 0249 05       		.byte	0x5
 2381 024a 00       		.uleb128 0
 2382 024b A3460300 		.4byte	.LASF97
 2383 024f 05       		.byte	0x5
 2384 0250 00       		.uleb128 0
 2385 0251 01250300 		.4byte	.LASF98
 2386 0255 05       		.byte	0x5
 2387 0256 00       		.uleb128 0
 2388 0257 4B890100 		.4byte	.LASF99
 2389 025b 05       		.byte	0x5
 2390 025c 00       		.uleb128 0
 2391 025d 280F0100 		.4byte	.LASF100
 2392 0261 05       		.byte	0x5
 2393 0262 00       		.uleb128 0
 2394 0263 69690100 		.4byte	.LASF101
ARM GAS  C:\Users\anashi\AppData\Local\Temp\ccYYZBJq.s 			page 43


 2395 0267 05       		.byte	0x5
 2396 0268 00       		.uleb128 0
 2397 0269 FC830200 		.4byte	.LASF102
 2398 026d 05       		.byte	0x5
 2399 026e 00       		.uleb128 0
 2400 026f 14160200 		.4byte	.LASF103
 2401 0273 05       		.byte	0x5
 2402 0274 00       		.uleb128 0
 2403 0275 075A0000 		.4byte	.LASF104
 2404 0279 05       		.byte	0x5
 2405 027a 00       		.uleb128 0
 2406 027b FC1A0400 		.4byte	.LASF105
 2407 027f 05       		.byte	0x5
 2408 0280 00       		.uleb128 0
 2409 0281 D2120300 		.4byte	.LASF106
 2410 0285 05       		.byte	0x5
 2411 0286 00       		.uleb128 0
 2412 0287 2BBD0200 		.4byte	.LASF107
 2413 028b 05       		.byte	0x5
 2414 028c 00       		.uleb128 0
 2415 028d E73F0300 		.4byte	.LASF108
 2416 0291 05       		.byte	0x5
 2417 0292 00       		.uleb128 0
 2418 0293 04C00000 		.4byte	.LASF109
 2419 0297 05       		.byte	0x5
 2420 0298 00       		.uleb128 0
 2421 0299 543D0300 		.4byte	.LASF110
 2422 029d 05       		.byte	0x5
 2423 029e 00       		.uleb128 0
 2424 029f 90090000 		.4byte	.LASF111
 2425 02a3 05       		.byte	0x5
 2426 02a4 00       		.uleb128 0
 2427 02a5 A83A0200 		.4byte	.LASF112
 2428 02a9 05       		.byte	0x5
 2429 02aa 00       		.uleb128 0
 2430 02ab 87AF0300 		.4byte	.LASF113
 2431 02af 05       		.byte	0x5
 2432 02b0 00       		.uleb128 0
 2433 02b1 14710100 		.4byte	.LASF114
 2434 02b5 05       		.byte	0x5
 2435 02b6 00       		.uleb128 0
 2436 02b7 F17C0000 		.4byte	.LASF115
 2437 02bb 05       		.byte	0x5
 2438 02bc 00       		.uleb128 0
 2439 02bd C83A0100 		.4byte	.LASF116
 2440 02c1 05       		.byte	0x5
 2441 02c2 00       		.uleb128 0
 2442 02c3 5A120300 		.4byte	.LASF117
 2443 02c7 05       		.byte	0x5
 2444 02c8 00       		.uleb128 0
 2445 02c9 F3920200 		.4byte	.LASF118
 2446 02cd 05       		.byte	0x5
 2447 02ce 00       		.uleb128 0
 2448 02cf D4600200 		.4byte	.LASF119
 2449 02d3 05       		.byte	0x5
 2450 02d4 00       		.uleb128 0
 2451 02d5 20430100 		.4byte	.LASF120
ARM GAS  C:\Users\anashi\AppData\Local\Temp\ccYYZBJq.s 			page 44


 2452 02d9 05       		.byte	0x5
 2453 02da 00       		.uleb128 0
 2454 02db 9CF50000 		.4byte	.LASF121
 2455 02df 05       		.byte	0x5
 2456 02e0 00       		.uleb128 0
 2457 02e1 2D800100 		.4byte	.LASF122
 2458 02e5 05       		.byte	0x5
 2459 02e6 00       		.uleb128 0
 2460 02e7 4C480200 		.4byte	.LASF123
 2461 02eb 05       		.byte	0x5
 2462 02ec 00       		.uleb128 0
 2463 02ed 4DC50000 		.4byte	.LASF124
 2464 02f1 05       		.byte	0x5
 2465 02f2 00       		.uleb128 0
 2466 02f3 14420000 		.4byte	.LASF125
 2467 02f7 05       		.byte	0x5
 2468 02f8 00       		.uleb128 0
 2469 02f9 49460300 		.4byte	.LASF126
 2470 02fd 05       		.byte	0x5
 2471 02fe 00       		.uleb128 0
 2472 02ff DC680200 		.4byte	.LASF127
 2473 0303 05       		.byte	0x5
 2474 0304 00       		.uleb128 0
 2475 0305 DA710300 		.4byte	.LASF128
 2476 0309 05       		.byte	0x5
 2477 030a 00       		.uleb128 0
 2478 030b D3FE0000 		.4byte	.LASF129
 2479 030f 05       		.byte	0x5
 2480 0310 00       		.uleb128 0
 2481 0311 A94A0000 		.4byte	.LASF130
 2482 0315 05       		.byte	0x5
 2483 0316 00       		.uleb128 0
 2484 0317 F96B0200 		.4byte	.LASF131
 2485 031b 05       		.byte	0x5
 2486 031c 00       		.uleb128 0
 2487 031d 25EB0200 		.4byte	.LASF132
 2488 0321 05       		.byte	0x5
 2489 0322 00       		.uleb128 0
 2490 0323 C3290300 		.4byte	.LASF133
 2491 0327 05       		.byte	0x5
 2492 0328 00       		.uleb128 0
 2493 0329 CB650100 		.4byte	.LASF134
 2494 032d 05       		.byte	0x5
 2495 032e 00       		.uleb128 0
 2496 032f 8F950200 		.4byte	.LASF135
 2497 0333 05       		.byte	0x5
 2498 0334 00       		.uleb128 0
 2499 0335 F2B40100 		.4byte	.LASF136
 2500 0339 05       		.byte	0x5
 2501 033a 00       		.uleb128 0
 2502 033b 76500400 		.4byte	.LASF137
 2503 033f 05       		.byte	0x5
 2504 0340 00       		.uleb128 0
 2505 0341 FF6D0100 		.4byte	.LASF138
 2506 0345 05       		.byte	0x5
 2507 0346 00       		.uleb128 0
 2508 0347 B29B0300 		.4byte	.LASF139
ARM GAS  C:\Users\anashi\AppData\Local\Temp\ccYYZBJq.s 			page 45


 2509 034b 05       		.byte	0x5
 2510 034c 00       		.uleb128 0
 2511 034d E0820200 		.4byte	.LASF140
 2512 0351 05       		.byte	0x5
 2513 0352 00       		.uleb128 0
 2514 0353 94260200 		.4byte	.LASF141
 2515 0357 05       		.byte	0x5
 2516 0358 00       		.uleb128 0
 2517 0359 92010100 		.4byte	.LASF142
 2518 035d 05       		.byte	0x5
 2519 035e 00       		.uleb128 0
 2520 035f 97B20000 		.4byte	.LASF143
 2521 0363 05       		.byte	0x5
 2522 0364 00       		.uleb128 0
 2523 0365 23EC0000 		.4byte	.LASF144
 2524 0369 05       		.byte	0x5
 2525 036a 00       		.uleb128 0
 2526 036b C81A0100 		.4byte	.LASF145
 2527 036f 05       		.byte	0x5
 2528 0370 00       		.uleb128 0
 2529 0371 EECC0100 		.4byte	.LASF146
 2530 0375 05       		.byte	0x5
 2531 0376 00       		.uleb128 0
 2532 0377 7EC10200 		.4byte	.LASF147
 2533 037b 05       		.byte	0x5
 2534 037c 00       		.uleb128 0
 2535 037d 9D940300 		.4byte	.LASF148
 2536 0381 05       		.byte	0x5
 2537 0382 00       		.uleb128 0
 2538 0383 F47C0100 		.4byte	.LASF149
 2539 0387 05       		.byte	0x5
 2540 0388 00       		.uleb128 0
 2541 0389 01310200 		.4byte	.LASF150
 2542 038d 05       		.byte	0x5
 2543 038e 00       		.uleb128 0
 2544 038f 708B0000 		.4byte	.LASF151
 2545 0393 05       		.byte	0x5
 2546 0394 00       		.uleb128 0
 2547 0395 D6AC0300 		.4byte	.LASF152
 2548 0399 05       		.byte	0x5
 2549 039a 00       		.uleb128 0
 2550 039b 4EDD0300 		.4byte	.LASF153
 2551 039f 05       		.byte	0x5
 2552 03a0 00       		.uleb128 0
 2553 03a1 9F590400 		.4byte	.LASF154
 2554 03a5 05       		.byte	0x5
 2555 03a6 00       		.uleb128 0
 2556 03a7 95A70100 		.4byte	.LASF155
 2557 03ab 05       		.byte	0x5
 2558 03ac 00       		.uleb128 0
 2559 03ad 48B20000 		.4byte	.LASF156
 2560 03b1 05       		.byte	0x5
 2561 03b2 00       		.uleb128 0
 2562 03b3 342F0000 		.4byte	.LASF157
 2563 03b7 05       		.byte	0x5
 2564 03b8 00       		.uleb128 0
 2565 03b9 8C4F0400 		.4byte	.LASF158
ARM GAS  C:\Users\anashi\AppData\Local\Temp\ccYYZBJq.s 			page 46


 2566 03bd 05       		.byte	0x5
 2567 03be 00       		.uleb128 0
 2568 03bf 44660200 		.4byte	.LASF159
 2569 03c3 05       		.byte	0x5
 2570 03c4 00       		.uleb128 0
 2571 03c5 FB350400 		.4byte	.LASF160
 2572 03c9 05       		.byte	0x5
 2573 03ca 00       		.uleb128 0
 2574 03cb 2B3D0100 		.4byte	.LASF161
 2575 03cf 05       		.byte	0x5
 2576 03d0 00       		.uleb128 0
 2577 03d1 4A260400 		.4byte	.LASF162
 2578 03d5 05       		.byte	0x5
 2579 03d6 00       		.uleb128 0
 2580 03d7 4FD00200 		.4byte	.LASF163
 2581 03db 05       		.byte	0x5
 2582 03dc 00       		.uleb128 0
 2583 03dd 0E0F0100 		.4byte	.LASF164
 2584 03e1 05       		.byte	0x5
 2585 03e2 00       		.uleb128 0
 2586 03e3 8AC30000 		.4byte	.LASF165
 2587 03e7 05       		.byte	0x5
 2588 03e8 00       		.uleb128 0
 2589 03e9 E7940200 		.4byte	.LASF166
 2590 03ed 05       		.byte	0x5
 2591 03ee 00       		.uleb128 0
 2592 03ef 7D360000 		.4byte	.LASF167
 2593 03f3 05       		.byte	0x5
 2594 03f4 00       		.uleb128 0
 2595 03f5 8C620100 		.4byte	.LASF168
 2596 03f9 05       		.byte	0x5
 2597 03fa 00       		.uleb128 0
 2598 03fb 57D50200 		.4byte	.LASF169
 2599 03ff 05       		.byte	0x5
 2600 0400 00       		.uleb128 0
 2601 0401 59510400 		.4byte	.LASF170
 2602 0405 05       		.byte	0x5
 2603 0406 00       		.uleb128 0
 2604 0407 B1940200 		.4byte	.LASF171
 2605 040b 05       		.byte	0x5
 2606 040c 00       		.uleb128 0
 2607 040d 8BD60300 		.4byte	.LASF172
 2608 0411 05       		.byte	0x5
 2609 0412 00       		.uleb128 0
 2610 0413 9A1B0100 		.4byte	.LASF173
 2611 0417 05       		.byte	0x5
 2612 0418 00       		.uleb128 0
 2613 0419 7D160100 		.4byte	.LASF174
 2614 041d 05       		.byte	0x5
 2615 041e 00       		.uleb128 0
 2616 041f 91BF0200 		.4byte	.LASF175
 2617 0423 05       		.byte	0x5
 2618 0424 00       		.uleb128 0
 2619 0425 D1EC0200 		.4byte	.LASF176
 2620 0429 05       		.byte	0x5
 2621 042a 00       		.uleb128 0
 2622 042b 957C0300 		.4byte	.LASF177
ARM GAS  C:\Users\anashi\AppData\Local\Temp\ccYYZBJq.s 			page 47


 2623 042f 05       		.byte	0x5
 2624 0430 00       		.uleb128 0
 2625 0431 07A40100 		.4byte	.LASF178
 2626 0435 05       		.byte	0x5
 2627 0436 00       		.uleb128 0
 2628 0437 87CB0100 		.4byte	.LASF179
 2629 043b 05       		.byte	0x5
 2630 043c 00       		.uleb128 0
 2631 043d 70810000 		.4byte	.LASF180
 2632 0441 05       		.byte	0x5
 2633 0442 00       		.uleb128 0
 2634 0443 D8650300 		.4byte	.LASF181
 2635 0447 05       		.byte	0x5
 2636 0448 00       		.uleb128 0
 2637 0449 99450100 		.4byte	.LASF182
 2638 044d 05       		.byte	0x5
 2639 044e 00       		.uleb128 0
 2640 044f D1110300 		.4byte	.LASF183
 2641 0453 05       		.byte	0x5
 2642 0454 00       		.uleb128 0
 2643 0455 512B0200 		.4byte	.LASF184
 2644 0459 05       		.byte	0x5
 2645 045a 00       		.uleb128 0
 2646 045b 6E280300 		.4byte	.LASF185
 2647 045f 05       		.byte	0x5
 2648 0460 00       		.uleb128 0
 2649 0461 C2430300 		.4byte	.LASF186
 2650 0465 05       		.byte	0x5
 2651 0466 00       		.uleb128 0
 2652 0467 8E5E0400 		.4byte	.LASF187
 2653 046b 05       		.byte	0x5
 2654 046c 00       		.uleb128 0
 2655 046d DF7F0300 		.4byte	.LASF188
 2656 0471 05       		.byte	0x5
 2657 0472 00       		.uleb128 0
 2658 0473 72C90300 		.4byte	.LASF189
 2659 0477 05       		.byte	0x5
 2660 0478 00       		.uleb128 0
 2661 0479 123F0000 		.4byte	.LASF190
 2662 047d 05       		.byte	0x5
 2663 047e 00       		.uleb128 0
 2664 047f CC6C0300 		.4byte	.LASF191
 2665 0483 05       		.byte	0x5
 2666 0484 00       		.uleb128 0
 2667 0485 26ED0300 		.4byte	.LASF192
 2668 0489 05       		.byte	0x5
 2669 048a 00       		.uleb128 0
 2670 048b 650A0200 		.4byte	.LASF193
 2671 048f 05       		.byte	0x5
 2672 0490 00       		.uleb128 0
 2673 0491 A0910200 		.4byte	.LASF194
 2674 0495 05       		.byte	0x5
 2675 0496 00       		.uleb128 0
 2676 0497 93290000 		.4byte	.LASF195
 2677 049b 05       		.byte	0x5
 2678 049c 00       		.uleb128 0
 2679 049d 78BA0300 		.4byte	.LASF196
ARM GAS  C:\Users\anashi\AppData\Local\Temp\ccYYZBJq.s 			page 48


 2680 04a1 05       		.byte	0x5
 2681 04a2 00       		.uleb128 0
 2682 04a3 AE960000 		.4byte	.LASF197
 2683 04a7 05       		.byte	0x5
 2684 04a8 00       		.uleb128 0
 2685 04a9 524A0000 		.4byte	.LASF198
 2686 04ad 05       		.byte	0x5
 2687 04ae 00       		.uleb128 0
 2688 04af EE570000 		.4byte	.LASF199
 2689 04b3 05       		.byte	0x5
 2690 04b4 00       		.uleb128 0
 2691 04b5 D8100400 		.4byte	.LASF200
 2692 04b9 05       		.byte	0x5
 2693 04ba 00       		.uleb128 0
 2694 04bb 2F170400 		.4byte	.LASF201
 2695 04bf 05       		.byte	0x5
 2696 04c0 00       		.uleb128 0
 2697 04c1 1E150200 		.4byte	.LASF202
 2698 04c5 05       		.byte	0x5
 2699 04c6 00       		.uleb128 0
 2700 04c7 F46D0200 		.4byte	.LASF203
 2701 04cb 05       		.byte	0x5
 2702 04cc 00       		.uleb128 0
 2703 04cd 29770200 		.4byte	.LASF204
 2704 04d1 05       		.byte	0x5
 2705 04d2 00       		.uleb128 0
 2706 04d3 EFD60000 		.4byte	.LASF205
 2707 04d7 05       		.byte	0x5
 2708 04d8 00       		.uleb128 0
 2709 04d9 B1C40000 		.4byte	.LASF206
 2710 04dd 05       		.byte	0x5
 2711 04de 00       		.uleb128 0
 2712 04df 25630400 		.4byte	.LASF207
 2713 04e3 05       		.byte	0x5
 2714 04e4 00       		.uleb128 0
 2715 04e5 D8C10300 		.4byte	.LASF208
 2716 04e9 05       		.byte	0x5
 2717 04ea 00       		.uleb128 0
 2718 04eb 5C580100 		.4byte	.LASF209
 2719 04ef 05       		.byte	0x5
 2720 04f0 00       		.uleb128 0
 2721 04f1 2E260200 		.4byte	.LASF210
 2722 04f5 05       		.byte	0x5
 2723 04f6 00       		.uleb128 0
 2724 04f7 FB9C0100 		.4byte	.LASF211
 2725 04fb 05       		.byte	0x5
 2726 04fc 00       		.uleb128 0
 2727 04fd D0290200 		.4byte	.LASF212
 2728 0501 05       		.byte	0x5
 2729 0502 00       		.uleb128 0
 2730 0503 67B50100 		.4byte	.LASF213
 2731 0507 05       		.byte	0x5
 2732 0508 00       		.uleb128 0
 2733 0509 83720200 		.4byte	.LASF214
 2734 050d 05       		.byte	0x5
 2735 050e 00       		.uleb128 0
 2736 050f 87F90100 		.4byte	.LASF215
ARM GAS  C:\Users\anashi\AppData\Local\Temp\ccYYZBJq.s 			page 49


 2737 0513 05       		.byte	0x5
 2738 0514 00       		.uleb128 0
 2739 0515 C3590400 		.4byte	.LASF216
 2740 0519 05       		.byte	0x5
 2741 051a 00       		.uleb128 0
 2742 051b 3C7D0300 		.4byte	.LASF217
 2743 051f 05       		.byte	0x5
 2744 0520 00       		.uleb128 0
 2745 0521 9BCE0000 		.4byte	.LASF218
 2746 0525 05       		.byte	0x5
 2747 0526 00       		.uleb128 0
 2748 0527 24380400 		.4byte	.LASF219
 2749 052b 05       		.byte	0x5
 2750 052c 00       		.uleb128 0
 2751 052d F05C0100 		.4byte	.LASF220
 2752 0531 05       		.byte	0x5
 2753 0532 00       		.uleb128 0
 2754 0533 88EA0200 		.4byte	.LASF221
 2755 0537 05       		.byte	0x5
 2756 0538 00       		.uleb128 0
 2757 0539 565D0000 		.4byte	.LASF222
 2758 053d 05       		.byte	0x5
 2759 053e 00       		.uleb128 0
 2760 053f D31F0300 		.4byte	.LASF223
 2761 0543 05       		.byte	0x5
 2762 0544 00       		.uleb128 0
 2763 0545 F3E30300 		.4byte	.LASF224
 2764 0549 05       		.byte	0x5
 2765 054a 00       		.uleb128 0
 2766 054b C69B0300 		.4byte	.LASF225
 2767 054f 05       		.byte	0x5
 2768 0550 00       		.uleb128 0
 2769 0551 22B20200 		.4byte	.LASF226
 2770 0555 05       		.byte	0x5
 2771 0556 00       		.uleb128 0
 2772 0557 3B020300 		.4byte	.LASF227
 2773 055b 05       		.byte	0x5
 2774 055c 00       		.uleb128 0
 2775 055d 26680100 		.4byte	.LASF228
 2776 0561 05       		.byte	0x5
 2777 0562 00       		.uleb128 0
 2778 0563 34FF0200 		.4byte	.LASF229
 2779 0567 05       		.byte	0x5
 2780 0568 00       		.uleb128 0
 2781 0569 62B70100 		.4byte	.LASF230
 2782 056d 05       		.byte	0x5
 2783 056e 00       		.uleb128 0
 2784 056f 3B1D0400 		.4byte	.LASF231
 2785 0573 05       		.byte	0x5
 2786 0574 00       		.uleb128 0
 2787 0575 63CB0200 		.4byte	.LASF232
 2788 0579 05       		.byte	0x5
 2789 057a 00       		.uleb128 0
 2790 057b 26150100 		.4byte	.LASF233
 2791 057f 05       		.byte	0x5
 2792 0580 00       		.uleb128 0
 2793 0581 08690100 		.4byte	.LASF234
ARM GAS  C:\Users\anashi\AppData\Local\Temp\ccYYZBJq.s 			page 50


 2794 0585 05       		.byte	0x5
 2795 0586 00       		.uleb128 0
 2796 0587 9AD10200 		.4byte	.LASF235
 2797 058b 05       		.byte	0x5
 2798 058c 00       		.uleb128 0
 2799 058d 51160100 		.4byte	.LASF236
 2800 0591 05       		.byte	0x5
 2801 0592 00       		.uleb128 0
 2802 0593 EA3C0400 		.4byte	.LASF237
 2803 0597 05       		.byte	0x5
 2804 0598 00       		.uleb128 0
 2805 0599 5F970100 		.4byte	.LASF238
 2806 059d 05       		.byte	0x5
 2807 059e 00       		.uleb128 0
 2808 059f EFC30200 		.4byte	.LASF239
 2809 05a3 05       		.byte	0x5
 2810 05a4 00       		.uleb128 0
 2811 05a5 7E3B0300 		.4byte	.LASF240
 2812 05a9 05       		.byte	0x5
 2813 05aa 00       		.uleb128 0
 2814 05ab 2B1E0300 		.4byte	.LASF241
 2815 05af 05       		.byte	0x5
 2816 05b0 00       		.uleb128 0
 2817 05b1 68350000 		.4byte	.LASF242
 2818 05b5 05       		.byte	0x5
 2819 05b6 00       		.uleb128 0
 2820 05b7 D4150300 		.4byte	.LASF243
 2821 05bb 05       		.byte	0x5
 2822 05bc 00       		.uleb128 0
 2823 05bd 4BA90100 		.4byte	.LASF244
 2824 05c1 05       		.byte	0x5
 2825 05c2 00       		.uleb128 0
 2826 05c3 A9430400 		.4byte	.LASF245
 2827 05c7 05       		.byte	0x5
 2828 05c8 00       		.uleb128 0
 2829 05c9 532C0000 		.4byte	.LASF246
 2830 05cd 05       		.byte	0x5
 2831 05ce 00       		.uleb128 0
 2832 05cf 6A7D0200 		.4byte	.LASF247
 2833 05d3 05       		.byte	0x5
 2834 05d4 00       		.uleb128 0
 2835 05d5 27160000 		.4byte	.LASF248
 2836 05d9 05       		.byte	0x5
 2837 05da 00       		.uleb128 0
 2838 05db 81930100 		.4byte	.LASF249
 2839 05df 05       		.byte	0x5
 2840 05e0 00       		.uleb128 0
 2841 05e1 7AD60200 		.4byte	.LASF250
 2842 05e5 05       		.byte	0x5
 2843 05e6 00       		.uleb128 0
 2844 05e7 AECB0200 		.4byte	.LASF251
 2845 05eb 05       		.byte	0x5
 2846 05ec 00       		.uleb128 0
 2847 05ed 23430300 		.4byte	.LASF252
 2848 05f1 05       		.byte	0x5
 2849 05f2 00       		.uleb128 0
 2850 05f3 09940100 		.4byte	.LASF253
ARM GAS  C:\Users\anashi\AppData\Local\Temp\ccYYZBJq.s 			page 51


 2851 05f7 05       		.byte	0x5
 2852 05f8 00       		.uleb128 0
 2853 05f9 636B0400 		.4byte	.LASF254
 2854 05fd 05       		.byte	0x5
 2855 05fe 00       		.uleb128 0
 2856 05ff 49980000 		.4byte	.LASF255
 2857 0603 05       		.byte	0x5
 2858 0604 00       		.uleb128 0
 2859 0605 56D80300 		.4byte	.LASF256
 2860 0609 05       		.byte	0x5
 2861 060a 00       		.uleb128 0
 2862 060b 16A60200 		.4byte	.LASF257
 2863 060f 05       		.byte	0x5
 2864 0610 00       		.uleb128 0
 2865 0611 F1760400 		.4byte	.LASF258
 2866 0615 05       		.byte	0x5
 2867 0616 00       		.uleb128 0
 2868 0617 70E30200 		.4byte	.LASF259
 2869 061b 05       		.byte	0x5
 2870 061c 00       		.uleb128 0
 2871 061d 86080400 		.4byte	.LASF260
 2872 0621 05       		.byte	0x5
 2873 0622 00       		.uleb128 0
 2874 0623 58E00300 		.4byte	.LASF261
 2875 0627 05       		.byte	0x5
 2876 0628 00       		.uleb128 0
 2877 0629 9B800200 		.4byte	.LASF262
 2878 062d 05       		.byte	0x5
 2879 062e 00       		.uleb128 0
 2880 062f 61BD0100 		.4byte	.LASF263
 2881 0633 05       		.byte	0x5
 2882 0634 00       		.uleb128 0
 2883 0635 960E0000 		.4byte	.LASF264
 2884 0639 05       		.byte	0x5
 2885 063a 00       		.uleb128 0
 2886 063b E05E0000 		.4byte	.LASF265
 2887 063f 05       		.byte	0x5
 2888 0640 00       		.uleb128 0
 2889 0641 80BC0000 		.4byte	.LASF266
 2890 0645 05       		.byte	0x5
 2891 0646 00       		.uleb128 0
 2892 0647 BF770100 		.4byte	.LASF267
 2893 064b 05       		.byte	0x5
 2894 064c 00       		.uleb128 0
 2895 064d A7230000 		.4byte	.LASF268
 2896 0651 05       		.byte	0x5
 2897 0652 00       		.uleb128 0
 2898 0653 386A0300 		.4byte	.LASF269
 2899 0657 05       		.byte	0x5
 2900 0658 00       		.uleb128 0
 2901 0659 761D0000 		.4byte	.LASF270
 2902 065d 05       		.byte	0x5
 2903 065e 00       		.uleb128 0
 2904 065f 09EF0300 		.4byte	.LASF271
 2905 0663 05       		.byte	0x5
 2906 0664 00       		.uleb128 0
 2907 0665 C0480100 		.4byte	.LASF272
ARM GAS  C:\Users\anashi\AppData\Local\Temp\ccYYZBJq.s 			page 52


 2908 0669 05       		.byte	0x5
 2909 066a 00       		.uleb128 0
 2910 066b 0A4F0400 		.4byte	.LASF273
 2911 066f 05       		.byte	0x5
 2912 0670 00       		.uleb128 0
 2913 0671 9E6B0300 		.4byte	.LASF274
 2914 0675 05       		.byte	0x5
 2915 0676 00       		.uleb128 0
 2916 0677 7ACA0100 		.4byte	.LASF275
 2917 067b 05       		.byte	0x5
 2918 067c 00       		.uleb128 0
 2919 067d 0C5E0400 		.4byte	.LASF276
 2920 0681 05       		.byte	0x5
 2921 0682 00       		.uleb128 0
 2922 0683 2FB10200 		.4byte	.LASF277
 2923 0687 05       		.byte	0x5
 2924 0688 00       		.uleb128 0
 2925 0689 BA600300 		.4byte	.LASF278
 2926 068d 05       		.byte	0x5
 2927 068e 00       		.uleb128 0
 2928 068f 4EEF0100 		.4byte	.LASF279
 2929 0693 05       		.byte	0x5
 2930 0694 00       		.uleb128 0
 2931 0695 BEBB0000 		.4byte	.LASF280
 2932 0699 05       		.byte	0x5
 2933 069a 00       		.uleb128 0
 2934 069b D1880200 		.4byte	.LASF281
 2935 069f 05       		.byte	0x5
 2936 06a0 00       		.uleb128 0
 2937 06a1 A66A0000 		.4byte	.LASF282
 2938 06a5 05       		.byte	0x5
 2939 06a6 00       		.uleb128 0
 2940 06a7 1FAA0200 		.4byte	.LASF283
 2941 06ab 05       		.byte	0x5
 2942 06ac 00       		.uleb128 0
 2943 06ad 48930100 		.4byte	.LASF284
 2944 06b1 05       		.byte	0x5
 2945 06b2 00       		.uleb128 0
 2946 06b3 7EB90000 		.4byte	.LASF285
 2947 06b7 05       		.byte	0x5
 2948 06b8 00       		.uleb128 0
 2949 06b9 73650200 		.4byte	.LASF286
 2950 06bd 05       		.byte	0x5
 2951 06be 00       		.uleb128 0
 2952 06bf F8BF0100 		.4byte	.LASF287
 2953 06c3 05       		.byte	0x5
 2954 06c4 00       		.uleb128 0
 2955 06c5 81750300 		.4byte	.LASF288
 2956 06c9 05       		.byte	0x5
 2957 06ca 00       		.uleb128 0
 2958 06cb 5F9F0000 		.4byte	.LASF289
 2959 06cf 05       		.byte	0x5
 2960 06d0 00       		.uleb128 0
 2961 06d1 83B80200 		.4byte	.LASF290
 2962 06d5 05       		.byte	0x5
 2963 06d6 00       		.uleb128 0
 2964 06d7 C9350200 		.4byte	.LASF291
ARM GAS  C:\Users\anashi\AppData\Local\Temp\ccYYZBJq.s 			page 53


 2965 06db 05       		.byte	0x5
 2966 06dc 00       		.uleb128 0
 2967 06dd BCB10200 		.4byte	.LASF292
 2968 06e1 05       		.byte	0x5
 2969 06e2 00       		.uleb128 0
 2970 06e3 054E0100 		.4byte	.LASF293
 2971 06e7 05       		.byte	0x5
 2972 06e8 00       		.uleb128 0
 2973 06e9 79AB0000 		.4byte	.LASF294
 2974 06ed 05       		.byte	0x5
 2975 06ee 00       		.uleb128 0
 2976 06ef FFA80200 		.4byte	.LASF295
 2977 06f3 05       		.byte	0x5
 2978 06f4 00       		.uleb128 0
 2979 06f5 0AA40300 		.4byte	.LASF296
 2980 06f9 05       		.byte	0x5
 2981 06fa 00       		.uleb128 0
 2982 06fb 7F800100 		.4byte	.LASF297
 2983 06ff 05       		.byte	0x5
 2984 0700 00       		.uleb128 0
 2985 0701 E2380400 		.4byte	.LASF298
 2986 0705 05       		.byte	0x5
 2987 0706 00       		.uleb128 0
 2988 0707 E69E0200 		.4byte	.LASF299
 2989 070b 05       		.byte	0x5
 2990 070c 00       		.uleb128 0
 2991 070d 41530300 		.4byte	.LASF300
 2992 0711 05       		.byte	0x5
 2993 0712 00       		.uleb128 0
 2994 0713 C2F80100 		.4byte	.LASF301
 2995 0717 05       		.byte	0x5
 2996 0718 00       		.uleb128 0
 2997 0719 33CF0100 		.4byte	.LASF302
 2998 071d 05       		.byte	0x5
 2999 071e 00       		.uleb128 0
 3000 071f 4F510100 		.4byte	.LASF303
 3001 0723 05       		.byte	0x5
 3002 0724 00       		.uleb128 0
 3003 0725 B5900100 		.4byte	.LASF304
 3004 0729 05       		.byte	0x5
 3005 072a 00       		.uleb128 0
 3006 072b E4980300 		.4byte	.LASF305
 3007 072f 05       		.byte	0x5
 3008 0730 00       		.uleb128 0
 3009 0731 AE050400 		.4byte	.LASF306
 3010 0735 05       		.byte	0x5
 3011 0736 00       		.uleb128 0
 3012 0737 3C590100 		.4byte	.LASF307
 3013 073b 05       		.byte	0x5
 3014 073c 00       		.uleb128 0
 3015 073d 9D3C0400 		.4byte	.LASF308
 3016 0741 05       		.byte	0x5
 3017 0742 00       		.uleb128 0
 3018 0743 8F6B0100 		.4byte	.LASF309
 3019 0747 05       		.byte	0x5
 3020 0748 00       		.uleb128 0
 3021 0749 F6270000 		.4byte	.LASF310
ARM GAS  C:\Users\anashi\AppData\Local\Temp\ccYYZBJq.s 			page 54


 3022 074d 05       		.byte	0x5
 3023 074e 00       		.uleb128 0
 3024 074f 90440400 		.4byte	.LASF311
 3025 0753 05       		.byte	0x5
 3026 0754 00       		.uleb128 0
 3027 0755 CB9E0000 		.4byte	.LASF312
 3028 0759 05       		.byte	0x5
 3029 075a 00       		.uleb128 0
 3030 075b 87E90300 		.4byte	.LASF313
 3031 075f 05       		.byte	0x5
 3032 0760 00       		.uleb128 0
 3033 0761 B0250400 		.4byte	.LASF314
 3034 0765 05       		.byte	0x5
 3035 0766 00       		.uleb128 0
 3036 0767 D7310100 		.4byte	.LASF315
 3037 076b 05       		.byte	0x5
 3038 076c 00       		.uleb128 0
 3039 076d EBFD0100 		.4byte	.LASF316
 3040 0771 05       		.byte	0x5
 3041 0772 00       		.uleb128 0
 3042 0773 CE070200 		.4byte	.LASF317
 3043 0777 05       		.byte	0x5
 3044 0778 00       		.uleb128 0
 3045 0779 B2FC0200 		.4byte	.LASF318
 3046 077d 05       		.byte	0x5
 3047 077e 00       		.uleb128 0
 3048 077f CD120200 		.4byte	.LASF319
 3049 0783 05       		.byte	0x5
 3050 0784 00       		.uleb128 0
 3051 0785 6B0B0000 		.4byte	.LASF320
 3052 0789 05       		.byte	0x5
 3053 078a 00       		.uleb128 0
 3054 078b 78860200 		.4byte	.LASF321
 3055 078f 05       		.byte	0x5
 3056 0790 00       		.uleb128 0
 3057 0791 28670000 		.4byte	.LASF322
 3058 0795 05       		.byte	0x5
 3059 0796 00       		.uleb128 0
 3060 0797 54430200 		.4byte	.LASF323
 3061 079b 05       		.byte	0x5
 3062 079c 00       		.uleb128 0
 3063 079d 55750200 		.4byte	.LASF324
 3064 07a1 05       		.byte	0x5
 3065 07a2 00       		.uleb128 0
 3066 07a3 E5A40000 		.4byte	.LASF325
 3067 07a7 05       		.byte	0x5
 3068 07a8 00       		.uleb128 0
 3069 07a9 8DCE0300 		.4byte	.LASF326
 3070 07ad 05       		.byte	0x5
 3071 07ae 00       		.uleb128 0
 3072 07af 20040000 		.4byte	.LASF327
 3073 07b3 05       		.byte	0x5
 3074 07b4 00       		.uleb128 0
 3075 07b5 BE020300 		.4byte	.LASF328
 3076 07b9 05       		.byte	0x5
 3077 07ba 00       		.uleb128 0
 3078 07bb 693B0300 		.4byte	.LASF329
ARM GAS  C:\Users\anashi\AppData\Local\Temp\ccYYZBJq.s 			page 55


 3079 07bf 05       		.byte	0x5
 3080 07c0 00       		.uleb128 0
 3081 07c1 7F540300 		.4byte	.LASF330
 3082 07c5 05       		.byte	0x5
 3083 07c6 00       		.uleb128 0
 3084 07c7 84690200 		.4byte	.LASF331
 3085 07cb 05       		.byte	0x5
 3086 07cc 00       		.uleb128 0
 3087 07cd F1260400 		.4byte	.LASF332
 3088 07d1 05       		.byte	0x5
 3089 07d2 00       		.uleb128 0
 3090 07d3 79310200 		.4byte	.LASF333
 3091 07d7 05       		.byte	0x5
 3092 07d8 00       		.uleb128 0
 3093 07d9 F2890000 		.4byte	.LASF334
 3094 07dd 05       		.byte	0x5
 3095 07de 00       		.uleb128 0
 3096 07df D69F0200 		.4byte	.LASF335
 3097 07e3 05       		.byte	0x5
 3098 07e4 00       		.uleb128 0
 3099 07e5 5AFA0000 		.4byte	.LASF336
 3100 07e9 05       		.byte	0x5
 3101 07ea 00       		.uleb128 0
 3102 07eb 1FCA0200 		.4byte	.LASF337
 3103 07ef 05       		.byte	0x5
 3104 07f0 00       		.uleb128 0
 3105 07f1 0EA20100 		.4byte	.LASF338
 3106 07f5 05       		.byte	0x5
 3107 07f6 00       		.uleb128 0
 3108 07f7 7FD80100 		.4byte	.LASF339
 3109 07fb 05       		.byte	0x5
 3110 07fc 00       		.uleb128 0
 3111 07fd 06420000 		.4byte	.LASF340
 3112 0801 05       		.byte	0x5
 3113 0802 00       		.uleb128 0
 3114 0803 6D160100 		.4byte	.LASF341
 3115 0807 05       		.byte	0x5
 3116 0808 00       		.uleb128 0
 3117 0809 104A0100 		.4byte	.LASF342
 3118 080d 05       		.byte	0x5
 3119 080e 00       		.uleb128 0
 3120 080f 93B50100 		.4byte	.LASF343
 3121 0813 05       		.byte	0x5
 3122 0814 00       		.uleb128 0
 3123 0815 77140000 		.4byte	.LASF344
 3124 0819 05       		.byte	0x5
 3125 081a 00       		.uleb128 0
 3126 081b EB440000 		.4byte	.LASF345
 3127 081f 05       		.byte	0x5
 3128 0820 00       		.uleb128 0
 3129 0821 DD040200 		.4byte	.LASF346
 3130 0825 05       		.byte	0x5
 3131 0826 00       		.uleb128 0
 3132 0827 A77E0000 		.4byte	.LASF347
 3133 082b 05       		.byte	0x5
 3134 082c 00       		.uleb128 0
 3135 082d FD280100 		.4byte	.LASF348
ARM GAS  C:\Users\anashi\AppData\Local\Temp\ccYYZBJq.s 			page 56


 3136 0831 05       		.byte	0x5
 3137 0832 00       		.uleb128 0
 3138 0833 5B000400 		.4byte	.LASF349
 3139 0837 05       		.byte	0x5
 3140 0838 00       		.uleb128 0
 3141 0839 5B480400 		.4byte	.LASF350
 3142 083d 05       		.byte	0x5
 3143 083e 00       		.uleb128 0
 3144 083f BB520400 		.4byte	.LASF351
 3145 0843 05       		.byte	0x5
 3146 0844 00       		.uleb128 0
 3147 0845 75ED0300 		.4byte	.LASF352
 3148 0849 05       		.byte	0x5
 3149 084a 00       		.uleb128 0
 3150 084b D4820100 		.4byte	.LASF353
 3151 084f 05       		.byte	0x5
 3152 0850 00       		.uleb128 0
 3153 0851 09550400 		.4byte	.LASF354
 3154 0855 05       		.byte	0x5
 3155 0856 00       		.uleb128 0
 3156 0857 82130300 		.4byte	.LASF355
 3157 085b 05       		.byte	0x5
 3158 085c 00       		.uleb128 0
 3159 085d D44E0300 		.4byte	.LASF356
 3160 0861 05       		.byte	0x5
 3161 0862 00       		.uleb128 0
 3162 0863 422B0200 		.4byte	.LASF357
 3163 0867 05       		.byte	0x5
 3164 0868 00       		.uleb128 0
 3165 0869 5B660200 		.4byte	.LASF358
 3166 086d 05       		.byte	0x5
 3167 086e 00       		.uleb128 0
 3168 086f D3380400 		.4byte	.LASF359
 3169 0873 05       		.byte	0x5
 3170 0874 00       		.uleb128 0
 3171 0875 D35F0100 		.4byte	.LASF360
 3172 0879 05       		.byte	0x5
 3173 087a 00       		.uleb128 0
 3174 087b 78CB0200 		.4byte	.LASF361
 3175 087f 05       		.byte	0x5
 3176 0880 00       		.uleb128 0
 3177 0881 95EB0300 		.4byte	.LASF362
 3178 0885 05       		.byte	0x5
 3179 0886 00       		.uleb128 0
 3180 0887 ABC80000 		.4byte	.LASF363
 3181 088b 05       		.byte	0x5
 3182 088c 00       		.uleb128 0
 3183 088d C0070100 		.4byte	.LASF364
 3184 0891 05       		.byte	0x5
 3185 0892 00       		.uleb128 0
 3186 0893 2B4A0400 		.4byte	.LASF365
 3187 0897 05       		.byte	0x5
 3188 0898 00       		.uleb128 0
 3189 0899 BF090000 		.4byte	.LASF366
 3190 089d 05       		.byte	0x5
 3191 089e 00       		.uleb128 0
 3192 089f 58530300 		.4byte	.LASF367
ARM GAS  C:\Users\anashi\AppData\Local\Temp\ccYYZBJq.s 			page 57


 3193 08a3 05       		.byte	0x5
 3194 08a4 00       		.uleb128 0
 3195 08a5 83D90000 		.4byte	.LASF368
 3196 08a9 05       		.byte	0x5
 3197 08aa 00       		.uleb128 0
 3198 08ab E8620400 		.4byte	.LASF369
 3199 08af 05       		.byte	0x5
 3200 08b0 00       		.uleb128 0
 3201 08b1 EC160400 		.4byte	.LASF370
 3202 08b5 05       		.byte	0x5
 3203 08b6 00       		.uleb128 0
 3204 08b7 EA590100 		.4byte	.LASF371
 3205 08bb 05       		.byte	0x5
 3206 08bc 00       		.uleb128 0
 3207 08bd 848B0000 		.4byte	.LASF372
 3208 08c1 05       		.byte	0x5
 3209 08c2 00       		.uleb128 0
 3210 08c3 AD0E0200 		.4byte	.LASF373
 3211 08c7 05       		.byte	0x5
 3212 08c8 00       		.uleb128 0
 3213 08c9 BF1A0300 		.4byte	.LASF374
 3214 08cd 05       		.byte	0x5
 3215 08ce 00       		.uleb128 0
 3216 08cf 18B20100 		.4byte	.LASF375
 3217 08d3 05       		.byte	0x5
 3218 08d4 00       		.uleb128 0
 3219 08d5 46640200 		.4byte	.LASF376
 3220 08d9 05       		.byte	0x5
 3221 08da 00       		.uleb128 0
 3222 08db ED1F0300 		.4byte	.LASF377
 3223 08df 05       		.byte	0x5
 3224 08e0 00       		.uleb128 0
 3225 08e1 389A0300 		.4byte	.LASF378
 3226 08e5 05       		.byte	0x5
 3227 08e6 00       		.uleb128 0
 3228 08e7 0AA20000 		.4byte	.LASF379
 3229 08eb 05       		.byte	0x5
 3230 08ec 00       		.uleb128 0
 3231 08ed 2B180400 		.4byte	.LASF380
 3232 08f1 05       		.byte	0x5
 3233 08f2 00       		.uleb128 0
 3234 08f3 373B0100 		.4byte	.LASF381
 3235 08f7 05       		.byte	0x5
 3236 08f8 00       		.uleb128 0
 3237 08f9 1BA00300 		.4byte	.LASF382
 3238 08fd 05       		.byte	0x5
 3239 08fe 00       		.uleb128 0
 3240 08ff 6C570300 		.4byte	.LASF383
 3241 0903 05       		.byte	0x5
 3242 0904 00       		.uleb128 0
 3243 0905 04410200 		.4byte	.LASF384
 3244 0909 05       		.byte	0x5
 3245 090a 00       		.uleb128 0
 3246 090b 1E420300 		.4byte	.LASF385
 3247 090f 05       		.byte	0x5
 3248 0910 00       		.uleb128 0
 3249 0911 B9D80200 		.4byte	.LASF386
ARM GAS  C:\Users\anashi\AppData\Local\Temp\ccYYZBJq.s 			page 58


 3250 0915 05       		.byte	0x5
 3251 0916 00       		.uleb128 0
 3252 0917 16180400 		.4byte	.LASF387
 3253 091b 05       		.byte	0x5
 3254 091c 00       		.uleb128 0
 3255 091d 46190400 		.4byte	.LASF388
 3256 0921 05       		.byte	0x5
 3257 0922 00       		.uleb128 0
 3258 0923 47B00300 		.4byte	.LASF389
 3259 0927 06       		.byte	0x6
 3260 0928 00       		.uleb128 0
 3261 0929 B3C30200 		.4byte	.LASF390
 3262 092d 06       		.byte	0x6
 3263 092e 00       		.uleb128 0
 3264 092f 8E180300 		.4byte	.LASF391
 3265 0933 06       		.byte	0x6
 3266 0934 00       		.uleb128 0
 3267 0935 BCE60200 		.4byte	.LASF392
 3268 0939 06       		.byte	0x6
 3269 093a 00       		.uleb128 0
 3270 093b 0BD60200 		.4byte	.LASF393
 3271 093f 06       		.byte	0x6
 3272 0940 00       		.uleb128 0
 3273 0941 270B0100 		.4byte	.LASF394
 3274 0945 06       		.byte	0x6
 3275 0946 00       		.uleb128 0
 3276 0947 9D800300 		.4byte	.LASF395
 3277 094b 06       		.byte	0x6
 3278 094c 00       		.uleb128 0
 3279 094d A0330100 		.4byte	.LASF396
 3280 0951 06       		.byte	0x6
 3281 0952 00       		.uleb128 0
 3282 0953 BC970100 		.4byte	.LASF397
 3283 0957 06       		.byte	0x6
 3284 0958 00       		.uleb128 0
 3285 0959 21630100 		.4byte	.LASF398
 3286 095d 06       		.byte	0x6
 3287 095e 00       		.uleb128 0
 3288 095f B03D0000 		.4byte	.LASF399
 3289 0963 06       		.byte	0x6
 3290 0964 00       		.uleb128 0
 3291 0965 933E0200 		.4byte	.LASF400
 3292 0969 05       		.byte	0x5
 3293 096a 00       		.uleb128 0
 3294 096b 22560400 		.4byte	.LASF401
 3295 096f 05       		.byte	0x5
 3296 0970 00       		.uleb128 0
 3297 0971 98CA0100 		.4byte	.LASF402
 3298 0975 05       		.byte	0x5
 3299 0976 00       		.uleb128 0
 3300 0977 7E2F0000 		.4byte	.LASF403
 3301 097b 05       		.byte	0x5
 3302 097c 00       		.uleb128 0
 3303 097d A9C30200 		.4byte	.LASF404
 3304 0981 05       		.byte	0x5
 3305 0982 00       		.uleb128 0
 3306 0983 B9F20200 		.4byte	.LASF405
ARM GAS  C:\Users\anashi\AppData\Local\Temp\ccYYZBJq.s 			page 59


 3307 0987 05       		.byte	0x5
 3308 0988 00       		.uleb128 0
 3309 0989 194F0100 		.4byte	.LASF406
 3310 098d 05       		.byte	0x5
 3311 098e 00       		.uleb128 0
 3312 098f 4AA20300 		.4byte	.LASF407
 3313 0993 06       		.byte	0x6
 3314 0994 00       		.uleb128 0
 3315 0995 D1370100 		.4byte	.LASF408
 3316 0999 05       		.byte	0x5
 3317 099a 00       		.uleb128 0
 3318 099b CF610100 		.4byte	.LASF409
 3319 099f 05       		.byte	0x5
 3320 09a0 00       		.uleb128 0
 3321 09a1 3F180200 		.4byte	.LASF410
 3322 09a5 05       		.byte	0x5
 3323 09a6 00       		.uleb128 0
 3324 09a7 4C4E0200 		.4byte	.LASF411
 3325 09ab 05       		.byte	0x5
 3326 09ac 00       		.uleb128 0
 3327 09ad 285E0000 		.4byte	.LASF412
 3328 09b1 05       		.byte	0x5
 3329 09b2 00       		.uleb128 0
 3330 09b3 6ACF0300 		.4byte	.LASF413
 3331 09b7 06       		.byte	0x6
 3332 09b8 00       		.uleb128 0
 3333 09b9 424D0200 		.4byte	.LASF414
 3334 09bd 06       		.byte	0x6
 3335 09be 00       		.uleb128 0
 3336 09bf 3C1F0000 		.4byte	.LASF415
 3337 09c3 06       		.byte	0x6
 3338 09c4 00       		.uleb128 0
 3339 09c5 C7330300 		.4byte	.LASF416
 3340 09c9 06       		.byte	0x6
 3341 09ca 00       		.uleb128 0
 3342 09cb 50760200 		.4byte	.LASF417
 3343 09cf 06       		.byte	0x6
 3344 09d0 00       		.uleb128 0
 3345 09d1 27190000 		.4byte	.LASF418
 3346 09d5 06       		.byte	0x6
 3347 09d6 00       		.uleb128 0
 3348 09d7 8E810100 		.4byte	.LASF419
 3349 09db 06       		.byte	0x6
 3350 09dc 00       		.uleb128 0
 3351 09dd 529A0000 		.4byte	.LASF420
 3352 09e1 06       		.byte	0x6
 3353 09e2 00       		.uleb128 0
 3354 09e3 E77C0100 		.4byte	.LASF421
 3355 09e7 06       		.byte	0x6
 3356 09e8 00       		.uleb128 0
 3357 09e9 D7BC0100 		.4byte	.LASF422
 3358 09ed 06       		.byte	0x6
 3359 09ee 00       		.uleb128 0
 3360 09ef 1E7D0200 		.4byte	.LASF423
 3361 09f3 05       		.byte	0x5
 3362 09f4 00       		.uleb128 0
 3363 09f5 52570400 		.4byte	.LASF424
ARM GAS  C:\Users\anashi\AppData\Local\Temp\ccYYZBJq.s 			page 60


 3364 09f9 05       		.byte	0x5
 3365 09fa 00       		.uleb128 0
 3366 09fb E5950000 		.4byte	.LASF425
 3367 09ff 05       		.byte	0x5
 3368 0a00 00       		.uleb128 0
 3369 0a01 A2860200 		.4byte	.LASF426
 3370 0a05 05       		.byte	0x5
 3371 0a06 00       		.uleb128 0
 3372 0a07 B6E50000 		.4byte	.LASF427
 3373 0a0b 06       		.byte	0x6
 3374 0a0c 00       		.uleb128 0
 3375 0a0d 8C4C0200 		.4byte	.LASF428
 3376 0a11 06       		.byte	0x6
 3377 0a12 00       		.uleb128 0
 3378 0a13 DFA20100 		.4byte	.LASF429
 3379 0a17 06       		.byte	0x6
 3380 0a18 00       		.uleb128 0
 3381 0a19 39C10000 		.4byte	.LASF430
 3382 0a1d 06       		.byte	0x6
 3383 0a1e 00       		.uleb128 0
 3384 0a1f 711A0200 		.4byte	.LASF431
 3385 0a23 05       		.byte	0x5
 3386 0a24 00       		.uleb128 0
 3387 0a25 8D3C0000 		.4byte	.LASF432
 3388 0a29 05       		.byte	0x5
 3389 0a2a 00       		.uleb128 0
 3390 0a2b 88440100 		.4byte	.LASF433
 3391 0a2f 05       		.byte	0x5
 3392 0a30 00       		.uleb128 0
 3393 0a31 D1F70100 		.4byte	.LASF434
 3394 0a35 05       		.byte	0x5
 3395 0a36 00       		.uleb128 0
 3396 0a37 17AD0000 		.4byte	.LASF435
 3397 0a3b 05       		.byte	0x5
 3398 0a3c 00       		.uleb128 0
 3399 0a3d 5A540300 		.4byte	.LASF436
 3400 0a41 05       		.byte	0x5
 3401 0a42 00       		.uleb128 0
 3402 0a43 6D830300 		.4byte	.LASF437
 3403 0a47 05       		.byte	0x5
 3404 0a48 00       		.uleb128 0
 3405 0a49 95A80000 		.4byte	.LASF438
 3406 0a4d 05       		.byte	0x5
 3407 0a4e 00       		.uleb128 0
 3408 0a4f 9BD50300 		.4byte	.LASF439
 3409 0a53 05       		.byte	0x5
 3410 0a54 00       		.uleb128 0
 3411 0a55 251E0200 		.4byte	.LASF440
 3412 0a59 05       		.byte	0x5
 3413 0a5a 00       		.uleb128 0
 3414 0a5b E4090400 		.4byte	.LASF441
 3415 0a5f 00       		.byte	0
 3416              		.section	.debug_macro,"G",%progbits,wm4.stm32f0xx_hal_conf.h.37.85d16adf463f0bc3ee74429377097325,c
 3417              	.Ldebug_macro2:
 3418 0000 0400     		.2byte	0x4
 3419 0002 00       		.byte	0
 3420 0003 05       		.byte	0x5
ARM GAS  C:\Users\anashi\AppData\Local\Temp\ccYYZBJq.s 			page 61


 3421 0004 25       		.uleb128 0x25
 3422 0005 36500100 		.4byte	.LASF443
 3423 0009 05       		.byte	0x5
 3424 000a 32       		.uleb128 0x32
 3425 000b 20EF0000 		.4byte	.LASF444
 3426 000f 05       		.byte	0x5
 3427 0010 33       		.uleb128 0x33
 3428 0011 AD460000 		.4byte	.LASF445
 3429 0015 05       		.byte	0x5
 3430 0016 43       		.uleb128 0x43
 3431 0017 7A6C0000 		.4byte	.LASF446
 3432 001b 05       		.byte	0x5
 3433 001c 44       		.uleb128 0x44
 3434 001d E7CB0200 		.4byte	.LASF447
 3435 0021 05       		.byte	0x5
 3436 0022 4C       		.uleb128 0x4c
 3437 0023 80E50300 		.4byte	.LASF448
 3438 0027 05       		.byte	0x5
 3439 0028 4D       		.uleb128 0x4d
 3440 0029 29A70100 		.4byte	.LASF449
 3441 002d 05       		.byte	0x5
 3442 002e 4E       		.uleb128 0x4e
 3443 002f F9D60300 		.4byte	.LASF450
 3444 0033 05       		.byte	0x5
 3445 0034 4F       		.uleb128 0x4f
 3446 0035 89850300 		.4byte	.LASF451
 3447 0039 05       		.byte	0x5
 3448 003a 50       		.uleb128 0x50
 3449 003b 469D0100 		.4byte	.LASF452
 3450 003f 05       		.byte	0x5
 3451 0040 51       		.uleb128 0x51
 3452 0041 64D40000 		.4byte	.LASF453
 3453 0045 05       		.byte	0x5
 3454 0046 52       		.uleb128 0x52
 3455 0047 68880300 		.4byte	.LASF454
 3456 004b 05       		.byte	0x5
 3457 004c 5B       		.uleb128 0x5b
 3458 004d 479F0300 		.4byte	.LASF455
 3459 0051 05       		.byte	0x5
 3460 0052 63       		.uleb128 0x63
 3461 0053 68770400 		.4byte	.LASF456
 3462 0057 05       		.byte	0x5
 3463 0058 6C       		.uleb128 0x6c
 3464 0059 FA620200 		.4byte	.LASF457
 3465 005d 05       		.byte	0x5
 3466 005e 74       		.uleb128 0x74
 3467 005f 64D90100 		.4byte	.LASF458
 3468 0063 05       		.byte	0x5
 3469 0064 7B       		.uleb128 0x7b
 3470 0065 B06D0100 		.4byte	.LASF459
 3471 0069 05       		.byte	0x5
 3472 006a 8401     		.uleb128 0x84
 3473 006c F4130300 		.4byte	.LASF460
 3474 0070 05       		.byte	0x5
 3475 0071 8D01     		.uleb128 0x8d
 3476 0073 512C0100 		.4byte	.LASF461
 3477 0077 05       		.byte	0x5
ARM GAS  C:\Users\anashi\AppData\Local\Temp\ccYYZBJq.s 			page 62


 3478 0078 9501     		.uleb128 0x95
 3479 007a BB620100 		.4byte	.LASF462
 3480 007e 05       		.byte	0x5
 3481 007f 9901     		.uleb128 0x99
 3482 0081 F0730300 		.4byte	.LASF463
 3483 0085 05       		.byte	0x5
 3484 0086 A301     		.uleb128 0xa3
 3485 0088 BB2F0300 		.4byte	.LASF464
 3486 008c 05       		.byte	0x5
 3487 008d A401     		.uleb128 0xa4
 3488 008f B6EC0000 		.4byte	.LASF465
 3489 0093 05       		.byte	0x5
 3490 0094 A701     		.uleb128 0xa7
 3491 0096 BB520200 		.4byte	.LASF466
 3492 009a 05       		.byte	0x5
 3493 009b A801     		.uleb128 0xa8
 3494 009d BF700100 		.4byte	.LASF467
 3495 00a1 05       		.byte	0x5
 3496 00a2 A901     		.uleb128 0xa9
 3497 00a4 60840000 		.4byte	.LASF468
 3498 00a8 05       		.byte	0x5
 3499 00a9 AA01     		.uleb128 0xaa
 3500 00ab 451F0200 		.4byte	.LASF469
 3501 00af 05       		.byte	0x5
 3502 00b0 B901     		.uleb128 0xb9
 3503 00b2 EADE0000 		.4byte	.LASF470
 3504 00b6 00       		.byte	0
 3505              		.section	.debug_macro,"G",%progbits,wm4.stm32f0xx.h.55.6dda558900ae83b4ddf41af91bcbf2f5,comdat
 3506              	.Ldebug_macro3:
 3507 0000 0400     		.2byte	0x4
 3508 0002 00       		.byte	0
 3509 0003 05       		.byte	0x5
 3510 0004 37       		.uleb128 0x37
 3511 0005 BF5B0300 		.4byte	.LASF473
 3512 0009 05       		.byte	0x5
 3513 000a 45       		.uleb128 0x45
 3514 000b 7A130400 		.4byte	.LASF474
 3515 000f 05       		.byte	0x5
 3516 0010 73       		.uleb128 0x73
 3517 0011 38360000 		.4byte	.LASF475
 3518 0015 05       		.byte	0x5
 3519 0016 74       		.uleb128 0x74
 3520 0017 64000000 		.4byte	.LASF476
 3521 001b 05       		.byte	0x5
 3522 001c 75       		.uleb128 0x75
 3523 001d 091E0400 		.4byte	.LASF477
 3524 0021 05       		.byte	0x5
 3525 0022 76       		.uleb128 0x76
 3526 0023 92440100 		.4byte	.LASF478
 3527 0027 05       		.byte	0x5
 3528 0028 77       		.uleb128 0x77
 3529 0029 206E0300 		.4byte	.LASF479
 3530 002d 00       		.byte	0
 3531              		.section	.debug_macro,"G",%progbits,wm4.stm32f030x6.h.53.053e472ccf3703d6714ba6f265ae1044,comdat
 3532              	.Ldebug_macro4:
 3533 0000 0400     		.2byte	0x4
 3534 0002 00       		.byte	0
ARM GAS  C:\Users\anashi\AppData\Local\Temp\ccYYZBJq.s 			page 63


 3535 0003 05       		.byte	0x5
 3536 0004 35       		.uleb128 0x35
 3537 0005 E69D0100 		.4byte	.LASF480
 3538 0009 05       		.byte	0x5
 3539 000a 41       		.uleb128 0x41
 3540 000b DE4C0100 		.4byte	.LASF481
 3541 000f 05       		.byte	0x5
 3542 0010 42       		.uleb128 0x42
 3543 0011 59F70200 		.4byte	.LASF482
 3544 0015 05       		.byte	0x5
 3545 0016 43       		.uleb128 0x43
 3546 0017 CD840300 		.4byte	.LASF483
 3547 001b 05       		.byte	0x5
 3548 001c 44       		.uleb128 0x44
 3549 001d C97A0200 		.4byte	.LASF484
 3550 0021 00       		.byte	0
 3551              		.section	.debug_macro,"G",%progbits,wm4._newlib_version.h.4.875b979a44719054cd750d0952ad3fd6,comda
 3552              	.Ldebug_macro5:
 3553 0000 0400     		.2byte	0x4
 3554 0002 00       		.byte	0
 3555 0003 05       		.byte	0x5
 3556 0004 04       		.uleb128 0x4
 3557 0005 C8680300 		.4byte	.LASF489
 3558 0009 05       		.byte	0x5
 3559 000a 06       		.uleb128 0x6
 3560 000b 0D170200 		.4byte	.LASF490
 3561 000f 05       		.byte	0x5
 3562 0010 07       		.uleb128 0x7
 3563 0011 27720200 		.4byte	.LASF491
 3564 0015 05       		.byte	0x5
 3565 0016 08       		.uleb128 0x8
 3566 0017 99270100 		.4byte	.LASF492
 3567 001b 05       		.byte	0x5
 3568 001c 09       		.uleb128 0x9
 3569 001d 082F0300 		.4byte	.LASF493
 3570 0021 00       		.byte	0
 3571              		.section	.debug_macro,"G",%progbits,wm4.features.h.33.318b64d71e0957639cfb30f1db1f7ec8,comdat
 3572              	.Ldebug_macro6:
 3573 0000 0400     		.2byte	0x4
 3574 0002 00       		.byte	0
 3575 0003 05       		.byte	0x5
 3576 0004 21       		.uleb128 0x21
 3577 0005 378F0200 		.4byte	.LASF494
 3578 0009 05       		.byte	0x5
 3579 000a 28       		.uleb128 0x28
 3580 000b 70560000 		.4byte	.LASF495
 3581 000f 06       		.byte	0x6
 3582 0010 8301     		.uleb128 0x83
 3583 0012 29530400 		.4byte	.LASF496
 3584 0016 05       		.byte	0x5
 3585 0017 8401     		.uleb128 0x84
 3586 0019 A2620000 		.4byte	.LASF497
 3587 001d 06       		.byte	0x6
 3588 001e 8801     		.uleb128 0x88
 3589 0020 7CA30200 		.4byte	.LASF498
 3590 0024 05       		.byte	0x5
 3591 0025 8901     		.uleb128 0x89
ARM GAS  C:\Users\anashi\AppData\Local\Temp\ccYYZBJq.s 			page 64


 3592 0027 FDF30100 		.4byte	.LASF499
 3593 002b 06       		.byte	0x6
 3594 002c 8A01     		.uleb128 0x8a
 3595 002e 33980100 		.4byte	.LASF500
 3596 0032 05       		.byte	0x5
 3597 0033 8B01     		.uleb128 0x8b
 3598 0035 0F380100 		.4byte	.LASF501
 3599 0039 06       		.byte	0x6
 3600 003a 9E01     		.uleb128 0x9e
 3601 003c 796E0200 		.4byte	.LASF502
 3602 0040 05       		.byte	0x5
 3603 0041 9F01     		.uleb128 0x9f
 3604 0043 DA8D0300 		.4byte	.LASF503
 3605 0047 05       		.byte	0x5
 3606 0048 F701     		.uleb128 0xf7
 3607 004a BAA50300 		.4byte	.LASF504
 3608 004e 05       		.byte	0x5
 3609 004f FD01     		.uleb128 0xfd
 3610 0051 9F320300 		.4byte	.LASF505
 3611 0055 05       		.byte	0x5
 3612 0056 8502     		.uleb128 0x105
 3613 0058 3F3D0100 		.4byte	.LASF506
 3614 005c 05       		.byte	0x5
 3615 005d 8A02     		.uleb128 0x10a
 3616 005f BB710100 		.4byte	.LASF507
 3617 0063 05       		.byte	0x5
 3618 0064 9502     		.uleb128 0x115
 3619 0066 D9300200 		.4byte	.LASF508
 3620 006a 05       		.byte	0x5
 3621 006b 9902     		.uleb128 0x119
 3622 006d B9A40200 		.4byte	.LASF509
 3623 0071 05       		.byte	0x5
 3624 0072 9F02     		.uleb128 0x11f
 3625 0074 F1C30000 		.4byte	.LASF510
 3626 0078 05       		.byte	0x5
 3627 0079 AF02     		.uleb128 0x12f
 3628 007b BFDB0200 		.4byte	.LASF511
 3629 007f 05       		.byte	0x5
 3630 0080 BF02     		.uleb128 0x13f
 3631 0082 E1840100 		.4byte	.LASF512
 3632 0086 05       		.byte	0x5
 3633 0087 CA02     		.uleb128 0x14a
 3634 0089 163A0100 		.4byte	.LASF513
 3635 008d 00       		.byte	0
 3636              		.section	.debug_macro,"G",%progbits,wm4._default_types.h.15.247e5cd201eca3442cbf5404108c4935,comda
 3637              	.Ldebug_macro7:
 3638 0000 0400     		.2byte	0x4
 3639 0002 00       		.byte	0
 3640 0003 05       		.byte	0x5
 3641 0004 0F       		.uleb128 0xf
 3642 0005 335C0100 		.4byte	.LASF514
 3643 0009 05       		.byte	0x5
 3644 000a 1A       		.uleb128 0x1a
 3645 000b 13D70300 		.4byte	.LASF515
 3646 000f 05       		.byte	0x5
 3647 0010 21       		.uleb128 0x21
 3648 0011 D8A30200 		.4byte	.LASF516
ARM GAS  C:\Users\anashi\AppData\Local\Temp\ccYYZBJq.s 			page 65


 3649 0015 05       		.byte	0x5
 3650 0016 2F       		.uleb128 0x2f
 3651 0017 B8330000 		.4byte	.LASF517
 3652 001b 05       		.byte	0x5
 3653 001c 3D       		.uleb128 0x3d
 3654 001d D5250100 		.4byte	.LASF518
 3655 0021 05       		.byte	0x5
 3656 0022 53       		.uleb128 0x53
 3657 0023 BEA00300 		.4byte	.LASF519
 3658 0027 05       		.byte	0x5
 3659 0028 6D       		.uleb128 0x6d
 3660 0029 58680100 		.4byte	.LASF520
 3661 002d 05       		.byte	0x5
 3662 002e 8C01     		.uleb128 0x8c
 3663 0030 5C1C0300 		.4byte	.LASF521
 3664 0034 05       		.byte	0x5
 3665 0035 A601     		.uleb128 0xa6
 3666 0037 60AD0200 		.4byte	.LASF522
 3667 003b 05       		.byte	0x5
 3668 003c BC01     		.uleb128 0xbc
 3669 003e 4DF40000 		.4byte	.LASF523
 3670 0042 05       		.byte	0x5
 3671 0043 CE01     		.uleb128 0xce
 3672 0045 B4D20200 		.4byte	.LASF524
 3673 0049 06       		.byte	0x6
 3674 004a F401     		.uleb128 0xf4
 3675 004c 735D0200 		.4byte	.LASF525
 3676 0050 00       		.byte	0
 3677              		.section	.debug_macro,"G",%progbits,wm4._intsup.h.10.cce27fed8484c08a33f522034c30d2b5,comdat
 3678              	.Ldebug_macro8:
 3679 0000 0400     		.2byte	0x4
 3680 0002 00       		.byte	0
 3681 0003 05       		.byte	0x5
 3682 0004 0A       		.uleb128 0xa
 3683 0005 7C610300 		.4byte	.LASF526
 3684 0009 05       		.byte	0x5
 3685 000a 10       		.uleb128 0x10
 3686 000b 94150000 		.4byte	.LASF527
 3687 000f 06       		.byte	0x6
 3688 0010 2A       		.uleb128 0x2a
 3689 0011 7E0D0300 		.4byte	.LASF528
 3690 0015 06       		.byte	0x6
 3691 0016 2B       		.uleb128 0x2b
 3692 0017 FECC0100 		.4byte	.LASF529
 3693 001b 06       		.byte	0x6
 3694 001c 2C       		.uleb128 0x2c
 3695 001d CCF70100 		.4byte	.LASF530
 3696 0021 06       		.byte	0x6
 3697 0022 2D       		.uleb128 0x2d
 3698 0023 51620200 		.4byte	.LASF531
 3699 0027 02       		.byte	0x2
 3700 0028 2E       		.uleb128 0x2e
 3701 0029 696E7400 		.ascii	"int\000"
 3702 002d 06       		.byte	0x6
 3703 002e 2F       		.uleb128 0x2f
 3704 002f A5490100 		.4byte	.LASF532
 3705 0033 06       		.byte	0x6
ARM GAS  C:\Users\anashi\AppData\Local\Temp\ccYYZBJq.s 			page 66


 3706 0034 30       		.uleb128 0x30
 3707 0035 8BE40200 		.4byte	.LASF533
 3708 0039 05       		.byte	0x5
 3709 003a 31       		.uleb128 0x31
 3710 003b 4C190000 		.4byte	.LASF534
 3711 003f 05       		.byte	0x5
 3712 0040 32       		.uleb128 0x32
 3713 0041 44B50200 		.4byte	.LASF535
 3714 0045 05       		.byte	0x5
 3715 0046 33       		.uleb128 0x33
 3716 0047 02340300 		.4byte	.LASF536
 3717 004b 05       		.byte	0x5
 3718 004c 34       		.uleb128 0x34
 3719 004d 07500200 		.4byte	.LASF537
 3720 0051 05       		.byte	0x5
 3721 0052 35       		.uleb128 0x35
 3722 0053 63200400 		.4byte	.LASF538
 3723 0057 05       		.byte	0x5
 3724 0058 36       		.uleb128 0x36
 3725 0059 B6EF0200 		.4byte	.LASF539
 3726 005d 05       		.byte	0x5
 3727 005e 37       		.uleb128 0x37
 3728 005f DAEA0300 		.4byte	.LASF540
 3729 0063 05       		.byte	0x5
 3730 0064 40       		.uleb128 0x40
 3731 0065 FBD10200 		.4byte	.LASF541
 3732 0069 05       		.byte	0x5
 3733 006a 47       		.uleb128 0x47
 3734 006b 031C0400 		.4byte	.LASF542
 3735 006f 05       		.byte	0x5
 3736 0070 4F       		.uleb128 0x4f
 3737 0071 94730200 		.4byte	.LASF543
 3738 0075 05       		.byte	0x5
 3739 0076 5A       		.uleb128 0x5a
 3740 0077 F2060300 		.4byte	.LASF544
 3741 007b 05       		.byte	0x5
 3742 007c 65       		.uleb128 0x65
 3743 007d C2140200 		.4byte	.LASF545
 3744 0081 05       		.byte	0x5
 3745 0082 6E       		.uleb128 0x6e
 3746 0083 534A0100 		.4byte	.LASF546
 3747 0087 05       		.byte	0x5
 3748 0088 75       		.uleb128 0x75
 3749 0089 CB300400 		.4byte	.LASF547
 3750 008d 05       		.byte	0x5
 3751 008e 7E       		.uleb128 0x7e
 3752 008f 2FC70000 		.4byte	.LASF548
 3753 0093 05       		.byte	0x5
 3754 0094 8501     		.uleb128 0x85
 3755 0096 B9290300 		.4byte	.LASF549
 3756 009a 05       		.byte	0x5
 3757 009b 9001     		.uleb128 0x90
 3758 009d 248C0100 		.4byte	.LASF550
 3759 00a1 05       		.byte	0x5
 3760 00a2 9401     		.uleb128 0x94
 3761 00a4 EB8D0300 		.4byte	.LASF551
 3762 00a8 05       		.byte	0x5
ARM GAS  C:\Users\anashi\AppData\Local\Temp\ccYYZBJq.s 			page 67


 3763 00a9 9F01     		.uleb128 0x9f
 3764 00ab D1A20100 		.4byte	.LASF552
 3765 00af 05       		.byte	0x5
 3766 00b0 AA01     		.uleb128 0xaa
 3767 00b2 179A0000 		.4byte	.LASF553
 3768 00b6 05       		.byte	0x5
 3769 00b7 B301     		.uleb128 0xb3
 3770 00b9 FC0E0300 		.4byte	.LASF554
 3771 00bd 06       		.byte	0x6
 3772 00be B501     		.uleb128 0xb5
 3773 00c0 7E0D0300 		.4byte	.LASF528
 3774 00c4 06       		.byte	0x6
 3775 00c5 B601     		.uleb128 0xb6
 3776 00c7 FECC0100 		.4byte	.LASF529
 3777 00cb 06       		.byte	0x6
 3778 00cc B701     		.uleb128 0xb7
 3779 00ce CCF70100 		.4byte	.LASF530
 3780 00d2 06       		.byte	0x6
 3781 00d3 B801     		.uleb128 0xb8
 3782 00d5 51620200 		.4byte	.LASF531
 3783 00d9 02       		.byte	0x2
 3784 00da B901     		.uleb128 0xb9
 3785 00dc 696E7400 		.ascii	"int\000"
 3786 00e0 06       		.byte	0x6
 3787 00e1 BA01     		.uleb128 0xba
 3788 00e3 8BE40200 		.4byte	.LASF533
 3789 00e7 06       		.byte	0x6
 3790 00e8 BF01     		.uleb128 0xbf
 3791 00ea A5490100 		.4byte	.LASF532
 3792 00ee 00       		.byte	0
 3793              		.section	.debug_macro,"G",%progbits,wm4._stdint.h.10.c24fa3af3bc1706662bb5593a907e841,comdat
 3794              	.Ldebug_macro9:
 3795 0000 0400     		.2byte	0x4
 3796 0002 00       		.byte	0
 3797 0003 05       		.byte	0x5
 3798 0004 0A       		.uleb128 0xa
 3799 0005 D88D0100 		.4byte	.LASF555
 3800 0009 05       		.byte	0x5
 3801 000a 15       		.uleb128 0x15
 3802 000b 3EE20100 		.4byte	.LASF556
 3803 000f 05       		.byte	0x5
 3804 0010 19       		.uleb128 0x19
 3805 0011 EC670100 		.4byte	.LASF557
 3806 0015 05       		.byte	0x5
 3807 0016 1B       		.uleb128 0x1b
 3808 0017 6F7E0300 		.4byte	.LASF558
 3809 001b 05       		.byte	0x5
 3810 001c 21       		.uleb128 0x21
 3811 001d 800B0400 		.4byte	.LASF559
 3812 0021 05       		.byte	0x5
 3813 0022 25       		.uleb128 0x25
 3814 0023 C3CC0100 		.4byte	.LASF560
 3815 0027 05       		.byte	0x5
 3816 0028 27       		.uleb128 0x27
 3817 0029 827E0300 		.4byte	.LASF561
 3818 002d 05       		.byte	0x5
 3819 002e 2D       		.uleb128 0x2d
ARM GAS  C:\Users\anashi\AppData\Local\Temp\ccYYZBJq.s 			page 68


 3820 002f 8C6B0200 		.4byte	.LASF562
 3821 0033 05       		.byte	0x5
 3822 0034 31       		.uleb128 0x31
 3823 0035 3F100000 		.4byte	.LASF563
 3824 0039 05       		.byte	0x5
 3825 003a 33       		.uleb128 0x33
 3826 003b 02DA0100 		.4byte	.LASF564
 3827 003f 05       		.byte	0x5
 3828 0040 39       		.uleb128 0x39
 3829 0041 21DA0300 		.4byte	.LASF565
 3830 0045 05       		.byte	0x5
 3831 0046 3D       		.uleb128 0x3d
 3832 0047 4A140200 		.4byte	.LASF566
 3833 004b 05       		.byte	0x5
 3834 004c 3F       		.uleb128 0x3f
 3835 004d 7BC60300 		.4byte	.LASF567
 3836 0051 05       		.byte	0x5
 3837 0052 44       		.uleb128 0x44
 3838 0053 AC2A0400 		.4byte	.LASF568
 3839 0057 05       		.byte	0x5
 3840 0058 49       		.uleb128 0x49
 3841 0059 4AB80200 		.4byte	.LASF569
 3842 005d 05       		.byte	0x5
 3843 005e 4E       		.uleb128 0x4e
 3844 005f C3520000 		.4byte	.LASF570
 3845 0063 05       		.byte	0x5
 3846 0064 53       		.uleb128 0x53
 3847 0065 93080300 		.4byte	.LASF571
 3848 0069 00       		.byte	0
 3849              		.section	.debug_macro,"G",%progbits,wm4.stdint.h.23.d53047a68f4a85177f80b422d52785ed,comdat
 3850              	.Ldebug_macro10:
 3851 0000 0400     		.2byte	0x4
 3852 0002 00       		.byte	0
 3853 0003 05       		.byte	0x5
 3854 0004 17       		.uleb128 0x17
 3855 0005 EE060400 		.4byte	.LASF572
 3856 0009 05       		.byte	0x5
 3857 000a 1D       		.uleb128 0x1d
 3858 000b A3BA0200 		.4byte	.LASF573
 3859 000f 05       		.byte	0x5
 3860 0010 23       		.uleb128 0x23
 3861 0011 DA000100 		.4byte	.LASF574
 3862 0015 05       		.byte	0x5
 3863 0016 29       		.uleb128 0x29
 3864 0017 23F50200 		.4byte	.LASF575
 3865 001b 05       		.byte	0x5
 3866 001c 35       		.uleb128 0x35
 3867 001d B6170300 		.4byte	.LASF576
 3868 0021 05       		.byte	0x5
 3869 0022 3F       		.uleb128 0x3f
 3870 0023 27920300 		.4byte	.LASF577
 3871 0027 05       		.byte	0x5
 3872 0028 49       		.uleb128 0x49
 3873 0029 96E60100 		.4byte	.LASF578
 3874 002d 05       		.byte	0x5
 3875 002e 53       		.uleb128 0x53
 3876 002f DACF0300 		.4byte	.LASF579
ARM GAS  C:\Users\anashi\AppData\Local\Temp\ccYYZBJq.s 			page 69


 3877 0033 05       		.byte	0x5
 3878 0034 8001     		.uleb128 0x80
 3879 0036 BCC90000 		.4byte	.LASF580
 3880 003a 05       		.byte	0x5
 3881 003b 8101     		.uleb128 0x81
 3882 003d 82FA0100 		.4byte	.LASF581
 3883 0041 05       		.byte	0x5
 3884 0042 8201     		.uleb128 0x82
 3885 0044 D4660000 		.4byte	.LASF582
 3886 0048 05       		.byte	0x5
 3887 0049 9801     		.uleb128 0x98
 3888 004b 04230400 		.4byte	.LASF583
 3889 004f 05       		.byte	0x5
 3890 0050 9901     		.uleb128 0x99
 3891 0052 AF4E0200 		.4byte	.LASF584
 3892 0056 05       		.byte	0x5
 3893 0057 9A01     		.uleb128 0x9a
 3894 0059 84D20100 		.4byte	.LASF585
 3895 005d 05       		.byte	0x5
 3896 005e A201     		.uleb128 0xa2
 3897 0060 2EC20200 		.4byte	.LASF586
 3898 0064 05       		.byte	0x5
 3899 0065 A301     		.uleb128 0xa3
 3900 0067 54860200 		.4byte	.LASF587
 3901 006b 05       		.byte	0x5
 3902 006c A401     		.uleb128 0xa4
 3903 006e 00D70000 		.4byte	.LASF588
 3904 0072 05       		.byte	0x5
 3905 0073 AE01     		.uleb128 0xae
 3906 0075 11570400 		.4byte	.LASF589
 3907 0079 05       		.byte	0x5
 3908 007a AF01     		.uleb128 0xaf
 3909 007c 05DA0000 		.4byte	.LASF590
 3910 0080 05       		.byte	0x5
 3911 0081 B001     		.uleb128 0xb0
 3912 0083 9EFB0300 		.4byte	.LASF591
 3913 0087 05       		.byte	0x5
 3914 0088 B801     		.uleb128 0xb8
 3915 008a FB640200 		.4byte	.LASF592
 3916 008e 05       		.byte	0x5
 3917 008f B901     		.uleb128 0xb9
 3918 0091 45580000 		.4byte	.LASF593
 3919 0095 05       		.byte	0x5
 3920 0096 BA01     		.uleb128 0xba
 3921 0098 8CFD0200 		.4byte	.LASF594
 3922 009c 05       		.byte	0x5
 3923 009d C401     		.uleb128 0xc4
 3924 009f 553B0100 		.4byte	.LASF595
 3925 00a3 05       		.byte	0x5
 3926 00a4 C501     		.uleb128 0xc5
 3927 00a6 C4F90100 		.4byte	.LASF596
 3928 00aa 05       		.byte	0x5
 3929 00ab C601     		.uleb128 0xc6
 3930 00ad 6A080400 		.4byte	.LASF597
 3931 00b1 05       		.byte	0x5
 3932 00b2 D401     		.uleb128 0xd4
 3933 00b4 81200000 		.4byte	.LASF598
ARM GAS  C:\Users\anashi\AppData\Local\Temp\ccYYZBJq.s 			page 70


 3934 00b8 05       		.byte	0x5
 3935 00b9 D501     		.uleb128 0xd5
 3936 00bb FAC60200 		.4byte	.LASF599
 3937 00bf 05       		.byte	0x5
 3938 00c0 D601     		.uleb128 0xd6
 3939 00c2 C0C20300 		.4byte	.LASF600
 3940 00c6 05       		.byte	0x5
 3941 00c7 E601     		.uleb128 0xe6
 3942 00c9 939A0300 		.4byte	.LASF601
 3943 00cd 05       		.byte	0x5
 3944 00ce E701     		.uleb128 0xe7
 3945 00d0 D9450000 		.4byte	.LASF602
 3946 00d4 05       		.byte	0x5
 3947 00d5 E801     		.uleb128 0xe8
 3948 00d7 B56B0000 		.4byte	.LASF603
 3949 00db 05       		.byte	0x5
 3950 00dc F601     		.uleb128 0xf6
 3951 00de C02A0400 		.4byte	.LASF604
 3952 00e2 05       		.byte	0x5
 3953 00e3 F701     		.uleb128 0xf7
 3954 00e5 261D0300 		.4byte	.LASF605
 3955 00e9 05       		.byte	0x5
 3956 00ea F801     		.uleb128 0xf8
 3957 00ec E2EA0300 		.4byte	.LASF606
 3958 00f0 05       		.byte	0x5
 3959 00f1 8602     		.uleb128 0x106
 3960 00f3 C70D0000 		.4byte	.LASF607
 3961 00f7 05       		.byte	0x5
 3962 00f8 8702     		.uleb128 0x107
 3963 00fa E5060100 		.4byte	.LASF608
 3964 00fe 05       		.byte	0x5
 3965 00ff 8802     		.uleb128 0x108
 3966 0101 D4200400 		.4byte	.LASF609
 3967 0105 05       		.byte	0x5
 3968 0106 9602     		.uleb128 0x116
 3969 0108 12130000 		.4byte	.LASF610
 3970 010c 05       		.byte	0x5
 3971 010d 9702     		.uleb128 0x117
 3972 010f C93D0400 		.4byte	.LASF611
 3973 0113 05       		.byte	0x5
 3974 0114 9802     		.uleb128 0x118
 3975 0116 4F170000 		.4byte	.LASF612
 3976 011a 05       		.byte	0x5
 3977 011b A602     		.uleb128 0x126
 3978 011d 8DFE0300 		.4byte	.LASF613
 3979 0121 05       		.byte	0x5
 3980 0122 A702     		.uleb128 0x127
 3981 0124 9E970200 		.4byte	.LASF614
 3982 0128 05       		.byte	0x5
 3983 0129 A802     		.uleb128 0x128
 3984 012b 168C0200 		.4byte	.LASF615
 3985 012f 05       		.byte	0x5
 3986 0130 B602     		.uleb128 0x136
 3987 0132 D1B60000 		.4byte	.LASF616
 3988 0136 05       		.byte	0x5
 3989 0137 B702     		.uleb128 0x137
 3990 0139 433B0400 		.4byte	.LASF617
ARM GAS  C:\Users\anashi\AppData\Local\Temp\ccYYZBJq.s 			page 71


 3991 013d 05       		.byte	0x5
 3992 013e B802     		.uleb128 0x138
 3993 0140 E8E30200 		.4byte	.LASF618
 3994 0144 05       		.byte	0x5
 3995 0145 C602     		.uleb128 0x146
 3996 0147 27600300 		.4byte	.LASF619
 3997 014b 05       		.byte	0x5
 3998 014c C702     		.uleb128 0x147
 3999 014e D0F40300 		.4byte	.LASF620
 4000 0152 05       		.byte	0x5
 4001 0153 CF02     		.uleb128 0x14f
 4002 0155 8A450000 		.4byte	.LASF621
 4003 0159 05       		.byte	0x5
 4004 015a D702     		.uleb128 0x157
 4005 015c 105E0000 		.4byte	.LASF622
 4006 0160 05       		.byte	0x5
 4007 0161 DD02     		.uleb128 0x15d
 4008 0163 08A20200 		.4byte	.LASF623
 4009 0167 05       		.byte	0x5
 4010 0168 DE02     		.uleb128 0x15e
 4011 016a 8EDB0300 		.4byte	.LASF624
 4012 016e 05       		.byte	0x5
 4013 016f E202     		.uleb128 0x162
 4014 0171 55BE0200 		.4byte	.LASF625
 4015 0175 05       		.byte	0x5
 4016 0176 E602     		.uleb128 0x166
 4017 0178 B6FF0300 		.4byte	.LASF626
 4018 017c 05       		.byte	0x5
 4019 017d EB02     		.uleb128 0x16b
 4020 017f 4B8E0200 		.4byte	.LASF627
 4021 0183 05       		.byte	0x5
 4022 0184 F602     		.uleb128 0x176
 4023 0186 2A510200 		.4byte	.LASF628
 4024 018a 05       		.byte	0x5
 4025 018b 8003     		.uleb128 0x180
 4026 018d 95EA0100 		.4byte	.LASF629
 4027 0191 05       		.byte	0x5
 4028 0192 8503     		.uleb128 0x185
 4029 0194 13660300 		.4byte	.LASF630
 4030 0198 05       		.byte	0x5
 4031 0199 8C03     		.uleb128 0x18c
 4032 019b E05B0400 		.4byte	.LASF631
 4033 019f 05       		.byte	0x5
 4034 01a0 8D03     		.uleb128 0x18d
 4035 01a2 30500400 		.4byte	.LASF632
 4036 01a6 05       		.byte	0x5
 4037 01a7 9803     		.uleb128 0x198
 4038 01a9 D6970300 		.4byte	.LASF633
 4039 01ad 05       		.byte	0x5
 4040 01ae 9903     		.uleb128 0x199
 4041 01b0 76110300 		.4byte	.LASF634
 4042 01b4 05       		.byte	0x5
 4043 01b5 A403     		.uleb128 0x1a4
 4044 01b7 70440100 		.4byte	.LASF635
 4045 01bb 05       		.byte	0x5
 4046 01bc A503     		.uleb128 0x1a5
 4047 01be A40C0300 		.4byte	.LASF636
ARM GAS  C:\Users\anashi\AppData\Local\Temp\ccYYZBJq.s 			page 72


 4048 01c2 05       		.byte	0x5
 4049 01c3 B103     		.uleb128 0x1b1
 4050 01c5 5EDB0000 		.4byte	.LASF637
 4051 01c9 05       		.byte	0x5
 4052 01ca B203     		.uleb128 0x1b2
 4053 01cc F0F80300 		.4byte	.LASF638
 4054 01d0 05       		.byte	0x5
 4055 01d1 C103     		.uleb128 0x1c1
 4056 01d3 7EE50000 		.4byte	.LASF639
 4057 01d7 05       		.byte	0x5
 4058 01d8 C203     		.uleb128 0x1c2
 4059 01da 40210100 		.4byte	.LASF640
 4060 01de 00       		.byte	0
 4061              		.section	.debug_macro,"G",%progbits,wm4.core_cm0.h.74.a7f5ed9ff199b3163f5ed99892efe60d,comdat
 4062              	.Ldebug_macro11:
 4063 0000 0400     		.2byte	0x4
 4064 0002 00       		.byte	0
 4065 0003 05       		.byte	0x5
 4066 0004 4A       		.uleb128 0x4a
 4067 0005 2E0D0000 		.4byte	.LASF642
 4068 0009 05       		.byte	0x5
 4069 000a 4B       		.uleb128 0x4b
 4070 000b 21310300 		.4byte	.LASF643
 4071 000f 05       		.byte	0x5
 4072 0010 4C       		.uleb128 0x4c
 4073 0011 16DC0100 		.4byte	.LASF644
 4074 0015 05       		.byte	0x5
 4075 0016 4F       		.uleb128 0x4f
 4076 0017 5D2E0000 		.4byte	.LASF645
 4077 001b 05       		.byte	0x5
 4078 001c 5D       		.uleb128 0x5d
 4079 001d 7F4C0400 		.4byte	.LASF646
 4080 0021 05       		.byte	0x5
 4081 0022 5E       		.uleb128 0x5e
 4082 0023 37860000 		.4byte	.LASF647
 4083 0027 05       		.byte	0x5
 4084 0028 5F       		.uleb128 0x5f
 4085 0029 A1A30100 		.4byte	.LASF648
 4086 002d 05       		.byte	0x5
 4087 002e 7C       		.uleb128 0x7c
 4088 002f A8530300 		.4byte	.LASF649
 4089 0033 00       		.byte	0
 4090              		.section	.debug_macro,"G",%progbits,wm4.cmsis_gcc.h.36.5bb14fd68ce7855540fcfe2d9305ae16,comdat
 4091              	.Ldebug_macro12:
 4092 0000 0400     		.2byte	0x4
 4093 0002 00       		.byte	0
 4094 0003 05       		.byte	0x5
 4095 0004 24       		.uleb128 0x24
 4096 0005 DBA50200 		.4byte	.LASF651
 4097 0009 05       		.byte	0x5
 4098 000a EA02     		.uleb128 0x16a
 4099 000c 511A0200 		.4byte	.LASF652
 4100 0010 05       		.byte	0x5
 4101 0011 EB02     		.uleb128 0x16b
 4102 0013 3BFA0000 		.4byte	.LASF653
 4103 0017 05       		.byte	0x5
 4104 0018 8504     		.uleb128 0x205
ARM GAS  C:\Users\anashi\AppData\Local\Temp\ccYYZBJq.s 			page 73


 4105 001a 71090200 		.4byte	.LASF654
 4106 001e 05       		.byte	0x5
 4107 001f AA04     		.uleb128 0x22a
 4108 0021 66720000 		.4byte	.LASF655
 4109 0025 00       		.byte	0
 4110              		.section	.debug_macro,"G",%progbits,wm4.core_cm0.h.175.2353140684a11cc8267b4125ac92735e,comdat
 4111              	.Ldebug_macro13:
 4112 0000 0400     		.2byte	0x4
 4113 0002 00       		.byte	0
 4114 0003 05       		.byte	0x5
 4115 0004 AF01     		.uleb128 0xaf
 4116 0006 10520200 		.4byte	.LASF657
 4117 000a 05       		.byte	0x5
 4118 000b D201     		.uleb128 0xd2
 4119 000d C7170400 		.4byte	.LASF658
 4120 0011 05       		.byte	0x5
 4121 0012 D401     		.uleb128 0xd4
 4122 0014 70450100 		.4byte	.LASF659
 4123 0018 05       		.byte	0x5
 4124 0019 D501     		.uleb128 0xd5
 4125 001b 69A30300 		.4byte	.LASF660
 4126 001f 05       		.byte	0x5
 4127 0020 D801     		.uleb128 0xd8
 4128 0022 E8D20100 		.4byte	.LASF661
 4129 0026 05       		.byte	0x5
 4130 0027 D901     		.uleb128 0xd9
 4131 0029 36A80000 		.4byte	.LASF662
 4132 002d 05       		.byte	0x5
 4133 002e DA01     		.uleb128 0xda
 4134 0030 BCAB0200 		.4byte	.LASF663
 4135 0034 05       		.byte	0x5
 4136 0035 8502     		.uleb128 0x105
 4137 0037 68AF0200 		.4byte	.LASF664
 4138 003b 05       		.byte	0x5
 4139 003c 8602     		.uleb128 0x106
 4140 003e F0080400 		.4byte	.LASF665
 4141 0042 05       		.byte	0x5
 4142 0043 8802     		.uleb128 0x108
 4143 0045 06850300 		.4byte	.LASF666
 4144 0049 05       		.byte	0x5
 4145 004a 8902     		.uleb128 0x109
 4146 004c A12D0400 		.4byte	.LASF667
 4147 0050 05       		.byte	0x5
 4148 0051 8B02     		.uleb128 0x10b
 4149 0053 2FBD0300 		.4byte	.LASF668
 4150 0057 05       		.byte	0x5
 4151 0058 8C02     		.uleb128 0x10c
 4152 005a EEA20200 		.4byte	.LASF669
 4153 005e 05       		.byte	0x5
 4154 005f 8E02     		.uleb128 0x10e
 4155 0061 F8A20300 		.4byte	.LASF670
 4156 0065 05       		.byte	0x5
 4157 0066 8F02     		.uleb128 0x10f
 4158 0068 76210400 		.4byte	.LASF671
 4159 006c 05       		.byte	0x5
 4160 006d A002     		.uleb128 0x120
 4161 006f 151E0200 		.4byte	.LASF672
ARM GAS  C:\Users\anashi\AppData\Local\Temp\ccYYZBJq.s 			page 74


 4162 0073 05       		.byte	0x5
 4163 0074 A102     		.uleb128 0x121
 4164 0076 DF700400 		.4byte	.LASF673
 4165 007a 05       		.byte	0x5
 4166 007b B802     		.uleb128 0x138
 4167 007d 52F30000 		.4byte	.LASF674
 4168 0081 05       		.byte	0x5
 4169 0082 B902     		.uleb128 0x139
 4170 0084 C7CA0300 		.4byte	.LASF675
 4171 0088 05       		.byte	0x5
 4172 0089 BB02     		.uleb128 0x13b
 4173 008b E1320400 		.4byte	.LASF676
 4174 008f 05       		.byte	0x5
 4175 0090 BC02     		.uleb128 0x13c
 4176 0092 34EC0300 		.4byte	.LASF677
 4177 0096 05       		.byte	0x5
 4178 0097 BE02     		.uleb128 0x13e
 4179 0099 5C630400 		.4byte	.LASF678
 4180 009d 05       		.byte	0x5
 4181 009e BF02     		.uleb128 0x13f
 4182 00a0 A8D20000 		.4byte	.LASF679
 4183 00a4 05       		.byte	0x5
 4184 00a5 C102     		.uleb128 0x141
 4185 00a7 774D0400 		.4byte	.LASF680
 4186 00ab 05       		.byte	0x5
 4187 00ac C202     		.uleb128 0x142
 4188 00ae 12E10300 		.4byte	.LASF681
 4189 00b2 05       		.byte	0x5
 4190 00b3 C402     		.uleb128 0x144
 4191 00b5 392F0300 		.4byte	.LASF682
 4192 00b9 05       		.byte	0x5
 4193 00ba C502     		.uleb128 0x145
 4194 00bc E8DA0300 		.4byte	.LASF683
 4195 00c0 05       		.byte	0x5
 4196 00c1 C702     		.uleb128 0x147
 4197 00c3 5E1C0100 		.4byte	.LASF684
 4198 00c7 05       		.byte	0x5
 4199 00c8 C802     		.uleb128 0x148
 4200 00ca 6C4B0400 		.4byte	.LASF685
 4201 00ce 05       		.byte	0x5
 4202 00cf DA02     		.uleb128 0x15a
 4203 00d1 E6550300 		.4byte	.LASF686
 4204 00d5 05       		.byte	0x5
 4205 00d6 DB02     		.uleb128 0x15b
 4206 00d8 66E30300 		.4byte	.LASF687
 4207 00dc 05       		.byte	0x5
 4208 00dd 9303     		.uleb128 0x193
 4209 00df 88A60200 		.4byte	.LASF688
 4210 00e3 05       		.byte	0x5
 4211 00e4 9403     		.uleb128 0x194
 4212 00e6 3C3C0300 		.4byte	.LASF689
 4213 00ea 05       		.byte	0x5
 4214 00eb 9603     		.uleb128 0x196
 4215 00ed 9C270400 		.4byte	.LASF690
 4216 00f1 05       		.byte	0x5
 4217 00f2 9703     		.uleb128 0x197
 4218 00f4 4C4F0000 		.4byte	.LASF691
ARM GAS  C:\Users\anashi\AppData\Local\Temp\ccYYZBJq.s 			page 75


 4219 00f8 05       		.byte	0x5
 4220 00f9 9903     		.uleb128 0x199
 4221 00fb A57D0200 		.4byte	.LASF692
 4222 00ff 05       		.byte	0x5
 4223 0100 9A03     		.uleb128 0x19a
 4224 0102 B4230100 		.4byte	.LASF693
 4225 0106 05       		.byte	0x5
 4226 0107 9C03     		.uleb128 0x19c
 4227 0109 626C0000 		.4byte	.LASF694
 4228 010d 05       		.byte	0x5
 4229 010e 9D03     		.uleb128 0x19d
 4230 0110 66B90200 		.4byte	.LASF695
 4231 0114 05       		.byte	0x5
 4232 0115 9F03     		.uleb128 0x19f
 4233 0117 F8C40000 		.4byte	.LASF696
 4234 011b 05       		.byte	0x5
 4235 011c A003     		.uleb128 0x1a0
 4236 011e 731B0000 		.4byte	.LASF697
 4237 0122 05       		.byte	0x5
 4238 0123 A303     		.uleb128 0x1a3
 4239 0125 E9650000 		.4byte	.LASF698
 4240 0129 05       		.byte	0x5
 4241 012a A403     		.uleb128 0x1a4
 4242 012c 897A0300 		.4byte	.LASF699
 4243 0130 05       		.byte	0x5
 4244 0131 A603     		.uleb128 0x1a6
 4245 0133 CB760300 		.4byte	.LASF700
 4246 0137 05       		.byte	0x5
 4247 0138 A703     		.uleb128 0x1a7
 4248 013a FFC20200 		.4byte	.LASF701
 4249 013e 05       		.byte	0x5
 4250 013f A903     		.uleb128 0x1a9
 4251 0141 BA5D0400 		.4byte	.LASF702
 4252 0145 05       		.byte	0x5
 4253 0146 AA03     		.uleb128 0x1aa
 4254 0148 53450000 		.4byte	.LASF703
 4255 014c 05       		.byte	0x5
 4256 014d AC03     		.uleb128 0x1ac
 4257 014f ECF80200 		.4byte	.LASF704
 4258 0153 05       		.byte	0x5
 4259 0154 AD03     		.uleb128 0x1ad
 4260 0156 12380000 		.4byte	.LASF705
 4261 015a 05       		.byte	0x5
 4262 015b AF03     		.uleb128 0x1af
 4263 015d A6E80300 		.4byte	.LASF706
 4264 0161 05       		.byte	0x5
 4265 0162 B003     		.uleb128 0x1b0
 4266 0164 254F0200 		.4byte	.LASF707
 4267 0168 05       		.byte	0x5
 4268 0169 B203     		.uleb128 0x1b2
 4269 016b 6D5E0100 		.4byte	.LASF708
 4270 016f 05       		.byte	0x5
 4271 0170 B303     		.uleb128 0x1b3
 4272 0172 BDEF0200 		.4byte	.LASF709
 4273 0176 05       		.byte	0x5
 4274 0177 B503     		.uleb128 0x1b5
 4275 0179 91530400 		.4byte	.LASF710
ARM GAS  C:\Users\anashi\AppData\Local\Temp\ccYYZBJq.s 			page 76


 4276 017d 05       		.byte	0x5
 4277 017e B603     		.uleb128 0x1b6
 4278 0180 666F0100 		.4byte	.LASF711
 4279 0184 05       		.byte	0x5
 4280 0185 B803     		.uleb128 0x1b8
 4281 0187 68C70300 		.4byte	.LASF712
 4282 018b 05       		.byte	0x5
 4283 018c B903     		.uleb128 0x1b9
 4284 018e 8E5C0300 		.4byte	.LASF713
 4285 0192 05       		.byte	0x5
 4286 0193 BB03     		.uleb128 0x1bb
 4287 0195 77250400 		.4byte	.LASF714
 4288 0199 05       		.byte	0x5
 4289 019a BC03     		.uleb128 0x1bc
 4290 019c C3770000 		.4byte	.LASF715
 4291 01a0 05       		.byte	0x5
 4292 01a1 BF03     		.uleb128 0x1bf
 4293 01a3 E8290400 		.4byte	.LASF716
 4294 01a7 05       		.byte	0x5
 4295 01a8 C003     		.uleb128 0x1c0
 4296 01aa F0DD0200 		.4byte	.LASF717
 4297 01ae 05       		.byte	0x5
 4298 01af C203     		.uleb128 0x1c2
 4299 01b1 2F8D0300 		.4byte	.LASF718
 4300 01b5 05       		.byte	0x5
 4301 01b6 C303     		.uleb128 0x1c3
 4302 01b8 F5850000 		.4byte	.LASF719
 4303 01bc 05       		.byte	0x5
 4304 01bd C503     		.uleb128 0x1c5
 4305 01bf BB610200 		.4byte	.LASF720
 4306 01c3 05       		.byte	0x5
 4307 01c4 C603     		.uleb128 0x1c6
 4308 01c6 9D110100 		.4byte	.LASF721
 4309 01ca 05       		.byte	0x5
 4310 01cb C803     		.uleb128 0x1c8
 4311 01cd EE580100 		.4byte	.LASF722
 4312 01d1 05       		.byte	0x5
 4313 01d2 C903     		.uleb128 0x1c9
 4314 01d4 B9ED0100 		.4byte	.LASF723
 4315 01d8 05       		.byte	0x5
 4316 01d9 CB03     		.uleb128 0x1cb
 4317 01db 39070400 		.4byte	.LASF724
 4318 01df 05       		.byte	0x5
 4319 01e0 CC03     		.uleb128 0x1cc
 4320 01e2 63C10100 		.4byte	.LASF725
 4321 01e6 05       		.byte	0x5
 4322 01e7 CF03     		.uleb128 0x1cf
 4323 01e9 70A20100 		.4byte	.LASF726
 4324 01ed 05       		.byte	0x5
 4325 01ee D003     		.uleb128 0x1d0
 4326 01f0 F4C50300 		.4byte	.LASF727
 4327 01f4 05       		.byte	0x5
 4328 01f5 D203     		.uleb128 0x1d2
 4329 01f7 64390000 		.4byte	.LASF728
 4330 01fb 05       		.byte	0x5
 4331 01fc D303     		.uleb128 0x1d3
 4332 01fe 5DFC0200 		.4byte	.LASF729
ARM GAS  C:\Users\anashi\AppData\Local\Temp\ccYYZBJq.s 			page 77


 4333 0202 05       		.byte	0x5
 4334 0203 D503     		.uleb128 0x1d5
 4335 0205 08270000 		.4byte	.LASF730
 4336 0209 05       		.byte	0x5
 4337 020a D603     		.uleb128 0x1d6
 4338 020c 31170300 		.4byte	.LASF731
 4339 0210 05       		.byte	0x5
 4340 0211 D903     		.uleb128 0x1d9
 4341 0213 A7050200 		.4byte	.LASF732
 4342 0217 05       		.byte	0x5
 4343 0218 DA03     		.uleb128 0x1da
 4344 021a 15B20000 		.4byte	.LASF733
 4345 021e 05       		.byte	0x5
 4346 021f DC03     		.uleb128 0x1dc
 4347 0221 3EC40000 		.4byte	.LASF734
 4348 0225 05       		.byte	0x5
 4349 0226 DD03     		.uleb128 0x1dd
 4350 0228 604A0100 		.4byte	.LASF735
 4351 022c 05       		.byte	0x5
 4352 022d E003     		.uleb128 0x1e0
 4353 022f F4980200 		.4byte	.LASF736
 4354 0233 05       		.byte	0x5
 4355 0234 E103     		.uleb128 0x1e1
 4356 0236 1E010100 		.4byte	.LASF737
 4357 023a 05       		.byte	0x5
 4358 023b F903     		.uleb128 0x1f9
 4359 023d 9F120100 		.4byte	.LASF738
 4360 0241 05       		.byte	0x5
 4361 0242 FA03     		.uleb128 0x1fa
 4362 0244 186C0300 		.4byte	.LASF739
 4363 0248 05       		.byte	0x5
 4364 0249 FC03     		.uleb128 0x1fc
 4365 024b 723A0400 		.4byte	.LASF740
 4366 024f 05       		.byte	0x5
 4367 0250 FD03     		.uleb128 0x1fd
 4368 0252 B7F00000 		.4byte	.LASF741
 4369 0256 05       		.byte	0x5
 4370 0257 FF03     		.uleb128 0x1ff
 4371 0259 26FE0200 		.4byte	.LASF742
 4372 025d 05       		.byte	0x5
 4373 025e 8004     		.uleb128 0x200
 4374 0260 3DF50200 		.4byte	.LASF743
 4375 0264 05       		.byte	0x5
 4376 0265 8204     		.uleb128 0x202
 4377 0267 3EBD0300 		.4byte	.LASF744
 4378 026b 05       		.byte	0x5
 4379 026c 8304     		.uleb128 0x203
 4380 026e C06B0100 		.4byte	.LASF745
 4381 0272 05       		.byte	0x5
 4382 0273 8604     		.uleb128 0x206
 4383 0275 11870300 		.4byte	.LASF746
 4384 0279 05       		.byte	0x5
 4385 027a 8704     		.uleb128 0x207
 4386 027c 09690000 		.4byte	.LASF747
 4387 0280 05       		.byte	0x5
 4388 0281 8A04     		.uleb128 0x20a
 4389 0283 807E0200 		.4byte	.LASF748
ARM GAS  C:\Users\anashi\AppData\Local\Temp\ccYYZBJq.s 			page 78


 4390 0287 05       		.byte	0x5
 4391 0288 8B04     		.uleb128 0x20b
 4392 028a 3F5F0100 		.4byte	.LASF749
 4393 028e 05       		.byte	0x5
 4394 028f 8E04     		.uleb128 0x20e
 4395 0291 D1BD0300 		.4byte	.LASF750
 4396 0295 05       		.byte	0x5
 4397 0296 8F04     		.uleb128 0x20f
 4398 0298 90BA0000 		.4byte	.LASF751
 4399 029c 05       		.byte	0x5
 4400 029d 9104     		.uleb128 0x211
 4401 029f 7FEB0000 		.4byte	.LASF752
 4402 02a3 05       		.byte	0x5
 4403 02a4 9204     		.uleb128 0x212
 4404 02a6 10590000 		.4byte	.LASF753
 4405 02aa 05       		.byte	0x5
 4406 02ab 9404     		.uleb128 0x214
 4407 02ad 3EF30200 		.4byte	.LASF754
 4408 02b1 05       		.byte	0x5
 4409 02b2 9504     		.uleb128 0x215
 4410 02b4 ADC70300 		.4byte	.LASF755
 4411 02b8 05       		.byte	0x5
 4412 02b9 B104     		.uleb128 0x231
 4413 02bb 831A0400 		.4byte	.LASF756
 4414 02bf 05       		.byte	0x5
 4415 02c0 B904     		.uleb128 0x239
 4416 02c2 6A210000 		.4byte	.LASF757
 4417 02c6 05       		.byte	0x5
 4418 02c7 C604     		.uleb128 0x246
 4419 02c9 EC5D0100 		.4byte	.LASF758
 4420 02cd 05       		.byte	0x5
 4421 02ce C704     		.uleb128 0x247
 4422 02d0 D0070300 		.4byte	.LASF759
 4423 02d4 05       		.byte	0x5
 4424 02d5 C804     		.uleb128 0x248
 4425 02d7 D0730300 		.4byte	.LASF760
 4426 02db 05       		.byte	0x5
 4427 02dc C904     		.uleb128 0x249
 4428 02de 9EF10100 		.4byte	.LASF761
 4429 02e2 05       		.byte	0x5
 4430 02e3 CB04     		.uleb128 0x24b
 4431 02e5 99270000 		.4byte	.LASF762
 4432 02e9 05       		.byte	0x5
 4433 02ea CC04     		.uleb128 0x24c
 4434 02ec 2D450400 		.4byte	.LASF763
 4435 02f0 05       		.byte	0x5
 4436 02f1 CD04     		.uleb128 0x24d
 4437 02f3 4FC90000 		.4byte	.LASF764
 4438 02f7 05       		.byte	0x5
 4439 02f8 EB04     		.uleb128 0x26b
 4440 02fa 1EFD0200 		.4byte	.LASF765
 4441 02fe 05       		.byte	0x5
 4442 02ff EC04     		.uleb128 0x26c
 4443 0301 B9A70100 		.4byte	.LASF766
 4444 0305 05       		.byte	0x5
 4445 0306 ED04     		.uleb128 0x26d
 4446 0308 04FA0000 		.4byte	.LASF767
ARM GAS  C:\Users\anashi\AppData\Local\Temp\ccYYZBJq.s 			page 79


 4447 030c 00       		.byte	0
 4448              		.section	.debug_macro,"G",%progbits,wm4.stm32f030x6.h.444.5cef16cdd77708130d1130ad24004e87,comdat
 4449              	.Ldebug_macro14:
 4450 0000 0400     		.2byte	0x4
 4451 0002 00       		.byte	0
 4452 0003 05       		.byte	0x5
 4453 0004 BC03     		.uleb128 0x1bc
 4454 0006 41D90100 		.4byte	.LASF769
 4455 000a 05       		.byte	0x5
 4456 000b BD03     		.uleb128 0x1bd
 4457 000d 60DD0200 		.4byte	.LASF770
 4458 0011 05       		.byte	0x5
 4459 0012 BE03     		.uleb128 0x1be
 4460 0014 1F1F0300 		.4byte	.LASF771
 4461 0018 05       		.byte	0x5
 4462 0019 BF03     		.uleb128 0x1bf
 4463 001b A6AE0000 		.4byte	.LASF772
 4464 001f 05       		.byte	0x5
 4465 0020 C203     		.uleb128 0x1c2
 4466 0022 3CC90200 		.4byte	.LASF773
 4467 0026 05       		.byte	0x5
 4468 0027 C303     		.uleb128 0x1c3
 4469 0029 746B0300 		.4byte	.LASF774
 4470 002d 05       		.byte	0x5
 4471 002e C403     		.uleb128 0x1c4
 4472 0030 6DEF0200 		.4byte	.LASF775
 4473 0034 05       		.byte	0x5
 4474 0035 C703     		.uleb128 0x1c7
 4475 0037 801E0000 		.4byte	.LASF776
 4476 003b 05       		.byte	0x5
 4477 003c C803     		.uleb128 0x1c8
 4478 003e D0EE0100 		.4byte	.LASF777
 4479 0042 05       		.byte	0x5
 4480 0043 C903     		.uleb128 0x1c9
 4481 0045 2A620200 		.4byte	.LASF778
 4482 0049 05       		.byte	0x5
 4483 004a CA03     		.uleb128 0x1ca
 4484 004c 01170100 		.4byte	.LASF779
 4485 0050 05       		.byte	0x5
 4486 0051 CB03     		.uleb128 0x1cb
 4487 0053 86960000 		.4byte	.LASF780
 4488 0057 05       		.byte	0x5
 4489 0058 CC03     		.uleb128 0x1cc
 4490 005a 1ECA0000 		.4byte	.LASF781
 4491 005e 05       		.byte	0x5
 4492 005f CD03     		.uleb128 0x1cd
 4493 0061 EE260100 		.4byte	.LASF782
 4494 0065 05       		.byte	0x5
 4495 0066 CE03     		.uleb128 0x1ce
 4496 0068 EB270200 		.4byte	.LASF783
 4497 006c 05       		.byte	0x5
 4498 006d CF03     		.uleb128 0x1cf
 4499 006f C48B0200 		.4byte	.LASF784
 4500 0073 05       		.byte	0x5
 4501 0074 D003     		.uleb128 0x1d0
 4502 0076 DC0B0000 		.4byte	.LASF785
 4503 007a 05       		.byte	0x5
ARM GAS  C:\Users\anashi\AppData\Local\Temp\ccYYZBJq.s 			page 80


 4504 007b D103     		.uleb128 0x1d1
 4505 007d 283F0000 		.4byte	.LASF786
 4506 0081 05       		.byte	0x5
 4507 0082 D203     		.uleb128 0x1d2
 4508 0084 15D10200 		.4byte	.LASF787
 4509 0088 05       		.byte	0x5
 4510 0089 D303     		.uleb128 0x1d3
 4511 008b 5CA40100 		.4byte	.LASF788
 4512 008f 05       		.byte	0x5
 4513 0090 D403     		.uleb128 0x1d4
 4514 0092 53050400 		.4byte	.LASF789
 4515 0096 05       		.byte	0x5
 4516 0097 D503     		.uleb128 0x1d5
 4517 0099 FAF10200 		.4byte	.LASF790
 4518 009d 05       		.byte	0x5
 4519 009e D603     		.uleb128 0x1d6
 4520 00a0 38D90200 		.4byte	.LASF791
 4521 00a4 05       		.byte	0x5
 4522 00a5 D703     		.uleb128 0x1d7
 4523 00a7 4BE40200 		.4byte	.LASF792
 4524 00ab 05       		.byte	0x5
 4525 00ac DA03     		.uleb128 0x1da
 4526 00ae 27330300 		.4byte	.LASF793
 4527 00b2 05       		.byte	0x5
 4528 00b3 DB03     		.uleb128 0x1db
 4529 00b5 5D330100 		.4byte	.LASF794
 4530 00b9 05       		.byte	0x5
 4531 00ba DC03     		.uleb128 0x1dc
 4532 00bc B4F00200 		.4byte	.LASF795
 4533 00c0 05       		.byte	0x5
 4534 00c1 DD03     		.uleb128 0x1dd
 4535 00c3 13EA0000 		.4byte	.LASF796
 4536 00c7 05       		.byte	0x5
 4537 00c8 DE03     		.uleb128 0x1de
 4538 00ca 1E950200 		.4byte	.LASF797
 4539 00ce 05       		.byte	0x5
 4540 00cf DF03     		.uleb128 0x1df
 4541 00d1 67330400 		.4byte	.LASF798
 4542 00d5 05       		.byte	0x5
 4543 00d6 E103     		.uleb128 0x1e1
 4544 00d8 64A30000 		.4byte	.LASF799
 4545 00dc 05       		.byte	0x5
 4546 00dd E203     		.uleb128 0x1e2
 4547 00df 25130100 		.4byte	.LASF800
 4548 00e3 05       		.byte	0x5
 4549 00e4 E303     		.uleb128 0x1e3
 4550 00e6 C5220000 		.4byte	.LASF801
 4551 00ea 05       		.byte	0x5
 4552 00eb E403     		.uleb128 0x1e4
 4553 00ed AA670000 		.4byte	.LASF802
 4554 00f1 05       		.byte	0x5
 4555 00f2 E503     		.uleb128 0x1e5
 4556 00f4 DAD30100 		.4byte	.LASF803
 4557 00f8 05       		.byte	0x5
 4558 00f9 E603     		.uleb128 0x1e6
 4559 00fb 28520200 		.4byte	.LASF804
 4560 00ff 05       		.byte	0x5
ARM GAS  C:\Users\anashi\AppData\Local\Temp\ccYYZBJq.s 			page 81


 4561 0100 E903     		.uleb128 0x1e9
 4562 0102 C8E30100 		.4byte	.LASF805
 4563 0106 05       		.byte	0x5
 4564 0107 EA03     		.uleb128 0x1ea
 4565 0109 AA1B0200 		.4byte	.LASF806
 4566 010d 05       		.byte	0x5
 4567 010e EB03     		.uleb128 0x1eb
 4568 0110 F2520200 		.4byte	.LASF807
 4569 0114 05       		.byte	0x5
 4570 0115 EC03     		.uleb128 0x1ec
 4571 0117 75540000 		.4byte	.LASF808
 4572 011b 05       		.byte	0x5
 4573 011c ED03     		.uleb128 0x1ed
 4574 011e 031B0000 		.4byte	.LASF809
 4575 0122 05       		.byte	0x5
 4576 0123 F703     		.uleb128 0x1f7
 4577 0125 F0450100 		.4byte	.LASF810
 4578 0129 05       		.byte	0x5
 4579 012a F803     		.uleb128 0x1f8
 4580 012c B0380400 		.4byte	.LASF811
 4581 0130 05       		.byte	0x5
 4582 0131 F903     		.uleb128 0x1f9
 4583 0133 CF260100 		.4byte	.LASF812
 4584 0137 05       		.byte	0x5
 4585 0138 FA03     		.uleb128 0x1fa
 4586 013a 70040300 		.4byte	.LASF813
 4587 013e 05       		.byte	0x5
 4588 013f FB03     		.uleb128 0x1fb
 4589 0141 25260100 		.4byte	.LASF814
 4590 0145 05       		.byte	0x5
 4591 0146 FC03     		.uleb128 0x1fc
 4592 0148 E1120200 		.4byte	.LASF815
 4593 014c 05       		.byte	0x5
 4594 014d FD03     		.uleb128 0x1fd
 4595 014f 27670100 		.4byte	.LASF816
 4596 0153 05       		.byte	0x5
 4597 0154 FE03     		.uleb128 0x1fe
 4598 0156 871D0100 		.4byte	.LASF817
 4599 015a 05       		.byte	0x5
 4600 015b FF03     		.uleb128 0x1ff
 4601 015d 483F0200 		.4byte	.LASF818
 4602 0161 05       		.byte	0x5
 4603 0162 8004     		.uleb128 0x200
 4604 0164 8F7B0100 		.4byte	.LASF819
 4605 0168 05       		.byte	0x5
 4606 0169 8104     		.uleb128 0x201
 4607 016b DBD60100 		.4byte	.LASF820
 4608 016f 05       		.byte	0x5
 4609 0170 8204     		.uleb128 0x202
 4610 0172 46460000 		.4byte	.LASF821
 4611 0176 05       		.byte	0x5
 4612 0177 8304     		.uleb128 0x203
 4613 0179 7B530200 		.4byte	.LASF822
 4614 017d 05       		.byte	0x5
 4615 017e 8404     		.uleb128 0x204
 4616 0180 141C0300 		.4byte	.LASF823
 4617 0184 05       		.byte	0x5
ARM GAS  C:\Users\anashi\AppData\Local\Temp\ccYYZBJq.s 			page 82


 4618 0185 8504     		.uleb128 0x205
 4619 0187 79FB0100 		.4byte	.LASF824
 4620 018b 05       		.byte	0x5
 4621 018c 8604     		.uleb128 0x206
 4622 018e 29AF0100 		.4byte	.LASF825
 4623 0192 05       		.byte	0x5
 4624 0193 8704     		.uleb128 0x207
 4625 0195 ECD00300 		.4byte	.LASF826
 4626 0199 05       		.byte	0x5
 4627 019a 8804     		.uleb128 0x208
 4628 019c 846A0200 		.4byte	.LASF827
 4629 01a0 05       		.byte	0x5
 4630 01a1 8904     		.uleb128 0x209
 4631 01a3 3C200300 		.4byte	.LASF828
 4632 01a7 05       		.byte	0x5
 4633 01a8 8A04     		.uleb128 0x20a
 4634 01aa 40290300 		.4byte	.LASF829
 4635 01ae 05       		.byte	0x5
 4636 01af 8B04     		.uleb128 0x20b
 4637 01b1 22D80100 		.4byte	.LASF830
 4638 01b5 05       		.byte	0x5
 4639 01b6 8C04     		.uleb128 0x20c
 4640 01b8 C7740000 		.4byte	.LASF831
 4641 01bc 05       		.byte	0x5
 4642 01bd 8D04     		.uleb128 0x20d
 4643 01bf 65F40100 		.4byte	.LASF832
 4644 01c3 05       		.byte	0x5
 4645 01c4 8E04     		.uleb128 0x20e
 4646 01c6 71440200 		.4byte	.LASF833
 4647 01ca 05       		.byte	0x5
 4648 01cb 8F04     		.uleb128 0x20f
 4649 01cd C9450100 		.4byte	.LASF834
 4650 01d1 05       		.byte	0x5
 4651 01d2 9004     		.uleb128 0x210
 4652 01d4 E0A10300 		.4byte	.LASF835
 4653 01d8 05       		.byte	0x5
 4654 01d9 9104     		.uleb128 0x211
 4655 01db 8A7A0100 		.4byte	.LASF836
 4656 01df 05       		.byte	0x5
 4657 01e0 9204     		.uleb128 0x212
 4658 01e2 E9260000 		.4byte	.LASF837
 4659 01e6 05       		.byte	0x5
 4660 01e7 9304     		.uleb128 0x213
 4661 01e9 FB600300 		.4byte	.LASF838
 4662 01ed 05       		.byte	0x5
 4663 01ee 9404     		.uleb128 0x214
 4664 01f0 021D0300 		.4byte	.LASF839
 4665 01f4 05       		.byte	0x5
 4666 01f5 9504     		.uleb128 0x215
 4667 01f7 5BF60000 		.4byte	.LASF840
 4668 01fb 05       		.byte	0x5
 4669 01fc 9604     		.uleb128 0x216
 4670 01fe 56450300 		.4byte	.LASF841
 4671 0202 05       		.byte	0x5
 4672 0203 9704     		.uleb128 0x217
 4673 0205 4B910100 		.4byte	.LASF842
 4674 0209 05       		.byte	0x5
ARM GAS  C:\Users\anashi\AppData\Local\Temp\ccYYZBJq.s 			page 83


 4675 020a B404     		.uleb128 0x234
 4676 020c 8F460400 		.4byte	.LASF843
 4677 0210 05       		.byte	0x5
 4678 0211 B504     		.uleb128 0x235
 4679 0213 0C300300 		.4byte	.LASF844
 4680 0217 05       		.byte	0x5
 4681 0218 B604     		.uleb128 0x236
 4682 021a B5D70300 		.4byte	.LASF845
 4683 021e 05       		.byte	0x5
 4684 021f B704     		.uleb128 0x237
 4685 0221 79900200 		.4byte	.LASF846
 4686 0225 05       		.byte	0x5
 4687 0226 B804     		.uleb128 0x238
 4688 0228 69240300 		.4byte	.LASF847
 4689 022c 05       		.byte	0x5
 4690 022d B904     		.uleb128 0x239
 4691 022f 04060200 		.4byte	.LASF848
 4692 0233 05       		.byte	0x5
 4693 0234 BA04     		.uleb128 0x23a
 4694 0236 59600100 		.4byte	.LASF849
 4695 023a 05       		.byte	0x5
 4696 023b BB04     		.uleb128 0x23b
 4697 023d 2C7A0000 		.4byte	.LASF850
 4698 0241 05       		.byte	0x5
 4699 0242 BC04     		.uleb128 0x23c
 4700 0244 2DDB0100 		.4byte	.LASF851
 4701 0248 05       		.byte	0x5
 4702 0249 BD04     		.uleb128 0x23d
 4703 024b 26A40000 		.4byte	.LASF852
 4704 024f 05       		.byte	0x5
 4705 0250 BE04     		.uleb128 0x23e
 4706 0252 C1FD0100 		.4byte	.LASF853
 4707 0256 05       		.byte	0x5
 4708 0257 BF04     		.uleb128 0x23f
 4709 0259 712B0100 		.4byte	.LASF854
 4710 025d 05       		.byte	0x5
 4711 025e C004     		.uleb128 0x240
 4712 0260 BE1E0200 		.4byte	.LASF855
 4713 0264 05       		.byte	0x5
 4714 0265 C104     		.uleb128 0x241
 4715 0267 0A1C0200 		.4byte	.LASF856
 4716 026b 05       		.byte	0x5
 4717 026c C204     		.uleb128 0x242
 4718 026e FFAB0000 		.4byte	.LASF857
 4719 0272 05       		.byte	0x5
 4720 0273 C304     		.uleb128 0x243
 4721 0275 E7270400 		.4byte	.LASF858
 4722 0279 05       		.byte	0x5
 4723 027a C404     		.uleb128 0x244
 4724 027c F0420400 		.4byte	.LASF859
 4725 0280 05       		.byte	0x5
 4726 0281 C504     		.uleb128 0x245
 4727 0283 26E80300 		.4byte	.LASF860
 4728 0287 05       		.byte	0x5
 4729 0288 C804     		.uleb128 0x248
 4730 028a DF610300 		.4byte	.LASF861
 4731 028e 05       		.byte	0x5
ARM GAS  C:\Users\anashi\AppData\Local\Temp\ccYYZBJq.s 			page 84


 4732 028f C904     		.uleb128 0x249
 4733 0291 A6510200 		.4byte	.LASF862
 4734 0295 05       		.byte	0x5
 4735 0296 CC04     		.uleb128 0x24c
 4736 0298 933F0400 		.4byte	.LASF863
 4737 029c 05       		.byte	0x5
 4738 029d CD04     		.uleb128 0x24d
 4739 029f D0170200 		.4byte	.LASF864
 4740 02a3 05       		.byte	0x5
 4741 02a4 CE04     		.uleb128 0x24e
 4742 02a6 972F0300 		.4byte	.LASF865
 4743 02aa 05       		.byte	0x5
 4744 02ab CF04     		.uleb128 0x24f
 4745 02ad 3B6D0100 		.4byte	.LASF866
 4746 02b1 05       		.byte	0x5
 4747 02b2 D004     		.uleb128 0x250
 4748 02b4 37B70200 		.4byte	.LASF867
 4749 02b8 05       		.byte	0x5
 4750 02b9 D104     		.uleb128 0x251
 4751 02bb 7B590400 		.4byte	.LASF868
 4752 02bf 05       		.byte	0x5
 4753 02c0 D204     		.uleb128 0x252
 4754 02c2 CB130000 		.4byte	.LASF869
 4755 02c6 05       		.byte	0x5
 4756 02c7 D304     		.uleb128 0x253
 4757 02c9 94E10000 		.4byte	.LASF870
 4758 02cd 05       		.byte	0x5
 4759 02ce D404     		.uleb128 0x254
 4760 02d0 35F70100 		.4byte	.LASF871
 4761 02d4 05       		.byte	0x5
 4762 02d5 D504     		.uleb128 0x255
 4763 02d7 7DCC0200 		.4byte	.LASF872
 4764 02db 05       		.byte	0x5
 4765 02dc D604     		.uleb128 0x256
 4766 02de 02510400 		.4byte	.LASF873
 4767 02e2 05       		.byte	0x5
 4768 02e3 D704     		.uleb128 0x257
 4769 02e5 B2330400 		.4byte	.LASF874
 4770 02e9 05       		.byte	0x5
 4771 02ea D804     		.uleb128 0x258
 4772 02ec 9FB90000 		.4byte	.LASF875
 4773 02f0 05       		.byte	0x5
 4774 02f1 D904     		.uleb128 0x259
 4775 02f3 E27A0300 		.4byte	.LASF876
 4776 02f7 05       		.byte	0x5
 4777 02f8 DA04     		.uleb128 0x25a
 4778 02fa 7A040000 		.4byte	.LASF877
 4779 02fe 05       		.byte	0x5
 4780 02ff DB04     		.uleb128 0x25b
 4781 0301 55FC0100 		.4byte	.LASF878
 4782 0305 05       		.byte	0x5
 4783 0306 DC04     		.uleb128 0x25c
 4784 0308 0A060100 		.4byte	.LASF879
 4785 030c 05       		.byte	0x5
 4786 030d DD04     		.uleb128 0x25d
 4787 030f ED110200 		.4byte	.LASF880
 4788 0313 05       		.byte	0x5
ARM GAS  C:\Users\anashi\AppData\Local\Temp\ccYYZBJq.s 			page 85


 4789 0314 E004     		.uleb128 0x260
 4790 0316 2E940300 		.4byte	.LASF881
 4791 031a 05       		.byte	0x5
 4792 031b E104     		.uleb128 0x261
 4793 031d 38660000 		.4byte	.LASF882
 4794 0321 05       		.byte	0x5
 4795 0322 E404     		.uleb128 0x264
 4796 0324 7D050400 		.4byte	.LASF883
 4797 0328 05       		.byte	0x5
 4798 0329 E504     		.uleb128 0x265
 4799 032b 59150300 		.4byte	.LASF884
 4800 032f 05       		.byte	0x5
 4801 0330 E604     		.uleb128 0x266
 4802 0332 12B50100 		.4byte	.LASF885
 4803 0336 05       		.byte	0x5
 4804 0337 E704     		.uleb128 0x267
 4805 0339 EB7B0300 		.4byte	.LASF886
 4806 033d 05       		.byte	0x5
 4807 033e E804     		.uleb128 0x268
 4808 0340 95AE0200 		.4byte	.LASF887
 4809 0344 05       		.byte	0x5
 4810 0345 E904     		.uleb128 0x269
 4811 0347 72FE0200 		.4byte	.LASF888
 4812 034b 05       		.byte	0x5
 4813 034c EA04     		.uleb128 0x26a
 4814 034e 0A970200 		.4byte	.LASF889
 4815 0352 05       		.byte	0x5
 4816 0353 EB04     		.uleb128 0x26b
 4817 0355 A6A60200 		.4byte	.LASF890
 4818 0359 05       		.byte	0x5
 4819 035a EC04     		.uleb128 0x26c
 4820 035c D1E30300 		.4byte	.LASF891
 4821 0360 05       		.byte	0x5
 4822 0361 ED04     		.uleb128 0x26d
 4823 0363 03520100 		.4byte	.LASF892
 4824 0367 05       		.byte	0x5
 4825 0368 EE04     		.uleb128 0x26e
 4826 036a 32140000 		.4byte	.LASF893
 4827 036e 05       		.byte	0x5
 4828 036f EF04     		.uleb128 0x26f
 4829 0371 30060000 		.4byte	.LASF894
 4830 0375 05       		.byte	0x5
 4831 0376 F004     		.uleb128 0x270
 4832 0378 2E6F0100 		.4byte	.LASF895
 4833 037c 05       		.byte	0x5
 4834 037d F104     		.uleb128 0x271
 4835 037f 14440400 		.4byte	.LASF896
 4836 0383 05       		.byte	0x5
 4837 0384 F204     		.uleb128 0x272
 4838 0386 A52D0300 		.4byte	.LASF897
 4839 038a 05       		.byte	0x5
 4840 038b F504     		.uleb128 0x275
 4841 038d 95CB0200 		.4byte	.LASF898
 4842 0391 05       		.byte	0x5
 4843 0392 F604     		.uleb128 0x276
 4844 0394 2ADA0200 		.4byte	.LASF899
 4845 0398 05       		.byte	0x5
ARM GAS  C:\Users\anashi\AppData\Local\Temp\ccYYZBJq.s 			page 86


 4846 0399 F704     		.uleb128 0x277
 4847 039b 926E0400 		.4byte	.LASF900
 4848 039f 05       		.byte	0x5
 4849 03a0 F804     		.uleb128 0x278
 4850 03a2 4F690100 		.4byte	.LASF901
 4851 03a6 05       		.byte	0x5
 4852 03a7 F904     		.uleb128 0x279
 4853 03a9 30FA0200 		.4byte	.LASF902
 4854 03ad 05       		.byte	0x5
 4855 03ae FA04     		.uleb128 0x27a
 4856 03b0 945D0400 		.4byte	.LASF903
 4857 03b4 05       		.byte	0x5
 4858 03b5 FB04     		.uleb128 0x27b
 4859 03b7 A3A00300 		.4byte	.LASF904
 4860 03bb 05       		.byte	0x5
 4861 03bc FC04     		.uleb128 0x27c
 4862 03be 97EE0300 		.4byte	.LASF905
 4863 03c2 05       		.byte	0x5
 4864 03c3 FD04     		.uleb128 0x27d
 4865 03c5 CA890000 		.4byte	.LASF906
 4866 03c9 05       		.byte	0x5
 4867 03ca FF04     		.uleb128 0x27f
 4868 03cc 5F400100 		.4byte	.LASF907
 4869 03d0 05       		.byte	0x5
 4870 03d1 8005     		.uleb128 0x280
 4871 03d3 EE490000 		.4byte	.LASF908
 4872 03d7 05       		.byte	0x5
 4873 03d8 8105     		.uleb128 0x281
 4874 03da 866A0000 		.4byte	.LASF909
 4875 03de 05       		.byte	0x5
 4876 03df 8205     		.uleb128 0x282
 4877 03e1 2FBF0100 		.4byte	.LASF910
 4878 03e5 05       		.byte	0x5
 4879 03e6 8305     		.uleb128 0x283
 4880 03e8 3E560400 		.4byte	.LASF911
 4881 03ec 05       		.byte	0x5
 4882 03ed 8505     		.uleb128 0x285
 4883 03ef ACD70100 		.4byte	.LASF912
 4884 03f3 05       		.byte	0x5
 4885 03f4 8605     		.uleb128 0x286
 4886 03f6 6F130000 		.4byte	.LASF913
 4887 03fa 05       		.byte	0x5
 4888 03fb 8705     		.uleb128 0x287
 4889 03fd EEF20000 		.4byte	.LASF914
 4890 0401 05       		.byte	0x5
 4891 0402 8905     		.uleb128 0x289
 4892 0404 F1520000 		.4byte	.LASF915
 4893 0408 05       		.byte	0x5
 4894 0409 8A05     		.uleb128 0x28a
 4895 040b F54D0000 		.4byte	.LASF916
 4896 040f 05       		.byte	0x5
 4897 0410 8B05     		.uleb128 0x28b
 4898 0412 90110300 		.4byte	.LASF917
 4899 0416 05       		.byte	0x5
 4900 0417 8C05     		.uleb128 0x28c
 4901 0419 42280100 		.4byte	.LASF918
 4902 041d 05       		.byte	0x5
ARM GAS  C:\Users\anashi\AppData\Local\Temp\ccYYZBJq.s 			page 87


 4903 041e 8D05     		.uleb128 0x28d
 4904 0420 D2F90000 		.4byte	.LASF919
 4905 0424 05       		.byte	0x5
 4906 0425 8E05     		.uleb128 0x28e
 4907 0427 0B770000 		.4byte	.LASF920
 4908 042b 05       		.byte	0x5
 4909 042c 9005     		.uleb128 0x290
 4910 042e 384A0000 		.4byte	.LASF921
 4911 0432 05       		.byte	0x5
 4912 0433 9105     		.uleb128 0x291
 4913 0435 5C5E0400 		.4byte	.LASF922
 4914 0439 05       		.byte	0x5
 4915 043a 9205     		.uleb128 0x292
 4916 043c 9DB90200 		.4byte	.LASF923
 4917 0440 05       		.byte	0x5
 4918 0441 9305     		.uleb128 0x293
 4919 0443 61380200 		.4byte	.LASF924
 4920 0447 05       		.byte	0x5
 4921 0448 9405     		.uleb128 0x294
 4922 044a 24870000 		.4byte	.LASF925
 4923 044e 05       		.byte	0x5
 4924 044f 9605     		.uleb128 0x296
 4925 0451 886E0200 		.4byte	.LASF926
 4926 0455 05       		.byte	0x5
 4927 0456 9705     		.uleb128 0x297
 4928 0458 37960000 		.4byte	.LASF927
 4929 045c 05       		.byte	0x5
 4930 045d 9805     		.uleb128 0x298
 4931 045f C1B90200 		.4byte	.LASF928
 4932 0463 05       		.byte	0x5
 4933 0464 9905     		.uleb128 0x299
 4934 0466 8EF00100 		.4byte	.LASF929
 4935 046a 05       		.byte	0x5
 4936 046b 9A05     		.uleb128 0x29a
 4937 046d 1C9E0300 		.4byte	.LASF930
 4938 0471 05       		.byte	0x5
 4939 0472 9B05     		.uleb128 0x29b
 4940 0474 E4150100 		.4byte	.LASF931
 4941 0478 05       		.byte	0x5
 4942 0479 9C05     		.uleb128 0x29c
 4943 047b FE060300 		.4byte	.LASF932
 4944 047f 05       		.byte	0x5
 4945 0480 9D05     		.uleb128 0x29d
 4946 0482 0EF50000 		.4byte	.LASF933
 4947 0486 05       		.byte	0x5
 4948 0487 9E05     		.uleb128 0x29e
 4949 0489 5E080100 		.4byte	.LASF934
 4950 048d 05       		.byte	0x5
 4951 048e 9F05     		.uleb128 0x29f
 4952 0490 84700400 		.4byte	.LASF935
 4953 0494 05       		.byte	0x5
 4954 0495 A005     		.uleb128 0x2a0
 4955 0497 46FB0000 		.4byte	.LASF936
 4956 049b 05       		.byte	0x5
 4957 049c A105     		.uleb128 0x2a1
 4958 049e BCD80100 		.4byte	.LASF937
 4959 04a2 05       		.byte	0x5
ARM GAS  C:\Users\anashi\AppData\Local\Temp\ccYYZBJq.s 			page 88


 4960 04a3 A205     		.uleb128 0x2a2
 4961 04a5 584F0300 		.4byte	.LASF938
 4962 04a9 05       		.byte	0x5
 4963 04aa A305     		.uleb128 0x2a3
 4964 04ac 15150400 		.4byte	.LASF939
 4965 04b0 05       		.byte	0x5
 4966 04b1 A405     		.uleb128 0x2a4
 4967 04b3 67D00200 		.4byte	.LASF940
 4968 04b7 05       		.byte	0x5
 4969 04b8 A605     		.uleb128 0x2a6
 4970 04ba 35160100 		.4byte	.LASF941
 4971 04be 05       		.byte	0x5
 4972 04bf A705     		.uleb128 0x2a7
 4973 04c1 B6B90000 		.4byte	.LASF942
 4974 04c5 05       		.byte	0x5
 4975 04c6 A805     		.uleb128 0x2a8
 4976 04c8 74E00200 		.4byte	.LASF943
 4977 04cc 05       		.byte	0x5
 4978 04cd A905     		.uleb128 0x2a9
 4979 04cf 93030200 		.4byte	.LASF944
 4980 04d3 05       		.byte	0x5
 4981 04d4 AA05     		.uleb128 0x2aa
 4982 04d6 4AE50000 		.4byte	.LASF945
 4983 04da 05       		.byte	0x5
 4984 04db AB05     		.uleb128 0x2ab
 4985 04dd EA490100 		.4byte	.LASF946
 4986 04e1 05       		.byte	0x5
 4987 04e2 AD05     		.uleb128 0x2ad
 4988 04e4 5B470200 		.4byte	.LASF947
 4989 04e8 05       		.byte	0x5
 4990 04e9 AE05     		.uleb128 0x2ae
 4991 04eb 01A00200 		.4byte	.LASF948
 4992 04ef 05       		.byte	0x5
 4993 04f0 AF05     		.uleb128 0x2af
 4994 04f2 E96B0100 		.4byte	.LASF949
 4995 04f6 05       		.byte	0x5
 4996 04f7 B005     		.uleb128 0x2b0
 4997 04f9 C7D20000 		.4byte	.LASF950
 4998 04fd 05       		.byte	0x5
 4999 04fe B105     		.uleb128 0x2b1
 5000 0500 CAAE0000 		.4byte	.LASF951
 5001 0504 05       		.byte	0x5
 5002 0505 B205     		.uleb128 0x2b2
 5003 0507 6F8B0200 		.4byte	.LASF952
 5004 050b 05       		.byte	0x5
 5005 050c B305     		.uleb128 0x2b3
 5006 050e 4DBC0000 		.4byte	.LASF953
 5007 0512 05       		.byte	0x5
 5008 0513 B405     		.uleb128 0x2b4
 5009 0515 05660000 		.4byte	.LASF954
 5010 0519 05       		.byte	0x5
 5011 051a B705     		.uleb128 0x2b7
 5012 051c D31E0200 		.4byte	.LASF955
 5013 0520 05       		.byte	0x5
 5014 0521 B805     		.uleb128 0x2b8
 5015 0523 867D0000 		.4byte	.LASF956
 5016 0527 05       		.byte	0x5
ARM GAS  C:\Users\anashi\AppData\Local\Temp\ccYYZBJq.s 			page 89


 5017 0528 B905     		.uleb128 0x2b9
 5018 052a F1520300 		.4byte	.LASF957
 5019 052e 05       		.byte	0x5
 5020 052f BA05     		.uleb128 0x2ba
 5021 0531 085B0100 		.4byte	.LASF958
 5022 0535 05       		.byte	0x5
 5023 0536 BB05     		.uleb128 0x2bb
 5024 0538 0EF00000 		.4byte	.LASF959
 5025 053c 05       		.byte	0x5
 5026 053d BC05     		.uleb128 0x2bc
 5027 053f 41310300 		.4byte	.LASF960
 5028 0543 05       		.byte	0x5
 5029 0544 BD05     		.uleb128 0x2bd
 5030 0546 7EFD0000 		.4byte	.LASF961
 5031 054a 05       		.byte	0x5
 5032 054b BE05     		.uleb128 0x2be
 5033 054d BA3E0300 		.4byte	.LASF962
 5034 0551 05       		.byte	0x5
 5035 0552 BF05     		.uleb128 0x2bf
 5036 0554 900E0100 		.4byte	.LASF963
 5037 0558 05       		.byte	0x5
 5038 0559 C205     		.uleb128 0x2c2
 5039 055b 63890000 		.4byte	.LASF964
 5040 055f 05       		.byte	0x5
 5041 0560 C305     		.uleb128 0x2c3
 5042 0562 BC420400 		.4byte	.LASF965
 5043 0566 05       		.byte	0x5
 5044 0567 C405     		.uleb128 0x2c4
 5045 0569 14F80100 		.4byte	.LASF966
 5046 056d 05       		.byte	0x5
 5047 056e C505     		.uleb128 0x2c5
 5048 0570 01D90000 		.4byte	.LASF967
 5049 0574 05       		.byte	0x5
 5050 0575 C605     		.uleb128 0x2c6
 5051 0577 C12B0100 		.4byte	.LASF968
 5052 057b 05       		.byte	0x5
 5053 057c C905     		.uleb128 0x2c9
 5054 057e 9BB20200 		.4byte	.LASF969
 5055 0582 05       		.byte	0x5
 5056 0583 CA05     		.uleb128 0x2ca
 5057 0585 9DA10200 		.4byte	.LASF970
 5058 0589 05       		.byte	0x5
 5059 058a CD05     		.uleb128 0x2cd
 5060 058c D3260000 		.4byte	.LASF971
 5061 0590 05       		.byte	0x5
 5062 0591 CE05     		.uleb128 0x2ce
 5063 0593 69F70200 		.4byte	.LASF972
 5064 0597 05       		.byte	0x5
 5065 0598 CF05     		.uleb128 0x2cf
 5066 059a BAFA0300 		.4byte	.LASF973
 5067 059e 05       		.byte	0x5
 5068 059f D005     		.uleb128 0x2d0
 5069 05a1 B54D0100 		.4byte	.LASF974
 5070 05a5 05       		.byte	0x5
 5071 05a6 D105     		.uleb128 0x2d1
 5072 05a8 6E030000 		.4byte	.LASF975
 5073 05ac 05       		.byte	0x5
ARM GAS  C:\Users\anashi\AppData\Local\Temp\ccYYZBJq.s 			page 90


 5074 05ad D205     		.uleb128 0x2d2
 5075 05af D6C70100 		.4byte	.LASF976
 5076 05b3 05       		.byte	0x5
 5077 05b4 D505     		.uleb128 0x2d5
 5078 05b6 81120100 		.4byte	.LASF977
 5079 05ba 05       		.byte	0x5
 5080 05bb D605     		.uleb128 0x2d6
 5081 05bd A98A0200 		.4byte	.LASF978
 5082 05c1 05       		.byte	0x5
 5083 05c2 D705     		.uleb128 0x2d7
 5084 05c4 22690400 		.4byte	.LASF979
 5085 05c8 05       		.byte	0x5
 5086 05c9 D805     		.uleb128 0x2d8
 5087 05cb D5F10100 		.4byte	.LASF980
 5088 05cf 05       		.byte	0x5
 5089 05d0 DB05     		.uleb128 0x2db
 5090 05d2 73AB0200 		.4byte	.LASF981
 5091 05d6 05       		.byte	0x5
 5092 05d7 DC05     		.uleb128 0x2dc
 5093 05d9 9E060300 		.4byte	.LASF982
 5094 05dd 05       		.byte	0x5
 5095 05de DD05     		.uleb128 0x2dd
 5096 05e0 670C0300 		.4byte	.LASF983
 5097 05e4 05       		.byte	0x5
 5098 05e5 DE05     		.uleb128 0x2de
 5099 05e7 63540200 		.4byte	.LASF984
 5100 05eb 05       		.byte	0x5
 5101 05ec DF05     		.uleb128 0x2df
 5102 05ee 932C0400 		.4byte	.LASF985
 5103 05f2 05       		.byte	0x5
 5104 05f3 E005     		.uleb128 0x2e0
 5105 05f5 29F50300 		.4byte	.LASF986
 5106 05f9 05       		.byte	0x5
 5107 05fa E105     		.uleb128 0x2e1
 5108 05fc 5EC30300 		.4byte	.LASF987
 5109 0600 05       		.byte	0x5
 5110 0601 E205     		.uleb128 0x2e2
 5111 0603 BA090200 		.4byte	.LASF988
 5112 0607 05       		.byte	0x5
 5113 0608 E305     		.uleb128 0x2e3
 5114 060a 12120300 		.4byte	.LASF989
 5115 060e 05       		.byte	0x5
 5116 060f E405     		.uleb128 0x2e4
 5117 0611 A1820200 		.4byte	.LASF990
 5118 0615 05       		.byte	0x5
 5119 0616 E505     		.uleb128 0x2e5
 5120 0618 AB290000 		.4byte	.LASF991
 5121 061c 05       		.byte	0x5
 5122 061d E605     		.uleb128 0x2e6
 5123 061f BF840000 		.4byte	.LASF992
 5124 0623 05       		.byte	0x5
 5125 0624 E705     		.uleb128 0x2e7
 5126 0626 F1D40200 		.4byte	.LASF993
 5127 062a 05       		.byte	0x5
 5128 062b E805     		.uleb128 0x2e8
 5129 062d 21320200 		.4byte	.LASF994
 5130 0631 05       		.byte	0x5
ARM GAS  C:\Users\anashi\AppData\Local\Temp\ccYYZBJq.s 			page 91


 5131 0632 E905     		.uleb128 0x2e9
 5132 0634 7B290300 		.4byte	.LASF995
 5133 0638 05       		.byte	0x5
 5134 0639 EB05     		.uleb128 0x2eb
 5135 063b 53100000 		.4byte	.LASF996
 5136 063f 05       		.byte	0x5
 5137 0640 EC05     		.uleb128 0x2ec
 5138 0642 73B00300 		.4byte	.LASF997
 5139 0646 05       		.byte	0x5
 5140 0647 ED05     		.uleb128 0x2ed
 5141 0649 8C890100 		.4byte	.LASF998
 5142 064d 05       		.byte	0x5
 5143 064e EE05     		.uleb128 0x2ee
 5144 0650 00DA0200 		.4byte	.LASF999
 5145 0654 05       		.byte	0x5
 5146 0655 EF05     		.uleb128 0x2ef
 5147 0657 8B680000 		.4byte	.LASF1000
 5148 065b 05       		.byte	0x5
 5149 065c F005     		.uleb128 0x2f0
 5150 065e 46220000 		.4byte	.LASF1001
 5151 0662 05       		.byte	0x5
 5152 0663 F105     		.uleb128 0x2f1
 5153 0665 C6690400 		.4byte	.LASF1002
 5154 0669 05       		.byte	0x5
 5155 066a F205     		.uleb128 0x2f2
 5156 066c B9AC0200 		.4byte	.LASF1003
 5157 0670 05       		.byte	0x5
 5158 0671 F305     		.uleb128 0x2f3
 5159 0673 13FE0000 		.4byte	.LASF1004
 5160 0677 05       		.byte	0x5
 5161 0678 F405     		.uleb128 0x2f4
 5162 067a 5A690200 		.4byte	.LASF1005
 5163 067e 05       		.byte	0x5
 5164 067f F505     		.uleb128 0x2f5
 5165 0681 2BD10000 		.4byte	.LASF1006
 5166 0685 05       		.byte	0x5
 5167 0686 F605     		.uleb128 0x2f6
 5168 0688 AD310100 		.4byte	.LASF1007
 5169 068c 05       		.byte	0x5
 5170 068d F705     		.uleb128 0x2f7
 5171 068f 93770300 		.4byte	.LASF1008
 5172 0693 05       		.byte	0x5
 5173 0694 F805     		.uleb128 0x2f8
 5174 0696 57440000 		.4byte	.LASF1009
 5175 069a 05       		.byte	0x5
 5176 069b F905     		.uleb128 0x2f9
 5177 069d AB4B0100 		.4byte	.LASF1010
 5178 06a1 05       		.byte	0x5
 5179 06a2 FC05     		.uleb128 0x2fc
 5180 06a4 1F550300 		.4byte	.LASF1011
 5181 06a8 05       		.byte	0x5
 5182 06a9 FD05     		.uleb128 0x2fd
 5183 06ab 56A20300 		.4byte	.LASF1012
 5184 06af 05       		.byte	0x5
 5185 06b0 FE05     		.uleb128 0x2fe
 5186 06b2 7C150100 		.4byte	.LASF1013
 5187 06b6 05       		.byte	0x5
ARM GAS  C:\Users\anashi\AppData\Local\Temp\ccYYZBJq.s 			page 92


 5188 06b7 FF05     		.uleb128 0x2ff
 5189 06b9 C7410000 		.4byte	.LASF1014
 5190 06bd 05       		.byte	0x5
 5191 06be 8206     		.uleb128 0x302
 5192 06c0 9C870000 		.4byte	.LASF1015
 5193 06c4 05       		.byte	0x5
 5194 06c5 8306     		.uleb128 0x303
 5195 06c7 A4BE0000 		.4byte	.LASF1016
 5196 06cb 05       		.byte	0x5
 5197 06cc 8406     		.uleb128 0x304
 5198 06ce 8C690100 		.4byte	.LASF1017
 5199 06d2 05       		.byte	0x5
 5200 06d3 8506     		.uleb128 0x305
 5201 06d5 D14F0100 		.4byte	.LASF1018
 5202 06d9 05       		.byte	0x5
 5203 06da 8606     		.uleb128 0x306
 5204 06dc EA8C0200 		.4byte	.LASF1019
 5205 06e0 05       		.byte	0x5
 5206 06e1 8706     		.uleb128 0x307
 5207 06e3 77360300 		.4byte	.LASF1020
 5208 06e7 05       		.byte	0x5
 5209 06e8 8806     		.uleb128 0x308
 5210 06ea 11BE0300 		.4byte	.LASF1021
 5211 06ee 05       		.byte	0x5
 5212 06ef 8906     		.uleb128 0x309
 5213 06f1 5FBD0300 		.4byte	.LASF1022
 5214 06f5 05       		.byte	0x5
 5215 06f6 8A06     		.uleb128 0x30a
 5216 06f8 62720400 		.4byte	.LASF1023
 5217 06fc 05       		.byte	0x5
 5218 06fd 8B06     		.uleb128 0x30b
 5219 06ff 2F360400 		.4byte	.LASF1024
 5220 0703 05       		.byte	0x5
 5221 0704 8C06     		.uleb128 0x30c
 5222 0706 958A0000 		.4byte	.LASF1025
 5223 070a 05       		.byte	0x5
 5224 070b 8D06     		.uleb128 0x30d
 5225 070d 743B0100 		.4byte	.LASF1026
 5226 0711 05       		.byte	0x5
 5227 0712 8E06     		.uleb128 0x30e
 5228 0714 E02E0000 		.4byte	.LASF1027
 5229 0718 05       		.byte	0x5
 5230 0719 8F06     		.uleb128 0x30f
 5231 071b 5DD70100 		.4byte	.LASF1028
 5232 071f 05       		.byte	0x5
 5233 0720 9006     		.uleb128 0x310
 5234 0722 4C850200 		.4byte	.LASF1029
 5235 0726 05       		.byte	0x5
 5236 0727 9106     		.uleb128 0x311
 5237 0729 D6B10000 		.4byte	.LASF1030
 5238 072d 05       		.byte	0x5
 5239 072e 9206     		.uleb128 0x312
 5240 0730 62840200 		.4byte	.LASF1031
 5241 0734 05       		.byte	0x5
 5242 0735 9306     		.uleb128 0x313
 5243 0737 F3680200 		.4byte	.LASF1032
 5244 073b 05       		.byte	0x5
ARM GAS  C:\Users\anashi\AppData\Local\Temp\ccYYZBJq.s 			page 93


 5245 073c 9406     		.uleb128 0x314
 5246 073e 0C2D0100 		.4byte	.LASF1033
 5247 0742 05       		.byte	0x5
 5248 0743 9506     		.uleb128 0x315
 5249 0745 6ECD0100 		.4byte	.LASF1034
 5250 0749 05       		.byte	0x5
 5251 074a 9606     		.uleb128 0x316
