ARM GAS  C:\Users\anashi\AppData\Local\Temp\ccBwgcVN.s 			page 1


   1              		.cpu cortex-m0
   2              		.eabi_attribute 20, 1
   3              		.eabi_attribute 21, 1
   4              		.eabi_attribute 23, 3
   5              		.eabi_attribute 24, 1
   6              		.eabi_attribute 25, 1
   7              		.eabi_attribute 26, 1
   8              		.eabi_attribute 30, 6
   9              		.eabi_attribute 34, 0
  10              		.eabi_attribute 18, 4
  11              		.file	"stm32f0xx_hal_rcc_ex.c"
  12              		.text
  13              	.Ltext0:
  14              		.cfi_sections	.debug_frame
  15              		.section	.text.HAL_RCCEx_PeriphCLKConfig,"ax",%progbits
  16              		.align	1
  17              		.global	HAL_RCCEx_PeriphCLKConfig
  18              		.syntax unified
  19              		.code	16
  20              		.thumb_func
  21              		.fpu softvfp
  22              		.type	HAL_RCCEx_PeriphCLKConfig, %function
  23              	HAL_RCCEx_PeriphCLKConfig:
  24              	.LFB37:
  25              		.file 1 "C:/repos/rs2all/board/Drivers/STM32F0xx_HAL_Driver/Src/stm32f0xx_hal_rcc_ex.c"
  26              		.loc 1 121 0
  27              		.cfi_startproc
  28              		@ args = 0, pretend = 0, frame = 24
  29              		@ frame_needed = 1, uses_anonymous_args = 0
  30 0000 80B5     		push	{r7, lr}
  31              		.cfi_def_cfa_offset 8
  32              		.cfi_offset 7, -8
  33              		.cfi_offset 14, -4
  34 0002 86B0     		sub	sp, sp, #24
  35              		.cfi_def_cfa_offset 32
  36 0004 00AF     		add	r7, sp, #0
  37              		.cfi_def_cfa_register 7
  38 0006 7860     		str	r0, [r7, #4]
  39              		.loc 1 122 0
  40 0008 0023     		movs	r3, #0
  41 000a 3B61     		str	r3, [r7, #16]
  42              		.loc 1 123 0
  43 000c 0023     		movs	r3, #0
  44 000e FB60     		str	r3, [r7, #12]
  45              		.loc 1 129 0
  46 0010 7B68     		ldr	r3, [r7, #4]
  47 0012 1A68     		ldr	r2, [r3]
  48 0014 8023     		movs	r3, #128
  49 0016 5B02     		lsls	r3, r3, #9
  50 0018 1340     		ands	r3, r2
  51 001a 00D1     		bne	.LCB23
  52 001c 8FE0     		b	.L2	@long jump
  53              	.LCB23:
  54              	.LBB2:
  55              		.loc 1 134 0
  56 001e 1723     		movs	r3, #23
  57 0020 FB18     		adds	r3, r7, r3
ARM GAS  C:\Users\anashi\AppData\Local\Temp\ccBwgcVN.s 			page 2


  58 0022 0022     		movs	r2, #0
  59 0024 1A70     		strb	r2, [r3]
  60              		.loc 1 139 0
  61 0026 574B     		ldr	r3, .L13
  62 0028 DA69     		ldr	r2, [r3, #28]
  63 002a 8023     		movs	r3, #128
  64 002c 5B05     		lsls	r3, r3, #21
  65 002e 1340     		ands	r3, r2
  66 0030 11D1     		bne	.L3
  67              	.LBB3:
  68              		.loc 1 141 0
  69 0032 544B     		ldr	r3, .L13
  70 0034 DA69     		ldr	r2, [r3, #28]
  71 0036 534B     		ldr	r3, .L13
  72 0038 8021     		movs	r1, #128
  73 003a 4905     		lsls	r1, r1, #21
  74 003c 0A43     		orrs	r2, r1
  75 003e DA61     		str	r2, [r3, #28]
  76 0040 504B     		ldr	r3, .L13
  77 0042 DA69     		ldr	r2, [r3, #28]
  78 0044 8023     		movs	r3, #128
  79 0046 5B05     		lsls	r3, r3, #21
  80 0048 1340     		ands	r3, r2
  81 004a BB60     		str	r3, [r7, #8]
  82 004c BB68     		ldr	r3, [r7, #8]
  83              	.LBE3:
  84              		.loc 1 142 0
  85 004e 1723     		movs	r3, #23
  86 0050 FB18     		adds	r3, r7, r3
  87 0052 0122     		movs	r2, #1
  88 0054 1A70     		strb	r2, [r3]
  89              	.L3:
  90              		.loc 1 145 0
  91 0056 4C4B     		ldr	r3, .L13+4
  92 0058 1A68     		ldr	r2, [r3]
  93 005a 8023     		movs	r3, #128
  94 005c 5B00     		lsls	r3, r3, #1
  95 005e 1340     		ands	r3, r2
  96 0060 1AD1     		bne	.L4
  97              		.loc 1 148 0
  98 0062 494B     		ldr	r3, .L13+4
  99 0064 1A68     		ldr	r2, [r3]
 100 0066 484B     		ldr	r3, .L13+4
 101 0068 8021     		movs	r1, #128
 102 006a 4900     		lsls	r1, r1, #1
 103 006c 0A43     		orrs	r2, r1
 104 006e 1A60     		str	r2, [r3]
 105              		.loc 1 151 0
 106 0070 FFF7FEFF 		bl	HAL_GetTick
 107 0074 0300     		movs	r3, r0
 108 0076 3B61     		str	r3, [r7, #16]
 109              		.loc 1 153 0
 110 0078 08E0     		b	.L5
 111              	.L7:
 112              		.loc 1 155 0
 113 007a FFF7FEFF 		bl	HAL_GetTick
 114 007e 0200     		movs	r2, r0
ARM GAS  C:\Users\anashi\AppData\Local\Temp\ccBwgcVN.s 			page 3


 115 0080 3B69     		ldr	r3, [r7, #16]
 116 0082 D31A     		subs	r3, r2, r3
 117 0084 642B     		cmp	r3, #100
 118 0086 01D9     		bls	.L5
 119              		.loc 1 157 0
 120 0088 0323     		movs	r3, #3
 121 008a 77E0     		b	.L6
 122              	.L5:
 123              		.loc 1 153 0
 124 008c 3E4B     		ldr	r3, .L13+4
 125 008e 1A68     		ldr	r2, [r3]
 126 0090 8023     		movs	r3, #128
 127 0092 5B00     		lsls	r3, r3, #1
 128 0094 1340     		ands	r3, r2
 129 0096 F0D0     		beq	.L7
 130              	.L4:
 131              		.loc 1 163 0
 132 0098 3A4B     		ldr	r3, .L13
 133 009a 1A6A     		ldr	r2, [r3, #32]
 134 009c C023     		movs	r3, #192
 135 009e 9B00     		lsls	r3, r3, #2
 136 00a0 1340     		ands	r3, r2
 137 00a2 FB60     		str	r3, [r7, #12]
 138              		.loc 1 164 0
 139 00a4 FB68     		ldr	r3, [r7, #12]
 140 00a6 002B     		cmp	r3, #0
 141 00a8 34D0     		beq	.L8
 142              		.loc 1 164 0 is_stmt 0 discriminator 1
 143 00aa 7B68     		ldr	r3, [r7, #4]
 144 00ac 5A68     		ldr	r2, [r3, #4]
 145 00ae C023     		movs	r3, #192
 146 00b0 9B00     		lsls	r3, r3, #2
 147 00b2 1340     		ands	r3, r2
 148 00b4 FA68     		ldr	r2, [r7, #12]
 149 00b6 9A42     		cmp	r2, r3
 150 00b8 2CD0     		beq	.L8
 151              		.loc 1 167 0 is_stmt 1
 152 00ba 324B     		ldr	r3, .L13
 153 00bc 1B6A     		ldr	r3, [r3, #32]
 154 00be 334A     		ldr	r2, .L13+8
 155 00c0 1340     		ands	r3, r2
 156 00c2 FB60     		str	r3, [r7, #12]
 157              		.loc 1 169 0
 158 00c4 2F4B     		ldr	r3, .L13
 159 00c6 1A6A     		ldr	r2, [r3, #32]
 160 00c8 2E4B     		ldr	r3, .L13
 161 00ca 8021     		movs	r1, #128
 162 00cc 4902     		lsls	r1, r1, #9
 163 00ce 0A43     		orrs	r2, r1
 164 00d0 1A62     		str	r2, [r3, #32]
 165              		.loc 1 170 0
 166 00d2 2C4B     		ldr	r3, .L13
 167 00d4 1A6A     		ldr	r2, [r3, #32]
 168 00d6 2B4B     		ldr	r3, .L13
 169 00d8 2D49     		ldr	r1, .L13+12
 170 00da 0A40     		ands	r2, r1
 171 00dc 1A62     		str	r2, [r3, #32]
ARM GAS  C:\Users\anashi\AppData\Local\Temp\ccBwgcVN.s 			page 4


 172              		.loc 1 172 0
 173 00de 294B     		ldr	r3, .L13
 174 00e0 FA68     		ldr	r2, [r7, #12]
 175 00e2 1A62     		str	r2, [r3, #32]
 176              		.loc 1 175 0
 177 00e4 FB68     		ldr	r3, [r7, #12]
 178 00e6 0122     		movs	r2, #1
 179 00e8 1340     		ands	r3, r2
 180 00ea 13D0     		beq	.L8
 181              		.loc 1 178 0
 182 00ec FFF7FEFF 		bl	HAL_GetTick
 183 00f0 0300     		movs	r3, r0
 184 00f2 3B61     		str	r3, [r7, #16]
 185              		.loc 1 181 0
 186 00f4 09E0     		b	.L9
 187              	.L10:
 188              		.loc 1 183 0
 189 00f6 FFF7FEFF 		bl	HAL_GetTick
 190 00fa 0200     		movs	r2, r0
 191 00fc 3B69     		ldr	r3, [r7, #16]
 192 00fe D31A     		subs	r3, r2, r3
 193 0100 244A     		ldr	r2, .L13+16
 194 0102 9342     		cmp	r3, r2
 195 0104 01D9     		bls	.L9
 196              		.loc 1 185 0
 197 0106 0323     		movs	r3, #3
 198 0108 38E0     		b	.L6
 199              	.L9:
 200              		.loc 1 181 0
 201 010a 1E4B     		ldr	r3, .L13
 202 010c 1B6A     		ldr	r3, [r3, #32]
 203 010e 0222     		movs	r2, #2
 204 0110 1340     		ands	r3, r2
 205 0112 F0D0     		beq	.L10
 206              	.L8:
 207              		.loc 1 190 0
 208 0114 1B4B     		ldr	r3, .L13
 209 0116 1B6A     		ldr	r3, [r3, #32]
 210 0118 1C4A     		ldr	r2, .L13+8
 211 011a 1340     		ands	r3, r2
 212 011c 1900     		movs	r1, r3
 213 011e 7B68     		ldr	r3, [r7, #4]
 214 0120 5A68     		ldr	r2, [r3, #4]
 215 0122 184B     		ldr	r3, .L13
 216 0124 0A43     		orrs	r2, r1
 217 0126 1A62     		str	r2, [r3, #32]
 218              		.loc 1 193 0
 219 0128 1723     		movs	r3, #23
 220 012a FB18     		adds	r3, r7, r3
 221 012c 1B78     		ldrb	r3, [r3]
 222 012e 012B     		cmp	r3, #1
 223 0130 05D1     		bne	.L2
 224              		.loc 1 195 0
 225 0132 144B     		ldr	r3, .L13
 226 0134 DA69     		ldr	r2, [r3, #28]
 227 0136 134B     		ldr	r3, .L13
 228 0138 1749     		ldr	r1, .L13+20
ARM GAS  C:\Users\anashi\AppData\Local\Temp\ccBwgcVN.s 			page 5


 229 013a 0A40     		ands	r2, r1
 230 013c DA61     		str	r2, [r3, #28]
 231              	.L2:
 232              	.LBE2:
 233              		.loc 1 200 0
 234 013e 7B68     		ldr	r3, [r7, #4]
 235 0140 1B68     		ldr	r3, [r3]
 236 0142 0122     		movs	r2, #1
 237 0144 1340     		ands	r3, r2
 238 0146 09D0     		beq	.L11
 239              		.loc 1 206 0
 240 0148 0E4B     		ldr	r3, .L13
 241 014a 1B6B     		ldr	r3, [r3, #48]
 242 014c 0322     		movs	r2, #3
 243 014e 9343     		bics	r3, r2
 244 0150 1900     		movs	r1, r3
 245 0152 7B68     		ldr	r3, [r7, #4]
 246 0154 9A68     		ldr	r2, [r3, #8]
 247 0156 0B4B     		ldr	r3, .L13
 248 0158 0A43     		orrs	r2, r1
 249 015a 1A63     		str	r2, [r3, #48]
 250              	.L11:
 251              		.loc 1 236 0
 252 015c 7B68     		ldr	r3, [r7, #4]
 253 015e 1B68     		ldr	r3, [r3]
 254 0160 2022     		movs	r2, #32
 255 0162 1340     		ands	r3, r2
 256 0164 09D0     		beq	.L12
 257              		.loc 1 242 0
 258 0166 074B     		ldr	r3, .L13
 259 0168 1B6B     		ldr	r3, [r3, #48]
 260 016a 1022     		movs	r2, #16
 261 016c 9343     		bics	r3, r2
 262 016e 1900     		movs	r1, r3
 263 0170 7B68     		ldr	r3, [r7, #4]
 264 0172 DA68     		ldr	r2, [r3, #12]
 265 0174 034B     		ldr	r3, .L13
 266 0176 0A43     		orrs	r2, r1
 267 0178 1A63     		str	r2, [r3, #48]
 268              	.L12:
 269              		.loc 1 275 0
 270 017a 0023     		movs	r3, #0
 271              	.L6:
 272              		.loc 1 276 0
 273 017c 1800     		movs	r0, r3
 274 017e BD46     		mov	sp, r7
 275 0180 06B0     		add	sp, sp, #24
 276              		@ sp needed
 277 0182 80BD     		pop	{r7, pc}
 278              	.L14:
 279              		.align	2
 280              	.L13:
 281 0184 00100240 		.word	1073876992
 282 0188 00700040 		.word	1073770496
 283 018c FFFCFFFF 		.word	-769
 284 0190 FFFFFEFF 		.word	-65537
 285 0194 88130000 		.word	5000
ARM GAS  C:\Users\anashi\AppData\Local\Temp\ccBwgcVN.s 			page 6


 286 0198 FFFFFFEF 		.word	-268435457
 287              		.cfi_endproc
 288              	.LFE37:
 289              		.size	HAL_RCCEx_PeriphCLKConfig, .-HAL_RCCEx_PeriphCLKConfig
 290              		.section	.text.HAL_RCCEx_GetPeriphCLKConfig,"ax",%progbits
 291              		.align	1
 292              		.global	HAL_RCCEx_GetPeriphCLKConfig
 293              		.syntax unified
 294              		.code	16
 295              		.thumb_func
 296              		.fpu softvfp
 297              		.type	HAL_RCCEx_GetPeriphCLKConfig, %function
 298              	HAL_RCCEx_GetPeriphCLKConfig:
 299              	.LFB38:
 300              		.loc 1 287 0
 301              		.cfi_startproc
 302              		@ args = 0, pretend = 0, frame = 8
 303              		@ frame_needed = 1, uses_anonymous_args = 0
 304 0000 80B5     		push	{r7, lr}
 305              		.cfi_def_cfa_offset 8
 306              		.cfi_offset 7, -8
 307              		.cfi_offset 14, -4
 308 0002 82B0     		sub	sp, sp, #8
 309              		.cfi_def_cfa_offset 16
 310 0004 00AF     		add	r7, sp, #0
 311              		.cfi_def_cfa_register 7
 312 0006 7860     		str	r0, [r7, #4]
 313              		.loc 1 290 0
 314 0008 7B68     		ldr	r3, [r7, #4]
 315 000a 0C4A     		ldr	r2, .L16
 316 000c 1A60     		str	r2, [r3]
 317              		.loc 1 292 0
 318 000e 0C4B     		ldr	r3, .L16+4
 319 0010 1A6A     		ldr	r2, [r3, #32]
 320 0012 C023     		movs	r3, #192
 321 0014 9B00     		lsls	r3, r3, #2
 322 0016 1A40     		ands	r2, r3
 323 0018 7B68     		ldr	r3, [r7, #4]
 324 001a 5A60     		str	r2, [r3, #4]
 325              		.loc 1 294 0
 326 001c 084B     		ldr	r3, .L16+4
 327 001e 1B6B     		ldr	r3, [r3, #48]
 328 0020 0322     		movs	r2, #3
 329 0022 1A40     		ands	r2, r3
 330 0024 7B68     		ldr	r3, [r7, #4]
 331 0026 9A60     		str	r2, [r3, #8]
 332              		.loc 1 296 0
 333 0028 054B     		ldr	r3, .L16+4
 334 002a 1B6B     		ldr	r3, [r3, #48]
 335 002c 1022     		movs	r2, #16
 336 002e 1A40     		ands	r2, r3
 337 0030 7B68     		ldr	r3, [r7, #4]
 338 0032 DA60     		str	r2, [r3, #12]
 339              		.loc 1 330 0
 340 0034 C046     		nop
 341 0036 BD46     		mov	sp, r7
 342 0038 02B0     		add	sp, sp, #8
ARM GAS  C:\Users\anashi\AppData\Local\Temp\ccBwgcVN.s 			page 7


 343              		@ sp needed
 344 003a 80BD     		pop	{r7, pc}
 345              	.L17:
 346              		.align	2
 347              	.L16:
 348 003c 21000100 		.word	65569
 349 0040 00100240 		.word	1073876992
 350              		.cfi_endproc
 351              	.LFE38:
 352              		.size	HAL_RCCEx_GetPeriphCLKConfig, .-HAL_RCCEx_GetPeriphCLKConfig
 353              		.section	.text.HAL_RCCEx_GetPeriphCLKFreq,"ax",%progbits
 354              		.align	1
 355              		.global	HAL_RCCEx_GetPeriphCLKFreq
 356              		.syntax unified
 357              		.code	16
 358              		.thumb_func
 359              		.fpu softvfp
 360              		.type	HAL_RCCEx_GetPeriphCLKFreq, %function
 361              	HAL_RCCEx_GetPeriphCLKFreq:
 362              	.LFB39:
 363              		.loc 1 387 0
 364              		.cfi_startproc
 365              		@ args = 0, pretend = 0, frame = 16
 366              		@ frame_needed = 1, uses_anonymous_args = 0
 367 0000 80B5     		push	{r7, lr}
 368              		.cfi_def_cfa_offset 8
 369              		.cfi_offset 7, -8
 370              		.cfi_offset 14, -4
 371 0002 84B0     		sub	sp, sp, #16
 372              		.cfi_def_cfa_offset 24
 373 0004 00AF     		add	r7, sp, #0
 374              		.cfi_def_cfa_register 7
 375 0006 7860     		str	r0, [r7, #4]
 376              		.loc 1 389 0
 377 0008 0023     		movs	r3, #0
 378 000a FB60     		str	r3, [r7, #12]
 379              		.loc 1 391 0
 380 000c 0023     		movs	r3, #0
 381 000e BB60     		str	r3, [r7, #8]
 382              		.loc 1 399 0
 383 0010 7B68     		ldr	r3, [r7, #4]
 384 0012 202B     		cmp	r3, #32
 385 0014 00D1     		bne	.LCB324
 386 0016 62E0     		b	.L20	@long jump
 387              	.LCB324:
 388 0018 8022     		movs	r2, #128
 389 001a 5202     		lsls	r2, r2, #9
 390 001c 9342     		cmp	r3, r2
 391 001e 02D0     		beq	.L21
 392 0020 012B     		cmp	r3, #1
 393 0022 30D0     		beq	.L22
 394              		.loc 1 594 0
 395 0024 78E0     		b	.L26
 396              	.L21:
 397              		.loc 1 404 0
 398 0026 3F4B     		ldr	r3, .L37
 399 0028 1A6A     		ldr	r2, [r3, #32]
ARM GAS  C:\Users\anashi\AppData\Local\Temp\ccBwgcVN.s 			page 8


 400 002a C023     		movs	r3, #192
 401 002c 9B00     		lsls	r3, r3, #2
 402 002e 1340     		ands	r3, r2
 403 0030 BB60     		str	r3, [r7, #8]
 404              		.loc 1 407 0
 405 0032 BA68     		ldr	r2, [r7, #8]
 406 0034 8023     		movs	r3, #128
 407 0036 5B00     		lsls	r3, r3, #1
 408 0038 9A42     		cmp	r2, r3
 409 003a 08D1     		bne	.L23
 410              		.loc 1 407 0 is_stmt 0 discriminator 1
 411 003c 394B     		ldr	r3, .L37
 412 003e 1B6A     		ldr	r3, [r3, #32]
 413 0040 0222     		movs	r2, #2
 414 0042 1340     		ands	r3, r2
 415 0044 03D0     		beq	.L23
 416              		.loc 1 409 0 is_stmt 1
 417 0046 8023     		movs	r3, #128
 418 0048 1B02     		lsls	r3, r3, #8
 419 004a FB60     		str	r3, [r7, #12]
 420 004c 1AE0     		b	.L24
 421              	.L23:
 422              		.loc 1 412 0
 423 004e BA68     		ldr	r2, [r7, #8]
 424 0050 8023     		movs	r3, #128
 425 0052 9B00     		lsls	r3, r3, #2
 426 0054 9A42     		cmp	r2, r3
 427 0056 07D1     		bne	.L25
 428              		.loc 1 412 0 is_stmt 0 discriminator 1
 429 0058 324B     		ldr	r3, .L37
 430 005a 5B6A     		ldr	r3, [r3, #36]
 431 005c 0222     		movs	r2, #2
 432 005e 1340     		ands	r3, r2
 433 0060 02D0     		beq	.L25
 434              		.loc 1 414 0 is_stmt 1
 435 0062 314B     		ldr	r3, .L37+4
 436 0064 FB60     		str	r3, [r7, #12]
 437 0066 0DE0     		b	.L24
 438              	.L25:
 439              		.loc 1 417 0
 440 0068 BA68     		ldr	r2, [r7, #8]
 441 006a C023     		movs	r3, #192
 442 006c 9B00     		lsls	r3, r3, #2
 443 006e 9A42     		cmp	r2, r3
 444 0070 4DD1     		bne	.L34
 445              		.loc 1 417 0 is_stmt 0 discriminator 1
 446 0072 2C4B     		ldr	r3, .L37
 447 0074 1A68     		ldr	r2, [r3]
 448 0076 8023     		movs	r3, #128
 449 0078 9B02     		lsls	r3, r3, #10
 450 007a 1340     		ands	r3, r2
 451 007c 47D0     		beq	.L34
 452              		.loc 1 419 0 is_stmt 1
 453 007e 2B4B     		ldr	r3, .L37+8
 454 0080 FB60     		str	r3, [r7, #12]
 455              		.loc 1 421 0
 456 0082 44E0     		b	.L34
ARM GAS  C:\Users\anashi\AppData\Local\Temp\ccBwgcVN.s 			page 9


 457              	.L24:
 458 0084 43E0     		b	.L34
 459              	.L22:
 460              		.loc 1 426 0
 461 0086 274B     		ldr	r3, .L37
 462 0088 1B6B     		ldr	r3, [r3, #48]
 463 008a 0322     		movs	r2, #3
 464 008c 1340     		ands	r3, r2
 465 008e BB60     		str	r3, [r7, #8]
 466              		.loc 1 429 0
 467 0090 BB68     		ldr	r3, [r7, #8]
 468 0092 002B     		cmp	r3, #0
 469 0094 04D1     		bne	.L27
 470              		.loc 1 431 0
 471 0096 FFF7FEFF 		bl	HAL_RCC_GetPCLK1Freq
 472 009a 0300     		movs	r3, r0
 473 009c FB60     		str	r3, [r7, #12]
 474              		.loc 1 448 0
 475 009e 38E0     		b	.L35
 476              	.L27:
 477              		.loc 1 434 0
 478 00a0 BB68     		ldr	r3, [r7, #8]
 479 00a2 032B     		cmp	r3, #3
 480 00a4 07D1     		bne	.L29
 481              		.loc 1 434 0 is_stmt 0 discriminator 1
 482 00a6 1F4B     		ldr	r3, .L37
 483 00a8 1B68     		ldr	r3, [r3]
 484 00aa 0222     		movs	r2, #2
 485 00ac 1340     		ands	r3, r2
 486 00ae 02D0     		beq	.L29
 487              		.loc 1 436 0 is_stmt 1
 488 00b0 1F4B     		ldr	r3, .L37+12
 489 00b2 FB60     		str	r3, [r7, #12]
 490              		.loc 1 448 0
 491 00b4 2DE0     		b	.L35
 492              	.L29:
 493              		.loc 1 439 0
 494 00b6 BB68     		ldr	r3, [r7, #8]
 495 00b8 012B     		cmp	r3, #1
 496 00ba 04D1     		bne	.L30
 497              		.loc 1 441 0
 498 00bc FFF7FEFF 		bl	HAL_RCC_GetSysClockFreq
 499 00c0 0300     		movs	r3, r0
 500 00c2 FB60     		str	r3, [r7, #12]
 501              		.loc 1 448 0
 502 00c4 25E0     		b	.L35
 503              	.L30:
 504              		.loc 1 444 0
 505 00c6 BB68     		ldr	r3, [r7, #8]
 506 00c8 022B     		cmp	r3, #2
 507 00ca 22D1     		bne	.L35
 508              		.loc 1 444 0 is_stmt 0 discriminator 1
 509 00cc 154B     		ldr	r3, .L37
 510 00ce 1B6A     		ldr	r3, [r3, #32]
 511 00d0 0222     		movs	r2, #2
 512 00d2 1340     		ands	r3, r2
 513 00d4 1DD0     		beq	.L35
ARM GAS  C:\Users\anashi\AppData\Local\Temp\ccBwgcVN.s 			page 10


 514              		.loc 1 446 0 is_stmt 1
 515 00d6 8023     		movs	r3, #128
 516 00d8 1B02     		lsls	r3, r3, #8
 517 00da FB60     		str	r3, [r7, #12]
 518              		.loc 1 448 0
 519 00dc 19E0     		b	.L35
 520              	.L20:
 521              		.loc 1 511 0
 522 00de 114B     		ldr	r3, .L37
 523 00e0 1B6B     		ldr	r3, [r3, #48]
 524 00e2 1022     		movs	r2, #16
 525 00e4 1340     		ands	r3, r2
 526 00e6 BB60     		str	r3, [r7, #8]
 527              		.loc 1 514 0
 528 00e8 BB68     		ldr	r3, [r7, #8]
 529 00ea 002B     		cmp	r3, #0
 530 00ec 07D1     		bne	.L31
 531              		.loc 1 514 0 is_stmt 0 discriminator 1
 532 00ee 0D4B     		ldr	r3, .L37
 533 00f0 1B68     		ldr	r3, [r3]
 534 00f2 0222     		movs	r2, #2
 535 00f4 1340     		ands	r3, r2
 536 00f6 02D0     		beq	.L31
 537              		.loc 1 516 0 is_stmt 1
 538 00f8 0D4B     		ldr	r3, .L37+12
 539 00fa FB60     		str	r3, [r7, #12]
 540              		.loc 1 523 0
 541 00fc 0BE0     		b	.L36
 542              	.L31:
 543              		.loc 1 519 0
 544 00fe BB68     		ldr	r3, [r7, #8]
 545 0100 102B     		cmp	r3, #16
 546 0102 08D1     		bne	.L36
 547              		.loc 1 521 0
 548 0104 FFF7FEFF 		bl	HAL_RCC_GetSysClockFreq
 549 0108 0300     		movs	r3, r0
 550 010a FB60     		str	r3, [r7, #12]
 551              		.loc 1 523 0
 552 010c 03E0     		b	.L36
 553              	.L34:
 554              		.loc 1 421 0
 555 010e C046     		nop
 556 0110 02E0     		b	.L26
 557              	.L35:
 558              		.loc 1 448 0
 559 0112 C046     		nop
 560 0114 00E0     		b	.L26
 561              	.L36:
 562              		.loc 1 523 0
 563 0116 C046     		nop
 564              	.L26:
 565              		.loc 1 597 0
 566 0118 FB68     		ldr	r3, [r7, #12]
 567              		.loc 1 598 0
 568 011a 1800     		movs	r0, r3
 569 011c BD46     		mov	sp, r7
 570 011e 04B0     		add	sp, sp, #16
ARM GAS  C:\Users\anashi\AppData\Local\Temp\ccBwgcVN.s 			page 11


 571              		@ sp needed
 572 0120 80BD     		pop	{r7, pc}
 573              	.L38:
 574 0122 C046     		.align	2
 575              	.L37:
 576 0124 00100240 		.word	1073876992
 577 0128 409C0000 		.word	40000
 578 012c 90D00300 		.word	250000
 579 0130 00127A00 		.word	8000000
 580              		.cfi_endproc
 581              	.LFE39:
 582              		.size	HAL_RCCEx_GetPeriphCLKFreq, .-HAL_RCCEx_GetPeriphCLKFreq
 583              		.text
 584              	.Letext0:
 585              		.file 2 "c:\\st\\stm32cubeide_1.1.0\\stm32cubeide\\plugins\\com.st.stm32cube.ide.mcu.externaltools
 586              		.file 3 "c:\\st\\stm32cubeide_1.1.0\\stm32cubeide\\plugins\\com.st.stm32cube.ide.mcu.externaltools
 587              		.file 4 "C:/repos/rs2all/board/Drivers/CMSIS/Device/ST/STM32F0xx/Include/system_stm32f0xx.h"
 588              		.file 5 "C:/repos/rs2all/board/Drivers/CMSIS/Device/ST/STM32F0xx/Include/stm32f030x6.h"
 589              		.file 6 "C:/repos/rs2all/board/Drivers/CMSIS/Device/ST/STM32F0xx/Include/stm32f0xx.h"
 590              		.file 7 "c:\\st\\stm32cubeide_1.1.0\\stm32cubeide\\plugins\\com.st.stm32cube.ide.mcu.externaltools
 591              		.file 8 "c:\\st\\stm32cubeide_1.1.0\\stm32cubeide\\plugins\\com.st.stm32cube.ide.mcu.externaltools
 592              		.file 9 "c:\\st\\stm32cubeide_1.1.0\\stm32cubeide\\plugins\\com.st.stm32cube.ide.mcu.externaltools
 593              		.file 10 "c:\\st\\stm32cubeide_1.1.0\\stm32cubeide\\plugins\\com.st.stm32cube.ide.mcu.externaltool
 594              		.file 11 "C:/repos/rs2all/board/Drivers/STM32F0xx_HAL_Driver/Inc/stm32f0xx_hal_def.h"
 595              		.file 12 "C:/repos/rs2all/board/Drivers/STM32F0xx_HAL_Driver/Inc/stm32f0xx_hal_rcc_ex.h"
