ARM GAS  C:\Users\anashi\AppData\Local\Temp\ccPr1zT7.s 			page 1


   1              		.cpu cortex-m0
   2              		.eabi_attribute 20, 1
   3              		.eabi_attribute 21, 1
   4              		.eabi_attribute 23, 3
   5              		.eabi_attribute 24, 1
   6              		.eabi_attribute 25, 1
   7              		.eabi_attribute 26, 1
   8              		.eabi_attribute 30, 6
   9              		.eabi_attribute 34, 0
  10              		.eabi_attribute 18, 4
  11              		.file	"tlc59116.c"
  12              		.text
  13              	.Ltext0:
  14              		.cfi_sections	.debug_frame
  15              		.section	.bss._tlc_read,"aw",%nobits
  16              		.align	2
  17              		.type	_tlc_read, %object
  18              		.size	_tlc_read, 4
  19              	_tlc_read:
  20 0000 00000000 		.space	4
  21              		.section	.bss._tlc_write,"aw",%nobits
  22              		.align	2
  23              		.type	_tlc_write, %object
  24              		.size	_tlc_write, 4
  25              	_tlc_write:
  26 0000 00000000 		.space	4
  27              		.section	.data.initial_setup,"aw",%progbits
  28              		.align	2
  29              		.type	initial_setup, %object
  30              		.size	initial_setup, 31
  31              	initial_setup:
  32 0000 80       		.byte	-128
  33 0001 80       		.byte	-128
  34 0002 00       		.byte	0
  35 0003 00       		.byte	0
  36 0004 00       		.byte	0
  37 0005 00       		.byte	0
  38 0006 00       		.byte	0
  39 0007 00       		.byte	0
  40 0008 00       		.byte	0
  41 0009 00       		.byte	0
  42 000a 00       		.byte	0
  43 000b 00       		.byte	0
  44 000c 00       		.byte	0
  45 000d 00       		.byte	0
  46 000e 00       		.byte	0
  47 000f 00       		.byte	0
  48 0010 00       		.byte	0
  49 0011 00       		.byte	0
  50 0012 00       		.byte	0
  51 0013 00       		.byte	0
  52 0014 AA       		.byte	-86
  53 0015 AA       		.byte	-86
  54 0016 AA       		.byte	-86
  55 0017 AA       		.byte	-86
  56 0018 00       		.byte	0
  57 0019 00       		.byte	0
ARM GAS  C:\Users\anashi\AppData\Local\Temp\ccPr1zT7.s 			page 2


  58 001a 00       		.byte	0
  59 001b 00       		.byte	0
  60 001c FF       		.byte	-1
  61 001d 00       		.byte	0
  62 001e 00       		.byte	0
  63              		.section	.data.bright_values,"aw",%progbits
  64              		.align	2
  65              		.type	bright_values, %object
  66              		.size	bright_values, 9
  67              	bright_values:
  68 0000 20       		.byte	32
  69 0001 40       		.byte	64
  70 0002 60       		.byte	96
  71 0003 80       		.byte	-128
  72 0004 A0       		.byte	-96
  73 0005 C0       		.byte	-64
  74 0006 E0       		.byte	-32
  75 0007 FF       		.byte	-1
  76 0008 00       		.byte	0
  77              		.section	.data.bright_table,"aw",%progbits
  78              		.align	2
  79              		.type	bright_table, %object
  80              		.size	bright_table, 144
  81              	bright_table:
  82 0000 20       		.byte	32
  83 0001 20       		.byte	32
  84 0002 20       		.byte	32
  85 0003 20       		.byte	32
  86 0004 20       		.byte	32
  87 0005 20       		.byte	32
  88 0006 20       		.byte	32
  89 0007 20       		.byte	32
  90 0008 20       		.byte	32
  91 0009 20       		.byte	32
  92 000a 20       		.byte	32
  93 000b 20       		.byte	32
  94 000c 20       		.byte	32
  95 000d 20       		.byte	32
  96 000e 20       		.byte	32
  97 000f 20       		.byte	32
  98 0010 40       		.byte	64
  99 0011 40       		.byte	64
 100 0012 40       		.byte	64
 101 0013 40       		.byte	64
 102 0014 40       		.byte	64
 103 0015 40       		.byte	64
 104 0016 40       		.byte	64
 105 0017 40       		.byte	64
 106 0018 40       		.byte	64
 107 0019 40       		.byte	64
 108 001a 40       		.byte	64
 109 001b 40       		.byte	64
 110 001c 40       		.byte	64
 111 001d 40       		.byte	64
 112 001e 40       		.byte	64
 113 001f 40       		.byte	64
 114 0020 60       		.byte	96
ARM GAS  C:\Users\anashi\AppData\Local\Temp\ccPr1zT7.s 			page 3


 115 0021 60       		.byte	96
 116 0022 60       		.byte	96
 117 0023 60       		.byte	96
 118 0024 60       		.byte	96
 119 0025 60       		.byte	96
 120 0026 60       		.byte	96
 121 0027 60       		.byte	96
 122 0028 60       		.byte	96
 123 0029 60       		.byte	96
 124 002a 60       		.byte	96
 125 002b 60       		.byte	96
 126 002c 60       		.byte	96
 127 002d 60       		.byte	96
 128 002e 60       		.byte	96
 129 002f 60       		.byte	96
 130 0030 80       		.byte	-128
 131 0031 80       		.byte	-128
 132 0032 80       		.byte	-128
 133 0033 80       		.byte	-128
 134 0034 80       		.byte	-128
 135 0035 80       		.byte	-128
 136 0036 80       		.byte	-128
 137 0037 80       		.byte	-128
 138 0038 80       		.byte	-128
 139 0039 80       		.byte	-128
 140 003a 80       		.byte	-128
 141 003b 80       		.byte	-128
 142 003c 80       		.byte	-128
 143 003d 80       		.byte	-128
 144 003e 80       		.byte	-128
 145 003f 80       		.byte	-128
 146 0040 A0       		.byte	-96
 147 0041 A0       		.byte	-96
 148 0042 A0       		.byte	-96
 149 0043 A0       		.byte	-96
 150 0044 A0       		.byte	-96
 151 0045 A0       		.byte	-96
 152 0046 A0       		.byte	-96
 153 0047 A0       		.byte	-96
 154 0048 A0       		.byte	-96
 155 0049 A0       		.byte	-96
 156 004a A0       		.byte	-96
 157 004b A0       		.byte	-96
 158 004c A0       		.byte	-96
 159 004d A0       		.byte	-96
 160 004e A0       		.byte	-96
 161 004f A0       		.byte	-96
 162 0050 C0       		.byte	-64
 163 0051 C0       		.byte	-64
 164 0052 C0       		.byte	-64
 165 0053 C0       		.byte	-64
 166 0054 C0       		.byte	-64
 167 0055 C0       		.byte	-64
 168 0056 C0       		.byte	-64
 169 0057 C0       		.byte	-64
 170 0058 C0       		.byte	-64
 171 0059 C0       		.byte	-64
ARM GAS  C:\Users\anashi\AppData\Local\Temp\ccPr1zT7.s 			page 4


 172 005a C0       		.byte	-64
 173 005b C0       		.byte	-64
 174 005c C0       		.byte	-64
 175 005d C0       		.byte	-64
 176 005e C0       		.byte	-64
 177 005f C0       		.byte	-64
 178 0060 E0       		.byte	-32
 179 0061 E0       		.byte	-32
 180 0062 E0       		.byte	-32
 181 0063 E0       		.byte	-32
 182 0064 E0       		.byte	-32
 183 0065 E0       		.byte	-32
 184 0066 E0       		.byte	-32
 185 0067 E0       		.byte	-32
 186 0068 E0       		.byte	-32
 187 0069 E0       		.byte	-32
 188 006a E0       		.byte	-32
 189 006b E0       		.byte	-32
 190 006c E0       		.byte	-32
 191 006d E0       		.byte	-32
 192 006e E0       		.byte	-32
 193 006f E0       		.byte	-32
 194 0070 FF       		.byte	-1
 195 0071 FF       		.byte	-1
 196 0072 FF       		.byte	-1
 197 0073 FF       		.byte	-1
 198 0074 FF       		.byte	-1
 199 0075 FF       		.byte	-1
 200 0076 FF       		.byte	-1
 201 0077 FF       		.byte	-1
 202 0078 FF       		.byte	-1
 203 0079 FF       		.byte	-1
 204 007a FF       		.byte	-1
 205 007b FF       		.byte	-1
 206 007c FF       		.byte	-1
 207 007d FF       		.byte	-1
 208 007e FF       		.byte	-1
 209 007f FF       		.byte	-1
 210 0080 00       		.byte	0
 211 0081 00       		.byte	0
 212 0082 00       		.byte	0
 213 0083 00       		.byte	0
 214 0084 00       		.byte	0
 215 0085 00       		.byte	0
 216 0086 00       		.byte	0
 217 0087 00       		.byte	0
 218 0088 00       		.byte	0
 219 0089 00       		.byte	0
 220 008a 00       		.byte	0
 221 008b 00       		.byte	0
 222 008c 00       		.byte	0
 223 008d 00       		.byte	0
 224 008e 00       		.byte	0
 225 008f 00       		.byte	0
 226              		.section	.text.tlc_init,"ax",%progbits
 227              		.align	1
 228              		.global	tlc_init
ARM GAS  C:\Users\anashi\AppData\Local\Temp\ccPr1zT7.s 			page 5


 229              		.syntax unified
 230              		.code	16
 231              		.thumb_func
 232              		.fpu softvfp
 233              		.type	tlc_init, %function
 234              	tlc_init:
 235              	.LFB0:
 236              		.file 1 "C:/repos/rs2all/components/tlc59116/src/tlc59116.c"
 237              		.loc 1 56 0
 238              		.cfi_startproc
 239              		@ args = 0, pretend = 0, frame = 8
 240              		@ frame_needed = 1, uses_anonymous_args = 0
 241 0000 80B5     		push	{r7, lr}
 242              		.cfi_def_cfa_offset 8
 243              		.cfi_offset 7, -8
 244              		.cfi_offset 14, -4
 245 0002 82B0     		sub	sp, sp, #8
 246              		.cfi_def_cfa_offset 16
 247 0004 00AF     		add	r7, sp, #0
 248              		.cfi_def_cfa_register 7
 249 0006 7860     		str	r0, [r7, #4]
 250 0008 3960     		str	r1, [r7]
 251              		.loc 1 59 0
 252 000a 0A4B     		ldr	r3, .L4
 253 000c 1B78     		ldrb	r3, [r3]
 254 000e 0122     		movs	r2, #1
 255 0010 5340     		eors	r3, r2
 256 0012 DBB2     		uxtb	r3, r3
 257 0014 002B     		cmp	r3, #0
 258 0016 08D0     		beq	.L3
 259              		.loc 1 60 0
 260 0018 064B     		ldr	r3, .L4
 261 001a 0122     		movs	r2, #1
 262 001c 1A70     		strb	r2, [r3]
 263              		.loc 1 61 0
 264 001e 064B     		ldr	r3, .L4+4
 265 0020 7A68     		ldr	r2, [r7, #4]
 266 0022 1A60     		str	r2, [r3]
 267              		.loc 1 62 0
 268 0024 054B     		ldr	r3, .L4+8
 269 0026 3A68     		ldr	r2, [r7]
 270 0028 1A60     		str	r2, [r3]
 271              	.L3:
 272              		.loc 1 64 0
 273 002a C046     		nop
 274 002c BD46     		mov	sp, r7
 275 002e 02B0     		add	sp, sp, #8
 276              		@ sp needed
 277 0030 80BD     		pop	{r7, pc}
 278              	.L5:
 279 0032 C046     		.align	2
 280              	.L4:
 281 0034 00000000 		.word	inited.4216
 282 0038 00000000 		.word	_tlc_read
 283 003c 00000000 		.word	_tlc_write
 284              		.cfi_endproc
 285              	.LFE0:
ARM GAS  C:\Users\anashi\AppData\Local\Temp\ccPr1zT7.s 			page 6


 286              		.size	tlc_init, .-tlc_init
 287              		.section	.text.tlc_setup,"ax",%progbits
 288              		.align	1
 289              		.global	tlc_setup
 290              		.syntax unified
 291              		.code	16
 292              		.thumb_func
 293              		.fpu softvfp
 294              		.type	tlc_setup, %function
 295              	tlc_setup:
 296              	.LFB1:
 297              		.loc 1 66 0
 298              		.cfi_startproc
 299              		@ args = 0, pretend = 0, frame = 8
 300              		@ frame_needed = 1, uses_anonymous_args = 0
 301 0000 90B5     		push	{r4, r7, lr}
 302              		.cfi_def_cfa_offset 12
 303              		.cfi_offset 4, -12
 304              		.cfi_offset 7, -8
 305              		.cfi_offset 14, -4
 306 0002 83B0     		sub	sp, sp, #12
 307              		.cfi_def_cfa_offset 24
 308 0004 00AF     		add	r7, sp, #0
 309              		.cfi_def_cfa_register 7
 310 0006 0200     		movs	r2, r0
 311 0008 FB1D     		adds	r3, r7, #7
 312 000a 1A70     		strb	r2, [r3]
 313              		.loc 1 67 0
 314 000c 064B     		ldr	r3, .L8
 315 000e 1C68     		ldr	r4, [r3]
 316 0010 064A     		ldr	r2, .L8+4
 317 0012 FB1D     		adds	r3, r7, #7
 318 0014 1878     		ldrb	r0, [r3]
 319 0016 1F23     		movs	r3, #31
 320 0018 8021     		movs	r1, #128
 321 001a A047     		blx	r4
 322              	.LVL0:
 323 001c 0300     		movs	r3, r0
 324              		.loc 1 68 0
 325 001e 1800     		movs	r0, r3
 326 0020 BD46     		mov	sp, r7
 327 0022 03B0     		add	sp, sp, #12
 328              		@ sp needed
 329 0024 90BD     		pop	{r4, r7, pc}
 330              	.L9:
 331 0026 C046     		.align	2
 332              	.L8:
 333 0028 00000000 		.word	_tlc_write
 334 002c 00000000 		.word	initial_setup
 335              		.cfi_endproc
 336              	.LFE1:
 337              		.size	tlc_setup, .-tlc_setup
 338              		.section	.text.tlc_enable_ch_all,"ax",%progbits
 339              		.align	1
 340              		.global	tlc_enable_ch_all
 341              		.syntax unified
 342              		.code	16
ARM GAS  C:\Users\anashi\AppData\Local\Temp\ccPr1zT7.s 			page 7


 343              		.thumb_func
 344              		.fpu softvfp
 345              		.type	tlc_enable_ch_all, %function
 346              	tlc_enable_ch_all:
 347              	.LFB2:
 348              		.loc 1 70 0
 349              		.cfi_startproc
 350              		@ args = 0, pretend = 0, frame = 8
 351              		@ frame_needed = 1, uses_anonymous_args = 0
 352 0000 90B5     		push	{r4, r7, lr}
 353              		.cfi_def_cfa_offset 12
 354              		.cfi_offset 4, -12
 355              		.cfi_offset 7, -8
 356              		.cfi_offset 14, -4
 357 0002 83B0     		sub	sp, sp, #12
 358              		.cfi_def_cfa_offset 24
 359 0004 00AF     		add	r7, sp, #0
 360              		.cfi_def_cfa_register 7
 361 0006 0200     		movs	r2, r0
 362 0008 FB1D     		adds	r3, r7, #7
 363 000a 1A70     		strb	r2, [r3]
 364 000c BB1D     		adds	r3, r7, #6
 365 000e 0A1C     		adds	r2, r1, #0
 366 0010 1A70     		strb	r2, [r3]
 367              		.loc 1 71 0
 368 0012 084B     		ldr	r3, .L12
 369 0014 1C68     		ldr	r4, [r3]
 370 0016 BB1D     		adds	r3, r7, #6
 371 0018 1B78     		ldrb	r3, [r3]
 372 001a 1A01     		lsls	r2, r3, #4
 373 001c 064B     		ldr	r3, .L12+4
 374 001e D218     		adds	r2, r2, r3
 375 0020 FB1D     		adds	r3, r7, #7
 376 0022 1878     		ldrb	r0, [r3]
 377 0024 1023     		movs	r3, #16
 378 0026 A221     		movs	r1, #162
 379 0028 A047     		blx	r4
 380              	.LVL1:
 381 002a 0300     		movs	r3, r0
 382              		.loc 1 72 0
 383 002c 1800     		movs	r0, r3
 384 002e BD46     		mov	sp, r7
 385 0030 03B0     		add	sp, sp, #12
 386              		@ sp needed
 387 0032 90BD     		pop	{r4, r7, pc}
 388              	.L13:
 389              		.align	2
 390              	.L12:
 391 0034 00000000 		.word	_tlc_write
 392 0038 00000000 		.word	bright_table
 393              		.cfi_endproc
 394              	.LFE2:
 395              		.size	tlc_enable_ch_all, .-tlc_enable_ch_all
 396              		.section	.text.tlc_disable_ch_all,"ax",%progbits
 397              		.align	1
 398              		.global	tlc_disable_ch_all
 399              		.syntax unified
ARM GAS  C:\Users\anashi\AppData\Local\Temp\ccPr1zT7.s 			page 8


 400              		.code	16
 401              		.thumb_func
 402              		.fpu softvfp
 403              		.type	tlc_disable_ch_all, %function
 404              	tlc_disable_ch_all:
 405              	.LFB3:
 406              		.loc 1 74 0
 407              		.cfi_startproc
 408              		@ args = 0, pretend = 0, frame = 8
 409              		@ frame_needed = 1, uses_anonymous_args = 0
 410 0000 90B5     		push	{r4, r7, lr}
 411              		.cfi_def_cfa_offset 12
 412              		.cfi_offset 4, -12
 413              		.cfi_offset 7, -8
 414              		.cfi_offset 14, -4
 415 0002 83B0     		sub	sp, sp, #12
 416              		.cfi_def_cfa_offset 24
 417 0004 00AF     		add	r7, sp, #0
 418              		.cfi_def_cfa_register 7
 419 0006 0200     		movs	r2, r0
 420 0008 FB1D     		adds	r3, r7, #7
 421 000a 1A70     		strb	r2, [r3]
 422              		.loc 1 75 0
 423 000c 064B     		ldr	r3, .L16
 424 000e 1C68     		ldr	r4, [r3]
 425 0010 064A     		ldr	r2, .L16+4
 426 0012 FB1D     		adds	r3, r7, #7
 427 0014 1878     		ldrb	r0, [r3]
 428 0016 1023     		movs	r3, #16
 429 0018 A221     		movs	r1, #162
 430 001a A047     		blx	r4
 431              	.LVL2:
 432 001c 0300     		movs	r3, r0
 433              		.loc 1 76 0
 434 001e 1800     		movs	r0, r3
 435 0020 BD46     		mov	sp, r7
 436 0022 03B0     		add	sp, sp, #12
 437              		@ sp needed
 438 0024 90BD     		pop	{r4, r7, pc}
 439              	.L17:
 440 0026 C046     		.align	2
 441              	.L16:
 442 0028 00000000 		.word	_tlc_write
 443 002c 80000000 		.word	bright_table+128
 444              		.cfi_endproc
 445              	.LFE3:
 446              		.size	tlc_disable_ch_all, .-tlc_disable_ch_all
 447              		.section	.text.tlc_enable_ch,"ax",%progbits
 448              		.align	1
 449              		.global	tlc_enable_ch
 450              		.syntax unified
 451              		.code	16
 452              		.thumb_func
 453              		.fpu softvfp
 454              		.type	tlc_enable_ch, %function
 455              	tlc_enable_ch:
 456              	.LFB4:
ARM GAS  C:\Users\anashi\AppData\Local\Temp\ccPr1zT7.s 			page 9


 457              		.loc 1 78 0
 458              		.cfi_startproc
 459              		@ args = 0, pretend = 0, frame = 8
 460              		@ frame_needed = 1, uses_anonymous_args = 0
 461 0000 90B5     		push	{r4, r7, lr}
 462              		.cfi_def_cfa_offset 12
 463              		.cfi_offset 4, -12
 464              		.cfi_offset 7, -8
 465              		.cfi_offset 14, -4
 466 0002 83B0     		sub	sp, sp, #12
 467              		.cfi_def_cfa_offset 24
 468 0004 00AF     		add	r7, sp, #0
 469              		.cfi_def_cfa_register 7
 470 0006 0400     		movs	r4, r0
 471 0008 0800     		movs	r0, r1
 472 000a 1100     		movs	r1, r2
 473 000c FB1D     		adds	r3, r7, #7
 474 000e 221C     		adds	r2, r4, #0
 475 0010 1A70     		strb	r2, [r3]
 476 0012 BB1D     		adds	r3, r7, #6
 477 0014 021C     		adds	r2, r0, #0
 478 0016 1A70     		strb	r2, [r3]
 479 0018 7B1D     		adds	r3, r7, #5
 480 001a 0A1C     		adds	r2, r1, #0
 481 001c 1A70     		strb	r2, [r3]
 482              		.loc 1 79 0
 483 001e 084B     		ldr	r3, .L20
 484 0020 1C68     		ldr	r4, [r3]
 485 0022 BB1D     		adds	r3, r7, #6
 486 0024 1A78     		ldrb	r2, [r3]
 487 0026 074B     		ldr	r3, .L20+4
 488 0028 D218     		adds	r2, r2, r3
 489 002a 7B1D     		adds	r3, r7, #5
 490 002c 1978     		ldrb	r1, [r3]
 491 002e FB1D     		adds	r3, r7, #7
 492 0030 1878     		ldrb	r0, [r3]
 493 0032 0123     		movs	r3, #1
 494 0034 A047     		blx	r4
 495              	.LVL3:
 496 0036 0300     		movs	r3, r0
 497              		.loc 1 80 0
 498 0038 1800     		movs	r0, r3
 499 003a BD46     		mov	sp, r7
 500 003c 03B0     		add	sp, sp, #12
 501              		@ sp needed
 502 003e 90BD     		pop	{r4, r7, pc}
 503              	.L21:
 504              		.align	2
 505              	.L20:
 506 0040 00000000 		.word	_tlc_write
 507 0044 00000000 		.word	bright_values
 508              		.cfi_endproc
 509              	.LFE4:
 510              		.size	tlc_enable_ch, .-tlc_enable_ch
 511              		.section	.text.tlc_disable_ch,"ax",%progbits
 512              		.align	1
 513              		.global	tlc_disable_ch
ARM GAS  C:\Users\anashi\AppData\Local\Temp\ccPr1zT7.s 			page 10


 514              		.syntax unified
 515              		.code	16
 516              		.thumb_func
 517              		.fpu softvfp
 518              		.type	tlc_disable_ch, %function
 519              	tlc_disable_ch:
 520              	.LFB5:
 521              		.loc 1 82 0
 522              		.cfi_startproc
 523              		@ args = 0, pretend = 0, frame = 8
 524              		@ frame_needed = 1, uses_anonymous_args = 0
 525 0000 90B5     		push	{r4, r7, lr}
 526              		.cfi_def_cfa_offset 12
 527              		.cfi_offset 4, -12
 528              		.cfi_offset 7, -8
 529              		.cfi_offset 14, -4
 530 0002 83B0     		sub	sp, sp, #12
 531              		.cfi_def_cfa_offset 24
 532 0004 00AF     		add	r7, sp, #0
 533              		.cfi_def_cfa_register 7
 534 0006 0200     		movs	r2, r0
 535 0008 FB1D     		adds	r3, r7, #7
 536 000a 1A70     		strb	r2, [r3]
 537 000c BB1D     		adds	r3, r7, #6
 538 000e 0A1C     		adds	r2, r1, #0
 539 0010 1A70     		strb	r2, [r3]
 540              		.loc 1 83 0
 541 0012 074B     		ldr	r3, .L24
 542 0014 1C68     		ldr	r4, [r3]
 543 0016 074A     		ldr	r2, .L24+4
 544 0018 BB1D     		adds	r3, r7, #6
 545 001a 1978     		ldrb	r1, [r3]
 546 001c FB1D     		adds	r3, r7, #7
 547 001e 1878     		ldrb	r0, [r3]
 548 0020 0123     		movs	r3, #1
 549 0022 A047     		blx	r4
 550              	.LVL4:
 551 0024 0300     		movs	r3, r0
 552              		.loc 1 84 0
 553 0026 1800     		movs	r0, r3
 554 0028 BD46     		mov	sp, r7
 555 002a 03B0     		add	sp, sp, #12
 556              		@ sp needed
 557 002c 90BD     		pop	{r4, r7, pc}
 558              	.L25:
 559 002e C046     		.align	2
 560              	.L24:
 561 0030 00000000 		.word	_tlc_write
 562 0034 08000000 		.word	bright_values+8
 563              		.cfi_endproc
 564              	.LFE5:
 565              		.size	tlc_disable_ch, .-tlc_disable_ch
 566              		.section	.text.tlc_enable_chs,"ax",%progbits
 567              		.align	1
 568              		.global	tlc_enable_chs
 569              		.syntax unified
 570              		.code	16
ARM GAS  C:\Users\anashi\AppData\Local\Temp\ccPr1zT7.s 			page 11


 571              		.thumb_func
 572              		.fpu softvfp
 573              		.type	tlc_enable_chs, %function
 574              	tlc_enable_chs:
 575              	.LFB6:
 576              		.loc 1 86 0
 577              		.cfi_startproc
 578              		@ args = 0, pretend = 0, frame = 32
 579              		@ frame_needed = 1, uses_anonymous_args = 0
 580 0000 90B5     		push	{r4, r7, lr}
 581              		.cfi_def_cfa_offset 12
 582              		.cfi_offset 4, -12
 583              		.cfi_offset 7, -8
 584              		.cfi_offset 14, -4
 585 0002 89B0     		sub	sp, sp, #36
 586              		.cfi_def_cfa_offset 48
 587 0004 00AF     		add	r7, sp, #0
 588              		.cfi_def_cfa_register 7
 589 0006 3A60     		str	r2, [r7]
 590 0008 FB1D     		adds	r3, r7, #7
 591 000a 021C     		adds	r2, r0, #0
 592 000c 1A70     		strb	r2, [r3]
 593 000e BB1D     		adds	r3, r7, #6
 594 0010 0A1C     		adds	r2, r1, #0
 595 0012 1A70     		strb	r2, [r3]
 596              		.loc 1 87 0
 597 0014 0C23     		movs	r3, #12
 598 0016 FB18     		adds	r3, r7, r3
 599 0018 1800     		movs	r0, r3
 600 001a 1023     		movs	r3, #16
 601 001c 1A00     		movs	r2, r3
 602 001e 0021     		movs	r1, #0
 603 0020 FFF7FEFF 		bl	memset
 604              	.LBB2:
 605              		.loc 1 89 0
 606 0024 1F23     		movs	r3, #31
 607 0026 FB18     		adds	r3, r7, r3
 608 0028 0022     		movs	r2, #0
 609 002a 1A70     		strb	r2, [r3]
 610 002c 17E0     		b	.L27
 611              	.L29:
 612              		.loc 1 90 0
 613 002e 1F23     		movs	r3, #31
 614 0030 FB18     		adds	r3, r7, r3
 615 0032 1B78     		ldrb	r3, [r3]
 616 0034 3A68     		ldr	r2, [r7]
 617 0036 D318     		adds	r3, r2, r3
 618 0038 1B78     		ldrb	r3, [r3]
 619 003a 002B     		cmp	r3, #0
 620 003c 09D0     		beq	.L28
 621              		.loc 1 91 0
 622 003e BB1D     		adds	r3, r7, #6
 623 0040 1A78     		ldrb	r2, [r3]
 624 0042 1F23     		movs	r3, #31
 625 0044 FB18     		adds	r3, r7, r3
 626 0046 1B78     		ldrb	r3, [r3]
 627 0048 0E49     		ldr	r1, .L31
ARM GAS  C:\Users\anashi\AppData\Local\Temp\ccPr1zT7.s 			page 12


 628 004a 895C     		ldrb	r1, [r1, r2]
 629 004c 0C22     		movs	r2, #12
 630 004e BA18     		adds	r2, r7, r2
 631 0050 D154     		strb	r1, [r2, r3]
 632              	.L28:
 633              		.loc 1 89 0 discriminator 2
 634 0052 1F21     		movs	r1, #31
 635 0054 7B18     		adds	r3, r7, r1
 636 0056 1A78     		ldrb	r2, [r3]
 637 0058 7B18     		adds	r3, r7, r1
 638 005a 0132     		adds	r2, r2, #1
 639 005c 1A70     		strb	r2, [r3]
 640              	.L27:
 641              		.loc 1 89 0 is_stmt 0 discriminator 1
 642 005e 1F23     		movs	r3, #31
 643 0060 FB18     		adds	r3, r7, r3
 644 0062 1B78     		ldrb	r3, [r3]
 645 0064 0F2B     		cmp	r3, #15
 646 0066 E2D9     		bls	.L29
 647              	.LBE2:
 648              		.loc 1 94 0 is_stmt 1
 649 0068 074B     		ldr	r3, .L31+4
 650 006a 1C68     		ldr	r4, [r3]
 651 006c 0C23     		movs	r3, #12
 652 006e FA18     		adds	r2, r7, r3
 653 0070 FB1D     		adds	r3, r7, #7
 654 0072 1878     		ldrb	r0, [r3]
 655 0074 1023     		movs	r3, #16
 656 0076 A221     		movs	r1, #162
 657 0078 A047     		blx	r4
 658              	.LVL5:
 659 007a 0300     		movs	r3, r0
 660              		.loc 1 95 0
 661 007c 1800     		movs	r0, r3
 662 007e BD46     		mov	sp, r7
 663 0080 09B0     		add	sp, sp, #36
 664              		@ sp needed
 665 0082 90BD     		pop	{r4, r7, pc}
 666              	.L32:
 667              		.align	2
 668              	.L31:
 669 0084 00000000 		.word	bright_values
 670 0088 00000000 		.word	_tlc_write
 671              		.cfi_endproc
 672              	.LFE6:
 673              		.size	tlc_enable_chs, .-tlc_enable_chs
 674              		.section	.bss.inited.4216,"aw",%nobits
 675              		.type	inited.4216, %object
 676              		.size	inited.4216, 1
 677              	inited.4216:
 678 0000 00       		.space	1
 679              		.text
 680              	.Letext0:
 681              		.file 2 "c:\\st\\stm32cubeide_1.1.0\\stm32cubeide\\plugins\\com.st.stm32cube.ide.mcu.externaltools
 682              		.file 3 "c:\\st\\stm32cubeide_1.1.0\\stm32cubeide\\plugins\\com.st.stm32cube.ide.mcu.externaltools
 683              		.file 4 "C:/repos/rs2all/components/tlc59116/src/tlc59116.h"
