ARM GAS  C:\Users\anashi\AppData\Local\Temp\ccM45rYF.s 			page 1


   1              		.cpu cortex-m0
   2              		.eabi_attribute 20, 1
   3              		.eabi_attribute 21, 1
   4              		.eabi_attribute 23, 3
   5              		.eabi_attribute 24, 1
   6              		.eabi_attribute 25, 1
   7              		.eabi_attribute 26, 1
   8              		.eabi_attribute 30, 2
   9              		.eabi_attribute 34, 0
  10              		.eabi_attribute 18, 4
  11              		.file	"clock.c"
  12              		.text
  13              	.Ltext0:
  14              		.cfi_sections	.debug_frame
  15              		.section	.text.clock_init,"ax",%progbits
  16              		.align	1
  17              		.p2align 2,,3
  18              		.global	clock_init
  19              		.syntax unified
  20              		.code	16
  21              		.thumb_func
  22              		.fpu softvfp
  23              		.type	clock_init, %function
  24              	clock_init:
  25              	.LFB37:
  26              		.file 1 "C:/repos/rs2all/board/src/clock.c"
  27              		.loc 1 6 0
  28              		.cfi_startproc
  29              		@ args = 0, pretend = 0, frame = 96
  30              		@ frame_needed = 0, uses_anonymous_args = 0
  31 0000 30B5     		push	{r4, r5, lr}
  32              		.cfi_def_cfa_offset 12
  33              		.cfi_offset 4, -12
  34              		.cfi_offset 5, -8
  35              		.cfi_offset 14, -4
  36 0002 99B0     		sub	sp, sp, #100
  37              		.cfi_def_cfa_offset 112
  38              	.LBB13:
  39              	.LBB14:
  40              		.loc 1 16 0
  41 0004 2C22     		movs	r2, #44
  42 0006 0021     		movs	r1, #0
  43 0008 0DA8     		add	r0, sp, #52
  44 000a FFF7FEFF 		bl	memset
  45              	.LVL0:
  46              		.loc 1 17 0
  47 000e 1022     		movs	r2, #16
  48 0010 0021     		movs	r1, #0
  49 0012 04A8     		add	r0, sp, #16
  50 0014 FFF7FEFF 		bl	memset
  51              	.LVL1:
  52              		.loc 1 18 0
  53 0018 1022     		movs	r2, #16
  54 001a 0021     		movs	r1, #0
  55 001c 08A8     		add	r0, sp, #32
  56 001e FFF7FEFF 		bl	memset
  57              	.LVL2:
ARM GAS  C:\Users\anashi\AppData\Local\Temp\ccM45rYF.s 			page 2


  58              		.loc 1 21 0
  59 0022 0123     		movs	r3, #1
  60 0024 0F93     		str	r3, [sp, #60]
  61              		.loc 1 25 0
  62 0026 C023     		movs	r3, #192
  63              		.loc 1 20 0
  64 0028 0224     		movs	r4, #2
  65              		.loc 1 17 0
  66 002a 1025     		movs	r5, #16
  67              		.loc 1 25 0
  68 002c 5B03     		lsls	r3, r3, #13
  69              		.loc 1 28 0
  70 002e 0CA8     		add	r0, sp, #48
  71              		.loc 1 20 0
  72 0030 0C94     		str	r4, [sp, #48]
  73              		.loc 1 22 0
  74 0032 1095     		str	r5, [sp, #64]
  75              		.loc 1 23 0
  76 0034 1494     		str	r4, [sp, #80]
  77              		.loc 1 25 0
  78 0036 1693     		str	r3, [sp, #88]
  79              		.loc 1 28 0
  80 0038 FFF7FEFF 		bl	HAL_RCC_OscConfig
  81              	.LVL3:
  82 003c 0028     		cmp	r0, #0
  83 003e 02D0     		beq	.L2
  84              	.L4:
  85              	.LBE14:
  86              	.LBE13:
  87              		.loc 1 8 0
  88 0040 0020     		movs	r0, #0
  89              	.L3:
  90              		.loc 1 13 0
  91 0042 19B0     		add	sp, sp, #100
  92              		@ sp needed
  93 0044 30BD     		pop	{r4, r5, pc}
  94              	.L2:
  95              	.LBB16:
  96              	.LBB15:
  97              		.loc 1 32 0
  98 0046 0723     		movs	r3, #7
  99              		.loc 1 34 0
 100 0048 0690     		str	r0, [sp, #24]
 101              		.loc 1 35 0
 102 004a 0790     		str	r0, [sp, #28]
 103              		.loc 1 37 0
 104 004c 0121     		movs	r1, #1
 105 004e 04A8     		add	r0, sp, #16
 106              		.loc 1 32 0
 107 0050 0493     		str	r3, [sp, #16]
 108              		.loc 1 33 0
 109 0052 0594     		str	r4, [sp, #20]
 110              		.loc 1 37 0
 111 0054 FFF7FEFF 		bl	HAL_RCC_ClockConfig
 112              	.LVL4:
 113 0058 0028     		cmp	r0, #0
 114 005a F1D1     		bne	.L4
ARM GAS  C:\Users\anashi\AppData\Local\Temp\ccM45rYF.s 			page 3


 115              		.loc 1 41 0
 116 005c 2123     		movs	r3, #33
 117              		.loc 1 42 0
 118 005e 0A90     		str	r0, [sp, #40]
 119              		.loc 1 44 0
 120 0060 08A8     		add	r0, sp, #32
 121              		.loc 1 41 0
 122 0062 0893     		str	r3, [sp, #32]
 123              		.loc 1 43 0
 124 0064 0B95     		str	r5, [sp, #44]
 125              		.loc 1 44 0
 126 0066 FFF7FEFF 		bl	HAL_RCCEx_PeriphCLKConfig
 127              	.LVL5:
 128 006a 0028     		cmp	r0, #0
 129 006c E8D1     		bne	.L4
 130              	.LBE15:
 131              	.LBE16:
 132              	.LBB17:
 133              	.LBB18:
 134              		.loc 1 52 0
 135 006e 8020     		movs	r0, #128
 136 0070 204B     		ldr	r3, .L6
 137 0072 8002     		lsls	r0, r0, #10
 138 0074 5969     		ldr	r1, [r3, #20]
 139 0076 0143     		orrs	r1, r0
 140 0078 5961     		str	r1, [r3, #20]
 141 007a 5A69     		ldr	r2, [r3, #20]
 142 007c 0240     		ands	r2, r0
 143              	.LBE18:
 144              	.LBB19:
 145              		.loc 1 53 0
 146 007e 8020     		movs	r0, #128
 147              	.LBE19:
 148              	.LBB20:
 149              		.loc 1 52 0
 150 0080 0092     		str	r2, [sp]
 151 0082 009A     		ldr	r2, [sp]
 152              	.LBE20:
 153              	.LBB21:
 154              		.loc 1 53 0
 155 0084 5969     		ldr	r1, [r3, #20]
 156 0086 C002     		lsls	r0, r0, #11
 157 0088 0143     		orrs	r1, r0
 158 008a 5961     		str	r1, [r3, #20]
 159 008c 5A69     		ldr	r2, [r3, #20]
 160 008e 0240     		ands	r2, r0
 161              	.LBE21:
 162              	.LBB22:
 163              		.loc 1 54 0
 164 0090 8020     		movs	r0, #128
 165              	.LBE22:
 166              	.LBB23:
 167              		.loc 1 53 0
 168 0092 0192     		str	r2, [sp, #4]
 169 0094 019A     		ldr	r2, [sp, #4]
 170              	.LBE23:
 171              	.LBB24:
ARM GAS  C:\Users\anashi\AppData\Local\Temp\ccM45rYF.s 			page 4


 172              		.loc 1 54 0
 173 0096 5969     		ldr	r1, [r3, #20]
 174 0098 C003     		lsls	r0, r0, #15
 175 009a 0143     		orrs	r1, r0
 176 009c 5961     		str	r1, [r3, #20]
 177 009e 5A69     		ldr	r2, [r3, #20]
 178 00a0 0240     		ands	r2, r0
 179              	.LBE24:
 180              	.LBB25:
 181              		.loc 1 56 0
 182 00a2 8020     		movs	r0, #128
 183              	.LBE25:
 184              	.LBB26:
 185              		.loc 1 54 0
 186 00a4 0292     		str	r2, [sp, #8]
 187 00a6 029A     		ldr	r2, [sp, #8]
 188              	.LBE26:
 189              	.LBB27:
 190              		.loc 1 56 0
 191 00a8 9969     		ldr	r1, [r3, #24]
 192 00aa C001     		lsls	r0, r0, #7
 193 00ac 0143     		orrs	r1, r0
 194 00ae 9961     		str	r1, [r3, #24]
 195 00b0 9A69     		ldr	r2, [r3, #24]
 196 00b2 0240     		ands	r2, r0
 197              	.LBE27:
 198              	.LBB28:
 199              		.loc 1 57 0
 200 00b4 8020     		movs	r0, #128
 201              	.LBE28:
 202              	.LBB29:
 203              		.loc 1 56 0
 204 00b6 0392     		str	r2, [sp, #12]
 205 00b8 039A     		ldr	r2, [sp, #12]
 206              	.LBE29:
 207              	.LBB30:
 208              		.loc 1 57 0
 209 00ba D969     		ldr	r1, [r3, #28]
 210 00bc 4000     		lsls	r0, r0, #1
 211 00be 0143     		orrs	r1, r0
 212 00c0 D961     		str	r1, [r3, #28]
 213 00c2 DA69     		ldr	r2, [r3, #28]
 214 00c4 0240     		ands	r2, r0
 215              	.LBE30:
 216              	.LBB31:
 217              		.loc 1 58 0
 218 00c6 8020     		movs	r0, #128
 219              	.LBE31:
 220              	.LBB32:
 221              		.loc 1 57 0
 222 00c8 0492     		str	r2, [sp, #16]
 223 00ca 049A     		ldr	r2, [sp, #16]
 224              	.LBE32:
 225              	.LBB33:
 226              		.loc 1 58 0
 227 00cc D969     		ldr	r1, [r3, #28]
 228 00ce 8003     		lsls	r0, r0, #14
ARM GAS  C:\Users\anashi\AppData\Local\Temp\ccM45rYF.s 			page 5


 229 00d0 0143     		orrs	r1, r0
 230 00d2 D961     		str	r1, [r3, #28]
 231              	.LBE33:
 232              	.LBB34:
 233              		.loc 1 59 0
 234 00d4 8021     		movs	r1, #128
 235              	.LBE34:
 236              	.LBB35:
 237              		.loc 1 58 0
 238 00d6 DA69     		ldr	r2, [r3, #28]
 239              	.LBE35:
 240              	.LBB36:
 241              		.loc 1 59 0
 242 00d8 8900     		lsls	r1, r1, #2
 243              	.LBE36:
 244              	.LBB37:
 245              		.loc 1 58 0
 246 00da 0240     		ands	r2, r0
 247 00dc 0892     		str	r2, [sp, #32]
 248 00de 089A     		ldr	r2, [sp, #32]
 249              	.LBE37:
 250              	.LBB38:
 251              		.loc 1 59 0
 252 00e0 9A69     		ldr	r2, [r3, #24]
 253              	.LBE38:
 254              	.LBE17:
 255              		.loc 1 12 0
 256 00e2 0120     		movs	r0, #1
 257              	.LBB40:
 258              	.LBB39:
 259              		.loc 1 59 0
 260 00e4 0A43     		orrs	r2, r1
 261 00e6 9A61     		str	r2, [r3, #24]
 262 00e8 9B69     		ldr	r3, [r3, #24]
 263 00ea 0B40     		ands	r3, r1
 264 00ec 0C93     		str	r3, [sp, #48]
 265 00ee 0C9B     		ldr	r3, [sp, #48]
 266 00f0 A7E7     		b	.L3
 267              	.L7:
 268 00f2 C046     		.align	2
 269              	.L6:
 270 00f4 00100240 		.word	1073876992
 271              	.LBE39:
 272              	.LBE40:
 273              		.cfi_endproc
 274              	.LFE37:
 275              		.size	clock_init, .-clock_init
 276              		.text
 277              	.Letext0:
 278              		.file 2 "c:\\st\\stm32cubeide_1.1.0\\stm32cubeide\\plugins\\com.st.stm32cube.ide.mcu.externaltools
 279              		.file 3 "c:\\st\\stm32cubeide_1.1.0\\stm32cubeide\\plugins\\com.st.stm32cube.ide.mcu.externaltools
 280              		.file 4 "C:/repos/rs2all/board/Drivers/CMSIS/Device/ST/STM32F0xx/Include/system_stm32f0xx.h"
 281              		.file 5 "C:/repos/rs2all/board/Drivers/CMSIS/Device/ST/STM32F0xx/Include/stm32f030x6.h"
 282              		.file 6 "c:\\st\\stm32cubeide_1.1.0\\stm32cubeide\\plugins\\com.st.stm32cube.ide.mcu.externaltools
 283              		.file 7 "c:\\st\\stm32cubeide_1.1.0\\stm32cubeide\\plugins\\com.st.stm32cube.ide.mcu.externaltools
 284              		.file 8 "c:\\st\\stm32cubeide_1.1.0\\stm32cubeide\\plugins\\com.st.stm32cube.ide.mcu.externaltools
 285              		.file 9 "c:\\st\\stm32cubeide_1.1.0\\stm32cubeide\\plugins\\com.st.stm32cube.ide.mcu.externaltools
ARM GAS  C:\Users\anashi\AppData\Local\Temp\ccM45rYF.s 			page 6


 286              		.file 10 "C:/repos/rs2all/board/Drivers/STM32F0xx_HAL_Driver/Inc/stm32f0xx_hal_rcc.h"
 287              		.file 11 "C:/repos/rs2all/board/Drivers/STM32F0xx_HAL_Driver/Inc/stm32f0xx_hal_rcc_ex.h"
 288              		.file 12 "C:/repos/rs2all/board/Drivers/STM32F0xx_HAL_Driver/Inc/stm32f0xx_hal_def.h"
 289              		.file 13 "<built-in>"
