ARM GAS  C:\Users\anashi\AppData\Local\Temp\ccMv1n4S.s 			page 1


   1              		.cpu cortex-m0
   2              		.eabi_attribute 20, 1
   3              		.eabi_attribute 21, 1
   4              		.eabi_attribute 23, 3
   5              		.eabi_attribute 24, 1
   6              		.eabi_attribute 25, 1
   7              		.eabi_attribute 26, 1
   8              		.eabi_attribute 30, 2
   9              		.eabi_attribute 34, 0
  10              		.eabi_attribute 18, 4
  11              		.file	"mbfuncother.c"
  12              		.text
  13              	.Ltext0:
  14              		.cfi_sections	.debug_frame
  15              	.Letext0:
  16              		.file 1 "c:\\st\\stm32cubeide_1.1.0\\stm32cubeide\\plugins\\com.st.stm32cube.ide.mcu.externaltools
  17              		.file 2 "c:\\st\\stm32cubeide_1.1.0\\stm32cubeide\\plugins\\com.st.stm32cube.ide.mcu.externaltools
  18              		.file 3 "C:/repos/rs2all/board/Drivers/CMSIS/Device/ST/STM32F0xx/Include/system_stm32f0xx.h"
  19              		.file 4 "c:\\st\\stm32cubeide_1.1.0\\stm32cubeide\\plugins\\com.st.stm32cube.ide.mcu.externaltools
  20              		.file 5 "c:\\st\\stm32cubeide_1.1.0\\stm32cubeide\\plugins\\com.st.stm32cube.ide.mcu.externaltools
  21              		.file 6 "c:\\st\\stm32cubeide_1.1.0\\stm32cubeide\\plugins\\com.st.stm32cube.ide.mcu.externaltools
  22              		.file 7 "c:\\st\\stm32cubeide_1.1.0\\stm32cubeide\\plugins\\com.st.stm32cube.ide.mcu.externaltools
  23              		.file 8 "C:/repos/rs2all/components/modbus/port/port.h"
  24              		.file 9 "c:\\st\\stm32cubeide_1.1.0\\stm32cubeide\\plugins\\com.st.stm32cube.ide.mcu.externaltools
  25              		.file 10 "C:/repos/rs2all/components/modbus/drv/include/mbport.h"
  26              		.section	.debug_info,"",%progbits
  27              	.Ldebug_info0:
  28 0000 47090000 		.4byte	0x947
  29 0004 0400     		.2byte	0x4
  30 0006 00000000 		.4byte	.Ldebug_abbrev0
  31 000a 04       		.byte	0x4
  32 000b 01       		.uleb128 0x1
  33 000c 58010000 		.4byte	.LASF133
  34 0010 0C       		.byte	0xc
  35 0011 4F050000 		.4byte	.LASF134
  36 0015 84000000 		.4byte	.LASF135
  37 0019 00000000 		.4byte	.Ldebug_line0
  38 001d 02       		.uleb128 0x2
  39 001e 01       		.byte	0x1
  40 001f 06       		.byte	0x6
  41 0020 DC000000 		.4byte	.LASF0
  42 0024 03       		.uleb128 0x3
  43 0025 31000000 		.4byte	.LASF5
  44 0029 01       		.byte	0x1
  45 002a 2B       		.byte	0x2b
  46 002b 2F000000 		.4byte	0x2f
  47 002f 02       		.uleb128 0x2
  48 0030 01       		.byte	0x1
  49 0031 08       		.byte	0x8
  50 0032 C0030000 		.4byte	.LASF1
  51 0036 02       		.uleb128 0x2
  52 0037 02       		.byte	0x2
  53 0038 05       		.byte	0x5
  54 0039 0C000000 		.4byte	.LASF2
  55 003d 02       		.uleb128 0x2
  56 003e 02       		.byte	0x2
  57 003f 07       		.byte	0x7
ARM GAS  C:\Users\anashi\AppData\Local\Temp\ccMv1n4S.s 			page 2


  58 0040 22050000 		.4byte	.LASF3
  59 0044 02       		.uleb128 0x2
  60 0045 04       		.byte	0x4
  61 0046 05       		.byte	0x5
  62 0047 21010000 		.4byte	.LASF4
  63 004b 03       		.uleb128 0x3
  64 004c 51020000 		.4byte	.LASF6
  65 0050 01       		.byte	0x1
  66 0051 4F       		.byte	0x4f
  67 0052 56000000 		.4byte	0x56
  68 0056 02       		.uleb128 0x2
  69 0057 04       		.byte	0x4
  70 0058 07       		.byte	0x7
  71 0059 BE020000 		.4byte	.LASF7
  72 005d 02       		.uleb128 0x2
  73 005e 08       		.byte	0x8
  74 005f 05       		.byte	0x5
  75 0060 4A010000 		.4byte	.LASF8
  76 0064 02       		.uleb128 0x2
  77 0065 08       		.byte	0x8
  78 0066 07       		.byte	0x7
  79 0067 64000000 		.4byte	.LASF9
  80 006b 04       		.uleb128 0x4
  81 006c 04       		.byte	0x4
  82 006d 05       		.byte	0x5
  83 006e 696E7400 		.ascii	"int\000"
  84 0072 02       		.uleb128 0x2
  85 0073 04       		.byte	0x4
  86 0074 07       		.byte	0x7
  87 0075 EB040000 		.4byte	.LASF10
  88 0079 03       		.uleb128 0x3
  89 007a C1050000 		.4byte	.LASF11
  90 007e 02       		.byte	0x2
  91 007f 18       		.byte	0x18
  92 0080 24000000 		.4byte	0x24
  93 0084 05       		.uleb128 0x5
  94 0085 79000000 		.4byte	0x79
  95 0089 03       		.uleb128 0x3
  96 008a A0050000 		.4byte	.LASF12
  97 008e 02       		.byte	0x2
  98 008f 30       		.byte	0x30
  99 0090 4B000000 		.4byte	0x4b
 100 0094 06       		.uleb128 0x6
 101 0095 9E020000 		.4byte	.LASF13
 102 0099 03       		.byte	0x3
 103 009a 4A       		.byte	0x4a
 104 009b 89000000 		.4byte	0x89
 105 009f 07       		.uleb128 0x7
 106 00a0 84000000 		.4byte	0x84
 107 00a4 AF000000 		.4byte	0xaf
 108 00a8 08       		.uleb128 0x8
 109 00a9 72000000 		.4byte	0x72
 110 00ad 0F       		.byte	0xf
 111 00ae 00       		.byte	0
 112 00af 05       		.uleb128 0x5
 113 00b0 9F000000 		.4byte	0x9f
 114 00b4 06       		.uleb128 0x6
ARM GAS  C:\Users\anashi\AppData\Local\Temp\ccMv1n4S.s 			page 3


 115 00b5 F8040000 		.4byte	.LASF14
 116 00b9 03       		.byte	0x3
 117 00ba 4B       		.byte	0x4b
 118 00bb AF000000 		.4byte	0xaf
 119 00bf 07       		.uleb128 0x7
 120 00c0 84000000 		.4byte	0x84
 121 00c4 CF000000 		.4byte	0xcf
 122 00c8 08       		.uleb128 0x8
 123 00c9 72000000 		.4byte	0x72
 124 00cd 07       		.byte	0x7
 125 00ce 00       		.byte	0
 126 00cf 05       		.uleb128 0x5
 127 00d0 BF000000 		.4byte	0xbf
 128 00d4 06       		.uleb128 0x6
 129 00d5 7E020000 		.4byte	.LASF15
 130 00d9 03       		.byte	0x3
 131 00da 4C       		.byte	0x4c
 132 00db CF000000 		.4byte	0xcf
 133 00df 02       		.uleb128 0x2
 134 00e0 08       		.byte	0x8
 135 00e1 04       		.byte	0x4
 136 00e2 C4040000 		.4byte	.LASF16
 137 00e6 09       		.uleb128 0x9
 138 00e7 04       		.byte	0x4
 139 00e8 03       		.uleb128 0x3
 140 00e9 15030000 		.4byte	.LASF17
 141 00ed 04       		.byte	0x4
 142 00ee 22       		.byte	0x22
 143 00ef F3000000 		.4byte	0xf3
 144 00f3 0A       		.uleb128 0xa
 145 00f4 04       		.byte	0x4
 146 00f5 F9000000 		.4byte	0xf9
 147 00f9 0B       		.uleb128 0xb
 148 00fa 81040000 		.4byte	.LASF124
 149 00fe 03       		.uleb128 0x3
 150 00ff CE000000 		.4byte	.LASF18
 151 0103 05       		.byte	0x5
 152 0104 2C       		.byte	0x2c
 153 0105 44000000 		.4byte	0x44
 154 0109 03       		.uleb128 0x3
 155 010a A0040000 		.4byte	.LASF19
 156 010e 05       		.byte	0x5
 157 010f 72       		.byte	0x72
 158 0110 44000000 		.4byte	0x44
 159 0114 0C       		.uleb128 0xc
 160 0115 89030000 		.4byte	.LASF20
 161 0119 06       		.byte	0x6
 162 011a 6501     		.2byte	0x165
 163 011c 72000000 		.4byte	0x72
 164 0120 0D       		.uleb128 0xd
 165 0121 04       		.byte	0x4
 166 0122 05       		.byte	0x5
 167 0123 A6       		.byte	0xa6
 168 0124 3F010000 		.4byte	0x13f
 169 0128 0E       		.uleb128 0xe
 170 0129 0F030000 		.4byte	.LASF21
 171 012d 05       		.byte	0x5
ARM GAS  C:\Users\anashi\AppData\Local\Temp\ccMv1n4S.s 			page 4


 172 012e A8       		.byte	0xa8
 173 012f 14010000 		.4byte	0x114
 174 0133 0E       		.uleb128 0xe
 175 0134 97020000 		.4byte	.LASF22
 176 0138 05       		.byte	0x5
 177 0139 A9       		.byte	0xa9
 178 013a 3F010000 		.4byte	0x13f
 179 013e 00       		.byte	0
 180 013f 07       		.uleb128 0x7
 181 0140 2F000000 		.4byte	0x2f
 182 0144 4F010000 		.4byte	0x14f
 183 0148 08       		.uleb128 0x8
 184 0149 72000000 		.4byte	0x72
 185 014d 03       		.byte	0x3
 186 014e 00       		.byte	0
 187 014f 0F       		.uleb128 0xf
 188 0150 08       		.byte	0x8
 189 0151 05       		.byte	0x5
 190 0152 A3       		.byte	0xa3
 191 0153 70010000 		.4byte	0x170
 192 0157 10       		.uleb128 0x10
 193 0158 79040000 		.4byte	.LASF23
 194 015c 05       		.byte	0x5
 195 015d A5       		.byte	0xa5
 196 015e 6B000000 		.4byte	0x6b
 197 0162 00       		.byte	0
 198 0163 10       		.uleb128 0x10
 199 0164 88040000 		.4byte	.LASF24
 200 0168 05       		.byte	0x5
 201 0169 AA       		.byte	0xaa
 202 016a 20010000 		.4byte	0x120
 203 016e 04       		.byte	0x4
 204 016f 00       		.byte	0
 205 0170 03       		.uleb128 0x3
 206 0171 06040000 		.4byte	.LASF25
 207 0175 05       		.byte	0x5
 208 0176 AB       		.byte	0xab
 209 0177 4F010000 		.4byte	0x14f
 210 017b 03       		.uleb128 0x3
 211 017c DD030000 		.4byte	.LASF26
 212 0180 05       		.byte	0x5
 213 0181 AF       		.byte	0xaf
 214 0182 E8000000 		.4byte	0xe8
 215 0186 03       		.uleb128 0x3
 216 0187 3A050000 		.4byte	.LASF27
 217 018b 07       		.byte	0x7
 218 018c 16       		.byte	0x16
 219 018d 56000000 		.4byte	0x56
 220 0191 11       		.uleb128 0x11
 221 0192 76020000 		.4byte	.LASF32
 222 0196 18       		.byte	0x18
 223 0197 07       		.byte	0x7
 224 0198 2F       		.byte	0x2f
 225 0199 E4010000 		.4byte	0x1e4
 226 019d 10       		.uleb128 0x10
 227 019e 06050000 		.4byte	.LASF28
 228 01a2 07       		.byte	0x7
ARM GAS  C:\Users\anashi\AppData\Local\Temp\ccMv1n4S.s 			page 5


 229 01a3 31       		.byte	0x31
 230 01a4 E4010000 		.4byte	0x1e4
 231 01a8 00       		.byte	0
 232 01a9 12       		.uleb128 0x12
 233 01aa 5F6B00   		.ascii	"_k\000"
 234 01ad 07       		.byte	0x7
 235 01ae 32       		.byte	0x32
 236 01af 6B000000 		.4byte	0x6b
 237 01b3 04       		.byte	0x4
 238 01b4 10       		.uleb128 0x10
 239 01b5 64040000 		.4byte	.LASF29
 240 01b9 07       		.byte	0x7
 241 01ba 32       		.byte	0x32
 242 01bb 6B000000 		.4byte	0x6b
 243 01bf 08       		.byte	0x8
 244 01c0 10       		.uleb128 0x10
 245 01c1 5C020000 		.4byte	.LASF30
 246 01c5 07       		.byte	0x7
 247 01c6 32       		.byte	0x32
 248 01c7 6B000000 		.4byte	0x6b
 249 01cb 0C       		.byte	0xc
 250 01cc 10       		.uleb128 0x10
 251 01cd B6050000 		.4byte	.LASF31
 252 01d1 07       		.byte	0x7
 253 01d2 32       		.byte	0x32
 254 01d3 6B000000 		.4byte	0x6b
 255 01d7 10       		.byte	0x10
 256 01d8 12       		.uleb128 0x12
 257 01d9 5F7800   		.ascii	"_x\000"
 258 01dc 07       		.byte	0x7
 259 01dd 33       		.byte	0x33
 260 01de EA010000 		.4byte	0x1ea
 261 01e2 14       		.byte	0x14
 262 01e3 00       		.byte	0
 263 01e4 0A       		.uleb128 0xa
 264 01e5 04       		.byte	0x4
 265 01e6 91010000 		.4byte	0x191
 266 01ea 07       		.uleb128 0x7
 267 01eb 86010000 		.4byte	0x186
 268 01ef FA010000 		.4byte	0x1fa
 269 01f3 08       		.uleb128 0x8
 270 01f4 72000000 		.4byte	0x72
 271 01f8 00       		.byte	0
 272 01f9 00       		.byte	0
 273 01fa 11       		.uleb128 0x11
 274 01fb 92020000 		.4byte	.LASF33
 275 01ff 24       		.byte	0x24
 276 0200 07       		.byte	0x7
 277 0201 37       		.byte	0x37
 278 0202 73020000 		.4byte	0x273
 279 0206 10       		.uleb128 0x10
 280 0207 C5000000 		.4byte	.LASF34
 281 020b 07       		.byte	0x7
 282 020c 39       		.byte	0x39
 283 020d 6B000000 		.4byte	0x6b
 284 0211 00       		.byte	0
 285 0212 10       		.uleb128 0x10
ARM GAS  C:\Users\anashi\AppData\Local\Temp\ccMv1n4S.s 			page 6


 286 0213 1C060000 		.4byte	.LASF35
 287 0217 07       		.byte	0x7
 288 0218 3A       		.byte	0x3a
 289 0219 6B000000 		.4byte	0x6b
 290 021d 04       		.byte	0x4
 291 021e 10       		.uleb128 0x10
 292 021f F4000000 		.4byte	.LASF36
 293 0223 07       		.byte	0x7
 294 0224 3B       		.byte	0x3b
 295 0225 6B000000 		.4byte	0x6b
 296 0229 08       		.byte	0x8
 297 022a 10       		.uleb128 0x10
 298 022b 3D060000 		.4byte	.LASF37
 299 022f 07       		.byte	0x7
 300 0230 3C       		.byte	0x3c
 301 0231 6B000000 		.4byte	0x6b
 302 0235 0C       		.byte	0xc
 303 0236 10       		.uleb128 0x10
 304 0237 54030000 		.4byte	.LASF38
 305 023b 07       		.byte	0x7
 306 023c 3D       		.byte	0x3d
 307 023d 6B000000 		.4byte	0x6b
 308 0241 10       		.byte	0x10
 309 0242 10       		.uleb128 0x10
 310 0243 3A030000 		.4byte	.LASF39
 311 0247 07       		.byte	0x7
 312 0248 3E       		.byte	0x3e
 313 0249 6B000000 		.4byte	0x6b
 314 024d 14       		.byte	0x14
 315 024e 10       		.uleb128 0x10
 316 024f 96040000 		.4byte	.LASF40
 317 0253 07       		.byte	0x7
 318 0254 3F       		.byte	0x3f
 319 0255 6B000000 		.4byte	0x6b
 320 0259 18       		.byte	0x18
 321 025a 10       		.uleb128 0x10
 322 025b E6030000 		.4byte	.LASF41
 323 025f 07       		.byte	0x7
 324 0260 40       		.byte	0x40
 325 0261 6B000000 		.4byte	0x6b
 326 0265 1C       		.byte	0x1c
 327 0266 10       		.uleb128 0x10
 328 0267 02060000 		.4byte	.LASF42
 329 026b 07       		.byte	0x7
 330 026c 41       		.byte	0x41
 331 026d 6B000000 		.4byte	0x6b
 332 0271 20       		.byte	0x20
 333 0272 00       		.byte	0
 334 0273 13       		.uleb128 0x13
 335 0274 03010000 		.4byte	.LASF43
 336 0278 0801     		.2byte	0x108
 337 027a 07       		.byte	0x7
 338 027b 4A       		.byte	0x4a
 339 027c B3020000 		.4byte	0x2b3
 340 0280 10       		.uleb128 0x10
 341 0281 16000000 		.4byte	.LASF44
 342 0285 07       		.byte	0x7
ARM GAS  C:\Users\anashi\AppData\Local\Temp\ccMv1n4S.s 			page 7


 343 0286 4B       		.byte	0x4b
 344 0287 B3020000 		.4byte	0x2b3
 345 028b 00       		.byte	0
 346 028c 10       		.uleb128 0x10
 347 028d 00000000 		.4byte	.LASF45
 348 0291 07       		.byte	0x7
 349 0292 4C       		.byte	0x4c
 350 0293 B3020000 		.4byte	0x2b3
 351 0297 80       		.byte	0x80
 352 0298 14       		.uleb128 0x14
 353 0299 19050000 		.4byte	.LASF46
 354 029d 07       		.byte	0x7
 355 029e 4E       		.byte	0x4e
 356 029f 86010000 		.4byte	0x186
 357 02a3 0001     		.2byte	0x100
 358 02a5 14       		.uleb128 0x14
 359 02a6 31010000 		.4byte	.LASF47
 360 02aa 07       		.byte	0x7
 361 02ab 51       		.byte	0x51
 362 02ac 86010000 		.4byte	0x186
 363 02b0 0401     		.2byte	0x104
 364 02b2 00       		.byte	0
 365 02b3 07       		.uleb128 0x7
 366 02b4 E6000000 		.4byte	0xe6
 367 02b8 C3020000 		.4byte	0x2c3
 368 02bc 08       		.uleb128 0x8
 369 02bd 72000000 		.4byte	0x72
 370 02c1 1F       		.byte	0x1f
 371 02c2 00       		.byte	0
 372 02c3 13       		.uleb128 0x13
 373 02c4 5D030000 		.4byte	.LASF48
 374 02c8 9001     		.2byte	0x190
 375 02ca 07       		.byte	0x7
 376 02cb 5D       		.byte	0x5d
 377 02cc 01030000 		.4byte	0x301
 378 02d0 10       		.uleb128 0x10
 379 02d1 06050000 		.4byte	.LASF28
 380 02d5 07       		.byte	0x7
 381 02d6 5E       		.byte	0x5e
 382 02d7 01030000 		.4byte	0x301
 383 02db 00       		.byte	0
 384 02dc 10       		.uleb128 0x10
 385 02dd 34040000 		.4byte	.LASF49
 386 02e1 07       		.byte	0x7
 387 02e2 5F       		.byte	0x5f
 388 02e3 6B000000 		.4byte	0x6b
 389 02e7 04       		.byte	0x4
 390 02e8 10       		.uleb128 0x10
 391 02e9 4C020000 		.4byte	.LASF50
 392 02ed 07       		.byte	0x7
 393 02ee 61       		.byte	0x61
 394 02ef 07030000 		.4byte	0x307
 395 02f3 08       		.byte	0x8
 396 02f4 10       		.uleb128 0x10
 397 02f5 03010000 		.4byte	.LASF43
 398 02f9 07       		.byte	0x7
 399 02fa 62       		.byte	0x62
ARM GAS  C:\Users\anashi\AppData\Local\Temp\ccMv1n4S.s 			page 8


 400 02fb 73020000 		.4byte	0x273
 401 02ff 88       		.byte	0x88
 402 0300 00       		.byte	0
 403 0301 0A       		.uleb128 0xa
 404 0302 04       		.byte	0x4
 405 0303 C3020000 		.4byte	0x2c3
 406 0307 07       		.uleb128 0x7
 407 0308 17030000 		.4byte	0x317
 408 030c 17030000 		.4byte	0x317
 409 0310 08       		.uleb128 0x8
 410 0311 72000000 		.4byte	0x72
 411 0315 1F       		.byte	0x1f
 412 0316 00       		.byte	0
 413 0317 0A       		.uleb128 0xa
 414 0318 04       		.byte	0x4
 415 0319 1D030000 		.4byte	0x31d
 416 031d 15       		.uleb128 0x15
 417 031e 11       		.uleb128 0x11
 418 031f F0030000 		.4byte	.LASF51
 419 0323 08       		.byte	0x8
 420 0324 07       		.byte	0x7
 421 0325 75       		.byte	0x75
 422 0326 43030000 		.4byte	0x343
 423 032a 10       		.uleb128 0x10
 424 032b EE000000 		.4byte	.LASF52
 425 032f 07       		.byte	0x7
 426 0330 76       		.byte	0x76
 427 0331 43030000 		.4byte	0x343
 428 0335 00       		.byte	0
 429 0336 10       		.uleb128 0x10
 430 0337 E5040000 		.4byte	.LASF53
 431 033b 07       		.byte	0x7
 432 033c 77       		.byte	0x77
 433 033d 6B000000 		.4byte	0x6b
 434 0341 04       		.byte	0x4
 435 0342 00       		.byte	0
 436 0343 0A       		.uleb128 0xa
 437 0344 04       		.byte	0x4
 438 0345 2F000000 		.4byte	0x2f
 439 0349 11       		.uleb128 0x11
 440 034a 11040000 		.4byte	.LASF54
 441 034e 68       		.byte	0x68
 442 034f 07       		.byte	0x7
 443 0350 B5       		.byte	0xb5
 444 0351 73040000 		.4byte	0x473
 445 0355 12       		.uleb128 0x12
 446 0356 5F7000   		.ascii	"_p\000"
 447 0359 07       		.byte	0x7
 448 035a B6       		.byte	0xb6
 449 035b 43030000 		.4byte	0x343
 450 035f 00       		.byte	0
 451 0360 12       		.uleb128 0x12
 452 0361 5F7200   		.ascii	"_r\000"
 453 0364 07       		.byte	0x7
 454 0365 B7       		.byte	0xb7
 455 0366 6B000000 		.4byte	0x6b
 456 036a 04       		.byte	0x4
ARM GAS  C:\Users\anashi\AppData\Local\Temp\ccMv1n4S.s 			page 9


 457 036b 12       		.uleb128 0x12
 458 036c 5F7700   		.ascii	"_w\000"
 459 036f 07       		.byte	0x7
 460 0370 B8       		.byte	0xb8
 461 0371 6B000000 		.4byte	0x6b
 462 0375 08       		.byte	0x8
 463 0376 10       		.uleb128 0x10
 464 0377 2A010000 		.4byte	.LASF55
 465 037b 07       		.byte	0x7
 466 037c B9       		.byte	0xb9
 467 037d 36000000 		.4byte	0x36
 468 0381 0C       		.byte	0xc
 469 0382 10       		.uleb128 0x10
 470 0383 D0020000 		.4byte	.LASF56
 471 0387 07       		.byte	0x7
 472 0388 BA       		.byte	0xba
 473 0389 36000000 		.4byte	0x36
 474 038d 0E       		.byte	0xe
 475 038e 12       		.uleb128 0x12
 476 038f 5F626600 		.ascii	"_bf\000"
 477 0393 07       		.byte	0x7
 478 0394 BB       		.byte	0xbb
 479 0395 1E030000 		.4byte	0x31e
 480 0399 10       		.byte	0x10
 481 039a 10       		.uleb128 0x10
 482 039b 7B000000 		.4byte	.LASF57
 483 039f 07       		.byte	0x7
 484 03a0 BC       		.byte	0xbc
 485 03a1 6B000000 		.4byte	0x6b
 486 03a5 18       		.byte	0x18
 487 03a6 10       		.uleb128 0x10
 488 03a7 11010000 		.4byte	.LASF58
 489 03ab 07       		.byte	0x7
 490 03ac C3       		.byte	0xc3
 491 03ad E6000000 		.4byte	0xe6
 492 03b1 1C       		.byte	0x1c
 493 03b2 10       		.uleb128 0x10
 494 03b3 8C020000 		.4byte	.LASF59
 495 03b7 07       		.byte	0x7
 496 03b8 C5       		.byte	0xc5
 497 03b9 E0050000 		.4byte	0x5e0
 498 03bd 20       		.byte	0x20
 499 03be 10       		.uleb128 0x10
 500 03bf 33030000 		.4byte	.LASF60
 501 03c3 07       		.byte	0x7
 502 03c4 C7       		.byte	0xc7
 503 03c5 0A060000 		.4byte	0x60a
 504 03c9 24       		.byte	0x24
 505 03ca 10       		.uleb128 0x10
 506 03cb 90040000 		.4byte	.LASF61
 507 03cf 07       		.byte	0x7
 508 03d0 CA       		.byte	0xca
 509 03d1 2E060000 		.4byte	0x62e
 510 03d5 28       		.byte	0x28
 511 03d6 10       		.uleb128 0x10
 512 03d7 D5000000 		.4byte	.LASF62
 513 03db 07       		.byte	0x7
ARM GAS  C:\Users\anashi\AppData\Local\Temp\ccMv1n4S.s 			page 10


 514 03dc CB       		.byte	0xcb
 515 03dd 48060000 		.4byte	0x648
 516 03e1 2C       		.byte	0x2c
 517 03e2 12       		.uleb128 0x12
 518 03e3 5F756200 		.ascii	"_ub\000"
 519 03e7 07       		.byte	0x7
 520 03e8 CE       		.byte	0xce
 521 03e9 1E030000 		.4byte	0x31e
 522 03ed 30       		.byte	0x30
 523 03ee 12       		.uleb128 0x12
 524 03ef 5F757000 		.ascii	"_up\000"
 525 03f3 07       		.byte	0x7
 526 03f4 CF       		.byte	0xcf
 527 03f5 43030000 		.4byte	0x343
 528 03f9 38       		.byte	0x38
 529 03fa 12       		.uleb128 0x12
 530 03fb 5F757200 		.ascii	"_ur\000"
 531 03ff 07       		.byte	0x7
 532 0400 D0       		.byte	0xd0
 533 0401 6B000000 		.4byte	0x6b
 534 0405 3C       		.byte	0x3c
 535 0406 10       		.uleb128 0x10
 536 0407 E8000000 		.4byte	.LASF63
 537 040b 07       		.byte	0x7
 538 040c D3       		.byte	0xd3
 539 040d 4E060000 		.4byte	0x64e
 540 0411 40       		.byte	0x40
 541 0412 10       		.uleb128 0x10
 542 0413 DD050000 		.4byte	.LASF64
 543 0417 07       		.byte	0x7
 544 0418 D4       		.byte	0xd4
 545 0419 5E060000 		.4byte	0x65e
 546 041d 43       		.byte	0x43
 547 041e 12       		.uleb128 0x12
 548 041f 5F6C6200 		.ascii	"_lb\000"
 549 0423 07       		.byte	0x7
 550 0424 D7       		.byte	0xd7
 551 0425 1E030000 		.4byte	0x31e
 552 0429 44       		.byte	0x44
 553 042a 10       		.uleb128 0x10
 554 042b DC040000 		.4byte	.LASF65
 555 042f 07       		.byte	0x7
 556 0430 DA       		.byte	0xda
 557 0431 6B000000 		.4byte	0x6b
 558 0435 4C       		.byte	0x4c
 559 0436 10       		.uleb128 0x10
 560 0437 25020000 		.4byte	.LASF66
 561 043b 07       		.byte	0x7
 562 043c DB       		.byte	0xdb
 563 043d FE000000 		.4byte	0xfe
 564 0441 50       		.byte	0x50
 565 0442 10       		.uleb128 0x10
 566 0443 D6020000 		.4byte	.LASF67
 567 0447 07       		.byte	0x7
 568 0448 DE       		.byte	0xde
 569 0449 91040000 		.4byte	0x491
 570 044d 54       		.byte	0x54
ARM GAS  C:\Users\anashi\AppData\Local\Temp\ccMv1n4S.s 			page 11


 571 044e 10       		.uleb128 0x10
 572 044f 22030000 		.4byte	.LASF68
 573 0453 07       		.byte	0x7
 574 0454 E2       		.byte	0xe2
 575 0455 7B010000 		.4byte	0x17b
 576 0459 58       		.byte	0x58
 577 045a 10       		.uleb128 0x10
 578 045b 19040000 		.4byte	.LASF69
 579 045f 07       		.byte	0x7
 580 0460 E4       		.byte	0xe4
 581 0461 70010000 		.4byte	0x170
 582 0465 5C       		.byte	0x5c
 583 0466 10       		.uleb128 0x10
 584 0467 F7030000 		.4byte	.LASF70
 585 046b 07       		.byte	0x7
 586 046c E5       		.byte	0xe5
 587 046d 6B000000 		.4byte	0x6b
 588 0471 64       		.byte	0x64
 589 0472 00       		.byte	0
 590 0473 16       		.uleb128 0x16
 591 0474 6B000000 		.4byte	0x6b
 592 0478 91040000 		.4byte	0x491
 593 047c 17       		.uleb128 0x17
 594 047d 91040000 		.4byte	0x491
 595 0481 17       		.uleb128 0x17
 596 0482 E6000000 		.4byte	0xe6
 597 0486 17       		.uleb128 0x17
 598 0487 CE050000 		.4byte	0x5ce
 599 048b 17       		.uleb128 0x17
 600 048c 6B000000 		.4byte	0x6b
 601 0490 00       		.byte	0
 602 0491 0A       		.uleb128 0xa
 603 0492 04       		.byte	0x4
 604 0493 9C040000 		.4byte	0x49c
 605 0497 05       		.uleb128 0x5
 606 0498 91040000 		.4byte	0x491
 607 049c 18       		.uleb128 0x18
 608 049d 6C040000 		.4byte	.LASF71
 609 04a1 2804     		.2byte	0x428
 610 04a3 07       		.byte	0x7
 611 04a4 6002     		.2byte	0x260
 612 04a6 CE050000 		.4byte	0x5ce
 613 04aa 19       		.uleb128 0x19
 614 04ab D0040000 		.4byte	.LASF72
 615 04af 07       		.byte	0x7
 616 04b0 6202     		.2byte	0x262
 617 04b2 6B000000 		.4byte	0x6b
 618 04b6 00       		.byte	0
 619 04b7 19       		.uleb128 0x19
 620 04b8 39010000 		.4byte	.LASF73
 621 04bc 07       		.byte	0x7
 622 04bd 6702     		.2byte	0x267
 623 04bf B5060000 		.4byte	0x6b5
 624 04c3 04       		.byte	0x4
 625 04c4 19       		.uleb128 0x19
 626 04c5 AE020000 		.4byte	.LASF74
 627 04c9 07       		.byte	0x7
ARM GAS  C:\Users\anashi\AppData\Local\Temp\ccMv1n4S.s 			page 12


 628 04ca 6702     		.2byte	0x267
 629 04cc B5060000 		.4byte	0x6b5
 630 04d0 08       		.byte	0x8
 631 04d1 19       		.uleb128 0x19
 632 04d2 6E020000 		.4byte	.LASF75
 633 04d6 07       		.byte	0x7
 634 04d7 6702     		.2byte	0x267
 635 04d9 B5060000 		.4byte	0x6b5
 636 04dd 0C       		.byte	0xc
 637 04de 19       		.uleb128 0x19
 638 04df 2F040000 		.4byte	.LASF76
 639 04e3 07       		.byte	0x7
 640 04e4 6902     		.2byte	0x269
 641 04e6 6B000000 		.4byte	0x6b
 642 04ea 10       		.byte	0x10
 643 04eb 19       		.uleb128 0x19
 644 04ec 26000000 		.4byte	.LASF77
 645 04f0 07       		.byte	0x7
 646 04f1 6A02     		.2byte	0x26a
 647 04f3 97080000 		.4byte	0x897
 648 04f7 14       		.byte	0x14
 649 04f8 19       		.uleb128 0x19
 650 04f9 4B040000 		.4byte	.LASF78
 651 04fd 07       		.byte	0x7
 652 04fe 6D02     		.2byte	0x26d
 653 0500 6B000000 		.4byte	0x6b
 654 0504 30       		.byte	0x30
 655 0505 19       		.uleb128 0x19
 656 0506 39040000 		.4byte	.LASF79
 657 050a 07       		.byte	0x7
 658 050b 6E02     		.2byte	0x26e
 659 050d AC080000 		.4byte	0x8ac
 660 0511 34       		.byte	0x34
 661 0512 19       		.uleb128 0x19
 662 0513 6F030000 		.4byte	.LASF80
 663 0517 07       		.byte	0x7
 664 0518 7002     		.2byte	0x270
 665 051a 6B000000 		.4byte	0x6b
 666 051e 38       		.byte	0x38
 667 051f 19       		.uleb128 0x19
 668 0520 41040000 		.4byte	.LASF81
 669 0524 07       		.byte	0x7
 670 0525 7202     		.2byte	0x272
 671 0527 BD080000 		.4byte	0x8bd
 672 052b 3C       		.byte	0x3c
 673 052c 19       		.uleb128 0x19
 674 052d 07030000 		.4byte	.LASF82
 675 0531 07       		.byte	0x7
 676 0532 7502     		.2byte	0x275
 677 0534 E4010000 		.4byte	0x1e4
 678 0538 40       		.byte	0x40
 679 0539 19       		.uleb128 0x19
 680 053a 40010000 		.4byte	.LASF83
 681 053e 07       		.byte	0x7
 682 053f 7602     		.2byte	0x276
 683 0541 6B000000 		.4byte	0x6b
 684 0545 44       		.byte	0x44
ARM GAS  C:\Users\anashi\AppData\Local\Temp\ccMv1n4S.s 			page 13


 685 0546 19       		.uleb128 0x19
 686 0547 38060000 		.4byte	.LASF84
 687 054b 07       		.byte	0x7
 688 054c 7702     		.2byte	0x277
 689 054e E4010000 		.4byte	0x1e4
 690 0552 48       		.byte	0x48
 691 0553 19       		.uleb128 0x19
 692 0554 90030000 		.4byte	.LASF85
 693 0558 07       		.byte	0x7
 694 0559 7802     		.2byte	0x278
 695 055b C3080000 		.4byte	0x8c3
 696 055f 4C       		.byte	0x4c
 697 0560 19       		.uleb128 0x19
 698 0561 B6020000 		.4byte	.LASF86
 699 0565 07       		.byte	0x7
 700 0566 7B02     		.2byte	0x27b
 701 0568 6B000000 		.4byte	0x6b
 702 056c 50       		.byte	0x50
 703 056d 19       		.uleb128 0x19
 704 056e 1D020000 		.4byte	.LASF87
 705 0572 07       		.byte	0x7
 706 0573 7C02     		.2byte	0x27c
 707 0575 CE050000 		.4byte	0x5ce
 708 0579 54       		.byte	0x54
 709 057a 19       		.uleb128 0x19
 710 057b 1D030000 		.4byte	.LASF88
 711 057f 07       		.byte	0x7
 712 0580 9F02     		.2byte	0x29f
 713 0582 75080000 		.4byte	0x875
 714 0586 58       		.byte	0x58
 715 0587 1A       		.uleb128 0x1a
 716 0588 5D030000 		.4byte	.LASF48
 717 058c 07       		.byte	0x7
 718 058d A302     		.2byte	0x2a3
 719 058f 01030000 		.4byte	0x301
 720 0593 4801     		.2byte	0x148
 721 0595 1A       		.uleb128 0x1a
 722 0596 3B000000 		.4byte	.LASF89
 723 059a 07       		.byte	0x7
 724 059b A402     		.2byte	0x2a4
 725 059d C3020000 		.4byte	0x2c3
 726 05a1 4C01     		.2byte	0x14c
 727 05a3 1A       		.uleb128 0x1a
 728 05a4 D3050000 		.4byte	.LASF90
 729 05a8 07       		.byte	0x7
 730 05a9 A802     		.2byte	0x2a8
 731 05ab D4080000 		.4byte	0x8d4
 732 05af DC02     		.2byte	0x2dc
 733 05b1 1A       		.uleb128 0x1a
 734 05b2 19010000 		.4byte	.LASF91
 735 05b6 07       		.byte	0x7
 736 05b7 AD02     		.2byte	0x2ad
 737 05b9 7A060000 		.4byte	0x67a
 738 05bd E002     		.2byte	0x2e0
 739 05bf 1A       		.uleb128 0x1a
 740 05c0 FE000000 		.4byte	.LASF92
 741 05c4 07       		.byte	0x7
ARM GAS  C:\Users\anashi\AppData\Local\Temp\ccMv1n4S.s 			page 14


 742 05c5 AF02     		.2byte	0x2af
 743 05c7 E0080000 		.4byte	0x8e0
 744 05cb EC02     		.2byte	0x2ec
 745 05cd 00       		.byte	0
 746 05ce 0A       		.uleb128 0xa
 747 05cf 04       		.byte	0x4
 748 05d0 D4050000 		.4byte	0x5d4
 749 05d4 02       		.uleb128 0x2
 750 05d5 01       		.byte	0x1
 751 05d6 08       		.byte	0x8
 752 05d7 D7040000 		.4byte	.LASF93
 753 05db 05       		.uleb128 0x5
 754 05dc D4050000 		.4byte	0x5d4
 755 05e0 0A       		.uleb128 0xa
 756 05e1 04       		.byte	0x4
 757 05e2 73040000 		.4byte	0x473
 758 05e6 16       		.uleb128 0x16
 759 05e7 6B000000 		.4byte	0x6b
 760 05eb 04060000 		.4byte	0x604
 761 05ef 17       		.uleb128 0x17
 762 05f0 91040000 		.4byte	0x491
 763 05f4 17       		.uleb128 0x17
 764 05f5 E6000000 		.4byte	0xe6
 765 05f9 17       		.uleb128 0x17
 766 05fa 04060000 		.4byte	0x604
 767 05fe 17       		.uleb128 0x17
 768 05ff 6B000000 		.4byte	0x6b
 769 0603 00       		.byte	0
 770 0604 0A       		.uleb128 0xa
 771 0605 04       		.byte	0x4
 772 0606 DB050000 		.4byte	0x5db
 773 060a 0A       		.uleb128 0xa
 774 060b 04       		.byte	0x4
 775 060c E6050000 		.4byte	0x5e6
 776 0610 16       		.uleb128 0x16
 777 0611 09010000 		.4byte	0x109
 778 0615 2E060000 		.4byte	0x62e
 779 0619 17       		.uleb128 0x17
 780 061a 91040000 		.4byte	0x491
 781 061e 17       		.uleb128 0x17
 782 061f E6000000 		.4byte	0xe6
 783 0623 17       		.uleb128 0x17
 784 0624 09010000 		.4byte	0x109
 785 0628 17       		.uleb128 0x17
 786 0629 6B000000 		.4byte	0x6b
 787 062d 00       		.byte	0
 788 062e 0A       		.uleb128 0xa
 789 062f 04       		.byte	0x4
 790 0630 10060000 		.4byte	0x610
 791 0634 16       		.uleb128 0x16
 792 0635 6B000000 		.4byte	0x6b
 793 0639 48060000 		.4byte	0x648
 794 063d 17       		.uleb128 0x17
 795 063e 91040000 		.4byte	0x491
 796 0642 17       		.uleb128 0x17
 797 0643 E6000000 		.4byte	0xe6
 798 0647 00       		.byte	0
ARM GAS  C:\Users\anashi\AppData\Local\Temp\ccMv1n4S.s 			page 15


 799 0648 0A       		.uleb128 0xa
 800 0649 04       		.byte	0x4
 801 064a 34060000 		.4byte	0x634
 802 064e 07       		.uleb128 0x7
 803 064f 2F000000 		.4byte	0x2f
 804 0653 5E060000 		.4byte	0x65e
 805 0657 08       		.uleb128 0x8
 806 0658 72000000 		.4byte	0x72
 807 065c 02       		.byte	0x2
 808 065d 00       		.byte	0
 809 065e 07       		.uleb128 0x7
 810 065f 2F000000 		.4byte	0x2f
 811 0663 6E060000 		.4byte	0x66e
 812 0667 08       		.uleb128 0x8
 813 0668 72000000 		.4byte	0x72
 814 066c 00       		.byte	0
 815 066d 00       		.byte	0
 816 066e 0C       		.uleb128 0xc
 817 066f FF030000 		.4byte	.LASF94
 818 0673 07       		.byte	0x7
 819 0674 1F01     		.2byte	0x11f
 820 0676 49030000 		.4byte	0x349
 821 067a 1B       		.uleb128 0x1b
 822 067b BB050000 		.4byte	.LASF95
 823 067f 0C       		.byte	0xc
 824 0680 07       		.byte	0x7
 825 0681 2301     		.2byte	0x123
 826 0683 AF060000 		.4byte	0x6af
 827 0687 19       		.uleb128 0x19
 828 0688 06050000 		.4byte	.LASF28
 829 068c 07       		.byte	0x7
 830 068d 2501     		.2byte	0x125
 831 068f AF060000 		.4byte	0x6af
 832 0693 00       		.byte	0
 833 0694 19       		.uleb128 0x19
 834 0695 DC020000 		.4byte	.LASF96
 835 0699 07       		.byte	0x7
 836 069a 2601     		.2byte	0x126
 837 069c 6B000000 		.4byte	0x6b
 838 06a0 04       		.byte	0x4
 839 06a1 19       		.uleb128 0x19
 840 06a2 CE030000 		.4byte	.LASF97
 841 06a6 07       		.byte	0x7
 842 06a7 2701     		.2byte	0x127
 843 06a9 B5060000 		.4byte	0x6b5
 844 06ad 08       		.byte	0x8
 845 06ae 00       		.byte	0
 846 06af 0A       		.uleb128 0xa
 847 06b0 04       		.byte	0x4
 848 06b1 7A060000 		.4byte	0x67a
 849 06b5 0A       		.uleb128 0xa
 850 06b6 04       		.byte	0x4
 851 06b7 6E060000 		.4byte	0x66e
 852 06bb 1B       		.uleb128 0x1b
 853 06bc 1E000000 		.4byte	.LASF98
 854 06c0 0E       		.byte	0xe
 855 06c1 07       		.byte	0x7
ARM GAS  C:\Users\anashi\AppData\Local\Temp\ccMv1n4S.s 			page 16


 856 06c2 3F01     		.2byte	0x13f
 857 06c4 F0060000 		.4byte	0x6f0
 858 06c8 19       		.uleb128 0x19
 859 06c9 73040000 		.4byte	.LASF99
 860 06cd 07       		.byte	0x7
 861 06ce 4001     		.2byte	0x140
 862 06d0 F0060000 		.4byte	0x6f0
 863 06d4 00       		.byte	0
 864 06d5 19       		.uleb128 0x19
 865 06d6 28030000 		.4byte	.LASF100
 866 06da 07       		.byte	0x7
 867 06db 4101     		.2byte	0x141
 868 06dd F0060000 		.4byte	0x6f0
 869 06e1 06       		.byte	0x6
 870 06e2 19       		.uleb128 0x19
 871 06e3 35050000 		.4byte	.LASF101
 872 06e7 07       		.byte	0x7
 873 06e8 4201     		.2byte	0x142
 874 06ea 3D000000 		.4byte	0x3d
 875 06ee 0C       		.byte	0xc
 876 06ef 00       		.byte	0
 877 06f0 07       		.uleb128 0x7
 878 06f1 3D000000 		.4byte	0x3d
 879 06f5 00070000 		.4byte	0x700
 880 06f9 08       		.uleb128 0x8
 881 06fa 72000000 		.4byte	0x72
 882 06fe 02       		.byte	0x2
 883 06ff 00       		.byte	0
 884 0700 1C       		.uleb128 0x1c
 885 0701 D0       		.byte	0xd0
 886 0702 07       		.byte	0x7
 887 0703 8002     		.2byte	0x280
 888 0705 01080000 		.4byte	0x801
 889 0709 19       		.uleb128 0x19
 890 070a A9050000 		.4byte	.LASF102
 891 070e 07       		.byte	0x7
 892 070f 8202     		.2byte	0x282
 893 0711 72000000 		.4byte	0x72
 894 0715 00       		.byte	0
 895 0716 19       		.uleb128 0x19
 896 0717 0C050000 		.4byte	.LASF103
 897 071b 07       		.byte	0x7
 898 071c 8302     		.2byte	0x283
 899 071e CE050000 		.4byte	0x5ce
 900 0722 04       		.byte	0x4
 901 0723 19       		.uleb128 0x19
 902 0724 FA020000 		.4byte	.LASF104
 903 0728 07       		.byte	0x7
 904 0729 8402     		.2byte	0x284
 905 072b 01080000 		.4byte	0x801
 906 072f 08       		.byte	0x8
 907 0730 19       		.uleb128 0x19
 908 0731 0D060000 		.4byte	.LASF105
 909 0735 07       		.byte	0x7
 910 0736 8502     		.2byte	0x285
 911 0738 FA010000 		.4byte	0x1fa
 912 073c 24       		.byte	0x24
ARM GAS  C:\Users\anashi\AppData\Local\Temp\ccMv1n4S.s 			page 17


 913 073d 19       		.uleb128 0x19
 914 073e 7A030000 		.4byte	.LASF106
 915 0742 07       		.byte	0x7
 916 0743 8602     		.2byte	0x286
 917 0745 6B000000 		.4byte	0x6b
 918 0749 48       		.byte	0x48
 919 074a 19       		.uleb128 0x19
 920 074b E3020000 		.4byte	.LASF107
 921 074f 07       		.byte	0x7
 922 0750 8702     		.2byte	0x287
 923 0752 64000000 		.4byte	0x64
 924 0756 50       		.byte	0x50
 925 0757 19       		.uleb128 0x19
 926 0758 25060000 		.4byte	.LASF108
 927 075c 07       		.byte	0x7
 928 075d 8802     		.2byte	0x288
 929 075f BB060000 		.4byte	0x6bb
 930 0763 58       		.byte	0x58
 931 0764 19       		.uleb128 0x19
 932 0765 22040000 		.4byte	.LASF109
 933 0769 07       		.byte	0x7
 934 076a 8902     		.2byte	0x289
 935 076c 70010000 		.4byte	0x170
 936 0770 68       		.byte	0x68
 937 0771 19       		.uleb128 0x19
 938 0772 2A060000 		.4byte	.LASF110
 939 0776 07       		.byte	0x7
 940 0777 8A02     		.2byte	0x28a
 941 0779 70010000 		.4byte	0x170
 942 077d 70       		.byte	0x70
 943 077e 19       		.uleb128 0x19
 944 077f B2030000 		.4byte	.LASF111
 945 0783 07       		.byte	0x7
 946 0784 8B02     		.2byte	0x28b
 947 0786 70010000 		.4byte	0x170
 948 078a 78       		.byte	0x78
 949 078b 19       		.uleb128 0x19
 950 078c C9050000 		.4byte	.LASF112
 951 0790 07       		.byte	0x7
 952 0791 8C02     		.2byte	0x28c
 953 0793 11080000 		.4byte	0x811
 954 0797 80       		.byte	0x80
 955 0798 19       		.uleb128 0x19
 956 0799 EE020000 		.4byte	.LASF113
 957 079d 07       		.byte	0x7
 958 079e 8D02     		.2byte	0x28d
 959 07a0 21080000 		.4byte	0x821
 960 07a4 88       		.byte	0x88
 961 07a5 19       		.uleb128 0x19
 962 07a6 42050000 		.4byte	.LASF114
 963 07aa 07       		.byte	0x7
 964 07ab 8E02     		.2byte	0x28e
 965 07ad 6B000000 		.4byte	0x6b
 966 07b1 A0       		.byte	0xa0
 967 07b2 19       		.uleb128 0x19
 968 07b3 3E020000 		.4byte	.LASF115
 969 07b7 07       		.byte	0x7
ARM GAS  C:\Users\anashi\AppData\Local\Temp\ccMv1n4S.s 			page 18


 970 07b8 8F02     		.2byte	0x28f
 971 07ba 70010000 		.4byte	0x170
 972 07be A4       		.byte	0xa4
 973 07bf 19       		.uleb128 0x19
 974 07c0 B6000000 		.4byte	.LASF116
 975 07c4 07       		.byte	0x7
 976 07c5 9002     		.2byte	0x290
 977 07c7 70010000 		.4byte	0x170
 978 07cb AC       		.byte	0xac
 979 07cc 19       		.uleb128 0x19
 980 07cd 2D020000 		.4byte	.LASF117
 981 07d1 07       		.byte	0x7
 982 07d2 9102     		.2byte	0x291
 983 07d4 70010000 		.4byte	0x170
 984 07d8 B4       		.byte	0xb4
 985 07d9 19       		.uleb128 0x19
 986 07da 44000000 		.4byte	.LASF118
 987 07de 07       		.byte	0x7
 988 07df 9202     		.2byte	0x292
 989 07e1 70010000 		.4byte	0x170
 990 07e5 BC       		.byte	0xbc
 991 07e6 19       		.uleb128 0x19
 992 07e7 53000000 		.4byte	.LASF119
 993 07eb 07       		.byte	0x7
 994 07ec 9302     		.2byte	0x293
 995 07ee 70010000 		.4byte	0x170
 996 07f2 C4       		.byte	0xc4
 997 07f3 19       		.uleb128 0x19
 998 07f4 D4030000 		.4byte	.LASF120
 999 07f8 07       		.byte	0x7
 1000 07f9 9402     		.2byte	0x294
 1001 07fb 6B000000 		.4byte	0x6b
 1002 07ff CC       		.byte	0xcc
 1003 0800 00       		.byte	0
 1004 0801 07       		.uleb128 0x7
 1005 0802 D4050000 		.4byte	0x5d4
 1006 0806 11080000 		.4byte	0x811
 1007 080a 08       		.uleb128 0x8
 1008 080b 72000000 		.4byte	0x72
 1009 080f 19       		.byte	0x19
 1010 0810 00       		.byte	0
 1011 0811 07       		.uleb128 0x7
 1012 0812 D4050000 		.4byte	0x5d4
 1013 0816 21080000 		.4byte	0x821
 1014 081a 08       		.uleb128 0x8
 1015 081b 72000000 		.4byte	0x72
 1016 081f 07       		.byte	0x7
 1017 0820 00       		.byte	0
 1018 0821 07       		.uleb128 0x7
 1019 0822 D4050000 		.4byte	0x5d4
 1020 0826 31080000 		.4byte	0x831
 1021 082a 08       		.uleb128 0x8
 1022 082b 72000000 		.4byte	0x72
 1023 082f 17       		.byte	0x17
 1024 0830 00       		.byte	0
 1025 0831 1C       		.uleb128 0x1c
 1026 0832 F0       		.byte	0xf0
ARM GAS  C:\Users\anashi\AppData\Local\Temp\ccMv1n4S.s 			page 19


 1027 0833 07       		.byte	0x7
 1028 0834 9902     		.2byte	0x299
 1029 0836 55080000 		.4byte	0x855
 1030 083a 19       		.uleb128 0x19
 1031 083b 4D030000 		.4byte	.LASF121
 1032 083f 07       		.byte	0x7
 1033 0840 9C02     		.2byte	0x29c
 1034 0842 55080000 		.4byte	0x855
 1035 0846 00       		.byte	0
 1036 0847 19       		.uleb128 0x19
 1037 0848 44030000 		.4byte	.LASF122
 1038 084c 07       		.byte	0x7
 1039 084d 9D02     		.2byte	0x29d
 1040 084f 65080000 		.4byte	0x865
 1041 0853 78       		.byte	0x78
 1042 0854 00       		.byte	0
 1043 0855 07       		.uleb128 0x7
 1044 0856 43030000 		.4byte	0x343
 1045 085a 65080000 		.4byte	0x865
 1046 085e 08       		.uleb128 0x8
 1047 085f 72000000 		.4byte	0x72
 1048 0863 1D       		.byte	0x1d
 1049 0864 00       		.byte	0
 1050 0865 07       		.uleb128 0x7
 1051 0866 72000000 		.4byte	0x72
 1052 086a 75080000 		.4byte	0x875
 1053 086e 08       		.uleb128 0x8
 1054 086f 72000000 		.4byte	0x72
 1055 0873 1D       		.byte	0x1d
 1056 0874 00       		.byte	0
 1057 0875 1D       		.uleb128 0x1d
 1058 0876 F0       		.byte	0xf0
 1059 0877 07       		.byte	0x7
 1060 0878 7E02     		.2byte	0x27e
 1061 087a 97080000 		.4byte	0x897
 1062 087e 1E       		.uleb128 0x1e
 1063 087f 6C040000 		.4byte	.LASF71
 1064 0883 07       		.byte	0x7
 1065 0884 9502     		.2byte	0x295
 1066 0886 00070000 		.4byte	0x700
 1067 088a 1E       		.uleb128 0x1e
 1068 088b E3050000 		.4byte	.LASF123
 1069 088f 07       		.byte	0x7
 1070 0890 9E02     		.2byte	0x29e
 1071 0892 31080000 		.4byte	0x831
 1072 0896 00       		.byte	0
 1073 0897 07       		.uleb128 0x7
 1074 0898 D4050000 		.4byte	0x5d4
 1075 089c A7080000 		.4byte	0x8a7
 1076 08a0 08       		.uleb128 0x8
 1077 08a1 72000000 		.4byte	0x72
 1078 08a5 18       		.byte	0x18
 1079 08a6 00       		.byte	0
 1080 08a7 0B       		.uleb128 0xb
 1081 08a8 AB000000 		.4byte	.LASF125
 1082 08ac 0A       		.uleb128 0xa
 1083 08ad 04       		.byte	0x4
ARM GAS  C:\Users\anashi\AppData\Local\Temp\ccMv1n4S.s 			page 20


 1084 08ae A7080000 		.4byte	0x8a7
 1085 08b2 1F       		.uleb128 0x1f
 1086 08b3 BD080000 		.4byte	0x8bd
 1087 08b7 17       		.uleb128 0x17
 1088 08b8 91040000 		.4byte	0x491
 1089 08bc 00       		.byte	0
 1090 08bd 0A       		.uleb128 0xa
 1091 08be 04       		.byte	0x4
 1092 08bf B2080000 		.4byte	0x8b2
 1093 08c3 0A       		.uleb128 0xa
 1094 08c4 04       		.byte	0x4
 1095 08c5 E4010000 		.4byte	0x1e4
 1096 08c9 1F       		.uleb128 0x1f
 1097 08ca D4080000 		.4byte	0x8d4
 1098 08ce 17       		.uleb128 0x17
 1099 08cf 6B000000 		.4byte	0x6b
 1100 08d3 00       		.byte	0
 1101 08d4 0A       		.uleb128 0xa
 1102 08d5 04       		.byte	0x4
 1103 08d6 DA080000 		.4byte	0x8da
 1104 08da 0A       		.uleb128 0xa
 1105 08db 04       		.byte	0x4
 1106 08dc C9080000 		.4byte	0x8c9
 1107 08e0 07       		.uleb128 0x7
 1108 08e1 6E060000 		.4byte	0x66e
 1109 08e5 F0080000 		.4byte	0x8f0
 1110 08e9 08       		.uleb128 0x8
 1111 08ea 72000000 		.4byte	0x72
 1112 08ee 02       		.byte	0x2
 1113 08ef 00       		.byte	0
 1114 08f0 20       		.uleb128 0x20
 1115 08f1 62020000 		.4byte	.LASF126
 1116 08f5 07       		.byte	0x7
 1117 08f6 2E03     		.2byte	0x32e
 1118 08f8 91040000 		.4byte	0x491
 1119 08fc 20       		.uleb128 0x20
 1120 08fd 8D050000 		.4byte	.LASF127
 1121 0901 07       		.byte	0x7
 1122 0902 2F03     		.2byte	0x32f
 1123 0904 97040000 		.4byte	0x497
 1124 0908 03       		.uleb128 0x3
 1125 0909 2E030000 		.4byte	.LASF128
 1126 090d 08       		.byte	0x8
 1127 090e 26       		.byte	0x26
 1128 090f 79000000 		.4byte	0x79
 1129 0913 06       		.uleb128 0x6
 1130 0914 65030000 		.4byte	.LASF129
 1131 0918 09       		.byte	0x9
 1132 0919 63       		.byte	0x63
 1133 091a CE050000 		.4byte	0x5ce
 1134 091e 21       		.uleb128 0x21
 1135 091f 08090000 		.4byte	0x908
 1136 0923 06       		.uleb128 0x6
 1137 0924 9A030000 		.4byte	.LASF130
 1138 0928 0A       		.byte	0xa
 1139 0929 6C       		.byte	0x6c
 1140 092a 2E090000 		.4byte	0x92e
ARM GAS  C:\Users\anashi\AppData\Local\Temp\ccMv1n4S.s 			page 21


 1141 092e 0A       		.uleb128 0xa
 1142 092f 04       		.byte	0x4
 1143 0930 1E090000 		.4byte	0x91e
 1144 0934 06       		.uleb128 0x6
 1145 0935 A8040000 		.4byte	.LASF131
 1146 0939 0A       		.byte	0xa
 1147 093a 6E       		.byte	0x6e
 1148 093b 2E090000 		.4byte	0x92e
 1149 093f 06       		.uleb128 0x6
 1150 0940 EB050000 		.4byte	.LASF132
 1151 0944 0A       		.byte	0xa
 1152 0945 70       		.byte	0x70
 1153 0946 2E090000 		.4byte	0x92e
 1154 094a 00       		.byte	0
 1155              		.section	.debug_abbrev,"",%progbits
 1156              	.Ldebug_abbrev0:
 1157 0000 01       		.uleb128 0x1
 1158 0001 11       		.uleb128 0x11
 1159 0002 01       		.byte	0x1
 1160 0003 25       		.uleb128 0x25
 1161 0004 0E       		.uleb128 0xe
 1162 0005 13       		.uleb128 0x13
 1163 0006 0B       		.uleb128 0xb
 1164 0007 03       		.uleb128 0x3
 1165 0008 0E       		.uleb128 0xe
 1166 0009 1B       		.uleb128 0x1b
 1167 000a 0E       		.uleb128 0xe
 1168 000b 10       		.uleb128 0x10
 1169 000c 17       		.uleb128 0x17
 1170 000d 00       		.byte	0
 1171 000e 00       		.byte	0
 1172 000f 02       		.uleb128 0x2
 1173 0010 24       		.uleb128 0x24
 1174 0011 00       		.byte	0
 1175 0012 0B       		.uleb128 0xb
 1176 0013 0B       		.uleb128 0xb
 1177 0014 3E       		.uleb128 0x3e
 1178 0015 0B       		.uleb128 0xb
 1179 0016 03       		.uleb128 0x3
 1180 0017 0E       		.uleb128 0xe
 1181 0018 00       		.byte	0
 1182 0019 00       		.byte	0
 1183 001a 03       		.uleb128 0x3
 1184 001b 16       		.uleb128 0x16
 1185 001c 00       		.byte	0
 1186 001d 03       		.uleb128 0x3
 1187 001e 0E       		.uleb128 0xe
 1188 001f 3A       		.uleb128 0x3a
 1189 0020 0B       		.uleb128 0xb
 1190 0021 3B       		.uleb128 0x3b
 1191 0022 0B       		.uleb128 0xb
 1192 0023 49       		.uleb128 0x49
 1193 0024 13       		.uleb128 0x13
 1194 0025 00       		.byte	0
 1195 0026 00       		.byte	0
 1196 0027 04       		.uleb128 0x4
 1197 0028 24       		.uleb128 0x24
ARM GAS  C:\Users\anashi\AppData\Local\Temp\ccMv1n4S.s 			page 22


 1198 0029 00       		.byte	0
 1199 002a 0B       		.uleb128 0xb
 1200 002b 0B       		.uleb128 0xb
 1201 002c 3E       		.uleb128 0x3e
 1202 002d 0B       		.uleb128 0xb
 1203 002e 03       		.uleb128 0x3
 1204 002f 08       		.uleb128 0x8
 1205 0030 00       		.byte	0
 1206 0031 00       		.byte	0
 1207 0032 05       		.uleb128 0x5
 1208 0033 26       		.uleb128 0x26
 1209 0034 00       		.byte	0
 1210 0035 49       		.uleb128 0x49
 1211 0036 13       		.uleb128 0x13
 1212 0037 00       		.byte	0
 1213 0038 00       		.byte	0
 1214 0039 06       		.uleb128 0x6
 1215 003a 34       		.uleb128 0x34
 1216 003b 00       		.byte	0
 1217 003c 03       		.uleb128 0x3
 1218 003d 0E       		.uleb128 0xe
 1219 003e 3A       		.uleb128 0x3a
 1220 003f 0B       		.uleb128 0xb
 1221 0040 3B       		.uleb128 0x3b
 1222 0041 0B       		.uleb128 0xb
 1223 0042 49       		.uleb128 0x49
 1224 0043 13       		.uleb128 0x13
 1225 0044 3F       		.uleb128 0x3f
 1226 0045 19       		.uleb128 0x19
 1227 0046 3C       		.uleb128 0x3c
 1228 0047 19       		.uleb128 0x19
 1229 0048 00       		.byte	0
 1230 0049 00       		.byte	0
 1231 004a 07       		.uleb128 0x7
 1232 004b 01       		.uleb128 0x1
 1233 004c 01       		.byte	0x1
 1234 004d 49       		.uleb128 0x49
 1235 004e 13       		.uleb128 0x13
 1236 004f 01       		.uleb128 0x1
 1237 0050 13       		.uleb128 0x13
 1238 0051 00       		.byte	0
 1239 0052 00       		.byte	0
 1240 0053 08       		.uleb128 0x8
 1241 0054 21       		.uleb128 0x21
 1242 0055 00       		.byte	0
 1243 0056 49       		.uleb128 0x49
 1244 0057 13       		.uleb128 0x13
 1245 0058 2F       		.uleb128 0x2f
 1246 0059 0B       		.uleb128 0xb
 1247 005a 00       		.byte	0
 1248 005b 00       		.byte	0
 1249 005c 09       		.uleb128 0x9
 1250 005d 0F       		.uleb128 0xf
 1251 005e 00       		.byte	0
 1252 005f 0B       		.uleb128 0xb
 1253 0060 0B       		.uleb128 0xb
 1254 0061 00       		.byte	0
ARM GAS  C:\Users\anashi\AppData\Local\Temp\ccMv1n4S.s 			page 23


 1255 0062 00       		.byte	0
 1256 0063 0A       		.uleb128 0xa
 1257 0064 0F       		.uleb128 0xf
 1258 0065 00       		.byte	0
 1259 0066 0B       		.uleb128 0xb
 1260 0067 0B       		.uleb128 0xb
 1261 0068 49       		.uleb128 0x49
 1262 0069 13       		.uleb128 0x13
 1263 006a 00       		.byte	0
 1264 006b 00       		.byte	0
 1265 006c 0B       		.uleb128 0xb
 1266 006d 13       		.uleb128 0x13
 1267 006e 00       		.byte	0
 1268 006f 03       		.uleb128 0x3
 1269 0070 0E       		.uleb128 0xe
 1270 0071 3C       		.uleb128 0x3c
 1271 0072 19       		.uleb128 0x19
 1272 0073 00       		.byte	0
 1273 0074 00       		.byte	0
 1274 0075 0C       		.uleb128 0xc
 1275 0076 16       		.uleb128 0x16
 1276 0077 00       		.byte	0
 1277 0078 03       		.uleb128 0x3
 1278 0079 0E       		.uleb128 0xe
 1279 007a 3A       		.uleb128 0x3a
 1280 007b 0B       		.uleb128 0xb
 1281 007c 3B       		.uleb128 0x3b
 1282 007d 05       		.uleb128 0x5
 1283 007e 49       		.uleb128 0x49
 1284 007f 13       		.uleb128 0x13
 1285 0080 00       		.byte	0
 1286 0081 00       		.byte	0
 1287 0082 0D       		.uleb128 0xd
 1288 0083 17       		.uleb128 0x17
 1289 0084 01       		.byte	0x1
 1290 0085 0B       		.uleb128 0xb
 1291 0086 0B       		.uleb128 0xb
 1292 0087 3A       		.uleb128 0x3a
 1293 0088 0B       		.uleb128 0xb
 1294 0089 3B       		.uleb128 0x3b
 1295 008a 0B       		.uleb128 0xb
 1296 008b 01       		.uleb128 0x1
 1297 008c 13       		.uleb128 0x13
 1298 008d 00       		.byte	0
 1299 008e 00       		.byte	0
 1300 008f 0E       		.uleb128 0xe
 1301 0090 0D       		.uleb128 0xd
 1302 0091 00       		.byte	0
 1303 0092 03       		.uleb128 0x3
 1304 0093 0E       		.uleb128 0xe
 1305 0094 3A       		.uleb128 0x3a
 1306 0095 0B       		.uleb128 0xb
 1307 0096 3B       		.uleb128 0x3b
 1308 0097 0B       		.uleb128 0xb
 1309 0098 49       		.uleb128 0x49
 1310 0099 13       		.uleb128 0x13
 1311 009a 00       		.byte	0
ARM GAS  C:\Users\anashi\AppData\Local\Temp\ccMv1n4S.s 			page 24


 1312 009b 00       		.byte	0
 1313 009c 0F       		.uleb128 0xf
 1314 009d 13       		.uleb128 0x13
 1315 009e 01       		.byte	0x1
 1316 009f 0B       		.uleb128 0xb
 1317 00a0 0B       		.uleb128 0xb
 1318 00a1 3A       		.uleb128 0x3a
 1319 00a2 0B       		.uleb128 0xb
 1320 00a3 3B       		.uleb128 0x3b
 1321 00a4 0B       		.uleb128 0xb
 1322 00a5 01       		.uleb128 0x1
 1323 00a6 13       		.uleb128 0x13
 1324 00a7 00       		.byte	0
 1325 00a8 00       		.byte	0
 1326 00a9 10       		.uleb128 0x10
 1327 00aa 0D       		.uleb128 0xd
 1328 00ab 00       		.byte	0
 1329 00ac 03       		.uleb128 0x3
 1330 00ad 0E       		.uleb128 0xe
 1331 00ae 3A       		.uleb128 0x3a
 1332 00af 0B       		.uleb128 0xb
 1333 00b0 3B       		.uleb128 0x3b
 1334 00b1 0B       		.uleb128 0xb
 1335 00b2 49       		.uleb128 0x49
 1336 00b3 13       		.uleb128 0x13
 1337 00b4 38       		.uleb128 0x38
 1338 00b5 0B       		.uleb128 0xb
 1339 00b6 00       		.byte	0
 1340 00b7 00       		.byte	0
 1341 00b8 11       		.uleb128 0x11
 1342 00b9 13       		.uleb128 0x13
 1343 00ba 01       		.byte	0x1
 1344 00bb 03       		.uleb128 0x3
 1345 00bc 0E       		.uleb128 0xe
 1346 00bd 0B       		.uleb128 0xb
 1347 00be 0B       		.uleb128 0xb
 1348 00bf 3A       		.uleb128 0x3a
 1349 00c0 0B       		.uleb128 0xb
 1350 00c1 3B       		.uleb128 0x3b
 1351 00c2 0B       		.uleb128 0xb
 1352 00c3 01       		.uleb128 0x1
 1353 00c4 13       		.uleb128 0x13
 1354 00c5 00       		.byte	0
 1355 00c6 00       		.byte	0
 1356 00c7 12       		.uleb128 0x12
 1357 00c8 0D       		.uleb128 0xd
 1358 00c9 00       		.byte	0
 1359 00ca 03       		.uleb128 0x3
 1360 00cb 08       		.uleb128 0x8
 1361 00cc 3A       		.uleb128 0x3a
 1362 00cd 0B       		.uleb128 0xb
 1363 00ce 3B       		.uleb128 0x3b
 1364 00cf 0B       		.uleb128 0xb
 1365 00d0 49       		.uleb128 0x49
 1366 00d1 13       		.uleb128 0x13
 1367 00d2 38       		.uleb128 0x38
 1368 00d3 0B       		.uleb128 0xb
ARM GAS  C:\Users\anashi\AppData\Local\Temp\ccMv1n4S.s 			page 25


 1369 00d4 00       		.byte	0
 1370 00d5 00       		.byte	0
 1371 00d6 13       		.uleb128 0x13
 1372 00d7 13       		.uleb128 0x13
 1373 00d8 01       		.byte	0x1
 1374 00d9 03       		.uleb128 0x3
 1375 00da 0E       		.uleb128 0xe
 1376 00db 0B       		.uleb128 0xb
 1377 00dc 05       		.uleb128 0x5
 1378 00dd 3A       		.uleb128 0x3a
 1379 00de 0B       		.uleb128 0xb
 1380 00df 3B       		.uleb128 0x3b
 1381 00e0 0B       		.uleb128 0xb
 1382 00e1 01       		.uleb128 0x1
 1383 00e2 13       		.uleb128 0x13
 1384 00e3 00       		.byte	0
 1385 00e4 00       		.byte	0
 1386 00e5 14       		.uleb128 0x14
 1387 00e6 0D       		.uleb128 0xd
 1388 00e7 00       		.byte	0
 1389 00e8 03       		.uleb128 0x3
 1390 00e9 0E       		.uleb128 0xe
 1391 00ea 3A       		.uleb128 0x3a
 1392 00eb 0B       		.uleb128 0xb
 1393 00ec 3B       		.uleb128 0x3b
 1394 00ed 0B       		.uleb128 0xb
 1395 00ee 49       		.uleb128 0x49
 1396 00ef 13       		.uleb128 0x13
 1397 00f0 38       		.uleb128 0x38
 1398 00f1 05       		.uleb128 0x5
 1399 00f2 00       		.byte	0
 1400 00f3 00       		.byte	0
 1401 00f4 15       		.uleb128 0x15
 1402 00f5 15       		.uleb128 0x15
 1403 00f6 00       		.byte	0
 1404 00f7 27       		.uleb128 0x27
 1405 00f8 19       		.uleb128 0x19
 1406 00f9 00       		.byte	0
 1407 00fa 00       		.byte	0
 1408 00fb 16       		.uleb128 0x16
 1409 00fc 15       		.uleb128 0x15
 1410 00fd 01       		.byte	0x1
 1411 00fe 27       		.uleb128 0x27
 1412 00ff 19       		.uleb128 0x19
 1413 0100 49       		.uleb128 0x49
 1414 0101 13       		.uleb128 0x13
 1415 0102 01       		.uleb128 0x1
 1416 0103 13       		.uleb128 0x13
 1417 0104 00       		.byte	0
 1418 0105 00       		.byte	0
 1419 0106 17       		.uleb128 0x17
 1420 0107 05       		.uleb128 0x5
 1421 0108 00       		.byte	0
 1422 0109 49       		.uleb128 0x49
 1423 010a 13       		.uleb128 0x13
 1424 010b 00       		.byte	0
 1425 010c 00       		.byte	0
ARM GAS  C:\Users\anashi\AppData\Local\Temp\ccMv1n4S.s 			page 26


 1426 010d 18       		.uleb128 0x18
 1427 010e 13       		.uleb128 0x13
 1428 010f 01       		.byte	0x1
 1429 0110 03       		.uleb128 0x3
 1430 0111 0E       		.uleb128 0xe
 1431 0112 0B       		.uleb128 0xb
 1432 0113 05       		.uleb128 0x5
 1433 0114 3A       		.uleb128 0x3a
 1434 0115 0B       		.uleb128 0xb
 1435 0116 3B       		.uleb128 0x3b
 1436 0117 05       		.uleb128 0x5
 1437 0118 01       		.uleb128 0x1
 1438 0119 13       		.uleb128 0x13
 1439 011a 00       		.byte	0
 1440 011b 00       		.byte	0
 1441 011c 19       		.uleb128 0x19
 1442 011d 0D       		.uleb128 0xd
 1443 011e 00       		.byte	0
 1444 011f 03       		.uleb128 0x3
 1445 0120 0E       		.uleb128 0xe
 1446 0121 3A       		.uleb128 0x3a
 1447 0122 0B       		.uleb128 0xb
 1448 0123 3B       		.uleb128 0x3b
 1449 0124 05       		.uleb128 0x5
 1450 0125 49       		.uleb128 0x49
 1451 0126 13       		.uleb128 0x13
 1452 0127 38       		.uleb128 0x38
 1453 0128 0B       		.uleb128 0xb
 1454 0129 00       		.byte	0
 1455 012a 00       		.byte	0
 1456 012b 1A       		.uleb128 0x1a
 1457 012c 0D       		.uleb128 0xd
 1458 012d 00       		.byte	0
 1459 012e 03       		.uleb128 0x3
 1460 012f 0E       		.uleb128 0xe
 1461 0130 3A       		.uleb128 0x3a
 1462 0131 0B       		.uleb128 0xb
 1463 0132 3B       		.uleb128 0x3b
 1464 0133 05       		.uleb128 0x5
 1465 0134 49       		.uleb128 0x49
 1466 0135 13       		.uleb128 0x13
 1467 0136 38       		.uleb128 0x38
 1468 0137 05       		.uleb128 0x5
 1469 0138 00       		.byte	0
 1470 0139 00       		.byte	0
 1471 013a 1B       		.uleb128 0x1b
 1472 013b 13       		.uleb128 0x13
 1473 013c 01       		.byte	0x1
 1474 013d 03       		.uleb128 0x3
 1475 013e 0E       		.uleb128 0xe
 1476 013f 0B       		.uleb128 0xb
 1477 0140 0B       		.uleb128 0xb
 1478 0141 3A       		.uleb128 0x3a
 1479 0142 0B       		.uleb128 0xb
 1480 0143 3B       		.uleb128 0x3b
 1481 0144 05       		.uleb128 0x5
 1482 0145 01       		.uleb128 0x1
ARM GAS  C:\Users\anashi\AppData\Local\Temp\ccMv1n4S.s 			page 27


 1483 0146 13       		.uleb128 0x13
 1484 0147 00       		.byte	0
 1485 0148 00       		.byte	0
 1486 0149 1C       		.uleb128 0x1c
 1487 014a 13       		.uleb128 0x13
 1488 014b 01       		.byte	0x1
 1489 014c 0B       		.uleb128 0xb
 1490 014d 0B       		.uleb128 0xb
 1491 014e 3A       		.uleb128 0x3a
 1492 014f 0B       		.uleb128 0xb
 1493 0150 3B       		.uleb128 0x3b
 1494 0151 05       		.uleb128 0x5
 1495 0152 01       		.uleb128 0x1
 1496 0153 13       		.uleb128 0x13
 1497 0154 00       		.byte	0
 1498 0155 00       		.byte	0
 1499 0156 1D       		.uleb128 0x1d
 1500 0157 17       		.uleb128 0x17
 1501 0158 01       		.byte	0x1
 1502 0159 0B       		.uleb128 0xb
 1503 015a 0B       		.uleb128 0xb
 1504 015b 3A       		.uleb128 0x3a
 1505 015c 0B       		.uleb128 0xb
 1506 015d 3B       		.uleb128 0x3b
 1507 015e 05       		.uleb128 0x5
 1508 015f 01       		.uleb128 0x1
 1509 0160 13       		.uleb128 0x13
 1510 0161 00       		.byte	0
 1511 0162 00       		.byte	0
 1512 0163 1E       		.uleb128 0x1e
 1513 0164 0D       		.uleb128 0xd
 1514 0165 00       		.byte	0
 1515 0166 03       		.uleb128 0x3
 1516 0167 0E       		.uleb128 0xe
 1517 0168 3A       		.uleb128 0x3a
 1518 0169 0B       		.uleb128 0xb
 1519 016a 3B       		.uleb128 0x3b
 1520 016b 05       		.uleb128 0x5
 1521 016c 49       		.uleb128 0x49
 1522 016d 13       		.uleb128 0x13
 1523 016e 00       		.byte	0
 1524 016f 00       		.byte	0
 1525 0170 1F       		.uleb128 0x1f
 1526 0171 15       		.uleb128 0x15
 1527 0172 01       		.byte	0x1
 1528 0173 27       		.uleb128 0x27
 1529 0174 19       		.uleb128 0x19
 1530 0175 01       		.uleb128 0x1
 1531 0176 13       		.uleb128 0x13
 1532 0177 00       		.byte	0
 1533 0178 00       		.byte	0
 1534 0179 20       		.uleb128 0x20
 1535 017a 34       		.uleb128 0x34
 1536 017b 00       		.byte	0
 1537 017c 03       		.uleb128 0x3
 1538 017d 0E       		.uleb128 0xe
 1539 017e 3A       		.uleb128 0x3a
ARM GAS  C:\Users\anashi\AppData\Local\Temp\ccMv1n4S.s 			page 28


 1540 017f 0B       		.uleb128 0xb
 1541 0180 3B       		.uleb128 0x3b
 1542 0181 05       		.uleb128 0x5
 1543 0182 49       		.uleb128 0x49
 1544 0183 13       		.uleb128 0x13
 1545 0184 3F       		.uleb128 0x3f
 1546 0185 19       		.uleb128 0x19
 1547 0186 3C       		.uleb128 0x3c
 1548 0187 19       		.uleb128 0x19
 1549 0188 00       		.byte	0
 1550 0189 00       		.byte	0
 1551 018a 21       		.uleb128 0x21
 1552 018b 15       		.uleb128 0x15
 1553 018c 00       		.byte	0
 1554 018d 27       		.uleb128 0x27
 1555 018e 19       		.uleb128 0x19
 1556 018f 49       		.uleb128 0x49
 1557 0190 13       		.uleb128 0x13
 1558 0191 00       		.byte	0
 1559 0192 00       		.byte	0
 1560 0193 00       		.byte	0
 1561              		.section	.debug_aranges,"",%progbits
 1562 0000 14000000 		.4byte	0x14
 1563 0004 0200     		.2byte	0x2
 1564 0006 00000000 		.4byte	.Ldebug_info0
 1565 000a 04       		.byte	0x4
 1566 000b 00       		.byte	0
 1567 000c 0000     		.2byte	0
 1568 000e 0000     		.2byte	0
 1569 0010 00000000 		.4byte	0
 1570 0014 00000000 		.4byte	0
 1571              		.section	.debug_line,"",%progbits
 1572              	.Ldebug_line0:
 1573 0000 FE030000 		.section	.debug_str,"MS",%progbits,1
 1573      0200F803 
 1573      00000201 
 1573      FB0E0D00 
 1573      01010101 
 1574              	.LASF45:
 1575 0000 5F64736F 		.ascii	"_dso_handle\000"
 1575      5F68616E 
 1575      646C6500 
 1576              	.LASF2:
 1577 000c 73686F72 		.ascii	"short int\000"
 1577      7420696E 
 1577      7400
 1578              	.LASF44:
 1579 0016 5F666E61 		.ascii	"_fnargs\000"
 1579      72677300 
 1580              	.LASF98:
 1581 001e 5F72616E 		.ascii	"_rand48\000"
 1581      64343800 
 1582              	.LASF77:
 1583 0026 5F656D65 		.ascii	"_emergency\000"
 1583      7267656E 
 1583      637900
 1584              	.LASF5:
ARM GAS  C:\Users\anashi\AppData\Local\Temp\ccMv1n4S.s 			page 29


 1585 0031 5F5F7569 		.ascii	"__uint8_t\000"
 1585      6E74385F 
 1585      7400
 1586              	.LASF89:
 1587 003b 5F617465 		.ascii	"_atexit0\000"
 1587      78697430 
 1587      00
 1588              	.LASF118:
 1589 0044 5F776372 		.ascii	"_wcrtomb_state\000"
 1589      746F6D62 
 1589      5F737461 
 1589      746500
 1590              	.LASF119:
 1591 0053 5F776373 		.ascii	"_wcsrtombs_state\000"
 1591      72746F6D 
 1591      62735F73 
 1591      74617465 
 1591      00
 1592              	.LASF9:
 1593 0064 6C6F6E67 		.ascii	"long long unsigned int\000"
 1593      206C6F6E 
 1593      6720756E 
 1593      7369676E 
 1593      65642069 
 1594              	.LASF57:
 1595 007b 5F6C6266 		.ascii	"_lbfsize\000"
 1595      73697A65 
 1595      00
 1596              	.LASF135:
 1597 0084 433A5C72 		.ascii	"C:\\repos\\rs2all\\projects\\rs2all_bme680\000"
 1597      65706F73 
 1597      5C727332 
 1597      616C6C5C 
 1597      70726F6A 
 1598              	.LASF125:
 1599 00ab 5F5F6C6F 		.ascii	"__locale_t\000"
 1599      63616C65 
 1599      5F7400
 1600              	.LASF116:
 1601 00b6 5F6D6272 		.ascii	"_mbrtowc_state\000"
 1601      746F7763 
 1601      5F737461 
 1601      746500
 1602              	.LASF34:
 1603 00c5 5F5F746D 		.ascii	"__tm_sec\000"
 1603      5F736563 
 1603      00
 1604              	.LASF18:
 1605 00ce 5F6F6666 		.ascii	"_off_t\000"
 1605      5F7400
 1606              	.LASF62:
 1607 00d5 5F636C6F 		.ascii	"_close\000"
 1607      736500
 1608              	.LASF0:
 1609 00dc 7369676E 		.ascii	"signed char\000"
 1609      65642063 
 1609      68617200 
ARM GAS  C:\Users\anashi\AppData\Local\Temp\ccMv1n4S.s 			page 30


 1610              	.LASF63:
 1611 00e8 5F756275 		.ascii	"_ubuf\000"
 1611      6600
 1612              	.LASF52:
 1613 00ee 5F626173 		.ascii	"_base\000"
 1613      6500
 1614              	.LASF36:
 1615 00f4 5F5F746D 		.ascii	"__tm_hour\000"
 1615      5F686F75 
 1615      7200
 1616              	.LASF92:
 1617 00fe 5F5F7366 		.ascii	"__sf\000"
 1617      00
 1618              	.LASF43:
 1619 0103 5F6F6E5F 		.ascii	"_on_exit_args\000"
 1619      65786974 
 1619      5F617267 
 1619      7300
 1620              	.LASF58:
 1621 0111 5F636F6F 		.ascii	"_cookie\000"
 1621      6B696500 
 1622              	.LASF91:
 1623 0119 5F5F7367 		.ascii	"__sglue\000"
 1623      6C756500 
 1624              	.LASF4:
 1625 0121 6C6F6E67 		.ascii	"long int\000"
 1625      20696E74 
 1625      00
 1626              	.LASF55:
 1627 012a 5F666C61 		.ascii	"_flags\000"
 1627      677300
 1628              	.LASF47:
 1629 0131 5F69735F 		.ascii	"_is_cxa\000"
 1629      63786100 
 1630              	.LASF73:
 1631 0139 5F737464 		.ascii	"_stdin\000"
 1631      696E00
 1632              	.LASF83:
 1633 0140 5F726573 		.ascii	"_result_k\000"
 1633      756C745F 
 1633      6B00
 1634              	.LASF8:
 1635 014a 6C6F6E67 		.ascii	"long long int\000"
 1635      206C6F6E 
 1635      6720696E 
 1635      7400
 1636              	.LASF133:
 1637 0158 474E5520 		.ascii	"GNU C11 7.3.1 20180622 (release) [ARM/embedded-7-br"
 1637      43313120 
 1637      372E332E 
 1637      31203230 
 1637      31383036 
 1638 018b 616E6368 		.ascii	"anch revision 261907] -mcpu=cortex-m0 -mthumb -mflo"
 1638      20726576 
 1638      6973696F 
 1638      6E203236 
 1638      31393037 
ARM GAS  C:\Users\anashi\AppData\Local\Temp\ccMv1n4S.s 			page 31


 1639 01be 61742D61 		.ascii	"at-abi=soft -ggdb -O3 -std=gnu11 -fstack-usage -fno"
 1639      62693D73 
 1639      6F667420 
 1639      2D676764 
 1639      62202D4F 
 1640 01f1 2D636F6D 		.ascii	"-common -fdata-sections -ffunction-sections\000"
 1640      6D6F6E20 
 1640      2D666461 
 1640      74612D73 
 1640      65637469 
 1641              	.LASF87:
 1642 021d 5F637674 		.ascii	"_cvtbuf\000"
 1642      62756600 
 1643              	.LASF66:
 1644 0225 5F6F6666 		.ascii	"_offset\000"
 1644      73657400 
 1645              	.LASF117:
 1646 022d 5F6D6273 		.ascii	"_mbsrtowcs_state\000"
 1646      72746F77 
 1646      63735F73 
 1646      74617465 
 1646      00
 1647              	.LASF115:
 1648 023e 5F6D6272 		.ascii	"_mbrlen_state\000"
 1648      6C656E5F 
 1648      73746174 
 1648      6500
 1649              	.LASF50:
 1650 024c 5F666E73 		.ascii	"_fns\000"
 1650      00
 1651              	.LASF6:
 1652 0251 5F5F7569 		.ascii	"__uint32_t\000"
 1652      6E743332 
 1652      5F7400
 1653              	.LASF30:
 1654 025c 5F736967 		.ascii	"_sign\000"
 1654      6E00
 1655              	.LASF126:
 1656 0262 5F696D70 		.ascii	"_impure_ptr\000"
 1656      7572655F 
 1656      70747200 
 1657              	.LASF75:
 1658 026e 5F737464 		.ascii	"_stderr\000"
 1658      65727200 
 1659              	.LASF32:
 1660 0276 5F426967 		.ascii	"_Bigint\000"
 1660      696E7400 
 1661              	.LASF15:
 1662 027e 41504250 		.ascii	"APBPrescTable\000"
 1662      72657363 
 1662      5461626C 
 1662      6500
 1663              	.LASF59:
 1664 028c 5F726561 		.ascii	"_read\000"
 1664      6400
 1665              	.LASF33:
 1666 0292 5F5F746D 		.ascii	"__tm\000"
ARM GAS  C:\Users\anashi\AppData\Local\Temp\ccMv1n4S.s 			page 32


 1666      00
 1667              	.LASF22:
 1668 0297 5F5F7763 		.ascii	"__wchb\000"
 1668      686200
 1669              	.LASF13:
 1670 029e 53797374 		.ascii	"SystemCoreClock\000"
 1670      656D436F 
 1670      7265436C 
 1670      6F636B00 
 1671              	.LASF74:
 1672 02ae 5F737464 		.ascii	"_stdout\000"
 1672      6F757400 
 1673              	.LASF86:
 1674 02b6 5F637674 		.ascii	"_cvtlen\000"
 1674      6C656E00 
 1675              	.LASF7:
 1676 02be 6C6F6E67 		.ascii	"long unsigned int\000"
 1676      20756E73 
 1676      69676E65 
 1676      6420696E 
 1676      7400
 1677              	.LASF56:
 1678 02d0 5F66696C 		.ascii	"_file\000"
 1678      6500
 1679              	.LASF67:
 1680 02d6 5F646174 		.ascii	"_data\000"
 1680      6100
 1681              	.LASF96:
 1682 02dc 5F6E696F 		.ascii	"_niobs\000"
 1682      627300
 1683              	.LASF107:
 1684 02e3 5F72616E 		.ascii	"_rand_next\000"
 1684      645F6E65 
 1684      787400
 1685              	.LASF113:
 1686 02ee 5F736967 		.ascii	"_signal_buf\000"
 1686      6E616C5F 
 1686      62756600 
 1687              	.LASF104:
 1688 02fa 5F617363 		.ascii	"_asctime_buf\000"
 1688      74696D65 
 1688      5F627566 
 1688      00
 1689              	.LASF82:
 1690 0307 5F726573 		.ascii	"_result\000"
 1690      756C7400 
 1691              	.LASF21:
 1692 030f 5F5F7763 		.ascii	"__wch\000"
 1692      6800
 1693              	.LASF17:
 1694 0315 5F4C4F43 		.ascii	"_LOCK_T\000"
 1694      4B5F5400 
 1695              	.LASF88:
 1696 031d 5F6E6577 		.ascii	"_new\000"
 1696      00
 1697              	.LASF68:
 1698 0322 5F6C6F63 		.ascii	"_lock\000"
ARM GAS  C:\Users\anashi\AppData\Local\Temp\ccMv1n4S.s 			page 33


 1698      6B00
 1699              	.LASF100:
 1700 0328 5F6D756C 		.ascii	"_mult\000"
 1700      7400
 1701              	.LASF128:
 1702 032e 424F4F4C 		.ascii	"BOOL\000"
 1702      00
 1703              	.LASF60:
 1704 0333 5F777269 		.ascii	"_write\000"
 1704      746500
 1705              	.LASF39:
 1706 033a 5F5F746D 		.ascii	"__tm_year\000"
 1706      5F796561 
 1706      7200
 1707              	.LASF122:
 1708 0344 5F6E6D61 		.ascii	"_nmalloc\000"
 1708      6C6C6F63 
 1708      00
 1709              	.LASF121:
 1710 034d 5F6E6578 		.ascii	"_nextf\000"
 1710      746600
 1711              	.LASF38:
 1712 0354 5F5F746D 		.ascii	"__tm_mon\000"
 1712      5F6D6F6E 
 1712      00
 1713              	.LASF48:
 1714 035d 5F617465 		.ascii	"_atexit\000"
 1714      78697400 
 1715              	.LASF129:
 1716 0365 7375626F 		.ascii	"suboptarg\000"
 1716      70746172 
 1716      6700
 1717              	.LASF80:
 1718 036f 5F5F7364 		.ascii	"__sdidinit\000"
 1718      6964696E 
 1718      697400
 1719              	.LASF106:
 1720 037a 5F67616D 		.ascii	"_gamma_signgam\000"
 1720      6D615F73 
 1720      69676E67 
 1720      616D00
 1721              	.LASF20:
 1722 0389 77696E74 		.ascii	"wint_t\000"
 1722      5F7400
 1723              	.LASF85:
 1724 0390 5F667265 		.ascii	"_freelist\000"
 1724      656C6973 
 1724      7400
 1725              	.LASF130:
 1726 039a 70784D42 		.ascii	"pxMBFrameCBByteReceived\000"
 1726      4672616D 
 1726      65434242 
 1726      79746552 
 1726      65636569 
 1727              	.LASF111:
 1728 03b2 5F776374 		.ascii	"_wctomb_state\000"
 1728      6F6D625F 
ARM GAS  C:\Users\anashi\AppData\Local\Temp\ccMv1n4S.s 			page 34


 1728      73746174 
 1728      6500
 1729              	.LASF1:
 1730 03c0 756E7369 		.ascii	"unsigned char\000"
 1730      676E6564 
 1730      20636861 
 1730      7200
 1731              	.LASF97:
 1732 03ce 5F696F62 		.ascii	"_iobs\000"
 1732      7300
 1733              	.LASF120:
 1734 03d4 5F685F65 		.ascii	"_h_errno\000"
 1734      72726E6F 
 1734      00
 1735              	.LASF26:
 1736 03dd 5F666C6F 		.ascii	"_flock_t\000"
 1736      636B5F74 
 1736      00
 1737              	.LASF41:
 1738 03e6 5F5F746D 		.ascii	"__tm_yday\000"
 1738      5F796461 
 1738      7900
 1739              	.LASF51:
 1740 03f0 5F5F7362 		.ascii	"__sbuf\000"
 1740      756600
 1741              	.LASF70:
 1742 03f7 5F666C61 		.ascii	"_flags2\000"
 1742      67733200 
 1743              	.LASF94:
 1744 03ff 5F5F4649 		.ascii	"__FILE\000"
 1744      4C4500
 1745              	.LASF25:
 1746 0406 5F6D6273 		.ascii	"_mbstate_t\000"
 1746      74617465 
 1746      5F7400
 1747              	.LASF54:
 1748 0411 5F5F7346 		.ascii	"__sFILE\000"
 1748      494C4500 
 1749              	.LASF69:
 1750 0419 5F6D6273 		.ascii	"_mbstate\000"
 1750      74617465 
 1750      00
 1751              	.LASF109:
 1752 0422 5F6D626C 		.ascii	"_mblen_state\000"
 1752      656E5F73 
 1752      74617465 
 1752      00
 1753              	.LASF76:
 1754 042f 5F696E63 		.ascii	"_inc\000"
 1754      00
 1755              	.LASF49:
 1756 0434 5F696E64 		.ascii	"_ind\000"
 1756      00
 1757              	.LASF79:
 1758 0439 5F6C6F63 		.ascii	"_locale\000"
 1758      616C6500 
 1759              	.LASF81:
ARM GAS  C:\Users\anashi\AppData\Local\Temp\ccMv1n4S.s 			page 35


 1760 0441 5F5F636C 		.ascii	"__cleanup\000"
 1760      65616E75 
 1760      7000
 1761              	.LASF78:
 1762 044b 5F756E73 		.ascii	"_unspecified_locale_info\000"
 1762      70656369 
 1762      66696564 
 1762      5F6C6F63 
 1762      616C655F 
 1763              	.LASF29:
 1764 0464 5F6D6178 		.ascii	"_maxwds\000"
 1764      77647300 
 1765              	.LASF71:
 1766 046c 5F726565 		.ascii	"_reent\000"
 1766      6E7400
 1767              	.LASF99:
 1768 0473 5F736565 		.ascii	"_seed\000"
 1768      6400
 1769              	.LASF23:
 1770 0479 5F5F636F 		.ascii	"__count\000"
 1770      756E7400 
 1771              	.LASF124:
 1772 0481 5F5F6C6F 		.ascii	"__lock\000"
 1772      636B00
 1773              	.LASF24:
 1774 0488 5F5F7661 		.ascii	"__value\000"
 1774      6C756500 
 1775              	.LASF61:
 1776 0490 5F736565 		.ascii	"_seek\000"
 1776      6B00
 1777              	.LASF40:
 1778 0496 5F5F746D 		.ascii	"__tm_wday\000"
 1778      5F776461 
 1778      7900
 1779              	.LASF19:
 1780 04a0 5F66706F 		.ascii	"_fpos_t\000"
 1780      735F7400 
 1781              	.LASF131:
 1782 04a8 70784D42 		.ascii	"pxMBFrameCBTransmitterEmpty\000"
 1782      4672616D 
 1782      65434254 
 1782      72616E73 
 1782      6D697474 
 1783              	.LASF16:
 1784 04c4 6C6F6E67 		.ascii	"long double\000"
 1784      20646F75 
 1784      626C6500 
 1785              	.LASF72:
 1786 04d0 5F657272 		.ascii	"_errno\000"
 1786      6E6F00
 1787              	.LASF93:
 1788 04d7 63686172 		.ascii	"char\000"
 1788      00
 1789              	.LASF65:
 1790 04dc 5F626C6B 		.ascii	"_blksize\000"
 1790      73697A65 
 1790      00
ARM GAS  C:\Users\anashi\AppData\Local\Temp\ccMv1n4S.s 			page 36


 1791              	.LASF53:
 1792 04e5 5F73697A 		.ascii	"_size\000"
 1792      6500
 1793              	.LASF10:
 1794 04eb 756E7369 		.ascii	"unsigned int\000"
 1794      676E6564 
 1794      20696E74 
 1794      00
 1795              	.LASF14:
 1796 04f8 41484250 		.ascii	"AHBPrescTable\000"
 1796      72657363 
 1796      5461626C 
 1796      6500
 1797              	.LASF28:
 1798 0506 5F6E6578 		.ascii	"_next\000"
 1798      7400
 1799              	.LASF103:
 1800 050c 5F737472 		.ascii	"_strtok_last\000"
 1800      746F6B5F 
 1800      6C617374 
 1800      00
 1801              	.LASF46:
 1802 0519 5F666E74 		.ascii	"_fntypes\000"
 1802      79706573 
 1802      00
 1803              	.LASF3:
 1804 0522 73686F72 		.ascii	"short unsigned int\000"
 1804      7420756E 
 1804      7369676E 
 1804      65642069 
 1804      6E7400
 1805              	.LASF101:
 1806 0535 5F616464 		.ascii	"_add\000"
 1806      00
 1807              	.LASF27:
 1808 053a 5F5F554C 		.ascii	"__ULong\000"
 1808      6F6E6700 
 1809              	.LASF114:
 1810 0542 5F676574 		.ascii	"_getdate_err\000"
 1810      64617465 
 1810      5F657272 
 1810      00
 1811              	.LASF134:
 1812 054f 433A2F72 		.ascii	"C:/repos/rs2all/components/modbus/drv/functions/mbf"
 1812      65706F73 
 1812      2F727332 
 1812      616C6C2F 
 1812      636F6D70 
 1813 0582 756E636F 		.ascii	"uncother.c\000"
 1813      74686572 
 1813      2E6300
 1814              	.LASF127:
 1815 058d 5F676C6F 		.ascii	"_global_impure_ptr\000"
 1815      62616C5F 
 1815      696D7075 
 1815      72655F70 
 1815      747200
ARM GAS  C:\Users\anashi\AppData\Local\Temp\ccMv1n4S.s 			page 37


 1816              	.LASF12:
 1817 05a0 75696E74 		.ascii	"uint32_t\000"
 1817      33325F74 
 1817      00
 1818              	.LASF102:
 1819 05a9 5F756E75 		.ascii	"_unused_rand\000"
 1819      7365645F 
 1819      72616E64 
 1819      00
 1820              	.LASF31:
 1821 05b6 5F776473 		.ascii	"_wds\000"
 1821      00
 1822              	.LASF95:
 1823 05bb 5F676C75 		.ascii	"_glue\000"
 1823      6500
 1824              	.LASF11:
 1825 05c1 75696E74 		.ascii	"uint8_t\000"
 1825      385F7400 
 1826              	.LASF112:
 1827 05c9 5F6C3634 		.ascii	"_l64a_buf\000"
 1827      615F6275 
 1827      6600
 1828              	.LASF90:
 1829 05d3 5F736967 		.ascii	"_sig_func\000"
 1829      5F66756E 
 1829      6300
 1830              	.LASF64:
 1831 05dd 5F6E6275 		.ascii	"_nbuf\000"
 1831      6600
 1832              	.LASF123:
 1833 05e3 5F756E75 		.ascii	"_unused\000"
 1833      73656400 
 1834              	.LASF132:
 1835 05eb 70784D42 		.ascii	"pxMBPortCBTimerExpired\000"
 1835      506F7274 
 1835      43425469 
 1835      6D657245 
 1835      78706972 
 1836              	.LASF42:
 1837 0602 5F5F746D 		.ascii	"__tm_isdst\000"
 1837      5F697364 
 1837      737400
 1838              	.LASF105:
 1839 060d 5F6C6F63 		.ascii	"_localtime_buf\000"
 1839      616C7469 
 1839      6D655F62 
 1839      756600
 1840              	.LASF35:
 1841 061c 5F5F746D 		.ascii	"__tm_min\000"
 1841      5F6D696E 
 1841      00
 1842              	.LASF108:
 1843 0625 5F723438 		.ascii	"_r48\000"
 1843      00
 1844              	.LASF110:
 1845 062a 5F6D6274 		.ascii	"_mbtowc_state\000"
 1845      6F77635F 
ARM GAS  C:\Users\anashi\AppData\Local\Temp\ccMv1n4S.s 			page 38


 1845      73746174 
 1845      6500
 1846              	.LASF84:
 1847 0638 5F703573 		.ascii	"_p5s\000"
 1847      00
 1848              	.LASF37:
 1849 063d 5F5F746D 		.ascii	"__tm_mday\000"
 1849      5F6D6461 
 1849      7900
 1850              		.ident	"GCC: (GNU Tools for Arm Embedded Processors 7-2018-q2-update) 7.3.1 20180622 (release) [AR
ARM GAS  C:\Users\anashi\AppData\Local\Temp\ccMv1n4S.s 			page 39


DEFINED SYMBOLS
                            *ABS*:00000000 mbfuncother.c

NO UNDEFINED SYMBOLS
