ARM GAS  C:\Users\anashi\AppData\Local\Temp\ccZkjhlz.s 			page 1


   1              		.cpu cortex-m0
   2              		.eabi_attribute 20, 1
   3              		.eabi_attribute 21, 1
   4              		.eabi_attribute 23, 3
   5              		.eabi_attribute 24, 1
   6              		.eabi_attribute 25, 1
   7              		.eabi_attribute 26, 1
   8              		.eabi_attribute 30, 2
   9              		.eabi_attribute 34, 0
  10              		.eabi_attribute 18, 4
  11              		.file	"modbus.c"
  12              		.text
  13              	.Ltext0:
  14              		.cfi_sections	.debug_frame
  15              		.section	.text.modbus_init,"ax",%progbits
  16              		.align	1
  17              		.p2align 2,,3
  18              		.global	modbus_init
  19              		.syntax unified
  20              		.code	16
  21              		.thumb_func
  22              		.fpu softvfp
  23              		.type	modbus_init, %function
  24              	modbus_init:
  25              	.LFB37:
  26              		.file 1 "C:/repos/rs2all/components/modbus/src/modbus.c"
  27              		.loc 1 8 0
  28              		.cfi_startproc
  29              		@ args = 0, pretend = 0, frame = 24
  30              		@ frame_needed = 0, uses_anonymous_args = 0
  31              	.LBB4:
  32              	.LBB5:
  33              		.loc 1 29 0
  34 0000 8023     		movs	r3, #128
  35              		.loc 1 34 0
  36 0002 9020     		movs	r0, #144
  37              	.LBE5:
  38              	.LBE4:
  39              		.loc 1 8 0
  40 0004 F0B5     		push	{r4, r5, r6, r7, lr}
  41              		.cfi_def_cfa_offset 20
  42              		.cfi_offset 4, -20
  43              		.cfi_offset 5, -16
  44              		.cfi_offset 6, -12
  45              		.cfi_offset 7, -8
  46              		.cfi_offset 14, -4
  47              	.LBB8:
  48              	.LBB6:
  49              		.loc 1 27 0
  50 0006 0024     		movs	r4, #0
  51              		.loc 1 30 0
  52 0008 0227     		movs	r7, #2
  53              		.loc 1 32 0
  54 000a 0326     		movs	r6, #3
  55              		.loc 1 33 0
  56 000c 0125     		movs	r5, #1
  57              	.LBE6:
ARM GAS  C:\Users\anashi\AppData\Local\Temp\ccZkjhlz.s 			page 2


  58              	.LBE8:
  59              		.loc 1 8 0
  60 000e 89B0     		sub	sp, sp, #36
  61              		.cfi_def_cfa_offset 56
  62              	.LBB9:
  63              	.LBB7:
  64              		.loc 1 29 0
  65 0010 1B02     		lsls	r3, r3, #8
  66              		.loc 1 34 0
  67 0012 03A9     		add	r1, sp, #12
  68 0014 C005     		lsls	r0, r0, #23
  69              		.loc 1 29 0
  70 0016 0393     		str	r3, [sp, #12]
  71              		.loc 1 27 0
  72 0018 0594     		str	r4, [sp, #20]
  73              		.loc 1 30 0
  74 001a 0497     		str	r7, [sp, #16]
  75              		.loc 1 32 0
  76 001c 0696     		str	r6, [sp, #24]
  77              		.loc 1 33 0
  78 001e 0795     		str	r5, [sp, #28]
  79              		.loc 1 34 0
  80 0020 FFF7FEFF 		bl	HAL_GPIO_Init
  81              	.LVL0:
  82              		.loc 1 36 0
  83 0024 4023     		movs	r3, #64
  84              		.loc 1 41 0
  85 0026 03A9     		add	r1, sp, #12
  86 0028 1148     		ldr	r0, .L5
  87              		.loc 1 36 0
  88 002a 0393     		str	r3, [sp, #12]
  89              		.loc 1 37 0
  90 002c 0497     		str	r7, [sp, #16]
  91              		.loc 1 38 0
  92 002e 0594     		str	r4, [sp, #20]
  93              		.loc 1 39 0
  94 0030 0696     		str	r6, [sp, #24]
  95              		.loc 1 40 0
  96 0032 0794     		str	r4, [sp, #28]
  97              		.loc 1 41 0
  98 0034 FFF7FEFF 		bl	HAL_GPIO_Init
  99              	.LVL1:
 100              		.loc 1 43 0
 101 0038 8023     		movs	r3, #128
 102              		.loc 1 47 0
 103 003a 03A9     		add	r1, sp, #12
 104 003c 0C48     		ldr	r0, .L5
 105              		.loc 1 43 0
 106 003e 0393     		str	r3, [sp, #12]
 107              		.loc 1 44 0
 108 0040 0495     		str	r5, [sp, #16]
 109              		.loc 1 45 0
 110 0042 0594     		str	r4, [sp, #20]
 111              		.loc 1 46 0
 112 0044 0694     		str	r4, [sp, #24]
 113              		.loc 1 47 0
 114 0046 FFF7FEFF 		bl	HAL_GPIO_Init
ARM GAS  C:\Users\anashi\AppData\Local\Temp\ccZkjhlz.s 			page 3


 115              	.LVL2:
 116              	.LBE7:
 117              	.LBE9:
 118              		.loc 1 11 0
 119 004a 0A4B     		ldr	r3, .L5+4
 120 004c 0094     		str	r4, [sp]
 121 004e 0022     		movs	r2, #0
 122 0050 0A21     		movs	r1, #10
 123 0052 0020     		movs	r0, #0
 124 0054 FFF7FEFF 		bl	eMBInit
 125              	.LVL3:
 126 0058 0300     		movs	r3, r0
 127              		.loc 1 12 0
 128 005a 0020     		movs	r0, #0
 129              		.loc 1 11 0
 130 005c 002B     		cmp	r3, #0
 131 005e 04D1     		bne	.L2
 132              		.loc 1 15 0
 133 0060 FFF7FEFF 		bl	eMBEnable
 134              	.LVL4:
 135 0064 4342     		rsbs	r3, r0, #0
 136 0066 5841     		adcs	r0, r0, r3
 137 0068 C0B2     		uxtb	r0, r0
 138              	.L2:
 139              		.loc 1 20 0
 140 006a 09B0     		add	sp, sp, #36
 141              		@ sp needed
 142 006c F0BD     		pop	{r4, r5, r6, r7, pc}
 143              	.L6:
 144 006e C046     		.align	2
 145              	.L5:
 146 0070 00040048 		.word	1207960576
 147 0074 F0230000 		.word	9200
 148              		.cfi_endproc
 149              	.LFE37:
 150              		.size	modbus_init, .-modbus_init
 151              		.section	.text.modbus_poll,"ax",%progbits
 152              		.align	1
 153              		.p2align 2,,3
 154              		.global	modbus_poll
 155              		.syntax unified
 156              		.code	16
 157              		.thumb_func
 158              		.fpu softvfp
 159              		.type	modbus_poll, %function
 160              	modbus_poll:
 161              	.LFB38:
 162              		.loc 1 22 0
 163              		.cfi_startproc
 164              		@ args = 0, pretend = 0, frame = 0
 165              		@ frame_needed = 0, uses_anonymous_args = 0
 166 0000 10B5     		push	{r4, lr}
 167              		.cfi_def_cfa_offset 8
 168              		.cfi_offset 4, -8
 169              		.cfi_offset 14, -4
 170              		.loc 1 23 0
 171 0002 FFF7FEFF 		bl	eMBPoll
ARM GAS  C:\Users\anashi\AppData\Local\Temp\ccZkjhlz.s 			page 4


 172              	.LVL5:
 173              		.loc 1 24 0
 174              		@ sp needed
 175 0006 10BD     		pop	{r4, pc}
 176              		.cfi_endproc
 177              	.LFE38:
 178              		.size	modbus_poll, .-modbus_poll
 179              		.text
 180              	.Letext0:
 181              		.file 2 "c:\\st\\stm32cubeide_1.1.0\\stm32cubeide\\plugins\\com.st.stm32cube.ide.mcu.externaltools
 182              		.file 3 "c:\\st\\stm32cubeide_1.1.0\\stm32cubeide\\plugins\\com.st.stm32cube.ide.mcu.externaltools
 183              		.file 4 "C:/repos/rs2all/board/Drivers/CMSIS/Device/ST/STM32F0xx/Include/system_stm32f0xx.h"
 184              		.file 5 "C:/repos/rs2all/board/Drivers/CMSIS/Device/ST/STM32F0xx/Include/stm32f030x6.h"
 185              		.file 6 "c:\\st\\stm32cubeide_1.1.0\\stm32cubeide\\plugins\\com.st.stm32cube.ide.mcu.externaltools
 186              		.file 7 "c:\\st\\stm32cubeide_1.1.0\\stm32cubeide\\plugins\\com.st.stm32cube.ide.mcu.externaltools
 187              		.file 8 "c:\\st\\stm32cubeide_1.1.0\\stm32cubeide\\plugins\\com.st.stm32cube.ide.mcu.externaltools
 188              		.file 9 "c:\\st\\stm32cubeide_1.1.0\\stm32cubeide\\plugins\\com.st.stm32cube.ide.mcu.externaltools
 189              		.file 10 "C:/repos/rs2all/board/Drivers/STM32F0xx_HAL_Driver/Inc/stm32f0xx_hal_gpio.h"
 190              		.file 11 "C:/repos/rs2all/components/modbus/port/port.h"
 191              		.file 12 "C:/repos/rs2all/components/modbus/drv/include/mbport.h"
 192              		.file 13 "C:/repos/rs2all/components/modbus/drv/include/mb.h"
