ARM GAS  C:\Users\anashi\AppData\Local\Temp\ccVMxgXy.s 			page 1


   1              	# 1 "C:/repos/rs2all/board/Core/Startup/startup_stm32f030k6tx.s"
   1              	/**
   0              	
   0              	
   2              	  ******************************************************************************
   3              	  * @file      startup_stm32f030x6.s
   4              	  * @author    MCD Application Team
   5              	  * @brief     STM32F030x4/STM32F030x6 devices vector table for GCC toolchain.
   6              	  *            This module performs:
   7              	  *                - Set the initial SP
   8              	  *                - Set the initial PC == Reset_Handler,
   9              	  *                - Set the vector table entries with the exceptions ISR address
  10              	  *                - Branches to main in the C library (which eventually
  11              	  *                  calls main()).
  12              	  *            After Reset the Cortex-M0 processor is in Thread mode,
  13              	  *            priority is Privileged, and the Stack is set to Main.
  14              	  ******************************************************************************
  15              	  * 
  16              	  * Redistribution and use in source and binary forms, with or without modification,
  17              	  * are permitted provided that the following conditions are met:
  18              	  *   1. Redistributions of source code must retain the above copyright notice,
  19              	  *      this list of conditions and the following disclaimer.
  20              	  *   2. Redistributions in binary form must reproduce the above copyright notice,
  21              	  *      this list of conditions and the following disclaimer in the documentation
  22              	  *      and/or other materials provided with the distribution.
  23              	  *   3. Neither the name of STMicroelectronics nor the names of its contributors
  24              	  *      may be used to endorse or promote products derived from this software
  25              	  *      without specific prior written permission.
  26              	  *
  27              	  * THIS SOFTWARE IS PROVIDED BY THE COPYRIGHT HOLDERS AND CONTRIBUTORS "AS IS"
  28              	  * AND ANY EXPRESS OR IMPLIED WARRANTIES, INCLUDING, BUT NOT LIMITED TO, THE
  29              	  * IMPLIED WARRANTIES OF MERCHANTABILITY AND FITNESS FOR A PARTICULAR PURPOSE ARE
  30              	  * DISCLAIMED. IN NO EVENT SHALL THE COPYRIGHT HOLDER OR CONTRIBUTORS BE LIABLE
  31              	  * FOR ANY DIRECT, INDIRECT, INCIDENTAL, SPECIAL, EXEMPLARY, OR CONSEQUENTIAL
  32              	  * DAMAGES (INCLUDING, BUT NOT LIMITED TO, PROCUREMENT OF SUBSTITUTE GOODS OR
  33              	  * SERVICES; LOSS OF USE, DATA, OR PROFITS; OR BUSINESS INTERRUPTION) HOWEVER
  34              	  * CAUSED AND ON ANY THEORY OF LIABILITY, WHETHER IN CONTRACT, STRICT LIABILITY,
  35              	  * OR TORT (INCLUDING NEGLIGENCE OR OTHERWISE) ARISING IN ANY WAY OUT OF THE USE
  36              	  * OF THIS SOFTWARE, EVEN IF ADVISED OF THE POSSIBILITY OF SUCH DAMAGE.
  37              	  *
  38              	  ******************************************************************************
  39              	  */
  40              	
  41              	  .syntax unified
  42              	  .cpu cortex-m0
  43              	  .fpu softvfp
  44              	  .thumb
  45              	
  46              	.global g_pfnVectors
  47              	.global Default_Handler
  48              	
  49              	/* start address for the initialization values of the .data section.
  50              	defined in linker script */
  51 0000 00000000 	.word _sidata
  52              	/* start address for the .data section. defined in linker script */
  53 0004 00000000 	.word _sdata
  54              	/* end address for the .data section. defined in linker script */
ARM GAS  C:\Users\anashi\AppData\Local\Temp\ccVMxgXy.s 			page 2


  55 0008 00000000 	.word _edata
  56              	/* start address for the .bss section. defined in linker script */
  57 000c 00000000 	.word _sbss
  58              	/* end address for the .bss section. defined in linker script */
  59 0010 00000000 	.word _ebss
  60              	
  61              	  .section .text.Reset_Handler
  62              	  .weak Reset_Handler
  63              	  .type Reset_Handler, %function
  64              	Reset_Handler:
  65 0000 0D48     	  ldr   r0, =_estack
  66 0002 8546     	  mov   sp, r0          /* set stack pointer */
  67              	
  68              	/* Copy the data segment initializers from flash to SRAM */
  69 0004 0D48     	  ldr r0, =_sdata
  70 0006 0E49     	  ldr r1, =_edata
  71 0008 0E4A     	  ldr r2, =_sidata
  72 000a 0023     	  movs r3, #0
  73 000c 02E0     	  b LoopCopyDataInit
  74              	
  75              	CopyDataInit:
  76 000e D458     	  ldr r4, [r2, r3]
  77 0010 C450     	  str r4, [r0, r3]
  78 0012 0433     	  adds r3, r3, #4
  79              	
  80              	LoopCopyDataInit:
  81 0014 C418     	  adds r4, r0, r3
  82 0016 8C42     	  cmp r4, r1
  83 0018 F9D3     	  bcc CopyDataInit
  84              	  
  85              	/* Zero fill the bss segment. */
  86 001a 0B4A     	  ldr r2, =_sbss
  87 001c 0B4C     	  ldr r4, =_ebss
  88 001e 0023     	  movs r3, #0
  89 0020 01E0     	  b LoopFillZerobss
  90              	
  91              	FillZerobss:
  92 0022 1360     	  str  r3, [r2]
  93 0024 0432     	  adds r2, r2, #4
  94              	
  95              	LoopFillZerobss:
  96 0026 A242     	  cmp r2, r4
  97 0028 FBD3     	  bcc FillZerobss
  98              	
  99              	/* Call the clock system intitialization function.*/
 100 002a FFF7FEFF 	  bl  SystemInit
 101              	/* Call static constructors */
 102 002e FFF7FEFF 	  bl __libc_init_array
 103              	/* Call the application's entry point.*/
 104 0032 FFF7FEFF 	  bl main
 105              	
 106              	LoopForever:
 107 0036 FEE7     	    b LoopForever
 108              	
 109              	
 110              	.size Reset_Handler, .-Reset_Handler
 111              	
ARM GAS  C:\Users\anashi\AppData\Local\Temp\ccVMxgXy.s 			page 3


 112              	/**
 113              	 * @brief  This is the code that gets called when the processor receives an
 114              	 *         unexpected interrupt.  This simply enters an infinite loop, preserving
 115              	 *         the system state for examination by a debugger.
 116              	 *
 117              	 * @param  None
 118              	 * @retval : None
 119              	*/
 120              	    .section .text.Default_Handler,"ax",%progbits
 121              	Default_Handler:
 122              	Infinite_Loop:
 123 0000 FEE7     	  b Infinite_Loop
 124              	  .size Default_Handler, .-Default_Handler
 125              	/******************************************************************************
 126              	*
 127              	* The minimal vector table for a Cortex M0.  Note that the proper constructs
 128              	* must be placed on this to ensure that it ends up at physical address
 129              	* 0x0000.0000.
 130              	*
 131              	******************************************************************************/
 132              	   .section .isr_vector,"a",%progbits
 133              	  .type g_pfnVectors, %object
 134              	  .size g_pfnVectors, .-g_pfnVectors
 135              	
 136              	
 137              	g_pfnVectors:
 138 0000 00000000 	  .word  _estack
 139 0004 00000000 	  .word  Reset_Handler
 140 0008 00000000 	  .word  NMI_Handler
 141 000c 00000000 	  .word  HardFault_Handler
 142 0010 00000000 	  .word  0
 143 0014 00000000 	  .word  0
 144 0018 00000000 	  .word  0
 145 001c 00000000 	  .word  0
 146 0020 00000000 	  .word  0
 147 0024 00000000 	  .word  0
 148 0028 00000000 	  .word  0
 149 002c 00000000 	  .word  SVC_Handler
 150 0030 00000000 	  .word  0
 151 0034 00000000 	  .word  0
 152 0038 00000000 	  .word  PendSV_Handler
 153 003c 00000000 	  .word  SysTick_Handler
 154 0040 00000000 	  .word  WWDG_IRQHandler                   /* Window WatchDog              */
 155 0044 00000000 	  .word  0                                 /* Reserved                     */
 156 0048 00000000 	  .word  RTC_IRQHandler                    /* RTC through the EXTI line    */
 157 004c 00000000 	  .word  FLASH_IRQHandler                  /* FLASH                        */
 158 0050 00000000 	  .word  RCC_IRQHandler                    /* RCC                          */
 159 0054 00000000 	  .word  EXTI0_1_IRQHandler                /* EXTI Line 0 and 1            */
 160 0058 00000000 	  .word  EXTI2_3_IRQHandler                /* EXTI Line 2 and 3            */
 161 005c 00000000 	  .word  EXTI4_15_IRQHandler               /* EXTI Line 4 to 15            */
 162 0060 00000000 	  .word  0                                 /* Reserved                     */
 163 0064 00000000 	  .word  DMA1_Channel1_IRQHandler          /* DMA1 Channel 1               */
 164 0068 00000000 	  .word  DMA1_Channel2_3_IRQHandler        /* DMA1 Channel 2 and Channel 3 */
 165 006c 00000000 	  .word  DMA1_Channel4_5_IRQHandler        /* DMA1 Channel 4 and Channel 5 */
 166 0070 00000000 	  .word  ADC1_IRQHandler                   /* ADC1                         */
 167 0074 00000000 	  .word  TIM1_BRK_UP_TRG_COM_IRQHandler    /* TIM1 Break, Update, Trigger and Commutation */
 168 0078 00000000 	  .word  TIM1_CC_IRQHandler                /* TIM1 Capture Compare         */
ARM GAS  C:\Users\anashi\AppData\Local\Temp\ccVMxgXy.s 			page 4


 169 007c 00000000 	  .word  0                                 /* Reserved                     */
 170 0080 00000000 	  .word  TIM3_IRQHandler                   /* TIM3                         */
 171 0084 00000000 	  .word  0                                 /* Reserved                     */
 172 0088 00000000 	  .word  0                                 /* Reserved                     */
 173 008c 00000000 	  .word  TIM14_IRQHandler                  /* TIM14                        */
 174 0090 00000000 	  .word  0                                 /* Reserved                     */
 175 0094 00000000 	  .word  TIM16_IRQHandler                  /* TIM16                        */
 176 0098 00000000 	  .word  TIM17_IRQHandler                  /* TIM17                        */
 177 009c 00000000 	  .word  I2C1_IRQHandler                   /* I2C1                         */
 178 00a0 00000000 	  .word  0                                 /* Reserved                     */
 179 00a4 00000000 	  .word  SPI1_IRQHandler                   /* SPI1                         */
 180 00a8 00000000 	  .word  0                                 /* Reserved                     */
 181 00ac 00000000 	  .word  USART1_IRQHandler                 /* USART1                       */
 182 00b0 00000000 	  .word  0                                 /* Reserved                     */
 183 00b4 00000000 	  .word  0                                 /* Reserved                     */
 184 00b8 00000000 	  .word  0                                 /* Reserved                     */
 185 00bc 00000000 	  .word  0                                 /* Reserved                     */
 186              	
 187              	/*******************************************************************************
 188              	*
 189              	* Provide weak aliases for each Exception handler to the Default_Handler.
 190              	* As they are weak aliases, any function with the same name will override
 191              	* this definition.
 192              	*
 193              	*******************************************************************************/
 194              	
 195              	  .weak      NMI_Handler
 196              	  .thumb_set NMI_Handler,Default_Handler
 197              	
 198              	  .weak      HardFault_Handler
 199              	  .thumb_set HardFault_Handler,Default_Handler
 200              	
 201              	  .weak      SVC_Handler
 202              	  .thumb_set SVC_Handler,Default_Handler
 203              	
 204              	  .weak      PendSV_Handler
 205              	  .thumb_set PendSV_Handler,Default_Handler
 206              	
 207              	  .weak      SysTick_Handler
 208              	  .thumb_set SysTick_Handler,Default_Handler
 209              	
 210              	  .weak      WWDG_IRQHandler
 211              	  .thumb_set WWDG_IRQHandler,Default_Handler
 212              	
 213              	  .weak      RTC_IRQHandler
 214              	  .thumb_set RTC_IRQHandler,Default_Handler
 215              	
 216              	  .weak      FLASH_IRQHandler
 217              	  .thumb_set FLASH_IRQHandler,Default_Handler
 218              	
 219              	  .weak      RCC_IRQHandler
 220              	  .thumb_set RCC_IRQHandler,Default_Handler
 221              	
 222              	  .weak      EXTI0_1_IRQHandler
 223              	  .thumb_set EXTI0_1_IRQHandler,Default_Handler
 224              	
 225              	  .weak      EXTI2_3_IRQHandler
ARM GAS  C:\Users\anashi\AppData\Local\Temp\ccVMxgXy.s 			page 5


 226              	  .thumb_set EXTI2_3_IRQHandler,Default_Handler
 227              	
 228              	  .weak      EXTI4_15_IRQHandler
 229              	  .thumb_set EXTI4_15_IRQHandler,Default_Handler
 230              	
 231              	  .weak      DMA1_Channel1_IRQHandler
 232              	  .thumb_set DMA1_Channel1_IRQHandler,Default_Handler
 233              	
 234              	  .weak      DMA1_Channel2_3_IRQHandler
 235              	  .thumb_set DMA1_Channel2_3_IRQHandler,Default_Handler
 236              	
 237              	  .weak      DMA1_Channel4_5_IRQHandler
 238              	  .thumb_set DMA1_Channel4_5_IRQHandler,Default_Handler
 239              	
 240              	  .weak      ADC1_IRQHandler
 241              	  .thumb_set ADC1_IRQHandler,Default_Handler
 242              	
 243              	  .weak      TIM1_BRK_UP_TRG_COM_IRQHandler
 244              	  .thumb_set TIM1_BRK_UP_TRG_COM_IRQHandler,Default_Handler
 245              	
 246              	  .weak      TIM1_CC_IRQHandler
 247              	  .thumb_set TIM1_CC_IRQHandler,Default_Handler
 248              	
 249              	  .weak      TIM3_IRQHandler
 250              	  .thumb_set TIM3_IRQHandler,Default_Handler
 251              	
 252              	  .weak      TIM14_IRQHandler
 253              	  .thumb_set TIM14_IRQHandler,Default_Handler
 254              	
 255              	  .weak      TIM16_IRQHandler
 256              	  .thumb_set TIM16_IRQHandler,Default_Handler
 257              	
 258              	  .weak      TIM17_IRQHandler
 259              	  .thumb_set TIM17_IRQHandler,Default_Handler
 260              	
 261              	  .weak      I2C1_IRQHandler
 262              	  .thumb_set I2C1_IRQHandler,Default_Handler
 263              	
 264              	  .weak      SPI1_IRQHandler
 265              	  .thumb_set SPI1_IRQHandler,Default_Handler
 266              	
 267              	  .weak      USART1_IRQHandler
 268              	  .thumb_set USART1_IRQHandler,Default_Handler
ARM GAS  C:\Users\anashi\AppData\Local\Temp\ccVMxgXy.s 			page 6


DEFINED SYMBOLS
C:/repos/rs2all/board/Core/Startup/startup_stm32f030k6tx.s:137    .isr_vector:00000000 g_pfnVectors
C:/repos/rs2all/board/Core/Startup/startup_stm32f030k6tx.s:121    .text.Default_Handler:00000000 Default_Handler
C:/repos/rs2all/board/Core/Startup/startup_stm32f030k6tx.s:64     .text.Reset_Handler:00000000 Reset_Handler
C:/repos/rs2all/board/Core/Startup/startup_stm32f030k6tx.s:65     .text.Reset_Handler:00000000 $t
C:/repos/rs2all/board/Core/Startup/startup_stm32f030k6tx.s:80     .text.Reset_Handler:00000014 LoopCopyDataInit
C:/repos/rs2all/board/Core/Startup/startup_stm32f030k6tx.s:75     .text.Reset_Handler:0000000e CopyDataInit
C:/repos/rs2all/board/Core/Startup/startup_stm32f030k6tx.s:95     .text.Reset_Handler:00000026 LoopFillZerobss
C:/repos/rs2all/board/Core/Startup/startup_stm32f030k6tx.s:91     .text.Reset_Handler:00000022 FillZerobss
C:/repos/rs2all/board/Core/Startup/startup_stm32f030k6tx.s:106    .text.Reset_Handler:00000036 LoopForever
C:/repos/rs2all/board/Core/Startup/startup_stm32f030k6tx.s:122    .text.Default_Handler:00000000 Infinite_Loop
C:/repos/rs2all/board/Core/Startup/startup_stm32f030k6tx.s:123    .text.Default_Handler:00000000 $t
C:/repos/rs2all/board/Core/Startup/startup_stm32f030k6tx.s:121    .text.Default_Handler:00000000 NMI_Handler
C:/repos/rs2all/board/Core/Startup/startup_stm32f030k6tx.s:121    .text.Default_Handler:00000000 HardFault_Handler
C:/repos/rs2all/board/Core/Startup/startup_stm32f030k6tx.s:121    .text.Default_Handler:00000000 SVC_Handler
C:/repos/rs2all/board/Core/Startup/startup_stm32f030k6tx.s:121    .text.Default_Handler:00000000 PendSV_Handler
C:/repos/rs2all/board/Core/Startup/startup_stm32f030k6tx.s:121    .text.Default_Handler:00000000 SysTick_Handler
C:/repos/rs2all/board/Core/Startup/startup_stm32f030k6tx.s:121    .text.Default_Handler:00000000 WWDG_IRQHandler
C:/repos/rs2all/board/Core/Startup/startup_stm32f030k6tx.s:121    .text.Default_Handler:00000000 RTC_IRQHandler
C:/repos/rs2all/board/Core/Startup/startup_stm32f030k6tx.s:121    .text.Default_Handler:00000000 FLASH_IRQHandler
C:/repos/rs2all/board/Core/Startup/startup_stm32f030k6tx.s:121    .text.Default_Handler:00000000 RCC_IRQHandler
C:/repos/rs2all/board/Core/Startup/startup_stm32f030k6tx.s:121    .text.Default_Handler:00000000 EXTI0_1_IRQHandler
C:/repos/rs2all/board/Core/Startup/startup_stm32f030k6tx.s:121    .text.Default_Handler:00000000 EXTI2_3_IRQHandler
C:/repos/rs2all/board/Core/Startup/startup_stm32f030k6tx.s:121    .text.Default_Handler:00000000 EXTI4_15_IRQHandler
C:/repos/rs2all/board/Core/Startup/startup_stm32f030k6tx.s:121    .text.Default_Handler:00000000 DMA1_Channel1_IRQHandler
C:/repos/rs2all/board/Core/Startup/startup_stm32f030k6tx.s:121    .text.Default_Handler:00000000 DMA1_Channel2_3_IRQHandler
C:/repos/rs2all/board/Core/Startup/startup_stm32f030k6tx.s:121    .text.Default_Handler:00000000 DMA1_Channel4_5_IRQHandler
C:/repos/rs2all/board/Core/Startup/startup_stm32f030k6tx.s:121    .text.Default_Handler:00000000 ADC1_IRQHandler
C:/repos/rs2all/board/Core/Startup/startup_stm32f030k6tx.s:121    .text.Default_Handler:00000000 TIM1_BRK_UP_TRG_COM_IRQHandler
C:/repos/rs2all/board/Core/Startup/startup_stm32f030k6tx.s:121    .text.Default_Handler:00000000 TIM1_CC_IRQHandler
C:/repos/rs2all/board/Core/Startup/startup_stm32f030k6tx.s:121    .text.Default_Handler:00000000 TIM3_IRQHandler
C:/repos/rs2all/board/Core/Startup/startup_stm32f030k6tx.s:121    .text.Default_Handler:00000000 TIM14_IRQHandler
C:/repos/rs2all/board/Core/Startup/startup_stm32f030k6tx.s:121    .text.Default_Handler:00000000 TIM16_IRQHandler
C:/repos/rs2all/board/Core/Startup/startup_stm32f030k6tx.s:121    .text.Default_Handler:00000000 TIM17_IRQHandler
C:/repos/rs2all/board/Core/Startup/startup_stm32f030k6tx.s:121    .text.Default_Handler:00000000 I2C1_IRQHandler
C:/repos/rs2all/board/Core/Startup/startup_stm32f030k6tx.s:121    .text.Default_Handler:00000000 SPI1_IRQHandler
C:/repos/rs2all/board/Core/Startup/startup_stm32f030k6tx.s:121    .text.Default_Handler:00000000 USART1_IRQHandler
C:/repos/rs2all/board/Core/Startup/startup_stm32f030k6tx.s:268    .text.Reset_Handler:00000038 $d
                            .text:00000000 $d

UNDEFINED SYMBOLS
_sidata
_sdata
_edata
_sbss
_ebss
_estack
SystemInit
__libc_init_array
main
