ARM GAS  C:\Users\anashi\AppData\Local\Temp\ccnNCtvk.s 			page 1


   1              		.cpu cortex-m0
   2              		.eabi_attribute 20, 1
   3              		.eabi_attribute 21, 1
   4              		.eabi_attribute 23, 3
   5              		.eabi_attribute 24, 1
   6              		.eabi_attribute 25, 1
   7              		.eabi_attribute 26, 1
   8              		.eabi_attribute 30, 2
   9              		.eabi_attribute 34, 0
  10              		.eabi_attribute 18, 4
  11              		.file	"stm32f0xx_hal_adc.c"
  12              		.text
  13              	.Ltext0:
  14              		.cfi_sections	.debug_frame
  15              		.section	.text.HAL_ADC_MspInit,"ax",%progbits
  16              		.align	1
  17              		.p2align 2,,3
  18              		.weak	HAL_ADC_MspInit
  19              		.syntax unified
  20              		.code	16
  21              		.thumb_func
  22              		.fpu softvfp
  23              		.type	HAL_ADC_MspInit, %function
  24              	HAL_ADC_MspInit:
  25              	.LFB39:
  26              		.file 1 "C:/repos/rs2all/board/Drivers/STM32F0xx_HAL_Driver/Src/stm32f0xx_hal_adc.c"
  27              		.loc 1 702 0
  28              		.cfi_startproc
  29              		@ args = 0, pretend = 0, frame = 0
  30              		@ frame_needed = 0, uses_anonymous_args = 0
  31              		@ link register save eliminated.
  32              	.LVL0:
  33              		.loc 1 709 0
  34              		@ sp needed
  35 0000 7047     		bx	lr
  36              		.cfi_endproc
  37              	.LFE39:
  38              		.size	HAL_ADC_MspInit, .-HAL_ADC_MspInit
  39 0002 C046     		.section	.text.HAL_ADC_Init,"ax",%progbits
  40              		.align	1
  41              		.p2align 2,,3
  42              		.global	HAL_ADC_Init
  43              		.syntax unified
  44              		.code	16
  45              		.thumb_func
  46              		.fpu softvfp
  47              		.type	HAL_ADC_Init, %function
  48              	HAL_ADC_Init:
  49              	.LFB37:
  50              		.loc 1 360 0
  51              		.cfi_startproc
  52              		@ args = 0, pretend = 0, frame = 0
  53              		@ frame_needed = 0, uses_anonymous_args = 0
  54              	.LVL1:
  55 0000 F8B5     		push	{r3, r4, r5, r6, r7, lr}
  56              		.cfi_def_cfa_offset 24
  57              		.cfi_offset 3, -24
ARM GAS  C:\Users\anashi\AppData\Local\Temp\ccnNCtvk.s 			page 2


  58              		.cfi_offset 4, -20
  59              		.cfi_offset 5, -16
  60              		.cfi_offset 6, -12
  61              		.cfi_offset 7, -8
  62              		.cfi_offset 14, -4
  63              		.loc 1 360 0
  64 0002 041E     		subs	r4, r0, #0
  65              		.loc 1 365 0
  66 0004 00D1     		bne	.LCB28
  67 0006 75E0     		b	.L17	@long jump
  68              	.LCB28:
  69              		.loc 1 394 0
  70 0008 436C     		ldr	r3, [r0, #68]
  71 000a 002B     		cmp	r3, #0
  72 000c 68D0     		beq	.L20
  73              		.loc 1 411 0
  74 000e 636C     		ldr	r3, [r4, #68]
  75 0010 DB06     		lsls	r3, r3, #27
  76 0012 05D5     		bpl	.L21
  77              	.LVL2:
  78              	.L6:
  79              		.loc 1 563 0
  80 0014 1022     		movs	r2, #16
  81              		.loc 1 565 0
  82 0016 0120     		movs	r0, #1
  83              		.loc 1 563 0
  84 0018 636C     		ldr	r3, [r4, #68]
  85 001a 1343     		orrs	r3, r2
  86 001c 6364     		str	r3, [r4, #68]
  87              	.LVL3:
  88              	.L4:
  89              		.loc 1 570 0
  90              		@ sp needed
  91              	.LVL4:
  92 001e F8BD     		pop	{r3, r4, r5, r6, r7, pc}
  93              	.LVL5:
  94              	.L21:
  95              		.loc 1 413 0
  96 0020 0420     		movs	r0, #4
  97 0022 2368     		ldr	r3, [r4]
  98 0024 9A68     		ldr	r2, [r3, #8]
  99 0026 1040     		ands	r0, r2
 100              		.loc 1 412 0
 101 0028 F4D1     		bne	.L6
 102              		.loc 1 416 0
 103 002a 626C     		ldr	r2, [r4, #68]
 104 002c 4649     		ldr	r1, .L25
 105 002e 0A40     		ands	r2, r1
 106 0030 0631     		adds	r1, r1, #6
 107 0032 FF31     		adds	r1, r1, #255
 108 0034 0A43     		orrs	r2, r1
 109 0036 6264     		str	r2, [r4, #68]
 110              		.loc 1 425 0
 111 0038 0322     		movs	r2, #3
 112 003a 9968     		ldr	r1, [r3, #8]
 113 003c 0A40     		ands	r2, r1
 114 003e 012A     		cmp	r2, #1
ARM GAS  C:\Users\anashi\AppData\Local\Temp\ccnNCtvk.s 			page 3


 115 0040 73D0     		beq	.L22
 116              	.L7:
 117              		.loc 1 436 0
 118 0042 1821     		movs	r1, #24
 119 0044 DA68     		ldr	r2, [r3, #12]
 120 0046 8A43     		bics	r2, r1
 121 0048 A168     		ldr	r1, [r4, #8]
 122 004a 0A43     		orrs	r2, r1
 123 004c DA60     		str	r2, [r3, #12]
 124              		.loc 1 442 0
 125 004e 1A69     		ldr	r2, [r3, #16]
 126 0050 6168     		ldr	r1, [r4, #4]
 127 0052 9200     		lsls	r2, r2, #2
 128 0054 9208     		lsrs	r2, r2, #2
 129 0056 0A43     		orrs	r2, r1
 130 0058 1A61     		str	r2, [r3, #16]
 131              	.L8:
 132              		.loc 1 459 0
 133 005a DA68     		ldr	r2, [r3, #12]
 134 005c 3B49     		ldr	r1, .L25+4
 135              		.loc 1 472 0
 136 005e 266A     		ldr	r6, [r4, #32]
 137              		.loc 1 459 0
 138 0060 0A40     		ands	r2, r1
 139 0062 DA60     		str	r2, [r3, #12]
 140              		.loc 1 470 0
 141 0064 A269     		ldr	r2, [r4, #24]
 142              		.loc 1 472 0
 143 0066 7703     		lsls	r7, r6, #13
 144              		.loc 1 470 0
 145 0068 9103     		lsls	r1, r2, #14
 146              		.loc 1 471 0
 147 006a E269     		ldr	r2, [r4, #28]
 148 006c D203     		lsls	r2, r2, #15
 149              		.loc 1 470 0
 150 006e 1143     		orrs	r1, r2
 151              		.loc 1 473 0
 152 0070 626B     		ldr	r2, [r4, #52]
 153 0072 013A     		subs	r2, r2, #1
 154 0074 551E     		subs	r5, r2, #1
 155 0076 AA41     		sbcs	r2, r2, r5
 156 0078 1503     		lsls	r5, r2, #12
 157 007a E268     		ldr	r2, [r4, #12]
 158 007c 1143     		orrs	r1, r2
 159              		.loc 1 475 0
 160 007e 2269     		ldr	r2, [r4, #16]
 161 0080 3943     		orrs	r1, r7
 162 0082 022A     		cmp	r2, #2
 163 0084 00D1     		bne	.L10
 164 0086 0420     		movs	r0, #4
 165              	.L10:
 166              		.loc 1 476 0
 167 0088 226B     		ldr	r2, [r4, #48]
 168 008a 5200     		lsls	r2, r2, #1
 169              		.loc 1 475 0
 170 008c 0A43     		orrs	r2, r1
 171              		.loc 1 479 0
ARM GAS  C:\Users\anashi\AppData\Local\Temp\ccnNCtvk.s 			page 4


 172 008e 616A     		ldr	r1, [r4, #36]
 173              		.loc 1 475 0
 174 0090 2A43     		orrs	r2, r5
 175 0092 0243     		orrs	r2, r0
 176              	.LVL6:
 177              		.loc 1 479 0
 178 0094 0129     		cmp	r1, #1
 179 0096 42D0     		beq	.L23
 180              	.L11:
 181              		.loc 1 505 0
 182 0098 C220     		movs	r0, #194
 183 009a A16A     		ldr	r1, [r4, #40]
 184 009c FF30     		adds	r0, r0, #255
 185 009e 8142     		cmp	r1, r0
 186 00a0 02D0     		beq	.L13
 187              		.loc 1 507 0
 188 00a2 E06A     		ldr	r0, [r4, #44]
 189 00a4 0143     		orrs	r1, r0
 190 00a6 0A43     		orrs	r2, r1
 191              	.LVL7:
 192              	.L13:
 193              		.loc 1 512 0
 194 00a8 D968     		ldr	r1, [r3, #12]
 195              		.loc 1 520 0
 196 00aa A56B     		ldr	r5, [r4, #56]
 197              		.loc 1 512 0
 198 00ac 1143     		orrs	r1, r2
 199 00ae D960     		str	r1, [r3, #12]
 200              		.loc 1 520 0
 201 00b0 8021     		movs	r1, #128
 202 00b2 4905     		lsls	r1, r1, #21
 203 00b4 8D42     		cmp	r5, r1
 204 00b6 1FD0     		beq	.L14
 205              		.loc 1 520 0 is_stmt 0 discriminator 1
 206 00b8 691E     		subs	r1, r5, #1
 207 00ba 0629     		cmp	r1, #6
 208 00bc 1CD9     		bls	.L14
 209              	.L15:
 210              		.loc 1 535 0 is_stmt 1
 211 00be DB68     		ldr	r3, [r3, #12]
 212 00c0 2349     		ldr	r1, .L25+8
 213 00c2 0B40     		ands	r3, r1
 214 00c4 9342     		cmp	r3, r2
 215 00c6 20D0     		beq	.L24
 216              		.loc 1 549 0
 217 00c8 1222     		movs	r2, #18
 218              	.LVL8:
 219 00ca 636C     		ldr	r3, [r4, #68]
 220              		.loc 1 556 0
 221 00cc 0120     		movs	r0, #1
 222              		.loc 1 549 0
 223 00ce 9343     		bics	r3, r2
 224 00d0 023A     		subs	r2, r2, #2
 225 00d2 1343     		orrs	r3, r2
 226 00d4 6364     		str	r3, [r4, #68]
 227              		.loc 1 554 0
 228 00d6 A36C     		ldr	r3, [r4, #72]
ARM GAS  C:\Users\anashi\AppData\Local\Temp\ccnNCtvk.s 			page 5


 229 00d8 0F3A     		subs	r2, r2, #15
 230 00da 1343     		orrs	r3, r2
 231 00dc A364     		str	r3, [r4, #72]
 232              	.LVL9:
 233 00de 9EE7     		b	.L4
 234              	.LVL10:
 235              	.L20:
 236              		.loc 1 400 0
 237 00e0 4022     		movs	r2, #64
 238              		.loc 1 397 0
 239 00e2 8364     		str	r3, [r0, #72]
 240              		.loc 1 400 0
 241 00e4 8354     		strb	r3, [r0, r2]
 242              		.loc 1 403 0
 243 00e6 FFF7FEFF 		bl	HAL_ADC_MspInit
 244              	.LVL11:
 245              		.loc 1 411 0
 246 00ea 636C     		ldr	r3, [r4, #68]
 247 00ec DB06     		lsls	r3, r3, #27
 248 00ee 00D5     		bpl	.LCB205
 249 00f0 90E7     		b	.L6	@long jump
 250              	.LCB205:
 251 00f2 95E7     		b	.L21
 252              	.LVL12:
 253              	.L17:
 254              		.loc 1 367 0
 255 00f4 0120     		movs	r0, #1
 256              	.LVL13:
 257 00f6 92E7     		b	.L4
 258              	.LVL14:
 259              	.L14:
 260              		.loc 1 524 0
 261 00f8 0721     		movs	r1, #7
 262 00fa 5869     		ldr	r0, [r3, #20]
 263 00fc 8843     		bics	r0, r1
 264 00fe 5861     		str	r0, [r3, #20]
 265              		.loc 1 527 0
 266 0100 5869     		ldr	r0, [r3, #20]
 267 0102 2940     		ands	r1, r5
 268 0104 0143     		orrs	r1, r0
 269 0106 5961     		str	r1, [r3, #20]
 270 0108 D9E7     		b	.L15
 271              	.L24:
 272              		.loc 1 539 0
 273 010a 0023     		movs	r3, #0
 274              		.loc 1 542 0
 275 010c 0322     		movs	r2, #3
 276              	.LVL15:
 277              		.loc 1 539 0
 278 010e A364     		str	r3, [r4, #72]
 279              		.loc 1 542 0
 280 0110 636C     		ldr	r3, [r4, #68]
 281              		.loc 1 361 0
 282 0112 0020     		movs	r0, #0
 283              		.loc 1 542 0
 284 0114 9343     		bics	r3, r2
 285 0116 023A     		subs	r2, r2, #2
ARM GAS  C:\Users\anashi\AppData\Local\Temp\ccnNCtvk.s 			page 6


 286 0118 1343     		orrs	r3, r2
 287 011a 6364     		str	r3, [r4, #68]
 288 011c 7FE7     		b	.L4
 289              	.LVL16:
 290              	.L23:
 291              		.loc 1 481 0
 292 011e 002E     		cmp	r6, #0
 293 0120 0AD1     		bne	.L12
 294              		.loc 1 484 0
 295 0122 8021     		movs	r1, #128
 296 0124 4902     		lsls	r1, r1, #9
 297 0126 0A43     		orrs	r2, r1
 298              	.LVL17:
 299 0128 B6E7     		b	.L11
 300              	.LVL18:
 301              	.L22:
 302              		.loc 1 425 0 discriminator 1
 303 012a 1968     		ldr	r1, [r3]
 304 012c 0A42     		tst	r2, r1
 305 012e 94D1     		bne	.L8
 306              		.loc 1 425 0 is_stmt 0 discriminator 4
 307 0130 DA68     		ldr	r2, [r3, #12]
 308 0132 1204     		lsls	r2, r2, #16
 309 0134 91D4     		bmi	.L8
 310 0136 84E7     		b	.L7
 311              	.LVL19:
 312              	.L12:
 313              		.loc 1 493 0 is_stmt 1
 314 0138 2025     		movs	r5, #32
 315 013a 606C     		ldr	r0, [r4, #68]
 316 013c 2843     		orrs	r0, r5
 317 013e 6064     		str	r0, [r4, #68]
 318              		.loc 1 496 0
 319 0140 A06C     		ldr	r0, [r4, #72]
 320 0142 0143     		orrs	r1, r0
 321 0144 A164     		str	r1, [r4, #72]
 322 0146 A7E7     		b	.L11
 323              	.L26:
 324              		.align	2
 325              	.L25:
 326 0148 FDFEFFFF 		.word	-259
 327 014c 1902FEFF 		.word	-130535
 328 0150 E7FF3F83 		.word	-2092957721
 329              		.cfi_endproc
 330              	.LFE37:
 331              		.size	HAL_ADC_Init, .-HAL_ADC_Init
 332              		.section	.text.HAL_ADC_MspDeInit,"ax",%progbits
 333              		.align	1
 334              		.p2align 2,,3
 335              		.weak	HAL_ADC_MspDeInit
 336              		.syntax unified
 337              		.code	16
 338              		.thumb_func
 339              		.fpu softvfp
 340              		.type	HAL_ADC_MspDeInit, %function
 341              	HAL_ADC_MspDeInit:
 342              	.LFB67:
ARM GAS  C:\Users\anashi\AppData\Local\Temp\ccnNCtvk.s 			page 7


 343              		.cfi_startproc
 344              		@ args = 0, pretend = 0, frame = 0
 345              		@ frame_needed = 0, uses_anonymous_args = 0
 346              		@ link register save eliminated.
 347              		@ sp needed
 348 0000 7047     		bx	lr
 349              		.cfi_endproc
 350              	.LFE67:
 351              		.size	HAL_ADC_MspDeInit, .-HAL_ADC_MspDeInit
 352 0002 C046     		.section	.text.HAL_ADC_DeInit,"ax",%progbits
 353              		.align	1
 354              		.p2align 2,,3
 355              		.global	HAL_ADC_DeInit
 356              		.syntax unified
 357              		.code	16
 358              		.thumb_func
 359              		.fpu softvfp
 360              		.type	HAL_ADC_DeInit, %function
 361              	HAL_ADC_DeInit:
 362              	.LFB38:
 363              		.loc 1 586 0
 364              		.cfi_startproc
 365              		@ args = 0, pretend = 0, frame = 0
 366              		@ frame_needed = 0, uses_anonymous_args = 0
 367              	.LVL20:
 368              		.loc 1 586 0
 369 0000 70B5     		push	{r4, r5, r6, lr}
 370              		.cfi_def_cfa_offset 16
 371              		.cfi_offset 4, -16
 372              		.cfi_offset 5, -12
 373              		.cfi_offset 6, -8
 374              		.cfi_offset 14, -4
 375              		.loc 1 586 0
 376 0002 0400     		movs	r4, r0
 377              		.loc 1 592 0
 378 0004 0120     		movs	r0, #1
 379              	.LVL21:
 380              		.loc 1 590 0
 381 0006 002C     		cmp	r4, #0
 382 0008 32D0     		beq	.L48
 383              		.loc 1 599 0
 384 000a 0221     		movs	r1, #2
 385              	.LBB8:
 386              	.LBB9:
 387              		.loc 1 2041 0
 388 000c 0422     		movs	r2, #4
 389              	.LBE9:
 390              	.LBE8:
 391              		.loc 1 599 0
 392 000e 636C     		ldr	r3, [r4, #68]
 393 0010 0B43     		orrs	r3, r1
 394 0012 6364     		str	r3, [r4, #68]
 395              	.LVL22:
 396              	.LBB12:
 397              	.LBB10:
 398              		.loc 1 2041 0
 399 0014 2368     		ldr	r3, [r4]
ARM GAS  C:\Users\anashi\AppData\Local\Temp\ccnNCtvk.s 			page 8


 400 0016 9868     		ldr	r0, [r3, #8]
 401 0018 0242     		tst	r2, r0
 402 001a 10D0     		beq	.L30
 403              		.loc 1 2046 0
 404 001c 9868     		ldr	r0, [r3, #8]
 405 001e 0242     		tst	r2, r0
 406 0020 55D1     		bne	.L55
 407              	.L31:
 408              		.loc 1 2055 0
 409 0022 FFF7FEFF 		bl	HAL_GetTick
 410              	.LVL23:
 411              		.loc 1 2057 0
 412 0026 0425     		movs	r5, #4
 413              		.loc 1 2055 0
 414 0028 0600     		movs	r6, r0
 415              	.LVL24:
 416 002a 04E0     		b	.L32
 417              	.LVL25:
 418              	.L34:
 419              		.loc 1 2059 0
 420 002c FFF7FEFF 		bl	HAL_GetTick
 421              	.LVL26:
 422 0030 801B     		subs	r0, r0, r6
 423 0032 0228     		cmp	r0, #2
 424 0034 10D8     		bhi	.L37
 425              	.L32:
 426              		.loc 1 2057 0
 427 0036 2368     		ldr	r3, [r4]
 428 0038 9A68     		ldr	r2, [r3, #8]
 429 003a 1542     		tst	r5, r2
 430 003c F6D1     		bne	.L34
 431              	.LVL27:
 432              	.L30:
 433              	.LBE10:
 434              	.LBE12:
 435              	.LBB13:
 436              	.LBB14:
 437              		.loc 1 1982 0
 438 003e 0322     		movs	r2, #3
 439 0040 9968     		ldr	r1, [r3, #8]
 440 0042 0A40     		ands	r2, r1
 441 0044 012A     		cmp	r2, #1
 442 0046 17D1     		bne	.L36
 443 0048 1968     		ldr	r1, [r3]
 444 004a 0A42     		tst	r2, r1
 445 004c 11D0     		beq	.L56
 446              	.L35:
 447              		.loc 1 1985 0
 448 004e 0522     		movs	r2, #5
 449 0050 9968     		ldr	r1, [r3, #8]
 450 0052 0A40     		ands	r2, r1
 451 0054 012A     		cmp	r2, #1
 452 0056 42D0     		beq	.L57
 453              	.LVL28:
 454              	.L37:
 455              		.loc 1 1993 0
 456 0058 1022     		movs	r2, #16
ARM GAS  C:\Users\anashi\AppData\Local\Temp\ccnNCtvk.s 			page 9


 457 005a 636C     		ldr	r3, [r4, #68]
 458              		.loc 1 1998 0
 459 005c 0120     		movs	r0, #1
 460              		.loc 1 1993 0
 461 005e 1343     		orrs	r3, r2
 462 0060 6364     		str	r3, [r4, #68]
 463              		.loc 1 1996 0
 464 0062 A36C     		ldr	r3, [r4, #72]
 465 0064 0F3A     		subs	r2, r2, #15
 466 0066 1343     		orrs	r3, r2
 467 0068 A364     		str	r3, [r4, #72]
 468              	.LVL29:
 469              	.LBE14:
 470              	.LBE13:
 471              		.loc 1 689 0
 472 006a 0022     		movs	r2, #0
 473 006c 4023     		movs	r3, #64
 474 006e E254     		strb	r2, [r4, r3]
 475              	.LVL30:
 476              	.L48:
 477              		.loc 1 693 0
 478              		@ sp needed
 479              	.LVL31:
 480 0070 70BD     		pop	{r4, r5, r6, pc}
 481              	.LVL32:
 482              	.L56:
 483              	.LBB17:
 484              	.LBB15:
 485              		.loc 1 1982 0
 486 0072 DA68     		ldr	r2, [r3, #12]
 487 0074 1204     		lsls	r2, r2, #16
 488 0076 EAD4     		bmi	.L35
 489              	.LVL33:
 490              	.L36:
 491              	.LBE15:
 492              	.LBE17:
 493              		.loc 1 614 0
 494 0078 0122     		movs	r2, #1
 495              		.loc 1 626 0
 496 007a 9F21     		movs	r1, #159
 497              		.loc 1 614 0
 498 007c 6264     		str	r2, [r4, #68]
 499              		.loc 1 626 0
 500 007e 5A68     		ldr	r2, [r3, #4]
 501              		.loc 1 679 0
 502 0080 2000     		movs	r0, r4
 503              		.loc 1 626 0
 504 0082 8A43     		bics	r2, r1
 505 0084 5A60     		str	r2, [r3, #4]
 506              		.loc 1 631 0
 507 0086 1960     		str	r1, [r3]
 508              		.loc 1 640 0
 509 0088 DA68     		ldr	r2, [r3, #12]
 510 008a 2449     		ldr	r1, .L59
 511 008c 0A40     		ands	r2, r1
 512              		.loc 1 651 0
 513 008e 0721     		movs	r1, #7
ARM GAS  C:\Users\anashi\AppData\Local\Temp\ccnNCtvk.s 			page 10


 514              		.loc 1 640 0
 515 0090 DA60     		str	r2, [r3, #12]
 516              		.loc 1 648 0
 517 0092 1A69     		ldr	r2, [r3, #16]
 518 0094 9200     		lsls	r2, r2, #2
 519 0096 9208     		lsrs	r2, r2, #2
 520 0098 1A61     		str	r2, [r3, #16]
 521              		.loc 1 651 0
 522 009a 5A69     		ldr	r2, [r3, #20]
 523 009c 8A43     		bics	r2, r1
 524 009e 5A61     		str	r2, [r3, #20]
 525              		.loc 1 654 0
 526 00a0 1A6A     		ldr	r2, [r3, #32]
 527 00a2 1F49     		ldr	r1, .L59+4
 528 00a4 0A40     		ands	r2, r1
 529 00a6 1A62     		str	r2, [r3, #32]
 530              		.loc 1 657 0
 531 00a8 9A6A     		ldr	r2, [r3, #40]
 532              		.loc 1 667 0
 533 00aa 1E49     		ldr	r1, .L59+8
 534              		.loc 1 657 0
 535 00ac D20C     		lsrs	r2, r2, #19
 536 00ae D204     		lsls	r2, r2, #19
 537 00b0 9A62     		str	r2, [r3, #40]
 538              		.loc 1 667 0
 539 00b2 1D4A     		ldr	r2, .L59+12
 540 00b4 1368     		ldr	r3, [r2]
 541 00b6 0B40     		ands	r3, r1
 542 00b8 1360     		str	r3, [r2]
 543              		.loc 1 679 0
 544 00ba FFF7FEFF 		bl	HAL_ADC_MspDeInit
 545              	.LVL34:
 546              		.loc 1 682 0
 547 00be 0023     		movs	r3, #0
 548              		.loc 1 685 0
 549 00c0 0020     		movs	r0, #0
 550              		.loc 1 682 0
 551 00c2 A364     		str	r3, [r4, #72]
 552              		.loc 1 685 0
 553 00c4 6364     		str	r3, [r4, #68]
 554              	.LVL35:
 555              	.L33:
 556              		.loc 1 689 0
 557 00c6 4023     		movs	r3, #64
 558 00c8 0022     		movs	r2, #0
 559 00ca E254     		strb	r2, [r4, r3]
 560              		.loc 1 692 0
 561 00cc D0E7     		b	.L48
 562              	.LVL36:
 563              	.L55:
 564              	.LBB18:
 565              	.LBB11:
 566              		.loc 1 2047 0
 567 00ce 9A68     		ldr	r2, [r3, #8]
 568              		.loc 1 2046 0
 569 00d0 1142     		tst	r1, r2
 570 00d2 A6D1     		bne	.L31
ARM GAS  C:\Users\anashi\AppData\Local\Temp\ccnNCtvk.s 			page 11


 571              		.loc 1 2050 0
 572 00d4 9A68     		ldr	r2, [r3, #8]
 573 00d6 0E31     		adds	r1, r1, #14
 574 00d8 0A43     		orrs	r2, r1
 575 00da 9A60     		str	r2, [r3, #8]
 576 00dc A1E7     		b	.L31
 577              	.LVL37:
 578              	.L57:
 579              	.LBE11:
 580              	.LBE18:
 581              	.LBB19:
 582              	.LBB16:
 583              		.loc 1 1988 0
 584 00de 0221     		movs	r1, #2
 585 00e0 9A68     		ldr	r2, [r3, #8]
 586              		.loc 1 2005 0
 587 00e2 0125     		movs	r5, #1
 588              		.loc 1 1988 0
 589 00e4 0A43     		orrs	r2, r1
 590 00e6 9A60     		str	r2, [r3, #8]
 591 00e8 0322     		movs	r2, #3
 592 00ea 1A60     		str	r2, [r3]
 593              		.loc 1 2003 0
 594 00ec FFF7FEFF 		bl	HAL_GetTick
 595              	.LVL38:
 596 00f0 0600     		movs	r6, r0
 597              	.LVL39:
 598 00f2 04E0     		b	.L38
 599              	.LVL40:
 600              	.L39:
 601              		.loc 1 2007 0
 602 00f4 FFF7FEFF 		bl	HAL_GetTick
 603              	.LVL41:
 604 00f8 801B     		subs	r0, r0, r6
 605 00fa 0228     		cmp	r0, #2
 606 00fc 04D8     		bhi	.L58
 607              	.L38:
 608              		.loc 1 2005 0
 609 00fe 2368     		ldr	r3, [r4]
 610 0100 9A68     		ldr	r2, [r3, #8]
 611 0102 1542     		tst	r5, r2
 612 0104 F6D1     		bne	.L39
 613 0106 B7E7     		b	.L36
 614              	.L58:
 615              		.loc 1 2010 0
 616 0108 1022     		movs	r2, #16
 617 010a 636C     		ldr	r3, [r4, #68]
 618              		.loc 1 2015 0
 619 010c 0120     		movs	r0, #1
 620              		.loc 1 2010 0
 621 010e 1343     		orrs	r3, r2
 622 0110 6364     		str	r3, [r4, #68]
 623              		.loc 1 2013 0
 624 0112 A36C     		ldr	r3, [r4, #72]
 625 0114 1D43     		orrs	r5, r3
 626 0116 A564     		str	r5, [r4, #72]
 627              	.LVL42:
ARM GAS  C:\Users\anashi\AppData\Local\Temp\ccnNCtvk.s 			page 12


 628 0118 D5E7     		b	.L33
 629              	.L60:
 630 011a C046     		.align	2
 631              	.L59:
 632 011c 00023E83 		.word	-2093088256
 633 0120 00F000F0 		.word	-268374016
 634 0124 FFFF3FFF 		.word	-12582913
 635 0128 08270140 		.word	1073817352
 636              	.LBE16:
 637              	.LBE19:
 638              		.cfi_endproc
 639              	.LFE38:
 640              		.size	HAL_ADC_DeInit, .-HAL_ADC_DeInit
 641              		.global	__aeabi_uidiv
 642              		.section	.text.HAL_ADC_Start,"ax",%progbits
 643              		.align	1
 644              		.p2align 2,,3
 645              		.global	HAL_ADC_Start
 646              		.syntax unified
 647              		.code	16
 648              		.thumb_func
 649              		.fpu softvfp
 650              		.type	HAL_ADC_Start, %function
 651              	HAL_ADC_Start:
 652              	.LFB41:
 653              		.loc 1 759 0
 654              		.cfi_startproc
 655              		@ args = 0, pretend = 0, frame = 8
 656              		@ frame_needed = 0, uses_anonymous_args = 0
 657              	.LVL43:
 658              		.loc 1 766 0
 659 0000 0422     		movs	r2, #4
 660              		.loc 1 759 0
 661 0002 70B5     		push	{r4, r5, r6, lr}
 662              		.cfi_def_cfa_offset 16
 663              		.cfi_offset 4, -16
 664              		.cfi_offset 5, -12
 665              		.cfi_offset 6, -8
 666              		.cfi_offset 14, -4
 667              		.loc 1 766 0
 668 0004 0368     		ldr	r3, [r0]
 669              		.loc 1 759 0
 670 0006 82B0     		sub	sp, sp, #8
 671              		.cfi_def_cfa_offset 24
 672              		.loc 1 766 0
 673 0008 9968     		ldr	r1, [r3, #8]
 674              		.loc 1 759 0
 675 000a 0400     		movs	r4, r0
 676              		.loc 1 766 0
 677 000c 0A40     		ands	r2, r1
 678 000e 48D1     		bne	.L71
 679              		.loc 1 769 0
 680 0010 4021     		movs	r1, #64
 681 0012 405C     		ldrb	r0, [r0, r1]
 682              	.LVL44:
 683 0014 0128     		cmp	r0, #1
 684 0016 44D0     		beq	.L71
ARM GAS  C:\Users\anashi\AppData\Local\Temp\ccnNCtvk.s 			page 13


 685              		.loc 1 769 0 is_stmt 0 discriminator 2
 686 0018 0120     		movs	r0, #1
 687 001a 6054     		strb	r0, [r4, r1]
 688              		.loc 1 774 0 is_stmt 1 discriminator 2
 689 001c E169     		ldr	r1, [r4, #28]
 690 001e 0129     		cmp	r1, #1
 691 0020 13D1     		bne	.L80
 692              	.L63:
 693              		.loc 1 785 0
 694 0022 626C     		ldr	r2, [r4, #68]
 695 0024 2D49     		ldr	r1, .L84
 696              		.loc 1 806 0
 697 0026 0020     		movs	r0, #0
 698              		.loc 1 785 0
 699 0028 1140     		ands	r1, r2
 700 002a 8022     		movs	r2, #128
 701 002c 5200     		lsls	r2, r2, #1
 702 002e 0A43     		orrs	r2, r1
 703 0030 6264     		str	r2, [r4, #68]
 704              		.loc 1 795 0
 705 0032 4021     		movs	r1, #64
 706              		.loc 1 790 0
 707 0034 0022     		movs	r2, #0
 708 0036 A264     		str	r2, [r4, #72]
 709              		.loc 1 795 0
 710 0038 6254     		strb	r2, [r4, r1]
 711              		.loc 1 800 0
 712 003a 1C32     		adds	r2, r2, #28
 713 003c 1A60     		str	r2, [r3]
 714              		.loc 1 806 0
 715 003e 9A68     		ldr	r2, [r3, #8]
 716 0040 3C39     		subs	r1, r1, #60
 717 0042 0A43     		orrs	r2, r1
 718 0044 9A60     		str	r2, [r3, #8]
 719              	.LVL45:
 720              	.L62:
 721              		.loc 1 816 0
 722 0046 02B0     		add	sp, sp, #8
 723              		@ sp needed
 724              	.LVL46:
 725 0048 70BD     		pop	{r4, r5, r6, pc}
 726              	.LVL47:
 727              	.L80:
 728              	.LBB22:
 729              	.LBB23:
 730              		.loc 1 1913 0
 731 004a 0192     		str	r2, [sp, #4]
 732              		.loc 1 1919 0
 733 004c 9968     		ldr	r1, [r3, #8]
 734 004e 0332     		adds	r2, r2, #3
 735 0050 0A40     		ands	r2, r1
 736 0052 012A     		cmp	r2, #1
 737 0054 31D0     		beq	.L81
 738              	.L64:
 739              		.loc 1 1922 0
 740 0056 9968     		ldr	r1, [r3, #8]
 741 0058 214A     		ldr	r2, .L84+4
ARM GAS  C:\Users\anashi\AppData\Local\Temp\ccnNCtvk.s 			page 14


 742 005a 1142     		tst	r1, r2
 743 005c 23D1     		bne	.L82
 744              		.loc 1 1934 0
 745 005e 0121     		movs	r1, #1
 746 0060 9A68     		ldr	r2, [r3, #8]
 747 0062 0A43     		orrs	r2, r1
 748 0064 9A60     		str	r2, [r3, #8]
 749              		.loc 1 1938 0
 750 0066 1F4B     		ldr	r3, .L84+8
 751 0068 1F49     		ldr	r1, .L84+12
 752 006a 1868     		ldr	r0, [r3]
 753 006c FFF7FEFF 		bl	__aeabi_uidiv
 754              	.LVL48:
 755 0070 0190     		str	r0, [sp, #4]
 756              		.loc 1 1939 0
 757 0072 019B     		ldr	r3, [sp, #4]
 758 0074 002B     		cmp	r3, #0
 759 0076 05D0     		beq	.L66
 760              	.L67:
 761              		.loc 1 1941 0
 762 0078 019B     		ldr	r3, [sp, #4]
 763 007a 013B     		subs	r3, r3, #1
 764 007c 0193     		str	r3, [sp, #4]
 765              		.loc 1 1939 0
 766 007e 019B     		ldr	r3, [sp, #4]
 767 0080 002B     		cmp	r3, #0
 768 0082 F9D1     		bne	.L67
 769              	.L66:
 770              		.loc 1 1945 0
 771 0084 FFF7FEFF 		bl	HAL_GetTick
 772              	.LVL49:
 773              		.loc 1 1948 0
 774 0088 0125     		movs	r5, #1
 775              		.loc 1 1945 0
 776 008a 0600     		movs	r6, r0
 777              	.LVL50:
 778 008c 04E0     		b	.L68
 779              	.LVL51:
 780              	.L69:
 781              		.loc 1 1950 0
 782 008e FFF7FEFF 		bl	HAL_GetTick
 783              	.LVL52:
 784 0092 801B     		subs	r0, r0, r6
 785 0094 0228     		cmp	r0, #2
 786 0096 17D8     		bhi	.L83
 787              	.L68:
 788              		.loc 1 1948 0
 789 0098 2368     		ldr	r3, [r4]
 790 009a 1A68     		ldr	r2, [r3]
 791 009c 1542     		tst	r5, r2
 792 009e F6D0     		beq	.L69
 793 00a0 BFE7     		b	.L63
 794              	.LVL53:
 795              	.L71:
 796              	.LBE23:
 797              	.LBE22:
 798              		.loc 1 811 0
ARM GAS  C:\Users\anashi\AppData\Local\Temp\ccnNCtvk.s 			page 15


 799 00a2 0220     		movs	r0, #2
 800 00a4 CFE7     		b	.L62
 801              	.LVL54:
 802              	.L82:
 803              	.LBB25:
 804              	.LBB24:
 805              		.loc 1 1925 0
 806 00a6 1022     		movs	r2, #16
 807 00a8 636C     		ldr	r3, [r4, #68]
 808              		.loc 1 1930 0
 809 00aa 0120     		movs	r0, #1
 810              		.loc 1 1925 0
 811 00ac 1343     		orrs	r3, r2
 812 00ae 6364     		str	r3, [r4, #68]
 813              		.loc 1 1928 0
 814 00b0 A36C     		ldr	r3, [r4, #72]
 815 00b2 0F3A     		subs	r2, r2, #15
 816 00b4 1343     		orrs	r3, r2
 817 00b6 A364     		str	r3, [r4, #72]
 818              	.LVL55:
 819 00b8 C5E7     		b	.L62
 820              	.LVL56:
 821              	.L81:
 822              		.loc 1 1919 0
 823 00ba 1968     		ldr	r1, [r3]
 824 00bc 0A42     		tst	r2, r1
 825 00be B0D1     		bne	.L63
 826 00c0 DA68     		ldr	r2, [r3, #12]
 827 00c2 1204     		lsls	r2, r2, #16
 828 00c4 C7D5     		bpl	.L64
 829 00c6 ACE7     		b	.L63
 830              	.LVL57:
 831              	.L83:
 832              		.loc 1 1953 0
 833 00c8 1022     		movs	r2, #16
 834 00ca 636C     		ldr	r3, [r4, #68]
 835              		.loc 1 1958 0
 836 00cc 0120     		movs	r0, #1
 837              		.loc 1 1953 0
 838 00ce 1343     		orrs	r3, r2
 839 00d0 6364     		str	r3, [r4, #68]
 840              		.loc 1 1956 0
 841 00d2 A36C     		ldr	r3, [r4, #72]
 842 00d4 1D43     		orrs	r5, r3
 843 00d6 A564     		str	r5, [r4, #72]
 844              	.LVL58:
 845 00d8 B5E7     		b	.L62
 846              	.L85:
 847 00da C046     		.align	2
 848              	.L84:
 849 00dc FEF0FFFF 		.word	-3842
 850 00e0 17000080 		.word	-2147483625
 851 00e4 00000000 		.word	SystemCoreClock
 852 00e8 40420F00 		.word	1000000
 853              	.LBE24:
 854              	.LBE25:
 855              		.cfi_endproc
ARM GAS  C:\Users\anashi\AppData\Local\Temp\ccnNCtvk.s 			page 16


 856              	.LFE41:
 857              		.size	HAL_ADC_Start, .-HAL_ADC_Start
 858              		.section	.text.HAL_ADC_Stop,"ax",%progbits
 859              		.align	1
 860              		.p2align 2,,3
 861              		.global	HAL_ADC_Stop
 862              		.syntax unified
 863              		.code	16
 864              		.thumb_func
 865              		.fpu softvfp
 866              		.type	HAL_ADC_Stop, %function
 867              	HAL_ADC_Stop:
 868              	.LFB42:
 869              		.loc 1 824 0
 870              		.cfi_startproc
 871              		@ args = 0, pretend = 0, frame = 0
 872              		@ frame_needed = 0, uses_anonymous_args = 0
 873              	.LVL59:
 874              		.loc 1 831 0
 875 0000 4023     		movs	r3, #64
 876              		.loc 1 824 0
 877 0002 70B5     		push	{r4, r5, r6, lr}
 878              		.cfi_def_cfa_offset 16
 879              		.cfi_offset 4, -16
 880              		.cfi_offset 5, -12
 881              		.cfi_offset 6, -8
 882              		.cfi_offset 14, -4
 883              		.loc 1 831 0
 884 0004 C25C     		ldrb	r2, [r0, r3]
 885              		.loc 1 824 0
 886 0006 0400     		movs	r4, r0
 887              		.loc 1 831 0
 888 0008 012A     		cmp	r2, #1
 889 000a 25D0     		beq	.L99
 890              		.loc 1 831 0 is_stmt 0 discriminator 2
 891 000c 0122     		movs	r2, #1
 892 000e C254     		strb	r2, [r0, r3]
 893              	.LVL60:
 894              	.LBB32:
 895              	.LBB33:
 896              		.loc 1 2041 0 is_stmt 1 discriminator 2
 897 0010 0368     		ldr	r3, [r0]
 898 0012 0332     		adds	r2, r2, #3
 899 0014 9968     		ldr	r1, [r3, #8]
 900 0016 0A42     		tst	r2, r1
 901 0018 10D0     		beq	.L88
 902              		.loc 1 2046 0
 903 001a 9968     		ldr	r1, [r3, #8]
 904 001c 0A42     		tst	r2, r1
 905 001e 35D1     		bne	.L111
 906              	.L89:
 907              		.loc 1 2055 0
 908 0020 FFF7FEFF 		bl	HAL_GetTick
 909              	.LVL61:
 910              		.loc 1 2057 0
 911 0024 0425     		movs	r5, #4
 912              		.loc 1 2055 0
ARM GAS  C:\Users\anashi\AppData\Local\Temp\ccnNCtvk.s 			page 17


 913 0026 0600     		movs	r6, r0
 914              	.LVL62:
 915 0028 04E0     		b	.L90
 916              	.LVL63:
 917              	.L92:
 918              		.loc 1 2059 0
 919 002a FFF7FEFF 		bl	HAL_GetTick
 920              	.LVL64:
 921 002e 801B     		subs	r0, r0, r6
 922 0030 0228     		cmp	r0, #2
 923 0032 1ED8     		bhi	.L96
 924              	.L90:
 925              		.loc 1 2057 0
 926 0034 2368     		ldr	r3, [r4]
 927 0036 9A68     		ldr	r2, [r3, #8]
 928 0038 1542     		tst	r5, r2
 929 003a F6D1     		bne	.L92
 930              	.LVL65:
 931              	.L88:
 932              	.LBE33:
 933              	.LBE32:
 934              	.LBB35:
 935              	.LBB36:
 936              		.loc 1 1982 0
 937 003c 0322     		movs	r2, #3
 938 003e 9968     		ldr	r1, [r3, #8]
 939 0040 0A40     		ands	r2, r1
 940 0042 012A     		cmp	r2, #1
 941 0044 0AD0     		beq	.L93
 942              	.LVL66:
 943              	.L95:
 944              	.LBE36:
 945              	.LBE35:
 946              		.loc 1 846 0
 947 0046 636C     		ldr	r3, [r4, #68]
 948 0048 234A     		ldr	r2, .L114
 949              		.loc 1 840 0
 950 004a 0020     		movs	r0, #0
 951              		.loc 1 846 0
 952 004c 1340     		ands	r3, r2
 953 004e 0432     		adds	r2, r2, #4
 954 0050 FF32     		adds	r2, r2, #255
 955 0052 1343     		orrs	r3, r2
 956 0054 6364     		str	r3, [r4, #68]
 957 0056 15E0     		b	.L91
 958              	.LVL67:
 959              	.L99:
 960              		.loc 1 831 0
 961 0058 0220     		movs	r0, #2
 962              	.LVL68:
 963              	.L87:
 964              		.loc 1 857 0
 965              		@ sp needed
 966              	.LVL69:
 967 005a 70BD     		pop	{r4, r5, r6, pc}
 968              	.LVL70:
 969              	.L93:
ARM GAS  C:\Users\anashi\AppData\Local\Temp\ccnNCtvk.s 			page 18


 970              	.LBB39:
 971              	.LBB37:
 972              		.loc 1 1982 0
 973 005c 1968     		ldr	r1, [r3]
 974 005e 0A42     		tst	r2, r1
 975 0060 02D1     		bne	.L94
 976 0062 DA68     		ldr	r2, [r3, #12]
 977 0064 1204     		lsls	r2, r2, #16
 978 0066 EED5     		bpl	.L95
 979              	.L94:
 980              		.loc 1 1985 0
 981 0068 0522     		movs	r2, #5
 982 006a 9968     		ldr	r1, [r3, #8]
 983 006c 0A40     		ands	r2, r1
 984 006e 012A     		cmp	r2, #1
 985 0070 14D0     		beq	.L112
 986              	.LVL71:
 987              	.L96:
 988              		.loc 1 1993 0
 989 0072 1022     		movs	r2, #16
 990              		.loc 1 1998 0
 991 0074 0120     		movs	r0, #1
 992              		.loc 1 1993 0
 993 0076 636C     		ldr	r3, [r4, #68]
 994 0078 1343     		orrs	r3, r2
 995 007a 6364     		str	r3, [r4, #68]
 996              		.loc 1 1996 0
 997 007c A36C     		ldr	r3, [r4, #72]
 998 007e 0F3A     		subs	r2, r2, #15
 999 0080 1343     		orrs	r3, r2
 1000 0082 A364     		str	r3, [r4, #72]
 1001              	.LVL72:
 1002              	.L91:
 1003              	.LBE37:
 1004              	.LBE39:
 1005              		.loc 1 853 0
 1006 0084 4023     		movs	r3, #64
 1007 0086 0022     		movs	r2, #0
 1008 0088 E254     		strb	r2, [r4, r3]
 1009              		.loc 1 856 0
 1010 008a E6E7     		b	.L87
 1011              	.LVL73:
 1012              	.L111:
 1013              	.LBB40:
 1014              	.LBB34:
 1015              		.loc 1 2047 0
 1016 008c 9A68     		ldr	r2, [r3, #8]
 1017              		.loc 1 2046 0
 1018 008e 9207     		lsls	r2, r2, #30
 1019 0090 C6D4     		bmi	.L89
 1020              		.loc 1 2050 0
 1021 0092 1021     		movs	r1, #16
 1022 0094 9A68     		ldr	r2, [r3, #8]
 1023 0096 0A43     		orrs	r2, r1
 1024 0098 9A60     		str	r2, [r3, #8]
 1025 009a C1E7     		b	.L89
 1026              	.LVL74:
ARM GAS  C:\Users\anashi\AppData\Local\Temp\ccnNCtvk.s 			page 19


 1027              	.L112:
 1028              	.LBE34:
 1029              	.LBE40:
 1030              	.LBB41:
 1031              	.LBB38:
 1032              		.loc 1 1988 0
 1033 009c 0221     		movs	r1, #2
 1034 009e 9A68     		ldr	r2, [r3, #8]
 1035              		.loc 1 2005 0
 1036 00a0 0125     		movs	r5, #1
 1037              		.loc 1 1988 0
 1038 00a2 0A43     		orrs	r2, r1
 1039 00a4 9A60     		str	r2, [r3, #8]
 1040 00a6 0322     		movs	r2, #3
 1041 00a8 1A60     		str	r2, [r3]
 1042              		.loc 1 2003 0
 1043 00aa FFF7FEFF 		bl	HAL_GetTick
 1044              	.LVL75:
 1045 00ae 0600     		movs	r6, r0
 1046              	.LVL76:
 1047 00b0 04E0     		b	.L97
 1048              	.LVL77:
 1049              	.L98:
 1050              		.loc 1 2007 0
 1051 00b2 FFF7FEFF 		bl	HAL_GetTick
 1052              	.LVL78:
 1053 00b6 801B     		subs	r0, r0, r6
 1054 00b8 0228     		cmp	r0, #2
 1055 00ba 04D8     		bhi	.L113
 1056              	.L97:
 1057              		.loc 1 2005 0
 1058 00bc 2368     		ldr	r3, [r4]
 1059 00be 9B68     		ldr	r3, [r3, #8]
 1060 00c0 1D42     		tst	r5, r3
 1061 00c2 F6D1     		bne	.L98
 1062 00c4 BFE7     		b	.L95
 1063              	.L113:
 1064              		.loc 1 2010 0
 1065 00c6 1022     		movs	r2, #16
 1066 00c8 636C     		ldr	r3, [r4, #68]
 1067              		.loc 1 2015 0
 1068 00ca 0120     		movs	r0, #1
 1069              		.loc 1 2010 0
 1070 00cc 1343     		orrs	r3, r2
 1071 00ce 6364     		str	r3, [r4, #68]
 1072              		.loc 1 2013 0
 1073 00d0 A36C     		ldr	r3, [r4, #72]
 1074 00d2 1D43     		orrs	r5, r3
 1075 00d4 A564     		str	r5, [r4, #72]
 1076              	.LVL79:
 1077 00d6 D5E7     		b	.L91
 1078              	.L115:
 1079              		.align	2
 1080              	.L114:
 1081 00d8 FEFEFFFF 		.word	-258
 1082              	.LBE38:
 1083              	.LBE41:
ARM GAS  C:\Users\anashi\AppData\Local\Temp\ccnNCtvk.s 			page 20


 1084              		.cfi_endproc
 1085              	.LFE42:
 1086              		.size	HAL_ADC_Stop, .-HAL_ADC_Stop
 1087              		.section	.text.HAL_ADC_PollForConversion,"ax",%progbits
 1088              		.align	1
 1089              		.p2align 2,,3
 1090              		.global	HAL_ADC_PollForConversion
 1091              		.syntax unified
 1092              		.code	16
 1093              		.thumb_func
 1094              		.fpu softvfp
 1095              		.type	HAL_ADC_PollForConversion, %function
 1096              	HAL_ADC_PollForConversion:
 1097              	.LFB43:
 1098              		.loc 1 878 0
 1099              		.cfi_startproc
 1100              		@ args = 0, pretend = 0, frame = 0
 1101              		@ frame_needed = 0, uses_anonymous_args = 0
 1102              	.LVL80:
 1103 0000 F8B5     		push	{r3, r4, r5, r6, r7, lr}
 1104              		.cfi_def_cfa_offset 24
 1105              		.cfi_offset 3, -24
 1106              		.cfi_offset 4, -20
 1107              		.cfi_offset 5, -16
 1108              		.cfi_offset 6, -12
 1109              		.cfi_offset 7, -8
 1110              		.cfi_offset 14, -4
 1111              		.loc 1 886 0
 1112 0002 4469     		ldr	r4, [r0, #20]
 1113              		.loc 1 878 0
 1114 0004 0500     		movs	r5, r0
 1115 0006 0E00     		movs	r6, r1
 1116              		.loc 1 886 0
 1117 0008 082C     		cmp	r4, #8
 1118 000a 04D0     		beq	.L117
 1119              		.loc 1 899 0
 1120 000c 0368     		ldr	r3, [r0]
 1121              		.loc 1 911 0
 1122 000e 0C24     		movs	r4, #12
 1123              		.loc 1 899 0
 1124 0010 DB68     		ldr	r3, [r3, #12]
 1125 0012 DB07     		lsls	r3, r3, #31
 1126 0014 40D4     		bmi	.L139
 1127              	.L117:
 1128              	.LVL81:
 1129              		.loc 1 916 0
 1130 0016 FFF7FEFF 		bl	HAL_GetTick
 1131              	.LVL82:
 1132 001a 0700     		movs	r7, r0
 1133              	.LVL83:
 1134              	.L119:
 1135              		.loc 1 919 0
 1136 001c 2A68     		ldr	r2, [r5]
 1137 001e 731C     		adds	r3, r6, #1
 1138 0020 27D1     		bne	.L122
 1139              	.L123:
 1140 0022 1368     		ldr	r3, [r2]
ARM GAS  C:\Users\anashi\AppData\Local\Temp\ccnNCtvk.s 			page 21


 1141 0024 1C42     		tst	r4, r3
 1142 0026 FCD0     		beq	.L123
 1143              	.L124:
 1144              		.loc 1 938 0
 1145 0028 8023     		movs	r3, #128
 1146 002a 696C     		ldr	r1, [r5, #68]
 1147 002c 9B00     		lsls	r3, r3, #2
 1148 002e 0B43     		orrs	r3, r1
 1149 0030 6B64     		str	r3, [r5, #68]
 1150              		.loc 1 942 0
 1151 0032 C023     		movs	r3, #192
 1152 0034 D168     		ldr	r1, [r2, #12]
 1153 0036 1B01     		lsls	r3, r3, #4
 1154 0038 1942     		tst	r1, r3
 1155 003a 13D1     		bne	.L126
 1156              		.loc 1 942 0 is_stmt 0 discriminator 1
 1157 003c 2B6A     		ldr	r3, [r5, #32]
 1158 003e 002B     		cmp	r3, #0
 1159 0040 10D1     		bne	.L126
 1160              		.loc 1 946 0 is_stmt 1
 1161 0042 1368     		ldr	r3, [r2]
 1162 0044 1B07     		lsls	r3, r3, #28
 1163 0046 0DD5     		bpl	.L126
 1164              		.loc 1 950 0
 1165 0048 9368     		ldr	r3, [r2, #8]
 1166 004a 5B07     		lsls	r3, r3, #29
 1167 004c 2DD4     		bmi	.L127
 1168              		.loc 1 956 0
 1169 004e 0C21     		movs	r1, #12
 1170 0050 5368     		ldr	r3, [r2, #4]
 1171 0052 8B43     		bics	r3, r1
 1172 0054 5360     		str	r3, [r2, #4]
 1173              		.loc 1 959 0
 1174 0056 6B6C     		ldr	r3, [r5, #68]
 1175 0058 1849     		ldr	r1, .L140
 1176 005a 0B40     		ands	r3, r1
 1177 005c 0431     		adds	r1, r1, #4
 1178 005e FF31     		adds	r1, r1, #255
 1179 0060 0B43     		orrs	r3, r1
 1180 0062 6B64     		str	r3, [r5, #68]
 1181              	.L126:
 1182              		.loc 1 977 0
 1183 0064 AB69     		ldr	r3, [r5, #24]
 1184              		.loc 1 984 0
 1185 0066 0020     		movs	r0, #0
 1186              		.loc 1 977 0
 1187 0068 002B     		cmp	r3, #0
 1188 006a 01D1     		bne	.L118
 1189              		.loc 1 980 0
 1190 006c 0C33     		adds	r3, r3, #12
 1191 006e 1360     		str	r3, [r2]
 1192              	.LVL84:
 1193              	.L118:
 1194              		.loc 1 985 0
 1195              		@ sp needed
 1196              	.LVL85:
 1197              	.LVL86:
ARM GAS  C:\Users\anashi\AppData\Local\Temp\ccnNCtvk.s 			page 22


 1198 0070 F8BD     		pop	{r3, r4, r5, r6, r7, pc}
 1199              	.LVL87:
 1200              	.L122:
 1201              		.loc 1 919 0
 1202 0072 1368     		ldr	r3, [r2]
 1203 0074 1C42     		tst	r4, r3
 1204 0076 D7D1     		bne	.L124
 1205              		.loc 1 924 0
 1206 0078 002E     		cmp	r6, #0
 1207 007a 04D0     		beq	.L121
 1208              		.loc 1 924 0 is_stmt 0 discriminator 1
 1209 007c FFF7FEFF 		bl	HAL_GetTick
 1210              	.LVL88:
 1211 0080 C01B     		subs	r0, r0, r7
 1212 0082 B042     		cmp	r0, r6
 1213 0084 CAD9     		bls	.L119
 1214              	.L121:
 1215              		.loc 1 927 0 is_stmt 1
 1216 0086 0422     		movs	r2, #4
 1217 0088 6B6C     		ldr	r3, [r5, #68]
 1218              		.loc 1 932 0
 1219 008a 0320     		movs	r0, #3
 1220              		.loc 1 927 0
 1221 008c 1343     		orrs	r3, r2
 1222 008e 6B64     		str	r3, [r5, #68]
 1223              		.loc 1 930 0
 1224 0090 0022     		movs	r2, #0
 1225 0092 4023     		movs	r3, #64
 1226 0094 EA54     		strb	r2, [r5, r3]
 1227              		.loc 1 932 0
 1228 0096 EBE7     		b	.L118
 1229              	.LVL89:
 1230              	.L139:
 1231              		.loc 1 902 0
 1232 0098 2022     		movs	r2, #32
 1233 009a 436C     		ldr	r3, [r0, #68]
 1234 009c 1343     		orrs	r3, r2
 1235 009e 4364     		str	r3, [r0, #68]
 1236              		.loc 1 905 0
 1237 00a0 0022     		movs	r2, #0
 1238 00a2 4023     		movs	r3, #64
 1239 00a4 C254     		strb	r2, [r0, r3]
 1240              		.loc 1 907 0
 1241 00a6 0120     		movs	r0, #1
 1242              	.LVL90:
 1243 00a8 E2E7     		b	.L118
 1244              	.LVL91:
 1245              	.L127:
 1246              		.loc 1 966 0
 1247 00aa 2021     		movs	r1, #32
 1248 00ac 6B6C     		ldr	r3, [r5, #68]
 1249 00ae 0B43     		orrs	r3, r1
 1250 00b0 6B64     		str	r3, [r5, #68]
 1251              		.loc 1 969 0
 1252 00b2 AB6C     		ldr	r3, [r5, #72]
 1253 00b4 1F39     		subs	r1, r1, #31
 1254 00b6 0B43     		orrs	r3, r1
ARM GAS  C:\Users\anashi\AppData\Local\Temp\ccnNCtvk.s 			page 23


 1255 00b8 AB64     		str	r3, [r5, #72]
 1256 00ba D3E7     		b	.L126
 1257              	.L141:
 1258              		.align	2
 1259              	.L140:
 1260 00bc FEFEFFFF 		.word	-258
 1261              		.cfi_endproc
 1262              	.LFE43:
 1263              		.size	HAL_ADC_PollForConversion, .-HAL_ADC_PollForConversion
 1264              		.section	.text.HAL_ADC_PollForEvent,"ax",%progbits
 1265              		.align	1
 1266              		.p2align 2,,3
 1267              		.global	HAL_ADC_PollForEvent
 1268              		.syntax unified
 1269              		.code	16
 1270              		.thumb_func
 1271              		.fpu softvfp
 1272              		.type	HAL_ADC_PollForEvent, %function
 1273              	HAL_ADC_PollForEvent:
 1274              	.LFB44:
 1275              		.loc 1 998 0
 1276              		.cfi_startproc
 1277              		@ args = 0, pretend = 0, frame = 0
 1278              		@ frame_needed = 0, uses_anonymous_args = 0
 1279              	.LVL92:
 1280 0000 F8B5     		push	{r3, r4, r5, r6, r7, lr}
 1281              		.cfi_def_cfa_offset 24
 1282              		.cfi_offset 3, -24
 1283              		.cfi_offset 4, -20
 1284              		.cfi_offset 5, -16
 1285              		.cfi_offset 6, -12
 1286              		.cfi_offset 7, -8
 1287              		.cfi_offset 14, -4
 1288              		.loc 1 998 0
 1289 0002 0500     		movs	r5, r0
 1290 0004 0C00     		movs	r4, r1
 1291 0006 1600     		movs	r6, r2
 1292              		.loc 1 1006 0
 1293 0008 FFF7FEFF 		bl	HAL_GetTick
 1294              	.LVL93:
 1295 000c 0700     		movs	r7, r0
 1296              	.LVL94:
 1297              	.L143:
 1298              		.loc 1 1009 0
 1299 000e 2A68     		ldr	r2, [r5]
 1300 0010 731C     		adds	r3, r6, #1
 1301 0012 15D1     		bne	.L147
 1302              	.L148:
 1303 0014 1368     		ldr	r3, [r2]
 1304 0016 2340     		ands	r3, r4
 1305 0018 9C42     		cmp	r4, r3
 1306 001a FBD1     		bne	.L148
 1307              	.L149:
 1308              		.loc 1 1027 0
 1309 001c 802C     		cmp	r4, #128
 1310 001e 23D0     		beq	.L156
 1311              		.loc 1 1044 0
ARM GAS  C:\Users\anashi\AppData\Local\Temp\ccnNCtvk.s 			page 24


 1312 0020 6B6B     		ldr	r3, [r5, #52]
 1313 0022 012B     		cmp	r3, #1
 1314 0024 08D1     		bne	.L153
 1315              		.loc 1 1047 0
 1316 0026 8023     		movs	r3, #128
 1317 0028 696C     		ldr	r1, [r5, #68]
 1318 002a DB00     		lsls	r3, r3, #3
 1319 002c 0B43     		orrs	r3, r1
 1320              		.loc 1 1050 0
 1321 002e 0221     		movs	r1, #2
 1322              		.loc 1 1047 0
 1323 0030 6B64     		str	r3, [r5, #68]
 1324              		.loc 1 1050 0
 1325 0032 AB6C     		ldr	r3, [r5, #72]
 1326 0034 0B43     		orrs	r3, r1
 1327 0036 AB64     		str	r3, [r5, #72]
 1328              	.L153:
 1329              		.loc 1 1054 0
 1330 0038 1023     		movs	r3, #16
 1331              		.loc 1 1059 0
 1332 003a 0020     		movs	r0, #0
 1333              		.loc 1 1054 0
 1334 003c 1360     		str	r3, [r2]
 1335              		.loc 1 1055 0
 1336 003e 1AE0     		b	.L145
 1337              	.L147:
 1338              		.loc 1 1009 0
 1339 0040 1368     		ldr	r3, [r2]
 1340 0042 2340     		ands	r3, r4
 1341 0044 A342     		cmp	r3, r4
 1342 0046 E9D0     		beq	.L149
 1343              		.loc 1 1014 0
 1344 0048 002E     		cmp	r6, #0
 1345 004a 04D0     		beq	.L146
 1346              		.loc 1 1014 0 is_stmt 0 discriminator 1
 1347 004c FFF7FEFF 		bl	HAL_GetTick
 1348              	.LVL95:
 1349 0050 C01B     		subs	r0, r0, r7
 1350 0052 B042     		cmp	r0, r6
 1351 0054 DBD9     		bls	.L143
 1352              	.L146:
 1353              		.loc 1 1017 0 is_stmt 1
 1354 0056 0422     		movs	r2, #4
 1355 0058 6B6C     		ldr	r3, [r5, #68]
 1356              		.loc 1 1022 0
 1357 005a 0320     		movs	r0, #3
 1358              		.loc 1 1017 0
 1359 005c 1343     		orrs	r3, r2
 1360 005e 6B64     		str	r3, [r5, #68]
 1361              		.loc 1 1020 0
 1362 0060 0022     		movs	r2, #0
 1363 0062 4023     		movs	r3, #64
 1364 0064 EA54     		strb	r2, [r5, r3]
 1365              		.loc 1 1022 0
 1366 0066 06E0     		b	.L145
 1367              	.L156:
 1368              		.loc 1 1032 0
ARM GAS  C:\Users\anashi\AppData\Local\Temp\ccnNCtvk.s 			page 25


 1369 0068 8023     		movs	r3, #128
 1370              		.loc 1 1059 0
 1371 006a 0020     		movs	r0, #0
 1372              		.loc 1 1032 0
 1373 006c 696C     		ldr	r1, [r5, #68]
 1374 006e 5B02     		lsls	r3, r3, #9
 1375 0070 0B43     		orrs	r3, r1
 1376 0072 6B64     		str	r3, [r5, #68]
 1377              		.loc 1 1035 0
 1378 0074 1460     		str	r4, [r2]
 1379              	.L145:
 1380              		.loc 1 1060 0
 1381              		@ sp needed
 1382              	.LVL96:
 1383              	.LVL97:
 1384              	.LVL98:
 1385              	.LVL99:
 1386 0076 F8BD     		pop	{r3, r4, r5, r6, r7, pc}
 1387              		.cfi_endproc
 1388              	.LFE44:
 1389              		.size	HAL_ADC_PollForEvent, .-HAL_ADC_PollForEvent
 1390              		.section	.text.HAL_ADC_Start_IT,"ax",%progbits
 1391              		.align	1
 1392              		.p2align 2,,3
 1393              		.global	HAL_ADC_Start_IT
 1394              		.syntax unified
 1395              		.code	16
 1396              		.thumb_func
 1397              		.fpu softvfp
 1398              		.type	HAL_ADC_Start_IT, %function
 1399              	HAL_ADC_Start_IT:
 1400              	.LFB45:
 1401              		.loc 1 1074 0
 1402              		.cfi_startproc
 1403              		@ args = 0, pretend = 0, frame = 8
 1404              		@ frame_needed = 0, uses_anonymous_args = 0
 1405              	.LVL100:
 1406              		.loc 1 1081 0
 1407 0000 0422     		movs	r2, #4
 1408              		.loc 1 1074 0
 1409 0002 70B5     		push	{r4, r5, r6, lr}
 1410              		.cfi_def_cfa_offset 16
 1411              		.cfi_offset 4, -16
 1412              		.cfi_offset 5, -12
 1413              		.cfi_offset 6, -8
 1414              		.cfi_offset 14, -4
 1415              		.loc 1 1081 0
 1416 0004 0368     		ldr	r3, [r0]
 1417              		.loc 1 1074 0
 1418 0006 82B0     		sub	sp, sp, #8
 1419              		.cfi_def_cfa_offset 24
 1420              		.loc 1 1081 0
 1421 0008 9968     		ldr	r1, [r3, #8]
 1422              		.loc 1 1074 0
 1423 000a 0400     		movs	r4, r0
 1424              		.loc 1 1081 0
 1425 000c 0A40     		ands	r2, r1
ARM GAS  C:\Users\anashi\AppData\Local\Temp\ccnNCtvk.s 			page 26


 1426 000e 53D1     		bne	.L170
 1427              		.loc 1 1084 0
 1428 0010 4021     		movs	r1, #64
 1429 0012 405C     		ldrb	r0, [r0, r1]
 1430              	.LVL101:
 1431 0014 0128     		cmp	r0, #1
 1432 0016 4FD0     		beq	.L170
 1433              		.loc 1 1084 0 is_stmt 0 discriminator 2
 1434 0018 0120     		movs	r0, #1
 1435 001a 6054     		strb	r0, [r4, r1]
 1436              		.loc 1 1089 0 is_stmt 1 discriminator 2
 1437 001c E169     		ldr	r1, [r4, #28]
 1438 001e 0129     		cmp	r1, #1
 1439 0020 1ED1     		bne	.L180
 1440              	.L159:
 1441              		.loc 1 1100 0
 1442 0022 626C     		ldr	r2, [r4, #68]
 1443 0024 3449     		ldr	r1, .L184
 1444 0026 1140     		ands	r1, r2
 1445 0028 8022     		movs	r2, #128
 1446 002a 5200     		lsls	r2, r2, #1
 1447 002c 0A43     		orrs	r2, r1
 1448 002e 6264     		str	r2, [r4, #68]
 1449              		.loc 1 1110 0
 1450 0030 4021     		movs	r1, #64
 1451              		.loc 1 1105 0
 1452 0032 0022     		movs	r2, #0
 1453 0034 A264     		str	r2, [r4, #72]
 1454              		.loc 1 1110 0
 1455 0036 6254     		strb	r2, [r4, r1]
 1456              		.loc 1 1119 0
 1457 0038 6169     		ldr	r1, [r4, #20]
 1458              		.loc 1 1115 0
 1459 003a 1C32     		adds	r2, r2, #28
 1460 003c 1A60     		str	r2, [r3]
 1461              		.loc 1 1119 0
 1462 003e 0829     		cmp	r1, #8
 1463 0040 3CD1     		bne	.L179
 1464              		.loc 1 1122 0
 1465 0042 5A68     		ldr	r2, [r3, #4]
 1466 0044 0439     		subs	r1, r1, #4
 1467 0046 8A43     		bics	r2, r1
 1468 0048 5A60     		str	r2, [r3, #4]
 1469              		.loc 1 1123 0
 1470 004a 5A68     		ldr	r2, [r3, #4]
 1471 004c 1431     		adds	r1, r1, #20
 1472 004e 0A43     		orrs	r2, r1
 1473 0050 5A60     		str	r2, [r3, #4]
 1474              	.L168:
 1475              		.loc 1 1135 0
 1476 0052 0421     		movs	r1, #4
 1477 0054 0020     		movs	r0, #0
 1478 0056 9A68     		ldr	r2, [r3, #8]
 1479 0058 0A43     		orrs	r2, r1
 1480 005a 9A60     		str	r2, [r3, #8]
 1481              	.LVL102:
 1482              	.L158:
ARM GAS  C:\Users\anashi\AppData\Local\Temp\ccnNCtvk.s 			page 27


 1483              		.loc 1 1145 0
 1484 005c 02B0     		add	sp, sp, #8
 1485              		@ sp needed
 1486              	.LVL103:
 1487 005e 70BD     		pop	{r4, r5, r6, pc}
 1488              	.LVL104:
 1489              	.L180:
 1490              	.LBB44:
 1491              	.LBB45:
 1492              		.loc 1 1913 0
 1493 0060 0192     		str	r2, [sp, #4]
 1494              		.loc 1 1919 0
 1495 0062 9968     		ldr	r1, [r3, #8]
 1496 0064 0332     		adds	r2, r2, #3
 1497 0066 0A40     		ands	r2, r1
 1498 0068 012A     		cmp	r2, #1
 1499 006a 35D0     		beq	.L181
 1500              	.L160:
 1501              		.loc 1 1922 0
 1502 006c 9968     		ldr	r1, [r3, #8]
 1503 006e 234A     		ldr	r2, .L184+4
 1504 0070 1142     		tst	r1, r2
 1505 0072 27D1     		bne	.L182
 1506              		.loc 1 1934 0
 1507 0074 0121     		movs	r1, #1
 1508 0076 9A68     		ldr	r2, [r3, #8]
 1509 0078 0A43     		orrs	r2, r1
 1510 007a 9A60     		str	r2, [r3, #8]
 1511              		.loc 1 1938 0
 1512 007c 204B     		ldr	r3, .L184+8
 1513 007e 2149     		ldr	r1, .L184+12
 1514 0080 1868     		ldr	r0, [r3]
 1515 0082 FFF7FEFF 		bl	__aeabi_uidiv
 1516              	.LVL105:
 1517 0086 0190     		str	r0, [sp, #4]
 1518              		.loc 1 1939 0
 1519 0088 019B     		ldr	r3, [sp, #4]
 1520 008a 002B     		cmp	r3, #0
 1521 008c 05D0     		beq	.L162
 1522              	.L163:
 1523              		.loc 1 1941 0
 1524 008e 019B     		ldr	r3, [sp, #4]
 1525 0090 013B     		subs	r3, r3, #1
 1526 0092 0193     		str	r3, [sp, #4]
 1527              		.loc 1 1939 0
 1528 0094 019B     		ldr	r3, [sp, #4]
 1529 0096 002B     		cmp	r3, #0
 1530 0098 F9D1     		bne	.L163
 1531              	.L162:
 1532              		.loc 1 1945 0
 1533 009a FFF7FEFF 		bl	HAL_GetTick
 1534              	.LVL106:
 1535              		.loc 1 1948 0
 1536 009e 0125     		movs	r5, #1
 1537              		.loc 1 1945 0
 1538 00a0 0600     		movs	r6, r0
 1539              	.LVL107:
ARM GAS  C:\Users\anashi\AppData\Local\Temp\ccnNCtvk.s 			page 28


 1540 00a2 04E0     		b	.L164
 1541              	.LVL108:
 1542              	.L165:
 1543              		.loc 1 1950 0
 1544 00a4 FFF7FEFF 		bl	HAL_GetTick
 1545              	.LVL109:
 1546 00a8 801B     		subs	r0, r0, r6
 1547 00aa 0228     		cmp	r0, #2
 1548 00ac 1BD8     		bhi	.L183
 1549              	.L164:
 1550              		.loc 1 1948 0
 1551 00ae 2368     		ldr	r3, [r4]
 1552 00b0 1A68     		ldr	r2, [r3]
 1553 00b2 1542     		tst	r5, r2
 1554 00b4 F6D0     		beq	.L165
 1555 00b6 B4E7     		b	.L159
 1556              	.LVL110:
 1557              	.L170:
 1558              	.LBE45:
 1559              	.LBE44:
 1560              		.loc 1 1140 0
 1561 00b8 0220     		movs	r0, #2
 1562 00ba CFE7     		b	.L158
 1563              	.L179:
 1564              		.loc 1 1127 0
 1565 00bc 5968     		ldr	r1, [r3, #4]
 1566 00be 0A43     		orrs	r2, r1
 1567 00c0 5A60     		str	r2, [r3, #4]
 1568              		.loc 1 1128 0
 1569 00c2 C6E7     		b	.L168
 1570              	.LVL111:
 1571              	.L182:
 1572              	.LBB47:
 1573              	.LBB46:
 1574              		.loc 1 1925 0
 1575 00c4 1022     		movs	r2, #16
 1576 00c6 636C     		ldr	r3, [r4, #68]
 1577              		.loc 1 1930 0
 1578 00c8 0120     		movs	r0, #1
 1579              		.loc 1 1925 0
 1580 00ca 1343     		orrs	r3, r2
 1581 00cc 6364     		str	r3, [r4, #68]
 1582              		.loc 1 1928 0
 1583 00ce A36C     		ldr	r3, [r4, #72]
 1584 00d0 0F3A     		subs	r2, r2, #15
 1585 00d2 1343     		orrs	r3, r2
 1586 00d4 A364     		str	r3, [r4, #72]
 1587              	.LVL112:
 1588 00d6 C1E7     		b	.L158
 1589              	.LVL113:
 1590              	.L181:
 1591              		.loc 1 1919 0
 1592 00d8 1968     		ldr	r1, [r3]
 1593 00da 0A42     		tst	r2, r1
 1594 00dc A1D1     		bne	.L159
 1595 00de DA68     		ldr	r2, [r3, #12]
 1596 00e0 1204     		lsls	r2, r2, #16
ARM GAS  C:\Users\anashi\AppData\Local\Temp\ccnNCtvk.s 			page 29


 1597 00e2 C3D5     		bpl	.L160
 1598 00e4 9DE7     		b	.L159
 1599              	.LVL114:
 1600              	.L183:
 1601              		.loc 1 1953 0
 1602 00e6 1022     		movs	r2, #16
 1603 00e8 636C     		ldr	r3, [r4, #68]
 1604              		.loc 1 1958 0
 1605 00ea 0120     		movs	r0, #1
 1606              		.loc 1 1953 0
 1607 00ec 1343     		orrs	r3, r2
 1608 00ee 6364     		str	r3, [r4, #68]
 1609              		.loc 1 1956 0
 1610 00f0 A36C     		ldr	r3, [r4, #72]
 1611 00f2 1D43     		orrs	r5, r3
 1612 00f4 A564     		str	r5, [r4, #72]
 1613              	.LVL115:
 1614 00f6 B1E7     		b	.L158
 1615              	.L185:
 1616              		.align	2
 1617              	.L184:
 1618 00f8 FEF0FFFF 		.word	-3842
 1619 00fc 17000080 		.word	-2147483625
 1620 0100 00000000 		.word	SystemCoreClock
 1621 0104 40420F00 		.word	1000000
 1622              	.LBE46:
 1623              	.LBE47:
 1624              		.cfi_endproc
 1625              	.LFE45:
 1626              		.size	HAL_ADC_Start_IT, .-HAL_ADC_Start_IT
 1627              		.section	.text.HAL_ADC_Stop_IT,"ax",%progbits
 1628              		.align	1
 1629              		.p2align 2,,3
 1630              		.global	HAL_ADC_Stop_IT
 1631              		.syntax unified
 1632              		.code	16
 1633              		.thumb_func
 1634              		.fpu softvfp
 1635              		.type	HAL_ADC_Stop_IT, %function
 1636              	HAL_ADC_Stop_IT:
 1637              	.LFB46:
 1638              		.loc 1 1155 0
 1639              		.cfi_startproc
 1640              		@ args = 0, pretend = 0, frame = 0
 1641              		@ frame_needed = 0, uses_anonymous_args = 0
 1642              	.LVL116:
 1643              		.loc 1 1162 0
 1644 0000 4023     		movs	r3, #64
 1645              		.loc 1 1155 0
 1646 0002 70B5     		push	{r4, r5, r6, lr}
 1647              		.cfi_def_cfa_offset 16
 1648              		.cfi_offset 4, -16
 1649              		.cfi_offset 5, -12
 1650              		.cfi_offset 6, -8
 1651              		.cfi_offset 14, -4
 1652              		.loc 1 1162 0
 1653 0004 C25C     		ldrb	r2, [r0, r3]
ARM GAS  C:\Users\anashi\AppData\Local\Temp\ccnNCtvk.s 			page 30


 1654              		.loc 1 1155 0
 1655 0006 0400     		movs	r4, r0
 1656              		.loc 1 1162 0
 1657 0008 012A     		cmp	r2, #1
 1658 000a 29D0     		beq	.L199
 1659              		.loc 1 1162 0 is_stmt 0 discriminator 2
 1660 000c 0122     		movs	r2, #1
 1661 000e C254     		strb	r2, [r0, r3]
 1662              	.LVL117:
 1663              	.LBB54:
 1664              	.LBB55:
 1665              		.loc 1 2041 0 is_stmt 1 discriminator 2
 1666 0010 0368     		ldr	r3, [r0]
 1667 0012 0332     		adds	r2, r2, #3
 1668 0014 9968     		ldr	r1, [r3, #8]
 1669 0016 0A42     		tst	r2, r1
 1670 0018 10D0     		beq	.L188
 1671              		.loc 1 2046 0
 1672 001a 9968     		ldr	r1, [r3, #8]
 1673 001c 0A42     		tst	r2, r1
 1674 001e 39D1     		bne	.L211
 1675              	.L189:
 1676              		.loc 1 2055 0
 1677 0020 FFF7FEFF 		bl	HAL_GetTick
 1678              	.LVL118:
 1679              		.loc 1 2057 0
 1680 0024 0425     		movs	r5, #4
 1681              		.loc 1 2055 0
 1682 0026 0600     		movs	r6, r0
 1683              	.LVL119:
 1684 0028 04E0     		b	.L190
 1685              	.LVL120:
 1686              	.L192:
 1687              		.loc 1 2059 0
 1688 002a FFF7FEFF 		bl	HAL_GetTick
 1689              	.LVL121:
 1690 002e 801B     		subs	r0, r0, r6
 1691 0030 0228     		cmp	r0, #2
 1692 0032 22D8     		bhi	.L196
 1693              	.L190:
 1694              		.loc 1 2057 0
 1695 0034 2368     		ldr	r3, [r4]
 1696 0036 9A68     		ldr	r2, [r3, #8]
 1697 0038 1542     		tst	r5, r2
 1698 003a F6D1     		bne	.L192
 1699              	.LVL122:
 1700              	.L188:
 1701              	.LBE55:
 1702              	.LBE54:
 1703              		.loc 1 1172 0
 1704 003c 1C21     		movs	r1, #28
 1705 003e 5A68     		ldr	r2, [r3, #4]
 1706 0040 8A43     		bics	r2, r1
 1707 0042 5A60     		str	r2, [r3, #4]
 1708              	.LVL123:
 1709              	.LBB57:
 1710              	.LBB58:
ARM GAS  C:\Users\anashi\AppData\Local\Temp\ccnNCtvk.s 			page 31


 1711              		.loc 1 1982 0
 1712 0044 0322     		movs	r2, #3
 1713 0046 9968     		ldr	r1, [r3, #8]
 1714 0048 0A40     		ands	r2, r1
 1715 004a 012A     		cmp	r2, #1
 1716 004c 0AD0     		beq	.L193
 1717              	.LVL124:
 1718              	.L195:
 1719              	.LBE58:
 1720              	.LBE57:
 1721              		.loc 1 1181 0
 1722 004e 636C     		ldr	r3, [r4, #68]
 1723 0050 234A     		ldr	r2, .L214
 1724              		.loc 1 1175 0
 1725 0052 0020     		movs	r0, #0
 1726              		.loc 1 1181 0
 1727 0054 1340     		ands	r3, r2
 1728 0056 0432     		adds	r2, r2, #4
 1729 0058 FF32     		adds	r2, r2, #255
 1730 005a 1343     		orrs	r3, r2
 1731 005c 6364     		str	r3, [r4, #68]
 1732 005e 15E0     		b	.L191
 1733              	.LVL125:
 1734              	.L199:
 1735              		.loc 1 1162 0
 1736 0060 0220     		movs	r0, #2
 1737              	.LVL126:
 1738              	.L187:
 1739              		.loc 1 1192 0
 1740              		@ sp needed
 1741              	.LVL127:
 1742 0062 70BD     		pop	{r4, r5, r6, pc}
 1743              	.LVL128:
 1744              	.L193:
 1745              	.LBB61:
 1746              	.LBB59:
 1747              		.loc 1 1982 0
 1748 0064 1968     		ldr	r1, [r3]
 1749 0066 0A42     		tst	r2, r1
 1750 0068 02D1     		bne	.L194
 1751 006a DA68     		ldr	r2, [r3, #12]
 1752 006c 1204     		lsls	r2, r2, #16
 1753 006e EED5     		bpl	.L195
 1754              	.L194:
 1755              		.loc 1 1985 0
 1756 0070 0522     		movs	r2, #5
 1757 0072 9968     		ldr	r1, [r3, #8]
 1758 0074 0A40     		ands	r2, r1
 1759 0076 012A     		cmp	r2, #1
 1760 0078 14D0     		beq	.L212
 1761              	.LVL129:
 1762              	.L196:
 1763              		.loc 1 1993 0
 1764 007a 1022     		movs	r2, #16
 1765              		.loc 1 1998 0
 1766 007c 0120     		movs	r0, #1
 1767              		.loc 1 1993 0
ARM GAS  C:\Users\anashi\AppData\Local\Temp\ccnNCtvk.s 			page 32


 1768 007e 636C     		ldr	r3, [r4, #68]
 1769 0080 1343     		orrs	r3, r2
 1770 0082 6364     		str	r3, [r4, #68]
 1771              		.loc 1 1996 0
 1772 0084 A36C     		ldr	r3, [r4, #72]
 1773 0086 0F3A     		subs	r2, r2, #15
 1774 0088 1343     		orrs	r3, r2
 1775 008a A364     		str	r3, [r4, #72]
 1776              	.LVL130:
 1777              	.L191:
 1778              	.LBE59:
 1779              	.LBE61:
 1780              		.loc 1 1188 0
 1781 008c 4023     		movs	r3, #64
 1782 008e 0022     		movs	r2, #0
 1783 0090 E254     		strb	r2, [r4, r3]
 1784              		.loc 1 1191 0
 1785 0092 E6E7     		b	.L187
 1786              	.LVL131:
 1787              	.L211:
 1788              	.LBB62:
 1789              	.LBB56:
 1790              		.loc 1 2047 0
 1791 0094 9A68     		ldr	r2, [r3, #8]
 1792              		.loc 1 2046 0
 1793 0096 9207     		lsls	r2, r2, #30
 1794 0098 C2D4     		bmi	.L189
 1795              		.loc 1 2050 0
 1796 009a 1021     		movs	r1, #16
 1797 009c 9A68     		ldr	r2, [r3, #8]
 1798 009e 0A43     		orrs	r2, r1
 1799 00a0 9A60     		str	r2, [r3, #8]
 1800 00a2 BDE7     		b	.L189
 1801              	.LVL132:
 1802              	.L212:
 1803              	.LBE56:
 1804              	.LBE62:
 1805              	.LBB63:
 1806              	.LBB60:
 1807              		.loc 1 1988 0
 1808 00a4 0221     		movs	r1, #2
 1809 00a6 9A68     		ldr	r2, [r3, #8]
 1810              		.loc 1 2005 0
 1811 00a8 0125     		movs	r5, #1
 1812              		.loc 1 1988 0
 1813 00aa 0A43     		orrs	r2, r1
 1814 00ac 9A60     		str	r2, [r3, #8]
 1815 00ae 0322     		movs	r2, #3
 1816 00b0 1A60     		str	r2, [r3]
 1817              		.loc 1 2003 0
 1818 00b2 FFF7FEFF 		bl	HAL_GetTick
 1819              	.LVL133:
 1820 00b6 0600     		movs	r6, r0
 1821              	.LVL134:
 1822 00b8 04E0     		b	.L197
 1823              	.LVL135:
 1824              	.L198:
ARM GAS  C:\Users\anashi\AppData\Local\Temp\ccnNCtvk.s 			page 33


 1825              		.loc 1 2007 0
 1826 00ba FFF7FEFF 		bl	HAL_GetTick
 1827              	.LVL136:
 1828 00be 801B     		subs	r0, r0, r6
 1829 00c0 0228     		cmp	r0, #2
 1830 00c2 04D8     		bhi	.L213
 1831              	.L197:
 1832              		.loc 1 2005 0
 1833 00c4 2368     		ldr	r3, [r4]
 1834 00c6 9B68     		ldr	r3, [r3, #8]
 1835 00c8 1D42     		tst	r5, r3
 1836 00ca F6D1     		bne	.L198
 1837 00cc BFE7     		b	.L195
 1838              	.L213:
 1839              		.loc 1 2010 0
 1840 00ce 1022     		movs	r2, #16
 1841 00d0 636C     		ldr	r3, [r4, #68]
 1842              		.loc 1 2015 0
 1843 00d2 0120     		movs	r0, #1
 1844              		.loc 1 2010 0
 1845 00d4 1343     		orrs	r3, r2
 1846 00d6 6364     		str	r3, [r4, #68]
 1847              		.loc 1 2013 0
 1848 00d8 A36C     		ldr	r3, [r4, #72]
 1849 00da 1D43     		orrs	r5, r3
 1850 00dc A564     		str	r5, [r4, #72]
 1851              	.LVL137:
 1852 00de D5E7     		b	.L191
 1853              	.L215:
 1854              		.align	2
 1855              	.L214:
 1856 00e0 FEFEFFFF 		.word	-258
 1857              	.LBE60:
 1858              	.LBE63:
 1859              		.cfi_endproc
 1860              	.LFE46:
 1861              		.size	HAL_ADC_Stop_IT, .-HAL_ADC_Stop_IT
 1862              		.section	.text.HAL_ADC_Start_DMA,"ax",%progbits
 1863              		.align	1
 1864              		.p2align 2,,3
 1865              		.global	HAL_ADC_Start_DMA
 1866              		.syntax unified
 1867              		.code	16
 1868              		.thumb_func
 1869              		.fpu softvfp
 1870              		.type	HAL_ADC_Start_DMA, %function
 1871              	HAL_ADC_Start_DMA:
 1872              	.LFB47:
 1873              		.loc 1 1208 0
 1874              		.cfi_startproc
 1875              		@ args = 0, pretend = 0, frame = 8
 1876              		@ frame_needed = 0, uses_anonymous_args = 0
 1877              	.LVL138:
 1878 0000 F0B5     		push	{r4, r5, r6, r7, lr}
 1879              		.cfi_def_cfa_offset 20
 1880              		.cfi_offset 4, -20
 1881              		.cfi_offset 5, -16
ARM GAS  C:\Users\anashi\AppData\Local\Temp\ccnNCtvk.s 			page 34


 1882              		.cfi_offset 6, -12
 1883              		.cfi_offset 7, -8
 1884              		.cfi_offset 14, -4
 1885 0002 C646     		mov	lr, r8
 1886              		.loc 1 1215 0
 1887 0004 0423     		movs	r3, #4
 1888              		.loc 1 1208 0
 1889 0006 00B5     		push	{lr}
 1890              		.cfi_def_cfa_offset 24
 1891              		.cfi_offset 8, -24
 1892 0008 0D00     		movs	r5, r1
 1893              		.loc 1 1215 0
 1894 000a 0168     		ldr	r1, [r0]
 1895              	.LVL139:
 1896              		.loc 1 1208 0
 1897 000c 1600     		movs	r6, r2
 1898              		.loc 1 1215 0
 1899 000e 8A68     		ldr	r2, [r1, #8]
 1900              	.LVL140:
 1901              		.loc 1 1208 0
 1902 0010 82B0     		sub	sp, sp, #8
 1903              		.cfi_def_cfa_offset 32
 1904              		.loc 1 1208 0
 1905 0012 0400     		movs	r4, r0
 1906              		.loc 1 1215 0
 1907 0014 1340     		ands	r3, r2
 1908 0016 5FD1     		bne	.L226
 1909              		.loc 1 1218 0
 1910 0018 4022     		movs	r2, #64
 1911 001a 805C     		ldrb	r0, [r0, r2]
 1912              	.LVL141:
 1913 001c 0128     		cmp	r0, #1
 1914 001e 5BD0     		beq	.L226
 1915              		.loc 1 1218 0 is_stmt 0 discriminator 2
 1916 0020 0120     		movs	r0, #1
 1917 0022 A054     		strb	r0, [r4, r2]
 1918              		.loc 1 1223 0 is_stmt 1 discriminator 2
 1919 0024 E269     		ldr	r2, [r4, #28]
 1920 0026 012A     		cmp	r2, #1
 1921 0028 2BD0     		beq	.L218
 1922              	.LVL142:
 1923              	.LBB66:
 1924              	.LBB67:
 1925              		.loc 1 1913 0
 1926 002a 0193     		str	r3, [sp, #4]
 1927              		.loc 1 1919 0
 1928 002c 8A68     		ldr	r2, [r1, #8]
 1929 002e 0333     		adds	r3, r3, #3
 1930 0030 1340     		ands	r3, r2
 1931 0032 012B     		cmp	r3, #1
 1932 0034 5CD0     		beq	.L235
 1933              	.L219:
 1934              		.loc 1 1922 0
 1935 0036 8A68     		ldr	r2, [r1, #8]
 1936 0038 354B     		ldr	r3, .L238
 1937 003a 1A42     		tst	r2, r3
 1938 003c 4ED1     		bne	.L236
ARM GAS  C:\Users\anashi\AppData\Local\Temp\ccnNCtvk.s 			page 35


 1939              		.loc 1 1934 0
 1940 003e 0122     		movs	r2, #1
 1941 0040 8B68     		ldr	r3, [r1, #8]
 1942 0042 1343     		orrs	r3, r2
 1943 0044 8B60     		str	r3, [r1, #8]
 1944              		.loc 1 1938 0
 1945 0046 334B     		ldr	r3, .L238+4
 1946 0048 3349     		ldr	r1, .L238+8
 1947 004a 1868     		ldr	r0, [r3]
 1948 004c FFF7FEFF 		bl	__aeabi_uidiv
 1949              	.LVL143:
 1950 0050 0190     		str	r0, [sp, #4]
 1951              		.loc 1 1939 0
 1952 0052 019B     		ldr	r3, [sp, #4]
 1953 0054 002B     		cmp	r3, #0
 1954 0056 05D0     		beq	.L221
 1955              	.L222:
 1956              		.loc 1 1941 0
 1957 0058 019B     		ldr	r3, [sp, #4]
 1958 005a 013B     		subs	r3, r3, #1
 1959 005c 0193     		str	r3, [sp, #4]
 1960              		.loc 1 1939 0
 1961 005e 019B     		ldr	r3, [sp, #4]
 1962 0060 002B     		cmp	r3, #0
 1963 0062 F9D1     		bne	.L222
 1964              	.L221:
 1965              		.loc 1 1945 0
 1966 0064 FFF7FEFF 		bl	HAL_GetTick
 1967              	.LVL144:
 1968              		.loc 1 1948 0
 1969 0068 0127     		movs	r7, #1
 1970              		.loc 1 1945 0
 1971 006a 8046     		mov	r8, r0
 1972              	.LVL145:
 1973 006c 05E0     		b	.L223
 1974              	.LVL146:
 1975              	.L224:
 1976              		.loc 1 1950 0
 1977 006e FFF7FEFF 		bl	HAL_GetTick
 1978              	.LVL147:
 1979 0072 4346     		mov	r3, r8
 1980 0074 C01A     		subs	r0, r0, r3
 1981 0076 0228     		cmp	r0, #2
 1982 0078 41D8     		bhi	.L237
 1983              	.L223:
 1984              		.loc 1 1948 0
 1985 007a 2168     		ldr	r1, [r4]
 1986 007c 0B68     		ldr	r3, [r1]
 1987 007e 1F42     		tst	r7, r3
 1988 0080 F5D0     		beq	.L224
 1989              	.LVL148:
 1990              	.L218:
 1991              	.LBE67:
 1992              	.LBE66:
 1993              		.loc 1 1234 0
 1994 0082 636C     		ldr	r3, [r4, #68]
 1995 0084 254A     		ldr	r2, .L238+12
ARM GAS  C:\Users\anashi\AppData\Local\Temp\ccnNCtvk.s 			page 36


 1996              		.loc 1 1247 0
 1997 0086 E06B     		ldr	r0, [r4, #60]
 1998              		.loc 1 1234 0
 1999 0088 1A40     		ands	r2, r3
 2000 008a 8023     		movs	r3, #128
 2001 008c 5B00     		lsls	r3, r3, #1
 2002 008e 1343     		orrs	r3, r2
 2003 0090 6364     		str	r3, [r4, #68]
 2004              		.loc 1 1244 0
 2005 0092 4022     		movs	r2, #64
 2006              		.loc 1 1239 0
 2007 0094 0023     		movs	r3, #0
 2008 0096 A364     		str	r3, [r4, #72]
 2009              		.loc 1 1244 0
 2010 0098 A354     		strb	r3, [r4, r2]
 2011              		.loc 1 1247 0
 2012 009a 214B     		ldr	r3, .L238+16
 2013              		.loc 1 1265 0
 2014 009c 303A     		subs	r2, r2, #48
 2015              		.loc 1 1247 0
 2016 009e 8362     		str	r3, [r0, #40]
 2017              		.loc 1 1250 0
 2018 00a0 204B     		ldr	r3, .L238+20
 2019 00a2 C362     		str	r3, [r0, #44]
 2020              		.loc 1 1253 0
 2021 00a4 204B     		ldr	r3, .L238+24
 2022 00a6 0363     		str	r3, [r0, #48]
 2023              		.loc 1 1262 0
 2024 00a8 1C23     		movs	r3, #28
 2025 00aa 0B60     		str	r3, [r1]
 2026              		.loc 1 1265 0
 2027 00ac 4B68     		ldr	r3, [r1, #4]
 2028 00ae 1343     		orrs	r3, r2
 2029 00b0 4B60     		str	r3, [r1, #4]
 2030              		.loc 1 1268 0
 2031 00b2 CB68     		ldr	r3, [r1, #12]
 2032 00b4 0F3A     		subs	r2, r2, #15
 2033 00b6 1343     		orrs	r3, r2
 2034 00b8 CB60     		str	r3, [r1, #12]
 2035              		.loc 1 1271 0
 2036 00ba 2A00     		movs	r2, r5
 2037 00bc 4031     		adds	r1, r1, #64
 2038 00be 3300     		movs	r3, r6
 2039 00c0 FFF7FEFF 		bl	HAL_DMA_Start_IT
 2040              	.LVL149:
 2041              		.loc 1 1277 0
 2042 00c4 0421     		movs	r1, #4
 2043 00c6 0020     		movs	r0, #0
 2044 00c8 2268     		ldr	r2, [r4]
 2045 00ca 9368     		ldr	r3, [r2, #8]
 2046 00cc 0B43     		orrs	r3, r1
 2047 00ce 9360     		str	r3, [r2, #8]
 2048              	.LVL150:
 2049              	.L217:
 2050              		.loc 1 1287 0
 2051 00d0 02B0     		add	sp, sp, #8
 2052              		@ sp needed
ARM GAS  C:\Users\anashi\AppData\Local\Temp\ccnNCtvk.s 			page 37


 2053              	.LVL151:
 2054              	.LVL152:
 2055              	.LVL153:
 2056 00d2 04BC     		pop	{r2}
 2057 00d4 9046     		mov	r8, r2
 2058 00d6 F0BD     		pop	{r4, r5, r6, r7, pc}
 2059              	.LVL154:
 2060              	.L226:
 2061              		.loc 1 1282 0
 2062 00d8 0220     		movs	r0, #2
 2063 00da F9E7     		b	.L217
 2064              	.LVL155:
 2065              	.L236:
 2066              	.LBB69:
 2067              	.LBB68:
 2068              		.loc 1 1925 0
 2069 00dc 1022     		movs	r2, #16
 2070 00de 636C     		ldr	r3, [r4, #68]
 2071              		.loc 1 1930 0
 2072 00e0 0120     		movs	r0, #1
 2073              		.loc 1 1925 0
 2074 00e2 1343     		orrs	r3, r2
 2075 00e4 6364     		str	r3, [r4, #68]
 2076              		.loc 1 1928 0
 2077 00e6 A36C     		ldr	r3, [r4, #72]
 2078 00e8 0F3A     		subs	r2, r2, #15
 2079 00ea 1343     		orrs	r3, r2
 2080 00ec A364     		str	r3, [r4, #72]
 2081              	.LVL156:
 2082 00ee EFE7     		b	.L217
 2083              	.LVL157:
 2084              	.L235:
 2085              		.loc 1 1919 0
 2086 00f0 0A68     		ldr	r2, [r1]
 2087 00f2 1342     		tst	r3, r2
 2088 00f4 C5D1     		bne	.L218
 2089 00f6 CB68     		ldr	r3, [r1, #12]
 2090 00f8 1B04     		lsls	r3, r3, #16
 2091 00fa 9CD5     		bpl	.L219
 2092 00fc C1E7     		b	.L218
 2093              	.LVL158:
 2094              	.L237:
 2095              		.loc 1 1953 0
 2096 00fe 1022     		movs	r2, #16
 2097 0100 636C     		ldr	r3, [r4, #68]
 2098              	.LVL159:
 2099              		.loc 1 1958 0
 2100 0102 0120     		movs	r0, #1
 2101              		.loc 1 1953 0
 2102 0104 1343     		orrs	r3, r2
 2103 0106 6364     		str	r3, [r4, #68]
 2104              		.loc 1 1956 0
 2105 0108 A36C     		ldr	r3, [r4, #72]
 2106 010a 1F43     		orrs	r7, r3
 2107 010c A764     		str	r7, [r4, #72]
 2108              	.LVL160:
 2109 010e DFE7     		b	.L217
ARM GAS  C:\Users\anashi\AppData\Local\Temp\ccnNCtvk.s 			page 38


 2110              	.L239:
 2111              		.align	2
 2112              	.L238:
 2113 0110 17000080 		.word	-2147483625
 2114 0114 00000000 		.word	SystemCoreClock
 2115 0118 40420F00 		.word	1000000
 2116 011c FEF0FFFF 		.word	-3842
 2117 0120 00000000 		.word	ADC_DMAConvCplt
 2118 0124 00000000 		.word	ADC_DMAHalfConvCplt
 2119 0128 00000000 		.word	ADC_DMAError
 2120              	.LBE68:
 2121              	.LBE69:
 2122              		.cfi_endproc
 2123              	.LFE47:
 2124              		.size	HAL_ADC_Start_DMA, .-HAL_ADC_Start_DMA
 2125              		.section	.text.HAL_ADC_Stop_DMA,"ax",%progbits
 2126              		.align	1
 2127              		.p2align 2,,3
 2128              		.global	HAL_ADC_Stop_DMA
 2129              		.syntax unified
 2130              		.code	16
 2131              		.thumb_func
 2132              		.fpu softvfp
 2133              		.type	HAL_ADC_Stop_DMA, %function
 2134              	HAL_ADC_Stop_DMA:
 2135              	.LFB48:
 2136              		.loc 1 1297 0
 2137              		.cfi_startproc
 2138              		@ args = 0, pretend = 0, frame = 0
 2139              		@ frame_needed = 0, uses_anonymous_args = 0
 2140              	.LVL161:
 2141 0000 F8B5     		push	{r3, r4, r5, r6, r7, lr}
 2142              		.cfi_def_cfa_offset 24
 2143              		.cfi_offset 3, -24
 2144              		.cfi_offset 4, -20
 2145              		.cfi_offset 5, -16
 2146              		.cfi_offset 6, -12
 2147              		.cfi_offset 7, -8
 2148              		.cfi_offset 14, -4
 2149              		.loc 1 1304 0
 2150 0002 4023     		movs	r3, #64
 2151 0004 C25C     		ldrb	r2, [r0, r3]
 2152              		.loc 1 1297 0
 2153 0006 0400     		movs	r4, r0
 2154              		.loc 1 1304 0
 2155 0008 012A     		cmp	r2, #1
 2156 000a 32D0     		beq	.L259
 2157              		.loc 1 1304 0 is_stmt 0 discriminator 2
 2158 000c 0122     		movs	r2, #1
 2159 000e C254     		strb	r2, [r0, r3]
 2160              	.LVL162:
 2161              	.LBB78:
 2162              	.LBB79:
 2163              		.loc 1 2041 0 is_stmt 1 discriminator 2
 2164 0010 0368     		ldr	r3, [r0]
 2165 0012 0332     		adds	r2, r2, #3
 2166 0014 9968     		ldr	r1, [r3, #8]
ARM GAS  C:\Users\anashi\AppData\Local\Temp\ccnNCtvk.s 			page 39


 2167 0016 0A42     		tst	r2, r1
 2168 0018 10D0     		beq	.L242
 2169              		.loc 1 2046 0
 2170 001a 9968     		ldr	r1, [r3, #8]
 2171 001c 0A42     		tst	r2, r1
 2172 001e 38D1     		bne	.L276
 2173              	.L243:
 2174              		.loc 1 2055 0
 2175 0020 FFF7FEFF 		bl	HAL_GetTick
 2176              	.LVL163:
 2177              		.loc 1 2057 0
 2178 0024 0425     		movs	r5, #4
 2179              		.loc 1 2055 0
 2180 0026 0600     		movs	r6, r0
 2181              	.LVL164:
 2182 0028 04E0     		b	.L244
 2183              	.LVL165:
 2184              	.L246:
 2185              		.loc 1 2059 0
 2186 002a FFF7FEFF 		bl	HAL_GetTick
 2187              	.LVL166:
 2188 002e 801B     		subs	r0, r0, r6
 2189 0030 0228     		cmp	r0, #2
 2190 0032 21D8     		bhi	.L251
 2191              	.L244:
 2192              		.loc 1 2057 0
 2193 0034 2368     		ldr	r3, [r4]
 2194 0036 9A68     		ldr	r2, [r3, #8]
 2195 0038 1542     		tst	r5, r2
 2196 003a F6D1     		bne	.L246
 2197              	.LVL167:
 2198              	.L242:
 2199              	.LBE79:
 2200              	.LBE78:
 2201              		.loc 1 1313 0
 2202 003c 0121     		movs	r1, #1
 2203 003e DA68     		ldr	r2, [r3, #12]
 2204              		.loc 1 1317 0
 2205 0040 E06B     		ldr	r0, [r4, #60]
 2206              		.loc 1 1313 0
 2207 0042 8A43     		bics	r2, r1
 2208 0044 DA60     		str	r2, [r3, #12]
 2209              		.loc 1 1317 0
 2210 0046 FFF7FEFF 		bl	HAL_DMA_Abort
 2211              	.LVL168:
 2212 004a 051E     		subs	r5, r0, #0
 2213              	.LVL169:
 2214              		.loc 1 1320 0
 2215 004c 29D1     		bne	.L277
 2216              		.loc 1 1327 0
 2217 004e 1021     		movs	r1, #16
 2218 0050 2368     		ldr	r3, [r4]
 2219 0052 5A68     		ldr	r2, [r3, #4]
 2220 0054 8A43     		bics	r2, r1
 2221 0056 5A60     		str	r2, [r3, #4]
 2222              	.LVL170:
 2223              	.LBB81:
ARM GAS  C:\Users\anashi\AppData\Local\Temp\ccnNCtvk.s 			page 40


 2224              	.LBB82:
 2225              		.loc 1 1982 0
 2226 0058 0322     		movs	r2, #3
 2227 005a 9968     		ldr	r1, [r3, #8]
 2228 005c 0A40     		ands	r2, r1
 2229 005e 012A     		cmp	r2, #1
 2230 0060 41D0     		beq	.L278
 2231              	.LVL171:
 2232              	.L250:
 2233              	.LBE82:
 2234              	.LBE81:
 2235              		.loc 1 1345 0
 2236 0062 636C     		ldr	r3, [r4, #68]
 2237 0064 414A     		ldr	r2, .L280
 2238 0066 1340     		ands	r3, r2
 2239 0068 0432     		adds	r2, r2, #4
 2240 006a FF32     		adds	r2, r2, #255
 2241 006c 1343     		orrs	r3, r2
 2242 006e 6364     		str	r3, [r4, #68]
 2243 0070 0BE0     		b	.L245
 2244              	.LVL172:
 2245              	.L259:
 2246              		.loc 1 1304 0
 2247 0072 0225     		movs	r5, #2
 2248              	.LVL173:
 2249              	.L275:
 2250              		.loc 1 1357 0
 2251 0074 2800     		movs	r0, r5
 2252              		@ sp needed
 2253              	.LVL174:
 2254 0076 F8BD     		pop	{r3, r4, r5, r6, r7, pc}
 2255              	.LVL175:
 2256              	.L251:
 2257              	.LBB85:
 2258              	.LBB83:
 2259              		.loc 1 1993 0
 2260 0078 1022     		movs	r2, #16
 2261              		.loc 1 1998 0
 2262 007a 0125     		movs	r5, #1
 2263              		.loc 1 1993 0
 2264 007c 636C     		ldr	r3, [r4, #68]
 2265 007e 1343     		orrs	r3, r2
 2266 0080 6364     		str	r3, [r4, #68]
 2267              		.loc 1 1996 0
 2268 0082 A36C     		ldr	r3, [r4, #72]
 2269 0084 0F3A     		subs	r2, r2, #15
 2270 0086 1343     		orrs	r3, r2
 2271 0088 A364     		str	r3, [r4, #72]
 2272              	.LVL176:
 2273              	.L245:
 2274              	.LBE83:
 2275              	.LBE85:
 2276              		.loc 1 1353 0
 2277 008a 4023     		movs	r3, #64
 2278 008c 0022     		movs	r2, #0
 2279 008e E254     		strb	r2, [r4, r3]
 2280              		.loc 1 1356 0
ARM GAS  C:\Users\anashi\AppData\Local\Temp\ccnNCtvk.s 			page 41


 2281 0090 F0E7     		b	.L275
 2282              	.LVL177:
 2283              	.L276:
 2284              	.LBB86:
 2285              	.LBB80:
 2286              		.loc 1 2047 0
 2287 0092 9A68     		ldr	r2, [r3, #8]
 2288              		.loc 1 2046 0
 2289 0094 9207     		lsls	r2, r2, #30
 2290 0096 C3D4     		bmi	.L243
 2291              		.loc 1 2050 0
 2292 0098 1021     		movs	r1, #16
 2293 009a 9A68     		ldr	r2, [r3, #8]
 2294 009c 0A43     		orrs	r2, r1
 2295 009e 9A60     		str	r2, [r3, #8]
 2296 00a0 BEE7     		b	.L243
 2297              	.LVL178:
 2298              	.L277:
 2299              	.LBE80:
 2300              	.LBE86:
 2301              		.loc 1 1323 0
 2302 00a2 4022     		movs	r2, #64
 2303              		.loc 1 1327 0
 2304 00a4 1021     		movs	r1, #16
 2305              		.loc 1 1323 0
 2306 00a6 636C     		ldr	r3, [r4, #68]
 2307 00a8 1343     		orrs	r3, r2
 2308 00aa 6364     		str	r3, [r4, #68]
 2309              		.loc 1 1327 0
 2310 00ac 2368     		ldr	r3, [r4]
 2311 00ae 5A68     		ldr	r2, [r3, #4]
 2312 00b0 8A43     		bics	r2, r1
 2313 00b2 5A60     		str	r2, [r3, #4]
 2314              	.LVL179:
 2315              	.LBB87:
 2316              	.LBB88:
 2317              		.loc 1 1982 0
 2318 00b4 0322     		movs	r2, #3
 2319 00b6 9968     		ldr	r1, [r3, #8]
 2320 00b8 0A40     		ands	r2, r1
 2321 00ba 012A     		cmp	r2, #1
 2322 00bc E5D1     		bne	.L245
 2323 00be 1968     		ldr	r1, [r3]
 2324 00c0 0A42     		tst	r2, r1
 2325 00c2 02D1     		bne	.L254
 2326 00c4 DA68     		ldr	r2, [r3, #12]
 2327 00c6 1204     		lsls	r2, r2, #16
 2328 00c8 DFD5     		bpl	.L245
 2329              	.L254:
 2330              		.loc 1 1985 0
 2331 00ca 0522     		movs	r2, #5
 2332 00cc 9968     		ldr	r1, [r3, #8]
 2333 00ce 0A40     		ands	r2, r1
 2334 00d0 012A     		cmp	r2, #1
 2335 00d2 2FD0     		beq	.L279
 2336              		.loc 1 1993 0
 2337 00d4 1022     		movs	r2, #16
ARM GAS  C:\Users\anashi\AppData\Local\Temp\ccnNCtvk.s 			page 42


 2338 00d6 636C     		ldr	r3, [r4, #68]
 2339 00d8 1343     		orrs	r3, r2
 2340 00da 6364     		str	r3, [r4, #68]
 2341              		.loc 1 1996 0
 2342 00dc A36C     		ldr	r3, [r4, #72]
 2343 00de 0F3A     		subs	r2, r2, #15
 2344 00e0 1343     		orrs	r3, r2
 2345 00e2 A364     		str	r3, [r4, #72]
 2346 00e4 D1E7     		b	.L245
 2347              	.LVL180:
 2348              	.L278:
 2349              	.LBE88:
 2350              	.LBE87:
 2351              	.LBB90:
 2352              	.LBB84:
 2353              		.loc 1 1982 0
 2354 00e6 1968     		ldr	r1, [r3]
 2355 00e8 0A42     		tst	r2, r1
 2356 00ea 02D1     		bne	.L249
 2357 00ec DA68     		ldr	r2, [r3, #12]
 2358 00ee 1204     		lsls	r2, r2, #16
 2359 00f0 B7D5     		bpl	.L250
 2360              	.L249:
 2361              		.loc 1 1985 0
 2362 00f2 0522     		movs	r2, #5
 2363 00f4 9968     		ldr	r1, [r3, #8]
 2364 00f6 0A40     		ands	r2, r1
 2365 00f8 012A     		cmp	r2, #1
 2366 00fa BDD1     		bne	.L251
 2367              		.loc 1 1988 0
 2368 00fc 0221     		movs	r1, #2
 2369 00fe 9A68     		ldr	r2, [r3, #8]
 2370              		.loc 1 2005 0
 2371 0100 0126     		movs	r6, #1
 2372              		.loc 1 1988 0
 2373 0102 0A43     		orrs	r2, r1
 2374 0104 9A60     		str	r2, [r3, #8]
 2375 0106 0322     		movs	r2, #3
 2376 0108 1A60     		str	r2, [r3]
 2377              		.loc 1 2003 0
 2378 010a FFF7FEFF 		bl	HAL_GetTick
 2379              	.LVL181:
 2380 010e 0700     		movs	r7, r0
 2381              	.LVL182:
 2382              	.L252:
 2383              		.loc 1 2005 0
 2384 0110 2368     		ldr	r3, [r4]
 2385 0112 9B68     		ldr	r3, [r3, #8]
 2386 0114 1E42     		tst	r6, r3
 2387 0116 A4D0     		beq	.L250
 2388              		.loc 1 2007 0
 2389 0118 FFF7FEFF 		bl	HAL_GetTick
 2390              	.LVL183:
 2391 011c C01B     		subs	r0, r0, r7
 2392 011e 0228     		cmp	r0, #2
 2393 0120 F6D9     		bls	.L252
 2394              		.loc 1 2010 0
ARM GAS  C:\Users\anashi\AppData\Local\Temp\ccnNCtvk.s 			page 43


 2395 0122 1022     		movs	r2, #16
 2396 0124 636C     		ldr	r3, [r4, #68]
 2397              		.loc 1 2015 0
 2398 0126 0125     		movs	r5, #1
 2399              	.LVL184:
 2400              		.loc 1 2010 0
 2401 0128 1343     		orrs	r3, r2
 2402 012a 6364     		str	r3, [r4, #68]
 2403              		.loc 1 2013 0
 2404 012c A36C     		ldr	r3, [r4, #72]
 2405 012e 1E43     		orrs	r6, r3
 2406 0130 A664     		str	r6, [r4, #72]
 2407              	.LVL185:
 2408 0132 AAE7     		b	.L245
 2409              	.LVL186:
 2410              	.L279:
 2411              	.LBE84:
 2412              	.LBE90:
 2413              	.LBB91:
 2414              	.LBB89:
 2415              		.loc 1 1988 0
 2416 0134 0221     		movs	r1, #2
 2417 0136 9A68     		ldr	r2, [r3, #8]
 2418              		.loc 1 2005 0
 2419 0138 0126     		movs	r6, #1
 2420              		.loc 1 1988 0
 2421 013a 0A43     		orrs	r2, r1
 2422 013c 9A60     		str	r2, [r3, #8]
 2423 013e 0322     		movs	r2, #3
 2424 0140 1A60     		str	r2, [r3]
 2425              		.loc 1 2003 0
 2426 0142 FFF7FEFF 		bl	HAL_GetTick
 2427              	.LVL187:
 2428 0146 0700     		movs	r7, r0
 2429              	.LVL188:
 2430              	.L256:
 2431              		.loc 1 2005 0
 2432 0148 2368     		ldr	r3, [r4]
 2433 014a 9B68     		ldr	r3, [r3, #8]
 2434 014c 1E42     		tst	r6, r3
 2435 014e 9CD0     		beq	.L245
 2436              		.loc 1 2007 0
 2437 0150 FFF7FEFF 		bl	HAL_GetTick
 2438              	.LVL189:
 2439 0154 C01B     		subs	r0, r0, r7
 2440 0156 0228     		cmp	r0, #2
 2441 0158 F6D9     		bls	.L256
 2442              		.loc 1 2010 0
 2443 015a 1022     		movs	r2, #16
 2444 015c 636C     		ldr	r3, [r4, #68]
 2445 015e 1343     		orrs	r3, r2
 2446 0160 6364     		str	r3, [r4, #68]
 2447              		.loc 1 2013 0
 2448 0162 A36C     		ldr	r3, [r4, #72]
 2449 0164 1E43     		orrs	r6, r3
 2450 0166 A664     		str	r6, [r4, #72]
 2451 0168 8FE7     		b	.L245
ARM GAS  C:\Users\anashi\AppData\Local\Temp\ccnNCtvk.s 			page 44


 2452              	.L281:
 2453 016a C046     		.align	2
 2454              	.L280:
 2455 016c FEFEFFFF 		.word	-258
 2456              	.LBE89:
 2457              	.LBE91:
 2458              		.cfi_endproc
 2459              	.LFE48:
 2460              		.size	HAL_ADC_Stop_DMA, .-HAL_ADC_Stop_DMA
 2461              		.section	.text.HAL_ADC_GetValue,"ax",%progbits
 2462              		.align	1
 2463              		.p2align 2,,3
 2464              		.global	HAL_ADC_GetValue
 2465              		.syntax unified
 2466              		.code	16
 2467              		.thumb_func
 2468              		.fpu softvfp
 2469              		.type	HAL_ADC_GetValue, %function
 2470              	HAL_ADC_GetValue:
 2471              	.LFB49:
 2472              		.loc 1 1379 0
 2473              		.cfi_startproc
 2474              		@ args = 0, pretend = 0, frame = 0
 2475              		@ frame_needed = 0, uses_anonymous_args = 0
 2476              		@ link register save eliminated.
 2477              	.LVL190:
 2478              		.loc 1 1387 0
 2479 0000 0368     		ldr	r3, [r0]
 2480              		.loc 1 1388 0
 2481              		@ sp needed
 2482              		.loc 1 1387 0
 2483 0002 186C     		ldr	r0, [r3, #64]
 2484              	.LVL191:
 2485              		.loc 1 1388 0
 2486 0004 7047     		bx	lr
 2487              		.cfi_endproc
 2488              	.LFE49:
 2489              		.size	HAL_ADC_GetValue, .-HAL_ADC_GetValue
 2490 0006 C046     		.section	.text.HAL_ADC_ConvCpltCallback,"ax",%progbits
 2491              		.align	1
 2492              		.p2align 2,,3
 2493              		.weak	HAL_ADC_ConvCpltCallback
 2494              		.syntax unified
 2495              		.code	16
 2496              		.thumb_func
 2497              		.fpu softvfp
 2498              		.type	HAL_ADC_ConvCpltCallback, %function
 2499              	HAL_ADC_ConvCpltCallback:
 2500              	.LFB69:
 2501              		.cfi_startproc
 2502              		@ args = 0, pretend = 0, frame = 0
 2503              		@ frame_needed = 0, uses_anonymous_args = 0
 2504              		@ link register save eliminated.
 2505              		@ sp needed
 2506 0000 7047     		bx	lr
 2507              		.cfi_endproc
 2508              	.LFE69:
ARM GAS  C:\Users\anashi\AppData\Local\Temp\ccnNCtvk.s 			page 45


 2509              		.size	HAL_ADC_ConvCpltCallback, .-HAL_ADC_ConvCpltCallback
 2510 0002 C046     		.section	.text.ADC_DMAConvCplt,"ax",%progbits
 2511              		.align	1
 2512              		.p2align 2,,3
 2513              		.syntax unified
 2514              		.code	16
 2515              		.thumb_func
 2516              		.fpu softvfp
 2517              		.type	ADC_DMAConvCplt, %function
 2518              	ADC_DMAConvCplt:
 2519              	.LFB62:
 2520              		.loc 1 2084 0
 2521              		.cfi_startproc
 2522              		@ args = 0, pretend = 0, frame = 0
 2523              		@ frame_needed = 0, uses_anonymous_args = 0
 2524              	.LVL192:
 2525              		.loc 1 2089 0
 2526 0000 5021     		movs	r1, #80
 2527              		.loc 1 2086 0
 2528 0002 436A     		ldr	r3, [r0, #36]
 2529              	.LVL193:
 2530              		.loc 1 2084 0
 2531 0004 10B5     		push	{r4, lr}
 2532              		.cfi_def_cfa_offset 8
 2533              		.cfi_offset 4, -8
 2534              		.cfi_offset 14, -4
 2535              		.loc 1 2089 0
 2536 0006 5A6C     		ldr	r2, [r3, #68]
 2537 0008 1142     		tst	r1, r2
 2538 000a 03D0     		beq	.L292
 2539              		.loc 1 2134 0
 2540 000c DB6B     		ldr	r3, [r3, #60]
 2541              	.LVL194:
 2542 000e 1B6B     		ldr	r3, [r3, #48]
 2543 0010 9847     		blx	r3
 2544              	.LVL195:
 2545              	.L284:
 2546              		.loc 1 2137 0
 2547              		@ sp needed
 2548 0012 10BD     		pop	{r4, pc}
 2549              	.LVL196:
 2550              	.L292:
 2551              		.loc 1 2092 0
 2552 0014 8022     		movs	r2, #128
 2553 0016 596C     		ldr	r1, [r3, #68]
 2554 0018 9200     		lsls	r2, r2, #2
 2555 001a 0A43     		orrs	r2, r1
 2556              		.loc 1 2096 0
 2557 001c C021     		movs	r1, #192
 2558              		.loc 1 2092 0
 2559 001e 5A64     		str	r2, [r3, #68]
 2560              		.loc 1 2096 0
 2561 0020 1A68     		ldr	r2, [r3]
 2562 0022 0901     		lsls	r1, r1, #4
 2563 0024 D068     		ldr	r0, [r2, #12]
 2564              	.LVL197:
 2565 0026 0842     		tst	r0, r1
ARM GAS  C:\Users\anashi\AppData\Local\Temp\ccnNCtvk.s 			page 46


 2566 0028 13D1     		bne	.L286
 2567              		.loc 1 2096 0 is_stmt 0 discriminator 1
 2568 002a 196A     		ldr	r1, [r3, #32]
 2569 002c 0029     		cmp	r1, #0
 2570 002e 10D1     		bne	.L286
 2571              		.loc 1 2100 0 is_stmt 1
 2572 0030 1168     		ldr	r1, [r2]
 2573 0032 0907     		lsls	r1, r1, #28
 2574 0034 0DD5     		bpl	.L286
 2575              		.loc 1 2104 0
 2576 0036 9168     		ldr	r1, [r2, #8]
 2577 0038 4907     		lsls	r1, r1, #29
 2578 003a 0ED4     		bmi	.L287
 2579              		.loc 1 2110 0
 2580 003c 0C20     		movs	r0, #12
 2581 003e 5168     		ldr	r1, [r2, #4]
 2582 0040 8143     		bics	r1, r0
 2583 0042 5160     		str	r1, [r2, #4]
 2584              		.loc 1 2113 0
 2585 0044 5A6C     		ldr	r2, [r3, #68]
 2586 0046 0949     		ldr	r1, .L293
 2587 0048 0A40     		ands	r2, r1
 2588 004a 0431     		adds	r1, r1, #4
 2589 004c FF31     		adds	r1, r1, #255
 2590 004e 0A43     		orrs	r2, r1
 2591 0050 5A64     		str	r2, [r3, #68]
 2592              	.L286:
 2593              		.loc 1 2129 0
 2594 0052 1800     		movs	r0, r3
 2595 0054 FFF7FEFF 		bl	HAL_ADC_ConvCpltCallback
 2596              	.LVL198:
 2597 0058 DBE7     		b	.L284
 2598              	.LVL199:
 2599              	.L287:
 2600              		.loc 1 2120 0
 2601 005a 2021     		movs	r1, #32
 2602 005c 5A6C     		ldr	r2, [r3, #68]
 2603 005e 0A43     		orrs	r2, r1
 2604 0060 5A64     		str	r2, [r3, #68]
 2605              		.loc 1 2123 0
 2606 0062 9A6C     		ldr	r2, [r3, #72]
 2607 0064 1F39     		subs	r1, r1, #31
 2608 0066 0A43     		orrs	r2, r1
 2609 0068 9A64     		str	r2, [r3, #72]
 2610 006a F2E7     		b	.L286
 2611              	.L294:
 2612              		.align	2
 2613              	.L293:
 2614 006c FEFEFFFF 		.word	-258
 2615              		.cfi_endproc
 2616              	.LFE62:
 2617              		.size	ADC_DMAConvCplt, .-ADC_DMAConvCplt
 2618              		.section	.text.HAL_ADC_ConvHalfCpltCallback,"ax",%progbits
 2619              		.align	1
 2620              		.p2align 2,,3
 2621              		.weak	HAL_ADC_ConvHalfCpltCallback
 2622              		.syntax unified
ARM GAS  C:\Users\anashi\AppData\Local\Temp\ccnNCtvk.s 			page 47


 2623              		.code	16
 2624              		.thumb_func
 2625              		.fpu softvfp
 2626              		.type	HAL_ADC_ConvHalfCpltCallback, %function
 2627              	HAL_ADC_ConvHalfCpltCallback:
 2628              	.LFB71:
 2629              		.cfi_startproc
 2630              		@ args = 0, pretend = 0, frame = 0
 2631              		@ frame_needed = 0, uses_anonymous_args = 0
 2632              		@ link register save eliminated.
 2633              		@ sp needed
 2634 0000 7047     		bx	lr
 2635              		.cfi_endproc
 2636              	.LFE71:
 2637              		.size	HAL_ADC_ConvHalfCpltCallback, .-HAL_ADC_ConvHalfCpltCallback
 2638 0002 C046     		.section	.text.ADC_DMAHalfConvCplt,"ax",%progbits
 2639              		.align	1
 2640              		.p2align 2,,3
 2641              		.syntax unified
 2642              		.code	16
 2643              		.thumb_func
 2644              		.fpu softvfp
 2645              		.type	ADC_DMAHalfConvCplt, %function
 2646              	ADC_DMAHalfConvCplt:
 2647              	.LFB63:
 2648              		.loc 1 2145 0
 2649              		.cfi_startproc
 2650              		@ args = 0, pretend = 0, frame = 0
 2651              		@ frame_needed = 0, uses_anonymous_args = 0
 2652              	.LVL200:
 2653              		.loc 1 2145 0
 2654 0000 10B5     		push	{r4, lr}
 2655              		.cfi_def_cfa_offset 8
 2656              		.cfi_offset 4, -8
 2657              		.cfi_offset 14, -4
 2658              		.loc 1 2150 0
 2659 0002 406A     		ldr	r0, [r0, #36]
 2660              	.LVL201:
 2661 0004 FFF7FEFF 		bl	HAL_ADC_ConvHalfCpltCallback
 2662              	.LVL202:
 2663              		.loc 1 2151 0
 2664              		@ sp needed
 2665 0008 10BD     		pop	{r4, pc}
 2666              		.cfi_endproc
 2667              	.LFE63:
 2668              		.size	ADC_DMAHalfConvCplt, .-ADC_DMAHalfConvCplt
 2669 000a C046     		.section	.text.HAL_ADC_LevelOutOfWindowCallback,"ax",%progbits
 2670              		.align	1
 2671              		.p2align 2,,3
 2672              		.weak	HAL_ADC_LevelOutOfWindowCallback
 2673              		.syntax unified
 2674              		.code	16
 2675              		.thumb_func
 2676              		.fpu softvfp
 2677              		.type	HAL_ADC_LevelOutOfWindowCallback, %function
 2678              	HAL_ADC_LevelOutOfWindowCallback:
 2679              	.LFB73:
ARM GAS  C:\Users\anashi\AppData\Local\Temp\ccnNCtvk.s 			page 48


 2680              		.cfi_startproc
 2681              		@ args = 0, pretend = 0, frame = 0
 2682              		@ frame_needed = 0, uses_anonymous_args = 0
 2683              		@ link register save eliminated.
 2684              		@ sp needed
 2685 0000 7047     		bx	lr
 2686              		.cfi_endproc
 2687              	.LFE73:
 2688              		.size	HAL_ADC_LevelOutOfWindowCallback, .-HAL_ADC_LevelOutOfWindowCallback
 2689 0002 C046     		.section	.text.HAL_ADC_ErrorCallback,"ax",%progbits
 2690              		.align	1
 2691              		.p2align 2,,3
 2692              		.weak	HAL_ADC_ErrorCallback
 2693              		.syntax unified
 2694              		.code	16
 2695              		.thumb_func
 2696              		.fpu softvfp
 2697              		.type	HAL_ADC_ErrorCallback, %function
 2698              	HAL_ADC_ErrorCallback:
 2699              	.LFB75:
 2700              		.cfi_startproc
 2701              		@ args = 0, pretend = 0, frame = 0
 2702              		@ frame_needed = 0, uses_anonymous_args = 0
 2703              		@ link register save eliminated.
 2704              		@ sp needed
 2705 0000 7047     		bx	lr
 2706              		.cfi_endproc
 2707              	.LFE75:
 2708              		.size	HAL_ADC_ErrorCallback, .-HAL_ADC_ErrorCallback
 2709 0002 C046     		.section	.text.ADC_DMAError,"ax",%progbits
 2710              		.align	1
 2711              		.p2align 2,,3
 2712              		.syntax unified
 2713              		.code	16
 2714              		.thumb_func
 2715              		.fpu softvfp
 2716              		.type	ADC_DMAError, %function
 2717              	ADC_DMAError:
 2718              	.LFB64:
 2719              		.loc 1 2159 0
 2720              		.cfi_startproc
 2721              		@ args = 0, pretend = 0, frame = 0
 2722              		@ frame_needed = 0, uses_anonymous_args = 0
 2723              	.LVL203:
 2724              		.loc 1 2164 0
 2725 0000 4022     		movs	r2, #64
 2726              		.loc 1 2161 0
 2727 0002 406A     		ldr	r0, [r0, #36]
 2728              	.LVL204:
 2729              		.loc 1 2159 0
 2730 0004 10B5     		push	{r4, lr}
 2731              		.cfi_def_cfa_offset 8
 2732              		.cfi_offset 4, -8
 2733              		.cfi_offset 14, -4
 2734              		.loc 1 2164 0
 2735 0006 436C     		ldr	r3, [r0, #68]
 2736              		.loc 1 2171 0
ARM GAS  C:\Users\anashi\AppData\Local\Temp\ccnNCtvk.s 			page 49


 2737              		@ sp needed
 2738              		.loc 1 2164 0
 2739 0008 1343     		orrs	r3, r2
 2740 000a 4364     		str	r3, [r0, #68]
 2741              		.loc 1 2167 0
 2742 000c 836C     		ldr	r3, [r0, #72]
 2743 000e 3C3A     		subs	r2, r2, #60
 2744 0010 1343     		orrs	r3, r2
 2745 0012 8364     		str	r3, [r0, #72]
 2746              		.loc 1 2170 0
 2747 0014 FFF7FEFF 		bl	HAL_ADC_ErrorCallback
 2748              	.LVL205:
 2749              		.loc 1 2171 0
 2750 0018 10BD     		pop	{r4, pc}
 2751              		.cfi_endproc
 2752              	.LFE64:
 2753              		.size	ADC_DMAError, .-ADC_DMAError
 2754 001a C046     		.section	.text.HAL_ADC_IRQHandler,"ax",%progbits
 2755              		.align	1
 2756              		.p2align 2,,3
 2757              		.global	HAL_ADC_IRQHandler
 2758              		.syntax unified
 2759              		.code	16
 2760              		.thumb_func
 2761              		.fpu softvfp
 2762              		.type	HAL_ADC_IRQHandler, %function
 2763              	HAL_ADC_IRQHandler:
 2764              	.LFB50:
 2765              		.loc 1 1396 0
 2766              		.cfi_startproc
 2767              		@ args = 0, pretend = 0, frame = 0
 2768              		@ frame_needed = 0, uses_anonymous_args = 0
 2769              	.LVL206:
 2770              		.loc 1 1403 0
 2771 0000 0422     		movs	r2, #4
 2772 0002 0368     		ldr	r3, [r0]
 2773              		.loc 1 1396 0
 2774 0004 70B5     		push	{r4, r5, r6, lr}
 2775              		.cfi_def_cfa_offset 16
 2776              		.cfi_offset 4, -16
 2777              		.cfi_offset 5, -12
 2778              		.cfi_offset 6, -8
 2779              		.cfi_offset 14, -4
 2780              		.loc 1 1403 0
 2781 0006 1968     		ldr	r1, [r3]
 2782              		.loc 1 1396 0
 2783 0008 0400     		movs	r4, r0
 2784              		.loc 1 1403 0
 2785 000a 0A42     		tst	r2, r1
 2786 000c 4AD0     		beq	.L301
 2787              		.loc 1 1403 0 is_stmt 0 discriminator 1
 2788 000e 5968     		ldr	r1, [r3, #4]
 2789 0010 0A42     		tst	r2, r1
 2790 0012 47D0     		beq	.L301
 2791              	.L302:
 2792              		.loc 1 1407 0 is_stmt 1
 2793 0014 626C     		ldr	r2, [r4, #68]
ARM GAS  C:\Users\anashi\AppData\Local\Temp\ccnNCtvk.s 			page 50


 2794 0016 D206     		lsls	r2, r2, #27
 2795 0018 04D4     		bmi	.L304
 2796              		.loc 1 1410 0
 2797 001a 8022     		movs	r2, #128
 2798 001c 616C     		ldr	r1, [r4, #68]
 2799 001e 9200     		lsls	r2, r2, #2
 2800 0020 0A43     		orrs	r2, r1
 2801 0022 6264     		str	r2, [r4, #68]
 2802              	.L304:
 2803              		.loc 1 1415 0
 2804 0024 C022     		movs	r2, #192
 2805 0026 D968     		ldr	r1, [r3, #12]
 2806 0028 1201     		lsls	r2, r2, #4
 2807 002a 1142     		tst	r1, r2
 2808 002c 13D1     		bne	.L305
 2809              		.loc 1 1415 0 is_stmt 0 discriminator 1
 2810 002e 226A     		ldr	r2, [r4, #32]
 2811 0030 002A     		cmp	r2, #0
 2812 0032 10D1     		bne	.L305
 2813              		.loc 1 1419 0 is_stmt 1
 2814 0034 1A68     		ldr	r2, [r3]
 2815 0036 1207     		lsls	r2, r2, #28
 2816 0038 0DD5     		bpl	.L305
 2817              		.loc 1 1423 0
 2818 003a 9A68     		ldr	r2, [r3, #8]
 2819 003c 5207     		lsls	r2, r2, #29
 2820 003e 44D4     		bmi	.L306
 2821              		.loc 1 1429 0
 2822 0040 0C21     		movs	r1, #12
 2823 0042 5A68     		ldr	r2, [r3, #4]
 2824 0044 8A43     		bics	r2, r1
 2825 0046 5A60     		str	r2, [r3, #4]
 2826              		.loc 1 1432 0
 2827 0048 636C     		ldr	r3, [r4, #68]
 2828 004a 244A     		ldr	r2, .L342
 2829 004c 1340     		ands	r3, r2
 2830 004e 0432     		adds	r2, r2, #4
 2831 0050 FF32     		adds	r2, r2, #255
 2832 0052 1343     		orrs	r3, r2
 2833 0054 6364     		str	r3, [r4, #68]
 2834              	.L305:
 2835              		.loc 1 1451 0
 2836 0056 2000     		movs	r0, r4
 2837              	.LVL207:
 2838 0058 FFF7FEFF 		bl	HAL_ADC_ConvCpltCallback
 2839              	.LVL208:
 2840              		.loc 1 1459 0
 2841 005c 0C22     		movs	r2, #12
 2842 005e 2368     		ldr	r3, [r4]
 2843 0060 1A60     		str	r2, [r3]
 2844              	.L303:
 2845              		.loc 1 1463 0
 2846 0062 8025     		movs	r5, #128
 2847 0064 1A68     		ldr	r2, [r3]
 2848 0066 1542     		tst	r5, r2
 2849 0068 02D0     		beq	.L307
 2850              		.loc 1 1463 0 is_stmt 0 discriminator 1
ARM GAS  C:\Users\anashi\AppData\Local\Temp\ccnNCtvk.s 			page 51


 2851 006a 5A68     		ldr	r2, [r3, #4]
 2852 006c 1542     		tst	r5, r2
 2853 006e 21D1     		bne	.L341
 2854              	.L307:
 2855              		.loc 1 1478 0 is_stmt 1
 2856 0070 1022     		movs	r2, #16
 2857 0072 1968     		ldr	r1, [r3]
 2858 0074 0A42     		tst	r2, r1
 2859 0076 14D0     		beq	.L300
 2860              		.loc 1 1478 0 is_stmt 0 discriminator 1
 2861 0078 5968     		ldr	r1, [r3, #4]
 2862 007a 0A42     		tst	r2, r1
 2863 007c 11D0     		beq	.L300
 2864              		.loc 1 1486 0 is_stmt 1
 2865 007e 626B     		ldr	r2, [r4, #52]
 2866 0080 012A     		cmp	r2, #1
 2867 0082 02D0     		beq	.L309
 2868              		.loc 1 1487 0 discriminator 1
 2869 0084 DA68     		ldr	r2, [r3, #12]
 2870              		.loc 1 1486 0 discriminator 1
 2871 0086 D207     		lsls	r2, r2, #31
 2872 0088 09D5     		bpl	.L310
 2873              	.L309:
 2874              		.loc 1 1490 0
 2875 008a 0221     		movs	r1, #2
 2876 008c A26C     		ldr	r2, [r4, #72]
 2877              		.loc 1 1496 0
 2878 008e 2000     		movs	r0, r4
 2879              		.loc 1 1490 0
 2880 0090 0A43     		orrs	r2, r1
 2881 0092 A264     		str	r2, [r4, #72]
 2882              		.loc 1 1493 0
 2883 0094 1022     		movs	r2, #16
 2884 0096 1A60     		str	r2, [r3]
 2885              		.loc 1 1496 0
 2886 0098 FFF7FEFF 		bl	HAL_ADC_ErrorCallback
 2887              	.LVL209:
 2888 009c 2368     		ldr	r3, [r4]
 2889              	.L310:
 2890              		.loc 1 1500 0
 2891 009e 1022     		movs	r2, #16
 2892 00a0 1A60     		str	r2, [r3]
 2893              	.L300:
 2894              		.loc 1 1503 0
 2895              		@ sp needed
 2896              	.LVL210:
 2897 00a2 70BD     		pop	{r4, r5, r6, pc}
 2898              	.LVL211:
 2899              	.L301:
 2900              		.loc 1 1404 0 discriminator 3
 2901 00a4 0822     		movs	r2, #8
 2902 00a6 1968     		ldr	r1, [r3]
 2903              		.loc 1 1403 0 discriminator 3
 2904 00a8 0A42     		tst	r2, r1
 2905 00aa DAD0     		beq	.L303
 2906              		.loc 1 1404 0
 2907 00ac 5968     		ldr	r1, [r3, #4]
ARM GAS  C:\Users\anashi\AppData\Local\Temp\ccnNCtvk.s 			page 52


 2908 00ae 0A42     		tst	r2, r1
 2909 00b0 D7D0     		beq	.L303
 2910 00b2 AFE7     		b	.L302
 2911              	.LVL212:
 2912              	.L341:
 2913              		.loc 1 1466 0
 2914 00b4 8023     		movs	r3, #128
 2915 00b6 626C     		ldr	r2, [r4, #68]
 2916 00b8 5B02     		lsls	r3, r3, #9
 2917 00ba 1343     		orrs	r3, r2
 2918 00bc 6364     		str	r3, [r4, #68]
 2919              		.loc 1 1469 0
 2920 00be 2000     		movs	r0, r4
 2921 00c0 FFF7FEFF 		bl	HAL_ADC_LevelOutOfWindowCallback
 2922              	.LVL213:
 2923              		.loc 1 1472 0
 2924 00c4 2368     		ldr	r3, [r4]
 2925 00c6 1D60     		str	r5, [r3]
 2926 00c8 D2E7     		b	.L307
 2927              	.LVL214:
 2928              	.L306:
 2929              		.loc 1 1439 0
 2930 00ca 2022     		movs	r2, #32
 2931 00cc 636C     		ldr	r3, [r4, #68]
 2932 00ce 1343     		orrs	r3, r2
 2933 00d0 6364     		str	r3, [r4, #68]
 2934              		.loc 1 1442 0
 2935 00d2 A36C     		ldr	r3, [r4, #72]
 2936 00d4 1F3A     		subs	r2, r2, #31
 2937 00d6 1343     		orrs	r3, r2
 2938 00d8 A364     		str	r3, [r4, #72]
 2939 00da BCE7     		b	.L305
 2940              	.L343:
 2941              		.align	2
 2942              	.L342:
 2943 00dc FEFEFFFF 		.word	-258
 2944              		.cfi_endproc
 2945              	.LFE50:
 2946              		.size	HAL_ADC_IRQHandler, .-HAL_ADC_IRQHandler
 2947              		.section	.text.HAL_ADC_ConfigChannel,"ax",%progbits
 2948              		.align	1
 2949              		.p2align 2,,3
 2950              		.global	HAL_ADC_ConfigChannel
 2951              		.syntax unified
 2952              		.code	16
 2953              		.thumb_func
 2954              		.fpu softvfp
 2955              		.type	HAL_ADC_ConfigChannel, %function
 2956              	HAL_ADC_ConfigChannel:
 2957              	.LFB55:
 2958              		.loc 1 1612 0
 2959              		.cfi_startproc
 2960              		@ args = 0, pretend = 0, frame = 8
 2961              		@ frame_needed = 0, uses_anonymous_args = 0
 2962              	.LVL215:
 2963              		.loc 1 1614 0
 2964 0000 0023     		movs	r3, #0
ARM GAS  C:\Users\anashi\AppData\Local\Temp\ccnNCtvk.s 			page 53


 2965              		.loc 1 1627 0
 2966 0002 4022     		movs	r2, #64
 2967              		.loc 1 1612 0
 2968 0004 F0B5     		push	{r4, r5, r6, r7, lr}
 2969              		.cfi_def_cfa_offset 20
 2970              		.cfi_offset 4, -20
 2971              		.cfi_offset 5, -16
 2972              		.cfi_offset 6, -12
 2973              		.cfi_offset 7, -8
 2974              		.cfi_offset 14, -4
 2975 0006 83B0     		sub	sp, sp, #12
 2976              		.cfi_def_cfa_offset 32
 2977              		.loc 1 1614 0
 2978 0008 0193     		str	r3, [sp, #4]
 2979              		.loc 1 1627 0
 2980 000a 835C     		ldrb	r3, [r0, r2]
 2981              		.loc 1 1612 0
 2982 000c 0400     		movs	r4, r0
 2983              		.loc 1 1627 0
 2984 000e 012B     		cmp	r3, #1
 2985 0010 3ED0     		beq	.L355
 2986              		.loc 1 1627 0 is_stmt 0 discriminator 2
 2987 0012 0123     		movs	r3, #1
 2988              		.loc 1 1621 0 is_stmt 1 discriminator 2
 2989 0014 856B     		ldr	r5, [r0, #56]
 2990              		.loc 1 1627 0 discriminator 2
 2991 0016 8354     		strb	r3, [r0, r2]
 2992              		.loc 1 1635 0 discriminator 2
 2993 0018 0268     		ldr	r2, [r0]
 2994 001a 9068     		ldr	r0, [r2, #8]
 2995              	.LVL216:
 2996 001c 4007     		lsls	r0, r0, #29
 2997 001e 09D5     		bpl	.L361
 2998              		.loc 1 1717 0
 2999 0020 2022     		movs	r2, #32
 3000              		.loc 1 1719 0
 3001 0022 0120     		movs	r0, #1
 3002              		.loc 1 1717 0
 3003 0024 636C     		ldr	r3, [r4, #68]
 3004 0026 1343     		orrs	r3, r2
 3005 0028 6364     		str	r3, [r4, #68]
 3006              	.LVL217:
 3007              	.L350:
 3008              		.loc 1 1723 0
 3009 002a 4023     		movs	r3, #64
 3010 002c 0022     		movs	r2, #0
 3011 002e E254     		strb	r2, [r4, r3]
 3012              	.LVL218:
 3013              	.L359:
 3014              		.loc 1 1727 0
 3015 0030 03B0     		add	sp, sp, #12
 3016              		@ sp needed
 3017              	.LVL219:
 3018 0032 F0BD     		pop	{r4, r5, r6, r7, pc}
 3019              	.LVL220:
 3020              	.L361:
 3021 0034 0E68     		ldr	r6, [r1]
ARM GAS  C:\Users\anashi\AppData\Local\Temp\ccnNCtvk.s 			page 54


 3022              		.loc 1 1639 0
 3023 0036 2D4F     		ldr	r7, .L362
 3024 0038 3000     		movs	r0, r6
 3025 003a BC46     		mov	ip, r7
 3026 003c 4F68     		ldr	r7, [r1, #4]
 3027 003e B340     		lsls	r3, r3, r6
 3028 0040 1038     		subs	r0, r0, #16
 3029 0042 6745     		cmp	r7, ip
 3030 0044 26D0     		beq	.L347
 3031              		.loc 1 1643 0
 3032 0046 976A     		ldr	r7, [r2, #40]
 3033 0048 3B43     		orrs	r3, r7
 3034 004a 9362     		str	r3, [r2, #40]
 3035              		.loc 1 1650 0
 3036 004c 8023     		movs	r3, #128
 3037 004e 5B05     		lsls	r3, r3, #21
 3038 0050 9D42     		cmp	r5, r3
 3039 0052 0FD0     		beq	.L348
 3040              		.loc 1 1650 0 is_stmt 0 discriminator 1
 3041 0054 013D     		subs	r5, r5, #1
 3042 0056 062D     		cmp	r5, #6
 3043 0058 0CD9     		bls	.L348
 3044              		.loc 1 1654 0 is_stmt 1
 3045 005a 0723     		movs	r3, #7
 3046 005c 8D68     		ldr	r5, [r1, #8]
 3047 005e 5169     		ldr	r1, [r2, #20]
 3048              	.LVL221:
 3049 0060 1940     		ands	r1, r3
 3050 0062 8D42     		cmp	r5, r1
 3051 0064 06D0     		beq	.L348
 3052              		.loc 1 1658 0
 3053 0066 5169     		ldr	r1, [r2, #20]
 3054 0068 9943     		bics	r1, r3
 3055 006a 5161     		str	r1, [r2, #20]
 3056              		.loc 1 1661 0
 3057 006c 5169     		ldr	r1, [r2, #20]
 3058 006e 2B40     		ands	r3, r5
 3059 0070 0B43     		orrs	r3, r1
 3060 0072 5361     		str	r3, [r2, #20]
 3061              	.L348:
 3062              		.loc 1 1671 0
 3063 0074 0128     		cmp	r0, #1
 3064 0076 01D9     		bls	.L349
 3065              	.L360:
 3066              		.loc 1 1613 0 discriminator 4
 3067 0078 0020     		movs	r0, #0
 3068 007a D6E7     		b	.L350
 3069              	.L349:
 3070              		.loc 1 1676 0
 3071 007c 1C4B     		ldr	r3, .L362+4
 3072 007e 8022     		movs	r2, #128
 3073 0080 1968     		ldr	r1, [r3]
 3074 0082 102E     		cmp	r6, #16
 3075 0084 1AD0     		beq	.L351
 3076              		.loc 1 1676 0 is_stmt 0 discriminator 4
 3077 0086 D203     		lsls	r2, r2, #15
 3078 0088 0A43     		orrs	r2, r1
ARM GAS  C:\Users\anashi\AppData\Local\Temp\ccnNCtvk.s 			page 55


 3079 008a 1A60     		str	r2, [r3]
 3080              		.loc 1 1613 0 is_stmt 1 discriminator 4
 3081 008c 0020     		movs	r0, #0
 3082 008e CCE7     		b	.L350
 3083              	.LVL222:
 3084              	.L355:
 3085              		.loc 1 1627 0
 3086 0090 0220     		movs	r0, #2
 3087              	.LVL223:
 3088 0092 CDE7     		b	.L359
 3089              	.L347:
 3090              		.loc 1 1695 0
 3091 0094 916A     		ldr	r1, [r2, #40]
 3092              	.LVL224:
 3093 0096 9943     		bics	r1, r3
 3094 0098 9162     		str	r1, [r2, #40]
 3095              		.loc 1 1700 0
 3096 009a 0128     		cmp	r0, #1
 3097 009c ECD8     		bhi	.L360
 3098              		.loc 1 1705 0
 3099 009e 411E     		subs	r1, r0, #1
 3100 00a0 8841     		sbcs	r0, r0, r1
 3101 00a2 8021     		movs	r1, #128
 3102 00a4 4042     		rsbs	r0, r0, #0
 3103 00a6 C903     		lsls	r1, r1, #15
 3104 00a8 0840     		ands	r0, r1
 3105 00aa 1249     		ldr	r1, .L362+8
 3106 00ac 104B     		ldr	r3, .L362+4
 3107 00ae 8C46     		mov	ip, r1
 3108 00b0 1A68     		ldr	r2, [r3]
 3109 00b2 6044     		add	r0, r0, ip
 3110 00b4 1040     		ands	r0, r2
 3111 00b6 1860     		str	r0, [r3]
 3112              		.loc 1 1613 0
 3113 00b8 0020     		movs	r0, #0
 3114 00ba B6E7     		b	.L350
 3115              	.L351:
 3116              		.loc 1 1676 0
 3117 00bc 1204     		lsls	r2, r2, #16
 3118 00be 0A43     		orrs	r2, r1
 3119 00c0 1A60     		str	r2, [r3]
 3120              		.loc 1 1683 0
 3121 00c2 0D4B     		ldr	r3, .L362+12
 3122 00c4 0D49     		ldr	r1, .L362+16
 3123 00c6 1868     		ldr	r0, [r3]
 3124 00c8 FFF7FEFF 		bl	__aeabi_uidiv
 3125              	.LVL225:
 3126 00cc 8300     		lsls	r3, r0, #2
 3127 00ce 1818     		adds	r0, r3, r0
 3128 00d0 4000     		lsls	r0, r0, #1
 3129 00d2 0190     		str	r0, [sp, #4]
 3130              		.loc 1 1684 0
 3131 00d4 019B     		ldr	r3, [sp, #4]
 3132 00d6 002B     		cmp	r3, #0
 3133 00d8 CED0     		beq	.L360
 3134              	.L352:
 3135              		.loc 1 1686 0
ARM GAS  C:\Users\anashi\AppData\Local\Temp\ccnNCtvk.s 			page 56


 3136 00da 019B     		ldr	r3, [sp, #4]
 3137 00dc 013B     		subs	r3, r3, #1
 3138 00de 0193     		str	r3, [sp, #4]
 3139              		.loc 1 1684 0
 3140 00e0 019B     		ldr	r3, [sp, #4]
 3141 00e2 002B     		cmp	r3, #0
 3142 00e4 F9D1     		bne	.L352
 3143              		.loc 1 1613 0
 3144 00e6 0020     		movs	r0, #0
 3145 00e8 9FE7     		b	.L350
 3146              	.L363:
 3147 00ea C046     		.align	2
 3148              	.L362:
 3149 00ec 01100000 		.word	4097
 3150 00f0 08270140 		.word	1073817352
 3151 00f4 FFFF7FFF 		.word	-8388609
 3152 00f8 00000000 		.word	SystemCoreClock
 3153 00fc 40420F00 		.word	1000000
 3154              		.cfi_endproc
 3155              	.LFE55:
 3156              		.size	HAL_ADC_ConfigChannel, .-HAL_ADC_ConfigChannel
 3157              		.section	.text.HAL_ADC_AnalogWDGConfig,"ax",%progbits
 3158              		.align	1
 3159              		.p2align 2,,3
 3160              		.global	HAL_ADC_AnalogWDGConfig
 3161              		.syntax unified
 3162              		.code	16
 3163              		.thumb_func
 3164              		.fpu softvfp
 3165              		.type	HAL_ADC_AnalogWDGConfig, %function
 3166              	HAL_ADC_AnalogWDGConfig:
 3167              	.LFB56:
 3168              		.loc 1 1745 0
 3169              		.cfi_startproc
 3170              		@ args = 0, pretend = 0, frame = 0
 3171              		@ frame_needed = 0, uses_anonymous_args = 0
 3172              	.LVL226:
 3173              		.loc 1 1766 0
 3174 0000 4023     		movs	r3, #64
 3175              		.loc 1 1745 0
 3176 0002 70B5     		push	{r4, r5, r6, lr}
 3177              		.cfi_def_cfa_offset 16
 3178              		.cfi_offset 4, -16
 3179              		.cfi_offset 5, -12
 3180              		.cfi_offset 6, -8
 3181              		.cfi_offset 14, -4
 3182              		.loc 1 1745 0
 3183 0004 0200     		movs	r2, r0
 3184              		.loc 1 1766 0
 3185 0006 C05C     		ldrb	r0, [r0, r3]
 3186              	.LVL227:
 3187 0008 0128     		cmp	r0, #1
 3188 000a 3AD0     		beq	.L369
 3189              		.loc 1 1766 0 is_stmt 0 discriminator 2
 3190 000c 0120     		movs	r0, #1
 3191              		.loc 1 1760 0 is_stmt 1 discriminator 2
 3192 000e 0C68     		ldr	r4, [r1]
ARM GAS  C:\Users\anashi\AppData\Local\Temp\ccnNCtvk.s 			page 57


 3193              		.loc 1 1766 0 discriminator 2
 3194 0010 D054     		strb	r0, [r2, r3]
 3195              		.loc 1 1773 0 discriminator 2
 3196 0012 1368     		ldr	r3, [r2]
 3197 0014 9868     		ldr	r0, [r3, #8]
 3198 0016 4007     		lsls	r0, r0, #29
 3199 0018 08D5     		bpl	.L370
 3200              		.loc 1 1820 0
 3201 001a 2021     		movs	r1, #32
 3202              	.LVL228:
 3203              		.loc 1 1822 0
 3204 001c 0120     		movs	r0, #1
 3205              		.loc 1 1820 0
 3206 001e 536C     		ldr	r3, [r2, #68]
 3207 0020 0B43     		orrs	r3, r1
 3208 0022 5364     		str	r3, [r2, #68]
 3209              	.LVL229:
 3210              	.L368:
 3211              		.loc 1 1827 0
 3212 0024 4023     		movs	r3, #64
 3213 0026 0021     		movs	r1, #0
 3214 0028 D154     		strb	r1, [r2, r3]
 3215              	.LVL230:
 3216              	.L365:
 3217              		.loc 1 1831 0
 3218              		@ sp needed
 3219 002a 70BD     		pop	{r4, r5, r6, pc}
 3220              	.LVL231:
 3221              	.L370:
 3222              		.loc 1 1780 0
 3223 002c D868     		ldr	r0, [r3, #12]
 3224 002e 184D     		ldr	r5, .L372
 3225              		.loc 1 1793 0
 3226 0030 184E     		ldr	r6, .L372+4
 3227              		.loc 1 1780 0
 3228 0032 2840     		ands	r0, r5
 3229 0034 D860     		str	r0, [r3, #12]
 3230              		.loc 1 1784 0
 3231 0036 DD68     		ldr	r5, [r3, #12]
 3232              		.loc 1 1785 0
 3233 0038 4868     		ldr	r0, [r1, #4]
 3234              		.loc 1 1784 0
 3235 003a 2C43     		orrs	r4, r5
 3236              		.loc 1 1785 0
 3237 003c 8006     		lsls	r0, r0, #26
 3238              		.loc 1 1784 0
 3239 003e 2043     		orrs	r0, r4
 3240              		.loc 1 1789 0
 3241 0040 0324     		movs	r4, #3
 3242              		.loc 1 1784 0
 3243 0042 D860     		str	r0, [r3, #12]
 3244              		.loc 1 1789 0
 3245 0044 D868     		ldr	r0, [r3, #12]
 3246 0046 CD68     		ldr	r5, [r1, #12]
 3247 0048 C008     		lsrs	r0, r0, #3
 3248 004a 2040     		ands	r0, r4
 3249 004c 4000     		lsls	r0, r0, #1
ARM GAS  C:\Users\anashi\AppData\Local\Temp\ccnNCtvk.s 			page 58


 3250 004e 8540     		lsls	r5, r5, r0
 3251 0050 2800     		movs	r0, r5
 3252              	.LVL232:
 3253              		.loc 1 1790 0
 3254 0052 DD68     		ldr	r5, [r3, #12]
 3255              		.loc 1 1794 0
 3256 0054 0004     		lsls	r0, r0, #16
 3257              	.LVL233:
 3258              		.loc 1 1790 0
 3259 0056 ED08     		lsrs	r5, r5, #3
 3260 0058 2C40     		ands	r4, r5
 3261 005a 0D69     		ldr	r5, [r1, #16]
 3262 005c 6400     		lsls	r4, r4, #1
 3263 005e A540     		lsls	r5, r5, r4
 3264              	.LVL234:
 3265              		.loc 1 1793 0
 3266 0060 1C6A     		ldr	r4, [r3, #32]
 3267              		.loc 1 1803 0
 3268 0062 8968     		ldr	r1, [r1, #8]
 3269              	.LVL235:
 3270              		.loc 1 1793 0
 3271 0064 3440     		ands	r4, r6
 3272 0066 1C62     		str	r4, [r3, #32]
 3273              		.loc 1 1794 0
 3274 0068 1C6A     		ldr	r4, [r3, #32]
 3275 006a 2C43     		orrs	r4, r5
 3276 006c 2043     		orrs	r0, r4
 3277 006e 1862     		str	r0, [r3, #32]
 3278              		.loc 1 1800 0
 3279 0070 8020     		movs	r0, #128
 3280 0072 1860     		str	r0, [r3]
 3281              		.loc 1 1803 0
 3282 0074 0129     		cmp	r1, #1
 3283 0076 06D0     		beq	.L371
 3284              		.loc 1 1811 0
 3285 0078 5968     		ldr	r1, [r3, #4]
 3286 007a 8143     		bics	r1, r0
 3287 007c 5960     		str	r1, [r3, #4]
 3288              		.loc 1 1746 0
 3289 007e 0020     		movs	r0, #0
 3290 0080 D0E7     		b	.L368
 3291              	.LVL236:
 3292              	.L369:
 3293              		.loc 1 1766 0
 3294 0082 0220     		movs	r0, #2
 3295 0084 D1E7     		b	.L365
 3296              	.LVL237:
 3297              	.L371:
 3298              		.loc 1 1806 0
 3299 0086 5968     		ldr	r1, [r3, #4]
 3300 0088 0843     		orrs	r0, r1
 3301 008a 5860     		str	r0, [r3, #4]
 3302              		.loc 1 1746 0
 3303 008c 0020     		movs	r0, #0
 3304 008e C9E7     		b	.L368
 3305              	.L373:
 3306              		.align	2
ARM GAS  C:\Users\anashi\AppData\Local\Temp\ccnNCtvk.s 			page 59


 3307              	.L372:
 3308 0090 FFFF3F83 		.word	-2092957697
 3309 0094 00F000F0 		.word	-268374016
 3310              		.cfi_endproc
 3311              	.LFE56:
 3312              		.size	HAL_ADC_AnalogWDGConfig, .-HAL_ADC_AnalogWDGConfig
 3313              		.section	.text.HAL_ADC_GetState,"ax",%progbits
 3314              		.align	1
 3315              		.p2align 2,,3
 3316              		.global	HAL_ADC_GetState
 3317              		.syntax unified
 3318              		.code	16
 3319              		.thumb_func
 3320              		.fpu softvfp
 3321              		.type	HAL_ADC_GetState, %function
 3322              	HAL_ADC_GetState:
 3323              	.LFB57:
 3324              		.loc 1 1867 0
 3325              		.cfi_startproc
 3326              		@ args = 0, pretend = 0, frame = 0
 3327              		@ frame_needed = 0, uses_anonymous_args = 0
 3328              		@ link register save eliminated.
 3329              	.LVL238:
 3330              		.loc 1 1872 0
 3331 0000 406C     		ldr	r0, [r0, #68]
 3332              	.LVL239:
 3333              		.loc 1 1873 0
 3334              		@ sp needed
 3335 0002 7047     		bx	lr
 3336              		.cfi_endproc
 3337              	.LFE57:
 3338              		.size	HAL_ADC_GetState, .-HAL_ADC_GetState
 3339              		.section	.text.HAL_ADC_GetError,"ax",%progbits
 3340              		.align	1
 3341              		.p2align 2,,3
 3342              		.global	HAL_ADC_GetError
 3343              		.syntax unified
 3344              		.code	16
 3345              		.thumb_func
 3346              		.fpu softvfp
 3347              		.type	HAL_ADC_GetError, %function
 3348              	HAL_ADC_GetError:
 3349              	.LFB58:
 3350              		.loc 1 1881 0
 3351              		.cfi_startproc
 3352              		@ args = 0, pretend = 0, frame = 0
 3353              		@ frame_needed = 0, uses_anonymous_args = 0
 3354              		@ link register save eliminated.
 3355              	.LVL240:
 3356              		.loc 1 1882 0
 3357 0000 806C     		ldr	r0, [r0, #72]
 3358              	.LVL241:
 3359              		.loc 1 1883 0
 3360              		@ sp needed
 3361 0002 7047     		bx	lr
 3362              		.cfi_endproc
 3363              	.LFE58:
ARM GAS  C:\Users\anashi\AppData\Local\Temp\ccnNCtvk.s 			page 60


 3364              		.size	HAL_ADC_GetError, .-HAL_ADC_GetError
 3365              		.text
 3366              	.Letext0:
 3367              		.file 2 "c:\\st\\stm32cubeide_1.1.0\\stm32cubeide\\plugins\\com.st.stm32cube.ide.mcu.externaltools
 3368              		.file 3 "c:\\st\\stm32cubeide_1.1.0\\stm32cubeide\\plugins\\com.st.stm32cube.ide.mcu.externaltools
 3369              		.file 4 "C:/repos/rs2all/board/Drivers/CMSIS/Device/ST/STM32F0xx/Include/system_stm32f0xx.h"
 3370              		.file 5 "C:/repos/rs2all/board/Drivers/CMSIS/Device/ST/STM32F0xx/Include/stm32f030x6.h"
 3371              		.file 6 "C:/repos/rs2all/board/Drivers/CMSIS/Device/ST/STM32F0xx/Include/stm32f0xx.h"
 3372              		.file 7 "c:\\st\\stm32cubeide_1.1.0\\stm32cubeide\\plugins\\com.st.stm32cube.ide.mcu.externaltools
 3373              		.file 8 "c:\\st\\stm32cubeide_1.1.0\\stm32cubeide\\plugins\\com.st.stm32cube.ide.mcu.externaltools
 3374              		.file 9 "c:\\st\\stm32cubeide_1.1.0\\stm32cubeide\\plugins\\com.st.stm32cube.ide.mcu.externaltools
 3375              		.file 10 "c:\\st\\stm32cubeide_1.1.0\\stm32cubeide\\plugins\\com.st.stm32cube.ide.mcu.externaltool
 3376              		.file 11 "C:/repos/rs2all/board/Drivers/STM32F0xx_HAL_Driver/Inc/stm32f0xx_hal_def.h"
 3377              		.file 12 "C:/repos/rs2all/board/Drivers/STM32F0xx_HAL_Driver/Inc/stm32f0xx_hal_dma.h"
 3378              		.file 13 "C:/repos/rs2all/board/Drivers/STM32F0xx_HAL_Driver/Inc/stm32f0xx_hal_adc.h"
 3379              		.file 14 "C:/repos/rs2all/board/Drivers/STM32F0xx_HAL_Driver/Inc/stm32f0xx_hal.h"
