ARM GAS  C:\Users\anashi\AppData\Local\Temp\cc9rFcNX.s 			page 1


   1              		.cpu cortex-m0
   2              		.eabi_attribute 20, 1
   3              		.eabi_attribute 21, 1
   4              		.eabi_attribute 23, 3
   5              		.eabi_attribute 24, 1
   6              		.eabi_attribute 25, 1
   7              		.eabi_attribute 26, 1
   8              		.eabi_attribute 30, 2
   9              		.eabi_attribute 34, 0
  10              		.eabi_attribute 18, 4
  11              		.file	"stm32f0xx_hal_tim_ex.c"
  12              		.text
  13              	.Ltext0:
  14              		.cfi_sections	.debug_frame
  15              		.section	.text.HAL_TIMEx_HallSensor_MspInit,"ax",%progbits
  16              		.align	1
  17              		.p2align 2,,3
  18              		.weak	HAL_TIMEx_HallSensor_MspInit
  19              		.syntax unified
  20              		.code	16
  21              		.thumb_func
  22              		.fpu softvfp
  23              		.type	HAL_TIMEx_HallSensor_MspInit, %function
  24              	HAL_TIMEx_HallSensor_MspInit:
  25              	.LFB39:
  26              		.file 1 "C:/repos/rs2all/board/Drivers/STM32F0xx_HAL_Driver/Src/stm32f0xx_hal_tim_ex.c"
  27              		.loc 1 265 0
  28              		.cfi_startproc
  29              		@ args = 0, pretend = 0, frame = 0
  30              		@ frame_needed = 0, uses_anonymous_args = 0
  31              		@ link register save eliminated.
  32              	.LVL0:
  33              		.loc 1 272 0
  34              		@ sp needed
  35 0000 7047     		bx	lr
  36              		.cfi_endproc
  37              	.LFE39:
  38              		.size	HAL_TIMEx_HallSensor_MspInit, .-HAL_TIMEx_HallSensor_MspInit
  39 0002 C046     		.section	.text.HAL_TIMEx_HallSensor_Init,"ax",%progbits
  40              		.align	1
  41              		.p2align 2,,3
  42              		.global	HAL_TIMEx_HallSensor_Init
  43              		.syntax unified
  44              		.code	16
  45              		.thumb_func
  46              		.fpu softvfp
  47              		.type	HAL_TIMEx_HallSensor_Init, %function
  48              	HAL_TIMEx_HallSensor_Init:
  49              	.LFB37:
  50              		.loc 1 159 0
  51              		.cfi_startproc
  52              		@ args = 0, pretend = 0, frame = 40
  53              		@ frame_needed = 0, uses_anonymous_args = 0
  54              	.LVL1:
  55 0000 F0B5     		push	{r4, r5, r6, r7, lr}
  56              		.cfi_def_cfa_offset 20
  57              		.cfi_offset 4, -20
ARM GAS  C:\Users\anashi\AppData\Local\Temp\cc9rFcNX.s 			page 2


  58              		.cfi_offset 5, -16
  59              		.cfi_offset 6, -12
  60              		.cfi_offset 7, -8
  61              		.cfi_offset 14, -4
  62 0002 0400     		movs	r4, r0
  63 0004 8BB0     		sub	sp, sp, #44
  64              		.cfi_def_cfa_offset 64
  65              		.loc 1 159 0
  66 0006 0D00     		movs	r5, r1
  67              		.loc 1 163 0
  68 0008 0028     		cmp	r0, #0
  69 000a 4DD0     		beq	.L6
  70              		.loc 1 176 0
  71 000c 3D23     		movs	r3, #61
  72 000e C35C     		ldrb	r3, [r0, r3]
  73 0010 DBB2     		uxtb	r3, r3
  74 0012 002B     		cmp	r3, #0
  75 0014 43D0     		beq	.L7
  76              	.LVL2:
  77              	.L5:
  78              		.loc 1 186 0
  79 0016 0223     		movs	r3, #2
  80 0018 3D26     		movs	r6, #61
  81              		.loc 1 189 0
  82 001a 211D     		adds	r1, r4, #4
  83              		.loc 1 186 0
  84 001c A355     		strb	r3, [r4, r6]
  85              		.loc 1 189 0
  86 001e 2068     		ldr	r0, [r4]
  87 0020 FFF7FEFF 		bl	TIM_Base_SetConfig
  88              	.LVL3:
  89              		.loc 1 192 0
  90 0024 AB68     		ldr	r3, [r5, #8]
  91 0026 0322     		movs	r2, #3
  92 0028 2968     		ldr	r1, [r5]
  93 002a 2068     		ldr	r0, [r4]
  94 002c FFF7FEFF 		bl	TIM_TI1_SetConfig
  95              	.LVL4:
  96              		.loc 1 195 0
  97 0030 0C22     		movs	r2, #12
  98 0032 2068     		ldr	r0, [r4]
  99              		.loc 1 203 0
 100 0034 7027     		movs	r7, #112
 101              		.loc 1 195 0
 102 0036 8369     		ldr	r3, [r0, #24]
 103              		.loc 1 219 0
 104 0038 03A9     		add	r1, sp, #12
 105              		.loc 1 195 0
 106 003a 9343     		bics	r3, r2
 107 003c 8361     		str	r3, [r0, #24]
 108              		.loc 1 197 0
 109 003e 8369     		ldr	r3, [r0, #24]
 110 0040 6A68     		ldr	r2, [r5, #4]
 111              		.loc 1 213 0
 112 0042 0397     		str	r7, [sp, #12]
 113              		.loc 1 197 0
 114 0044 1343     		orrs	r3, r2
ARM GAS  C:\Users\anashi\AppData\Local\Temp\cc9rFcNX.s 			page 3


 115              		.loc 1 200 0
 116 0046 8022     		movs	r2, #128
 117              		.loc 1 197 0
 118 0048 8361     		str	r3, [r0, #24]
 119              		.loc 1 200 0
 120 004a 4368     		ldr	r3, [r0, #4]
 121 004c 1343     		orrs	r3, r2
 122 004e 4360     		str	r3, [r0, #4]
 123              		.loc 1 203 0
 124 0050 8368     		ldr	r3, [r0, #8]
 125              		.loc 1 204 0
 126 0052 403A     		subs	r2, r2, #64
 127              		.loc 1 203 0
 128 0054 BB43     		bics	r3, r7
 129 0056 8360     		str	r3, [r0, #8]
 130              		.loc 1 204 0
 131 0058 8368     		ldr	r3, [r0, #8]
 132 005a 1343     		orrs	r3, r2
 133 005c 8360     		str	r3, [r0, #8]
 134              		.loc 1 207 0
 135 005e 8368     		ldr	r3, [r0, #8]
 136 0060 393A     		subs	r2, r2, #57
 137 0062 9343     		bics	r3, r2
 138 0064 8360     		str	r3, [r0, #8]
 139              		.loc 1 208 0
 140 0066 8368     		ldr	r3, [r0, #8]
 141 0068 033A     		subs	r2, r2, #3
 142 006a 1343     		orrs	r3, r2
 143 006c 8360     		str	r3, [r0, #8]
 144              		.loc 1 211 0
 145 006e 0023     		movs	r3, #0
 146 0070 0793     		str	r3, [sp, #28]
 147              		.loc 1 212 0
 148 0072 0893     		str	r3, [sp, #32]
 149              		.loc 1 214 0
 150 0074 0993     		str	r3, [sp, #36]
 151              		.loc 1 215 0
 152 0076 0693     		str	r3, [sp, #24]
 153              		.loc 1 216 0
 154 0078 0593     		str	r3, [sp, #20]
 155              		.loc 1 217 0
 156 007a EB68     		ldr	r3, [r5, #12]
 157 007c 0193     		str	r3, [sp, #4]
 158 007e 0493     		str	r3, [sp, #16]
 159              		.loc 1 219 0
 160 0080 FFF7FEFF 		bl	TIM_OC2_SetConfig
 161              	.LVL5:
 162              		.loc 1 224 0
 163 0084 5021     		movs	r1, #80
 164              		.loc 1 223 0
 165 0086 2368     		ldr	r3, [r4]
 166              		.loc 1 229 0
 167 0088 0020     		movs	r0, #0
 168              		.loc 1 223 0
 169 008a 5A68     		ldr	r2, [r3, #4]
 170 008c BA43     		bics	r2, r7
 171 008e 5A60     		str	r2, [r3, #4]
ARM GAS  C:\Users\anashi\AppData\Local\Temp\cc9rFcNX.s 			page 4


 172              		.loc 1 224 0
 173 0090 5A68     		ldr	r2, [r3, #4]
 174 0092 0A43     		orrs	r2, r1
 175 0094 5A60     		str	r2, [r3, #4]
 176              		.loc 1 227 0
 177 0096 0123     		movs	r3, #1
 178 0098 A355     		strb	r3, [r4, r6]
 179              	.L4:
 180              		.loc 1 230 0
 181 009a 0BB0     		add	sp, sp, #44
 182              		@ sp needed
 183              	.LVL6:
 184              	.LVL7:
 185 009c F0BD     		pop	{r4, r5, r6, r7, pc}
 186              	.LVL8:
 187              	.L7:
 188              		.loc 1 179 0
 189 009e 3C22     		movs	r2, #60
 190 00a0 8354     		strb	r3, [r0, r2]
 191              		.loc 1 182 0
 192 00a2 FFF7FEFF 		bl	HAL_TIMEx_HallSensor_MspInit
 193              	.LVL9:
 194 00a6 B6E7     		b	.L5
 195              	.LVL10:
 196              	.L6:
 197              		.loc 1 165 0
 198 00a8 0120     		movs	r0, #1
 199              	.LVL11:
 200 00aa F6E7     		b	.L4
 201              		.cfi_endproc
 202              	.LFE37:
 203              		.size	HAL_TIMEx_HallSensor_Init, .-HAL_TIMEx_HallSensor_Init
 204              		.section	.text.HAL_TIMEx_HallSensor_MspDeInit,"ax",%progbits
 205              		.align	1
 206              		.p2align 2,,3
 207              		.weak	HAL_TIMEx_HallSensor_MspDeInit
 208              		.syntax unified
 209              		.code	16
 210              		.thumb_func
 211              		.fpu softvfp
 212              		.type	HAL_TIMEx_HallSensor_MspDeInit, %function
 213              	HAL_TIMEx_HallSensor_MspDeInit:
 214              	.LFB75:
 215              		.cfi_startproc
 216              		@ args = 0, pretend = 0, frame = 0
 217              		@ frame_needed = 0, uses_anonymous_args = 0
 218              		@ link register save eliminated.
 219              		@ sp needed
 220 0000 7047     		bx	lr
 221              		.cfi_endproc
 222              	.LFE75:
 223              		.size	HAL_TIMEx_HallSensor_MspDeInit, .-HAL_TIMEx_HallSensor_MspDeInit
 224 0002 C046     		.section	.text.HAL_TIMEx_HallSensor_DeInit,"ax",%progbits
 225              		.align	1
 226              		.p2align 2,,3
 227              		.global	HAL_TIMEx_HallSensor_DeInit
 228              		.syntax unified
ARM GAS  C:\Users\anashi\AppData\Local\Temp\cc9rFcNX.s 			page 5


 229              		.code	16
 230              		.thumb_func
 231              		.fpu softvfp
 232              		.type	HAL_TIMEx_HallSensor_DeInit, %function
 233              	HAL_TIMEx_HallSensor_DeInit:
 234              	.LFB38:
 235              		.loc 1 238 0
 236              		.cfi_startproc
 237              		@ args = 0, pretend = 0, frame = 0
 238              		@ frame_needed = 0, uses_anonymous_args = 0
 239              	.LVL12:
 240              		.loc 1 242 0
 241 0000 3D23     		movs	r3, #61
 242 0002 0222     		movs	r2, #2
 243              		.loc 1 238 0
 244 0004 10B5     		push	{r4, lr}
 245              		.cfi_def_cfa_offset 8
 246              		.cfi_offset 4, -8
 247              		.cfi_offset 14, -4
 248              		.loc 1 242 0
 249 0006 C254     		strb	r2, [r0, r3]
 250              		.loc 1 245 0
 251 0008 0368     		ldr	r3, [r0]
 252 000a 0B4A     		ldr	r2, .L11
 253 000c 196A     		ldr	r1, [r3, #32]
 254              		.loc 1 238 0
 255 000e 0400     		movs	r4, r0
 256              		.loc 1 245 0
 257 0010 1142     		tst	r1, r2
 258 0012 07D1     		bne	.L10
 259              		.loc 1 245 0 is_stmt 0 discriminator 1
 260 0014 196A     		ldr	r1, [r3, #32]
 261 0016 094A     		ldr	r2, .L11+4
 262 0018 1142     		tst	r1, r2
 263 001a 03D1     		bne	.L10
 264              		.loc 1 245 0 discriminator 2
 265 001c 0121     		movs	r1, #1
 266 001e 1A68     		ldr	r2, [r3]
 267 0020 8A43     		bics	r2, r1
 268 0022 1A60     		str	r2, [r3]
 269              	.L10:
 270              		.loc 1 248 0 is_stmt 1
 271 0024 2000     		movs	r0, r4
 272              	.LVL13:
 273 0026 FFF7FEFF 		bl	HAL_TIMEx_HallSensor_MspDeInit
 274              	.LVL14:
 275              		.loc 1 251 0
 276 002a 0023     		movs	r3, #0
 277 002c 3D22     		movs	r2, #61
 278 002e A354     		strb	r3, [r4, r2]
 279              		.loc 1 254 0
 280 0030 013A     		subs	r2, r2, #1
 281              		.loc 1 257 0
 282 0032 0020     		movs	r0, #0
 283              		.loc 1 254 0
 284 0034 A354     		strb	r3, [r4, r2]
 285              		.loc 1 257 0
ARM GAS  C:\Users\anashi\AppData\Local\Temp\cc9rFcNX.s 			page 6


 286              		@ sp needed
 287              	.LVL15:
 288 0036 10BD     		pop	{r4, pc}
 289              	.L12:
 290              		.align	2
 291              	.L11:
 292 0038 11110000 		.word	4369
 293 003c 44040000 		.word	1092
 294              		.cfi_endproc
 295              	.LFE38:
 296              		.size	HAL_TIMEx_HallSensor_DeInit, .-HAL_TIMEx_HallSensor_DeInit
 297              		.section	.text.HAL_TIMEx_HallSensor_Start,"ax",%progbits
 298              		.align	1
 299              		.p2align 2,,3
 300              		.global	HAL_TIMEx_HallSensor_Start
 301              		.syntax unified
 302              		.code	16
 303              		.thumb_func
 304              		.fpu softvfp
 305              		.type	HAL_TIMEx_HallSensor_Start, %function
 306              	HAL_TIMEx_HallSensor_Start:
 307              	.LFB41:
 308              		.loc 1 295 0
 309              		.cfi_startproc
 310              		@ args = 0, pretend = 0, frame = 0
 311              		@ frame_needed = 0, uses_anonymous_args = 0
 312              	.LVL16:
 313 0000 10B5     		push	{r4, lr}
 314              		.cfi_def_cfa_offset 8
 315              		.cfi_offset 4, -8
 316              		.cfi_offset 14, -4
 317              		.loc 1 295 0
 318 0002 0400     		movs	r4, r0
 319              		.loc 1 301 0
 320 0004 0122     		movs	r2, #1
 321 0006 0021     		movs	r1, #0
 322 0008 0068     		ldr	r0, [r0]
 323              	.LVL17:
 324 000a FFF7FEFF 		bl	TIM_CCxChannelCmd
 325              	.LVL18:
 326              		.loc 1 304 0
 327 000e 0121     		movs	r1, #1
 328 0010 2268     		ldr	r2, [r4]
 329              		.loc 1 308 0
 330 0012 0020     		movs	r0, #0
 331              		.loc 1 304 0
 332 0014 1368     		ldr	r3, [r2]
 333              		.loc 1 308 0
 334              		@ sp needed
 335              		.loc 1 304 0
 336 0016 0B43     		orrs	r3, r1
 337 0018 1360     		str	r3, [r2]
 338              	.LVL19:
 339              		.loc 1 308 0
 340 001a 10BD     		pop	{r4, pc}
 341              		.cfi_endproc
 342              	.LFE41:
ARM GAS  C:\Users\anashi\AppData\Local\Temp\cc9rFcNX.s 			page 7


 343              		.size	HAL_TIMEx_HallSensor_Start, .-HAL_TIMEx_HallSensor_Start
 344              		.section	.text.HAL_TIMEx_HallSensor_Stop,"ax",%progbits
 345              		.align	1
 346              		.p2align 2,,3
 347              		.global	HAL_TIMEx_HallSensor_Stop
 348              		.syntax unified
 349              		.code	16
 350              		.thumb_func
 351              		.fpu softvfp
 352              		.type	HAL_TIMEx_HallSensor_Stop, %function
 353              	HAL_TIMEx_HallSensor_Stop:
 354              	.LFB42:
 355              		.loc 1 316 0
 356              		.cfi_startproc
 357              		@ args = 0, pretend = 0, frame = 0
 358              		@ frame_needed = 0, uses_anonymous_args = 0
 359              	.LVL20:
 360 0000 10B5     		push	{r4, lr}
 361              		.cfi_def_cfa_offset 8
 362              		.cfi_offset 4, -8
 363              		.cfi_offset 14, -4
 364              		.loc 1 316 0
 365 0002 0400     		movs	r4, r0
 366              		.loc 1 322 0
 367 0004 0022     		movs	r2, #0
 368 0006 0021     		movs	r1, #0
 369 0008 0068     		ldr	r0, [r0]
 370              	.LVL21:
 371 000a FFF7FEFF 		bl	TIM_CCxChannelCmd
 372              	.LVL22:
 373              		.loc 1 325 0
 374 000e 2368     		ldr	r3, [r4]
 375 0010 064A     		ldr	r2, .L16
 376 0012 196A     		ldr	r1, [r3, #32]
 377 0014 1142     		tst	r1, r2
 378 0016 07D1     		bne	.L15
 379              		.loc 1 325 0 is_stmt 0 discriminator 1
 380 0018 196A     		ldr	r1, [r3, #32]
 381 001a 054A     		ldr	r2, .L16+4
 382 001c 1142     		tst	r1, r2
 383 001e 03D1     		bne	.L15
 384              		.loc 1 325 0 discriminator 2
 385 0020 0121     		movs	r1, #1
 386 0022 1A68     		ldr	r2, [r3]
 387 0024 8A43     		bics	r2, r1
 388 0026 1A60     		str	r2, [r3]
 389              	.L15:
 390              		.loc 1 329 0 is_stmt 1
 391 0028 0020     		movs	r0, #0
 392              		@ sp needed
 393              	.LVL23:
 394 002a 10BD     		pop	{r4, pc}
 395              	.L17:
 396              		.align	2
 397              	.L16:
 398 002c 11110000 		.word	4369
 399 0030 44040000 		.word	1092
ARM GAS  C:\Users\anashi\AppData\Local\Temp\cc9rFcNX.s 			page 8


 400              		.cfi_endproc
 401              	.LFE42:
 402              		.size	HAL_TIMEx_HallSensor_Stop, .-HAL_TIMEx_HallSensor_Stop
 403              		.section	.text.HAL_TIMEx_HallSensor_Start_IT,"ax",%progbits
 404              		.align	1
 405              		.p2align 2,,3
 406              		.global	HAL_TIMEx_HallSensor_Start_IT
 407              		.syntax unified
 408              		.code	16
 409              		.thumb_func
 410              		.fpu softvfp
 411              		.type	HAL_TIMEx_HallSensor_Start_IT, %function
 412              	HAL_TIMEx_HallSensor_Start_IT:
 413              	.LFB43:
 414              		.loc 1 337 0
 415              		.cfi_startproc
 416              		@ args = 0, pretend = 0, frame = 0
 417              		@ frame_needed = 0, uses_anonymous_args = 0
 418              	.LVL24:
 419              		.loc 1 342 0
 420 0000 0222     		movs	r2, #2
 421              		.loc 1 337 0
 422 0002 10B5     		push	{r4, lr}
 423              		.cfi_def_cfa_offset 8
 424              		.cfi_offset 4, -8
 425              		.cfi_offset 14, -4
 426              		.loc 1 337 0
 427 0004 0400     		movs	r4, r0
 428              		.loc 1 342 0
 429 0006 0068     		ldr	r0, [r0]
 430              	.LVL25:
 431              		.loc 1 346 0
 432 0008 0021     		movs	r1, #0
 433              		.loc 1 342 0
 434 000a C368     		ldr	r3, [r0, #12]
 435              		.loc 1 353 0
 436              		@ sp needed
 437              		.loc 1 342 0
 438 000c 1343     		orrs	r3, r2
 439 000e C360     		str	r3, [r0, #12]
 440              		.loc 1 346 0
 441 0010 013A     		subs	r2, r2, #1
 442 0012 FFF7FEFF 		bl	TIM_CCxChannelCmd
 443              	.LVL26:
 444              		.loc 1 349 0
 445 0016 0121     		movs	r1, #1
 446 0018 2268     		ldr	r2, [r4]
 447              		.loc 1 353 0
 448 001a 0020     		movs	r0, #0
 449              		.loc 1 349 0
 450 001c 1368     		ldr	r3, [r2]
 451 001e 0B43     		orrs	r3, r1
 452 0020 1360     		str	r3, [r2]
 453              	.LVL27:
 454              		.loc 1 353 0
 455 0022 10BD     		pop	{r4, pc}
 456              		.cfi_endproc
ARM GAS  C:\Users\anashi\AppData\Local\Temp\cc9rFcNX.s 			page 9


 457              	.LFE43:
 458              		.size	HAL_TIMEx_HallSensor_Start_IT, .-HAL_TIMEx_HallSensor_Start_IT
 459              		.section	.text.HAL_TIMEx_HallSensor_Stop_IT,"ax",%progbits
 460              		.align	1
 461              		.p2align 2,,3
 462              		.global	HAL_TIMEx_HallSensor_Stop_IT
 463              		.syntax unified
 464              		.code	16
 465              		.thumb_func
 466              		.fpu softvfp
 467              		.type	HAL_TIMEx_HallSensor_Stop_IT, %function
 468              	HAL_TIMEx_HallSensor_Stop_IT:
 469              	.LFB44:
 470              		.loc 1 361 0
 471              		.cfi_startproc
 472              		@ args = 0, pretend = 0, frame = 0
 473              		@ frame_needed = 0, uses_anonymous_args = 0
 474              	.LVL28:
 475 0000 10B5     		push	{r4, lr}
 476              		.cfi_def_cfa_offset 8
 477              		.cfi_offset 4, -8
 478              		.cfi_offset 14, -4
 479              		.loc 1 361 0
 480 0002 0400     		movs	r4, r0
 481              		.loc 1 367 0
 482 0004 0022     		movs	r2, #0
 483 0006 0021     		movs	r1, #0
 484 0008 0068     		ldr	r0, [r0]
 485              	.LVL29:
 486 000a FFF7FEFF 		bl	TIM_CCxChannelCmd
 487              	.LVL30:
 488              		.loc 1 370 0
 489 000e 0221     		movs	r1, #2
 490 0010 2368     		ldr	r3, [r4]
 491 0012 DA68     		ldr	r2, [r3, #12]
 492 0014 8A43     		bics	r2, r1
 493 0016 DA60     		str	r2, [r3, #12]
 494              		.loc 1 373 0
 495 0018 196A     		ldr	r1, [r3, #32]
 496 001a 064A     		ldr	r2, .L21
 497 001c 1142     		tst	r1, r2
 498 001e 07D1     		bne	.L20
 499              		.loc 1 373 0 is_stmt 0 discriminator 1
 500 0020 196A     		ldr	r1, [r3, #32]
 501 0022 054A     		ldr	r2, .L21+4
 502 0024 1142     		tst	r1, r2
 503 0026 03D1     		bne	.L20
 504              		.loc 1 373 0 discriminator 2
 505 0028 0121     		movs	r1, #1
 506 002a 1A68     		ldr	r2, [r3]
 507 002c 8A43     		bics	r2, r1
 508 002e 1A60     		str	r2, [r3]
 509              	.L20:
 510              		.loc 1 377 0 is_stmt 1
 511 0030 0020     		movs	r0, #0
 512              		@ sp needed
 513              	.LVL31:
ARM GAS  C:\Users\anashi\AppData\Local\Temp\cc9rFcNX.s 			page 10


 514 0032 10BD     		pop	{r4, pc}
 515              	.L22:
 516              		.align	2
 517              	.L21:
 518 0034 11110000 		.word	4369
 519 0038 44040000 		.word	1092
 520              		.cfi_endproc
 521              	.LFE44:
 522              		.size	HAL_TIMEx_HallSensor_Stop_IT, .-HAL_TIMEx_HallSensor_Stop_IT
 523              		.section	.text.HAL_TIMEx_HallSensor_Start_DMA,"ax",%progbits
 524              		.align	1
 525              		.p2align 2,,3
 526              		.global	HAL_TIMEx_HallSensor_Start_DMA
 527              		.syntax unified
 528              		.code	16
 529              		.thumb_func
 530              		.fpu softvfp
 531              		.type	HAL_TIMEx_HallSensor_Start_DMA, %function
 532              	HAL_TIMEx_HallSensor_Start_DMA:
 533              	.LFB45:
 534              		.loc 1 387 0
 535              		.cfi_startproc
 536              		@ args = 0, pretend = 0, frame = 0
 537              		@ frame_needed = 0, uses_anonymous_args = 0
 538              	.LVL32:
 539              		.loc 1 391 0
 540 0000 3D23     		movs	r3, #61
 541              		.loc 1 387 0
 542 0002 70B5     		push	{r4, r5, r6, lr}
 543              		.cfi_def_cfa_offset 16
 544              		.cfi_offset 4, -16
 545              		.cfi_offset 5, -12
 546              		.cfi_offset 6, -8
 547              		.cfi_offset 14, -4
 548              		.loc 1 387 0
 549 0004 1600     		movs	r6, r2
 550              		.loc 1 391 0
 551 0006 C25C     		ldrb	r2, [r0, r3]
 552              	.LVL33:
 553              		.loc 1 387 0
 554 0008 0400     		movs	r4, r0
 555 000a 0D00     		movs	r5, r1
 556              		.loc 1 391 0
 557 000c 022A     		cmp	r2, #2
 558 000e 23D0     		beq	.L27
 559              		.loc 1 395 0
 560 0010 C35C     		ldrb	r3, [r0, r3]
 561 0012 012B     		cmp	r3, #1
 562 0014 04D1     		bne	.L25
 563              		.loc 1 397 0
 564 0016 0029     		cmp	r1, #0
 565 0018 20D0     		beq	.L29
 566              	.LVL34:
 567              	.L26:
 568              		.loc 1 403 0
 569 001a 3D23     		movs	r3, #61
 570 001c 0222     		movs	r2, #2
ARM GAS  C:\Users\anashi\AppData\Local\Temp\cc9rFcNX.s 			page 11


 571 001e E254     		strb	r2, [r4, r3]
 572              	.L25:
 573              		.loc 1 408 0
 574 0020 0122     		movs	r2, #1
 575 0022 0021     		movs	r1, #0
 576              	.LVL35:
 577 0024 2068     		ldr	r0, [r4]
 578 0026 FFF7FEFF 		bl	TIM_CCxChannelCmd
 579              	.LVL36:
 580              		.loc 1 411 0
 581 002a 606A     		ldr	r0, [r4, #36]
 582 002c 0D4B     		ldr	r3, .L30
 583              		.loc 1 416 0
 584 002e 2168     		ldr	r1, [r4]
 585              		.loc 1 411 0
 586 0030 8362     		str	r3, [r0, #40]
 587              		.loc 1 413 0
 588 0032 0D4B     		ldr	r3, .L30+4
 589              		.loc 1 416 0
 590 0034 3431     		adds	r1, r1, #52
 591              		.loc 1 413 0
 592 0036 0363     		str	r3, [r0, #48]
 593              		.loc 1 416 0
 594 0038 2A00     		movs	r2, r5
 595 003a 3300     		movs	r3, r6
 596 003c FFF7FEFF 		bl	HAL_DMA_Start_IT
 597              	.LVL37:
 598              		.loc 1 419 0
 599 0040 8022     		movs	r2, #128
 600 0042 2368     		ldr	r3, [r4]
 601 0044 9200     		lsls	r2, r2, #2
 602 0046 D968     		ldr	r1, [r3, #12]
 603              		.loc 1 425 0
 604 0048 0020     		movs	r0, #0
 605              		.loc 1 419 0
 606 004a 0A43     		orrs	r2, r1
 607              		.loc 1 422 0
 608 004c 0121     		movs	r1, #1
 609              		.loc 1 419 0
 610 004e DA60     		str	r2, [r3, #12]
 611              		.loc 1 422 0
 612 0050 1A68     		ldr	r2, [r3]
 613 0052 0A43     		orrs	r2, r1
 614 0054 1A60     		str	r2, [r3]
 615              	.L24:
 616              		.loc 1 426 0
 617              		@ sp needed
 618              	.LVL38:
 619              	.LVL39:
 620 0056 70BD     		pop	{r4, r5, r6, pc}
 621              	.LVL40:
 622              	.L27:
 623              		.loc 1 393 0
 624 0058 0220     		movs	r0, #2
 625              	.LVL41:
 626 005a FCE7     		b	.L24
 627              	.LVL42:
ARM GAS  C:\Users\anashi\AppData\Local\Temp\cc9rFcNX.s 			page 12


 628              	.L29:
 629              		.loc 1 399 0 discriminator 1
 630 005c 0120     		movs	r0, #1
 631              	.LVL43:
 632              		.loc 1 397 0 discriminator 1
 633 005e 002E     		cmp	r6, #0
 634 0060 DBD0     		beq	.L26
 635 0062 F8E7     		b	.L24
 636              	.L31:
 637              		.align	2
 638              	.L30:
 639 0064 00000000 		.word	TIM_DMACaptureCplt
 640 0068 00000000 		.word	TIM_DMAError
 641              		.cfi_endproc
 642              	.LFE45:
 643              		.size	HAL_TIMEx_HallSensor_Start_DMA, .-HAL_TIMEx_HallSensor_Start_DMA
 644              		.section	.text.HAL_TIMEx_HallSensor_Stop_DMA,"ax",%progbits
 645              		.align	1
 646              		.p2align 2,,3
 647              		.global	HAL_TIMEx_HallSensor_Stop_DMA
 648              		.syntax unified
 649              		.code	16
 650              		.thumb_func
 651              		.fpu softvfp
 652              		.type	HAL_TIMEx_HallSensor_Stop_DMA, %function
 653              	HAL_TIMEx_HallSensor_Stop_DMA:
 654              	.LFB46:
 655              		.loc 1 434 0
 656              		.cfi_startproc
 657              		@ args = 0, pretend = 0, frame = 0
 658              		@ frame_needed = 0, uses_anonymous_args = 0
 659              	.LVL44:
 660 0000 10B5     		push	{r4, lr}
 661              		.cfi_def_cfa_offset 8
 662              		.cfi_offset 4, -8
 663              		.cfi_offset 14, -4
 664              		.loc 1 434 0
 665 0002 0400     		movs	r4, r0
 666              		.loc 1 440 0
 667 0004 0022     		movs	r2, #0
 668 0006 0021     		movs	r1, #0
 669 0008 0068     		ldr	r0, [r0]
 670              	.LVL45:
 671 000a FFF7FEFF 		bl	TIM_CCxChannelCmd
 672              	.LVL46:
 673              		.loc 1 444 0
 674 000e 2368     		ldr	r3, [r4]
 675 0010 0849     		ldr	r1, .L34
 676 0012 DA68     		ldr	r2, [r3, #12]
 677 0014 0A40     		ands	r2, r1
 678 0016 DA60     		str	r2, [r3, #12]
 679              		.loc 1 447 0
 680 0018 196A     		ldr	r1, [r3, #32]
 681 001a 074A     		ldr	r2, .L34+4
 682 001c 1142     		tst	r1, r2
 683 001e 07D1     		bne	.L33
 684              		.loc 1 447 0 is_stmt 0 discriminator 1
ARM GAS  C:\Users\anashi\AppData\Local\Temp\cc9rFcNX.s 			page 13


 685 0020 196A     		ldr	r1, [r3, #32]
 686 0022 064A     		ldr	r2, .L34+8
 687 0024 1142     		tst	r1, r2
 688 0026 03D1     		bne	.L33
 689              		.loc 1 447 0 discriminator 2
 690 0028 0121     		movs	r1, #1
 691 002a 1A68     		ldr	r2, [r3]
 692 002c 8A43     		bics	r2, r1
 693 002e 1A60     		str	r2, [r3]
 694              	.L33:
 695              		.loc 1 451 0 is_stmt 1
 696 0030 0020     		movs	r0, #0
 697              		@ sp needed
 698              	.LVL47:
 699 0032 10BD     		pop	{r4, pc}
 700              	.L35:
 701              		.align	2
 702              	.L34:
 703 0034 FFFDFFFF 		.word	-513
 704 0038 11110000 		.word	4369
 705 003c 44040000 		.word	1092
 706              		.cfi_endproc
 707              	.LFE46:
 708              		.size	HAL_TIMEx_HallSensor_Stop_DMA, .-HAL_TIMEx_HallSensor_Stop_DMA
 709              		.section	.text.HAL_TIMEx_OCN_Start,"ax",%progbits
 710              		.align	1
 711              		.p2align 2,,3
 712              		.global	HAL_TIMEx_OCN_Start
 713              		.syntax unified
 714              		.code	16
 715              		.thumb_func
 716              		.fpu softvfp
 717              		.type	HAL_TIMEx_OCN_Start, %function
 718              	HAL_TIMEx_OCN_Start:
 719              	.LFB47:
 720              		.loc 1 490 0
 721              		.cfi_startproc
 722              		@ args = 0, pretend = 0, frame = 0
 723              		@ frame_needed = 0, uses_anonymous_args = 0
 724              		@ link register save eliminated.
 725              	.LVL48:
 726              	.LBB36:
 727              	.LBB37:
 728              		.loc 1 1990 0
 729 0000 0422     		movs	r2, #4
 730 0002 8A40     		lsls	r2, r2, r1
 731              	.LBE37:
 732              	.LBE36:
 733              		.loc 1 495 0
 734 0004 0368     		ldr	r3, [r0]
 735              	.LVL49:
 736              		.loc 1 505 0
 737              		@ sp needed
 738              	.LBB40:
 739              	.LBB38:
 740              		.loc 1 1993 0
 741 0006 196A     		ldr	r1, [r3, #32]
ARM GAS  C:\Users\anashi\AppData\Local\Temp\cc9rFcNX.s 			page 14


 742              	.LVL50:
 743              	.LBE38:
 744              	.LBE40:
 745              		.loc 1 505 0
 746 0008 0020     		movs	r0, #0
 747              	.LVL51:
 748              	.LBB41:
 749              	.LBB39:
 750              		.loc 1 1993 0
 751 000a 9143     		bics	r1, r2
 752 000c 1962     		str	r1, [r3, #32]
 753              		.loc 1 1996 0
 754 000e 196A     		ldr	r1, [r3, #32]
 755 0010 0A43     		orrs	r2, r1
 756              	.LVL52:
 757 0012 1A62     		str	r2, [r3, #32]
 758              	.LVL53:
 759              	.LBE39:
 760              	.LBE41:
 761              		.loc 1 498 0
 762 0014 8022     		movs	r2, #128
 763 0016 596C     		ldr	r1, [r3, #68]
 764 0018 1202     		lsls	r2, r2, #8
 765 001a 0A43     		orrs	r2, r1
 766              		.loc 1 501 0
 767 001c 0121     		movs	r1, #1
 768              		.loc 1 498 0
 769 001e 5A64     		str	r2, [r3, #68]
 770              		.loc 1 501 0
 771 0020 1A68     		ldr	r2, [r3]
 772 0022 0A43     		orrs	r2, r1
 773 0024 1A60     		str	r2, [r3]
 774              		.loc 1 505 0
 775 0026 7047     		bx	lr
 776              		.cfi_endproc
 777              	.LFE47:
 778              		.size	HAL_TIMEx_OCN_Start, .-HAL_TIMEx_OCN_Start
 779              		.section	.text.HAL_TIMEx_OCN_Stop,"ax",%progbits
 780              		.align	1
 781              		.p2align 2,,3
 782              		.global	HAL_TIMEx_OCN_Stop
 783              		.syntax unified
 784              		.code	16
 785              		.thumb_func
 786              		.fpu softvfp
 787              		.type	HAL_TIMEx_OCN_Stop, %function
 788              	HAL_TIMEx_OCN_Stop:
 789              	.LFB48:
 790              		.loc 1 520 0
 791              		.cfi_startproc
 792              		@ args = 0, pretend = 0, frame = 0
 793              		@ frame_needed = 0, uses_anonymous_args = 0
 794              		@ link register save eliminated.
 795              	.LVL54:
 796              		.loc 1 525 0
 797 0000 0368     		ldr	r3, [r0]
 798              	.LVL55:
ARM GAS  C:\Users\anashi\AppData\Local\Temp\cc9rFcNX.s 			page 15


 799              	.LBB44:
 800              	.LBB45:
 801              		.loc 1 1990 0
 802 0002 0420     		movs	r0, #4
 803              	.LVL56:
 804 0004 8840     		lsls	r0, r0, r1
 805              	.LVL57:
 806              		.loc 1 1993 0
 807 0006 1A6A     		ldr	r2, [r3, #32]
 808 0008 8243     		bics	r2, r0
 809 000a 1A62     		str	r2, [r3, #32]
 810              		.loc 1 1996 0
 811 000c 1A6A     		ldr	r2, [r3, #32]
 812 000e 1A62     		str	r2, [r3, #32]
 813              	.LVL58:
 814              	.LBE45:
 815              	.LBE44:
 816              		.loc 1 528 0
 817 0010 196A     		ldr	r1, [r3, #32]
 818              	.LVL59:
 819 0012 0D4A     		ldr	r2, .L41
 820 0014 1142     		tst	r1, r2
 821 0016 03D1     		bne	.L38
 822              		.loc 1 528 0 is_stmt 0 discriminator 1
 823 0018 196A     		ldr	r1, [r3, #32]
 824 001a 0C4A     		ldr	r2, .L41+4
 825 001c 1142     		tst	r1, r2
 826 001e 0DD0     		beq	.L40
 827              	.L38:
 828              		.loc 1 531 0 is_stmt 1
 829 0020 196A     		ldr	r1, [r3, #32]
 830 0022 094A     		ldr	r2, .L41
 831 0024 1142     		tst	r1, r2
 832 0026 07D1     		bne	.L39
 833              		.loc 1 531 0 is_stmt 0 discriminator 1
 834 0028 196A     		ldr	r1, [r3, #32]
 835 002a 084A     		ldr	r2, .L41+4
 836 002c 1142     		tst	r1, r2
 837 002e 03D1     		bne	.L39
 838              		.loc 1 531 0 discriminator 2
 839 0030 0121     		movs	r1, #1
 840 0032 1A68     		ldr	r2, [r3]
 841 0034 8A43     		bics	r2, r1
 842 0036 1A60     		str	r2, [r3]
 843              	.L39:
 844              		.loc 1 535 0 is_stmt 1
 845 0038 0020     		movs	r0, #0
 846              		@ sp needed
 847 003a 7047     		bx	lr
 848              	.L40:
 849              		.loc 1 528 0 discriminator 2
 850 003c 5A6C     		ldr	r2, [r3, #68]
 851 003e 0449     		ldr	r1, .L41+8
 852 0040 0A40     		ands	r2, r1
 853 0042 5A64     		str	r2, [r3, #68]
 854 0044 ECE7     		b	.L38
 855              	.L42:
ARM GAS  C:\Users\anashi\AppData\Local\Temp\cc9rFcNX.s 			page 16


 856 0046 C046     		.align	2
 857              	.L41:
 858 0048 11110000 		.word	4369
 859 004c 44040000 		.word	1092
 860 0050 FF7FFFFF 		.word	-32769
 861              		.cfi_endproc
 862              	.LFE48:
 863              		.size	HAL_TIMEx_OCN_Stop, .-HAL_TIMEx_OCN_Stop
 864              		.section	.text.HAL_TIMEx_OCN_Start_IT,"ax",%progbits
 865              		.align	1
 866              		.p2align 2,,3
 867              		.global	HAL_TIMEx_OCN_Start_IT
 868              		.syntax unified
 869              		.code	16
 870              		.thumb_func
 871              		.fpu softvfp
 872              		.type	HAL_TIMEx_OCN_Start_IT, %function
 873              	HAL_TIMEx_OCN_Start_IT:
 874              	.LFB49:
 875              		.loc 1 550 0
 876              		.cfi_startproc
 877              		@ args = 0, pretend = 0, frame = 0
 878              		@ frame_needed = 0, uses_anonymous_args = 0
 879              		@ link register save eliminated.
 880              	.LVL60:
 881 0000 0368     		ldr	r3, [r0]
 882              		.loc 1 554 0
 883 0002 0429     		cmp	r1, #4
 884 0004 1FD0     		beq	.L48
 885 0006 22D9     		bls	.L50
 886 0008 0829     		cmp	r1, #8
 887 000a 1CD0     		beq	.L48
 888 000c 0C29     		cmp	r1, #12
 889 000e 03D1     		bne	.L44
 890              		.loc 1 580 0
 891 0010 1020     		movs	r0, #16
 892              	.LVL61:
 893 0012 DA68     		ldr	r2, [r3, #12]
 894 0014 0243     		orrs	r2, r0
 895 0016 DA60     		str	r2, [r3, #12]
 896              	.L44:
 897              		.loc 1 589 0
 898 0018 8020     		movs	r0, #128
 899 001a DA68     		ldr	r2, [r3, #12]
 900              		.loc 1 602 0
 901              		@ sp needed
 902              		.loc 1 589 0
 903 001c 0243     		orrs	r2, r0
 904 001e DA60     		str	r2, [r3, #12]
 905              	.LVL62:
 906              	.LBB48:
 907              	.LBB49:
 908              		.loc 1 1990 0
 909 0020 0422     		movs	r2, #4
 910 0022 8A40     		lsls	r2, r2, r1
 911              	.LVL63:
 912              		.loc 1 1993 0
ARM GAS  C:\Users\anashi\AppData\Local\Temp\cc9rFcNX.s 			page 17


 913 0024 196A     		ldr	r1, [r3, #32]
 914              	.LVL64:
 915              	.LBE49:
 916              	.LBE48:
 917              		.loc 1 602 0
 918 0026 0020     		movs	r0, #0
 919              	.LBB51:
 920              	.LBB50:
 921              		.loc 1 1993 0
 922 0028 9143     		bics	r1, r2
 923 002a 1962     		str	r1, [r3, #32]
 924              		.loc 1 1996 0
 925 002c 196A     		ldr	r1, [r3, #32]
 926 002e 0A43     		orrs	r2, r1
 927              	.LVL65:
 928 0030 1A62     		str	r2, [r3, #32]
 929              	.LVL66:
 930              	.LBE50:
 931              	.LBE51:
 932              		.loc 1 595 0
 933 0032 8022     		movs	r2, #128
 934 0034 596C     		ldr	r1, [r3, #68]
 935 0036 1202     		lsls	r2, r2, #8
 936 0038 0A43     		orrs	r2, r1
 937              		.loc 1 598 0
 938 003a 0121     		movs	r1, #1
 939              		.loc 1 595 0
 940 003c 5A64     		str	r2, [r3, #68]
 941              		.loc 1 598 0
 942 003e 1A68     		ldr	r2, [r3]
 943 0040 0A43     		orrs	r2, r1
 944 0042 1A60     		str	r2, [r3]
 945              		.loc 1 602 0
 946 0044 7047     		bx	lr
 947              	.LVL67:
 948              	.L48:
 949              		.loc 1 573 0
 950 0046 DA68     		ldr	r2, [r3, #12]
 951 0048 0A43     		orrs	r2, r1
 952 004a DA60     		str	r2, [r3, #12]
 953              		.loc 1 575 0
 954 004c E4E7     		b	.L44
 955              	.L50:
 956              		.loc 1 554 0
 957 004e 0029     		cmp	r1, #0
 958 0050 E2D1     		bne	.L44
 959              		.loc 1 559 0
 960 0052 0220     		movs	r0, #2
 961              	.LVL68:
 962 0054 DA68     		ldr	r2, [r3, #12]
 963 0056 0243     		orrs	r2, r0
 964 0058 DA60     		str	r2, [r3, #12]
 965              		.loc 1 561 0
 966 005a DDE7     		b	.L44
 967              		.cfi_endproc
 968              	.LFE49:
 969              		.size	HAL_TIMEx_OCN_Start_IT, .-HAL_TIMEx_OCN_Start_IT
ARM GAS  C:\Users\anashi\AppData\Local\Temp\cc9rFcNX.s 			page 18


 970              		.section	.text.HAL_TIMEx_OCN_Stop_IT,"ax",%progbits
 971              		.align	1
 972              		.p2align 2,,3
 973              		.global	HAL_TIMEx_OCN_Stop_IT
 974              		.syntax unified
 975              		.code	16
 976              		.thumb_func
 977              		.fpu softvfp
 978              		.type	HAL_TIMEx_OCN_Stop_IT, %function
 979              	HAL_TIMEx_OCN_Stop_IT:
 980              	.LFB50:
 981              		.loc 1 617 0
 982              		.cfi_startproc
 983              		@ args = 0, pretend = 0, frame = 0
 984              		@ frame_needed = 0, uses_anonymous_args = 0
 985              		@ link register save eliminated.
 986              	.LVL69:
 987 0000 0368     		ldr	r3, [r0]
 988              		.loc 1 623 0
 989 0002 0429     		cmp	r1, #4
 990 0004 31D0     		beq	.L56
 991 0006 34D9     		bls	.L61
 992 0008 0829     		cmp	r1, #8
 993 000a 2ED0     		beq	.L56
 994 000c 0C29     		cmp	r1, #12
 995 000e 03D1     		bne	.L52
 996              		.loc 1 649 0
 997 0010 1020     		movs	r0, #16
 998              	.LVL70:
 999 0012 DA68     		ldr	r2, [r3, #12]
 1000 0014 8243     		bics	r2, r0
 1001 0016 DA60     		str	r2, [r3, #12]
 1002              	.L52:
 1003              	.LVL71:
 1004              	.LBB54:
 1005              	.LBB55:
 1006              		.loc 1 1990 0
 1007 0018 0420     		movs	r0, #4
 1008 001a 8840     		lsls	r0, r0, r1
 1009              	.LVL72:
 1010              		.loc 1 1993 0
 1011 001c 1A6A     		ldr	r2, [r3, #32]
 1012 001e 8243     		bics	r2, r0
 1013 0020 1A62     		str	r2, [r3, #32]
 1014              		.loc 1 1996 0
 1015 0022 1A6A     		ldr	r2, [r3, #32]
 1016 0024 1A62     		str	r2, [r3, #32]
 1017              	.LVL73:
 1018              	.LBE55:
 1019              	.LBE54:
 1020              		.loc 1 661 0
 1021 0026 196A     		ldr	r1, [r3, #32]
 1022              	.LVL74:
 1023              		.loc 1 662 0
 1024 0028 154A     		ldr	r2, .L62
 1025 002a 1142     		tst	r1, r2
 1026 002c 03D1     		bne	.L58
ARM GAS  C:\Users\anashi\AppData\Local\Temp\cc9rFcNX.s 			page 19


 1027              		.loc 1 664 0
 1028 002e 8021     		movs	r1, #128
 1029              	.LVL75:
 1030 0030 DA68     		ldr	r2, [r3, #12]
 1031 0032 8A43     		bics	r2, r1
 1032 0034 DA60     		str	r2, [r3, #12]
 1033              	.L58:
 1034              		.loc 1 668 0
 1035 0036 196A     		ldr	r1, [r3, #32]
 1036 0038 124A     		ldr	r2, .L62+4
 1037 003a 1142     		tst	r1, r2
 1038 003c 07D1     		bne	.L59
 1039              		.loc 1 668 0 is_stmt 0 discriminator 1
 1040 003e 196A     		ldr	r1, [r3, #32]
 1041 0040 0F4A     		ldr	r2, .L62
 1042 0042 1142     		tst	r1, r2
 1043 0044 03D1     		bne	.L59
 1044              		.loc 1 668 0 discriminator 2
 1045 0046 5A6C     		ldr	r2, [r3, #68]
 1046 0048 0F49     		ldr	r1, .L62+8
 1047 004a 0A40     		ands	r2, r1
 1048 004c 5A64     		str	r2, [r3, #68]
 1049              	.L59:
 1050              		.loc 1 671 0 is_stmt 1
 1051 004e 196A     		ldr	r1, [r3, #32]
 1052 0050 0C4A     		ldr	r2, .L62+4
 1053 0052 1142     		tst	r1, r2
 1054 0054 07D1     		bne	.L60
 1055              		.loc 1 671 0 is_stmt 0 discriminator 1
 1056 0056 196A     		ldr	r1, [r3, #32]
 1057 0058 094A     		ldr	r2, .L62
 1058 005a 1142     		tst	r1, r2
 1059 005c 03D1     		bne	.L60
 1060              		.loc 1 671 0 discriminator 2
 1061 005e 0121     		movs	r1, #1
 1062 0060 1A68     		ldr	r2, [r3]
 1063 0062 8A43     		bics	r2, r1
 1064 0064 1A60     		str	r2, [r3]
 1065              	.L60:
 1066              		.loc 1 675 0 is_stmt 1
 1067 0066 0020     		movs	r0, #0
 1068              		@ sp needed
 1069 0068 7047     		bx	lr
 1070              	.LVL76:
 1071              	.L56:
 1072              		.loc 1 642 0
 1073 006a DA68     		ldr	r2, [r3, #12]
 1074 006c 8A43     		bics	r2, r1
 1075 006e DA60     		str	r2, [r3, #12]
 1076              		.loc 1 644 0
 1077 0070 D2E7     		b	.L52
 1078              	.L61:
 1079              		.loc 1 623 0
 1080 0072 0029     		cmp	r1, #0
 1081 0074 D0D1     		bne	.L52
 1082              		.loc 1 628 0
 1083 0076 0220     		movs	r0, #2
ARM GAS  C:\Users\anashi\AppData\Local\Temp\cc9rFcNX.s 			page 20


 1084              	.LVL77:
 1085 0078 DA68     		ldr	r2, [r3, #12]
 1086 007a 8243     		bics	r2, r0
 1087 007c DA60     		str	r2, [r3, #12]
 1088              		.loc 1 630 0
 1089 007e CBE7     		b	.L52
 1090              	.L63:
 1091              		.align	2
 1092              	.L62:
 1093 0080 44040000 		.word	1092
 1094 0084 11110000 		.word	4369
 1095 0088 FF7FFFFF 		.word	-32769
 1096              		.cfi_endproc
 1097              	.LFE50:
 1098              		.size	HAL_TIMEx_OCN_Stop_IT, .-HAL_TIMEx_OCN_Stop_IT
 1099              		.section	.text.HAL_TIMEx_OCN_Start_DMA,"ax",%progbits
 1100              		.align	1
 1101              		.p2align 2,,3
 1102              		.global	HAL_TIMEx_OCN_Start_DMA
 1103              		.syntax unified
 1104              		.code	16
 1105              		.thumb_func
 1106              		.fpu softvfp
 1107              		.type	HAL_TIMEx_OCN_Start_DMA, %function
 1108              	HAL_TIMEx_OCN_Start_DMA:
 1109              	.LFB51:
 1110              		.loc 1 692 0
 1111              		.cfi_startproc
 1112              		@ args = 0, pretend = 0, frame = 0
 1113              		@ frame_needed = 0, uses_anonymous_args = 0
 1114              	.LVL78:
 1115 0000 70B5     		push	{r4, r5, r6, lr}
 1116              		.cfi_def_cfa_offset 16
 1117              		.cfi_offset 4, -16
 1118              		.cfi_offset 5, -12
 1119              		.cfi_offset 6, -8
 1120              		.cfi_offset 14, -4
 1121              		.loc 1 692 0
 1122 0002 0D00     		movs	r5, r1
 1123 0004 1100     		movs	r1, r2
 1124              	.LVL79:
 1125              		.loc 1 696 0
 1126 0006 3D22     		movs	r2, #61
 1127              	.LVL80:
 1128              		.loc 1 692 0
 1129 0008 0400     		movs	r4, r0
 1130              		.loc 1 696 0
 1131 000a 805C     		ldrb	r0, [r0, r2]
 1132              	.LVL81:
 1133 000c 0228     		cmp	r0, #2
 1134 000e 58D0     		beq	.L74
 1135              		.loc 1 700 0
 1136 0010 A25C     		ldrb	r2, [r4, r2]
 1137 0012 012A     		cmp	r2, #1
 1138 0014 3AD0     		beq	.L76
 1139 0016 2268     		ldr	r2, [r4]
 1140              		.loc 1 711 0
ARM GAS  C:\Users\anashi\AppData\Local\Temp\cc9rFcNX.s 			page 21


 1141 0018 042D     		cmp	r5, #4
 1142 001a 3FD0     		beq	.L69
 1143              	.L79:
 1144 001c 042D     		cmp	r5, #4
 1145 001e 24D9     		bls	.L77
 1146 0020 082D     		cmp	r5, #8
 1147 0022 50D0     		beq	.L72
 1148 0024 0C2D     		cmp	r5, #12
 1149 0026 0DD1     		bne	.L68
 1150              		.loc 1 764 0
 1151 0028 206B     		ldr	r0, [r4, #48]
 1152 002a 2E4E     		ldr	r6, .L80
 1153              		.loc 1 770 0
 1154 002c 4032     		adds	r2, r2, #64
 1155              		.loc 1 764 0
 1156 002e 8662     		str	r6, [r0, #40]
 1157              		.loc 1 767 0
 1158 0030 2D4E     		ldr	r6, .L80+4
 1159 0032 0663     		str	r6, [r0, #48]
 1160              		.loc 1 770 0
 1161 0034 FFF7FEFF 		bl	HAL_DMA_Start_IT
 1162              	.LVL82:
 1163              		.loc 1 773 0
 1164 0038 8023     		movs	r3, #128
 1165 003a 2268     		ldr	r2, [r4]
 1166 003c 5B01     		lsls	r3, r3, #5
 1167 003e D168     		ldr	r1, [r2, #12]
 1168 0040 0B43     		orrs	r3, r1
 1169 0042 D360     		str	r3, [r2, #12]
 1170              	.L68:
 1171              	.LVL83:
 1172              	.LBB58:
 1173              	.LBB59:
 1174              		.loc 1 1990 0
 1175 0044 0423     		movs	r3, #4
 1176 0046 AB40     		lsls	r3, r3, r5
 1177              	.LVL84:
 1178              		.loc 1 1993 0
 1179 0048 116A     		ldr	r1, [r2, #32]
 1180              	.LBE59:
 1181              	.LBE58:
 1182              		.loc 1 791 0
 1183 004a 0020     		movs	r0, #0
 1184              	.LBB61:
 1185              	.LBB60:
 1186              		.loc 1 1993 0
 1187 004c 9943     		bics	r1, r3
 1188 004e 1162     		str	r1, [r2, #32]
 1189              		.loc 1 1996 0
 1190 0050 116A     		ldr	r1, [r2, #32]
 1191 0052 0B43     		orrs	r3, r1
 1192              	.LVL85:
 1193 0054 1362     		str	r3, [r2, #32]
 1194              	.LVL86:
 1195              	.LBE60:
 1196              	.LBE61:
 1197              		.loc 1 785 0
ARM GAS  C:\Users\anashi\AppData\Local\Temp\cc9rFcNX.s 			page 22


 1198 0056 8023     		movs	r3, #128
 1199 0058 516C     		ldr	r1, [r2, #68]
 1200 005a 1B02     		lsls	r3, r3, #8
 1201 005c 0B43     		orrs	r3, r1
 1202              		.loc 1 788 0
 1203 005e 0121     		movs	r1, #1
 1204              		.loc 1 785 0
 1205 0060 5364     		str	r3, [r2, #68]
 1206              		.loc 1 788 0
 1207 0062 1368     		ldr	r3, [r2]
 1208 0064 0B43     		orrs	r3, r1
 1209 0066 1360     		str	r3, [r2]
 1210              	.L65:
 1211              		.loc 1 792 0
 1212              		@ sp needed
 1213              	.LVL87:
 1214              	.LVL88:
 1215 0068 70BD     		pop	{r4, r5, r6, pc}
 1216              	.LVL89:
 1217              	.L77:
 1218              		.loc 1 711 0
 1219 006a 002D     		cmp	r5, #0
 1220 006c EAD1     		bne	.L68
 1221              		.loc 1 716 0
 1222 006e 606A     		ldr	r0, [r4, #36]
 1223 0070 1C4E     		ldr	r6, .L80
 1224              		.loc 1 722 0
 1225 0072 3432     		adds	r2, r2, #52
 1226              		.loc 1 716 0
 1227 0074 8662     		str	r6, [r0, #40]
 1228              		.loc 1 719 0
 1229 0076 1C4E     		ldr	r6, .L80+4
 1230 0078 0663     		str	r6, [r0, #48]
 1231              		.loc 1 722 0
 1232 007a FFF7FEFF 		bl	HAL_DMA_Start_IT
 1233              	.LVL90:
 1234              		.loc 1 725 0
 1235 007e 8023     		movs	r3, #128
 1236 0080 2268     		ldr	r2, [r4]
 1237 0082 9B00     		lsls	r3, r3, #2
 1238 0084 D168     		ldr	r1, [r2, #12]
 1239 0086 0B43     		orrs	r3, r1
 1240 0088 D360     		str	r3, [r2, #12]
 1241              		.loc 1 727 0
 1242 008a DBE7     		b	.L68
 1243              	.LVL91:
 1244              	.L76:
 1245              		.loc 1 702 0
 1246 008c 0029     		cmp	r1, #0
 1247 008e 14D0     		beq	.L78
 1248              	.L67:
 1249              		.loc 1 708 0
 1250 0090 3D22     		movs	r2, #61
 1251 0092 0220     		movs	r0, #2
 1252 0094 A054     		strb	r0, [r4, r2]
 1253 0096 2268     		ldr	r2, [r4]
 1254              		.loc 1 711 0
ARM GAS  C:\Users\anashi\AppData\Local\Temp\cc9rFcNX.s 			page 23


 1255 0098 042D     		cmp	r5, #4
 1256 009a BFD1     		bne	.L79
 1257              	.L69:
 1258              		.loc 1 732 0
 1259 009c A06A     		ldr	r0, [r4, #40]
 1260 009e 114E     		ldr	r6, .L80
 1261              		.loc 1 738 0
 1262 00a0 3832     		adds	r2, r2, #56
 1263              		.loc 1 732 0
 1264 00a2 8662     		str	r6, [r0, #40]
 1265              		.loc 1 735 0
 1266 00a4 104E     		ldr	r6, .L80+4
 1267 00a6 0663     		str	r6, [r0, #48]
 1268              		.loc 1 738 0
 1269 00a8 FFF7FEFF 		bl	HAL_DMA_Start_IT
 1270              	.LVL92:
 1271              		.loc 1 741 0
 1272 00ac 8023     		movs	r3, #128
 1273 00ae 2268     		ldr	r2, [r4]
 1274 00b0 DB00     		lsls	r3, r3, #3
 1275 00b2 D168     		ldr	r1, [r2, #12]
 1276 00b4 0B43     		orrs	r3, r1
 1277 00b6 D360     		str	r3, [r2, #12]
 1278              		.loc 1 743 0
 1279 00b8 C4E7     		b	.L68
 1280              	.LVL93:
 1281              	.L78:
 1282              		.loc 1 704 0 discriminator 1
 1283 00ba 0120     		movs	r0, #1
 1284              		.loc 1 702 0 discriminator 1
 1285 00bc 002B     		cmp	r3, #0
 1286 00be E7D0     		beq	.L67
 1287 00c0 D2E7     		b	.L65
 1288              	.L74:
 1289              		.loc 1 698 0
 1290 00c2 0220     		movs	r0, #2
 1291 00c4 D0E7     		b	.L65
 1292              	.L72:
 1293              		.loc 1 748 0
 1294 00c6 E06A     		ldr	r0, [r4, #44]
 1295 00c8 064E     		ldr	r6, .L80
 1296              		.loc 1 754 0
 1297 00ca 3C32     		adds	r2, r2, #60
 1298              		.loc 1 748 0
 1299 00cc 8662     		str	r6, [r0, #40]
 1300              		.loc 1 751 0
 1301 00ce 064E     		ldr	r6, .L80+4
 1302 00d0 0663     		str	r6, [r0, #48]
 1303              		.loc 1 754 0
 1304 00d2 FFF7FEFF 		bl	HAL_DMA_Start_IT
 1305              	.LVL94:
 1306              		.loc 1 757 0
 1307 00d6 8023     		movs	r3, #128
 1308 00d8 2268     		ldr	r2, [r4]
 1309 00da 1B01     		lsls	r3, r3, #4
 1310 00dc D168     		ldr	r1, [r2, #12]
 1311 00de 0B43     		orrs	r3, r1
ARM GAS  C:\Users\anashi\AppData\Local\Temp\cc9rFcNX.s 			page 24


 1312 00e0 D360     		str	r3, [r2, #12]
 1313              		.loc 1 759 0
 1314 00e2 AFE7     		b	.L68
 1315              	.L81:
 1316              		.align	2
 1317              	.L80:
 1318 00e4 00000000 		.word	TIM_DMADelayPulseCplt
 1319 00e8 00000000 		.word	TIM_DMAError
 1320              		.cfi_endproc
 1321              	.LFE51:
 1322              		.size	HAL_TIMEx_OCN_Start_DMA, .-HAL_TIMEx_OCN_Start_DMA
 1323              		.section	.text.HAL_TIMEx_OCN_Stop_DMA,"ax",%progbits
 1324              		.align	1
 1325              		.p2align 2,,3
 1326              		.global	HAL_TIMEx_OCN_Stop_DMA
 1327              		.syntax unified
 1328              		.code	16
 1329              		.thumb_func
 1330              		.fpu softvfp
 1331              		.type	HAL_TIMEx_OCN_Stop_DMA, %function
 1332              	HAL_TIMEx_OCN_Stop_DMA:
 1333              	.LFB52:
 1334              		.loc 1 807 0
 1335              		.cfi_startproc
 1336              		@ args = 0, pretend = 0, frame = 0
 1337              		@ frame_needed = 0, uses_anonymous_args = 0
 1338              	.LVL95:
 1339 0000 10B5     		push	{r4, lr}
 1340              		.cfi_def_cfa_offset 8
 1341              		.cfi_offset 4, -8
 1342              		.cfi_offset 14, -4
 1343 0002 0368     		ldr	r3, [r0]
 1344              		.loc 1 811 0
 1345 0004 0429     		cmp	r1, #4
 1346 0006 38D0     		beq	.L84
 1347 0008 30D9     		bls	.L91
 1348 000a 0829     		cmp	r1, #8
 1349 000c 29D0     		beq	.L87
 1350 000e 0C29     		cmp	r1, #12
 1351 0010 03D1     		bne	.L83
 1352              		.loc 1 837 0
 1353 0012 DA68     		ldr	r2, [r3, #12]
 1354 0014 1B4C     		ldr	r4, .L92
 1355 0016 2240     		ands	r2, r4
 1356 0018 DA60     		str	r2, [r3, #12]
 1357              	.L83:
 1358              	.LVL96:
 1359              	.LBB64:
 1360              	.LBB65:
 1361              		.loc 1 1990 0
 1362 001a 0424     		movs	r4, #4
 1363 001c 8C40     		lsls	r4, r4, r1
 1364              	.LVL97:
 1365              		.loc 1 1993 0
 1366 001e 1A6A     		ldr	r2, [r3, #32]
 1367 0020 A243     		bics	r2, r4
 1368 0022 1A62     		str	r2, [r3, #32]
ARM GAS  C:\Users\anashi\AppData\Local\Temp\cc9rFcNX.s 			page 25


 1369              		.loc 1 1996 0
 1370 0024 1A6A     		ldr	r2, [r3, #32]
 1371 0026 1A62     		str	r2, [r3, #32]
 1372              	.LVL98:
 1373              	.LBE65:
 1374              	.LBE64:
 1375              		.loc 1 849 0
 1376 0028 196A     		ldr	r1, [r3, #32]
 1377              	.LVL99:
 1378 002a 174A     		ldr	r2, .L92+4
 1379 002c 1142     		tst	r1, r2
 1380 002e 07D1     		bne	.L89
 1381              		.loc 1 849 0 is_stmt 0 discriminator 1
 1382 0030 196A     		ldr	r1, [r3, #32]
 1383 0032 164A     		ldr	r2, .L92+8
 1384 0034 1142     		tst	r1, r2
 1385 0036 03D1     		bne	.L89
 1386              		.loc 1 849 0 discriminator 2
 1387 0038 5A6C     		ldr	r2, [r3, #68]
 1388 003a 1549     		ldr	r1, .L92+12
 1389 003c 0A40     		ands	r2, r1
 1390 003e 5A64     		str	r2, [r3, #68]
 1391              	.L89:
 1392              		.loc 1 852 0 is_stmt 1
 1393 0040 196A     		ldr	r1, [r3, #32]
 1394 0042 114A     		ldr	r2, .L92+4
 1395 0044 1142     		tst	r1, r2
 1396 0046 07D1     		bne	.L90
 1397              		.loc 1 852 0 is_stmt 0 discriminator 1
 1398 0048 196A     		ldr	r1, [r3, #32]
 1399 004a 104A     		ldr	r2, .L92+8
 1400 004c 1142     		tst	r1, r2
 1401 004e 03D1     		bne	.L90
 1402              		.loc 1 852 0 discriminator 2
 1403 0050 0121     		movs	r1, #1
 1404 0052 1A68     		ldr	r2, [r3]
 1405 0054 8A43     		bics	r2, r1
 1406 0056 1A60     		str	r2, [r3]
 1407              	.L90:
 1408              		.loc 1 855 0 is_stmt 1
 1409 0058 3D23     		movs	r3, #61
 1410 005a 0122     		movs	r2, #1
 1411              		.loc 1 859 0
 1412              		@ sp needed
 1413              		.loc 1 855 0
 1414 005c C254     		strb	r2, [r0, r3]
 1415              		.loc 1 859 0
 1416 005e 0020     		movs	r0, #0
 1417              	.LVL100:
 1418 0060 10BD     		pop	{r4, pc}
 1419              	.LVL101:
 1420              	.L87:
 1421              		.loc 1 830 0
 1422 0062 DA68     		ldr	r2, [r3, #12]
 1423 0064 0B4C     		ldr	r4, .L92+16
 1424 0066 2240     		ands	r2, r4
 1425 0068 DA60     		str	r2, [r3, #12]
ARM GAS  C:\Users\anashi\AppData\Local\Temp\cc9rFcNX.s 			page 26


 1426              		.loc 1 832 0
 1427 006a D6E7     		b	.L83
 1428              	.L91:
 1429              		.loc 1 811 0
 1430 006c 0029     		cmp	r1, #0
 1431 006e D4D1     		bne	.L83
 1432              		.loc 1 816 0
 1433 0070 DA68     		ldr	r2, [r3, #12]
 1434 0072 094C     		ldr	r4, .L92+20
 1435 0074 2240     		ands	r2, r4
 1436 0076 DA60     		str	r2, [r3, #12]
 1437              		.loc 1 818 0
 1438 0078 CFE7     		b	.L83
 1439              	.L84:
 1440              		.loc 1 823 0
 1441 007a DA68     		ldr	r2, [r3, #12]
 1442 007c 074C     		ldr	r4, .L92+24
 1443 007e 2240     		ands	r2, r4
 1444 0080 DA60     		str	r2, [r3, #12]
 1445              		.loc 1 825 0
 1446 0082 CAE7     		b	.L83
 1447              	.L93:
 1448              		.align	2
 1449              	.L92:
 1450 0084 FFEFFFFF 		.word	-4097
 1451 0088 11110000 		.word	4369
 1452 008c 44040000 		.word	1092
 1453 0090 FF7FFFFF 		.word	-32769
 1454 0094 FFF7FFFF 		.word	-2049
 1455 0098 FFFDFFFF 		.word	-513
 1456 009c FFFBFFFF 		.word	-1025
 1457              		.cfi_endproc
 1458              	.LFE52:
 1459              		.size	HAL_TIMEx_OCN_Stop_DMA, .-HAL_TIMEx_OCN_Stop_DMA
 1460              		.section	.text.HAL_TIMEx_PWMN_Start,"ax",%progbits
 1461              		.align	1
 1462              		.p2align 2,,3
 1463              		.global	HAL_TIMEx_PWMN_Start
 1464              		.syntax unified
 1465              		.code	16
 1466              		.thumb_func
 1467              		.fpu softvfp
 1468              		.type	HAL_TIMEx_PWMN_Start, %function
 1469              	HAL_TIMEx_PWMN_Start:
 1470              	.LFB81:
 1471              		.cfi_startproc
 1472              		@ args = 0, pretend = 0, frame = 0
 1473              		@ frame_needed = 0, uses_anonymous_args = 0
 1474              		@ link register save eliminated.
 1475 0000 0422     		movs	r2, #4
 1476 0002 8A40     		lsls	r2, r2, r1
 1477 0004 0368     		ldr	r3, [r0]
 1478              		@ sp needed
 1479 0006 196A     		ldr	r1, [r3, #32]
 1480 0008 0020     		movs	r0, #0
 1481 000a 9143     		bics	r1, r2
 1482 000c 1962     		str	r1, [r3, #32]
ARM GAS  C:\Users\anashi\AppData\Local\Temp\cc9rFcNX.s 			page 27


 1483 000e 196A     		ldr	r1, [r3, #32]
 1484 0010 0A43     		orrs	r2, r1
 1485 0012 1A62     		str	r2, [r3, #32]
 1486 0014 8022     		movs	r2, #128
 1487 0016 596C     		ldr	r1, [r3, #68]
 1488 0018 1202     		lsls	r2, r2, #8
 1489 001a 0A43     		orrs	r2, r1
 1490 001c 0121     		movs	r1, #1
 1491 001e 5A64     		str	r2, [r3, #68]
 1492 0020 1A68     		ldr	r2, [r3]
 1493 0022 0A43     		orrs	r2, r1
 1494 0024 1A60     		str	r2, [r3]
 1495 0026 7047     		bx	lr
 1496              		.cfi_endproc
 1497              	.LFE81:
 1498              		.size	HAL_TIMEx_PWMN_Start, .-HAL_TIMEx_PWMN_Start
 1499              		.section	.text.HAL_TIMEx_PWMN_Stop,"ax",%progbits
 1500              		.align	1
 1501              		.p2align 2,,3
 1502              		.global	HAL_TIMEx_PWMN_Stop
 1503              		.syntax unified
 1504              		.code	16
 1505              		.thumb_func
 1506              		.fpu softvfp
 1507              		.type	HAL_TIMEx_PWMN_Stop, %function
 1508              	HAL_TIMEx_PWMN_Stop:
 1509              	.LFB83:
 1510              		.cfi_startproc
 1511              		@ args = 0, pretend = 0, frame = 0
 1512              		@ frame_needed = 0, uses_anonymous_args = 0
 1513              		@ link register save eliminated.
 1514 0000 0368     		ldr	r3, [r0]
 1515 0002 0420     		movs	r0, #4
 1516 0004 8840     		lsls	r0, r0, r1
 1517 0006 1A6A     		ldr	r2, [r3, #32]
 1518 0008 8243     		bics	r2, r0
 1519 000a 1A62     		str	r2, [r3, #32]
 1520 000c 1A6A     		ldr	r2, [r3, #32]
 1521 000e 1A62     		str	r2, [r3, #32]
 1522 0010 196A     		ldr	r1, [r3, #32]
 1523 0012 0D4A     		ldr	r2, .L99
 1524 0014 1142     		tst	r1, r2
 1525 0016 03D1     		bne	.L96
 1526 0018 196A     		ldr	r1, [r3, #32]
 1527 001a 0C4A     		ldr	r2, .L99+4
 1528 001c 1142     		tst	r1, r2
 1529 001e 0DD0     		beq	.L98
 1530              	.L96:
 1531 0020 196A     		ldr	r1, [r3, #32]
 1532 0022 094A     		ldr	r2, .L99
 1533 0024 1142     		tst	r1, r2
 1534 0026 07D1     		bne	.L97
 1535 0028 196A     		ldr	r1, [r3, #32]
 1536 002a 084A     		ldr	r2, .L99+4
 1537 002c 1142     		tst	r1, r2
 1538 002e 03D1     		bne	.L97
 1539 0030 0121     		movs	r1, #1
ARM GAS  C:\Users\anashi\AppData\Local\Temp\cc9rFcNX.s 			page 28


 1540 0032 1A68     		ldr	r2, [r3]
 1541 0034 8A43     		bics	r2, r1
 1542 0036 1A60     		str	r2, [r3]
 1543              	.L97:
 1544 0038 0020     		movs	r0, #0
 1545              		@ sp needed
 1546 003a 7047     		bx	lr
 1547              	.L98:
 1548 003c 5A6C     		ldr	r2, [r3, #68]
 1549 003e 0449     		ldr	r1, .L99+8
 1550 0040 0A40     		ands	r2, r1
 1551 0042 5A64     		str	r2, [r3, #68]
 1552 0044 ECE7     		b	.L96
 1553              	.L100:
 1554 0046 C046     		.align	2
 1555              	.L99:
 1556 0048 11110000 		.word	4369
 1557 004c 44040000 		.word	1092
 1558 0050 FF7FFFFF 		.word	-32769
 1559              		.cfi_endproc
 1560              	.LFE83:
 1561              		.size	HAL_TIMEx_PWMN_Stop, .-HAL_TIMEx_PWMN_Stop
 1562              		.section	.text.HAL_TIMEx_PWMN_Start_IT,"ax",%progbits
 1563              		.align	1
 1564              		.p2align 2,,3
 1565              		.global	HAL_TIMEx_PWMN_Start_IT
 1566              		.syntax unified
 1567              		.code	16
 1568              		.thumb_func
 1569              		.fpu softvfp
 1570              		.type	HAL_TIMEx_PWMN_Start_IT, %function
 1571              	HAL_TIMEx_PWMN_Start_IT:
 1572              	.LFB87:
 1573              		.cfi_startproc
 1574              		@ args = 0, pretend = 0, frame = 0
 1575              		@ frame_needed = 0, uses_anonymous_args = 0
 1576              		@ link register save eliminated.
 1577 0000 0368     		ldr	r3, [r0]
 1578 0002 0429     		cmp	r1, #4
 1579 0004 1FD0     		beq	.L106
 1580 0006 22D9     		bls	.L108
 1581 0008 0829     		cmp	r1, #8
 1582 000a 1CD0     		beq	.L106
 1583 000c 0C29     		cmp	r1, #12
 1584 000e 03D1     		bne	.L102
 1585 0010 1020     		movs	r0, #16
 1586 0012 DA68     		ldr	r2, [r3, #12]
 1587 0014 0243     		orrs	r2, r0
 1588 0016 DA60     		str	r2, [r3, #12]
 1589              	.L102:
 1590 0018 8020     		movs	r0, #128
 1591 001a DA68     		ldr	r2, [r3, #12]
 1592              		@ sp needed
 1593 001c 0243     		orrs	r2, r0
 1594 001e DA60     		str	r2, [r3, #12]
 1595 0020 0422     		movs	r2, #4
 1596 0022 8A40     		lsls	r2, r2, r1
ARM GAS  C:\Users\anashi\AppData\Local\Temp\cc9rFcNX.s 			page 29


 1597 0024 196A     		ldr	r1, [r3, #32]
 1598 0026 0020     		movs	r0, #0
 1599 0028 9143     		bics	r1, r2
 1600 002a 1962     		str	r1, [r3, #32]
 1601 002c 196A     		ldr	r1, [r3, #32]
 1602 002e 0A43     		orrs	r2, r1
 1603 0030 1A62     		str	r2, [r3, #32]
 1604 0032 8022     		movs	r2, #128
 1605 0034 596C     		ldr	r1, [r3, #68]
 1606 0036 1202     		lsls	r2, r2, #8
 1607 0038 0A43     		orrs	r2, r1
 1608 003a 0121     		movs	r1, #1
 1609 003c 5A64     		str	r2, [r3, #68]
 1610 003e 1A68     		ldr	r2, [r3]
 1611 0040 0A43     		orrs	r2, r1
 1612 0042 1A60     		str	r2, [r3]
 1613 0044 7047     		bx	lr
 1614              	.L106:
 1615 0046 DA68     		ldr	r2, [r3, #12]
 1616 0048 0A43     		orrs	r2, r1
 1617 004a DA60     		str	r2, [r3, #12]
 1618 004c E4E7     		b	.L102
 1619              	.L108:
 1620 004e 0029     		cmp	r1, #0
 1621 0050 E2D1     		bne	.L102
 1622 0052 0220     		movs	r0, #2
 1623 0054 DA68     		ldr	r2, [r3, #12]
 1624 0056 0243     		orrs	r2, r0
 1625 0058 DA60     		str	r2, [r3, #12]
 1626 005a DDE7     		b	.L102
 1627              		.cfi_endproc
 1628              	.LFE87:
 1629              		.size	HAL_TIMEx_PWMN_Start_IT, .-HAL_TIMEx_PWMN_Start_IT
 1630              		.section	.text.HAL_TIMEx_PWMN_Stop_IT,"ax",%progbits
 1631              		.align	1
 1632              		.p2align 2,,3
 1633              		.global	HAL_TIMEx_PWMN_Stop_IT
 1634              		.syntax unified
 1635              		.code	16
 1636              		.thumb_func
 1637              		.fpu softvfp
 1638              		.type	HAL_TIMEx_PWMN_Stop_IT, %function
 1639              	HAL_TIMEx_PWMN_Stop_IT:
 1640              	.LFB89:
 1641              		.cfi_startproc
 1642              		@ args = 0, pretend = 0, frame = 0
 1643              		@ frame_needed = 0, uses_anonymous_args = 0
 1644              		@ link register save eliminated.
 1645 0000 0368     		ldr	r3, [r0]
 1646 0002 0429     		cmp	r1, #4
 1647 0004 31D0     		beq	.L114
 1648 0006 34D9     		bls	.L119
 1649 0008 0829     		cmp	r1, #8
 1650 000a 2ED0     		beq	.L114
 1651 000c 0C29     		cmp	r1, #12
 1652 000e 03D1     		bne	.L110
 1653 0010 1020     		movs	r0, #16
ARM GAS  C:\Users\anashi\AppData\Local\Temp\cc9rFcNX.s 			page 30


 1654 0012 DA68     		ldr	r2, [r3, #12]
 1655 0014 8243     		bics	r2, r0
 1656 0016 DA60     		str	r2, [r3, #12]
 1657              	.L110:
 1658 0018 0420     		movs	r0, #4
 1659 001a 8840     		lsls	r0, r0, r1
 1660 001c 1A6A     		ldr	r2, [r3, #32]
 1661 001e 8243     		bics	r2, r0
 1662 0020 1A62     		str	r2, [r3, #32]
 1663 0022 1A6A     		ldr	r2, [r3, #32]
 1664 0024 1A62     		str	r2, [r3, #32]
 1665 0026 196A     		ldr	r1, [r3, #32]
 1666 0028 154A     		ldr	r2, .L120
 1667 002a 1142     		tst	r1, r2
 1668 002c 03D1     		bne	.L116
 1669 002e 8021     		movs	r1, #128
 1670 0030 DA68     		ldr	r2, [r3, #12]
 1671 0032 8A43     		bics	r2, r1
 1672 0034 DA60     		str	r2, [r3, #12]
 1673              	.L116:
 1674 0036 196A     		ldr	r1, [r3, #32]
 1675 0038 124A     		ldr	r2, .L120+4
 1676 003a 1142     		tst	r1, r2
 1677 003c 07D1     		bne	.L117
 1678 003e 196A     		ldr	r1, [r3, #32]
 1679 0040 0F4A     		ldr	r2, .L120
 1680 0042 1142     		tst	r1, r2
 1681 0044 03D1     		bne	.L117
 1682 0046 5A6C     		ldr	r2, [r3, #68]
 1683 0048 0F49     		ldr	r1, .L120+8
 1684 004a 0A40     		ands	r2, r1
 1685 004c 5A64     		str	r2, [r3, #68]
 1686              	.L117:
 1687 004e 196A     		ldr	r1, [r3, #32]
 1688 0050 0C4A     		ldr	r2, .L120+4
 1689 0052 1142     		tst	r1, r2
 1690 0054 07D1     		bne	.L118
 1691 0056 196A     		ldr	r1, [r3, #32]
 1692 0058 094A     		ldr	r2, .L120
 1693 005a 1142     		tst	r1, r2
 1694 005c 03D1     		bne	.L118
 1695 005e 0121     		movs	r1, #1
 1696 0060 1A68     		ldr	r2, [r3]
 1697 0062 8A43     		bics	r2, r1
 1698 0064 1A60     		str	r2, [r3]
 1699              	.L118:
 1700 0066 0020     		movs	r0, #0
 1701              		@ sp needed
 1702 0068 7047     		bx	lr
 1703              	.L114:
 1704 006a DA68     		ldr	r2, [r3, #12]
 1705 006c 8A43     		bics	r2, r1
 1706 006e DA60     		str	r2, [r3, #12]
 1707 0070 D2E7     		b	.L110
 1708              	.L119:
 1709 0072 0029     		cmp	r1, #0
 1710 0074 D0D1     		bne	.L110
ARM GAS  C:\Users\anashi\AppData\Local\Temp\cc9rFcNX.s 			page 31


 1711 0076 0220     		movs	r0, #2
 1712 0078 DA68     		ldr	r2, [r3, #12]
 1713 007a 8243     		bics	r2, r0
 1714 007c DA60     		str	r2, [r3, #12]
 1715 007e CBE7     		b	.L110
 1716              	.L121:
 1717              		.align	2
 1718              	.L120:
 1719 0080 44040000 		.word	1092
 1720 0084 11110000 		.word	4369
 1721 0088 FF7FFFFF 		.word	-32769
 1722              		.cfi_endproc
 1723              	.LFE89:
 1724              		.size	HAL_TIMEx_PWMN_Stop_IT, .-HAL_TIMEx_PWMN_Stop_IT
 1725              		.section	.text.HAL_TIMEx_PWMN_Start_DMA,"ax",%progbits
 1726              		.align	1
 1727              		.p2align 2,,3
 1728              		.global	HAL_TIMEx_PWMN_Start_DMA
 1729              		.syntax unified
 1730              		.code	16
 1731              		.thumb_func
 1732              		.fpu softvfp
 1733              		.type	HAL_TIMEx_PWMN_Start_DMA, %function
 1734              	HAL_TIMEx_PWMN_Start_DMA:
 1735              	.LFB91:
 1736              		.cfi_startproc
 1737              		@ args = 0, pretend = 0, frame = 0
 1738              		@ frame_needed = 0, uses_anonymous_args = 0
 1739 0000 70B5     		push	{r4, r5, r6, lr}
 1740              		.cfi_def_cfa_offset 16
 1741              		.cfi_offset 4, -16
 1742              		.cfi_offset 5, -12
 1743              		.cfi_offset 6, -8
 1744              		.cfi_offset 14, -4
 1745 0002 0D00     		movs	r5, r1
 1746 0004 1100     		movs	r1, r2
 1747 0006 3D22     		movs	r2, #61
 1748 0008 0400     		movs	r4, r0
 1749 000a 805C     		ldrb	r0, [r0, r2]
 1750 000c 0228     		cmp	r0, #2
 1751 000e 58D0     		beq	.L132
 1752 0010 A25C     		ldrb	r2, [r4, r2]
 1753 0012 012A     		cmp	r2, #1
 1754 0014 3AD0     		beq	.L134
 1755 0016 2268     		ldr	r2, [r4]
 1756 0018 042D     		cmp	r5, #4
 1757 001a 3FD0     		beq	.L127
 1758              	.L137:
 1759 001c 042D     		cmp	r5, #4
 1760 001e 24D9     		bls	.L135
 1761 0020 082D     		cmp	r5, #8
 1762 0022 50D0     		beq	.L130
 1763 0024 0C2D     		cmp	r5, #12
 1764 0026 0DD1     		bne	.L126
 1765 0028 206B     		ldr	r0, [r4, #48]
 1766 002a 2E4E     		ldr	r6, .L138
 1767 002c 4032     		adds	r2, r2, #64
ARM GAS  C:\Users\anashi\AppData\Local\Temp\cc9rFcNX.s 			page 32


 1768 002e 8662     		str	r6, [r0, #40]
 1769 0030 2D4E     		ldr	r6, .L138+4
 1770 0032 0663     		str	r6, [r0, #48]
 1771 0034 FFF7FEFF 		bl	HAL_DMA_Start_IT
 1772 0038 8023     		movs	r3, #128
 1773 003a 2268     		ldr	r2, [r4]
 1774 003c 5B01     		lsls	r3, r3, #5
 1775 003e D168     		ldr	r1, [r2, #12]
 1776 0040 0B43     		orrs	r3, r1
 1777 0042 D360     		str	r3, [r2, #12]
 1778              	.L126:
 1779 0044 0423     		movs	r3, #4
 1780 0046 AB40     		lsls	r3, r3, r5
 1781 0048 116A     		ldr	r1, [r2, #32]
 1782 004a 0020     		movs	r0, #0
 1783 004c 9943     		bics	r1, r3
 1784 004e 1162     		str	r1, [r2, #32]
 1785 0050 116A     		ldr	r1, [r2, #32]
 1786 0052 0B43     		orrs	r3, r1
 1787 0054 1362     		str	r3, [r2, #32]
 1788 0056 8023     		movs	r3, #128
 1789 0058 516C     		ldr	r1, [r2, #68]
 1790 005a 1B02     		lsls	r3, r3, #8
 1791 005c 0B43     		orrs	r3, r1
 1792 005e 0121     		movs	r1, #1
 1793 0060 5364     		str	r3, [r2, #68]
 1794 0062 1368     		ldr	r3, [r2]
 1795 0064 0B43     		orrs	r3, r1
 1796 0066 1360     		str	r3, [r2]
 1797              	.L123:
 1798              		@ sp needed
 1799 0068 70BD     		pop	{r4, r5, r6, pc}
 1800              	.L135:
 1801 006a 002D     		cmp	r5, #0
 1802 006c EAD1     		bne	.L126
 1803 006e 606A     		ldr	r0, [r4, #36]
 1804 0070 1C4E     		ldr	r6, .L138
 1805 0072 3432     		adds	r2, r2, #52
 1806 0074 8662     		str	r6, [r0, #40]
 1807 0076 1C4E     		ldr	r6, .L138+4
 1808 0078 0663     		str	r6, [r0, #48]
 1809 007a FFF7FEFF 		bl	HAL_DMA_Start_IT
 1810 007e 8023     		movs	r3, #128
 1811 0080 2268     		ldr	r2, [r4]
 1812 0082 9B00     		lsls	r3, r3, #2
 1813 0084 D168     		ldr	r1, [r2, #12]
 1814 0086 0B43     		orrs	r3, r1
 1815 0088 D360     		str	r3, [r2, #12]
 1816 008a DBE7     		b	.L126
 1817              	.L134:
 1818 008c 0029     		cmp	r1, #0
 1819 008e 14D0     		beq	.L136
 1820              	.L125:
 1821 0090 3D22     		movs	r2, #61
 1822 0092 0220     		movs	r0, #2
 1823 0094 A054     		strb	r0, [r4, r2]
 1824 0096 2268     		ldr	r2, [r4]
ARM GAS  C:\Users\anashi\AppData\Local\Temp\cc9rFcNX.s 			page 33


 1825 0098 042D     		cmp	r5, #4
 1826 009a BFD1     		bne	.L137
 1827              	.L127:
 1828 009c A06A     		ldr	r0, [r4, #40]
 1829 009e 114E     		ldr	r6, .L138
 1830 00a0 3832     		adds	r2, r2, #56
 1831 00a2 8662     		str	r6, [r0, #40]
 1832 00a4 104E     		ldr	r6, .L138+4
 1833 00a6 0663     		str	r6, [r0, #48]
 1834 00a8 FFF7FEFF 		bl	HAL_DMA_Start_IT
 1835 00ac 8023     		movs	r3, #128
 1836 00ae 2268     		ldr	r2, [r4]
 1837 00b0 DB00     		lsls	r3, r3, #3
 1838 00b2 D168     		ldr	r1, [r2, #12]
 1839 00b4 0B43     		orrs	r3, r1
 1840 00b6 D360     		str	r3, [r2, #12]
 1841 00b8 C4E7     		b	.L126
 1842              	.L136:
 1843 00ba 0120     		movs	r0, #1
 1844 00bc 002B     		cmp	r3, #0
 1845 00be E7D0     		beq	.L125
 1846 00c0 D2E7     		b	.L123
 1847              	.L132:
 1848 00c2 0220     		movs	r0, #2
 1849 00c4 D0E7     		b	.L123
 1850              	.L130:
 1851 00c6 E06A     		ldr	r0, [r4, #44]
 1852 00c8 064E     		ldr	r6, .L138
 1853 00ca 3C32     		adds	r2, r2, #60
 1854 00cc 8662     		str	r6, [r0, #40]
 1855 00ce 064E     		ldr	r6, .L138+4
 1856 00d0 0663     		str	r6, [r0, #48]
 1857 00d2 FFF7FEFF 		bl	HAL_DMA_Start_IT
 1858 00d6 8023     		movs	r3, #128
 1859 00d8 2268     		ldr	r2, [r4]
 1860 00da 1B01     		lsls	r3, r3, #4
 1861 00dc D168     		ldr	r1, [r2, #12]
 1862 00de 0B43     		orrs	r3, r1
 1863 00e0 D360     		str	r3, [r2, #12]
 1864 00e2 AFE7     		b	.L126
 1865              	.L139:
 1866              		.align	2
 1867              	.L138:
 1868 00e4 00000000 		.word	TIM_DMADelayPulseCplt
 1869 00e8 00000000 		.word	TIM_DMAError
 1870              		.cfi_endproc
 1871              	.LFE91:
 1872              		.size	HAL_TIMEx_PWMN_Start_DMA, .-HAL_TIMEx_PWMN_Start_DMA
 1873              		.section	.text.HAL_TIMEx_PWMN_Stop_DMA,"ax",%progbits
 1874              		.align	1
 1875              		.p2align 2,,3
 1876              		.global	HAL_TIMEx_PWMN_Stop_DMA
 1877              		.syntax unified
 1878              		.code	16
 1879              		.thumb_func
 1880              		.fpu softvfp
 1881              		.type	HAL_TIMEx_PWMN_Stop_DMA, %function
ARM GAS  C:\Users\anashi\AppData\Local\Temp\cc9rFcNX.s 			page 34


 1882              	HAL_TIMEx_PWMN_Stop_DMA:
 1883              	.LFB93:
 1884              		.cfi_startproc
 1885              		@ args = 0, pretend = 0, frame = 0
 1886              		@ frame_needed = 0, uses_anonymous_args = 0
 1887 0000 10B5     		push	{r4, lr}
 1888              		.cfi_def_cfa_offset 8
 1889              		.cfi_offset 4, -8
 1890              		.cfi_offset 14, -4
 1891 0002 0368     		ldr	r3, [r0]
 1892 0004 0429     		cmp	r1, #4
 1893 0006 38D0     		beq	.L142
 1894 0008 30D9     		bls	.L149
 1895 000a 0829     		cmp	r1, #8
 1896 000c 29D0     		beq	.L145
 1897 000e 0C29     		cmp	r1, #12
 1898 0010 03D1     		bne	.L141
 1899 0012 DA68     		ldr	r2, [r3, #12]
 1900 0014 1B4C     		ldr	r4, .L150
 1901 0016 2240     		ands	r2, r4
 1902 0018 DA60     		str	r2, [r3, #12]
 1903              	.L141:
 1904 001a 0424     		movs	r4, #4
 1905 001c 8C40     		lsls	r4, r4, r1
 1906 001e 1A6A     		ldr	r2, [r3, #32]
 1907 0020 A243     		bics	r2, r4
 1908 0022 1A62     		str	r2, [r3, #32]
 1909 0024 1A6A     		ldr	r2, [r3, #32]
 1910 0026 1A62     		str	r2, [r3, #32]
 1911 0028 196A     		ldr	r1, [r3, #32]
 1912 002a 174A     		ldr	r2, .L150+4
 1913 002c 1142     		tst	r1, r2
 1914 002e 07D1     		bne	.L147
 1915 0030 196A     		ldr	r1, [r3, #32]
 1916 0032 164A     		ldr	r2, .L150+8
 1917 0034 1142     		tst	r1, r2
 1918 0036 03D1     		bne	.L147
 1919 0038 5A6C     		ldr	r2, [r3, #68]
 1920 003a 1549     		ldr	r1, .L150+12
 1921 003c 0A40     		ands	r2, r1
 1922 003e 5A64     		str	r2, [r3, #68]
 1923              	.L147:
 1924 0040 196A     		ldr	r1, [r3, #32]
 1925 0042 114A     		ldr	r2, .L150+4
 1926 0044 1142     		tst	r1, r2
 1927 0046 07D1     		bne	.L148
 1928 0048 196A     		ldr	r1, [r3, #32]
 1929 004a 104A     		ldr	r2, .L150+8
 1930 004c 1142     		tst	r1, r2
 1931 004e 03D1     		bne	.L148
 1932 0050 0121     		movs	r1, #1
 1933 0052 1A68     		ldr	r2, [r3]
 1934 0054 8A43     		bics	r2, r1
 1935 0056 1A60     		str	r2, [r3]
 1936              	.L148:
 1937 0058 3D23     		movs	r3, #61
 1938 005a 0122     		movs	r2, #1
ARM GAS  C:\Users\anashi\AppData\Local\Temp\cc9rFcNX.s 			page 35


 1939              		@ sp needed
 1940 005c C254     		strb	r2, [r0, r3]
 1941 005e 0020     		movs	r0, #0
 1942 0060 10BD     		pop	{r4, pc}
 1943              	.L145:
 1944 0062 DA68     		ldr	r2, [r3, #12]
 1945 0064 0B4C     		ldr	r4, .L150+16
 1946 0066 2240     		ands	r2, r4
 1947 0068 DA60     		str	r2, [r3, #12]
 1948 006a D6E7     		b	.L141
 1949              	.L149:
 1950 006c 0029     		cmp	r1, #0
 1951 006e D4D1     		bne	.L141
 1952 0070 DA68     		ldr	r2, [r3, #12]
 1953 0072 094C     		ldr	r4, .L150+20
 1954 0074 2240     		ands	r2, r4
 1955 0076 DA60     		str	r2, [r3, #12]
 1956 0078 CFE7     		b	.L141
 1957              	.L142:
 1958 007a DA68     		ldr	r2, [r3, #12]
 1959 007c 074C     		ldr	r4, .L150+24
 1960 007e 2240     		ands	r2, r4
 1961 0080 DA60     		str	r2, [r3, #12]
 1962 0082 CAE7     		b	.L141
 1963              	.L151:
 1964              		.align	2
 1965              	.L150:
 1966 0084 FFEFFFFF 		.word	-4097
 1967 0088 11110000 		.word	4369
 1968 008c 44040000 		.word	1092
 1969 0090 FF7FFFFF 		.word	-32769
 1970 0094 FFF7FFFF 		.word	-2049
 1971 0098 FFFDFFFF 		.word	-513
 1972 009c FFFBFFFF 		.word	-1025
 1973              		.cfi_endproc
 1974              	.LFE93:
 1975              		.size	HAL_TIMEx_PWMN_Stop_DMA, .-HAL_TIMEx_PWMN_Stop_DMA
 1976              		.section	.text.HAL_TIMEx_OnePulseN_Start,"ax",%progbits
 1977              		.align	1
 1978              		.p2align 2,,3
 1979              		.global	HAL_TIMEx_OnePulseN_Start
 1980              		.syntax unified
 1981              		.code	16
 1982              		.thumb_func
 1983              		.fpu softvfp
 1984              		.type	HAL_TIMEx_OnePulseN_Start, %function
 1985              	HAL_TIMEx_OnePulseN_Start:
 1986              	.LFB59:
 1987              		.loc 1 1310 0
 1988              		.cfi_startproc
 1989              		@ args = 0, pretend = 0, frame = 0
 1990              		@ frame_needed = 0, uses_anonymous_args = 0
 1991              		@ link register save eliminated.
 1992              	.LVL102:
 1993              	.LBB66:
 1994              	.LBB67:
 1995              		.loc 1 1990 0
ARM GAS  C:\Users\anashi\AppData\Local\Temp\cc9rFcNX.s 			page 36


 1996 0000 0422     		movs	r2, #4
 1997 0002 8A40     		lsls	r2, r2, r1
 1998              	.LBE67:
 1999              	.LBE66:
 2000              		.loc 1 1315 0
 2001 0004 0368     		ldr	r3, [r0]
 2002              	.LVL103:
 2003              		.loc 1 1322 0
 2004              		@ sp needed
 2005              	.LBB70:
 2006              	.LBB68:
 2007              		.loc 1 1993 0
 2008 0006 196A     		ldr	r1, [r3, #32]
 2009              	.LVL104:
 2010              	.LBE68:
 2011              	.LBE70:
 2012              		.loc 1 1322 0
 2013 0008 0020     		movs	r0, #0
 2014              	.LVL105:
 2015              	.LBB71:
 2016              	.LBB69:
 2017              		.loc 1 1993 0
 2018 000a 9143     		bics	r1, r2
 2019 000c 1962     		str	r1, [r3, #32]
 2020              		.loc 1 1996 0
 2021 000e 196A     		ldr	r1, [r3, #32]
 2022 0010 0A43     		orrs	r2, r1
 2023              	.LVL106:
 2024 0012 1A62     		str	r2, [r3, #32]
 2025              	.LVL107:
 2026              	.LBE69:
 2027              	.LBE71:
 2028              		.loc 1 1318 0
 2029 0014 8022     		movs	r2, #128
 2030 0016 596C     		ldr	r1, [r3, #68]
 2031 0018 1202     		lsls	r2, r2, #8
 2032 001a 0A43     		orrs	r2, r1
 2033 001c 5A64     		str	r2, [r3, #68]
 2034              		.loc 1 1322 0
 2035 001e 7047     		bx	lr
 2036              		.cfi_endproc
 2037              	.LFE59:
 2038              		.size	HAL_TIMEx_OnePulseN_Start, .-HAL_TIMEx_OnePulseN_Start
 2039              		.section	.text.HAL_TIMEx_OnePulseN_Stop,"ax",%progbits
 2040              		.align	1
 2041              		.p2align 2,,3
 2042              		.global	HAL_TIMEx_OnePulseN_Stop
 2043              		.syntax unified
 2044              		.code	16
 2045              		.thumb_func
 2046              		.fpu softvfp
 2047              		.type	HAL_TIMEx_OnePulseN_Stop, %function
 2048              	HAL_TIMEx_OnePulseN_Stop:
 2049              	.LFB85:
 2050              		.cfi_startproc
 2051              		@ args = 0, pretend = 0, frame = 0
 2052              		@ frame_needed = 0, uses_anonymous_args = 0
ARM GAS  C:\Users\anashi\AppData\Local\Temp\cc9rFcNX.s 			page 37


 2053              		@ link register save eliminated.
 2054 0000 0368     		ldr	r3, [r0]
 2055 0002 0420     		movs	r0, #4
 2056 0004 8840     		lsls	r0, r0, r1
 2057 0006 1A6A     		ldr	r2, [r3, #32]
 2058 0008 8243     		bics	r2, r0
 2059 000a 1A62     		str	r2, [r3, #32]
 2060 000c 1A6A     		ldr	r2, [r3, #32]
 2061 000e 1A62     		str	r2, [r3, #32]
 2062 0010 196A     		ldr	r1, [r3, #32]
 2063 0012 0D4A     		ldr	r2, .L157
 2064 0014 1142     		tst	r1, r2
 2065 0016 03D1     		bne	.L154
 2066 0018 196A     		ldr	r1, [r3, #32]
 2067 001a 0C4A     		ldr	r2, .L157+4
 2068 001c 1142     		tst	r1, r2
 2069 001e 0DD0     		beq	.L156
 2070              	.L154:
 2071 0020 196A     		ldr	r1, [r3, #32]
 2072 0022 094A     		ldr	r2, .L157
 2073 0024 1142     		tst	r1, r2
 2074 0026 07D1     		bne	.L155
 2075 0028 196A     		ldr	r1, [r3, #32]
 2076 002a 084A     		ldr	r2, .L157+4
 2077 002c 1142     		tst	r1, r2
 2078 002e 03D1     		bne	.L155
 2079 0030 0121     		movs	r1, #1
 2080 0032 1A68     		ldr	r2, [r3]
 2081 0034 8A43     		bics	r2, r1
 2082 0036 1A60     		str	r2, [r3]
 2083              	.L155:
 2084 0038 0020     		movs	r0, #0
 2085              		@ sp needed
 2086 003a 7047     		bx	lr
 2087              	.L156:
 2088 003c 5A6C     		ldr	r2, [r3, #68]
 2089 003e 0449     		ldr	r1, .L157+8
 2090 0040 0A40     		ands	r2, r1
 2091 0042 5A64     		str	r2, [r3, #68]
 2092 0044 ECE7     		b	.L154
 2093              	.L158:
 2094 0046 C046     		.align	2
 2095              	.L157:
 2096 0048 11110000 		.word	4369
 2097 004c 44040000 		.word	1092
 2098 0050 FF7FFFFF 		.word	-32769
 2099              		.cfi_endproc
 2100              	.LFE85:
 2101              		.size	HAL_TIMEx_OnePulseN_Stop, .-HAL_TIMEx_OnePulseN_Stop
 2102              		.section	.text.HAL_TIMEx_OnePulseN_Start_IT,"ax",%progbits
 2103              		.align	1
 2104              		.p2align 2,,3
 2105              		.global	HAL_TIMEx_OnePulseN_Start_IT
 2106              		.syntax unified
 2107              		.code	16
 2108              		.thumb_func
 2109              		.fpu softvfp
ARM GAS  C:\Users\anashi\AppData\Local\Temp\cc9rFcNX.s 			page 38


 2110              		.type	HAL_TIMEx_OnePulseN_Start_IT, %function
 2111              	HAL_TIMEx_OnePulseN_Start_IT:
 2112              	.LFB61:
 2113              		.loc 1 1364 0
 2114              		.cfi_startproc
 2115              		@ args = 0, pretend = 0, frame = 0
 2116              		@ frame_needed = 0, uses_anonymous_args = 0
 2117              		@ link register save eliminated.
 2118              	.LVL108:
 2119              		.loc 1 1369 0
 2120 0000 0368     		ldr	r3, [r0]
 2121 0002 0220     		movs	r0, #2
 2122              	.LVL109:
 2123 0004 DA68     		ldr	r2, [r3, #12]
 2124              		.loc 1 1382 0
 2125              		@ sp needed
 2126              		.loc 1 1369 0
 2127 0006 0243     		orrs	r2, r0
 2128 0008 DA60     		str	r2, [r3, #12]
 2129              		.loc 1 1372 0
 2130 000a 0422     		movs	r2, #4
 2131 000c D868     		ldr	r0, [r3, #12]
 2132 000e 1043     		orrs	r0, r2
 2133              	.LBB72:
 2134              	.LBB73:
 2135              		.loc 1 1990 0
 2136 0010 8A40     		lsls	r2, r2, r1
 2137              	.LBE73:
 2138              	.LBE72:
 2139              		.loc 1 1372 0
 2140 0012 D860     		str	r0, [r3, #12]
 2141              	.LVL110:
 2142              	.LBB76:
 2143              	.LBB74:
 2144              		.loc 1 1993 0
 2145 0014 196A     		ldr	r1, [r3, #32]
 2146              	.LVL111:
 2147              	.LBE74:
 2148              	.LBE76:
 2149              		.loc 1 1382 0
 2150 0016 0020     		movs	r0, #0
 2151              	.LBB77:
 2152              	.LBB75:
 2153              		.loc 1 1993 0
 2154 0018 9143     		bics	r1, r2
 2155 001a 1962     		str	r1, [r3, #32]
 2156              		.loc 1 1996 0
 2157 001c 196A     		ldr	r1, [r3, #32]
 2158 001e 0A43     		orrs	r2, r1
 2159              	.LVL112:
 2160 0020 1A62     		str	r2, [r3, #32]
 2161              	.LVL113:
 2162              	.LBE75:
 2163              	.LBE77:
 2164              		.loc 1 1378 0
 2165 0022 8022     		movs	r2, #128
 2166 0024 596C     		ldr	r1, [r3, #68]
ARM GAS  C:\Users\anashi\AppData\Local\Temp\cc9rFcNX.s 			page 39


 2167 0026 1202     		lsls	r2, r2, #8
 2168 0028 0A43     		orrs	r2, r1
 2169 002a 5A64     		str	r2, [r3, #68]
 2170              		.loc 1 1382 0
 2171 002c 7047     		bx	lr
 2172              		.cfi_endproc
 2173              	.LFE61:
 2174              		.size	HAL_TIMEx_OnePulseN_Start_IT, .-HAL_TIMEx_OnePulseN_Start_IT
 2175 002e C046     		.section	.text.HAL_TIMEx_OnePulseN_Stop_IT,"ax",%progbits
 2176              		.align	1
 2177              		.p2align 2,,3
 2178              		.global	HAL_TIMEx_OnePulseN_Stop_IT
 2179              		.syntax unified
 2180              		.code	16
 2181              		.thumb_func
 2182              		.fpu softvfp
 2183              		.type	HAL_TIMEx_OnePulseN_Stop_IT, %function
 2184              	HAL_TIMEx_OnePulseN_Stop_IT:
 2185              	.LFB62:
 2186              		.loc 1 1395 0
 2187              		.cfi_startproc
 2188              		@ args = 0, pretend = 0, frame = 0
 2189              		@ frame_needed = 0, uses_anonymous_args = 0
 2190              		@ link register save eliminated.
 2191              	.LVL114:
 2192              		.loc 1 1400 0
 2193 0000 0368     		ldr	r3, [r0]
 2194 0002 0220     		movs	r0, #2
 2195              	.LVL115:
 2196 0004 DA68     		ldr	r2, [r3, #12]
 2197 0006 8243     		bics	r2, r0
 2198 0008 DA60     		str	r2, [r3, #12]
 2199              		.loc 1 1403 0
 2200 000a 0422     		movs	r2, #4
 2201 000c D868     		ldr	r0, [r3, #12]
 2202 000e 9043     		bics	r0, r2
 2203              	.LBB78:
 2204              	.LBB79:
 2205              		.loc 1 1990 0
 2206 0010 8A40     		lsls	r2, r2, r1
 2207              	.LBE79:
 2208              	.LBE78:
 2209              		.loc 1 1403 0
 2210 0012 D860     		str	r0, [r3, #12]
 2211              	.LVL116:
 2212              	.LBB81:
 2213              	.LBB80:
 2214              		.loc 1 1993 0
 2215 0014 186A     		ldr	r0, [r3, #32]
 2216 0016 9043     		bics	r0, r2
 2217 0018 1862     		str	r0, [r3, #32]
 2218              		.loc 1 1996 0
 2219 001a 1A6A     		ldr	r2, [r3, #32]
 2220              	.LVL117:
 2221 001c 1A62     		str	r2, [r3, #32]
 2222              	.LVL118:
 2223              	.LBE80:
ARM GAS  C:\Users\anashi\AppData\Local\Temp\cc9rFcNX.s 			page 40


 2224              	.LBE81:
 2225              		.loc 1 1409 0
 2226 001e 196A     		ldr	r1, [r3, #32]
 2227              	.LVL119:
 2228 0020 0C4A     		ldr	r2, .L164
 2229 0022 1142     		tst	r1, r2
 2230 0024 03D1     		bne	.L161
 2231              		.loc 1 1409 0 is_stmt 0 discriminator 1
 2232 0026 196A     		ldr	r1, [r3, #32]
 2233 0028 0B4A     		ldr	r2, .L164+4
 2234 002a 1142     		tst	r1, r2
 2235 002c 0DD0     		beq	.L163
 2236              	.L161:
 2237              		.loc 1 1412 0 is_stmt 1
 2238 002e 196A     		ldr	r1, [r3, #32]
 2239 0030 084A     		ldr	r2, .L164
 2240 0032 1142     		tst	r1, r2
 2241 0034 07D1     		bne	.L162
 2242              		.loc 1 1412 0 is_stmt 0 discriminator 1
 2243 0036 196A     		ldr	r1, [r3, #32]
 2244 0038 074A     		ldr	r2, .L164+4
 2245 003a 1142     		tst	r1, r2
 2246 003c 03D1     		bne	.L162
 2247              		.loc 1 1412 0 discriminator 2
 2248 003e 0121     		movs	r1, #1
 2249 0040 1A68     		ldr	r2, [r3]
 2250 0042 8A43     		bics	r2, r1
 2251 0044 1A60     		str	r2, [r3]
 2252              	.L162:
 2253              		.loc 1 1416 0 is_stmt 1
 2254 0046 0020     		movs	r0, #0
 2255              		@ sp needed
 2256 0048 7047     		bx	lr
 2257              	.L163:
 2258              		.loc 1 1409 0 discriminator 2
 2259 004a 5A6C     		ldr	r2, [r3, #68]
 2260 004c 0349     		ldr	r1, .L164+8
 2261 004e 0A40     		ands	r2, r1
 2262 0050 5A64     		str	r2, [r3, #68]
 2263 0052 ECE7     		b	.L161
 2264              	.L165:
 2265              		.align	2
 2266              	.L164:
 2267 0054 11110000 		.word	4369
 2268 0058 44040000 		.word	1092
 2269 005c FF7FFFFF 		.word	-32769
 2270              		.cfi_endproc
 2271              	.LFE62:
 2272              		.size	HAL_TIMEx_OnePulseN_Stop_IT, .-HAL_TIMEx_OnePulseN_Stop_IT
 2273              		.section	.text.HAL_TIMEx_ConfigCommutationEvent,"ax",%progbits
 2274              		.align	1
 2275              		.p2align 2,,3
 2276              		.global	HAL_TIMEx_ConfigCommutationEvent
 2277              		.syntax unified
 2278              		.code	16
 2279              		.thumb_func
 2280              		.fpu softvfp
ARM GAS  C:\Users\anashi\AppData\Local\Temp\cc9rFcNX.s 			page 41


 2281              		.type	HAL_TIMEx_ConfigCommutationEvent, %function
 2282              	HAL_TIMEx_ConfigCommutationEvent:
 2283              	.LFB63:
 2284              		.loc 1 1461 0
 2285              		.cfi_startproc
 2286              		@ args = 0, pretend = 0, frame = 0
 2287              		@ frame_needed = 0, uses_anonymous_args = 0
 2288              	.LVL120:
 2289              		.loc 1 1466 0
 2290 0000 3C23     		movs	r3, #60
 2291              		.loc 1 1461 0
 2292 0002 30B5     		push	{r4, r5, lr}
 2293              		.cfi_def_cfa_offset 12
 2294              		.cfi_offset 4, -12
 2295              		.cfi_offset 5, -8
 2296              		.cfi_offset 14, -4
 2297              		.loc 1 1466 0
 2298 0004 C45C     		ldrb	r4, [r0, r3]
 2299 0006 012C     		cmp	r4, #1
 2300 0008 1ED0     		beq	.L169
 2301              		.loc 1 1466 0 is_stmt 0 discriminator 2
 2302 000a 0124     		movs	r4, #1
 2303              		.loc 1 1468 0 is_stmt 1 discriminator 2
 2304 000c 0D00     		movs	r5, r1
 2305              		.loc 1 1466 0 discriminator 2
 2306 000e C454     		strb	r4, [r0, r3]
 2307              		.loc 1 1468 0 discriminator 2
 2308 0010 2F34     		adds	r4, r4, #47
 2309 0012 0368     		ldr	r3, [r0]
 2310 0014 A543     		bics	r5, r4
 2311 0016 0FD0     		beq	.L170
 2312              	.LVL121:
 2313              	.L168:
 2314              		.loc 1 1477 0
 2315 0018 0124     		movs	r4, #1
 2316 001a 5968     		ldr	r1, [r3, #4]
 2317 001c 2143     		orrs	r1, r4
 2318 001e 5960     		str	r1, [r3, #4]
 2319              		.loc 1 1479 0
 2320 0020 5968     		ldr	r1, [r3, #4]
 2321 0022 0334     		adds	r4, r4, #3
 2322 0024 A143     		bics	r1, r4
 2323 0026 5960     		str	r1, [r3, #4]
 2324              		.loc 1 1480 0
 2325 0028 5968     		ldr	r1, [r3, #4]
 2326 002a 0A43     		orrs	r2, r1
 2327              	.LVL122:
 2328 002c 5A60     		str	r2, [r3, #4]
 2329              		.loc 1 1482 0
 2330 002e 3C23     		movs	r3, #60
 2331 0030 0022     		movs	r2, #0
 2332 0032 C254     		strb	r2, [r0, r3]
 2333              		.loc 1 1484 0
 2334 0034 0020     		movs	r0, #0
 2335              	.LVL123:
 2336              	.L167:
 2337              		.loc 1 1485 0
ARM GAS  C:\Users\anashi\AppData\Local\Temp\cc9rFcNX.s 			page 42


 2338              		@ sp needed
 2339 0036 30BD     		pop	{r4, r5, pc}
 2340              	.LVL124:
 2341              	.L170:
 2342              		.loc 1 1472 0
 2343 0038 7025     		movs	r5, #112
 2344 003a 9C68     		ldr	r4, [r3, #8]
 2345 003c AC43     		bics	r4, r5
 2346 003e 9C60     		str	r4, [r3, #8]
 2347              		.loc 1 1473 0
 2348 0040 9C68     		ldr	r4, [r3, #8]
 2349 0042 2143     		orrs	r1, r4
 2350              	.LVL125:
 2351 0044 9960     		str	r1, [r3, #8]
 2352 0046 E7E7     		b	.L168
 2353              	.LVL126:
 2354              	.L169:
 2355              		.loc 1 1466 0
 2356 0048 0220     		movs	r0, #2
 2357              	.LVL127:
 2358 004a F4E7     		b	.L167
 2359              		.cfi_endproc
 2360              	.LFE63:
 2361              		.size	HAL_TIMEx_ConfigCommutationEvent, .-HAL_TIMEx_ConfigCommutationEvent
 2362              		.section	.text.HAL_TIMEx_ConfigCommutationEvent_IT,"ax",%progbits
 2363              		.align	1
 2364              		.p2align 2,,3
 2365              		.global	HAL_TIMEx_ConfigCommutationEvent_IT
 2366              		.syntax unified
 2367              		.code	16
 2368              		.thumb_func
 2369              		.fpu softvfp
 2370              		.type	HAL_TIMEx_ConfigCommutationEvent_IT, %function
 2371              	HAL_TIMEx_ConfigCommutationEvent_IT:
 2372              	.LFB64:
 2373              		.loc 1 1510 0
 2374              		.cfi_startproc
 2375              		@ args = 0, pretend = 0, frame = 0
 2376              		@ frame_needed = 0, uses_anonymous_args = 0
 2377              	.LVL128:
 2378              		.loc 1 1515 0
 2379 0000 3C23     		movs	r3, #60
 2380              		.loc 1 1510 0
 2381 0002 30B5     		push	{r4, r5, lr}
 2382              		.cfi_def_cfa_offset 12
 2383              		.cfi_offset 4, -12
 2384              		.cfi_offset 5, -8
 2385              		.cfi_offset 14, -4
 2386              		.loc 1 1515 0
 2387 0004 C45C     		ldrb	r4, [r0, r3]
 2388 0006 012C     		cmp	r4, #1
 2389 0008 22D0     		beq	.L174
 2390              		.loc 1 1515 0 is_stmt 0 discriminator 2
 2391 000a 0124     		movs	r4, #1
 2392              		.loc 1 1517 0 is_stmt 1 discriminator 2
 2393 000c 0D00     		movs	r5, r1
 2394              		.loc 1 1515 0 discriminator 2
ARM GAS  C:\Users\anashi\AppData\Local\Temp\cc9rFcNX.s 			page 43


 2395 000e C454     		strb	r4, [r0, r3]
 2396              		.loc 1 1517 0 discriminator 2
 2397 0010 2F34     		adds	r4, r4, #47
 2398 0012 0368     		ldr	r3, [r0]
 2399 0014 A543     		bics	r5, r4
 2400 0016 13D0     		beq	.L175
 2401              	.LVL129:
 2402              	.L173:
 2403              		.loc 1 1526 0
 2404 0018 0124     		movs	r4, #1
 2405 001a 5968     		ldr	r1, [r3, #4]
 2406 001c 2143     		orrs	r1, r4
 2407 001e 5960     		str	r1, [r3, #4]
 2408              		.loc 1 1528 0
 2409 0020 5968     		ldr	r1, [r3, #4]
 2410 0022 0334     		adds	r4, r4, #3
 2411 0024 A143     		bics	r1, r4
 2412 0026 5960     		str	r1, [r3, #4]
 2413              		.loc 1 1529 0
 2414 0028 5968     		ldr	r1, [r3, #4]
 2415 002a 0A43     		orrs	r2, r1
 2416              	.LVL130:
 2417              		.loc 1 1532 0
 2418 002c 2021     		movs	r1, #32
 2419              		.loc 1 1529 0
 2420 002e 5A60     		str	r2, [r3, #4]
 2421              		.loc 1 1532 0
 2422 0030 DA68     		ldr	r2, [r3, #12]
 2423 0032 0A43     		orrs	r2, r1
 2424 0034 DA60     		str	r2, [r3, #12]
 2425              		.loc 1 1534 0
 2426 0036 3C23     		movs	r3, #60
 2427 0038 0022     		movs	r2, #0
 2428 003a C254     		strb	r2, [r0, r3]
 2429              		.loc 1 1536 0
 2430 003c 0020     		movs	r0, #0
 2431              	.LVL131:
 2432              	.L172:
 2433              		.loc 1 1537 0
 2434              		@ sp needed
 2435 003e 30BD     		pop	{r4, r5, pc}
 2436              	.LVL132:
 2437              	.L175:
 2438              		.loc 1 1521 0
 2439 0040 7025     		movs	r5, #112
 2440 0042 9C68     		ldr	r4, [r3, #8]
 2441 0044 AC43     		bics	r4, r5
 2442 0046 9C60     		str	r4, [r3, #8]
 2443              		.loc 1 1522 0
 2444 0048 9C68     		ldr	r4, [r3, #8]
 2445 004a 2143     		orrs	r1, r4
 2446              	.LVL133:
 2447 004c 9960     		str	r1, [r3, #8]
 2448 004e E3E7     		b	.L173
 2449              	.LVL134:
 2450              	.L174:
 2451              		.loc 1 1515 0
ARM GAS  C:\Users\anashi\AppData\Local\Temp\cc9rFcNX.s 			page 44


 2452 0050 0220     		movs	r0, #2
 2453              	.LVL135:
 2454 0052 F4E7     		b	.L172
 2455              		.cfi_endproc
 2456              	.LFE64:
 2457              		.size	HAL_TIMEx_ConfigCommutationEvent_IT, .-HAL_TIMEx_ConfigCommutationEvent_IT
 2458              		.section	.text.HAL_TIMEx_ConfigCommutationEvent_DMA,"ax",%progbits
 2459              		.align	1
 2460              		.p2align 2,,3
 2461              		.global	HAL_TIMEx_ConfigCommutationEvent_DMA
 2462              		.syntax unified
 2463              		.code	16
 2464              		.thumb_func
 2465              		.fpu softvfp
 2466              		.type	HAL_TIMEx_ConfigCommutationEvent_DMA, %function
 2467              	HAL_TIMEx_ConfigCommutationEvent_DMA:
 2468              	.LFB65:
 2469              		.loc 1 1563 0
 2470              		.cfi_startproc
 2471              		@ args = 0, pretend = 0, frame = 0
 2472              		@ frame_needed = 0, uses_anonymous_args = 0
 2473              	.LVL136:
 2474              		.loc 1 1568 0
 2475 0000 3C23     		movs	r3, #60
 2476              		.loc 1 1563 0
 2477 0002 30B5     		push	{r4, r5, lr}
 2478              		.cfi_def_cfa_offset 12
 2479              		.cfi_offset 4, -12
 2480              		.cfi_offset 5, -8
 2481              		.cfi_offset 14, -4
 2482              		.loc 1 1568 0
 2483 0004 C45C     		ldrb	r4, [r0, r3]
 2484 0006 012C     		cmp	r4, #1
 2485 0008 28D0     		beq	.L179
 2486              		.loc 1 1568 0 is_stmt 0 discriminator 2
 2487 000a 0124     		movs	r4, #1
 2488              		.loc 1 1570 0 is_stmt 1 discriminator 2
 2489 000c 0D00     		movs	r5, r1
 2490              		.loc 1 1568 0 discriminator 2
 2491 000e C454     		strb	r4, [r0, r3]
 2492              		.loc 1 1570 0 discriminator 2
 2493 0010 2F34     		adds	r4, r4, #47
 2494 0012 0368     		ldr	r3, [r0]
 2495 0014 A543     		bics	r5, r4
 2496 0016 19D0     		beq	.L180
 2497              	.LVL137:
 2498              	.L178:
 2499              		.loc 1 1579 0
 2500 0018 0124     		movs	r4, #1
 2501 001a 5968     		ldr	r1, [r3, #4]
 2502 001c 2143     		orrs	r1, r4
 2503 001e 5960     		str	r1, [r3, #4]
 2504              		.loc 1 1581 0
 2505 0020 5968     		ldr	r1, [r3, #4]
 2506 0022 0334     		adds	r4, r4, #3
 2507 0024 A143     		bics	r1, r4
 2508 0026 5960     		str	r1, [r3, #4]
ARM GAS  C:\Users\anashi\AppData\Local\Temp\cc9rFcNX.s 			page 45


 2509              		.loc 1 1582 0
 2510 0028 5968     		ldr	r1, [r3, #4]
 2511 002a 0A43     		orrs	r2, r1
 2512              	.LVL138:
 2513 002c 5A60     		str	r2, [r3, #4]
 2514              		.loc 1 1586 0
 2515 002e 0C49     		ldr	r1, .L181
 2516 0030 426B     		ldr	r2, [r0, #52]
 2517 0032 9162     		str	r1, [r2, #40]
 2518              		.loc 1 1588 0
 2519 0034 0B49     		ldr	r1, .L181+4
 2520 0036 1163     		str	r1, [r2, #48]
 2521              		.loc 1 1591 0
 2522 0038 8022     		movs	r2, #128
 2523 003a D968     		ldr	r1, [r3, #12]
 2524 003c 9201     		lsls	r2, r2, #6
 2525 003e 0A43     		orrs	r2, r1
 2526 0040 DA60     		str	r2, [r3, #12]
 2527              		.loc 1 1593 0
 2528 0042 3C23     		movs	r3, #60
 2529 0044 0022     		movs	r2, #0
 2530 0046 C254     		strb	r2, [r0, r3]
 2531              		.loc 1 1595 0
 2532 0048 0020     		movs	r0, #0
 2533              	.LVL139:
 2534              	.L177:
 2535              		.loc 1 1596 0
 2536              		@ sp needed
 2537 004a 30BD     		pop	{r4, r5, pc}
 2538              	.LVL140:
 2539              	.L180:
 2540              		.loc 1 1574 0
 2541 004c 7025     		movs	r5, #112
 2542 004e 9C68     		ldr	r4, [r3, #8]
 2543 0050 AC43     		bics	r4, r5
 2544 0052 9C60     		str	r4, [r3, #8]
 2545              		.loc 1 1575 0
 2546 0054 9C68     		ldr	r4, [r3, #8]
 2547 0056 2143     		orrs	r1, r4
 2548              	.LVL141:
 2549 0058 9960     		str	r1, [r3, #8]
 2550 005a DDE7     		b	.L178
 2551              	.LVL142:
 2552              	.L179:
 2553              		.loc 1 1568 0
 2554 005c 0220     		movs	r0, #2
 2555              	.LVL143:
 2556 005e F4E7     		b	.L177
 2557              	.L182:
 2558              		.align	2
 2559              	.L181:
 2560 0060 00000000 		.word	TIMEx_DMACommutationCplt
 2561 0064 00000000 		.word	TIM_DMAError
 2562              		.cfi_endproc
 2563              	.LFE65:
 2564              		.size	HAL_TIMEx_ConfigCommutationEvent_DMA, .-HAL_TIMEx_ConfigCommutationEvent_DMA
 2565              		.section	.text.HAL_TIMEx_MasterConfigSynchronization,"ax",%progbits
ARM GAS  C:\Users\anashi\AppData\Local\Temp\cc9rFcNX.s 			page 46


 2566              		.align	1
 2567              		.p2align 2,,3
 2568              		.global	HAL_TIMEx_MasterConfigSynchronization
 2569              		.syntax unified
 2570              		.code	16
 2571              		.thumb_func
 2572              		.fpu softvfp
 2573              		.type	HAL_TIMEx_MasterConfigSynchronization, %function
 2574              	HAL_TIMEx_MasterConfigSynchronization:
 2575              	.LFB66:
 2576              		.loc 1 1607 0
 2577              		.cfi_startproc
 2578              		@ args = 0, pretend = 0, frame = 0
 2579              		@ frame_needed = 0, uses_anonymous_args = 0
 2580              	.LVL144:
 2581 0000 70B5     		push	{r4, r5, r6, lr}
 2582              		.cfi_def_cfa_offset 16
 2583              		.cfi_offset 4, -16
 2584              		.cfi_offset 5, -12
 2585              		.cfi_offset 6, -8
 2586              		.cfi_offset 14, -4
 2587              		.loc 1 1613 0
 2588 0002 3C24     		movs	r4, #60
 2589 0004 035D     		ldrb	r3, [r0, r4]
 2590 0006 012B     		cmp	r3, #1
 2591 0008 19D0     		beq	.L185
 2592              		.loc 1 1615 0 discriminator 2
 2593 000a 3D25     		movs	r5, #61
 2594 000c 0223     		movs	r3, #2
 2595              		.loc 1 1618 0 discriminator 2
 2596 000e 7026     		movs	r6, #112
 2597              		.loc 1 1615 0 discriminator 2
 2598 0010 4355     		strb	r3, [r0, r5]
 2599              		.loc 1 1618 0 discriminator 2
 2600 0012 0368     		ldr	r3, [r0]
 2601 0014 5A68     		ldr	r2, [r3, #4]
 2602 0016 B243     		bics	r2, r6
 2603 0018 5A60     		str	r2, [r3, #4]
 2604              		.loc 1 1620 0 discriminator 2
 2605 001a 5A68     		ldr	r2, [r3, #4]
 2606 001c 0E68     		ldr	r6, [r1]
 2607              		.loc 1 1625 0 discriminator 2
 2608 001e 4968     		ldr	r1, [r1, #4]
 2609              	.LVL145:
 2610              		.loc 1 1620 0 discriminator 2
 2611 0020 3243     		orrs	r2, r6
 2612              		.loc 1 1623 0 discriminator 2
 2613 0022 8026     		movs	r6, #128
 2614              		.loc 1 1620 0 discriminator 2
 2615 0024 5A60     		str	r2, [r3, #4]
 2616              		.loc 1 1623 0 discriminator 2
 2617 0026 9A68     		ldr	r2, [r3, #8]
 2618 0028 B243     		bics	r2, r6
 2619 002a 9A60     		str	r2, [r3, #8]
 2620              		.loc 1 1625 0 discriminator 2
 2621 002c 9A68     		ldr	r2, [r3, #8]
 2622 002e 0A43     		orrs	r2, r1
ARM GAS  C:\Users\anashi\AppData\Local\Temp\cc9rFcNX.s 			page 47


 2623 0030 9A60     		str	r2, [r3, #8]
 2624              		.loc 1 1627 0 discriminator 2
 2625 0032 0123     		movs	r3, #1
 2626 0034 4355     		strb	r3, [r0, r5]
 2627              		.loc 1 1629 0 discriminator 2
 2628 0036 0023     		movs	r3, #0
 2629 0038 0355     		strb	r3, [r0, r4]
 2630              		.loc 1 1631 0 discriminator 2
 2631 003a 0020     		movs	r0, #0
 2632              	.LVL146:
 2633              	.L184:
 2634              		.loc 1 1632 0
 2635              		@ sp needed
 2636 003c 70BD     		pop	{r4, r5, r6, pc}
 2637              	.LVL147:
 2638              	.L185:
 2639              		.loc 1 1613 0
 2640 003e 0220     		movs	r0, #2
 2641              	.LVL148:
 2642 0040 FCE7     		b	.L184
 2643              		.cfi_endproc
 2644              	.LFE66:
 2645              		.size	HAL_TIMEx_MasterConfigSynchronization, .-HAL_TIMEx_MasterConfigSynchronization
 2646 0042 C046     		.section	.text.HAL_TIMEx_ConfigBreakDeadTime,"ax",%progbits
 2647              		.align	1
 2648              		.p2align 2,,3
 2649              		.global	HAL_TIMEx_ConfigBreakDeadTime
 2650              		.syntax unified
 2651              		.code	16
 2652              		.thumb_func
 2653              		.fpu softvfp
 2654              		.type	HAL_TIMEx_ConfigBreakDeadTime, %function
 2655              	HAL_TIMEx_ConfigBreakDeadTime:
 2656              	.LFB67:
 2657              		.loc 1 1644 0
 2658              		.cfi_startproc
 2659              		@ args = 0, pretend = 0, frame = 0
 2660              		@ frame_needed = 0, uses_anonymous_args = 0
 2661              	.LVL149:
 2662              		.loc 1 1658 0
 2663 0000 3C22     		movs	r2, #60
 2664              		.loc 1 1644 0
 2665 0002 30B5     		push	{r4, r5, lr}
 2666              		.cfi_def_cfa_offset 12
 2667              		.cfi_offset 4, -12
 2668              		.cfi_offset 5, -8
 2669              		.cfi_offset 14, -4
 2670              		.loc 1 1658 0
 2671 0004 835C     		ldrb	r3, [r0, r2]
 2672 0006 012B     		cmp	r3, #1
 2673 0008 26D0     		beq	.L188
 2674              		.loc 1 1660 0 discriminator 2
 2675 000a 3D24     		movs	r4, #61
 2676 000c 0223     		movs	r3, #2
 2677              		.loc 1 1667 0 discriminator 2
 2678 000e CD68     		ldr	r5, [r1, #12]
 2679              		.loc 1 1660 0 discriminator 2
ARM GAS  C:\Users\anashi\AppData\Local\Temp\cc9rFcNX.s 			page 48


 2680 0010 0355     		strb	r3, [r0, r4]
 2681              	.LVL150:
 2682              		.loc 1 1667 0 discriminator 2
 2683 0012 124B     		ldr	r3, .L189
 2684 0014 2B40     		ands	r3, r5
 2685 0016 8D68     		ldr	r5, [r1, #8]
 2686 0018 2B43     		orrs	r3, r5
 2687              		.loc 1 1668 0 discriminator 2
 2688 001a 114D     		ldr	r5, .L189+4
 2689 001c 2B40     		ands	r3, r5
 2690              	.LVL151:
 2691 001e 4D68     		ldr	r5, [r1, #4]
 2692 0020 2B43     		orrs	r3, r5
 2693              	.LVL152:
 2694              		.loc 1 1669 0 discriminator 2
 2695 0022 104D     		ldr	r5, .L189+8
 2696 0024 2B40     		ands	r3, r5
 2697              	.LVL153:
 2698 0026 0D68     		ldr	r5, [r1]
 2699 0028 2B43     		orrs	r3, r5
 2700              	.LVL154:
 2701              		.loc 1 1670 0 discriminator 2
 2702 002a 0F4D     		ldr	r5, .L189+12
 2703 002c 2B40     		ands	r3, r5
 2704              	.LVL155:
 2705 002e 0D69     		ldr	r5, [r1, #16]
 2706 0030 2B43     		orrs	r3, r5
 2707              	.LVL156:
 2708              		.loc 1 1671 0 discriminator 2
 2709 0032 0E4D     		ldr	r5, .L189+16
 2710 0034 2B40     		ands	r3, r5
 2711              	.LVL157:
 2712 0036 4D69     		ldr	r5, [r1, #20]
 2713              		.loc 1 1672 0 discriminator 2
 2714 0038 8969     		ldr	r1, [r1, #24]
 2715              	.LVL158:
 2716              		.loc 1 1671 0 discriminator 2
 2717 003a 2B43     		orrs	r3, r5
 2718              	.LVL159:
 2719              		.loc 1 1672 0 discriminator 2
 2720 003c 0C4D     		ldr	r5, .L189+20
 2721 003e 2B40     		ands	r3, r5
 2722              	.LVL160:
 2723              		.loc 1 1673 0 discriminator 2
 2724 0040 0C4D     		ldr	r5, .L189+24
 2725              		.loc 1 1672 0 discriminator 2
 2726 0042 0B43     		orrs	r3, r1
 2727              	.LVL161:
 2728              		.loc 1 1673 0 discriminator 2
 2729 0044 2B40     		ands	r3, r5
 2730              	.LVL162:
 2731 0046 0B43     		orrs	r3, r1
 2732              	.LVL163:
 2733              		.loc 1 1676 0 discriminator 2
 2734 0048 0168     		ldr	r1, [r0]
 2735 004a 4B64     		str	r3, [r1, #68]
 2736              		.loc 1 1678 0 discriminator 2
ARM GAS  C:\Users\anashi\AppData\Local\Temp\cc9rFcNX.s 			page 49


 2737 004c 0123     		movs	r3, #1
 2738              	.LVL164:
 2739 004e 0355     		strb	r3, [r0, r4]
 2740              	.LVL165:
 2741              		.loc 1 1680 0 discriminator 2
 2742 0050 0023     		movs	r3, #0
 2743 0052 8354     		strb	r3, [r0, r2]
 2744              		.loc 1 1682 0 discriminator 2
 2745 0054 0020     		movs	r0, #0
 2746              	.LVL166:
 2747              	.L187:
 2748              		.loc 1 1683 0
 2749              		@ sp needed
 2750 0056 30BD     		pop	{r4, r5, pc}
 2751              	.LVL167:
 2752              	.L188:
 2753              		.loc 1 1658 0
 2754 0058 0220     		movs	r0, #2
 2755              	.LVL168:
 2756 005a FCE7     		b	.L187
 2757              	.L190:
 2758              		.align	2
 2759              	.L189:
 2760 005c FFFCFFFF 		.word	-769
 2761 0060 FFFBFFFF 		.word	-1025
 2762 0064 FFF7FFFF 		.word	-2049
 2763 0068 FFEFFFFF 		.word	-4097
 2764 006c FFDFFFFF 		.word	-8193
 2765 0070 FFBFFFFF 		.word	-16385
 2766 0074 FF7FFFFF 		.word	-32769
 2767              		.cfi_endproc
 2768              	.LFE67:
 2769              		.size	HAL_TIMEx_ConfigBreakDeadTime, .-HAL_TIMEx_ConfigBreakDeadTime
 2770              		.section	.text.HAL_TIMEx_RemapConfig,"ax",%progbits
 2771              		.align	1
 2772              		.p2align 2,,3
 2773              		.global	HAL_TIMEx_RemapConfig
 2774              		.syntax unified
 2775              		.code	16
 2776              		.thumb_func
 2777              		.fpu softvfp
 2778              		.type	HAL_TIMEx_RemapConfig, %function
 2779              	HAL_TIMEx_RemapConfig:
 2780              	.LFB68:
 2781              		.loc 1 1697 0
 2782              		.cfi_startproc
 2783              		@ args = 0, pretend = 0, frame = 0
 2784              		@ frame_needed = 0, uses_anonymous_args = 0
 2785              		@ link register save eliminated.
 2786              	.LVL169:
 2787              		.loc 1 1698 0
 2788 0000 3C23     		movs	r3, #60
 2789 0002 C25C     		ldrb	r2, [r0, r3]
 2790 0004 012A     		cmp	r2, #1
 2791 0006 08D0     		beq	.L193
 2792              		.loc 1 1705 0 discriminator 2
 2793 0008 0268     		ldr	r2, [r0]
ARM GAS  C:\Users\anashi\AppData\Local\Temp\cc9rFcNX.s 			page 50


 2794 000a 1165     		str	r1, [r2, #80]
 2795              		.loc 1 1707 0 discriminator 2
 2796 000c 3D22     		movs	r2, #61
 2797 000e 0121     		movs	r1, #1
 2798              	.LVL170:
 2799 0010 8154     		strb	r1, [r0, r2]
 2800              	.LVL171:
 2801              		.loc 1 1709 0 discriminator 2
 2802 0012 0022     		movs	r2, #0
 2803 0014 C254     		strb	r2, [r0, r3]
 2804              		.loc 1 1711 0 discriminator 2
 2805 0016 0020     		movs	r0, #0
 2806              	.LVL172:
 2807              	.L192:
 2808              		.loc 1 1712 0
 2809              		@ sp needed
 2810 0018 7047     		bx	lr
 2811              	.LVL173:
 2812              	.L193:
 2813              		.loc 1 1698 0
 2814 001a 0220     		movs	r0, #2
 2815              	.LVL174:
 2816 001c FCE7     		b	.L192
 2817              		.cfi_endproc
 2818              	.LFE68:
 2819              		.size	HAL_TIMEx_RemapConfig, .-HAL_TIMEx_RemapConfig
 2820 001e C046     		.section	.text.HAL_TIMEx_CommutationCallback,"ax",%progbits
 2821              		.align	1
 2822              		.p2align 2,,3
 2823              		.weak	HAL_TIMEx_CommutationCallback
 2824              		.syntax unified
 2825              		.code	16
 2826              		.thumb_func
 2827              		.fpu softvfp
 2828              		.type	HAL_TIMEx_CommutationCallback, %function
 2829              	HAL_TIMEx_CommutationCallback:
 2830              	.LFB77:
 2831              		.cfi_startproc
 2832              		@ args = 0, pretend = 0, frame = 0
 2833              		@ frame_needed = 0, uses_anonymous_args = 0
 2834              		@ link register save eliminated.
 2835              		@ sp needed
 2836 0000 7047     		bx	lr
 2837              		.cfi_endproc
 2838              	.LFE77:
 2839              		.size	HAL_TIMEx_CommutationCallback, .-HAL_TIMEx_CommutationCallback
 2840 0002 C046     		.section	.text.TIMEx_DMACommutationCplt,"ax",%progbits
 2841              		.align	1
 2842              		.p2align 2,,3
 2843              		.global	TIMEx_DMACommutationCplt
 2844              		.syntax unified
 2845              		.code	16
 2846              		.thumb_func
 2847              		.fpu softvfp
 2848              		.type	TIMEx_DMACommutationCplt, %function
 2849              	TIMEx_DMACommutationCplt:
 2850              	.LFB71:
ARM GAS  C:\Users\anashi\AppData\Local\Temp\cc9rFcNX.s 			page 51


 2851              		.loc 1 1925 0
 2852              		.cfi_startproc
 2853              		@ args = 0, pretend = 0, frame = 0
 2854              		@ frame_needed = 0, uses_anonymous_args = 0
 2855              	.LVL175:
 2856              		.loc 1 1928 0
 2857 0000 3D23     		movs	r3, #61
 2858 0002 0122     		movs	r2, #1
 2859              		.loc 1 1925 0
 2860 0004 10B5     		push	{r4, lr}
 2861              		.cfi_def_cfa_offset 8
 2862              		.cfi_offset 4, -8
 2863              		.cfi_offset 14, -4
 2864              		.loc 1 1926 0
 2865 0006 406A     		ldr	r0, [r0, #36]
 2866              	.LVL176:
 2867              		.loc 1 1931 0
 2868              		@ sp needed
 2869              		.loc 1 1928 0
 2870 0008 C254     		strb	r2, [r0, r3]
 2871              		.loc 1 1930 0
 2872 000a FFF7FEFF 		bl	HAL_TIMEx_CommutationCallback
 2873              	.LVL177:
 2874              		.loc 1 1931 0
 2875 000e 10BD     		pop	{r4, pc}
 2876              		.cfi_endproc
 2877              	.LFE71:
 2878              		.size	TIMEx_DMACommutationCplt, .-TIMEx_DMACommutationCplt
 2879              		.section	.text.HAL_TIMEx_BreakCallback,"ax",%progbits
 2880              		.align	1
 2881              		.p2align 2,,3
 2882              		.weak	HAL_TIMEx_BreakCallback
 2883              		.syntax unified
 2884              		.code	16
 2885              		.thumb_func
 2886              		.fpu softvfp
 2887              		.type	HAL_TIMEx_BreakCallback, %function
 2888              	HAL_TIMEx_BreakCallback:
 2889              	.LFB79:
 2890              		.cfi_startproc
 2891              		@ args = 0, pretend = 0, frame = 0
 2892              		@ frame_needed = 0, uses_anonymous_args = 0
 2893              		@ link register save eliminated.
 2894              		@ sp needed
 2895 0000 7047     		bx	lr
 2896              		.cfi_endproc
 2897              	.LFE79:
 2898              		.size	HAL_TIMEx_BreakCallback, .-HAL_TIMEx_BreakCallback
 2899 0002 C046     		.section	.text.HAL_TIMEx_HallSensor_GetState,"ax",%progbits
 2900              		.align	1
 2901              		.p2align 2,,3
 2902              		.global	HAL_TIMEx_HallSensor_GetState
 2903              		.syntax unified
 2904              		.code	16
 2905              		.thumb_func
 2906              		.fpu softvfp
 2907              		.type	HAL_TIMEx_HallSensor_GetState, %function
ARM GAS  C:\Users\anashi\AppData\Local\Temp\cc9rFcNX.s 			page 52


 2908              	HAL_TIMEx_HallSensor_GetState:
 2909              	.LFB72:
 2910              		.loc 1 1958 0
 2911              		.cfi_startproc
 2912              		@ args = 0, pretend = 0, frame = 0
 2913              		@ frame_needed = 0, uses_anonymous_args = 0
 2914              		@ link register save eliminated.
 2915              	.LVL178:
 2916              		.loc 1 1959 0
 2917 0000 3D23     		movs	r3, #61
 2918 0002 C05C     		ldrb	r0, [r0, r3]
 2919              	.LVL179:
 2920              		.loc 1 1960 0
 2921              		@ sp needed
 2922              		.loc 1 1959 0
 2923 0004 C0B2     		uxtb	r0, r0
 2924              		.loc 1 1960 0
 2925 0006 7047     		bx	lr
 2926              		.cfi_endproc
 2927              	.LFE72:
 2928              		.size	HAL_TIMEx_HallSensor_GetState, .-HAL_TIMEx_HallSensor_GetState
 2929              		.text
 2930              	.Letext0:
 2931              		.file 2 "c:\\st\\stm32cubeide_1.1.0\\stm32cubeide\\plugins\\com.st.stm32cube.ide.mcu.externaltools
 2932              		.file 3 "c:\\st\\stm32cubeide_1.1.0\\stm32cubeide\\plugins\\com.st.stm32cube.ide.mcu.externaltools
 2933              		.file 4 "C:/repos/rs2all/board/Drivers/CMSIS/Device/ST/STM32F0xx/Include/system_stm32f0xx.h"
 2934              		.file 5 "C:/repos/rs2all/board/Drivers/CMSIS/Device/ST/STM32F0xx/Include/stm32f030x6.h"
 2935              		.file 6 "c:\\st\\stm32cubeide_1.1.0\\stm32cubeide\\plugins\\com.st.stm32cube.ide.mcu.externaltools
 2936              		.file 7 "c:\\st\\stm32cubeide_1.1.0\\stm32cubeide\\plugins\\com.st.stm32cube.ide.mcu.externaltools
 2937              		.file 8 "c:\\st\\stm32cubeide_1.1.0\\stm32cubeide\\plugins\\com.st.stm32cube.ide.mcu.externaltools
 2938              		.file 9 "c:\\st\\stm32cubeide_1.1.0\\stm32cubeide\\plugins\\com.st.stm32cube.ide.mcu.externaltools
 2939              		.file 10 "C:/repos/rs2all/board/Drivers/CMSIS/Device/ST/STM32F0xx/Include/stm32f0xx.h"
 2940              		.file 11 "C:/repos/rs2all/board/Drivers/STM32F0xx_HAL_Driver/Inc/stm32f0xx_hal_def.h"
 2941              		.file 12 "C:/repos/rs2all/board/Drivers/STM32F0xx_HAL_Driver/Inc/stm32f0xx_hal_dma.h"
 2942              		.file 13 "C:/repos/rs2all/board/Drivers/STM32F0xx_HAL_Driver/Inc/stm32f0xx_hal_tim.h"
 2943              		.file 14 "C:/repos/rs2all/board/Drivers/STM32F0xx_HAL_Driver/Inc/stm32f0xx_hal_tim_ex.h"
