ARM GAS  C:\Users\anashi\AppData\Local\Temp\ccMVnC1L.s 			page 1


   1              		.cpu cortex-m0
   2              		.eabi_attribute 20, 1
   3              		.eabi_attribute 21, 1
   4              		.eabi_attribute 23, 3
   5              		.eabi_attribute 24, 1
   6              		.eabi_attribute 25, 1
   7              		.eabi_attribute 26, 1
   8              		.eabi_attribute 30, 2
   9              		.eabi_attribute 34, 0
  10              		.eabi_attribute 18, 4
  11              		.file	"stm32f0xx_hal_uart.c"
  12              		.text
  13              	.Ltext0:
  14              		.cfi_sections	.debug_frame
  15              		.section	.text.HAL_UART_MspInit,"ax",%progbits
  16              		.align	1
  17              		.p2align 2,,3
  18              		.weak	HAL_UART_MspInit
  19              		.syntax unified
  20              		.code	16
  21              		.thumb_func
  22              		.fpu softvfp
  23              		.type	HAL_UART_MspInit, %function
  24              	HAL_UART_MspInit:
  25              	.LFB41:
  26              		.file 1 "C:/repos/rs2all/board/Drivers/STM32F0xx_HAL_Driver/Src/stm32f0xx_hal_uart.c"
  27              		.loc 1 574 0
  28              		.cfi_startproc
  29              		@ args = 0, pretend = 0, frame = 0
  30              		@ frame_needed = 0, uses_anonymous_args = 0
  31              		@ link register save eliminated.
  32              	.LVL0:
  33              		.loc 1 581 0
  34              		@ sp needed
  35 0000 7047     		bx	lr
  36              		.cfi_endproc
  37              	.LFE41:
  38              		.size	HAL_UART_MspInit, .-HAL_UART_MspInit
  39 0002 C046     		.section	.text.HAL_UART_MspDeInit,"ax",%progbits
  40              		.align	1
  41              		.p2align 2,,3
  42              		.weak	HAL_UART_MspDeInit
  43              		.syntax unified
  44              		.code	16
  45              		.thumb_func
  46              		.fpu softvfp
  47              		.type	HAL_UART_MspDeInit, %function
  48              	HAL_UART_MspDeInit:
  49              	.LFB97:
  50              		.cfi_startproc
  51              		@ args = 0, pretend = 0, frame = 0
  52              		@ frame_needed = 0, uses_anonymous_args = 0
  53              		@ link register save eliminated.
  54              		@ sp needed
  55 0000 7047     		bx	lr
  56              		.cfi_endproc
  57              	.LFE97:
ARM GAS  C:\Users\anashi\AppData\Local\Temp\ccMVnC1L.s 			page 2


  58              		.size	HAL_UART_MspDeInit, .-HAL_UART_MspDeInit
  59 0002 C046     		.section	.text.HAL_UART_DeInit,"ax",%progbits
  60              		.align	1
  61              		.p2align 2,,3
  62              		.global	HAL_UART_DeInit
  63              		.syntax unified
  64              		.code	16
  65              		.thumb_func
  66              		.fpu softvfp
  67              		.type	HAL_UART_DeInit, %function
  68              	HAL_UART_DeInit:
  69              	.LFB40:
  70              		.loc 1 536 0
  71              		.cfi_startproc
  72              		@ args = 0, pretend = 0, frame = 0
  73              		@ frame_needed = 0, uses_anonymous_args = 0
  74              	.LVL1:
  75              		.loc 1 536 0
  76 0000 70B5     		push	{r4, r5, r6, lr}
  77              		.cfi_def_cfa_offset 16
  78              		.cfi_offset 4, -16
  79              		.cfi_offset 5, -12
  80              		.cfi_offset 6, -8
  81              		.cfi_offset 14, -4
  82              		.loc 1 536 0
  83 0002 0400     		movs	r4, r0
  84              		.loc 1 540 0
  85 0004 0120     		movs	r0, #1
  86              	.LVL2:
  87              		.loc 1 538 0
  88 0006 002C     		cmp	r4, #0
  89 0008 14D0     		beq	.L5
  90              		.loc 1 546 0
  91 000a 6926     		movs	r6, #105
  92 000c 2423     		movs	r3, #36
  93              		.loc 1 551 0
  94 000e 0025     		movs	r5, #0
  95              		.loc 1 546 0
  96 0010 A355     		strb	r3, [r4, r6]
  97              		.loc 1 549 0
  98 0012 2368     		ldr	r3, [r4]
  99 0014 1A68     		ldr	r2, [r3]
 100 0016 8243     		bics	r2, r0
 101 0018 1A60     		str	r2, [r3]
 102              		.loc 1 556 0
 103 001a 2000     		movs	r0, r4
 104              		.loc 1 551 0
 105 001c 1D60     		str	r5, [r3]
 106              		.loc 1 552 0
 107 001e 5D60     		str	r5, [r3, #4]
 108              		.loc 1 553 0
 109 0020 9D60     		str	r5, [r3, #8]
 110              		.loc 1 556 0
 111 0022 FFF7FEFF 		bl	HAL_UART_MspDeInit
 112              	.LVL3:
 113              		.loc 1 560 0
 114 0026 6A23     		movs	r3, #106
ARM GAS  C:\Users\anashi\AppData\Local\Temp\ccMVnC1L.s 			page 3


 115              		.loc 1 565 0
 116 0028 0020     		movs	r0, #0
 117              		.loc 1 558 0
 118 002a E566     		str	r5, [r4, #108]
 119              		.loc 1 559 0
 120 002c A555     		strb	r5, [r4, r6]
 121              		.loc 1 560 0
 122 002e E554     		strb	r5, [r4, r3]
 123              		.loc 1 563 0
 124 0030 023B     		subs	r3, r3, #2
 125 0032 E554     		strb	r5, [r4, r3]
 126              	.L5:
 127              		.loc 1 566 0
 128              		@ sp needed
 129              	.LVL4:
 130 0034 70BD     		pop	{r4, r5, r6, pc}
 131              		.cfi_endproc
 132              	.LFE40:
 133              		.size	HAL_UART_DeInit, .-HAL_UART_DeInit
 134 0036 C046     		.section	.text.HAL_UART_Transmit,"ax",%progbits
 135              		.align	1
 136              		.p2align 2,,3
 137              		.global	HAL_UART_Transmit
 138              		.syntax unified
 139              		.code	16
 140              		.thumb_func
 141              		.fpu softvfp
 142              		.type	HAL_UART_Transmit, %function
 143              	HAL_UART_Transmit:
 144              	.LFB43:
 145              		.loc 1 692 0
 146              		.cfi_startproc
 147              		@ args = 0, pretend = 0, frame = 0
 148              		@ frame_needed = 0, uses_anonymous_args = 0
 149              	.LVL5:
 150 0000 F8B5     		push	{r3, r4, r5, r6, r7, lr}
 151              		.cfi_def_cfa_offset 24
 152              		.cfi_offset 3, -24
 153              		.cfi_offset 4, -20
 154              		.cfi_offset 5, -16
 155              		.cfi_offset 6, -12
 156              		.cfi_offset 7, -8
 157              		.cfi_offset 14, -4
 158 0002 4746     		mov	r7, r8
 159 0004 CE46     		mov	lr, r9
 160 0006 1E00     		movs	r6, r3
 161              		.loc 1 697 0
 162 0008 6923     		movs	r3, #105
 163              	.LVL6:
 164              		.loc 1 692 0
 165 000a 80B5     		push	{r7, lr}
 166              		.cfi_def_cfa_offset 32
 167              		.cfi_offset 8, -32
 168              		.cfi_offset 9, -28
 169              		.loc 1 697 0
 170 000c C35C     		ldrb	r3, [r0, r3]
 171              		.loc 1 692 0
ARM GAS  C:\Users\anashi\AppData\Local\Temp\ccMVnC1L.s 			page 4


 172 000e 0500     		movs	r5, r0
 173 0010 0F00     		movs	r7, r1
 174 0012 1400     		movs	r4, r2
 175              	.LVL7:
 176              		.loc 1 759 0
 177 0014 0220     		movs	r0, #2
 178              	.LVL8:
 179              		.loc 1 697 0
 180 0016 202B     		cmp	r3, #32
 181 0018 37D1     		bne	.L9
 182              		.loc 1 699 0
 183 001a 0029     		cmp	r1, #0
 184 001c 39D0     		beq	.L30
 185              		.loc 1 701 0 discriminator 1
 186 001e 0138     		subs	r0, r0, #1
 187              		.loc 1 699 0 discriminator 1
 188 0020 002A     		cmp	r2, #0
 189 0022 32D0     		beq	.L9
 190              		.loc 1 707 0
 191 0024 8023     		movs	r3, #128
 192 0026 AA68     		ldr	r2, [r5, #8]
 193              	.LVL9:
 194 0028 5B01     		lsls	r3, r3, #5
 195 002a 9A42     		cmp	r2, r3
 196 002c 33D0     		beq	.L45
 197              	.L10:
 198              		.loc 1 716 0
 199 002e 6823     		movs	r3, #104
 200 0030 EA5C     		ldrb	r2, [r5, r3]
 201 0032 012A     		cmp	r2, #1
 202 0034 28D0     		beq	.L33
 203              		.loc 1 716 0 is_stmt 0 discriminator 2
 204 0036 0122     		movs	r2, #1
 205 0038 EA54     		strb	r2, [r5, r3]
 206              		.loc 1 718 0 is_stmt 1 discriminator 2
 207 003a 0023     		movs	r3, #0
 208              		.loc 1 719 0 discriminator 2
 209 003c 2032     		adds	r2, r2, #32
 210              		.loc 1 718 0 discriminator 2
 211 003e EB66     		str	r3, [r5, #108]
 212              		.loc 1 719 0 discriminator 2
 213 0040 6933     		adds	r3, r3, #105
 214 0042 EA54     		strb	r2, [r5, r3]
 215              		.loc 1 722 0 discriminator 2
 216 0044 FFF7FEFF 		bl	HAL_GetTick
 217              	.LVL10:
 218              		.loc 1 724 0 discriminator 2
 219 0048 5023     		movs	r3, #80
 220 004a EC52     		strh	r4, [r5, r3]
 221              		.loc 1 725 0 discriminator 2
 222 004c 0233     		adds	r3, r3, #2
 223 004e EC52     		strh	r4, [r5, r3]
 224              		.loc 1 722 0 discriminator 2
 225 0050 8146     		mov	r9, r0
 226              	.LVL11:
 227              		.loc 1 726 0 discriminator 2
 228 0052 9846     		mov	r8, r3
ARM GAS  C:\Users\anashi\AppData\Local\Temp\ccMVnC1L.s 			page 5


 229              	.LBB32:
 230              	.LBB33:
 231              		.loc 1 2352 0 discriminator 2
 232 0054 8024     		movs	r4, #128
 233 0056 2A68     		ldr	r2, [r5]
 234              	.LVL12:
 235              	.L11:
 236              	.LBE33:
 237              	.LBE32:
 238              		.loc 1 726 0
 239 0058 4346     		mov	r3, r8
 240 005a EB5A     		ldrh	r3, [r5, r3]
 241 005c 002B     		cmp	r3, #0
 242 005e 48D0     		beq	.L46
 243              		.loc 1 728 0
 244 0060 4346     		mov	r3, r8
 245 0062 4146     		mov	r1, r8
 246 0064 EB5A     		ldrh	r3, [r5, r3]
 247 0066 013B     		subs	r3, r3, #1
 248 0068 9BB2     		uxth	r3, r3
 249 006a 6B52     		strh	r3, [r5, r1]
 250              	.LVL13:
 251              	.L12:
 252 006c 731C     		adds	r3, r6, #1
 253 006e 18D1     		bne	.L15
 254              	.L16:
 255              	.LBB36:
 256              	.LBB34:
 257              		.loc 1 2352 0
 258 0070 D369     		ldr	r3, [r2, #28]
 259 0072 1C42     		tst	r4, r3
 260 0074 FCD0     		beq	.L16
 261              	.L17:
 262              	.LVL14:
 263              	.LBE34:
 264              	.LBE36:
 265              		.loc 1 733 0
 266 0076 8023     		movs	r3, #128
 267 0078 A968     		ldr	r1, [r5, #8]
 268 007a 5B01     		lsls	r3, r3, #5
 269 007c 9942     		cmp	r1, r3
 270 007e 2FD0     		beq	.L47
 271              	.L19:
 272              	.LVL15:
 273              		.loc 1 741 0
 274 0080 3B78     		ldrb	r3, [r7]
 275 0082 0137     		adds	r7, r7, #1
 276              	.LVL16:
 277 0084 1385     		strh	r3, [r2, #40]
 278 0086 E7E7     		b	.L11
 279              	.LVL17:
 280              	.L33:
 281              		.loc 1 759 0
 282 0088 0220     		movs	r0, #2
 283              	.LVL18:
 284              	.L9:
 285              		.loc 1 761 0
ARM GAS  C:\Users\anashi\AppData\Local\Temp\ccMVnC1L.s 			page 6


 286              		@ sp needed
 287              	.LVL19:
 288              	.LVL20:
 289              	.LVL21:
 290 008a 0CBC     		pop	{r2, r3}
 291 008c 9046     		mov	r8, r2
 292 008e 9946     		mov	r9, r3
 293 0090 F8BD     		pop	{r3, r4, r5, r6, r7, pc}
 294              	.LVL22:
 295              	.L30:
 296              		.loc 1 701 0
 297 0092 0120     		movs	r0, #1
 298 0094 F9E7     		b	.L9
 299              	.LVL23:
 300              	.L45:
 301              		.loc 1 707 0 discriminator 1
 302 0096 2B69     		ldr	r3, [r5, #16]
 303 0098 002B     		cmp	r3, #0
 304 009a C8D1     		bne	.L10
 305              		.loc 1 709 0
 306 009c 0142     		tst	r1, r0
 307 009e C6D0     		beq	.L10
 308 00a0 F3E7     		b	.L9
 309              	.LVL24:
 310              	.L15:
 311              	.LBB37:
 312              	.LBB35:
 313              		.loc 1 2352 0
 314 00a2 D369     		ldr	r3, [r2, #28]
 315 00a4 1C42     		tst	r4, r3
 316 00a6 E6D1     		bne	.L17
 317              		.loc 1 2357 0
 318 00a8 002E     		cmp	r6, #0
 319 00aa 06D0     		beq	.L23
 320 00ac FFF7FEFF 		bl	HAL_GetTick
 321              	.LVL25:
 322 00b0 4B46     		mov	r3, r9
 323 00b2 2A68     		ldr	r2, [r5]
 324 00b4 C01A     		subs	r0, r0, r3
 325 00b6 8642     		cmp	r6, r0
 326 00b8 D8D2     		bcs	.L12
 327              	.LVL26:
 328              	.L23:
 329              	.LBE35:
 330              	.LBE37:
 331              	.LBB38:
 332              	.LBB39:
 333              	.LBB40:
 334              	.LBB41:
 335              		.loc 1 2360 0
 336 00ba 1368     		ldr	r3, [r2]
 337 00bc 1B49     		ldr	r1, .L48
 338              	.LBE41:
 339              	.LBE40:
 340              	.LBE39:
 341              	.LBE38:
 342              		.loc 1 746 0
ARM GAS  C:\Users\anashi\AppData\Local\Temp\ccMVnC1L.s 			page 7


 343 00be 0320     		movs	r0, #3
 344              	.LBB47:
 345              	.LBB44:
 346              	.LBB43:
 347              	.LBB42:
 348              		.loc 1 2360 0
 349 00c0 0B40     		ands	r3, r1
 350 00c2 1360     		str	r3, [r2]
 351              		.loc 1 2361 0
 352 00c4 9368     		ldr	r3, [r2, #8]
 353 00c6 A331     		adds	r1, r1, #163
 354 00c8 FF31     		adds	r1, r1, #255
 355 00ca 8B43     		bics	r3, r1
 356 00cc 9360     		str	r3, [r2, #8]
 357              		.loc 1 2363 0
 358 00ce 2023     		movs	r3, #32
 359 00d0 6922     		movs	r2, #105
 360 00d2 AB54     		strb	r3, [r5, r2]
 361              		.loc 1 2364 0
 362 00d4 0132     		adds	r2, r2, #1
 363 00d6 AB54     		strb	r3, [r5, r2]
 364              		.loc 1 2367 0
 365 00d8 0022     		movs	r2, #0
 366 00da 4833     		adds	r3, r3, #72
 367 00dc EA54     		strb	r2, [r5, r3]
 368              	.LVL27:
 369 00de D4E7     		b	.L9
 370              	.L47:
 371              	.LBE42:
 372              	.LBE43:
 373              	.LBE44:
 374              	.LBE47:
 375              		.loc 1 733 0 discriminator 1
 376 00e0 2B69     		ldr	r3, [r5, #16]
 377 00e2 002B     		cmp	r3, #0
 378 00e4 CCD1     		bne	.L19
 379              	.LVL28:
 380              		.loc 1 736 0
 381 00e6 3B88     		ldrh	r3, [r7]
 382              		.loc 1 737 0
 383 00e8 0237     		adds	r7, r7, #2
 384              	.LVL29:
 385              		.loc 1 736 0
 386 00ea DB05     		lsls	r3, r3, #23
 387 00ec DB0D     		lsrs	r3, r3, #23
 388 00ee 1385     		strh	r3, [r2, #40]
 389              		.loc 1 737 0
 390 00f0 B2E7     		b	.L11
 391              	.LVL30:
 392              	.L46:
 393              	.LBB48:
 394              	.LBB45:
 395              		.loc 1 2352 0
 396 00f2 4024     		movs	r4, #64
 397              	.L22:
 398 00f4 731C     		adds	r3, r6, #1
 399 00f6 0BD1     		bne	.L25
ARM GAS  C:\Users\anashi\AppData\Local\Temp\ccMVnC1L.s 			page 8


 400 00f8 4021     		movs	r1, #64
 401              	.L26:
 402 00fa D369     		ldr	r3, [r2, #28]
 403 00fc 1942     		tst	r1, r3
 404 00fe FCD0     		beq	.L26
 405              	.L27:
 406              	.LBE45:
 407              	.LBE48:
 408              		.loc 1 750 0
 409 0100 6923     		movs	r3, #105
 410 0102 2022     		movs	r2, #32
 411 0104 EA54     		strb	r2, [r5, r3]
 412              		.loc 1 753 0
 413 0106 0022     		movs	r2, #0
 414 0108 013B     		subs	r3, r3, #1
 415 010a EA54     		strb	r2, [r5, r3]
 416              		.loc 1 755 0
 417 010c 0020     		movs	r0, #0
 418 010e BCE7     		b	.L9
 419              	.L25:
 420              	.LBB49:
 421              	.LBB46:
 422              		.loc 1 2352 0
 423 0110 D369     		ldr	r3, [r2, #28]
 424 0112 1C42     		tst	r4, r3
 425 0114 F4D1     		bne	.L27
 426              		.loc 1 2357 0
 427 0116 002E     		cmp	r6, #0
 428 0118 CFD0     		beq	.L23
 429 011a FFF7FEFF 		bl	HAL_GetTick
 430              	.LVL31:
 431 011e 4B46     		mov	r3, r9
 432 0120 2A68     		ldr	r2, [r5]
 433 0122 C01A     		subs	r0, r0, r3
 434 0124 8642     		cmp	r6, r0
 435 0126 E5D2     		bcs	.L22
 436              	.LVL32:
 437 0128 C7E7     		b	.L23
 438              	.L49:
 439 012a C046     		.align	2
 440              	.L48:
 441 012c 5FFEFFFF 		.word	-417
 442              	.LBE46:
 443              	.LBE49:
 444              		.cfi_endproc
 445              	.LFE43:
 446              		.size	HAL_UART_Transmit, .-HAL_UART_Transmit
 447              		.section	.text.HAL_UART_Receive,"ax",%progbits
 448              		.align	1
 449              		.p2align 2,,3
 450              		.global	HAL_UART_Receive
 451              		.syntax unified
 452              		.code	16
 453              		.thumb_func
 454              		.fpu softvfp
 455              		.type	HAL_UART_Receive, %function
 456              	HAL_UART_Receive:
ARM GAS  C:\Users\anashi\AppData\Local\Temp\ccMVnC1L.s 			page 9


 457              	.LFB44:
 458              		.loc 1 776 0
 459              		.cfi_startproc
 460              		@ args = 0, pretend = 0, frame = 0
 461              		@ frame_needed = 0, uses_anonymous_args = 0
 462              	.LVL33:
 463 0000 F0B5     		push	{r4, r5, r6, r7, lr}
 464              		.cfi_def_cfa_offset 20
 465              		.cfi_offset 4, -20
 466              		.cfi_offset 5, -16
 467              		.cfi_offset 6, -12
 468              		.cfi_offset 7, -8
 469              		.cfi_offset 14, -4
 470 0002 4F46     		mov	r7, r9
 471 0004 4646     		mov	r6, r8
 472 0006 D646     		mov	lr, r10
 473 0008 C0B5     		push	{r6, r7, lr}
 474              		.cfi_def_cfa_offset 32
 475              		.cfi_offset 8, -32
 476              		.cfi_offset 9, -28
 477              		.cfi_offset 10, -24
 478              		.loc 1 776 0
 479 000a 1E00     		movs	r6, r3
 480              		.loc 1 782 0
 481 000c 6A23     		movs	r3, #106
 482              	.LVL34:
 483 000e C35C     		ldrb	r3, [r0, r3]
 484              		.loc 1 776 0
 485 0010 0500     		movs	r5, r0
 486 0012 0F00     		movs	r7, r1
 487 0014 1400     		movs	r4, r2
 488              	.LVL35:
 489              		.loc 1 846 0
 490 0016 0220     		movs	r0, #2
 491              	.LVL36:
 492              		.loc 1 782 0
 493 0018 202B     		cmp	r3, #32
 494 001a 62D1     		bne	.L51
 495              		.loc 1 784 0
 496 001c 0029     		cmp	r1, #0
 497 001e 65D0     		beq	.L68
 498              		.loc 1 786 0 discriminator 1
 499 0020 0138     		subs	r0, r0, #1
 500              		.loc 1 784 0 discriminator 1
 501 0022 002A     		cmp	r2, #0
 502 0024 5DD0     		beq	.L51
 503              		.loc 1 792 0
 504 0026 8023     		movs	r3, #128
 505 0028 AA68     		ldr	r2, [r5, #8]
 506              	.LVL37:
 507 002a 5B01     		lsls	r3, r3, #5
 508 002c 9A42     		cmp	r2, r3
 509 002e 5FD0     		beq	.L82
 510              	.L52:
 511              		.loc 1 801 0
 512 0030 6823     		movs	r3, #104
 513 0032 EA5C     		ldrb	r2, [r5, r3]
ARM GAS  C:\Users\anashi\AppData\Local\Temp\ccMVnC1L.s 			page 10


 514 0034 012A     		cmp	r2, #1
 515 0036 61D0     		beq	.L71
 516              		.loc 1 801 0 is_stmt 0 discriminator 2
 517 0038 0122     		movs	r2, #1
 518 003a EA54     		strb	r2, [r5, r3]
 519              		.loc 1 803 0 is_stmt 1 discriminator 2
 520 003c 0023     		movs	r3, #0
 521              		.loc 1 804 0 discriminator 2
 522 003e 2132     		adds	r2, r2, #33
 523              		.loc 1 803 0 discriminator 2
 524 0040 EB66     		str	r3, [r5, #108]
 525              		.loc 1 804 0 discriminator 2
 526 0042 6A33     		adds	r3, r3, #106
 527 0044 EA54     		strb	r2, [r5, r3]
 528              		.loc 1 807 0 discriminator 2
 529 0046 FFF7FEFF 		bl	HAL_GetTick
 530              	.LVL38:
 531              		.loc 1 809 0 discriminator 2
 532 004a 5823     		movs	r3, #88
 533              		.loc 1 813 0 discriminator 2
 534 004c 8022     		movs	r2, #128
 535              		.loc 1 809 0 discriminator 2
 536 004e EC52     		strh	r4, [r5, r3]
 537              		.loc 1 810 0 discriminator 2
 538 0050 0233     		adds	r3, r3, #2
 539 0052 EC52     		strh	r4, [r5, r3]
 540              		.loc 1 813 0 discriminator 2
 541 0054 AB68     		ldr	r3, [r5, #8]
 542              		.loc 1 807 0 discriminator 2
 543 0056 8246     		mov	r10, r0
 544              	.LVL39:
 545              		.loc 1 813 0 discriminator 2
 546 0058 5201     		lsls	r2, r2, #5
 547 005a 9342     		cmp	r3, r2
 548 005c 69D0     		beq	.L83
 549 005e 002B     		cmp	r3, #0
 550 0060 4ED0     		beq	.L56
 551 0062 5C23     		movs	r3, #92
 552 0064 EB5A     		ldrh	r3, [r5, r3]
 553 0066 9946     		mov	r9, r3
 554              	.L55:
 555              	.LVL40:
 556              		.loc 1 817 0
 557 0068 5A23     		movs	r3, #90
 558              	.LBB54:
 559              	.LBB55:
 560              		.loc 1 2352 0
 561 006a 2024     		movs	r4, #32
 562              	.LBE55:
 563              	.LBE54:
 564              		.loc 1 817 0
 565 006c 9846     		mov	r8, r3
 566              	.LVL41:
 567              	.L57:
 568 006e 4346     		mov	r3, r8
 569 0070 EB5A     		ldrh	r3, [r5, r3]
 570 0072 9BB2     		uxth	r3, r3
ARM GAS  C:\Users\anashi\AppData\Local\Temp\ccMVnC1L.s 			page 11


 571 0074 002B     		cmp	r3, #0
 572 0076 55D0     		beq	.L84
 573              		.loc 1 819 0
 574 0078 4346     		mov	r3, r8
 575 007a 4246     		mov	r2, r8
 576 007c EB5A     		ldrh	r3, [r5, r3]
 577 007e 013B     		subs	r3, r3, #1
 578 0080 9BB2     		uxth	r3, r3
 579 0082 AB52     		strh	r3, [r5, r2]
 580              	.LVL42:
 581              	.L58:
 582              	.LBB63:
 583              	.LBB60:
 584              		.loc 1 2352 0
 585 0084 2A68     		ldr	r2, [r5]
 586 0086 731C     		adds	r3, r6, #1
 587 0088 0DD1     		bne	.L60
 588              	.L61:
 589 008a D369     		ldr	r3, [r2, #28]
 590 008c 1C42     		tst	r4, r3
 591 008e FCD0     		beq	.L61
 592              	.L62:
 593              	.LVL43:
 594              	.LBE60:
 595              	.LBE63:
 596              		.loc 1 824 0
 597 0090 8023     		movs	r3, #128
 598 0092 A968     		ldr	r1, [r5, #8]
 599 0094 5B01     		lsls	r3, r3, #5
 600 0096 9942     		cmp	r1, r3
 601 0098 3BD0     		beq	.L85
 602              	.L64:
 603              	.LVL44:
 604              		.loc 1 832 0
 605 009a 938C     		ldrh	r3, [r2, #36]
 606 009c 4A46     		mov	r2, r9
 607 009e 1340     		ands	r3, r2
 608 00a0 3B70     		strb	r3, [r7]
 609 00a2 0137     		adds	r7, r7, #1
 610              	.LVL45:
 611 00a4 E3E7     		b	.L57
 612              	.LVL46:
 613              	.L60:
 614              	.LBB64:
 615              	.LBB61:
 616              		.loc 1 2352 0
 617 00a6 D369     		ldr	r3, [r2, #28]
 618 00a8 1C42     		tst	r4, r3
 619 00aa F1D1     		bne	.L62
 620              		.loc 1 2357 0
 621 00ac 002E     		cmp	r6, #0
 622 00ae 06D0     		beq	.L59
 623 00b0 FFF7FEFF 		bl	HAL_GetTick
 624              	.LVL47:
 625 00b4 5346     		mov	r3, r10
 626 00b6 C01A     		subs	r0, r0, r3
 627 00b8 8642     		cmp	r6, r0
ARM GAS  C:\Users\anashi\AppData\Local\Temp\ccMVnC1L.s 			page 12


 628 00ba E3D2     		bcs	.L58
 629              	.LVL48:
 630 00bc 2A68     		ldr	r2, [r5]
 631              	.LVL49:
 632              	.L59:
 633              	.LBB56:
 634              	.LBB57:
 635              		.loc 1 2360 0
 636 00be 1368     		ldr	r3, [r2]
 637 00c0 2349     		ldr	r1, .L86
 638              	.LBE57:
 639              	.LBE56:
 640              	.LBE61:
 641              	.LBE64:
 642              		.loc 1 822 0
 643 00c2 0320     		movs	r0, #3
 644              	.LBB65:
 645              	.LBB62:
 646              	.LBB59:
 647              	.LBB58:
 648              		.loc 1 2360 0
 649 00c4 0B40     		ands	r3, r1
 650 00c6 1360     		str	r3, [r2]
 651              		.loc 1 2361 0
 652 00c8 9368     		ldr	r3, [r2, #8]
 653 00ca A331     		adds	r1, r1, #163
 654 00cc FF31     		adds	r1, r1, #255
 655 00ce 8B43     		bics	r3, r1
 656 00d0 9360     		str	r3, [r2, #8]
 657              		.loc 1 2363 0
 658 00d2 2023     		movs	r3, #32
 659 00d4 6922     		movs	r2, #105
 660 00d6 AB54     		strb	r3, [r5, r2]
 661              		.loc 1 2364 0
 662 00d8 0132     		adds	r2, r2, #1
 663 00da AB54     		strb	r3, [r5, r2]
 664              		.loc 1 2367 0
 665 00dc 0022     		movs	r2, #0
 666 00de 4833     		adds	r3, r3, #72
 667 00e0 EA54     		strb	r2, [r5, r3]
 668              	.LVL50:
 669              	.L51:
 670              	.LBE58:
 671              	.LBE59:
 672              	.LBE62:
 673              	.LBE65:
 674              		.loc 1 848 0
 675              		@ sp needed
 676              	.LVL51:
 677              	.LVL52:
 678              	.LVL53:
 679 00e2 1CBC     		pop	{r2, r3, r4}
 680 00e4 9046     		mov	r8, r2
 681 00e6 9946     		mov	r9, r3
 682 00e8 A246     		mov	r10, r4
 683 00ea F0BD     		pop	{r4, r5, r6, r7, pc}
 684              	.LVL54:
ARM GAS  C:\Users\anashi\AppData\Local\Temp\ccMVnC1L.s 			page 13


 685              	.L68:
 686              		.loc 1 786 0
 687 00ec 0120     		movs	r0, #1
 688 00ee F8E7     		b	.L51
 689              	.LVL55:
 690              	.L82:
 691              		.loc 1 792 0 discriminator 1
 692 00f0 2B69     		ldr	r3, [r5, #16]
 693 00f2 002B     		cmp	r3, #0
 694 00f4 9CD1     		bne	.L52
 695              		.loc 1 794 0
 696 00f6 0142     		tst	r1, r0
 697 00f8 9AD0     		beq	.L52
 698 00fa F2E7     		b	.L51
 699              	.L71:
 700              		.loc 1 846 0
 701 00fc 0220     		movs	r0, #2
 702 00fe F0E7     		b	.L51
 703              	.LVL56:
 704              	.L56:
 705              		.loc 1 813 0 discriminator 5
 706 0100 2B69     		ldr	r3, [r5, #16]
 707 0102 002B     		cmp	r3, #0
 708 0104 1DD0     		beq	.L54
 709              		.loc 1 813 0 is_stmt 0 discriminator 7
 710 0106 5C23     		movs	r3, #92
 711 0108 7F22     		movs	r2, #127
 712 010a EA52     		strh	r2, [r5, r3]
 713 010c 2333     		adds	r3, r3, #35
 714 010e 9946     		mov	r9, r3
 715 0110 AAE7     		b	.L55
 716              	.LVL57:
 717              	.L85:
 718              		.loc 1 824 0 is_stmt 1 discriminator 1
 719 0112 2B69     		ldr	r3, [r5, #16]
 720 0114 002B     		cmp	r3, #0
 721 0116 C0D1     		bne	.L64
 722              	.LVL58:
 723              		.loc 1 827 0
 724 0118 938C     		ldrh	r3, [r2, #36]
 725 011a 4A46     		mov	r2, r9
 726 011c 1340     		ands	r3, r2
 727 011e 3B80     		strh	r3, [r7]
 728              		.loc 1 828 0
 729 0120 0237     		adds	r7, r7, #2
 730              	.LVL59:
 731 0122 A4E7     		b	.L57
 732              	.LVL60:
 733              	.L84:
 734              		.loc 1 837 0
 735 0124 6A22     		movs	r2, #106
 736 0126 2021     		movs	r1, #32
 737 0128 A954     		strb	r1, [r5, r2]
 738              		.loc 1 840 0
 739 012a 023A     		subs	r2, r2, #2
 740 012c AB54     		strb	r3, [r5, r2]
 741              		.loc 1 842 0
ARM GAS  C:\Users\anashi\AppData\Local\Temp\ccMVnC1L.s 			page 14


 742 012e 0020     		movs	r0, #0
 743 0130 D7E7     		b	.L51
 744              	.LVL61:
 745              	.L83:
 746              		.loc 1 813 0 discriminator 1
 747 0132 2B69     		ldr	r3, [r5, #16]
 748 0134 002B     		cmp	r3, #0
 749 0136 04D1     		bne	.L54
 750              		.loc 1 813 0 is_stmt 0 discriminator 3
 751 0138 5C22     		movs	r2, #92
 752 013a 064B     		ldr	r3, .L86+4
 753 013c AB52     		strh	r3, [r5, r2]
 754 013e 9946     		mov	r9, r3
 755 0140 92E7     		b	.L55
 756              	.L54:
 757              		.loc 1 813 0 discriminator 4
 758 0142 5C23     		movs	r3, #92
 759 0144 FF22     		movs	r2, #255
 760 0146 EA52     		strh	r2, [r5, r3]
 761 0148 A333     		adds	r3, r3, #163
 762 014a 9946     		mov	r9, r3
 763 014c 8CE7     		b	.L55
 764              	.L87:
 765 014e C046     		.align	2
 766              	.L86:
 767 0150 5FFEFFFF 		.word	-417
 768 0154 FF010000 		.word	511
 769              		.cfi_endproc
 770              	.LFE44:
 771              		.size	HAL_UART_Receive, .-HAL_UART_Receive
 772              		.section	.text.HAL_UART_Transmit_IT,"ax",%progbits
 773              		.align	1
 774              		.p2align 2,,3
 775              		.global	HAL_UART_Transmit_IT
 776              		.syntax unified
 777              		.code	16
 778              		.thumb_func
 779              		.fpu softvfp
 780              		.type	HAL_UART_Transmit_IT, %function
 781              	HAL_UART_Transmit_IT:
 782              	.LFB45:
 783              		.loc 1 862 0 is_stmt 1
 784              		.cfi_startproc
 785              		@ args = 0, pretend = 0, frame = 0
 786              		@ frame_needed = 0, uses_anonymous_args = 0
 787              	.LVL62:
 788 0000 0300     		movs	r3, r0
 789              		.loc 1 864 0
 790 0002 6920     		movs	r0, #105
 791              	.LVL63:
 792              		.loc 1 862 0
 793 0004 30B5     		push	{r4, r5, lr}
 794              		.cfi_def_cfa_offset 12
 795              		.cfi_offset 4, -12
 796              		.cfi_offset 5, -8
 797              		.cfi_offset 14, -4
 798              		.loc 1 864 0
ARM GAS  C:\Users\anashi\AppData\Local\Temp\ccMVnC1L.s 			page 15


 799 0006 1C5C     		ldrb	r4, [r3, r0]
 800              		.loc 1 902 0
 801 0008 6738     		subs	r0, r0, #103
 802              		.loc 1 864 0
 803 000a 202C     		cmp	r4, #32
 804 000c 1ED1     		bne	.L89
 805              		.loc 1 866 0
 806 000e 0029     		cmp	r1, #0
 807 0010 1DD0     		beq	.L92
 808              		.loc 1 868 0 discriminator 1
 809 0012 0138     		subs	r0, r0, #1
 810              		.loc 1 866 0 discriminator 1
 811 0014 002A     		cmp	r2, #0
 812 0016 19D0     		beq	.L89
 813              		.loc 1 874 0
 814 0018 8024     		movs	r4, #128
 815 001a 9D68     		ldr	r5, [r3, #8]
 816 001c 6401     		lsls	r4, r4, #5
 817 001e A542     		cmp	r5, r4
 818 0020 17D0     		beq	.L97
 819              	.L90:
 820              		.loc 1 883 0
 821 0022 6820     		movs	r0, #104
 822 0024 1C5C     		ldrb	r4, [r3, r0]
 823 0026 012C     		cmp	r4, #1
 824 0028 19D0     		beq	.L95
 825              		.loc 1 885 0 discriminator 2
 826 002a D964     		str	r1, [r3, #76]
 827              		.loc 1 886 0 discriminator 2
 828 002c 5021     		movs	r1, #80
 829              	.LVL64:
 830 002e 5A52     		strh	r2, [r3, r1]
 831              		.loc 1 887 0 discriminator 2
 832 0030 0231     		adds	r1, r1, #2
 833 0032 5A52     		strh	r2, [r3, r1]
 834              		.loc 1 890 0 discriminator 2
 835 0034 2124     		movs	r4, #33
 836              		.loc 1 889 0 discriminator 2
 837 0036 0022     		movs	r2, #0
 838              	.LVL65:
 839              		.loc 1 890 0 discriminator 2
 840 0038 1731     		adds	r1, r1, #23
 841              		.loc 1 889 0 discriminator 2
 842 003a DA66     		str	r2, [r3, #108]
 843              		.loc 1 890 0 discriminator 2
 844 003c 5C54     		strb	r4, [r3, r1]
 845              		.loc 1 893 0 discriminator 2
 846 003e 1A54     		strb	r2, [r3, r0]
 847              		.loc 1 898 0 discriminator 2
 848 0040 0020     		movs	r0, #0
 849              		.loc 1 896 0 discriminator 2
 850 0042 1A68     		ldr	r2, [r3]
 851 0044 1731     		adds	r1, r1, #23
 852 0046 1368     		ldr	r3, [r2]
 853              	.LVL66:
 854 0048 0B43     		orrs	r3, r1
 855 004a 1360     		str	r3, [r2]
ARM GAS  C:\Users\anashi\AppData\Local\Temp\ccMVnC1L.s 			page 16


 856              	.LVL67:
 857              	.L89:
 858              		.loc 1 904 0
 859              		@ sp needed
 860 004c 30BD     		pop	{r4, r5, pc}
 861              	.LVL68:
 862              	.L92:
 863              		.loc 1 868 0
 864 004e 0120     		movs	r0, #1
 865 0050 FCE7     		b	.L89
 866              	.L97:
 867              		.loc 1 874 0 discriminator 1
 868 0052 1C69     		ldr	r4, [r3, #16]
 869 0054 002C     		cmp	r4, #0
 870 0056 E4D1     		bne	.L90
 871              		.loc 1 876 0
 872 0058 0142     		tst	r1, r0
 873 005a E2D0     		beq	.L90
 874 005c F6E7     		b	.L89
 875              	.L95:
 876              		.loc 1 902 0
 877 005e 0220     		movs	r0, #2
 878 0060 F4E7     		b	.L89
 879              		.cfi_endproc
 880              	.LFE45:
 881              		.size	HAL_UART_Transmit_IT, .-HAL_UART_Transmit_IT
 882 0062 C046     		.section	.text.HAL_UART_Receive_IT,"ax",%progbits
 883              		.align	1
 884              		.p2align 2,,3
 885              		.global	HAL_UART_Receive_IT
 886              		.syntax unified
 887              		.code	16
 888              		.thumb_func
 889              		.fpu softvfp
 890              		.type	HAL_UART_Receive_IT, %function
 891              	HAL_UART_Receive_IT:
 892              	.LFB46:
 893              		.loc 1 918 0
 894              		.cfi_startproc
 895              		@ args = 0, pretend = 0, frame = 0
 896              		@ frame_needed = 0, uses_anonymous_args = 0
 897              	.LVL69:
 898 0000 0300     		movs	r3, r0
 899              		.loc 1 920 0
 900 0002 6A20     		movs	r0, #106
 901              	.LVL70:
 902              		.loc 1 918 0
 903 0004 70B5     		push	{r4, r5, r6, lr}
 904              		.cfi_def_cfa_offset 16
 905              		.cfi_offset 4, -16
 906              		.cfi_offset 5, -12
 907              		.cfi_offset 6, -8
 908              		.cfi_offset 14, -4
 909              		.loc 1 920 0
 910 0006 1C5C     		ldrb	r4, [r3, r0]
 911              		.loc 1 964 0
 912 0008 6838     		subs	r0, r0, #104
ARM GAS  C:\Users\anashi\AppData\Local\Temp\ccMVnC1L.s 			page 17


 913              		.loc 1 920 0
 914 000a 202C     		cmp	r4, #32
 915 000c 2DD1     		bne	.L117
 916              		.loc 1 922 0
 917 000e 0029     		cmp	r1, #0
 918 0010 2CD0     		beq	.L109
 919              		.loc 1 924 0 discriminator 1
 920 0012 0138     		subs	r0, r0, #1
 921              		.loc 1 922 0 discriminator 1
 922 0014 002A     		cmp	r2, #0
 923 0016 28D0     		beq	.L117
 924              		.loc 1 930 0
 925 0018 8025     		movs	r5, #128
 926 001a 9C68     		ldr	r4, [r3, #8]
 927 001c 6D01     		lsls	r5, r5, #5
 928 001e AC42     		cmp	r4, r5
 929 0020 26D0     		beq	.L123
 930              		.loc 1 939 0
 931 0022 6825     		movs	r5, #104
 932 0024 5E5D     		ldrb	r6, [r3, r5]
 933 0026 012E     		cmp	r6, #1
 934 0028 42D0     		beq	.L114
 935 002a 5855     		strb	r0, [r3, r5]
 936              		.loc 1 941 0
 937 002c 5965     		str	r1, [r3, #84]
 938              		.loc 1 942 0
 939 002e 5821     		movs	r1, #88
 940              	.LVL71:
 941 0030 5A52     		strh	r2, [r3, r1]
 942              		.loc 1 943 0
 943 0032 0231     		adds	r1, r1, #2
 944 0034 5A52     		strh	r2, [r3, r1]
 945              		.loc 1 946 0
 946 0036 002C     		cmp	r4, #0
 947 0038 05D1     		bne	.L103
 948              		.loc 1 946 0 is_stmt 0 discriminator 5
 949 003a 1A69     		ldr	r2, [r3, #16]
 950              	.LVL72:
 951 003c 002A     		cmp	r2, #0
 952 003e 33D1     		bne	.L124
 953              	.LVL73:
 954              	.L104:
 955              		.loc 1 946 0 discriminator 4
 956 0040 5C22     		movs	r2, #92
 957 0042 FF21     		movs	r1, #255
 958 0044 9952     		strh	r1, [r3, r2]
 959              	.L103:
 960              		.loc 1 948 0 is_stmt 1
 961 0046 0022     		movs	r2, #0
 962              		.loc 1 949 0
 963 0048 6A21     		movs	r1, #106
 964 004a 2220     		movs	r0, #34
 965              		.loc 1 948 0
 966 004c DA66     		str	r2, [r3, #108]
 967              		.loc 1 949 0
 968 004e 5854     		strb	r0, [r3, r1]
 969              		.loc 1 952 0
ARM GAS  C:\Users\anashi\AppData\Local\Temp\ccMVnC1L.s 			page 18


 970 0050 0239     		subs	r1, r1, #2
 971 0052 5A54     		strb	r2, [r3, r1]
 972              		.loc 1 955 0
 973 0054 1B68     		ldr	r3, [r3]
 974              	.LVL74:
 975 0056 6739     		subs	r1, r1, #103
 976 0058 9A68     		ldr	r2, [r3, #8]
 977              		.loc 1 960 0
 978 005a 0020     		movs	r0, #0
 979              		.loc 1 955 0
 980 005c 0A43     		orrs	r2, r1
 981 005e 9A60     		str	r2, [r3, #8]
 982              		.loc 1 958 0
 983 0060 9022     		movs	r2, #144
 984 0062 1968     		ldr	r1, [r3]
 985 0064 5200     		lsls	r2, r2, #1
 986 0066 0A43     		orrs	r2, r1
 987 0068 1A60     		str	r2, [r3]
 988              	.L117:
 989              		.loc 1 966 0
 990              		@ sp needed
 991 006a 70BD     		pop	{r4, r5, r6, pc}
 992              	.LVL75:
 993              	.L109:
 994              		.loc 1 924 0
 995 006c 0120     		movs	r0, #1
 996 006e FCE7     		b	.L117
 997              	.L123:
 998              		.loc 1 930 0 discriminator 1
 999 0070 1C69     		ldr	r4, [r3, #16]
 1000 0072 002C     		cmp	r4, #0
 1001 0074 0ED1     		bne	.L101
 1002              		.loc 1 932 0
 1003 0076 0142     		tst	r1, r0
 1004 0078 F7D1     		bne	.L117
 1005              		.loc 1 939 0
 1006 007a 6820     		movs	r0, #104
 1007 007c 185C     		ldrb	r0, [r3, r0]
 1008 007e 0128     		cmp	r0, #1
 1009 0080 16D0     		beq	.L114
 1010              		.loc 1 941 0
 1011 0082 5965     		str	r1, [r3, #84]
 1012              		.loc 1 942 0
 1013 0084 5821     		movs	r1, #88
 1014              	.LVL76:
 1015 0086 5A52     		strh	r2, [r3, r1]
 1016              		.loc 1 943 0
 1017 0088 0231     		adds	r1, r1, #2
 1018 008a 5A52     		strh	r2, [r3, r1]
 1019              		.loc 1 946 0
 1020 008c 5C22     		movs	r2, #92
 1021              	.LVL77:
 1022 008e 0949     		ldr	r1, .L125
 1023 0090 9952     		strh	r1, [r3, r2]
 1024 0092 D8E7     		b	.L103
 1025              	.LVL78:
 1026              	.L101:
ARM GAS  C:\Users\anashi\AppData\Local\Temp\ccMVnC1L.s 			page 19


 1027              		.loc 1 939 0
 1028 0094 6820     		movs	r0, #104
 1029 0096 185C     		ldrb	r0, [r3, r0]
 1030 0098 0128     		cmp	r0, #1
 1031 009a 09D0     		beq	.L114
 1032              		.loc 1 941 0 discriminator 2
 1033 009c 5965     		str	r1, [r3, #84]
 1034              		.loc 1 942 0 discriminator 2
 1035 009e 5821     		movs	r1, #88
 1036              	.LVL79:
 1037 00a0 5A52     		strh	r2, [r3, r1]
 1038              		.loc 1 943 0 discriminator 2
 1039 00a2 0231     		adds	r1, r1, #2
 1040 00a4 5A52     		strh	r2, [r3, r1]
 1041 00a6 CBE7     		b	.L104
 1042              	.LVL80:
 1043              	.L124:
 1044              		.loc 1 946 0 discriminator 7
 1045 00a8 5C22     		movs	r2, #92
 1046 00aa 7F21     		movs	r1, #127
 1047 00ac 9952     		strh	r1, [r3, r2]
 1048 00ae CAE7     		b	.L103
 1049              	.LVL81:
 1050              	.L114:
 1051              		.loc 1 964 0
 1052 00b0 0220     		movs	r0, #2
 1053 00b2 DAE7     		b	.L117
 1054              	.L126:
 1055              		.align	2
 1056              	.L125:
 1057 00b4 FF010000 		.word	511
 1058              		.cfi_endproc
 1059              	.LFE46:
 1060              		.size	HAL_UART_Receive_IT, .-HAL_UART_Receive_IT
 1061              		.section	.text.HAL_UART_Transmit_DMA,"ax",%progbits
 1062              		.align	1
 1063              		.p2align 2,,3
 1064              		.global	HAL_UART_Transmit_DMA
 1065              		.syntax unified
 1066              		.code	16
 1067              		.thumb_func
 1068              		.fpu softvfp
 1069              		.type	HAL_UART_Transmit_DMA, %function
 1070              	HAL_UART_Transmit_DMA:
 1071              	.LFB47:
 1072              		.loc 1 980 0
 1073              		.cfi_startproc
 1074              		@ args = 0, pretend = 0, frame = 0
 1075              		@ frame_needed = 0, uses_anonymous_args = 0
 1076              	.LVL82:
 1077 0000 F8B5     		push	{r3, r4, r5, r6, r7, lr}
 1078              		.cfi_def_cfa_offset 24
 1079              		.cfi_offset 3, -24
 1080              		.cfi_offset 4, -20
 1081              		.cfi_offset 5, -16
 1082              		.cfi_offset 6, -12
 1083              		.cfi_offset 7, -8
ARM GAS  C:\Users\anashi\AppData\Local\Temp\ccMVnC1L.s 			page 20


 1084              		.cfi_offset 14, -4
 1085              		.loc 1 980 0
 1086 0002 0400     		movs	r4, r0
 1087              		.loc 1 982 0
 1088 0004 6920     		movs	r0, #105
 1089              	.LVL83:
 1090 0006 255C     		ldrb	r5, [r4, r0]
 1091              		.loc 1 1039 0
 1092 0008 6738     		subs	r0, r0, #103
 1093              		.loc 1 982 0
 1094 000a 202D     		cmp	r5, #32
 1095 000c 30D1     		bne	.L128
 1096              		.loc 1 984 0
 1097 000e 0029     		cmp	r1, #0
 1098 0010 2FD0     		beq	.L131
 1099              		.loc 1 986 0 discriminator 1
 1100 0012 0138     		subs	r0, r0, #1
 1101              		.loc 1 984 0 discriminator 1
 1102 0014 002A     		cmp	r2, #0
 1103 0016 2BD0     		beq	.L128
 1104              		.loc 1 992 0
 1105 0018 8023     		movs	r3, #128
 1106 001a A568     		ldr	r5, [r4, #8]
 1107 001c 5B01     		lsls	r3, r3, #5
 1108 001e 9D42     		cmp	r5, r3
 1109 0020 29D0     		beq	.L136
 1110              	.L129:
 1111              		.loc 1 1001 0
 1112 0022 6825     		movs	r5, #104
 1113 0024 635D     		ldrb	r3, [r4, r5]
 1114 0026 012B     		cmp	r3, #1
 1115 0028 2BD0     		beq	.L134
 1116              		.loc 1 1001 0 is_stmt 0 discriminator 2
 1117 002a 0123     		movs	r3, #1
 1118              		.loc 1 1007 0 is_stmt 1 discriminator 2
 1119 002c 0026     		movs	r6, #0
 1120              		.loc 1 1008 0 discriminator 2
 1121 002e 2120     		movs	r0, #33
 1122              		.loc 1 1001 0 discriminator 2
 1123 0030 6355     		strb	r3, [r4, r5]
 1124              		.loc 1 1004 0 discriminator 2
 1125 0032 4F33     		adds	r3, r3, #79
 1126              		.loc 1 1003 0 discriminator 2
 1127 0034 E164     		str	r1, [r4, #76]
 1128              		.loc 1 1004 0 discriminator 2
 1129 0036 E252     		strh	r2, [r4, r3]
 1130              		.loc 1 1005 0 discriminator 2
 1131 0038 0233     		adds	r3, r3, #2
 1132 003a E252     		strh	r2, [r4, r3]
 1133              		.loc 1 1008 0 discriminator 2
 1134 003c 1733     		adds	r3, r3, #23
 1135              		.loc 1 1007 0 discriminator 2
 1136 003e E666     		str	r6, [r4, #108]
 1137              		.loc 1 1008 0 discriminator 2
 1138 0040 E054     		strb	r0, [r4, r3]
 1139              		.loc 1 1011 0 discriminator 2
 1140 0042 206E     		ldr	r0, [r4, #96]
ARM GAS  C:\Users\anashi\AppData\Local\Temp\ccMVnC1L.s 			page 21


 1141 0044 104B     		ldr	r3, .L137
 1142              		.loc 1 1023 0 discriminator 2
 1143 0046 2768     		ldr	r7, [r4]
 1144              		.loc 1 1011 0 discriminator 2
 1145 0048 8362     		str	r3, [r0, #40]
 1146              		.loc 1 1014 0 discriminator 2
 1147 004a 104B     		ldr	r3, .L137+4
 1148              		.loc 1 1023 0 discriminator 2
 1149 004c 2837     		adds	r7, r7, #40
 1150              		.loc 1 1014 0 discriminator 2
 1151 004e C362     		str	r3, [r0, #44]
 1152              		.loc 1 1017 0 discriminator 2
 1153 0050 0F4B     		ldr	r3, .L137+8
 1154              		.loc 1 1020 0 discriminator 2
 1155 0052 4663     		str	r6, [r0, #52]
 1156              		.loc 1 1017 0 discriminator 2
 1157 0054 0363     		str	r3, [r0, #48]
 1158              		.loc 1 1023 0 discriminator 2
 1159 0056 1300     		movs	r3, r2
 1160 0058 3A00     		movs	r2, r7
 1161              	.LVL84:
 1162 005a FFF7FEFF 		bl	HAL_DMA_Start_IT
 1163              	.LVL85:
 1164              		.loc 1 1026 0 discriminator 2
 1165 005e 4022     		movs	r2, #64
 1166              		.loc 1 1033 0 discriminator 2
 1167 0060 8021     		movs	r1, #128
 1168              		.loc 1 1035 0 discriminator 2
 1169 0062 0020     		movs	r0, #0
 1170              		.loc 1 1026 0 discriminator 2
 1171 0064 2368     		ldr	r3, [r4]
 1172 0066 1A62     		str	r2, [r3, #32]
 1173              		.loc 1 1033 0 discriminator 2
 1174 0068 9A68     		ldr	r2, [r3, #8]
 1175              		.loc 1 1029 0 discriminator 2
 1176 006a 6655     		strb	r6, [r4, r5]
 1177              		.loc 1 1033 0 discriminator 2
 1178 006c 0A43     		orrs	r2, r1
 1179 006e 9A60     		str	r2, [r3, #8]
 1180              	.L128:
 1181              		.loc 1 1041 0
 1182              		@ sp needed
 1183              	.LVL86:
 1184 0070 F8BD     		pop	{r3, r4, r5, r6, r7, pc}
 1185              	.LVL87:
 1186              	.L131:
 1187              		.loc 1 986 0
 1188 0072 0120     		movs	r0, #1
 1189 0074 FCE7     		b	.L128
 1190              	.L136:
 1191              		.loc 1 992 0 discriminator 1
 1192 0076 2369     		ldr	r3, [r4, #16]
 1193 0078 002B     		cmp	r3, #0
 1194 007a D2D1     		bne	.L129
 1195              		.loc 1 994 0
 1196 007c 0142     		tst	r1, r0
 1197 007e D0D0     		beq	.L129
ARM GAS  C:\Users\anashi\AppData\Local\Temp\ccMVnC1L.s 			page 22


 1198 0080 F6E7     		b	.L128
 1199              	.L134:
 1200              		.loc 1 1039 0
 1201 0082 0220     		movs	r0, #2
 1202 0084 F4E7     		b	.L128
 1203              	.L138:
 1204 0086 C046     		.align	2
 1205              	.L137:
 1206 0088 00000000 		.word	UART_DMATransmitCplt
 1207 008c 00000000 		.word	UART_DMATxHalfCplt
 1208 0090 00000000 		.word	UART_DMAError
 1209              		.cfi_endproc
 1210              	.LFE47:
 1211              		.size	HAL_UART_Transmit_DMA, .-HAL_UART_Transmit_DMA
 1212              		.section	.text.HAL_UART_Receive_DMA,"ax",%progbits
 1213              		.align	1
 1214              		.p2align 2,,3
 1215              		.global	HAL_UART_Receive_DMA
 1216              		.syntax unified
 1217              		.code	16
 1218              		.thumb_func
 1219              		.fpu softvfp
 1220              		.type	HAL_UART_Receive_DMA, %function
 1221              	HAL_UART_Receive_DMA:
 1222              	.LFB48:
 1223              		.loc 1 1055 0
 1224              		.cfi_startproc
 1225              		@ args = 0, pretend = 0, frame = 0
 1226              		@ frame_needed = 0, uses_anonymous_args = 0
 1227              	.LVL88:
 1228 0000 F0B5     		push	{r4, r5, r6, r7, lr}
 1229              		.cfi_def_cfa_offset 20
 1230              		.cfi_offset 4, -20
 1231              		.cfi_offset 5, -16
 1232              		.cfi_offset 6, -12
 1233              		.cfi_offset 7, -8
 1234              		.cfi_offset 14, -4
 1235 0002 0400     		movs	r4, r0
 1236              		.loc 1 1057 0
 1237 0004 6A20     		movs	r0, #106
 1238              	.LVL89:
 1239              		.loc 1 1055 0
 1240 0006 C646     		mov	lr, r8
 1241              		.loc 1 1057 0
 1242 0008 255C     		ldrb	r5, [r4, r0]
 1243              		.loc 1 1055 0
 1244 000a 00B5     		push	{lr}
 1245              		.cfi_def_cfa_offset 24
 1246              		.cfi_offset 8, -24
 1247              		.loc 1 1116 0
 1248 000c 6838     		subs	r0, r0, #104
 1249              		.loc 1 1057 0
 1250 000e 202D     		cmp	r5, #32
 1251 0010 38D1     		bne	.L140
 1252              		.loc 1 1059 0
 1253 0012 0029     		cmp	r1, #0
 1254 0014 39D0     		beq	.L143
ARM GAS  C:\Users\anashi\AppData\Local\Temp\ccMVnC1L.s 			page 23


 1255              		.loc 1 1061 0 discriminator 1
 1256 0016 0138     		subs	r0, r0, #1
 1257              		.loc 1 1059 0 discriminator 1
 1258 0018 002A     		cmp	r2, #0
 1259 001a 33D0     		beq	.L140
 1260              		.loc 1 1067 0
 1261 001c 8023     		movs	r3, #128
 1262 001e A568     		ldr	r5, [r4, #8]
 1263 0020 5B01     		lsls	r3, r3, #5
 1264 0022 9D42     		cmp	r5, r3
 1265 0024 33D0     		beq	.L148
 1266              	.L141:
 1267              		.loc 1 1076 0
 1268 0026 6825     		movs	r5, #104
 1269 0028 635D     		ldrb	r3, [r4, r5]
 1270 002a 012B     		cmp	r3, #1
 1271 002c 35D0     		beq	.L146
 1272              		.loc 1 1076 0 is_stmt 0 discriminator 2
 1273 002e 0126     		movs	r6, #1
 1274              		.loc 1 1079 0 is_stmt 1 discriminator 2
 1275 0030 5823     		movs	r3, #88
 1276              		.loc 1 1081 0 discriminator 2
 1277 0032 0027     		movs	r7, #0
 1278              		.loc 1 1082 0 discriminator 2
 1279 0034 2220     		movs	r0, #34
 1280              		.loc 1 1076 0 discriminator 2
 1281 0036 6655     		strb	r6, [r4, r5]
 1282              		.loc 1 1078 0 discriminator 2
 1283 0038 6165     		str	r1, [r4, #84]
 1284              		.loc 1 1079 0 discriminator 2
 1285 003a E252     		strh	r2, [r4, r3]
 1286              		.loc 1 1082 0 discriminator 2
 1287 003c 1233     		adds	r3, r3, #18
 1288              		.loc 1 1081 0 discriminator 2
 1289 003e E766     		str	r7, [r4, #108]
 1290              		.loc 1 1082 0 discriminator 2
 1291 0040 E054     		strb	r0, [r4, r3]
 1292              		.loc 1 1085 0 discriminator 2
 1293 0042 606E     		ldr	r0, [r4, #100]
 1294 0044 164B     		ldr	r3, .L149
 1295              		.loc 1 1094 0 discriminator 2
 1296 0046 4763     		str	r7, [r0, #52]
 1297              		.loc 1 1085 0 discriminator 2
 1298 0048 8362     		str	r3, [r0, #40]
 1299              		.loc 1 1088 0 discriminator 2
 1300 004a 164B     		ldr	r3, .L149+4
 1301 004c C362     		str	r3, [r0, #44]
 1302              		.loc 1 1091 0 discriminator 2
 1303 004e 164B     		ldr	r3, .L149+8
 1304 0050 0363     		str	r3, [r0, #48]
 1305              		.loc 1 1097 0 discriminator 2
 1306 0052 2368     		ldr	r3, [r4]
 1307 0054 9846     		mov	r8, r3
 1308 0056 2423     		movs	r3, #36
 1309 0058 9C46     		mov	ip, r3
 1310 005a E044     		add	r8, r8, ip
 1311 005c 1300     		movs	r3, r2
ARM GAS  C:\Users\anashi\AppData\Local\Temp\ccMVnC1L.s 			page 24


 1312 005e 0A00     		movs	r2, r1
 1313              	.LVL90:
 1314 0060 4146     		mov	r1, r8
 1315              	.LVL91:
 1316 0062 FFF7FEFF 		bl	HAL_DMA_Start_IT
 1317              	.LVL92:
 1318              		.loc 1 1103 0 discriminator 2
 1319 0066 8022     		movs	r2, #128
 1320 0068 2368     		ldr	r3, [r4]
 1321 006a 5200     		lsls	r2, r2, #1
 1322 006c 1968     		ldr	r1, [r3]
 1323              		.loc 1 1112 0 discriminator 2
 1324 006e 0020     		movs	r0, #0
 1325              		.loc 1 1103 0 discriminator 2
 1326 0070 0A43     		orrs	r2, r1
 1327              		.loc 1 1110 0 discriminator 2
 1328 0072 4021     		movs	r1, #64
 1329              		.loc 1 1100 0 discriminator 2
 1330 0074 6755     		strb	r7, [r4, r5]
 1331              		.loc 1 1103 0 discriminator 2
 1332 0076 1A60     		str	r2, [r3]
 1333              		.loc 1 1106 0 discriminator 2
 1334 0078 9A68     		ldr	r2, [r3, #8]
 1335 007a 3243     		orrs	r2, r6
 1336 007c 9A60     		str	r2, [r3, #8]
 1337              		.loc 1 1110 0 discriminator 2
 1338 007e 9A68     		ldr	r2, [r3, #8]
 1339 0080 0A43     		orrs	r2, r1
 1340 0082 9A60     		str	r2, [r3, #8]
 1341              	.L140:
 1342              		.loc 1 1118 0
 1343              		@ sp needed
 1344              	.LVL93:
 1345 0084 04BC     		pop	{r2}
 1346 0086 9046     		mov	r8, r2
 1347 0088 F0BD     		pop	{r4, r5, r6, r7, pc}
 1348              	.LVL94:
 1349              	.L143:
 1350              		.loc 1 1061 0
 1351 008a 0120     		movs	r0, #1
 1352 008c FAE7     		b	.L140
 1353              	.L148:
 1354              		.loc 1 1067 0 discriminator 1
 1355 008e 2369     		ldr	r3, [r4, #16]
 1356 0090 002B     		cmp	r3, #0
 1357 0092 C8D1     		bne	.L141
 1358              		.loc 1 1069 0
 1359 0094 0142     		tst	r1, r0
 1360 0096 C6D0     		beq	.L141
 1361 0098 F4E7     		b	.L140
 1362              	.L146:
 1363              		.loc 1 1116 0
 1364 009a 0220     		movs	r0, #2
 1365 009c F2E7     		b	.L140
 1366              	.L150:
 1367 009e C046     		.align	2
 1368              	.L149:
ARM GAS  C:\Users\anashi\AppData\Local\Temp\ccMVnC1L.s 			page 25


 1369 00a0 00000000 		.word	UART_DMAReceiveCplt
 1370 00a4 00000000 		.word	UART_DMARxHalfCplt
 1371 00a8 00000000 		.word	UART_DMAError
 1372              		.cfi_endproc
 1373              	.LFE48:
 1374              		.size	HAL_UART_Receive_DMA, .-HAL_UART_Receive_DMA
 1375              		.section	.text.HAL_UART_DMAPause,"ax",%progbits
 1376              		.align	1
 1377              		.p2align 2,,3
 1378              		.global	HAL_UART_DMAPause
 1379              		.syntax unified
 1380              		.code	16
 1381              		.thumb_func
 1382              		.fpu softvfp
 1383              		.type	HAL_UART_DMAPause, %function
 1384              	HAL_UART_DMAPause:
 1385              	.LFB49:
 1386              		.loc 1 1126 0
 1387              		.cfi_startproc
 1388              		@ args = 0, pretend = 0, frame = 0
 1389              		@ frame_needed = 0, uses_anonymous_args = 0
 1390              	.LVL95:
 1391              		.loc 1 1128 0
 1392 0000 6823     		movs	r3, #104
 1393              		.loc 1 1126 0
 1394 0002 10B5     		push	{r4, lr}
 1395              		.cfi_def_cfa_offset 8
 1396              		.cfi_offset 4, -8
 1397              		.cfi_offset 14, -4
 1398              		.loc 1 1128 0
 1399 0004 C25C     		ldrb	r2, [r0, r3]
 1400 0006 012A     		cmp	r2, #1
 1401 0008 2CD0     		beq	.L155
 1402              		.loc 1 1128 0 is_stmt 0 discriminator 2
 1403 000a 0122     		movs	r2, #1
 1404 000c C254     		strb	r2, [r0, r3]
 1405              		.loc 1 1130 0 is_stmt 1 discriminator 2
 1406 000e 0133     		adds	r3, r3, #1
 1407 0010 C35C     		ldrb	r3, [r0, r3]
 1408 0012 212B     		cmp	r3, #33
 1409 0014 08D0     		beq	.L162
 1410              	.L153:
 1411              		.loc 1 1136 0
 1412 0016 6A23     		movs	r3, #106
 1413 0018 C35C     		ldrb	r3, [r0, r3]
 1414 001a 222B     		cmp	r3, #34
 1415 001c 10D0     		beq	.L163
 1416              	.L154:
 1417              		.loc 1 1148 0
 1418 001e 6823     		movs	r3, #104
 1419 0020 0022     		movs	r2, #0
 1420 0022 C254     		strb	r2, [r0, r3]
 1421              		.loc 1 1150 0
 1422 0024 0020     		movs	r0, #0
 1423              	.LVL96:
 1424              	.L152:
 1425              		.loc 1 1151 0
ARM GAS  C:\Users\anashi\AppData\Local\Temp\ccMVnC1L.s 			page 26


 1426              		@ sp needed
 1427 0026 10BD     		pop	{r4, pc}
 1428              	.LVL97:
 1429              	.L162:
 1430              		.loc 1 1131 0 discriminator 1
 1431 0028 0368     		ldr	r3, [r0]
 1432 002a 7F32     		adds	r2, r2, #127
 1433 002c 9968     		ldr	r1, [r3, #8]
 1434              		.loc 1 1130 0 discriminator 1
 1435 002e 0A42     		tst	r2, r1
 1436 0030 F1D0     		beq	.L153
 1437              		.loc 1 1134 0
 1438 0032 9968     		ldr	r1, [r3, #8]
 1439 0034 9143     		bics	r1, r2
 1440 0036 9960     		str	r1, [r3, #8]
 1441              		.loc 1 1136 0
 1442 0038 6A23     		movs	r3, #106
 1443 003a C35C     		ldrb	r3, [r0, r3]
 1444 003c 222B     		cmp	r3, #34
 1445 003e EED1     		bne	.L154
 1446              	.L163:
 1447              		.loc 1 1137 0 discriminator 1
 1448 0040 4022     		movs	r2, #64
 1449 0042 0368     		ldr	r3, [r0]
 1450 0044 9968     		ldr	r1, [r3, #8]
 1451              		.loc 1 1136 0 discriminator 1
 1452 0046 0A42     		tst	r2, r1
 1453 0048 E9D0     		beq	.L154
 1454              		.loc 1 1140 0
 1455 004a 1968     		ldr	r1, [r3]
 1456 004c 064C     		ldr	r4, .L164
 1457 004e 2140     		ands	r1, r4
 1458 0050 1960     		str	r1, [r3]
 1459              		.loc 1 1141 0
 1460 0052 9968     		ldr	r1, [r3, #8]
 1461 0054 0334     		adds	r4, r4, #3
 1462 0056 FF34     		adds	r4, r4, #255
 1463 0058 A143     		bics	r1, r4
 1464 005a 9960     		str	r1, [r3, #8]
 1465              		.loc 1 1144 0
 1466 005c 9968     		ldr	r1, [r3, #8]
 1467 005e 9143     		bics	r1, r2
 1468 0060 9960     		str	r1, [r3, #8]
 1469 0062 DCE7     		b	.L154
 1470              	.L155:
 1471              		.loc 1 1128 0
 1472 0064 0220     		movs	r0, #2
 1473              	.LVL98:
 1474 0066 DEE7     		b	.L152
 1475              	.L165:
 1476              		.align	2
 1477              	.L164:
 1478 0068 FFFEFFFF 		.word	-257
 1479              		.cfi_endproc
 1480              	.LFE49:
 1481              		.size	HAL_UART_DMAPause, .-HAL_UART_DMAPause
 1482              		.section	.text.HAL_UART_DMAResume,"ax",%progbits
ARM GAS  C:\Users\anashi\AppData\Local\Temp\ccMVnC1L.s 			page 27


 1483              		.align	1
 1484              		.p2align 2,,3
 1485              		.global	HAL_UART_DMAResume
 1486              		.syntax unified
 1487              		.code	16
 1488              		.thumb_func
 1489              		.fpu softvfp
 1490              		.type	HAL_UART_DMAResume, %function
 1491              	HAL_UART_DMAResume:
 1492              	.LFB50:
 1493              		.loc 1 1159 0
 1494              		.cfi_startproc
 1495              		@ args = 0, pretend = 0, frame = 0
 1496              		@ frame_needed = 0, uses_anonymous_args = 0
 1497              		@ link register save eliminated.
 1498              	.LVL99:
 1499              		.loc 1 1161 0
 1500 0000 6823     		movs	r3, #104
 1501 0002 C25C     		ldrb	r2, [r0, r3]
 1502 0004 012A     		cmp	r2, #1
 1503 0006 22D0     		beq	.L170
 1504              		.loc 1 1161 0 is_stmt 0 discriminator 2
 1505 0008 0122     		movs	r2, #1
 1506 000a C254     		strb	r2, [r0, r3]
 1507              		.loc 1 1163 0 is_stmt 1 discriminator 2
 1508 000c 0133     		adds	r3, r3, #1
 1509 000e C35C     		ldrb	r3, [r0, r3]
 1510 0010 212B     		cmp	r3, #33
 1511 0012 04D1     		bne	.L168
 1512              		.loc 1 1166 0
 1513 0014 8021     		movs	r1, #128
 1514 0016 0268     		ldr	r2, [r0]
 1515 0018 9368     		ldr	r3, [r2, #8]
 1516 001a 0B43     		orrs	r3, r1
 1517 001c 9360     		str	r3, [r2, #8]
 1518              	.L168:
 1519              		.loc 1 1168 0
 1520 001e 6A23     		movs	r3, #106
 1521 0020 C35C     		ldrb	r3, [r0, r3]
 1522 0022 222B     		cmp	r3, #34
 1523 0024 0ED1     		bne	.L169
 1524              		.loc 1 1171 0
 1525 0026 0822     		movs	r2, #8
 1526 0028 0368     		ldr	r3, [r0]
 1527 002a 1A62     		str	r2, [r3, #32]
 1528              		.loc 1 1174 0
 1529 002c 1968     		ldr	r1, [r3]
 1530 002e F832     		adds	r2, r2, #248
 1531 0030 0A43     		orrs	r2, r1
 1532              		.loc 1 1175 0
 1533 0032 0121     		movs	r1, #1
 1534              		.loc 1 1174 0
 1535 0034 1A60     		str	r2, [r3]
 1536              		.loc 1 1175 0
 1537 0036 9A68     		ldr	r2, [r3, #8]
 1538 0038 0A43     		orrs	r2, r1
 1539 003a 9A60     		str	r2, [r3, #8]
ARM GAS  C:\Users\anashi\AppData\Local\Temp\ccMVnC1L.s 			page 28


 1540              		.loc 1 1178 0
 1541 003c 9A68     		ldr	r2, [r3, #8]
 1542 003e 3F31     		adds	r1, r1, #63
 1543 0040 0A43     		orrs	r2, r1
 1544 0042 9A60     		str	r2, [r3, #8]
 1545              	.L169:
 1546              		.loc 1 1182 0
 1547 0044 6823     		movs	r3, #104
 1548 0046 0022     		movs	r2, #0
 1549 0048 C254     		strb	r2, [r0, r3]
 1550              		.loc 1 1184 0
 1551 004a 0020     		movs	r0, #0
 1552              	.LVL100:
 1553              	.L167:
 1554              		.loc 1 1185 0
 1555              		@ sp needed
 1556 004c 7047     		bx	lr
 1557              	.LVL101:
 1558              	.L170:
 1559              		.loc 1 1161 0
 1560 004e 0220     		movs	r0, #2
 1561              	.LVL102:
 1562 0050 FCE7     		b	.L167
 1563              		.cfi_endproc
 1564              	.LFE50:
 1565              		.size	HAL_UART_DMAResume, .-HAL_UART_DMAResume
 1566 0052 C046     		.section	.text.HAL_UART_DMAStop,"ax",%progbits
 1567              		.align	1
 1568              		.p2align 2,,3
 1569              		.global	HAL_UART_DMAStop
 1570              		.syntax unified
 1571              		.code	16
 1572              		.thumb_func
 1573              		.fpu softvfp
 1574              		.type	HAL_UART_DMAStop, %function
 1575              	HAL_UART_DMAStop:
 1576              	.LFB51:
 1577              		.loc 1 1193 0
 1578              		.cfi_startproc
 1579              		@ args = 0, pretend = 0, frame = 0
 1580              		@ frame_needed = 0, uses_anonymous_args = 0
 1581              	.LVL103:
 1582              		.loc 1 1202 0
 1583 0000 6923     		movs	r3, #105
 1584              		.loc 1 1193 0
 1585 0002 10B5     		push	{r4, lr}
 1586              		.cfi_def_cfa_offset 8
 1587              		.cfi_offset 4, -8
 1588              		.cfi_offset 14, -4
 1589              		.loc 1 1202 0
 1590 0004 C35C     		ldrb	r3, [r0, r3]
 1591              		.loc 1 1193 0
 1592 0006 0400     		movs	r4, r0
 1593              		.loc 1 1202 0
 1594 0008 212B     		cmp	r3, #33
 1595 000a 20D0     		beq	.L188
 1596              	.LVL104:
ARM GAS  C:\Users\anashi\AppData\Local\Temp\ccMVnC1L.s 			page 29


 1597              	.L172:
 1598              		.loc 1 1217 0
 1599 000c 6A23     		movs	r3, #106
 1600 000e E35C     		ldrb	r3, [r4, r3]
 1601 0010 222B     		cmp	r3, #34
 1602 0012 01D0     		beq	.L189
 1603              	.L174:
 1604              		.loc 1 1232 0
 1605 0014 0020     		movs	r0, #0
 1606              		@ sp needed
 1607              	.LVL105:
 1608 0016 10BD     		pop	{r4, pc}
 1609              	.LVL106:
 1610              	.L189:
 1611              		.loc 1 1218 0 discriminator 1
 1612 0018 4022     		movs	r2, #64
 1613 001a 2368     		ldr	r3, [r4]
 1614 001c 9968     		ldr	r1, [r3, #8]
 1615              		.loc 1 1217 0 discriminator 1
 1616 001e 0A42     		tst	r2, r1
 1617 0020 F8D0     		beq	.L174
 1618              		.loc 1 1220 0
 1619 0022 9968     		ldr	r1, [r3, #8]
 1620              		.loc 1 1223 0
 1621 0024 606E     		ldr	r0, [r4, #100]
 1622              		.loc 1 1220 0
 1623 0026 9143     		bics	r1, r2
 1624 0028 9960     		str	r1, [r3, #8]
 1625              		.loc 1 1223 0
 1626 002a 0028     		cmp	r0, #0
 1627 002c 02D0     		beq	.L175
 1628              		.loc 1 1225 0
 1629 002e FFF7FEFF 		bl	HAL_DMA_Abort
 1630              	.LVL107:
 1631 0032 2368     		ldr	r3, [r4]
 1632              	.L175:
 1633              	.LVL108:
 1634              	.LBB66:
 1635              	.LBB67:
 1636              		.loc 1 2399 0
 1637 0034 1A68     		ldr	r2, [r3]
 1638 0036 1149     		ldr	r1, .L190
 1639 0038 0A40     		ands	r2, r1
 1640 003a 1A60     		str	r2, [r3]
 1641              		.loc 1 2400 0
 1642 003c 9A68     		ldr	r2, [r3, #8]
 1643 003e 2331     		adds	r1, r1, #35
 1644 0040 FF31     		adds	r1, r1, #255
 1645 0042 8A43     		bics	r2, r1
 1646 0044 9A60     		str	r2, [r3, #8]
 1647              		.loc 1 2403 0
 1648 0046 6A23     		movs	r3, #106
 1649 0048 2022     		movs	r2, #32
 1650 004a E254     		strb	r2, [r4, r3]
 1651 004c E2E7     		b	.L174
 1652              	.LVL109:
 1653              	.L188:
ARM GAS  C:\Users\anashi\AppData\Local\Temp\ccMVnC1L.s 			page 30


 1654              	.LBE67:
 1655              	.LBE66:
 1656              		.loc 1 1203 0 discriminator 1
 1657 004e 8022     		movs	r2, #128
 1658 0050 0368     		ldr	r3, [r0]
 1659 0052 9968     		ldr	r1, [r3, #8]
 1660              		.loc 1 1202 0 discriminator 1
 1661 0054 0A42     		tst	r2, r1
 1662 0056 D9D0     		beq	.L172
 1663              		.loc 1 1205 0
 1664 0058 9968     		ldr	r1, [r3, #8]
 1665              		.loc 1 1208 0
 1666 005a 006E     		ldr	r0, [r0, #96]
 1667              	.LVL110:
 1668              		.loc 1 1205 0
 1669 005c 9143     		bics	r1, r2
 1670 005e 9960     		str	r1, [r3, #8]
 1671              		.loc 1 1208 0
 1672 0060 0028     		cmp	r0, #0
 1673 0062 02D0     		beq	.L173
 1674              		.loc 1 1210 0
 1675 0064 FFF7FEFF 		bl	HAL_DMA_Abort
 1676              	.LVL111:
 1677 0068 2368     		ldr	r3, [r4]
 1678              	.L173:
 1679              	.LVL112:
 1680              	.LBB68:
 1681              	.LBB69:
 1682              		.loc 1 2384 0
 1683 006a C021     		movs	r1, #192
 1684 006c 1A68     		ldr	r2, [r3]
 1685 006e 8A43     		bics	r2, r1
 1686 0070 1A60     		str	r2, [r3]
 1687              		.loc 1 2387 0
 1688 0072 6923     		movs	r3, #105
 1689 0074 2022     		movs	r2, #32
 1690 0076 E254     		strb	r2, [r4, r3]
 1691 0078 C8E7     		b	.L172
 1692              	.L191:
 1693 007a C046     		.align	2
 1694              	.L190:
 1695 007c DFFEFFFF 		.word	-289
 1696              	.LBE69:
 1697              	.LBE68:
 1698              		.cfi_endproc
 1699              	.LFE51:
 1700              		.size	HAL_UART_DMAStop, .-HAL_UART_DMAStop
 1701              		.section	.text.HAL_UART_Abort,"ax",%progbits
 1702              		.align	1
 1703              		.p2align 2,,3
 1704              		.global	HAL_UART_Abort
 1705              		.syntax unified
 1706              		.code	16
 1707              		.thumb_func
 1708              		.fpu softvfp
 1709              		.type	HAL_UART_Abort, %function
 1710              	HAL_UART_Abort:
ARM GAS  C:\Users\anashi\AppData\Local\Temp\ccMVnC1L.s 			page 31


 1711              	.LFB52:
 1712              		.loc 1 1247 0
 1713              		.cfi_startproc
 1714              		@ args = 0, pretend = 0, frame = 0
 1715              		@ frame_needed = 0, uses_anonymous_args = 0
 1716              	.LVL113:
 1717              		.loc 1 1249 0
 1718 0000 0368     		ldr	r3, [r0]
 1719 0002 1C49     		ldr	r1, .L207
 1720 0004 1A68     		ldr	r2, [r3]
 1721              		.loc 1 1247 0
 1722 0006 10B5     		push	{r4, lr}
 1723              		.cfi_def_cfa_offset 8
 1724              		.cfi_offset 4, -8
 1725              		.cfi_offset 14, -4
 1726              		.loc 1 1249 0
 1727 0008 0A40     		ands	r2, r1
 1728 000a 1A60     		str	r2, [r3]
 1729              		.loc 1 1250 0
 1730 000c 9A68     		ldr	r2, [r3, #8]
 1731 000e E331     		adds	r1, r1, #227
 1732 0010 FF31     		adds	r1, r1, #255
 1733 0012 8A43     		bics	r2, r1
 1734 0014 9A60     		str	r2, [r3, #8]
 1735              		.loc 1 1253 0
 1736 0016 8022     		movs	r2, #128
 1737 0018 9968     		ldr	r1, [r3, #8]
 1738              		.loc 1 1247 0
 1739 001a 0400     		movs	r4, r0
 1740              		.loc 1 1253 0
 1741 001c 0A42     		tst	r2, r1
 1742 001e 0AD0     		beq	.L193
 1743              		.loc 1 1255 0
 1744 0020 9968     		ldr	r1, [r3, #8]
 1745              		.loc 1 1258 0
 1746 0022 006E     		ldr	r0, [r0, #96]
 1747              	.LVL114:
 1748              		.loc 1 1255 0
 1749 0024 9143     		bics	r1, r2
 1750 0026 9960     		str	r1, [r3, #8]
 1751              		.loc 1 1258 0
 1752 0028 0028     		cmp	r0, #0
 1753 002a 04D0     		beq	.L193
 1754              		.loc 1 1262 0
 1755 002c 0023     		movs	r3, #0
 1756 002e 4363     		str	r3, [r0, #52]
 1757              		.loc 1 1264 0
 1758 0030 FFF7FEFF 		bl	HAL_DMA_Abort
 1759              	.LVL115:
 1760 0034 2368     		ldr	r3, [r4]
 1761              	.L193:
 1762              		.loc 1 1269 0
 1763 0036 4022     		movs	r2, #64
 1764 0038 9968     		ldr	r1, [r3, #8]
 1765 003a 0A42     		tst	r2, r1
 1766 003c 0AD0     		beq	.L194
 1767              		.loc 1 1271 0
ARM GAS  C:\Users\anashi\AppData\Local\Temp\ccMVnC1L.s 			page 32


 1768 003e 9968     		ldr	r1, [r3, #8]
 1769              		.loc 1 1274 0
 1770 0040 606E     		ldr	r0, [r4, #100]
 1771              		.loc 1 1271 0
 1772 0042 9143     		bics	r1, r2
 1773 0044 9960     		str	r1, [r3, #8]
 1774              		.loc 1 1274 0
 1775 0046 0028     		cmp	r0, #0
 1776 0048 04D0     		beq	.L194
 1777              		.loc 1 1278 0
 1778 004a 0023     		movs	r3, #0
 1779 004c 4363     		str	r3, [r0, #52]
 1780              		.loc 1 1280 0
 1781 004e FFF7FEFF 		bl	HAL_DMA_Abort
 1782              	.LVL116:
 1783 0052 2368     		ldr	r3, [r4]
 1784              	.L194:
 1785              		.loc 1 1285 0
 1786 0054 0022     		movs	r2, #0
 1787 0056 5221     		movs	r1, #82
 1788 0058 6252     		strh	r2, [r4, r1]
 1789              		.loc 1 1286 0
 1790 005a 0831     		adds	r1, r1, #8
 1791 005c 6252     		strh	r2, [r4, r1]
 1792              		.loc 1 1289 0
 1793 005e 4B39     		subs	r1, r1, #75
 1794 0060 1962     		str	r1, [r3, #32]
 1795              		.loc 1 1292 0
 1796 0062 2023     		movs	r3, #32
 1797 0064 5A31     		adds	r1, r1, #90
 1798 0066 6354     		strb	r3, [r4, r1]
 1799              		.loc 1 1293 0
 1800 0068 0131     		adds	r1, r1, #1
 1801 006a 6354     		strb	r3, [r4, r1]
 1802              		.loc 1 1299 0
 1803 006c 0020     		movs	r0, #0
 1804              		.loc 1 1296 0
 1805 006e E266     		str	r2, [r4, #108]
 1806              		.loc 1 1299 0
 1807              		@ sp needed
 1808              	.LVL117:
 1809 0070 10BD     		pop	{r4, pc}
 1810              	.L208:
 1811 0072 C046     		.align	2
 1812              	.L207:
 1813 0074 1FFEFFFF 		.word	-481
 1814              		.cfi_endproc
 1815              	.LFE52:
 1816              		.size	HAL_UART_Abort, .-HAL_UART_Abort
 1817              		.section	.text.HAL_UART_AbortTransmit,"ax",%progbits
 1818              		.align	1
 1819              		.p2align 2,,3
 1820              		.global	HAL_UART_AbortTransmit
 1821              		.syntax unified
 1822              		.code	16
 1823              		.thumb_func
 1824              		.fpu softvfp
ARM GAS  C:\Users\anashi\AppData\Local\Temp\ccMVnC1L.s 			page 33


 1825              		.type	HAL_UART_AbortTransmit, %function
 1826              	HAL_UART_AbortTransmit:
 1827              	.LFB53:
 1828              		.loc 1 1314 0
 1829              		.cfi_startproc
 1830              		@ args = 0, pretend = 0, frame = 0
 1831              		@ frame_needed = 0, uses_anonymous_args = 0
 1832              	.LVL118:
 1833              		.loc 1 1316 0
 1834 0000 C021     		movs	r1, #192
 1835 0002 0368     		ldr	r3, [r0]
 1836              		.loc 1 1314 0
 1837 0004 10B5     		push	{r4, lr}
 1838              		.cfi_def_cfa_offset 8
 1839              		.cfi_offset 4, -8
 1840              		.cfi_offset 14, -4
 1841              		.loc 1 1316 0
 1842 0006 1A68     		ldr	r2, [r3]
 1843              		.loc 1 1314 0
 1844 0008 0400     		movs	r4, r0
 1845              		.loc 1 1316 0
 1846 000a 8A43     		bics	r2, r1
 1847 000c 1A60     		str	r2, [r3]
 1848              		.loc 1 1319 0
 1849 000e 8022     		movs	r2, #128
 1850 0010 9968     		ldr	r1, [r3, #8]
 1851 0012 0A42     		tst	r2, r1
 1852 0014 09D0     		beq	.L211
 1853              		.loc 1 1321 0
 1854 0016 9968     		ldr	r1, [r3, #8]
 1855              		.loc 1 1324 0
 1856 0018 006E     		ldr	r0, [r0, #96]
 1857              	.LVL119:
 1858              		.loc 1 1321 0
 1859 001a 9143     		bics	r1, r2
 1860 001c 9960     		str	r1, [r3, #8]
 1861              		.loc 1 1324 0
 1862 001e 0028     		cmp	r0, #0
 1863 0020 03D0     		beq	.L211
 1864              		.loc 1 1328 0
 1865 0022 0023     		movs	r3, #0
 1866 0024 4363     		str	r3, [r0, #52]
 1867              		.loc 1 1330 0
 1868 0026 FFF7FEFF 		bl	HAL_DMA_Abort
 1869              	.LVL120:
 1870              	.L211:
 1871              		.loc 1 1335 0
 1872 002a 5223     		movs	r3, #82
 1873 002c 0022     		movs	r2, #0
 1874 002e E252     		strh	r2, [r4, r3]
 1875              		.loc 1 1338 0
 1876 0030 1733     		adds	r3, r3, #23
 1877 0032 2032     		adds	r2, r2, #32
 1878              		.loc 1 1341 0
 1879 0034 0020     		movs	r0, #0
 1880              		.loc 1 1338 0
 1881 0036 E254     		strb	r2, [r4, r3]
ARM GAS  C:\Users\anashi\AppData\Local\Temp\ccMVnC1L.s 			page 34


 1882              		.loc 1 1341 0
 1883              		@ sp needed
 1884              	.LVL121:
 1885 0038 10BD     		pop	{r4, pc}
 1886              		.cfi_endproc
 1887              	.LFE53:
 1888              		.size	HAL_UART_AbortTransmit, .-HAL_UART_AbortTransmit
 1889 003a C046     		.section	.text.HAL_UART_AbortReceive,"ax",%progbits
 1890              		.align	1
 1891              		.p2align 2,,3
 1892              		.global	HAL_UART_AbortReceive
 1893              		.syntax unified
 1894              		.code	16
 1895              		.thumb_func
 1896              		.fpu softvfp
 1897              		.type	HAL_UART_AbortReceive, %function
 1898              	HAL_UART_AbortReceive:
 1899              	.LFB54:
 1900              		.loc 1 1356 0
 1901              		.cfi_startproc
 1902              		@ args = 0, pretend = 0, frame = 0
 1903              		@ frame_needed = 0, uses_anonymous_args = 0
 1904              	.LVL122:
 1905              		.loc 1 1358 0
 1906 0000 0368     		ldr	r3, [r0]
 1907 0002 1249     		ldr	r1, .L224
 1908 0004 1A68     		ldr	r2, [r3]
 1909              		.loc 1 1356 0
 1910 0006 10B5     		push	{r4, lr}
 1911              		.cfi_def_cfa_offset 8
 1912              		.cfi_offset 4, -8
 1913              		.cfi_offset 14, -4
 1914              		.loc 1 1358 0
 1915 0008 0A40     		ands	r2, r1
 1916 000a 1A60     		str	r2, [r3]
 1917              		.loc 1 1359 0
 1918 000c 9A68     		ldr	r2, [r3, #8]
 1919 000e 2331     		adds	r1, r1, #35
 1920 0010 FF31     		adds	r1, r1, #255
 1921 0012 8A43     		bics	r2, r1
 1922 0014 9A60     		str	r2, [r3, #8]
 1923              		.loc 1 1362 0
 1924 0016 4022     		movs	r2, #64
 1925 0018 9968     		ldr	r1, [r3, #8]
 1926              		.loc 1 1356 0
 1927 001a 0400     		movs	r4, r0
 1928              		.loc 1 1362 0
 1929 001c 0A42     		tst	r2, r1
 1930 001e 0AD0     		beq	.L217
 1931              		.loc 1 1364 0
 1932 0020 9968     		ldr	r1, [r3, #8]
 1933              		.loc 1 1367 0
 1934 0022 406E     		ldr	r0, [r0, #100]
 1935              	.LVL123:
 1936              		.loc 1 1364 0
 1937 0024 9143     		bics	r1, r2
 1938 0026 9960     		str	r1, [r3, #8]
ARM GAS  C:\Users\anashi\AppData\Local\Temp\ccMVnC1L.s 			page 35


 1939              		.loc 1 1367 0
 1940 0028 0028     		cmp	r0, #0
 1941 002a 04D0     		beq	.L217
 1942              		.loc 1 1371 0
 1943 002c 0023     		movs	r3, #0
 1944 002e 4363     		str	r3, [r0, #52]
 1945              		.loc 1 1373 0
 1946 0030 FFF7FEFF 		bl	HAL_DMA_Abort
 1947              	.LVL124:
 1948 0034 2368     		ldr	r3, [r4]
 1949              	.L217:
 1950              		.loc 1 1378 0
 1951 0036 5A22     		movs	r2, #90
 1952 0038 0021     		movs	r1, #0
 1953 003a A152     		strh	r1, [r4, r2]
 1954              		.loc 1 1381 0
 1955 003c 4B3A     		subs	r2, r2, #75
 1956 003e 1A62     		str	r2, [r3, #32]
 1957              		.loc 1 1384 0
 1958 0040 6A23     		movs	r3, #106
 1959 0042 1132     		adds	r2, r2, #17
 1960              		.loc 1 1387 0
 1961 0044 0020     		movs	r0, #0
 1962              		.loc 1 1384 0
 1963 0046 E254     		strb	r2, [r4, r3]
 1964              		.loc 1 1387 0
 1965              		@ sp needed
 1966              	.LVL125:
 1967 0048 10BD     		pop	{r4, pc}
 1968              	.L225:
 1969 004a C046     		.align	2
 1970              	.L224:
 1971 004c DFFEFFFF 		.word	-289
 1972              		.cfi_endproc
 1973              	.LFE54:
 1974              		.size	HAL_UART_AbortReceive, .-HAL_UART_AbortReceive
 1975              		.section	.text.HAL_UART_TxCpltCallback,"ax",%progbits
 1976              		.align	1
 1977              		.p2align 2,,3
 1978              		.weak	HAL_UART_TxCpltCallback
 1979              		.syntax unified
 1980              		.code	16
 1981              		.thumb_func
 1982              		.fpu softvfp
 1983              		.type	HAL_UART_TxCpltCallback, %function
 1984              	HAL_UART_TxCpltCallback:
 1985              	.LFB99:
 1986              		.cfi_startproc
 1987              		@ args = 0, pretend = 0, frame = 0
 1988              		@ frame_needed = 0, uses_anonymous_args = 0
 1989              		@ link register save eliminated.
 1990              		@ sp needed
 1991 0000 7047     		bx	lr
 1992              		.cfi_endproc
 1993              	.LFE99:
 1994              		.size	HAL_UART_TxCpltCallback, .-HAL_UART_TxCpltCallback
 1995 0002 C046     		.section	.text.UART_DMATransmitCplt,"ax",%progbits
ARM GAS  C:\Users\anashi\AppData\Local\Temp\ccMVnC1L.s 			page 36


 1996              		.align	1
 1997              		.p2align 2,,3
 1998              		.syntax unified
 1999              		.code	16
 2000              		.thumb_func
 2001              		.fpu softvfp
 2002              		.type	UART_DMATransmitCplt, %function
 2003              	UART_DMATransmitCplt:
 2004              	.LFB80:
 2005              		.loc 1 2413 0
 2006              		.cfi_startproc
 2007              		@ args = 0, pretend = 0, frame = 0
 2008              		@ frame_needed = 0, uses_anonymous_args = 0
 2009              	.LVL126:
 2010              		.loc 1 2417 0
 2011 0000 0368     		ldr	r3, [r0]
 2012              		.loc 1 2413 0
 2013 0002 10B5     		push	{r4, lr}
 2014              		.cfi_def_cfa_offset 8
 2015              		.cfi_offset 4, -8
 2016              		.cfi_offset 14, -4
 2017              		.loc 1 2417 0
 2018 0004 1968     		ldr	r1, [r3]
 2019 0006 2023     		movs	r3, #32
 2020              		.loc 1 2414 0
 2021 0008 426A     		ldr	r2, [r0, #36]
 2022              	.LVL127:
 2023              		.loc 1 2417 0
 2024 000a 0B40     		ands	r3, r1
 2025 000c 0BD1     		bne	.L228
 2026              		.loc 1 2419 0
 2027 000e 5221     		movs	r1, #82
 2028 0010 5352     		strh	r3, [r2, r1]
 2029              		.loc 1 2423 0
 2030 0012 1368     		ldr	r3, [r2]
 2031 0014 2E31     		adds	r1, r1, #46
 2032 0016 9A68     		ldr	r2, [r3, #8]
 2033              	.LVL128:
 2034 0018 8A43     		bics	r2, r1
 2035 001a 9A60     		str	r2, [r3, #8]
 2036              		.loc 1 2426 0
 2037 001c 1A68     		ldr	r2, [r3]
 2038 001e 4039     		subs	r1, r1, #64
 2039 0020 0A43     		orrs	r2, r1
 2040 0022 1A60     		str	r2, [r3]
 2041              	.LVL129:
 2042              	.L227:
 2043              		.loc 1 2434 0
 2044              		@ sp needed
 2045 0024 10BD     		pop	{r4, pc}
 2046              	.LVL130:
 2047              	.L228:
 2048              		.loc 1 2431 0
 2049 0026 1000     		movs	r0, r2
 2050              	.LVL131:
 2051 0028 FFF7FEFF 		bl	HAL_UART_TxCpltCallback
 2052              	.LVL132:
ARM GAS  C:\Users\anashi\AppData\Local\Temp\ccMVnC1L.s 			page 37


 2053              		.loc 1 2434 0
 2054 002c FAE7     		b	.L227
 2055              		.cfi_endproc
 2056              	.LFE80:
 2057              		.size	UART_DMATransmitCplt, .-UART_DMATransmitCplt
 2058 002e C046     		.section	.text.HAL_UART_TxHalfCpltCallback,"ax",%progbits
 2059              		.align	1
 2060              		.p2align 2,,3
 2061              		.weak	HAL_UART_TxHalfCpltCallback
 2062              		.syntax unified
 2063              		.code	16
 2064              		.thumb_func
 2065              		.fpu softvfp
 2066              		.type	HAL_UART_TxHalfCpltCallback, %function
 2067              	HAL_UART_TxHalfCpltCallback:
 2068              	.LFB101:
 2069              		.cfi_startproc
 2070              		@ args = 0, pretend = 0, frame = 0
 2071              		@ frame_needed = 0, uses_anonymous_args = 0
 2072              		@ link register save eliminated.
 2073              		@ sp needed
 2074 0000 7047     		bx	lr
 2075              		.cfi_endproc
 2076              	.LFE101:
 2077              		.size	HAL_UART_TxHalfCpltCallback, .-HAL_UART_TxHalfCpltCallback
 2078 0002 C046     		.section	.text.UART_DMATxHalfCplt,"ax",%progbits
 2079              		.align	1
 2080              		.p2align 2,,3
 2081              		.syntax unified
 2082              		.code	16
 2083              		.thumb_func
 2084              		.fpu softvfp
 2085              		.type	UART_DMATxHalfCplt, %function
 2086              	UART_DMATxHalfCplt:
 2087              	.LFB81:
 2088              		.loc 1 2442 0
 2089              		.cfi_startproc
 2090              		@ args = 0, pretend = 0, frame = 0
 2091              		@ frame_needed = 0, uses_anonymous_args = 0
 2092              	.LVL133:
 2093              		.loc 1 2442 0
 2094 0000 10B5     		push	{r4, lr}
 2095              		.cfi_def_cfa_offset 8
 2096              		.cfi_offset 4, -8
 2097              		.cfi_offset 14, -4
 2098              		.loc 1 2445 0
 2099 0002 406A     		ldr	r0, [r0, #36]
 2100              	.LVL134:
 2101 0004 FFF7FEFF 		bl	HAL_UART_TxHalfCpltCallback
 2102              	.LVL135:
 2103              		.loc 1 2446 0
 2104              		@ sp needed
 2105 0008 10BD     		pop	{r4, pc}
 2106              		.cfi_endproc
 2107              	.LFE81:
 2108              		.size	UART_DMATxHalfCplt, .-UART_DMATxHalfCplt
 2109 000a C046     		.section	.text.HAL_UART_RxCpltCallback,"ax",%progbits
ARM GAS  C:\Users\anashi\AppData\Local\Temp\ccMVnC1L.s 			page 38


 2110              		.align	1
 2111              		.p2align 2,,3
 2112              		.weak	HAL_UART_RxCpltCallback
 2113              		.syntax unified
 2114              		.code	16
 2115              		.thumb_func
 2116              		.fpu softvfp
 2117              		.type	HAL_UART_RxCpltCallback, %function
 2118              	HAL_UART_RxCpltCallback:
 2119              	.LFB103:
 2120              		.cfi_startproc
 2121              		@ args = 0, pretend = 0, frame = 0
 2122              		@ frame_needed = 0, uses_anonymous_args = 0
 2123              		@ link register save eliminated.
 2124              		@ sp needed
 2125 0000 7047     		bx	lr
 2126              		.cfi_endproc
 2127              	.LFE103:
 2128              		.size	HAL_UART_RxCpltCallback, .-HAL_UART_RxCpltCallback
 2129 0002 C046     		.section	.text.UART_DMAReceiveCplt,"ax",%progbits
 2130              		.align	1
 2131              		.p2align 2,,3
 2132              		.syntax unified
 2133              		.code	16
 2134              		.thumb_func
 2135              		.fpu softvfp
 2136              		.type	UART_DMAReceiveCplt, %function
 2137              	UART_DMAReceiveCplt:
 2138              	.LFB82:
 2139              		.loc 1 2454 0
 2140              		.cfi_startproc
 2141              		@ args = 0, pretend = 0, frame = 0
 2142              		@ frame_needed = 0, uses_anonymous_args = 0
 2143              	.LVL136:
 2144              		.loc 1 2458 0
 2145 0000 2021     		movs	r1, #32
 2146 0002 0368     		ldr	r3, [r0]
 2147              		.loc 1 2454 0
 2148 0004 10B5     		push	{r4, lr}
 2149              		.cfi_def_cfa_offset 8
 2150              		.cfi_offset 4, -8
 2151              		.cfi_offset 14, -4
 2152              		.loc 1 2458 0
 2153 0006 1B68     		ldr	r3, [r3]
 2154              		.loc 1 2455 0
 2155 0008 426A     		ldr	r2, [r0, #36]
 2156              	.LVL137:
 2157              		.loc 1 2458 0
 2158 000a 0B40     		ands	r3, r1
 2159 000c 11D1     		bne	.L234
 2160              		.loc 1 2460 0
 2161 000e 5A20     		movs	r0, #90
 2162              	.LVL138:
 2163 0010 1352     		strh	r3, [r2, r0]
 2164              		.loc 1 2463 0
 2165 0012 1368     		ldr	r3, [r2]
 2166 0014 094C     		ldr	r4, .L235
ARM GAS  C:\Users\anashi\AppData\Local\Temp\ccMVnC1L.s 			page 39


 2167 0016 1868     		ldr	r0, [r3]
 2168 0018 2040     		ands	r0, r4
 2169 001a 1860     		str	r0, [r3]
 2170              		.loc 1 2464 0
 2171 001c 9868     		ldr	r0, [r3, #8]
 2172 001e 0334     		adds	r4, r4, #3
 2173 0020 FF34     		adds	r4, r4, #255
 2174 0022 A043     		bics	r0, r4
 2175 0024 9860     		str	r0, [r3, #8]
 2176              		.loc 1 2468 0
 2177 0026 9868     		ldr	r0, [r3, #8]
 2178 0028 3F34     		adds	r4, r4, #63
 2179 002a A043     		bics	r0, r4
 2180 002c 9860     		str	r0, [r3, #8]
 2181              		.loc 1 2471 0
 2182 002e 6A23     		movs	r3, #106
 2183 0030 D154     		strb	r1, [r2, r3]
 2184              	.L234:
 2185              		.loc 1 2474 0
 2186 0032 1000     		movs	r0, r2
 2187 0034 FFF7FEFF 		bl	HAL_UART_RxCpltCallback
 2188              	.LVL139:
 2189              		.loc 1 2475 0
 2190              		@ sp needed
 2191 0038 10BD     		pop	{r4, pc}
 2192              	.L236:
 2193 003a C046     		.align	2
 2194              	.L235:
 2195 003c FFFEFFFF 		.word	-257
 2196              		.cfi_endproc
 2197              	.LFE82:
 2198              		.size	UART_DMAReceiveCplt, .-UART_DMAReceiveCplt
 2199              		.section	.text.HAL_UART_RxHalfCpltCallback,"ax",%progbits
 2200              		.align	1
 2201              		.p2align 2,,3
 2202              		.weak	HAL_UART_RxHalfCpltCallback
 2203              		.syntax unified
 2204              		.code	16
 2205              		.thumb_func
 2206              		.fpu softvfp
 2207              		.type	HAL_UART_RxHalfCpltCallback, %function
 2208              	HAL_UART_RxHalfCpltCallback:
 2209              	.LFB105:
 2210              		.cfi_startproc
 2211              		@ args = 0, pretend = 0, frame = 0
 2212              		@ frame_needed = 0, uses_anonymous_args = 0
 2213              		@ link register save eliminated.
 2214              		@ sp needed
 2215 0000 7047     		bx	lr
 2216              		.cfi_endproc
 2217              	.LFE105:
 2218              		.size	HAL_UART_RxHalfCpltCallback, .-HAL_UART_RxHalfCpltCallback
 2219 0002 C046     		.section	.text.UART_DMARxHalfCplt,"ax",%progbits
 2220              		.align	1
 2221              		.p2align 2,,3
 2222              		.syntax unified
 2223              		.code	16
ARM GAS  C:\Users\anashi\AppData\Local\Temp\ccMVnC1L.s 			page 40


 2224              		.thumb_func
 2225              		.fpu softvfp
 2226              		.type	UART_DMARxHalfCplt, %function
 2227              	UART_DMARxHalfCplt:
 2228              	.LFB83:
 2229              		.loc 1 2483 0
 2230              		.cfi_startproc
 2231              		@ args = 0, pretend = 0, frame = 0
 2232              		@ frame_needed = 0, uses_anonymous_args = 0
 2233              	.LVL140:
 2234              		.loc 1 2483 0
 2235 0000 10B5     		push	{r4, lr}
 2236              		.cfi_def_cfa_offset 8
 2237              		.cfi_offset 4, -8
 2238              		.cfi_offset 14, -4
 2239              		.loc 1 2486 0
 2240 0002 406A     		ldr	r0, [r0, #36]
 2241              	.LVL141:
 2242 0004 FFF7FEFF 		bl	HAL_UART_RxHalfCpltCallback
 2243              	.LVL142:
 2244              		.loc 1 2487 0
 2245              		@ sp needed
 2246 0008 10BD     		pop	{r4, pc}
 2247              		.cfi_endproc
 2248              	.LFE83:
 2249              		.size	UART_DMARxHalfCplt, .-UART_DMARxHalfCplt
 2250 000a C046     		.section	.text.HAL_UART_ErrorCallback,"ax",%progbits
 2251              		.align	1
 2252              		.p2align 2,,3
 2253              		.weak	HAL_UART_ErrorCallback
 2254              		.syntax unified
 2255              		.code	16
 2256              		.thumb_func
 2257              		.fpu softvfp
 2258              		.type	HAL_UART_ErrorCallback, %function
 2259              	HAL_UART_ErrorCallback:
 2260              	.LFB107:
 2261              		.cfi_startproc
 2262              		@ args = 0, pretend = 0, frame = 0
 2263              		@ frame_needed = 0, uses_anonymous_args = 0
 2264              		@ link register save eliminated.
 2265              		@ sp needed
 2266 0000 7047     		bx	lr
 2267              		.cfi_endproc
 2268              	.LFE107:
 2269              		.size	HAL_UART_ErrorCallback, .-HAL_UART_ErrorCallback
 2270 0002 C046     		.section	.text.UART_DMAError,"ax",%progbits
 2271              		.align	1
 2272              		.p2align 2,,3
 2273              		.syntax unified
 2274              		.code	16
 2275              		.thumb_func
 2276              		.fpu softvfp
 2277              		.type	UART_DMAError, %function
 2278              	UART_DMAError:
 2279              	.LFB84:
 2280              		.loc 1 2495 0
ARM GAS  C:\Users\anashi\AppData\Local\Temp\ccMVnC1L.s 			page 41


 2281              		.cfi_startproc
 2282              		@ args = 0, pretend = 0, frame = 0
 2283              		@ frame_needed = 0, uses_anonymous_args = 0
 2284              	.LVL143:
 2285              		.loc 1 2499 0
 2286 0000 6923     		movs	r3, #105
 2287              		.loc 1 2495 0
 2288 0002 10B5     		push	{r4, lr}
 2289              		.cfi_def_cfa_offset 8
 2290              		.cfi_offset 4, -8
 2291              		.cfi_offset 14, -4
 2292              		.loc 1 2496 0
 2293 0004 406A     		ldr	r0, [r0, #36]
 2294              	.LVL144:
 2295              		.loc 1 2499 0
 2296 0006 C25C     		ldrb	r2, [r0, r3]
 2297 0008 212A     		cmp	r2, #33
 2298 000a 1DD0     		beq	.L249
 2299              	.L241:
 2300              		.loc 1 2507 0
 2301 000c 6A23     		movs	r3, #106
 2302 000e C25C     		ldrb	r2, [r0, r3]
 2303 0010 222A     		cmp	r2, #34
 2304 0012 06D0     		beq	.L250
 2305              	.L242:
 2306              		.loc 1 2514 0
 2307 0014 1022     		movs	r2, #16
 2308 0016 C36E     		ldr	r3, [r0, #108]
 2309              		.loc 1 2516 0
 2310              		@ sp needed
 2311              		.loc 1 2514 0
 2312 0018 1343     		orrs	r3, r2
 2313 001a C366     		str	r3, [r0, #108]
 2314              		.loc 1 2515 0
 2315 001c FFF7FEFF 		bl	HAL_UART_ErrorCallback
 2316              	.LVL145:
 2317              		.loc 1 2516 0
 2318 0020 10BD     		pop	{r4, pc}
 2319              	.LVL146:
 2320              	.L250:
 2321              		.loc 1 2508 0
 2322 0022 0268     		ldr	r2, [r0]
 2323 0024 9168     		ldr	r1, [r2, #8]
 2324 0026 4906     		lsls	r1, r1, #25
 2325 0028 F4D5     		bpl	.L242
 2326              		.loc 1 2510 0
 2327 002a 5A21     		movs	r1, #90
 2328 002c 0024     		movs	r4, #0
 2329 002e 4452     		strh	r4, [r0, r1]
 2330              	.LVL147:
 2331              	.LBB70:
 2332              	.LBB71:
 2333              		.loc 1 2399 0
 2334 0030 1168     		ldr	r1, [r2]
 2335 0032 0C4C     		ldr	r4, .L251
 2336 0034 2140     		ands	r1, r4
 2337 0036 1160     		str	r1, [r2]
ARM GAS  C:\Users\anashi\AppData\Local\Temp\ccMVnC1L.s 			page 42


 2338              		.loc 1 2400 0
 2339 0038 9168     		ldr	r1, [r2, #8]
 2340 003a 2334     		adds	r4, r4, #35
 2341 003c FF34     		adds	r4, r4, #255
 2342 003e A143     		bics	r1, r4
 2343 0040 9160     		str	r1, [r2, #8]
 2344              		.loc 1 2403 0
 2345 0042 2022     		movs	r2, #32
 2346 0044 C254     		strb	r2, [r0, r3]
 2347 0046 E5E7     		b	.L242
 2348              	.LVL148:
 2349              	.L249:
 2350              	.LBE71:
 2351              	.LBE70:
 2352              		.loc 1 2500 0
 2353 0048 0268     		ldr	r2, [r0]
 2354 004a 9168     		ldr	r1, [r2, #8]
 2355 004c 0906     		lsls	r1, r1, #24
 2356 004e DDD5     		bpl	.L241
 2357              		.loc 1 2502 0
 2358 0050 5221     		movs	r1, #82
 2359 0052 0024     		movs	r4, #0
 2360 0054 4452     		strh	r4, [r0, r1]
 2361              	.LVL149:
 2362              	.LBB72:
 2363              	.LBB73:
 2364              		.loc 1 2384 0
 2365 0056 1168     		ldr	r1, [r2]
 2366 0058 C034     		adds	r4, r4, #192
 2367 005a A143     		bics	r1, r4
 2368 005c 1160     		str	r1, [r2]
 2369              		.loc 1 2387 0
 2370 005e 2022     		movs	r2, #32
 2371 0060 C254     		strb	r2, [r0, r3]
 2372 0062 D3E7     		b	.L241
 2373              	.L252:
 2374              		.align	2
 2375              	.L251:
 2376 0064 DFFEFFFF 		.word	-289
 2377              	.LBE73:
 2378              	.LBE72:
 2379              		.cfi_endproc
 2380              	.LFE84:
 2381              		.size	UART_DMAError, .-UART_DMAError
 2382              		.section	.text.UART_DMAAbortOnError,"ax",%progbits
 2383              		.align	1
 2384              		.p2align 2,,3
 2385              		.syntax unified
 2386              		.code	16
 2387              		.thumb_func
 2388              		.fpu softvfp
 2389              		.type	UART_DMAAbortOnError, %function
 2390              	UART_DMAAbortOnError:
 2391              	.LFB85:
 2392              		.loc 1 2525 0
 2393              		.cfi_startproc
 2394              		@ args = 0, pretend = 0, frame = 0
ARM GAS  C:\Users\anashi\AppData\Local\Temp\ccMVnC1L.s 			page 43


 2395              		@ frame_needed = 0, uses_anonymous_args = 0
 2396              	.LVL150:
 2397              		.loc 1 2527 0
 2398 0000 0023     		movs	r3, #0
 2399 0002 5A22     		movs	r2, #90
 2400              		.loc 1 2525 0
 2401 0004 10B5     		push	{r4, lr}
 2402              		.cfi_def_cfa_offset 8
 2403              		.cfi_offset 4, -8
 2404              		.cfi_offset 14, -4
 2405              		.loc 1 2526 0
 2406 0006 406A     		ldr	r0, [r0, #36]
 2407              	.LVL151:
 2408              		.loc 1 2531 0
 2409              		@ sp needed
 2410              		.loc 1 2527 0
 2411 0008 8352     		strh	r3, [r0, r2]
 2412              		.loc 1 2528 0
 2413 000a 083A     		subs	r2, r2, #8
 2414 000c 8352     		strh	r3, [r0, r2]
 2415              		.loc 1 2530 0
 2416 000e FFF7FEFF 		bl	HAL_UART_ErrorCallback
 2417              	.LVL152:
 2418              		.loc 1 2531 0
 2419 0012 10BD     		pop	{r4, pc}
 2420              		.cfi_endproc
 2421              	.LFE85:
 2422              		.size	UART_DMAAbortOnError, .-UART_DMAAbortOnError
 2423              		.section	.text.HAL_UART_IRQHandler,"ax",%progbits
 2424              		.align	1
 2425              		.p2align 2,,3
 2426              		.global	HAL_UART_IRQHandler
 2427              		.syntax unified
 2428              		.code	16
 2429              		.thumb_func
 2430              		.fpu softvfp
 2431              		.type	HAL_UART_IRQHandler, %function
 2432              	HAL_UART_IRQHandler:
 2433              	.LFB58:
 2434              		.loc 1 1657 0
 2435              		.cfi_startproc
 2436              		@ args = 0, pretend = 0, frame = 0
 2437              		@ frame_needed = 0, uses_anonymous_args = 0
 2438              	.LVL153:
 2439              		.loc 1 1658 0
 2440 0000 0368     		ldr	r3, [r0]
 2441              		.loc 1 1657 0
 2442 0002 70B5     		push	{r4, r5, r6, lr}
 2443              		.cfi_def_cfa_offset 16
 2444              		.cfi_offset 4, -16
 2445              		.cfi_offset 5, -12
 2446              		.cfi_offset 6, -8
 2447              		.cfi_offset 14, -4
 2448              		.loc 1 1658 0
 2449 0004 DA69     		ldr	r2, [r3, #28]
 2450              	.LVL154:
 2451              		.loc 1 1657 0
ARM GAS  C:\Users\anashi\AppData\Local\Temp\ccMVnC1L.s 			page 44


 2452 0006 0400     		movs	r4, r0
 2453              		.loc 1 1659 0
 2454 0008 1968     		ldr	r1, [r3]
 2455              	.LVL155:
 2456              		.loc 1 1665 0
 2457 000a 1007     		lsls	r0, r2, #28
 2458 000c 10D1     		bne	.L255
 2459              	.LVL156:
 2460              		.loc 1 1668 0
 2461 000e 2020     		movs	r0, #32
 2462 0010 1042     		tst	r0, r2
 2463 0012 5FD1     		bne	.L343
 2464              	.L256:
 2465              		.loc 1 1676 0
 2466 0014 9868     		ldr	r0, [r3, #8]
 2467              	.L262:
 2468              		.loc 1 1790 0
 2469 0016 8020     		movs	r0, #128
 2470 0018 1042     		tst	r0, r2
 2471 001a 02D0     		beq	.L279
 2472              		.loc 1 1790 0 is_stmt 0 discriminator 1
 2473 001c 0842     		tst	r0, r1
 2474 001e 00D0     		beq	.LCB2140
 2475 0020 AAE0     		b	.L344	@long jump
 2476              	.LCB2140:
 2477              	.L279:
 2478              		.loc 1 1797 0 is_stmt 1
 2479 0022 4020     		movs	r0, #64
 2480 0024 1042     		tst	r0, r2
 2481 0026 02D0     		beq	.L254
 2482              		.loc 1 1797 0 is_stmt 0 discriminator 1
 2483 0028 0842     		tst	r0, r1
 2484 002a 00D0     		beq	.LCB2148
 2485 002c 94E0     		b	.L345	@long jump
 2486              	.LCB2148:
 2487              	.LVL157:
 2488              	.L254:
 2489              		.loc 1 1803 0 is_stmt 1
 2490              		@ sp needed
 2491              	.LVL158:
 2492 002e 70BD     		pop	{r4, r5, r6, pc}
 2493              	.LVL159:
 2494              	.L255:
 2495              		.loc 1 1678 0
 2496 0030 0125     		movs	r5, #1
 2497              		.loc 1 1676 0
 2498 0032 9868     		ldr	r0, [r3, #8]
 2499              	.LVL160:
 2500              		.loc 1 1678 0
 2501 0034 2840     		ands	r0, r5
 2502              	.LVL161:
 2503 0036 7BD0     		beq	.L346
 2504              		.loc 1 1682 0
 2505 0038 0125     		movs	r5, #1
 2506 003a 1542     		tst	r5, r2
 2507 003c 05D0     		beq	.L263
 2508              	.L349:
ARM GAS  C:\Users\anashi\AppData\Local\Temp\ccMVnC1L.s 			page 45


 2509              		.loc 1 1682 0 is_stmt 0 discriminator 1
 2510 003e CE05     		lsls	r6, r1, #23
 2511 0040 03D5     		bpl	.L263
 2512              		.loc 1 1684 0 is_stmt 1
 2513 0042 1D62     		str	r5, [r3, #32]
 2514              		.loc 1 1686 0
 2515 0044 E66E     		ldr	r6, [r4, #108]
 2516 0046 3543     		orrs	r5, r6
 2517 0048 E566     		str	r5, [r4, #108]
 2518              	.L263:
 2519              		.loc 1 1690 0
 2520 004a 0225     		movs	r5, #2
 2521 004c 1542     		tst	r5, r2
 2522 004e 78D0     		beq	.L264
 2523              		.loc 1 1690 0 is_stmt 0 discriminator 1
 2524 0050 0028     		cmp	r0, #0
 2525 0052 06D0     		beq	.L266
 2526              		.loc 1 1694 0 is_stmt 1
 2527 0054 0426     		movs	r6, #4
 2528              		.loc 1 1692 0
 2529 0056 1D62     		str	r5, [r3, #32]
 2530              		.loc 1 1694 0
 2531 0058 E56E     		ldr	r5, [r4, #108]
 2532 005a 3543     		orrs	r5, r6
 2533 005c E566     		str	r5, [r4, #108]
 2534              		.loc 1 1698 0
 2535 005e 1642     		tst	r6, r2
 2536 0060 73D1     		bne	.L268
 2537              	.L266:
 2538              		.loc 1 1706 0
 2539 0062 1507     		lsls	r5, r2, #28
 2540 0064 05D5     		bpl	.L269
 2541              		.loc 1 1706 0 is_stmt 0 discriminator 1
 2542 0066 8D06     		lsls	r5, r1, #26
 2543 0068 00D5     		bpl	.LCB2213
 2544 006a 7FE0     		b	.L270	@long jump
 2545              	.LCB2213:
 2546              		.loc 1 1707 0 is_stmt 1
 2547 006c 0028     		cmp	r0, #0
 2548 006e 00D0     		beq	.LCB2215
 2549 0070 7CE0     		b	.L270	@long jump
 2550              	.LCB2215:
 2551              	.L269:
 2552              		.loc 1 1715 0
 2553 0072 E06E     		ldr	r0, [r4, #108]
 2554 0074 0028     		cmp	r0, #0
 2555 0076 DAD0     		beq	.L254
 2556              		.loc 1 1718 0
 2557 0078 2020     		movs	r0, #32
 2558 007a 1042     		tst	r0, r2
 2559 007c 02D0     		beq	.L272
 2560              		.loc 1 1718 0 is_stmt 0 discriminator 1
 2561 007e 0842     		tst	r0, r1
 2562 0080 00D0     		beq	.LCB2226
 2563 0082 9BE0     		b	.L347	@long jump
 2564              	.LCB2226:
 2565              	.LVL162:
ARM GAS  C:\Users\anashi\AppData\Local\Temp\ccMVnC1L.s 			page 46


 2566              	.L272:
 2567              		.loc 1 1725 0 is_stmt 1
 2568 0084 E26E     		ldr	r2, [r4, #108]
 2569 0086 1207     		lsls	r2, r2, #28
 2570 0088 04D4     		bmi	.L276
 2571              		.loc 1 1726 0 discriminator 1
 2572 008a 4025     		movs	r5, #64
 2573 008c 9A68     		ldr	r2, [r3, #8]
 2574 008e 1540     		ands	r5, r2
 2575              		.loc 1 1725 0 discriminator 1
 2576 0090 00D1     		bne	.LCB2240
 2577 0092 BFE0     		b	.L277	@long jump
 2578              	.LCB2240:
 2579              	.L276:
 2580              	.LVL163:
 2581              	.LBB90:
 2582              	.LBB91:
 2583              		.loc 1 2399 0
 2584 0094 1A68     		ldr	r2, [r3]
 2585 0096 7649     		ldr	r1, .L353
 2586 0098 0A40     		ands	r2, r1
 2587 009a 1A60     		str	r2, [r3]
 2588              		.loc 1 2400 0
 2589 009c 9A68     		ldr	r2, [r3, #8]
 2590 009e 2331     		adds	r1, r1, #35
 2591 00a0 FF31     		adds	r1, r1, #255
 2592 00a2 8A43     		bics	r2, r1
 2593 00a4 9A60     		str	r2, [r3, #8]
 2594              		.loc 1 2403 0
 2595 00a6 6A22     		movs	r2, #106
 2596 00a8 1F31     		adds	r1, r1, #31
 2597 00aa A154     		strb	r1, [r4, r2]
 2598              	.LVL164:
 2599              	.LBE91:
 2600              	.LBE90:
 2601              		.loc 1 1734 0
 2602 00ac 9A68     		ldr	r2, [r3, #8]
 2603 00ae 2031     		adds	r1, r1, #32
 2604 00b0 1142     		tst	r1, r2
 2605 00b2 7AD0     		beq	.L278
 2606              		.loc 1 1736 0
 2607 00b4 9A68     		ldr	r2, [r3, #8]
 2608              		.loc 1 1739 0
 2609 00b6 606E     		ldr	r0, [r4, #100]
 2610              		.loc 1 1736 0
 2611 00b8 8A43     		bics	r2, r1
 2612 00ba 9A60     		str	r2, [r3, #8]
 2613              		.loc 1 1739 0
 2614 00bc 0028     		cmp	r0, #0
 2615 00be 74D0     		beq	.L278
 2616              		.loc 1 1743 0
 2617 00c0 6C4B     		ldr	r3, .L353+4
 2618 00c2 4363     		str	r3, [r0, #52]
 2619              		.loc 1 1746 0
 2620 00c4 FFF7FEFF 		bl	HAL_DMA_Abort_IT
 2621              	.LVL165:
 2622 00c8 0028     		cmp	r0, #0
ARM GAS  C:\Users\anashi\AppData\Local\Temp\ccMVnC1L.s 			page 47


 2623 00ca B0D0     		beq	.L254
 2624              		.loc 1 1749 0
 2625 00cc 606E     		ldr	r0, [r4, #100]
 2626 00ce 436B     		ldr	r3, [r0, #52]
 2627 00d0 9847     		blx	r3
 2628              	.LVL166:
 2629 00d2 ACE7     		b	.L254
 2630              	.LVL167:
 2631              	.L343:
 2632              		.loc 1 1668 0 discriminator 1
 2633 00d4 0842     		tst	r0, r1
 2634 00d6 9DD0     		beq	.L256
 2635              	.LVL168:
 2636              	.LBB92:
 2637              	.LBB93:
 2638              		.loc 1 2742 0
 2639 00d8 6A22     		movs	r2, #106
 2640              	.LVL169:
 2641 00da A25C     		ldrb	r2, [r4, r2]
 2642 00dc 222A     		cmp	r2, #34
 2643 00de 68D1     		bne	.L257
 2644              		.loc 1 2745 0
 2645 00e0 8020     		movs	r0, #128
 2646              		.loc 1 2744 0
 2647 00e2 9B8C     		ldrh	r3, [r3, #36]
 2648              		.loc 1 2745 0
 2649 00e4 A568     		ldr	r5, [r4, #8]
 2650              		.loc 1 2738 0
 2651 00e6 3A32     		adds	r2, r2, #58
 2652 00e8 A25A     		ldrh	r2, [r4, r2]
 2653              		.loc 1 2744 0
 2654 00ea 9BB2     		uxth	r3, r3
 2655              	.LVL170:
 2656 00ec 616D     		ldr	r1, [r4, #84]
 2657              	.LVL171:
 2658              		.loc 1 2745 0
 2659 00ee 4001     		lsls	r0, r0, #5
 2660 00f0 8542     		cmp	r5, r0
 2661 00f2 00D1     		bne	.LCB2316
 2662 00f4 A0E0     		b	.L348	@long jump
 2663              	.LCB2316:
 2664              	.L258:
 2665              		.loc 1 2753 0
 2666 00f6 481C     		adds	r0, r1, #1
 2667 00f8 1340     		ands	r3, r2
 2668              	.LVL172:
 2669 00fa 6065     		str	r0, [r4, #84]
 2670 00fc 0B70     		strb	r3, [r1]
 2671              	.LVL173:
 2672              	.L259:
 2673              		.loc 1 2756 0
 2674 00fe 5A22     		movs	r2, #90
 2675 0100 A35A     		ldrh	r3, [r4, r2]
 2676 0102 013B     		subs	r3, r3, #1
 2677 0104 9BB2     		uxth	r3, r3
 2678 0106 A352     		strh	r3, [r4, r2]
 2679 0108 002B     		cmp	r3, #0
ARM GAS  C:\Users\anashi\AppData\Local\Temp\ccMVnC1L.s 			page 48


 2680 010a 00D0     		beq	.LCB2336
 2681 010c 8FE7     		b	.L254	@long jump
 2682              	.LCB2336:
 2683              	.LVL174:
 2684              	.LBB94:
 2685              	.LBB95:
 2686              		.loc 1 2759 0
 2687 010e 2368     		ldr	r3, [r4]
 2688 0110 5749     		ldr	r1, .L353
 2689 0112 1A68     		ldr	r2, [r3]
 2690              		.loc 1 2767 0
 2691 0114 2000     		movs	r0, r4
 2692              		.loc 1 2759 0
 2693 0116 0A40     		ands	r2, r1
 2694 0118 1A60     		str	r2, [r3]
 2695              		.loc 1 2762 0
 2696 011a 9A68     		ldr	r2, [r3, #8]
 2697 011c 2331     		adds	r1, r1, #35
 2698 011e FF31     		adds	r1, r1, #255
 2699 0120 8A43     		bics	r2, r1
 2700 0122 9A60     		str	r2, [r3, #8]
 2701              		.loc 1 2765 0
 2702 0124 6A23     		movs	r3, #106
 2703 0126 2022     		movs	r2, #32
 2704 0128 E254     		strb	r2, [r4, r3]
 2705              		.loc 1 2767 0
 2706 012a FFF7FEFF 		bl	HAL_UART_RxCpltCallback
 2707              	.LVL175:
 2708 012e 7EE7     		b	.L254
 2709              	.LVL176:
 2710              	.L346:
 2711              	.LBE95:
 2712              	.LBE94:
 2713              	.LBE93:
 2714              	.LBE92:
 2715              		.loc 1 1679 0
 2716 0130 9025     		movs	r5, #144
 2717 0132 6D00     		lsls	r5, r5, #1
 2718 0134 2942     		tst	r1, r5
 2719 0136 00D1     		bne	.LCB2377
 2720 0138 6DE7     		b	.L262	@long jump
 2721              	.LCB2377:
 2722              		.loc 1 1682 0
 2723 013a 0125     		movs	r5, #1
 2724 013c 1542     		tst	r5, r2
 2725 013e 84D0     		beq	.L263
 2726 0140 7DE7     		b	.L349
 2727              	.L264:
 2728              		.loc 1 1698 0
 2729 0142 5507     		lsls	r5, r2, #29
 2730 0144 8DD5     		bpl	.L266
 2731              		.loc 1 1698 0 is_stmt 0 discriminator 1
 2732 0146 0028     		cmp	r0, #0
 2733 0148 8BD0     		beq	.L266
 2734              	.L268:
 2735              		.loc 1 1700 0 is_stmt 1
 2736 014a 0425     		movs	r5, #4
ARM GAS  C:\Users\anashi\AppData\Local\Temp\ccMVnC1L.s 			page 49


 2737              		.loc 1 1702 0
 2738 014c 0226     		movs	r6, #2
 2739              		.loc 1 1700 0
 2740 014e 1D62     		str	r5, [r3, #32]
 2741              		.loc 1 1702 0
 2742 0150 E56E     		ldr	r5, [r4, #108]
 2743 0152 3543     		orrs	r5, r6
 2744 0154 E566     		str	r5, [r4, #108]
 2745 0156 84E7     		b	.L266
 2746              	.L345:
 2747              	.LVL177:
 2748              	.LBB98:
 2749              	.LBB99:
 2750              		.loc 1 2718 0
 2751 0158 1A68     		ldr	r2, [r3]
 2752              	.LVL178:
 2753 015a 8243     		bics	r2, r0
 2754 015c 1A60     		str	r2, [r3]
 2755              		.loc 1 2721 0
 2756 015e 6923     		movs	r3, #105
 2757 0160 2022     		movs	r2, #32
 2758              		.loc 1 2723 0
 2759 0162 2000     		movs	r0, r4
 2760              		.loc 1 2721 0
 2761 0164 E254     		strb	r2, [r4, r3]
 2762              		.loc 1 2723 0
 2763 0166 FFF7FEFF 		bl	HAL_UART_TxCpltCallback
 2764              	.LVL179:
 2765 016a 60E7     		b	.L254
 2766              	.LVL180:
 2767              	.L270:
 2768              	.LBE99:
 2769              	.LBE98:
 2770              		.loc 1 1709 0
 2771 016c 0825     		movs	r5, #8
 2772 016e 1D62     		str	r5, [r3, #32]
 2773              		.loc 1 1711 0
 2774 0170 E06E     		ldr	r0, [r4, #108]
 2775 0172 2843     		orrs	r0, r5
 2776 0174 E066     		str	r0, [r4, #108]
 2777 0176 7CE7     		b	.L269
 2778              	.L344:
 2779              	.LVL181:
 2780              	.LBB100:
 2781              	.LBB101:
 2782              		.loc 1 2674 0
 2783 0178 6922     		movs	r2, #105
 2784              	.LVL182:
 2785 017a A25C     		ldrb	r2, [r4, r2]
 2786 017c 212A     		cmp	r2, #33
 2787 017e 00D0     		beq	.LCB2451
 2788 0180 55E7     		b	.L254	@long jump
 2789              	.LCB2451:
 2790              		.loc 1 2676 0
 2791 0182 3132     		adds	r2, r2, #49
 2792 0184 A25A     		ldrh	r2, [r4, r2]
 2793 0186 002A     		cmp	r2, #0
ARM GAS  C:\Users\anashi\AppData\Local\Temp\ccMVnC1L.s 			page 50


 2794 0188 49D0     		beq	.L350
 2795              		.loc 1 2688 0
 2796 018a 8021     		movs	r1, #128
 2797              	.LVL183:
 2798 018c A068     		ldr	r0, [r4, #8]
 2799 018e E26C     		ldr	r2, [r4, #76]
 2800 0190 4901     		lsls	r1, r1, #5
 2801 0192 8842     		cmp	r0, r1
 2802 0194 59D0     		beq	.L351
 2803              	.L281:
 2804              		.loc 1 2696 0
 2805 0196 511C     		adds	r1, r2, #1
 2806 0198 E164     		str	r1, [r4, #76]
 2807 019a 1278     		ldrb	r2, [r2]
 2808 019c 1A85     		strh	r2, [r3, #40]
 2809              	.L282:
 2810              		.loc 1 2698 0
 2811 019e 5222     		movs	r2, #82
 2812 01a0 A35A     		ldrh	r3, [r4, r2]
 2813 01a2 013B     		subs	r3, r3, #1
 2814 01a4 9BB2     		uxth	r3, r3
 2815 01a6 A352     		strh	r3, [r4, r2]
 2816 01a8 41E7     		b	.L254
 2817              	.LVL184:
 2818              	.L278:
 2819              	.LBE101:
 2820              	.LBE100:
 2821              		.loc 1 1755 0
 2822 01aa 2000     		movs	r0, r4
 2823 01ac FFF7FEFF 		bl	HAL_UART_ErrorCallback
 2824              	.LVL185:
 2825 01b0 3DE7     		b	.L254
 2826              	.LVL186:
 2827              	.L257:
 2828              	.LBB106:
 2829              	.LBB96:
 2830              		.loc 1 2777 0
 2831 01b2 0821     		movs	r1, #8
 2832              	.LVL187:
 2833 01b4 9A69     		ldr	r2, [r3, #24]
 2834 01b6 0A43     		orrs	r2, r1
 2835 01b8 9A61     		str	r2, [r3, #24]
 2836 01ba 38E7     		b	.L254
 2837              	.LVL188:
 2838              	.L347:
 2839              	.LBE96:
 2840              	.LBE106:
 2841              	.LBB107:
 2842              	.LBB108:
 2843              		.loc 1 2742 0
 2844 01bc 6A22     		movs	r2, #106
 2845              	.LVL189:
 2846 01be A25C     		ldrb	r2, [r4, r2]
 2847 01c0 222A     		cmp	r2, #34
 2848 01c2 34D1     		bne	.L273
 2849              		.loc 1 2745 0
 2850 01c4 8025     		movs	r5, #128
ARM GAS  C:\Users\anashi\AppData\Local\Temp\ccMVnC1L.s 			page 51


 2851              		.loc 1 2738 0
 2852 01c6 3A32     		adds	r2, r2, #58
 2853 01c8 A15A     		ldrh	r1, [r4, r2]
 2854              	.LVL190:
 2855              		.loc 1 2745 0
 2856 01ca A668     		ldr	r6, [r4, #8]
 2857              		.loc 1 2744 0
 2858 01cc 9A8C     		ldrh	r2, [r3, #36]
 2859 01ce 606D     		ldr	r0, [r4, #84]
 2860 01d0 92B2     		uxth	r2, r2
 2861              	.LVL191:
 2862              		.loc 1 2745 0
 2863 01d2 6D01     		lsls	r5, r5, #5
 2864 01d4 AE42     		cmp	r6, r5
 2865 01d6 42D0     		beq	.L352
 2866              	.L274:
 2867              		.loc 1 2753 0
 2868 01d8 431C     		adds	r3, r0, #1
 2869 01da 0A40     		ands	r2, r1
 2870              	.LVL192:
 2871 01dc 6365     		str	r3, [r4, #84]
 2872 01de 0270     		strb	r2, [r0]
 2873              	.LVL193:
 2874 01e0 2368     		ldr	r3, [r4]
 2875              	.L275:
 2876              		.loc 1 2756 0
 2877 01e2 5A21     		movs	r1, #90
 2878 01e4 625A     		ldrh	r2, [r4, r1]
 2879 01e6 013A     		subs	r2, r2, #1
 2880 01e8 92B2     		uxth	r2, r2
 2881 01ea 6252     		strh	r2, [r4, r1]
 2882 01ec 002A     		cmp	r2, #0
 2883 01ee 00D0     		beq	.LCB2565
 2884 01f0 48E7     		b	.L272	@long jump
 2885              	.LCB2565:
 2886              	.LVL194:
 2887              	.LBB109:
 2888              	.LBB110:
 2889              		.loc 1 2759 0
 2890 01f2 1A68     		ldr	r2, [r3]
 2891 01f4 1E49     		ldr	r1, .L353
 2892              		.loc 1 2767 0
 2893 01f6 2000     		movs	r0, r4
 2894              		.loc 1 2759 0
 2895 01f8 0A40     		ands	r2, r1
 2896 01fa 1A60     		str	r2, [r3]
 2897              		.loc 1 2762 0
 2898 01fc 9A68     		ldr	r2, [r3, #8]
 2899 01fe 2331     		adds	r1, r1, #35
 2900 0200 FF31     		adds	r1, r1, #255
 2901 0202 8A43     		bics	r2, r1
 2902 0204 9A60     		str	r2, [r3, #8]
 2903              		.loc 1 2765 0
 2904 0206 6A23     		movs	r3, #106
 2905 0208 2022     		movs	r2, #32
 2906 020a E254     		strb	r2, [r4, r3]
 2907              		.loc 1 2767 0
ARM GAS  C:\Users\anashi\AppData\Local\Temp\ccMVnC1L.s 			page 52


 2908 020c FFF7FEFF 		bl	HAL_UART_RxCpltCallback
 2909              	.LVL195:
 2910 0210 2368     		ldr	r3, [r4]
 2911 0212 37E7     		b	.L272
 2912              	.LVL196:
 2913              	.L277:
 2914              	.LBE110:
 2915              	.LBE109:
 2916              	.LBE108:
 2917              	.LBE107:
 2918              		.loc 1 1768 0
 2919 0214 2000     		movs	r0, r4
 2920 0216 FFF7FEFF 		bl	HAL_UART_ErrorCallback
 2921              	.LVL197:
 2922              		.loc 1 1769 0
 2923 021a E566     		str	r5, [r4, #108]
 2924 021c 07E7     		b	.L254
 2925              	.LVL198:
 2926              	.L350:
 2927              	.LBB113:
 2928              	.LBB104:
 2929              	.LBB102:
 2930              	.LBB103:
 2931              		.loc 1 2682 0
 2932 021e 4021     		movs	r1, #64
 2933              	.LVL199:
 2934              		.loc 1 2679 0
 2935 0220 1A68     		ldr	r2, [r3]
 2936 0222 8243     		bics	r2, r0
 2937 0224 1A60     		str	r2, [r3]
 2938              		.loc 1 2682 0
 2939 0226 1A68     		ldr	r2, [r3]
 2940 0228 0A43     		orrs	r2, r1
 2941 022a 1A60     		str	r2, [r3]
 2942              	.LVL200:
 2943 022c FFE6     		b	.L254
 2944              	.LVL201:
 2945              	.L273:
 2946              	.LBE103:
 2947              	.LBE102:
 2948              	.LBE104:
 2949              	.LBE113:
 2950              	.LBB114:
 2951              	.LBB111:
 2952              		.loc 1 2777 0
 2953 022e 0821     		movs	r1, #8
 2954              	.LVL202:
 2955 0230 9A69     		ldr	r2, [r3, #24]
 2956 0232 0A43     		orrs	r2, r1
 2957 0234 9A61     		str	r2, [r3, #24]
 2958 0236 25E7     		b	.L272
 2959              	.LVL203:
 2960              	.L348:
 2961              	.LBE111:
 2962              	.LBE114:
 2963              	.LBB115:
 2964              	.LBB97:
ARM GAS  C:\Users\anashi\AppData\Local\Temp\ccMVnC1L.s 			page 53


 2965              		.loc 1 2745 0
 2966 0238 2069     		ldr	r0, [r4, #16]
 2967 023a 0028     		cmp	r0, #0
 2968 023c 00D0     		beq	.LCB2662
 2969 023e 5AE7     		b	.L258	@long jump
 2970              	.LCB2662:
 2971              	.LVL204:
 2972              		.loc 1 2748 0
 2973 0240 1340     		ands	r3, r2
 2974              	.LVL205:
 2975 0242 0B80     		strh	r3, [r1]
 2976              	.LVL206:
 2977              		.loc 1 2749 0
 2978 0244 0231     		adds	r1, r1, #2
 2979 0246 6165     		str	r1, [r4, #84]
 2980              	.LVL207:
 2981 0248 59E7     		b	.L259
 2982              	.LVL208:
 2983              	.L351:
 2984              	.LBE97:
 2985              	.LBE115:
 2986              	.LBB116:
 2987              	.LBB105:
 2988              		.loc 1 2688 0
 2989 024a 2169     		ldr	r1, [r4, #16]
 2990 024c 0029     		cmp	r1, #0
 2991 024e A2D1     		bne	.L281
 2992              	.LVL209:
 2993              		.loc 1 2691 0
 2994 0250 1188     		ldrh	r1, [r2]
 2995              		.loc 1 2692 0
 2996 0252 0232     		adds	r2, r2, #2
 2997              		.loc 1 2691 0
 2998 0254 C905     		lsls	r1, r1, #23
 2999 0256 C90D     		lsrs	r1, r1, #23
 3000 0258 1985     		strh	r1, [r3, #40]
 3001              		.loc 1 2692 0
 3002 025a E264     		str	r2, [r4, #76]
 3003              	.LVL210:
 3004 025c 9FE7     		b	.L282
 3005              	.LVL211:
 3006              	.L352:
 3007              	.LBE105:
 3008              	.LBE116:
 3009              	.LBB117:
 3010              	.LBB112:
 3011              		.loc 1 2745 0
 3012 025e 2569     		ldr	r5, [r4, #16]
 3013 0260 002D     		cmp	r5, #0
 3014 0262 B9D1     		bne	.L274
 3015              	.LVL212:
 3016              		.loc 1 2748 0
 3017 0264 0A40     		ands	r2, r1
 3018              	.LVL213:
 3019 0266 0280     		strh	r2, [r0]
 3020              	.LVL214:
 3021              		.loc 1 2749 0
ARM GAS  C:\Users\anashi\AppData\Local\Temp\ccMVnC1L.s 			page 54


 3022 0268 0230     		adds	r0, r0, #2
 3023 026a 6065     		str	r0, [r4, #84]
 3024              	.LVL215:
 3025 026c B9E7     		b	.L275
 3026              	.L354:
 3027 026e C046     		.align	2
 3028              	.L353:
 3029 0270 DFFEFFFF 		.word	-289
 3030 0274 00000000 		.word	UART_DMAAbortOnError
 3031              	.LBE112:
 3032              	.LBE117:
 3033              		.cfi_endproc
 3034              	.LFE58:
 3035              		.size	HAL_UART_IRQHandler, .-HAL_UART_IRQHandler
 3036              		.section	.text.HAL_UART_AbortCpltCallback,"ax",%progbits
 3037              		.align	1
 3038              		.p2align 2,,3
 3039              		.weak	HAL_UART_AbortCpltCallback
 3040              		.syntax unified
 3041              		.code	16
 3042              		.thumb_func
 3043              		.fpu softvfp
 3044              		.type	HAL_UART_AbortCpltCallback, %function
 3045              	HAL_UART_AbortCpltCallback:
 3046              	.LFB109:
 3047              		.cfi_startproc
 3048              		@ args = 0, pretend = 0, frame = 0
 3049              		@ frame_needed = 0, uses_anonymous_args = 0
 3050              		@ link register save eliminated.
 3051              		@ sp needed
 3052 0000 7047     		bx	lr
 3053              		.cfi_endproc
 3054              	.LFE109:
 3055              		.size	HAL_UART_AbortCpltCallback, .-HAL_UART_AbortCpltCallback
 3056 0002 C046     		.section	.text.HAL_UART_Abort_IT,"ax",%progbits
 3057              		.align	1
 3058              		.p2align 2,,3
 3059              		.global	HAL_UART_Abort_IT
 3060              		.syntax unified
 3061              		.code	16
 3062              		.thumb_func
 3063              		.fpu softvfp
 3064              		.type	HAL_UART_Abort_IT, %function
 3065              	HAL_UART_Abort_IT:
 3066              	.LFB55:
 3067              		.loc 1 1404 0
 3068              		.cfi_startproc
 3069              		@ args = 0, pretend = 0, frame = 0
 3070              		@ frame_needed = 0, uses_anonymous_args = 0
 3071              	.LVL216:
 3072              		.loc 1 1408 0
 3073 0000 0368     		ldr	r3, [r0]
 3074 0002 3149     		ldr	r1, .L385
 3075 0004 1A68     		ldr	r2, [r3]
 3076              		.loc 1 1404 0
 3077 0006 70B5     		push	{r4, r5, r6, lr}
 3078              		.cfi_def_cfa_offset 16
ARM GAS  C:\Users\anashi\AppData\Local\Temp\ccMVnC1L.s 			page 55


 3079              		.cfi_offset 4, -16
 3080              		.cfi_offset 5, -12
 3081              		.cfi_offset 6, -8
 3082              		.cfi_offset 14, -4
 3083              		.loc 1 1408 0
 3084 0008 0A40     		ands	r2, r1
 3085 000a 1A60     		str	r2, [r3]
 3086              		.loc 1 1409 0
 3087 000c 9A68     		ldr	r2, [r3, #8]
 3088 000e E331     		adds	r1, r1, #227
 3089              		.loc 1 1404 0
 3090 0010 0400     		movs	r4, r0
 3091              		.loc 1 1409 0
 3092 0012 FF31     		adds	r1, r1, #255
 3093              		.loc 1 1414 0
 3094 0014 006E     		ldr	r0, [r0, #96]
 3095              	.LVL217:
 3096              		.loc 1 1409 0
 3097 0016 8A43     		bics	r2, r1
 3098 0018 9A60     		str	r2, [r3, #8]
 3099              		.loc 1 1414 0
 3100 001a 0028     		cmp	r0, #0
 3101 001c 05D0     		beq	.L357
 3102              		.loc 1 1418 0
 3103 001e 8022     		movs	r2, #128
 3104 0020 9968     		ldr	r1, [r3, #8]
 3105 0022 0A40     		ands	r2, r1
 3106 0024 41D0     		beq	.L358
 3107              		.loc 1 1420 0
 3108 0026 294A     		ldr	r2, .L385+4
 3109 0028 4263     		str	r2, [r0, #52]
 3110              	.L357:
 3111              		.loc 1 1428 0
 3112 002a 616E     		ldr	r1, [r4, #100]
 3113 002c 0029     		cmp	r1, #0
 3114 002e 05D0     		beq	.L359
 3115              		.loc 1 1432 0
 3116 0030 4022     		movs	r2, #64
 3117 0032 9D68     		ldr	r5, [r3, #8]
 3118 0034 2A40     		ands	r2, r5
 3119 0036 36D0     		beq	.L360
 3120              		.loc 1 1434 0
 3121 0038 254A     		ldr	r2, .L385+8
 3122 003a 4A63     		str	r2, [r1, #52]
 3123              	.L359:
 3124              		.loc 1 1443 0
 3125 003c 8022     		movs	r2, #128
 3126 003e 9968     		ldr	r1, [r3, #8]
 3127 0040 0A42     		tst	r2, r1
 3128 0042 0CD0     		beq	.L361
 3129              		.loc 1 1446 0
 3130 0044 9968     		ldr	r1, [r3, #8]
 3131 0046 9143     		bics	r1, r2
 3132 0048 9960     		str	r1, [r3, #8]
 3133              		.loc 1 1449 0
 3134 004a 0028     		cmp	r0, #0
 3135 004c 07D0     		beq	.L361
ARM GAS  C:\Users\anashi\AppData\Local\Temp\ccMVnC1L.s 			page 56


 3136              		.loc 1 1455 0
 3137 004e FFF7FEFF 		bl	HAL_DMA_Abort_IT
 3138              	.LVL218:
 3139 0052 0028     		cmp	r0, #0
 3140 0054 2BD0     		beq	.L362
 3141              		.loc 1 1457 0
 3142 0056 0022     		movs	r2, #0
 3143 0058 236E     		ldr	r3, [r4, #96]
 3144 005a 5A63     		str	r2, [r3, #52]
 3145 005c 2368     		ldr	r3, [r4]
 3146              	.L361:
 3147              		.loc 1 1467 0
 3148 005e 4022     		movs	r2, #64
 3149 0060 9968     		ldr	r1, [r3, #8]
 3150 0062 0A42     		tst	r2, r1
 3151 0064 0DD0     		beq	.L364
 3152              		.loc 1 1469 0
 3153 0066 9968     		ldr	r1, [r3, #8]
 3154              		.loc 1 1472 0
 3155 0068 606E     		ldr	r0, [r4, #100]
 3156              		.loc 1 1469 0
 3157 006a 9143     		bics	r1, r2
 3158 006c 9960     		str	r1, [r3, #8]
 3159              		.loc 1 1472 0
 3160 006e 0028     		cmp	r0, #0
 3161 0070 07D0     		beq	.L364
 3162              	.LVL219:
 3163              	.L363:
 3164              		.loc 1 1478 0
 3165 0072 FFF7FEFF 		bl	HAL_DMA_Abort_IT
 3166              	.LVL220:
 3167 0076 0028     		cmp	r0, #0
 3168 0078 13D0     		beq	.L374
 3169              		.loc 1 1480 0
 3170 007a 0022     		movs	r2, #0
 3171 007c 636E     		ldr	r3, [r4, #100]
 3172 007e 5A63     		str	r2, [r3, #52]
 3173              	.LVL221:
 3174 0080 2368     		ldr	r3, [r4]
 3175              	.L364:
 3176              		.loc 1 1494 0
 3177 0082 0022     		movs	r2, #0
 3178 0084 5221     		movs	r1, #82
 3179 0086 6252     		strh	r2, [r4, r1]
 3180              		.loc 1 1495 0
 3181 0088 0831     		adds	r1, r1, #8
 3182 008a 6252     		strh	r2, [r4, r1]
 3183              		.loc 1 1498 0
 3184 008c E266     		str	r2, [r4, #108]
 3185              		.loc 1 1501 0
 3186 008e 0F32     		adds	r2, r2, #15
 3187 0090 1A62     		str	r2, [r3, #32]
 3188              		.loc 1 1504 0
 3189 0092 2023     		movs	r3, #32
 3190 0094 5A32     		adds	r2, r2, #90
 3191 0096 A354     		strb	r3, [r4, r2]
 3192              		.loc 1 1505 0
ARM GAS  C:\Users\anashi\AppData\Local\Temp\ccMVnC1L.s 			page 57


 3193 0098 0132     		adds	r2, r2, #1
 3194 009a A354     		strb	r3, [r4, r2]
 3195              		.loc 1 1508 0
 3196 009c 2000     		movs	r0, r4
 3197 009e FFF7FEFF 		bl	HAL_UART_AbortCpltCallback
 3198              	.LVL222:
 3199              	.L374:
 3200              		.loc 1 1512 0
 3201 00a2 0020     		movs	r0, #0
 3202              		@ sp needed
 3203              	.LVL223:
 3204 00a4 70BD     		pop	{r4, r5, r6, pc}
 3205              	.LVL224:
 3206              	.L360:
 3207              		.loc 1 1438 0
 3208 00a6 4A63     		str	r2, [r1, #52]
 3209 00a8 C8E7     		b	.L359
 3210              	.L358:
 3211              		.loc 1 1424 0
 3212 00aa 4263     		str	r2, [r0, #52]
 3213 00ac BDE7     		b	.L357
 3214              	.L362:
 3215              	.LVL225:
 3216              		.loc 1 1467 0
 3217 00ae 4022     		movs	r2, #64
 3218 00b0 2368     		ldr	r3, [r4]
 3219 00b2 9968     		ldr	r1, [r3, #8]
 3220 00b4 0A42     		tst	r2, r1
 3221 00b6 F4D0     		beq	.L374
 3222              		.loc 1 1469 0
 3223 00b8 9968     		ldr	r1, [r3, #8]
 3224              		.loc 1 1472 0
 3225 00ba 606E     		ldr	r0, [r4, #100]
 3226              		.loc 1 1469 0
 3227 00bc 9143     		bics	r1, r2
 3228 00be 9960     		str	r1, [r3, #8]
 3229              		.loc 1 1472 0
 3230 00c0 0028     		cmp	r0, #0
 3231 00c2 D6D1     		bne	.L363
 3232 00c4 EDE7     		b	.L374
 3233              	.L386:
 3234 00c6 C046     		.align	2
 3235              	.L385:
 3236 00c8 1FFEFFFF 		.word	-481
 3237 00cc 00000000 		.word	UART_DMATxAbortCallback
 3238 00d0 00000000 		.word	UART_DMARxAbortCallback
 3239              		.cfi_endproc
 3240              	.LFE55:
 3241              		.size	HAL_UART_Abort_IT, .-HAL_UART_Abort_IT
 3242              		.section	.text.UART_DMARxAbortCallback,"ax",%progbits
 3243              		.align	1
 3244              		.p2align 2,,3
 3245              		.syntax unified
 3246              		.code	16
 3247              		.thumb_func
 3248              		.fpu softvfp
 3249              		.type	UART_DMARxAbortCallback, %function
ARM GAS  C:\Users\anashi\AppData\Local\Temp\ccMVnC1L.s 			page 58


 3250              	UART_DMARxAbortCallback:
 3251              	.LFB87:
 3252              		.loc 1 2584 0
 3253              		.cfi_startproc
 3254              		@ args = 0, pretend = 0, frame = 0
 3255              		@ frame_needed = 0, uses_anonymous_args = 0
 3256              	.LVL226:
 3257              		.loc 1 2587 0
 3258 0000 0022     		movs	r2, #0
 3259              		.loc 1 2585 0
 3260 0002 406A     		ldr	r0, [r0, #36]
 3261              	.LVL227:
 3262              		.loc 1 2584 0
 3263 0004 10B5     		push	{r4, lr}
 3264              		.cfi_def_cfa_offset 8
 3265              		.cfi_offset 4, -8
 3266              		.cfi_offset 14, -4
 3267              		.loc 1 2587 0
 3268 0006 436E     		ldr	r3, [r0, #100]
 3269 0008 5A63     		str	r2, [r3, #52]
 3270              		.loc 1 2590 0
 3271 000a 036E     		ldr	r3, [r0, #96]
 3272 000c 002B     		cmp	r3, #0
 3273 000e 03D0     		beq	.L388
 3274              		.loc 1 2592 0
 3275 0010 5B6B     		ldr	r3, [r3, #52]
 3276 0012 002B     		cmp	r3, #0
 3277 0014 00D0     		beq	.L388
 3278              	.LVL228:
 3279              	.L387:
 3280              		.loc 1 2614 0
 3281              		@ sp needed
 3282 0016 10BD     		pop	{r4, pc}
 3283              	.LVL229:
 3284              	.L388:
 3285              		.loc 1 2599 0
 3286 0018 0023     		movs	r3, #0
 3287 001a 5222     		movs	r2, #82
 3288 001c 8352     		strh	r3, [r0, r2]
 3289              		.loc 1 2600 0
 3290 001e 0832     		adds	r2, r2, #8
 3291 0020 8352     		strh	r3, [r0, r2]
 3292              		.loc 1 2603 0
 3293 0022 C366     		str	r3, [r0, #108]
 3294              		.loc 1 2606 0
 3295 0024 0368     		ldr	r3, [r0]
 3296 0026 4B3A     		subs	r2, r2, #75
 3297 0028 1A62     		str	r2, [r3, #32]
 3298              		.loc 1 2609 0
 3299 002a 2023     		movs	r3, #32
 3300 002c 5A32     		adds	r2, r2, #90
 3301 002e 8354     		strb	r3, [r0, r2]
 3302              		.loc 1 2610 0
 3303 0030 0132     		adds	r2, r2, #1
 3304 0032 8354     		strb	r3, [r0, r2]
 3305              		.loc 1 2613 0
 3306 0034 FFF7FEFF 		bl	HAL_UART_AbortCpltCallback
ARM GAS  C:\Users\anashi\AppData\Local\Temp\ccMVnC1L.s 			page 59


 3307              	.LVL230:
 3308 0038 EDE7     		b	.L387
 3309              		.cfi_endproc
 3310              	.LFE87:
 3311              		.size	UART_DMARxAbortCallback, .-UART_DMARxAbortCallback
 3312              		.section	.text.UART_DMATxAbortCallback,"ax",%progbits
 3313              		.align	1
 3314              		.p2align 2,,3
 3315              		.syntax unified
 3316              		.code	16
 3317              		.thumb_func
 3318              		.fpu softvfp
 3319              		.type	UART_DMATxAbortCallback, %function
 3320              	UART_DMATxAbortCallback:
 3321              	.LFB86:
 3322              		.loc 1 2542 0
 3323              		.cfi_startproc
 3324              		@ args = 0, pretend = 0, frame = 0
 3325              		@ frame_needed = 0, uses_anonymous_args = 0
 3326              	.LVL231:
 3327              		.loc 1 2545 0
 3328 0000 0022     		movs	r2, #0
 3329              		.loc 1 2543 0
 3330 0002 406A     		ldr	r0, [r0, #36]
 3331              	.LVL232:
 3332              		.loc 1 2542 0
 3333 0004 10B5     		push	{r4, lr}
 3334              		.cfi_def_cfa_offset 8
 3335              		.cfi_offset 4, -8
 3336              		.cfi_offset 14, -4
 3337              		.loc 1 2545 0
 3338 0006 036E     		ldr	r3, [r0, #96]
 3339 0008 5A63     		str	r2, [r3, #52]
 3340              		.loc 1 2548 0
 3341 000a 436E     		ldr	r3, [r0, #100]
 3342 000c 002B     		cmp	r3, #0
 3343 000e 03D0     		beq	.L394
 3344              		.loc 1 2550 0
 3345 0010 5B6B     		ldr	r3, [r3, #52]
 3346 0012 002B     		cmp	r3, #0
 3347 0014 00D0     		beq	.L394
 3348              	.LVL233:
 3349              	.L393:
 3350              		.loc 1 2572 0
 3351              		@ sp needed
 3352 0016 10BD     		pop	{r4, pc}
 3353              	.LVL234:
 3354              	.L394:
 3355              		.loc 1 2557 0
 3356 0018 0023     		movs	r3, #0
 3357 001a 5222     		movs	r2, #82
 3358 001c 8352     		strh	r3, [r0, r2]
 3359              		.loc 1 2558 0
 3360 001e 0832     		adds	r2, r2, #8
 3361 0020 8352     		strh	r3, [r0, r2]
 3362              		.loc 1 2561 0
 3363 0022 C366     		str	r3, [r0, #108]
ARM GAS  C:\Users\anashi\AppData\Local\Temp\ccMVnC1L.s 			page 60


 3364              		.loc 1 2564 0
 3365 0024 0368     		ldr	r3, [r0]
 3366 0026 4B3A     		subs	r2, r2, #75
 3367 0028 1A62     		str	r2, [r3, #32]
 3368              		.loc 1 2567 0
 3369 002a 2023     		movs	r3, #32
 3370 002c 5A32     		adds	r2, r2, #90
 3371 002e 8354     		strb	r3, [r0, r2]
 3372              		.loc 1 2568 0
 3373 0030 0132     		adds	r2, r2, #1
 3374 0032 8354     		strb	r3, [r0, r2]
 3375              		.loc 1 2571 0
 3376 0034 FFF7FEFF 		bl	HAL_UART_AbortCpltCallback
 3377              	.LVL235:
 3378 0038 EDE7     		b	.L393
 3379              		.cfi_endproc
 3380              	.LFE86:
 3381              		.size	UART_DMATxAbortCallback, .-UART_DMATxAbortCallback
 3382              		.section	.text.HAL_UART_AbortTransmitCpltCallback,"ax",%progbits
 3383              		.align	1
 3384              		.p2align 2,,3
 3385              		.weak	HAL_UART_AbortTransmitCpltCallback
 3386              		.syntax unified
 3387              		.code	16
 3388              		.thumb_func
 3389              		.fpu softvfp
 3390              		.type	HAL_UART_AbortTransmitCpltCallback, %function
 3391              	HAL_UART_AbortTransmitCpltCallback:
 3392              	.LFB111:
 3393              		.cfi_startproc
 3394              		@ args = 0, pretend = 0, frame = 0
 3395              		@ frame_needed = 0, uses_anonymous_args = 0
 3396              		@ link register save eliminated.
 3397              		@ sp needed
 3398 0000 7047     		bx	lr
 3399              		.cfi_endproc
 3400              	.LFE111:
 3401              		.size	HAL_UART_AbortTransmitCpltCallback, .-HAL_UART_AbortTransmitCpltCallback
 3402 0002 C046     		.section	.text.HAL_UART_AbortTransmit_IT,"ax",%progbits
 3403              		.align	1
 3404              		.p2align 2,,3
 3405              		.global	HAL_UART_AbortTransmit_IT
 3406              		.syntax unified
 3407              		.code	16
 3408              		.thumb_func
 3409              		.fpu softvfp
 3410              		.type	HAL_UART_AbortTransmit_IT, %function
 3411              	HAL_UART_AbortTransmit_IT:
 3412              	.LFB56:
 3413              		.loc 1 1529 0
 3414              		.cfi_startproc
 3415              		@ args = 0, pretend = 0, frame = 0
 3416              		@ frame_needed = 0, uses_anonymous_args = 0
 3417              	.LVL236:
 3418              		.loc 1 1531 0
 3419 0000 C021     		movs	r1, #192
 3420 0002 0368     		ldr	r3, [r0]
ARM GAS  C:\Users\anashi\AppData\Local\Temp\ccMVnC1L.s 			page 61


 3421              		.loc 1 1529 0
 3422 0004 10B5     		push	{r4, lr}
 3423              		.cfi_def_cfa_offset 8
 3424              		.cfi_offset 4, -8
 3425              		.cfi_offset 14, -4
 3426              		.loc 1 1531 0
 3427 0006 1A68     		ldr	r2, [r3]
 3428              		.loc 1 1529 0
 3429 0008 0400     		movs	r4, r0
 3430              		.loc 1 1531 0
 3431 000a 8A43     		bics	r2, r1
 3432 000c 1A60     		str	r2, [r3]
 3433              		.loc 1 1534 0
 3434 000e 9A68     		ldr	r2, [r3, #8]
 3435 0010 4039     		subs	r1, r1, #64
 3436 0012 0A40     		ands	r2, r1
 3437 0014 10D0     		beq	.L401
 3438              		.loc 1 1536 0
 3439 0016 9A68     		ldr	r2, [r3, #8]
 3440              		.loc 1 1539 0
 3441 0018 006E     		ldr	r0, [r0, #96]
 3442              	.LVL237:
 3443              		.loc 1 1536 0
 3444 001a 8A43     		bics	r2, r1
 3445 001c 9A60     		str	r2, [r3, #8]
 3446              		.loc 1 1539 0
 3447 001e 0028     		cmp	r0, #0
 3448 0020 13D0     		beq	.L402
 3449              		.loc 1 1543 0
 3450 0022 0B4B     		ldr	r3, .L408
 3451 0024 4363     		str	r3, [r0, #52]
 3452              		.loc 1 1546 0
 3453 0026 FFF7FEFF 		bl	HAL_DMA_Abort_IT
 3454              	.LVL238:
 3455 002a 0028     		cmp	r0, #0
 3456 002c 02D0     		beq	.L403
 3457              		.loc 1 1549 0
 3458 002e 206E     		ldr	r0, [r4, #96]
 3459 0030 436B     		ldr	r3, [r0, #52]
 3460 0032 9847     		blx	r3
 3461              	.LVL239:
 3462              	.L403:
 3463              		.loc 1 1577 0
 3464 0034 0020     		movs	r0, #0
 3465              		@ sp needed
 3466              	.LVL240:
 3467 0036 10BD     		pop	{r4, pc}
 3468              	.LVL241:
 3469              	.L401:
 3470              		.loc 1 1567 0
 3471 0038 5223     		movs	r3, #82
 3472 003a C252     		strh	r2, [r0, r3]
 3473              	.LVL242:
 3474              	.L407:
 3475              		.loc 1 1570 0
 3476 003c 2022     		movs	r2, #32
 3477 003e 1733     		adds	r3, r3, #23
ARM GAS  C:\Users\anashi\AppData\Local\Temp\ccMVnC1L.s 			page 62


 3478 0040 E254     		strb	r2, [r4, r3]
 3479              		.loc 1 1573 0
 3480 0042 2000     		movs	r0, r4
 3481 0044 FFF7FEFF 		bl	HAL_UART_AbortTransmitCpltCallback
 3482              	.LVL243:
 3483 0048 F4E7     		b	.L403
 3484              	.L402:
 3485              		.loc 1 1555 0
 3486 004a 5223     		movs	r3, #82
 3487 004c E052     		strh	r0, [r4, r3]
 3488 004e F5E7     		b	.L407
 3489              	.L409:
 3490              		.align	2
 3491              	.L408:
 3492 0050 00000000 		.word	UART_DMATxOnlyAbortCallback
 3493              		.cfi_endproc
 3494              	.LFE56:
 3495              		.size	HAL_UART_AbortTransmit_IT, .-HAL_UART_AbortTransmit_IT
 3496              		.section	.text.UART_DMATxOnlyAbortCallback,"ax",%progbits
 3497              		.align	1
 3498              		.p2align 2,,3
 3499              		.syntax unified
 3500              		.code	16
 3501              		.thumb_func
 3502              		.fpu softvfp
 3503              		.type	UART_DMATxOnlyAbortCallback, %function
 3504              	UART_DMATxOnlyAbortCallback:
 3505              	.LFB88:
 3506              		.loc 1 2626 0
 3507              		.cfi_startproc
 3508              		@ args = 0, pretend = 0, frame = 0
 3509              		@ frame_needed = 0, uses_anonymous_args = 0
 3510              	.LVL244:
 3511              		.loc 1 2629 0
 3512 0000 5223     		movs	r3, #82
 3513 0002 0022     		movs	r2, #0
 3514              		.loc 1 2626 0
 3515 0004 10B5     		push	{r4, lr}
 3516              		.cfi_def_cfa_offset 8
 3517              		.cfi_offset 4, -8
 3518              		.cfi_offset 14, -4
 3519              		.loc 1 2627 0
 3520 0006 406A     		ldr	r0, [r0, #36]
 3521              	.LVL245:
 3522              		.loc 1 2636 0
 3523              		@ sp needed
 3524              		.loc 1 2629 0
 3525 0008 C252     		strh	r2, [r0, r3]
 3526              		.loc 1 2632 0
 3527 000a 1733     		adds	r3, r3, #23
 3528 000c 2032     		adds	r2, r2, #32
 3529 000e C254     		strb	r2, [r0, r3]
 3530              		.loc 1 2635 0
 3531 0010 FFF7FEFF 		bl	HAL_UART_AbortTransmitCpltCallback
 3532              	.LVL246:
 3533              		.loc 1 2636 0
 3534 0014 10BD     		pop	{r4, pc}
ARM GAS  C:\Users\anashi\AppData\Local\Temp\ccMVnC1L.s 			page 63


 3535              		.cfi_endproc
 3536              	.LFE88:
 3537              		.size	UART_DMATxOnlyAbortCallback, .-UART_DMATxOnlyAbortCallback
 3538 0016 C046     		.section	.text.HAL_UART_AbortReceiveCpltCallback,"ax",%progbits
 3539              		.align	1
 3540              		.p2align 2,,3
 3541              		.weak	HAL_UART_AbortReceiveCpltCallback
 3542              		.syntax unified
 3543              		.code	16
 3544              		.thumb_func
 3545              		.fpu softvfp
 3546              		.type	HAL_UART_AbortReceiveCpltCallback, %function
 3547              	HAL_UART_AbortReceiveCpltCallback:
 3548              	.LFB113:
 3549              		.cfi_startproc
 3550              		@ args = 0, pretend = 0, frame = 0
 3551              		@ frame_needed = 0, uses_anonymous_args = 0
 3552              		@ link register save eliminated.
 3553              		@ sp needed
 3554 0000 7047     		bx	lr
 3555              		.cfi_endproc
 3556              	.LFE113:
 3557              		.size	HAL_UART_AbortReceiveCpltCallback, .-HAL_UART_AbortReceiveCpltCallback
 3558 0002 C046     		.section	.text.HAL_UART_AbortReceive_IT,"ax",%progbits
 3559              		.align	1
 3560              		.p2align 2,,3
 3561              		.global	HAL_UART_AbortReceive_IT
 3562              		.syntax unified
 3563              		.code	16
 3564              		.thumb_func
 3565              		.fpu softvfp
 3566              		.type	HAL_UART_AbortReceive_IT, %function
 3567              	HAL_UART_AbortReceive_IT:
 3568              	.LFB57:
 3569              		.loc 1 1594 0
 3570              		.cfi_startproc
 3571              		@ args = 0, pretend = 0, frame = 0
 3572              		@ frame_needed = 0, uses_anonymous_args = 0
 3573              	.LVL247:
 3574              		.loc 1 1596 0
 3575 0000 0368     		ldr	r3, [r0]
 3576 0002 1749     		ldr	r1, .L420
 3577 0004 1A68     		ldr	r2, [r3]
 3578              		.loc 1 1594 0
 3579 0006 10B5     		push	{r4, lr}
 3580              		.cfi_def_cfa_offset 8
 3581              		.cfi_offset 4, -8
 3582              		.cfi_offset 14, -4
 3583              		.loc 1 1596 0
 3584 0008 0A40     		ands	r2, r1
 3585 000a 1A60     		str	r2, [r3]
 3586              		.loc 1 1597 0
 3587 000c 9A68     		ldr	r2, [r3, #8]
 3588 000e 2331     		adds	r1, r1, #35
 3589 0010 FF31     		adds	r1, r1, #255
 3590 0012 8A43     		bics	r2, r1
 3591 0014 9A60     		str	r2, [r3, #8]
ARM GAS  C:\Users\anashi\AppData\Local\Temp\ccMVnC1L.s 			page 64


 3592              		.loc 1 1600 0
 3593 0016 9A68     		ldr	r2, [r3, #8]
 3594 0018 3F31     		adds	r1, r1, #63
 3595              		.loc 1 1594 0
 3596 001a 0400     		movs	r4, r0
 3597              		.loc 1 1600 0
 3598 001c 0A40     		ands	r2, r1
 3599 001e 10D0     		beq	.L413
 3600              		.loc 1 1602 0
 3601 0020 9A68     		ldr	r2, [r3, #8]
 3602              		.loc 1 1605 0
 3603 0022 406E     		ldr	r0, [r0, #100]
 3604              	.LVL248:
 3605              		.loc 1 1602 0
 3606 0024 8A43     		bics	r2, r1
 3607 0026 9A60     		str	r2, [r3, #8]
 3608              		.loc 1 1605 0
 3609 0028 0028     		cmp	r0, #0
 3610 002a 15D0     		beq	.L414
 3611              		.loc 1 1609 0
 3612 002c 0D4B     		ldr	r3, .L420+4
 3613 002e 4363     		str	r3, [r0, #52]
 3614              		.loc 1 1612 0
 3615 0030 FFF7FEFF 		bl	HAL_DMA_Abort_IT
 3616              	.LVL249:
 3617 0034 0028     		cmp	r0, #0
 3618 0036 02D0     		beq	.L415
 3619              		.loc 1 1615 0
 3620 0038 606E     		ldr	r0, [r4, #100]
 3621 003a 436B     		ldr	r3, [r0, #52]
 3622 003c 9847     		blx	r3
 3623              	.LVL250:
 3624              	.L415:
 3625              		.loc 1 1649 0
 3626 003e 0020     		movs	r0, #0
 3627              		@ sp needed
 3628              	.LVL251:
 3629 0040 10BD     		pop	{r4, pc}
 3630              	.LVL252:
 3631              	.L413:
 3632              		.loc 1 1636 0
 3633 0042 5A21     		movs	r1, #90
 3634 0044 4252     		strh	r2, [r0, r1]
 3635              	.LVL253:
 3636              	.L419:
 3637              		.loc 1 1639 0
 3638 0046 0F22     		movs	r2, #15
 3639 0048 1A62     		str	r2, [r3, #32]
 3640              		.loc 1 1642 0
 3641 004a 6A23     		movs	r3, #106
 3642 004c 1132     		adds	r2, r2, #17
 3643 004e E254     		strb	r2, [r4, r3]
 3644              		.loc 1 1645 0
 3645 0050 2000     		movs	r0, r4
 3646 0052 FFF7FEFF 		bl	HAL_UART_AbortReceiveCpltCallback
 3647              	.LVL254:
 3648 0056 F2E7     		b	.L415
ARM GAS  C:\Users\anashi\AppData\Local\Temp\ccMVnC1L.s 			page 65


 3649              	.L414:
 3650              		.loc 1 1621 0
 3651 0058 5A22     		movs	r2, #90
 3652 005a A052     		strh	r0, [r4, r2]
 3653 005c F3E7     		b	.L419
 3654              	.L421:
 3655 005e C046     		.align	2
 3656              	.L420:
 3657 0060 DFFEFFFF 		.word	-289
 3658 0064 00000000 		.word	UART_DMARxOnlyAbortCallback
 3659              		.cfi_endproc
 3660              	.LFE57:
 3661              		.size	HAL_UART_AbortReceive_IT, .-HAL_UART_AbortReceive_IT
 3662              		.section	.text.UART_DMARxOnlyAbortCallback,"ax",%progbits
 3663              		.align	1
 3664              		.p2align 2,,3
 3665              		.syntax unified
 3666              		.code	16
 3667              		.thumb_func
 3668              		.fpu softvfp
 3669              		.type	UART_DMARxOnlyAbortCallback, %function
 3670              	UART_DMARxOnlyAbortCallback:
 3671              	.LFB89:
 3672              		.loc 1 2647 0
 3673              		.cfi_startproc
 3674              		@ args = 0, pretend = 0, frame = 0
 3675              		@ frame_needed = 0, uses_anonymous_args = 0
 3676              	.LVL255:
 3677              		.loc 1 2650 0
 3678 0000 5A23     		movs	r3, #90
 3679 0002 0022     		movs	r2, #0
 3680              		.loc 1 2648 0
 3681 0004 406A     		ldr	r0, [r0, #36]
 3682              	.LVL256:
 3683              		.loc 1 2647 0
 3684 0006 10B5     		push	{r4, lr}
 3685              		.cfi_def_cfa_offset 8
 3686              		.cfi_offset 4, -8
 3687              		.cfi_offset 14, -4
 3688              		.loc 1 2650 0
 3689 0008 C252     		strh	r2, [r0, r3]
 3690              		.loc 1 2653 0
 3691 000a 0368     		ldr	r3, [r0]
 3692 000c 0F32     		adds	r2, r2, #15
 3693 000e 1A62     		str	r2, [r3, #32]
 3694              		.loc 1 2656 0
 3695 0010 6A23     		movs	r3, #106
 3696 0012 1132     		adds	r2, r2, #17
 3697 0014 C254     		strb	r2, [r0, r3]
 3698              		.loc 1 2659 0
 3699 0016 FFF7FEFF 		bl	HAL_UART_AbortReceiveCpltCallback
 3700              	.LVL257:
 3701              		.loc 1 2660 0
 3702              		@ sp needed
 3703 001a 10BD     		pop	{r4, pc}
 3704              		.cfi_endproc
 3705              	.LFE89:
ARM GAS  C:\Users\anashi\AppData\Local\Temp\ccMVnC1L.s 			page 66


 3706              		.size	UART_DMARxOnlyAbortCallback, .-UART_DMARxOnlyAbortCallback
 3707              		.section	.text.HAL_MultiProcessor_EnableMuteMode,"ax",%progbits
 3708              		.align	1
 3709              		.p2align 2,,3
 3710              		.global	HAL_MultiProcessor_EnableMuteMode
 3711              		.syntax unified
 3712              		.code	16
 3713              		.thumb_func
 3714              		.fpu softvfp
 3715              		.type	HAL_MultiProcessor_EnableMuteMode, %function
 3716              	HAL_MultiProcessor_EnableMuteMode:
 3717              	.LFB67:
 3718              		.loc 1 1954 0
 3719              		.cfi_startproc
 3720              		@ args = 0, pretend = 0, frame = 0
 3721              		@ frame_needed = 0, uses_anonymous_args = 0
 3722              	.LVL258:
 3723              		.loc 1 1956 0
 3724 0000 6821     		movs	r1, #104
 3725              		.loc 1 1954 0
 3726 0002 30B5     		push	{r4, r5, lr}
 3727              		.cfi_def_cfa_offset 12
 3728              		.cfi_offset 4, -12
 3729              		.cfi_offset 5, -8
 3730              		.cfi_offset 14, -4
 3731              		.loc 1 1956 0
 3732 0004 435C     		ldrb	r3, [r0, r1]
 3733 0006 012B     		cmp	r3, #1
 3734 0008 12D0     		beq	.L425
 3735              		.loc 1 1958 0 discriminator 2
 3736 000a 6922     		movs	r2, #105
 3737 000c 2423     		movs	r3, #36
 3738 000e 8354     		strb	r3, [r0, r2]
 3739              		.loc 1 1961 0 discriminator 2
 3740 0010 8023     		movs	r3, #128
 3741 0012 0468     		ldr	r4, [r0]
 3742 0014 9B01     		lsls	r3, r3, #6
 3743 0016 2568     		ldr	r5, [r4]
 3744 0018 2B43     		orrs	r3, r5
 3745 001a 2360     		str	r3, [r4]
 3746              		.loc 1 1963 0 discriminator 2
 3747 001c 2023     		movs	r3, #32
 3748              	.LBB118:
 3749              	.LBB119:
 3750              		.loc 1 2295 0 discriminator 2
 3751 001e 0024     		movs	r4, #0
 3752              	.LBE119:
 3753              	.LBE118:
 3754              		.loc 1 1963 0 discriminator 2
 3755 0020 8354     		strb	r3, [r0, r2]
 3756              	.LVL259:
 3757              	.LBB121:
 3758              	.LBB120:
 3759              		.loc 1 2295 0 discriminator 2
 3760 0022 C466     		str	r4, [r0, #108]
 3761              		.loc 1 2331 0 discriminator 2
 3762 0024 8354     		strb	r3, [r0, r2]
ARM GAS  C:\Users\anashi\AppData\Local\Temp\ccMVnC1L.s 			page 67


 3763              		.loc 1 2332 0 discriminator 2
 3764 0026 0132     		adds	r2, r2, #1
 3765 0028 8354     		strb	r3, [r0, r2]
 3766              		.loc 1 2335 0 discriminator 2
 3767 002a 4454     		strb	r4, [r0, r1]
 3768              	.LVL260:
 3769              	.LBE120:
 3770              	.LBE121:
 3771              		.loc 1 1965 0 discriminator 2
 3772 002c 0020     		movs	r0, #0
 3773              	.LVL261:
 3774              	.L424:
 3775              		.loc 1 1966 0
 3776              		@ sp needed
 3777 002e 30BD     		pop	{r4, r5, pc}
 3778              	.LVL262:
 3779              	.L425:
 3780              		.loc 1 1956 0
 3781 0030 0220     		movs	r0, #2
 3782              	.LVL263:
 3783 0032 FCE7     		b	.L424
 3784              		.cfi_endproc
 3785              	.LFE67:
 3786              		.size	HAL_MultiProcessor_EnableMuteMode, .-HAL_MultiProcessor_EnableMuteMode
 3787              		.section	.text.HAL_MultiProcessor_DisableMuteMode,"ax",%progbits
 3788              		.align	1
 3789              		.p2align 2,,3
 3790              		.global	HAL_MultiProcessor_DisableMuteMode
 3791              		.syntax unified
 3792              		.code	16
 3793              		.thumb_func
 3794              		.fpu softvfp
 3795              		.type	HAL_MultiProcessor_DisableMuteMode, %function
 3796              	HAL_MultiProcessor_DisableMuteMode:
 3797              	.LFB68:
 3798              		.loc 1 1975 0
 3799              		.cfi_startproc
 3800              		@ args = 0, pretend = 0, frame = 0
 3801              		@ frame_needed = 0, uses_anonymous_args = 0
 3802              	.LVL264:
 3803              		.loc 1 1977 0
 3804 0000 6821     		movs	r1, #104
 3805              		.loc 1 1975 0
 3806 0002 30B5     		push	{r4, r5, lr}
 3807              		.cfi_def_cfa_offset 12
 3808              		.cfi_offset 4, -12
 3809              		.cfi_offset 5, -8
 3810              		.cfi_offset 14, -4
 3811              		.loc 1 1977 0
 3812 0004 435C     		ldrb	r3, [r0, r1]
 3813 0006 012B     		cmp	r3, #1
 3814 0008 11D0     		beq	.L428
 3815              		.loc 1 1979 0 discriminator 2
 3816 000a 6922     		movs	r2, #105
 3817 000c 2423     		movs	r3, #36
 3818              		.loc 1 1982 0 discriminator 2
 3819 000e 0468     		ldr	r4, [r0]
ARM GAS  C:\Users\anashi\AppData\Local\Temp\ccMVnC1L.s 			page 68


 3820              		.loc 1 1979 0 discriminator 2
 3821 0010 8354     		strb	r3, [r0, r2]
 3822              		.loc 1 1982 0 discriminator 2
 3823 0012 2368     		ldr	r3, [r4]
 3824 0014 074D     		ldr	r5, .L429
 3825 0016 2B40     		ands	r3, r5
 3826 0018 2360     		str	r3, [r4]
 3827              		.loc 1 1984 0 discriminator 2
 3828 001a 2023     		movs	r3, #32
 3829              	.LBB122:
 3830              	.LBB123:
 3831              		.loc 1 2295 0 discriminator 2
 3832 001c 0024     		movs	r4, #0
 3833              	.LBE123:
 3834              	.LBE122:
 3835              		.loc 1 1984 0 discriminator 2
 3836 001e 8354     		strb	r3, [r0, r2]
 3837              	.LVL265:
 3838              	.LBB125:
 3839              	.LBB124:
 3840              		.loc 1 2295 0 discriminator 2
 3841 0020 C466     		str	r4, [r0, #108]
 3842              		.loc 1 2331 0 discriminator 2
 3843 0022 8354     		strb	r3, [r0, r2]
 3844              		.loc 1 2332 0 discriminator 2
 3845 0024 0132     		adds	r2, r2, #1
 3846 0026 8354     		strb	r3, [r0, r2]
 3847              		.loc 1 2335 0 discriminator 2
 3848 0028 4454     		strb	r4, [r0, r1]
 3849              	.LVL266:
 3850              	.LBE124:
 3851              	.LBE125:
 3852              		.loc 1 1986 0 discriminator 2
 3853 002a 0020     		movs	r0, #0
 3854              	.LVL267:
 3855              	.L427:
 3856              		.loc 1 1987 0
 3857              		@ sp needed
 3858 002c 30BD     		pop	{r4, r5, pc}
 3859              	.LVL268:
 3860              	.L428:
 3861              		.loc 1 1977 0
 3862 002e 0220     		movs	r0, #2
 3863              	.LVL269:
 3864 0030 FCE7     		b	.L427
 3865              	.L430:
 3866 0032 C046     		.align	2
 3867              	.L429:
 3868 0034 FFDFFFFF 		.word	-8193
 3869              		.cfi_endproc
 3870              	.LFE68:
 3871              		.size	HAL_MultiProcessor_DisableMuteMode, .-HAL_MultiProcessor_DisableMuteMode
 3872              		.section	.text.HAL_MultiProcessor_EnterMuteMode,"ax",%progbits
 3873              		.align	1
 3874              		.p2align 2,,3
 3875              		.global	HAL_MultiProcessor_EnterMuteMode
 3876              		.syntax unified
ARM GAS  C:\Users\anashi\AppData\Local\Temp\ccMVnC1L.s 			page 69


 3877              		.code	16
 3878              		.thumb_func
 3879              		.fpu softvfp
 3880              		.type	HAL_MultiProcessor_EnterMuteMode, %function
 3881              	HAL_MultiProcessor_EnterMuteMode:
 3882              	.LFB69:
 3883              		.loc 1 1996 0
 3884              		.cfi_startproc
 3885              		@ args = 0, pretend = 0, frame = 0
 3886              		@ frame_needed = 0, uses_anonymous_args = 0
 3887              		@ link register save eliminated.
 3888              	.LVL270:
 3889              		.loc 1 1997 0
 3890 0000 0421     		movs	r1, #4
 3891 0002 0268     		ldr	r2, [r0]
 3892              		.loc 1 1998 0
 3893              		@ sp needed
 3894              		.loc 1 1997 0
 3895 0004 9369     		ldr	r3, [r2, #24]
 3896 0006 0B43     		orrs	r3, r1
 3897 0008 9361     		str	r3, [r2, #24]
 3898              		.loc 1 1998 0
 3899 000a 7047     		bx	lr
 3900              		.cfi_endproc
 3901              	.LFE69:
 3902              		.size	HAL_MultiProcessor_EnterMuteMode, .-HAL_MultiProcessor_EnterMuteMode
 3903              		.section	.text.HAL_HalfDuplex_EnableTransmitter,"ax",%progbits
 3904              		.align	1
 3905              		.p2align 2,,3
 3906              		.global	HAL_HalfDuplex_EnableTransmitter
 3907              		.syntax unified
 3908              		.code	16
 3909              		.thumb_func
 3910              		.fpu softvfp
 3911              		.type	HAL_HalfDuplex_EnableTransmitter, %function
 3912              	HAL_HalfDuplex_EnableTransmitter:
 3913              	.LFB70:
 3914              		.loc 1 2006 0
 3915              		.cfi_startproc
 3916              		@ args = 0, pretend = 0, frame = 0
 3917              		@ frame_needed = 0, uses_anonymous_args = 0
 3918              	.LVL271:
 3919              		.loc 1 2008 0
 3920 0000 6821     		movs	r1, #104
 3921              		.loc 1 2006 0
 3922 0002 30B5     		push	{r4, r5, lr}
 3923              		.cfi_def_cfa_offset 12
 3924              		.cfi_offset 4, -12
 3925              		.cfi_offset 5, -8
 3926              		.cfi_offset 14, -4
 3927              		.loc 1 2008 0
 3928 0004 435C     		ldrb	r3, [r0, r1]
 3929 0006 012B     		cmp	r3, #1
 3930 0008 11D0     		beq	.L434
 3931              		.loc 1 2009 0 discriminator 2
 3932 000a 6924     		movs	r4, #105
 3933 000c 2423     		movs	r3, #36
ARM GAS  C:\Users\anashi\AppData\Local\Temp\ccMVnC1L.s 			page 70


 3934              		.loc 1 2012 0 discriminator 2
 3935 000e 0C25     		movs	r5, #12
 3936              		.loc 1 2009 0 discriminator 2
 3937 0010 0355     		strb	r3, [r0, r4]
 3938              		.loc 1 2012 0 discriminator 2
 3939 0012 0368     		ldr	r3, [r0]
 3940 0014 1A68     		ldr	r2, [r3]
 3941 0016 AA43     		bics	r2, r5
 3942 0018 1A60     		str	r2, [r3]
 3943              		.loc 1 2014 0 discriminator 2
 3944 001a 1A68     		ldr	r2, [r3]
 3945 001c 043D     		subs	r5, r5, #4
 3946 001e 2A43     		orrs	r2, r5
 3947 0020 1A60     		str	r2, [r3]
 3948              		.loc 1 2016 0 discriminator 2
 3949 0022 2023     		movs	r3, #32
 3950 0024 0355     		strb	r3, [r0, r4]
 3951              		.loc 1 2019 0 discriminator 2
 3952 0026 0023     		movs	r3, #0
 3953 0028 4354     		strb	r3, [r0, r1]
 3954              		.loc 1 2021 0 discriminator 2
 3955 002a 0020     		movs	r0, #0
 3956              	.LVL272:
 3957              	.L433:
 3958              		.loc 1 2022 0
 3959              		@ sp needed
 3960 002c 30BD     		pop	{r4, r5, pc}
 3961              	.LVL273:
 3962              	.L434:
 3963              		.loc 1 2008 0
 3964 002e 0220     		movs	r0, #2
 3965              	.LVL274:
 3966 0030 FCE7     		b	.L433
 3967              		.cfi_endproc
 3968              	.LFE70:
 3969              		.size	HAL_HalfDuplex_EnableTransmitter, .-HAL_HalfDuplex_EnableTransmitter
 3970 0032 C046     		.section	.text.HAL_HalfDuplex_EnableReceiver,"ax",%progbits
 3971              		.align	1
 3972              		.p2align 2,,3
 3973              		.global	HAL_HalfDuplex_EnableReceiver
 3974              		.syntax unified
 3975              		.code	16
 3976              		.thumb_func
 3977              		.fpu softvfp
 3978              		.type	HAL_HalfDuplex_EnableReceiver, %function
 3979              	HAL_HalfDuplex_EnableReceiver:
 3980              	.LFB71:
 3981              		.loc 1 2030 0
 3982              		.cfi_startproc
 3983              		@ args = 0, pretend = 0, frame = 0
 3984              		@ frame_needed = 0, uses_anonymous_args = 0
 3985              	.LVL275:
 3986              		.loc 1 2032 0
 3987 0000 6821     		movs	r1, #104
 3988              		.loc 1 2030 0
 3989 0002 30B5     		push	{r4, r5, lr}
 3990              		.cfi_def_cfa_offset 12
ARM GAS  C:\Users\anashi\AppData\Local\Temp\ccMVnC1L.s 			page 71


 3991              		.cfi_offset 4, -12
 3992              		.cfi_offset 5, -8
 3993              		.cfi_offset 14, -4
 3994              		.loc 1 2032 0
 3995 0004 435C     		ldrb	r3, [r0, r1]
 3996 0006 012B     		cmp	r3, #1
 3997 0008 11D0     		beq	.L437
 3998              		.loc 1 2033 0 discriminator 2
 3999 000a 6924     		movs	r4, #105
 4000 000c 2423     		movs	r3, #36
 4001              		.loc 1 2036 0 discriminator 2
 4002 000e 0C25     		movs	r5, #12
 4003              		.loc 1 2033 0 discriminator 2
 4004 0010 0355     		strb	r3, [r0, r4]
 4005              		.loc 1 2036 0 discriminator 2
 4006 0012 0368     		ldr	r3, [r0]
 4007 0014 1A68     		ldr	r2, [r3]
 4008 0016 AA43     		bics	r2, r5
 4009 0018 1A60     		str	r2, [r3]
 4010              		.loc 1 2038 0 discriminator 2
 4011 001a 1A68     		ldr	r2, [r3]
 4012 001c 083D     		subs	r5, r5, #8
 4013 001e 2A43     		orrs	r2, r5
 4014 0020 1A60     		str	r2, [r3]
 4015              		.loc 1 2040 0 discriminator 2
 4016 0022 2023     		movs	r3, #32
 4017 0024 0355     		strb	r3, [r0, r4]
 4018              		.loc 1 2042 0 discriminator 2
 4019 0026 0023     		movs	r3, #0
 4020 0028 4354     		strb	r3, [r0, r1]
 4021              		.loc 1 2044 0 discriminator 2
 4022 002a 0020     		movs	r0, #0
 4023              	.LVL276:
 4024              	.L436:
 4025              		.loc 1 2045 0
 4026              		@ sp needed
 4027 002c 30BD     		pop	{r4, r5, pc}
 4028              	.LVL277:
 4029              	.L437:
 4030              		.loc 1 2032 0
 4031 002e 0220     		movs	r0, #2
 4032              	.LVL278:
 4033 0030 FCE7     		b	.L436
 4034              		.cfi_endproc
 4035              	.LFE71:
 4036              		.size	HAL_HalfDuplex_EnableReceiver, .-HAL_HalfDuplex_EnableReceiver
 4037 0032 C046     		.section	.text.HAL_UART_GetState,"ax",%progbits
 4038              		.align	1
 4039              		.p2align 2,,3
 4040              		.global	HAL_UART_GetState
 4041              		.syntax unified
 4042              		.code	16
 4043              		.thumb_func
 4044              		.fpu softvfp
 4045              		.type	HAL_UART_GetState, %function
 4046              	HAL_UART_GetState:
 4047              	.LFB72:
ARM GAS  C:\Users\anashi\AppData\Local\Temp\ccMVnC1L.s 			page 72


 4048              		.loc 1 2074 0
 4049              		.cfi_startproc
 4050              		@ args = 0, pretend = 0, frame = 0
 4051              		@ frame_needed = 0, uses_anonymous_args = 0
 4052              		@ link register save eliminated.
 4053              	.LVL279:
 4054              		.loc 1 2077 0
 4055 0000 6A22     		movs	r2, #106
 4056              		.loc 1 2076 0
 4057 0002 6923     		movs	r3, #105
 4058 0004 C35C     		ldrb	r3, [r0, r3]
 4059              	.LVL280:
 4060              		.loc 1 2077 0
 4061 0006 805C     		ldrb	r0, [r0, r2]
 4062              	.LVL281:
 4063              		.loc 1 2080 0
 4064              		@ sp needed
 4065              		.loc 1 2079 0
 4066 0008 1843     		orrs	r0, r3
 4067              	.LVL282:
 4068              		.loc 1 2080 0
 4069 000a 7047     		bx	lr
 4070              		.cfi_endproc
 4071              	.LFE72:
 4072              		.size	HAL_UART_GetState, .-HAL_UART_GetState
 4073              		.section	.text.HAL_UART_GetError,"ax",%progbits
 4074              		.align	1
 4075              		.p2align 2,,3
 4076              		.global	HAL_UART_GetError
 4077              		.syntax unified
 4078              		.code	16
 4079              		.thumb_func
 4080              		.fpu softvfp
 4081              		.type	HAL_UART_GetError, %function
 4082              	HAL_UART_GetError:
 4083              	.LFB73:
 4084              		.loc 1 2089 0
 4085              		.cfi_startproc
 4086              		@ args = 0, pretend = 0, frame = 0
 4087              		@ frame_needed = 0, uses_anonymous_args = 0
 4088              		@ link register save eliminated.
 4089              	.LVL283:
 4090              		.loc 1 2090 0
 4091 0000 C06E     		ldr	r0, [r0, #108]
 4092              	.LVL284:
 4093              		.loc 1 2091 0
 4094              		@ sp needed
 4095 0002 7047     		bx	lr
 4096              		.cfi_endproc
 4097              	.LFE73:
 4098              		.size	HAL_UART_GetError, .-HAL_UART_GetError
 4099              		.global	__aeabi_uidiv
 4100              		.section	.text.UART_SetConfig,"ax",%progbits
 4101              		.align	1
 4102              		.p2align 2,,3
 4103              		.global	UART_SetConfig
 4104              		.syntax unified
ARM GAS  C:\Users\anashi\AppData\Local\Temp\ccMVnC1L.s 			page 73


 4105              		.code	16
 4106              		.thumb_func
 4107              		.fpu softvfp
 4108              		.type	UART_SetConfig, %function
 4109              	UART_SetConfig:
 4110              	.LFB74:
 4111              		.loc 1 2110 0
 4112              		.cfi_startproc
 4113              		@ args = 0, pretend = 0, frame = 0
 4114              		@ frame_needed = 0, uses_anonymous_args = 0
 4115              	.LVL285:
 4116 0000 70B5     		push	{r4, r5, r6, lr}
 4117              		.cfi_def_cfa_offset 16
 4118              		.cfi_offset 4, -16
 4119              		.cfi_offset 5, -12
 4120              		.cfi_offset 6, -8
 4121              		.cfi_offset 14, -4
 4122              		.loc 1 2110 0
 4123 0002 0400     		movs	r4, r0
 4124              		.loc 1 2136 0
 4125 0004 0568     		ldr	r5, [r0]
 4126              		.loc 1 2135 0
 4127 0006 C269     		ldr	r2, [r0, #28]
 4128              	.LVL286:
 4129 0008 8368     		ldr	r3, [r0, #8]
 4130 000a 0069     		ldr	r0, [r0, #16]
 4131              	.LVL287:
 4132              		.loc 1 2136 0
 4133 000c 2968     		ldr	r1, [r5]
 4134              		.loc 1 2135 0
 4135 000e 0343     		orrs	r3, r0
 4136 0010 6069     		ldr	r0, [r4, #20]
 4137 0012 0343     		orrs	r3, r0
 4138              		.loc 1 2136 0
 4139 0014 3C48     		ldr	r0, .L464
 4140              		.loc 1 2135 0
 4141 0016 1343     		orrs	r3, r2
 4142              		.loc 1 2136 0
 4143 0018 0140     		ands	r1, r0
 4144 001a 0B43     		orrs	r3, r1
 4145 001c 2B60     		str	r3, [r5]
 4146              		.loc 1 2141 0
 4147 001e 6B68     		ldr	r3, [r5, #4]
 4148 0020 3A49     		ldr	r1, .L464+4
 4149              		.loc 1 2149 0
 4150 0022 206A     		ldr	r0, [r4, #32]
 4151              		.loc 1 2141 0
 4152 0024 0B40     		ands	r3, r1
 4153 0026 E168     		ldr	r1, [r4, #12]
 4154 0028 0B43     		orrs	r3, r1
 4155 002a 6B60     		str	r3, [r5, #4]
 4156              	.LVL288:
 4157              		.loc 1 2149 0
 4158 002c A369     		ldr	r3, [r4, #24]
 4159              		.loc 1 2150 0
 4160 002e A968     		ldr	r1, [r5, #8]
 4161              		.loc 1 2149 0
ARM GAS  C:\Users\anashi\AppData\Local\Temp\ccMVnC1L.s 			page 74


 4162 0030 0343     		orrs	r3, r0
 4163              		.loc 1 2150 0
 4164 0032 3748     		ldr	r0, .L464+8
 4165 0034 0140     		ands	r1, r0
 4166 0036 0B43     		orrs	r3, r1
 4167 0038 AB60     		str	r3, [r5, #8]
 4168              		.loc 1 2153 0
 4169 003a 364B     		ldr	r3, .L464+12
 4170 003c 196B     		ldr	r1, [r3, #48]
 4171 003e 0323     		movs	r3, #3
 4172 0040 0B40     		ands	r3, r1
 4173 0042 3549     		ldr	r1, .L464+16
 4174 0044 CB5C     		ldrb	r3, [r1, r3]
 4175              	.LVL289:
 4176              		.loc 1 2156 0
 4177 0046 8021     		movs	r1, #128
 4178 0048 0902     		lsls	r1, r1, #8
 4179 004a 8A42     		cmp	r2, r1
 4180 004c 25D0     		beq	.L461
 4181              		.loc 1 2184 0
 4182 004e 022B     		cmp	r3, #2
 4183 0050 42D0     		beq	.L449
 4184 0052 10D9     		bls	.L462
 4185 0054 042B     		cmp	r3, #4
 4186 0056 1DD0     		beq	.L452
 4187 0058 082B     		cmp	r3, #8
 4188 005a 41D1     		bne	.L455
 4189              		.loc 1 2196 0
 4190 005c 8023     		movs	r3, #128
 4191              	.LVL290:
 4192 005e 6168     		ldr	r1, [r4, #4]
 4193 0060 1B02     		lsls	r3, r3, #8
 4194 0062 4808     		lsrs	r0, r1, #1
 4195              	.L459:
 4196 0064 9C46     		mov	ip, r3
 4197 0066 6044     		add	r0, r0, ip
 4198 0068 FFF7FEFF 		bl	__aeabi_uidiv
 4199              	.LVL291:
 4200 006c 0004     		lsls	r0, r0, #16
 4201 006e 000C     		lsrs	r0, r0, #16
 4202 0070 E860     		str	r0, [r5, #12]
 4203              		.loc 1 2115 0
 4204 0072 0020     		movs	r0, #0
 4205              	.LVL292:
 4206              	.L448:
 4207              		.loc 1 2207 0
 4208              		@ sp needed
 4209 0074 70BD     		pop	{r4, r5, r6, pc}
 4210              	.LVL293:
 4211              	.L462:
 4212              		.loc 1 2184 0
 4213 0076 002B     		cmp	r3, #0
 4214 0078 32D1     		bne	.L455
 4215              		.loc 1 2187 0
 4216 007a FFF7FEFF 		bl	HAL_RCC_GetPCLK1Freq
 4217              	.LVL294:
 4218              	.L458:
ARM GAS  C:\Users\anashi\AppData\Local\Temp\ccMVnC1L.s 			page 75


 4219              		.loc 1 2193 0
 4220 007e 6168     		ldr	r1, [r4, #4]
 4221 0080 2468     		ldr	r4, [r4]
 4222              	.LVL295:
 4223 0082 4B08     		lsrs	r3, r1, #1
 4224 0084 1818     		adds	r0, r3, r0
 4225 0086 FFF7FEFF 		bl	__aeabi_uidiv
 4226              	.LVL296:
 4227 008a 0004     		lsls	r0, r0, #16
 4228 008c 000C     		lsrs	r0, r0, #16
 4229 008e E060     		str	r0, [r4, #12]
 4230              		.loc 1 2115 0
 4231 0090 0020     		movs	r0, #0
 4232              		.loc 1 2194 0
 4233 0092 EFE7     		b	.L448
 4234              	.LVL297:
 4235              	.L452:
 4236              		.loc 1 2193 0
 4237 0094 FFF7FEFF 		bl	HAL_RCC_GetSysClockFreq
 4238              	.LVL298:
 4239 0098 F1E7     		b	.L458
 4240              	.LVL299:
 4241              	.L461:
 4242              		.loc 1 2158 0
 4243 009a 022B     		cmp	r3, #2
 4244 009c 22D0     		beq	.L443
 4245 009e 29D9     		bls	.L463
 4246 00a0 042B     		cmp	r3, #4
 4247 00a2 06D0     		beq	.L446
 4248 00a4 082B     		cmp	r3, #8
 4249 00a6 2AD1     		bne	.L454
 4250              		.loc 1 2170 0
 4251 00a8 8023     		movs	r3, #128
 4252              	.LVL300:
 4253 00aa 6168     		ldr	r1, [r4, #4]
 4254 00ac 5B02     		lsls	r3, r3, #9
 4255 00ae 4808     		lsrs	r0, r1, #1
 4256 00b0 1BE0     		b	.L457
 4257              	.LVL301:
 4258              	.L446:
 4259              		.loc 1 2167 0
 4260 00b2 FFF7FEFF 		bl	HAL_RCC_GetSysClockFreq
 4261              	.LVL302:
 4262              	.L460:
 4263 00b6 6368     		ldr	r3, [r4, #4]
 4264 00b8 4000     		lsls	r0, r0, #1
 4265 00ba 5B08     		lsrs	r3, r3, #1
 4266 00bc C018     		adds	r0, r0, r3
 4267 00be 6168     		ldr	r1, [r4, #4]
 4268 00c0 FFF7FEFF 		bl	__aeabi_uidiv
 4269              	.LVL303:
 4270 00c4 2568     		ldr	r5, [r4]
 4271              	.LVL304:
 4272              	.L456:
 4273 00c6 0F22     		movs	r2, #15
 4274 00c8 0307     		lsls	r3, r0, #28
 4275 00ca 5B0F     		lsrs	r3, r3, #29
ARM GAS  C:\Users\anashi\AppData\Local\Temp\ccMVnC1L.s 			page 76


 4276 00cc 9043     		bics	r0, r2
 4277              	.LVL305:
 4278 00ce 0343     		orrs	r3, r0
 4279 00d0 9BB2     		uxth	r3, r3
 4280              		.loc 1 2115 0
 4281 00d2 0020     		movs	r0, #0
 4282              	.LVL306:
 4283              		.loc 1 2180 0
 4284 00d4 EB60     		str	r3, [r5, #12]
 4285 00d6 CDE7     		b	.L448
 4286              	.LVL307:
 4287              	.L449:
 4288              		.loc 1 2190 0
 4289 00d8 6168     		ldr	r1, [r4, #4]
 4290 00da 104B     		ldr	r3, .L464+20
 4291              	.LVL308:
 4292 00dc 4808     		lsrs	r0, r1, #1
 4293 00de C1E7     		b	.L459
 4294              	.LVL309:
 4295              	.L455:
 4296              		.loc 1 2200 0
 4297 00e0 0120     		movs	r0, #1
 4298 00e2 C7E7     		b	.L448
 4299              	.L443:
 4300              		.loc 1 2164 0
 4301 00e4 6168     		ldr	r1, [r4, #4]
 4302 00e6 0E4B     		ldr	r3, .L464+24
 4303              	.LVL310:
 4304 00e8 4808     		lsrs	r0, r1, #1
 4305              	.L457:
 4306              		.loc 1 2170 0
 4307 00ea 9C46     		mov	ip, r3
 4308 00ec 6044     		add	r0, r0, ip
 4309 00ee FFF7FEFF 		bl	__aeabi_uidiv
 4310              	.LVL311:
 4311 00f2 E8E7     		b	.L456
 4312              	.LVL312:
 4313              	.L463:
 4314              		.loc 1 2158 0
 4315 00f4 002B     		cmp	r3, #0
 4316 00f6 02D1     		bne	.L454
 4317              		.loc 1 2161 0
 4318 00f8 FFF7FEFF 		bl	HAL_RCC_GetPCLK1Freq
 4319              	.LVL313:
 4320 00fc DBE7     		b	.L460
 4321              	.LVL314:
 4322              	.L454:
 4323              		.loc 1 2158 0
 4324 00fe 0023     		movs	r3, #0
 4325              	.LVL315:
 4326              		.loc 1 2174 0
 4327 0100 0120     		movs	r0, #1
 4328              	.LVL316:
 4329              		.loc 1 2180 0
 4330 0102 EB60     		str	r3, [r5, #12]
 4331 0104 B6E7     		b	.L448
 4332              	.L465:
ARM GAS  C:\Users\anashi\AppData\Local\Temp\ccMVnC1L.s 			page 77


 4333 0106 C046     		.align	2
 4334              	.L464:
 4335 0108 F369FFFF 		.word	-38413
 4336 010c FFCFFFFF 		.word	-12289
 4337 0110 FFF4FFFF 		.word	-2817
 4338 0114 00100240 		.word	1073876992
 4339 0118 00000000 		.word	.LANCHOR0
 4340 011c 00127A00 		.word	8000000
 4341 0120 0024F400 		.word	16000000
 4342              		.cfi_endproc
 4343              	.LFE74:
 4344              		.size	UART_SetConfig, .-UART_SetConfig
 4345              		.section	.text.UART_AdvFeatureConfig,"ax",%progbits
 4346              		.align	1
 4347              		.p2align 2,,3
 4348              		.global	UART_AdvFeatureConfig
 4349              		.syntax unified
 4350              		.code	16
 4351              		.thumb_func
 4352              		.fpu softvfp
 4353              		.type	UART_AdvFeatureConfig, %function
 4354              	UART_AdvFeatureConfig:
 4355              	.LFB75:
 4356              		.loc 1 2215 0
 4357              		.cfi_startproc
 4358              		@ args = 0, pretend = 0, frame = 0
 4359              		@ frame_needed = 0, uses_anonymous_args = 0
 4360              	.LVL317:
 4361              		.loc 1 2220 0
 4362 0000 436A     		ldr	r3, [r0, #36]
 4363              		.loc 1 2215 0
 4364 0002 30B5     		push	{r4, r5, lr}
 4365              		.cfi_def_cfa_offset 12
 4366              		.cfi_offset 4, -12
 4367              		.cfi_offset 5, -8
 4368              		.cfi_offset 14, -4
 4369              		.loc 1 2220 0
 4370 0004 DA07     		lsls	r2, r3, #31
 4371 0006 06D5     		bpl	.L467
 4372              		.loc 1 2223 0
 4373 0008 0168     		ldr	r1, [r0]
 4374 000a 284C     		ldr	r4, .L499
 4375 000c 4A68     		ldr	r2, [r1, #4]
 4376 000e 2240     		ands	r2, r4
 4377 0010 846A     		ldr	r4, [r0, #40]
 4378 0012 2243     		orrs	r2, r4
 4379 0014 4A60     		str	r2, [r1, #4]
 4380              	.L467:
 4381              		.loc 1 2227 0
 4382 0016 9A07     		lsls	r2, r3, #30
 4383 0018 06D5     		bpl	.L468
 4384              		.loc 1 2230 0
 4385 001a 0168     		ldr	r1, [r0]
 4386 001c 244C     		ldr	r4, .L499+4
 4387 001e 4A68     		ldr	r2, [r1, #4]
 4388 0020 2240     		ands	r2, r4
 4389 0022 C46A     		ldr	r4, [r0, #44]
ARM GAS  C:\Users\anashi\AppData\Local\Temp\ccMVnC1L.s 			page 78


 4390 0024 2243     		orrs	r2, r4
 4391 0026 4A60     		str	r2, [r1, #4]
 4392              	.L468:
 4393              		.loc 1 2234 0
 4394 0028 5A07     		lsls	r2, r3, #29
 4395 002a 06D5     		bpl	.L469
 4396              		.loc 1 2237 0
 4397 002c 0168     		ldr	r1, [r0]
 4398 002e 214C     		ldr	r4, .L499+8
 4399 0030 4A68     		ldr	r2, [r1, #4]
 4400 0032 2240     		ands	r2, r4
 4401 0034 046B     		ldr	r4, [r0, #48]
 4402 0036 2243     		orrs	r2, r4
 4403 0038 4A60     		str	r2, [r1, #4]
 4404              	.L469:
 4405              		.loc 1 2241 0
 4406 003a 1A07     		lsls	r2, r3, #28
 4407 003c 06D5     		bpl	.L470
 4408              		.loc 1 2244 0
 4409 003e 0168     		ldr	r1, [r0]
 4410 0040 1D4C     		ldr	r4, .L499+12
 4411 0042 4A68     		ldr	r2, [r1, #4]
 4412 0044 2240     		ands	r2, r4
 4413 0046 446B     		ldr	r4, [r0, #52]
 4414 0048 2243     		orrs	r2, r4
 4415 004a 4A60     		str	r2, [r1, #4]
 4416              	.L470:
 4417              		.loc 1 2248 0
 4418 004c DA06     		lsls	r2, r3, #27
 4419 004e 06D5     		bpl	.L471
 4420              		.loc 1 2251 0
 4421 0050 0168     		ldr	r1, [r0]
 4422 0052 1A4C     		ldr	r4, .L499+16
 4423 0054 8A68     		ldr	r2, [r1, #8]
 4424 0056 2240     		ands	r2, r4
 4425 0058 846B     		ldr	r4, [r0, #56]
 4426 005a 2243     		orrs	r2, r4
 4427 005c 8A60     		str	r2, [r1, #8]
 4428              	.L471:
 4429              		.loc 1 2255 0
 4430 005e 9A06     		lsls	r2, r3, #26
 4431 0060 06D5     		bpl	.L472
 4432              		.loc 1 2258 0
 4433 0062 0168     		ldr	r1, [r0]
 4434 0064 164C     		ldr	r4, .L499+20
 4435 0066 8A68     		ldr	r2, [r1, #8]
 4436 0068 2240     		ands	r2, r4
 4437 006a C46B     		ldr	r4, [r0, #60]
 4438 006c 2243     		orrs	r2, r4
 4439 006e 8A60     		str	r2, [r1, #8]
 4440              	.L472:
 4441              		.loc 1 2262 0
 4442 0070 5A06     		lsls	r2, r3, #25
 4443 0072 0AD5     		bpl	.L474
 4444              		.loc 1 2266 0
 4445 0074 0168     		ldr	r1, [r0]
 4446 0076 134D     		ldr	r5, .L499+24
ARM GAS  C:\Users\anashi\AppData\Local\Temp\ccMVnC1L.s 			page 79


 4447 0078 4A68     		ldr	r2, [r1, #4]
 4448 007a 046C     		ldr	r4, [r0, #64]
 4449 007c 2A40     		ands	r2, r5
 4450 007e 2243     		orrs	r2, r4
 4451 0080 4A60     		str	r2, [r1, #4]
 4452              		.loc 1 2268 0
 4453 0082 8022     		movs	r2, #128
 4454 0084 5203     		lsls	r2, r2, #13
 4455 0086 9442     		cmp	r4, r2
 4456 0088 09D0     		beq	.L498
 4457              	.L474:
 4458              		.loc 1 2276 0
 4459 008a 1B06     		lsls	r3, r3, #24
 4460 008c 06D5     		bpl	.L466
 4461              		.loc 1 2279 0
 4462 008e 0268     		ldr	r2, [r0]
 4463 0090 0D49     		ldr	r1, .L499+28
 4464 0092 5368     		ldr	r3, [r2, #4]
 4465 0094 0B40     		ands	r3, r1
 4466 0096 816C     		ldr	r1, [r0, #72]
 4467 0098 0B43     		orrs	r3, r1
 4468 009a 5360     		str	r3, [r2, #4]
 4469              	.L466:
 4470              		.loc 1 2281 0
 4471              		@ sp needed
 4472 009c 30BD     		pop	{r4, r5, pc}
 4473              	.L498:
 4474              		.loc 1 2271 0
 4475 009e 4A68     		ldr	r2, [r1, #4]
 4476 00a0 0A4C     		ldr	r4, .L499+32
 4477 00a2 2240     		ands	r2, r4
 4478 00a4 446C     		ldr	r4, [r0, #68]
 4479 00a6 2243     		orrs	r2, r4
 4480 00a8 4A60     		str	r2, [r1, #4]
 4481 00aa EEE7     		b	.L474
 4482              	.L500:
 4483              		.align	2
 4484              	.L499:
 4485 00ac FFFFFDFF 		.word	-131073
 4486 00b0 FFFFFEFF 		.word	-65537
 4487 00b4 FFFFFBFF 		.word	-262145
 4488 00b8 FF7FFFFF 		.word	-32769
 4489 00bc FFEFFFFF 		.word	-4097
 4490 00c0 FFDFFFFF 		.word	-8193
 4491 00c4 FFFFEFFF 		.word	-1048577
 4492 00c8 FFFFF7FF 		.word	-524289
 4493 00cc FFFF9FFF 		.word	-6291457
 4494              		.cfi_endproc
 4495              	.LFE75:
 4496              		.size	UART_AdvFeatureConfig, .-UART_AdvFeatureConfig
 4497              		.section	.text.HAL_UART_Init,"ax",%progbits
 4498              		.align	1
 4499              		.p2align 2,,3
 4500              		.global	HAL_UART_Init
 4501              		.syntax unified
 4502              		.code	16
 4503              		.thumb_func
ARM GAS  C:\Users\anashi\AppData\Local\Temp\ccMVnC1L.s 			page 80


 4504              		.fpu softvfp
 4505              		.type	HAL_UART_Init, %function
 4506              	HAL_UART_Init:
 4507              	.LFB37:
 4508              		.loc 1 292 0
 4509              		.cfi_startproc
 4510              		@ args = 0, pretend = 0, frame = 0
 4511              		@ frame_needed = 0, uses_anonymous_args = 0
 4512              	.LVL318:
 4513 0000 70B5     		push	{r4, r5, r6, lr}
 4514              		.cfi_def_cfa_offset 16
 4515              		.cfi_offset 4, -16
 4516              		.cfi_offset 5, -12
 4517              		.cfi_offset 6, -8
 4518              		.cfi_offset 14, -4
 4519              		.loc 1 292 0
 4520 0002 041E     		subs	r4, r0, #0
 4521              		.loc 1 294 0
 4522 0004 62D0     		beq	.L519
 4523              		.loc 1 310 0
 4524 0006 6923     		movs	r3, #105
 4525 0008 C35C     		ldrb	r3, [r0, r3]
 4526 000a DBB2     		uxtb	r3, r3
 4527 000c 002B     		cmp	r3, #0
 4528 000e 58D0     		beq	.L527
 4529              	.LVL319:
 4530              	.L503:
 4531              		.loc 1 319 0
 4532 0010 6923     		movs	r3, #105
 4533 0012 2422     		movs	r2, #36
 4534              		.loc 1 322 0
 4535 0014 2568     		ldr	r5, [r4]
 4536              		.loc 1 319 0
 4537 0016 E254     		strb	r2, [r4, r3]
 4538              		.loc 1 322 0
 4539 0018 2B68     		ldr	r3, [r5]
 4540 001a 233A     		subs	r2, r2, #35
 4541 001c 9343     		bics	r3, r2
 4542 001e 2B60     		str	r3, [r5]
 4543              	.LVL320:
 4544              	.LBB130:
 4545              	.LBB131:
 4546              		.loc 1 2135 0
 4547 0020 2069     		ldr	r0, [r4, #16]
 4548 0022 A368     		ldr	r3, [r4, #8]
 4549              		.loc 1 2136 0
 4550 0024 2968     		ldr	r1, [r5]
 4551              		.loc 1 2135 0
 4552 0026 0343     		orrs	r3, r0
 4553 0028 6069     		ldr	r0, [r4, #20]
 4554 002a E269     		ldr	r2, [r4, #28]
 4555              	.LVL321:
 4556 002c 0343     		orrs	r3, r0
 4557              		.loc 1 2136 0
 4558 002e 4F48     		ldr	r0, .L532
 4559              	.LVL322:
 4560              		.loc 1 2135 0
ARM GAS  C:\Users\anashi\AppData\Local\Temp\ccMVnC1L.s 			page 81


 4561 0030 1343     		orrs	r3, r2
 4562              		.loc 1 2136 0
 4563 0032 0140     		ands	r1, r0
 4564 0034 0B43     		orrs	r3, r1
 4565 0036 2B60     		str	r3, [r5]
 4566              		.loc 1 2141 0
 4567 0038 6B68     		ldr	r3, [r5, #4]
 4568 003a 4D49     		ldr	r1, .L532+4
 4569              		.loc 1 2149 0
 4570 003c 206A     		ldr	r0, [r4, #32]
 4571              		.loc 1 2141 0
 4572 003e 0B40     		ands	r3, r1
 4573 0040 E168     		ldr	r1, [r4, #12]
 4574 0042 0B43     		orrs	r3, r1
 4575 0044 6B60     		str	r3, [r5, #4]
 4576              	.LVL323:
 4577              		.loc 1 2149 0
 4578 0046 A369     		ldr	r3, [r4, #24]
 4579              		.loc 1 2150 0
 4580 0048 A968     		ldr	r1, [r5, #8]
 4581              		.loc 1 2149 0
 4582 004a 0343     		orrs	r3, r0
 4583              		.loc 1 2150 0
 4584 004c 4948     		ldr	r0, .L532+8
 4585 004e 0140     		ands	r1, r0
 4586 0050 0B43     		orrs	r3, r1
 4587 0052 AB60     		str	r3, [r5, #8]
 4588              		.loc 1 2153 0
 4589 0054 484B     		ldr	r3, .L532+12
 4590 0056 196B     		ldr	r1, [r3, #48]
 4591 0058 0323     		movs	r3, #3
 4592 005a 0B40     		ands	r3, r1
 4593 005c 4749     		ldr	r1, .L532+16
 4594 005e CB5C     		ldrb	r3, [r1, r3]
 4595              	.LVL324:
 4596              		.loc 1 2156 0
 4597 0060 8021     		movs	r1, #128
 4598 0062 0902     		lsls	r1, r1, #8
 4599 0064 8A42     		cmp	r2, r1
 4600 0066 33D0     		beq	.L528
 4601              		.loc 1 2184 0
 4602 0068 022B     		cmp	r3, #2
 4603 006a 5DD0     		beq	.L512
 4604 006c 53D9     		bls	.L529
 4605 006e 042B     		cmp	r3, #4
 4606 0070 45D0     		beq	.L515
 4607 0072 082B     		cmp	r3, #8
 4608 0074 2AD1     		bne	.L519
 4609              		.loc 1 2196 0
 4610 0076 6368     		ldr	r3, [r4, #4]
 4611              	.LVL325:
 4612 0078 5808     		lsrs	r0, r3, #1
 4613 007a 8023     		movs	r3, #128
 4614 007c 1B02     		lsls	r3, r3, #8
 4615              	.L526:
 4616 007e 9C46     		mov	ip, r3
 4617 0080 6044     		add	r0, r0, ip
ARM GAS  C:\Users\anashi\AppData\Local\Temp\ccMVnC1L.s 			page 82


 4618              	.LVL326:
 4619              	.L524:
 4620 0082 6168     		ldr	r1, [r4, #4]
 4621 0084 FFF7FEFF 		bl	__aeabi_uidiv
 4622              	.LVL327:
 4623 0088 0004     		lsls	r0, r0, #16
 4624 008a 000C     		lsrs	r0, r0, #16
 4625 008c E860     		str	r0, [r5, #12]
 4626              	.LVL328:
 4627              	.L511:
 4628              	.LBE131:
 4629              	.LBE130:
 4630              		.loc 1 330 0
 4631 008e 636A     		ldr	r3, [r4, #36]
 4632 0090 002B     		cmp	r3, #0
 4633 0092 3BD1     		bne	.L530
 4634              	.L517:
 4635              		.loc 1 341 0
 4636 0094 6B68     		ldr	r3, [r5, #4]
 4637 0096 3A4A     		ldr	r2, .L532+20
 4638              	.LBB135:
 4639              	.LBB136:
 4640              		.loc 1 2331 0
 4641 0098 6921     		movs	r1, #105
 4642              	.LBE136:
 4643              	.LBE135:
 4644              		.loc 1 341 0
 4645 009a 1340     		ands	r3, r2
 4646              		.loc 1 353 0
 4647 009c 0822     		movs	r2, #8
 4648              		.loc 1 341 0
 4649 009e 6B60     		str	r3, [r5, #4]
 4650              		.loc 1 353 0
 4651 00a0 AB68     		ldr	r3, [r5, #8]
 4652              		.loc 1 361 0
 4653 00a2 0020     		movs	r0, #0
 4654              		.loc 1 353 0
 4655 00a4 9343     		bics	r3, r2
 4656 00a6 AB60     		str	r3, [r5, #8]
 4657              		.loc 1 358 0
 4658 00a8 2B68     		ldr	r3, [r5]
 4659 00aa 073A     		subs	r2, r2, #7
 4660 00ac 1343     		orrs	r3, r2
 4661 00ae 2B60     		str	r3, [r5]
 4662              	.LVL329:
 4663              	.LBB138:
 4664              	.LBB137:
 4665              		.loc 1 2295 0
 4666 00b0 0023     		movs	r3, #0
 4667              		.loc 1 2331 0
 4668 00b2 1F32     		adds	r2, r2, #31
 4669              		.loc 1 2295 0
 4670 00b4 E366     		str	r3, [r4, #108]
 4671              		.loc 1 2331 0
 4672 00b6 6254     		strb	r2, [r4, r1]
 4673              		.loc 1 2332 0
 4674 00b8 0131     		adds	r1, r1, #1
ARM GAS  C:\Users\anashi\AppData\Local\Temp\ccMVnC1L.s 			page 83


 4675 00ba 6254     		strb	r2, [r4, r1]
 4676              		.loc 1 2335 0
 4677 00bc 4832     		adds	r2, r2, #72
 4678 00be A354     		strb	r3, [r4, r2]
 4679              	.LVL330:
 4680              	.LBE137:
 4681              	.LBE138:
 4682              		.loc 1 361 0
 4683 00c0 05E0     		b	.L502
 4684              	.LVL331:
 4685              	.L527:
 4686              		.loc 1 313 0
 4687 00c2 6822     		movs	r2, #104
 4688 00c4 8354     		strb	r3, [r0, r2]
 4689              		.loc 1 316 0
 4690 00c6 FFF7FEFF 		bl	HAL_UART_MspInit
 4691              	.LVL332:
 4692 00ca A1E7     		b	.L503
 4693              	.L519:
 4694              		.loc 1 327 0
 4695 00cc 0120     		movs	r0, #1
 4696              	.L502:
 4697              		.loc 1 362 0
 4698              		@ sp needed
 4699              	.LVL333:
 4700 00ce 70BD     		pop	{r4, r5, r6, pc}
 4701              	.LVL334:
 4702              	.L528:
 4703              	.LBB139:
 4704              	.LBB132:
 4705              		.loc 1 2158 0
 4706 00d0 022B     		cmp	r3, #2
 4707 00d2 3ED0     		beq	.L506
 4708 00d4 41D9     		bls	.L531
 4709 00d6 042B     		cmp	r3, #4
 4710 00d8 2AD0     		beq	.L509
 4711 00da 082B     		cmp	r3, #8
 4712 00dc 42D1     		bne	.L505
 4713              		.loc 1 2170 0
 4714 00de 6368     		ldr	r3, [r4, #4]
 4715              	.LVL335:
 4716 00e0 5808     		lsrs	r0, r3, #1
 4717 00e2 8023     		movs	r3, #128
 4718 00e4 5B02     		lsls	r3, r3, #9
 4719              	.L525:
 4720 00e6 9C46     		mov	ip, r3
 4721 00e8 6168     		ldr	r1, [r4, #4]
 4722 00ea 6044     		add	r0, r0, ip
 4723 00ec FFF7FEFF 		bl	__aeabi_uidiv
 4724              	.LVL336:
 4725              		.loc 1 2178 0
 4726 00f0 244B     		ldr	r3, .L532+24
 4727 00f2 0340     		ands	r3, r0
 4728              	.LVL337:
 4729              		.loc 1 2179 0
 4730 00f4 0007     		lsls	r0, r0, #28
 4731              	.LVL338:
ARM GAS  C:\Users\anashi\AppData\Local\Temp\ccMVnC1L.s 			page 84


 4732 00f6 400F     		lsrs	r0, r0, #29
 4733              		.loc 1 2180 0
 4734 00f8 1843     		orrs	r0, r3
 4735 00fa E860     		str	r0, [r5, #12]
 4736              	.LVL339:
 4737 00fc C7E7     		b	.L511
 4738              	.LVL340:
 4739              	.L515:
 4740              		.loc 1 2193 0
 4741 00fe FFF7FEFF 		bl	HAL_RCC_GetSysClockFreq
 4742              	.LVL341:
 4743 0102 6368     		ldr	r3, [r4, #4]
 4744 0104 2568     		ldr	r5, [r4]
 4745 0106 5B08     		lsrs	r3, r3, #1
 4746 0108 1818     		adds	r0, r3, r0
 4747 010a BAE7     		b	.L524
 4748              	.LVL342:
 4749              	.L530:
 4750              	.LBE132:
 4751              	.LBE139:
 4752              		.loc 1 332 0
 4753 010c 2000     		movs	r0, r4
 4754 010e FFF7FEFF 		bl	UART_AdvFeatureConfig
 4755              	.LVL343:
 4756 0112 2568     		ldr	r5, [r4]
 4757 0114 BEE7     		b	.L517
 4758              	.LVL344:
 4759              	.L529:
 4760              	.LBB140:
 4761              	.LBB133:
 4762              		.loc 1 2184 0
 4763 0116 002B     		cmp	r3, #0
 4764 0118 D8D1     		bne	.L519
 4765              		.loc 1 2187 0
 4766 011a FFF7FEFF 		bl	HAL_RCC_GetPCLK1Freq
 4767              	.LVL345:
 4768 011e 6368     		ldr	r3, [r4, #4]
 4769 0120 2568     		ldr	r5, [r4]
 4770 0122 5B08     		lsrs	r3, r3, #1
 4771 0124 1818     		adds	r0, r3, r0
 4772 0126 ACE7     		b	.L524
 4773              	.LVL346:
 4774              	.L512:
 4775              		.loc 1 2190 0
 4776 0128 6368     		ldr	r3, [r4, #4]
 4777              	.LVL347:
 4778 012a 5808     		lsrs	r0, r3, #1
 4779 012c 164B     		ldr	r3, .L532+28
 4780 012e A6E7     		b	.L526
 4781              	.LVL348:
 4782              	.L509:
 4783              		.loc 1 2167 0
 4784 0130 FFF7FEFF 		bl	HAL_RCC_GetSysClockFreq
 4785              	.LVL349:
 4786              	.L523:
 4787 0134 6368     		ldr	r3, [r4, #4]
 4788 0136 4000     		lsls	r0, r0, #1
ARM GAS  C:\Users\anashi\AppData\Local\Temp\ccMVnC1L.s 			page 85


 4789 0138 5B08     		lsrs	r3, r3, #1
 4790 013a C018     		adds	r0, r0, r3
 4791 013c 6168     		ldr	r1, [r4, #4]
 4792 013e FFF7FEFF 		bl	__aeabi_uidiv
 4793              	.LVL350:
 4794              		.loc 1 2178 0
 4795 0142 104B     		ldr	r3, .L532+24
 4796              		.loc 1 2180 0
 4797 0144 2568     		ldr	r5, [r4]
 4798              		.loc 1 2178 0
 4799 0146 0340     		ands	r3, r0
 4800              	.LVL351:
 4801              		.loc 1 2179 0
 4802 0148 0007     		lsls	r0, r0, #28
 4803              	.LVL352:
 4804 014a 400F     		lsrs	r0, r0, #29
 4805              		.loc 1 2180 0
 4806 014c 1843     		orrs	r0, r3
 4807 014e E860     		str	r0, [r5, #12]
 4808              	.LVL353:
 4809 0150 9DE7     		b	.L511
 4810              	.LVL354:
 4811              	.L506:
 4812              		.loc 1 2164 0
 4813 0152 6368     		ldr	r3, [r4, #4]
 4814              	.LVL355:
 4815 0154 5808     		lsrs	r0, r3, #1
 4816 0156 0D4B     		ldr	r3, .L532+32
 4817 0158 C5E7     		b	.L525
 4818              	.LVL356:
 4819              	.L531:
 4820              		.loc 1 2158 0
 4821 015a 002B     		cmp	r3, #0
 4822 015c 02D1     		bne	.L505
 4823              		.loc 1 2161 0
 4824 015e FFF7FEFF 		bl	HAL_RCC_GetPCLK1Freq
 4825              	.LVL357:
 4826 0162 E7E7     		b	.L523
 4827              	.LVL358:
 4828              	.L505:
 4829              		.loc 1 2180 0
 4830 0164 0023     		movs	r3, #0
 4831              	.LVL359:
 4832              	.LBE133:
 4833              	.LBE140:
 4834              		.loc 1 327 0
 4835 0166 0120     		movs	r0, #1
 4836              	.LBB141:
 4837              	.LBB134:
 4838              		.loc 1 2180 0
 4839 0168 EB60     		str	r3, [r5, #12]
 4840              	.LVL360:
 4841 016a B0E7     		b	.L502
 4842              	.L533:
 4843              		.align	2
 4844              	.L532:
 4845 016c F369FFFF 		.word	-38413
ARM GAS  C:\Users\anashi\AppData\Local\Temp\ccMVnC1L.s 			page 86


 4846 0170 FFCFFFFF 		.word	-12289
 4847 0174 FFF4FFFF 		.word	-2817
 4848 0178 00100240 		.word	1073876992
 4849 017c 00000000 		.word	.LANCHOR0
 4850 0180 FFF7FFFF 		.word	-2049
 4851 0184 F0FF0000 		.word	65520
 4852 0188 00127A00 		.word	8000000
 4853 018c 0024F400 		.word	16000000
 4854              	.LBE134:
 4855              	.LBE141:
 4856              		.cfi_endproc
 4857              	.LFE37:
 4858              		.size	HAL_UART_Init, .-HAL_UART_Init
 4859              		.section	.text.HAL_HalfDuplex_Init,"ax",%progbits
 4860              		.align	1
 4861              		.p2align 2,,3
 4862              		.global	HAL_HalfDuplex_Init
 4863              		.syntax unified
 4864              		.code	16
 4865              		.thumb_func
 4866              		.fpu softvfp
 4867              		.type	HAL_HalfDuplex_Init, %function
 4868              	HAL_HalfDuplex_Init:
 4869              	.LFB38:
 4870              		.loc 1 371 0
 4871              		.cfi_startproc
 4872              		@ args = 0, pretend = 0, frame = 0
 4873              		@ frame_needed = 0, uses_anonymous_args = 0
 4874              	.LVL361:
 4875 0000 70B5     		push	{r4, r5, r6, lr}
 4876              		.cfi_def_cfa_offset 16
 4877              		.cfi_offset 4, -16
 4878              		.cfi_offset 5, -12
 4879              		.cfi_offset 6, -8
 4880              		.cfi_offset 14, -4
 4881              		.loc 1 371 0
 4882 0002 041E     		subs	r4, r0, #0
 4883              		.loc 1 373 0
 4884 0004 62D0     		beq	.L552
 4885              		.loc 1 381 0
 4886 0006 6923     		movs	r3, #105
 4887 0008 C35C     		ldrb	r3, [r0, r3]
 4888 000a DBB2     		uxtb	r3, r3
 4889 000c 002B     		cmp	r3, #0
 4890 000e 58D0     		beq	.L560
 4891              	.LVL362:
 4892              	.L536:
 4893              		.loc 1 390 0
 4894 0010 6923     		movs	r3, #105
 4895 0012 2422     		movs	r2, #36
 4896              		.loc 1 393 0
 4897 0014 2568     		ldr	r5, [r4]
 4898              		.loc 1 390 0
 4899 0016 E254     		strb	r2, [r4, r3]
 4900              		.loc 1 393 0
 4901 0018 2B68     		ldr	r3, [r5]
 4902 001a 233A     		subs	r2, r2, #35
ARM GAS  C:\Users\anashi\AppData\Local\Temp\ccMVnC1L.s 			page 87


 4903 001c 9343     		bics	r3, r2
 4904 001e 2B60     		str	r3, [r5]
 4905              	.LVL363:
 4906              	.LBB146:
 4907              	.LBB147:
 4908              		.loc 1 2135 0
 4909 0020 2069     		ldr	r0, [r4, #16]
 4910 0022 A368     		ldr	r3, [r4, #8]
 4911              		.loc 1 2136 0
 4912 0024 2968     		ldr	r1, [r5]
 4913              		.loc 1 2135 0
 4914 0026 0343     		orrs	r3, r0
 4915 0028 6069     		ldr	r0, [r4, #20]
 4916 002a E269     		ldr	r2, [r4, #28]
 4917              	.LVL364:
 4918 002c 0343     		orrs	r3, r0
 4919              		.loc 1 2136 0
 4920 002e 4F48     		ldr	r0, .L565
 4921              	.LVL365:
 4922              		.loc 1 2135 0
 4923 0030 1343     		orrs	r3, r2
 4924              		.loc 1 2136 0
 4925 0032 0140     		ands	r1, r0
 4926 0034 0B43     		orrs	r3, r1
 4927 0036 2B60     		str	r3, [r5]
 4928              		.loc 1 2141 0
 4929 0038 6B68     		ldr	r3, [r5, #4]
 4930 003a 4D49     		ldr	r1, .L565+4
 4931              		.loc 1 2149 0
 4932 003c 206A     		ldr	r0, [r4, #32]
 4933              		.loc 1 2141 0
 4934 003e 0B40     		ands	r3, r1
 4935 0040 E168     		ldr	r1, [r4, #12]
 4936 0042 0B43     		orrs	r3, r1
 4937 0044 6B60     		str	r3, [r5, #4]
 4938              	.LVL366:
 4939              		.loc 1 2149 0
 4940 0046 A369     		ldr	r3, [r4, #24]
 4941              		.loc 1 2150 0
 4942 0048 A968     		ldr	r1, [r5, #8]
 4943              		.loc 1 2149 0
 4944 004a 0343     		orrs	r3, r0
 4945              		.loc 1 2150 0
 4946 004c 4948     		ldr	r0, .L565+8
 4947 004e 0140     		ands	r1, r0
 4948 0050 0B43     		orrs	r3, r1
 4949 0052 AB60     		str	r3, [r5, #8]
 4950              		.loc 1 2153 0
 4951 0054 484B     		ldr	r3, .L565+12
 4952 0056 196B     		ldr	r1, [r3, #48]
 4953 0058 0323     		movs	r3, #3
 4954 005a 0B40     		ands	r3, r1
 4955 005c 4749     		ldr	r1, .L565+16
 4956 005e CB5C     		ldrb	r3, [r1, r3]
 4957              	.LVL367:
 4958              		.loc 1 2156 0
 4959 0060 8021     		movs	r1, #128
ARM GAS  C:\Users\anashi\AppData\Local\Temp\ccMVnC1L.s 			page 88


 4960 0062 0902     		lsls	r1, r1, #8
 4961 0064 8A42     		cmp	r2, r1
 4962 0066 33D0     		beq	.L561
 4963              		.loc 1 2184 0
 4964 0068 022B     		cmp	r3, #2
 4965 006a 5DD0     		beq	.L545
 4966 006c 53D9     		bls	.L562
 4967 006e 042B     		cmp	r3, #4
 4968 0070 45D0     		beq	.L548
 4969 0072 082B     		cmp	r3, #8
 4970 0074 2AD1     		bne	.L552
 4971              		.loc 1 2196 0
 4972 0076 6368     		ldr	r3, [r4, #4]
 4973              	.LVL368:
 4974 0078 5808     		lsrs	r0, r3, #1
 4975 007a 8023     		movs	r3, #128
 4976 007c 1B02     		lsls	r3, r3, #8
 4977              	.L559:
 4978 007e 9C46     		mov	ip, r3
 4979 0080 6044     		add	r0, r0, ip
 4980              	.LVL369:
 4981              	.L557:
 4982 0082 6168     		ldr	r1, [r4, #4]
 4983 0084 FFF7FEFF 		bl	__aeabi_uidiv
 4984              	.LVL370:
 4985 0088 0004     		lsls	r0, r0, #16
 4986 008a 000C     		lsrs	r0, r0, #16
 4987 008c E860     		str	r0, [r5, #12]
 4988              	.LVL371:
 4989              	.L544:
 4990              	.LBE147:
 4991              	.LBE146:
 4992              		.loc 1 401 0
 4993 008e 636A     		ldr	r3, [r4, #36]
 4994 0090 002B     		cmp	r3, #0
 4995 0092 3BD1     		bne	.L563
 4996              	.L550:
 4997              		.loc 1 412 0
 4998 0094 6B68     		ldr	r3, [r5, #4]
 4999 0096 3A4A     		ldr	r2, .L565+20
 5000              	.LBB151:
 5001              	.LBB152:
 5002              		.loc 1 2331 0
 5003 0098 6921     		movs	r1, #105
 5004              	.LBE152:
 5005              	.LBE151:
 5006              		.loc 1 412 0
 5007 009a 1340     		ands	r3, r2
 5008              		.loc 1 427 0
 5009 009c 0822     		movs	r2, #8
 5010              		.loc 1 412 0
 5011 009e 6B60     		str	r3, [r5, #4]
 5012              		.loc 1 427 0
 5013 00a0 AB68     		ldr	r3, [r5, #8]
 5014              		.loc 1 433 0
 5015 00a2 0020     		movs	r0, #0
 5016              		.loc 1 427 0
ARM GAS  C:\Users\anashi\AppData\Local\Temp\ccMVnC1L.s 			page 89


 5017 00a4 1343     		orrs	r3, r2
 5018 00a6 AB60     		str	r3, [r5, #8]
 5019              		.loc 1 430 0
 5020 00a8 2B68     		ldr	r3, [r5]
 5021 00aa 073A     		subs	r2, r2, #7
 5022 00ac 1343     		orrs	r3, r2
 5023 00ae 2B60     		str	r3, [r5]
 5024              	.LVL372:
 5025              	.LBB154:
 5026              	.LBB153:
 5027              		.loc 1 2295 0
 5028 00b0 0023     		movs	r3, #0
 5029              		.loc 1 2331 0
 5030 00b2 1F32     		adds	r2, r2, #31
 5031              		.loc 1 2295 0
 5032 00b4 E366     		str	r3, [r4, #108]
 5033              		.loc 1 2331 0
 5034 00b6 6254     		strb	r2, [r4, r1]
 5035              		.loc 1 2332 0
 5036 00b8 0131     		adds	r1, r1, #1
 5037 00ba 6254     		strb	r2, [r4, r1]
 5038              		.loc 1 2335 0
 5039 00bc 4832     		adds	r2, r2, #72
 5040 00be A354     		strb	r3, [r4, r2]
 5041              	.LVL373:
 5042              	.LBE153:
 5043              	.LBE154:
 5044              		.loc 1 433 0
 5045 00c0 05E0     		b	.L535
 5046              	.LVL374:
 5047              	.L560:
 5048              		.loc 1 384 0
 5049 00c2 6822     		movs	r2, #104
 5050 00c4 8354     		strb	r3, [r0, r2]
 5051              		.loc 1 387 0
 5052 00c6 FFF7FEFF 		bl	HAL_UART_MspInit
 5053              	.LVL375:
 5054 00ca A1E7     		b	.L536
 5055              	.L552:
 5056              		.loc 1 398 0
 5057 00cc 0120     		movs	r0, #1
 5058              	.L535:
 5059              		.loc 1 434 0
 5060              		@ sp needed
 5061              	.LVL376:
 5062 00ce 70BD     		pop	{r4, r5, r6, pc}
 5063              	.LVL377:
 5064              	.L561:
 5065              	.LBB155:
 5066              	.LBB148:
 5067              		.loc 1 2158 0
 5068 00d0 022B     		cmp	r3, #2
 5069 00d2 3ED0     		beq	.L539
 5070 00d4 41D9     		bls	.L564
 5071 00d6 042B     		cmp	r3, #4
 5072 00d8 2AD0     		beq	.L542
 5073 00da 082B     		cmp	r3, #8
ARM GAS  C:\Users\anashi\AppData\Local\Temp\ccMVnC1L.s 			page 90


 5074 00dc 42D1     		bne	.L538
 5075              		.loc 1 2170 0
 5076 00de 6368     		ldr	r3, [r4, #4]
 5077              	.LVL378:
 5078 00e0 5808     		lsrs	r0, r3, #1
 5079 00e2 8023     		movs	r3, #128
 5080 00e4 5B02     		lsls	r3, r3, #9
 5081              	.L558:
 5082 00e6 9C46     		mov	ip, r3
 5083 00e8 6168     		ldr	r1, [r4, #4]
 5084 00ea 6044     		add	r0, r0, ip
 5085 00ec FFF7FEFF 		bl	__aeabi_uidiv
 5086              	.LVL379:
 5087              		.loc 1 2178 0
 5088 00f0 244B     		ldr	r3, .L565+24
 5089 00f2 0340     		ands	r3, r0
 5090              	.LVL380:
 5091              		.loc 1 2179 0
 5092 00f4 0007     		lsls	r0, r0, #28
 5093              	.LVL381:
 5094 00f6 400F     		lsrs	r0, r0, #29
 5095              		.loc 1 2180 0
 5096 00f8 1843     		orrs	r0, r3
 5097 00fa E860     		str	r0, [r5, #12]
 5098              	.LVL382:
 5099 00fc C7E7     		b	.L544
 5100              	.LVL383:
 5101              	.L548:
 5102              		.loc 1 2193 0
 5103 00fe FFF7FEFF 		bl	HAL_RCC_GetSysClockFreq
 5104              	.LVL384:
 5105 0102 6368     		ldr	r3, [r4, #4]
 5106 0104 2568     		ldr	r5, [r4]
 5107 0106 5B08     		lsrs	r3, r3, #1
 5108 0108 1818     		adds	r0, r3, r0
 5109 010a BAE7     		b	.L557
 5110              	.LVL385:
 5111              	.L563:
 5112              	.LBE148:
 5113              	.LBE155:
 5114              		.loc 1 403 0
 5115 010c 2000     		movs	r0, r4
 5116 010e FFF7FEFF 		bl	UART_AdvFeatureConfig
 5117              	.LVL386:
 5118 0112 2568     		ldr	r5, [r4]
 5119 0114 BEE7     		b	.L550
 5120              	.LVL387:
 5121              	.L562:
 5122              	.LBB156:
 5123              	.LBB149:
 5124              		.loc 1 2184 0
 5125 0116 002B     		cmp	r3, #0
 5126 0118 D8D1     		bne	.L552
 5127              		.loc 1 2187 0
 5128 011a FFF7FEFF 		bl	HAL_RCC_GetPCLK1Freq
 5129              	.LVL388:
 5130 011e 6368     		ldr	r3, [r4, #4]
ARM GAS  C:\Users\anashi\AppData\Local\Temp\ccMVnC1L.s 			page 91


 5131 0120 2568     		ldr	r5, [r4]
 5132 0122 5B08     		lsrs	r3, r3, #1
 5133 0124 1818     		adds	r0, r3, r0
 5134 0126 ACE7     		b	.L557
 5135              	.LVL389:
 5136              	.L545:
 5137              		.loc 1 2190 0
 5138 0128 6368     		ldr	r3, [r4, #4]
 5139              	.LVL390:
 5140 012a 5808     		lsrs	r0, r3, #1
 5141 012c 164B     		ldr	r3, .L565+28
 5142 012e A6E7     		b	.L559
 5143              	.LVL391:
 5144              	.L542:
 5145              		.loc 1 2167 0
 5146 0130 FFF7FEFF 		bl	HAL_RCC_GetSysClockFreq
 5147              	.LVL392:
 5148              	.L556:
 5149 0134 6368     		ldr	r3, [r4, #4]
 5150 0136 4000     		lsls	r0, r0, #1
 5151 0138 5B08     		lsrs	r3, r3, #1
 5152 013a C018     		adds	r0, r0, r3
 5153 013c 6168     		ldr	r1, [r4, #4]
 5154 013e FFF7FEFF 		bl	__aeabi_uidiv
 5155              	.LVL393:
 5156              		.loc 1 2178 0
 5157 0142 104B     		ldr	r3, .L565+24
 5158              		.loc 1 2180 0
 5159 0144 2568     		ldr	r5, [r4]
 5160              		.loc 1 2178 0
 5161 0146 0340     		ands	r3, r0
 5162              	.LVL394:
 5163              		.loc 1 2179 0
 5164 0148 0007     		lsls	r0, r0, #28
 5165              	.LVL395:
 5166 014a 400F     		lsrs	r0, r0, #29
 5167              		.loc 1 2180 0
