ARM GAS  C:\Users\anashi\AppData\Local\Temp\ccOc9r4F.s 			page 1


   1              		.cpu cortex-m0
   2              		.eabi_attribute 20, 1
   3              		.eabi_attribute 21, 1
   4              		.eabi_attribute 23, 3
   5              		.eabi_attribute 24, 1
   6              		.eabi_attribute 25, 1
   7              		.eabi_attribute 26, 1
   8              		.eabi_attribute 30, 2
   9              		.eabi_attribute 34, 0
  10              		.eabi_attribute 18, 4
  11              		.file	"swtimer.c"
  12              		.text
  13              	.Ltext0:
  14              		.cfi_sections	.debug_frame
  15              		.section	.text.swtimer_add_timer,"ax",%progbits
  16              		.align	1
  17              		.p2align 2,,3
  18              		.global	swtimer_add_timer
  19              		.syntax unified
  20              		.code	16
  21              		.thumb_func
  22              		.fpu softvfp
  23              		.type	swtimer_add_timer, %function
  24              	swtimer_add_timer:
  25              	.LFB37:
  26              		.file 1 "C:/repos/rs2all/components/swtimer/src/swtimer.c"
  27              		.loc 1 9 0
  28              		.cfi_startproc
  29              		@ args = 0, pretend = 0, frame = 8
  30              		@ frame_needed = 0, uses_anonymous_args = 0
  31 0000 70B5     		push	{r4, r5, r6, lr}
  32              		.cfi_def_cfa_offset 16
  33              		.cfi_offset 4, -16
  34              		.cfi_offset 5, -12
  35              		.cfi_offset 6, -8
  36              		.cfi_offset 14, -4
  37              		.loc 1 10 0
  38 0002 0C4B     		ldr	r3, .L7
  39              		.loc 1 9 0
  40 0004 82B0     		sub	sp, sp, #8
  41              		.cfi_def_cfa_offset 24
  42              	.LVL0:
  43              		.loc 1 10 0
  44 0006 1C78     		ldrb	r4, [r3]
  45              		.loc 1 9 0
  46 0008 0090     		str	r0, [sp]
  47              	.LVL1:
  48 000a 0191     		str	r1, [sp, #4]
  49              		.loc 1 10 0
  50 000c 052C     		cmp	r4, #5
  51 000e 0ED0     		beq	.L2
  52 0010 6A46     		mov	r2, sp
  53 0012 1578     		ldrb	r5, [r2]
  54              		.loc 1 14 0
  55 0014 621C     		adds	r2, r4, #1
  56 0016 1A70     		strb	r2, [r3]
  57              	.LVL2:
ARM GAS  C:\Users\anashi\AppData\Local\Temp\ccOc9r4F.s 			page 2


  58              		.loc 1 16 0
  59 0018 074B     		ldr	r3, .L7+4
  60 001a 2201     		lsls	r2, r4, #4
  61 001c 9E18     		adds	r6, r3, r2
  62              		.loc 1 17 0
  63 001e D554     		strb	r5, [r2, r3]
  64              		.loc 1 16 0
  65 0020 7160     		str	r1, [r6, #4]
  66              		.loc 1 18 0
  67 0022 FFF7FEFF 		bl	HAL_GetTick
  68              	.LVL3:
  69              		.loc 1 19 0
  70 0026 6B42     		rsbs	r3, r5, #0
  71 0028 5D41     		adcs	r5, r5, r3
  72              		.loc 1 18 0
  73 002a B060     		str	r0, [r6, #8]
  74              		.loc 1 19 0
  75 002c 3573     		strb	r5, [r6, #12]
  76              	.LVL4:
  77              	.L2:
  78              		.loc 1 22 0
  79 002e 2000     		movs	r0, r4
  80 0030 02B0     		add	sp, sp, #8
  81              		@ sp needed
  82 0032 70BD     		pop	{r4, r5, r6, pc}
  83              	.L8:
  84              		.align	2
  85              	.L7:
  86 0034 00000000 		.word	.LANCHOR0
  87 0038 00000000 		.word	.LANCHOR1
  88              		.cfi_endproc
  89              	.LFE37:
  90              		.size	swtimer_add_timer, .-swtimer_add_timer
  91              		.section	.text.swtimer_is_timeout,"ax",%progbits
  92              		.align	1
  93              		.p2align 2,,3
  94              		.global	swtimer_is_timeout
  95              		.syntax unified
  96              		.code	16
  97              		.thumb_func
  98              		.fpu softvfp
  99              		.type	swtimer_is_timeout, %function
 100              	swtimer_is_timeout:
 101              	.LFB38:
 102              		.loc 1 24 0
 103              		.cfi_startproc
 104              		@ args = 0, pretend = 0, frame = 0
 105              		@ frame_needed = 0, uses_anonymous_args = 0
 106              	.LVL5:
 107 0000 70B5     		push	{r4, r5, r6, lr}
 108              		.cfi_def_cfa_offset 16
 109              		.cfi_offset 4, -16
 110              		.cfi_offset 5, -12
 111              		.cfi_offset 6, -8
 112              		.cfi_offset 14, -4
 113              		.loc 1 24 0
 114 0002 0400     		movs	r4, r0
ARM GAS  C:\Users\anashi\AppData\Local\Temp\ccOc9r4F.s 			page 3


 115              		.loc 1 25 0
 116 0004 FFF7FEFF 		bl	HAL_GetTick
 117              	.LVL6:
 118              		.loc 1 28 0
 119 0008 0A4A     		ldr	r2, .L16
 120 000a 2301     		lsls	r3, r4, #4
 121 000c D518     		adds	r5, r2, r3
 122 000e 2C7B     		ldrb	r4, [r5, #12]
 123              	.LVL7:
 124 0010 002C     		cmp	r4, #0
 125 0012 07D0     		beq	.L10
 126              		.loc 1 25 0 discriminator 1
 127 0014 A968     		ldr	r1, [r5, #8]
 128 0016 401A     		subs	r0, r0, r1
 129              		.loc 1 28 0 discriminator 1
 130 0018 6968     		ldr	r1, [r5, #4]
 131 001a 8142     		cmp	r1, r0
 132 001c 04D8     		bhi	.L11
 133              		.loc 1 29 0
 134 001e 9B5C     		ldrb	r3, [r3, r2]
 135 0020 002B     		cmp	r3, #0
 136 0022 03D0     		beq	.L15
 137              	.L10:
 138              		.loc 1 37 0
 139 0024 2000     		movs	r0, r4
 140              		@ sp needed
 141 0026 70BD     		pop	{r4, r5, r6, pc}
 142              	.L11:
 143              		.loc 1 36 0
 144 0028 0024     		movs	r4, #0
 145 002a FBE7     		b	.L10
 146              	.L15:
 147              		.loc 1 30 0
 148 002c FFF7FEFF 		bl	HAL_GetTick
 149              	.LVL8:
 150 0030 A860     		str	r0, [r5, #8]
 151 0032 F7E7     		b	.L10
 152              	.L17:
 153              		.align	2
 154              	.L16:
 155 0034 00000000 		.word	.LANCHOR1
 156              		.cfi_endproc
 157              	.LFE38:
 158              		.size	swtimer_is_timeout, .-swtimer_is_timeout
 159              		.section	.text.swtimer_start,"ax",%progbits
 160              		.align	1
 161              		.p2align 2,,3
 162              		.global	swtimer_start
 163              		.syntax unified
 164              		.code	16
 165              		.thumb_func
 166              		.fpu softvfp
 167              		.type	swtimer_start, %function
 168              	swtimer_start:
 169              	.LFB39:
 170              		.loc 1 39 0
 171              		.cfi_startproc
ARM GAS  C:\Users\anashi\AppData\Local\Temp\ccOc9r4F.s 			page 4


 172              		@ args = 0, pretend = 0, frame = 0
 173              		@ frame_needed = 0, uses_anonymous_args = 0
 174              	.LVL9:
 175 0000 70B5     		push	{r4, r5, r6, lr}
 176              		.cfi_def_cfa_offset 16
 177              		.cfi_offset 4, -16
 178              		.cfi_offset 5, -12
 179              		.cfi_offset 6, -8
 180              		.cfi_offset 14, -4
 181              		.loc 1 40 0
 182 0002 074D     		ldr	r5, .L22
 183 0004 0401     		lsls	r4, r0, #4
 184 0006 635D     		ldrb	r3, [r4, r5]
 185              		.loc 1 41 0
 186 0008 0020     		movs	r0, #0
 187              	.LVL10:
 188              		.loc 1 40 0
 189 000a 002B     		cmp	r3, #0
 190 000c 06D0     		beq	.L19
 191              		.loc 1 44 0
 192 000e FFF7FEFF 		bl	HAL_GetTick
 193              	.LVL11:
 194 0012 2C19     		adds	r4, r5, r4
 195              		.loc 1 45 0
 196 0014 0123     		movs	r3, #1
 197              		.loc 1 44 0
 198 0016 A060     		str	r0, [r4, #8]
 199              		.loc 1 46 0
 200 0018 0120     		movs	r0, #1
 201              		.loc 1 45 0
 202 001a 2373     		strb	r3, [r4, #12]
 203              	.L19:
 204              		.loc 1 47 0
 205              		@ sp needed
 206 001c 70BD     		pop	{r4, r5, r6, pc}
 207              	.L23:
 208 001e C046     		.align	2
 209              	.L22:
 210 0020 00000000 		.word	.LANCHOR1
 211              		.cfi_endproc
 212              	.LFE39:
 213              		.size	swtimer_start, .-swtimer_start
 214              		.section	.text.swtimer_stop,"ax",%progbits
 215              		.align	1
 216              		.p2align 2,,3
 217              		.global	swtimer_stop
 218              		.syntax unified
 219              		.code	16
 220              		.thumb_func
 221              		.fpu softvfp
 222              		.type	swtimer_stop, %function
 223              	swtimer_stop:
 224              	.LFB40:
 225              		.loc 1 49 0
 226              		.cfi_startproc
 227              		@ args = 0, pretend = 0, frame = 0
 228              		@ frame_needed = 0, uses_anonymous_args = 0
ARM GAS  C:\Users\anashi\AppData\Local\Temp\ccOc9r4F.s 			page 5


 229              		@ link register save eliminated.
 230              	.LVL12:
 231              		.loc 1 50 0
 232 0000 044A     		ldr	r2, .L28
 233 0002 0301     		lsls	r3, r0, #4
 234 0004 995C     		ldrb	r1, [r3, r2]
 235              		.loc 1 51 0
 236 0006 0020     		movs	r0, #0
 237              	.LVL13:
 238              		.loc 1 50 0
 239 0008 0029     		cmp	r1, #0
 240 000a 02D0     		beq	.L25
 241              		.loc 1 54 0
 242 000c D318     		adds	r3, r2, r3
 243 000e 1873     		strb	r0, [r3, #12]
 244              		.loc 1 55 0
 245 0010 0130     		adds	r0, r0, #1
 246              	.L25:
 247              		.loc 1 56 0
 248              		@ sp needed
 249 0012 7047     		bx	lr
 250              	.L29:
 251              		.align	2
 252              	.L28:
 253 0014 00000000 		.word	.LANCHOR1
 254              		.cfi_endproc
 255              	.LFE40:
 256              		.size	swtimer_stop, .-swtimer_stop
 257              		.section	.bss.sw_timer_ms_count,"aw",%nobits
 258              		.set	.LANCHOR0,. + 0
 259              		.type	sw_timer_ms_count, %object
 260              		.size	sw_timer_ms_count, 1
 261              	sw_timer_ms_count:
 262 0000 00       		.space	1
 263              		.section	.bss.sw_timers,"aw",%nobits
 264              		.align	2
 265              		.set	.LANCHOR1,. + 0
 266              		.type	sw_timers, %object
 267              		.size	sw_timers, 80
 268              	sw_timers:
 269 0000 00000000 		.space	80
 269      00000000 
 269      00000000 
 269      00000000 
 269      00000000 
 270              		.text
 271              	.Letext0:
 272              		.file 2 "c:\\st\\stm32cubeide_1.1.0\\stm32cubeide\\plugins\\com.st.stm32cube.ide.mcu.externaltools
 273              		.file 3 "c:\\st\\stm32cubeide_1.1.0\\stm32cubeide\\plugins\\com.st.stm32cube.ide.mcu.externaltools
 274              		.file 4 "C:/repos/rs2all/board/Drivers/CMSIS/Device/ST/STM32F0xx/Include/system_stm32f0xx.h"
 275              		.file 5 "c:\\st\\stm32cubeide_1.1.0\\stm32cubeide\\plugins\\com.st.stm32cube.ide.mcu.externaltools
 276              		.file 6 "c:\\st\\stm32cubeide_1.1.0\\stm32cubeide\\plugins\\com.st.stm32cube.ide.mcu.externaltools
 277              		.file 7 "c:\\st\\stm32cubeide_1.1.0\\stm32cubeide\\plugins\\com.st.stm32cube.ide.mcu.externaltools
 278              		.file 8 "c:\\st\\stm32cubeide_1.1.0\\stm32cubeide\\plugins\\com.st.stm32cube.ide.mcu.externaltools
 279              		.file 9 "C:/repos/rs2all/components/swtimer/src/swtimer.h"
 280              		.file 10 "C:/repos/rs2all/board/Drivers/STM32F0xx_HAL_Driver/Inc/stm32f0xx_hal.h"
