Archive member included to satisfy reference by file (symbol)

c:/st/stm32cubeide_1.1.0/stm32cubeide/plugins/com.st.stm32cube.ide.mcu.externaltools.gnu-arm-embedded.7-2018-q2-update.win32_1.0.0.201904081647/tools/bin/../lib/gcc/arm-none-eabi/7.3.1/../../../../arm-none-eabi/lib/thumb/v6-m\libc_nano.a(lib_a-errno.o)
                              build/RS2ALL_UIO_obj/sysmem.o (__errno)
c:/st/stm32cubeide_1.1.0/stm32cubeide/plugins/com.st.stm32cube.ide.mcu.externaltools.gnu-arm-embedded.7-2018-q2-update.win32_1.0.0.201904081647/tools/bin/../lib/gcc/arm-none-eabi/7.3.1/../../../../arm-none-eabi/lib/thumb/v6-m\libc_nano.a(lib_a-exit.o)
                              c:/st/stm32cubeide_1.1.0/stm32cubeide/plugins/com.st.stm32cube.ide.mcu.externaltools.gnu-arm-embedded.7-2018-q2-update.win32_1.0.0.201904081647/tools/bin/../lib/gcc/arm-none-eabi/7.3.1/../../../../arm-none-eabi/lib/thumb/v6-m/crt0.o (exit)
c:/st/stm32cubeide_1.1.0/stm32cubeide/plugins/com.st.stm32cube.ide.mcu.externaltools.gnu-arm-embedded.7-2018-q2-update.win32_1.0.0.201904081647/tools/bin/../lib/gcc/arm-none-eabi/7.3.1/../../../../arm-none-eabi/lib/thumb/v6-m\libc_nano.a(lib_a-impure.o)
                              c:/st/stm32cubeide_1.1.0/stm32cubeide/plugins/com.st.stm32cube.ide.mcu.externaltools.gnu-arm-embedded.7-2018-q2-update.win32_1.0.0.201904081647/tools/bin/../lib/gcc/arm-none-eabi/7.3.1/../../../../arm-none-eabi/lib/thumb/v6-m\libc_nano.a(lib_a-exit.o) (_global_impure_ptr)
c:/st/stm32cubeide_1.1.0/stm32cubeide/plugins/com.st.stm32cube.ide.mcu.externaltools.gnu-arm-embedded.7-2018-q2-update.win32_1.0.0.201904081647/tools/bin/../lib/gcc/arm-none-eabi/7.3.1/../../../../arm-none-eabi/lib/thumb/v6-m\libc_nano.a(lib_a-init.o)
                              c:/st/stm32cubeide_1.1.0/stm32cubeide/plugins/com.st.stm32cube.ide.mcu.externaltools.gnu-arm-embedded.7-2018-q2-update.win32_1.0.0.201904081647/tools/bin/../lib/gcc/arm-none-eabi/7.3.1/../../../../arm-none-eabi/lib/thumb/v6-m/crt0.o (__libc_init_array)
c:/st/stm32cubeide_1.1.0/stm32cubeide/plugins/com.st.stm32cube.ide.mcu.externaltools.gnu-arm-embedded.7-2018-q2-update.win32_1.0.0.201904081647/tools/bin/../lib/gcc/arm-none-eabi/7.3.1/../../../../arm-none-eabi/lib/thumb/v6-m\libc_nano.a(lib_a-memcpy-stub.o)
                              build/RS2ALL_UIO_obj/registers.o (memcpy)
c:/st/stm32cubeide_1.1.0/stm32cubeide/plugins/com.st.stm32cube.ide.mcu.externaltools.gnu-arm-embedded.7-2018-q2-update.win32_1.0.0.201904081647/tools/bin/../lib/gcc/arm-none-eabi/7.3.1/../../../../arm-none-eabi/lib/thumb/v6-m\libc_nano.a(lib_a-memset.o)
                              c:/st/stm32cubeide_1.1.0/stm32cubeide/plugins/com.st.stm32cube.ide.mcu.externaltools.gnu-arm-embedded.7-2018-q2-update.win32_1.0.0.201904081647/tools/bin/../lib/gcc/arm-none-eabi/7.3.1/../../../../arm-none-eabi/lib/thumb/v6-m/crt0.o (memset)
c:/st/stm32cubeide_1.1.0/stm32cubeide/plugins/com.st.stm32cube.ide.mcu.externaltools.gnu-arm-embedded.7-2018-q2-update.win32_1.0.0.201904081647/tools/bin/../lib/gcc/arm-none-eabi/7.3.1/thumb/v6-m\libgcc.a(_udivsi3.o)
                              build/RS2ALL_UIO_obj/stm32f0xx_hal.o (__aeabi_uidiv)
c:/st/stm32cubeide_1.1.0/stm32cubeide/plugins/com.st.stm32cube.ide.mcu.externaltools.gnu-arm-embedded.7-2018-q2-update.win32_1.0.0.201904081647/tools/bin/../lib/gcc/arm-none-eabi/7.3.1/thumb/v6-m\libgcc.a(_divsi3.o)
                              build/RS2ALL_UIO_obj/stm32f0xx_hal_rcc.o (__aeabi_idiv)
c:/st/stm32cubeide_1.1.0/stm32cubeide/plugins/com.st.stm32cube.ide.mcu.externaltools.gnu-arm-embedded.7-2018-q2-update.win32_1.0.0.201904081647/tools/bin/../lib/gcc/arm-none-eabi/7.3.1/thumb/v6-m\libgcc.a(_dvmd_tls.o)
                              c:/st/stm32cubeide_1.1.0/stm32cubeide/plugins/com.st.stm32cube.ide.mcu.externaltools.gnu-arm-embedded.7-2018-q2-update.win32_1.0.0.201904081647/tools/bin/../lib/gcc/arm-none-eabi/7.3.1/thumb/v6-m\libgcc.a(_udivsi3.o) (__aeabi_idiv0)
c:/st/stm32cubeide_1.1.0/stm32cubeide/plugins/com.st.stm32cube.ide.mcu.externaltools.gnu-arm-embedded.7-2018-q2-update.win32_1.0.0.201904081647/tools/bin/../lib/gcc/arm-none-eabi/7.3.1/thumb/v6-m\libgcc.a(_fixunssfsi.o)
                              build/RS2ALL_UIO_obj/uio.o (__aeabi_f2uiz)
c:/st/stm32cubeide_1.1.0/stm32cubeide/plugins/com.st.stm32cube.ide.mcu.externaltools.gnu-arm-embedded.7-2018-q2-update.win32_1.0.0.201904081647/tools/bin/../lib/gcc/arm-none-eabi/7.3.1/thumb/v6-m\libgcc.a(mulsf3.o)
                              build/RS2ALL_UIO_obj/uio.o (__aeabi_fmul)
c:/st/stm32cubeide_1.1.0/stm32cubeide/plugins/com.st.stm32cube.ide.mcu.externaltools.gnu-arm-embedded.7-2018-q2-update.win32_1.0.0.201904081647/tools/bin/../lib/gcc/arm-none-eabi/7.3.1/thumb/v6-m\libgcc.a(subsf3.o)
                              c:/st/stm32cubeide_1.1.0/stm32cubeide/plugins/com.st.stm32cube.ide.mcu.externaltools.gnu-arm-embedded.7-2018-q2-update.win32_1.0.0.201904081647/tools/bin/../lib/gcc/arm-none-eabi/7.3.1/thumb/v6-m\libgcc.a(_fixunssfsi.o) (__aeabi_fsub)
c:/st/stm32cubeide_1.1.0/stm32cubeide/plugins/com.st.stm32cube.ide.mcu.externaltools.gnu-arm-embedded.7-2018-q2-update.win32_1.0.0.201904081647/tools/bin/../lib/gcc/arm-none-eabi/7.3.1/thumb/v6-m\libgcc.a(fixsfsi.o)
                              c:/st/stm32cubeide_1.1.0/stm32cubeide/plugins/com.st.stm32cube.ide.mcu.externaltools.gnu-arm-embedded.7-2018-q2-update.win32_1.0.0.201904081647/tools/bin/../lib/gcc/arm-none-eabi/7.3.1/thumb/v6-m\libgcc.a(_fixunssfsi.o) (__aeabi_f2iz)
c:/st/stm32cubeide_1.1.0/stm32cubeide/plugins/com.st.stm32cube.ide.mcu.externaltools.gnu-arm-embedded.7-2018-q2-update.win32_1.0.0.201904081647/tools/bin/../lib/gcc/arm-none-eabi/7.3.1/thumb/v6-m\libgcc.a(floatsisf.o)
                              build/RS2ALL_UIO_obj/uio.o (__aeabi_i2f)
c:/st/stm32cubeide_1.1.0/stm32cubeide/plugins/com.st.stm32cube.ide.mcu.externaltools.gnu-arm-embedded.7-2018-q2-update.win32_1.0.0.201904081647/tools/bin/../lib/gcc/arm-none-eabi/7.3.1/thumb/v6-m\libgcc.a(_arm_cmpsf2.o)
                              c:/st/stm32cubeide_1.1.0/stm32cubeide/plugins/com.st.stm32cube.ide.mcu.externaltools.gnu-arm-embedded.7-2018-q2-update.win32_1.0.0.201904081647/tools/bin/../lib/gcc/arm-none-eabi/7.3.1/thumb/v6-m\libgcc.a(_fixunssfsi.o) (__aeabi_fcmpge)
c:/st/stm32cubeide_1.1.0/stm32cubeide/plugins/com.st.stm32cube.ide.mcu.externaltools.gnu-arm-embedded.7-2018-q2-update.win32_1.0.0.201904081647/tools/bin/../lib/gcc/arm-none-eabi/7.3.1/thumb/v6-m\libgcc.a(_clzsi2.o)
                              c:/st/stm32cubeide_1.1.0/stm32cubeide/plugins/com.st.stm32cube.ide.mcu.externaltools.gnu-arm-embedded.7-2018-q2-update.win32_1.0.0.201904081647/tools/bin/../lib/gcc/arm-none-eabi/7.3.1/thumb/v6-m\libgcc.a(mulsf3.o) (__clzsi2)
c:/st/stm32cubeide_1.1.0/stm32cubeide/plugins/com.st.stm32cube.ide.mcu.externaltools.gnu-arm-embedded.7-2018-q2-update.win32_1.0.0.201904081647/tools/bin/../lib/gcc/arm-none-eabi/7.3.1/thumb/v6-m\libgcc.a(eqsf2.o)
                              c:/st/stm32cubeide_1.1.0/stm32cubeide/plugins/com.st.stm32cube.ide.mcu.externaltools.gnu-arm-embedded.7-2018-q2-update.win32_1.0.0.201904081647/tools/bin/../lib/gcc/arm-none-eabi/7.3.1/thumb/v6-m\libgcc.a(_arm_cmpsf2.o) (__eqsf2)
c:/st/stm32cubeide_1.1.0/stm32cubeide/plugins/com.st.stm32cube.ide.mcu.externaltools.gnu-arm-embedded.7-2018-q2-update.win32_1.0.0.201904081647/tools/bin/../lib/gcc/arm-none-eabi/7.3.1/thumb/v6-m\libgcc.a(gesf2.o)
                              c:/st/stm32cubeide_1.1.0/stm32cubeide/plugins/com.st.stm32cube.ide.mcu.externaltools.gnu-arm-embedded.7-2018-q2-update.win32_1.0.0.201904081647/tools/bin/../lib/gcc/arm-none-eabi/7.3.1/thumb/v6-m\libgcc.a(_arm_cmpsf2.o) (__gesf2)
c:/st/stm32cubeide_1.1.0/stm32cubeide/plugins/com.st.stm32cube.ide.mcu.externaltools.gnu-arm-embedded.7-2018-q2-update.win32_1.0.0.201904081647/tools/bin/../lib/gcc/arm-none-eabi/7.3.1/thumb/v6-m\libgcc.a(lesf2.o)
                              c:/st/stm32cubeide_1.1.0/stm32cubeide/plugins/com.st.stm32cube.ide.mcu.externaltools.gnu-arm-embedded.7-2018-q2-update.win32_1.0.0.201904081647/tools/bin/../lib/gcc/arm-none-eabi/7.3.1/thumb/v6-m\libgcc.a(_arm_cmpsf2.o) (__lesf2)

Discarded input sections

 .text          0x00000000        0x0 c:/st/stm32cubeide_1.1.0/stm32cubeide/plugins/com.st.stm32cube.ide.mcu.externaltools.gnu-arm-embedded.7-2018-q2-update.win32_1.0.0.201904081647/tools/bin/../lib/gcc/arm-none-eabi/7.3.1/thumb/v6-m/crti.o
 .data          0x00000000        0x0 c:/st/stm32cubeide_1.1.0/stm32cubeide/plugins/com.st.stm32cube.ide.mcu.externaltools.gnu-arm-embedded.7-2018-q2-update.win32_1.0.0.201904081647/tools/bin/../lib/gcc/arm-none-eabi/7.3.1/thumb/v6-m/crti.o
 .bss           0x00000000        0x0 c:/st/stm32cubeide_1.1.0/stm32cubeide/plugins/com.st.stm32cube.ide.mcu.externaltools.gnu-arm-embedded.7-2018-q2-update.win32_1.0.0.201904081647/tools/bin/../lib/gcc/arm-none-eabi/7.3.1/thumb/v6-m/crti.o
 .data          0x00000000        0x4 c:/st/stm32cubeide_1.1.0/stm32cubeide/plugins/com.st.stm32cube.ide.mcu.externaltools.gnu-arm-embedded.7-2018-q2-update.win32_1.0.0.201904081647/tools/bin/../lib/gcc/arm-none-eabi/7.3.1/thumb/v6-m/crtbegin.o
 .text          0x00000000       0x78 c:/st/stm32cubeide_1.1.0/stm32cubeide/plugins/com.st.stm32cube.ide.mcu.externaltools.gnu-arm-embedded.7-2018-q2-update.win32_1.0.0.201904081647/tools/bin/../lib/gcc/arm-none-eabi/7.3.1/../../../../arm-none-eabi/lib/thumb/v6-m/crt0.o
 .data          0x00000000        0x0 c:/st/stm32cubeide_1.1.0/stm32cubeide/plugins/com.st.stm32cube.ide.mcu.externaltools.gnu-arm-embedded.7-2018-q2-update.win32_1.0.0.201904081647/tools/bin/../lib/gcc/arm-none-eabi/7.3.1/../../../../arm-none-eabi/lib/thumb/v6-m/crt0.o
 .bss           0x00000000        0x0 c:/st/stm32cubeide_1.1.0/stm32cubeide/plugins/com.st.stm32cube.ide.mcu.externaltools.gnu-arm-embedded.7-2018-q2-update.win32_1.0.0.201904081647/tools/bin/../lib/gcc/arm-none-eabi/7.3.1/../../../../arm-none-eabi/lib/thumb/v6-m/crt0.o
 .ARM.extab     0x00000000        0x0 c:/st/stm32cubeide_1.1.0/stm32cubeide/plugins/com.st.stm32cube.ide.mcu.externaltools.gnu-arm-embedded.7-2018-q2-update.win32_1.0.0.201904081647/tools/bin/../lib/gcc/arm-none-eabi/7.3.1/../../../../arm-none-eabi/lib/thumb/v6-m/crt0.o
 .ARM.exidx     0x00000000        0x8 c:/st/stm32cubeide_1.1.0/stm32cubeide/plugins/com.st.stm32cube.ide.mcu.externaltools.gnu-arm-embedded.7-2018-q2-update.win32_1.0.0.201904081647/tools/bin/../lib/gcc/arm-none-eabi/7.3.1/../../../../arm-none-eabi/lib/thumb/v6-m/crt0.o
 .ARM.attributes
                0x00000000       0x1b c:/st/stm32cubeide_1.1.0/stm32cubeide/plugins/com.st.stm32cube.ide.mcu.externaltools.gnu-arm-embedded.7-2018-q2-update.win32_1.0.0.201904081647/tools/bin/../lib/gcc/arm-none-eabi/7.3.1/../../../../arm-none-eabi/lib/thumb/v6-m/crt0.o
 .text          0x00000000       0x14 build/RS2ALL_UIO_obj/startup_stm32f030k6tx.o
 .data          0x00000000        0x0 build/RS2ALL_UIO_obj/startup_stm32f030k6tx.o
 .bss           0x00000000        0x0 build/RS2ALL_UIO_obj/startup_stm32f030k6tx.o
 .text          0x00000000        0x0 build/RS2ALL_UIO_obj/main.o
 .data          0x00000000        0x0 build/RS2ALL_UIO_obj/main.o
 .bss           0x00000000        0x0 build/RS2ALL_UIO_obj/main.o
 .text          0x00000000        0x0 build/RS2ALL_UIO_obj/stm32f0xx_hal.o
Memory Configuration

Name             Origin             Length             Attributes
RAM              0x20000000         0x00001000         xrw
FLASH            0x08000000         0x00008000         xr
*default*        0x00000000         0xffffffff

Linker script and memory map

LOAD c:/st/stm32cubeide_1.1.0/stm32cubeide/plugins/com.st.stm32cube.ide.mcu.externaltools.gnu-arm-embedded.7-2018-q2-update.win32_1.0.0.201904081647/tools/bin/../lib/gcc/arm-none-eabi/7.3.1/thumb/v6-m/crti.o
LOAD c:/st/stm32cubeide_1.1.0/stm32cubeide/plugins/com.st.stm32cube.ide.mcu.externaltools.gnu-arm-embedded.7-2018-q2-update.win32_1.0.0.201904081647/tools/bin/../lib/gcc/arm-none-eabi/7.3.1/thumb/v6-m/crtbegin.o
LOAD c:/st/stm32cubeide_1.1.0/stm32cubeide/plugins/com.st.stm32cube.ide.mcu.externaltools.gnu-arm-embedded.7-2018-q2-update.win32_1.0.0.201904081647/tools/bin/../lib/gcc/arm-none-eabi/7.3.1/../../../../arm-none-eabi/lib/thumb/v6-m/crt0.o
LOAD build/RS2ALL_UIO_obj/startup_stm32f030k6tx.o
LOAD build/RS2ALL_UIO_obj/main.o
LOAD build/RS2ALL_UIO_obj/stm32f0xx_hal.o
LOAD build/RS2ALL_UIO_obj/stm32f0xx_hal_adc.o
LOAD build/RS2ALL_UIO_obj/stm32f0xx_hal_adc_ex.o
LOAD build/RS2ALL_UIO_obj/stm32f0xx_hal_cortex.o
LOAD build/RS2ALL_UIO_obj/stm32f0xx_hal_dma.o
LOAD build/RS2ALL_UIO_obj/stm32f0xx_hal_flash.o
LOAD build/RS2ALL_UIO_obj/stm32f0xx_hal_flash_ex.o
LOAD build/RS2ALL_UIO_obj/stm32f0xx_hal_gpio.o
LOAD build/RS2ALL_UIO_obj/stm32f0xx_hal_iwdg.o
LOAD build/RS2ALL_UIO_obj/stm32f0xx_hal_i2c.o
LOAD build/RS2ALL_UIO_obj/stm32f0xx_hal_i2c_ex.o
LOAD build/RS2ALL_UIO_obj/stm32f0xx_hal_pwr.o
LOAD build/RS2ALL_UIO_obj/stm32f0xx_hal_pwr_ex.o
LOAD build/RS2ALL_UIO_obj/stm32f0xx_hal_rcc.o
LOAD build/RS2ALL_UIO_obj/stm32f0xx_hal_rcc_ex.o
LOAD build/RS2ALL_UIO_obj/stm32f0xx_hal_tim.o
LOAD build/RS2ALL_UIO_obj/stm32f0xx_hal_tim_ex.o
LOAD build/RS2ALL_UIO_obj/stm32f0xx_hal_uart.o
LOAD build/RS2ALL_UIO_obj/stm32f0xx_hal_uart_ex.o
LOAD build/RS2ALL_UIO_obj/system_stm32f0xx.o
LOAD build/RS2ALL_UIO_obj/sysmem.o
LOAD build/RS2ALL_UIO_obj/syscalls.o
LOAD build/RS2ALL_UIO_obj/clock.o
LOAD build/RS2ALL_UIO_obj/systick.o
LOAD build/RS2ALL_UIO_obj/led.o
LOAD build/RS2ALL_UIO_obj/mbfunccoils.o
LOAD build/RS2ALL_UIO_obj/mbfuncdiag.o
LOAD build/RS2ALL_UIO_obj/mbfuncdisc.o
LOAD build/RS2ALL_UIO_obj/mbfuncholding.o
LOAD build/RS2ALL_UIO_obj/mbfuncinput.o
LOAD build/RS2ALL_UIO_obj/mbfuncother.o
LOAD build/RS2ALL_UIO_obj/mbutils.o
LOAD build/RS2ALL_UIO_obj/mbcrc.o
LOAD build/RS2ALL_UIO_obj/mbrtu.o
LOAD build/RS2ALL_UIO_obj/mb.o
LOAD build/RS2ALL_UIO_obj/portevent.o
LOAD build/RS2ALL_UIO_obj/portserial.o
LOAD build/RS2ALL_UIO_obj/porttimer.o
LOAD build/RS2ALL_UIO_obj/registers.o
LOAD build/RS2ALL_UIO_obj/modbus.o
LOAD build/RS2ALL_UIO_obj/swtimer.o
LOAD build/RS2ALL_UIO_obj/uio.o
LOAD c:/st/stm32cubeide_1.1.0/stm32cubeide/plugins/com.st.stm32cube.ide.mcu.externaltools.gnu-arm-embedded.7-2018-q2-update.win32_1.0.0.201904081647/tools/bin/../lib/gcc/arm-none-eabi/7.3.1/../../../../arm-none-eabi/lib/thumb/v6-m\libc_nano.a
LOAD c:/st/stm32cubeide_1.1.0/stm32cubeide/plugins/com.st.stm32cube.ide.mcu.externaltools.gnu-arm-embedded.7-2018-q2-update.win32_1.0.0.201904081647/tools/bin/../lib/gcc/arm-none-eabi/7.3.1/../../../../arm-none-eabi/lib/thumb/v6-m\libm.a
LOAD c:/st/stm32cubeide_1.1.0/stm32cubeide/plugins/com.st.stm32cube.ide.mcu.externaltools.gnu-arm-embedded.7-2018-q2-update.win32_1.0.0.201904081647/tools/bin/../lib/gcc/arm-none-eabi/7.3.1/../../../../arm-none-eabi/lib/thumb/v6-m\libnosys.a
                0x20001000                _estack = (ORIGIN (RAM) + LENGTH (RAM))
                0x00000200                _Min_Heap_Size = 0x200
                0x00000400                _Min_Stack_Size = 0x400

.isr_vector     0x08000000       0xc0
                0x08000000                . = ALIGN (0x4)
 *(.isr_vector)
 .isr_vector    0x08000000       0xc0 build/RS2ALL_UIO_obj/startup_stm32f030k6tx.o
                0x08000000                g_pfnVectors
                0x080000c0                . = ALIGN (0x4)

.text           0x080000c0     0x3cb0
                0x080000c0                . = ALIGN (0x4)
 *(.text)
 .text          0x080000c0       0x48 c:/st/stm32cubeide_1.1.0/stm32cubeide/plugins/com.st.stm32cube.ide.mcu.externaltools.gnu-arm-embedded.7-2018-q2-update.win32_1.0.0.201904081647/tools/bin/../lib/gcc/arm-none-eabi/7.3.1/thumb/v6-m/crtbegin.o
 .text          0x08000108      0x114 c:/st/stm32cubeide_1.1.0/stm32cubeide/plugins/com.st.stm32cube.ide.mcu.externaltools.gnu-arm-embedded.7-2018-q2-update.win32_1.0.0.201904081647/tools/bin/../lib/gcc/arm-none-eabi/7.3.1/thumb/v6-m\libgcc.a(_udivsi3.o)
                0x08000108                __aeabi_uidiv
                0x08000108                __udivsi3
                0x08000214                __aeabi_uidivmod
 .text          0x0800021c        0x4 c:/st/stm32cubeide_1.1.0/stm32cubeide/plugins/com.st.stm32cube.ide.mcu.externaltools.gnu-arm-embedded.7-2018-q2-update.win32_1.0.0.201904081647/tools/bin/../lib/gcc/arm-none-eabi/7.3.1/thumb/v6-m\libgcc.a(_dvmd_tls.o)
                0x0800021c                __aeabi_idiv0
                0x0800021c                __aeabi_ldiv0
 .text          0x08000220       0x30 c:/st/stm32cubeide_1.1.0/stm32cubeide/plugins/com.st.stm32cube.ide.mcu.externaltools.gnu-arm-embedded.7-2018-q2-update.win32_1.0.0.201904081647/tools/bin/../lib/gcc/arm-none-eabi/7.3.1/thumb/v6-m\libgcc.a(_fixunssfsi.o)
                0x08000220                __fixunssfsi
                0x08000220                __aeabi_f2uiz
 .text          0x08000250      0x264 c:/st/stm32cubeide_1.1.0/stm32cubeide/plugins/com.st.stm32cube.ide.mcu.externaltools.gnu-arm-embedded.7-2018-q2-update.win32_1.0.0.201904081647/tools/bin/../lib/gcc/arm-none-eabi/7.3.1/thumb/v6-m\libgcc.a(mulsf3.o)
                0x08000250                __aeabi_fmul
 .text          0x080004b4      0x388 c:/st/stm32cubeide_1.1.0/stm32cubeide/plugins/com.st.stm32cube.ide.mcu.externaltools.gnu-arm-embedded.7-2018-q2-update.win32_1.0.0.201904081647/tools/bin/../lib/gcc/arm-none-eabi/7.3.1/thumb/v6-m\libgcc.a(subsf3.o)
                0x080004b4                __aeabi_fsub
 .text          0x0800083c       0x40 c:/st/stm32cubeide_1.1.0/stm32cubeide/plugins/com.st.stm32cube.ide.mcu.externaltools.gnu-arm-embedded.7-2018-q2-update.win32_1.0.0.201904081647/tools/bin/../lib/gcc/arm-none-eabi/7.3.1/thumb/v6-m\libgcc.a(fixsfsi.o)
                0x0800083c                __aeabi_f2iz
 .text          0x0800087c       0x94 c:/st/stm32cubeide_1.1.0/stm32cubeide/plugins/com.st.stm32cube.ide.mcu.externaltools.gnu-arm-embedded.7-2018-q2-update.win32_1.0.0.201904081647/tools/bin/../lib/gcc/arm-none-eabi/7.3.1/thumb/v6-m\libgcc.a(floatsisf.o)
                0x0800087c                __aeabi_i2f
 .text          0x08000910       0x74 c:/st/stm32cubeide_1.1.0/stm32cubeide/plugins/com.st.stm32cube.ide.mcu.externaltools.gnu-arm-embedded.7-2018-q2-update.win32_1.0.0.201904081647/tools/bin/../lib/gcc/arm-none-eabi/7.3.1/thumb/v6-m\libgcc.a(_arm_cmpsf2.o)
                0x08000910                __aeabi_cfrcmple
                0x08000918                __aeabi_cfcmpeq
                0x08000918                __aeabi_cfcmple
                0x08000928                __aeabi_fcmpeq
                0x08000934                __aeabi_fcmplt
                0x08000948                __aeabi_fcmple
                0x0800095c                __aeabi_fcmpgt
                0x08000970                __aeabi_fcmpge
 .text          0x08000984       0x3c c:/st/stm32cubeide_1.1.0/stm32cubeide/plugins/com.st.stm32cube.ide.mcu.externaltools.gnu-arm-embedded.7-2018-q2-update.win32_1.0.0.201904081647/tools/bin/../lib/gcc/arm-none-eabi/7.3.1/thumb/v6-m\libgcc.a(_clzsi2.o)
                0x08000984                __clzsi2
 .text          0x080009c0       0x50 c:/st/stm32cubeide_1.1.0/stm32cubeide/plugins/com.st.stm32cube.ide.mcu.externaltools.gnu-arm-embedded.7-2018-q2-update.win32_1.0.0.201904081647/tools/bin/../lib/gcc/arm-none-eabi/7.3.1/thumb/v6-m\libgcc.a(eqsf2.o)
                0x080009c0                __eqsf2
                0x080009c0                __nesf2
 .text          0x08000a10       0x9c c:/st/stm32cubeide_1.1.0/stm32cubeide/plugins/com.st.stm32cube.ide.mcu.externaltools.gnu-arm-embedded.7-2018-q2-update.win32_1.0.0.201904081647/tools/bin/../lib/gcc/arm-none-eabi/7.3.1/thumb/v6-m\libgcc.a(gesf2.o)
                0x08000a10                __gesf2
                0x08000a10                __gtsf2
 .text          0x08000aac       0xa0 c:/st/stm32cubeide_1.1.0/stm32cubeide/plugins/com.st.stm32cube.ide.mcu.externaltools.gnu-arm-embedded.7-2018-q2-update.win32_1.0.0.201904081647/tools/bin/../lib/gcc/arm-none-eabi/7.3.1/thumb/v6-m\libgcc.a(lesf2.o)
                0x08000aac                __ltsf2
                0x08000aac                __lesf2
 *(.text*)
 .text.Reset_Handler
                0x08000b4c       0x50 build/RS2ALL_UIO_obj/startup_stm32f030k6tx.o
                0x08000b4c                Reset_Handler
 .text.Default_Handler
                0x08000b9c        0x2 build/RS2ALL_UIO_obj/startup_stm32f030k6tx.o
                0x08000b9c                TIM1_CC_IRQHandler
                0x08000b9c                HardFault_Handler
                0x08000b9c                PendSV_Handler
                0x08000b9c                NMI_Handler
                0x08000b9c                I2C1_IRQHandler
                0x08000b9c                SPI1_IRQHandler
                0x08000b9c                ADC1_IRQHandler
                0x08000b9c                TIM17_IRQHandler
                0x08000b9c                RTC_IRQHandler
                0x08000b9c                TIM16_IRQHandler
                0x08000b9c                TIM3_IRQHandler
                0x08000b9c                RCC_IRQHandler
                0x08000b9c                DMA1_Channel1_IRQHandler
                0x08000b9c                Default_Handler
                0x08000b9c                DMA1_Channel4_5_IRQHandler
                0x08000b9c                SVC_Handler
                0x08000b9c                WWDG_IRQHandler
                0x08000b9c                DMA1_Channel2_3_IRQHandler
                0x08000b9c                FLASH_IRQHandler
                0x08000b9c                TIM1_BRK_UP_TRG_COM_IRQHandler
 *fill*         0x08000b9e        0x2 
 .text.startup.main
                0x08000ba0      0x1a4 build/RS2ALL_UIO_obj/main.o
                0x08000ba0                main
 .text.HAL_InitTick
                0x08000d44       0x24 build/RS2ALL_UIO_obj/stm32f0xx_hal.o
                0x08000d44                HAL_InitTick
 .text.HAL_Init
                0x08000d68       0x20 build/RS2ALL_UIO_obj/stm32f0xx_hal.o
                0x08000d68                HAL_Init
 .text.HAL_IncTick
                0x08000d88       0x10 build/RS2ALL_UIO_obj/stm32f0xx_hal.o
                0x08000d88                HAL_IncTick
 .text.HAL_GetTick
                0x08000d98        0xc build/RS2ALL_UIO_obj/stm32f0xx_hal.o
                0x08000d98                HAL_GetTick
 .text.HAL_ADC_MspInit
                0x08000da4        0x4 build/RS2ALL_UIO_obj/stm32f0xx_hal_adc.o
                0x08000da4                HAL_ADC_MspInit
 .text.HAL_ADC_Init
                0x08000da8      0x154 build/RS2ALL_UIO_obj/stm32f0xx_hal_adc.o
                0x08000da8                HAL_ADC_Init
 .text.HAL_ADC_Start
                0x08000efc       0xec build/RS2ALL_UIO_obj/stm32f0xx_hal_adc.o
                0x08000efc                HAL_ADC_Start
 .text.HAL_ADC_Stop
                0x08000fe8       0xdc build/RS2ALL_UIO_obj/stm32f0xx_hal_adc.o
                0x08000fe8                HAL_ADC_Stop
 .text.HAL_ADC_PollForConversion
                0x080010c4       0xc0 build/RS2ALL_UIO_obj/stm32f0xx_hal_adc.o
                0x080010c4                HAL_ADC_PollForConversion
 .text.HAL_ADC_GetValue
                0x08001184        0x8 build/RS2ALL_UIO_obj/stm32f0xx_hal_adc.o
                0x08001184                HAL_ADC_GetValue
 .text.HAL_ADC_ConfigChannel
                0x0800118c      0x100 build/RS2ALL_UIO_obj/stm32f0xx_hal_adc.o
                0x0800118c                HAL_ADC_ConfigChannel
 .text.HAL_ADCEx_Calibration_Start
                0x0800128c       0xac build/RS2ALL_UIO_obj/stm32f0xx_hal_adc_ex.o
                0x0800128c                HAL_ADCEx_Calibration_Start
 .text.HAL_NVIC_SetPriority
                0x08001338       0x58 build/RS2ALL_UIO_obj/stm32f0xx_hal_cortex.o
                0x08001338                HAL_NVIC_SetPriority
 .text.HAL_NVIC_EnableIRQ
                0x08001390       0x14 build/RS2ALL_UIO_obj/stm32f0xx_hal_cortex.o
                0x08001390                HAL_NVIC_EnableIRQ
 .text.HAL_SYSTICK_Config
                0x080013a4       0x38 build/RS2ALL_UIO_obj/stm32f0xx_hal_cortex.o
                0x080013a4                HAL_SYSTICK_Config
 .text.HAL_DMA_Abort_IT
                0x080013dc       0x48 build/RS2ALL_UIO_obj/stm32f0xx_hal_dma.o
                0x080013dc                HAL_DMA_Abort_IT
 .text.HAL_GPIO_Init
                0x08001424      0x1e4 build/RS2ALL_UIO_obj/stm32f0xx_hal_gpio.o
                0x08001424                HAL_GPIO_Init
 .text.HAL_GPIO_ReadPin
                0x08001608        0xc build/RS2ALL_UIO_obj/stm32f0xx_hal_gpio.o
                0x08001608                HAL_GPIO_ReadPin
 .text.HAL_GPIO_WritePin
                0x08001614        0xc build/RS2ALL_UIO_obj/stm32f0xx_hal_gpio.o
                0x08001614                HAL_GPIO_WritePin
 .text.HAL_GPIO_TogglePin
                0x08001620        0x8 build/RS2ALL_UIO_obj/stm32f0xx_hal_gpio.o
                0x08001620                HAL_GPIO_TogglePin
 .text.HAL_GPIO_EXTI_IRQHandler
                0x08001628       0x18 build/RS2ALL_UIO_obj/stm32f0xx_hal_gpio.o
                0x08001628                HAL_GPIO_EXTI_IRQHandler
 .text.HAL_RCC_OscConfig
                0x08001640      0x460 build/RS2ALL_UIO_obj/stm32f0xx_hal_rcc.o
                0x08001640                HAL_RCC_OscConfig
 .text.HAL_RCC_ClockConfig
                0x08001aa0      0x1a8 build/RS2ALL_UIO_obj/stm32f0xx_hal_rcc.o
                0x08001aa0                HAL_RCC_ClockConfig
 .text.HAL_RCC_GetSysClockFreq
                0x08001c48       0x6c build/RS2ALL_UIO_obj/stm32f0xx_hal_rcc.o
                0x08001c48                HAL_RCC_GetSysClockFreq
 .text.HAL_RCC_GetHCLKFreq
                0x08001cb4        0xc build/RS2ALL_UIO_obj/stm32f0xx_hal_rcc.o
                0x08001cb4                HAL_RCC_GetHCLKFreq
 .text.HAL_RCC_GetPCLK1Freq
                0x08001cc0       0x20 build/RS2ALL_UIO_obj/stm32f0xx_hal_rcc.o
                0x08001cc0                HAL_RCC_GetPCLK1Freq
 .text.HAL_RCCEx_PeriphCLKConfig
                0x08001ce0      0x120 build/RS2ALL_UIO_obj/stm32f0xx_hal_rcc_ex.o
                0x08001ce0                HAL_RCCEx_PeriphCLKConfig
 .text.HAL_TIM_Base_MspInit
                0x08001e00        0x4 build/RS2ALL_UIO_obj/stm32f0xx_hal_tim.o
                0x08001e00                HAL_TIM_Base_MspInit
 .text.HAL_TIM_Base_Init
                0x08001e04       0xb0 build/RS2ALL_UIO_obj/stm32f0xx_hal_tim.o
                0x08001e04                HAL_TIM_Base_Init
 .text.HAL_TIM_Base_Start_IT
                0x08001eb4       0x14 build/RS2ALL_UIO_obj/stm32f0xx_hal_tim.o
                0x08001eb4                HAL_TIM_Base_Start_IT
 .text.HAL_TIM_Base_Stop_IT
                0x08001ec8       0x2c build/RS2ALL_UIO_obj/stm32f0xx_hal_tim.o
                0x08001ec8                HAL_TIM_Base_Stop_IT
 .text.HAL_TIM_OC_DelayElapsedCallback
                0x08001ef4        0x4 build/RS2ALL_UIO_obj/stm32f0xx_hal_tim.o
                0x08001ef4                HAL_TIM_OC_DelayElapsedCallback
 .text.HAL_TIM_IC_CaptureCallback
                0x08001ef8        0x4 build/RS2ALL_UIO_obj/stm32f0xx_hal_tim.o
                0x08001ef8                HAL_TIM_IC_CaptureCallback
 .text.HAL_TIM_PWM_PulseFinishedCallback
                0x08001efc        0x4 build/RS2ALL_UIO_obj/stm32f0xx_hal_tim.o
                0x08001efc                HAL_TIM_PWM_PulseFinishedCallback
 .text.HAL_TIM_TriggerCallback
                0x08001f00        0x4 build/RS2ALL_UIO_obj/stm32f0xx_hal_tim.o
                0x08001f00                HAL_TIM_TriggerCallback
 .text.HAL_TIM_IRQHandler
                0x08001f04      0x158 build/RS2ALL_UIO_obj/stm32f0xx_hal_tim.o
                0x08001f04                HAL_TIM_IRQHandler
 .text.HAL_TIMEx_CommutationCallback
                0x0800205c        0x4 build/RS2ALL_UIO_obj/stm32f0xx_hal_tim_ex.o
                0x0800205c                HAL_TIMEx_CommutationCallback
 .text.HAL_TIMEx_BreakCallback
                0x08002060        0x4 build/RS2ALL_UIO_obj/stm32f0xx_hal_tim_ex.o
                0x08002060                HAL_TIMEx_BreakCallback
 .text.HAL_UART_MspInit
                0x08002064        0x4 build/RS2ALL_UIO_obj/stm32f0xx_hal_uart.o
                0x08002064                HAL_UART_MspInit
 .text.HAL_UART_TxCpltCallback
                0x08002068        0x4 build/RS2ALL_UIO_obj/stm32f0xx_hal_uart.o
                0x08002068                HAL_UART_TxCpltCallback
 .text.HAL_UART_RxCpltCallback
                0x0800206c        0x4 build/RS2ALL_UIO_obj/stm32f0xx_hal_uart.o
                0x0800206c                HAL_UART_RxCpltCallback
 .text.HAL_UART_ErrorCallback
                0x08002070        0x4 build/RS2ALL_UIO_obj/stm32f0xx_hal_uart.o
                0x08002070                HAL_UART_ErrorCallback
 .text.UART_DMAAbortOnError
                0x08002074       0x14 build/RS2ALL_UIO_obj/stm32f0xx_hal_uart.o
 .text.HAL_UART_IRQHandler
                0x08002088      0x278 build/RS2ALL_UIO_obj/stm32f0xx_hal_uart.o
                0x08002088                HAL_UART_IRQHandler
 .text.UART_SetConfig
                0x08002300      0x124 build/RS2ALL_UIO_obj/stm32f0xx_hal_uart.o
                0x08002300                UART_SetConfig
 .text.UART_AdvFeatureConfig
                0x08002424       0xd0 build/RS2ALL_UIO_obj/stm32f0xx_hal_uart.o
                0x08002424                UART_AdvFeatureConfig
 .text.UART_CheckIdleState
                0x080024f4       0x18 build/RS2ALL_UIO_obj/stm32f0xx_hal_uart.o
                0x080024f4                UART_CheckIdleState
 .text.HAL_RS485Ex_Init
                0x0800250c       0x8c build/RS2ALL_UIO_obj/stm32f0xx_hal_uart_ex.o
                0x0800250c                HAL_RS485Ex_Init
 .text.SystemInit
                0x08002598       0x60 build/RS2ALL_UIO_obj/system_stm32f0xx.o
                0x08002598                SystemInit
 .text.clock_init
                0x080025f8       0xf8 build/RS2ALL_UIO_obj/clock.o
                0x080025f8                clock_init
 .text.HAL_MspInit
                0x080026f0       0x30 build/RS2ALL_UIO_obj/systick.o
                0x080026f0                HAL_MspInit
 .text.SysTick_Handler
                0x08002720        0x8 build/RS2ALL_UIO_obj/systick.o
                0x08002720                SysTick_Handler
 .text.led_init
                0x08002728       0x3c build/RS2ALL_UIO_obj/led.o
                0x08002728                led_init
 .text.led_toggle
                0x08002764       0x10 build/RS2ALL_UIO_obj/led.o
                0x08002764                led_toggle
 .text.eMBFuncReadCoils
                0x08002774       0x78 build/RS2ALL_UIO_obj/mbfunccoils.o
                0x08002774                eMBFuncReadCoils
 .text.eMBFuncWriteCoil
                0x080027ec       0x54 build/RS2ALL_UIO_obj/mbfunccoils.o
                0x080027ec                eMBFuncWriteCoil
 .text.eMBFuncWriteMultipleCoils
                0x08002840       0x68 build/RS2ALL_UIO_obj/mbfunccoils.o
                0x08002840                eMBFuncWriteMultipleCoils
 .text.eMBFuncReadDiscreteInputs
                0x080028a8       0x78 build/RS2ALL_UIO_obj/mbfuncdisc.o
                0x080028a8                eMBFuncReadDiscreteInputs
 .text.eMBFuncWriteHoldingRegister
                0x08002920       0x34 build/RS2ALL_UIO_obj/mbfuncholding.o
                0x08002920                eMBFuncWriteHoldingRegister
 .text.eMBFuncWriteMultipleHoldingRegister
                0x08002954       0x54 build/RS2ALL_UIO_obj/mbfuncholding.o
                0x08002954                eMBFuncWriteMultipleHoldingRegister
 .text.eMBFuncReadHoldingRegister
                0x080029a8       0x5c build/RS2ALL_UIO_obj/mbfuncholding.o
                0x080029a8                eMBFuncReadHoldingRegister
 .text.eMBFuncReadWriteMultipleHoldingRegister
                0x08002a04       0xac build/RS2ALL_UIO_obj/mbfuncholding.o
                0x08002a04                eMBFuncReadWriteMultipleHoldingRegister
 .text.eMBFuncReadInputRegister
                0x08002ab0       0x60 build/RS2ALL_UIO_obj/mbfuncinput.o
                0x08002ab0                eMBFuncReadInputRegister
 .text.prveMBError2Exception
                0x08002b10       0x14 build/RS2ALL_UIO_obj/mbutils.o
                0x08002b10                prveMBError2Exception
 .text.usMBCRC16
                0x08002b24       0x3c build/RS2ALL_UIO_obj/mbcrc.o
                0x08002b24                usMBCRC16
 .text.eMBRTUInit
                0x08002b60       0x50 build/RS2ALL_UIO_obj/mbrtu.o
                0x08002b60                eMBRTUInit
 .text.eMBRTUStart
                0x08002bb0       0x20 build/RS2ALL_UIO_obj/mbrtu.o
                0x08002bb0                eMBRTUStart
 .text.eMBRTUStop
                0x08002bd0       0x14 build/RS2ALL_UIO_obj/mbrtu.o
                0x08002bd0                eMBRTUStop
 .text.eMBRTUReceive
                0x08002be4       0x4c build/RS2ALL_UIO_obj/mbrtu.o
                0x08002be4                eMBRTUReceive
 .text.eMBRTUSend
                0x08002c30       0x78 build/RS2ALL_UIO_obj/mbrtu.o
                0x08002c30                eMBRTUSend
 .text.xMBRTUReceiveFSM
                0x08002ca8       0x7c build/RS2ALL_UIO_obj/mbrtu.o
                0x08002ca8                xMBRTUReceiveFSM
 .text.xMBRTUTransmitFSM
                0x08002d24       0x6c build/RS2ALL_UIO_obj/mbrtu.o
                0x08002d24                xMBRTUTransmitFSM
 .text.xMBRTUTimerT35Expired
                0x08002d90       0x38 build/RS2ALL_UIO_obj/mbrtu.o
                0x08002d90                xMBRTUTimerT35Expired
 .text.eMBInit  0x08002dc8       0xb4 build/RS2ALL_UIO_obj/mb.o
                0x08002dc8                eMBInit
 .text.eMBEnable
                0x08002e7c       0x24 build/RS2ALL_UIO_obj/mb.o
                0x08002e7c                eMBEnable
 .text.eMBPoll  0x08002ea0      0x204 build/RS2ALL_UIO_obj/mb.o
                0x08002ea0                eMBPoll
 .text.xMBPortEventInit
                0x080030a4       0x10 build/RS2ALL_UIO_obj/portevent.o
                0x080030a4                xMBPortEventInit
 .text.xMBPortEventPost
                0x080030b4       0x18 build/RS2ALL_UIO_obj/portevent.o
                0x080030b4                xMBPortEventPost
 .text.xMBPortEventGet
                0x080030cc       0x20 build/RS2ALL_UIO_obj/portevent.o
                0x080030cc                xMBPortEventGet
 .text.xMBPortSerialInit
                0x080030ec       0x78 build/RS2ALL_UIO_obj/portserial.o
                0x080030ec                xMBPortSerialInit
 .text.vMBPortSerialEnable
                0x08003164       0x88 build/RS2ALL_UIO_obj/portserial.o
                0x08003164                vMBPortSerialEnable
 .text.xMBPortSerialPutByte
                0x080031ec       0x10 build/RS2ALL_UIO_obj/portserial.o
                0x080031ec                xMBPortSerialPutByte
 .text.xMBPortSerialGetByte
                0x080031fc       0x10 build/RS2ALL_UIO_obj/portserial.o
                0x080031fc                xMBPortSerialGetByte
 .text.USART1_IRQHandler
                0x0800320c       0x50 build/RS2ALL_UIO_obj/portserial.o
                0x0800320c                USART1_IRQHandler
 .text.xMBPortTimersInit
                0x0800325c       0x5c build/RS2ALL_UIO_obj/porttimer.o
                0x0800325c                xMBPortTimersInit
 .text.vMBPortTimersEnable
                0x080032b8       0x20 build/RS2ALL_UIO_obj/porttimer.o
                0x080032b8                vMBPortTimersEnable
 .text.vMBPortTimersDisable
                0x080032d8       0x10 build/RS2ALL_UIO_obj/porttimer.o
                0x080032d8                vMBPortTimersDisable
 .text.HAL_TIM_PeriodElapsedCallback
                0x080032e8       0x30 build/RS2ALL_UIO_obj/porttimer.o
                0x080032e8                HAL_TIM_PeriodElapsedCallback
 .text.TIM14_IRQHandler
                0x08003318       0x10 build/RS2ALL_UIO_obj/porttimer.o
                0x08003318                TIM14_IRQHandler
 .text.registers_get_config_uio
                0x08003328        0xc build/RS2ALL_UIO_obj/registers.o
                0x08003328                registers_get_config_uio
 .text.registers_get_wr_value_uio
                0x08003334       0x10 build/RS2ALL_UIO_obj/registers.o
                0x08003334                registers_get_wr_value_uio
 .text.registers_set_rd_value_uio
                0x08003344       0x10 build/RS2ALL_UIO_obj/registers.o
                0x08003344                registers_set_rd_value_uio
 .text.eMBRegCoilsCB
                0x08003354       0xb8 build/RS2ALL_UIO_obj/registers.o
                0x08003354                eMBRegCoilsCB
 .text.eMBRegDiscreteCB
                0x0800340c       0x28 build/RS2ALL_UIO_obj/registers.o
                0x0800340c                eMBRegDiscreteCB
 .text.eMBRegHoldingCB
                0x08003434      0x2dc build/RS2ALL_UIO_obj/registers.o
                0x08003434                eMBRegHoldingCB
 .text.eMBRegInputCB
                0x08003710      0x1b8 build/RS2ALL_UIO_obj/registers.o
                0x08003710                eMBRegInputCB
 .text.modbus_init
                0x080038c8       0x78 build/RS2ALL_UIO_obj/modbus.o
                0x080038c8                modbus_init
 .text.modbus_poll
                0x08003940        0x8 build/RS2ALL_UIO_obj/modbus.o
                0x08003940                modbus_poll
 .text.swtimer_add_timer
                0x08003948       0x3c build/RS2ALL_UIO_obj/swtimer.o
                0x08003948                swtimer_add_timer
 .text.swtimer_is_timeout
                0x08003984       0x38 build/RS2ALL_UIO_obj/swtimer.o
                0x08003984                swtimer_is_timeout
 .text.uio_init
                0x080039bc       0x48 build/RS2ALL_UIO_obj/uio.o
                0x080039bc                uio_init
 .text.uio_configure
                0x08003a04      0x130 build/RS2ALL_UIO_obj/uio.o
                0x08003a04                uio_configure
 .text.uio_get_readout
                0x08003b34       0x60 build/RS2ALL_UIO_obj/uio.o
                0x08003b34                uio_get_readout
 .text.uio_set_value
                0x08003b94       0x3c build/RS2ALL_UIO_obj/uio.o
                0x08003b94                uio_set_value
 .text.HAL_GPIO_EXTI_Callback
                0x08003bd0       0xd8 build/RS2ALL_UIO_obj/uio.o
                0x08003bd0                HAL_GPIO_EXTI_Callback
 .text.EXTI0_1_IRQHandler
                0x08003ca8       0x10 build/RS2ALL_UIO_obj/uio.o
                0x08003ca8                EXTI0_1_IRQHandler
 .text.EXTI2_3_IRQHandler
                0x08003cb8       0x10 build/RS2ALL_UIO_obj/uio.o
                0x08003cb8                EXTI2_3_IRQHandler
 .text.EXTI4_15_IRQHandler
                0x08003cc8       0x24 build/RS2ALL_UIO_obj/uio.o
                0x08003cc8                EXTI4_15_IRQHandler
 .text.__libc_init_array
                0x08003cec       0x48 c:/st/stm32cubeide_1.1.0/stm32cubeide/plugins/com.st.stm32cube.ide.mcu.externaltools.gnu-arm-embedded.7-2018-q2-update.win32_1.0.0.201904081647/tools/bin/../lib/gcc/arm-none-eabi/7.3.1/../../../../arm-none-eabi/lib/thumb/v6-m\libc_nano.a(lib_a-init.o)
                0x08003cec                __libc_init_array
 .text.memcpy   0x08003d34       0x12 c:/st/stm32cubeide_1.1.0/stm32cubeide/plugins/com.st.stm32cube.ide.mcu.externaltools.gnu-arm-embedded.7-2018-q2-update.win32_1.0.0.201904081647/tools/bin/../lib/gcc/arm-none-eabi/7.3.1/../../../../arm-none-eabi/lib/thumb/v6-m\libc_nano.a(lib_a-memcpy-stub.o)
                0x08003d34                memcpy
 .text.memset   0x08003d46       0x10 c:/st/stm32cubeide_1.1.0/stm32cubeide/plugins/com.st.stm32cube.ide.mcu.externaltools.gnu-arm-embedded.7-2018-q2-update.win32_1.0.0.201904081647/tools/bin/../lib/gcc/arm-none-eabi/7.3.1/../../../../arm-none-eabi/lib/thumb/v6-m\libc_nano.a(lib_a-memset.o)
                0x08003d46                memset
 *(.glue_7)
 .glue_7        0x08003d56        0x0 linker stubs
 *(.glue_7t)
 .glue_7t       0x08003d56        0x0 linker stubs
 *(.eh_frame)
 *fill*         0x08003d56        0x2 
 .eh_frame      0x08003d58        0x0 c:/st/stm32cubeide_1.1.0/stm32cubeide/plugins/com.st.stm32cube.ide.mcu.externaltools.gnu-arm-embedded.7-2018-q2-update.win32_1.0.0.201904081647/tools/bin/../lib/gcc/arm-none-eabi/7.3.1/thumb/v6-m/crtbegin.o
 *(.init)
 .init          0x08003d58        0x4 c:/st/stm32cubeide_1.1.0/stm32cubeide/plugins/com.st.stm32cube.ide.mcu.externaltools.gnu-arm-embedded.7-2018-q2-update.win32_1.0.0.201904081647/tools/bin/../lib/gcc/arm-none-eabi/7.3.1/thumb/v6-m/crti.o
                0x08003d58                _init
 .init          0x08003d5c        0x8 c:/st/stm32cubeide_1.1.0/stm32cubeide/plugins/com.st.stm32cube.ide.mcu.externaltools.gnu-arm-embedded.7-2018-q2-update.win32_1.0.0.201904081647/tools/bin/../lib/gcc/arm-none-eabi/7.3.1/thumb/v6-m/crtn.o
 *(.fini)
 .fini          0x08003d64        0x4 c:/st/stm32cubeide_1.1.0/stm32cubeide/plugins/com.st.stm32cube.ide.mcu.externaltools.gnu-arm-embedded.7-2018-q2-update.win32_1.0.0.201904081647/tools/bin/../lib/gcc/arm-none-eabi/7.3.1/thumb/v6-m/crti.o
                0x08003d64                _fini
 .fini          0x08003d68        0x8 c:/st/stm32cubeide_1.1.0/stm32cubeide/plugins/com.st.stm32cube.ide.mcu.externaltools.gnu-arm-embedded.7-2018-q2-update.win32_1.0.0.201904081647/tools/bin/../lib/gcc/arm-none-eabi/7.3.1/thumb/v6-m/crtn.o
                0x08003d70                . = ALIGN (0x4)
                0x08003d70                _etext = .

.vfp11_veneer   0x08003d70        0x0
 .vfp11_veneer  0x08003d70        0x0 linker stubs

.v4_bx          0x08003d70        0x0
 .v4_bx         0x08003d70        0x0 linker stubs

.iplt           0x08003d70        0x0
 .iplt          0x08003d70        0x0 c:/st/stm32cubeide_1.1.0/stm32cubeide/plugins/com.st.stm32cube.ide.mcu.externaltools.gnu-arm-embedded.7-2018-q2-update.win32_1.0.0.201904081647/tools/bin/../lib/gcc/arm-none-eabi/7.3.1/thumb/v6-m/crtbegin.o

.rodata         0x08003d70      0x284
                0x08003d70                . = ALIGN (0x4)
 *(.rodata)
 .rodata        0x08003d70       0x20 build/RS2ALL_UIO_obj/stm32f0xx_hal_rcc.o
 .rodata        0x08003d90       0x40 c:/st/stm32cubeide_1.1.0/stm32cubeide/plugins/com.st.stm32cube.ide.mcu.externaltools.gnu-arm-embedded.7-2018-q2-update.win32_1.0.0.201904081647/tools/bin/../lib/gcc/arm-none-eabi/7.3.1/thumb/v6-m\libgcc.a(mulsf3.o)
 *(.rodata*)
 .rodata.CSWTCH.50
                0x08003dd0        0x4 build/RS2ALL_UIO_obj/stm32f0xx_hal_uart.o
 .rodata.AHBPrescTable
                0x08003dd4       0x10 build/RS2ALL_UIO_obj/system_stm32f0xx.o
                0x08003dd4                AHBPrescTable
 .rodata.APBPrescTable
                0x08003de4        0x8 build/RS2ALL_UIO_obj/system_stm32f0xx.o
                0x08003de4                APBPrescTable
 .rodata.CSWTCH.8
                0x08003dec        0x8 build/RS2ALL_UIO_obj/mbutils.o
 .rodata.aucCRCHi
                0x08003df4      0x100 build/RS2ALL_UIO_obj/mbcrc.o
 .rodata.aucCRCLo
                0x08003ef4      0x100 build/RS2ALL_UIO_obj/mbcrc.o
                0x08003ff4                . = ALIGN (0x4)

.rel.dyn        0x08003ff4        0x0
 .rel.iplt      0x08003ff4        0x0 c:/st/stm32cubeide_1.1.0/stm32cubeide/plugins/com.st.stm32cube.ide.mcu.externaltools.gnu-arm-embedded.7-2018-q2-update.win32_1.0.0.201904081647/tools/bin/../lib/gcc/arm-none-eabi/7.3.1/thumb/v6-m/crtbegin.o

.ARM.extab      0x08003ff4        0x0
                0x08003ff4                . = ALIGN (0x4)
 *(.ARM.extab* .gnu.linkonce.armextab.*)
                0x08003ff4                . = ALIGN (0x4)

.ARM            0x08003ff4        0x0
                0x08003ff4                . = ALIGN (0x4)
                0x08003ff4                __exidx_start = .
 *(.ARM.exidx*)
                0x08003ff4                __exidx_end = .
                0x08003ff4                . = ALIGN (0x4)

.preinit_array  0x08003ff4        0x0
                0x08003ff4                . = ALIGN (0x4)
                0x08003ff4                PROVIDE (__preinit_array_start = .)
 *(.preinit_array*)
                0x08003ff4                PROVIDE (__preinit_array_end = .)
                0x08003ff4                . = ALIGN (0x4)

.init_array     0x08003ff4        0x4
                0x08003ff4                . = ALIGN (0x4)
                0x08003ff4                PROVIDE (__init_array_start = .)
 *(SORT_BY_NAME(.init_array.*))
 *(.init_array*)
 .init_array    0x08003ff4        0x4 c:/st/stm32cubeide_1.1.0/stm32cubeide/plugins/com.st.stm32cube.ide.mcu.externaltools.gnu-arm-embedded.7-2018-q2-update.win32_1.0.0.201904081647/tools/bin/../lib/gcc/arm-none-eabi/7.3.1/thumb/v6-m/crtbegin.o
                0x08003ff8                PROVIDE (__init_array_end = .)
                0x08003ff8                . = ALIGN (0x4)

.fini_array     0x08003ff8        0x4
                0x08003ff8                . = ALIGN (0x4)
                [!provide]                PROVIDE (__fini_array_start = .)
 *(SORT_BY_NAME(.fini_array.*))
 *(.fini_array*)
 .fini_array    0x08003ff8        0x4 c:/st/stm32cubeide_1.1.0/stm32cubeide/plugins/com.st.stm32cube.ide.mcu.externaltools.gnu-arm-embedded.7-2018-q2-update.win32_1.0.0.201904081647/tools/bin/../lib/gcc/arm-none-eabi/7.3.1/thumb/v6-m/crtbegin.o
                [!provide]                PROVIDE (__fini_array_end = .)
                0x08003ffc                . = ALIGN (0x4)
                0x08003ffc                _sidata = LOADADDR (.data)

.data           0x20000000      0x128 load address 0x08003ffc
                0x20000000                . = ALIGN (0x4)
                0x20000000                _sdata = .
 *(.data)
 *(.data*)
 .data.SystemCoreClock
                0x20000000        0x4 build/RS2ALL_UIO_obj/system_stm32f0xx.o
                0x20000000                SystemCoreClock
 .data.eMBState
                0x20000004        0x1 build/RS2ALL_UIO_obj/mb.o
 *fill*         0x20000005        0x3 
 .data.xFuncHandlers
                0x20000008       0x80 build/RS2ALL_UIO_obj/mb.o
 .data.uios     0x20000088       0xa0 build/RS2ALL_UIO_obj/uio.o
                0x20000128                . = ALIGN (0x4)
                0x20000128                _edata = .

.igot.plt       0x20000128        0x0 load address 0x08004124
 .igot.plt      0x20000128        0x0 c:/st/stm32cubeide_1.1.0/stm32cubeide/plugins/com.st.stm32cube.ide.mcu.externaltools.gnu-arm-embedded.7-2018-q2-update.win32_1.0.0.201904081647/tools/bin/../lib/gcc/arm-none-eabi/7.3.1/thumb/v6-m/crtbegin.o
                0x20000128                . = ALIGN (0x4)

.bss            0x20000128      0x2f8 load address 0x08004124
                0x20000128                _sbss = .
                0x20000128                __bss_start__ = _sbss
 *(.bss)
 .bss           0x20000128       0x1c c:/st/stm32cubeide_1.1.0/stm32cubeide/plugins/com.st.stm32cube.ide.mcu.externaltools.gnu-arm-embedded.7-2018-q2-update.win32_1.0.0.201904081647/tools/bin/../lib/gcc/arm-none-eabi/7.3.1/thumb/v6-m/crtbegin.o
 *(.bss*)
 .bss.uwTick    0x20000144        0x4 build/RS2ALL_UIO_obj/stm32f0xx_hal.o
                0x20000144                uwTick
 .bss.eRcvState
                0x20000148        0x1 build/RS2ALL_UIO_obj/mbrtu.o
 .bss.eSndState
                0x20000149        0x1 build/RS2ALL_UIO_obj/mbrtu.o
 *fill*         0x2000014a        0x2 
 .bss.pucSndBufferCur
                0x2000014c        0x4 build/RS2ALL_UIO_obj/mbrtu.o
 .bss.ucRTUBuf  0x20000150      0x100 build/RS2ALL_UIO_obj/mbrtu.o
                0x20000150                ucRTUBuf
 .bss.usRcvBufferPos
                0x20000250        0x2 build/RS2ALL_UIO_obj/mbrtu.o
 .bss.usSndBufferCount
                0x20000252        0x2 build/RS2ALL_UIO_obj/mbrtu.o
 .bss.eException.7906
                0x20000254        0x1 build/RS2ALL_UIO_obj/mb.o
 *fill*         0x20000255        0x3 
 .bss.peMBFrameReceiveCur
                0x20000258        0x4 build/RS2ALL_UIO_obj/mb.o
 .bss.peMBFrameSendCur
                0x2000025c        0x4 build/RS2ALL_UIO_obj/mb.o
 .bss.pvMBFrameCloseCur
                0x20000260        0x4 build/RS2ALL_UIO_obj/mb.o
 .bss.pvMBFrameStartCur
                0x20000264        0x4 build/RS2ALL_UIO_obj/mb.o
 .bss.pvMBFrameStopCur
                0x20000268        0x4 build/RS2ALL_UIO_obj/mb.o
 .bss.pxMBFrameCBByteReceived
                0x2000026c        0x4 build/RS2ALL_UIO_obj/mb.o
                0x2000026c                pxMBFrameCBByteReceived
 .bss.pxMBFrameCBTransmitterEmpty
                0x20000270        0x4 build/RS2ALL_UIO_obj/mb.o
                0x20000270                pxMBFrameCBTransmitterEmpty
 .bss.pxMBPortCBTimerExpired
                0x20000274        0x4 build/RS2ALL_UIO_obj/mb.o
                0x20000274                pxMBPortCBTimerExpired
 .bss.ucFunctionCode.7904
                0x20000278        0x1 build/RS2ALL_UIO_obj/mb.o
 .bss.ucMBAddress
                0x20000279        0x1 build/RS2ALL_UIO_obj/mb.o
 *fill*         0x2000027a        0x2 
 .bss.ucMBFrame.7902
                0x2000027c        0x4 build/RS2ALL_UIO_obj/mb.o
 .bss.ucRcvAddress.7903
                0x20000280        0x1 build/RS2ALL_UIO_obj/mb.o
 *fill*         0x20000281        0x1 
 .bss.usLength.7905
                0x20000282        0x2 build/RS2ALL_UIO_obj/mb.o
 .bss.eQueuedEvent
                0x20000284        0x1 build/RS2ALL_UIO_obj/portevent.o
 .bss.xEventInQueue
                0x20000285        0x1 build/RS2ALL_UIO_obj/portevent.o
 *fill*         0x20000286        0x2 
 .bss.huart1    0x20000288       0x70 build/RS2ALL_UIO_obj/portserial.o
 .bss.downcounter
                0x200002f8        0x2 build/RS2ALL_UIO_obj/porttimer.o
 *fill*         0x200002fa        0x2 
 .bss.htim14    0x200002fc       0x40 build/RS2ALL_UIO_obj/porttimer.o
 .bss.timeout   0x2000033c        0x2 build/RS2ALL_UIO_obj/porttimer.o
 *fill*         0x2000033e        0x2 
 .bss.usRegCoilBuf
                0x20000340        0x0 build/RS2ALL_UIO_obj/registers.o
 .bss.usRegHoldingBuf
                0x20000340       0x20 build/RS2ALL_UIO_obj/registers.o
 .bss.usRegInputBuf
                0x20000360       0x20 build/RS2ALL_UIO_obj/registers.o
 .bss.sw_timer_ms_count
                0x20000380        0x1 build/RS2ALL_UIO_obj/swtimer.o
 *fill*         0x20000381        0x3 
 .bss.sw_timers
                0x20000384       0x50 build/RS2ALL_UIO_obj/swtimer.o
 .bss.hadc1     0x200003d4       0x4c build/RS2ALL_UIO_obj/uio.o
 *(COMMON)
                0x20000420                . = ALIGN (0x4)
                0x20000420                _ebss = .
                0x20000420                __bss_end__ = _ebss

._user_heap_stack
                0x20000420      0x600 load address 0x08004124
                0x20000420                . = ALIGN (0x8)
                0x20000420                PROVIDE (end = .)
                [!provide]                PROVIDE (_end = .)
                0x20000620                . = (. + _Min_Heap_Size)
 *fill*         0x20000420      0x200 
                0x20000a20                . = (. + _Min_Stack_Size)
 *fill*         0x20000620      0x400 
                0x20000a20                . = ALIGN (0x8)

/DISCARD/
 libc.a(*)
 libm.a(*)
 libgcc.a(*)

.ARM.attributes
                0x00000000       0x28
 *(.ARM.attributes)
 .ARM.attributes
                0x00000000       0x1e c:/st/stm32cubeide_1.1.0/stm32cubeide/plugins/com.st.stm32cube.ide.mcu.externaltools.gnu-arm-embedded.7-2018-q2-update.win32_1.0.0.201904081647/tools/bin/../lib/gcc/arm-none-eabi/7.3.1/thumb/v6-m/crti.o
 .ARM.attributes
                0x0000001e       0x2c c:/st/stm32cubeide_1.1.0/stm32cubeide/plugins/com.st.stm32cube.ide.mcu.externaltools.gnu-arm-embedded.7-2018-q2-update.win32_1.0.0.201904081647/tools/bin/../lib/gcc/arm-none-eabi/7.3.1/thumb/v6-m/crtbegin.o
 .ARM.attributes
                0x0000004a       0x21 build/RS2ALL_UIO_obj/startup_stm32f030k6tx.o
 .ARM.attributes
                0x0000006b       0x31 build/RS2ALL_UIO_obj/main.o
 .ARM.attributes
                0x0000009c       0x31 build/RS2ALL_UIO_obj/stm32f0xx_hal.o
 .ARM.attributes
                0x000000cd       0x31 build/RS2ALL_UIO_obj/stm32f0xx_hal_adc.o
 .ARM.attributes
                0x000000fe       0x31 build/RS2ALL_UIO_obj/stm32f0xx_hal_adc_ex.o
 .ARM.attributes
                0x0000012f       0x31 build/RS2ALL_UIO_obj/stm32f0xx_hal_cortex.o
 .ARM.attributes
                0x00000160       0x31 build/RS2ALL_UIO_obj/stm32f0xx_hal_dma.o
 .ARM.attributes
                0x00000191       0x31 build/RS2ALL_UIO_obj/stm32f0xx_hal_gpio.o
 .ARM.attributes
                0x000001c2       0x31 build/RS2ALL_UIO_obj/stm32f0xx_hal_rcc.o
 .ARM.attributes
                0x000001f3       0x31 build/RS2ALL_UIO_obj/stm32f0xx_hal_rcc_ex.o
 .ARM.attributes
                0x00000224       0x31 build/RS2ALL_UIO_obj/stm32f0xx_hal_tim.o
 .ARM.attributes
                0x00000255       0x31 build/RS2ALL_UIO_obj/stm32f0xx_hal_tim_ex.o
 .ARM.attributes
                0x00000286       0x31 build/RS2ALL_UIO_obj/stm32f0xx_hal_uart.o
 .ARM.attributes
                0x000002b7       0x31 build/RS2ALL_UIO_obj/stm32f0xx_hal_uart_ex.o
 .ARM.attributes
                0x000002e8       0x31 build/RS2ALL_UIO_obj/system_stm32f0xx.o
 .ARM.attributes
                0x00000319       0x31 build/RS2ALL_UIO_obj/clock.o
 .ARM.attributes
                0x0000034a       0x31 build/RS2ALL_UIO_obj/systick.o
 .ARM.attributes
                0x0000037b       0x31 build/RS2ALL_UIO_obj/led.o
 .ARM.attributes
                0x000003ac       0x31 build/RS2ALL_UIO_obj/mbfunccoils.o
 .ARM.attributes
                0x000003dd       0x31 build/RS2ALL_UIO_obj/mbfuncdisc.o
 .ARM.attributes
                0x0000040e       0x31 build/RS2ALL_UIO_obj/mbfuncholding.o
 .ARM.attributes
                0x0000043f       0x31 build/RS2ALL_UIO_obj/mbfuncinput.o
 .ARM.attributes
                0x00000470       0x31 build/RS2ALL_UIO_obj/mbutils.o
 .ARM.attributes
                0x000004a1       0x31 build/RS2ALL_UIO_obj/mbcrc.o
 .ARM.attributes
                0x000004d2       0x31 build/RS2ALL_UIO_obj/mbrtu.o
 .ARM.attributes
                0x00000503       0x31 build/RS2ALL_UIO_obj/mb.o
 .ARM.attributes
                0x00000534       0x31 build/RS2ALL_UIO_obj/portevent.o
 .ARM.attributes
                0x00000565       0x31 build/RS2ALL_UIO_obj/portserial.o
 .ARM.attributes
                0x00000596       0x31 build/RS2ALL_UIO_obj/porttimer.o
 .ARM.attributes
                0x000005c7       0x31 build/RS2ALL_UIO_obj/registers.o
 .ARM.attributes
                0x000005f8       0x31 build/RS2ALL_UIO_obj/modbus.o
 .ARM.attributes
                0x00000629       0x31 build/RS2ALL_UIO_obj/swtimer.o
 .ARM.attributes
                0x0000065a       0x31 build/RS2ALL_UIO_obj/uio.o
 .ARM.attributes
                0x0000068b       0x2c c:/st/stm32cubeide_1.1.0/stm32cubeide/plugins/com.st.stm32cube.ide.mcu.externaltools.gnu-arm-embedded.7-2018-q2-update.win32_1.0.0.201904081647/tools/bin/../lib/gcc/arm-none-eabi/7.3.1/../../../../arm-none-eabi/lib/thumb/v6-m\libc_nano.a(lib_a-init.o)
 .ARM.attributes
                0x000006b7       0x2c c:/st/stm32cubeide_1.1.0/stm32cubeide/plugins/com.st.stm32cube.ide.mcu.externaltools.gnu-arm-embedded.7-2018-q2-update.win32_1.0.0.201904081647/tools/bin/../lib/gcc/arm-none-eabi/7.3.1/../../../../arm-none-eabi/lib/thumb/v6-m\libc_nano.a(lib_a-memcpy-stub.o)
 .ARM.attributes
                0x000006e3       0x2c c:/st/stm32cubeide_1.1.0/stm32cubeide/plugins/com.st.stm32cube.ide.mcu.externaltools.gnu-arm-embedded.7-2018-q2-update.win32_1.0.0.201904081647/tools/bin/../lib/gcc/arm-none-eabi/7.3.1/../../../../arm-none-eabi/lib/thumb/v6-m\libc_nano.a(lib_a-memset.o)
 .ARM.attributes
                0x0000070f       0x1e c:/st/stm32cubeide_1.1.0/stm32cubeide/plugins/com.st.stm32cube.ide.mcu.externaltools.gnu-arm-embedded.7-2018-q2-update.win32_1.0.0.201904081647/tools/bin/../lib/gcc/arm-none-eabi/7.3.1/thumb/v6-m/crtn.o
START GROUP
LOAD c:/st/stm32cubeide_1.1.0/stm32cubeide/plugins/com.st.stm32cube.ide.mcu.externaltools.gnu-arm-embedded.7-2018-q2-update.win32_1.0.0.201904081647/tools/bin/../lib/gcc/arm-none-eabi/7.3.1/thumb/v6-m\libgcc.a
LOAD c:/st/stm32cubeide_1.1.0/stm32cubeide/plugins/com.st.stm32cube.ide.mcu.externaltools.gnu-arm-embedded.7-2018-q2-update.win32_1.0.0.201904081647/tools/bin/../lib/gcc/arm-none-eabi/7.3.1/../../../../arm-none-eabi/lib/thumb/v6-m\libc_nano.a
END GROUP
START GROUP
LOAD c:/st/stm32cubeide_1.1.0/stm32cubeide/plugins/com.st.stm32cube.ide.mcu.externaltools.gnu-arm-embedded.7-2018-q2-update.win32_1.0.0.201904081647/tools/bin/../lib/gcc/arm-none-eabi/7.3.1/thumb/v6-m\libgcc.a
LOAD c:/st/stm32cubeide_1.1.0/stm32cubeide/plugins/com.st.stm32cube.ide.mcu.externaltools.gnu-arm-embedded.7-2018-q2-update.win32_1.0.0.201904081647/tools/bin/../lib/gcc/arm-none-eabi/7.3.1/../../../../arm-none-eabi/lib/thumb/v6-m\libc_nano.a
END GROUP
LOAD c:/st/stm32cubeide_1.1.0/stm32cubeide/plugins/com.st.stm32cube.ide.mcu.externaltools.gnu-arm-embedded.7-2018-q2-update.win32_1.0.0.201904081647/tools/bin/../lib/gcc/arm-none-eabi/7.3.1/thumb/v6-m/crtend.o
LOAD c:/st/stm32cubeide_1.1.0/stm32cubeide/plugins/com.st.stm32cube.ide.mcu.externaltools.gnu-arm-embedded.7-2018-q2-update.win32_1.0.0.201904081647/tools/bin/../lib/gcc/arm-none-eabi/7.3.1/thumb/v6-m/crtn.o
OUTPUT(build/RS2ALL_UIO.elf elf32-littlearm)

.debug_info     0x00000000    0x21c8f
 .debug_info    0x00000000      0xf45 build/RS2ALL_UIO_obj/main.o
 .debug_info    0x00000f45      0xe36 build/RS2ALL_UIO_obj/stm32f0xx_hal.o
 .debug_info    0x00001d7b     0x180d build/RS2ALL_UIO_obj/stm32f0xx_hal_adc.o
 .debug_info    0x00003588      0xdba build/RS2ALL_UIO_obj/stm32f0xx_hal_adc_ex.o
 .debug_info    0x00004342      0xfec build/RS2ALL_UIO_obj/stm32f0xx_hal_cortex.o
 .debug_info    0x0000532e     0x105c build/RS2ALL_UIO_obj/stm32f0xx_hal_dma.o
 .debug_info    0x0000638a      0xe56 build/RS2ALL_UIO_obj/stm32f0xx_hal_gpio.o
 .debug_info    0x000071e0     0x11a5 build/RS2ALL_UIO_obj/stm32f0xx_hal_rcc.o
 .debug_info    0x00008385      0xbf4 build/RS2ALL_UIO_obj/stm32f0xx_hal_rcc_ex.o
 .debug_info    0x00008f79     0x44b0 build/RS2ALL_UIO_obj/stm32f0xx_hal_tim.o
 .debug_info    0x0000d429     0x1b2a build/RS2ALL_UIO_obj/stm32f0xx_hal_tim_ex.o
 .debug_info    0x0000ef53     0x23ba build/RS2ALL_UIO_obj/stm32f0xx_hal_uart.o
 .debug_info    0x0001130d      0xf86 build/RS2ALL_UIO_obj/stm32f0xx_hal_uart_ex.o
 .debug_info    0x00012293      0xa70 build/RS2ALL_UIO_obj/system_stm32f0xx.o
 .debug_info    0x00012d03      0xde3 build/RS2ALL_UIO_obj/clock.o
 .debug_info    0x00013ae6      0xa4e build/RS2ALL_UIO_obj/systick.o
 .debug_info    0x00014534      0xb30 build/RS2ALL_UIO_obj/led.o
 .debug_info    0x00015064      0xc6f build/RS2ALL_UIO_obj/mbfunccoils.o
 .debug_info    0x00015cd3      0xaf2 build/RS2ALL_UIO_obj/mbfuncdisc.o
 .debug_info    0x000167c5      0xd2d build/RS2ALL_UIO_obj/mbfuncholding.o
 .debug_info    0x000174f2      0xae9 build/RS2ALL_UIO_obj/mbfuncinput.o
 .debug_info    0x00017fdb      0xb7a build/RS2ALL_UIO_obj/mbutils.o
 .debug_info    0x00018b55      0x9e4 build/RS2ALL_UIO_obj/mbcrc.o
 .debug_info    0x00019539      0xf6a build/RS2ALL_UIO_obj/mbrtu.o
 .debug_info    0x0001a4a3      0xf7b build/RS2ALL_UIO_obj/mb.o
 .debug_info    0x0001b41e      0xa17 build/RS2ALL_UIO_obj/portevent.o
 .debug_info    0x0001be35     0x1227 build/RS2ALL_UIO_obj/portserial.o
 .debug_info    0x0001d05c     0x1046 build/RS2ALL_UIO_obj/porttimer.o
 .debug_info    0x0001e0a2      0xd3c build/RS2ALL_UIO_obj/registers.o
 .debug_info    0x0001edde      0xc03 build/RS2ALL_UIO_obj/modbus.o
 .debug_info    0x0001f9e1      0xb2d build/RS2ALL_UIO_obj/swtimer.o
 .debug_info    0x0002050e     0x1781 build/RS2ALL_UIO_obj/uio.o

.debug_abbrev   0x00000000     0x54c6
 .debug_abbrev  0x00000000      0x245 build/RS2ALL_UIO_obj/main.o
 .debug_abbrev  0x00000245      0x30b build/RS2ALL_UIO_obj/stm32f0xx_hal.o
 .debug_abbrev  0x00000550      0x349 build/RS2ALL_UIO_obj/stm32f0xx_hal_adc.o
 .debug_abbrev  0x00000899      0x20f build/RS2ALL_UIO_obj/stm32f0xx_hal_adc_ex.o
 .debug_abbrev  0x00000aa8      0x342 build/RS2ALL_UIO_obj/stm32f0xx_hal_cortex.o
 .debug_abbrev  0x00000dea      0x2d7 build/RS2ALL_UIO_obj/stm32f0xx_hal_dma.o
 .debug_abbrev  0x000010c1      0x2b1 build/RS2ALL_UIO_obj/stm32f0xx_hal_gpio.o
 .debug_abbrev  0x00001372      0x36a build/RS2ALL_UIO_obj/stm32f0xx_hal_rcc.o
 .debug_abbrev  0x000016dc      0x2a0 build/RS2ALL_UIO_obj/stm32f0xx_hal_rcc_ex.o
 .debug_abbrev  0x0000197c      0x3ea build/RS2ALL_UIO_obj/stm32f0xx_hal_tim.o
 .debug_abbrev  0x00001d66      0x397 build/RS2ALL_UIO_obj/stm32f0xx_hal_tim_ex.o
 .debug_abbrev  0x000020fd      0x3ea build/RS2ALL_UIO_obj/stm32f0xx_hal_uart.o
 .debug_abbrev  0x000024e7      0x259 build/RS2ALL_UIO_obj/stm32f0xx_hal_uart_ex.o
 .debug_abbrev  0x00002740      0x202 build/RS2ALL_UIO_obj/system_stm32f0xx.o
 .debug_abbrev  0x00002942      0x29e build/RS2ALL_UIO_obj/clock.o
 .debug_abbrev  0x00002be0      0x1fa build/RS2ALL_UIO_obj/systick.o
 .debug_abbrev  0x00002dda      0x22e build/RS2ALL_UIO_obj/led.o
 .debug_abbrev  0x00003008      0x241 build/RS2ALL_UIO_obj/mbfunccoils.o
 .debug_abbrev  0x00003249      0x232 build/RS2ALL_UIO_obj/mbfuncdisc.o
 .debug_abbrev  0x0000347b      0x23d build/RS2ALL_UIO_obj/mbfuncholding.o
 .debug_abbrev  0x000036b8      0x232 build/RS2ALL_UIO_obj/mbfuncinput.o
 .debug_abbrev  0x000038ea      0x222 build/RS2ALL_UIO_obj/mbutils.o
 .debug_abbrev  0x00003b0c      0x1d8 build/RS2ALL_UIO_obj/mbcrc.o
 .debug_abbrev  0x00003ce4      0x2e1 build/RS2ALL_UIO_obj/mbrtu.o
 .debug_abbrev  0x00003fc5      0x310 build/RS2ALL_UIO_obj/mb.o
 .debug_abbrev  0x000042d5      0x215 build/RS2ALL_UIO_obj/portevent.o
 .debug_abbrev  0x000044ea      0x28e build/RS2ALL_UIO_obj/portserial.o
 .debug_abbrev  0x00004778      0x2a1 build/RS2ALL_UIO_obj/porttimer.o
 .debug_abbrev  0x00004a19      0x28f build/RS2ALL_UIO_obj/registers.o
 .debug_abbrev  0x00004ca8      0x288 build/RS2ALL_UIO_obj/modbus.o
 .debug_abbrev  0x00004f30      0x210 build/RS2ALL_UIO_obj/swtimer.o
 .debug_abbrev  0x00005140      0x386 build/RS2ALL_UIO_obj/uio.o

.debug_aranges  0x00000000      0xc60
 .debug_aranges
                0x00000000       0x20 build/RS2ALL_UIO_obj/main.o
 .debug_aranges
                0x00000020       0xb0 build/RS2ALL_UIO_obj/stm32f0xx_hal.o
 .debug_aranges
                0x000000d0       0xb8 build/RS2ALL_UIO_obj/stm32f0xx_hal_adc.o
 .debug_aranges
                0x00000188       0x20 build/RS2ALL_UIO_obj/stm32f0xx_hal_adc_ex.o
 .debug_aranges
                0x000001a8       0x78 build/RS2ALL_UIO_obj/stm32f0xx_hal_cortex.o
 .debug_aranges
                0x00000220       0x78 build/RS2ALL_UIO_obj/stm32f0xx_hal_dma.o
 .debug_aranges
                0x00000298       0x58 build/RS2ALL_UIO_obj/stm32f0xx_hal_gpio.o
 .debug_aranges
                0x000002f0       0x80 build/RS2ALL_UIO_obj/stm32f0xx_hal_rcc.o
 .debug_aranges
                0x00000370       0x30 build/RS2ALL_UIO_obj/stm32f0xx_hal_rcc_ex.o
 .debug_aranges
                0x000003a0      0x248 build/RS2ALL_UIO_obj/stm32f0xx_hal_tim.o
 .debug_aranges
                0x000005e8       0xe8 build/RS2ALL_UIO_obj/stm32f0xx_hal_tim_ex.o
 .debug_aranges
                0x000006d0      0x180 build/RS2ALL_UIO_obj/stm32f0xx_hal_uart.o
 .debug_aranges
                0x00000850       0x28 build/RS2ALL_UIO_obj/stm32f0xx_hal_uart_ex.o
 .debug_aranges
                0x00000878       0x28 build/RS2ALL_UIO_obj/system_stm32f0xx.o
 .debug_aranges
                0x000008a0       0x20 build/RS2ALL_UIO_obj/clock.o
 .debug_aranges
                0x000008c0       0x28 build/RS2ALL_UIO_obj/systick.o
 .debug_aranges
                0x000008e8       0x28 build/RS2ALL_UIO_obj/led.o
 .debug_aranges
                0x00000910       0x30 build/RS2ALL_UIO_obj/mbfunccoils.o
 .debug_aranges
                0x00000940       0x20 build/RS2ALL_UIO_obj/mbfuncdisc.o
 .debug_aranges
                0x00000960       0x38 build/RS2ALL_UIO_obj/mbfuncholding.o
 .debug_aranges
                0x00000998       0x20 build/RS2ALL_UIO_obj/mbfuncinput.o
 .debug_aranges
                0x000009b8       0x30 build/RS2ALL_UIO_obj/mbutils.o
 .debug_aranges
                0x000009e8       0x20 build/RS2ALL_UIO_obj/mbcrc.o
 .debug_aranges
                0x00000a08       0x58 build/RS2ALL_UIO_obj/mbrtu.o
 .debug_aranges
                0x00000a60       0x48 build/RS2ALL_UIO_obj/mb.o
 .debug_aranges
                0x00000aa8       0x30 build/RS2ALL_UIO_obj/portevent.o
 .debug_aranges
                0x00000ad8       0x40 build/RS2ALL_UIO_obj/portserial.o
 .debug_aranges
                0x00000b18       0x40 build/RS2ALL_UIO_obj/porttimer.o
 .debug_aranges
                0x00000b58       0x50 build/RS2ALL_UIO_obj/registers.o
 .debug_aranges
                0x00000ba8       0x28 build/RS2ALL_UIO_obj/modbus.o
 .debug_aranges
                0x00000bd0       0x38 build/RS2ALL_UIO_obj/swtimer.o
 .debug_aranges
                0x00000c08       0x58 build/RS2ALL_UIO_obj/uio.o

.debug_ranges   0x00000000     0x18b8
 .debug_ranges  0x00000000       0x10 build/RS2ALL_UIO_obj/main.o
 .debug_ranges  0x00000010       0xa0 build/RS2ALL_UIO_obj/stm32f0xx_hal.o
 .debug_ranges  0x000000b0      0x1f0 build/RS2ALL_UIO_obj/stm32f0xx_hal_adc.o
 .debug_ranges  0x000002a0       0x10 build/RS2ALL_UIO_obj/stm32f0xx_hal_adc_ex.o
 .debug_ranges  0x000002b0      0x100 build/RS2ALL_UIO_obj/stm32f0xx_hal_cortex.o
 .debug_ranges  0x000003b0      0x110 build/RS2ALL_UIO_obj/stm32f0xx_hal_dma.o
 .debug_ranges  0x000004c0       0x88 build/RS2ALL_UIO_obj/stm32f0xx_hal_gpio.o
 .debug_ranges  0x00000548       0xf8 build/RS2ALL_UIO_obj/stm32f0xx_hal_rcc.o
 .debug_ranges  0x00000640       0x50 build/RS2ALL_UIO_obj/stm32f0xx_hal_rcc_ex.o
 .debug_ranges  0x00000690      0x880 build/RS2ALL_UIO_obj/stm32f0xx_hal_tim.o
 .debug_ranges  0x00000f10      0x180 build/RS2ALL_UIO_obj/stm32f0xx_hal_tim_ex.o
 .debug_ranges  0x00001090      0x360 build/RS2ALL_UIO_obj/stm32f0xx_hal_uart.o
 .debug_ranges  0x000013f0       0x18 build/RS2ALL_UIO_obj/stm32f0xx_hal_uart_ex.o
 .debug_ranges  0x00001408       0x18 build/RS2ALL_UIO_obj/system_stm32f0xx.o
 .debug_ranges  0x00001420      0x128 build/RS2ALL_UIO_obj/clock.o
 .debug_ranges  0x00001548       0x50 build/RS2ALL_UIO_obj/systick.o
 .debug_ranges  0x00001598       0x18 build/RS2ALL_UIO_obj/led.o
 .debug_ranges  0x000015b0       0x20 build/RS2ALL_UIO_obj/mbfunccoils.o
 .debug_ranges  0x000015d0       0x10 build/RS2ALL_UIO_obj/mbfuncdisc.o
 .debug_ranges  0x000015e0       0x28 build/RS2ALL_UIO_obj/mbfuncholding.o
 .debug_ranges  0x00001608       0x10 build/RS2ALL_UIO_obj/mbfuncinput.o
 .debug_ranges  0x00001618       0x20 build/RS2ALL_UIO_obj/mbutils.o
 .debug_ranges  0x00001638       0x10 build/RS2ALL_UIO_obj/mbcrc.o
 .debug_ranges  0x00001648       0x48 build/RS2ALL_UIO_obj/mbrtu.o
 .debug_ranges  0x00001690       0x38 build/RS2ALL_UIO_obj/mb.o
 .debug_ranges  0x000016c8       0x20 build/RS2ALL_UIO_obj/portevent.o
 .debug_ranges  0x000016e8       0x30 build/RS2ALL_UIO_obj/portserial.o
 .debug_ranges  0x00001718       0x30 build/RS2ALL_UIO_obj/porttimer.o
 .debug_ranges  0x00001748       0x40 build/RS2ALL_UIO_obj/registers.o
 .debug_ranges  0x00001788       0x38 build/RS2ALL_UIO_obj/modbus.o
 .debug_ranges  0x000017c0       0x28 build/RS2ALL_UIO_obj/swtimer.o
 .debug_ranges  0x000017e8       0xd0 build/RS2ALL_UIO_obj/uio.o

.debug_line     0x00000000     0xc3dd
 .debug_line    0x00000000      0x466 build/RS2ALL_UIO_obj/main.o
 .debug_line    0x00000466      0x57c build/RS2ALL_UIO_obj/stm32f0xx_hal.o
 .debug_line    0x000009e2      0xa20 build/RS2ALL_UIO_obj/stm32f0xx_hal_adc.o
 .debug_line    0x00001402      0x445 build/RS2ALL_UIO_obj/stm32f0xx_hal_adc_ex.o
 .debug_line    0x00001847      0x518 build/RS2ALL_UIO_obj/stm32f0xx_hal_cortex.o
 .debug_line    0x00001d5f      0x6f4 build/RS2ALL_UIO_obj/stm32f0xx_hal_dma.o
 .debug_line    0x00002453      0x551 build/RS2ALL_UIO_obj/stm32f0xx_hal_gpio.o
 .debug_line    0x000029a4      0x775 build/RS2ALL_UIO_obj/stm32f0xx_hal_rcc.o
 .debug_line    0x00003119      0x4cc build/RS2ALL_UIO_obj/stm32f0xx_hal_rcc_ex.o
 .debug_line    0x000035e5     0x1980 build/RS2ALL_UIO_obj/stm32f0xx_hal_tim.o
 .debug_line    0x00004f65      0x94d build/RS2ALL_UIO_obj/stm32f0xx_hal_tim_ex.o
 .debug_line    0x000058b2     0x109d build/RS2ALL_UIO_obj/stm32f0xx_hal_uart.o
 .debug_line    0x0000694f      0x415 build/RS2ALL_UIO_obj/stm32f0xx_hal_uart_ex.o
 .debug_line    0x00006d64      0x37a build/RS2ALL_UIO_obj/system_stm32f0xx.o
 .debug_line    0x000070de      0x3ef build/RS2ALL_UIO_obj/clock.o
 .debug_line    0x000074cd      0x386 build/RS2ALL_UIO_obj/systick.o
 .debug_line    0x00007853      0x39c build/RS2ALL_UIO_obj/led.o
 .debug_line    0x00007bef      0x51c build/RS2ALL_UIO_obj/mbfunccoils.o
 .debug_line    0x0000810b      0x49c build/RS2ALL_UIO_obj/mbfuncdisc.o
 .debug_line    0x000085a7      0x53e build/RS2ALL_UIO_obj/mbfuncholding.o
 .debug_line    0x00008ae5      0x48f build/RS2ALL_UIO_obj/mbfuncinput.o
 .debug_line    0x00008f74      0x4ad build/RS2ALL_UIO_obj/mbutils.o
 .debug_line    0x00009421      0x360 build/RS2ALL_UIO_obj/mbcrc.o
 .debug_line    0x00009781      0x5fa build/RS2ALL_UIO_obj/mbrtu.o
 .debug_line    0x00009d7b      0x624 build/RS2ALL_UIO_obj/mb.o
 .debug_line    0x0000a39f      0x392 build/RS2ALL_UIO_obj/portevent.o
 .debug_line    0x0000a731      0x50c build/RS2ALL_UIO_obj/portserial.o
 .debug_line    0x0000ac3d      0x489 build/RS2ALL_UIO_obj/porttimer.o
 .debug_line    0x0000b0c6      0x5ca build/RS2ALL_UIO_obj/registers.o
 .debug_line    0x0000b690      0x432 build/RS2ALL_UIO_obj/modbus.o
 .debug_line    0x0000bac2      0x3d4 build/RS2ALL_UIO_obj/swtimer.o
 .debug_line    0x0000be96      0x547 build/RS2ALL_UIO_obj/uio.o

.debug_str      0x00000000     0x4c76
 .debug_str     0x00000000      0x7f1 build/RS2ALL_UIO_obj/main.o
                                0x891 (size before relaxing)
 .debug_str     0x000007f1      0x424 build/RS2ALL_UIO_obj/stm32f0xx_hal.o
                                0x9e4 (size before relaxing)
 .debug_str     0x00000c15      0x672 build/RS2ALL_UIO_obj/stm32f0xx_hal_adc.o
                                0xcec (size before relaxing)
 .debug_str     0x00001287       0x8a build/RS2ALL_UIO_obj/stm32f0xx_hal_adc_ex.o
                                0x9d2 (size before relaxing)
 .debug_str     0x00001311      0x1e3 build/RS2ALL_UIO_obj/stm32f0xx_hal_cortex.o
                                0x9ec (size before relaxing)
 .debug_str     0x000014f4      0x246 build/RS2ALL_UIO_obj/stm32f0xx_hal_dma.o
                                0xa55 (size before relaxing)
 .debug_str     0x0000173a      0x1d4 build/RS2ALL_UIO_obj/stm32f0xx_hal_gpio.o
                                0x846 (size before relaxing)
 .debug_str     0x0000190e      0x2f3 build/RS2ALL_UIO_obj/stm32f0xx_hal_rcc.o
                                0xa1f (size before relaxing)
 .debug_str     0x00001c01      0x13a build/RS2ALL_UIO_obj/stm32f0xx_hal_rcc_ex.o
                                0x7e6 (size before relaxing)
 .debug_str     0x00001d3b      0xf4a build/RS2ALL_UIO_obj/stm32f0xx_hal_tim.o
                               0x17c1 (size before relaxing)
 .debug_str     0x00002c85      0x520 build/RS2ALL_UIO_obj/stm32f0xx_hal_tim_ex.o
                               0x1033 (size before relaxing)
 .debug_str     0x000031a5      0x870 build/RS2ALL_UIO_obj/stm32f0xx_hal_uart.o
                               0x1194 (size before relaxing)
 .debug_str     0x00003a15       0xb3 build/RS2ALL_UIO_obj/stm32f0xx_hal_uart_ex.o
                                0xb61 (size before relaxing)
 .debug_str     0x00003ac8       0x72 build/RS2ALL_UIO_obj/system_stm32f0xx.o
                                0x671 (size before relaxing)
 .debug_str     0x00003b3a       0x65 build/RS2ALL_UIO_obj/clock.o
                                0x879 (size before relaxing)
 .debug_str     0x00003b9f       0x34 build/RS2ALL_UIO_obj/systick.o
                                0x652 (size before relaxing)
 .debug_str     0x00003bd3       0x30 build/RS2ALL_UIO_obj/led.o
                                0x6c8 (size before relaxing)
 .debug_str     0x00003c03      0x2ec build/RS2ALL_UIO_obj/mbfunccoils.o
                                0x8ac (size before relaxing)
 .debug_str     0x00003eef       0x76 build/RS2ALL_UIO_obj/mbfuncdisc.o
                                0x847 (size before relaxing)
 .debug_str     0x00003f65      0x143 build/RS2ALL_UIO_obj/mbfuncholding.o
                                0x924 (size before relaxing)
 .debug_str     0x000040a8       0x65 build/RS2ALL_UIO_obj/mbfuncinput.o
                                0x838 (size before relaxing)
 .debug_str     0x0000410d       0xba build/RS2ALL_UIO_obj/mbutils.o
                                0x84f (size before relaxing)
 .debug_str     0x000041c7       0x55 build/RS2ALL_UIO_obj/mbcrc.o
                                0x641 (size before relaxing)
 .debug_str     0x0000421c      0x2f0 build/RS2ALL_UIO_obj/mbrtu.o
                                0x9a9 (size before relaxing)
 .debug_str     0x0000450c      0x233 build/RS2ALL_UIO_obj/mb.o
                                0xaaf (size before relaxing)
 .debug_str     0x0000473f       0x5d build/RS2ALL_UIO_obj/portevent.o
                                0x6d3 (size before relaxing)
 .debug_str     0x0000479c       0x7b build/RS2ALL_UIO_obj/portserial.o
                                0xdb0 (size before relaxing)
 .debug_str     0x00004817       0x6a build/RS2ALL_UIO_obj/porttimer.o
                                0xc98 (size before relaxing)
 .debug_str     0x00004881      0x11a build/RS2ALL_UIO_obj/registers.o
                                0x8c8 (size before relaxing)
 .debug_str     0x0000499b       0x41 build/RS2ALL_UIO_obj/modbus.o
                                0x793 (size before relaxing)
 .debug_str     0x000049dc       0xb0 build/RS2ALL_UIO_obj/swtimer.o
                                0x78c (size before relaxing)
 .debug_str     0x00004a8c      0x1ea build/RS2ALL_UIO_obj/uio.o
                                0xebf (size before relaxing)

.comment        0x00000000       0x7f
 .comment       0x00000000       0x7f build/RS2ALL_UIO_obj/main.o
                                 0x80 (size before relaxing)
 .comment       0x0000007f       0x80 build/RS2ALL_UIO_obj/stm32f0xx_hal.o
 .comment       0x0000007f       0x80 build/RS2ALL_UIO_obj/stm32f0xx_hal_adc.o
 .comment       0x0000007f       0x80 build/RS2ALL_UIO_obj/stm32f0xx_hal_adc_ex.o
 .comment       0x0000007f       0x80 build/RS2ALL_UIO_obj/stm32f0xx_hal_cortex.o
 .comment       0x0000007f       0x80 build/RS2ALL_UIO_obj/stm32f0xx_hal_dma.o
 .comment       0x0000007f       0x80 build/RS2ALL_UIO_obj/stm32f0xx_hal_gpio.o
 .comment       0x0000007f       0x80 build/RS2ALL_UIO_obj/stm32f0xx_hal_rcc.o
 .comment       0x0000007f       0x80 build/RS2ALL_UIO_obj/stm32f0xx_hal_rcc_ex.o
 .comment       0x0000007f       0x80 build/RS2ALL_UIO_obj/stm32f0xx_hal_tim.o
 .comment       0x0000007f       0x80 build/RS2ALL_UIO_obj/stm32f0xx_hal_tim_ex.o
 .comment       0x0000007f       0x80 build/RS2ALL_UIO_obj/stm32f0xx_hal_uart.o
 .comment       0x0000007f       0x80 build/RS2ALL_UIO_obj/stm32f0xx_hal_uart_ex.o
 .comment       0x0000007f       0x80 build/RS2ALL_UIO_obj/system_stm32f0xx.o
 .comment       0x0000007f       0x80 build/RS2ALL_UIO_obj/clock.o
 .comment       0x0000007f       0x80 build/RS2ALL_UIO_obj/systick.o
 .comment       0x0000007f       0x80 build/RS2ALL_UIO_obj/led.o
 .comment       0x0000007f       0x80 build/RS2ALL_UIO_obj/mbfunccoils.o
 .comment       0x0000007f       0x80 build/RS2ALL_UIO_obj/mbfuncdisc.o
 .comment       0x0000007f       0x80 build/RS2ALL_UIO_obj/mbfuncholding.o
 .comment       0x0000007f       0x80 build/RS2ALL_UIO_obj/mbfuncinput.o
 .comment       0x0000007f       0x80 build/RS2ALL_UIO_obj/mbutils.o
 .comment       0x0000007f       0x80 build/RS2ALL_UIO_obj/mbcrc.o
 .comment       0x0000007f       0x80 build/RS2ALL_UIO_obj/mbrtu.o
 .comment       0x0000007f       0x80 build/RS2ALL_UIO_obj/mb.o
 .comment       0x0000007f       0x80 build/RS2ALL_UIO_obj/portevent.o
 .comment       0x0000007f       0x80 build/RS2ALL_UIO_obj/portserial.o
 .comment       0x0000007f       0x80 build/RS2ALL_UIO_obj/porttimer.o
 .comment       0x0000007f       0x80 build/RS2ALL_UIO_obj/registers.o
 .comment       0x0000007f       0x80 build/RS2ALL_UIO_obj/modbus.o
 .comment       0x0000007f       0x80 build/RS2ALL_UIO_obj/swtimer.o
 .comment       0x0000007f       0x80 build/RS2ALL_UIO_obj/uio.o

.debug_frame    0x00000000     0x25b4
 .debug_frame   0x00000000       0x2c build/RS2ALL_UIO_obj/main.o
 .debug_frame   0x0000002c      0x184 build/RS2ALL_UIO_obj/stm32f0xx_hal.o
 .debug_frame   0x000001b0      0x2d0 build/RS2ALL_UIO_obj/stm32f0xx_hal_adc.o
 .debug_frame   0x00000480       0x30 build/RS2ALL_UIO_obj/stm32f0xx_hal_adc_ex.o
 .debug_frame   0x000004b0       0xf4 build/RS2ALL_UIO_obj/stm32f0xx_hal_cortex.o
 .debug_frame   0x000005a4      0x178 build/RS2ALL_UIO_obj/stm32f0xx_hal_dma.o
 .debug_frame   0x0000071c       0xe8 build/RS2ALL_UIO_obj/stm32f0xx_hal_gpio.o
 .debug_frame   0x00000804      0x160 build/RS2ALL_UIO_obj/stm32f0xx_hal_rcc.o
 .debug_frame   0x00000964       0x6c build/RS2ALL_UIO_obj/stm32f0xx_hal_rcc_ex.o
 .debug_frame   0x000009d0      0x968 build/RS2ALL_UIO_obj/stm32f0xx_hal_tim.o
 .debug_frame   0x00001338      0x344 build/RS2ALL_UIO_obj/stm32f0xx_hal_tim_ex.o
 .debug_frame   0x0000167c      0x5bc build/RS2ALL_UIO_obj/stm32f0xx_hal_uart.o
 .debug_frame   0x00001c38       0x58 build/RS2ALL_UIO_obj/stm32f0xx_hal_uart_ex.o
 .debug_frame   0x00001c90       0x3c build/RS2ALL_UIO_obj/system_stm32f0xx.o
 .debug_frame   0x00001ccc       0x30 build/RS2ALL_UIO_obj/clock.o
 .debug_frame   0x00001cfc       0x40 build/RS2ALL_UIO_obj/systick.o
 .debug_frame   0x00001d3c       0x48 build/RS2ALL_UIO_obj/led.o
 .debug_frame   0x00001d84       0x6c build/RS2ALL_UIO_obj/mbfunccoils.o
 .debug_frame   0x00001df0       0x30 build/RS2ALL_UIO_obj/mbfuncdisc.o
 .debug_frame   0x00001e20       0x94 build/RS2ALL_UIO_obj/mbfuncholding.o
 .debug_frame   0x00001eb4       0x30 build/RS2ALL_UIO_obj/mbfuncinput.o
 .debug_frame   0x00001ee4       0x5c build/RS2ALL_UIO_obj/mbutils.o
 .debug_frame   0x00001f40       0x30 build/RS2ALL_UIO_obj/mbcrc.o
 .debug_frame   0x00001f70      0x108 build/RS2ALL_UIO_obj/mbrtu.o
 .debug_frame   0x00002078       0xcc build/RS2ALL_UIO_obj/mb.o
 .debug_frame   0x00002144       0x40 build/RS2ALL_UIO_obj/portevent.o
 .debug_frame   0x00002184       0x84 build/RS2ALL_UIO_obj/portserial.o
 .debug_frame   0x00002208       0xa0 build/RS2ALL_UIO_obj/porttimer.o
 .debug_frame   0x000022a8       0xc0 build/RS2ALL_UIO_obj/registers.o
 .debug_frame   0x00002368       0x54 build/RS2ALL_UIO_obj/modbus.o
 .debug_frame   0x000023bc       0x84 build/RS2ALL_UIO_obj/swtimer.o
 .debug_frame   0x00002440      0x100 build/RS2ALL_UIO_obj/uio.o
 .debug_frame   0x00002540       0x2c c:/st/stm32cubeide_1.1.0/stm32cubeide/plugins/com.st.stm32cube.ide.mcu.externaltools.gnu-arm-embedded.7-2018-q2-update.win32_1.0.0.201904081647/tools/bin/../lib/gcc/arm-none-eabi/7.3.1/../../../../arm-none-eabi/lib/thumb/v6-m\libc_nano.a(lib_a-init.o)
 .debug_frame   0x0000256c       0x28 c:/st/stm32cubeide_1.1.0/stm32cubeide/plugins/com.st.stm32cube.ide.mcu.externaltools.gnu-arm-embedded.7-2018-q2-update.win32_1.0.0.201904081647/tools/bin/../lib/gcc/arm-none-eabi/7.3.1/../../../../arm-none-eabi/lib/thumb/v6-m\libc_nano.a(lib_a-memcpy-stub.o)
 .debug_frame   0x00002594       0x20 c:/st/stm32cubeide_1.1.0/stm32cubeide/plugins/com.st.stm32cube.ide.mcu.externaltools.gnu-arm-embedded.7-2018-q2-update.win32_1.0.0.201904081647/tools/bin/../lib/gcc/arm-none-eabi/7.3.1/../../../../arm-none-eabi/lib/thumb/v6-m\libc_nano.a(lib_a-memset.o)

.debug_loc      0x00000000     0xe0f9
 .debug_loc     0x00000000       0x7c build/RS2ALL_UIO_obj/stm32f0xx_hal.o
 .debug_loc     0x0000007c      0xede build/RS2ALL_UIO_obj/stm32f0xx_hal_adc.o
 .debug_loc     0x00000f5a      0x132 build/RS2ALL_UIO_obj/stm32f0xx_hal_adc_ex.o
 .debug_loc     0x0000108c      0x357 build/RS2ALL_UIO_obj/stm32f0xx_hal_cortex.o
 .debug_loc     0x000013e3      0x8e5 build/RS2ALL_UIO_obj/stm32f0xx_hal_dma.o
 .debug_loc     0x00001cc8      0x443 build/RS2ALL_UIO_obj/stm32f0xx_hal_gpio.o
 .debug_loc     0x0000210b      0x5a2 build/RS2ALL_UIO_obj/stm32f0xx_hal_rcc.o
 .debug_loc     0x000026ad      0x289 build/RS2ALL_UIO_obj/stm32f0xx_hal_rcc_ex.o
 .debug_loc     0x00002936     0x59e0 build/RS2ALL_UIO_obj/stm32f0xx_hal_tim.o
 .debug_loc     0x00008316      0xe5d build/RS2ALL_UIO_obj/stm32f0xx_hal_tim_ex.o
 .debug_loc     0x00009173     0x18e0 build/RS2ALL_UIO_obj/stm32f0xx_hal_uart.o
 .debug_loc     0x0000aa53      0x1a2 build/RS2ALL_UIO_obj/stm32f0xx_hal_uart_ex.o
 .debug_loc     0x0000abf5      0x127 build/RS2ALL_UIO_obj/system_stm32f0xx.o
 .debug_loc     0x0000ad1c      0x44b build/RS2ALL_UIO_obj/mbfunccoils.o
 .debug_loc     0x0000b167      0x1ba build/RS2ALL_UIO_obj/mbfuncdisc.o
 .debug_loc     0x0000b321      0x6ce build/RS2ALL_UIO_obj/mbfuncholding.o
 .debug_loc     0x0000b9ef      0x16b build/RS2ALL_UIO_obj/mbfuncinput.o
 .debug_loc     0x0000bb5a      0x3a8 build/RS2ALL_UIO_obj/mbutils.o
 .debug_loc     0x0000bf02       0xe5 build/RS2ALL_UIO_obj/mbcrc.o
 .debug_loc     0x0000bfe7      0x2d3 build/RS2ALL_UIO_obj/mbrtu.o
 .debug_loc     0x0000c2ba      0x7ff build/RS2ALL_UIO_obj/mb.o
 .debug_loc     0x0000cab9       0x6e build/RS2ALL_UIO_obj/portevent.o
 .debug_loc     0x0000cb27      0x1b8 build/RS2ALL_UIO_obj/portserial.o
 .debug_loc     0x0000ccdf       0x5b build/RS2ALL_UIO_obj/porttimer.o
 .debug_loc     0x0000cd3a      0xf8d build/RS2ALL_UIO_obj/registers.o
 .debug_loc     0x0000dcc7       0xe4 build/RS2ALL_UIO_obj/swtimer.o
 .debug_loc     0x0000ddab      0x34e build/RS2ALL_UIO_obj/uio.o

Cross Reference Table

Symbol                                            File
ADC1_IRQHandler                                   build/RS2ALL_UIO_obj/startup_stm32f030k6tx.o
AHBPrescTable                                     build/RS2ALL_UIO_obj/system_stm32f0xx.o
                                                  build/RS2ALL_UIO_obj/stm32f0xx_hal_rcc.o
APBPrescTable                                     build/RS2ALL_UIO_obj/system_stm32f0xx.o
                                                  build/RS2ALL_UIO_obj/stm32f0xx_hal_rcc.o
DMA1_Channel1_IRQHandler                          build/RS2ALL_UIO_obj/startup_stm32f030k6tx.o
DMA1_Channel2_3_IRQHandler                        build/RS2ALL_UIO_obj/startup_stm32f030k6tx.o
DMA1_Channel4_5_IRQHandler                        build/RS2ALL_UIO_obj/startup_stm32f030k6tx.o
Default_Handler                                   build/RS2ALL_UIO_obj/startup_stm32f030k6tx.o
EXTI0_1_IRQHandler                                build/RS2ALL_UIO_obj/uio.o
                                                  build/RS2ALL_UIO_obj/startup_stm32f030k6tx.o
EXTI2_3_IRQHandler                                build/RS2ALL_UIO_obj/uio.o
                                                  build/RS2ALL_UIO_obj/startup_stm32f030k6tx.o
EXTI4_15_IRQHandler                               build/RS2ALL_UIO_obj/uio.o
                                                  build/RS2ALL_UIO_obj/startup_stm32f030k6tx.o
FLASH_IRQHandler                                  build/RS2ALL_UIO_obj/startup_stm32f030k6tx.o
FLASH_PageErase                                   build/RS2ALL_UIO_obj/stm32f0xx_hal_flash_ex.o
                                                  build/RS2ALL_UIO_obj/stm32f0xx_hal_flash.o
FLASH_WaitForLastOperation                        build/RS2ALL_UIO_obj/stm32f0xx_hal_flash.o
                                                  build/RS2ALL_UIO_obj/stm32f0xx_hal_flash_ex.o
HAL_ADCEx_Calibration_Start                       build/RS2ALL_UIO_obj/stm32f0xx_hal_adc_ex.o
                                                  build/RS2ALL_UIO_obj/uio.o
HAL_ADC_AnalogWDGConfig                           build/RS2ALL_UIO_obj/stm32f0xx_hal_adc.o
HAL_ADC_ConfigChannel                             build/RS2ALL_UIO_obj/stm32f0xx_hal_adc.o
                                                  build/RS2ALL_UIO_obj/uio.o
HAL_ADC_ConvCpltCallback                          build/RS2ALL_UIO_obj/stm32f0xx_hal_adc.o
HAL_ADC_ConvHalfCpltCallback                      build/RS2ALL_UIO_obj/stm32f0xx_hal_adc.o
HAL_ADC_DeInit                                    build/RS2ALL_UIO_obj/stm32f0xx_hal_adc.o
HAL_ADC_ErrorCallback                             build/RS2ALL_UIO_obj/stm32f0xx_hal_adc.o
HAL_ADC_GetError                                  build/RS2ALL_UIO_obj/stm32f0xx_hal_adc.o
HAL_ADC_GetState                                  build/RS2ALL_UIO_obj/stm32f0xx_hal_adc.o
HAL_ADC_GetValue                                  build/RS2ALL_UIO_obj/stm32f0xx_hal_adc.o
                                                  build/RS2ALL_UIO_obj/uio.o
HAL_ADC_IRQHandler                                build/RS2ALL_UIO_obj/stm32f0xx_hal_adc.o
HAL_ADC_Init                                      build/RS2ALL_UIO_obj/stm32f0xx_hal_adc.o
                                                  build/RS2ALL_UIO_obj/uio.o
HAL_ADC_LevelOutOfWindowCallback                  build/RS2ALL_UIO_obj/stm32f0xx_hal_adc.o
HAL_ADC_MspDeInit                                 build/RS2ALL_UIO_obj/stm32f0xx_hal_adc.o
HAL_ADC_MspInit                                   build/RS2ALL_UIO_obj/stm32f0xx_hal_adc.o
HAL_ADC_PollForConversion                         build/RS2ALL_UIO_obj/stm32f0xx_hal_adc.o
                                                  build/RS2ALL_UIO_obj/uio.o
HAL_ADC_PollForEvent                              build/RS2ALL_UIO_obj/stm32f0xx_hal_adc.o
HAL_ADC_Start                                     build/RS2ALL_UIO_obj/stm32f0xx_hal_adc.o
                                                  build/RS2ALL_UIO_obj/uio.o
HAL_ADC_Start_DMA                                 build/RS2ALL_UIO_obj/stm32f0xx_hal_adc.o
HAL_ADC_Start_IT                                  build/RS2ALL_UIO_obj/stm32f0xx_hal_adc.o
HAL_ADC_Stop                                      build/RS2ALL_UIO_obj/stm32f0xx_hal_adc.o
                                                  build/RS2ALL_UIO_obj/uio.o
HAL_ADC_Stop_DMA                                  build/RS2ALL_UIO_obj/stm32f0xx_hal_adc.o
HAL_ADC_Stop_IT                                   build/RS2ALL_UIO_obj/stm32f0xx_hal_adc.o
HAL_DBGMCU_DisableDBGStandbyMode                  build/RS2ALL_UIO_obj/stm32f0xx_hal.o
HAL_DBGMCU_DisableDBGStopMode                     build/RS2ALL_UIO_obj/stm32f0xx_hal.o
HAL_DBGMCU_EnableDBGStandbyMode                   build/RS2ALL_UIO_obj/stm32f0xx_hal.o
HAL_DBGMCU_EnableDBGStopMode                      build/RS2ALL_UIO_obj/stm32f0xx_hal.o
HAL_DMA_Abort                                     build/RS2ALL_UIO_obj/stm32f0xx_hal_dma.o
                                                  build/RS2ALL_UIO_obj/stm32f0xx_hal_uart.o
                                                  build/RS2ALL_UIO_obj/stm32f0xx_hal_tim.o
                                                  build/RS2ALL_UIO_obj/stm32f0xx_hal_adc.o
HAL_DMA_Abort_IT                                  build/RS2ALL_UIO_obj/stm32f0xx_hal_dma.o
                                                  build/RS2ALL_UIO_obj/stm32f0xx_hal_uart.o
                                                  build/RS2ALL_UIO_obj/stm32f0xx_hal_i2c.o
HAL_DMA_DeInit                                    build/RS2ALL_UIO_obj/stm32f0xx_hal_dma.o
HAL_DMA_GetError                                  build/RS2ALL_UIO_obj/stm32f0xx_hal_dma.o
HAL_DMA_GetState                                  build/RS2ALL_UIO_obj/stm32f0xx_hal_dma.o
HAL_DMA_IRQHandler                                build/RS2ALL_UIO_obj/stm32f0xx_hal_dma.o
HAL_DMA_Init                                      build/RS2ALL_UIO_obj/stm32f0xx_hal_dma.o
HAL_DMA_PollForTransfer                           build/RS2ALL_UIO_obj/stm32f0xx_hal_dma.o
HAL_DMA_RegisterCallback                          build/RS2ALL_UIO_obj/stm32f0xx_hal_dma.o
HAL_DMA_Start                                     build/RS2ALL_UIO_obj/stm32f0xx_hal_dma.o
HAL_DMA_Start_IT                                  build/RS2ALL_UIO_obj/stm32f0xx_hal_dma.o
                                                  build/RS2ALL_UIO_obj/stm32f0xx_hal_uart.o
                                                  build/RS2ALL_UIO_obj/stm32f0xx_hal_tim_ex.o
                                                  build/RS2ALL_UIO_obj/stm32f0xx_hal_tim.o
                                                  build/RS2ALL_UIO_obj/stm32f0xx_hal_i2c.o
                                                  build/RS2ALL_UIO_obj/stm32f0xx_hal_adc.o
HAL_DMA_UnRegisterCallback                        build/RS2ALL_UIO_obj/stm32f0xx_hal_dma.o
HAL_DeInit                                        build/RS2ALL_UIO_obj/stm32f0xx_hal.o
HAL_Delay                                         build/RS2ALL_UIO_obj/stm32f0xx_hal.o
HAL_FLASHEx_Erase                                 build/RS2ALL_UIO_obj/stm32f0xx_hal_flash_ex.o
HAL_FLASHEx_Erase_IT                              build/RS2ALL_UIO_obj/stm32f0xx_hal_flash_ex.o
HAL_FLASHEx_OBErase                               build/RS2ALL_UIO_obj/stm32f0xx_hal_flash_ex.o
HAL_FLASHEx_OBGetConfig                           build/RS2ALL_UIO_obj/stm32f0xx_hal_flash_ex.o
HAL_FLASHEx_OBGetUserData                         build/RS2ALL_UIO_obj/stm32f0xx_hal_flash_ex.o
HAL_FLASHEx_OBProgram                             build/RS2ALL_UIO_obj/stm32f0xx_hal_flash_ex.o
HAL_FLASH_EndOfOperationCallback                  build/RS2ALL_UIO_obj/stm32f0xx_hal_flash.o
HAL_FLASH_GetError                                build/RS2ALL_UIO_obj/stm32f0xx_hal_flash.o
HAL_FLASH_IRQHandler                              build/RS2ALL_UIO_obj/stm32f0xx_hal_flash.o
HAL_FLASH_Lock                                    build/RS2ALL_UIO_obj/stm32f0xx_hal_flash.o
HAL_FLASH_OB_Launch                               build/RS2ALL_UIO_obj/stm32f0xx_hal_flash.o
HAL_FLASH_OB_Lock                                 build/RS2ALL_UIO_obj/stm32f0xx_hal_flash.o
HAL_FLASH_OB_Unlock                               build/RS2ALL_UIO_obj/stm32f0xx_hal_flash.o
HAL_FLASH_OperationErrorCallback                  build/RS2ALL_UIO_obj/stm32f0xx_hal_flash.o
HAL_FLASH_Program                                 build/RS2ALL_UIO_obj/stm32f0xx_hal_flash.o
HAL_FLASH_Program_IT                              build/RS2ALL_UIO_obj/stm32f0xx_hal_flash.o
HAL_FLASH_Unlock                                  build/RS2ALL_UIO_obj/stm32f0xx_hal_flash.o
HAL_GPIO_DeInit                                   build/RS2ALL_UIO_obj/stm32f0xx_hal_gpio.o
HAL_GPIO_EXTI_Callback                            build/RS2ALL_UIO_obj/uio.o
                                                  build/RS2ALL_UIO_obj/stm32f0xx_hal_gpio.o
HAL_GPIO_EXTI_IRQHandler                          build/RS2ALL_UIO_obj/stm32f0xx_hal_gpio.o
                                                  build/RS2ALL_UIO_obj/uio.o
HAL_GPIO_Init                                     build/RS2ALL_UIO_obj/stm32f0xx_hal_gpio.o
                                                  build/RS2ALL_UIO_obj/uio.o
                                                  build/RS2ALL_UIO_obj/modbus.o
                                                  build/RS2ALL_UIO_obj/led.o
                                                  build/RS2ALL_UIO_obj/stm32f0xx_hal_rcc.o
HAL_GPIO_LockPin                                  build/RS2ALL_UIO_obj/stm32f0xx_hal_gpio.o
HAL_GPIO_ReadPin                                  build/RS2ALL_UIO_obj/stm32f0xx_hal_gpio.o
                                                  build/RS2ALL_UIO_obj/uio.o
HAL_GPIO_TogglePin                                build/RS2ALL_UIO_obj/stm32f0xx_hal_gpio.o
                                                  build/RS2ALL_UIO_obj/led.o
HAL_GPIO_WritePin                                 build/RS2ALL_UIO_obj/stm32f0xx_hal_gpio.o
                                                  build/RS2ALL_UIO_obj/uio.o
                                                  build/RS2ALL_UIO_obj/portserial.o
                                                  build/RS2ALL_UIO_obj/led.o
HAL_GetDEVID                                      build/RS2ALL_UIO_obj/stm32f0xx_hal.o
HAL_GetHalVersion                                 build/RS2ALL_UIO_obj/stm32f0xx_hal.o
HAL_GetREVID                                      build/RS2ALL_UIO_obj/stm32f0xx_hal.o
HAL_GetTick                                       build/RS2ALL_UIO_obj/stm32f0xx_hal.o
                                                  build/RS2ALL_UIO_obj/swtimer.o
                                                  build/RS2ALL_UIO_obj/stm32f0xx_hal_uart.o
                                                  build/RS2ALL_UIO_obj/stm32f0xx_hal_rcc_ex.o
                                                  build/RS2ALL_UIO_obj/stm32f0xx_hal_rcc.o
                                                  build/RS2ALL_UIO_obj/stm32f0xx_hal_i2c.o
                                                  build/RS2ALL_UIO_obj/stm32f0xx_hal_flash.o
                                                  build/RS2ALL_UIO_obj/stm32f0xx_hal_dma.o
                                                  build/RS2ALL_UIO_obj/stm32f0xx_hal_adc_ex.o
                                                  build/RS2ALL_UIO_obj/stm32f0xx_hal_adc.o
HAL_GetUIDw0                                      build/RS2ALL_UIO_obj/stm32f0xx_hal.o
HAL_GetUIDw1                                      build/RS2ALL_UIO_obj/stm32f0xx_hal.o
HAL_GetUIDw2                                      build/RS2ALL_UIO_obj/stm32f0xx_hal.o
HAL_HalfDuplex_EnableReceiver                     build/RS2ALL_UIO_obj/stm32f0xx_hal_uart.o
HAL_HalfDuplex_EnableTransmitter                  build/RS2ALL_UIO_obj/stm32f0xx_hal_uart.o
HAL_HalfDuplex_Init                               build/RS2ALL_UIO_obj/stm32f0xx_hal_uart.o
HAL_I2CEx_ConfigAnalogFilter                      build/RS2ALL_UIO_obj/stm32f0xx_hal_i2c_ex.o
HAL_I2CEx_ConfigDigitalFilter                     build/RS2ALL_UIO_obj/stm32f0xx_hal_i2c_ex.o
HAL_I2CEx_DisableFastModePlus                     build/RS2ALL_UIO_obj/stm32f0xx_hal_i2c_ex.o
HAL_I2CEx_EnableFastModePlus                      build/RS2ALL_UIO_obj/stm32f0xx_hal_i2c_ex.o
HAL_I2C_AbortCpltCallback                         build/RS2ALL_UIO_obj/stm32f0xx_hal_i2c.o
HAL_I2C_AddrCallback                              build/RS2ALL_UIO_obj/stm32f0xx_hal_i2c.o
HAL_I2C_DeInit                                    build/RS2ALL_UIO_obj/stm32f0xx_hal_i2c.o
HAL_I2C_DisableListen_IT                          build/RS2ALL_UIO_obj/stm32f0xx_hal_i2c.o
HAL_I2C_ER_IRQHandler                             build/RS2ALL_UIO_obj/stm32f0xx_hal_i2c.o
HAL_I2C_EV_IRQHandler                             build/RS2ALL_UIO_obj/stm32f0xx_hal_i2c.o
HAL_I2C_EnableListen_IT                           build/RS2ALL_UIO_obj/stm32f0xx_hal_i2c.o
HAL_I2C_ErrorCallback                             build/RS2ALL_UIO_obj/stm32f0xx_hal_i2c.o
HAL_I2C_GetError                                  build/RS2ALL_UIO_obj/stm32f0xx_hal_i2c.o
HAL_I2C_GetMode                                   build/RS2ALL_UIO_obj/stm32f0xx_hal_i2c.o
HAL_I2C_GetState                                  build/RS2ALL_UIO_obj/stm32f0xx_hal_i2c.o
HAL_I2C_Init                                      build/RS2ALL_UIO_obj/stm32f0xx_hal_i2c.o
HAL_I2C_IsDeviceReady                             build/RS2ALL_UIO_obj/stm32f0xx_hal_i2c.o
HAL_I2C_ListenCpltCallback                        build/RS2ALL_UIO_obj/stm32f0xx_hal_i2c.o
HAL_I2C_MasterRxCpltCallback                      build/RS2ALL_UIO_obj/stm32f0xx_hal_i2c.o
HAL_I2C_MasterTxCpltCallback                      build/RS2ALL_UIO_obj/stm32f0xx_hal_i2c.o
HAL_I2C_Master_Abort_IT                           build/RS2ALL_UIO_obj/stm32f0xx_hal_i2c.o
HAL_I2C_Master_Receive                            build/RS2ALL_UIO_obj/stm32f0xx_hal_i2c.o
HAL_I2C_Master_Receive_DMA                        build/RS2ALL_UIO_obj/stm32f0xx_hal_i2c.o
HAL_I2C_Master_Receive_IT                         build/RS2ALL_UIO_obj/stm32f0xx_hal_i2c.o
HAL_I2C_Master_Sequential_Receive_IT              build/RS2ALL_UIO_obj/stm32f0xx_hal_i2c.o
HAL_I2C_Master_Sequential_Transmit_IT             build/RS2ALL_UIO_obj/stm32f0xx_hal_i2c.o
HAL_I2C_Master_Transmit                           build/RS2ALL_UIO_obj/stm32f0xx_hal_i2c.o
HAL_I2C_Master_Transmit_DMA                       build/RS2ALL_UIO_obj/stm32f0xx_hal_i2c.o
HAL_I2C_Master_Transmit_IT                        build/RS2ALL_UIO_obj/stm32f0xx_hal_i2c.o
HAL_I2C_MemRxCpltCallback                         build/RS2ALL_UIO_obj/stm32f0xx_hal_i2c.o
HAL_I2C_MemTxCpltCallback                         build/RS2ALL_UIO_obj/stm32f0xx_hal_i2c.o
HAL_I2C_Mem_Read                                  build/RS2ALL_UIO_obj/stm32f0xx_hal_i2c.o
HAL_I2C_Mem_Read_DMA                              build/RS2ALL_UIO_obj/stm32f0xx_hal_i2c.o
HAL_I2C_Mem_Read_IT                               build/RS2ALL_UIO_obj/stm32f0xx_hal_i2c.o
HAL_I2C_Mem_Write                                 build/RS2ALL_UIO_obj/stm32f0xx_hal_i2c.o
HAL_I2C_Mem_Write_DMA                             build/RS2ALL_UIO_obj/stm32f0xx_hal_i2c.o
HAL_I2C_Mem_Write_IT                              build/RS2ALL_UIO_obj/stm32f0xx_hal_i2c.o
HAL_I2C_MspDeInit                                 build/RS2ALL_UIO_obj/stm32f0xx_hal_i2c.o
HAL_I2C_MspInit                                   build/RS2ALL_UIO_obj/stm32f0xx_hal_i2c.o
HAL_I2C_SlaveRxCpltCallback                       build/RS2ALL_UIO_obj/stm32f0xx_hal_i2c.o
HAL_I2C_SlaveTxCpltCallback                       build/RS2ALL_UIO_obj/stm32f0xx_hal_i2c.o
HAL_I2C_Slave_Receive                             build/RS2ALL_UIO_obj/stm32f0xx_hal_i2c.o
HAL_I2C_Slave_Receive_DMA                         build/RS2ALL_UIO_obj/stm32f0xx_hal_i2c.o
HAL_I2C_Slave_Receive_IT                          build/RS2ALL_UIO_obj/stm32f0xx_hal_i2c.o
HAL_I2C_Slave_Sequential_Receive_IT               build/RS2ALL_UIO_obj/stm32f0xx_hal_i2c.o
HAL_I2C_Slave_Sequential_Transmit_IT              build/RS2ALL_UIO_obj/stm32f0xx_hal_i2c.o
HAL_I2C_Slave_Transmit                            build/RS2ALL_UIO_obj/stm32f0xx_hal_i2c.o
HAL_I2C_Slave_Transmit_DMA                        build/RS2ALL_UIO_obj/stm32f0xx_hal_i2c.o
HAL_I2C_Slave_Transmit_IT                         build/RS2ALL_UIO_obj/stm32f0xx_hal_i2c.o
HAL_IncTick                                       build/RS2ALL_UIO_obj/stm32f0xx_hal.o
                                                  build/RS2ALL_UIO_obj/systick.o
HAL_Init                                          build/RS2ALL_UIO_obj/stm32f0xx_hal.o
                                                  build/RS2ALL_UIO_obj/main.o
HAL_InitTick                                      build/RS2ALL_UIO_obj/stm32f0xx_hal.o
                                                  build/RS2ALL_UIO_obj/stm32f0xx_hal_rcc.o
HAL_MspDeInit                                     build/RS2ALL_UIO_obj/stm32f0xx_hal.o
HAL_MspInit                                       build/RS2ALL_UIO_obj/systick.o
                                                  build/RS2ALL_UIO_obj/stm32f0xx_hal.o
HAL_MultiProcessorEx_AddressLength_Set            build/RS2ALL_UIO_obj/stm32f0xx_hal_uart_ex.o
HAL_MultiProcessor_DisableMuteMode                build/RS2ALL_UIO_obj/stm32f0xx_hal_uart.o
HAL_MultiProcessor_EnableMuteMode                 build/RS2ALL_UIO_obj/stm32f0xx_hal_uart.o
HAL_MultiProcessor_EnterMuteMode                  build/RS2ALL_UIO_obj/stm32f0xx_hal_uart.o
HAL_MultiProcessor_Init                           build/RS2ALL_UIO_obj/stm32f0xx_hal_uart.o
HAL_NVIC_ClearPendingIRQ                          build/RS2ALL_UIO_obj/stm32f0xx_hal_cortex.o
HAL_NVIC_DisableIRQ                               build/RS2ALL_UIO_obj/stm32f0xx_hal_cortex.o
HAL_NVIC_EnableIRQ                                build/RS2ALL_UIO_obj/stm32f0xx_hal_cortex.o
                                                  build/RS2ALL_UIO_obj/uio.o
                                                  build/RS2ALL_UIO_obj/porttimer.o
                                                  build/RS2ALL_UIO_obj/portserial.o
HAL_NVIC_GetPendingIRQ                            build/RS2ALL_UIO_obj/stm32f0xx_hal_cortex.o
HAL_NVIC_GetPriority                              build/RS2ALL_UIO_obj/stm32f0xx_hal_cortex.o
HAL_NVIC_SetPendingIRQ                            build/RS2ALL_UIO_obj/stm32f0xx_hal_cortex.o
HAL_NVIC_SetPriority                              build/RS2ALL_UIO_obj/stm32f0xx_hal_cortex.o
                                                  build/RS2ALL_UIO_obj/uio.o
                                                  build/RS2ALL_UIO_obj/porttimer.o
                                                  build/RS2ALL_UIO_obj/portserial.o
                                                  build/RS2ALL_UIO_obj/stm32f0xx_hal.o
HAL_NVIC_SystemReset                              build/RS2ALL_UIO_obj/stm32f0xx_hal_cortex.o
HAL_PWR_DeInit                                    build/RS2ALL_UIO_obj/stm32f0xx_hal_pwr.o
HAL_PWR_DisableBkUpAccess                         build/RS2ALL_UIO_obj/stm32f0xx_hal_pwr.o
HAL_PWR_DisableSEVOnPend                          build/RS2ALL_UIO_obj/stm32f0xx_hal_pwr.o
HAL_PWR_DisableSleepOnExit                        build/RS2ALL_UIO_obj/stm32f0xx_hal_pwr.o
HAL_PWR_DisableWakeUpPin                          build/RS2ALL_UIO_obj/stm32f0xx_hal_pwr.o
HAL_PWR_EnableBkUpAccess                          build/RS2ALL_UIO_obj/stm32f0xx_hal_pwr.o
HAL_PWR_EnableSEVOnPend                           build/RS2ALL_UIO_obj/stm32f0xx_hal_pwr.o
HAL_PWR_EnableSleepOnExit                         build/RS2ALL_UIO_obj/stm32f0xx_hal_pwr.o
HAL_PWR_EnableWakeUpPin                           build/RS2ALL_UIO_obj/stm32f0xx_hal_pwr.o
HAL_PWR_EnterSLEEPMode                            build/RS2ALL_UIO_obj/stm32f0xx_hal_pwr.o
HAL_PWR_EnterSTANDBYMode                          build/RS2ALL_UIO_obj/stm32f0xx_hal_pwr.o
HAL_PWR_EnterSTOPMode                             build/RS2ALL_UIO_obj/stm32f0xx_hal_pwr.o
HAL_RCCEx_GetPeriphCLKConfig                      build/RS2ALL_UIO_obj/stm32f0xx_hal_rcc_ex.o
HAL_RCCEx_GetPeriphCLKFreq                        build/RS2ALL_UIO_obj/stm32f0xx_hal_rcc_ex.o
HAL_RCCEx_PeriphCLKConfig                         build/RS2ALL_UIO_obj/stm32f0xx_hal_rcc_ex.o
                                                  build/RS2ALL_UIO_obj/clock.o
HAL_RCC_CSSCallback                               build/RS2ALL_UIO_obj/stm32f0xx_hal_rcc.o
HAL_RCC_ClockConfig                               build/RS2ALL_UIO_obj/stm32f0xx_hal_rcc.o
                                                  build/RS2ALL_UIO_obj/clock.o
HAL_RCC_DeInit                                    build/RS2ALL_UIO_obj/stm32f0xx_hal_rcc.o
HAL_RCC_DisableCSS                                build/RS2ALL_UIO_obj/stm32f0xx_hal_rcc.o
HAL_RCC_EnableCSS                                 build/RS2ALL_UIO_obj/stm32f0xx_hal_rcc.o
HAL_RCC_GetClockConfig                            build/RS2ALL_UIO_obj/stm32f0xx_hal_rcc.o
HAL_RCC_GetHCLKFreq                               build/RS2ALL_UIO_obj/stm32f0xx_hal_rcc.o
                                                  build/RS2ALL_UIO_obj/stm32f0xx_hal.o
HAL_RCC_GetOscConfig                              build/RS2ALL_UIO_obj/stm32f0xx_hal_rcc.o
HAL_RCC_GetPCLK1Freq                              build/RS2ALL_UIO_obj/stm32f0xx_hal_rcc.o
                                                  build/RS2ALL_UIO_obj/porttimer.o
                                                  build/RS2ALL_UIO_obj/stm32f0xx_hal_uart.o
                                                  build/RS2ALL_UIO_obj/stm32f0xx_hal_rcc_ex.o
HAL_RCC_GetSysClockFreq                           build/RS2ALL_UIO_obj/stm32f0xx_hal_rcc.o
                                                  build/RS2ALL_UIO_obj/stm32f0xx_hal_uart.o
                                                  build/RS2ALL_UIO_obj/stm32f0xx_hal_rcc_ex.o
HAL_RCC_MCOConfig                                 build/RS2ALL_UIO_obj/stm32f0xx_hal_rcc.o
HAL_RCC_NMI_IRQHandler                            build/RS2ALL_UIO_obj/stm32f0xx_hal_rcc.o
HAL_RCC_OscConfig                                 build/RS2ALL_UIO_obj/stm32f0xx_hal_rcc.o
                                                  build/RS2ALL_UIO_obj/clock.o
HAL_RS485Ex_Init                                  build/RS2ALL_UIO_obj/stm32f0xx_hal_uart_ex.o
                                                  build/RS2ALL_UIO_obj/portserial.o
HAL_ResumeTick                                    build/RS2ALL_UIO_obj/stm32f0xx_hal.o
HAL_SYSTICK_CLKSourceConfig                       build/RS2ALL_UIO_obj/stm32f0xx_hal_cortex.o
HAL_SYSTICK_Callback                              build/RS2ALL_UIO_obj/stm32f0xx_hal_cortex.o
HAL_SYSTICK_Config                                build/RS2ALL_UIO_obj/stm32f0xx_hal_cortex.o
                                                  build/RS2ALL_UIO_obj/stm32f0xx_hal.o
HAL_SYSTICK_IRQHandler                            build/RS2ALL_UIO_obj/stm32f0xx_hal_cortex.o
HAL_SuspendTick                                   build/RS2ALL_UIO_obj/stm32f0xx_hal.o
HAL_TIMEx_BreakCallback                           build/RS2ALL_UIO_obj/stm32f0xx_hal_tim_ex.o
                                                  build/RS2ALL_UIO_obj/stm32f0xx_hal_tim.o
HAL_TIMEx_CommutationCallback                     build/RS2ALL_UIO_obj/stm32f0xx_hal_tim_ex.o
                                                  build/RS2ALL_UIO_obj/stm32f0xx_hal_tim.o
HAL_TIMEx_ConfigBreakDeadTime                     build/RS2ALL_UIO_obj/stm32f0xx_hal_tim_ex.o
HAL_TIMEx_ConfigCommutationEvent                  build/RS2ALL_UIO_obj/stm32f0xx_hal_tim_ex.o
HAL_TIMEx_ConfigCommutationEvent_DMA              build/RS2ALL_UIO_obj/stm32f0xx_hal_tim_ex.o
HAL_TIMEx_ConfigCommutationEvent_IT               build/RS2ALL_UIO_obj/stm32f0xx_hal_tim_ex.o
HAL_TIMEx_HallSensor_DeInit                       build/RS2ALL_UIO_obj/stm32f0xx_hal_tim_ex.o
HAL_TIMEx_HallSensor_GetState                     build/RS2ALL_UIO_obj/stm32f0xx_hal_tim_ex.o
HAL_TIMEx_HallSensor_Init                         build/RS2ALL_UIO_obj/stm32f0xx_hal_tim_ex.o
HAL_TIMEx_HallSensor_MspDeInit                    build/RS2ALL_UIO_obj/stm32f0xx_hal_tim_ex.o
HAL_TIMEx_HallSensor_MspInit                      build/RS2ALL_UIO_obj/stm32f0xx_hal_tim_ex.o
HAL_TIMEx_HallSensor_Start                        build/RS2ALL_UIO_obj/stm32f0xx_hal_tim_ex.o
HAL_TIMEx_HallSensor_Start_DMA                    build/RS2ALL_UIO_obj/stm32f0xx_hal_tim_ex.o
HAL_TIMEx_HallSensor_Start_IT                     build/RS2ALL_UIO_obj/stm32f0xx_hal_tim_ex.o
HAL_TIMEx_HallSensor_Stop                         build/RS2ALL_UIO_obj/stm32f0xx_hal_tim_ex.o
HAL_TIMEx_HallSensor_Stop_DMA                     build/RS2ALL_UIO_obj/stm32f0xx_hal_tim_ex.o
HAL_TIMEx_HallSensor_Stop_IT                      build/RS2ALL_UIO_obj/stm32f0xx_hal_tim_ex.o
HAL_TIMEx_MasterConfigSynchronization             build/RS2ALL_UIO_obj/stm32f0xx_hal_tim_ex.o
HAL_TIMEx_OCN_Start                               build/RS2ALL_UIO_obj/stm32f0xx_hal_tim_ex.o
HAL_TIMEx_OCN_Start_DMA                           build/RS2ALL_UIO_obj/stm32f0xx_hal_tim_ex.o
HAL_TIMEx_OCN_Start_IT                            build/RS2ALL_UIO_obj/stm32f0xx_hal_tim_ex.o
HAL_TIMEx_OCN_Stop                                build/RS2ALL_UIO_obj/stm32f0xx_hal_tim_ex.o
HAL_TIMEx_OCN_Stop_DMA                            build/RS2ALL_UIO_obj/stm32f0xx_hal_tim_ex.o
HAL_TIMEx_OCN_Stop_IT                             build/RS2ALL_UIO_obj/stm32f0xx_hal_tim_ex.o
HAL_TIMEx_OnePulseN_Start                         build/RS2ALL_UIO_obj/stm32f0xx_hal_tim_ex.o
HAL_TIMEx_OnePulseN_Start_IT                      build/RS2ALL_UIO_obj/stm32f0xx_hal_tim_ex.o
HAL_TIMEx_OnePulseN_Stop                          build/RS2ALL_UIO_obj/stm32f0xx_hal_tim_ex.o
HAL_TIMEx_OnePulseN_Stop_IT                       build/RS2ALL_UIO_obj/stm32f0xx_hal_tim_ex.o
HAL_TIMEx_PWMN_Start                              build/RS2ALL_UIO_obj/stm32f0xx_hal_tim_ex.o
HAL_TIMEx_PWMN_Start_DMA                          build/RS2ALL_UIO_obj/stm32f0xx_hal_tim_ex.o
HAL_TIMEx_PWMN_Start_IT                           build/RS2ALL_UIO_obj/stm32f0xx_hal_tim_ex.o
HAL_TIMEx_PWMN_Stop                               build/RS2ALL_UIO_obj/stm32f0xx_hal_tim_ex.o
HAL_TIMEx_PWMN_Stop_DMA                           build/RS2ALL_UIO_obj/stm32f0xx_hal_tim_ex.o
HAL_TIMEx_PWMN_Stop_IT                            build/RS2ALL_UIO_obj/stm32f0xx_hal_tim_ex.o
HAL_TIMEx_RemapConfig                             build/RS2ALL_UIO_obj/stm32f0xx_hal_tim_ex.o
HAL_TIM_Base_DeInit                               build/RS2ALL_UIO_obj/stm32f0xx_hal_tim.o
HAL_TIM_Base_GetState                             build/RS2ALL_UIO_obj/stm32f0xx_hal_tim.o
HAL_TIM_Base_Init                                 build/RS2ALL_UIO_obj/stm32f0xx_hal_tim.o
                                                  build/RS2ALL_UIO_obj/porttimer.o
HAL_TIM_Base_MspDeInit                            build/RS2ALL_UIO_obj/stm32f0xx_hal_tim.o
HAL_TIM_Base_MspInit                              build/RS2ALL_UIO_obj/stm32f0xx_hal_tim.o
HAL_TIM_Base_Start                                build/RS2ALL_UIO_obj/stm32f0xx_hal_tim.o
HAL_TIM_Base_Start_DMA                            build/RS2ALL_UIO_obj/stm32f0xx_hal_tim.o
HAL_TIM_Base_Start_IT                             build/RS2ALL_UIO_obj/stm32f0xx_hal_tim.o
                                                  build/RS2ALL_UIO_obj/porttimer.o
HAL_TIM_Base_Stop                                 build/RS2ALL_UIO_obj/stm32f0xx_hal_tim.o
HAL_TIM_Base_Stop_DMA                             build/RS2ALL_UIO_obj/stm32f0xx_hal_tim.o
HAL_TIM_Base_Stop_IT                              build/RS2ALL_UIO_obj/stm32f0xx_hal_tim.o
                                                  build/RS2ALL_UIO_obj/porttimer.o
HAL_TIM_ConfigClockSource                         build/RS2ALL_UIO_obj/stm32f0xx_hal_tim.o
HAL_TIM_ConfigOCrefClear                          build/RS2ALL_UIO_obj/stm32f0xx_hal_tim.o
HAL_TIM_ConfigTI1Input                            build/RS2ALL_UIO_obj/stm32f0xx_hal_tim.o
HAL_TIM_DMABurst_MultiReadStart                   build/RS2ALL_UIO_obj/stm32f0xx_hal_tim.o
HAL_TIM_DMABurst_MultiWriteStart                  build/RS2ALL_UIO_obj/stm32f0xx_hal_tim.o
HAL_TIM_DMABurst_ReadStart                        build/RS2ALL_UIO_obj/stm32f0xx_hal_tim.o
HAL_TIM_DMABurst_ReadStop                         build/RS2ALL_UIO_obj/stm32f0xx_hal_tim.o
HAL_TIM_DMABurst_WriteStart                       build/RS2ALL_UIO_obj/stm32f0xx_hal_tim.o
HAL_TIM_DMABurst_WriteStop                        build/RS2ALL_UIO_obj/stm32f0xx_hal_tim.o
HAL_TIM_Encoder_DeInit                            build/RS2ALL_UIO_obj/stm32f0xx_hal_tim.o
HAL_TIM_Encoder_GetState                          build/RS2ALL_UIO_obj/stm32f0xx_hal_tim.o
HAL_TIM_Encoder_Init                              build/RS2ALL_UIO_obj/stm32f0xx_hal_tim.o
HAL_TIM_Encoder_MspDeInit                         build/RS2ALL_UIO_obj/stm32f0xx_hal_tim.o
HAL_TIM_Encoder_MspInit                           build/RS2ALL_UIO_obj/stm32f0xx_hal_tim.o
HAL_TIM_Encoder_Start                             build/RS2ALL_UIO_obj/stm32f0xx_hal_tim.o
HAL_TIM_Encoder_Start_DMA                         build/RS2ALL_UIO_obj/stm32f0xx_hal_tim.o
HAL_TIM_Encoder_Start_IT                          build/RS2ALL_UIO_obj/stm32f0xx_hal_tim.o
HAL_TIM_Encoder_Stop                              build/RS2ALL_UIO_obj/stm32f0xx_hal_tim.o
HAL_TIM_Encoder_Stop_DMA                          build/RS2ALL_UIO_obj/stm32f0xx_hal_tim.o
HAL_TIM_Encoder_Stop_IT                           build/RS2ALL_UIO_obj/stm32f0xx_hal_tim.o
HAL_TIM_ErrorCallback                             build/RS2ALL_UIO_obj/stm32f0xx_hal_tim.o
HAL_TIM_GenerateEvent                             build/RS2ALL_UIO_obj/stm32f0xx_hal_tim.o
HAL_TIM_IC_CaptureCallback                        build/RS2ALL_UIO_obj/stm32f0xx_hal_tim.o
HAL_TIM_IC_ConfigChannel                          build/RS2ALL_UIO_obj/stm32f0xx_hal_tim.o
HAL_TIM_IC_DeInit                                 build/RS2ALL_UIO_obj/stm32f0xx_hal_tim.o
HAL_TIM_IC_GetState                               build/RS2ALL_UIO_obj/stm32f0xx_hal_tim.o
HAL_TIM_IC_Init                                   build/RS2ALL_UIO_obj/stm32f0xx_hal_tim.o
HAL_TIM_IC_MspDeInit                              build/RS2ALL_UIO_obj/stm32f0xx_hal_tim.o
HAL_TIM_IC_MspInit                                build/RS2ALL_UIO_obj/stm32f0xx_hal_tim.o
HAL_TIM_IC_Start                                  build/RS2ALL_UIO_obj/stm32f0xx_hal_tim.o
HAL_TIM_IC_Start_DMA                              build/RS2ALL_UIO_obj/stm32f0xx_hal_tim.o
HAL_TIM_IC_Start_IT                               build/RS2ALL_UIO_obj/stm32f0xx_hal_tim.o
HAL_TIM_IC_Stop                                   build/RS2ALL_UIO_obj/stm32f0xx_hal_tim.o
HAL_TIM_IC_Stop_DMA                               build/RS2ALL_UIO_obj/stm32f0xx_hal_tim.o
HAL_TIM_IC_Stop_IT                                build/RS2ALL_UIO_obj/stm32f0xx_hal_tim.o
HAL_TIM_IRQHandler                                build/RS2ALL_UIO_obj/stm32f0xx_hal_tim.o
                                                  build/RS2ALL_UIO_obj/porttimer.o
HAL_TIM_OC_ConfigChannel                          build/RS2ALL_UIO_obj/stm32f0xx_hal_tim.o
HAL_TIM_OC_DeInit                                 build/RS2ALL_UIO_obj/stm32f0xx_hal_tim.o
HAL_TIM_OC_DelayElapsedCallback                   build/RS2ALL_UIO_obj/stm32f0xx_hal_tim.o
HAL_TIM_OC_GetState                               build/RS2ALL_UIO_obj/stm32f0xx_hal_tim.o
HAL_TIM_OC_Init                                   build/RS2ALL_UIO_obj/stm32f0xx_hal_tim.o
HAL_TIM_OC_MspDeInit                              build/RS2ALL_UIO_obj/stm32f0xx_hal_tim.o
HAL_TIM_OC_MspInit                                build/RS2ALL_UIO_obj/stm32f0xx_hal_tim.o
HAL_TIM_OC_Start                                  build/RS2ALL_UIO_obj/stm32f0xx_hal_tim.o
HAL_TIM_OC_Start_DMA                              build/RS2ALL_UIO_obj/stm32f0xx_hal_tim.o
HAL_TIM_OC_Start_IT                               build/RS2ALL_UIO_obj/stm32f0xx_hal_tim.o
HAL_TIM_OC_Stop                                   build/RS2ALL_UIO_obj/stm32f0xx_hal_tim.o
HAL_TIM_OC_Stop_DMA                               build/RS2ALL_UIO_obj/stm32f0xx_hal_tim.o
HAL_TIM_OC_Stop_IT                                build/RS2ALL_UIO_obj/stm32f0xx_hal_tim.o
HAL_TIM_OnePulse_ConfigChannel                    build/RS2ALL_UIO_obj/stm32f0xx_hal_tim.o
HAL_TIM_OnePulse_DeInit                           build/RS2ALL_UIO_obj/stm32f0xx_hal_tim.o
HAL_TIM_OnePulse_GetState                         build/RS2ALL_UIO_obj/stm32f0xx_hal_tim.o
HAL_TIM_OnePulse_Init                             build/RS2ALL_UIO_obj/stm32f0xx_hal_tim.o
HAL_TIM_OnePulse_MspDeInit                        build/RS2ALL_UIO_obj/stm32f0xx_hal_tim.o
HAL_TIM_OnePulse_MspInit                          build/RS2ALL_UIO_obj/stm32f0xx_hal_tim.o
HAL_TIM_OnePulse_Start                            build/RS2ALL_UIO_obj/stm32f0xx_hal_tim.o
HAL_TIM_OnePulse_Start_IT                         build/RS2ALL_UIO_obj/stm32f0xx_hal_tim.o
HAL_TIM_OnePulse_Stop                             build/RS2ALL_UIO_obj/stm32f0xx_hal_tim.o
HAL_TIM_OnePulse_Stop_IT                          build/RS2ALL_UIO_obj/stm32f0xx_hal_tim.o
HAL_TIM_PWM_ConfigChannel                         build/RS2ALL_UIO_obj/stm32f0xx_hal_tim.o
HAL_TIM_PWM_DeInit                                build/RS2ALL_UIO_obj/stm32f0xx_hal_tim.o
HAL_TIM_PWM_GetState                              build/RS2ALL_UIO_obj/stm32f0xx_hal_tim.o
HAL_TIM_PWM_Init                                  build/RS2ALL_UIO_obj/stm32f0xx_hal_tim.o
HAL_TIM_PWM_MspDeInit                             build/RS2ALL_UIO_obj/stm32f0xx_hal_tim.o
HAL_TIM_PWM_MspInit                               build/RS2ALL_UIO_obj/stm32f0xx_hal_tim.o
HAL_TIM_PWM_PulseFinishedCallback                 build/RS2ALL_UIO_obj/stm32f0xx_hal_tim.o
HAL_TIM_PWM_Start                                 build/RS2ALL_UIO_obj/stm32f0xx_hal_tim.o
HAL_TIM_PWM_Start_DMA                             build/RS2ALL_UIO_obj/stm32f0xx_hal_tim.o
HAL_TIM_PWM_Start_IT                              build/RS2ALL_UIO_obj/stm32f0xx_hal_tim.o
HAL_TIM_PWM_Stop                                  build/RS2ALL_UIO_obj/stm32f0xx_hal_tim.o
HAL_TIM_PWM_Stop_DMA                              build/RS2ALL_UIO_obj/stm32f0xx_hal_tim.o
HAL_TIM_PWM_Stop_IT                               build/RS2ALL_UIO_obj/stm32f0xx_hal_tim.o
HAL_TIM_PeriodElapsedCallback                     build/RS2ALL_UIO_obj/porttimer.o
                                                  build/RS2ALL_UIO_obj/stm32f0xx_hal_tim.o
HAL_TIM_ReadCapturedValue                         build/RS2ALL_UIO_obj/stm32f0xx_hal_tim.o
HAL_TIM_SlaveConfigSynchronization                build/RS2ALL_UIO_obj/stm32f0xx_hal_tim.o
HAL_TIM_SlaveConfigSynchronization_IT             build/RS2ALL_UIO_obj/stm32f0xx_hal_tim.o
HAL_TIM_TriggerCallback                           build/RS2ALL_UIO_obj/stm32f0xx_hal_tim.o
HAL_UART_Abort                                    build/RS2ALL_UIO_obj/stm32f0xx_hal_uart.o
HAL_UART_AbortCpltCallback                        build/RS2ALL_UIO_obj/stm32f0xx_hal_uart.o
HAL_UART_AbortReceive                             build/RS2ALL_UIO_obj/stm32f0xx_hal_uart.o
HAL_UART_AbortReceiveCpltCallback                 build/RS2ALL_UIO_obj/stm32f0xx_hal_uart.o
HAL_UART_AbortReceive_IT                          build/RS2ALL_UIO_obj/stm32f0xx_hal_uart.o
HAL_UART_AbortTransmit                            build/RS2ALL_UIO_obj/stm32f0xx_hal_uart.o
HAL_UART_AbortTransmitCpltCallback                build/RS2ALL_UIO_obj/stm32f0xx_hal_uart.o
HAL_UART_AbortTransmit_IT                         build/RS2ALL_UIO_obj/stm32f0xx_hal_uart.o
HAL_UART_Abort_IT                                 build/RS2ALL_UIO_obj/stm32f0xx_hal_uart.o
HAL_UART_DMAPause                                 build/RS2ALL_UIO_obj/stm32f0xx_hal_uart.o
HAL_UART_DMAResume                                build/RS2ALL_UIO_obj/stm32f0xx_hal_uart.o
HAL_UART_DMAStop                                  build/RS2ALL_UIO_obj/stm32f0xx_hal_uart.o
HAL_UART_DeInit                                   build/RS2ALL_UIO_obj/stm32f0xx_hal_uart.o
HAL_UART_ErrorCallback                            build/RS2ALL_UIO_obj/stm32f0xx_hal_uart.o
HAL_UART_GetError                                 build/RS2ALL_UIO_obj/stm32f0xx_hal_uart.o
HAL_UART_GetState                                 build/RS2ALL_UIO_obj/stm32f0xx_hal_uart.o
HAL_UART_IRQHandler                               build/RS2ALL_UIO_obj/stm32f0xx_hal_uart.o
                                                  build/RS2ALL_UIO_obj/portserial.o
HAL_UART_Init                                     build/RS2ALL_UIO_obj/stm32f0xx_hal_uart.o
HAL_UART_MspDeInit                                build/RS2ALL_UIO_obj/stm32f0xx_hal_uart.o
HAL_UART_MspInit                                  build/RS2ALL_UIO_obj/stm32f0xx_hal_uart.o
                                                  build/RS2ALL_UIO_obj/stm32f0xx_hal_uart_ex.o
HAL_UART_Receive                                  build/RS2ALL_UIO_obj/stm32f0xx_hal_uart.o
HAL_UART_Receive_DMA                              build/RS2ALL_UIO_obj/stm32f0xx_hal_uart.o
HAL_UART_Receive_IT                               build/RS2ALL_UIO_obj/stm32f0xx_hal_uart.o
HAL_UART_RxCpltCallback                           build/RS2ALL_UIO_obj/stm32f0xx_hal_uart.o
HAL_UART_RxHalfCpltCallback                       build/RS2ALL_UIO_obj/stm32f0xx_hal_uart.o
HAL_UART_Transmit                                 build/RS2ALL_UIO_obj/stm32f0xx_hal_uart.o
HAL_UART_Transmit_DMA                             build/RS2ALL_UIO_obj/stm32f0xx_hal_uart.o
HAL_UART_Transmit_IT                              build/RS2ALL_UIO_obj/stm32f0xx_hal_uart.o
HAL_UART_TxCpltCallback                           build/RS2ALL_UIO_obj/stm32f0xx_hal_uart.o
HAL_UART_TxHalfCpltCallback                       build/RS2ALL_UIO_obj/stm32f0xx_hal_uart.o
HardFault_Handler                                 build/RS2ALL_UIO_obj/startup_stm32f030k6tx.o
I2C1_IRQHandler                                   build/RS2ALL_UIO_obj/startup_stm32f030k6tx.o
NMI_Handler                                       build/RS2ALL_UIO_obj/startup_stm32f030k6tx.o
PendSV_Handler                                    build/RS2ALL_UIO_obj/startup_stm32f030k6tx.o
RCC_IRQHandler                                    build/RS2ALL_UIO_obj/startup_stm32f030k6tx.o
RTC_IRQHandler                                    build/RS2ALL_UIO_obj/startup_stm32f030k6tx.o
Reset_Handler                                     build/RS2ALL_UIO_obj/startup_stm32f030k6tx.o
SPI1_IRQHandler                                   build/RS2ALL_UIO_obj/startup_stm32f030k6tx.o
SVC_Handler                                       build/RS2ALL_UIO_obj/startup_stm32f030k6tx.o
SysTick_Handler                                   build/RS2ALL_UIO_obj/systick.o
                                                  build/RS2ALL_UIO_obj/startup_stm32f030k6tx.o
SystemCoreClock                                   build/RS2ALL_UIO_obj/system_stm32f0xx.o
                                                  build/RS2ALL_UIO_obj/stm32f0xx_hal_rcc.o
                                                  build/RS2ALL_UIO_obj/stm32f0xx_hal_adc.o
SystemCoreClockUpdate                             build/RS2ALL_UIO_obj/system_stm32f0xx.o
SystemInit                                        build/RS2ALL_UIO_obj/system_stm32f0xx.o
                                                  build/RS2ALL_UIO_obj/startup_stm32f030k6tx.o
TIM14_IRQHandler                                  build/RS2ALL_UIO_obj/porttimer.o
                                                  build/RS2ALL_UIO_obj/startup_stm32f030k6tx.o
TIM16_IRQHandler                                  build/RS2ALL_UIO_obj/startup_stm32f030k6tx.o
TIM17_IRQHandler                                  build/RS2ALL_UIO_obj/startup_stm32f030k6tx.o
TIM1_BRK_UP_TRG_COM_IRQHandler                    build/RS2ALL_UIO_obj/startup_stm32f030k6tx.o
TIM1_CC_IRQHandler                                build/RS2ALL_UIO_obj/startup_stm32f030k6tx.o
TIM3_IRQHandler                                   build/RS2ALL_UIO_obj/startup_stm32f030k6tx.o
TIMEx_DMACommutationCplt                          build/RS2ALL_UIO_obj/stm32f0xx_hal_tim_ex.o
                                                  build/RS2ALL_UIO_obj/stm32f0xx_hal_tim.o
TIM_Base_SetConfig                                build/RS2ALL_UIO_obj/stm32f0xx_hal_tim.o
                                                  build/RS2ALL_UIO_obj/stm32f0xx_hal_tim_ex.o
TIM_CCxChannelCmd                                 build/RS2ALL_UIO_obj/stm32f0xx_hal_tim.o
                                                  build/RS2ALL_UIO_obj/stm32f0xx_hal_tim_ex.o
TIM_DMACaptureCplt                                build/RS2ALL_UIO_obj/stm32f0xx_hal_tim.o
                                                  build/RS2ALL_UIO_obj/stm32f0xx_hal_tim_ex.o
TIM_DMADelayPulseCplt                             build/RS2ALL_UIO_obj/stm32f0xx_hal_tim.o
                                                  build/RS2ALL_UIO_obj/stm32f0xx_hal_tim_ex.o
TIM_DMAError                                      build/RS2ALL_UIO_obj/stm32f0xx_hal_tim.o
                                                  build/RS2ALL_UIO_obj/stm32f0xx_hal_tim_ex.o
TIM_ETR_SetConfig                                 build/RS2ALL_UIO_obj/stm32f0xx_hal_tim.o
TIM_OC2_SetConfig                                 build/RS2ALL_UIO_obj/stm32f0xx_hal_tim.o
                                                  build/RS2ALL_UIO_obj/stm32f0xx_hal_tim_ex.o
TIM_TI1_SetConfig                                 build/RS2ALL_UIO_obj/stm32f0xx_hal_tim.o
                                                  build/RS2ALL_UIO_obj/stm32f0xx_hal_tim_ex.o
UART_AdvFeatureConfig                             build/RS2ALL_UIO_obj/stm32f0xx_hal_uart.o
                                                  build/RS2ALL_UIO_obj/stm32f0xx_hal_uart_ex.o
UART_CheckIdleState                               build/RS2ALL_UIO_obj/stm32f0xx_hal_uart.o
                                                  build/RS2ALL_UIO_obj/stm32f0xx_hal_uart_ex.o
UART_EndTransmit_IT                               build/RS2ALL_UIO_obj/stm32f0xx_hal_uart.o
UART_Receive_IT                                   build/RS2ALL_UIO_obj/stm32f0xx_hal_uart.o
UART_SetConfig                                    build/RS2ALL_UIO_obj/stm32f0xx_hal_uart.o
                                                  build/RS2ALL_UIO_obj/stm32f0xx_hal_uart_ex.o
UART_Transmit_IT                                  build/RS2ALL_UIO_obj/stm32f0xx_hal_uart.o
UART_WaitOnFlagUntilTimeout                       build/RS2ALL_UIO_obj/stm32f0xx_hal_uart.o
USART1_IRQHandler                                 build/RS2ALL_UIO_obj/portserial.o
                                                  build/RS2ALL_UIO_obj/startup_stm32f030k6tx.o
WWDG_IRQHandler                                   build/RS2ALL_UIO_obj/startup_stm32f030k6tx.o
__aeabi_cfcmpeq                                   c:/st/stm32cubeide_1.1.0/stm32cubeide/plugins/com.st.stm32cube.ide.mcu.externaltools.gnu-arm-embedded.7-2018-q2-update.win32_1.0.0.201904081647/tools/bin/../lib/gcc/arm-none-eabi/7.3.1/thumb/v6-m\libgcc.a(_arm_cmpsf2.o)
__aeabi_cfcmple                                   c:/st/stm32cubeide_1.1.0/stm32cubeide/plugins/com.st.stm32cube.ide.mcu.externaltools.gnu-arm-embedded.7-2018-q2-update.win32_1.0.0.201904081647/tools/bin/../lib/gcc/arm-none-eabi/7.3.1/thumb/v6-m\libgcc.a(_arm_cmpsf2.o)
__aeabi_cfrcmple                                  c:/st/stm32cubeide_1.1.0/stm32cubeide/plugins/com.st.stm32cube.ide.mcu.externaltools.gnu-arm-embedded.7-2018-q2-update.win32_1.0.0.201904081647/tools/bin/../lib/gcc/arm-none-eabi/7.3.1/thumb/v6-m\libgcc.a(_arm_cmpsf2.o)
__aeabi_f2iz                                      c:/st/stm32cubeide_1.1.0/stm32cubeide/plugins/com.st.stm32cube.ide.mcu.externaltools.gnu-arm-embedded.7-2018-q2-update.win32_1.0.0.201904081647/tools/bin/../lib/gcc/arm-none-eabi/7.3.1/thumb/v6-m\libgcc.a(fixsfsi.o)
                                                  c:/st/stm32cubeide_1.1.0/stm32cubeide/plugins/com.st.stm32cube.ide.mcu.externaltools.gnu-arm-embedded.7-2018-q2-update.win32_1.0.0.201904081647/tools/bin/../lib/gcc/arm-none-eabi/7.3.1/thumb/v6-m\libgcc.a(_fixunssfsi.o)
__aeabi_f2uiz                                     c:/st/stm32cubeide_1.1.0/stm32cubeide/plugins/com.st.stm32cube.ide.mcu.externaltools.gnu-arm-embedded.7-2018-q2-update.win32_1.0.0.201904081647/tools/bin/../lib/gcc/arm-none-eabi/7.3.1/thumb/v6-m\libgcc.a(_fixunssfsi.o)
                                                  build/RS2ALL_UIO_obj/uio.o
__aeabi_fcmpeq                                    c:/st/stm32cubeide_1.1.0/stm32cubeide/plugins/com.st.stm32cube.ide.mcu.externaltools.gnu-arm-embedded.7-2018-q2-update.win32_1.0.0.201904081647/tools/bin/../lib/gcc/arm-none-eabi/7.3.1/thumb/v6-m\libgcc.a(_arm_cmpsf2.o)
__aeabi_fcmpge                                    c:/st/stm32cubeide_1.1.0/stm32cubeide/plugins/com.st.stm32cube.ide.mcu.externaltools.gnu-arm-embedded.7-2018-q2-update.win32_1.0.0.201904081647/tools/bin/../lib/gcc/arm-none-eabi/7.3.1/thumb/v6-m\libgcc.a(_arm_cmpsf2.o)
                                                  c:/st/stm32cubeide_1.1.0/stm32cubeide/plugins/com.st.stm32cube.ide.mcu.externaltools.gnu-arm-embedded.7-2018-q2-update.win32_1.0.0.201904081647/tools/bin/../lib/gcc/arm-none-eabi/7.3.1/thumb/v6-m\libgcc.a(_fixunssfsi.o)
__aeabi_fcmpgt                                    c:/st/stm32cubeide_1.1.0/stm32cubeide/plugins/com.st.stm32cube.ide.mcu.externaltools.gnu-arm-embedded.7-2018-q2-update.win32_1.0.0.201904081647/tools/bin/../lib/gcc/arm-none-eabi/7.3.1/thumb/v6-m\libgcc.a(_arm_cmpsf2.o)
__aeabi_fcmple                                    c:/st/stm32cubeide_1.1.0/stm32cubeide/plugins/com.st.stm32cube.ide.mcu.externaltools.gnu-arm-embedded.7-2018-q2-update.win32_1.0.0.201904081647/tools/bin/../lib/gcc/arm-none-eabi/7.3.1/thumb/v6-m\libgcc.a(_arm_cmpsf2.o)
__aeabi_fcmplt                                    c:/st/stm32cubeide_1.1.0/stm32cubeide/plugins/com.st.stm32cube.ide.mcu.externaltools.gnu-arm-embedded.7-2018-q2-update.win32_1.0.0.201904081647/tools/bin/../lib/gcc/arm-none-eabi/7.3.1/thumb/v6-m\libgcc.a(_arm_cmpsf2.o)
__aeabi_fmul                                      c:/st/stm32cubeide_1.1.0/stm32cubeide/plugins/com.st.stm32cube.ide.mcu.externaltools.gnu-arm-embedded.7-2018-q2-update.win32_1.0.0.201904081647/tools/bin/../lib/gcc/arm-none-eabi/7.3.1/thumb/v6-m\libgcc.a(mulsf3.o)
                                                  build/RS2ALL_UIO_obj/uio.o
__aeabi_fsub                                      c:/st/stm32cubeide_1.1.0/stm32cubeide/plugins/com.st.stm32cube.ide.mcu.externaltools.gnu-arm-embedded.7-2018-q2-update.win32_1.0.0.201904081647/tools/bin/../lib/gcc/arm-none-eabi/7.3.1/thumb/v6-m\libgcc.a(subsf3.o)
                                                  c:/st/stm32cubeide_1.1.0/stm32cubeide/plugins/com.st.stm32cube.ide.mcu.externaltools.gnu-arm-embedded.7-2018-q2-update.win32_1.0.0.201904081647/tools/bin/../lib/gcc/arm-none-eabi/7.3.1/thumb/v6-m\libgcc.a(_fixunssfsi.o)
__aeabi_i2f                                       c:/st/stm32cubeide_1.1.0/stm32cubeide/plugins/com.st.stm32cube.ide.mcu.externaltools.gnu-arm-embedded.7-2018-q2-update.win32_1.0.0.201904081647/tools/bin/../lib/gcc/arm-none-eabi/7.3.1/thumb/v6-m\libgcc.a(floatsisf.o)
                                                  build/RS2ALL_UIO_obj/uio.o
__aeabi_idiv                                      c:/st/stm32cubeide_1.1.0/stm32cubeide/plugins/com.st.stm32cube.ide.mcu.externaltools.gnu-arm-embedded.7-2018-q2-update.win32_1.0.0.201904081647/tools/bin/../lib/gcc/arm-none-eabi/7.3.1/thumb/v6-m\libgcc.a(_divsi3.o)
                                                  build/RS2ALL_UIO_obj/mbrtu.o
                                                  build/RS2ALL_UIO_obj/system_stm32f0xx.o
                                                  build/RS2ALL_UIO_obj/stm32f0xx_hal_rcc.o
__aeabi_idiv0                                     c:/st/stm32cubeide_1.1.0/stm32cubeide/plugins/com.st.stm32cube.ide.mcu.externaltools.gnu-arm-embedded.7-2018-q2-update.win32_1.0.0.201904081647/tools/bin/../lib/gcc/arm-none-eabi/7.3.1/thumb/v6-m\libgcc.a(_dvmd_tls.o)
                                                  c:/st/stm32cubeide_1.1.0/stm32cubeide/plugins/com.st.stm32cube.ide.mcu.externaltools.gnu-arm-embedded.7-2018-q2-update.win32_1.0.0.201904081647/tools/bin/../lib/gcc/arm-none-eabi/7.3.1/thumb/v6-m\libgcc.a(_divsi3.o)
                                                  c:/st/stm32cubeide_1.1.0/stm32cubeide/plugins/com.st.stm32cube.ide.mcu.externaltools.gnu-arm-embedded.7-2018-q2-update.win32_1.0.0.201904081647/tools/bin/../lib/gcc/arm-none-eabi/7.3.1/thumb/v6-m\libgcc.a(_udivsi3.o)
__aeabi_idivmod                                   c:/st/stm32cubeide_1.1.0/stm32cubeide/plugins/com.st.stm32cube.ide.mcu.externaltools.gnu-arm-embedded.7-2018-q2-update.win32_1.0.0.201904081647/tools/bin/../lib/gcc/arm-none-eabi/7.3.1/thumb/v6-m\libgcc.a(_divsi3.o)
__aeabi_ldiv0                                     c:/st/stm32cubeide_1.1.0/stm32cubeide/plugins/com.st.stm32cube.ide.mcu.externaltools.gnu-arm-embedded.7-2018-q2-update.win32_1.0.0.201904081647/tools/bin/../lib/gcc/arm-none-eabi/7.3.1/thumb/v6-m\libgcc.a(_dvmd_tls.o)
__aeabi_uidiv                                     c:/st/stm32cubeide_1.1.0/stm32cubeide/plugins/com.st.stm32cube.ide.mcu.externaltools.gnu-arm-embedded.7-2018-q2-update.win32_1.0.0.201904081647/tools/bin/../lib/gcc/arm-none-eabi/7.3.1/thumb/v6-m\libgcc.a(_udivsi3.o)
                                                  build/RS2ALL_UIO_obj/porttimer.o
                                                  build/RS2ALL_UIO_obj/mbrtu.o
                                                  build/RS2ALL_UIO_obj/system_stm32f0xx.o
                                                  build/RS2ALL_UIO_obj/stm32f0xx_hal_uart.o
                                                  build/RS2ALL_UIO_obj/stm32f0xx_hal_rcc.o
                                                  build/RS2ALL_UIO_obj/stm32f0xx_hal_dma.o
                                                  build/RS2ALL_UIO_obj/stm32f0xx_hal_adc.o
                                                  build/RS2ALL_UIO_obj/stm32f0xx_hal.o
__aeabi_uidivmod                                  c:/st/stm32cubeide_1.1.0/stm32cubeide/plugins/com.st.stm32cube.ide.mcu.externaltools.gnu-arm-embedded.7-2018-q2-update.win32_1.0.0.201904081647/tools/bin/../lib/gcc/arm-none-eabi/7.3.1/thumb/v6-m\libgcc.a(_udivsi3.o)
__bss_end__                                       c:/st/stm32cubeide_1.1.0/stm32cubeide/plugins/com.st.stm32cube.ide.mcu.externaltools.gnu-arm-embedded.7-2018-q2-update.win32_1.0.0.201904081647/tools/bin/../lib/gcc/arm-none-eabi/7.3.1/../../../../arm-none-eabi/lib/thumb/v6-m/crt0.o
__bss_start__                                     c:/st/stm32cubeide_1.1.0/stm32cubeide/plugins/com.st.stm32cube.ide.mcu.externaltools.gnu-arm-embedded.7-2018-q2-update.win32_1.0.0.201904081647/tools/bin/../lib/gcc/arm-none-eabi/7.3.1/../../../../arm-none-eabi/lib/thumb/v6-m/crt0.o
__call_exitprocs                                  c:/st/stm32cubeide_1.1.0/stm32cubeide/plugins/com.st.stm32cube.ide.mcu.externaltools.gnu-arm-embedded.7-2018-q2-update.win32_1.0.0.201904081647/tools/bin/../lib/gcc/arm-none-eabi/7.3.1/../../../../arm-none-eabi/lib/thumb/v6-m\libc_nano.a(lib_a-exit.o)
__clzsi2                                          c:/st/stm32cubeide_1.1.0/stm32cubeide/plugins/com.st.stm32cube.ide.mcu.externaltools.gnu-arm-embedded.7-2018-q2-update.win32_1.0.0.201904081647/tools/bin/../lib/gcc/arm-none-eabi/7.3.1/thumb/v6-m\libgcc.a(_clzsi2.o)
                                                  c:/st/stm32cubeide_1.1.0/stm32cubeide/plugins/com.st.stm32cube.ide.mcu.externaltools.gnu-arm-embedded.7-2018-q2-update.win32_1.0.0.201904081647/tools/bin/../lib/gcc/arm-none-eabi/7.3.1/thumb/v6-m\libgcc.a(floatsisf.o)
                                                  c:/st/stm32cubeide_1.1.0/stm32cubeide/plugins/com.st.stm32cube.ide.mcu.externaltools.gnu-arm-embedded.7-2018-q2-update.win32_1.0.0.201904081647/tools/bin/../lib/gcc/arm-none-eabi/7.3.1/thumb/v6-m\libgcc.a(subsf3.o)
                                                  c:/st/stm32cubeide_1.1.0/stm32cubeide/plugins/com.st.stm32cube.ide.mcu.externaltools.gnu-arm-embedded.7-2018-q2-update.win32_1.0.0.201904081647/tools/bin/../lib/gcc/arm-none-eabi/7.3.1/thumb/v6-m\libgcc.a(mulsf3.o)
__deregister_frame_info                           c:/st/stm32cubeide_1.1.0/stm32cubeide/plugins/com.st.stm32cube.ide.mcu.externaltools.gnu-arm-embedded.7-2018-q2-update.win32_1.0.0.201904081647/tools/bin/../lib/gcc/arm-none-eabi/7.3.1/thumb/v6-m/crtbegin.o
__divsi3                                          c:/st/stm32cubeide_1.1.0/stm32cubeide/plugins/com.st.stm32cube.ide.mcu.externaltools.gnu-arm-embedded.7-2018-q2-update.win32_1.0.0.201904081647/tools/bin/../lib/gcc/arm-none-eabi/7.3.1/thumb/v6-m\libgcc.a(_divsi3.o)
__dso_handle                                      c:/st/stm32cubeide_1.1.0/stm32cubeide/plugins/com.st.stm32cube.ide.mcu.externaltools.gnu-arm-embedded.7-2018-q2-update.win32_1.0.0.201904081647/tools/bin/../lib/gcc/arm-none-eabi/7.3.1/thumb/v6-m/crtbegin.o
__env                                             build/RS2ALL_UIO_obj/syscalls.o
__eqsf2                                           c:/st/stm32cubeide_1.1.0/stm32cubeide/plugins/com.st.stm32cube.ide.mcu.externaltools.gnu-arm-embedded.7-2018-q2-update.win32_1.0.0.201904081647/tools/bin/../lib/gcc/arm-none-eabi/7.3.1/thumb/v6-m\libgcc.a(eqsf2.o)
                                                  c:/st/stm32cubeide_1.1.0/stm32cubeide/plugins/com.st.stm32cube.ide.mcu.externaltools.gnu-arm-embedded.7-2018-q2-update.win32_1.0.0.201904081647/tools/bin/../lib/gcc/arm-none-eabi/7.3.1/thumb/v6-m\libgcc.a(_arm_cmpsf2.o)
__errno                                           c:/st/stm32cubeide_1.1.0/stm32cubeide/plugins/com.st.stm32cube.ide.mcu.externaltools.gnu-arm-embedded.7-2018-q2-update.win32_1.0.0.201904081647/tools/bin/../lib/gcc/arm-none-eabi/7.3.1/../../../../arm-none-eabi/lib/thumb/v6-m\libc_nano.a(lib_a-errno.o)
                                                  build/RS2ALL_UIO_obj/syscalls.o
                                                  build/RS2ALL_UIO_obj/sysmem.o
__fixunssfsi                                      c:/st/stm32cubeide_1.1.0/stm32cubeide/plugins/com.st.stm32cube.ide.mcu.externaltools.gnu-arm-embedded.7-2018-q2-update.win32_1.0.0.201904081647/tools/bin/../lib/gcc/arm-none-eabi/7.3.1/thumb/v6-m\libgcc.a(_fixunssfsi.o)
__gesf2                                           c:/st/stm32cubeide_1.1.0/stm32cubeide/plugins/com.st.stm32cube.ide.mcu.externaltools.gnu-arm-embedded.7-2018-q2-update.win32_1.0.0.201904081647/tools/bin/../lib/gcc/arm-none-eabi/7.3.1/thumb/v6-m\libgcc.a(gesf2.o)
                                                  c:/st/stm32cubeide_1.1.0/stm32cubeide/plugins/com.st.stm32cube.ide.mcu.externaltools.gnu-arm-embedded.7-2018-q2-update.win32_1.0.0.201904081647/tools/bin/../lib/gcc/arm-none-eabi/7.3.1/thumb/v6-m\libgcc.a(_arm_cmpsf2.o)
__gtsf2                                           c:/st/stm32cubeide_1.1.0/stm32cubeide/plugins/com.st.stm32cube.ide.mcu.externaltools.gnu-arm-embedded.7-2018-q2-update.win32_1.0.0.201904081647/tools/bin/../lib/gcc/arm-none-eabi/7.3.1/thumb/v6-m\libgcc.a(gesf2.o)
__init_array_end                                  c:/st/stm32cubeide_1.1.0/stm32cubeide/plugins/com.st.stm32cube.ide.mcu.externaltools.gnu-arm-embedded.7-2018-q2-update.win32_1.0.0.201904081647/tools/bin/../lib/gcc/arm-none-eabi/7.3.1/../../../../arm-none-eabi/lib/thumb/v6-m\libc_nano.a(lib_a-init.o)
__init_array_start                                c:/st/stm32cubeide_1.1.0/stm32cubeide/plugins/com.st.stm32cube.ide.mcu.externaltools.gnu-arm-embedded.7-2018-q2-update.win32_1.0.0.201904081647/tools/bin/../lib/gcc/arm-none-eabi/7.3.1/../../../../arm-none-eabi/lib/thumb/v6-m\libc_nano.a(lib_a-init.o)
__io_getchar                                      build/RS2ALL_UIO_obj/syscalls.o
__io_putchar                                      build/RS2ALL_UIO_obj/syscalls.o
__lesf2                                           c:/st/stm32cubeide_1.1.0/stm32cubeide/plugins/com.st.stm32cube.ide.mcu.externaltools.gnu-arm-embedded.7-2018-q2-update.win32_1.0.0.201904081647/tools/bin/../lib/gcc/arm-none-eabi/7.3.1/thumb/v6-m\libgcc.a(lesf2.o)
                                                  c:/st/stm32cubeide_1.1.0/stm32cubeide/plugins/com.st.stm32cube.ide.mcu.externaltools.gnu-arm-embedded.7-2018-q2-update.win32_1.0.0.201904081647/tools/bin/../lib/gcc/arm-none-eabi/7.3.1/thumb/v6-m\libgcc.a(_arm_cmpsf2.o)
__libc_fini_array                                 c:/st/stm32cubeide_1.1.0/stm32cubeide/plugins/com.st.stm32cube.ide.mcu.externaltools.gnu-arm-embedded.7-2018-q2-update.win32_1.0.0.201904081647/tools/bin/../lib/gcc/arm-none-eabi/7.3.1/../../../../arm-none-eabi/lib/thumb/v6-m/crt0.o
__libc_init_array                                 c:/st/stm32cubeide_1.1.0/stm32cubeide/plugins/com.st.stm32cube.ide.mcu.externaltools.gnu-arm-embedded.7-2018-q2-update.win32_1.0.0.201904081647/tools/bin/../lib/gcc/arm-none-eabi/7.3.1/../../../../arm-none-eabi/lib/thumb/v6-m\libc_nano.a(lib_a-init.o)
                                                  build/RS2ALL_UIO_obj/startup_stm32f030k6tx.o
                                                  c:/st/stm32cubeide_1.1.0/stm32cubeide/plugins/com.st.stm32cube.ide.mcu.externaltools.gnu-arm-embedded.7-2018-q2-update.win32_1.0.0.201904081647/tools/bin/../lib/gcc/arm-none-eabi/7.3.1/../../../../arm-none-eabi/lib/thumb/v6-m/crt0.o
__ltsf2                                           c:/st/stm32cubeide_1.1.0/stm32cubeide/plugins/com.st.stm32cube.ide.mcu.externaltools.gnu-arm-embedded.7-2018-q2-update.win32_1.0.0.201904081647/tools/bin/../lib/gcc/arm-none-eabi/7.3.1/thumb/v6-m\libgcc.a(lesf2.o)
__nesf2                                           c:/st/stm32cubeide_1.1.0/stm32cubeide/plugins/com.st.stm32cube.ide.mcu.externaltools.gnu-arm-embedded.7-2018-q2-update.win32_1.0.0.201904081647/tools/bin/../lib/gcc/arm-none-eabi/7.3.1/thumb/v6-m\libgcc.a(eqsf2.o)
__preinit_array_end                               c:/st/stm32cubeide_1.1.0/stm32cubeide/plugins/com.st.stm32cube.ide.mcu.externaltools.gnu-arm-embedded.7-2018-q2-update.win32_1.0.0.201904081647/tools/bin/../lib/gcc/arm-none-eabi/7.3.1/../../../../arm-none-eabi/lib/thumb/v6-m\libc_nano.a(lib_a-init.o)
__preinit_array_start                             c:/st/stm32cubeide_1.1.0/stm32cubeide/plugins/com.st.stm32cube.ide.mcu.externaltools.gnu-arm-embedded.7-2018-q2-update.win32_1.0.0.201904081647/tools/bin/../lib/gcc/arm-none-eabi/7.3.1/../../../../arm-none-eabi/lib/thumb/v6-m\libc_nano.a(lib_a-init.o)
__register_frame_info                             c:/st/stm32cubeide_1.1.0/stm32cubeide/plugins/com.st.stm32cube.ide.mcu.externaltools.gnu-arm-embedded.7-2018-q2-update.win32_1.0.0.201904081647/tools/bin/../lib/gcc/arm-none-eabi/7.3.1/thumb/v6-m/crtbegin.o
__sf_fake_stderr                                  c:/st/stm32cubeide_1.1.0/stm32cubeide/plugins/com.st.stm32cube.ide.mcu.externaltools.gnu-arm-embedded.7-2018-q2-update.win32_1.0.0.201904081647/tools/bin/../lib/gcc/arm-none-eabi/7.3.1/../../../../arm-none-eabi/lib/thumb/v6-m\libc_nano.a(lib_a-impure.o)
__sf_fake_stdin                                   c:/st/stm32cubeide_1.1.0/stm32cubeide/plugins/com.st.stm32cube.ide.mcu.externaltools.gnu-arm-embedded.7-2018-q2-update.win32_1.0.0.201904081647/tools/bin/../lib/gcc/arm-none-eabi/7.3.1/../../../../arm-none-eabi/lib/thumb/v6-m\libc_nano.a(lib_a-impure.o)
__sf_fake_stdout                                  c:/st/stm32cubeide_1.1.0/stm32cubeide/plugins/com.st.stm32cube.ide.mcu.externaltools.gnu-arm-embedded.7-2018-q2-update.win32_1.0.0.201904081647/tools/bin/../lib/gcc/arm-none-eabi/7.3.1/../../../../arm-none-eabi/lib/thumb/v6-m\libc_nano.a(lib_a-impure.o)
__stack                                           c:/st/stm32cubeide_1.1.0/stm32cubeide/plugins/com.st.stm32cube.ide.mcu.externaltools.gnu-arm-embedded.7-2018-q2-update.win32_1.0.0.201904081647/tools/bin/../lib/gcc/arm-none-eabi/7.3.1/../../../../arm-none-eabi/lib/thumb/v6-m/crt0.o
__udivsi3                                         c:/st/stm32cubeide_1.1.0/stm32cubeide/plugins/com.st.stm32cube.ide.mcu.externaltools.gnu-arm-embedded.7-2018-q2-update.win32_1.0.0.201904081647/tools/bin/../lib/gcc/arm-none-eabi/7.3.1/thumb/v6-m\libgcc.a(_udivsi3.o)
_close                                            build/RS2ALL_UIO_obj/syscalls.o
_ebss                                             build/RS2ALL_UIO_obj/startup_stm32f030k6tx.o
_edata                                            build/RS2ALL_UIO_obj/startup_stm32f030k6tx.o
_estack                                           build/RS2ALL_UIO_obj/startup_stm32f030k6tx.o
_execve                                           build/RS2ALL_UIO_obj/syscalls.o
_exit                                             build/RS2ALL_UIO_obj/syscalls.o
                                                  c:/st/stm32cubeide_1.1.0/stm32cubeide/plugins/com.st.stm32cube.ide.mcu.externaltools.gnu-arm-embedded.7-2018-q2-update.win32_1.0.0.201904081647/tools/bin/../lib/gcc/arm-none-eabi/7.3.1/../../../../arm-none-eabi/lib/thumb/v6-m\libc_nano.a(lib_a-exit.o)
_fini                                             c:/st/stm32cubeide_1.1.0/stm32cubeide/plugins/com.st.stm32cube.ide.mcu.externaltools.gnu-arm-embedded.7-2018-q2-update.win32_1.0.0.201904081647/tools/bin/../lib/gcc/arm-none-eabi/7.3.1/thumb/v6-m/crti.o
_fork                                             build/RS2ALL_UIO_obj/syscalls.o
_fstat                                            build/RS2ALL_UIO_obj/syscalls.o
_getpid                                           build/RS2ALL_UIO_obj/syscalls.o
_global_impure_ptr                                c:/st/stm32cubeide_1.1.0/stm32cubeide/plugins/com.st.stm32cube.ide.mcu.externaltools.gnu-arm-embedded.7-2018-q2-update.win32_1.0.0.201904081647/tools/bin/../lib/gcc/arm-none-eabi/7.3.1/../../../../arm-none-eabi/lib/thumb/v6-m\libc_nano.a(lib_a-impure.o)
                                                  c:/st/stm32cubeide_1.1.0/stm32cubeide/plugins/com.st.stm32cube.ide.mcu.externaltools.gnu-arm-embedded.7-2018-q2-update.win32_1.0.0.201904081647/tools/bin/../lib/gcc/arm-none-eabi/7.3.1/../../../../arm-none-eabi/lib/thumb/v6-m\libc_nano.a(lib_a-exit.o)
_impure_ptr                                       c:/st/stm32cubeide_1.1.0/stm32cubeide/plugins/com.st.stm32cube.ide.mcu.externaltools.gnu-arm-embedded.7-2018-q2-update.win32_1.0.0.201904081647/tools/bin/../lib/gcc/arm-none-eabi/7.3.1/../../../../arm-none-eabi/lib/thumb/v6-m\libc_nano.a(lib_a-impure.o)
                                                  c:/st/stm32cubeide_1.1.0/stm32cubeide/plugins/com.st.stm32cube.ide.mcu.externaltools.gnu-arm-embedded.7-2018-q2-update.win32_1.0.0.201904081647/tools/bin/../lib/gcc/arm-none-eabi/7.3.1/../../../../arm-none-eabi/lib/thumb/v6-m\libc_nano.a(lib_a-errno.o)
_init                                             c:/st/stm32cubeide_1.1.0/stm32cubeide/plugins/com.st.stm32cube.ide.mcu.externaltools.gnu-arm-embedded.7-2018-q2-update.win32_1.0.0.201904081647/tools/bin/../lib/gcc/arm-none-eabi/7.3.1/thumb/v6-m/crti.o
                                                  c:/st/stm32cubeide_1.1.0/stm32cubeide/plugins/com.st.stm32cube.ide.mcu.externaltools.gnu-arm-embedded.7-2018-q2-update.win32_1.0.0.201904081647/tools/bin/../lib/gcc/arm-none-eabi/7.3.1/../../../../arm-none-eabi/lib/thumb/v6-m\libc_nano.a(lib_a-init.o)
_isatty                                           build/RS2ALL_UIO_obj/syscalls.o
_kill                                             build/RS2ALL_UIO_obj/syscalls.o
_link                                             build/RS2ALL_UIO_obj/syscalls.o
_lseek                                            build/RS2ALL_UIO_obj/syscalls.o
_mainCRTStartup                                   c:/st/stm32cubeide_1.1.0/stm32cubeide/plugins/com.st.stm32cube.ide.mcu.externaltools.gnu-arm-embedded.7-2018-q2-update.win32_1.0.0.201904081647/tools/bin/../lib/gcc/arm-none-eabi/7.3.1/../../../../arm-none-eabi/lib/thumb/v6-m/crt0.o
_open                                             build/RS2ALL_UIO_obj/syscalls.o
_read                                             build/RS2ALL_UIO_obj/syscalls.o
_sbrk                                             build/RS2ALL_UIO_obj/sysmem.o
_sbss                                             build/RS2ALL_UIO_obj/startup_stm32f030k6tx.o
_sdata                                            build/RS2ALL_UIO_obj/startup_stm32f030k6tx.o
_sidata                                           build/RS2ALL_UIO_obj/startup_stm32f030k6tx.o
_start                                            c:/st/stm32cubeide_1.1.0/stm32cubeide/plugins/com.st.stm32cube.ide.mcu.externaltools.gnu-arm-embedded.7-2018-q2-update.win32_1.0.0.201904081647/tools/bin/../lib/gcc/arm-none-eabi/7.3.1/../../../../arm-none-eabi/lib/thumb/v6-m/crt0.o
_stat                                             build/RS2ALL_UIO_obj/syscalls.o
_times                                            build/RS2ALL_UIO_obj/syscalls.o
_unlink                                           build/RS2ALL_UIO_obj/syscalls.o
_wait                                             build/RS2ALL_UIO_obj/syscalls.o
_write                                            build/RS2ALL_UIO_obj/syscalls.o
atexit                                            c:/st/stm32cubeide_1.1.0/stm32cubeide/plugins/com.st.stm32cube.ide.mcu.externaltools.gnu-arm-embedded.7-2018-q2-update.win32_1.0.0.201904081647/tools/bin/../lib/gcc/arm-none-eabi/7.3.1/../../../../arm-none-eabi/lib/thumb/v6-m/crt0.o
clock_init                                        build/RS2ALL_UIO_obj/clock.o
                                                  build/RS2ALL_UIO_obj/main.o
eMBClose                                          build/RS2ALL_UIO_obj/mb.o
eMBDisable                                        build/RS2ALL_UIO_obj/mb.o
eMBEnable                                         build/RS2ALL_UIO_obj/mb.o
                                                  build/RS2ALL_UIO_obj/modbus.o
eMBFuncReadCoils                                  build/RS2ALL_UIO_obj/mbfunccoils.o
                                                  build/RS2ALL_UIO_obj/mb.o
eMBFuncReadDiscreteInputs                         build/RS2ALL_UIO_obj/mbfuncdisc.o
                                                  build/RS2ALL_UIO_obj/mb.o
eMBFuncReadHoldingRegister                        build/RS2ALL_UIO_obj/mbfuncholding.o
                                                  build/RS2ALL_UIO_obj/mb.o
eMBFuncReadInputRegister                          build/RS2ALL_UIO_obj/mbfuncinput.o
                                                  build/RS2ALL_UIO_obj/mb.o
eMBFuncReadWriteMultipleHoldingRegister           build/RS2ALL_UIO_obj/mbfuncholding.o
                                                  build/RS2ALL_UIO_obj/mb.o
eMBFuncWriteCoil                                  build/RS2ALL_UIO_obj/mbfunccoils.o
                                                  build/RS2ALL_UIO_obj/mb.o
eMBFuncWriteHoldingRegister                       build/RS2ALL_UIO_obj/mbfuncholding.o
                                                  build/RS2ALL_UIO_obj/mb.o
eMBFuncWriteMultipleCoils                         build/RS2ALL_UIO_obj/mbfunccoils.o
                                                  build/RS2ALL_UIO_obj/mb.o
eMBFuncWriteMultipleHoldingRegister               build/RS2ALL_UIO_obj/mbfuncholding.o
                                                  build/RS2ALL_UIO_obj/mb.o
eMBInit                                           build/RS2ALL_UIO_obj/mb.o
                                                  build/RS2ALL_UIO_obj/modbus.o
eMBPoll                                           build/RS2ALL_UIO_obj/mb.o
                                                  build/RS2ALL_UIO_obj/modbus.o
eMBRTUInit                                        build/RS2ALL_UIO_obj/mbrtu.o
                                                  build/RS2ALL_UIO_obj/mb.o
eMBRTUReceive                                     build/RS2ALL_UIO_obj/mbrtu.o
                                                  build/RS2ALL_UIO_obj/mb.o
eMBRTUSend                                        build/RS2ALL_UIO_obj/mbrtu.o
                                                  build/RS2ALL_UIO_obj/mb.o
eMBRTUStart                                       build/RS2ALL_UIO_obj/mbrtu.o
                                                  build/RS2ALL_UIO_obj/mb.o
eMBRTUStop                                        build/RS2ALL_UIO_obj/mbrtu.o
                                                  build/RS2ALL_UIO_obj/mb.o
eMBRegCoilsCB                                     build/RS2ALL_UIO_obj/registers.o
                                                  build/RS2ALL_UIO_obj/mbfunccoils.o
eMBRegDiscreteCB                                  build/RS2ALL_UIO_obj/registers.o
                                                  build/RS2ALL_UIO_obj/mbfuncdisc.o
eMBRegHoldingCB                                   build/RS2ALL_UIO_obj/registers.o
                                                  build/RS2ALL_UIO_obj/mbfuncholding.o
eMBRegInputCB                                     build/RS2ALL_UIO_obj/registers.o
                                                  build/RS2ALL_UIO_obj/mbfuncinput.o
eMBRegisterCB                                     build/RS2ALL_UIO_obj/mb.o
end                                               build/RS2ALL_UIO_obj/sysmem.o
environ                                           build/RS2ALL_UIO_obj/syscalls.o
exit                                              c:/st/stm32cubeide_1.1.0/stm32cubeide/plugins/com.st.stm32cube.ide.mcu.externaltools.gnu-arm-embedded.7-2018-q2-update.win32_1.0.0.201904081647/tools/bin/../lib/gcc/arm-none-eabi/7.3.1/../../../../arm-none-eabi/lib/thumb/v6-m\libc_nano.a(lib_a-exit.o)
                                                  c:/st/stm32cubeide_1.1.0/stm32cubeide/plugins/com.st.stm32cube.ide.mcu.externaltools.gnu-arm-embedded.7-2018-q2-update.win32_1.0.0.201904081647/tools/bin/../lib/gcc/arm-none-eabi/7.3.1/../../../../arm-none-eabi/lib/thumb/v6-m/crt0.o
g_pfnVectors                                      build/RS2ALL_UIO_obj/startup_stm32f030k6tx.o
hardware_init_hook                                c:/st/stm32cubeide_1.1.0/stm32cubeide/plugins/com.st.stm32cube.ide.mcu.externaltools.gnu-arm-embedded.7-2018-q2-update.win32_1.0.0.201904081647/tools/bin/../lib/gcc/arm-none-eabi/7.3.1/../../../../arm-none-eabi/lib/thumb/v6-m/crt0.o
initialise_monitor_handles                        build/RS2ALL_UIO_obj/syscalls.o
led_init                                          build/RS2ALL_UIO_obj/led.o
                                                  build/RS2ALL_UIO_obj/main.o
led_toggle                                        build/RS2ALL_UIO_obj/led.o
                                                  build/RS2ALL_UIO_obj/main.o
main                                              build/RS2ALL_UIO_obj/main.o
                                                  build/RS2ALL_UIO_obj/startup_stm32f030k6tx.o
                                                  c:/st/stm32cubeide_1.1.0/stm32cubeide/plugins/com.st.stm32cube.ide.mcu.externaltools.gnu-arm-embedded.7-2018-q2-update.win32_1.0.0.201904081647/tools/bin/../lib/gcc/arm-none-eabi/7.3.1/../../../../arm-none-eabi/lib/thumb/v6-m/crt0.o
memcpy                                            c:/st/stm32cubeide_1.1.0/stm32cubeide/plugins/com.st.stm32cube.ide.mcu.externaltools.gnu-arm-embedded.7-2018-q2-update.win32_1.0.0.201904081647/tools/bin/../lib/gcc/arm-none-eabi/7.3.1/../../../../arm-none-eabi/lib/thumb/v6-m\libc_nano.a(lib_a-memcpy-stub.o)
                                                  build/RS2ALL_UIO_obj/registers.o
memset                                            c:/st/stm32cubeide_1.1.0/stm32cubeide/plugins/com.st.stm32cube.ide.mcu.externaltools.gnu-arm-embedded.7-2018-q2-update.win32_1.0.0.201904081647/tools/bin/../lib/gcc/arm-none-eabi/7.3.1/../../../../arm-none-eabi/lib/thumb/v6-m\libc_nano.a(lib_a-memset.o)
                                                  build/RS2ALL_UIO_obj/uio.o
                                                  build/RS2ALL_UIO_obj/registers.o
                                                  build/RS2ALL_UIO_obj/led.o
                                                  build/RS2ALL_UIO_obj/clock.o
                                                  c:/st/stm32cubeide_1.1.0/stm32cubeide/plugins/com.st.stm32cube.ide.mcu.externaltools.gnu-arm-embedded.7-2018-q2-update.win32_1.0.0.201904081647/tools/bin/../lib/gcc/arm-none-eabi/7.3.1/../../../../arm-none-eabi/lib/thumb/v6-m/crt0.o
modbus_init                                       build/RS2ALL_UIO_obj/modbus.o
                                                  build/RS2ALL_UIO_obj/main.o
modbus_poll                                       build/RS2ALL_UIO_obj/modbus.o
                                                  build/RS2ALL_UIO_obj/main.o
pFlash                                            build/RS2ALL_UIO_obj/stm32f0xx_hal_flash.o
                                                  build/RS2ALL_UIO_obj/stm32f0xx_hal_flash_ex.o
prveMBError2Exception                             build/RS2ALL_UIO_obj/mbutils.o
                                                  build/RS2ALL_UIO_obj/mbfuncinput.o
                                                  build/RS2ALL_UIO_obj/mbfuncholding.o
                                                  build/RS2ALL_UIO_obj/mbfuncdisc.o
                                                  build/RS2ALL_UIO_obj/mbfunccoils.o
pxMBFrameCBByteReceived                           build/RS2ALL_UIO_obj/mb.o
                                                  build/RS2ALL_UIO_obj/portserial.o
pxMBFrameCBReceiveFSMCur                          build/RS2ALL_UIO_obj/mb.o
pxMBFrameCBTransmitFSMCur                         build/RS2ALL_UIO_obj/mb.o
pxMBFrameCBTransmitterEmpty                       build/RS2ALL_UIO_obj/mb.o
                                                  build/RS2ALL_UIO_obj/portserial.o
pxMBPortCBTimerExpired                            build/RS2ALL_UIO_obj/mb.o
                                                  build/RS2ALL_UIO_obj/porttimer.o
registers_get_config_uio                          build/RS2ALL_UIO_obj/registers.o
                                                  build/RS2ALL_UIO_obj/main.o
registers_get_wr_value_uio                        build/RS2ALL_UIO_obj/registers.o
                                                  build/RS2ALL_UIO_obj/main.o
registers_set_rd_value_uio                        build/RS2ALL_UIO_obj/registers.o
                                                  build/RS2ALL_UIO_obj/main.o
software_init_hook                                c:/st/stm32cubeide_1.1.0/stm32cubeide/plugins/com.st.stm32cube.ide.mcu.externaltools.gnu-arm-embedded.7-2018-q2-update.win32_1.0.0.201904081647/tools/bin/../lib/gcc/arm-none-eabi/7.3.1/../../../../arm-none-eabi/lib/thumb/v6-m/crt0.o
swtimer_add_timer                                 build/RS2ALL_UIO_obj/swtimer.o
                                                  build/RS2ALL_UIO_obj/main.o
swtimer_is_timeout                                build/RS2ALL_UIO_obj/swtimer.o
                                                  build/RS2ALL_UIO_obj/main.o
swtimer_start                                     build/RS2ALL_UIO_obj/swtimer.o
swtimer_stop                                      build/RS2ALL_UIO_obj/swtimer.o
ucRTUBuf                                          build/RS2ALL_UIO_obj/mbrtu.o
uio_configure                                     build/RS2ALL_UIO_obj/uio.o
                                                  build/RS2ALL_UIO_obj/main.o
uio_get_readout                                   build/RS2ALL_UIO_obj/uio.o
                                                  build/RS2ALL_UIO_obj/main.o
uio_init                                          build/RS2ALL_UIO_obj/uio.o
                                                  build/RS2ALL_UIO_obj/main.o
uio_set_value                                     build/RS2ALL_UIO_obj/uio.o
                                                  build/RS2ALL_UIO_obj/main.o
usMBCRC16                                         build/RS2ALL_UIO_obj/mbcrc.o
                                                  build/RS2ALL_UIO_obj/mbrtu.o
uwTick                                            build/RS2ALL_UIO_obj/stm32f0xx_hal.o
vMBPortSerialEnable                               build/RS2ALL_UIO_obj/portserial.o
                                                  build/RS2ALL_UIO_obj/mbrtu.o
vMBPortTimersDisable                              build/RS2ALL_UIO_obj/porttimer.o
                                                  build/RS2ALL_UIO_obj/mbrtu.o
vMBPortTimersEnable                               build/RS2ALL_UIO_obj/porttimer.o
                                                  build/RS2ALL_UIO_obj/mbrtu.o
xMBPortEventGet                                   build/RS2ALL_UIO_obj/portevent.o
                                                  build/RS2ALL_UIO_obj/mb.o
xMBPortEventInit                                  build/RS2ALL_UIO_obj/portevent.o
                                                  build/RS2ALL_UIO_obj/mb.o
xMBPortEventPost                                  build/RS2ALL_UIO_obj/portevent.o
                                                  build/RS2ALL_UIO_obj/mb.o
                                                  build/RS2ALL_UIO_obj/mbrtu.o
xMBPortSerialGetByte                              build/RS2ALL_UIO_obj/portserial.o
                                                  build/RS2ALL_UIO_obj/mbrtu.o
xMBPortSerialInit                                 build/RS2ALL_UIO_obj/portserial.o
                                                  build/RS2ALL_UIO_obj/mbrtu.o
xMBPortSerialPutByte                              build/RS2ALL_UIO_obj/portserial.o
                                                  build/RS2ALL_UIO_obj/mbrtu.o
xMBPortTimersInit                                 build/RS2ALL_UIO_obj/porttimer.o
                                                  build/RS2ALL_UIO_obj/mbrtu.o
xMBRTUReceiveFSM                                  build/RS2ALL_UIO_obj/mbrtu.o
                                                  build/RS2ALL_UIO_obj/mb.o
xMBRTUTimerT35Expired                             build/RS2ALL_UIO_obj/mbrtu.o
                                                  build/RS2ALL_UIO_obj/mb.o
xMBRTUTransmitFSM                                 build/RS2ALL_UIO_obj/mbrtu.o
                                                  build/RS2ALL_UIO_obj/mb.o
xMBUtilGetBits                                    build/RS2ALL_UIO_obj/mbutils.o
xMBUtilSetBits                                    build/RS2ALL_UIO_obj/mbutils.o
